{
  "_format": "hh-sol-artifact-1",
  "contractName": "MockFeeFomula",
  "sourceName": "contracts/mock/MockFeeFomula.sol",
  "abi": [
    {
      "inputs": [
        {
          "internalType": "uint256",
          "name": "rFactor",
          "type": "uint256"
        }
      ],
      "name": "getFee",
      "outputs": [
        {
          "internalType": "uint256",
          "name": "",
          "type": "uint256"
        }
      ],
      "stateMutability": "pure",
      "type": "function"
    }
  ],
  "bytecode": "0x608060405234801561001057600080fd5b50610595806100206000396000f3fe608060405234801561001057600080fd5b506004361061002b5760003560e01c8063fcee45f414610030575b600080fd5b61004d6004803603602081101561004657600080fd5b503561005f565b60408051918252519081900360200190f35b600061006a82610072565b90505b919050565b6000671480cc142da92a8482106100915750661550f7dca7000061006d565b670de0b6b3a764000082106101a5576710a741a462780000821115610140577fffffffffffffffffffffffffffffffffffffffffffffffffef58be5b9d880000820160006100e0826003610265565b905061271061012f610100846009680d8d726b7177a800005b049061033c565b61012961011985601b69043c33c19375648000006100f9565b6801fa48421ec7b1ed0990610360565b90610360565b8161013657fe5b049250505061006d565b6710a741a4627800008290036000610159826003610265565b905061271061012f610176846009680d8d726b7177a800006100f9565b61019f61018f85601b69043c33c19375648000006100f9565b6801fa48421ec7b1ed09906103db565b906103db565b6000670b9a1192183a000083116101c757670b9a1192183a00008390036101eb565b7ffffffffffffffffffffffffffffffffffffffffffffffffff465ee6de7c6000083015b90506101f8816002610265565b9050600061022761020f8365b5e620f48000610360565b610221674563918244f4000085610452565b906104c5565b9050670b9a1192183a000084111561024f5761271061012f6801161163ae0de59a9283610360565b61271061012f6801161163ae0de59a92836103db565b6000670de0b6b3a76400008311156102de57604080517f08c379a000000000000000000000000000000000000000000000000000000000815260206004820152601660248201527f4d6174684578743a2078203e20505245434953494f4e00000000000000000000604482015290519081900360640190fd5b600282066102f457670de0b6b3a76400006102f6565b825b90506002820491505b811561033657670de0b6b3a7640000838002049250600282061561032b57670de0b6b3a7640000908302045b6002820491506102ff565b92915050565b6000670de0b6b3a76400006103518484610452565b8161035857fe5b049392505050565b6000828201838110156103d457604080517f08c379a000000000000000000000000000000000000000000000000000000000815260206004820152601b60248201527f536166654d6174683a206164646974696f6e206f766572666c6f770000000000604482015290519081900360640190fd5b9392505050565b60008282111561044c57604080517f08c379a000000000000000000000000000000000000000000000000000000000815260206004820152601e60248201527f536166654d6174683a207375627472616374696f6e206f766572666c6f770000604482015290519081900360640190fd5b50900390565b60008261046157506000610336565b8282028284828161046e57fe5b04146103d4576040517f08c379a000000000000000000000000000000000000000000000000000000000815260040180806020018281038252602181526020018061053f6021913960400191505060405180910390fd5b600080821161053557604080517f08c379a000000000000000000000000000000000000000000000000000000000815260206004820152601a60248201527f536166654d6174683a206469766973696f6e206279207a65726f000000000000604482015290519081900360640190fd5b81838161035857fefe536166654d6174683a206d756c7469706c69636174696f6e206f766572666c6f77a2646970667358221220a6ba51fc6f2e42597a6cc438f43a8018e612e6ec86f1d0d7bd1a0b5dd85ea55164736f6c634300060c0033",
  "linkReferences": {},
  "deployedLinkReferences": {}
}