{
  "_format": "hh-sol-artifact-1",
  "contractName": "MockFeeFomula",
  "sourceName": "contracts/mock/MockFeeFomula.sol",
  "abi": [
    {
      "inputs": [
        {
          "internalType": "uint256",
          "name": "rFactor",
          "type": "uint256"
        }
      ],
      "name": "getFee",
      "outputs": [
        {
          "internalType": "uint256",
          "name": "",
          "type": "uint256"
        }
      ],
      "stateMutability": "pure",
      "type": "function"
    }
  ],
  "bytecode": "0x608060405234801561001057600080fd5b506104de806100206000396000f3fe608060405234801561001057600080fd5b506004361061002b5760003560e01c8063fcee45f414610030575b600080fd5b61004d6004803603602081101561004657600080fd5b503561005f565b60408051918252519081900360200190f35b600061006a82610072565b90505b919050565b6000671480cc142da92a8482106100915750661550f7dca7000061006d565b670de0b6b3a7640000821061018e576710a741a462780000821115610129576710a741a46277ffff19820160006100c9826003610237565b90506127106101186100e9846009680d8d726b7177a800005b04906102ed565b61011261010285601b69043c33c19375648000006100e2565b6801fa48421ec7b1ed0990610311565b90610311565b8161011f57fe5b049250505061006d565b6710a741a4627800008290036000610142826003610237565b905061271061011861015f846009680d8d726b7177a800006100e2565b61018861017885601b69043c33c19375648000006100e2565b6801fa48421ec7b1ed0990610372565b90610372565b6000670b9a1192183a000083116101b057670b9a1192183a00008390036101bd565b670b9a11921839ffff1983015b90506101ca816002610237565b905060006101f96101e18365b5e620f48000610311565b6101f3674563918244f40000856103cf565b90610428565b9050670b9a1192183a0000841115610221576127106101186801161163ae0de59a9283610311565b6127106101186801161163ae0de59a9283610372565b6000670de0b6b3a764000083111561028f576040805162461bcd60e51b815260206004820152601660248201527526b0ba3422bc3a1d103c101f10282922a1a4a9a4a7a760511b604482015290519081900360640190fd5b600282066102a557670de0b6b3a76400006102a7565b825b90506002820491505b81156102e757670de0b6b3a764000083800204925060028206156102dc57670de0b6b3a7640000908302045b6002820491506102b0565b92915050565b6000670de0b6b3a764000061030284846103cf565b8161030957fe5b049392505050565b60008282018381101561036b576040805162461bcd60e51b815260206004820152601b60248201527f536166654d6174683a206164646974696f6e206f766572666c6f770000000000604482015290519081900360640190fd5b9392505050565b6000828211156103c9576040805162461bcd60e51b815260206004820152601e60248201527f536166654d6174683a207375627472616374696f6e206f766572666c6f770000604482015290519081900360640190fd5b50900390565b6000826103de575060006102e7565b828202828482816103eb57fe5b041461036b5760405162461bcd60e51b81526004018080602001828103825260218152602001806104886021913960400191505060405180910390fd5b600080821161047e576040805162461bcd60e51b815260206004820152601a60248201527f536166654d6174683a206469766973696f6e206279207a65726f000000000000604482015290519081900360640190fd5b81838161030957fefe536166654d6174683a206d756c7469706c69636174696f6e206f766572666c6f77a26469706673582212203b604230c341e407610aa67bc85436b4d35b09f33652d602869bbbee9053137e64736f6c634300060c0033",
  "linkReferences": {},
  "deployedLinkReferences": {}
}