{
	"data": {
		"bytecode": {
			"linkReferences": {},
			"object": "60a06040523480156200001157600080fd5b506040516200503e3803806200503e83398101604081905262000034916200077c565b826001600160a01b0381166200007b576040805162461bcd60e51b8152602060048201526007602482015266061646d696e20360cc1b604482015290519081900360640190fd5b600080546001600160a01b0319166001600160a01b039290921691909117905560016002558151620000b5906004906020850190620006b0565b506001600160601b0319606082901b1660805281516001600160401b0381118015620000e057600080fd5b506040519080825280602002602001820160405280156200010b578160200160208202803683370190505b50805162000122916005916020909101906200071a565b5060005b8251811015620002905760006001600160a01b03168382815181106200014857fe5b60200260200101516001600160a01b0316146200026a5760008382815181106200016e57fe5b60200260200101516001600160a01b031663313ce5676040518163ffffffff1660e01b815260040160206040518083038186803b158015620001af57600080fd5b505afa158015620001c4573d6000803e3d6000fd5b505050506040513d601f19601f82011682018060405250810190620001ea919062000865565b905060128160ff16101562000209578060120360ff16600a0a6200020c565b60015b600583815481106200021a57fe5b906000526020600020018190555062000263836000198685815181106200023d57fe5b60200260200101516001600160a01b03166200029a60201b620020fd179092919060201c565b5062000287565b6001600582815481106200027a57fe5b6000918252602090912001555b60010162000126565b50505050620008a1565b80158062000324575060408051636eb1769f60e11b81523060048201526001600160a01b03848116602483015291519185169163dd62ed3e91604480820192602092909190829003018186803b158015620002f457600080fd5b505afa15801562000309573d6000803e3d6000fd5b505050506040513d60208110156200032057600080fd5b5051155b620003615760405162461bcd60e51b8152600401808060200182810382526036815260200180620050086036913960400191505060405180910390fd5b604080516001600160a01b038416602482015260448082018490528251808303909101815260649091019091526020810180516001600160e01b0390811663095ea7b360e01b17909152620003b9918591620003be16565b505050565b60006200041a826040518060400160405280602081526020017f5361666545524332303a206c6f772d6c6576656c2063616c6c206661696c6564815250856001600160a01b03166200047a60201b62002218179092919060201c565b805190915015620003b9578080602001905160208110156200043b57600080fd5b5051620003b95760405162461bcd60e51b815260040180806020018281038252602a81526020018062004fde602a913960400191505060405180910390fd5b60606200048b848460008562000495565b90505b9392505050565b606082471015620004d85760405162461bcd60e51b815260040180806020018281038252602681526020018062004fb86026913960400191505060405180910390fd5b620004e385620005fc565b62000535576040805162461bcd60e51b815260206004820152601d60248201527f416464726573733a2063616c6c20746f206e6f6e2d636f6e7472616374000000604482015290519081900360640190fd5b600080866001600160a01b031685876040518082805190602001908083835b60208310620005755780518252601f19909201916020918201910162000554565b6001836020036101000a03801982511681845116808217855250505050505090500191505060006040518083038185875af1925050503d8060008114620005d9576040519150601f19603f3d011682016040523d82523d6000602084013e620005de565b606091505b509092509050620005f182828662000606565b979650505050505050565b803b15155b919050565b60608315620006175750816200048e565b825115620006285782518084602001fd5b8160405162461bcd60e51b81526004018080602001828103825283818151815260200191508051906020019080838360005b83811015620006745781810151838201526020016200065a565b50505050905090810190601f168015620006a25780820380516001836020036101000a031916815260200191505b509250505060405180910390fd5b82805482825590600052602060002090810192821562000708579160200282015b828111156200070857825182546001600160a01b0319166001600160a01b03909116178255602090920191600190910190620006d1565b506200071692915062000758565b5090565b82805482825590600052602060002090810192821562000708579160200282015b82811115620007085782518255916020019190600101906200073b565b5b8082111562000716576000815560010162000759565b8051620006018162000888565b60008060006060848603121562000791578283fd5b83516200079e8162000888565b602085810151919450906001600160401b0380821115620007bd578485fd5b818701915087601f830112620007d1578485fd5b815181811115620007de57fe5b83810260405185828201018181108582111715620007f857fe5b604052828152858101935084860182860187018c101562000817578889fd5b8895505b8386101562000844576200082f816200076f565b8552600195909501949386019386016200081b565b508097505050505050506200085c604085016200076f565b90509250925092565b60006020828403121562000877578081fd5b815160ff811681146200048e578182fd5b6001600160a01b03811681146200089e57600080fd5b50565b60805160601c6146f4620008c4600039806108b852806127f152506146f46000f3fe6080604052600436106200018d5760003560e01c80637acc867811620000e5578063c401fb4f1162000097578063d18df53c116200006d578063d18df53c14620004d2578063ddc632621462000506578063f851a440146200052b578063fef1268714620005435762000195565b8063c401fb4f1462000461578063c4f59f9b1462000486578063d12e4ceb14620004ad5762000195565b80637acc867814620003835780637bb7bed114620003a8578063958e2d3114620003cd578063a3a19dfb14620003f2578063ac7fc2631462000417578063adb82b31146200043c5762000195565b806343a0d066116200013f57806343a0d06614620002b0578063441a3e7014620002d757806352fd9f2f14620002fc5780635312ea8e146200032157806375829def146200034657806377f50f97146200036b5762000195565b8063081e3eda146200019a5780631069f3b514620001ca5780631e1c6a0714620002005780632678224714620002345780632f380b35146200025b5780633892601c14620002985762000195565b366200019557005b600080fd5b348015620001a757600080fd5b50620001b262000568565b604051620001c1919062003503565b60405180910390f35b348015620001d757600080fd5b50620001ef620001e936600462002eff565b6200056e565b604051620001c193929190620035a4565b3480156200020d57600080fd5b50620002256200021f36600462002da9565b620006a6565b604051620001c19190620031a5565b3480156200024157600080fd5b506200024c620006bb565b604051620001c1919062003114565b3480156200026857600080fd5b50620002806200027a36600462002ee6565b620006ca565b604051620001c19a999897969594939291906200350c565b348015620002a557600080fd5b506200024c620008b6565b348015620002bd57600080fd5b50620002d5620002cf36600462002f4f565b620008da565b005b348015620002e457600080fd5b50620002d5620002f636600462002f2d565b62000a76565b3480156200030957600080fd5b50620002d56200031b36600462002ea3565b62000ad6565b3480156200032e57600080fd5b50620002d56200034036600462002ee6565b62000e74565b3480156200035357600080fd5b50620002d56200036536600462002da9565b62001025565b3480156200037857600080fd5b50620002d56200111a565b3480156200039057600080fd5b50620002d5620003a236600462002da9565b620011db565b348015620003b557600080fd5b506200024c620003c736600462002ee6565b62001314565b348015620003da57600080fd5b50620002d5620003ec36600462002ee6565b6200133f565b348015620003ff57600080fd5b50620002d56200041136600462002f8d565b620013b9565b3480156200042457600080fd5b50620001b26200043636600462002ee6565b62001611565b3480156200044957600080fd5b50620002d56200045b36600462002ee6565b62001633565b3480156200046e57600080fd5b50620002d56200048036600462003001565b6200177e565b3480156200049357600080fd5b506200049e620019e3565b604051620001c1919062003141565b348015620004ba57600080fd5b50620002d5620004cc36600462002f2d565b62001a47565b348015620004df57600080fd5b50620004f7620004f136600462002eff565b62001b66565b604051620001c1919062003190565b3480156200051357600080fd5b50620002d56200052536600462002ee6565b62001d46565b3480156200053857600080fd5b506200024c62001d5f565b3480156200055057600080fd5b50620002d56200056236600462002dc6565b62001d6e565b60065481565b60008281526008602090815260408083206001600160a01b03851684529091529020805460045490916060918291906001600160401b0381118015620005b357600080fd5b50604051908082528060200260200182016040528015620005de578160200160208202803683370190505b506004549093506001600160401b0381118015620005fb57600080fd5b5060405190808252806020026020018201604052801562000626578160200160208202803683370190505b50915060005b6004548110156200069d57600081815260018301602052604090205484518590839081106200065757fe5b602002602001018181525050816001016000828152602001908152602001600020600101548382815181106200068957fe5b60209081029190910101526001016200062c565b50509250925092565b60036020526000908152604090205460ff1681565b6001546001600160a01b031681565b6000818152600760205260409020805460018201546002830154600384015460045493946001600160a01b03938416949383169363ffffffff600160a01b8504811694600160c01b8104821694600160e01b90910482169391169160609182918291906001600160401b03811180156200074357600080fd5b506040519080825280602002602001820160405280156200076e578160200160208202803683370190505b506005549094506001600160401b03811180156200078b57600080fd5b50604051908082528060200260200182016040528015620007b6578160200160208202803683370190505b506004549093506001600160401b0381118015620007d357600080fd5b50604051908082528060200260200182016040528015620007fe578160200160208202803683370190505b50915060005b600454811015620008a757600081815260048301602052604090205485518690839081106200082f57fe5b602002602001018181525050600581815481106200084957fe5b90600052602060002001548482815181106200086157fe5b602002602001018181525050816004016000828152602001908152602001600020600101548382815181106200089357fe5b602090810291909101015260010162000804565b50509193959799509193959799565b7f000000000000000000000000000000000000000000000000000000000000000081565b60028054141562000921576040805162461bcd60e51b815260206004820152601f6024820152600080516020620045f8833981519152604482015290519081900360640190fd5b60028055620009308362001633565b6200093d33848362002233565b6000838152600760209081526040808320600883528184203380865293529220600183015490916200097b916001600160a01b03169030876200248f565b60028201546001600160a01b03168015620009f5576040516340c10f1960e01b81526001600160a01b038216906340c10f1990620009c0903390899060040162003128565b600060405180830381600087803b158015620009db57600080fd5b505af1158015620009f0573d6000803e3d6000fd5b505050505b815462000a039086620024f1565b8255825462000a139086620024f1565b835562000a1f62002555565b63ffffffff1686336001600160a01b03167f36af321ec8d3c75236829c5317affd40ddb308863a1236d2d277a4025cccee1e8860405162000a61919062003503565b60405180910390a45050600160025550505050565b60028054141562000abd576040805162461bcd60e51b815260206004820152601f6024820152600080516020620045f8833981519152604482015290519081900360640190fd5b6002805562000acd828262002559565b50506001600255565b8062000aff5760405162461bcd60e51b815260040162000af69062003210565b60405180910390fd5b62000b0b8282620026c7565b62000b4a5760005b8181101562000b435762000b3a83838381811062000b2d57fe5b9050602002013562001d46565b60010162000b13565b5062000e70565b6000600480548060200260200160405190810160405280929190818152602001828054801562000ba457602002820191906000526020600020905b81546001600160a01b0316815260019091019060200180831162000b85575b50505050509050600081516001600160401b038111801562000bc557600080fd5b5060405190808252806020026020018201604052801562000bf0578160200160208202803683370190505b509050336000805b8581101562000d935786868281811062000c0e57fe5b90506020020135915062000c228262001633565b62000c308383600062002233565b60005b855181101562000d895760008381526008602090815260408083206001600160a01b03881684528252808320848452600101909152902054801562000d7f5762000c9b8187848151811062000c8457fe5b6020026020010151620024f190919063ffffffff16565b86838151811062000ca857fe5b60209081029190910181019190915260008581526008825260408082206001600160a01b0389168352835280822085835260010190925290812055865187908390811062000cf257fe5b60200260200101516001600160a01b031684866001600160a01b03167ff75f3d433c6628e04e01a0be1a2c6692a6011ce4b00389824cfa8b8a12f3c1c462000d5c6005878154811062000d4157fe5b9060005260206000200154866200276890919063ffffffff16565b62000d6662002555565b60405162000d76929190620035dd565b60405180910390a45b5060010162000c33565b5060010162000bf8565b5060005b835181101562000e6a576000600760008989600081811062000db557fe5b90506020020135815260200190815260200160002060030160009054906101000a900463ffffffff169050600085838151811062000def57fe5b6020026020010151111562000e605762000e6086838151811062000e0f57fe5b60200260200101518562000e596005868154811062000e2a57fe5b906000526020600020015489878151811062000e4257fe5b60200260200101516200276890919063ffffffff16565b84620027d1565b5060010162000d97565b50505050505b5050565b60028054141562000ebb576040805162461bcd60e51b815260206004820152601f6024820152600080516020620045f8833981519152604482015290519081900360640190fd5b600280556000818152600760209081526040808320600883528184203385529092528220805483825591929091905b60045481101562000f17576000818152600180850160205260408220808201839055919091550162000eea565b50825462000f2690826200287f565b8355801562000fc65760028301546001600160a01b0316801562000fa957604051632770a7eb60e21b81526001600160a01b03821690639dc29fac9062000f74903390869060040162003128565b600060405180830381600087803b15801562000f8f57600080fd5b505af115801562000fa4573d6000803e3d6000fd5b505050505b600184015462000fc4906001600160a01b03163384620028dd565b505b62000fd062002555565b63ffffffff1684336001600160a01b03167f2369db1bafee945aee5630782f4a170682e3f8188d8dc247a4c73eb8c9e692d28460405162001012919062003503565b60405180910390a4505060016002555050565b6000546001600160a01b0316331462001072576040805162461bcd60e51b815260206004820152600a60248201526937b7363c9030b236b4b760b11b604482015290519081900360640190fd5b6001600160a01b038116620010bc576040805162461bcd60e51b815260206004820152600b60248201526a06e65772061646d696e20360ac1b604482015290519081900360640190fd5b604080516001600160a01b038316815290517f3b81caf78fa51ecbc8acb482fd7012a277b428d9b80f9d156e8a54107496cc409181900360200190a1600180546001600160a01b0319166001600160a01b0392909216919091179055565b6001546001600160a01b0316331462001168576040805162461bcd60e51b815260206004820152600b60248201526a6e6f742070656e64696e6760a81b604482015290519081900360640190fd5b600154600054604080516001600160a01b03938416815292909116602083015280517f65da1cfc2c2e81576ad96afb24a581f8e109b7a403b35cbd3243a1c99efdb9ed9281900390910190a160018054600080546001600160a01b03199081166001600160a01b03841617909155169055565b6000546001600160a01b0316331462001228576040805162461bcd60e51b815260206004820152600a60248201526937b7363c9030b236b4b760b11b604482015290519081900360640190fd5b6001600160a01b0381166200126e576040805162461bcd60e51b8152602060048201526007602482015266061646d696e20360cc1b604482015290519081900360640190fd5b604080516001600160a01b038316815290517f3b81caf78fa51ecbc8acb482fd7012a277b428d9b80f9d156e8a54107496cc409181900360200190a1600054604080516001600160a01b038085168252909216602083015280517f65da1cfc2c2e81576ad96afb24a581f8e109b7a403b35cbd3243a1c99efdb9ed9281900390910190a1600080546001600160a01b0319166001600160a01b0392909216919091179055565b600481815481106200132557600080fd5b6000918252602090912001546001600160a01b0316905081565b60028054141562001386576040805162461bcd60e51b815260206004820152601f6024820152600080516020620045f8833981519152604482015290519081900360640190fd5b600280556000818152600860209081526040808320338452909152902054620013b190829062002559565b506001600255565b6000546001600160a01b0316331462001406576040805162461bcd60e51b815260206004820152600a60248201526937b7363c9030b236b4b760b11b604482015290519081900360640190fd5b620014118562001633565b60008581526007602052604090206200142962002555565b600282015463ffffffff918216600160c01b90910490911611620014615760405162461bcd60e51b815260040162000af690620034cc565b6004548214620014855760405162461bcd60e51b815260040162000af690620032aa565b6200148f62002555565b63ffffffff168563ffffffff16118015620014be5750600281015463ffffffff600160a01b9091048116908616115b620014dd5760405162461bcd60e51b815260040162000af69062003330565b60028101805463ffffffff60c01b1916600160c01b63ffffffff888116919091029190911790915560038201805463ffffffff191691861691909117905560005b82811015620015cd576000620015918360020160149054906101000a900463ffffffff16880363ffffffff166200158a600585815481106200155c57fe5b90600052602060002001548888878181106200157457fe5b905060200201356200293190919063ffffffff16565b9062002768565b905080620015b35760405162461bcd60e51b815260040162000af690620033c4565b60008281526004840160205260409020556001016200151e565b508363ffffffff168563ffffffff16877f5af4b4ed394dca9f180924459d4de6143b41833ed4899ddafbd0aa26de5ff7b560405160405180910390a4505050505050565b600581815481106200162257600080fd5b600091825260209091200154905081565b6006548110620016575760405162461bcd60e51b815260040162000af690620032da565b60008181526007602052604081209062001671836200298f565b600283015490915063ffffffff600160e01b909104811690821611620016995750506200177b565b815480620016ce57506002909101805463ffffffff909216600160e01b026001600160e01b039092169190911790556200177b565b600283015463ffffffff600160e01b909104811683031660005b60045481101562001751576000818152600486016020526040812080549091906200171590859062002931565b905062001743856200172d8364e8d4a5100062002931565b816200173557fe5b6001850154919004620024f1565b6001928301555001620016e8565b5050506002909101805463ffffffff909216600160e01b026001600160e01b039092169190911790555b50565b6000546001600160a01b03163314620017cb576040805162461bcd60e51b815260206004820152600a60248201526937b7363c9030b236b4b760b11b604482015290519081900360640190fd5b620017d68662001633565b6000868152600760205260409020620017ee62002555565b600282015463ffffffff918216600160a01b90910490911611806200183257506200181862002555565b600282015463ffffffff918216600160c01b909104909116105b620018515760405162461bcd60e51b815260040162000af6906200348a565b6004548214620018755760405162461bcd60e51b815260040162000af69062003395565b6200187f62002555565b63ffffffff168663ffffffff16118015620018a557508563ffffffff168563ffffffff16115b620018c45760405162461bcd60e51b815260040162000af69062003367565b60028101805463ffffffff60a01b1916600160a01b63ffffffff8981169182029290921763ffffffff60c01b1916600160c01b89841602176001600160e01b0316600160e01b919091021790915560038201805463ffffffff191691861691909117905560005b82811015620019915760006200195588880363ffffffff166200158a600585815481106200155c57fe5b905080620019775760405162461bcd60e51b815260040162000af690620033c4565b60008281526004840160205260409020556001016200192b565b508463ffffffff168663ffffffff16887fb604531d649168314d05bda3f75bfa2aab29e79121f8cee6dc685dc2a031c43d87604051620019d29190620035f1565b60405180910390a450505050505050565b6060600480548060200260200160405190810160405280929190818152602001828054801562001a3d57602002820191906000526020600020905b81546001600160a01b0316815260019091019060200180831162001a1e575b5050505050905090565b6000546001600160a01b0316331462001a94576040805162461bcd60e51b815260206004820152600a60248201526937b7363c9030b236b4b760b11b604482015290519081900360640190fd5b60006004838154811062001aa457fe5b6000918252602090912001546001600160a01b031690508062001b4b576000336001600160a01b03168360405162001adc9062003111565b60006040518083038185875af1925050503d806000811462001b1b576040519150601f19603f3d011682016040523d82523d6000602084013e62001b20565b606091505b505090508062001b445760405162461bcd60e51b815260040162000af69062003425565b5062001b61565b62001b616001600160a01b0382163384620028dd565b505050565b600454606090806001600160401b038111801562001b8357600080fd5b5060405190808252806020026020018201604052801562001bae578160200160208202803683370190505b506000858152600760209081526040808320600883528184206001600160a01b038916855290925282208154600283015494965091939092600160e01b90910463ffffffff169062001c00896200298f565b905060005b8681101562001d3957600081815260048701602052604090206001015463ffffffff83168410801562001c3757508415155b1562001c9557600082815260048801602052604081205462001c679063ffffffff80871688900391906200293116565b905062001c918662001c7f8364e8d4a5100062002931565b8162001c8757fe5b84919004620024f1565b9150505b600082815260018088016020526040909120015464e8d4a510009062001ccb9062001cc29084906200287f565b88549062002931565b8162001cd357fe5b0489838151811062001ce157fe5b60200260200101818152505062001d17866001016000848152602001908152602001600020600001548a848151811062000c8457fe5b89838151811062001d2457fe5b60209081029190910101525060010162001c05565b5050505050505092915050565b62001d518162001633565b6200177b3382600162002233565b6000546001600160a01b031681565b6000546001600160a01b0316331462001dbb576040805162461bcd60e51b815260206004820152600a60248201526937b7363c9030b236b4b760b11b604482015290519081900360640190fd5b6001600160a01b03881660009081526003602052604090205460ff161562001df75760405162461bcd60e51b815260040162000af6906200345c565b6001600160a01b03881662001e205760405162461bcd60e51b815260040162000af69062003247565b600454831462001e445760405162461bcd60e51b815260040162000af69062003303565b62001e4e62002555565b63ffffffff168763ffffffff1611801562001e7457508663ffffffff168663ffffffff16115b62001e935760405162461bcd60e51b815260040162000af6906200327e565b6000825160001415801562001ea85750815115155b1562001f1957828260405162001ebe9062002cab565b62001ecb929190620031de565b604051809103906000f08015801562001ee8573d6000803e3d6000fd5b50600654600090815260076020526040902060020180546001600160a01b0319166001600160a01b03831617905590505b6006805460009081526007602052604080822060010180546001600160a01b0319166001600160a01b038e16179055825482528082206002908101805463ffffffff60a01b1916600160a01b63ffffffff8f811691820292909217909255855485528385208301805463ffffffff60c01b1916600160c01b8f8416021790558554855283852090920180546001600160e01b0316600160e01b909202919091179055925482528120600301805463ffffffff1916928916929092179091555b848110156200207c5760006200201a8a8a0363ffffffff166200158a600585815481106200200257fe5b90600052602060002001548a8a878181106200157457fe5b9050806200203c5760405162461bcd60e51b815260040162000af690620033c4565b6040805180820182529182526000602080840182815260065483526007825283832086845260040190915291902091518255516001918201550162001fd8565b506006805460019081019091556001600160a01b03808b1660008181526003602052604090819020805460ff1916909417909355915190831691907fee97de5694d00acf6fe59073e574f8fa17901ad0ce3eabb3740a73b4a4fc8b6290620020ea908c908c908c9062003602565b60405180910390a3505050505050505050565b80158062002187575060408051636eb1769f60e11b81523060048201526001600160a01b03848116602483015291519185169163dd62ed3e91604480820192602092909190829003018186803b1580156200215757600080fd5b505afa1580156200216c573d6000803e3d6000fd5b505050506040513d60208110156200218357600080fd5b5051155b620021c45760405162461bcd60e51b8152600401808060200182810382526036815260200180620046896036913960400191505060405180910390fd5b604080516001600160a01b038416602482015260448082018490528251808303909101815260649091019091526020810180516001600160e01b031663095ea7b360e01b17905262001b61908490620029de565b606062002229848460008562002a95565b90505b9392505050565b60008281526008602090815260408083206001600160a01b038716845290915290205460045481620022c55760005b81811015620022bc5760008581526007602090815260408083208484526004018252808320600190810154898552600884528285206001600160a01b038c1686528452828520868652820190935292208201550162002262565b50505062001b61565b60005b81811015620024875760008581526007602090815260408083208484526004018252808320600190810154898552600884528285206001600160a01b038c16865284528285208686528201909352908320908101549192909164e8d4a510009062002342906200233a9086906200287f565b889062002931565b816200234a57fe5b835491900491506200235e908290620024f1565b9050866200236d578062002370565b60005b825560018201839055868015620023875750600081115b156200247b576000620023bc60058681548110620023a157fe5b9060005260206000200154836200276890919063ffffffff16565b90506200240b60048681548110620023d057fe5b60009182526020808320909101548c835260079091526040909120600301546001600160a01b03909116908c90849063ffffffff16620027d1565b600485815481106200241957fe5b6000918252602090912001546001600160a01b03908116908a908c167ff75f3d433c6628e04e01a0be1a2c6692a6011ce4b00389824cfa8b8a12f3c1c4846200246162002555565b60405162002471929190620035dd565b60405180910390a4505b505050600101620022c8565b505050505050565b604080516001600160a01b0380861660248301528416604482015260648082018490528251808303909101815260849091019091526020810180516001600160e01b03166323b872dd60e01b179052620024eb908590620029de565b50505050565b6000828201838110156200254c576040805162461bcd60e51b815260206004820152601b60248201527f536166654d6174683a206164646974696f6e206f766572666c6f770000000000604482015290519081900360640190fd5b90505b92915050565b4290565b60008281526007602090815260408083206008835281842033855290925290912080548311156200259e5760405162461bcd60e51b815260040162000af690620033ee565b620025a98462001633565b620025b73385600162002233565b8054620025c590846200287f565b81558154620025d590846200287f565b825560028201546001600160a01b031680156200265157604051632770a7eb60e21b81526001600160a01b03821690639dc29fac906200261c903390889060040162003128565b600060405180830381600087803b1580156200263757600080fd5b505af11580156200264c573d6000803e3d6000fd5b505050505b60018301546200266c906001600160a01b03163386620028dd565b6200267662002555565b63ffffffff1685336001600160a01b03167f02f25270a4d87bea75db541cdfe559334a275b4a233520ed6c0a2429667cca9487604051620026b8919062003503565b60405180910390a45050505050565b6000806007600085856000818110620026dc57fe5b602090810292909201358352508101919091526040016000206003015463ffffffff16905060015b838110156200275d5781600760008787858181106200271f57fe5b602090810292909201358352508101919091526040016000206003015463ffffffff161462002754576000925050506200254f565b60010162002704565b506001949350505050565b6000808211620027bf576040805162461bcd60e51b815260206004820152601a60248201527f536166654d6174683a206469766973696f6e206279207a65726f000000000000604482015290519081900360640190fd5b818381620027c957fe5b049392505050565b60006001600160a01b03851615620027eb576000620027ed565b825b90507f00000000000000000000000000000000000000000000000000000000000000006001600160a01b0316631e2fabb682878787876040518663ffffffff1660e01b8152600401620028449493929190620031b0565b6000604051808303818588803b1580156200285e57600080fd5b505af115801562002873573d6000803e3d6000fd5b50505050505050505050565b600082821115620028d7576040805162461bcd60e51b815260206004820152601e60248201527f536166654d6174683a207375627472616374696f6e206f766572666c6f770000604482015290519081900360640190fd5b50900390565b604080516001600160a01b038416602482015260448082018490528251808303909101815260649091019091526020810180516001600160e01b031663a9059cbb60e01b17905262001b61908490620029de565b60008262002942575060006200254f565b828202828482816200295057fe5b04146200254c5760405162461bcd60e51b81526004018080602001828103825260218152602001806200463e6021913960400191505060405180910390fd5b600081815260076020526040902060020154600160c01b900463ffffffff16620029b862002555565b63ffffffff168163ffffffff161115620029d957620029d662002555565b90505b919050565b600062002a35826040518060400160405280602081526020017f5361666545524332303a206c6f772d6c6576656c2063616c6c206661696c6564815250856001600160a01b0316620022189092919063ffffffff16565b80519091501562001b615780806020019051602081101562002a5657600080fd5b505162001b615760405162461bcd60e51b815260040180806020018281038252602a8152602001806200465f602a913960400191505060405180910390fd5b60608247101562002ad85760405162461bcd60e51b8152600401808060200182810382526026815260200180620046186026913960400191505060405180910390fd5b62002ae38562002bfb565b62002b35576040805162461bcd60e51b815260206004820152601d60248201527f416464726573733a2063616c6c20746f206e6f6e2d636f6e7472616374000000604482015290519081900360640190fd5b600080866001600160a01b031685876040518082805190602001908083835b6020831062002b755780518252601f19909201916020918201910162002b54565b6001836020036101000a03801982511681845116808217855250505050505090500191505060006040518083038185875af1925050503d806000811462002bd9576040519150601f19603f3d011682016040523d82523d6000602084013e62002bde565b606091505b509150915062002bf082828662002c01565b979650505050505050565b3b151590565b6060831562002c125750816200222c565b82511562002c235782518084602001fd5b8160405162461bcd60e51b81526004018080602001828103825283818151815260200191508051906020019080838360005b8381101562002c6f57818101518382015260200162002c55565b50505050905090810190601f16801562002c9d5780820380516001836020036101000a031916815260200191505b509250505060405180910390fd5b610fd5806200362383390190565b80356001600160a01b0381168114620029d957600080fd5b60008083601f84011262002ce3578081fd5b5081356001600160401b0381111562002cfa578182fd5b602083019150836020808302850101111562002d1557600080fd5b9250929050565b600082601f83011262002d2d578081fd5b81356001600160401b038082111562002d4257fe5b604051601f8301601f19168101602001828111828210171562002d6157fe5b60405282815284830160200186101562002d79578384fd5b82602086016020830137918201602001929092529392505050565b803563ffffffff81168114620029d957600080fd5b60006020828403121562002dbb578081fd5b6200222c8262002cb9565b60008060008060008060008060e0898b03121562002de2578384fd5b62002ded8962002cb9565b975062002dfd60208a0162002d94565b965062002e0d60408a0162002d94565b955062002e1d60608a0162002d94565b945060808901356001600160401b038082111562002e39578586fd5b62002e478c838d0162002cd1565b909650945060a08b013591508082111562002e60578384fd5b62002e6e8c838d0162002d1c565b935060c08b013591508082111562002e84578283fd5b5062002e938b828c0162002d1c565b9150509295985092959890939650565b6000806020838503121562002eb6578182fd5b82356001600160401b0381111562002ecc578283fd5b62002eda8582860162002cd1565b90969095509350505050565b60006020828403121562002ef8578081fd5b5035919050565b6000806040838503121562002f12578182fd5b8235915062002f246020840162002cb9565b90509250929050565b6000806040838503121562002f40578182fd5b50508035926020909101359150565b60008060006060848603121562002f64578283fd5b83359250602084013591506040840135801515811462002f82578182fd5b809150509250925092565b60008060008060006080868803121562002fa5578081fd5b8535945062002fb76020870162002d94565b935062002fc76040870162002d94565b925060608601356001600160401b0381111562002fe2578182fd5b62002ff08882890162002cd1565b969995985093965092949392505050565b60008060008060008060a087890312156200301a578182fd5b863595506200302c6020880162002d94565b94506200303c6040880162002d94565b93506200304c6060880162002d94565b925060808701356001600160401b0381111562003067578283fd5b6200307589828a0162002cd1565b979a9699509497509295939492505050565b6000815180845260208085019450808401835b83811015620030b8578151875295820195908201906001016200309a565b509495945050505050565b60008151808452815b81811015620030ea57602081850181015186830182015201620030cc565b81811115620030fc5782602083870101525b50601f01601f19169290920160200192915050565b90565b6001600160a01b0391909116815260200190565b6001600160a01b03929092168252602082015260400190565b6020808252825182820181905260009190848201906040850190845b81811015620031845783516001600160a01b0316835292840192918401916001016200315d565b50909695505050505050565b6000602082526200222c602083018462003087565b901515815260200190565b6001600160a01b039485168152929093166020830152604082015263ffffffff909116606082015260800190565b600060408252620031f36040830185620030c3565b8281036020840152620032078185620030c3565b95945050505050565b60208082526017908201527f686172766573743a20656d70747920706f6f6c20696473000000000000000000604082015260600190565b60208082526018908201527f6164643a20696e76616c6964207374616b6520746f6b656e0000000000000000604082015260600190565b6020808252601290820152716164643a20696e76616c69642074696d657360701b604082015260600190565b6020808252601690820152750eae0c8c2e8ca7440d2dcecc2d8d2c840d8cadccee8d60531b604082015260600190565b6020808252600f908201526e1a5b9d985b1a59081c1bdbdb081a59608a1b604082015260600190565b6020808252601390820152720c2c8c87440d2dcecc2d8d2c840d8cadccee8d606b1b604082015260600190565b60208082526018908201527f7570646174653a20696e76616c696420656e642074696d650000000000000000604082015260600190565b60208082526014908201527372656e65773a20696e76616c69642074696d657360601b604082015260600190565b6020808252601590820152740e4cadccaee7440d2dcecc2d8d2c840d8cadccee8d605b1b604082015260600190565b60208082526010908201526f1c995dd85c99081d1bdbc81cdb585b1b60821b604082015260600190565b6020808252601d908201527f77697468647261773a20696e73756666696369656e7420616d6f756e74000000604082015260600190565b6020808252601c908201527f7472616e736665722072657761726420746f6b656e206661696c656400000000604082015260600190565b6020808252601490820152731859190e88191d5c1b1a58d85d1959081c1bdbdb60621b604082015260600190565b60208082526022908201527f72656e65773a20696e76616c696420706f6f6c20737461746520746f2072656e604082015261657760f01b606082015260800190565b6020808252601a908201527f7570646174653a20706f6f6c20616c726561647920656e646564000000000000604082015260600190565b90815260200190565b8a81526001600160a01b038a811660208301528916604082015263ffffffff8881166060830152878116608083015286811660a0830152851660c082015261014060e08201819052600090620035658382018762003087565b90508281036101008401526200357c818662003087565b905082810361012084015262003593818562003087565b9d9c50505050505050505050505050565b600084825260606020830152620035bf606083018562003087565b8281036040840152620035d3818562003087565b9695505050505050565b91825263ffffffff16602082015260400190565b63ffffffff91909116815260200190565b63ffffffff9384168152918316602083015290911660408201526060019056fe60806040523480156200001157600080fd5b5060405162000fd538038062000fd58339810160408190526200003491620001d6565b8151829082906200004d9060039060208501906200008f565b508051620000639060049060208401906200008f565b505060058054601260ff1990911617610100600160a81b0319166101003302179055506200023d915050565b828054600181600116156101000203166002900490600052602060002090601f016020900481019282620000c7576000855562000112565b82601f10620000e257805160ff191683800117855562000112565b8280016001018555821562000112579182015b8281111562000112578251825591602001919060010190620000f5565b506200012092915062000124565b5090565b5b8082111562000120576000815560010162000125565b600082601f8301126200014c578081fd5b81516001600160401b03808211156200016157fe5b6040516020601f8401601f19168201810183811183821017156200018157fe5b604052838252858401810187101562000198578485fd5b8492505b83831015620001bb57858301810151828401820152918201916200019c565b83831115620001cc57848185840101525b5095945050505050565b60008060408385031215620001e9578182fd5b82516001600160401b038082111562000200578384fd5b6200020e868387016200013b565b9350602085015191508082111562000224578283fd5b5062000233858286016200013b565b9150509250929050565b610d88806200024d6000396000f3fe608060405234801561001057600080fd5b50600436106100cf5760003560e01c806340c10f191161008c5780639dc29fac116100665780639dc29fac14610192578063a457c2d7146101a5578063a9059cbb146101b8578063dd62ed3e146101cb576100cf565b806340c10f191461016257806370a082311461017757806395d89b411461018a576100cf565b806306fdde03146100d4578063095ea7b3146100f257806318160ddd1461011257806323b872dd14610127578063313ce5671461013a578063395093511461014f575b600080fd5b6100dc6101de565b6040516100e99190610b7e565b60405180910390f35b610105610100366004610b4a565b610274565b6040516100e99190610b73565b61011a610291565b6040516100e99190610bf7565b610105610135366004610b0f565b610297565b61014261031e565b6040516100e99190610c00565b61010561015d366004610b4a565b610327565b610175610170366004610b4a565b610375565b005b61011a610185366004610ac3565b6103bb565b6100dc6103da565b6101756101a0366004610b4a565b61043b565b6101056101b3366004610b4a565b610474565b6101056101c6366004610b4a565b6104dc565b61011a6101d9366004610add565b6104f0565b60038054604080516020601f600260001961010060018816150201909516949094049384018190048102820181019092528281526060939092909183018282801561026a5780601f1061023f5761010080835404028352916020019161026a565b820191906000526020600020905b81548152906001019060200180831161024d57829003601f168201915b5050505050905090565b600061028861028161051b565b848461051f565b50600192915050565b60025490565b60006102a484848461060b565b610314846102b061051b565b61030f85604051806060016040528060288152602001610c9c602891396001600160a01b038a166000908152600160205260408120906102ee61051b565b6001600160a01b031681526020810191909152604001600020549190610766565b61051f565b5060019392505050565b60055460ff1690565b600061028861033461051b565b8461030f856001600061034561051b565b6001600160a01b03908116825260208083019390935260409182016000908120918c1681529252902054906107fd565b60055461010090046001600160a01b031633146103ad5760405162461bcd60e51b81526004016103a490610bd1565b60405180910390fd5b6103b7828261085e565b5050565b6001600160a01b0381166000908152602081905260409020545b919050565b60048054604080516020601f600260001961010060018816150201909516949094049384018190048102820181019092528281526060939092909183018282801561026a5780601f1061023f5761010080835404028352916020019161026a565b60055461010090046001600160a01b0316331461046a5760405162461bcd60e51b81526004016103a490610bd1565b6103b7828261094e565b600061028861048161051b565b8461030f85604051806060016040528060258152602001610d2e60259139600160006104ab61051b565b6001600160a01b03908116825260208083019390935260409182016000908120918d16815292529020549190610766565b60006102886104e961051b565b848461060b565b6001600160a01b03918216600090815260016020908152604080832093909416825291909152205490565b3390565b6001600160a01b0383166105645760405162461bcd60e51b8152600401808060200182810382526024815260200180610d0a6024913960400191505060405180910390fd5b6001600160a01b0382166105a95760405162461bcd60e51b8152600401808060200182810382526022815260200180610c546022913960400191505060405180910390fd5b6001600160a01b03808416600081815260016020908152604080832094871680845294825291829020859055815185815291517f8c5be1e5ebec7d5bd14f71427d1e84f3dd0314c0f7b2291e5b200ac8c7c3b9259281900390910190a3505050565b6001600160a01b0383166106505760405162461bcd60e51b8152600401808060200182810382526025815260200180610ce56025913960400191505060405180910390fd5b6001600160a01b0382166106955760405162461bcd60e51b8152600401808060200182810382526023815260200180610c0f6023913960400191505060405180910390fd5b6106a0838383610a4a565b6106dd81604051806060016040528060268152602001610c76602691396001600160a01b0386166000908152602081905260409020549190610766565b6001600160a01b03808516600090815260208190526040808220939093559084168152205461070c90826107fd565b6001600160a01b038084166000818152602081815260409182902094909455805185815290519193928716927fddf252ad1be2c89b69c2b068fc378daa952ba7f163c4a11628f55a4df523b3ef92918290030190a3505050565b600081848411156107f55760405162461bcd60e51b81526004018080602001828103825283818151815260200191508051906020019080838360005b838110156107ba5781810151838201526020016107a2565b50505050905090810190601f1680156107e75780820380516001836020036101000a031916815260200191505b509250505060405180910390fd5b505050900390565b600082820183811015610857576040805162461bcd60e51b815260206004820152601b60248201527f536166654d6174683a206164646974696f6e206f766572666c6f770000000000604482015290519081900360640190fd5b9392505050565b6001600160a01b0382166108b9576040805162461bcd60e51b815260206004820152601f60248201527f45524332303a206d696e7420746f20746865207a65726f206164647265737300604482015290519081900360640190fd5b6108c560008383610a4a565b6002546108d290826107fd565b6002556001600160a01b0382166000908152602081905260409020546108f890826107fd565b6001600160a01b0383166000818152602081815260408083209490945583518581529351929391927fddf252ad1be2c89b69c2b068fc378daa952ba7f163c4a11628f55a4df523b3ef9281900390910190a35050565b6001600160a01b0382166109935760405162461bcd60e51b8152600401808060200182810382526021815260200180610cc46021913960400191505060405180910390fd5b61099f82600083610a4a565b6109dc81604051806060016040528060228152602001610c32602291396001600160a01b0385166000908152602081905260409020549190610766565b6001600160a01b038316600090815260208190526040902055600254610a029082610a4f565b6002556040805182815290516000916001600160a01b038516917fddf252ad1be2c89b69c2b068fc378daa952ba7f163c4a11628f55a4df523b3ef9181900360200190a35050565b505050565b600082821115610aa6576040805162461bcd60e51b815260206004820152601e60248201527f536166654d6174683a207375627472616374696f6e206f766572666c6f770000604482015290519081900360640190fd5b50900390565b80356001600160a01b03811681146103d557600080fd5b600060208284031215610ad4578081fd5b61085782610aac565b60008060408385031215610aef578081fd5b610af883610aac565b9150610b0660208401610aac565b90509250929050565b600080600060608486031215610b23578081fd5b610b2c84610aac565b9250610b3a60208501610aac565b9150604084013590509250925092565b60008060408385031215610b5c578182fd5b610b6583610aac565b946020939093013593505050565b901515815260200190565b6000602080835283518082850152825b81811015610baa57858101830151858201604001528201610b8e565b81811115610bbb5783604083870101525b50601f01601f1916929092016040019392505050565b6020808252600c908201526b1d5b985d5d1a1bdc9a5e995960a21b604082015260600190565b90815260200190565b60ff9190911681526020019056fe45524332303a207472616e7366657220746f20746865207a65726f206164647265737345524332303a206275726e20616d6f756e7420657863656564732062616c616e636545524332303a20617070726f766520746f20746865207a65726f206164647265737345524332303a207472616e7366657220616d6f756e7420657863656564732062616c616e636545524332303a207472616e7366657220616d6f756e74206578636565647320616c6c6f77616e636545524332303a206275726e2066726f6d20746865207a65726f206164647265737345524332303a207472616e736665722066726f6d20746865207a65726f206164647265737345524332303a20617070726f76652066726f6d20746865207a65726f206164647265737345524332303a2064656372656173656420616c6c6f77616e63652062656c6f77207a65726fa264697066735822122010917f19130c4da6e8a834e11bb4f7343c875a413c0836c49b5ed9a098756a5464736f6c634300070600335265656e7472616e637947756172643a207265656e7472616e742063616c6c00416464726573733a20696e73756666696369656e742062616c616e636520666f722063616c6c536166654d6174683a206d756c7469706c69636174696f6e206f766572666c6f775361666545524332303a204552433230206f7065726174696f6e20646964206e6f7420737563636565645361666545524332303a20617070726f76652066726f6d206e6f6e2d7a65726f20746f206e6f6e2d7a65726f20616c6c6f77616e6365a2646970667358221220bc344ec61d02139f47686fc0c908ec70b8f44bfddf01ea2d9cc5ed8d3dda611c64736f6c63430007060033416464726573733a20696e73756666696369656e742062616c616e636520666f722063616c6c5361666545524332303a204552433230206f7065726174696f6e20646964206e6f7420737563636565645361666545524332303a20617070726f76652066726f6d206e6f6e2d7a65726f20746f206e6f6e2d7a65726f20616c6c6f77616e6365",
			"opcodes": "PUSH1 0xA0 PUSH1 0x40 MSTORE CALLVALUE DUP1 ISZERO PUSH3 0x11 JUMPI PUSH1 0x0 DUP1 REVERT JUMPDEST POP PUSH1 0x40 MLOAD PUSH3 0x503E CODESIZE SUB DUP1 PUSH3 0x503E DUP4 CODECOPY DUP2 ADD PUSH1 0x40 DUP2 SWAP1 MSTORE PUSH3 0x34 SWAP2 PUSH3 0x77C JUMP JUMPDEST DUP3 PUSH1 0x1 PUSH1 0x1 PUSH1 0xA0 SHL SUB DUP2 AND PUSH3 0x7B JUMPI PUSH1 0x40 DUP1 MLOAD PUSH3 0x461BCD PUSH1 0xE5 SHL DUP2 MSTORE PUSH1 0x20 PUSH1 0x4 DUP3 ADD MSTORE PUSH1 0x7 PUSH1 0x24 DUP3 ADD MSTORE PUSH7 0x61646D696E203 PUSH1 0xCC SHL PUSH1 0x44 DUP3 ADD MSTORE SWAP1 MLOAD SWAP1 DUP2 SWAP1 SUB PUSH1 0x64 ADD SWAP1 REVERT JUMPDEST PUSH1 0x0 DUP1 SLOAD PUSH1 0x1 PUSH1 0x1 PUSH1 0xA0 SHL SUB NOT AND PUSH1 0x1 PUSH1 0x1 PUSH1 0xA0 SHL SUB SWAP3 SWAP1 SWAP3 AND SWAP2 SWAP1 SWAP2 OR SWAP1 SSTORE PUSH1 0x1 PUSH1 0x2 SSTORE DUP2 MLOAD PUSH3 0xB5 SWAP1 PUSH1 0x4 SWAP1 PUSH1 0x20 DUP6 ADD SWAP1 PUSH3 0x6B0 JUMP JUMPDEST POP PUSH1 0x1 PUSH1 0x1 PUSH1 0x60 SHL SUB NOT PUSH1 0x60 DUP3 SWAP1 SHL AND PUSH1 0x80 MSTORE DUP2 MLOAD PUSH1 0x1 PUSH1 0x1 PUSH1 0x40 SHL SUB DUP2 GT DUP1 ISZERO PUSH3 0xE0 JUMPI PUSH1 0x0 DUP1 REVERT JUMPDEST POP PUSH1 0x40 MLOAD SWAP1 DUP1 DUP3 MSTORE DUP1 PUSH1 0x20 MUL PUSH1 0x20 ADD DUP3 ADD PUSH1 0x40 MSTORE DUP1 ISZERO PUSH3 0x10B JUMPI DUP2 PUSH1 0x20 ADD PUSH1 0x20 DUP3 MUL DUP1 CALLDATASIZE DUP4 CALLDATACOPY ADD SWAP1 POP JUMPDEST POP DUP1 MLOAD PUSH3 0x122 SWAP2 PUSH1 0x5 SWAP2 PUSH1 0x20 SWAP1 SWAP2 ADD SWAP1 PUSH3 0x71A JUMP JUMPDEST POP PUSH1 0x0 JUMPDEST DUP3 MLOAD DUP2 LT ISZERO PUSH3 0x290 JUMPI PUSH1 0x0 PUSH1 0x1 PUSH1 0x1 PUSH1 0xA0 SHL SUB AND DUP4 DUP3 DUP2 MLOAD DUP2 LT PUSH3 0x148 JUMPI INVALID JUMPDEST PUSH1 0x20 MUL PUSH1 0x20 ADD ADD MLOAD PUSH1 0x1 PUSH1 0x1 PUSH1 0xA0 SHL SUB AND EQ PUSH3 0x26A JUMPI PUSH1 0x0 DUP4 DUP3 DUP2 MLOAD DUP2 LT PUSH3 0x16E JUMPI INVALID JUMPDEST PUSH1 0x20 MUL PUSH1 0x20 ADD ADD MLOAD PUSH1 0x1 PUSH1 0x1 PUSH1 0xA0 SHL SUB AND PUSH4 0x313CE567 PUSH1 0x40 MLOAD DUP2 PUSH4 0xFFFFFFFF AND PUSH1 0xE0 SHL DUP2 MSTORE PUSH1 0x4 ADD PUSH1 0x20 PUSH1 0x40 MLOAD DUP1 DUP4 SUB DUP2 DUP7 DUP1 EXTCODESIZE ISZERO DUP1 ISZERO PUSH3 0x1AF JUMPI PUSH1 0x0 DUP1 REVERT JUMPDEST POP GAS STATICCALL ISZERO DUP1 ISZERO PUSH3 0x1C4 JUMPI RETURNDATASIZE PUSH1 0x0 DUP1 RETURNDATACOPY RETURNDATASIZE PUSH1 0x0 REVERT JUMPDEST POP POP POP POP PUSH1 0x40 MLOAD RETURNDATASIZE PUSH1 0x1F NOT PUSH1 0x1F DUP3 ADD AND DUP3 ADD DUP1 PUSH1 0x40 MSTORE POP DUP2 ADD SWAP1 PUSH3 0x1EA SWAP2 SWAP1 PUSH3 0x865 JUMP JUMPDEST SWAP1 POP PUSH1 0x12 DUP2 PUSH1 0xFF AND LT ISZERO PUSH3 0x209 JUMPI DUP1 PUSH1 0x12 SUB PUSH1 0xFF AND PUSH1 0xA EXP PUSH3 0x20C JUMP JUMPDEST PUSH1 0x1 JUMPDEST PUSH1 0x5 DUP4 DUP2 SLOAD DUP2 LT PUSH3 0x21A JUMPI INVALID JUMPDEST SWAP1 PUSH1 0x0 MSTORE PUSH1 0x20 PUSH1 0x0 KECCAK256 ADD DUP2 SWAP1 SSTORE POP PUSH3 0x263 DUP4 PUSH1 0x0 NOT DUP7 DUP6 DUP2 MLOAD DUP2 LT PUSH3 0x23D JUMPI INVALID JUMPDEST PUSH1 0x20 MUL PUSH1 0x20 ADD ADD MLOAD PUSH1 0x1 PUSH1 0x1 PUSH1 0xA0 SHL SUB AND PUSH3 0x29A PUSH1 0x20 SHL PUSH3 0x20FD OR SWAP1 SWAP3 SWAP2 SWAP1 PUSH1 0x20 SHR JUMP JUMPDEST POP PUSH3 0x287 JUMP JUMPDEST PUSH1 0x1 PUSH1 0x5 DUP3 DUP2 SLOAD DUP2 LT PUSH3 0x27A JUMPI INVALID JUMPDEST PUSH1 0x0 SWAP2 DUP3 MSTORE PUSH1 0x20 SWAP1 SWAP2 KECCAK256 ADD SSTORE JUMPDEST PUSH1 0x1 ADD PUSH3 0x126 JUMP JUMPDEST POP POP POP POP PUSH3 0x8A1 JUMP JUMPDEST DUP1 ISZERO DUP1 PUSH3 0x324 JUMPI POP PUSH1 0x40 DUP1 MLOAD PUSH4 0x6EB1769F PUSH1 0xE1 SHL DUP2 MSTORE ADDRESS PUSH1 0x4 DUP3 ADD MSTORE PUSH1 0x1 PUSH1 0x1 PUSH1 0xA0 SHL SUB DUP5 DUP2 AND PUSH1 0x24 DUP4 ADD MSTORE SWAP2 MLOAD SWAP2 DUP6 AND SWAP2 PUSH4 0xDD62ED3E SWAP2 PUSH1 0x44 DUP1 DUP3 ADD SWAP3 PUSH1 0x20 SWAP3 SWAP1 SWAP2 SWAP1 DUP3 SWAP1 SUB ADD DUP2 DUP7 DUP1 EXTCODESIZE ISZERO DUP1 ISZERO PUSH3 0x2F4 JUMPI PUSH1 0x0 DUP1 REVERT JUMPDEST POP GAS STATICCALL ISZERO DUP1 ISZERO PUSH3 0x309 JUMPI RETURNDATASIZE PUSH1 0x0 DUP1 RETURNDATACOPY RETURNDATASIZE PUSH1 0x0 REVERT JUMPDEST POP POP POP POP PUSH1 0x40 MLOAD RETURNDATASIZE PUSH1 0x20 DUP2 LT ISZERO PUSH3 0x320 JUMPI PUSH1 0x0 DUP1 REVERT JUMPDEST POP MLOAD ISZERO JUMPDEST PUSH3 0x361 JUMPI PUSH1 0x40 MLOAD PUSH3 0x461BCD PUSH1 0xE5 SHL DUP2 MSTORE PUSH1 0x4 ADD DUP1 DUP1 PUSH1 0x20 ADD DUP3 DUP2 SUB DUP3 MSTORE PUSH1 0x36 DUP2 MSTORE PUSH1 0x20 ADD DUP1 PUSH3 0x5008 PUSH1 0x36 SWAP2 CODECOPY PUSH1 0x40 ADD SWAP2 POP POP PUSH1 0x40 MLOAD DUP1 SWAP2 SUB SWAP1 REVERT JUMPDEST PUSH1 0x40 DUP1 MLOAD PUSH1 0x1 PUSH1 0x1 PUSH1 0xA0 SHL SUB DUP5 AND PUSH1 0x24 DUP3 ADD MSTORE PUSH1 0x44 DUP1 DUP3 ADD DUP5 SWAP1 MSTORE DUP3 MLOAD DUP1 DUP4 SUB SWAP1 SWAP2 ADD DUP2 MSTORE PUSH1 0x64 SWAP1 SWAP2 ADD SWAP1 SWAP2 MSTORE PUSH1 0x20 DUP2 ADD DUP1 MLOAD PUSH1 0x1 PUSH1 0x1 PUSH1 0xE0 SHL SUB SWAP1 DUP2 AND PUSH4 0x95EA7B3 PUSH1 0xE0 SHL OR SWAP1 SWAP2 MSTORE PUSH3 0x3B9 SWAP2 DUP6 SWAP2 PUSH3 0x3BE AND JUMP JUMPDEST POP POP POP JUMP JUMPDEST PUSH1 0x0 PUSH3 0x41A DUP3 PUSH1 0x40 MLOAD DUP1 PUSH1 0x40 ADD PUSH1 0x40 MSTORE DUP1 PUSH1 0x20 DUP2 MSTORE PUSH1 0x20 ADD PUSH32 0x5361666545524332303A206C6F772D6C6576656C2063616C6C206661696C6564 DUP2 MSTORE POP DUP6 PUSH1 0x1 PUSH1 0x1 PUSH1 0xA0 SHL SUB AND PUSH3 0x47A PUSH1 0x20 SHL PUSH3 0x2218 OR SWAP1 SWAP3 SWAP2 SWAP1 PUSH1 0x20 SHR JUMP JUMPDEST DUP1 MLOAD SWAP1 SWAP2 POP ISZERO PUSH3 0x3B9 JUMPI DUP1 DUP1 PUSH1 0x20 ADD SWAP1 MLOAD PUSH1 0x20 DUP2 LT ISZERO PUSH3 0x43B JUMPI PUSH1 0x0 DUP1 REVERT JUMPDEST POP MLOAD PUSH3 0x3B9 JUMPI PUSH1 0x40 MLOAD PUSH3 0x461BCD PUSH1 0xE5 SHL DUP2 MSTORE PUSH1 0x4 ADD DUP1 DUP1 PUSH1 0x20 ADD DUP3 DUP2 SUB DUP3 MSTORE PUSH1 0x2A DUP2 MSTORE PUSH1 0x20 ADD DUP1 PUSH3 0x4FDE PUSH1 0x2A SWAP2 CODECOPY PUSH1 0x40 ADD SWAP2 POP POP PUSH1 0x40 MLOAD DUP1 SWAP2 SUB SWAP1 REVERT JUMPDEST PUSH1 0x60 PUSH3 0x48B DUP5 DUP5 PUSH1 0x0 DUP6 PUSH3 0x495 JUMP JUMPDEST SWAP1 POP JUMPDEST SWAP4 SWAP3 POP POP POP JUMP JUMPDEST PUSH1 0x60 DUP3 SELFBALANCE LT ISZERO PUSH3 0x4D8 JUMPI PUSH1 0x40 MLOAD PUSH3 0x461BCD PUSH1 0xE5 SHL DUP2 MSTORE PUSH1 0x4 ADD DUP1 DUP1 PUSH1 0x20 ADD DUP3 DUP2 SUB DUP3 MSTORE PUSH1 0x26 DUP2 MSTORE PUSH1 0x20 ADD DUP1 PUSH3 0x4FB8 PUSH1 0x26 SWAP2 CODECOPY PUSH1 0x40 ADD SWAP2 POP POP PUSH1 0x40 MLOAD DUP1 SWAP2 SUB SWAP1 REVERT JUMPDEST PUSH3 0x4E3 DUP6 PUSH3 0x5FC JUMP JUMPDEST PUSH3 0x535 JUMPI PUSH1 0x40 DUP1 MLOAD PUSH3 0x461BCD PUSH1 0xE5 SHL DUP2 MSTORE PUSH1 0x20 PUSH1 0x4 DUP3 ADD MSTORE PUSH1 0x1D PUSH1 0x24 DUP3 ADD MSTORE PUSH32 0x416464726573733A2063616C6C20746F206E6F6E2D636F6E7472616374000000 PUSH1 0x44 DUP3 ADD MSTORE SWAP1 MLOAD SWAP1 DUP2 SWAP1 SUB PUSH1 0x64 ADD SWAP1 REVERT JUMPDEST PUSH1 0x0 DUP1 DUP7 PUSH1 0x1 PUSH1 0x1 PUSH1 0xA0 SHL SUB AND DUP6 DUP8 PUSH1 0x40 MLOAD DUP1 DUP3 DUP1 MLOAD SWAP1 PUSH1 0x20 ADD SWAP1 DUP1 DUP4 DUP4 JUMPDEST PUSH1 0x20 DUP4 LT PUSH3 0x575 JUMPI DUP1 MLOAD DUP3 MSTORE PUSH1 0x1F NOT SWAP1 SWAP3 ADD SWAP2 PUSH1 0x20 SWAP2 DUP3 ADD SWAP2 ADD PUSH3 0x554 JUMP JUMPDEST PUSH1 0x1 DUP4 PUSH1 0x20 SUB PUSH2 0x100 EXP SUB DUP1 NOT DUP3 MLOAD AND DUP2 DUP5 MLOAD AND DUP1 DUP3 OR DUP6 MSTORE POP POP POP POP POP POP SWAP1 POP ADD SWAP2 POP POP PUSH1 0x0 PUSH1 0x40 MLOAD DUP1 DUP4 SUB DUP2 DUP6 DUP8 GAS CALL SWAP3 POP POP POP RETURNDATASIZE DUP1 PUSH1 0x0 DUP2 EQ PUSH3 0x5D9 JUMPI PUSH1 0x40 MLOAD SWAP2 POP PUSH1 0x1F NOT PUSH1 0x3F RETURNDATASIZE ADD AND DUP3 ADD PUSH1 0x40 MSTORE RETURNDATASIZE DUP3 MSTORE RETURNDATASIZE PUSH1 0x0 PUSH1 0x20 DUP5 ADD RETURNDATACOPY PUSH3 0x5DE JUMP JUMPDEST PUSH1 0x60 SWAP2 POP JUMPDEST POP SWAP1 SWAP3 POP SWAP1 POP PUSH3 0x5F1 DUP3 DUP3 DUP7 PUSH3 0x606 JUMP JUMPDEST SWAP8 SWAP7 POP POP POP POP POP POP POP JUMP JUMPDEST DUP1 EXTCODESIZE ISZERO ISZERO JUMPDEST SWAP2 SWAP1 POP JUMP JUMPDEST PUSH1 0x60 DUP4 ISZERO PUSH3 0x617 JUMPI POP DUP2 PUSH3 0x48E JUMP JUMPDEST DUP3 MLOAD ISZERO PUSH3 0x628 JUMPI DUP3 MLOAD DUP1 DUP5 PUSH1 0x20 ADD REVERT JUMPDEST DUP2 PUSH1 0x40 MLOAD PUSH3 0x461BCD PUSH1 0xE5 SHL DUP2 MSTORE PUSH1 0x4 ADD DUP1 DUP1 PUSH1 0x20 ADD DUP3 DUP2 SUB DUP3 MSTORE DUP4 DUP2 DUP2 MLOAD DUP2 MSTORE PUSH1 0x20 ADD SWAP2 POP DUP1 MLOAD SWAP1 PUSH1 0x20 ADD SWAP1 DUP1 DUP4 DUP4 PUSH1 0x0 JUMPDEST DUP4 DUP2 LT ISZERO PUSH3 0x674 JUMPI DUP2 DUP2 ADD MLOAD DUP4 DUP3 ADD MSTORE PUSH1 0x20 ADD PUSH3 0x65A JUMP JUMPDEST POP POP POP POP SWAP1 POP SWAP1 DUP2 ADD SWAP1 PUSH1 0x1F AND DUP1 ISZERO PUSH3 0x6A2 JUMPI DUP1 DUP3 SUB DUP1 MLOAD PUSH1 0x1 DUP4 PUSH1 0x20 SUB PUSH2 0x100 EXP SUB NOT AND DUP2 MSTORE PUSH1 0x20 ADD SWAP2 POP JUMPDEST POP SWAP3 POP POP POP PUSH1 0x40 MLOAD DUP1 SWAP2 SUB SWAP1 REVERT JUMPDEST DUP3 DUP1 SLOAD DUP3 DUP3 SSTORE SWAP1 PUSH1 0x0 MSTORE PUSH1 0x20 PUSH1 0x0 KECCAK256 SWAP1 DUP2 ADD SWAP3 DUP3 ISZERO PUSH3 0x708 JUMPI SWAP2 PUSH1 0x20 MUL DUP3 ADD JUMPDEST DUP3 DUP2 GT ISZERO PUSH3 0x708 JUMPI DUP3 MLOAD DUP3 SLOAD PUSH1 0x1 PUSH1 0x1 PUSH1 0xA0 SHL SUB NOT AND PUSH1 0x1 PUSH1 0x1 PUSH1 0xA0 SHL SUB SWAP1 SWAP2 AND OR DUP3 SSTORE PUSH1 0x20 SWAP1 SWAP3 ADD SWAP2 PUSH1 0x1 SWAP1 SWAP2 ADD SWAP1 PUSH3 0x6D1 JUMP JUMPDEST POP PUSH3 0x716 SWAP3 SWAP2 POP PUSH3 0x758 JUMP JUMPDEST POP SWAP1 JUMP JUMPDEST DUP3 DUP1 SLOAD DUP3 DUP3 SSTORE SWAP1 PUSH1 0x0 MSTORE PUSH1 0x20 PUSH1 0x0 KECCAK256 SWAP1 DUP2 ADD SWAP3 DUP3 ISZERO PUSH3 0x708 JUMPI SWAP2 PUSH1 0x20 MUL DUP3 ADD JUMPDEST DUP3 DUP2 GT ISZERO PUSH3 0x708 JUMPI DUP3 MLOAD DUP3 SSTORE SWAP2 PUSH1 0x20 ADD SWAP2 SWAP1 PUSH1 0x1 ADD SWAP1 PUSH3 0x73B JUMP JUMPDEST JUMPDEST DUP1 DUP3 GT ISZERO PUSH3 0x716 JUMPI PUSH1 0x0 DUP2 SSTORE PUSH1 0x1 ADD PUSH3 0x759 JUMP JUMPDEST DUP1 MLOAD PUSH3 0x601 DUP2 PUSH3 0x888 JUMP JUMPDEST PUSH1 0x0 DUP1 PUSH1 0x0 PUSH1 0x60 DUP5 DUP7 SUB SLT ISZERO PUSH3 0x791 JUMPI DUP3 DUP4 REVERT JUMPDEST DUP4 MLOAD PUSH3 0x79E DUP2 PUSH3 0x888 JUMP JUMPDEST PUSH1 0x20 DUP6 DUP2 ADD MLOAD SWAP2 SWAP5 POP SWAP1 PUSH1 0x1 PUSH1 0x1 PUSH1 0x40 SHL SUB DUP1 DUP3 GT ISZERO PUSH3 0x7BD JUMPI DUP5 DUP6 REVERT JUMPDEST DUP2 DUP8 ADD SWAP2 POP DUP8 PUSH1 0x1F DUP4 ADD SLT PUSH3 0x7D1 JUMPI DUP5 DUP6 REVERT JUMPDEST DUP2 MLOAD DUP2 DUP2 GT ISZERO PUSH3 0x7DE JUMPI INVALID JUMPDEST DUP4 DUP2 MUL PUSH1 0x40 MLOAD DUP6 DUP3 DUP3 ADD ADD DUP2 DUP2 LT DUP6 DUP3 GT OR ISZERO PUSH3 0x7F8 JUMPI INVALID JUMPDEST PUSH1 0x40 MSTORE DUP3 DUP2 MSTORE DUP6 DUP2 ADD SWAP4 POP DUP5 DUP7 ADD DUP3 DUP7 ADD DUP8 ADD DUP13 LT ISZERO PUSH3 0x817 JUMPI DUP9 DUP10 REVERT JUMPDEST DUP9 SWAP6 POP JUMPDEST DUP4 DUP7 LT ISZERO PUSH3 0x844 JUMPI PUSH3 0x82F DUP2 PUSH3 0x76F JUMP JUMPDEST DUP6 MSTORE PUSH1 0x1 SWAP6 SWAP1 SWAP6 ADD SWAP5 SWAP4 DUP7 ADD SWAP4 DUP7 ADD PUSH3 0x81B JUMP JUMPDEST POP DUP1 SWAP8 POP POP POP POP POP POP POP PUSH3 0x85C PUSH1 0x40 DUP6 ADD PUSH3 0x76F JUMP JUMPDEST SWAP1 POP SWAP3 POP SWAP3 POP SWAP3 JUMP JUMPDEST PUSH1 0x0 PUSH1 0x20 DUP3 DUP5 SUB SLT ISZERO PUSH3 0x877 JUMPI DUP1 DUP2 REVERT JUMPDEST DUP2 MLOAD PUSH1 0xFF DUP2 AND DUP2 EQ PUSH3 0x48E JUMPI DUP2 DUP3 REVERT JUMPDEST PUSH1 0x1 PUSH1 0x1 PUSH1 0xA0 SHL SUB DUP2 AND DUP2 EQ PUSH3 0x89E JUMPI PUSH1 0x0 DUP1 REVERT JUMPDEST POP JUMP JUMPDEST PUSH1 0x80 MLOAD PUSH1 0x60 SHR PUSH2 0x46F4 PUSH3 0x8C4 PUSH1 0x0 CODECOPY DUP1 PUSH2 0x8B8 MSTORE DUP1 PUSH2 0x27F1 MSTORE POP PUSH2 0x46F4 PUSH1 0x0 RETURN INVALID PUSH1 0x80 PUSH1 0x40 MSTORE PUSH1 0x4 CALLDATASIZE LT PUSH3 0x18D JUMPI PUSH1 0x0 CALLDATALOAD PUSH1 0xE0 SHR DUP1 PUSH4 0x7ACC8678 GT PUSH3 0xE5 JUMPI DUP1 PUSH4 0xC401FB4F GT PUSH3 0x97 JUMPI DUP1 PUSH4 0xD18DF53C GT PUSH3 0x6D JUMPI DUP1 PUSH4 0xD18DF53C EQ PUSH3 0x4D2 JUMPI DUP1 PUSH4 0xDDC63262 EQ PUSH3 0x506 JUMPI DUP1 PUSH4 0xF851A440 EQ PUSH3 0x52B JUMPI DUP1 PUSH4 0xFEF12687 EQ PUSH3 0x543 JUMPI PUSH3 0x195 JUMP JUMPDEST DUP1 PUSH4 0xC401FB4F EQ PUSH3 0x461 JUMPI DUP1 PUSH4 0xC4F59F9B EQ PUSH3 0x486 JUMPI DUP1 PUSH4 0xD12E4CEB EQ PUSH3 0x4AD JUMPI PUSH3 0x195 JUMP JUMPDEST DUP1 PUSH4 0x7ACC8678 EQ PUSH3 0x383 JUMPI DUP1 PUSH4 0x7BB7BED1 EQ PUSH3 0x3A8 JUMPI DUP1 PUSH4 0x958E2D31 EQ PUSH3 0x3CD JUMPI DUP1 PUSH4 0xA3A19DFB EQ PUSH3 0x3F2 JUMPI DUP1 PUSH4 0xAC7FC263 EQ PUSH3 0x417 JUMPI DUP1 PUSH4 0xADB82B31 EQ PUSH3 0x43C JUMPI PUSH3 0x195 JUMP JUMPDEST DUP1 PUSH4 0x43A0D066 GT PUSH3 0x13F JUMPI DUP1 PUSH4 0x43A0D066 EQ PUSH3 0x2B0 JUMPI DUP1 PUSH4 0x441A3E70 EQ PUSH3 0x2D7 JUMPI DUP1 PUSH4 0x52FD9F2F EQ PUSH3 0x2FC JUMPI DUP1 PUSH4 0x5312EA8E EQ PUSH3 0x321 JUMPI DUP1 PUSH4 0x75829DEF EQ PUSH3 0x346 JUMPI DUP1 PUSH4 0x77F50F97 EQ PUSH3 0x36B JUMPI PUSH3 0x195 JUMP JUMPDEST DUP1 PUSH4 0x81E3EDA EQ PUSH3 0x19A JUMPI DUP1 PUSH4 0x1069F3B5 EQ PUSH3 0x1CA JUMPI DUP1 PUSH4 0x1E1C6A07 EQ PUSH3 0x200 JUMPI DUP1 PUSH4 0x26782247 EQ PUSH3 0x234 JUMPI DUP1 PUSH4 0x2F380B35 EQ PUSH3 0x25B JUMPI DUP1 PUSH4 0x3892601C EQ PUSH3 0x298 JUMPI PUSH3 0x195 JUMP JUMPDEST CALLDATASIZE PUSH3 0x195 JUMPI STOP JUMPDEST PUSH1 0x0 DUP1 REVERT JUMPDEST CALLVALUE DUP1 ISZERO PUSH3 0x1A7 JUMPI PUSH1 0x0 DUP1 REVERT JUMPDEST POP PUSH3 0x1B2 PUSH3 0x568 JUMP JUMPDEST PUSH1 0x40 MLOAD PUSH3 0x1C1 SWAP2 SWAP1 PUSH3 0x3503 JUMP JUMPDEST PUSH1 0x40 MLOAD DUP1 SWAP2 SUB SWAP1 RETURN JUMPDEST CALLVALUE DUP1 ISZERO PUSH3 0x1D7 JUMPI PUSH1 0x0 DUP1 REVERT JUMPDEST POP PUSH3 0x1EF PUSH3 0x1E9 CALLDATASIZE PUSH1 0x4 PUSH3 0x2EFF JUMP JUMPDEST PUSH3 0x56E JUMP JUMPDEST PUSH1 0x40 MLOAD PUSH3 0x1C1 SWAP4 SWAP3 SWAP2 SWAP1 PUSH3 0x35A4 JUMP JUMPDEST CALLVALUE DUP1 ISZERO PUSH3 0x20D JUMPI PUSH1 0x0 DUP1 REVERT JUMPDEST POP PUSH3 0x225 PUSH3 0x21F CALLDATASIZE PUSH1 0x4 PUSH3 0x2DA9 JUMP JUMPDEST PUSH3 0x6A6 JUMP JUMPDEST PUSH1 0x40 MLOAD PUSH3 0x1C1 SWAP2 SWAP1 PUSH3 0x31A5 JUMP JUMPDEST CALLVALUE DUP1 ISZERO PUSH3 0x241 JUMPI PUSH1 0x0 DUP1 REVERT JUMPDEST POP PUSH3 0x24C PUSH3 0x6BB JUMP JUMPDEST PUSH1 0x40 MLOAD PUSH3 0x1C1 SWAP2 SWAP1 PUSH3 0x3114 JUMP JUMPDEST CALLVALUE DUP1 ISZERO PUSH3 0x268 JUMPI PUSH1 0x0 DUP1 REVERT JUMPDEST POP PUSH3 0x280 PUSH3 0x27A CALLDATASIZE PUSH1 0x4 PUSH3 0x2EE6 JUMP JUMPDEST PUSH3 0x6CA JUMP JUMPDEST PUSH1 0x40 MLOAD PUSH3 0x1C1 SWAP11 SWAP10 SWAP9 SWAP8 SWAP7 SWAP6 SWAP5 SWAP4 SWAP3 SWAP2 SWAP1 PUSH3 0x350C JUMP JUMPDEST CALLVALUE DUP1 ISZERO PUSH3 0x2A5 JUMPI PUSH1 0x0 DUP1 REVERT JUMPDEST POP PUSH3 0x24C PUSH3 0x8B6 JUMP JUMPDEST CALLVALUE DUP1 ISZERO PUSH3 0x2BD JUMPI PUSH1 0x0 DUP1 REVERT JUMPDEST POP PUSH3 0x2D5 PUSH3 0x2CF CALLDATASIZE PUSH1 0x4 PUSH3 0x2F4F JUMP JUMPDEST PUSH3 0x8DA JUMP JUMPDEST STOP JUMPDEST CALLVALUE DUP1 ISZERO PUSH3 0x2E4 JUMPI PUSH1 0x0 DUP1 REVERT JUMPDEST POP PUSH3 0x2D5 PUSH3 0x2F6 CALLDATASIZE PUSH1 0x4 PUSH3 0x2F2D JUMP JUMPDEST PUSH3 0xA76 JUMP JUMPDEST CALLVALUE DUP1 ISZERO PUSH3 0x309 JUMPI PUSH1 0x0 DUP1 REVERT JUMPDEST POP PUSH3 0x2D5 PUSH3 0x31B CALLDATASIZE PUSH1 0x4 PUSH3 0x2EA3 JUMP JUMPDEST PUSH3 0xAD6 JUMP JUMPDEST CALLVALUE DUP1 ISZERO PUSH3 0x32E JUMPI PUSH1 0x0 DUP1 REVERT JUMPDEST POP PUSH3 0x2D5 PUSH3 0x340 CALLDATASIZE PUSH1 0x4 PUSH3 0x2EE6 JUMP JUMPDEST PUSH3 0xE74 JUMP JUMPDEST CALLVALUE DUP1 ISZERO PUSH3 0x353 JUMPI PUSH1 0x0 DUP1 REVERT JUMPDEST POP PUSH3 0x2D5 PUSH3 0x365 CALLDATASIZE PUSH1 0x4 PUSH3 0x2DA9 JUMP JUMPDEST PUSH3 0x1025 JUMP JUMPDEST CALLVALUE DUP1 ISZERO PUSH3 0x378 JUMPI PUSH1 0x0 DUP1 REVERT JUMPDEST POP PUSH3 0x2D5 PUSH3 0x111A JUMP JUMPDEST CALLVALUE DUP1 ISZERO PUSH3 0x390 JUMPI PUSH1 0x0 DUP1 REVERT JUMPDEST POP PUSH3 0x2D5 PUSH3 0x3A2 CALLDATASIZE PUSH1 0x4 PUSH3 0x2DA9 JUMP JUMPDEST PUSH3 0x11DB JUMP JUMPDEST CALLVALUE DUP1 ISZERO PUSH3 0x3B5 JUMPI PUSH1 0x0 DUP1 REVERT JUMPDEST POP PUSH3 0x24C PUSH3 0x3C7 CALLDATASIZE PUSH1 0x4 PUSH3 0x2EE6 JUMP JUMPDEST PUSH3 0x1314 JUMP JUMPDEST CALLVALUE DUP1 ISZERO PUSH3 0x3DA JUMPI PUSH1 0x0 DUP1 REVERT JUMPDEST POP PUSH3 0x2D5 PUSH3 0x3EC CALLDATASIZE PUSH1 0x4 PUSH3 0x2EE6 JUMP JUMPDEST PUSH3 0x133F JUMP JUMPDEST CALLVALUE DUP1 ISZERO PUSH3 0x3FF JUMPI PUSH1 0x0 DUP1 REVERT JUMPDEST POP PUSH3 0x2D5 PUSH3 0x411 CALLDATASIZE PUSH1 0x4 PUSH3 0x2F8D JUMP JUMPDEST PUSH3 0x13B9 JUMP JUMPDEST CALLVALUE DUP1 ISZERO PUSH3 0x424 JUMPI PUSH1 0x0 DUP1 REVERT JUMPDEST POP PUSH3 0x1B2 PUSH3 0x436 CALLDATASIZE PUSH1 0x4 PUSH3 0x2EE6 JUMP JUMPDEST PUSH3 0x1611 JUMP JUMPDEST CALLVALUE DUP1 ISZERO PUSH3 0x449 JUMPI PUSH1 0x0 DUP1 REVERT JUMPDEST POP PUSH3 0x2D5 PUSH3 0x45B CALLDATASIZE PUSH1 0x4 PUSH3 0x2EE6 JUMP JUMPDEST PUSH3 0x1633 JUMP JUMPDEST CALLVALUE DUP1 ISZERO PUSH3 0x46E JUMPI PUSH1 0x0 DUP1 REVERT JUMPDEST POP PUSH3 0x2D5 PUSH3 0x480 CALLDATASIZE PUSH1 0x4 PUSH3 0x3001 JUMP JUMPDEST PUSH3 0x177E JUMP JUMPDEST CALLVALUE DUP1 ISZERO PUSH3 0x493 JUMPI PUSH1 0x0 DUP1 REVERT JUMPDEST POP PUSH3 0x49E PUSH3 0x19E3 JUMP JUMPDEST PUSH1 0x40 MLOAD PUSH3 0x1C1 SWAP2 SWAP1 PUSH3 0x3141 JUMP JUMPDEST CALLVALUE DUP1 ISZERO PUSH3 0x4BA JUMPI PUSH1 0x0 DUP1 REVERT JUMPDEST POP PUSH3 0x2D5 PUSH3 0x4CC CALLDATASIZE PUSH1 0x4 PUSH3 0x2F2D JUMP JUMPDEST PUSH3 0x1A47 JUMP JUMPDEST CALLVALUE DUP1 ISZERO PUSH3 0x4DF JUMPI PUSH1 0x0 DUP1 REVERT JUMPDEST POP PUSH3 0x4F7 PUSH3 0x4F1 CALLDATASIZE PUSH1 0x4 PUSH3 0x2EFF JUMP JUMPDEST PUSH3 0x1B66 JUMP JUMPDEST PUSH1 0x40 MLOAD PUSH3 0x1C1 SWAP2 SWAP1 PUSH3 0x3190 JUMP JUMPDEST CALLVALUE DUP1 ISZERO PUSH3 0x513 JUMPI PUSH1 0x0 DUP1 REVERT JUMPDEST POP PUSH3 0x2D5 PUSH3 0x525 CALLDATASIZE PUSH1 0x4 PUSH3 0x2EE6 JUMP JUMPDEST PUSH3 0x1D46 JUMP JUMPDEST CALLVALUE DUP1 ISZERO PUSH3 0x538 JUMPI PUSH1 0x0 DUP1 REVERT JUMPDEST POP PUSH3 0x24C PUSH3 0x1D5F JUMP JUMPDEST CALLVALUE DUP1 ISZERO PUSH3 0x550 JUMPI PUSH1 0x0 DUP1 REVERT JUMPDEST POP PUSH3 0x2D5 PUSH3 0x562 CALLDATASIZE PUSH1 0x4 PUSH3 0x2DC6 JUMP JUMPDEST PUSH3 0x1D6E JUMP JUMPDEST PUSH1 0x6 SLOAD DUP2 JUMP JUMPDEST PUSH1 0x0 DUP3 DUP2 MSTORE PUSH1 0x8 PUSH1 0x20 SWAP1 DUP2 MSTORE PUSH1 0x40 DUP1 DUP4 KECCAK256 PUSH1 0x1 PUSH1 0x1 PUSH1 0xA0 SHL SUB DUP6 AND DUP5 MSTORE SWAP1 SWAP2 MSTORE SWAP1 KECCAK256 DUP1 SLOAD PUSH1 0x4 SLOAD SWAP1 SWAP2 PUSH1 0x60 SWAP2 DUP3 SWAP2 SWAP1 PUSH1 0x1 PUSH1 0x1 PUSH1 0x40 SHL SUB DUP2 GT DUP1 ISZERO PUSH3 0x5B3 JUMPI PUSH1 0x0 DUP1 REVERT JUMPDEST POP PUSH1 0x40 MLOAD SWAP1 DUP1 DUP3 MSTORE DUP1 PUSH1 0x20 MUL PUSH1 0x20 ADD DUP3 ADD PUSH1 0x40 MSTORE DUP1 ISZERO PUSH3 0x5DE JUMPI DUP2 PUSH1 0x20 ADD PUSH1 0x20 DUP3 MUL DUP1 CALLDATASIZE DUP4 CALLDATACOPY ADD SWAP1 POP JUMPDEST POP PUSH1 0x4 SLOAD SWAP1 SWAP4 POP PUSH1 0x1 PUSH1 0x1 PUSH1 0x40 SHL SUB DUP2 GT DUP1 ISZERO PUSH3 0x5FB JUMPI PUSH1 0x0 DUP1 REVERT JUMPDEST POP PUSH1 0x40 MLOAD SWAP1 DUP1 DUP3 MSTORE DUP1 PUSH1 0x20 MUL PUSH1 0x20 ADD DUP3 ADD PUSH1 0x40 MSTORE DUP1 ISZERO PUSH3 0x626 JUMPI DUP2 PUSH1 0x20 ADD PUSH1 0x20 DUP3 MUL DUP1 CALLDATASIZE DUP4 CALLDATACOPY ADD SWAP1 POP JUMPDEST POP SWAP2 POP PUSH1 0x0 JUMPDEST PUSH1 0x4 SLOAD DUP2 LT ISZERO PUSH3 0x69D JUMPI PUSH1 0x0 DUP2 DUP2 MSTORE PUSH1 0x1 DUP4 ADD PUSH1 0x20 MSTORE PUSH1 0x40 SWAP1 KECCAK256 SLOAD DUP5 MLOAD DUP6 SWAP1 DUP4 SWAP1 DUP2 LT PUSH3 0x657 JUMPI INVALID JUMPDEST PUSH1 0x20 MUL PUSH1 0x20 ADD ADD DUP2 DUP2 MSTORE POP POP DUP2 PUSH1 0x1 ADD PUSH1 0x0 DUP3 DUP2 MSTORE PUSH1 0x20 ADD SWAP1 DUP2 MSTORE PUSH1 0x20 ADD PUSH1 0x0 KECCAK256 PUSH1 0x1 ADD SLOAD DUP4 DUP3 DUP2 MLOAD DUP2 LT PUSH3 0x689 JUMPI INVALID JUMPDEST PUSH1 0x20 SWAP1 DUP2 MUL SWAP2 SWAP1 SWAP2 ADD ADD MSTORE PUSH1 0x1 ADD PUSH3 0x62C JUMP JUMPDEST POP POP SWAP3 POP SWAP3 POP SWAP3 JUMP JUMPDEST PUSH1 0x3 PUSH1 0x20 MSTORE PUSH1 0x0 SWAP1 DUP2 MSTORE PUSH1 0x40 SWAP1 KECCAK256 SLOAD PUSH1 0xFF AND DUP2 JUMP JUMPDEST PUSH1 0x1 SLOAD PUSH1 0x1 PUSH1 0x1 PUSH1 0xA0 SHL SUB AND DUP2 JUMP JUMPDEST PUSH1 0x0 DUP2 DUP2 MSTORE PUSH1 0x7 PUSH1 0x20 MSTORE PUSH1 0x40 SWAP1 KECCAK256 DUP1 SLOAD PUSH1 0x1 DUP3 ADD SLOAD PUSH1 0x2 DUP4 ADD SLOAD PUSH1 0x3 DUP5 ADD SLOAD PUSH1 0x4 SLOAD SWAP4 SWAP5 PUSH1 0x1 PUSH1 0x1 PUSH1 0xA0 SHL SUB SWAP4 DUP5 AND SWAP5 SWAP4 DUP4 AND SWAP4 PUSH4 0xFFFFFFFF PUSH1 0x1 PUSH1 0xA0 SHL DUP6 DIV DUP2 AND SWAP5 PUSH1 0x1 PUSH1 0xC0 SHL DUP2 DIV DUP3 AND SWAP5 PUSH1 0x1 PUSH1 0xE0 SHL SWAP1 SWAP2 DIV DUP3 AND SWAP4 SWAP2 AND SWAP2 PUSH1 0x60 SWAP2 DUP3 SWAP2 DUP3 SWAP2 SWAP1 PUSH1 0x1 PUSH1 0x1 PUSH1 0x40 SHL SUB DUP2 GT DUP1 ISZERO PUSH3 0x743 JUMPI PUSH1 0x0 DUP1 REVERT JUMPDEST POP PUSH1 0x40 MLOAD SWAP1 DUP1 DUP3 MSTORE DUP1 PUSH1 0x20 MUL PUSH1 0x20 ADD DUP3 ADD PUSH1 0x40 MSTORE DUP1 ISZERO PUSH3 0x76E JUMPI DUP2 PUSH1 0x20 ADD PUSH1 0x20 DUP3 MUL DUP1 CALLDATASIZE DUP4 CALLDATACOPY ADD SWAP1 POP JUMPDEST POP PUSH1 0x5 SLOAD SWAP1 SWAP5 POP PUSH1 0x1 PUSH1 0x1 PUSH1 0x40 SHL SUB DUP2 GT DUP1 ISZERO PUSH3 0x78B JUMPI PUSH1 0x0 DUP1 REVERT JUMPDEST POP PUSH1 0x40 MLOAD SWAP1 DUP1 DUP3 MSTORE DUP1 PUSH1 0x20 MUL PUSH1 0x20 ADD DUP3 ADD PUSH1 0x40 MSTORE DUP1 ISZERO PUSH3 0x7B6 JUMPI DUP2 PUSH1 0x20 ADD PUSH1 0x20 DUP3 MUL DUP1 CALLDATASIZE DUP4 CALLDATACOPY ADD SWAP1 POP JUMPDEST POP PUSH1 0x4 SLOAD SWAP1 SWAP4 POP PUSH1 0x1 PUSH1 0x1 PUSH1 0x40 SHL SUB DUP2 GT DUP1 ISZERO PUSH3 0x7D3 JUMPI PUSH1 0x0 DUP1 REVERT JUMPDEST POP PUSH1 0x40 MLOAD SWAP1 DUP1 DUP3 MSTORE DUP1 PUSH1 0x20 MUL PUSH1 0x20 ADD DUP3 ADD PUSH1 0x40 MSTORE DUP1 ISZERO PUSH3 0x7FE JUMPI DUP2 PUSH1 0x20 ADD PUSH1 0x20 DUP3 MUL DUP1 CALLDATASIZE DUP4 CALLDATACOPY ADD SWAP1 POP JUMPDEST POP SWAP2 POP PUSH1 0x0 JUMPDEST PUSH1 0x4 SLOAD DUP2 LT ISZERO PUSH3 0x8A7 JUMPI PUSH1 0x0 DUP2 DUP2 MSTORE PUSH1 0x4 DUP4 ADD PUSH1 0x20 MSTORE PUSH1 0x40 SWAP1 KECCAK256 SLOAD DUP6 MLOAD DUP7 SWAP1 DUP4 SWAP1 DUP2 LT PUSH3 0x82F JUMPI INVALID JUMPDEST PUSH1 0x20 MUL PUSH1 0x20 ADD ADD DUP2 DUP2 MSTORE POP POP PUSH1 0x5 DUP2 DUP2 SLOAD DUP2 LT PUSH3 0x849 JUMPI INVALID JUMPDEST SWAP1 PUSH1 0x0 MSTORE PUSH1 0x20 PUSH1 0x0 KECCAK256 ADD SLOAD DUP5 DUP3 DUP2 MLOAD DUP2 LT PUSH3 0x861 JUMPI INVALID JUMPDEST PUSH1 0x20 MUL PUSH1 0x20 ADD ADD DUP2 DUP2 MSTORE POP POP DUP2 PUSH1 0x4 ADD PUSH1 0x0 DUP3 DUP2 MSTORE PUSH1 0x20 ADD SWAP1 DUP2 MSTORE PUSH1 0x20 ADD PUSH1 0x0 KECCAK256 PUSH1 0x1 ADD SLOAD DUP4 DUP3 DUP2 MLOAD DUP2 LT PUSH3 0x893 JUMPI INVALID JUMPDEST PUSH1 0x20 SWAP1 DUP2 MUL SWAP2 SWAP1 SWAP2 ADD ADD MSTORE PUSH1 0x1 ADD PUSH3 0x804 JUMP JUMPDEST POP POP SWAP2 SWAP4 SWAP6 SWAP8 SWAP10 POP SWAP2 SWAP4 SWAP6 SWAP8 SWAP10 JUMP JUMPDEST PUSH32 0x0 DUP2 JUMP JUMPDEST PUSH1 0x2 DUP1 SLOAD EQ ISZERO PUSH3 0x921 JUMPI PUSH1 0x40 DUP1 MLOAD PUSH3 0x461BCD PUSH1 0xE5 SHL DUP2 MSTORE PUSH1 0x20 PUSH1 0x4 DUP3 ADD MSTORE PUSH1 0x1F PUSH1 0x24 DUP3 ADD MSTORE PUSH1 0x0 DUP1 MLOAD PUSH1 0x20 PUSH3 0x45F8 DUP4 CODECOPY DUP2 MLOAD SWAP2 MSTORE PUSH1 0x44 DUP3 ADD MSTORE SWAP1 MLOAD SWAP1 DUP2 SWAP1 SUB PUSH1 0x64 ADD SWAP1 REVERT JUMPDEST PUSH1 0x2 DUP1 SSTORE PUSH3 0x930 DUP4 PUSH3 0x1633 JUMP JUMPDEST PUSH3 0x93D CALLER DUP5 DUP4 PUSH3 0x2233 JUMP JUMPDEST PUSH1 0x0 DUP4 DUP2 MSTORE PUSH1 0x7 PUSH1 0x20 SWAP1 DUP2 MSTORE PUSH1 0x40 DUP1 DUP4 KECCAK256 PUSH1 0x8 DUP4 MSTORE DUP2 DUP5 KECCAK256 CALLER DUP1 DUP7 MSTORE SWAP4 MSTORE SWAP3 KECCAK256 PUSH1 0x1 DUP4 ADD SLOAD SWAP1 SWAP2 PUSH3 0x97B SWAP2 PUSH1 0x1 PUSH1 0x1 PUSH1 0xA0 SHL SUB AND SWAP1 ADDRESS DUP8 PUSH3 0x248F JUMP JUMPDEST PUSH1 0x2 DUP3 ADD SLOAD PUSH1 0x1 PUSH1 0x1 PUSH1 0xA0 SHL SUB AND DUP1 ISZERO PUSH3 0x9F5 JUMPI PUSH1 0x40 MLOAD PUSH4 0x40C10F19 PUSH1 0xE0 SHL DUP2 MSTORE PUSH1 0x1 PUSH1 0x1 PUSH1 0xA0 SHL SUB DUP3 AND SWAP1 PUSH4 0x40C10F19 SWAP1 PUSH3 0x9C0 SWAP1 CALLER SWAP1 DUP10 SWAP1 PUSH1 0x4 ADD PUSH3 0x3128 JUMP JUMPDEST PUSH1 0x0 PUSH1 0x40 MLOAD DUP1 DUP4 SUB DUP2 PUSH1 0x0 DUP8 DUP1 EXTCODESIZE ISZERO DUP1 ISZERO PUSH3 0x9DB JUMPI PUSH1 0x0 DUP1 REVERT JUMPDEST POP GAS CALL ISZERO DUP1 ISZERO PUSH3 0x9F0 JUMPI RETURNDATASIZE PUSH1 0x0 DUP1 RETURNDATACOPY RETURNDATASIZE PUSH1 0x0 REVERT JUMPDEST POP POP POP POP JUMPDEST DUP2 SLOAD PUSH3 0xA03 SWAP1 DUP7 PUSH3 0x24F1 JUMP JUMPDEST DUP3 SSTORE DUP3 SLOAD PUSH3 0xA13 SWAP1 DUP7 PUSH3 0x24F1 JUMP JUMPDEST DUP4 SSTORE PUSH3 0xA1F PUSH3 0x2555 JUMP JUMPDEST PUSH4 0xFFFFFFFF AND DUP7 CALLER PUSH1 0x1 PUSH1 0x1 PUSH1 0xA0 SHL SUB AND PUSH32 0x36AF321EC8D3C75236829C5317AFFD40DDB308863A1236D2D277A4025CCCEE1E DUP9 PUSH1 0x40 MLOAD PUSH3 0xA61 SWAP2 SWAP1 PUSH3 0x3503 JUMP JUMPDEST PUSH1 0x40 MLOAD DUP1 SWAP2 SUB SWAP1 LOG4 POP POP PUSH1 0x1 PUSH1 0x2 SSTORE POP POP POP POP JUMP JUMPDEST PUSH1 0x2 DUP1 SLOAD EQ ISZERO PUSH3 0xABD JUMPI PUSH1 0x40 DUP1 MLOAD PUSH3 0x461BCD PUSH1 0xE5 SHL DUP2 MSTORE PUSH1 0x20 PUSH1 0x4 DUP3 ADD MSTORE PUSH1 0x1F PUSH1 0x24 DUP3 ADD MSTORE PUSH1 0x0 DUP1 MLOAD PUSH1 0x20 PUSH3 0x45F8 DUP4 CODECOPY DUP2 MLOAD SWAP2 MSTORE PUSH1 0x44 DUP3 ADD MSTORE SWAP1 MLOAD SWAP1 DUP2 SWAP1 SUB PUSH1 0x64 ADD SWAP1 REVERT JUMPDEST PUSH1 0x2 DUP1 SSTORE PUSH3 0xACD DUP3 DUP3 PUSH3 0x2559 JUMP JUMPDEST POP POP PUSH1 0x1 PUSH1 0x2 SSTORE JUMP JUMPDEST DUP1 PUSH3 0xAFF JUMPI PUSH1 0x40 MLOAD PUSH3 0x461BCD PUSH1 0xE5 SHL DUP2 MSTORE PUSH1 0x4 ADD PUSH3 0xAF6 SWAP1 PUSH3 0x3210 JUMP JUMPDEST PUSH1 0x40 MLOAD DUP1 SWAP2 SUB SWAP1 REVERT JUMPDEST PUSH3 0xB0B DUP3 DUP3 PUSH3 0x26C7 JUMP JUMPDEST PUSH3 0xB4A JUMPI PUSH1 0x0 JUMPDEST DUP2 DUP2 LT ISZERO PUSH3 0xB43 JUMPI PUSH3 0xB3A DUP4 DUP4 DUP4 DUP2 DUP2 LT PUSH3 0xB2D JUMPI INVALID JUMPDEST SWAP1 POP PUSH1 0x20 MUL ADD CALLDATALOAD PUSH3 0x1D46 JUMP JUMPDEST PUSH1 0x1 ADD PUSH3 0xB13 JUMP JUMPDEST POP PUSH3 0xE70 JUMP JUMPDEST PUSH1 0x0 PUSH1 0x4 DUP1 SLOAD DUP1 PUSH1 0x20 MUL PUSH1 0x20 ADD PUSH1 0x40 MLOAD SWAP1 DUP2 ADD PUSH1 0x40 MSTORE DUP1 SWAP3 SWAP2 SWAP1 DUP2 DUP2 MSTORE PUSH1 0x20 ADD DUP3 DUP1 SLOAD DUP1 ISZERO PUSH3 0xBA4 JUMPI PUSH1 0x20 MUL DUP3 ADD SWAP2 SWAP1 PUSH1 0x0 MSTORE PUSH1 0x20 PUSH1 0x0 KECCAK256 SWAP1 JUMPDEST DUP2 SLOAD PUSH1 0x1 PUSH1 0x1 PUSH1 0xA0 SHL SUB AND DUP2 MSTORE PUSH1 0x1 SWAP1 SWAP2 ADD SWAP1 PUSH1 0x20 ADD DUP1 DUP4 GT PUSH3 0xB85 JUMPI JUMPDEST POP POP POP POP POP SWAP1 POP PUSH1 0x0 DUP2 MLOAD PUSH1 0x1 PUSH1 0x1 PUSH1 0x40 SHL SUB DUP2 GT DUP1 ISZERO PUSH3 0xBC5 JUMPI PUSH1 0x0 DUP1 REVERT JUMPDEST POP PUSH1 0x40 MLOAD SWAP1 DUP1 DUP3 MSTORE DUP1 PUSH1 0x20 MUL PUSH1 0x20 ADD DUP3 ADD PUSH1 0x40 MSTORE DUP1 ISZERO PUSH3 0xBF0 JUMPI DUP2 PUSH1 0x20 ADD PUSH1 0x20 DUP3 MUL DUP1 CALLDATASIZE DUP4 CALLDATACOPY ADD SWAP1 POP JUMPDEST POP SWAP1 POP CALLER PUSH1 0x0 DUP1 JUMPDEST DUP6 DUP2 LT ISZERO PUSH3 0xD93 JUMPI DUP7 DUP7 DUP3 DUP2 DUP2 LT PUSH3 0xC0E JUMPI INVALID JUMPDEST SWAP1 POP PUSH1 0x20 MUL ADD CALLDATALOAD SWAP2 POP PUSH3 0xC22 DUP3 PUSH3 0x1633 JUMP JUMPDEST PUSH3 0xC30 DUP4 DUP4 PUSH1 0x0 PUSH3 0x2233 JUMP JUMPDEST PUSH1 0x0 JUMPDEST DUP6 MLOAD DUP2 LT ISZERO PUSH3 0xD89 JUMPI PUSH1 0x0 DUP4 DUP2 MSTORE PUSH1 0x8 PUSH1 0x20 SWAP1 DUP2 MSTORE PUSH1 0x40 DUP1 DUP4 KECCAK256 PUSH1 0x1 PUSH1 0x1 PUSH1 0xA0 SHL SUB DUP9 AND DUP5 MSTORE DUP3 MSTORE DUP1 DUP4 KECCAK256 DUP5 DUP5 MSTORE PUSH1 0x1 ADD SWAP1 SWAP2 MSTORE SWAP1 KECCAK256 SLOAD DUP1 ISZERO PUSH3 0xD7F JUMPI PUSH3 0xC9B DUP2 DUP8 DUP5 DUP2 MLOAD DUP2 LT PUSH3 0xC84 JUMPI INVALID JUMPDEST PUSH1 0x20 MUL PUSH1 0x20 ADD ADD MLOAD PUSH3 0x24F1 SWAP1 SWAP2 SWAP1 PUSH4 0xFFFFFFFF AND JUMP JUMPDEST DUP7 DUP4 DUP2 MLOAD DUP2 LT PUSH3 0xCA8 JUMPI INVALID JUMPDEST PUSH1 0x20 SWAP1 DUP2 MUL SWAP2 SWAP1 SWAP2 ADD DUP2 ADD SWAP2 SWAP1 SWAP2 MSTORE PUSH1 0x0 DUP6 DUP2 MSTORE PUSH1 0x8 DUP3 MSTORE PUSH1 0x40 DUP1 DUP3 KECCAK256 PUSH1 0x1 PUSH1 0x1 PUSH1 0xA0 SHL SUB DUP10 AND DUP4 MSTORE DUP4 MSTORE DUP1 DUP3 KECCAK256 DUP6 DUP4 MSTORE PUSH1 0x1 ADD SWAP1 SWAP3 MSTORE SWAP1 DUP2 KECCAK256 SSTORE DUP7 MLOAD DUP8 SWAP1 DUP4 SWAP1 DUP2 LT PUSH3 0xCF2 JUMPI INVALID JUMPDEST PUSH1 0x20 MUL PUSH1 0x20 ADD ADD MLOAD PUSH1 0x1 PUSH1 0x1 PUSH1 0xA0 SHL SUB AND DUP5 DUP7 PUSH1 0x1 PUSH1 0x1 PUSH1 0xA0 SHL SUB AND PUSH32 0xF75F3D433C6628E04E01A0BE1A2C6692A6011CE4B00389824CFA8B8A12F3C1C4 PUSH3 0xD5C PUSH1 0x5 DUP8 DUP2 SLOAD DUP2 LT PUSH3 0xD41 JUMPI INVALID JUMPDEST SWAP1 PUSH1 0x0 MSTORE PUSH1 0x20 PUSH1 0x0 KECCAK256 ADD SLOAD DUP7 PUSH3 0x2768 SWAP1 SWAP2 SWAP1 PUSH4 0xFFFFFFFF AND JUMP JUMPDEST PUSH3 0xD66 PUSH3 0x2555 JUMP JUMPDEST PUSH1 0x40 MLOAD PUSH3 0xD76 SWAP3 SWAP2 SWAP1 PUSH3 0x35DD JUMP JUMPDEST PUSH1 0x40 MLOAD DUP1 SWAP2 SUB SWAP1 LOG4 JUMPDEST POP PUSH1 0x1 ADD PUSH3 0xC33 JUMP JUMPDEST POP PUSH1 0x1 ADD PUSH3 0xBF8 JUMP JUMPDEST POP PUSH1 0x0 JUMPDEST DUP4 MLOAD DUP2 LT ISZERO PUSH3 0xE6A JUMPI PUSH1 0x0 PUSH1 0x7 PUSH1 0x0 DUP10 DUP10 PUSH1 0x0 DUP2 DUP2 LT PUSH3 0xDB5 JUMPI INVALID JUMPDEST SWAP1 POP PUSH1 0x20 MUL ADD CALLDATALOAD DUP2 MSTORE PUSH1 0x20 ADD SWAP1 DUP2 MSTORE PUSH1 0x20 ADD PUSH1 0x0 KECCAK256 PUSH1 0x3 ADD PUSH1 0x0 SWAP1 SLOAD SWAP1 PUSH2 0x100 EXP SWAP1 DIV PUSH4 0xFFFFFFFF AND SWAP1 POP PUSH1 0x0 DUP6 DUP4 DUP2 MLOAD DUP2 LT PUSH3 0xDEF JUMPI INVALID JUMPDEST PUSH1 0x20 MUL PUSH1 0x20 ADD ADD MLOAD GT ISZERO PUSH3 0xE60 JUMPI PUSH3 0xE60 DUP7 DUP4 DUP2 MLOAD DUP2 LT PUSH3 0xE0F JUMPI INVALID JUMPDEST PUSH1 0x20 MUL PUSH1 0x20 ADD ADD MLOAD DUP6 PUSH3 0xE59 PUSH1 0x5 DUP7 DUP2 SLOAD DUP2 LT PUSH3 0xE2A JUMPI INVALID JUMPDEST SWAP1 PUSH1 0x0 MSTORE PUSH1 0x20 PUSH1 0x0 KECCAK256 ADD SLOAD DUP10 DUP8 DUP2 MLOAD DUP2 LT PUSH3 0xE42 JUMPI INVALID JUMPDEST PUSH1 0x20 MUL PUSH1 0x20 ADD ADD MLOAD PUSH3 0x2768 SWAP1 SWAP2 SWAP1 PUSH4 0xFFFFFFFF AND JUMP JUMPDEST DUP5 PUSH3 0x27D1 JUMP JUMPDEST POP PUSH1 0x1 ADD PUSH3 0xD97 JUMP JUMPDEST POP POP POP POP POP JUMPDEST POP POP JUMP JUMPDEST PUSH1 0x2 DUP1 SLOAD EQ ISZERO PUSH3 0xEBB JUMPI PUSH1 0x40 DUP1 MLOAD PUSH3 0x461BCD PUSH1 0xE5 SHL DUP2 MSTORE PUSH1 0x20 PUSH1 0x4 DUP3 ADD MSTORE PUSH1 0x1F PUSH1 0x24 DUP3 ADD MSTORE PUSH1 0x0 DUP1 MLOAD PUSH1 0x20 PUSH3 0x45F8 DUP4 CODECOPY DUP2 MLOAD SWAP2 MSTORE PUSH1 0x44 DUP3 ADD MSTORE SWAP1 MLOAD SWAP1 DUP2 SWAP1 SUB PUSH1 0x64 ADD SWAP1 REVERT JUMPDEST PUSH1 0x2 DUP1 SSTORE PUSH1 0x0 DUP2 DUP2 MSTORE PUSH1 0x7 PUSH1 0x20 SWAP1 DUP2 MSTORE PUSH1 0x40 DUP1 DUP4 KECCAK256 PUSH1 0x8 DUP4 MSTORE DUP2 DUP5 KECCAK256 CALLER DUP6 MSTORE SWAP1 SWAP3 MSTORE DUP3 KECCAK256 DUP1 SLOAD DUP4 DUP3 SSTORE SWAP2 SWAP3 SWAP1 SWAP2 SWAP1 JUMPDEST PUSH1 0x4 SLOAD DUP2 LT ISZERO PUSH3 0xF17 JUMPI PUSH1 0x0 DUP2 DUP2 MSTORE PUSH1 0x1 DUP1 DUP6 ADD PUSH1 0x20 MSTORE PUSH1 0x40 DUP3 KECCAK256 DUP1 DUP3 ADD DUP4 SWAP1 SSTORE SWAP2 SWAP1 SWAP2 SSTORE ADD PUSH3 0xEEA JUMP JUMPDEST POP DUP3 SLOAD PUSH3 0xF26 SWAP1 DUP3 PUSH3 0x287F JUMP JUMPDEST DUP4 SSTORE DUP1 ISZERO PUSH3 0xFC6 JUMPI PUSH1 0x2 DUP4 ADD SLOAD PUSH1 0x1 PUSH1 0x1 PUSH1 0xA0 SHL SUB AND DUP1 ISZERO PUSH3 0xFA9 JUMPI PUSH1 0x40 MLOAD PUSH4 0x2770A7EB PUSH1 0xE2 SHL DUP2 MSTORE PUSH1 0x1 PUSH1 0x1 PUSH1 0xA0 SHL SUB DUP3 AND SWAP1 PUSH4 0x9DC29FAC SWAP1 PUSH3 0xF74 SWAP1 CALLER SWAP1 DUP7 SWAP1 PUSH1 0x4 ADD PUSH3 0x3128 JUMP JUMPDEST PUSH1 0x0 PUSH1 0x40 MLOAD DUP1 DUP4 SUB DUP2 PUSH1 0x0 DUP8 DUP1 EXTCODESIZE ISZERO DUP1 ISZERO PUSH3 0xF8F JUMPI PUSH1 0x0 DUP1 REVERT JUMPDEST POP GAS CALL ISZERO DUP1 ISZERO PUSH3 0xFA4 JUMPI RETURNDATASIZE PUSH1 0x0 DUP1 RETURNDATACOPY RETURNDATASIZE PUSH1 0x0 REVERT JUMPDEST POP POP POP POP JUMPDEST PUSH1 0x1 DUP5 ADD SLOAD PUSH3 0xFC4 SWAP1 PUSH1 0x1 PUSH1 0x1 PUSH1 0xA0 SHL SUB AND CALLER DUP5 PUSH3 0x28DD JUMP JUMPDEST POP JUMPDEST PUSH3 0xFD0 PUSH3 0x2555 JUMP JUMPDEST PUSH4 0xFFFFFFFF AND DUP5 CALLER PUSH1 0x1 PUSH1 0x1 PUSH1 0xA0 SHL SUB AND PUSH32 0x2369DB1BAFEE945AEE5630782F4A170682E3F8188D8DC247A4C73EB8C9E692D2 DUP5 PUSH1 0x40 MLOAD PUSH3 0x1012 SWAP2 SWAP1 PUSH3 0x3503 JUMP JUMPDEST PUSH1 0x40 MLOAD DUP1 SWAP2 SUB SWAP1 LOG4 POP POP PUSH1 0x1 PUSH1 0x2 SSTORE POP POP JUMP JUMPDEST PUSH1 0x0 SLOAD PUSH1 0x1 PUSH1 0x1 PUSH1 0xA0 SHL SUB AND CALLER EQ PUSH3 0x1072 JUMPI PUSH1 0x40 DUP1 MLOAD PUSH3 0x461BCD PUSH1 0xE5 SHL DUP2 MSTORE PUSH1 0x20 PUSH1 0x4 DUP3 ADD MSTORE PUSH1 0xA PUSH1 0x24 DUP3 ADD MSTORE PUSH10 0x37B7363C9030B236B4B7 PUSH1 0xB1 SHL PUSH1 0x44 DUP3 ADD MSTORE SWAP1 MLOAD SWAP1 DUP2 SWAP1 SUB PUSH1 0x64 ADD SWAP1 REVERT JUMPDEST PUSH1 0x1 PUSH1 0x1 PUSH1 0xA0 SHL SUB DUP2 AND PUSH3 0x10BC JUMPI PUSH1 0x40 DUP1 MLOAD PUSH3 0x461BCD PUSH1 0xE5 SHL DUP2 MSTORE PUSH1 0x20 PUSH1 0x4 DUP3 ADD MSTORE PUSH1 0xB PUSH1 0x24 DUP3 ADD MSTORE PUSH11 0x6E65772061646D696E203 PUSH1 0xAC SHL PUSH1 0x44 DUP3 ADD MSTORE SWAP1 MLOAD SWAP1 DUP2 SWAP1 SUB PUSH1 0x64 ADD SWAP1 REVERT JUMPDEST PUSH1 0x40 DUP1 MLOAD PUSH1 0x1 PUSH1 0x1 PUSH1 0xA0 SHL SUB DUP4 AND DUP2 MSTORE SWAP1 MLOAD PUSH32 0x3B81CAF78FA51ECBC8ACB482FD7012A277B428D9B80F9D156E8A54107496CC40 SWAP2 DUP2 SWAP1 SUB PUSH1 0x20 ADD SWAP1 LOG1 PUSH1 0x1 DUP1 SLOAD PUSH1 0x1 PUSH1 0x1 PUSH1 0xA0 SHL SUB NOT AND PUSH1 0x1 PUSH1 0x1 PUSH1 0xA0 SHL SUB SWAP3 SWAP1 SWAP3 AND SWAP2 SWAP1 SWAP2 OR SWAP1 SSTORE JUMP JUMPDEST PUSH1 0x1 SLOAD PUSH1 0x1 PUSH1 0x1 PUSH1 0xA0 SHL SUB AND CALLER EQ PUSH3 0x1168 JUMPI PUSH1 0x40 DUP1 MLOAD PUSH3 0x461BCD PUSH1 0xE5 SHL DUP2 MSTORE PUSH1 0x20 PUSH1 0x4 DUP3 ADD MSTORE PUSH1 0xB PUSH1 0x24 DUP3 ADD MSTORE PUSH11 0x6E6F742070656E64696E67 PUSH1 0xA8 SHL PUSH1 0x44 DUP3 ADD MSTORE SWAP1 MLOAD SWAP1 DUP2 SWAP1 SUB PUSH1 0x64 ADD SWAP1 REVERT JUMPDEST PUSH1 0x1 SLOAD PUSH1 0x0 SLOAD PUSH1 0x40 DUP1 MLOAD PUSH1 0x1 PUSH1 0x1 PUSH1 0xA0 SHL SUB SWAP4 DUP5 AND DUP2 MSTORE SWAP3 SWAP1 SWAP2 AND PUSH1 0x20 DUP4 ADD MSTORE DUP1 MLOAD PUSH32 0x65DA1CFC2C2E81576AD96AFB24A581F8E109B7A403B35CBD3243A1C99EFDB9ED SWAP3 DUP2 SWAP1 SUB SWAP1 SWAP2 ADD SWAP1 LOG1 PUSH1 0x1 DUP1 SLOAD PUSH1 0x0 DUP1 SLOAD PUSH1 0x1 PUSH1 0x1 PUSH1 0xA0 SHL SUB NOT SWAP1 DUP2 AND PUSH1 0x1 PUSH1 0x1 PUSH1 0xA0 SHL SUB DUP5 AND OR SWAP1 SWAP2 SSTORE AND SWAP1 SSTORE JUMP JUMPDEST PUSH1 0x0 SLOAD PUSH1 0x1 PUSH1 0x1 PUSH1 0xA0 SHL SUB AND CALLER EQ PUSH3 0x1228 JUMPI PUSH1 0x40 DUP1 MLOAD PUSH3 0x461BCD PUSH1 0xE5 SHL DUP2 MSTORE PUSH1 0x20 PUSH1 0x4 DUP3 ADD MSTORE PUSH1 0xA PUSH1 0x24 DUP3 ADD MSTORE PUSH10 0x37B7363C9030B236B4B7 PUSH1 0xB1 SHL PUSH1 0x44 DUP3 ADD MSTORE SWAP1 MLOAD SWAP1 DUP2 SWAP1 SUB PUSH1 0x64 ADD SWAP1 REVERT JUMPDEST PUSH1 0x1 PUSH1 0x1 PUSH1 0xA0 SHL SUB DUP2 AND PUSH3 0x126E JUMPI PUSH1 0x40 DUP1 MLOAD PUSH3 0x461BCD PUSH1 0xE5 SHL DUP2 MSTORE PUSH1 0x20 PUSH1 0x4 DUP3 ADD MSTORE PUSH1 0x7 PUSH1 0x24 DUP3 ADD MSTORE PUSH7 0x61646D696E203 PUSH1 0xCC SHL PUSH1 0x44 DUP3 ADD MSTORE SWAP1 MLOAD SWAP1 DUP2 SWAP1 SUB PUSH1 0x64 ADD SWAP1 REVERT JUMPDEST PUSH1 0x40 DUP1 MLOAD PUSH1 0x1 PUSH1 0x1 PUSH1 0xA0 SHL SUB DUP4 AND DUP2 MSTORE SWAP1 MLOAD PUSH32 0x3B81CAF78FA51ECBC8ACB482FD7012A277B428D9B80F9D156E8A54107496CC40 SWAP2 DUP2 SWAP1 SUB PUSH1 0x20 ADD SWAP1 LOG1 PUSH1 0x0 SLOAD PUSH1 0x40 DUP1 MLOAD PUSH1 0x1 PUSH1 0x1 PUSH1 0xA0 SHL SUB DUP1 DUP6 AND DUP3 MSTORE SWAP1 SWAP3 AND PUSH1 0x20 DUP4 ADD MSTORE DUP1 MLOAD PUSH32 0x65DA1CFC2C2E81576AD96AFB24A581F8E109B7A403B35CBD3243A1C99EFDB9ED SWAP3 DUP2 SWAP1 SUB SWAP1 SWAP2 ADD SWAP1 LOG1 PUSH1 0x0 DUP1 SLOAD PUSH1 0x1 PUSH1 0x1 PUSH1 0xA0 SHL SUB NOT AND PUSH1 0x1 PUSH1 0x1 PUSH1 0xA0 SHL SUB SWAP3 SWAP1 SWAP3 AND SWAP2 SWAP1 SWAP2 OR SWAP1 SSTORE JUMP JUMPDEST PUSH1 0x4 DUP2 DUP2 SLOAD DUP2 LT PUSH3 0x1325 JUMPI PUSH1 0x0 DUP1 REVERT JUMPDEST PUSH1 0x0 SWAP2 DUP3 MSTORE PUSH1 0x20 SWAP1 SWAP2 KECCAK256 ADD SLOAD PUSH1 0x1 PUSH1 0x1 PUSH1 0xA0 SHL SUB AND SWAP1 POP DUP2 JUMP JUMPDEST PUSH1 0x2 DUP1 SLOAD EQ ISZERO PUSH3 0x1386 JUMPI PUSH1 0x40 DUP1 MLOAD PUSH3 0x461BCD PUSH1 0xE5 SHL DUP2 MSTORE PUSH1 0x20 PUSH1 0x4 DUP3 ADD MSTORE PUSH1 0x1F PUSH1 0x24 DUP3 ADD MSTORE PUSH1 0x0 DUP1 MLOAD PUSH1 0x20 PUSH3 0x45F8 DUP4 CODECOPY DUP2 MLOAD SWAP2 MSTORE PUSH1 0x44 DUP3 ADD MSTORE SWAP1 MLOAD SWAP1 DUP2 SWAP1 SUB PUSH1 0x64 ADD SWAP1 REVERT JUMPDEST PUSH1 0x2 DUP1 SSTORE PUSH1 0x0 DUP2 DUP2 MSTORE PUSH1 0x8 PUSH1 0x20 SWAP1 DUP2 MSTORE PUSH1 0x40 DUP1 DUP4 KECCAK256 CALLER DUP5 MSTORE SWAP1 SWAP2 MSTORE SWAP1 KECCAK256 SLOAD PUSH3 0x13B1 SWAP1 DUP3 SWAP1 PUSH3 0x2559 JUMP JUMPDEST POP PUSH1 0x1 PUSH1 0x2 SSTORE JUMP JUMPDEST PUSH1 0x0 SLOAD PUSH1 0x1 PUSH1 0x1 PUSH1 0xA0 SHL SUB AND CALLER EQ PUSH3 0x1406 JUMPI PUSH1 0x40 DUP1 MLOAD PUSH3 0x461BCD PUSH1 0xE5 SHL DUP2 MSTORE PUSH1 0x20 PUSH1 0x4 DUP3 ADD MSTORE PUSH1 0xA PUSH1 0x24 DUP3 ADD MSTORE PUSH10 0x37B7363C9030B236B4B7 PUSH1 0xB1 SHL PUSH1 0x44 DUP3 ADD MSTORE SWAP1 MLOAD SWAP1 DUP2 SWAP1 SUB PUSH1 0x64 ADD SWAP1 REVERT JUMPDEST PUSH3 0x1411 DUP6 PUSH3 0x1633 JUMP JUMPDEST PUSH1 0x0 DUP6 DUP2 MSTORE PUSH1 0x7 PUSH1 0x20 MSTORE PUSH1 0x40 SWAP1 KECCAK256 PUSH3 0x1429 PUSH3 0x2555 JUMP JUMPDEST PUSH1 0x2 DUP3 ADD SLOAD PUSH4 0xFFFFFFFF SWAP2 DUP3 AND PUSH1 0x1 PUSH1 0xC0 SHL SWAP1 SWAP2 DIV SWAP1 SWAP2 AND GT PUSH3 0x1461 JUMPI PUSH1 0x40 MLOAD PUSH3 0x461BCD PUSH1 0xE5 SHL DUP2 MSTORE PUSH1 0x4 ADD PUSH3 0xAF6 SWAP1 PUSH3 0x34CC JUMP JUMPDEST PUSH1 0x4 SLOAD DUP3 EQ PUSH3 0x1485 JUMPI PUSH1 0x40 MLOAD PUSH3 0x461BCD PUSH1 0xE5 SHL DUP2 MSTORE PUSH1 0x4 ADD PUSH3 0xAF6 SWAP1 PUSH3 0x32AA JUMP JUMPDEST PUSH3 0x148F PUSH3 0x2555 JUMP JUMPDEST PUSH4 0xFFFFFFFF AND DUP6 PUSH4 0xFFFFFFFF AND GT DUP1 ISZERO PUSH3 0x14BE JUMPI POP PUSH1 0x2 DUP2 ADD SLOAD PUSH4 0xFFFFFFFF PUSH1 0x1 PUSH1 0xA0 SHL SWAP1 SWAP2 DIV DUP2 AND SWAP1 DUP7 AND GT JUMPDEST PUSH3 0x14DD JUMPI PUSH1 0x40 MLOAD PUSH3 0x461BCD PUSH1 0xE5 SHL DUP2 MSTORE PUSH1 0x4 ADD PUSH3 0xAF6 SWAP1 PUSH3 0x3330 JUMP JUMPDEST PUSH1 0x2 DUP2 ADD DUP1 SLOAD PUSH4 0xFFFFFFFF PUSH1 0xC0 SHL NOT AND PUSH1 0x1 PUSH1 0xC0 SHL PUSH4 0xFFFFFFFF DUP9 DUP2 AND SWAP2 SWAP1 SWAP2 MUL SWAP2 SWAP1 SWAP2 OR SWAP1 SWAP2 SSTORE PUSH1 0x3 DUP3 ADD DUP1 SLOAD PUSH4 0xFFFFFFFF NOT AND SWAP2 DUP7 AND SWAP2 SWAP1 SWAP2 OR SWAP1 SSTORE PUSH1 0x0 JUMPDEST DUP3 DUP2 LT ISZERO PUSH3 0x15CD JUMPI PUSH1 0x0 PUSH3 0x1591 DUP4 PUSH1 0x2 ADD PUSH1 0x14 SWAP1 SLOAD SWAP1 PUSH2 0x100 EXP SWAP1 DIV PUSH4 0xFFFFFFFF AND DUP9 SUB PUSH4 0xFFFFFFFF AND PUSH3 0x158A PUSH1 0x5 DUP6 DUP2 SLOAD DUP2 LT PUSH3 0x155C JUMPI INVALID JUMPDEST SWAP1 PUSH1 0x0 MSTORE PUSH1 0x20 PUSH1 0x0 KECCAK256 ADD SLOAD DUP9 DUP9 DUP8 DUP2 DUP2 LT PUSH3 0x1574 JUMPI INVALID JUMPDEST SWAP1 POP PUSH1 0x20 MUL ADD CALLDATALOAD PUSH3 0x2931 SWAP1 SWAP2 SWAP1 PUSH4 0xFFFFFFFF AND JUMP JUMPDEST SWAP1 PUSH3 0x2768 JUMP JUMPDEST SWAP1 POP DUP1 PUSH3 0x15B3 JUMPI PUSH1 0x40 MLOAD PUSH3 0x461BCD PUSH1 0xE5 SHL DUP2 MSTORE PUSH1 0x4 ADD PUSH3 0xAF6 SWAP1 PUSH3 0x33C4 JUMP JUMPDEST PUSH1 0x0 DUP3 DUP2 MSTORE PUSH1 0x4 DUP5 ADD PUSH1 0x20 MSTORE PUSH1 0x40 SWAP1 KECCAK256 SSTORE PUSH1 0x1 ADD PUSH3 0x151E JUMP JUMPDEST POP DUP4 PUSH4 0xFFFFFFFF AND DUP6 PUSH4 0xFFFFFFFF AND DUP8 PUSH32 0x5AF4B4ED394DCA9F180924459D4DE6143B41833ED4899DDAFBD0AA26DE5FF7B5 PUSH1 0x40 MLOAD PUSH1 0x40 MLOAD DUP1 SWAP2 SUB SWAP1 LOG4 POP POP POP POP POP POP JUMP JUMPDEST PUSH1 0x5 DUP2 DUP2 SLOAD DUP2 LT PUSH3 0x1622 JUMPI PUSH1 0x0 DUP1 REVERT JUMPDEST PUSH1 0x0 SWAP2 DUP3 MSTORE PUSH1 0x20 SWAP1 SWAP2 KECCAK256 ADD SLOAD SWAP1 POP DUP2 JUMP JUMPDEST PUSH1 0x6 SLOAD DUP2 LT PUSH3 0x1657 JUMPI PUSH1 0x40 MLOAD PUSH3 0x461BCD PUSH1 0xE5 SHL DUP2 MSTORE PUSH1 0x4 ADD PUSH3 0xAF6 SWAP1 PUSH3 0x32DA JUMP JUMPDEST PUSH1 0x0 DUP2 DUP2 MSTORE PUSH1 0x7 PUSH1 0x20 MSTORE PUSH1 0x40 DUP2 KECCAK256 SWAP1 PUSH3 0x1671 DUP4 PUSH3 0x298F JUMP JUMPDEST PUSH1 0x2 DUP4 ADD SLOAD SWAP1 SWAP2 POP PUSH4 0xFFFFFFFF PUSH1 0x1 PUSH1 0xE0 SHL SWAP1 SWAP2 DIV DUP2 AND SWAP1 DUP3 AND GT PUSH3 0x1699 JUMPI POP POP PUSH3 0x177B JUMP JUMPDEST DUP2 SLOAD DUP1 PUSH3 0x16CE JUMPI POP PUSH1 0x2 SWAP1 SWAP2 ADD DUP1 SLOAD PUSH4 0xFFFFFFFF SWAP1 SWAP3 AND PUSH1 0x1 PUSH1 0xE0 SHL MUL PUSH1 0x1 PUSH1 0x1 PUSH1 0xE0 SHL SUB SWAP1 SWAP3 AND SWAP2 SWAP1 SWAP2 OR SWAP1 SSTORE PUSH3 0x177B JUMP JUMPDEST PUSH1 0x2 DUP4 ADD SLOAD PUSH4 0xFFFFFFFF PUSH1 0x1 PUSH1 0xE0 SHL SWAP1 SWAP2 DIV DUP2 AND DUP4 SUB AND PUSH1 0x0 JUMPDEST PUSH1 0x4 SLOAD DUP2 LT ISZERO PUSH3 0x1751 JUMPI PUSH1 0x0 DUP2 DUP2 MSTORE PUSH1 0x4 DUP7 ADD PUSH1 0x20 MSTORE PUSH1 0x40 DUP2 KECCAK256 DUP1 SLOAD SWAP1 SWAP2 SWAP1 PUSH3 0x1715 SWAP1 DUP6 SWAP1 PUSH3 0x2931 JUMP JUMPDEST SWAP1 POP PUSH3 0x1743 DUP6 PUSH3 0x172D DUP4 PUSH5 0xE8D4A51000 PUSH3 0x2931 JUMP JUMPDEST DUP2 PUSH3 0x1735 JUMPI INVALID JUMPDEST PUSH1 0x1 DUP6 ADD SLOAD SWAP2 SWAP1 DIV PUSH3 0x24F1 JUMP JUMPDEST PUSH1 0x1 SWAP3 DUP4 ADD SSTORE POP ADD PUSH3 0x16E8 JUMP JUMPDEST POP POP POP PUSH1 0x2 SWAP1 SWAP2 ADD DUP1 SLOAD PUSH4 0xFFFFFFFF SWAP1 SWAP3 AND PUSH1 0x1 PUSH1 0xE0 SHL MUL PUSH1 0x1 PUSH1 0x1 PUSH1 0xE0 SHL SUB SWAP1 SWAP3 AND SWAP2 SWAP1 SWAP2 OR SWAP1 SSTORE JUMPDEST POP JUMP JUMPDEST PUSH1 0x0 SLOAD PUSH1 0x1 PUSH1 0x1 PUSH1 0xA0 SHL SUB AND CALLER EQ PUSH3 0x17CB JUMPI PUSH1 0x40 DUP1 MLOAD PUSH3 0x461BCD PUSH1 0xE5 SHL DUP2 MSTORE PUSH1 0x20 PUSH1 0x4 DUP3 ADD MSTORE PUSH1 0xA PUSH1 0x24 DUP3 ADD MSTORE PUSH10 0x37B7363C9030B236B4B7 PUSH1 0xB1 SHL PUSH1 0x44 DUP3 ADD MSTORE SWAP1 MLOAD SWAP1 DUP2 SWAP1 SUB PUSH1 0x64 ADD SWAP1 REVERT JUMPDEST PUSH3 0x17D6 DUP7 PUSH3 0x1633 JUMP JUMPDEST PUSH1 0x0 DUP7 DUP2 MSTORE PUSH1 0x7 PUSH1 0x20 MSTORE PUSH1 0x40 SWAP1 KECCAK256 PUSH3 0x17EE PUSH3 0x2555 JUMP JUMPDEST PUSH1 0x2 DUP3 ADD SLOAD PUSH4 0xFFFFFFFF SWAP2 DUP3 AND PUSH1 0x1 PUSH1 0xA0 SHL SWAP1 SWAP2 DIV SWAP1 SWAP2 AND GT DUP1 PUSH3 0x1832 JUMPI POP PUSH3 0x1818 PUSH3 0x2555 JUMP JUMPDEST PUSH1 0x2 DUP3 ADD SLOAD PUSH4 0xFFFFFFFF SWAP2 DUP3 AND PUSH1 0x1 PUSH1 0xC0 SHL SWAP1 SWAP2 DIV SWAP1 SWAP2 AND LT JUMPDEST PUSH3 0x1851 JUMPI PUSH1 0x40 MLOAD PUSH3 0x461BCD PUSH1 0xE5 SHL DUP2 MSTORE PUSH1 0x4 ADD PUSH3 0xAF6 SWAP1 PUSH3 0x348A JUMP JUMPDEST PUSH1 0x4 SLOAD DUP3 EQ PUSH3 0x1875 JUMPI PUSH1 0x40 MLOAD PUSH3 0x461BCD PUSH1 0xE5 SHL DUP2 MSTORE PUSH1 0x4 ADD PUSH3 0xAF6 SWAP1 PUSH3 0x3395 JUMP JUMPDEST PUSH3 0x187F PUSH3 0x2555 JUMP JUMPDEST PUSH4 0xFFFFFFFF AND DUP7 PUSH4 0xFFFFFFFF AND GT DUP1 ISZERO PUSH3 0x18A5 JUMPI POP DUP6 PUSH4 0xFFFFFFFF AND DUP6 PUSH4 0xFFFFFFFF AND GT JUMPDEST PUSH3 0x18C4 JUMPI PUSH1 0x40 MLOAD PUSH3 0x461BCD PUSH1 0xE5 SHL DUP2 MSTORE PUSH1 0x4 ADD PUSH3 0xAF6 SWAP1 PUSH3 0x3367 JUMP JUMPDEST PUSH1 0x2 DUP2 ADD DUP1 SLOAD PUSH4 0xFFFFFFFF PUSH1 0xA0 SHL NOT AND PUSH1 0x1 PUSH1 0xA0 SHL PUSH4 0xFFFFFFFF DUP10 DUP2 AND SWAP2 DUP3 MUL SWAP3 SWAP1 SWAP3 OR PUSH4 0xFFFFFFFF PUSH1 0xC0 SHL NOT AND PUSH1 0x1 PUSH1 0xC0 SHL DUP10 DUP5 AND MUL OR PUSH1 0x1 PUSH1 0x1 PUSH1 0xE0 SHL SUB AND PUSH1 0x1 PUSH1 0xE0 SHL SWAP2 SWAP1 SWAP2 MUL OR SWAP1 SWAP2 SSTORE PUSH1 0x3 DUP3 ADD DUP1 SLOAD PUSH4 0xFFFFFFFF NOT AND SWAP2 DUP7 AND SWAP2 SWAP1 SWAP2 OR SWAP1 SSTORE PUSH1 0x0 JUMPDEST DUP3 DUP2 LT ISZERO PUSH3 0x1991 JUMPI PUSH1 0x0 PUSH3 0x1955 DUP9 DUP9 SUB PUSH4 0xFFFFFFFF AND PUSH3 0x158A PUSH1 0x5 DUP6 DUP2 SLOAD DUP2 LT PUSH3 0x155C JUMPI INVALID JUMPDEST SWAP1 POP DUP1 PUSH3 0x1977 JUMPI PUSH1 0x40 MLOAD PUSH3 0x461BCD PUSH1 0xE5 SHL DUP2 MSTORE PUSH1 0x4 ADD PUSH3 0xAF6 SWAP1 PUSH3 0x33C4 JUMP JUMPDEST PUSH1 0x0 DUP3 DUP2 MSTORE PUSH1 0x4 DUP5 ADD PUSH1 0x20 MSTORE PUSH1 0x40 SWAP1 KECCAK256 SSTORE PUSH1 0x1 ADD PUSH3 0x192B JUMP JUMPDEST POP DUP5 PUSH4 0xFFFFFFFF AND DUP7 PUSH4 0xFFFFFFFF AND DUP9 PUSH32 0xB604531D649168314D05BDA3F75BFA2AAB29E79121F8CEE6DC685DC2A031C43D DUP8 PUSH1 0x40 MLOAD PUSH3 0x19D2 SWAP2 SWAP1 PUSH3 0x35F1 JUMP JUMPDEST PUSH1 0x40 MLOAD DUP1 SWAP2 SUB SWAP1 LOG4 POP POP POP POP POP POP POP JUMP JUMPDEST PUSH1 0x60 PUSH1 0x4 DUP1 SLOAD DUP1 PUSH1 0x20 MUL PUSH1 0x20 ADD PUSH1 0x40 MLOAD SWAP1 DUP2 ADD PUSH1 0x40 MSTORE DUP1 SWAP3 SWAP2 SWAP1 DUP2 DUP2 MSTORE PUSH1 0x20 ADD DUP3 DUP1 SLOAD DUP1 ISZERO PUSH3 0x1A3D JUMPI PUSH1 0x20 MUL DUP3 ADD SWAP2 SWAP1 PUSH1 0x0 MSTORE PUSH1 0x20 PUSH1 0x0 KECCAK256 SWAP1 JUMPDEST DUP2 SLOAD PUSH1 0x1 PUSH1 0x1 PUSH1 0xA0 SHL SUB AND DUP2 MSTORE PUSH1 0x1 SWAP1 SWAP2 ADD SWAP1 PUSH1 0x20 ADD DUP1 DUP4 GT PUSH3 0x1A1E JUMPI JUMPDEST POP POP POP POP POP SWAP1 POP SWAP1 JUMP JUMPDEST PUSH1 0x0 SLOAD PUSH1 0x1 PUSH1 0x1 PUSH1 0xA0 SHL SUB AND CALLER EQ PUSH3 0x1A94 JUMPI PUSH1 0x40 DUP1 MLOAD PUSH3 0x461BCD PUSH1 0xE5 SHL DUP2 MSTORE PUSH1 0x20 PUSH1 0x4 DUP3 ADD MSTORE PUSH1 0xA PUSH1 0x24 DUP3 ADD MSTORE PUSH10 0x37B7363C9030B236B4B7 PUSH1 0xB1 SHL PUSH1 0x44 DUP3 ADD MSTORE SWAP1 MLOAD SWAP1 DUP2 SWAP1 SUB PUSH1 0x64 ADD SWAP1 REVERT JUMPDEST PUSH1 0x0 PUSH1 0x4 DUP4 DUP2 SLOAD DUP2 LT PUSH3 0x1AA4 JUMPI INVALID JUMPDEST PUSH1 0x0 SWAP2 DUP3 MSTORE PUSH1 0x20 SWAP1 SWAP2 KECCAK256 ADD SLOAD PUSH1 0x1 PUSH1 0x1 PUSH1 0xA0 SHL SUB AND SWAP1 POP DUP1 PUSH3 0x1B4B JUMPI PUSH1 0x0 CALLER PUSH1 0x1 PUSH1 0x1 PUSH1 0xA0 SHL SUB AND DUP4 PUSH1 0x40 MLOAD PUSH3 0x1ADC SWAP1 PUSH3 0x3111 JUMP JUMPDEST PUSH1 0x0 PUSH1 0x40 MLOAD DUP1 DUP4 SUB DUP2 DUP6 DUP8 GAS CALL SWAP3 POP POP POP RETURNDATASIZE DUP1 PUSH1 0x0 DUP2 EQ PUSH3 0x1B1B JUMPI PUSH1 0x40 MLOAD SWAP2 POP PUSH1 0x1F NOT PUSH1 0x3F RETURNDATASIZE ADD AND DUP3 ADD PUSH1 0x40 MSTORE RETURNDATASIZE DUP3 MSTORE RETURNDATASIZE PUSH1 0x0 PUSH1 0x20 DUP5 ADD RETURNDATACOPY PUSH3 0x1B20 JUMP JUMPDEST PUSH1 0x60 SWAP2 POP JUMPDEST POP POP SWAP1 POP DUP1 PUSH3 0x1B44 JUMPI PUSH1 0x40 MLOAD PUSH3 0x461BCD PUSH1 0xE5 SHL DUP2 MSTORE PUSH1 0x4 ADD PUSH3 0xAF6 SWAP1 PUSH3 0x3425 JUMP JUMPDEST POP PUSH3 0x1B61 JUMP JUMPDEST PUSH3 0x1B61 PUSH1 0x1 PUSH1 0x1 PUSH1 0xA0 SHL SUB DUP3 AND CALLER DUP5 PUSH3 0x28DD JUMP JUMPDEST POP POP POP JUMP JUMPDEST PUSH1 0x4 SLOAD PUSH1 0x60 SWAP1 DUP1 PUSH1 0x1 PUSH1 0x1 PUSH1 0x40 SHL SUB DUP2 GT DUP1 ISZERO PUSH3 0x1B83 JUMPI PUSH1 0x0 DUP1 REVERT JUMPDEST POP PUSH1 0x40 MLOAD SWAP1 DUP1 DUP3 MSTORE DUP1 PUSH1 0x20 MUL PUSH1 0x20 ADD DUP3 ADD PUSH1 0x40 MSTORE DUP1 ISZERO PUSH3 0x1BAE JUMPI DUP2 PUSH1 0x20 ADD PUSH1 0x20 DUP3 MUL DUP1 CALLDATASIZE DUP4 CALLDATACOPY ADD SWAP1 POP JUMPDEST POP PUSH1 0x0 DUP6 DUP2 MSTORE PUSH1 0x7 PUSH1 0x20 SWAP1 DUP2 MSTORE PUSH1 0x40 DUP1 DUP4 KECCAK256 PUSH1 0x8 DUP4 MSTORE DUP2 DUP5 KECCAK256 PUSH1 0x1 PUSH1 0x1 PUSH1 0xA0 SHL SUB DUP10 AND DUP6 MSTORE SWAP1 SWAP3 MSTORE DUP3 KECCAK256 DUP2 SLOAD PUSH1 0x2 DUP4 ADD SLOAD SWAP5 SWAP7 POP SWAP2 SWAP4 SWAP1 SWAP3 PUSH1 0x1 PUSH1 0xE0 SHL SWAP1 SWAP2 DIV PUSH4 0xFFFFFFFF AND SWAP1 PUSH3 0x1C00 DUP10 PUSH3 0x298F JUMP JUMPDEST SWAP1 POP PUSH1 0x0 JUMPDEST DUP7 DUP2 LT ISZERO PUSH3 0x1D39 JUMPI PUSH1 0x0 DUP2 DUP2 MSTORE PUSH1 0x4 DUP8 ADD PUSH1 0x20 MSTORE PUSH1 0x40 SWAP1 KECCAK256 PUSH1 0x1 ADD SLOAD PUSH4 0xFFFFFFFF DUP4 AND DUP5 LT DUP1 ISZERO PUSH3 0x1C37 JUMPI POP DUP5 ISZERO ISZERO JUMPDEST ISZERO PUSH3 0x1C95 JUMPI PUSH1 0x0 DUP3 DUP2 MSTORE PUSH1 0x4 DUP9 ADD PUSH1 0x20 MSTORE PUSH1 0x40 DUP2 KECCAK256 SLOAD PUSH3 0x1C67 SWAP1 PUSH4 0xFFFFFFFF DUP1 DUP8 AND DUP9 SWAP1 SUB SWAP2 SWAP1 PUSH3 0x2931 AND JUMP JUMPDEST SWAP1 POP PUSH3 0x1C91 DUP7 PUSH3 0x1C7F DUP4 PUSH5 0xE8D4A51000 PUSH3 0x2931 JUMP JUMPDEST DUP2 PUSH3 0x1C87 JUMPI INVALID JUMPDEST DUP5 SWAP2 SWAP1 DIV PUSH3 0x24F1 JUMP JUMPDEST SWAP2 POP POP JUMPDEST PUSH1 0x0 DUP3 DUP2 MSTORE PUSH1 0x1 DUP1 DUP9 ADD PUSH1 0x20 MSTORE PUSH1 0x40 SWAP1 SWAP2 KECCAK256 ADD SLOAD PUSH5 0xE8D4A51000 SWAP1 PUSH3 0x1CCB SWAP1 PUSH3 0x1CC2 SWAP1 DUP5 SWAP1 PUSH3 0x287F JUMP JUMPDEST DUP9 SLOAD SWAP1 PUSH3 0x2931 JUMP JUMPDEST DUP2 PUSH3 0x1CD3 JUMPI INVALID JUMPDEST DIV DUP10 DUP4 DUP2 MLOAD DUP2 LT PUSH3 0x1CE1 JUMPI INVALID JUMPDEST PUSH1 0x20 MUL PUSH1 0x20 ADD ADD DUP2 DUP2 MSTORE POP POP PUSH3 0x1D17 DUP7 PUSH1 0x1 ADD PUSH1 0x0 DUP5 DUP2 MSTORE PUSH1 0x20 ADD SWAP1 DUP2 MSTORE PUSH1 0x20 ADD PUSH1 0x0 KECCAK256 PUSH1 0x0 ADD SLOAD DUP11 DUP5 DUP2 MLOAD DUP2 LT PUSH3 0xC84 JUMPI INVALID JUMPDEST DUP10 DUP4 DUP2 MLOAD DUP2 LT PUSH3 0x1D24 JUMPI INVALID JUMPDEST PUSH1 0x20 SWAP1 DUP2 MUL SWAP2 SWAP1 SWAP2 ADD ADD MSTORE POP PUSH1 0x1 ADD PUSH3 0x1C05 JUMP JUMPDEST POP POP POP POP POP POP POP SWAP3 SWAP2 POP POP JUMP JUMPDEST PUSH3 0x1D51 DUP2 PUSH3 0x1633 JUMP JUMPDEST PUSH3 0x177B CALLER DUP3 PUSH1 0x1 PUSH3 0x2233 JUMP JUMPDEST PUSH1 0x0 SLOAD PUSH1 0x1 PUSH1 0x1 PUSH1 0xA0 SHL SUB AND DUP2 JUMP JUMPDEST PUSH1 0x0 SLOAD PUSH1 0x1 PUSH1 0x1 PUSH1 0xA0 SHL SUB AND CALLER EQ PUSH3 0x1DBB JUMPI PUSH1 0x40 DUP1 MLOAD PUSH3 0x461BCD PUSH1 0xE5 SHL DUP2 MSTORE PUSH1 0x20 PUSH1 0x4 DUP3 ADD MSTORE PUSH1 0xA PUSH1 0x24 DUP3 ADD MSTORE PUSH10 0x37B7363C9030B236B4B7 PUSH1 0xB1 SHL PUSH1 0x44 DUP3 ADD MSTORE SWAP1 MLOAD SWAP1 DUP2 SWAP1 SUB PUSH1 0x64 ADD SWAP1 REVERT JUMPDEST PUSH1 0x1 PUSH1 0x1 PUSH1 0xA0 SHL SUB DUP9 AND PUSH1 0x0 SWAP1 DUP2 MSTORE PUSH1 0x3 PUSH1 0x20 MSTORE PUSH1 0x40 SWAP1 KECCAK256 SLOAD PUSH1 0xFF AND ISZERO PUSH3 0x1DF7 JUMPI PUSH1 0x40 MLOAD PUSH3 0x461BCD PUSH1 0xE5 SHL DUP2 MSTORE PUSH1 0x4 ADD PUSH3 0xAF6 SWAP1 PUSH3 0x345C JUMP JUMPDEST PUSH1 0x1 PUSH1 0x1 PUSH1 0xA0 SHL SUB DUP9 AND PUSH3 0x1E20 JUMPI PUSH1 0x40 MLOAD PUSH3 0x461BCD PUSH1 0xE5 SHL DUP2 MSTORE PUSH1 0x4 ADD PUSH3 0xAF6 SWAP1 PUSH3 0x3247 JUMP JUMPDEST PUSH1 0x4 SLOAD DUP4 EQ PUSH3 0x1E44 JUMPI PUSH1 0x40 MLOAD PUSH3 0x461BCD PUSH1 0xE5 SHL DUP2 MSTORE PUSH1 0x4 ADD PUSH3 0xAF6 SWAP1 PUSH3 0x3303 JUMP JUMPDEST PUSH3 0x1E4E PUSH3 0x2555 JUMP JUMPDEST PUSH4 0xFFFFFFFF AND DUP8 PUSH4 0xFFFFFFFF AND GT DUP1 ISZERO PUSH3 0x1E74 JUMPI POP DUP7 PUSH4 0xFFFFFFFF AND DUP7 PUSH4 0xFFFFFFFF AND GT JUMPDEST PUSH3 0x1E93 JUMPI PUSH1 0x40 MLOAD PUSH3 0x461BCD PUSH1 0xE5 SHL DUP2 MSTORE PUSH1 0x4 ADD PUSH3 0xAF6 SWAP1 PUSH3 0x327E JUMP JUMPDEST PUSH1 0x0 DUP3 MLOAD PUSH1 0x0 EQ ISZERO DUP1 ISZERO PUSH3 0x1EA8 JUMPI POP DUP2 MLOAD ISZERO ISZERO JUMPDEST ISZERO PUSH3 0x1F19 JUMPI DUP3 DUP3 PUSH1 0x40 MLOAD PUSH3 0x1EBE SWAP1 PUSH3 0x2CAB JUMP JUMPDEST PUSH3 0x1ECB SWAP3 SWAP2 SWAP1 PUSH3 0x31DE JUMP JUMPDEST PUSH1 0x40 MLOAD DUP1 SWAP2 SUB SWAP1 PUSH1 0x0 CREATE DUP1 ISZERO DUP1 ISZERO PUSH3 0x1EE8 JUMPI RETURNDATASIZE PUSH1 0x0 DUP1 RETURNDATACOPY RETURNDATASIZE PUSH1 0x0 REVERT JUMPDEST POP PUSH1 0x6 SLOAD PUSH1 0x0 SWAP1 DUP2 MSTORE PUSH1 0x7 PUSH1 0x20 MSTORE PUSH1 0x40 SWAP1 KECCAK256 PUSH1 0x2 ADD DUP1 SLOAD PUSH1 0x1 PUSH1 0x1 PUSH1 0xA0 SHL SUB NOT AND PUSH1 0x1 PUSH1 0x1 PUSH1 0xA0 SHL SUB DUP4 AND OR SWAP1 SSTORE SWAP1 POP JUMPDEST PUSH1 0x6 DUP1 SLOAD PUSH1 0x0 SWAP1 DUP2 MSTORE PUSH1 0x7 PUSH1 0x20 MSTORE PUSH1 0x40 DUP1 DUP3 KECCAK256 PUSH1 0x1 ADD DUP1 SLOAD PUSH1 0x1 PUSH1 0x1 PUSH1 0xA0 SHL SUB NOT AND PUSH1 0x1 PUSH1 0x1 PUSH1 0xA0 SHL SUB DUP15 AND OR SWAP1 SSTORE DUP3 SLOAD DUP3 MSTORE DUP1 DUP3 KECCAK256 PUSH1 0x2 SWAP1 DUP2 ADD DUP1 SLOAD PUSH4 0xFFFFFFFF PUSH1 0xA0 SHL NOT AND PUSH1 0x1 PUSH1 0xA0 SHL PUSH4 0xFFFFFFFF DUP16 DUP2 AND SWAP2 DUP3 MUL SWAP3 SWAP1 SWAP3 OR SWAP1 SWAP3 SSTORE DUP6 SLOAD DUP6 MSTORE DUP4 DUP6 KECCAK256 DUP4 ADD DUP1 SLOAD PUSH4 0xFFFFFFFF PUSH1 0xC0 SHL NOT AND PUSH1 0x1 PUSH1 0xC0 SHL DUP16 DUP5 AND MUL OR SWAP1 SSTORE DUP6 SLOAD DUP6 MSTORE DUP4 DUP6 KECCAK256 SWAP1 SWAP3 ADD DUP1 SLOAD PUSH1 0x1 PUSH1 0x1 PUSH1 0xE0 SHL SUB AND PUSH1 0x1 PUSH1 0xE0 SHL SWAP1 SWAP3 MUL SWAP2 SWAP1 SWAP2 OR SWAP1 SSTORE SWAP3 SLOAD DUP3 MSTORE DUP2 KECCAK256 PUSH1 0x3 ADD DUP1 SLOAD PUSH4 0xFFFFFFFF NOT AND SWAP3 DUP10 AND SWAP3 SWAP1 SWAP3 OR SWAP1 SWAP2 SSTORE JUMPDEST DUP5 DUP2 LT ISZERO PUSH3 0x207C JUMPI PUSH1 0x0 PUSH3 0x201A DUP11 DUP11 SUB PUSH4 0xFFFFFFFF AND PUSH3 0x158A PUSH1 0x5 DUP6 DUP2 SLOAD DUP2 LT PUSH3 0x2002 JUMPI INVALID JUMPDEST SWAP1 PUSH1 0x0 MSTORE PUSH1 0x20 PUSH1 0x0 KECCAK256 ADD SLOAD DUP11 DUP11 DUP8 DUP2 DUP2 LT PUSH3 0x1574 JUMPI INVALID JUMPDEST SWAP1 POP DUP1 PUSH3 0x203C JUMPI PUSH1 0x40 MLOAD PUSH3 0x461BCD PUSH1 0xE5 SHL DUP2 MSTORE PUSH1 0x4 ADD PUSH3 0xAF6 SWAP1 PUSH3 0x33C4 JUMP JUMPDEST PUSH1 0x40 DUP1 MLOAD DUP1 DUP3 ADD DUP3 MSTORE SWAP2 DUP3 MSTORE PUSH1 0x0 PUSH1 0x20 DUP1 DUP5 ADD DUP3 DUP2 MSTORE PUSH1 0x6 SLOAD DUP4 MSTORE PUSH1 0x7 DUP3 MSTORE DUP4 DUP4 KECCAK256 DUP7 DUP5 MSTORE PUSH1 0x4 ADD SWAP1 SWAP2 MSTORE SWAP2 SWAP1 KECCAK256 SWAP2 MLOAD DUP3 SSTORE MLOAD PUSH1 0x1 SWAP2 DUP3 ADD SSTORE ADD PUSH3 0x1FD8 JUMP JUMPDEST POP PUSH1 0x6 DUP1 SLOAD PUSH1 0x1 SWAP1 DUP2 ADD SWAP1 SWAP2 SSTORE PUSH1 0x1 PUSH1 0x1 PUSH1 0xA0 SHL SUB DUP1 DUP12 AND PUSH1 0x0 DUP2 DUP2 MSTORE PUSH1 0x3 PUSH1 0x20 MSTORE PUSH1 0x40 SWAP1 DUP2 SWAP1 KECCAK256 DUP1 SLOAD PUSH1 0xFF NOT AND SWAP1 SWAP5 OR SWAP1 SWAP4 SSTORE SWAP2 MLOAD SWAP1 DUP4 AND SWAP2 SWAP1 PUSH32 0xEE97DE5694D00ACF6FE59073E574F8FA17901AD0CE3EABB3740A73B4A4FC8B62 SWAP1 PUSH3 0x20EA SWAP1 DUP13 SWAP1 DUP13 SWAP1 DUP13 SWAP1 PUSH3 0x3602 JUMP JUMPDEST PUSH1 0x40 MLOAD DUP1 SWAP2 SUB SWAP1 LOG3 POP POP POP POP POP POP POP POP POP JUMP JUMPDEST DUP1 ISZERO DUP1 PUSH3 0x2187 JUMPI POP PUSH1 0x40 DUP1 MLOAD PUSH4 0x6EB1769F PUSH1 0xE1 SHL DUP2 MSTORE ADDRESS PUSH1 0x4 DUP3 ADD MSTORE PUSH1 0x1 PUSH1 0x1 PUSH1 0xA0 SHL SUB DUP5 DUP2 AND PUSH1 0x24 DUP4 ADD MSTORE SWAP2 MLOAD SWAP2 DUP6 AND SWAP2 PUSH4 0xDD62ED3E SWAP2 PUSH1 0x44 DUP1 DUP3 ADD SWAP3 PUSH1 0x20 SWAP3 SWAP1 SWAP2 SWAP1 DUP3 SWAP1 SUB ADD DUP2 DUP7 DUP1 EXTCODESIZE ISZERO DUP1 ISZERO PUSH3 0x2157 JUMPI PUSH1 0x0 DUP1 REVERT JUMPDEST POP GAS STATICCALL ISZERO DUP1 ISZERO PUSH3 0x216C JUMPI RETURNDATASIZE PUSH1 0x0 DUP1 RETURNDATACOPY RETURNDATASIZE PUSH1 0x0 REVERT JUMPDEST POP POP POP POP PUSH1 0x40 MLOAD RETURNDATASIZE PUSH1 0x20 DUP2 LT ISZERO PUSH3 0x2183 JUMPI PUSH1 0x0 DUP1 REVERT JUMPDEST POP MLOAD ISZERO JUMPDEST PUSH3 0x21C4 JUMPI PUSH1 0x40 MLOAD PUSH3 0x461BCD PUSH1 0xE5 SHL DUP2 MSTORE PUSH1 0x4 ADD DUP1 DUP1 PUSH1 0x20 ADD DUP3 DUP2 SUB DUP3 MSTORE PUSH1 0x36 DUP2 MSTORE PUSH1 0x20 ADD DUP1 PUSH3 0x4689 PUSH1 0x36 SWAP2 CODECOPY PUSH1 0x40 ADD SWAP2 POP POP PUSH1 0x40 MLOAD DUP1 SWAP2 SUB SWAP1 REVERT JUMPDEST PUSH1 0x40 DUP1 MLOAD PUSH1 0x1 PUSH1 0x1 PUSH1 0xA0 SHL SUB DUP5 AND PUSH1 0x24 DUP3 ADD MSTORE PUSH1 0x44 DUP1 DUP3 ADD DUP5 SWAP1 MSTORE DUP3 MLOAD DUP1 DUP4 SUB SWAP1 SWAP2 ADD DUP2 MSTORE PUSH1 0x64 SWAP1 SWAP2 ADD SWAP1 SWAP2 MSTORE PUSH1 0x20 DUP2 ADD DUP1 MLOAD PUSH1 0x1 PUSH1 0x1 PUSH1 0xE0 SHL SUB AND PUSH4 0x95EA7B3 PUSH1 0xE0 SHL OR SWAP1 MSTORE PUSH3 0x1B61 SWAP1 DUP5 SWAP1 PUSH3 0x29DE JUMP JUMPDEST PUSH1 0x60 PUSH3 0x2229 DUP5 DUP5 PUSH1 0x0 DUP6 PUSH3 0x2A95 JUMP JUMPDEST SWAP1 POP JUMPDEST SWAP4 SWAP3 POP POP POP JUMP JUMPDEST PUSH1 0x0 DUP3 DUP2 MSTORE PUSH1 0x8 PUSH1 0x20 SWAP1 DUP2 MSTORE PUSH1 0x40 DUP1 DUP4 KECCAK256 PUSH1 0x1 PUSH1 0x1 PUSH1 0xA0 SHL SUB DUP8 AND DUP5 MSTORE SWAP1 SWAP2 MSTORE SWAP1 KECCAK256 SLOAD PUSH1 0x4 SLOAD DUP2 PUSH3 0x22C5 JUMPI PUSH1 0x0 JUMPDEST DUP2 DUP2 LT ISZERO PUSH3 0x22BC JUMPI PUSH1 0x0 DUP6 DUP2 MSTORE PUSH1 0x7 PUSH1 0x20 SWAP1 DUP2 MSTORE PUSH1 0x40 DUP1 DUP4 KECCAK256 DUP5 DUP5 MSTORE PUSH1 0x4 ADD DUP3 MSTORE DUP1 DUP4 KECCAK256 PUSH1 0x1 SWAP1 DUP2 ADD SLOAD DUP10 DUP6 MSTORE PUSH1 0x8 DUP5 MSTORE DUP3 DUP6 KECCAK256 PUSH1 0x1 PUSH1 0x1 PUSH1 0xA0 SHL SUB DUP13 AND DUP7 MSTORE DUP5 MSTORE DUP3 DUP6 KECCAK256 DUP7 DUP7 MSTORE DUP3 ADD SWAP1 SWAP4 MSTORE SWAP3 KECCAK256 DUP3 ADD SSTORE ADD PUSH3 0x2262 JUMP JUMPDEST POP POP POP PUSH3 0x1B61 JUMP JUMPDEST PUSH1 0x0 JUMPDEST DUP2 DUP2 LT ISZERO PUSH3 0x2487 JUMPI PUSH1 0x0 DUP6 DUP2 MSTORE PUSH1 0x7 PUSH1 0x20 SWAP1 DUP2 MSTORE PUSH1 0x40 DUP1 DUP4 KECCAK256 DUP5 DUP5 MSTORE PUSH1 0x4 ADD DUP3 MSTORE DUP1 DUP4 KECCAK256 PUSH1 0x1 SWAP1 DUP2 ADD SLOAD DUP10 DUP6 MSTORE PUSH1 0x8 DUP5 MSTORE DUP3 DUP6 KECCAK256 PUSH1 0x1 PUSH1 0x1 PUSH1 0xA0 SHL SUB DUP13 AND DUP7 MSTORE DUP5 MSTORE DUP3 DUP6 KECCAK256 DUP7 DUP7 MSTORE DUP3 ADD SWAP1 SWAP4 MSTORE SWAP1 DUP4 KECCAK256 SWAP1 DUP2 ADD SLOAD SWAP2 SWAP3 SWAP1 SWAP2 PUSH5 0xE8D4A51000 SWAP1 PUSH3 0x2342 SWAP1 PUSH3 0x233A SWAP1 DUP7 SWAP1 PUSH3 0x287F JUMP JUMPDEST DUP9 SWAP1 PUSH3 0x2931 JUMP JUMPDEST DUP2 PUSH3 0x234A JUMPI INVALID JUMPDEST DUP4 SLOAD SWAP2 SWAP1 DIV SWAP2 POP PUSH3 0x235E SWAP1 DUP3 SWAP1 PUSH3 0x24F1 JUMP JUMPDEST SWAP1 POP DUP7 PUSH3 0x236D JUMPI DUP1 PUSH3 0x2370 JUMP JUMPDEST PUSH1 0x0 JUMPDEST DUP3 SSTORE PUSH1 0x1 DUP3 ADD DUP4 SWAP1 SSTORE DUP7 DUP1 ISZERO PUSH3 0x2387 JUMPI POP PUSH1 0x0 DUP2 GT JUMPDEST ISZERO PUSH3 0x247B JUMPI PUSH1 0x0 PUSH3 0x23BC PUSH1 0x5 DUP7 DUP2 SLOAD DUP2 LT PUSH3 0x23A1 JUMPI INVALID JUMPDEST SWAP1 PUSH1 0x0 MSTORE PUSH1 0x20 PUSH1 0x0 KECCAK256 ADD SLOAD DUP4 PUSH3 0x2768 SWAP1 SWAP2 SWAP1 PUSH4 0xFFFFFFFF AND JUMP JUMPDEST SWAP1 POP PUSH3 0x240B PUSH1 0x4 DUP7 DUP2 SLOAD DUP2 LT PUSH3 0x23D0 JUMPI INVALID JUMPDEST PUSH1 0x0 SWAP2 DUP3 MSTORE PUSH1 0x20 DUP1 DUP4 KECCAK256 SWAP1 SWAP2 ADD SLOAD DUP13 DUP4 MSTORE PUSH1 0x7 SWAP1 SWAP2 MSTORE PUSH1 0x40 SWAP1 SWAP2 KECCAK256 PUSH1 0x3 ADD SLOAD PUSH1 0x1 PUSH1 0x1 PUSH1 0xA0 SHL SUB SWAP1 SWAP2 AND SWAP1 DUP13 SWAP1 DUP5 SWAP1 PUSH4 0xFFFFFFFF AND PUSH3 0x27D1 JUMP JUMPDEST PUSH1 0x4 DUP6 DUP2 SLOAD DUP2 LT PUSH3 0x2419 JUMPI INVALID JUMPDEST PUSH1 0x0 SWAP2 DUP3 MSTORE PUSH1 0x20 SWAP1 SWAP2 KECCAK256 ADD SLOAD PUSH1 0x1 PUSH1 0x1 PUSH1 0xA0 SHL SUB SWAP1 DUP2 AND SWAP1 DUP11 SWAP1 DUP13 AND PUSH32 0xF75F3D433C6628E04E01A0BE1A2C6692A6011CE4B00389824CFA8B8A12F3C1C4 DUP5 PUSH3 0x2461 PUSH3 0x2555 JUMP JUMPDEST PUSH1 0x40 MLOAD PUSH3 0x2471 SWAP3 SWAP2 SWAP1 PUSH3 0x35DD JUMP JUMPDEST PUSH1 0x40 MLOAD DUP1 SWAP2 SUB SWAP1 LOG4 POP JUMPDEST POP POP POP PUSH1 0x1 ADD PUSH3 0x22C8 JUMP JUMPDEST POP POP POP POP POP POP JUMP JUMPDEST PUSH1 0x40 DUP1 MLOAD PUSH1 0x1 PUSH1 0x1 PUSH1 0xA0 SHL SUB DUP1 DUP7 AND PUSH1 0x24 DUP4 ADD MSTORE DUP5 AND PUSH1 0x44 DUP3 ADD MSTORE PUSH1 0x64 DUP1 DUP3 ADD DUP5 SWAP1 MSTORE DUP3 MLOAD DUP1 DUP4 SUB SWAP1 SWAP2 ADD DUP2 MSTORE PUSH1 0x84 SWAP1 SWAP2 ADD SWAP1 SWAP2 MSTORE PUSH1 0x20 DUP2 ADD DUP1 MLOAD PUSH1 0x1 PUSH1 0x1 PUSH1 0xE0 SHL SUB AND PUSH4 0x23B872DD PUSH1 0xE0 SHL OR SWAP1 MSTORE PUSH3 0x24EB SWAP1 DUP6 SWAP1 PUSH3 0x29DE JUMP JUMPDEST POP POP POP POP JUMP JUMPDEST PUSH1 0x0 DUP3 DUP3 ADD DUP4 DUP2 LT ISZERO PUSH3 0x254C JUMPI PUSH1 0x40 DUP1 MLOAD PUSH3 0x461BCD PUSH1 0xE5 SHL DUP2 MSTORE PUSH1 0x20 PUSH1 0x4 DUP3 ADD MSTORE PUSH1 0x1B PUSH1 0x24 DUP3 ADD MSTORE PUSH32 0x536166654D6174683A206164646974696F6E206F766572666C6F770000000000 PUSH1 0x44 DUP3 ADD MSTORE SWAP1 MLOAD SWAP1 DUP2 SWAP1 SUB PUSH1 0x64 ADD SWAP1 REVERT JUMPDEST SWAP1 POP JUMPDEST SWAP3 SWAP2 POP POP JUMP JUMPDEST TIMESTAMP SWAP1 JUMP JUMPDEST PUSH1 0x0 DUP3 DUP2 MSTORE PUSH1 0x7 PUSH1 0x20 SWAP1 DUP2 MSTORE PUSH1 0x40 DUP1 DUP4 KECCAK256 PUSH1 0x8 DUP4 MSTORE DUP2 DUP5 KECCAK256 CALLER DUP6 MSTORE SWAP1 SWAP3 MSTORE SWAP1 SWAP2 KECCAK256 DUP1 SLOAD DUP4 GT ISZERO PUSH3 0x259E JUMPI PUSH1 0x40 MLOAD PUSH3 0x461BCD PUSH1 0xE5 SHL DUP2 MSTORE PUSH1 0x4 ADD PUSH3 0xAF6 SWAP1 PUSH3 0x33EE JUMP JUMPDEST PUSH3 0x25A9 DUP5 PUSH3 0x1633 JUMP JUMPDEST PUSH3 0x25B7 CALLER DUP6 PUSH1 0x1 PUSH3 0x2233 JUMP JUMPDEST DUP1 SLOAD PUSH3 0x25C5 SWAP1 DUP5 PUSH3 0x287F JUMP JUMPDEST DUP2 SSTORE DUP2 SLOAD PUSH3 0x25D5 SWAP1 DUP5 PUSH3 0x287F JUMP JUMPDEST DUP3 SSTORE PUSH1 0x2 DUP3 ADD SLOAD PUSH1 0x1 PUSH1 0x1 PUSH1 0xA0 SHL SUB AND DUP1 ISZERO PUSH3 0x2651 JUMPI PUSH1 0x40 MLOAD PUSH4 0x2770A7EB PUSH1 0xE2 SHL DUP2 MSTORE PUSH1 0x1 PUSH1 0x1 PUSH1 0xA0 SHL SUB DUP3 AND SWAP1 PUSH4 0x9DC29FAC SWAP1 PUSH3 0x261C SWAP1 CALLER SWAP1 DUP9 SWAP1 PUSH1 0x4 ADD PUSH3 0x3128 JUMP JUMPDEST PUSH1 0x0 PUSH1 0x40 MLOAD DUP1 DUP4 SUB DUP2 PUSH1 0x0 DUP8 DUP1 EXTCODESIZE ISZERO DUP1 ISZERO PUSH3 0x2637 JUMPI PUSH1 0x0 DUP1 REVERT JUMPDEST POP GAS CALL ISZERO DUP1 ISZERO PUSH3 0x264C JUMPI RETURNDATASIZE PUSH1 0x0 DUP1 RETURNDATACOPY RETURNDATASIZE PUSH1 0x0 REVERT JUMPDEST POP POP POP POP JUMPDEST PUSH1 0x1 DUP4 ADD SLOAD PUSH3 0x266C SWAP1 PUSH1 0x1 PUSH1 0x1 PUSH1 0xA0 SHL SUB AND CALLER DUP7 PUSH3 0x28DD JUMP JUMPDEST PUSH3 0x2676 PUSH3 0x2555 JUMP JUMPDEST PUSH4 0xFFFFFFFF AND DUP6 CALLER PUSH1 0x1 PUSH1 0x1 PUSH1 0xA0 SHL SUB AND PUSH32 0x2F25270A4D87BEA75DB541CDFE559334A275B4A233520ED6C0A2429667CCA94 DUP8 PUSH1 0x40 MLOAD PUSH3 0x26B8 SWAP2 SWAP1 PUSH3 0x3503 JUMP JUMPDEST PUSH1 0x40 MLOAD DUP1 SWAP2 SUB SWAP1 LOG4 POP POP POP POP POP JUMP JUMPDEST PUSH1 0x0 DUP1 PUSH1 0x7 PUSH1 0x0 DUP6 DUP6 PUSH1 0x0 DUP2 DUP2 LT PUSH3 0x26DC JUMPI INVALID JUMPDEST PUSH1 0x20 SWAP1 DUP2 MUL SWAP3 SWAP1 SWAP3 ADD CALLDATALOAD DUP4 MSTORE POP DUP2 ADD SWAP2 SWAP1 SWAP2 MSTORE PUSH1 0x40 ADD PUSH1 0x0 KECCAK256 PUSH1 0x3 ADD SLOAD PUSH4 0xFFFFFFFF AND SWAP1 POP PUSH1 0x1 JUMPDEST DUP4 DUP2 LT ISZERO PUSH3 0x275D JUMPI DUP2 PUSH1 0x7 PUSH1 0x0 DUP8 DUP8 DUP6 DUP2 DUP2 LT PUSH3 0x271F JUMPI INVALID JUMPDEST PUSH1 0x20 SWAP1 DUP2 MUL SWAP3 SWAP1 SWAP3 ADD CALLDATALOAD DUP4 MSTORE POP DUP2 ADD SWAP2 SWAP1 SWAP2 MSTORE PUSH1 0x40 ADD PUSH1 0x0 KECCAK256 PUSH1 0x3 ADD SLOAD PUSH4 0xFFFFFFFF AND EQ PUSH3 0x2754 JUMPI PUSH1 0x0 SWAP3 POP POP POP PUSH3 0x254F JUMP JUMPDEST PUSH1 0x1 ADD PUSH3 0x2704 JUMP JUMPDEST POP PUSH1 0x1 SWAP5 SWAP4 POP POP POP POP JUMP JUMPDEST PUSH1 0x0 DUP1 DUP3 GT PUSH3 0x27BF JUMPI PUSH1 0x40 DUP1 MLOAD PUSH3 0x461BCD PUSH1 0xE5 SHL DUP2 MSTORE PUSH1 0x20 PUSH1 0x4 DUP3 ADD MSTORE PUSH1 0x1A PUSH1 0x24 DUP3 ADD MSTORE PUSH32 0x536166654D6174683A206469766973696F6E206279207A65726F000000000000 PUSH1 0x44 DUP3 ADD MSTORE SWAP1 MLOAD SWAP1 DUP2 SWAP1 SUB PUSH1 0x64 ADD SWAP1 REVERT JUMPDEST DUP2 DUP4 DUP2 PUSH3 0x27C9 JUMPI INVALID JUMPDEST DIV SWAP4 SWAP3 POP POP POP JUMP JUMPDEST PUSH1 0x0 PUSH1 0x1 PUSH1 0x1 PUSH1 0xA0 SHL SUB DUP6 AND ISZERO PUSH3 0x27EB JUMPI PUSH1 0x0 PUSH3 0x27ED JUMP JUMPDEST DUP3 JUMPDEST SWAP1 POP PUSH32 0x0 PUSH1 0x1 PUSH1 0x1 PUSH1 0xA0 SHL SUB AND PUSH4 0x1E2FABB6 DUP3 DUP8 DUP8 DUP8 DUP8 PUSH1 0x40 MLOAD DUP7 PUSH4 0xFFFFFFFF AND PUSH1 0xE0 SHL DUP2 MSTORE PUSH1 0x4 ADD PUSH3 0x2844 SWAP5 SWAP4 SWAP3 SWAP2 SWAP1 PUSH3 0x31B0 JUMP JUMPDEST PUSH1 0x0 PUSH1 0x40 MLOAD DUP1 DUP4 SUB DUP2 DUP6 DUP9 DUP1 EXTCODESIZE ISZERO DUP1 ISZERO PUSH3 0x285E JUMPI PUSH1 0x0 DUP1 REVERT JUMPDEST POP GAS CALL ISZERO DUP1 ISZERO PUSH3 0x2873 JUMPI RETURNDATASIZE PUSH1 0x0 DUP1 RETURNDATACOPY RETURNDATASIZE PUSH1 0x0 REVERT JUMPDEST POP POP POP POP POP POP POP POP POP POP JUMP JUMPDEST PUSH1 0x0 DUP3 DUP3 GT ISZERO PUSH3 0x28D7 JUMPI PUSH1 0x40 DUP1 MLOAD PUSH3 0x461BCD PUSH1 0xE5 SHL DUP2 MSTORE PUSH1 0x20 PUSH1 0x4 DUP3 ADD MSTORE PUSH1 0x1E PUSH1 0x24 DUP3 ADD MSTORE PUSH32 0x536166654D6174683A207375627472616374696F6E206F766572666C6F770000 PUSH1 0x44 DUP3 ADD MSTORE SWAP1 MLOAD SWAP1 DUP2 SWAP1 SUB PUSH1 0x64 ADD SWAP1 REVERT JUMPDEST POP SWAP1 SUB SWAP1 JUMP JUMPDEST PUSH1 0x40 DUP1 MLOAD PUSH1 0x1 PUSH1 0x1 PUSH1 0xA0 SHL SUB DUP5 AND PUSH1 0x24 DUP3 ADD MSTORE PUSH1 0x44 DUP1 DUP3 ADD DUP5 SWAP1 MSTORE DUP3 MLOAD DUP1 DUP4 SUB SWAP1 SWAP2 ADD DUP2 MSTORE PUSH1 0x64 SWAP1 SWAP2 ADD SWAP1 SWAP2 MSTORE PUSH1 0x20 DUP2 ADD DUP1 MLOAD PUSH1 0x1 PUSH1 0x1 PUSH1 0xE0 SHL SUB AND PUSH4 0xA9059CBB PUSH1 0xE0 SHL OR SWAP1 MSTORE PUSH3 0x1B61 SWAP1 DUP5 SWAP1 PUSH3 0x29DE JUMP JUMPDEST PUSH1 0x0 DUP3 PUSH3 0x2942 JUMPI POP PUSH1 0x0 PUSH3 0x254F JUMP JUMPDEST DUP3 DUP3 MUL DUP3 DUP5 DUP3 DUP2 PUSH3 0x2950 JUMPI INVALID JUMPDEST DIV EQ PUSH3 0x254C JUMPI PUSH1 0x40 MLOAD PUSH3 0x461BCD PUSH1 0xE5 SHL DUP2 MSTORE PUSH1 0x4 ADD DUP1 DUP1 PUSH1 0x20 ADD DUP3 DUP2 SUB DUP3 MSTORE PUSH1 0x21 DUP2 MSTORE PUSH1 0x20 ADD DUP1 PUSH3 0x463E PUSH1 0x21 SWAP2 CODECOPY PUSH1 0x40 ADD SWAP2 POP POP PUSH1 0x40 MLOAD DUP1 SWAP2 SUB SWAP1 REVERT JUMPDEST PUSH1 0x0 DUP2 DUP2 MSTORE PUSH1 0x7 PUSH1 0x20 MSTORE PUSH1 0x40 SWAP1 KECCAK256 PUSH1 0x2 ADD SLOAD PUSH1 0x1 PUSH1 0xC0 SHL SWAP1 DIV PUSH4 0xFFFFFFFF AND PUSH3 0x29B8 PUSH3 0x2555 JUMP JUMPDEST PUSH4 0xFFFFFFFF AND DUP2 PUSH4 0xFFFFFFFF AND GT ISZERO PUSH3 0x29D9 JUMPI PUSH3 0x29D6 PUSH3 0x2555 JUMP JUMPDEST SWAP1 POP JUMPDEST SWAP2 SWAP1 POP JUMP JUMPDEST PUSH1 0x0 PUSH3 0x2A35 DUP3 PUSH1 0x40 MLOAD DUP1 PUSH1 0x40 ADD PUSH1 0x40 MSTORE DUP1 PUSH1 0x20 DUP2 MSTORE PUSH1 0x20 ADD PUSH32 0x5361666545524332303A206C6F772D6C6576656C2063616C6C206661696C6564 DUP2 MSTORE POP DUP6 PUSH1 0x1 PUSH1 0x1 PUSH1 0xA0 SHL SUB AND PUSH3 0x2218 SWAP1 SWAP3 SWAP2 SWAP1 PUSH4 0xFFFFFFFF AND JUMP JUMPDEST DUP1 MLOAD SWAP1 SWAP2 POP ISZERO PUSH3 0x1B61 JUMPI DUP1 DUP1 PUSH1 0x20 ADD SWAP1 MLOAD PUSH1 0x20 DUP2 LT ISZERO PUSH3 0x2A56 JUMPI PUSH1 0x0 DUP1 REVERT JUMPDEST POP MLOAD PUSH3 0x1B61 JUMPI PUSH1 0x40 MLOAD PUSH3 0x461BCD PUSH1 0xE5 SHL DUP2 MSTORE PUSH1 0x4 ADD DUP1 DUP1 PUSH1 0x20 ADD DUP3 DUP2 SUB DUP3 MSTORE PUSH1 0x2A DUP2 MSTORE PUSH1 0x20 ADD DUP1 PUSH3 0x465F PUSH1 0x2A SWAP2 CODECOPY PUSH1 0x40 ADD SWAP2 POP POP PUSH1 0x40 MLOAD DUP1 SWAP2 SUB SWAP1 REVERT JUMPDEST PUSH1 0x60 DUP3 SELFBALANCE LT ISZERO PUSH3 0x2AD8 JUMPI PUSH1 0x40 MLOAD PUSH3 0x461BCD PUSH1 0xE5 SHL DUP2 MSTORE PUSH1 0x4 ADD DUP1 DUP1 PUSH1 0x20 ADD DUP3 DUP2 SUB DUP3 MSTORE PUSH1 0x26 DUP2 MSTORE PUSH1 0x20 ADD DUP1 PUSH3 0x4618 PUSH1 0x26 SWAP2 CODECOPY PUSH1 0x40 ADD SWAP2 POP POP PUSH1 0x40 MLOAD DUP1 SWAP2 SUB SWAP1 REVERT JUMPDEST PUSH3 0x2AE3 DUP6 PUSH3 0x2BFB JUMP JUMPDEST PUSH3 0x2B35 JUMPI PUSH1 0x40 DUP1 MLOAD PUSH3 0x461BCD PUSH1 0xE5 SHL DUP2 MSTORE PUSH1 0x20 PUSH1 0x4 DUP3 ADD MSTORE PUSH1 0x1D PUSH1 0x24 DUP3 ADD MSTORE PUSH32 0x416464726573733A2063616C6C20746F206E6F6E2D636F6E7472616374000000 PUSH1 0x44 DUP3 ADD MSTORE SWAP1 MLOAD SWAP1 DUP2 SWAP1 SUB PUSH1 0x64 ADD SWAP1 REVERT JUMPDEST PUSH1 0x0 DUP1 DUP7 PUSH1 0x1 PUSH1 0x1 PUSH1 0xA0 SHL SUB AND DUP6 DUP8 PUSH1 0x40 MLOAD DUP1 DUP3 DUP1 MLOAD SWAP1 PUSH1 0x20 ADD SWAP1 DUP1 DUP4 DUP4 JUMPDEST PUSH1 0x20 DUP4 LT PUSH3 0x2B75 JUMPI DUP1 MLOAD DUP3 MSTORE PUSH1 0x1F NOT SWAP1 SWAP3 ADD SWAP2 PUSH1 0x20 SWAP2 DUP3 ADD SWAP2 ADD PUSH3 0x2B54 JUMP JUMPDEST PUSH1 0x1 DUP4 PUSH1 0x20 SUB PUSH2 0x100 EXP SUB DUP1 NOT DUP3 MLOAD AND DUP2 DUP5 MLOAD AND DUP1 DUP3 OR DUP6 MSTORE POP POP POP POP POP POP SWAP1 POP ADD SWAP2 POP POP PUSH1 0x0 PUSH1 0x40 MLOAD DUP1 DUP4 SUB DUP2 DUP6 DUP8 GAS CALL SWAP3 POP POP POP RETURNDATASIZE DUP1 PUSH1 0x0 DUP2 EQ PUSH3 0x2BD9 JUMPI PUSH1 0x40 MLOAD SWAP2 POP PUSH1 0x1F NOT PUSH1 0x3F RETURNDATASIZE ADD AND DUP3 ADD PUSH1 0x40 MSTORE RETURNDATASIZE DUP3 MSTORE RETURNDATASIZE PUSH1 0x0 PUSH1 0x20 DUP5 ADD RETURNDATACOPY PUSH3 0x2BDE JUMP JUMPDEST PUSH1 0x60 SWAP2 POP JUMPDEST POP SWAP2 POP SWAP2 POP PUSH3 0x2BF0 DUP3 DUP3 DUP7 PUSH3 0x2C01 JUMP JUMPDEST SWAP8 SWAP7 POP POP POP POP POP POP POP JUMP JUMPDEST EXTCODESIZE ISZERO ISZERO SWAP1 JUMP JUMPDEST PUSH1 0x60 DUP4 ISZERO PUSH3 0x2C12 JUMPI POP DUP2 PUSH3 0x222C JUMP JUMPDEST DUP3 MLOAD ISZERO PUSH3 0x2C23 JUMPI DUP3 MLOAD DUP1 DUP5 PUSH1 0x20 ADD REVERT JUMPDEST DUP2 PUSH1 0x40 MLOAD PUSH3 0x461BCD PUSH1 0xE5 SHL DUP2 MSTORE PUSH1 0x4 ADD DUP1 DUP1 PUSH1 0x20 ADD DUP3 DUP2 SUB DUP3 MSTORE DUP4 DUP2 DUP2 MLOAD DUP2 MSTORE PUSH1 0x20 ADD SWAP2 POP DUP1 MLOAD SWAP1 PUSH1 0x20 ADD SWAP1 DUP1 DUP4 DUP4 PUSH1 0x0 JUMPDEST DUP4 DUP2 LT ISZERO PUSH3 0x2C6F JUMPI DUP2 DUP2 ADD MLOAD DUP4 DUP3 ADD MSTORE PUSH1 0x20 ADD PUSH3 0x2C55 JUMP JUMPDEST POP POP POP POP SWAP1 POP SWAP1 DUP2 ADD SWAP1 PUSH1 0x1F AND DUP1 ISZERO PUSH3 0x2C9D JUMPI DUP1 DUP3 SUB DUP1 MLOAD PUSH1 0x1 DUP4 PUSH1 0x20 SUB PUSH2 0x100 EXP SUB NOT AND DUP2 MSTORE PUSH1 0x20 ADD SWAP2 POP JUMPDEST POP SWAP3 POP POP POP PUSH1 0x40 MLOAD DUP1 SWAP2 SUB SWAP1 REVERT JUMPDEST PUSH2 0xFD5 DUP1 PUSH3 0x3623 DUP4 CODECOPY ADD SWAP1 JUMP JUMPDEST DUP1 CALLDATALOAD PUSH1 0x1 PUSH1 0x1 PUSH1 0xA0 SHL SUB DUP2 AND DUP2 EQ PUSH3 0x29D9 JUMPI PUSH1 0x0 DUP1 REVERT JUMPDEST PUSH1 0x0 DUP1 DUP4 PUSH1 0x1F DUP5 ADD SLT PUSH3 0x2CE3 JUMPI DUP1 DUP2 REVERT JUMPDEST POP DUP2 CALLDATALOAD PUSH1 0x1 PUSH1 0x1 PUSH1 0x40 SHL SUB DUP2 GT ISZERO PUSH3 0x2CFA JUMPI DUP2 DUP3 REVERT JUMPDEST PUSH1 0x20 DUP4 ADD SWAP2 POP DUP4 PUSH1 0x20 DUP1 DUP4 MUL DUP6 ADD ADD GT ISZERO PUSH3 0x2D15 JUMPI PUSH1 0x0 DUP1 REVERT JUMPDEST SWAP3 POP SWAP3 SWAP1 POP JUMP JUMPDEST PUSH1 0x0 DUP3 PUSH1 0x1F DUP4 ADD SLT PUSH3 0x2D2D JUMPI DUP1 DUP2 REVERT JUMPDEST DUP2 CALLDATALOAD PUSH1 0x1 PUSH1 0x1 PUSH1 0x40 SHL SUB DUP1 DUP3 GT ISZERO PUSH3 0x2D42 JUMPI INVALID JUMPDEST PUSH1 0x40 MLOAD PUSH1 0x1F DUP4 ADD PUSH1 0x1F NOT AND DUP2 ADD PUSH1 0x20 ADD DUP3 DUP2 GT DUP3 DUP3 LT OR ISZERO PUSH3 0x2D61 JUMPI INVALID JUMPDEST PUSH1 0x40 MSTORE DUP3 DUP2 MSTORE DUP5 DUP4 ADD PUSH1 0x20 ADD DUP7 LT ISZERO PUSH3 0x2D79 JUMPI DUP4 DUP5 REVERT JUMPDEST DUP3 PUSH1 0x20 DUP7 ADD PUSH1 0x20 DUP4 ADD CALLDATACOPY SWAP2 DUP3 ADD PUSH1 0x20 ADD SWAP3 SWAP1 SWAP3 MSTORE SWAP4 SWAP3 POP POP POP JUMP JUMPDEST DUP1 CALLDATALOAD PUSH4 0xFFFFFFFF DUP2 AND DUP2 EQ PUSH3 0x29D9 JUMPI PUSH1 0x0 DUP1 REVERT JUMPDEST PUSH1 0x0 PUSH1 0x20 DUP3 DUP5 SUB SLT ISZERO PUSH3 0x2DBB JUMPI DUP1 DUP2 REVERT JUMPDEST PUSH3 0x222C DUP3 PUSH3 0x2CB9 JUMP JUMPDEST PUSH1 0x0 DUP1 PUSH1 0x0 DUP1 PUSH1 0x0 DUP1 PUSH1 0x0 DUP1 PUSH1 0xE0 DUP10 DUP12 SUB SLT ISZERO PUSH3 0x2DE2 JUMPI DUP4 DUP5 REVERT JUMPDEST PUSH3 0x2DED DUP10 PUSH3 0x2CB9 JUMP JUMPDEST SWAP8 POP PUSH3 0x2DFD PUSH1 0x20 DUP11 ADD PUSH3 0x2D94 JUMP JUMPDEST SWAP7 POP PUSH3 0x2E0D PUSH1 0x40 DUP11 ADD PUSH3 0x2D94 JUMP JUMPDEST SWAP6 POP PUSH3 0x2E1D PUSH1 0x60 DUP11 ADD PUSH3 0x2D94 JUMP JUMPDEST SWAP5 POP PUSH1 0x80 DUP10 ADD CALLDATALOAD PUSH1 0x1 PUSH1 0x1 PUSH1 0x40 SHL SUB DUP1 DUP3 GT ISZERO PUSH3 0x2E39 JUMPI DUP6 DUP7 REVERT JUMPDEST PUSH3 0x2E47 DUP13 DUP4 DUP14 ADD PUSH3 0x2CD1 JUMP JUMPDEST SWAP1 SWAP7 POP SWAP5 POP PUSH1 0xA0 DUP12 ADD CALLDATALOAD SWAP2 POP DUP1 DUP3 GT ISZERO PUSH3 0x2E60 JUMPI DUP4 DUP5 REVERT JUMPDEST PUSH3 0x2E6E DUP13 DUP4 DUP14 ADD PUSH3 0x2D1C JUMP JUMPDEST SWAP4 POP PUSH1 0xC0 DUP12 ADD CALLDATALOAD SWAP2 POP DUP1 DUP3 GT ISZERO PUSH3 0x2E84 JUMPI DUP3 DUP4 REVERT JUMPDEST POP PUSH3 0x2E93 DUP12 DUP3 DUP13 ADD PUSH3 0x2D1C JUMP JUMPDEST SWAP2 POP POP SWAP3 SWAP6 SWAP9 POP SWAP3 SWAP6 SWAP9 SWAP1 SWAP4 SWAP7 POP JUMP JUMPDEST PUSH1 0x0 DUP1 PUSH1 0x20 DUP4 DUP6 SUB SLT ISZERO PUSH3 0x2EB6 JUMPI DUP2 DUP3 REVERT JUMPDEST DUP3 CALLDATALOAD PUSH1 0x1 PUSH1 0x1 PUSH1 0x40 SHL SUB DUP2 GT ISZERO PUSH3 0x2ECC JUMPI DUP3 DUP4 REVERT JUMPDEST PUSH3 0x2EDA DUP6 DUP3 DUP7 ADD PUSH3 0x2CD1 JUMP JUMPDEST SWAP1 SWAP7 SWAP1 SWAP6 POP SWAP4 POP POP POP POP JUMP JUMPDEST PUSH1 0x0 PUSH1 0x20 DUP3 DUP5 SUB SLT ISZERO PUSH3 0x2EF8 JUMPI DUP1 DUP2 REVERT JUMPDEST POP CALLDATALOAD SWAP2 SWAP1 POP JUMP JUMPDEST PUSH1 0x0 DUP1 PUSH1 0x40 DUP4 DUP6 SUB SLT ISZERO PUSH3 0x2F12 JUMPI DUP2 DUP3 REVERT JUMPDEST DUP3 CALLDATALOAD SWAP2 POP PUSH3 0x2F24 PUSH1 0x20 DUP5 ADD PUSH3 0x2CB9 JUMP JUMPDEST SWAP1 POP SWAP3 POP SWAP3 SWAP1 POP JUMP JUMPDEST PUSH1 0x0 DUP1 PUSH1 0x40 DUP4 DUP6 SUB SLT ISZERO PUSH3 0x2F40 JUMPI DUP2 DUP3 REVERT JUMPDEST POP POP DUP1 CALLDATALOAD SWAP3 PUSH1 0x20 SWAP1 SWAP2 ADD CALLDATALOAD SWAP2 POP JUMP JUMPDEST PUSH1 0x0 DUP1 PUSH1 0x0 PUSH1 0x60 DUP5 DUP7 SUB SLT ISZERO PUSH3 0x2F64 JUMPI DUP3 DUP4 REVERT JUMPDEST DUP4 CALLDATALOAD SWAP3 POP PUSH1 0x20 DUP5 ADD CALLDATALOAD SWAP2 POP PUSH1 0x40 DUP5 ADD CALLDATALOAD DUP1 ISZERO ISZERO DUP2 EQ PUSH3 0x2F82 JUMPI DUP2 DUP3 REVERT JUMPDEST DUP1 SWAP2 POP POP SWAP3 POP SWAP3 POP SWAP3 JUMP JUMPDEST PUSH1 0x0 DUP1 PUSH1 0x0 DUP1 PUSH1 0x0 PUSH1 0x80 DUP7 DUP9 SUB SLT ISZERO PUSH3 0x2FA5 JUMPI DUP1 DUP2 REVERT JUMPDEST DUP6 CALLDATALOAD SWAP5 POP PUSH3 0x2FB7 PUSH1 0x20 DUP8 ADD PUSH3 0x2D94 JUMP JUMPDEST SWAP4 POP PUSH3 0x2FC7 PUSH1 0x40 DUP8 ADD PUSH3 0x2D94 JUMP JUMPDEST SWAP3 POP PUSH1 0x60 DUP7 ADD CALLDATALOAD PUSH1 0x1 PUSH1 0x1 PUSH1 0x40 SHL SUB DUP2 GT ISZERO PUSH3 0x2FE2 JUMPI DUP2 DUP3 REVERT JUMPDEST PUSH3 0x2FF0 DUP9 DUP3 DUP10 ADD PUSH3 0x2CD1 JUMP JUMPDEST SWAP7 SWAP10 SWAP6 SWAP9 POP SWAP4 SWAP7 POP SWAP3 SWAP5 SWAP4 SWAP3 POP POP POP JUMP JUMPDEST PUSH1 0x0 DUP1 PUSH1 0x0 DUP1 PUSH1 0x0 DUP1 PUSH1 0xA0 DUP8 DUP10 SUB SLT ISZERO PUSH3 0x301A JUMPI DUP2 DUP3 REVERT JUMPDEST DUP7 CALLDATALOAD SWAP6 POP PUSH3 0x302C PUSH1 0x20 DUP9 ADD PUSH3 0x2D94 JUMP JUMPDEST SWAP5 POP PUSH3 0x303C PUSH1 0x40 DUP9 ADD PUSH3 0x2D94 JUMP JUMPDEST SWAP4 POP PUSH3 0x304C PUSH1 0x60 DUP9 ADD PUSH3 0x2D94 JUMP JUMPDEST SWAP3 POP PUSH1 0x80 DUP8 ADD CALLDATALOAD PUSH1 0x1 PUSH1 0x1 PUSH1 0x40 SHL SUB DUP2 GT ISZERO PUSH3 0x3067 JUMPI DUP3 DUP4 REVERT JUMPDEST PUSH3 0x3075 DUP10 DUP3 DUP11 ADD PUSH3 0x2CD1 JUMP JUMPDEST SWAP8 SWAP11 SWAP7 SWAP10 POP SWAP5 SWAP8 POP SWAP3 SWAP6 SWAP4 SWAP5 SWAP3 POP POP POP JUMP JUMPDEST PUSH1 0x0 DUP2 MLOAD DUP1 DUP5 MSTORE PUSH1 0x20 DUP1 DUP6 ADD SWAP5 POP DUP1 DUP5 ADD DUP4 JUMPDEST DUP4 DUP2 LT ISZERO PUSH3 0x30B8 JUMPI DUP2 MLOAD DUP8 MSTORE SWAP6 DUP3 ADD SWAP6 SWAP1 DUP3 ADD SWAP1 PUSH1 0x1 ADD PUSH3 0x309A JUMP JUMPDEST POP SWAP5 SWAP6 SWAP5 POP POP POP POP POP JUMP JUMPDEST PUSH1 0x0 DUP2 MLOAD DUP1 DUP5 MSTORE DUP2 JUMPDEST DUP2 DUP2 LT ISZERO PUSH3 0x30EA JUMPI PUSH1 0x20 DUP2 DUP6 ADD DUP2 ADD MLOAD DUP7 DUP4 ADD DUP3 ADD MSTORE ADD PUSH3 0x30CC JUMP JUMPDEST DUP2 DUP2 GT ISZERO PUSH3 0x30FC JUMPI DUP3 PUSH1 0x20 DUP4 DUP8 ADD ADD MSTORE JUMPDEST POP PUSH1 0x1F ADD PUSH1 0x1F NOT AND SWAP3 SWAP1 SWAP3 ADD PUSH1 0x20 ADD SWAP3 SWAP2 POP POP JUMP JUMPDEST SWAP1 JUMP JUMPDEST PUSH1 0x1 PUSH1 0x1 PUSH1 0xA0 SHL SUB SWAP2 SWAP1 SWAP2 AND DUP2 MSTORE PUSH1 0x20 ADD SWAP1 JUMP JUMPDEST PUSH1 0x1 PUSH1 0x1 PUSH1 0xA0 SHL SUB SWAP3 SWAP1 SWAP3 AND DUP3 MSTORE PUSH1 0x20 DUP3 ADD MSTORE PUSH1 0x40 ADD SWAP1 JUMP JUMPDEST PUSH1 0x20 DUP1 DUP3 MSTORE DUP3 MLOAD DUP3 DUP3 ADD DUP2 SWAP1 MSTORE PUSH1 0x0 SWAP2 SWAP1 DUP5 DUP3 ADD SWAP1 PUSH1 0x40 DUP6 ADD SWAP1 DUP5 JUMPDEST DUP2 DUP2 LT ISZERO PUSH3 0x3184 JUMPI DUP4 MLOAD PUSH1 0x1 PUSH1 0x1 PUSH1 0xA0 SHL SUB AND DUP4 MSTORE SWAP3 DUP5 ADD SWAP3 SWAP2 DUP5 ADD SWAP2 PUSH1 0x1 ADD PUSH3 0x315D JUMP JUMPDEST POP SWAP1 SWAP7 SWAP6 POP POP POP POP POP POP JUMP JUMPDEST PUSH1 0x0 PUSH1 0x20 DUP3 MSTORE PUSH3 0x222C PUSH1 0x20 DUP4 ADD DUP5 PUSH3 0x3087 JUMP JUMPDEST SWAP1 ISZERO ISZERO DUP2 MSTORE PUSH1 0x20 ADD SWAP1 JUMP JUMPDEST PUSH1 0x1 PUSH1 0x1 PUSH1 0xA0 SHL SUB SWAP5 DUP6 AND DUP2 MSTORE SWAP3 SWAP1 SWAP4 AND PUSH1 0x20 DUP4 ADD MSTORE PUSH1 0x40 DUP3 ADD MSTORE PUSH4 0xFFFFFFFF SWAP1 SWAP2 AND PUSH1 0x60 DUP3 ADD MSTORE PUSH1 0x80 ADD SWAP1 JUMP JUMPDEST PUSH1 0x0 PUSH1 0x40 DUP3 MSTORE PUSH3 0x31F3 PUSH1 0x40 DUP4 ADD DUP6 PUSH3 0x30C3 JUMP JUMPDEST DUP3 DUP2 SUB PUSH1 0x20 DUP5 ADD MSTORE PUSH3 0x3207 DUP2 DUP6 PUSH3 0x30C3 JUMP JUMPDEST SWAP6 SWAP5 POP POP POP POP POP JUMP JUMPDEST PUSH1 0x20 DUP1 DUP3 MSTORE PUSH1 0x17 SWAP1 DUP3 ADD MSTORE PUSH32 0x686172766573743A20656D70747920706F6F6C20696473000000000000000000 PUSH1 0x40 DUP3 ADD MSTORE PUSH1 0x60 ADD SWAP1 JUMP JUMPDEST PUSH1 0x20 DUP1 DUP3 MSTORE PUSH1 0x18 SWAP1 DUP3 ADD MSTORE PUSH32 0x6164643A20696E76616C6964207374616B6520746F6B656E0000000000000000 PUSH1 0x40 DUP3 ADD MSTORE PUSH1 0x60 ADD SWAP1 JUMP JUMPDEST PUSH1 0x20 DUP1 DUP3 MSTORE PUSH1 0x12 SWAP1 DUP3 ADD MSTORE PUSH18 0x6164643A20696E76616C69642074696D6573 PUSH1 0x70 SHL PUSH1 0x40 DUP3 ADD MSTORE PUSH1 0x60 ADD SWAP1 JUMP JUMPDEST PUSH1 0x20 DUP1 DUP3 MSTORE PUSH1 0x16 SWAP1 DUP3 ADD MSTORE PUSH22 0xEAE0C8C2E8CA7440D2DCECC2D8D2C840D8CADCCEE8D PUSH1 0x53 SHL PUSH1 0x40 DUP3 ADD MSTORE PUSH1 0x60 ADD SWAP1 JUMP JUMPDEST PUSH1 0x20 DUP1 DUP3 MSTORE PUSH1 0xF SWAP1 DUP3 ADD MSTORE PUSH15 0x1A5B9D985B1A59081C1BDBDB081A59 PUSH1 0x8A SHL PUSH1 0x40 DUP3 ADD MSTORE PUSH1 0x60 ADD SWAP1 JUMP JUMPDEST PUSH1 0x20 DUP1 DUP3 MSTORE PUSH1 0x13 SWAP1 DUP3 ADD MSTORE PUSH19 0xC2C8C87440D2DCECC2D8D2C840D8CADCCEE8D PUSH1 0x6B SHL PUSH1 0x40 DUP3 ADD MSTORE PUSH1 0x60 ADD SWAP1 JUMP JUMPDEST PUSH1 0x20 DUP1 DUP3 MSTORE PUSH1 0x18 SWAP1 DUP3 ADD MSTORE PUSH32 0x7570646174653A20696E76616C696420656E642074696D650000000000000000 PUSH1 0x40 DUP3 ADD MSTORE PUSH1 0x60 ADD SWAP1 JUMP JUMPDEST PUSH1 0x20 DUP1 DUP3 MSTORE PUSH1 0x14 SWAP1 DUP3 ADD MSTORE PUSH20 0x72656E65773A20696E76616C69642074696D6573 PUSH1 0x60 SHL PUSH1 0x40 DUP3 ADD MSTORE PUSH1 0x60 ADD SWAP1 JUMP JUMPDEST PUSH1 0x20 DUP1 DUP3 MSTORE PUSH1 0x15 SWAP1 DUP3 ADD MSTORE PUSH21 0xE4CADCCAEE7440D2DCECC2D8D2C840D8CADCCEE8D PUSH1 0x5B SHL PUSH1 0x40 DUP3 ADD MSTORE PUSH1 0x60 ADD SWAP1 JUMP JUMPDEST PUSH1 0x20 DUP1 DUP3 MSTORE PUSH1 0x10 SWAP1 DUP3 ADD MSTORE PUSH16 0x1C995DD85C99081D1BDBC81CDB585B1B PUSH1 0x82 SHL PUSH1 0x40 DUP3 ADD MSTORE PUSH1 0x60 ADD SWAP1 JUMP JUMPDEST PUSH1 0x20 DUP1 DUP3 MSTORE PUSH1 0x1D SWAP1 DUP3 ADD MSTORE PUSH32 0x77697468647261773A20696E73756666696369656E7420616D6F756E74000000 PUSH1 0x40 DUP3 ADD MSTORE PUSH1 0x60 ADD SWAP1 JUMP JUMPDEST PUSH1 0x20 DUP1 DUP3 MSTORE PUSH1 0x1C SWAP1 DUP3 ADD MSTORE PUSH32 0x7472616E736665722072657761726420746F6B656E206661696C656400000000 PUSH1 0x40 DUP3 ADD MSTORE PUSH1 0x60 ADD SWAP1 JUMP JUMPDEST PUSH1 0x20 DUP1 DUP3 MSTORE PUSH1 0x14 SWAP1 DUP3 ADD MSTORE PUSH20 0x1859190E88191D5C1B1A58D85D1959081C1BDBDB PUSH1 0x62 SHL PUSH1 0x40 DUP3 ADD MSTORE PUSH1 0x60 ADD SWAP1 JUMP JUMPDEST PUSH1 0x20 DUP1 DUP3 MSTORE PUSH1 0x22 SWAP1 DUP3 ADD MSTORE PUSH32 0x72656E65773A20696E76616C696420706F6F6C20737461746520746F2072656E PUSH1 0x40 DUP3 ADD MSTORE PUSH2 0x6577 PUSH1 0xF0 SHL PUSH1 0x60 DUP3 ADD MSTORE PUSH1 0x80 ADD SWAP1 JUMP JUMPDEST PUSH1 0x20 DUP1 DUP3 MSTORE PUSH1 0x1A SWAP1 DUP3 ADD MSTORE PUSH32 0x7570646174653A20706F6F6C20616C726561647920656E646564000000000000 PUSH1 0x40 DUP3 ADD MSTORE PUSH1 0x60 ADD SWAP1 JUMP JUMPDEST SWAP1 DUP2 MSTORE PUSH1 0x20 ADD SWAP1 JUMP JUMPDEST DUP11 DUP2 MSTORE PUSH1 0x1 PUSH1 0x1 PUSH1 0xA0 SHL SUB DUP11 DUP2 AND PUSH1 0x20 DUP4 ADD MSTORE DUP10 AND PUSH1 0x40 DUP3 ADD MSTORE PUSH4 0xFFFFFFFF DUP9 DUP2 AND PUSH1 0x60 DUP4 ADD MSTORE DUP8 DUP2 AND PUSH1 0x80 DUP4 ADD MSTORE DUP7 DUP2 AND PUSH1 0xA0 DUP4 ADD MSTORE DUP6 AND PUSH1 0xC0 DUP3 ADD MSTORE PUSH2 0x140 PUSH1 0xE0 DUP3 ADD DUP2 SWAP1 MSTORE PUSH1 0x0 SWAP1 PUSH3 0x3565 DUP4 DUP3 ADD DUP8 PUSH3 0x3087 JUMP JUMPDEST SWAP1 POP DUP3 DUP2 SUB PUSH2 0x100 DUP5 ADD MSTORE PUSH3 0x357C DUP2 DUP7 PUSH3 0x3087 JUMP JUMPDEST SWAP1 POP DUP3 DUP2 SUB PUSH2 0x120 DUP5 ADD MSTORE PUSH3 0x3593 DUP2 DUP6 PUSH3 0x3087 JUMP JUMPDEST SWAP14 SWAP13 POP POP POP POP POP POP POP POP POP POP POP POP POP JUMP JUMPDEST PUSH1 0x0 DUP5 DUP3 MSTORE PUSH1 0x60 PUSH1 0x20 DUP4 ADD MSTORE PUSH3 0x35BF PUSH1 0x60 DUP4 ADD DUP6 PUSH3 0x3087 JUMP JUMPDEST DUP3 DUP2 SUB PUSH1 0x40 DUP5 ADD MSTORE PUSH3 0x35D3 DUP2 DUP6 PUSH3 0x3087 JUMP JUMPDEST SWAP7 SWAP6 POP POP POP POP POP POP JUMP JUMPDEST SWAP2 DUP3 MSTORE PUSH4 0xFFFFFFFF AND PUSH1 0x20 DUP3 ADD MSTORE PUSH1 0x40 ADD SWAP1 JUMP JUMPDEST PUSH4 0xFFFFFFFF SWAP2 SWAP1 SWAP2 AND DUP2 MSTORE PUSH1 0x20 ADD SWAP1 JUMP JUMPDEST PUSH4 0xFFFFFFFF SWAP4 DUP5 AND DUP2 MSTORE SWAP2 DUP4 AND PUSH1 0x20 DUP4 ADD MSTORE SWAP1 SWAP2 AND PUSH1 0x40 DUP3 ADD MSTORE PUSH1 0x60 ADD SWAP1 JUMP INVALID PUSH1 0x80 PUSH1 0x40 MSTORE CALLVALUE DUP1 ISZERO PUSH3 0x11 JUMPI PUSH1 0x0 DUP1 REVERT JUMPDEST POP PUSH1 0x40 MLOAD PUSH3 0xFD5 CODESIZE SUB DUP1 PUSH3 0xFD5 DUP4 CODECOPY DUP2 ADD PUSH1 0x40 DUP2 SWAP1 MSTORE PUSH3 0x34 SWAP2 PUSH3 0x1D6 JUMP JUMPDEST DUP2 MLOAD DUP3 SWAP1 DUP3 SWAP1 PUSH3 0x4D SWAP1 PUSH1 0x3 SWAP1 PUSH1 0x20 DUP6 ADD SWAP1 PUSH3 0x8F JUMP JUMPDEST POP DUP1 MLOAD PUSH3 0x63 SWAP1 PUSH1 0x4 SWAP1 PUSH1 0x20 DUP5 ADD SWAP1 PUSH3 0x8F JUMP JUMPDEST POP POP PUSH1 0x5 DUP1 SLOAD PUSH1 0x12 PUSH1 0xFF NOT SWAP1 SWAP2 AND OR PUSH2 0x100 PUSH1 0x1 PUSH1 0xA8 SHL SUB NOT AND PUSH2 0x100 CALLER MUL OR SWAP1 SSTORE POP PUSH3 0x23D SWAP2 POP POP JUMP JUMPDEST DUP3 DUP1 SLOAD PUSH1 0x1 DUP2 PUSH1 0x1 AND ISZERO PUSH2 0x100 MUL SUB AND PUSH1 0x2 SWAP1 DIV SWAP1 PUSH1 0x0 MSTORE PUSH1 0x20 PUSH1 0x0 KECCAK256 SWAP1 PUSH1 0x1F ADD PUSH1 0x20 SWAP1 DIV DUP2 ADD SWAP3 DUP3 PUSH3 0xC7 JUMPI PUSH1 0x0 DUP6 SSTORE PUSH3 0x112 JUMP JUMPDEST DUP3 PUSH1 0x1F LT PUSH3 0xE2 JUMPI DUP1 MLOAD PUSH1 0xFF NOT AND DUP4 DUP1 ADD OR DUP6 SSTORE PUSH3 0x112 JUMP JUMPDEST DUP3 DUP1 ADD PUSH1 0x1 ADD DUP6 SSTORE DUP3 ISZERO PUSH3 0x112 JUMPI SWAP2 DUP3 ADD JUMPDEST DUP3 DUP2 GT ISZERO PUSH3 0x112 JUMPI DUP3 MLOAD DUP3 SSTORE SWAP2 PUSH1 0x20 ADD SWAP2 SWAP1 PUSH1 0x1 ADD SWAP1 PUSH3 0xF5 JUMP JUMPDEST POP PUSH3 0x120 SWAP3 SWAP2 POP PUSH3 0x124 JUMP JUMPDEST POP SWAP1 JUMP JUMPDEST JUMPDEST DUP1 DUP3 GT ISZERO PUSH3 0x120 JUMPI PUSH1 0x0 DUP2 SSTORE PUSH1 0x1 ADD PUSH3 0x125 JUMP JUMPDEST PUSH1 0x0 DUP3 PUSH1 0x1F DUP4 ADD SLT PUSH3 0x14C JUMPI DUP1 DUP2 REVERT JUMPDEST DUP2 MLOAD PUSH1 0x1 PUSH1 0x1 PUSH1 0x40 SHL SUB DUP1 DUP3 GT ISZERO PUSH3 0x161 JUMPI INVALID JUMPDEST PUSH1 0x40 MLOAD PUSH1 0x20 PUSH1 0x1F DUP5 ADD PUSH1 0x1F NOT AND DUP3 ADD DUP2 ADD DUP4 DUP2 GT DUP4 DUP3 LT OR ISZERO PUSH3 0x181 JUMPI INVALID JUMPDEST PUSH1 0x40 MSTORE DUP4 DUP3 MSTORE DUP6 DUP5 ADD DUP2 ADD DUP8 LT ISZERO PUSH3 0x198 JUMPI DUP5 DUP6 REVERT JUMPDEST DUP5 SWAP3 POP JUMPDEST DUP4 DUP4 LT ISZERO PUSH3 0x1BB JUMPI DUP6 DUP4 ADD DUP2 ADD MLOAD DUP3 DUP5 ADD DUP3 ADD MSTORE SWAP2 DUP3 ADD SWAP2 PUSH3 0x19C JUMP JUMPDEST DUP4 DUP4 GT ISZERO PUSH3 0x1CC JUMPI DUP5 DUP2 DUP6 DUP5 ADD ADD MSTORE JUMPDEST POP SWAP6 SWAP5 POP POP POP POP POP JUMP JUMPDEST PUSH1 0x0 DUP1 PUSH1 0x40 DUP4 DUP6 SUB SLT ISZERO PUSH3 0x1E9 JUMPI DUP2 DUP3 REVERT JUMPDEST DUP3 MLOAD PUSH1 0x1 PUSH1 0x1 PUSH1 0x40 SHL SUB DUP1 DUP3 GT ISZERO PUSH3 0x200 JUMPI DUP4 DUP5 REVERT JUMPDEST PUSH3 0x20E DUP7 DUP4 DUP8 ADD PUSH3 0x13B JUMP JUMPDEST SWAP4 POP PUSH1 0x20 DUP6 ADD MLOAD SWAP2 POP DUP1 DUP3 GT ISZERO PUSH3 0x224 JUMPI DUP3 DUP4 REVERT JUMPDEST POP PUSH3 0x233 DUP6 DUP3 DUP7 ADD PUSH3 0x13B JUMP JUMPDEST SWAP2 POP POP SWAP3 POP SWAP3 SWAP1 POP JUMP JUMPDEST PUSH2 0xD88 DUP1 PUSH3 0x24D PUSH1 0x0 CODECOPY PUSH1 0x0 RETURN INVALID PUSH1 0x80 PUSH1 0x40 MSTORE CALLVALUE DUP1 ISZERO PUSH2 0x10 JUMPI PUSH1 0x0 DUP1 REVERT JUMPDEST POP PUSH1 0x4 CALLDATASIZE LT PUSH2 0xCF JUMPI PUSH1 0x0 CALLDATALOAD PUSH1 0xE0 SHR DUP1 PUSH4 0x40C10F19 GT PUSH2 0x8C JUMPI DUP1 PUSH4 0x9DC29FAC GT PUSH2 0x66 JUMPI DUP1 PUSH4 0x9DC29FAC EQ PUSH2 0x192 JUMPI DUP1 PUSH4 0xA457C2D7 EQ PUSH2 0x1A5 JUMPI DUP1 PUSH4 0xA9059CBB EQ PUSH2 0x1B8 JUMPI DUP1 PUSH4 0xDD62ED3E EQ PUSH2 0x1CB JUMPI PUSH2 0xCF JUMP JUMPDEST DUP1 PUSH4 0x40C10F19 EQ PUSH2 0x162 JUMPI DUP1 PUSH4 0x70A08231 EQ PUSH2 0x177 JUMPI DUP1 PUSH4 0x95D89B41 EQ PUSH2 0x18A JUMPI PUSH2 0xCF JUMP JUMPDEST DUP1 PUSH4 0x6FDDE03 EQ PUSH2 0xD4 JUMPI DUP1 PUSH4 0x95EA7B3 EQ PUSH2 0xF2 JUMPI DUP1 PUSH4 0x18160DDD EQ PUSH2 0x112 JUMPI DUP1 PUSH4 0x23B872DD EQ PUSH2 0x127 JUMPI DUP1 PUSH4 0x313CE567 EQ PUSH2 0x13A JUMPI DUP1 PUSH4 0x39509351 EQ PUSH2 0x14F JUMPI JUMPDEST PUSH1 0x0 DUP1 REVERT JUMPDEST PUSH2 0xDC PUSH2 0x1DE JUMP JUMPDEST PUSH1 0x40 MLOAD PUSH2 0xE9 SWAP2 SWAP1 PUSH2 0xB7E JUMP JUMPDEST PUSH1 0x40 MLOAD DUP1 SWAP2 SUB SWAP1 RETURN JUMPDEST PUSH2 0x105 PUSH2 0x100 CALLDATASIZE PUSH1 0x4 PUSH2 0xB4A JUMP JUMPDEST PUSH2 0x274 JUMP JUMPDEST PUSH1 0x40 MLOAD PUSH2 0xE9 SWAP2 SWAP1 PUSH2 0xB73 JUMP JUMPDEST PUSH2 0x11A PUSH2 0x291 JUMP JUMPDEST PUSH1 0x40 MLOAD PUSH2 0xE9 SWAP2 SWAP1 PUSH2 0xBF7 JUMP JUMPDEST PUSH2 0x105 PUSH2 0x135 CALLDATASIZE PUSH1 0x4 PUSH2 0xB0F JUMP JUMPDEST PUSH2 0x297 JUMP JUMPDEST PUSH2 0x142 PUSH2 0x31E JUMP JUMPDEST PUSH1 0x40 MLOAD PUSH2 0xE9 SWAP2 SWAP1 PUSH2 0xC00 JUMP JUMPDEST PUSH2 0x105 PUSH2 0x15D CALLDATASIZE PUSH1 0x4 PUSH2 0xB4A JUMP JUMPDEST PUSH2 0x327 JUMP JUMPDEST PUSH2 0x175 PUSH2 0x170 CALLDATASIZE PUSH1 0x4 PUSH2 0xB4A JUMP JUMPDEST PUSH2 0x375 JUMP JUMPDEST STOP JUMPDEST PUSH2 0x11A PUSH2 0x185 CALLDATASIZE PUSH1 0x4 PUSH2 0xAC3 JUMP JUMPDEST PUSH2 0x3BB JUMP JUMPDEST PUSH2 0xDC PUSH2 0x3DA JUMP JUMPDEST PUSH2 0x175 PUSH2 0x1A0 CALLDATASIZE PUSH1 0x4 PUSH2 0xB4A JUMP JUMPDEST PUSH2 0x43B JUMP JUMPDEST PUSH2 0x105 PUSH2 0x1B3 CALLDATASIZE PUSH1 0x4 PUSH2 0xB4A JUMP JUMPDEST PUSH2 0x474 JUMP JUMPDEST PUSH2 0x105 PUSH2 0x1C6 CALLDATASIZE PUSH1 0x4 PUSH2 0xB4A JUMP JUMPDEST PUSH2 0x4DC JUMP JUMPDEST PUSH2 0x11A PUSH2 0x1D9 CALLDATASIZE PUSH1 0x4 PUSH2 0xADD JUMP JUMPDEST PUSH2 0x4F0 JUMP JUMPDEST PUSH1 0x3 DUP1 SLOAD PUSH1 0x40 DUP1 MLOAD PUSH1 0x20 PUSH1 0x1F PUSH1 0x2 PUSH1 0x0 NOT PUSH2 0x100 PUSH1 0x1 DUP9 AND ISZERO MUL ADD SWAP1 SWAP6 AND SWAP5 SWAP1 SWAP5 DIV SWAP4 DUP5 ADD DUP2 SWAP1 DIV DUP2 MUL DUP3 ADD DUP2 ADD SWAP1 SWAP3 MSTORE DUP3 DUP2 MSTORE PUSH1 0x60 SWAP4 SWAP1 SWAP3 SWAP1 SWAP2 DUP4 ADD DUP3 DUP3 DUP1 ISZERO PUSH2 0x26A JUMPI DUP1 PUSH1 0x1F LT PUSH2 0x23F JUMPI PUSH2 0x100 DUP1 DUP4 SLOAD DIV MUL DUP4 MSTORE SWAP2 PUSH1 0x20 ADD SWAP2 PUSH2 0x26A JUMP JUMPDEST DUP3 ADD SWAP2 SWAP1 PUSH1 0x0 MSTORE PUSH1 0x20 PUSH1 0x0 KECCAK256 SWAP1 JUMPDEST DUP2 SLOAD DUP2 MSTORE SWAP1 PUSH1 0x1 ADD SWAP1 PUSH1 0x20 ADD DUP1 DUP4 GT PUSH2 0x24D JUMPI DUP3 SWAP1 SUB PUSH1 0x1F AND DUP3 ADD SWAP2 JUMPDEST POP POP POP POP POP SWAP1 POP SWAP1 JUMP JUMPDEST PUSH1 0x0 PUSH2 0x288 PUSH2 0x281 PUSH2 0x51B JUMP JUMPDEST DUP5 DUP5 PUSH2 0x51F JUMP JUMPDEST POP PUSH1 0x1 SWAP3 SWAP2 POP POP JUMP JUMPDEST PUSH1 0x2 SLOAD SWAP1 JUMP JUMPDEST PUSH1 0x0 PUSH2 0x2A4 DUP5 DUP5 DUP5 PUSH2 0x60B JUMP JUMPDEST PUSH2 0x314 DUP5 PUSH2 0x2B0 PUSH2 0x51B JUMP JUMPDEST PUSH2 0x30F DUP6 PUSH1 0x40 MLOAD DUP1 PUSH1 0x60 ADD PUSH1 0x40 MSTORE DUP1 PUSH1 0x28 DUP2 MSTORE PUSH1 0x20 ADD PUSH2 0xC9C PUSH1 0x28 SWAP2 CODECOPY PUSH1 0x1 PUSH1 0x1 PUSH1 0xA0 SHL SUB DUP11 AND PUSH1 0x0 SWAP1 DUP2 MSTORE PUSH1 0x1 PUSH1 0x20 MSTORE PUSH1 0x40 DUP2 KECCAK256 SWAP1 PUSH2 0x2EE PUSH2 0x51B JUMP JUMPDEST PUSH1 0x1 PUSH1 0x1 PUSH1 0xA0 SHL SUB AND DUP2 MSTORE PUSH1 0x20 DUP2 ADD SWAP2 SWAP1 SWAP2 MSTORE PUSH1 0x40 ADD PUSH1 0x0 KECCAK256 SLOAD SWAP2 SWAP1 PUSH2 0x766 JUMP JUMPDEST PUSH2 0x51F JUMP JUMPDEST POP PUSH1 0x1 SWAP4 SWAP3 POP POP POP JUMP JUMPDEST PUSH1 0x5 SLOAD PUSH1 0xFF AND SWAP1 JUMP JUMPDEST PUSH1 0x0 PUSH2 0x288 PUSH2 0x334 PUSH2 0x51B JUMP JUMPDEST DUP5 PUSH2 0x30F DUP6 PUSH1 0x1 PUSH1 0x0 PUSH2 0x345 PUSH2 0x51B JUMP JUMPDEST PUSH1 0x1 PUSH1 0x1 PUSH1 0xA0 SHL SUB SWAP1 DUP2 AND DUP3 MSTORE PUSH1 0x20 DUP1 DUP4 ADD SWAP4 SWAP1 SWAP4 MSTORE PUSH1 0x40 SWAP2 DUP3 ADD PUSH1 0x0 SWAP1 DUP2 KECCAK256 SWAP2 DUP13 AND DUP2 MSTORE SWAP3 MSTORE SWAP1 KECCAK256 SLOAD SWAP1 PUSH2 0x7FD JUMP JUMPDEST PUSH1 0x5 SLOAD PUSH2 0x100 SWAP1 DIV PUSH1 0x1 PUSH1 0x1 PUSH1 0xA0 SHL SUB AND CALLER EQ PUSH2 0x3AD JUMPI PUSH1 0x40 MLOAD PUSH3 0x461BCD PUSH1 0xE5 SHL DUP2 MSTORE PUSH1 0x4 ADD PUSH2 0x3A4 SWAP1 PUSH2 0xBD1 JUMP JUMPDEST PUSH1 0x40 MLOAD DUP1 SWAP2 SUB SWAP1 REVERT JUMPDEST PUSH2 0x3B7 DUP3 DUP3 PUSH2 0x85E JUMP JUMPDEST POP POP JUMP JUMPDEST PUSH1 0x1 PUSH1 0x1 PUSH1 0xA0 SHL SUB DUP2 AND PUSH1 0x0 SWAP1 DUP2 MSTORE PUSH1 0x20 DUP2 SWAP1 MSTORE PUSH1 0x40 SWAP1 KECCAK256 SLOAD JUMPDEST SWAP2 SWAP1 POP JUMP JUMPDEST PUSH1 0x4 DUP1 SLOAD PUSH1 0x40 DUP1 MLOAD PUSH1 0x20 PUSH1 0x1F PUSH1 0x2 PUSH1 0x0 NOT PUSH2 0x100 PUSH1 0x1 DUP9 AND ISZERO MUL ADD SWAP1 SWAP6 AND SWAP5 SWAP1 SWAP5 DIV SWAP4 DUP5 ADD DUP2 SWAP1 DIV DUP2 MUL DUP3 ADD DUP2 ADD SWAP1 SWAP3 MSTORE DUP3 DUP2 MSTORE PUSH1 0x60 SWAP4 SWAP1 SWAP3 SWAP1 SWAP2 DUP4 ADD DUP3 DUP3 DUP1 ISZERO PUSH2 0x26A JUMPI DUP1 PUSH1 0x1F LT PUSH2 0x23F JUMPI PUSH2 0x100 DUP1 DUP4 SLOAD DIV MUL DUP4 MSTORE SWAP2 PUSH1 0x20 ADD SWAP2 PUSH2 0x26A JUMP JUMPDEST PUSH1 0x5 SLOAD PUSH2 0x100 SWAP1 DIV PUSH1 0x1 PUSH1 0x1 PUSH1 0xA0 SHL SUB AND CALLER EQ PUSH2 0x46A JUMPI PUSH1 0x40 MLOAD PUSH3 0x461BCD PUSH1 0xE5 SHL DUP2 MSTORE PUSH1 0x4 ADD PUSH2 0x3A4 SWAP1 PUSH2 0xBD1 JUMP JUMPDEST PUSH2 0x3B7 DUP3 DUP3 PUSH2 0x94E JUMP JUMPDEST PUSH1 0x0 PUSH2 0x288 PUSH2 0x481 PUSH2 0x51B JUMP JUMPDEST DUP5 PUSH2 0x30F DUP6 PUSH1 0x40 MLOAD DUP1 PUSH1 0x60 ADD PUSH1 0x40 MSTORE DUP1 PUSH1 0x25 DUP2 MSTORE PUSH1 0x20 ADD PUSH2 0xD2E PUSH1 0x25 SWAP2 CODECOPY PUSH1 0x1 PUSH1 0x0 PUSH2 0x4AB PUSH2 0x51B JUMP JUMPDEST PUSH1 0x1 PUSH1 0x1 PUSH1 0xA0 SHL SUB SWAP1 DUP2 AND DUP3 MSTORE PUSH1 0x20 DUP1 DUP4 ADD SWAP4 SWAP1 SWAP4 MSTORE PUSH1 0x40 SWAP2 DUP3 ADD PUSH1 0x0 SWAP1 DUP2 KECCAK256 SWAP2 DUP14 AND DUP2 MSTORE SWAP3 MSTORE SWAP1 KECCAK256 SLOAD SWAP2 SWAP1 PUSH2 0x766 JUMP JUMPDEST PUSH1 0x0 PUSH2 0x288 PUSH2 0x4E9 PUSH2 0x51B JUMP JUMPDEST DUP5 DUP5 PUSH2 0x60B JUMP JUMPDEST PUSH1 0x1 PUSH1 0x1 PUSH1 0xA0 SHL SUB SWAP2 DUP3 AND PUSH1 0x0 SWAP1 DUP2 MSTORE PUSH1 0x1 PUSH1 0x20 SWAP1 DUP2 MSTORE PUSH1 0x40 DUP1 DUP4 KECCAK256 SWAP4 SWAP1 SWAP5 AND DUP3 MSTORE SWAP2 SWAP1 SWAP2 MSTORE KECCAK256 SLOAD SWAP1 JUMP JUMPDEST CALLER SWAP1 JUMP JUMPDEST PUSH1 0x1 PUSH1 0x1 PUSH1 0xA0 SHL SUB DUP4 AND PUSH2 0x564 JUMPI PUSH1 0x40 MLOAD PUSH3 0x461BCD PUSH1 0xE5 SHL DUP2 MSTORE PUSH1 0x4 ADD DUP1 DUP1 PUSH1 0x20 ADD DUP3 DUP2 SUB DUP3 MSTORE PUSH1 0x24 DUP2 MSTORE PUSH1 0x20 ADD DUP1 PUSH2 0xD0A PUSH1 0x24 SWAP2 CODECOPY PUSH1 0x40 ADD SWAP2 POP POP PUSH1 0x40 MLOAD DUP1 SWAP2 SUB SWAP1 REVERT JUMPDEST PUSH1 0x1 PUSH1 0x1 PUSH1 0xA0 SHL SUB DUP3 AND PUSH2 0x5A9 JUMPI PUSH1 0x40 MLOAD PUSH3 0x461BCD PUSH1 0xE5 SHL DUP2 MSTORE PUSH1 0x4 ADD DUP1 DUP1 PUSH1 0x20 ADD DUP3 DUP2 SUB DUP3 MSTORE PUSH1 0x22 DUP2 MSTORE PUSH1 0x20 ADD DUP1 PUSH2 0xC54 PUSH1 0x22 SWAP2 CODECOPY PUSH1 0x40 ADD SWAP2 POP POP PUSH1 0x40 MLOAD DUP1 SWAP2 SUB SWAP1 REVERT JUMPDEST PUSH1 0x1 PUSH1 0x1 PUSH1 0xA0 SHL SUB DUP1 DUP5 AND PUSH1 0x0 DUP2 DUP2 MSTORE PUSH1 0x1 PUSH1 0x20 SWAP1 DUP2 MSTORE PUSH1 0x40 DUP1 DUP4 KECCAK256 SWAP5 DUP8 AND DUP1 DUP5 MSTORE SWAP5 DUP3 MSTORE SWAP2 DUP3 SWAP1 KECCAK256 DUP6 SWAP1 SSTORE DUP2 MLOAD DUP6 DUP2 MSTORE SWAP2 MLOAD PUSH32 0x8C5BE1E5EBEC7D5BD14F71427D1E84F3DD0314C0F7B2291E5B200AC8C7C3B925 SWAP3 DUP2 SWAP1 SUB SWAP1 SWAP2 ADD SWAP1 LOG3 POP POP POP JUMP JUMPDEST PUSH1 0x1 PUSH1 0x1 PUSH1 0xA0 SHL SUB DUP4 AND PUSH2 0x650 JUMPI PUSH1 0x40 MLOAD PUSH3 0x461BCD PUSH1 0xE5 SHL DUP2 MSTORE PUSH1 0x4 ADD DUP1 DUP1 PUSH1 0x20 ADD DUP3 DUP2 SUB DUP3 MSTORE PUSH1 0x25 DUP2 MSTORE PUSH1 0x20 ADD DUP1 PUSH2 0xCE5 PUSH1 0x25 SWAP2 CODECOPY PUSH1 0x40 ADD SWAP2 POP POP PUSH1 0x40 MLOAD DUP1 SWAP2 SUB SWAP1 REVERT JUMPDEST PUSH1 0x1 PUSH1 0x1 PUSH1 0xA0 SHL SUB DUP3 AND PUSH2 0x695 JUMPI PUSH1 0x40 MLOAD PUSH3 0x461BCD PUSH1 0xE5 SHL DUP2 MSTORE PUSH1 0x4 ADD DUP1 DUP1 PUSH1 0x20 ADD DUP3 DUP2 SUB DUP3 MSTORE PUSH1 0x23 DUP2 MSTORE PUSH1 0x20 ADD DUP1 PUSH2 0xC0F PUSH1 0x23 SWAP2 CODECOPY PUSH1 0x40 ADD SWAP2 POP POP PUSH1 0x40 MLOAD DUP1 SWAP2 SUB SWAP1 REVERT JUMPDEST PUSH2 0x6A0 DUP4 DUP4 DUP4 PUSH2 0xA4A JUMP JUMPDEST PUSH2 0x6DD DUP2 PUSH1 0x40 MLOAD DUP1 PUSH1 0x60 ADD PUSH1 0x40 MSTORE DUP1 PUSH1 0x26 DUP2 MSTORE PUSH1 0x20 ADD PUSH2 0xC76 PUSH1 0x26 SWAP2 CODECOPY PUSH1 0x1 PUSH1 0x1 PUSH1 0xA0 SHL SUB DUP7 AND PUSH1 0x0 SWAP1 DUP2 MSTORE PUSH1 0x20 DUP2 SWAP1 MSTORE PUSH1 0x40 SWAP1 KECCAK256 SLOAD SWAP2 SWAP1 PUSH2 0x766 JUMP JUMPDEST PUSH1 0x1 PUSH1 0x1 PUSH1 0xA0 SHL SUB DUP1 DUP6 AND PUSH1 0x0 SWAP1 DUP2 MSTORE PUSH1 0x20 DUP2 SWAP1 MSTORE PUSH1 0x40 DUP1 DUP3 KECCAK256 SWAP4 SWAP1 SWAP4 SSTORE SWAP1 DUP5 AND DUP2 MSTORE KECCAK256 SLOAD PUSH2 0x70C SWAP1 DUP3 PUSH2 0x7FD JUMP JUMPDEST PUSH1 0x1 PUSH1 0x1 PUSH1 0xA0 SHL SUB DUP1 DUP5 AND PUSH1 0x0 DUP2 DUP2 MSTORE PUSH1 0x20 DUP2 DUP2 MSTORE PUSH1 0x40 SWAP2 DUP3 SWAP1 KECCAK256 SWAP5 SWAP1 SWAP5 SSTORE DUP1 MLOAD DUP6 DUP2 MSTORE SWAP1 MLOAD SWAP2 SWAP4 SWAP3 DUP8 AND SWAP3 PUSH32 0xDDF252AD1BE2C89B69C2B068FC378DAA952BA7F163C4A11628F55A4DF523B3EF SWAP3 SWAP2 DUP3 SWAP1 SUB ADD SWAP1 LOG3 POP POP POP JUMP JUMPDEST PUSH1 0x0 DUP2 DUP5 DUP5 GT ISZERO PUSH2 0x7F5 JUMPI PUSH1 0x40 MLOAD PUSH3 0x461BCD PUSH1 0xE5 SHL DUP2 MSTORE PUSH1 0x4 ADD DUP1 DUP1 PUSH1 0x20 ADD DUP3 DUP2 SUB DUP3 MSTORE DUP4 DUP2 DUP2 MLOAD DUP2 MSTORE PUSH1 0x20 ADD SWAP2 POP DUP1 MLOAD SWAP1 PUSH1 0x20 ADD SWAP1 DUP1 DUP4 DUP4 PUSH1 0x0 JUMPDEST DUP4 DUP2 LT ISZERO PUSH2 0x7BA JUMPI DUP2 DUP2 ADD MLOAD DUP4 DUP3 ADD MSTORE PUSH1 0x20 ADD PUSH2 0x7A2 JUMP JUMPDEST POP POP POP POP SWAP1 POP SWAP1 DUP2 ADD SWAP1 PUSH1 0x1F AND DUP1 ISZERO PUSH2 0x7E7 JUMPI DUP1 DUP3 SUB DUP1 MLOAD PUSH1 0x1 DUP4 PUSH1 0x20 SUB PUSH2 0x100 EXP SUB NOT AND DUP2 MSTORE PUSH1 0x20 ADD SWAP2 POP JUMPDEST POP SWAP3 POP POP POP PUSH1 0x40 MLOAD DUP1 SWAP2 SUB SWAP1 REVERT JUMPDEST POP POP POP SWAP1 SUB SWAP1 JUMP JUMPDEST PUSH1 0x0 DUP3 DUP3 ADD DUP4 DUP2 LT ISZERO PUSH2 0x857 JUMPI PUSH1 0x40 DUP1 MLOAD PUSH3 0x461BCD PUSH1 0xE5 SHL DUP2 MSTORE PUSH1 0x20 PUSH1 0x4 DUP3 ADD MSTORE PUSH1 0x1B PUSH1 0x24 DUP3 ADD MSTORE PUSH32 0x536166654D6174683A206164646974696F6E206F766572666C6F770000000000 PUSH1 0x44 DUP3 ADD MSTORE SWAP1 MLOAD SWAP1 DUP2 SWAP1 SUB PUSH1 0x64 ADD SWAP1 REVERT JUMPDEST SWAP4 SWAP3 POP POP POP JUMP JUMPDEST PUSH1 0x1 PUSH1 0x1 PUSH1 0xA0 SHL SUB DUP3 AND PUSH2 0x8B9 JUMPI PUSH1 0x40 DUP1 MLOAD PUSH3 0x461BCD PUSH1 0xE5 SHL DUP2 MSTORE PUSH1 0x20 PUSH1 0x4 DUP3 ADD MSTORE PUSH1 0x1F PUSH1 0x24 DUP3 ADD MSTORE PUSH32 0x45524332303A206D696E7420746F20746865207A65726F206164647265737300 PUSH1 0x44 DUP3 ADD MSTORE SWAP1 MLOAD SWAP1 DUP2 SWAP1 SUB PUSH1 0x64 ADD SWAP1 REVERT JUMPDEST PUSH2 0x8C5 PUSH1 0x0 DUP4 DUP4 PUSH2 0xA4A JUMP JUMPDEST PUSH1 0x2 SLOAD PUSH2 0x8D2 SWAP1 DUP3 PUSH2 0x7FD JUMP JUMPDEST PUSH1 0x2 SSTORE PUSH1 0x1 PUSH1 0x1 PUSH1 0xA0 SHL SUB DUP3 AND PUSH1 0x0 SWAP1 DUP2 MSTORE PUSH1 0x20 DUP2 SWAP1 MSTORE PUSH1 0x40 SWAP1 KECCAK256 SLOAD PUSH2 0x8F8 SWAP1 DUP3 PUSH2 0x7FD JUMP JUMPDEST PUSH1 0x1 PUSH1 0x1 PUSH1 0xA0 SHL SUB DUP4 AND PUSH1 0x0 DUP2 DUP2 MSTORE PUSH1 0x20 DUP2 DUP2 MSTORE PUSH1 0x40 DUP1 DUP4 KECCAK256 SWAP5 SWAP1 SWAP5 SSTORE DUP4 MLOAD DUP6 DUP2 MSTORE SWAP4 MLOAD SWAP3 SWAP4 SWAP2 SWAP3 PUSH32 0xDDF252AD1BE2C89B69C2B068FC378DAA952BA7F163C4A11628F55A4DF523B3EF SWAP3 DUP2 SWAP1 SUB SWAP1 SWAP2 ADD SWAP1 LOG3 POP POP JUMP JUMPDEST PUSH1 0x1 PUSH1 0x1 PUSH1 0xA0 SHL SUB DUP3 AND PUSH2 0x993 JUMPI PUSH1 0x40 MLOAD PUSH3 0x461BCD PUSH1 0xE5 SHL DUP2 MSTORE PUSH1 0x4 ADD DUP1 DUP1 PUSH1 0x20 ADD DUP3 DUP2 SUB DUP3 MSTORE PUSH1 0x21 DUP2 MSTORE PUSH1 0x20 ADD DUP1 PUSH2 0xCC4 PUSH1 0x21 SWAP2 CODECOPY PUSH1 0x40 ADD SWAP2 POP POP PUSH1 0x40 MLOAD DUP1 SWAP2 SUB SWAP1 REVERT JUMPDEST PUSH2 0x99F DUP3 PUSH1 0x0 DUP4 PUSH2 0xA4A JUMP JUMPDEST PUSH2 0x9DC DUP2 PUSH1 0x40 MLOAD DUP1 PUSH1 0x60 ADD PUSH1 0x40 MSTORE DUP1 PUSH1 0x22 DUP2 MSTORE PUSH1 0x20 ADD PUSH2 0xC32 PUSH1 0x22 SWAP2 CODECOPY PUSH1 0x1 PUSH1 0x1 PUSH1 0xA0 SHL SUB DUP6 AND PUSH1 0x0 SWAP1 DUP2 MSTORE PUSH1 0x20 DUP2 SWAP1 MSTORE PUSH1 0x40 SWAP1 KECCAK256 SLOAD SWAP2 SWAP1 PUSH2 0x766 JUMP JUMPDEST PUSH1 0x1 PUSH1 0x1 PUSH1 0xA0 SHL SUB DUP4 AND PUSH1 0x0 SWAP1 DUP2 MSTORE PUSH1 0x20 DUP2 SWAP1 MSTORE PUSH1 0x40 SWAP1 KECCAK256 SSTORE PUSH1 0x2 SLOAD PUSH2 0xA02 SWAP1 DUP3 PUSH2 0xA4F JUMP JUMPDEST PUSH1 0x2 SSTORE PUSH1 0x40 DUP1 MLOAD DUP3 DUP2 MSTORE SWAP1 MLOAD PUSH1 0x0 SWAP2 PUSH1 0x1 PUSH1 0x1 PUSH1 0xA0 SHL SUB DUP6 AND SWAP2 PUSH32 0xDDF252AD1BE2C89B69C2B068FC378DAA952BA7F163C4A11628F55A4DF523B3EF SWAP2 DUP2 SWAP1 SUB PUSH1 0x20 ADD SWAP1 LOG3 POP POP JUMP JUMPDEST POP POP POP JUMP JUMPDEST PUSH1 0x0 DUP3 DUP3 GT ISZERO PUSH2 0xAA6 JUMPI PUSH1 0x40 DUP1 MLOAD PUSH3 0x461BCD PUSH1 0xE5 SHL DUP2 MSTORE PUSH1 0x20 PUSH1 0x4 DUP3 ADD MSTORE PUSH1 0x1E PUSH1 0x24 DUP3 ADD MSTORE PUSH32 0x536166654D6174683A207375627472616374696F6E206F766572666C6F770000 PUSH1 0x44 DUP3 ADD MSTORE SWAP1 MLOAD SWAP1 DUP2 SWAP1 SUB PUSH1 0x64 ADD SWAP1 REVERT JUMPDEST POP SWAP1 SUB SWAP1 JUMP JUMPDEST DUP1 CALLDATALOAD PUSH1 0x1 PUSH1 0x1 PUSH1 0xA0 SHL SUB DUP2 AND DUP2 EQ PUSH2 0x3D5 JUMPI PUSH1 0x0 DUP1 REVERT JUMPDEST PUSH1 0x0 PUSH1 0x20 DUP3 DUP5 SUB SLT ISZERO PUSH2 0xAD4 JUMPI DUP1 DUP2 REVERT JUMPDEST PUSH2 0x857 DUP3 PUSH2 0xAAC JUMP JUMPDEST PUSH1 0x0 DUP1 PUSH1 0x40 DUP4 DUP6 SUB SLT ISZERO PUSH2 0xAEF JUMPI DUP1 DUP2 REVERT JUMPDEST PUSH2 0xAF8 DUP4 PUSH2 0xAAC JUMP JUMPDEST SWAP2 POP PUSH2 0xB06 PUSH1 0x20 DUP5 ADD PUSH2 0xAAC JUMP JUMPDEST SWAP1 POP SWAP3 POP SWAP3 SWAP1 POP JUMP JUMPDEST PUSH1 0x0 DUP1 PUSH1 0x0 PUSH1 0x60 DUP5 DUP7 SUB SLT ISZERO PUSH2 0xB23 JUMPI DUP1 DUP2 REVERT JUMPDEST PUSH2 0xB2C DUP5 PUSH2 0xAAC JUMP JUMPDEST SWAP3 POP PUSH2 0xB3A PUSH1 0x20 DUP6 ADD PUSH2 0xAAC JUMP JUMPDEST SWAP2 POP PUSH1 0x40 DUP5 ADD CALLDATALOAD SWAP1 POP SWAP3 POP SWAP3 POP SWAP3 JUMP JUMPDEST PUSH1 0x0 DUP1 PUSH1 0x40 DUP4 DUP6 SUB SLT ISZERO PUSH2 0xB5C JUMPI DUP2 DUP3 REVERT JUMPDEST PUSH2 0xB65 DUP4 PUSH2 0xAAC JUMP JUMPDEST SWAP5 PUSH1 0x20 SWAP4 SWAP1 SWAP4 ADD CALLDATALOAD SWAP4 POP POP POP JUMP JUMPDEST SWAP1 ISZERO ISZERO DUP2 MSTORE PUSH1 0x20 ADD SWAP1 JUMP JUMPDEST PUSH1 0x0 PUSH1 0x20 DUP1 DUP4 MSTORE DUP4 MLOAD DUP1 DUP3 DUP6 ADD MSTORE DUP3 JUMPDEST DUP2 DUP2 LT ISZERO PUSH2 0xBAA JUMPI DUP6 DUP2 ADD DUP4 ADD MLOAD DUP6 DUP3 ADD PUSH1 0x40 ADD MSTORE DUP3 ADD PUSH2 0xB8E JUMP JUMPDEST DUP2 DUP2 GT ISZERO PUSH2 0xBBB JUMPI DUP4 PUSH1 0x40 DUP4 DUP8 ADD ADD MSTORE JUMPDEST POP PUSH1 0x1F ADD PUSH1 0x1F NOT AND SWAP3 SWAP1 SWAP3 ADD PUSH1 0x40 ADD SWAP4 SWAP3 POP POP POP JUMP JUMPDEST PUSH1 0x20 DUP1 DUP3 MSTORE PUSH1 0xC SWAP1 DUP3 ADD MSTORE PUSH12 0x1D5B985D5D1A1BDC9A5E9959 PUSH1 0xA2 SHL PUSH1 0x40 DUP3 ADD MSTORE PUSH1 0x60 ADD SWAP1 JUMP JUMPDEST SWAP1 DUP2 MSTORE PUSH1 0x20 ADD SWAP1 JUMP JUMPDEST PUSH1 0xFF SWAP2 SWAP1 SWAP2 AND DUP2 MSTORE PUSH1 0x20 ADD SWAP1 JUMP INVALID GASLIMIT MSTORE NUMBER ORIGIN ADDRESS GASPRICE KECCAK256 PUSH21 0x72616E7366657220746F20746865207A65726F2061 PUSH5 0x6472657373 GASLIMIT MSTORE NUMBER ORIGIN ADDRESS GASPRICE KECCAK256 PUSH3 0x75726E KECCAK256 PUSH2 0x6D6F PUSH22 0x6E7420657863656564732062616C616E636545524332 ADDRESS GASPRICE KECCAK256 PUSH2 0x7070 PUSH19 0x6F766520746F20746865207A65726F20616464 PUSH19 0x65737345524332303A207472616E7366657220 PUSH2 0x6D6F PUSH22 0x6E7420657863656564732062616C616E636545524332 ADDRESS GASPRICE KECCAK256 PUSH21 0x72616E7366657220616D6F756E7420657863656564 PUSH20 0x20616C6C6F77616E636545524332303A20627572 PUSH15 0x2066726F6D20746865207A65726F20 PUSH2 0x6464 PUSH19 0x65737345524332303A207472616E7366657220 PUSH7 0x726F6D20746865 KECCAK256 PUSH27 0x65726F206164647265737345524332303A20617070726F76652066 PUSH19 0x6F6D20746865207A65726F2061646472657373 GASLIMIT MSTORE NUMBER ORIGIN ADDRESS GASPRICE KECCAK256 PUSH5 0x6563726561 PUSH20 0x656420616C6C6F77616E63652062656C6F77207A PUSH6 0x726FA2646970 PUSH7 0x73582212201091 PUSH32 0x19130C4DA6E8A834E11BB4F7343C875A413C0836C49B5ED9A098756A5464736F PUSH13 0x634300070600335265656E7472 PUSH2 0x6E63 PUSH26 0x47756172643A207265656E7472616E742063616C6C0041646472 PUSH6 0x73733A20696E PUSH20 0x756666696369656E742062616C616E636520666F PUSH19 0x2063616C6C536166654D6174683A206D756C74 PUSH10 0x706C69636174696F6E20 PUSH16 0x766572666C6F77536166654552433230 GASPRICE KECCAK256 GASLIMIT MSTORE NUMBER ORIGIN ADDRESS KECCAK256 PUSH16 0x7065726174696F6E20646964206E6F74 KECCAK256 PUSH20 0x7563636565645361666545524332303A20617070 PUSH19 0x6F76652066726F6D206E6F6E2D7A65726F2074 PUSH16 0x206E6F6E2D7A65726F20616C6C6F7761 PUSH15 0x6365A2646970667358221220BC344E 0xC6 SAR MUL SGT SWAP16 SELFBALANCE PUSH9 0x6FC0C908EC70B8F44B REVERT 0xDF ADD 0xEA 0x2D SWAP13 0xC5 0xED DUP14 RETURNDATASIZE 0xDA PUSH2 0x1C64 PUSH20 0x6F6C63430007060033416464726573733A20696E PUSH20 0x756666696369656E742062616C616E636520666F PUSH19 0x2063616C6C5361666545524332303A20455243 ORIGIN ADDRESS KECCAK256 PUSH16 0x7065726174696F6E20646964206E6F74 KECCAK256 PUSH20 0x7563636565645361666545524332303A20617070 PUSH19 0x6F76652066726F6D206E6F6E2D7A65726F2074 PUSH16 0x206E6F6E2D7A65726F20616C6C6F7761 PUSH15 0x636500000000000000000000000000 "
		},
		"gasEstimates": {
			"creation": {
				"codeDepositCost": "3632800",
				"executionCost": "infinite",
				"totalCost": "infinite"
			},
			"external": {
				"addPool(address,uint32,uint32,uint32,uint256[],string,string)": "infinite",
				"admin()": "1158",
				"adminWithdraw(uint256,uint256)": "infinite",
				"claimAdmin()": "45765",
				"deposit(uint256,uint256,bool)": "infinite",
				"emergencyWithdraw(uint256)": "infinite",
				"getPoolInfo(uint256)": "infinite",
				"getRewardTokens()": "infinite",
				"getUserInfo(uint256,address)": "infinite",
				"harvest(uint256)": "infinite",
				"harvestMultiplePools(uint256[])": "infinite",
				"multipliers(uint256)": "2107",
				"pendingAdmin()": "1160",
				"pendingRewards(uint256,address)": "infinite",
				"poolExists(address)": "1332",
				"poolLength()": "1052",
				"renewPool(uint256,uint32,uint32,uint32,uint256[])": "infinite",
				"rewardLocker()": "infinite",
				"rewardTokens(uint256)": "2083",
				"transferAdmin(address)": "23235",
				"transferAdminQuickly(address)": "25308",
				"updatePool(uint256,uint32,uint32,uint256[])": "infinite",
				"updatePoolRewards(uint256)": "infinite",
				"withdraw(uint256,uint256)": "infinite",
				"withdrawAll(uint256)": "infinite"
			},
			"internal": {
				"_getBlockTime()": "14",
				"_isSameVestingDuration(uint256[] calldata)": "infinite",
				"_lastAccountedRewardTime(uint256)": "infinite",
				"_lockReward(contract IERC20Ext,address,uint256,uint32)": "infinite",
				"_updateUserReward(address,uint256,bool)": "infinite",
				"_withdraw(uint256,uint256)": "infinite"
			}
		},
		"methodIdentifiers": {
			"addPool(address,uint32,uint32,uint32,uint256[],string,string)": "fef12687",
			"admin()": "f851a440",
			"adminWithdraw(uint256,uint256)": "d12e4ceb",
			"claimAdmin()": "77f50f97",
			"deposit(uint256,uint256,bool)": "43a0d066",
			"emergencyWithdraw(uint256)": "5312ea8e",
			"getPoolInfo(uint256)": "2f380b35",
			"getRewardTokens()": "c4f59f9b",
			"getUserInfo(uint256,address)": "1069f3b5",
			"harvest(uint256)": "ddc63262",
			"harvestMultiplePools(uint256[])": "52fd9f2f",
			"multipliers(uint256)": "ac7fc263",
			"pendingAdmin()": "26782247",
			"pendingRewards(uint256,address)": "d18df53c",
			"poolExists(address)": "1e1c6a07",
			"poolLength()": "081e3eda",
			"renewPool(uint256,uint32,uint32,uint32,uint256[])": "c401fb4f",
			"rewardLocker()": "3892601c",
			"rewardTokens(uint256)": "7bb7bed1",
			"transferAdmin(address)": "75829def",
			"transferAdminQuickly(address)": "7acc8678",
			"updatePool(uint256,uint32,uint32,uint256[])": "a3a19dfb",
			"updatePoolRewards(uint256)": "adb82b31",
			"withdraw(uint256,uint256)": "441a3e70",
			"withdrawAll(uint256)": "958e2d31"
		}
	},
	"abi": [
		{
			"inputs": [
				{
					"internalType": "address",
					"name": "_admin",
					"type": "address"
				},
				{
					"internalType": "address[]",
					"name": "_rewardTokens",
					"type": "address[]"
				},
				{
					"internalType": "contract IKyberRewardLockerV2",
					"name": "_rewardLocker",
					"type": "address"
				}
			],
			"stateMutability": "nonpayable",
			"type": "constructor"
		},
		{
			"anonymous": false,
			"inputs": [
				{
					"indexed": true,
					"internalType": "address",
					"name": "stakeToken",
					"type": "address"
				},
				{
					"indexed": true,
					"internalType": "address",
					"name": "generatedToken",
					"type": "address"
				},
				{
					"indexed": false,
					"internalType": "uint32",
					"name": "startTime",
					"type": "uint32"
				},
				{
					"indexed": false,
					"internalType": "uint32",
					"name": "endTime",
					"type": "uint32"
				},
				{
					"indexed": false,
					"internalType": "uint32",
					"name": "vestingDuration",
					"type": "uint32"
				}
			],
			"name": "AddNewPool",
			"type": "event"
		},
		{
			"anonymous": false,
			"inputs": [
				{
					"indexed": false,
					"internalType": "address",
					"name": "newAdmin",
					"type": "address"
				},
				{
					"indexed": false,
					"internalType": "address",
					"name": "previousAdmin",
					"type": "address"
				}
			],
			"name": "AdminClaimed",
			"type": "event"
		},
		{
			"anonymous": false,
			"inputs": [
				{
					"indexed": true,
					"internalType": "address",
					"name": "user",
					"type": "address"
				},
				{
					"indexed": true,
					"internalType": "uint256",
					"name": "pid",
					"type": "uint256"
				},
				{
					"indexed": true,
					"internalType": "uint256",
					"name": "timestamp",
					"type": "uint256"
				},
				{
					"indexed": false,
					"internalType": "uint256",
					"name": "amount",
					"type": "uint256"
				}
			],
			"name": "Deposit",
			"type": "event"
		},
		{
			"anonymous": false,
			"inputs": [
				{
					"indexed": true,
					"internalType": "address",
					"name": "user",
					"type": "address"
				},
				{
					"indexed": true,
					"internalType": "uint256",
					"name": "pid",
					"type": "uint256"
				},
				{
					"indexed": true,
					"internalType": "uint256",
					"name": "timestamp",
					"type": "uint256"
				},
				{
					"indexed": false,
					"internalType": "uint256",
					"name": "amount",
					"type": "uint256"
				}
			],
			"name": "EmergencyWithdraw",
			"type": "event"
		},
		{
			"anonymous": false,
			"inputs": [
				{
					"indexed": true,
					"internalType": "address",
					"name": "user",
					"type": "address"
				},
				{
					"indexed": true,
					"internalType": "uint256",
					"name": "pid",
					"type": "uint256"
				},
				{
					"indexed": true,
					"internalType": "address",
					"name": "rewardToken",
					"type": "address"
				},
				{
					"indexed": false,
					"internalType": "uint256",
					"name": "lockedAmount",
					"type": "uint256"
				},
				{
					"indexed": false,
					"internalType": "uint256",
					"name": "timestamp",
					"type": "uint256"
				}
			],
			"name": "Harvest",
			"type": "event"
		},
		{
			"anonymous": false,
			"inputs": [
				{
					"indexed": true,
					"internalType": "uint256",
					"name": "pid",
					"type": "uint256"
				},
				{
					"indexed": true,
					"internalType": "uint32",
					"name": "startTime",
					"type": "uint32"
				},
				{
					"indexed": true,
					"internalType": "uint32",
					"name": "endTime",
					"type": "uint32"
				},
				{
					"indexed": false,
					"internalType": "uint32",
					"name": "vestingDuration",
					"type": "uint32"
				}
			],
			"name": "RenewPool",
			"type": "event"
		},
		{
			"anonymous": false,
			"inputs": [
				{
					"indexed": false,
					"internalType": "address",
					"name": "pendingAdmin",
					"type": "address"
				}
			],
			"name": "TransferAdminPending",
			"type": "event"
		},
		{
			"anonymous": false,
			"inputs": [
				{
					"indexed": true,
					"internalType": "uint256",
					"name": "pid",
					"type": "uint256"
				},
				{
					"indexed": true,
					"internalType": "uint32",
					"name": "endTime",
					"type": "uint32"
				},
				{
					"indexed": true,
					"internalType": "uint32",
					"name": "vestingDuration",
					"type": "uint32"
				}
			],
			"name": "UpdatePool",
			"type": "event"
		},
		{
			"anonymous": false,
			"inputs": [
				{
					"indexed": true,
					"internalType": "address",
					"name": "user",
					"type": "address"
				},
				{
					"indexed": true,
					"internalType": "uint256",
					"name": "pid",
					"type": "uint256"
				},
				{
					"indexed": true,
					"internalType": "uint256",
					"name": "timestamp",
					"type": "uint256"
				},
				{
					"indexed": false,
					"internalType": "uint256",
					"name": "amount",
					"type": "uint256"
				}
			],
			"name": "Withdraw",
			"type": "event"
		},
		{
			"inputs": [
				{
					"internalType": "address",
					"name": "_stakeToken",
					"type": "address"
				},
				{
					"internalType": "uint32",
					"name": "_startTime",
					"type": "uint32"
				},
				{
					"internalType": "uint32",
					"name": "_endTime",
					"type": "uint32"
				},
				{
					"internalType": "uint32",
					"name": "_vestingDuration",
					"type": "uint32"
				},
				{
					"internalType": "uint256[]",
					"name": "_totalRewards",
					"type": "uint256[]"
				},
				{
					"internalType": "string",
					"name": "_tokenName",
					"type": "string"
				},
				{
					"internalType": "string",
					"name": "_tokenSymbol",
					"type": "string"
				}
			],
			"name": "addPool",
			"outputs": [],
			"stateMutability": "nonpayable",
			"type": "function"
		},
		{
			"inputs": [],
			"name": "admin",
			"outputs": [
				{
					"internalType": "address",
					"name": "",
					"type": "address"
				}
			],
			"stateMutability": "view",
			"type": "function"
		},
		{
			"inputs": [
				{
					"internalType": "uint256",
					"name": "rewardTokenIndex",
					"type": "uint256"
				},
				{
					"internalType": "uint256",
					"name": "amount",
					"type": "uint256"
				}
			],
			"name": "adminWithdraw",
			"outputs": [],
			"stateMutability": "nonpayable",
			"type": "function"
		},
		{
			"inputs": [],
			"name": "claimAdmin",
			"outputs": [],
			"stateMutability": "nonpayable",
			"type": "function"
		},
		{
			"inputs": [
				{
					"internalType": "uint256",
					"name": "_pid",
					"type": "uint256"
				},
				{
					"internalType": "uint256",
					"name": "_amount",
					"type": "uint256"
				},
				{
					"internalType": "bool",
					"name": "_shouldHarvest",
					"type": "bool"
				}
			],
			"name": "deposit",
			"outputs": [],
			"stateMutability": "nonpayable",
			"type": "function"
		},
		{
			"inputs": [
				{
					"internalType": "uint256",
					"name": "_pid",
					"type": "uint256"
				}
			],
			"name": "emergencyWithdraw",
			"outputs": [],
			"stateMutability": "nonpayable",
			"type": "function"
		},
		{
			"inputs": [
				{
					"internalType": "uint256",
					"name": "_pid",
					"type": "uint256"
				}
			],
			"name": "getPoolInfo",
			"outputs": [
				{
					"internalType": "uint256",
					"name": "totalStake",
					"type": "uint256"
				},
				{
					"internalType": "address",
					"name": "stakeToken",
					"type": "address"
				},
				{
					"internalType": "address",
					"name": "generatedToken",
					"type": "address"
				},
				{
					"internalType": "uint32",
					"name": "startTime",
					"type": "uint32"
				},
				{
					"internalType": "uint32",
					"name": "endTime",
					"type": "uint32"
				},
				{
					"internalType": "uint32",
					"name": "lastRewardTime",
					"type": "uint32"
				},
				{
					"internalType": "uint32",
					"name": "vestingDuration",
					"type": "uint32"
				},
				{
					"internalType": "uint256[]",
					"name": "rewardPerSeconds",
					"type": "uint256[]"
				},
				{
					"internalType": "uint256[]",
					"name": "rewardMultipliers",
					"type": "uint256[]"
				},
				{
					"internalType": "uint256[]",
					"name": "accRewardPerShares",
					"type": "uint256[]"
				}
			],
			"stateMutability": "view",
			"type": "function"
		},
		{
			"inputs": [],
			"name": "getRewardTokens",
			"outputs": [
				{
					"internalType": "address[]",
					"name": "",
					"type": "address[]"
				}
			],
			"stateMutability": "view",
			"type": "function"
		},
		{
			"inputs": [
				{
					"internalType": "uint256",
					"name": "_pid",
					"type": "uint256"
				},
				{
					"internalType": "address",
					"name": "_account",
					"type": "address"
				}
			],
			"name": "getUserInfo",
			"outputs": [
				{
					"internalType": "uint256",
					"name": "amount",
					"type": "uint256"
				},
				{
					"internalType": "uint256[]",
					"name": "unclaimedRewards",
					"type": "uint256[]"
				},
				{
					"internalType": "uint256[]",
					"name": "lastRewardPerShares",
					"type": "uint256[]"
				}
			],
			"stateMutability": "view",
			"type": "function"
		},
		{
			"inputs": [
				{
					"internalType": "uint256",
					"name": "_pid",
					"type": "uint256"
				}
			],
			"name": "harvest",
			"outputs": [],
			"stateMutability": "nonpayable",
			"type": "function"
		},
		{
			"inputs": [
				{
					"internalType": "uint256[]",
					"name": "_pids",
					"type": "uint256[]"
				}
			],
			"name": "harvestMultiplePools",
			"outputs": [],
			"stateMutability": "nonpayable",
			"type": "function"
		},
		{
			"inputs": [
				{
					"internalType": "uint256",
					"name": "",
					"type": "uint256"
				}
			],
			"name": "multipliers",
			"outputs": [
				{
					"internalType": "uint256",
					"name": "",
					"type": "uint256"
				}
			],
			"stateMutability": "view",
			"type": "function"
		},
		{
			"inputs": [],
			"name": "pendingAdmin",
			"outputs": [
				{
					"internalType": "address",
					"name": "",
					"type": "address"
				}
			],
			"stateMutability": "view",
			"type": "function"
		},
		{
			"inputs": [
				{
					"internalType": "uint256",
					"name": "_pid",
					"type": "uint256"
				},
				{
					"internalType": "address",
					"name": "_user",
					"type": "address"
				}
			],
			"name": "pendingRewards",
			"outputs": [
				{
					"internalType": "uint256[]",
					"name": "rewards",
					"type": "uint256[]"
				}
			],
			"stateMutability": "view",
			"type": "function"
		},
		{
			"inputs": [
				{
					"internalType": "address",
					"name": "",
					"type": "address"
				}
			],
			"name": "poolExists",
			"outputs": [
				{
					"internalType": "bool",
					"name": "",
					"type": "bool"
				}
			],
			"stateMutability": "view",
			"type": "function"
		},
		{
			"inputs": [],
			"name": "poolLength",
			"outputs": [
				{
					"internalType": "uint256",
					"name": "",
					"type": "uint256"
				}
			],
			"stateMutability": "view",
			"type": "function"
		},
		{
			"inputs": [
				{
					"internalType": "uint256",
					"name": "_pid",
					"type": "uint256"
				},
				{
					"internalType": "uint32",
					"name": "_startTime",
					"type": "uint32"
				},
				{
					"internalType": "uint32",
					"name": "_endTime",
					"type": "uint32"
				},
				{
					"internalType": "uint32",
					"name": "_vestingDuration",
					"type": "uint32"
				},
				{
					"internalType": "uint256[]",
					"name": "_totalRewards",
					"type": "uint256[]"
				}
			],
			"name": "renewPool",
			"outputs": [],
			"stateMutability": "nonpayable",
			"type": "function"
		},
		{
			"inputs": [],
			"name": "rewardLocker",
			"outputs": [
				{
					"internalType": "contract IKyberRewardLockerV2",
					"name": "",
					"type": "address"
				}
			],
			"stateMutability": "view",
			"type": "function"
		},
		{
			"inputs": [
				{
					"internalType": "uint256",
					"name": "",
					"type": "uint256"
				}
			],
			"name": "rewardTokens",
			"outputs": [
				{
					"internalType": "address",
					"name": "",
					"type": "address"
				}
			],
			"stateMutability": "view",
			"type": "function"
		},
		{
			"inputs": [
				{
					"internalType": "address",
					"name": "newAdmin",
					"type": "address"
				}
			],
			"name": "transferAdmin",
			"outputs": [],
			"stateMutability": "nonpayable",
			"type": "function"
		},
		{
			"inputs": [
				{
					"internalType": "address",
					"name": "newAdmin",
					"type": "address"
				}
			],
			"name": "transferAdminQuickly",
			"outputs": [],
			"stateMutability": "nonpayable",
			"type": "function"
		},
		{
			"inputs": [
				{
					"internalType": "uint256",
					"name": "_pid",
					"type": "uint256"
				},
				{
					"internalType": "uint32",
					"name": "_endTime",
					"type": "uint32"
				},
				{
					"internalType": "uint32",
					"name": "_vestingDuration",
					"type": "uint32"
				},
				{
					"internalType": "uint256[]",
					"name": "_totalRewards",
					"type": "uint256[]"
				}
			],
			"name": "updatePool",
			"outputs": [],
			"stateMutability": "nonpayable",
			"type": "function"
		},
		{
			"inputs": [
				{
					"internalType": "uint256",
					"name": "_pid",
					"type": "uint256"
				}
			],
			"name": "updatePoolRewards",
			"outputs": [],
			"stateMutability": "nonpayable",
			"type": "function"
		},
		{
			"inputs": [
				{
					"internalType": "uint256",
					"name": "_pid",
					"type": "uint256"
				},
				{
					"internalType": "uint256",
					"name": "_amount",
					"type": "uint256"
				}
			],
			"name": "withdraw",
			"outputs": [],
			"stateMutability": "nonpayable",
			"type": "function"
		},
		{
			"inputs": [
				{
					"internalType": "uint256",
					"name": "_pid",
					"type": "uint256"
				}
			],
			"name": "withdrawAll",
			"outputs": [],
			"stateMutability": "nonpayable",
			"type": "function"
		},
		{
			"stateMutability": "payable",
			"type": "receive"
		}
	]
}