{
  "_format": "hh-sol-artifact-1",
  "contractName": "GeneratedToken",
  "sourceName": "contracts/liquidityMining/GeneratedToken.sol",
  "abi": [
    {
      "inputs": [
        {
          "internalType": "string",
          "name": "name_",
          "type": "string"
        },
        {
          "internalType": "string",
          "name": "symbol_",
          "type": "string"
        }
      ],
      "stateMutability": "nonpayable",
      "type": "constructor"
    },
    {
      "anonymous": false,
      "inputs": [
        {
          "indexed": true,
          "internalType": "address",
          "name": "owner",
          "type": "address"
        },
        {
          "indexed": true,
          "internalType": "address",
          "name": "spender",
          "type": "address"
        },
        {
          "indexed": false,
          "internalType": "uint256",
          "name": "value",
          "type": "uint256"
        }
      ],
      "name": "Approval",
      "type": "event"
    },
    {
      "anonymous": false,
      "inputs": [
        {
          "indexed": true,
          "internalType": "address",
          "name": "from",
          "type": "address"
        },
        {
          "indexed": true,
          "internalType": "address",
          "name": "to",
          "type": "address"
        },
        {
          "indexed": false,
          "internalType": "uint256",
          "name": "value",
          "type": "uint256"
        }
      ],
      "name": "Transfer",
      "type": "event"
    },
    {
      "inputs": [
        {
          "internalType": "address",
          "name": "owner",
          "type": "address"
        },
        {
          "internalType": "address",
          "name": "spender",
          "type": "address"
        }
      ],
      "name": "allowance",
      "outputs": [
        {
          "internalType": "uint256",
          "name": "",
          "type": "uint256"
        }
      ],
      "stateMutability": "view",
      "type": "function"
    },
    {
      "inputs": [
        {
          "internalType": "address",
          "name": "spender",
          "type": "address"
        },
        {
          "internalType": "uint256",
          "name": "amount",
          "type": "uint256"
        }
      ],
      "name": "approve",
      "outputs": [
        {
          "internalType": "bool",
          "name": "",
          "type": "bool"
        }
      ],
      "stateMutability": "nonpayable",
      "type": "function"
    },
    {
      "inputs": [
        {
          "internalType": "address",
          "name": "account",
          "type": "address"
        }
      ],
      "name": "balanceOf",
      "outputs": [
        {
          "internalType": "uint256",
          "name": "",
          "type": "uint256"
        }
      ],
      "stateMutability": "view",
      "type": "function"
    },
    {
      "inputs": [
        {
          "internalType": "address",
          "name": "account",
          "type": "address"
        },
        {
          "internalType": "uint256",
          "name": "amount",
          "type": "uint256"
        }
      ],
      "name": "burn",
      "outputs": [],
      "stateMutability": "nonpayable",
      "type": "function"
    },
    {
      "inputs": [],
      "name": "decimals",
      "outputs": [
        {
          "internalType": "uint8",
          "name": "",
          "type": "uint8"
        }
      ],
      "stateMutability": "view",
      "type": "function"
    },
    {
      "inputs": [
        {
          "internalType": "address",
          "name": "spender",
          "type": "address"
        },
        {
          "internalType": "uint256",
          "name": "subtractedValue",
          "type": "uint256"
        }
      ],
      "name": "decreaseAllowance",
      "outputs": [
        {
          "internalType": "bool",
          "name": "",
          "type": "bool"
        }
      ],
      "stateMutability": "nonpayable",
      "type": "function"
    },
    {
      "inputs": [
        {
          "internalType": "address",
          "name": "spender",
          "type": "address"
        },
        {
          "internalType": "uint256",
          "name": "addedValue",
          "type": "uint256"
        }
      ],
      "name": "increaseAllowance",
      "outputs": [
        {
          "internalType": "bool",
          "name": "",
          "type": "bool"
        }
      ],
      "stateMutability": "nonpayable",
      "type": "function"
    },
    {
      "inputs": [
        {
          "internalType": "address",
          "name": "account",
          "type": "address"
        },
        {
          "internalType": "uint256",
          "name": "amount",
          "type": "uint256"
        }
      ],
      "name": "mint",
      "outputs": [],
      "stateMutability": "nonpayable",
      "type": "function"
    },
    {
      "inputs": [],
      "name": "name",
      "outputs": [
        {
          "internalType": "string",
          "name": "",
          "type": "string"
        }
      ],
      "stateMutability": "view",
      "type": "function"
    },
    {
      "inputs": [],
      "name": "symbol",
      "outputs": [
        {
          "internalType": "string",
          "name": "",
          "type": "string"
        }
      ],
      "stateMutability": "view",
      "type": "function"
    },
    {
      "inputs": [],
      "name": "totalSupply",
      "outputs": [
        {
          "internalType": "uint256",
          "name": "",
          "type": "uint256"
        }
      ],
      "stateMutability": "view",
      "type": "function"
    },
    {
      "inputs": [
        {
          "internalType": "address",
          "name": "recipient",
          "type": "address"
        },
        {
          "internalType": "uint256",
          "name": "amount",
          "type": "uint256"
        }
      ],
      "name": "transfer",
      "outputs": [
        {
          "internalType": "bool",
          "name": "",
          "type": "bool"
        }
      ],
      "stateMutability": "nonpayable",
      "type": "function"
    },
    {
      "inputs": [
        {
          "internalType": "address",
          "name": "sender",
          "type": "address"
        },
        {
          "internalType": "address",
          "name": "recipient",
          "type": "address"
        },
        {
          "internalType": "uint256",
          "name": "amount",
          "type": "uint256"
        }
      ],
      "name": "transferFrom",
      "outputs": [
        {
          "internalType": "bool",
          "name": "",
          "type": "bool"
        }
      ],
      "stateMutability": "nonpayable",
      "type": "function"
    }
  ],
  "bytecode": "0x60806040523480156200001157600080fd5b50604051620012a6380380620012a68339810160408190526200003491620001d6565b8151829082906200004d9060039060208501906200008f565b508051620000639060049060208401906200008f565b505060058054601260ff1990911617610100600160a81b0319166101003302179055506200023d915050565b828054600181600116156101000203166002900490600052602060002090601f016020900481019282620000c7576000855562000112565b82601f10620000e257805160ff191683800117855562000112565b8280016001018555821562000112579182015b8281111562000112578251825591602001919060010190620000f5565b506200012092915062000124565b5090565b5b8082111562000120576000815560010162000125565b600082601f8301126200014c578081fd5b81516001600160401b03808211156200016157fe5b6040516020601f8401601f19168201810183811183821017156200018157fe5b604052838252858401810187101562000198578485fd5b8492505b83831015620001bb57858301810151828401820152918201916200019c565b83831115620001cc57848185840101525b5095945050505050565b60008060408385031215620001e9578182fd5b82516001600160401b038082111562000200578384fd5b6200020e868387016200013b565b9350602085015191508082111562000224578283fd5b5062000233858286016200013b565b9150509250929050565b611059806200024d6000396000f3fe608060405234801561001057600080fd5b50600436106100df5760003560e01c806340c10f191161008c5780639dc29fac116100665780639dc29fac146101a2578063a457c2d7146101b5578063a9059cbb146101c8578063dd62ed3e146101db576100df565b806340c10f191461017257806370a082311461018757806395d89b411461019a576100df565b806323b872dd116100bd57806323b872dd14610137578063313ce5671461014a578063395093511461015f576100df565b806306fdde03146100e4578063095ea7b31461010257806318160ddd14610122575b600080fd5b6100ec6101ee565b6040516100f99190610e20565b60405180910390f35b610115610110366004610dec565b6102a2565b6040516100f99190610e15565b61012a6102bf565b6040516100f99190610ec8565b610115610145366004610db1565b6102c5565b610152610366565b6040516100f99190610ed1565b61011561016d366004610dec565b61036f565b610185610180366004610dec565b6103ca565b005b61012a610195366004610d65565b610437565b6100ec610463565b6101856101b0366004610dec565b6104e2565b6101156101c3366004610dec565b610542565b6101156101d6366004610dec565b6105b7565b61012a6101e9366004610d7f565b6105cb565b60038054604080516020601f60027fffffffffffffffffffffffffffffffffffffffffffffffffffffffffffffffff6101006001881615020190951694909404938401819004810282018101909252828152606093909290918301828280156102985780601f1061026d57610100808354040283529160200191610298565b820191906000526020600020905b81548152906001019060200180831161027b57829003601f168201915b5050505050905090565b60006102b66102af610603565b8484610607565b50600192915050565b60025490565b60006102d284848461074e565b61035c846102de610603565b61035785604051806060016040528060288152602001610f6d6028913973ffffffffffffffffffffffffffffffffffffffff8a16600090815260016020526040812090610329610603565b73ffffffffffffffffffffffffffffffffffffffff168152602081019190915260400160002054919061091e565b610607565b5060019392505050565b60055460ff1690565b60006102b661037c610603565b84610357856001600061038d610603565b73ffffffffffffffffffffffffffffffffffffffff908116825260208083019390935260409182016000908120918c1681529252902054906109cf565b600554610100900473ffffffffffffffffffffffffffffffffffffffff163314610429576040517f08c379a000000000000000000000000000000000000000000000000000000000815260040161042090610e91565b60405180910390fd5b6104338282610a4a565b5050565b73ffffffffffffffffffffffffffffffffffffffff81166000908152602081905260409020545b919050565b60048054604080516020601f60027fffffffffffffffffffffffffffffffffffffffffffffffffffffffffffffffff6101006001881615020190951694909404938401819004810282018101909252828152606093909290918301828280156102985780601f1061026d57610100808354040283529160200191610298565b600554610100900473ffffffffffffffffffffffffffffffffffffffff163314610538576040517f08c379a000000000000000000000000000000000000000000000000000000000815260040161042090610e91565b6104338282610b7b565b60006102b661054f610603565b8461035785604051806060016040528060258152602001610fff6025913960016000610579610603565b73ffffffffffffffffffffffffffffffffffffffff908116825260208083019390935260409182016000908120918d1681529252902054919061091e565b60006102b66105c4610603565b848461074e565b73ffffffffffffffffffffffffffffffffffffffff918216600090815260016020908152604080832093909416825291909152205490565b3390565b73ffffffffffffffffffffffffffffffffffffffff8316610673576040517f08c379a0000000000000000000000000000000000000000000000000000000008152600401808060200182810382526024815260200180610fdb6024913960400191505060405180910390fd5b73ffffffffffffffffffffffffffffffffffffffff82166106df576040517f08c379a0000000000000000000000000000000000000000000000000000000008152600401808060200182810382526022815260200180610f256022913960400191505060405180910390fd5b73ffffffffffffffffffffffffffffffffffffffff808416600081815260016020908152604080832094871680845294825291829020859055815185815291517f8c5be1e5ebec7d5bd14f71427d1e84f3dd0314c0f7b2291e5b200ac8c7c3b9259281900390910190a3505050565b73ffffffffffffffffffffffffffffffffffffffff83166107ba576040517f08c379a0000000000000000000000000000000000000000000000000000000008152600401808060200182810382526025815260200180610fb66025913960400191505060405180910390fd5b73ffffffffffffffffffffffffffffffffffffffff8216610826576040517f08c379a0000000000000000000000000000000000000000000000000000000008152600401808060200182810382526023815260200180610ee06023913960400191505060405180910390fd5b610831838383610cc5565b61087b81604051806060016040528060268152602001610f476026913973ffffffffffffffffffffffffffffffffffffffff8616600090815260208190526040902054919061091e565b73ffffffffffffffffffffffffffffffffffffffff80851660009081526020819052604080822093909355908416815220546108b790826109cf565b73ffffffffffffffffffffffffffffffffffffffff8084166000818152602081815260409182902094909455805185815290519193928716927fddf252ad1be2c89b69c2b068fc378daa952ba7f163c4a11628f55a4df523b3ef92918290030190a3505050565b600081848411156109c7576040517f08c379a00000000000000000000000000000000000000000000000000000000081526004018080602001828103825283818151815260200191508051906020019080838360005b8381101561098c578181015183820152602001610974565b50505050905090810190601f1680156109b95780820380516001836020036101000a031916815260200191505b509250505060405180910390fd5b505050900390565b600082820183811015610a4357604080517f08c379a000000000000000000000000000000000000000000000000000000000815260206004820152601b60248201527f536166654d6174683a206164646974696f6e206f766572666c6f770000000000604482015290519081900360640190fd5b9392505050565b73ffffffffffffffffffffffffffffffffffffffff8216610acc57604080517f08c379a000000000000000000000000000000000000000000000000000000000815260206004820152601f60248201527f45524332303a206d696e7420746f20746865207a65726f206164647265737300604482015290519081900360640190fd5b610ad860008383610cc5565b600254610ae590826109cf565b60025573ffffffffffffffffffffffffffffffffffffffff8216600090815260208190526040902054610b1890826109cf565b73ffffffffffffffffffffffffffffffffffffffff83166000818152602081815260408083209490945583518581529351929391927fddf252ad1be2c89b69c2b068fc378daa952ba7f163c4a11628f55a4df523b3ef9281900390910190a35050565b73ffffffffffffffffffffffffffffffffffffffff8216610be7576040517f08c379a0000000000000000000000000000000000000000000000000000000008152600401808060200182810382526021815260200180610f956021913960400191505060405180910390fd5b610bf382600083610cc5565b610c3d81604051806060016040528060228152602001610f036022913973ffffffffffffffffffffffffffffffffffffffff8516600090815260208190526040902054919061091e565b73ffffffffffffffffffffffffffffffffffffffff8316600090815260208190526040902055600254610c709082610cca565b60025560408051828152905160009173ffffffffffffffffffffffffffffffffffffffff8516917fddf252ad1be2c89b69c2b068fc378daa952ba7f163c4a11628f55a4df523b3ef9181900360200190a35050565b505050565b600082821115610d3b57604080517f08c379a000000000000000000000000000000000000000000000000000000000815260206004820152601e60248201527f536166654d6174683a207375627472616374696f6e206f766572666c6f770000604482015290519081900360640190fd5b50900390565b803573ffffffffffffffffffffffffffffffffffffffff8116811461045e57600080fd5b600060208284031215610d76578081fd5b610a4382610d41565b60008060408385031215610d91578081fd5b610d9a83610d41565b9150610da860208401610d41565b90509250929050565b600080600060608486031215610dc5578081fd5b610dce84610d41565b9250610ddc60208501610d41565b9150604084013590509250925092565b60008060408385031215610dfe578182fd5b610e0783610d41565b946020939093013593505050565b901515815260200190565b6000602080835283518082850152825b81811015610e4c57858101830151858201604001528201610e30565b81811115610e5d5783604083870101525b50601f017fffffffffffffffffffffffffffffffffffffffffffffffffffffffffffffffe016929092016040019392505050565b6020808252600c908201527f756e617574686f72697a65640000000000000000000000000000000000000000604082015260600190565b90815260200190565b60ff9190911681526020019056fe45524332303a207472616e7366657220746f20746865207a65726f206164647265737345524332303a206275726e20616d6f756e7420657863656564732062616c616e636545524332303a20617070726f766520746f20746865207a65726f206164647265737345524332303a207472616e7366657220616d6f756e7420657863656564732062616c616e636545524332303a207472616e7366657220616d6f756e74206578636565647320616c6c6f77616e636545524332303a206275726e2066726f6d20746865207a65726f206164647265737345524332303a207472616e736665722066726f6d20746865207a65726f206164647265737345524332303a20617070726f76652066726f6d20746865207a65726f206164647265737345524332303a2064656372656173656420616c6c6f77616e63652062656c6f77207a65726fa2646970667358221220182564e4ea6b6386d8317d8d21422e5251402cbd245ff340428909ee66c7c33564736f6c63430007060033",
  "linkReferences": {},
  "deployedLinkReferences": {}
}