{
  "_format": "hh-sol-artifact-1",
  "contractName": "OrchardNetworkTokenV2",
  "sourceName": "contracts/OrchardNetworkTokenV2.sol",
  "abi": [
    {
      "anonymous": false,
      "inputs": [
        {
          "indexed": true,
          "internalType": "address",
          "name": "owner",
          "type": "address"
        },
        {
          "indexed": true,
          "internalType": "address",
          "name": "spender",
          "type": "address"
        },
        {
          "indexed": false,
          "internalType": "uint256",
          "name": "value",
          "type": "uint256"
        }
      ],
      "name": "Approval",
      "type": "event"
    },
    {
      "anonymous": false,
      "inputs": [
        {
          "indexed": true,
          "internalType": "address",
          "name": "account",
          "type": "address"
        },
        {
          "indexed": true,
          "internalType": "uint256",
          "name": "amount",
          "type": "uint256"
        }
      ],
      "name": "Migrated",
      "type": "event"
    },
    {
      "anonymous": false,
      "inputs": [
        {
          "indexed": true,
          "internalType": "address",
          "name": "account",
          "type": "address"
        },
        {
          "indexed": true,
          "internalType": "uint256",
          "name": "amount",
          "type": "uint256"
        },
        {
          "indexed": true,
          "internalType": "address",
          "name": "minter",
          "type": "address"
        }
      ],
      "name": "Minted",
      "type": "event"
    },
    {
      "anonymous": false,
      "inputs": [
        {
          "indexed": true,
          "internalType": "address",
          "name": "oldMinter",
          "type": "address"
        },
        {
          "indexed": true,
          "internalType": "address",
          "name": "newMinter",
          "type": "address"
        }
      ],
      "name": "MinterChanged",
      "type": "event"
    },
    {
      "anonymous": false,
      "inputs": [
        {
          "indexed": true,
          "internalType": "address",
          "name": "previousOwner",
          "type": "address"
        },
        {
          "indexed": true,
          "internalType": "address",
          "name": "newOwner",
          "type": "address"
        }
      ],
      "name": "OwnershipTransferred",
      "type": "event"
    },
    {
      "anonymous": false,
      "inputs": [
        {
          "indexed": true,
          "internalType": "address",
          "name": "from",
          "type": "address"
        },
        {
          "indexed": true,
          "internalType": "address",
          "name": "to",
          "type": "address"
        },
        {
          "indexed": false,
          "internalType": "uint256",
          "name": "value",
          "type": "uint256"
        }
      ],
      "name": "Transfer",
      "type": "event"
    },
    {
      "inputs": [
        {
          "internalType": "address",
          "name": "owner",
          "type": "address"
        },
        {
          "internalType": "address",
          "name": "spender",
          "type": "address"
        }
      ],
      "name": "allowance",
      "outputs": [
        {
          "internalType": "uint256",
          "name": "",
          "type": "uint256"
        }
      ],
      "stateMutability": "view",
      "type": "function"
    },
    {
      "inputs": [
        {
          "internalType": "address",
          "name": "spender",
          "type": "address"
        },
        {
          "internalType": "uint256",
          "name": "amount",
          "type": "uint256"
        }
      ],
      "name": "approve",
      "outputs": [
        {
          "internalType": "bool",
          "name": "",
          "type": "bool"
        }
      ],
      "stateMutability": "nonpayable",
      "type": "function"
    },
    {
      "inputs": [
        {
          "internalType": "address",
          "name": "account",
          "type": "address"
        }
      ],
      "name": "balanceOf",
      "outputs": [
        {
          "internalType": "uint256",
          "name": "",
          "type": "uint256"
        }
      ],
      "stateMutability": "view",
      "type": "function"
    },
    {
      "inputs": [
        {
          "internalType": "uint256",
          "name": "amount",
          "type": "uint256"
        }
      ],
      "name": "burn",
      "outputs": [],
      "stateMutability": "nonpayable",
      "type": "function"
    },
    {
      "inputs": [
        {
          "internalType": "address",
          "name": "account",
          "type": "address"
        },
        {
          "internalType": "uint256",
          "name": "amount",
          "type": "uint256"
        }
      ],
      "name": "burnFrom",
      "outputs": [],
      "stateMutability": "nonpayable",
      "type": "function"
    },
    {
      "inputs": [
        {
          "internalType": "address",
          "name": "newMinter",
          "type": "address"
        }
      ],
      "name": "changeMinter",
      "outputs": [],
      "stateMutability": "nonpayable",
      "type": "function"
    },
    {
      "inputs": [],
      "name": "decimals",
      "outputs": [
        {
          "internalType": "uint8",
          "name": "",
          "type": "uint8"
        }
      ],
      "stateMutability": "view",
      "type": "function"
    },
    {
      "inputs": [
        {
          "internalType": "address",
          "name": "spender",
          "type": "address"
        },
        {
          "internalType": "uint256",
          "name": "subtractedValue",
          "type": "uint256"
        }
      ],
      "name": "decreaseAllowance",
      "outputs": [
        {
          "internalType": "bool",
          "name": "",
          "type": "bool"
        }
      ],
      "stateMutability": "nonpayable",
      "type": "function"
    },
    {
      "inputs": [
        {
          "internalType": "contract IERC20",
          "name": "token",
          "type": "address"
        },
        {
          "internalType": "uint256",
          "name": "amount",
          "type": "uint256"
        }
      ],
      "name": "emergencyERC20Drain",
      "outputs": [],
      "stateMutability": "nonpayable",
      "type": "function"
    },
    {
      "inputs": [
        {
          "internalType": "address",
          "name": "spender",
          "type": "address"
        },
        {
          "internalType": "uint256",
          "name": "addedValue",
          "type": "uint256"
        }
      ],
      "name": "increaseAllowance",
      "outputs": [
        {
          "internalType": "bool",
          "name": "",
          "type": "bool"
        }
      ],
      "stateMutability": "nonpayable",
      "type": "function"
    },
    {
      "inputs": [
        {
          "internalType": "address",
          "name": "_oldORC",
          "type": "address"
        },
        {
          "internalType": "address",
          "name": "_minter",
          "type": "address"
        }
      ],
      "name": "initialize",
      "outputs": [],
      "stateMutability": "nonpayable",
      "type": "function"
    },
    {
      "inputs": [
        {
          "internalType": "address",
          "name": "account",
          "type": "address"
        },
        {
          "internalType": "uint256",
          "name": "amount",
          "type": "uint256"
        }
      ],
      "name": "mint",
      "outputs": [],
      "stateMutability": "nonpayable",
      "type": "function"
    },
    {
      "inputs": [
        {
          "internalType": "uint256",
          "name": "amount",
          "type": "uint256"
        }
      ],
      "name": "mintWitholdORC",
      "outputs": [],
      "stateMutability": "nonpayable",
      "type": "function"
    },
    {
      "inputs": [],
      "name": "minter",
      "outputs": [
        {
          "internalType": "address",
          "name": "",
          "type": "address"
        }
      ],
      "stateMutability": "view",
      "type": "function"
    },
    {
      "inputs": [],
      "name": "name",
      "outputs": [
        {
          "internalType": "string",
          "name": "",
          "type": "string"
        }
      ],
      "stateMutability": "view",
      "type": "function"
    },
    {
      "inputs": [],
      "name": "oldORC",
      "outputs": [
        {
          "internalType": "address",
          "name": "",
          "type": "address"
        }
      ],
      "stateMutability": "view",
      "type": "function"
    },
    {
      "inputs": [],
      "name": "owner",
      "outputs": [
        {
          "internalType": "address",
          "name": "",
          "type": "address"
        }
      ],
      "stateMutability": "view",
      "type": "function"
    },
    {
      "inputs": [],
      "name": "renounceOwnership",
      "outputs": [],
      "stateMutability": "nonpayable",
      "type": "function"
    },
    {
      "inputs": [],
      "name": "symbol",
      "outputs": [
        {
          "internalType": "string",
          "name": "",
          "type": "string"
        }
      ],
      "stateMutability": "view",
      "type": "function"
    },
    {
      "inputs": [],
      "name": "totalSupply",
      "outputs": [
        {
          "internalType": "uint256",
          "name": "",
          "type": "uint256"
        }
      ],
      "stateMutability": "view",
      "type": "function"
    },
    {
      "inputs": [
        {
          "internalType": "address",
          "name": "recipient",
          "type": "address"
        },
        {
          "internalType": "uint256",
          "name": "amount",
          "type": "uint256"
        }
      ],
      "name": "transfer",
      "outputs": [
        {
          "internalType": "bool",
          "name": "",
          "type": "bool"
        }
      ],
      "stateMutability": "nonpayable",
      "type": "function"
    },
    {
      "inputs": [
        {
          "internalType": "address",
          "name": "sender",
          "type": "address"
        },
        {
          "internalType": "address",
          "name": "recipient",
          "type": "address"
        },
        {
          "internalType": "uint256",
          "name": "amount",
          "type": "uint256"
        }
      ],
      "name": "transferFrom",
      "outputs": [
        {
          "internalType": "bool",
          "name": "",
          "type": "bool"
        }
      ],
      "stateMutability": "nonpayable",
      "type": "function"
    },
    {
      "inputs": [
        {
          "internalType": "address",
          "name": "newOwner",
          "type": "address"
        }
      ],
      "name": "transferOwnership",
      "outputs": [],
      "stateMutability": "nonpayable",
      "type": "function"
    }
  ],
  "bytecode": "0x608060405234801561001057600080fd5b5061282b806100206000396000f3fe608060405234801561001057600080fd5b506004361061018d5760003560e01c806342966c68116100e357806395d89b411161008c578063db0e16f111610066578063db0e16f114610522578063dd62ed3e1461055b578063f2fde38b146105965761018d565b806395d89b41146104a8578063a457c2d7146104b0578063a9059cbb146104e95761018d565b8063715018a6116100bd578063715018a61461045f57806379cc6790146104675780638da5cb5b146104a05761018d565b806342966c68146103d4578063485cc955146103f157806370a082311461042c5761018d565b806323b872dd11610145578063313ce5671161011f578063313ce56714610344578063395093511461036257806340c10f191461039b5761018d565b806323b872dd146102c65780632c4d4d181461030957806330bf62bd1461033c5761018d565b8063095ea7b311610176578063095ea7b31461024057806318160ddd1461028d5780631c85fc72146102a75761018d565b806306fdde0314610192578063075461721461020f575b600080fd5b61019a6105c9565b6040805160208082528351818301528351919283929083019185019080838360005b838110156101d45781810151838201526020016101bc565b50505050905090810190601f1680156102015780820380516001836020036101000a031916815260200191505b509250505060405180910390f35b61021761067e565b6040805173ffffffffffffffffffffffffffffffffffffffff9092168252519081900360200190f35b6102796004803603604081101561025657600080fd5b5073ffffffffffffffffffffffffffffffffffffffff813516906020013561069a565b604080519115158252519081900360200190f35b6102956106b7565b60408051918252519081900360200190f35b6102c4600480360360208110156102bd57600080fd5b50356106bd565b005b610279600480360360608110156102dc57600080fd5b5073ffffffffffffffffffffffffffffffffffffffff81358116916020810135909116906040013561079e565b6102c46004803603602081101561031f57600080fd5b503573ffffffffffffffffffffffffffffffffffffffff16610846565b6102176109fb565b61034c610a17565b6040805160ff9092168252519081900360200190f35b6102796004803603604081101561037857600080fd5b5073ffffffffffffffffffffffffffffffffffffffff8135169060200135610a20565b6102c4600480360360408110156103b157600080fd5b5073ffffffffffffffffffffffffffffffffffffffff8135169060200135610a81565b6102c4600480360360208110156103ea57600080fd5b5035610b60565b6102c46004803603604081101561040757600080fd5b5073ffffffffffffffffffffffffffffffffffffffff81358116916020013516610b71565b6102956004803603602081101561044257600080fd5b503573ffffffffffffffffffffffffffffffffffffffff16610e5c565b6102c4610e84565b6102c46004803603604081101561047d57600080fd5b5073ffffffffffffffffffffffffffffffffffffffff8135169060200135610f9b565b610217610ff6565b61019a611012565b610279600480360360408110156104c657600080fd5b5073ffffffffffffffffffffffffffffffffffffffff8135169060200135611091565b610279600480360360408110156104ff57600080fd5b5073ffffffffffffffffffffffffffffffffffffffff813516906020013561110c565b6102c46004803603604081101561053857600080fd5b5073ffffffffffffffffffffffffffffffffffffffff8135169060200135611120565b6102956004803603604081101561057157600080fd5b5073ffffffffffffffffffffffffffffffffffffffff813581169160200135166111fb565b6102c4600480360360208110156105ac57600080fd5b503573ffffffffffffffffffffffffffffffffffffffff16611233565b60688054604080516020601f60027fffffffffffffffffffffffffffffffffffffffffffffffffffffffffffffffff6101006001881615020190951694909404938401819004810282018101909252828152606093909290918301828280156106735780601f1061064857610100808354040283529160200191610673565b820191906000526020600020905b81548152906001019060200180831161065657829003601f168201915b505050505090505b90565b60ca5473ffffffffffffffffffffffffffffffffffffffff1681565b60006106ae6106a76113d5565b84846113d9565b50600192915050565b60675490565b60c954604080517f79cc679000000000000000000000000000000000000000000000000000000000815233600482015260248101849052905173ffffffffffffffffffffffffffffffffffffffff909216916379cc6790916044808201926020929091908290030181600087803b15801561073757600080fd5b505af115801561074b573d6000803e3d6000fd5b505050506040513d602081101561076157600080fd5b5061076e90503382611520565b604051819033907f8b80bd19aea7b735bc6d75db8d6adbe18b28c30d62b3555245eb67b2340caedc90600090a350565b60006107ab84848461165f565b61083b846107b76113d5565b610836856040518060600160405280602881526020016126f16028913973ffffffffffffffffffffffffffffffffffffffff8a166000908152606660205260408120906108026113d5565b73ffffffffffffffffffffffffffffffffffffffff168152602081019190915260400160002054919063ffffffff61183d16565b6113d9565b5060015b9392505050565b60ca5473ffffffffffffffffffffffffffffffffffffffff1633146108cc57604080517f08c379a000000000000000000000000000000000000000000000000000000000815260206004820152600b60248201527f6f6e6c79206d696e746572000000000000000000000000000000000000000000604482015290519081900360640190fd5b73ffffffffffffffffffffffffffffffffffffffff811661094e57604080517f08c379a000000000000000000000000000000000000000000000000000000000815260206004820152600e60248201527f696e76616c6964206d696e746572000000000000000000000000000000000000604482015290519081900360640190fd5b60ca5473ffffffffffffffffffffffffffffffffffffffff8281169116146109f85760ca5460405173ffffffffffffffffffffffffffffffffffffffff8084169216907f3b0007eb941cf645526cbb3a4fdaecda9d28ce4843167d9263b536a1f1edc0f690600090a360ca80547fffffffffffffffffffffffff00000000000000000000000000000000000000001673ffffffffffffffffffffffffffffffffffffffff83161790555b50565b60c95473ffffffffffffffffffffffffffffffffffffffff1681565b606a5460ff1690565b60006106ae610a2d6113d5565b846108368560666000610a3e6113d5565b73ffffffffffffffffffffffffffffffffffffffff908116825260208083019390935260409182016000908120918c16815292529020549063ffffffff6118ee16565b60ca5473ffffffffffffffffffffffffffffffffffffffff163314610b0757604080517f08c379a000000000000000000000000000000000000000000000000000000000815260206004820152600b60248201527f6f6e6c79206d696e746572000000000000000000000000000000000000000000604482015290519081900360640190fd5b610b118282611520565b60ca5460405173ffffffffffffffffffffffffffffffffffffffff918216918391908516907ffd1ba5519feb014ad2f631cbd516bd3cec96be935749391554d122972593e7bf90600090a45050565b6109f8610b6b6113d5565b82611962565b600054610100900460ff1680610b8a5750610b8a611ab8565b80610b98575060005460ff16155b610bed576040517f08c379a000000000000000000000000000000000000000000000000000000000815260040180806020018281038252602e8152602001806126c3602e913960400191505060405180910390fd5b600054610100900460ff16158015610c5357600080547fffffffffffffffffffffffffffffffffffffffffffffffffffffffffffffff007fffffffffffffffffffffffffffffffffffffffffffffffffffffffffffff00ff909116610100171660011790555b610cc76040518060400160405280600f81526020017f4f726368617264205377617020763200000000000000000000000000000000008152506040518060400160405280600381526020017f4f52430000000000000000000000000000000000000000000000000000000000815250611ac9565b610ccf611bf0565b73ffffffffffffffffffffffffffffffffffffffff8316610d5157604080517f08c379a000000000000000000000000000000000000000000000000000000000815260206004820152600f60248201527f696e76616c6964206f6c64206f72630000000000000000000000000000000000604482015290519081900360640190fd5b73ffffffffffffffffffffffffffffffffffffffff8216610dd357604080517f08c379a000000000000000000000000000000000000000000000000000000000815260206004820152600e60248201527f696e76616c6964206d696e746572000000000000000000000000000000000000604482015290519081900360640190fd5b60c9805473ffffffffffffffffffffffffffffffffffffffff8086167fffffffffffffffffffffffff00000000000000000000000000000000000000009283161790925560ca8054928516929091169190911790558015610e5757600080547fffffffffffffffffffffffffffffffffffffffffffffffffffffffffffff00ff1690555b505050565b73ffffffffffffffffffffffffffffffffffffffff1660009081526065602052604090205490565b610e8c6113d5565b73ffffffffffffffffffffffffffffffffffffffff16610eaa610ff6565b73ffffffffffffffffffffffffffffffffffffffff1614610f2c57604080517f08c379a000000000000000000000000000000000000000000000000000000000815260206004820181905260248201527f4f776e61626c653a2063616c6c6572206973206e6f7420746865206f776e6572604482015290519081900360640190fd5b60335460405160009173ffffffffffffffffffffffffffffffffffffffff16907f8be0079c531659141344cd1fd0a4f28419497f9722a3daafe3b4186f6b6457e0908390a3603380547fffffffffffffffffffffffff0000000000000000000000000000000000000000169055565b6000610fd88260405180606001604052806024815260200161271960249139610fcb86610fc66113d5565b6111fb565b919063ffffffff61183d16565b9050610fec83610fe66113d5565b836113d9565b610e578383611962565b60335473ffffffffffffffffffffffffffffffffffffffff1690565b60698054604080516020601f60027fffffffffffffffffffffffffffffffffffffffffffffffffffffffffffffffff6101006001881615020190951694909404938401819004810282018101909252828152606093909290918301828280156106735780601f1061064857610100808354040283529160200191610673565b60006106ae61109e6113d5565b84610836856040518060600160405280602581526020016127d160259139606660006110c86113d5565b73ffffffffffffffffffffffffffffffffffffffff908116825260208083019390935260409182016000908120918d1681529252902054919063ffffffff61183d16565b60006106ae6111196113d5565b848461165f565b6111286113d5565b73ffffffffffffffffffffffffffffffffffffffff16611146610ff6565b73ffffffffffffffffffffffffffffffffffffffff16146111c857604080517f08c379a000000000000000000000000000000000000000000000000000000000815260206004820181905260248201527f4f776e61626c653a2063616c6c6572206973206e6f7420746865206f776e6572604482015290519081900360640190fd5b6111f76111d3610ff6565b73ffffffffffffffffffffffffffffffffffffffff8416908363ffffffff611d1316565b5050565b73ffffffffffffffffffffffffffffffffffffffff918216600090815260666020908152604080832093909416825291909152205490565b61123b6113d5565b73ffffffffffffffffffffffffffffffffffffffff16611259610ff6565b73ffffffffffffffffffffffffffffffffffffffff16146112db57604080517f08c379a000000000000000000000000000000000000000000000000000000000815260206004820181905260248201527f4f776e61626c653a2063616c6c6572206973206e6f7420746865206f776e6572604482015290519081900360640190fd5b73ffffffffffffffffffffffffffffffffffffffff8116611347576040517f08c379a000000000000000000000000000000000000000000000000000000000815260040180806020018281038252602681526020018061262f6026913960400191505060405180910390fd5b60335460405173ffffffffffffffffffffffffffffffffffffffff8084169216907f8be0079c531659141344cd1fd0a4f28419497f9722a3daafe3b4186f6b6457e090600090a3603380547fffffffffffffffffffffffff00000000000000000000000000000000000000001673ffffffffffffffffffffffffffffffffffffffff92909216919091179055565b3390565b73ffffffffffffffffffffffffffffffffffffffff8316611445576040517f08c379a00000000000000000000000000000000000000000000000000000000081526004018080602001828103825260248152602001806127836024913960400191505060405180910390fd5b73ffffffffffffffffffffffffffffffffffffffff82166114b1576040517f08c379a00000000000000000000000000000000000000000000000000000000081526004018080602001828103825260228152602001806126556022913960400191505060405180910390fd5b73ffffffffffffffffffffffffffffffffffffffff808416600081815260666020908152604080832094871680845294825291829020859055815185815291517f8c5be1e5ebec7d5bd14f71427d1e84f3dd0314c0f7b2291e5b200ac8c7c3b9259281900390910190a3505050565b73ffffffffffffffffffffffffffffffffffffffff82166115a257604080517f08c379a000000000000000000000000000000000000000000000000000000000815260206004820152601f60248201527f45524332303a206d696e7420746f20746865207a65726f206164647265737300604482015290519081900360640190fd5b6115ae60008383610e57565b6067546115c1908263ffffffff6118ee16565b60675573ffffffffffffffffffffffffffffffffffffffff82166000908152606560205260409020546115fa908263ffffffff6118ee16565b73ffffffffffffffffffffffffffffffffffffffff831660008181526065602090815260408083209490945583518581529351929391927fddf252ad1be2c89b69c2b068fc378daa952ba7f163c4a11628f55a4df523b3ef9281900390910190a35050565b73ffffffffffffffffffffffffffffffffffffffff83166116cb576040517f08c379a000000000000000000000000000000000000000000000000000000000815260040180806020018281038252602581526020018061275e6025913960400191505060405180910390fd5b73ffffffffffffffffffffffffffffffffffffffff8216611737576040517f08c379a00000000000000000000000000000000000000000000000000000000081526004018080602001828103825260238152602001806125ea6023913960400191505060405180910390fd5b611742838383610e57565b611792816040518060600160405280602681526020016126776026913973ffffffffffffffffffffffffffffffffffffffff8616600090815260656020526040902054919063ffffffff61183d16565b73ffffffffffffffffffffffffffffffffffffffff80851660009081526065602052604080822093909355908416815220546117d4908263ffffffff6118ee16565b73ffffffffffffffffffffffffffffffffffffffff80841660008181526065602090815260409182902094909455805185815290519193928716927fddf252ad1be2c89b69c2b068fc378daa952ba7f163c4a11628f55a4df523b3ef92918290030190a3505050565b600081848411156118e6576040517f08c379a00000000000000000000000000000000000000000000000000000000081526004018080602001828103825283818151815260200191508051906020019080838360005b838110156118ab578181015183820152602001611893565b50505050905090810190601f1680156118d85780820380516001836020036101000a031916815260200191505b509250505060405180910390fd5b505050900390565b60008282018381101561083f57604080517f08c379a000000000000000000000000000000000000000000000000000000000815260206004820152601b60248201527f536166654d6174683a206164646974696f6e206f766572666c6f770000000000604482015290519081900360640190fd5b73ffffffffffffffffffffffffffffffffffffffff82166119ce576040517f08c379a000000000000000000000000000000000000000000000000000000000815260040180806020018281038252602181526020018061273d6021913960400191505060405180910390fd5b6119da82600083610e57565b611a2a8160405180606001604052806022815260200161260d6022913973ffffffffffffffffffffffffffffffffffffffff8516600090815260656020526040902054919063ffffffff61183d16565b73ffffffffffffffffffffffffffffffffffffffff8316600090815260656020526040902055606754611a63908263ffffffff611da016565b60675560408051828152905160009173ffffffffffffffffffffffffffffffffffffffff8516917fddf252ad1be2c89b69c2b068fc378daa952ba7f163c4a11628f55a4df523b3ef9181900360200190a35050565b6000611ac330611e17565b15905090565b600054610100900460ff1680611ae25750611ae2611ab8565b80611af0575060005460ff16155b611b45576040517f08c379a000000000000000000000000000000000000000000000000000000000815260040180806020018281038252602e8152602001806126c3602e913960400191505060405180910390fd5b600054610100900460ff16158015611bab57600080547fffffffffffffffffffffffffffffffffffffffffffffffffffffffffffffff007fffffffffffffffffffffffffffffffffffffffffffffffffffffffffffff00ff909116610100171660011790555b611bb3611e1d565b611bbd8383611f2f565b8015610e5757600080547fffffffffffffffffffffffffffffffffffffffffffffffffffffffffffff00ff169055505050565b600054610100900460ff1680611c095750611c09611ab8565b80611c17575060005460ff16155b611c6c576040517f08c379a000000000000000000000000000000000000000000000000000000000815260040180806020018281038252602e8152602001806126c3602e913960400191505060405180910390fd5b600054610100900460ff16158015611cd257600080547fffffffffffffffffffffffffffffffffffffffffffffffffffffffffffffff007fffffffffffffffffffffffffffffffffffffffffffffffffffffffffffff00ff909116610100171660011790555b611cda611e1d565b611ce2612097565b80156109f857600080547fffffffffffffffffffffffffffffffffffffffffffffffffffffffffffff00ff16905550565b6040805173ffffffffffffffffffffffffffffffffffffffff8416602482015260448082018490528251808303909101815260649091019091526020810180517bffffffffffffffffffffffffffffffffffffffffffffffffffffffff167fa9059cbb00000000000000000000000000000000000000000000000000000000179052610e57908490612227565b600082821115611e1157604080517f08c379a000000000000000000000000000000000000000000000000000000000815260206004820152601e60248201527f536166654d6174683a207375627472616374696f6e206f766572666c6f770000604482015290519081900360640190fd5b50900390565b3b151590565b600054610100900460ff1680611e365750611e36611ab8565b80611e44575060005460ff16155b611e99576040517f08c379a000000000000000000000000000000000000000000000000000000000815260040180806020018281038252602e8152602001806126c3602e913960400191505060405180910390fd5b600054610100900460ff16158015611ce257600080547fffffffffffffffffffffffffffffffffffffffffffffffffffffffffffffff007fffffffffffffffffffffffffffffffffffffffffffffffffffffffffffff00ff9091166101001716600117905580156109f857600080547fffffffffffffffffffffffffffffffffffffffffffffffffffffffffffff00ff16905550565b600054610100900460ff1680611f485750611f48611ab8565b80611f56575060005460ff16155b611fab576040517f08c379a000000000000000000000000000000000000000000000000000000000815260040180806020018281038252602e8152602001806126c3602e913960400191505060405180910390fd5b600054610100900460ff1615801561201157600080547fffffffffffffffffffffffffffffffffffffffffffffffffffffffffffffff007fffffffffffffffffffffffffffffffffffffffffffffffffffffffffffff00ff909116610100171660011790555b8251612024906068906020860190612551565b508151612038906069906020850190612551565b50606a80547fffffffffffffffffffffffffffffffffffffffffffffffffffffffffffffff001660121790558015610e5757600080547fffffffffffffffffffffffffffffffffffffffffffffffffffffffffffff00ff169055505050565b600054610100900460ff16806120b057506120b0611ab8565b806120be575060005460ff16155b612113576040517f08c379a000000000000000000000000000000000000000000000000000000000815260040180806020018281038252602e8152602001806126c3602e913960400191505060405180910390fd5b600054610100900460ff1615801561217957600080547fffffffffffffffffffffffffffffffffffffffffffffffffffffffffffffff007fffffffffffffffffffffffffffffffffffffffffffffffffffffffffffff00ff909116610100171660011790555b60006121836113d5565b603380547fffffffffffffffffffffffff00000000000000000000000000000000000000001673ffffffffffffffffffffffffffffffffffffffff8316908117909155604051919250906000907f8be0079c531659141344cd1fd0a4f28419497f9722a3daafe3b4186f6b6457e0908290a35080156109f857600080547fffffffffffffffffffffffffffffffffffffffffffffffffffffffffffff00ff16905550565b6060612289826040518060400160405280602081526020017f5361666545524332303a206c6f772d6c6576656c2063616c6c206661696c65648152508573ffffffffffffffffffffffffffffffffffffffff166122ff9092919063ffffffff16565b805190915015610e57578080602001905160208110156122a857600080fd5b5051610e57576040517f08c379a000000000000000000000000000000000000000000000000000000000815260040180806020018281038252602a8152602001806127a7602a913960400191505060405180910390fd5b606061230e8484600085612316565b949350505050565b606082471015612371576040517f08c379a000000000000000000000000000000000000000000000000000000000815260040180806020018281038252602681526020018061269d6026913960400191505060405180910390fd5b61237a85611e17565b6123e557604080517f08c379a000000000000000000000000000000000000000000000000000000000815260206004820152601d60248201527f416464726573733a2063616c6c20746f206e6f6e2d636f6e7472616374000000604482015290519081900360640190fd5b600060608673ffffffffffffffffffffffffffffffffffffffff1685876040518082805190602001908083835b6020831061244f57805182527fffffffffffffffffffffffffffffffffffffffffffffffffffffffffffffffe09092019160209182019101612412565b6001836020036101000a03801982511681845116808217855250505050505090500191505060006040518083038185875af1925050503d80600081146124b1576040519150601f19603f3d011682016040523d82523d6000602084013e6124b6565b606091505b50915091506124c68282866124d1565b979650505050505050565b606083156124e057508161083f565b8251156124f05782518084602001fd5b6040517f08c379a00000000000000000000000000000000000000000000000000000000081526020600482018181528451602484015284518593919283926044019190850190808383600083156118ab578181015183820152602001611893565b828054600181600116156101000203166002900490600052602060002090601f016020900481019282601f1061259257805160ff19168380011785556125bf565b828001600101855582156125bf579182015b828111156125bf5782518255916020019190600101906125a4565b506125cb9291506125cf565b5090565b61067b91905b808211156125cb57600081556001016125d556fe45524332303a207472616e7366657220746f20746865207a65726f206164647265737345524332303a206275726e20616d6f756e7420657863656564732062616c616e63654f776e61626c653a206e6577206f776e657220697320746865207a65726f206164647265737345524332303a20617070726f766520746f20746865207a65726f206164647265737345524332303a207472616e7366657220616d6f756e7420657863656564732062616c616e6365416464726573733a20696e73756666696369656e742062616c616e636520666f722063616c6c496e697469616c697a61626c653a20636f6e747261637420697320616c726561647920696e697469616c697a656445524332303a207472616e7366657220616d6f756e74206578636565647320616c6c6f77616e636545524332303a206275726e20616d6f756e74206578636565647320616c6c6f77616e636545524332303a206275726e2066726f6d20746865207a65726f206164647265737345524332303a207472616e736665722066726f6d20746865207a65726f206164647265737345524332303a20617070726f76652066726f6d20746865207a65726f20616464726573735361666545524332303a204552433230206f7065726174696f6e20646964206e6f74207375636365656445524332303a2064656372656173656420616c6c6f77616e63652062656c6f77207a65726fa2646970667358221220c51a23449d565078c6e04d8b0dacc44293912ca1733a4e6dad4e2c6a98ebcc9a64736f6c63430006060033",
  "linkReferences": {},
  "deployedLinkReferences": {}
}