{
  "_format": "hh-sol-artifact-1",
  "contractName": "KyberRewardLockerV2",
  "sourceName": "contracts/liquidityMining/KyberRewardLockerV2.sol",
  "abi": [
    {
      "inputs": [
        {
          "internalType": "address",
          "name": "_admin",
          "type": "address"
        }
      ],
      "stateMutability": "nonpayable",
      "type": "constructor"
    },
    {
      "anonymous": false,
      "inputs": [
        {
          "indexed": false,
          "internalType": "address",
          "name": "newAdmin",
          "type": "address"
        },
        {
          "indexed": false,
          "internalType": "address",
          "name": "previousAdmin",
          "type": "address"
        }
      ],
      "name": "AdminClaimed",
      "type": "event"
    },
    {
      "anonymous": false,
      "inputs": [
        {
          "indexed": true,
          "internalType": "address",
          "name": "rewardContract",
          "type": "address"
        },
        {
          "indexed": true,
          "internalType": "contract IERC20Ext",
          "name": "token",
          "type": "address"
        },
        {
          "indexed": false,
          "internalType": "bool",
          "name": "isAdded",
          "type": "bool"
        }
      ],
      "name": "RewardContractAdded",
      "type": "event"
    },
    {
      "anonymous": false,
      "inputs": [
        {
          "indexed": false,
          "internalType": "address",
          "name": "pendingAdmin",
          "type": "address"
        }
      ],
      "name": "TransferAdminPending",
      "type": "event"
    },
    {
      "anonymous": false,
      "inputs": [
        {
          "indexed": true,
          "internalType": "contract IERC20Ext",
          "name": "token",
          "type": "address"
        },
        {
          "indexed": true,
          "internalType": "address",
          "name": "beneficiary",
          "type": "address"
        },
        {
          "indexed": false,
          "internalType": "uint256",
          "name": "vestedQuantity",
          "type": "uint256"
        },
        {
          "indexed": false,
          "internalType": "uint256",
          "name": "index",
          "type": "uint256"
        }
      ],
      "name": "Vested",
      "type": "event"
    },
    {
      "anonymous": false,
      "inputs": [
        {
          "indexed": true,
          "internalType": "contract IERC20Ext",
          "name": "token",
          "type": "address"
        },
        {
          "indexed": true,
          "internalType": "address",
          "name": "beneficiary",
          "type": "address"
        },
        {
          "indexed": false,
          "internalType": "uint256",
          "name": "startTime",
          "type": "uint256"
        },
        {
          "indexed": false,
          "internalType": "uint256",
          "name": "endTime",
          "type": "uint256"
        },
        {
          "indexed": false,
          "internalType": "uint256",
          "name": "quantity",
          "type": "uint256"
        },
        {
          "indexed": false,
          "internalType": "uint256",
          "name": "index",
          "type": "uint256"
        }
      ],
      "name": "VestingEntryCreated",
      "type": "event"
    },
    {
      "anonymous": false,
      "inputs": [
        {
          "indexed": true,
          "internalType": "uint256",
          "name": "index",
          "type": "uint256"
        },
        {
          "indexed": true,
          "internalType": "contract IERC20Ext",
          "name": "token",
          "type": "address"
        },
        {
          "indexed": true,
          "internalType": "address",
          "name": "beneficiary",
          "type": "address"
        },
        {
          "indexed": false,
          "internalType": "uint256",
          "name": "quantity",
          "type": "uint256"
        }
      ],
      "name": "VestingEntryQueued",
      "type": "event"
    },
    {
      "inputs": [
        {
          "internalType": "address",
          "name": "",
          "type": "address"
        },
        {
          "internalType": "contract IERC20Ext",
          "name": "",
          "type": "address"
        }
      ],
      "name": "accountEscrowedBalance",
      "outputs": [
        {
          "internalType": "uint256",
          "name": "",
          "type": "uint256"
        }
      ],
      "stateMutability": "view",
      "type": "function"
    },
    {
      "inputs": [
        {
          "internalType": "address",
          "name": "",
          "type": "address"
        },
        {
          "internalType": "contract IERC20Ext",
          "name": "",
          "type": "address"
        }
      ],
      "name": "accountVestedBalance",
      "outputs": [
        {
          "internalType": "uint256",
          "name": "",
          "type": "uint256"
        }
      ],
      "stateMutability": "view",
      "type": "function"
    },
    {
      "inputs": [
        {
          "internalType": "contract IERC20Ext",
          "name": "token",
          "type": "address"
        },
        {
          "internalType": "address",
          "name": "_rewardContract",
          "type": "address"
        }
      ],
      "name": "addRewardsContract",
      "outputs": [],
      "stateMutability": "nonpayable",
      "type": "function"
    },
    {
      "inputs": [],
      "name": "admin",
      "outputs": [
        {
          "internalType": "address",
          "name": "",
          "type": "address"
        }
      ],
      "stateMutability": "view",
      "type": "function"
    },
    {
      "inputs": [],
      "name": "claimAdmin",
      "outputs": [],
      "stateMutability": "nonpayable",
      "type": "function"
    },
    {
      "inputs": [
        {
          "internalType": "contract IERC20Ext",
          "name": "token",
          "type": "address"
        }
      ],
      "name": "getRewardContractsPerToken",
      "outputs": [
        {
          "internalType": "address[]",
          "name": "rewardContracts",
          "type": "address[]"
        }
      ],
      "stateMutability": "view",
      "type": "function"
    },
    {
      "inputs": [
        {
          "internalType": "address",
          "name": "account",
          "type": "address"
        },
        {
          "internalType": "contract IERC20Ext",
          "name": "token",
          "type": "address"
        },
        {
          "internalType": "uint256",
          "name": "index",
          "type": "uint256"
        }
      ],
      "name": "getVestingScheduleAtIndex",
      "outputs": [
        {
          "components": [
            {
              "internalType": "uint64",
              "name": "startTime",
              "type": "uint64"
            },
            {
              "internalType": "uint64",
              "name": "endTime",
              "type": "uint64"
            },
            {
              "internalType": "uint128",
              "name": "quantity",
              "type": "uint128"
            },
            {
              "internalType": "uint128",
              "name": "vestedQuantity",
              "type": "uint128"
            }
          ],
          "internalType": "struct IKyberRewardLockerV2.VestingSchedule",
          "name": "",
          "type": "tuple"
        }
      ],
      "stateMutability": "view",
      "type": "function"
    },
    {
      "inputs": [
        {
          "internalType": "address",
          "name": "account",
          "type": "address"
        },
        {
          "internalType": "contract IERC20Ext",
          "name": "token",
          "type": "address"
        }
      ],
      "name": "getVestingSchedules",
      "outputs": [
        {
          "components": [
            {
              "internalType": "uint64",
              "name": "startTime",
              "type": "uint64"
            },
            {
              "internalType": "uint64",
              "name": "endTime",
              "type": "uint64"
            },
            {
              "internalType": "uint128",
              "name": "quantity",
              "type": "uint128"
            },
            {
              "internalType": "uint128",
              "name": "vestedQuantity",
              "type": "uint128"
            }
          ],
          "internalType": "struct IKyberRewardLockerV2.VestingSchedule[]",
          "name": "schedules",
          "type": "tuple[]"
        }
      ],
      "stateMutability": "view",
      "type": "function"
    },
    {
      "inputs": [
        {
          "internalType": "contract IERC20Ext",
          "name": "token",
          "type": "address"
        },
        {
          "internalType": "address",
          "name": "account",
          "type": "address"
        },
        {
          "internalType": "uint256",
          "name": "quantity",
          "type": "uint256"
        },
        {
          "internalType": "uint32",
          "name": "vestingDuration",
          "type": "uint32"
        }
      ],
      "name": "lock",
      "outputs": [],
      "stateMutability": "payable",
      "type": "function"
    },
    {
      "inputs": [
        {
          "internalType": "contract IERC20Ext",
          "name": "token",
          "type": "address"
        },
        {
          "internalType": "address",
          "name": "account",
          "type": "address"
        },
        {
          "internalType": "uint256",
          "name": "quantity",
          "type": "uint256"
        },
        {
          "internalType": "uint256",
          "name": "startTime",
          "type": "uint256"
        },
        {
          "internalType": "uint32",
          "name": "vestingDuration",
          "type": "uint32"
        }
      ],
      "name": "lockWithStartTime",
      "outputs": [],
      "stateMutability": "payable",
      "type": "function"
    },
    {
      "inputs": [
        {
          "internalType": "address",
          "name": "account",
          "type": "address"
        },
        {
          "internalType": "contract IERC20Ext",
          "name": "token",
          "type": "address"
        }
      ],
      "name": "numVestingSchedules",
      "outputs": [
        {
          "internalType": "uint256",
          "name": "",
          "type": "uint256"
        }
      ],
      "stateMutability": "view",
      "type": "function"
    },
    {
      "inputs": [],
      "name": "pendingAdmin",
      "outputs": [
        {
          "internalType": "address",
          "name": "",
          "type": "address"
        }
      ],
      "stateMutability": "view",
      "type": "function"
    },
    {
      "inputs": [
        {
          "internalType": "contract IERC20Ext",
          "name": "token",
          "type": "address"
        },
        {
          "internalType": "address",
          "name": "_rewardContract",
          "type": "address"
        }
      ],
      "name": "removeRewardsContract",
      "outputs": [],
      "stateMutability": "nonpayable",
      "type": "function"
    },
    {
      "inputs": [
        {
          "internalType": "address",
          "name": "newAdmin",
          "type": "address"
        }
      ],
      "name": "transferAdmin",
      "outputs": [],
      "stateMutability": "nonpayable",
      "type": "function"
    },
    {
      "inputs": [
        {
          "internalType": "address",
          "name": "newAdmin",
          "type": "address"
        }
      ],
      "name": "transferAdminQuickly",
      "outputs": [],
      "stateMutability": "nonpayable",
      "type": "function"
    },
    {
      "inputs": [
        {
          "internalType": "contract IERC20Ext",
          "name": "token",
          "type": "address"
        }
      ],
      "name": "vestCompletedSchedules",
      "outputs": [
        {
          "internalType": "uint256",
          "name": "",
          "type": "uint256"
        }
      ],
      "stateMutability": "nonpayable",
      "type": "function"
    },
    {
      "inputs": [
        {
          "internalType": "contract IERC20Ext[]",
          "name": "tokens",
          "type": "address[]"
        }
      ],
      "name": "vestCompletedSchedulesForMultipleTokens",
      "outputs": [
        {
          "internalType": "uint256[]",
          "name": "vestedAmounts",
          "type": "uint256[]"
        }
      ],
      "stateMutability": "nonpayable",
      "type": "function"
    },
    {
      "inputs": [
        {
          "internalType": "contract IERC20Ext",
          "name": "token",
          "type": "address"
        },
        {
          "internalType": "uint256[]",
          "name": "indexes",
          "type": "uint256[]"
        }
      ],
      "name": "vestScheduleAtIndices",
      "outputs": [
        {
          "internalType": "uint256",
          "name": "",
          "type": "uint256"
        }
      ],
      "stateMutability": "nonpayable",
      "type": "function"
    },
    {
      "inputs": [
        {
          "internalType": "contract IERC20Ext[]",
          "name": "tokens",
          "type": "address[]"
        },
        {
          "internalType": "uint256[][]",
          "name": "indices",
          "type": "uint256[][]"
        }
      ],
      "name": "vestScheduleForMultipleTokensAtIndices",
      "outputs": [
        {
          "internalType": "uint256[]",
          "name": "vestedAmounts",
          "type": "uint256[]"
        }
      ],
      "stateMutability": "nonpayable",
      "type": "function"
    },
    {
      "inputs": [
        {
          "internalType": "contract IERC20Ext",
          "name": "token",
          "type": "address"
        },
        {
          "internalType": "uint256",
          "name": "startIndex",
          "type": "uint256"
        },
        {
          "internalType": "uint256",
          "name": "endIndex",
          "type": "uint256"
        }
      ],
      "name": "vestSchedulesInRange",
      "outputs": [
        {
          "internalType": "uint256",
          "name": "",
          "type": "uint256"
        }
      ],
      "stateMutability": "nonpayable",
      "type": "function"
    }
  ],
  "bytecode": "0x60806040523480156200001157600080fd5b5060405162003272380380620032728339810160408190526200003491620000a2565b806001600160a01b0381166200007b576040805162461bcd60e51b8152602060048201526007602482015266061646d696e20360cc1b604482015290519081900360640190fd5b600080546001600160a01b0319166001600160a01b039290921691909117905550620000d2565b600060208284031215620000b4578081fd5b81516001600160a01b0381168114620000cb578182fd5b9392505050565b61319080620000e26000396000f3fe60806040526004361061015f5760003560e01c806375829def116100c0578063c33fddf811610074578063f851a44011610059578063f851a440146103ba578063fdfaaa05146103cf578063ff4931d3146103ef5761015f565b8063c33fddf81461037a578063f793d77e1461039a5761015f565b80637acc8678116100a55780637acc86781461030d5780639059aa6a1461032d578063bbd8a3281461034d5761015f565b806375829def146102d857806377f50f97146102f85761015f565b80633b5bfa8b116101175780634d4f3d93116100fc5780634d4f3d931461026b578063679f7f77146102985780636e732b70146102b85761015f565b80633b5bfa8b1461022b5780634c9d00cc1461024b5761015f565b80631e2fabb6116101485780631e2fabb6146101c757806326782247146101dc5780632f50bd72146101fe5761015f565b80630a3b7e31146101645780630f5636c31461019a575b600080fd5b34801561017057600080fd5b5061018461017f366004612968565b610402565b6040516101919190612fb0565b60405180910390f35b3480156101a657600080fd5b506101ba6101b5366004612b0d565b6104ba565b6040516101919190612fbe565b6101da6101d5366004612abd565b61073b565b005b3480156101e857600080fd5b506101f161075b565b6040516101919190612c53565b34801561020a57600080fd5b5061021e610219366004612930565b610777565b6040516101919190612cce565b34801561023757600080fd5b506101ba610246366004612930565b6108dc565b34801561025757600080fd5b506101da610266366004612a51565b6108f9565b34801561027757600080fd5b5061028b6102863660046129e8565b610a4e565b6040516101919190612d10565b3480156102a457600080fd5b506101ba6102b3366004612930565b610b79565b3480156102c457600080fd5b506101ba6102d3366004612930565b610bb1565b3480156102e457600080fd5b506101da6102f3366004612914565b610bce565b34801561030457600080fd5b506101da610d66565b34801561031957600080fd5b506101da610328366004612914565b610e91565b34801561033957600080fd5b5061028b6103483660046129a8565b61107e565b34801561035957600080fd5b5061036d610368366004612914565b611119565b6040516101919190612c74565b34801561038657600080fd5b506101ba610395366004612bd0565b611207565b3480156103a657600080fd5b506101da6103b5366004612a51565b6112cd565b3480156103c657600080fd5b506101f161147e565b3480156103db57600080fd5b506101ba6103ea366004612914565b61149a565b6101da6103fd366004612a63565b6116a5565b61040a612890565b5073ffffffffffffffffffffffffffffffffffffffff8084166000908152600360209081526040808320938616835292815282822084835260019081018252918390208351608081018552815467ffffffffffffffff808216835268010000000000000000820416938201939093526fffffffffffffffffffffffffffffffff700100000000000000000000000000000000909304831694810194909452909101541660608201525b9392505050565b33600090815260036020908152604080832073ffffffffffffffffffffffffffffffffffffffff861684529091528120805482805b8551811015610725578286828151811061050557fe5b60200260200101511061054d576040517f08c379a000000000000000000000000000000000000000000000000000000000815260040161054490612d53565b60405180910390fd5b600084600101600088848151811061056157fe5b602090810291909101810151825281810192909252604090810160009081208251608081018452815467ffffffffffffffff808216835268010000000000000000820416958201959095526fffffffffffffffffffffffffffffffff70010000000000000000000000000000000090950485169381019390935260010154909216606082015291506105f282611c0c565b90508061060057505061071d565b606082015161062a90610625906fffffffffffffffffffffffffffffffff1683611d35565b611da9565b8660010160008a868151811061063c57fe5b6020026020010151815260200190815260200160002060010160006101000a8154816fffffffffffffffffffffffffffffffff02191690836fffffffffffffffffffffffffffffffff16021790555061069e8185611d3590919063ffffffff16565b93503373ffffffffffffffffffffffffffffffffffffffff168973ffffffffffffffffffffffffffffffffffffffff167f6d06f0a463d80b43fe6cd0b79c61bb2790cfe898790e69828f25e6e12886e178838b87815181106106fc57fe5b6020026020010151604051610712929190612fc7565b60405180910390a350505b6001016104ef565b506107308682611e18565b925050505b92915050565b610755848484610749611fe5565b63ffffffff16856116a5565b50505050565b60015473ffffffffffffffffffffffffffffffffffffffff1681565b73ffffffffffffffffffffffffffffffffffffffff8083166000908152600360209081526040808320938516835292905220546060908067ffffffffffffffff811180156107c457600080fd5b506040519080825280602002602001820160405280156107fe57816020015b6107eb612890565b8152602001906001900390816107e35790505b50915060005b818110156108d45773ffffffffffffffffffffffffffffffffffffffff8086166000908152600360209081526040808320938816835292815282822084835260019081018252918390208351608081018552815467ffffffffffffffff808216835268010000000000000000820416938201939093526fffffffffffffffffffffffffffffffff7001000000000000000000000000000000009093048316948101949094529091015416606082015283518490839081106108c157fe5b6020908102919091010152600101610804565b505092915050565b600560209081526000928352604080842090915290825290205481565b60005473ffffffffffffffffffffffffffffffffffffffff16331461097f57604080517f08c379a000000000000000000000000000000000000000000000000000000000815260206004820152600a60248201527f6f6e6c792061646d696e00000000000000000000000000000000000000000000604482015290519081900360640190fd5b73ffffffffffffffffffffffffffffffffffffffff821660009081526002602052604090206109ae9082611fe9565b6109e4576040517f08c379a000000000000000000000000000000000000000000000000000000000815260040161054490612df8565b8173ffffffffffffffffffffffffffffffffffffffff168173ffffffffffffffffffffffffffffffffffffffff167f88a8c998079a07d6a1e59a32ce0c359a00e4c94ce7a6068350a9574e7e0f993d6000604051610a429190612d48565b60405180910390a35050565b6060838214610a89576040517f08c379a000000000000000000000000000000000000000000000000000000000815260040161054490612f0b565b8367ffffffffffffffff81118015610aa057600080fd5b50604051908082528060200260200182016040528015610aca578160200160208202803683370190505b50905060005b84811015610b7057610b51868683818110610ae757fe5b9050602002016020810190610afc9190612914565b858584818110610b0857fe5b9050602002810190610b1a9190612ff0565b808060200260200160405190810160405280939291908181526020018383602002808284376000920191909152506104ba92505050565b828281518110610b5d57fe5b6020908102919091010152600101610ad0565b50949350505050565b73ffffffffffffffffffffffffffffffffffffffff918216600090815260036020908152604080832093909416825291909152205490565b600460209081526000928352604080842090915290825290205481565b60005473ffffffffffffffffffffffffffffffffffffffff163314610c5457604080517f08c379a000000000000000000000000000000000000000000000000000000000815260206004820152600a60248201527f6f6e6c792061646d696e00000000000000000000000000000000000000000000604482015290519081900360640190fd5b73ffffffffffffffffffffffffffffffffffffffff8116610cd657604080517f08c379a000000000000000000000000000000000000000000000000000000000815260206004820152600b60248201527f6e65772061646d696e2030000000000000000000000000000000000000000000604482015290519081900360640190fd5b6040805173ffffffffffffffffffffffffffffffffffffffff8316815290517f3b81caf78fa51ecbc8acb482fd7012a277b428d9b80f9d156e8a54107496cc409181900360200190a1600180547fffffffffffffffffffffffff00000000000000000000000000000000000000001673ffffffffffffffffffffffffffffffffffffffff92909216919091179055565b60015473ffffffffffffffffffffffffffffffffffffffff163314610dec57604080517f08c379a000000000000000000000000000000000000000000000000000000000815260206004820152600b60248201527f6e6f742070656e64696e67000000000000000000000000000000000000000000604482015290519081900360640190fd5b6001546000546040805173ffffffffffffffffffffffffffffffffffffffff938416815292909116602083015280517f65da1cfc2c2e81576ad96afb24a581f8e109b7a403b35cbd3243a1c99efdb9ed9281900390910190a160018054600080547fffffffffffffffffffffffff000000000000000000000000000000000000000090811673ffffffffffffffffffffffffffffffffffffffff841617909155169055565b60005473ffffffffffffffffffffffffffffffffffffffff163314610f1757604080517f08c379a000000000000000000000000000000000000000000000000000000000815260206004820152600a60248201527f6f6e6c792061646d696e00000000000000000000000000000000000000000000604482015290519081900360640190fd5b73ffffffffffffffffffffffffffffffffffffffff8116610f9957604080517f08c379a000000000000000000000000000000000000000000000000000000000815260206004820152600760248201527f61646d696e203000000000000000000000000000000000000000000000000000604482015290519081900360640190fd5b6040805173ffffffffffffffffffffffffffffffffffffffff8316815290517f3b81caf78fa51ecbc8acb482fd7012a277b428d9b80f9d156e8a54107496cc409181900360200190a16000546040805173ffffffffffffffffffffffffffffffffffffffff8085168252909216602083015280517f65da1cfc2c2e81576ad96afb24a581f8e109b7a403b35cbd3243a1c99efdb9ed9281900390910190a1600080547fffffffffffffffffffffffff00000000000000000000000000000000000000001673ffffffffffffffffffffffffffffffffffffffff92909216919091179055565b60608167ffffffffffffffff8111801561109757600080fd5b506040519080825280602002602001820160405280156110c1578160200160208202803683370190505b50905060005b82811015611112576110f38484838181106110de57fe5b90506020020160208101906103ea9190612914565b8282815181106110ff57fe5b60209081029190910101526001016110c7565b5092915050565b73ffffffffffffffffffffffffffffffffffffffff8116600090815260026020526040902060609061114a9061200b565b67ffffffffffffffff8111801561116057600080fd5b5060405190808252806020026020018201604052801561118a578160200160208202803683370190505b50905060005b81518110156112015773ffffffffffffffffffffffffffffffffffffffff831660009081526002602052604090206111c89082612016565b8282815181106111d457fe5b73ffffffffffffffffffffffffffffffffffffffff90921660209283029190910190910152600101611190565b50919050565b600081831115611243576040517f08c379a000000000000000000000000000000000000000000000000000000000815260040161054490612e66565b600083830360010167ffffffffffffffff8111801561126157600080fd5b5060405190808252806020026020018201604052801561128b578160200160208202803683370190505b509050835b8381116112b9578082868303815181106112a657fe5b6020908102919091010152600101611290565b506112c485826104ba565b95945050505050565b60005473ffffffffffffffffffffffffffffffffffffffff16331461135357604080517f08c379a000000000000000000000000000000000000000000000000000000000815260206004820152600a60248201527f6f6e6c792061646d696e00000000000000000000000000000000000000000000604482015290519081900360640190fd5b73ffffffffffffffffffffffffffffffffffffffff821660009081526002602052604090206064906113849061200b565b106113bb576040517f08c379a000000000000000000000000000000000000000000000000000000000815260040161054490612f79565b73ffffffffffffffffffffffffffffffffffffffff821660009081526002602052604090206113ea9082612022565b611420576040517f08c379a000000000000000000000000000000000000000000000000000000000815260040161054490612dc1565b8173ffffffffffffffffffffffffffffffffffffffff168173ffffffffffffffffffffffffffffffffffffffff167f88a8c998079a07d6a1e59a32ce0c359a00e4c94ce7a6068350a9574e7e0f993d6001604051610a429190612d48565b60005473ffffffffffffffffffffffffffffffffffffffff1681565b33600090815260036020908152604080832073ffffffffffffffffffffffffffffffffffffffff851684529091528120805482805b82811015611690576000818152600180860160209081526040928390208351608081018552815467ffffffffffffffff8082168352680100000000000000008204169382018490526fffffffffffffffffffffffffffffffff70010000000000000000000000000000000090910481169582019590955292015490921660608201529061155a611fe5565b63ffffffff16101561156c5750611688565b60006115ad82606001516fffffffffffffffffffffffffffffffff1683604001516fffffffffffffffffffffffffffffffff1661204490919063ffffffff16565b9050806115bb575050611688565b6040828101516000858152600189810160205292902090910180547fffffffffffffffffffffffffffffffff00000000000000000000000000000000166fffffffffffffffffffffffffffffffff90921691909117905561161c8482611d35565b93503373ffffffffffffffffffffffffffffffffffffffff168873ffffffffffffffffffffffffffffffffffffffff167f6d06f0a463d80b43fe6cd0b79c61bb2790cfe898790e69828f25e6e12886e178838660405161167d929190612fc7565b60405180910390a350505b6001016114cf565b5061169b8582611e18565b925050505b919050565b73ffffffffffffffffffffffffffffffffffffffff8516600090815260026020526040902085906116d690336120bb565b61170c576040517f08c379a000000000000000000000000000000000000000000000000000000000815260040161054490612ed4565b60008411611746576040517f08c379a000000000000000000000000000000000000000000000000000000000815260040161054490612f42565b73ffffffffffffffffffffffffffffffffffffffff861661179f5783341461179a576040517f08c379a000000000000000000000000000000000000000000000000000000000815260040161054490612e2f565b6117c1565b6117c173ffffffffffffffffffffffffffffffffffffffff87163330876120dd565b73ffffffffffffffffffffffffffffffffffffffff8086166000908152600360209081526040808320938a1683529290529081208054909161180c8663ffffffff80881690611d3516565b90508115611a11577fffffffffffffffffffffffffffffffffffffffffffffffffffffffffffffffff820160009081526001840160205260409020805467ffffffffffffffff16871480156118775750805468010000000000000000900467ffffffffffffffff1682145b15611a0f5780546118b2906106259070010000000000000000000000000000000090046fffffffffffffffffffffffffffffffff168a611d35565b81546fffffffffffffffffffffffffffffffff91821670010000000000000000000000000000000002911617815573ffffffffffffffffffffffffffffffffffffffff808a166000908152600460209081526040808320938e168352929052205461191d9089611d35565b600460008b73ffffffffffffffffffffffffffffffffffffffff1673ffffffffffffffffffffffffffffffffffffffff16815260200190815260200160002060008c73ffffffffffffffffffffffffffffffffffffffff1673ffffffffffffffffffffffffffffffffffffffff168152602001908152602001600020819055508873ffffffffffffffffffffffffffffffffffffffff168a73ffffffffffffffffffffffffffffffffffffffff16600185037fa6fd3a57929c9152d86fa5f83c8478f1af480353a0aef0cacc3240d63b5707678b6040516119fe9190612fbe565b60405180910390a450505050611c04565b505b6040518060800160405280611a2588612172565b67ffffffffffffffff168152602001611a3d83612172565b67ffffffffffffffff168152602001611a5589611da9565b6fffffffffffffffffffffffffffffffff90811682526000602092830181905285815260018088018452604080832086518154888801518985015188167001000000000000000000000000000000000267ffffffffffffffff91821668010000000000000000027fffffffffffffffffffffffffffffffff0000000000000000ffffffffffffffff929094167fffffffffffffffffffffffffffffffffffffffffffffffff000000000000000090931692909217169190911786161781556060909601519582018054969094167fffffffffffffffffffffffffffffffff000000000000000000000000000000009690961695909517909255908501865573ffffffffffffffffffffffffffffffffffffffff808c16825260048352838220908d1682529091522054611b889088611d35565b73ffffffffffffffffffffffffffffffffffffffff808a166000818152600460209081526040808320948f1680845294909152908190209390935591517ffb1fd0fee690638acf30008a00d7fc669e970dd6fa8912488ee11171986edabb90611bf8908a9086908d908990612fd5565b60405180910390a35050505b505050505050565b6000816020015167ffffffffffffffff16611c25611fe5565b63ffffffff1610611c7657611c6f82606001516fffffffffffffffffffffffffffffffff1683604001516fffffffffffffffffffffffffffffffff1661204490919063ffffffff16565b90506116a0565b815167ffffffffffffffff16611c8a611fe5565b63ffffffff1611611c9d575060006116a0565b81516020830151600091611cbe9167ffffffffffffffff9081169116612044565b90506000836000015167ffffffffffffffff16611cd9611fe5565b63ffffffff1603905061169b84606001516fffffffffffffffffffffffffffffffff16611d2f84611d2988604001516fffffffffffffffffffffffffffffffff16866121d590919063ffffffff16565b90612248565b90612044565b6000828201838110156104b357604080517f08c379a000000000000000000000000000000000000000000000000000000000815260206004820152601b60248201527f536166654d6174683a206164646974696f6e206f766572666c6f770000000000604482015290519081900360640190fd5b60007001000000000000000000000000000000008210611e14576040517f08c379a000000000000000000000000000000000000000000000000000000000815260040180806020018281038252602781526020018061309d6027913960400191505060405180910390fd5b5090565b80611e4f576040517f08c379a000000000000000000000000000000000000000000000000000000000815260040161054490612e9d565b33600090815260046020908152604080832073ffffffffffffffffffffffffffffffffffffffff86168452909152902054611e8a9082612044565b33600081815260046020908152604080832073ffffffffffffffffffffffffffffffffffffffff8816808552908352818420959095559282526005815282822093825292909252902054611ede9082611d35565b33600090815260056020908152604080832073ffffffffffffffffffffffffffffffffffffffff8716808552925290912091909155611fc05760003373ffffffffffffffffffffffffffffffffffffffff1682604051611f3d90612c50565b60006040518083038185875af1925050503d8060008114611f7a576040519150601f19603f3d011682016040523d82523d6000602084013e611f7f565b606091505b5050905080611fba576040517f08c379a000000000000000000000000000000000000000000000000000000000815260040161054490612d8a565b50611fe1565b611fe173ffffffffffffffffffffffffffffffffffffffff831633836122c9565b5050565b4290565b60006104b38373ffffffffffffffffffffffffffffffffffffffff841661235b565b60006107358261243f565b60006104b38383612443565b60006104b38373ffffffffffffffffffffffffffffffffffffffff84166124c1565b6000828211156120b557604080517f08c379a000000000000000000000000000000000000000000000000000000000815260206004820152601e60248201527f536166654d6174683a207375627472616374696f6e206f766572666c6f770000604482015290519081900360640190fd5b50900390565b60006104b38373ffffffffffffffffffffffffffffffffffffffff841661250b565b6040805173ffffffffffffffffffffffffffffffffffffffff80861660248301528416604482015260648082018490528251808303909101815260849091019091526020810180517bffffffffffffffffffffffffffffffffffffffffffffffffffffffff167f23b872dd00000000000000000000000000000000000000000000000000000000179052610755908590612523565b6000680100000000000000008210611e14576040517f08c379a000000000000000000000000000000000000000000000000000000000815260040180806020018281038252602681526020018061310b6026913960400191505060405180910390fd5b6000826121e457506000610735565b828202828482816121f157fe5b04146104b3576040517f08c379a00000000000000000000000000000000000000000000000000000000081526004018080602001828103825260218152602001806130ea6021913960400191505060405180910390fd5b60008082116122b857604080517f08c379a000000000000000000000000000000000000000000000000000000000815260206004820152601a60248201527f536166654d6174683a206469766973696f6e206279207a65726f000000000000604482015290519081900360640190fd5b8183816122c157fe5b049392505050565b6040805173ffffffffffffffffffffffffffffffffffffffff8416602482015260448082018490528251808303909101815260649091019091526020810180517bffffffffffffffffffffffffffffffffffffffffffffffffffffffff167fa9059cbb00000000000000000000000000000000000000000000000000000000179052612356908490612523565b505050565b600081815260018301602052604081205480156124355783547fffffffffffffffffffffffffffffffffffffffffffffffffffffffffffffffff80830191908101906000908790839081106123ac57fe5b90600052602060002001549050808760000184815481106123c957fe5b6000918252602080832090910192909255828152600189810190925260409020908401905586548790806123f957fe5b60019003818190600052602060002001600090559055866001016000878152602001908152602001600020600090556001945050505050610735565b6000915050610735565b5490565b8154600090821061249f576040517f08c379a000000000000000000000000000000000000000000000000000000000815260040180806020018281038252602281526020018061307b6022913960400191505060405180910390fd5b8260000182815481106124ae57fe5b9060005260206000200154905092915050565b60006124cd838361250b565b61250357508154600181810184556000848152602080822090930184905584548482528286019093526040902091909155610735565b506000610735565b60009081526001919091016020526040902054151590565b6000612585826040518060400160405280602081526020017f5361666545524332303a206c6f772d6c6576656c2063616c6c206661696c65648152508573ffffffffffffffffffffffffffffffffffffffff166125fb9092919063ffffffff16565b805190915015612356578080602001905160208110156125a457600080fd5b5051612356576040517f08c379a000000000000000000000000000000000000000000000000000000000815260040180806020018281038252602a815260200180613131602a913960400191505060405180910390fd5b606061260a8484600085612612565b949350505050565b60608247101561266d576040517f08c379a00000000000000000000000000000000000000000000000000000000081526004018080602001828103825260268152602001806130c46026913960400191505060405180910390fd5b612676856127cc565b6126e157604080517f08c379a000000000000000000000000000000000000000000000000000000000815260206004820152601d60248201527f416464726573733a2063616c6c20746f206e6f6e2d636f6e7472616374000000604482015290519081900360640190fd5b6000808673ffffffffffffffffffffffffffffffffffffffff1685876040518082805190602001908083835b6020831061274a57805182527fffffffffffffffffffffffffffffffffffffffffffffffffffffffffffffffe0909201916020918201910161270d565b6001836020036101000a03801982511681845116808217855250505050505090500191505060006040518083038185875af1925050503d80600081146127ac576040519150601f19603f3d011682016040523d82523d6000602084013e6127b1565b606091505b50915091506127c18282866127d2565b979650505050505050565b3b151590565b606083156127e15750816104b3565b8251156127f15782518084602001fd5b816040517f08c379a00000000000000000000000000000000000000000000000000000000081526004018080602001828103825283818151815260200191508051906020019080838360005b8381101561285557818101518382015260200161283d565b50505050905090810190601f1680156128825780820380516001836020036101000a031916815260200191505b509250505060405180910390fd5b60408051608081018252600080825260208201819052918101829052606081019190915290565b60008083601f8401126128c8578081fd5b50813567ffffffffffffffff8111156128df578182fd5b60208301915083602080830285010111156128f957600080fd5b9250929050565b803563ffffffff811681146116a057600080fd5b600060208284031215612925578081fd5b81356104b381613055565b60008060408385031215612942578081fd5b823561294d81613055565b9150602083013561295d81613055565b809150509250929050565b60008060006060848603121561297c578081fd5b833561298781613055565b9250602084013561299781613055565b929592945050506040919091013590565b600080602083850312156129ba578182fd5b823567ffffffffffffffff8111156129d0578283fd5b6129dc858286016128b7565b90969095509350505050565b600080600080604085870312156129fd578081fd5b843567ffffffffffffffff80821115612a14578283fd5b612a20888389016128b7565b90965094506020870135915080821115612a38578283fd5b50612a45878288016128b7565b95989497509550505050565b60008060408385031215612942578182fd5b600080600080600060a08688031215612a7a578081fd5b8535612a8581613055565b94506020860135612a9581613055565b93506040860135925060608601359150612ab160808701612900565b90509295509295909350565b60008060008060808587031215612ad2578384fd5b8435612add81613055565b93506020850135612aed81613055565b925060408501359150612b0260608601612900565b905092959194509250565b60008060408385031215612b1f578182fd5b8235612b2a81613055565b915060208381013567ffffffffffffffff80821115612b47578384fd5b818601915086601f830112612b5a578384fd5b813581811115612b6657fe5b83810260405185828201018181108582111715612b7f57fe5b604052828152858101935084860182860187018b1015612b9d578788fd5b8795505b83861015612bbf578035855260019590950194938601938601612ba1565b508096505050505050509250929050565b600080600060608486031215612be4578283fd5b8335612bef81613055565b95602085013595506040909401359392505050565b67ffffffffffffffff8082511683528060208301511660208401525060408101516fffffffffffffffffffffffffffffffff808216604085015280606084015116606085015250505050565b90565b73ffffffffffffffffffffffffffffffffffffffff91909116815260200190565b6020808252825182820181905260009190848201906040850190845b81811015612cc257835173ffffffffffffffffffffffffffffffffffffffff1683529284019291840191600101612c90565b50909695505050505050565b6020808252825182820181905260009190848201906040850190845b81811015612cc257612cfd838551612c04565b9284019260809290920191600101612cea565b6020808252825182820181905260009190848201906040850190845b81811015612cc257835183529284019291840191600101612d2c565b901515815260200190565b60208082526016908201527f696e76616c6964207363686564756c6520696e64657800000000000000000000604082015260600190565b60208082526010908201527f6661696c20746f207472616e7366657200000000000000000000000000000000604082015260600190565b60208082526018908201527f5f726577617264436f6e74726163742069732061646465640000000000000000604082015260600190565b6020808252601a908201527f5f726577617264436f6e74726163742069732072656d6f766564000000000000604082015260600190565b60208082526011908201527f496e76616c6964206d73672e76616c7565000000000000000000000000000000604082015260600190565b60208082526015908201527f7374617274496e646578203e20656e64496e6465780000000000000000000000604082015260600190565b60208082526010908201527f302076657374696e6720616d6f756e7400000000000000000000000000000000604082015260600190565b60208082526014908201527f6f6e6c792072657761726420636f6e7472616374000000000000000000000000604082015260600190565b6020808252601f908201527f746f6b656e732e6c656e67746820213d20696e64696365732e6c656e67746800604082015260600190565b6020808252600a908201527f30207175616e7469747900000000000000000000000000000000000000000000604082015260600190565b6020808252601b908201527f726577617264436f6e74726163747320697320746f6f206c6f6e670000000000604082015260600190565b608081016107358284612c04565b90815260200190565b918252602082015260400190565b93845260208401929092526040830152606082015260800190565b60008083357fffffffffffffffffffffffffffffffffffffffffffffffffffffffffffffffe1843603018112613024578283fd5b83018035915067ffffffffffffffff82111561303e578283fd5b60209081019250810236038213156128f957600080fd5b73ffffffffffffffffffffffffffffffffffffffff8116811461307757600080fd5b5056fe456e756d657261626c655365743a20696e646578206f7574206f6620626f756e647353616665436173743a2076616c756520646f65736e27742066697420696e203132382062697473416464726573733a20696e73756666696369656e742062616c616e636520666f722063616c6c536166654d6174683a206d756c7469706c69636174696f6e206f766572666c6f7753616665436173743a2076616c756520646f65736e27742066697420696e20363420626974735361666545524332303a204552433230206f7065726174696f6e20646964206e6f742073756363656564a2646970667358221220b193b334a88f7bc571deafd81fec5e3015bad7015cbdfbc404d67b125f96da7364736f6c63430007060033",
  "linkReferences": {},
  "deployedLinkReferences": {}
}