{
  "_format": "hh-sol-artifact-1",
  "contractName": "KyberFairLaunchV2",
  "sourceName": "contracts/liquidityMining/KyberFairLaunchV2.sol",
  "abi": [
    {
      "inputs": [
        {
          "internalType": "address",
          "name": "_admin",
          "type": "address"
        },
        {
          "internalType": "address[]",
          "name": "_rewardTokens",
          "type": "address[]"
        },
        {
          "internalType": "contract IKyberRewardLockerV2",
          "name": "_rewardLocker",
          "type": "address"
        }
      ],
      "stateMutability": "nonpayable",
      "type": "constructor"
    },
    {
      "anonymous": false,
      "inputs": [
        {
          "indexed": true,
          "internalType": "address",
          "name": "stakeToken",
          "type": "address"
        },
        {
          "indexed": true,
          "internalType": "address",
          "name": "generatedToken",
          "type": "address"
        },
        {
          "indexed": false,
          "internalType": "uint32",
          "name": "startTime",
          "type": "uint32"
        },
        {
          "indexed": false,
          "internalType": "uint32",
          "name": "endTime",
          "type": "uint32"
        },
        {
          "indexed": false,
          "internalType": "uint32",
          "name": "vestingDuration",
          "type": "uint32"
        }
      ],
      "name": "AddNewPool",
      "type": "event"
    },
    {
      "anonymous": false,
      "inputs": [
        {
          "indexed": false,
          "internalType": "address",
          "name": "newAdmin",
          "type": "address"
        },
        {
          "indexed": false,
          "internalType": "address",
          "name": "previousAdmin",
          "type": "address"
        }
      ],
      "name": "AdminClaimed",
      "type": "event"
    },
    {
      "anonymous": false,
      "inputs": [
        {
          "indexed": true,
          "internalType": "address",
          "name": "user",
          "type": "address"
        },
        {
          "indexed": true,
          "internalType": "uint256",
          "name": "pid",
          "type": "uint256"
        },
        {
          "indexed": true,
          "internalType": "uint256",
          "name": "timestamp",
          "type": "uint256"
        },
        {
          "indexed": false,
          "internalType": "uint256",
          "name": "amount",
          "type": "uint256"
        }
      ],
      "name": "Deposit",
      "type": "event"
    },
    {
      "anonymous": false,
      "inputs": [
        {
          "indexed": true,
          "internalType": "address",
          "name": "user",
          "type": "address"
        },
        {
          "indexed": true,
          "internalType": "uint256",
          "name": "pid",
          "type": "uint256"
        },
        {
          "indexed": true,
          "internalType": "uint256",
          "name": "timestamp",
          "type": "uint256"
        },
        {
          "indexed": false,
          "internalType": "uint256",
          "name": "amount",
          "type": "uint256"
        }
      ],
      "name": "EmergencyWithdraw",
      "type": "event"
    },
    {
      "anonymous": false,
      "inputs": [
        {
          "indexed": true,
          "internalType": "address",
          "name": "user",
          "type": "address"
        },
        {
          "indexed": true,
          "internalType": "uint256",
          "name": "pid",
          "type": "uint256"
        },
        {
          "indexed": true,
          "internalType": "address",
          "name": "rewardToken",
          "type": "address"
        },
        {
          "indexed": false,
          "internalType": "uint256",
          "name": "lockedAmount",
          "type": "uint256"
        },
        {
          "indexed": false,
          "internalType": "uint256",
          "name": "timestamp",
          "type": "uint256"
        }
      ],
      "name": "Harvest",
      "type": "event"
    },
    {
      "anonymous": false,
      "inputs": [
        {
          "indexed": true,
          "internalType": "uint256",
          "name": "pid",
          "type": "uint256"
        },
        {
          "indexed": true,
          "internalType": "uint32",
          "name": "startTime",
          "type": "uint32"
        },
        {
          "indexed": true,
          "internalType": "uint32",
          "name": "endTime",
          "type": "uint32"
        },
        {
          "indexed": false,
          "internalType": "uint32",
          "name": "vestingDuration",
          "type": "uint32"
        }
      ],
      "name": "RenewPool",
      "type": "event"
    },
    {
      "anonymous": false,
      "inputs": [
        {
          "indexed": false,
          "internalType": "address",
          "name": "pendingAdmin",
          "type": "address"
        }
      ],
      "name": "TransferAdminPending",
      "type": "event"
    },
    {
      "anonymous": false,
      "inputs": [
        {
          "indexed": true,
          "internalType": "uint256",
          "name": "pid",
          "type": "uint256"
        },
        {
          "indexed": true,
          "internalType": "uint32",
          "name": "endTime",
          "type": "uint32"
        },
        {
          "indexed": true,
          "internalType": "uint32",
          "name": "vestingDuration",
          "type": "uint32"
        }
      ],
      "name": "UpdatePool",
      "type": "event"
    },
    {
      "anonymous": false,
      "inputs": [
        {
          "indexed": true,
          "internalType": "address",
          "name": "user",
          "type": "address"
        },
        {
          "indexed": true,
          "internalType": "uint256",
          "name": "pid",
          "type": "uint256"
        },
        {
          "indexed": true,
          "internalType": "uint256",
          "name": "timestamp",
          "type": "uint256"
        },
        {
          "indexed": false,
          "internalType": "uint256",
          "name": "amount",
          "type": "uint256"
        }
      ],
      "name": "Withdraw",
      "type": "event"
    },
    {
      "inputs": [
        {
          "internalType": "address",
          "name": "_stakeToken",
          "type": "address"
        },
        {
          "internalType": "uint32",
          "name": "_startTime",
          "type": "uint32"
        },
        {
          "internalType": "uint32",
          "name": "_endTime",
          "type": "uint32"
        },
        {
          "internalType": "uint32",
          "name": "_vestingDuration",
          "type": "uint32"
        },
        {
          "internalType": "uint256[]",
          "name": "_totalRewards",
          "type": "uint256[]"
        },
        {
          "internalType": "string",
          "name": "_tokenName",
          "type": "string"
        },
        {
          "internalType": "string",
          "name": "_tokenSymbol",
          "type": "string"
        }
      ],
      "name": "addPool",
      "outputs": [],
      "stateMutability": "nonpayable",
      "type": "function"
    },
    {
      "inputs": [],
      "name": "admin",
      "outputs": [
        {
          "internalType": "address",
          "name": "",
          "type": "address"
        }
      ],
      "stateMutability": "view",
      "type": "function"
    },
    {
      "inputs": [
        {
          "internalType": "uint256",
          "name": "rewardTokenIndex",
          "type": "uint256"
        },
        {
          "internalType": "uint256",
          "name": "amount",
          "type": "uint256"
        }
      ],
      "name": "adminWithdraw",
      "outputs": [],
      "stateMutability": "nonpayable",
      "type": "function"
    },
    {
      "inputs": [],
      "name": "claimAdmin",
      "outputs": [],
      "stateMutability": "nonpayable",
      "type": "function"
    },
    {
      "inputs": [
        {
          "internalType": "uint256",
          "name": "_pid",
          "type": "uint256"
        },
        {
          "internalType": "uint256",
          "name": "_amount",
          "type": "uint256"
        },
        {
          "internalType": "bool",
          "name": "_shouldHarvest",
          "type": "bool"
        }
      ],
      "name": "deposit",
      "outputs": [],
      "stateMutability": "nonpayable",
      "type": "function"
    },
    {
      "inputs": [
        {
          "internalType": "uint256",
          "name": "_pid",
          "type": "uint256"
        }
      ],
      "name": "emergencyWithdraw",
      "outputs": [],
      "stateMutability": "nonpayable",
      "type": "function"
    },
    {
      "inputs": [
        {
          "internalType": "uint256",
          "name": "_pid",
          "type": "uint256"
        }
      ],
      "name": "getPoolInfo",
      "outputs": [
        {
          "internalType": "uint256",
          "name": "totalStake",
          "type": "uint256"
        },
        {
          "internalType": "address",
          "name": "stakeToken",
          "type": "address"
        },
        {
          "internalType": "address",
          "name": "generatedToken",
          "type": "address"
        },
        {
          "internalType": "uint32",
          "name": "startTime",
          "type": "uint32"
        },
        {
          "internalType": "uint32",
          "name": "endTime",
          "type": "uint32"
        },
        {
          "internalType": "uint32",
          "name": "lastRewardTime",
          "type": "uint32"
        },
        {
          "internalType": "uint32",
          "name": "vestingDuration",
          "type": "uint32"
        },
        {
          "internalType": "uint256[]",
          "name": "rewardPerSeconds",
          "type": "uint256[]"
        },
        {
          "internalType": "uint256[]",
          "name": "rewardMultipliers",
          "type": "uint256[]"
        },
        {
          "internalType": "uint256[]",
          "name": "accRewardPerShares",
          "type": "uint256[]"
        }
      ],
      "stateMutability": "view",
      "type": "function"
    },
    {
      "inputs": [],
      "name": "getRewardTokens",
      "outputs": [
        {
          "internalType": "address[]",
          "name": "",
          "type": "address[]"
        }
      ],
      "stateMutability": "view",
      "type": "function"
    },
    {
      "inputs": [
        {
          "internalType": "uint256",
          "name": "_pid",
          "type": "uint256"
        },
        {
          "internalType": "address",
          "name": "_account",
          "type": "address"
        }
      ],
      "name": "getUserInfo",
      "outputs": [
        {
          "internalType": "uint256",
          "name": "amount",
          "type": "uint256"
        },
        {
          "internalType": "uint256[]",
          "name": "unclaimedRewards",
          "type": "uint256[]"
        },
        {
          "internalType": "uint256[]",
          "name": "lastRewardPerShares",
          "type": "uint256[]"
        }
      ],
      "stateMutability": "view",
      "type": "function"
    },
    {
      "inputs": [
        {
          "internalType": "uint256",
          "name": "_pid",
          "type": "uint256"
        }
      ],
      "name": "harvest",
      "outputs": [],
      "stateMutability": "nonpayable",
      "type": "function"
    },
    {
      "inputs": [
        {
          "internalType": "uint256[]",
          "name": "_pids",
          "type": "uint256[]"
        }
      ],
      "name": "harvestMultiplePools",
      "outputs": [],
      "stateMutability": "nonpayable",
      "type": "function"
    },
    {
      "inputs": [
        {
          "internalType": "uint256",
          "name": "",
          "type": "uint256"
        }
      ],
      "name": "multipliers",
      "outputs": [
        {
          "internalType": "uint256",
          "name": "",
          "type": "uint256"
        }
      ],
      "stateMutability": "view",
      "type": "function"
    },
    {
      "inputs": [],
      "name": "pendingAdmin",
      "outputs": [
        {
          "internalType": "address",
          "name": "",
          "type": "address"
        }
      ],
      "stateMutability": "view",
      "type": "function"
    },
    {
      "inputs": [
        {
          "internalType": "uint256",
          "name": "_pid",
          "type": "uint256"
        },
        {
          "internalType": "address",
          "name": "_user",
          "type": "address"
        }
      ],
      "name": "pendingRewards",
      "outputs": [
        {
          "internalType": "uint256[]",
          "name": "rewards",
          "type": "uint256[]"
        }
      ],
      "stateMutability": "view",
      "type": "function"
    },
    {
      "inputs": [
        {
          "internalType": "address",
          "name": "",
          "type": "address"
        }
      ],
      "name": "poolExists",
      "outputs": [
        {
          "internalType": "bool",
          "name": "",
          "type": "bool"
        }
      ],
      "stateMutability": "view",
      "type": "function"
    },
    {
      "inputs": [],
      "name": "poolLength",
      "outputs": [
        {
          "internalType": "uint256",
          "name": "",
          "type": "uint256"
        }
      ],
      "stateMutability": "view",
      "type": "function"
    },
    {
      "inputs": [
        {
          "internalType": "uint256",
          "name": "_pid",
          "type": "uint256"
        },
        {
          "internalType": "uint32",
          "name": "_startTime",
          "type": "uint32"
        },
        {
          "internalType": "uint32",
          "name": "_endTime",
          "type": "uint32"
        },
        {
          "internalType": "uint32",
          "name": "_vestingDuration",
          "type": "uint32"
        },
        {
          "internalType": "uint256[]",
          "name": "_totalRewards",
          "type": "uint256[]"
        }
      ],
      "name": "renewPool",
      "outputs": [],
      "stateMutability": "nonpayable",
      "type": "function"
    },
    {
      "inputs": [],
      "name": "rewardLocker",
      "outputs": [
        {
          "internalType": "contract IKyberRewardLockerV2",
          "name": "",
          "type": "address"
        }
      ],
      "stateMutability": "view",
      "type": "function"
    },
    {
      "inputs": [
        {
          "internalType": "uint256",
          "name": "",
          "type": "uint256"
        }
      ],
      "name": "rewardTokens",
      "outputs": [
        {
          "internalType": "address",
          "name": "",
          "type": "address"
        }
      ],
      "stateMutability": "view",
      "type": "function"
    },
    {
      "inputs": [
        {
          "internalType": "address",
          "name": "newAdmin",
          "type": "address"
        }
      ],
      "name": "transferAdmin",
      "outputs": [],
      "stateMutability": "nonpayable",
      "type": "function"
    },
    {
      "inputs": [
        {
          "internalType": "address",
          "name": "newAdmin",
          "type": "address"
        }
      ],
      "name": "transferAdminQuickly",
      "outputs": [],
      "stateMutability": "nonpayable",
      "type": "function"
    },
    {
      "inputs": [
        {
          "internalType": "uint256",
          "name": "_pid",
          "type": "uint256"
        },
        {
          "internalType": "uint32",
          "name": "_endTime",
          "type": "uint32"
        },
        {
          "internalType": "uint32",
          "name": "_vestingDuration",
          "type": "uint32"
        },
        {
          "internalType": "uint256[]",
          "name": "_totalRewards",
          "type": "uint256[]"
        }
      ],
      "name": "updatePool",
      "outputs": [],
      "stateMutability": "nonpayable",
      "type": "function"
    },
    {
      "inputs": [
        {
          "internalType": "uint256",
          "name": "_pid",
          "type": "uint256"
        }
      ],
      "name": "updatePoolRewards",
      "outputs": [],
      "stateMutability": "nonpayable",
      "type": "function"
    },
    {
      "inputs": [
        {
          "internalType": "uint256",
          "name": "_pid",
          "type": "uint256"
        },
        {
          "internalType": "uint256",
          "name": "_amount",
          "type": "uint256"
        }
      ],
      "name": "withdraw",
      "outputs": [],
      "stateMutability": "nonpayable",
      "type": "function"
    },
    {
      "inputs": [
        {
          "internalType": "uint256",
          "name": "_pid",
          "type": "uint256"
        }
      ],
      "name": "withdrawAll",
      "outputs": [],
      "stateMutability": "nonpayable",
      "type": "function"
    },
    {
      "stateMutability": "payable",
      "type": "receive"
    }
  ],
  "bytecode": "0x60a06040523480156200001157600080fd5b50604051620060963803806200609683398101604081905262000034916200077c565b826001600160a01b0381166200007b576040805162461bcd60e51b8152602060048201526007602482015266061646d696e20360cc1b604482015290519081900360640190fd5b600080546001600160a01b0319166001600160a01b039290921691909117905560016002558151620000b5906004906020850190620006b0565b506001600160601b0319606082901b1660805281516001600160401b0381118015620000e057600080fd5b506040519080825280602002602001820160405280156200010b578160200160208202803683370190505b50805162000122916005916020909101906200071a565b5060005b8251811015620002905760006001600160a01b03168382815181106200014857fe5b60200260200101516001600160a01b0316146200026a5760008382815181106200016e57fe5b60200260200101516001600160a01b031663313ce5676040518163ffffffff1660e01b815260040160206040518083038186803b158015620001af57600080fd5b505afa158015620001c4573d6000803e3d6000fd5b505050506040513d601f19601f82011682018060405250810190620001ea919062000865565b905060128160ff16101562000209578060120360ff16600a0a6200020c565b60015b600583815481106200021a57fe5b906000526020600020018190555062000263836000198685815181106200023d57fe5b60200260200101516001600160a01b03166200029a60201b62002ad8179092919060201c565b5062000287565b6001600582815481106200027a57fe5b6000918252602090912001555b60010162000126565b50505050620008a1565b80158062000324575060408051636eb1769f60e11b81523060048201526001600160a01b03848116602483015291519185169163dd62ed3e91604480820192602092909190829003018186803b158015620002f457600080fd5b505afa15801562000309573d6000803e3d6000fd5b505050506040513d60208110156200032057600080fd5b5051155b620003615760405162461bcd60e51b8152600401808060200182810382526036815260200180620060606036913960400191505060405180910390fd5b604080516001600160a01b038416602482015260448082018490528251808303909101815260649091019091526020810180516001600160e01b0390811663095ea7b360e01b17909152620003b9918591620003be16565b505050565b60006200041a826040518060400160405280602081526020017f5361666545524332303a206c6f772d6c6576656c2063616c6c206661696c6564815250856001600160a01b03166200047a60201b62002c6e179092919060201c565b805190915015620003b9578080602001905160208110156200043b57600080fd5b5051620003b95760405162461bcd60e51b815260040180806020018281038252602a81526020018062006036602a913960400191505060405180910390fd5b60606200048b848460008562000495565b90505b9392505050565b606082471015620004d85760405162461bcd60e51b8152600401808060200182810382526026815260200180620060106026913960400191505060405180910390fd5b620004e385620005fc565b62000535576040805162461bcd60e51b815260206004820152601d60248201527f416464726573733a2063616c6c20746f206e6f6e2d636f6e7472616374000000604482015290519081900360640190fd5b600080866001600160a01b031685876040518082805190602001908083835b60208310620005755780518252601f19909201916020918201910162000554565b6001836020036101000a03801982511681845116808217855250505050505090500191505060006040518083038185875af1925050503d8060008114620005d9576040519150601f19603f3d011682016040523d82523d6000602084013e620005de565b606091505b509092509050620005f182828662000606565b979650505050505050565b803b15155b919050565b60608315620006175750816200048e565b825115620006285782518084602001fd5b8160405162461bcd60e51b81526004018080602001828103825283818151815260200191508051906020019080838360005b83811015620006745781810151838201526020016200065a565b50505050905090810190601f168015620006a25780820380516001836020036101000a031916815260200191505b509250505060405180910390fd5b82805482825590600052602060002090810192821562000708579160200282015b828111156200070857825182546001600160a01b0319166001600160a01b03909116178255602090920191600190910190620006d1565b506200071692915062000758565b5090565b82805482825590600052602060002090810192821562000708579160200282015b82811115620007085782518255916020019190600101906200073b565b5b8082111562000716576000815560010162000759565b8051620006018162000888565b60008060006060848603121562000791578283fd5b83516200079e8162000888565b602085810151919450906001600160401b0380821115620007bd578485fd5b818701915087601f830112620007d1578485fd5b815181811115620007de57fe5b83810260405185828201018181108582111715620007f857fe5b604052828152858101935084860182860187018c101562000817578889fd5b8895505b8386101562000844576200082f816200076f565b8552600195909501949386019386016200081b565b508097505050505050506200085c604085016200076f565b90509250925092565b60006020828403121562000877578081fd5b815160ff811681146200048e578182fd5b6001600160a01b03811681146200089e57600080fd5b50565b60805160601c61574c620008c460003980610959528061336b525061574c6000f3fe608060405260043610620001c35760003560e01c80637acc867811620000f7578063c401fb4f1162000097578063d18df53c116200006d578063d18df53c1462000508578063ddc63262146200053c578063f851a4401462000561578063fef12687146200057957620001cb565b8063c401fb4f1462000497578063c4f59f9b14620004bc578063d12e4ceb14620004e357620001cb565b8063a3a19dfb11620000cd578063a3a19dfb1462000428578063ac7fc263146200044d578063adb82b31146200047257620001cb565b80637acc867814620003b95780637bb7bed114620003de578063958e2d31146200040357620001cb565b806343a0d06611620001635780635312ea8e11620001395780635312ea8e146200035757806375829def146200037c57806377f50f9714620003a157620001cb565b806343a0d06614620002e6578063441a3e70146200030d57806352fd9f2f146200033257620001cb565b806326782247116200019957806326782247146200026a5780632f380b3514620002915780633892601c14620002ce57620001cb565b8063081e3eda14620001d05780631069f3b514620002005780631e1c6a07146200023657620001cb565b36620001cb57005b600080fd5b348015620001dd57600080fd5b50620001e86200059e565b604051620001f791906200429d565b60405180910390f35b3480156200020d57600080fd5b50620002256200021f36600462003bd9565b620005a4565b604051620001f7939291906200434b565b3480156200024357600080fd5b506200025b6200025536600462003a81565b620006eb565b604051620001f7919062003ec6565b3480156200027757600080fd5b506200028262000700565b604051620001f7919062003e0e565b3480156200029e57600080fd5b50620002b6620002b036600462003bc0565b6200071c565b604051620001f79a99989796959493929190620042a6565b348015620002db57600080fd5b506200028262000957565b348015620002f357600080fd5b506200030b6200030536600462003c29565b6200097b565b005b3480156200031a57600080fd5b506200030b6200032c36600462003c07565b62000b8f565b3480156200033f57600080fd5b506200030b6200035136600462003b7c565b62000c1a565b3480156200036457600080fd5b506200030b6200037636600462003bc0565b62001014565b3480156200038957600080fd5b506200030b6200039b36600462003a81565b6200123d565b348015620003ae57600080fd5b506200030b620013d7565b348015620003c657600080fd5b506200030b620003d836600462003a81565b62001503565b348015620003eb57600080fd5b5062000282620003fd36600462003bc0565b620016f2565b3480156200041057600080fd5b506200030b6200042236600462003bc0565b6200172a565b3480156200043557600080fd5b506200030b6200044736600462003c67565b620017cf565b3480156200045a57600080fd5b50620001e86200046c36600462003bc0565b62001b37565b3480156200047f57600080fd5b506200030b6200049136600462003bc0565b62001b59565b348015620004a457600080fd5b506200030b620004b636600462003cdc565b62001d4c565b348015620004c957600080fd5b50620004d462002118565b604051620001f7919062003e55565b348015620004f057600080fd5b506200030b6200050236600462003c07565b62002189565b3480156200051557600080fd5b506200052d6200052736600462003bd9565b62002323565b604051620001f7919062003eb1565b3480156200054957600080fd5b506200030b6200055b36600462003bc0565b6200252a565b3480156200056e57600080fd5b506200028262002543565b3480156200058657600080fd5b506200030b6200059836600462003a9e565b6200255f565b60065481565b600082815260086020908152604080832073ffffffffffffffffffffffffffffffffffffffff8516845290915290208054600454909160609182919067ffffffffffffffff81118015620005f757600080fd5b5060405190808252806020026020018201604052801562000622578160200160208202803683370190505b5060045490935067ffffffffffffffff811180156200064057600080fd5b506040519080825280602002602001820160405280156200066b578160200160208202803683370190505b50915060005b600454811015620006e257600081815260018301602052604090205484518590839081106200069c57fe5b60200260200101818152505081600101600082815260200190815260200160002060010154838281518110620006ce57fe5b602090810291909101015260010162000671565b50509250925092565b60036020526000908152604090205460ff1681565b60015473ffffffffffffffffffffffffffffffffffffffff1681565b60008181526007602052604090208054600182015460028301546003840154600454939473ffffffffffffffffffffffffffffffffffffffff938416949383169363ffffffff740100000000000000000000000000000000000000008504811694780100000000000000000000000000000000000000000000000081048216947c0100000000000000000000000000000000000000000000000000000000909104821693911691606091829182919067ffffffffffffffff81118015620007e257600080fd5b506040519080825280602002602001820160405280156200080d578160200160208202803683370190505b5060055490945067ffffffffffffffff811180156200082b57600080fd5b5060405190808252806020026020018201604052801562000856578160200160208202803683370190505b5060045490935067ffffffffffffffff811180156200087457600080fd5b506040519080825280602002602001820160405280156200089f578160200160208202803683370190505b50915060005b600454811015620009485760008181526004830160205260409020548551869083908110620008d057fe5b60200260200101818152505060058181548110620008ea57fe5b90600052602060002001548482815181106200090257fe5b602002602001018181525050816004016000828152602001908152602001600020600101548382815181106200093457fe5b6020908102919091010152600101620008a5565b50509193959799509193959799565b7f000000000000000000000000000000000000000000000000000000000000000081565b600280541415620009ed57604080517f08c379a000000000000000000000000000000000000000000000000000000000815260206004820152601f60248201527f5265656e7472616e637947756172643a207265656e7472616e742063616c6c00604482015290519081900360640190fd5b60028055620009fc8362001b59565b62000a0933848362002c89565b60008381526007602090815260408083206008835281842033808652935292206001830154909162000a549173ffffffffffffffffffffffffffffffffffffffff1690308762002f26565b600282015473ffffffffffffffffffffffffffffffffffffffff16801562000b01576040517f40c10f1900000000000000000000000000000000000000000000000000000000815273ffffffffffffffffffffffffffffffffffffffff8216906340c10f199062000acc903390899060040162003e2f565b600060405180830381600087803b15801562000ae757600080fd5b505af115801562000afc573d6000803e3d6000fd5b505050505b815462000b0f908662002fc3565b8255825462000b1f908662002fc3565b835562000b2b62003041565b63ffffffff16863373ffffffffffffffffffffffffffffffffffffffff167f36af321ec8d3c75236829c5317affd40ddb308863a1236d2d277a4025cccee1e8860405162000b7a91906200429d565b60405180910390a45050600160025550505050565b60028054141562000c0157604080517f08c379a000000000000000000000000000000000000000000000000000000000815260206004820152601f60248201527f5265656e7472616e637947756172643a207265656e7472616e742063616c6c00604482015290519081900360640190fd5b6002805562000c11828262003045565b50506001600255565b8062000c5d576040517f08c379a000000000000000000000000000000000000000000000000000000000815260040162000c549062003f3e565b60405180910390fd5b62000c6982826200321a565b62000ca85760005b8181101562000ca15762000c9883838381811062000c8b57fe5b905060200201356200252a565b60010162000c71565b5062001010565b6000600480548060200260200160405190810160405280929190818152602001828054801562000d0f57602002820191906000526020600020905b815473ffffffffffffffffffffffffffffffffffffffff16815260019091019060200180831162000ce3575b505050505090506000815167ffffffffffffffff8111801562000d3157600080fd5b5060405190808252806020026020018201604052801562000d5c578160200160208202803683370190505b509050336000805b8581101562000f335786868281811062000d7a57fe5b90506020020135915062000d8e8262001b59565b62000d9c8383600062002c89565b60005b855181101562000f2957600083815260086020908152604080832073ffffffffffffffffffffffffffffffffffffffff881684528252808320848452600101909152902054801562000f1f5762000e148187848151811062000dfd57fe5b602002602001015162002fc390919063ffffffff16565b86838151811062000e2157fe5b602090810291909101810191909152600085815260088252604080822073ffffffffffffffffffffffffffffffffffffffff89168352835280822085835260010190925290812055865187908390811062000e7857fe5b602002602001015173ffffffffffffffffffffffffffffffffffffffff16848673ffffffffffffffffffffffffffffffffffffffff167ff75f3d433c6628e04e01a0be1a2c6692a6011ce4b00389824cfa8b8a12f3c1c462000efc6005878154811062000ee157fe5b906000526020600020015486620032bb90919063ffffffff16565b62000f0662003041565b60405162000f1692919062004384565b60405180910390a45b5060010162000d9f565b5060010162000d64565b5060005b83518110156200100a576000600760008989600081811062000f5557fe5b90506020020135815260200190815260200160002060030160009054906101000a900463ffffffff169050600085838151811062000f8f57fe5b6020026020010151111562001000576200100086838151811062000faf57fe5b60200260200101518562000ff96005868154811062000fca57fe5b906000526020600020015489878151811062000fe257fe5b6020026020010151620032bb90919063ffffffff16565b846200333e565b5060010162000f37565b50505050505b5050565b6002805414156200108657604080517f08c379a000000000000000000000000000000000000000000000000000000000815260206004820152601f60248201527f5265656e7472616e637947756172643a207265656e7472616e742063616c6c00604482015290519081900360640190fd5b600280556000818152600760209081526040808320600883528184203385529092528220805483825591929091905b600454811015620010e25760008181526001808501602052604082208082018390559190915501620010b5565b508254620010f1908262003406565b83558015620011d157600283015473ffffffffffffffffffffffffffffffffffffffff168015620011a7576040517f9dc29fac00000000000000000000000000000000000000000000000000000000815273ffffffffffffffffffffffffffffffffffffffff821690639dc29fac9062001172903390869060040162003e2f565b600060405180830381600087803b1580156200118d57600080fd5b505af1158015620011a2573d6000803e3d6000fd5b505050505b6001840154620011cf9073ffffffffffffffffffffffffffffffffffffffff1633846200347e565b505b620011db62003041565b63ffffffff16843373ffffffffffffffffffffffffffffffffffffffff167f2369db1bafee945aee5630782f4a170682e3f8188d8dc247a4c73eb8c9e692d2846040516200122a91906200429d565b60405180910390a4505060016002555050565b60005473ffffffffffffffffffffffffffffffffffffffff163314620012c457604080517f08c379a000000000000000000000000000000000000000000000000000000000815260206004820152600a60248201527f6f6e6c792061646d696e00000000000000000000000000000000000000000000604482015290519081900360640190fd5b73ffffffffffffffffffffffffffffffffffffffff81166200134757604080517f08c379a000000000000000000000000000000000000000000000000000000000815260206004820152600b60248201527f6e65772061646d696e2030000000000000000000000000000000000000000000604482015290519081900360640190fd5b6040805173ffffffffffffffffffffffffffffffffffffffff8316815290517f3b81caf78fa51ecbc8acb482fd7012a277b428d9b80f9d156e8a54107496cc409181900360200190a1600180547fffffffffffffffffffffffff00000000000000000000000000000000000000001673ffffffffffffffffffffffffffffffffffffffff92909216919091179055565b60015473ffffffffffffffffffffffffffffffffffffffff1633146200145e57604080517f08c379a000000000000000000000000000000000000000000000000000000000815260206004820152600b60248201527f6e6f742070656e64696e67000000000000000000000000000000000000000000604482015290519081900360640190fd5b6001546000546040805173ffffffffffffffffffffffffffffffffffffffff938416815292909116602083015280517f65da1cfc2c2e81576ad96afb24a581f8e109b7a403b35cbd3243a1c99efdb9ed9281900390910190a160018054600080547fffffffffffffffffffffffff000000000000000000000000000000000000000090811673ffffffffffffffffffffffffffffffffffffffff841617909155169055565b60005473ffffffffffffffffffffffffffffffffffffffff1633146200158a57604080517f08c379a000000000000000000000000000000000000000000000000000000000815260206004820152600a60248201527f6f6e6c792061646d696e00000000000000000000000000000000000000000000604482015290519081900360640190fd5b73ffffffffffffffffffffffffffffffffffffffff81166200160d57604080517f08c379a000000000000000000000000000000000000000000000000000000000815260206004820152600760248201527f61646d696e203000000000000000000000000000000000000000000000000000604482015290519081900360640190fd5b6040805173ffffffffffffffffffffffffffffffffffffffff8316815290517f3b81caf78fa51ecbc8acb482fd7012a277b428d9b80f9d156e8a54107496cc409181900360200190a16000546040805173ffffffffffffffffffffffffffffffffffffffff8085168252909216602083015280517f65da1cfc2c2e81576ad96afb24a581f8e109b7a403b35cbd3243a1c99efdb9ed9281900390910190a1600080547fffffffffffffffffffffffff00000000000000000000000000000000000000001673ffffffffffffffffffffffffffffffffffffffff92909216919091179055565b600481815481106200170357600080fd5b60009182526020909120015473ffffffffffffffffffffffffffffffffffffffff16905081565b6002805414156200179c57604080517f08c379a000000000000000000000000000000000000000000000000000000000815260206004820152601f60248201527f5265656e7472616e637947756172643a207265656e7472616e742063616c6c00604482015290519081900360640190fd5b600280556000818152600860209081526040808320338452909152902054620017c790829062003045565b506001600255565b60005473ffffffffffffffffffffffffffffffffffffffff1633146200185657604080517f08c379a000000000000000000000000000000000000000000000000000000000815260206004820152600a60248201527f6f6e6c792061646d696e00000000000000000000000000000000000000000000604482015290519081900360640190fd5b620018618562001b59565b60008581526007602052604090206200187962003041565b600282015463ffffffff918216780100000000000000000000000000000000000000000000000090910490911611620018e0576040517f08c379a000000000000000000000000000000000000000000000000000000000815260040162000c549062004266565b60045482146200191e576040517f08c379a000000000000000000000000000000000000000000000000000000000815260040162000c549062003fe3565b6200192862003041565b63ffffffff168563ffffffff16118015620019685750600281015463ffffffff740100000000000000000000000000000000000000009091048116908616115b620019a1576040517f08c379a000000000000000000000000000000000000000000000000000000000815260040162000c549062004088565b6002810180547fffffffff00000000ffffffffffffffffffffffffffffffffffffffffffffffff16780100000000000000000000000000000000000000000000000063ffffffff88811691909102919091179091556003820180547fffffffffffffffffffffffffffffffffffffffffffffffffffffffff000000001691861691909117905560005b8281101562001af357600062001a9d8360020160149054906101000a900463ffffffff16880363ffffffff1662001a966005858154811062001a6857fe5b906000526020600020015488888781811062001a8057fe5b905060200201356200350d90919063ffffffff16565b90620032bb565b90508062001ad9576040517f08c379a000000000000000000000000000000000000000000000000000000000815260040162000c54906200412d565b600082815260048401602052604090205560010162001a2a565b508363ffffffff168563ffffffff16877f5af4b4ed394dca9f180924459d4de6143b41833ed4899ddafbd0aa26de5ff7b560405160405180910390a4505050505050565b6005818154811062001b4857600080fd5b600091825260209091200154905081565b600654811062001b97576040517f08c379a000000000000000000000000000000000000000000000000000000000815260040162000c54906200401a565b60008181526007602052604081209062001bb18362003585565b600283015490915063ffffffff7c010000000000000000000000000000000000000000000000000000000090910481169082161162001bf257505062001d49565b81548062001c5557506002909101805463ffffffff9092167c0100000000000000000000000000000000000000000000000000000000027bffffffffffffffffffffffffffffffffffffffffffffffffffffffff90921691909117905562001d49565b600283015463ffffffff7c0100000000000000000000000000000000000000000000000000000000909104811683031660005b60045481101562001cf15760008181526004860160205260408120805490919062001cb59085906200350d565b905062001ce38562001ccd8364e8d4a510006200350d565b8162001cd557fe5b600185015491900462002fc3565b600192830155500162001c88565b5050506002909101805463ffffffff9092167c0100000000000000000000000000000000000000000000000000000000027bffffffffffffffffffffffffffffffffffffffffffffffffffffffff9092169190911790555b50565b60005473ffffffffffffffffffffffffffffffffffffffff16331462001dd357604080517f08c379a000000000000000000000000000000000000000000000000000000000815260206004820152600a60248201527f6f6e6c792061646d696e00000000000000000000000000000000000000000000604482015290519081900360640190fd5b62001dde8662001b59565b600086815260076020526040902062001df662003041565b600282015463ffffffff91821674010000000000000000000000000000000000000000909104909116118062001e60575062001e3162003041565b600282015463ffffffff9182167801000000000000000000000000000000000000000000000000909104909116105b62001e99576040517f08c379a000000000000000000000000000000000000000000000000000000000815260040162000c549062004209565b600454821462001ed7576040517f08c379a000000000000000000000000000000000000000000000000000000000815260040162000c5490620040f6565b62001ee162003041565b63ffffffff168663ffffffff1611801562001f0757508563ffffffff168563ffffffff16115b62001f40576040517f08c379a000000000000000000000000000000000000000000000000000000000815260040162000c5490620040bf565b6002810180547fffffffffffffffff00000000ffffffffffffffffffffffffffffffffffffffff167401000000000000000000000000000000000000000063ffffffff898116918202929092177fffffffff00000000ffffffffffffffffffffffffffffffffffffffffffffffff16780100000000000000000000000000000000000000000000000089841602177bffffffffffffffffffffffffffffffffffffffffffffffffffffffff167c010000000000000000000000000000000000000000000000000000000091909102179091556003820180547fffffffffffffffffffffffffffffffffffffffffffffffffffffffff000000001691861691909117905560005b82811015620020c65760006200207088880363ffffffff1662001a966005858154811062001a6857fe5b905080620020ac576040517f08c379a000000000000000000000000000000000000000000000000000000000815260040162000c54906200412d565b600082815260048401602052604090205560010162002046565b508463ffffffff168663ffffffff16887fb604531d649168314d05bda3f75bfa2aab29e79121f8cee6dc685dc2a031c43d8760405162002107919062004398565b60405180910390a450505050505050565b606060048054806020026020016040519081016040528092919081815260200182805480156200217f57602002820191906000526020600020905b815473ffffffffffffffffffffffffffffffffffffffff16815260019091019060200180831162002153575b5050505050905090565b60005473ffffffffffffffffffffffffffffffffffffffff1633146200221057604080517f08c379a000000000000000000000000000000000000000000000000000000000815260206004820152600a60248201527f6f6e6c792061646d696e00000000000000000000000000000000000000000000604482015290519081900360640190fd5b6000600483815481106200222057fe5b60009182526020909120015473ffffffffffffffffffffffffffffffffffffffff16905080620022fb5760003373ffffffffffffffffffffffffffffffffffffffff1683604051620022729062003e0b565b60006040518083038185875af1925050503d8060008114620022b1576040519150601f19603f3d011682016040523d82523d6000602084013e620022b6565b606091505b5050905080620022f4576040517f08c379a000000000000000000000000000000000000000000000000000000000815260040162000c54906200419b565b506200231e565b6200231e73ffffffffffffffffffffffffffffffffffffffff821633846200347e565b505050565b6004546060908067ffffffffffffffff811180156200234157600080fd5b506040519080825280602002602001820160405280156200236c578160200160208202803683370190505b5060008581526007602090815260408083206008835281842073ffffffffffffffffffffffffffffffffffffffff89168552909252822081546002830154949650919390927c010000000000000000000000000000000000000000000000000000000090910463ffffffff1690620023e48962003585565b905060005b868110156200251d57600081815260048701602052604090206001015463ffffffff8316841080156200241b57508415155b15620024795760008281526004880160205260408120546200244b9063ffffffff80871688900391906200350d16565b90506200247586620024638364e8d4a510006200350d565b816200246b57fe5b8491900462002fc3565b9150505b600082815260018088016020526040909120015464e8d4a5100090620024af90620024a690849062003406565b8854906200350d565b81620024b757fe5b04898381518110620024c557fe5b602002602001018181525050620024fb866001016000848152602001908152602001600020600001548a848151811062000dfd57fe5b8983815181106200250857fe5b602090810291909101015250600101620023e9565b5050505050505092915050565b620025358162001b59565b62001d493382600162002c89565b60005473ffffffffffffffffffffffffffffffffffffffff1681565b60005473ffffffffffffffffffffffffffffffffffffffff163314620025e657604080517f08c379a000000000000000000000000000000000000000000000000000000000815260206004820152600a60248201527f6f6e6c792061646d696e00000000000000000000000000000000000000000000604482015290519081900360640190fd5b73ffffffffffffffffffffffffffffffffffffffff881660009081526003602052604090205460ff161562002649576040517f08c379a000000000000000000000000000000000000000000000000000000000815260040162000c5490620041d2565b73ffffffffffffffffffffffffffffffffffffffff881662002699576040517f08c379a000000000000000000000000000000000000000000000000000000000815260040162000c549062003f75565b6004548314620026d7576040517f08c379a000000000000000000000000000000000000000000000000000000000815260040162000c549062004051565b620026e162003041565b63ffffffff168763ffffffff161180156200270757508663ffffffff168663ffffffff16115b62002740576040517f08c379a000000000000000000000000000000000000000000000000000000000815260040162000c549062003fac565b60008251600014158015620027555750815115155b15620027eb5782826040516200276b9062003956565b6200277892919062003f0c565b604051809103906000f08015801562002795573d6000803e3d6000fd5b50600654600090815260076020526040902060020180547fffffffffffffffffffffffff00000000000000000000000000000000000000001673ffffffffffffffffffffffffffffffffffffffff831617905590505b6006805460009081526007602052604080822060010180547fffffffffffffffffffffffff00000000000000000000000000000000000000001673ffffffffffffffffffffffffffffffffffffffff8e1617905582548252808220600290810180547fffffffffffffffff00000000ffffffffffffffffffffffffffffffffffffffff167401000000000000000000000000000000000000000063ffffffff8f81169182029290921790925585548552838520830180547fffffffff00000000ffffffffffffffffffffffffffffffffffffffffffffffff1678010000000000000000000000000000000000000000000000008f8416021790558554855283852090920180547bffffffffffffffffffffffffffffffffffffffffffffffffffffffff167c010000000000000000000000000000000000000000000000000000000090920291909117905592548252812060030180547fffffffffffffffffffffffffffffffffffffffffffffffffffffffff0000000016928916929092179091555b8481101562002a2c576000620029b08a8a0363ffffffff1662001a96600585815481106200299857fe5b90600052602060002001548a8a8781811062001a8057fe5b905080620029ec576040517f08c379a000000000000000000000000000000000000000000000000000000000815260040162000c54906200412d565b604080518082018252918252600060208084018281526006548352600782528383208684526004019091529190209151825551600191820155016200296e565b5060068054600190810190915573ffffffffffffffffffffffffffffffffffffffff808b166000818152600360205260409081902080547fffffffffffffffffffffffffffffffffffffffffffffffffffffffffffffff0016909417909355915190831691907fee97de5694d00acf6fe59073e574f8fa17901ad0ce3eabb3740a73b4a4fc8b629062002ac5908c908c908c90620043a9565b60405180910390a3505050505050505050565b80158062002b885750604080517fdd62ed3e00000000000000000000000000000000000000000000000000000000815230600482015273ffffffffffffffffffffffffffffffffffffffff848116602483015291519185169163dd62ed3e91604480820192602092909190829003018186803b15801562002b5857600080fd5b505afa15801562002b6d573d6000803e3d6000fd5b505050506040513d602081101562002b8457600080fd5b5051155b62002bdf576040517f08c379a0000000000000000000000000000000000000000000000000000000008152600401808060200182810382526036815260200180620056e16036913960400191505060405180910390fd5b6040805173ffffffffffffffffffffffffffffffffffffffff8416602482015260448082018490528251808303909101815260649091019091526020810180517bffffffffffffffffffffffffffffffffffffffffffffffffffffffff167f095ea7b3000000000000000000000000000000000000000000000000000000001790526200231e908490620035e9565b606062002c7f8484600085620036c7565b90505b9392505050565b600082815260086020908152604080832073ffffffffffffffffffffffffffffffffffffffff871684529091529020546004548162002d355760005b8181101562002d2c57600085815260076020908152604080832084845260040182528083206001908101548985526008845282852073ffffffffffffffffffffffffffffffffffffffff8c1686528452828520868652820190935292208201550162002cc5565b5050506200231e565b60005b8181101562002f1e57600085815260076020908152604080832084845260040182528083206001908101548985526008845282852073ffffffffffffffffffffffffffffffffffffffff8c16865284528285208686528201909352908320908101549192909164e8d4a510009062002dbf9062002db790869062003406565b88906200350d565b8162002dc757fe5b8354919004915062002ddb90829062002fc3565b90508662002dea578062002ded565b60005b82556001820183905586801562002e045750600081115b1562002f1257600062002e396005868154811062002e1e57fe5b906000526020600020015483620032bb90919063ffffffff16565b905062002e956004868154811062002e4d57fe5b60009182526020808320909101548c8352600790915260409091206003015473ffffffffffffffffffffffffffffffffffffffff909116908c90849063ffffffff166200333e565b6004858154811062002ea357fe5b60009182526020909120015473ffffffffffffffffffffffffffffffffffffffff908116908a908c167ff75f3d433c6628e04e01a0be1a2c6692a6011ce4b00389824cfa8b8a12f3c1c48462002ef862003041565b60405162002f0892919062004384565b60405180910390a4505b50505060010162002d38565b505050505050565b6040805173ffffffffffffffffffffffffffffffffffffffff80861660248301528416604482015260648082018490528251808303909101815260849091019091526020810180517bffffffffffffffffffffffffffffffffffffffffffffffffffffffff167f23b872dd0000000000000000000000000000000000000000000000000000000017905262002fbd908590620035e9565b50505050565b6000828201838110156200303857604080517f08c379a000000000000000000000000000000000000000000000000000000000815260206004820152601b60248201527f536166654d6174683a206164646974696f6e206f766572666c6f770000000000604482015290519081900360640190fd5b90505b92915050565b4290565b6000828152600760209081526040808320600883528184203385529092529091208054831115620030a4576040517f08c379a000000000000000000000000000000000000000000000000000000000815260040162000c549062004164565b620030af8462001b59565b620030bd3385600162002c89565b8054620030cb908462003406565b81558154620030db908462003406565b8255600282015473ffffffffffffffffffffffffffffffffffffffff1680156200318a576040517f9dc29fac00000000000000000000000000000000000000000000000000000000815273ffffffffffffffffffffffffffffffffffffffff821690639dc29fac9062003155903390889060040162003e2f565b600060405180830381600087803b1580156200317057600080fd5b505af115801562003185573d6000803e3d6000fd5b505050505b6001830154620031b29073ffffffffffffffffffffffffffffffffffffffff1633866200347e565b620031bc62003041565b63ffffffff16853373ffffffffffffffffffffffffffffffffffffffff167f02f25270a4d87bea75db541cdfe559334a275b4a233520ed6c0a2429667cca94876040516200320b91906200429d565b60405180910390a45050505050565b60008060076000858560008181106200322f57fe5b602090810292909201358352508101919091526040016000206003015463ffffffff16905060015b83811015620032b05781600760008787858181106200327257fe5b602090810292909201358352508101919091526040016000206003015463ffffffff1614620032a7576000925050506200303b565b60010162003257565b506001949350505050565b60008082116200332c57604080517f08c379a000000000000000000000000000000000000000000000000000000000815260206004820152601a60248201527f536166654d6174683a206469766973696f6e206279207a65726f000000000000604482015290519081900360640190fd5b8183816200333657fe5b049392505050565b600073ffffffffffffffffffffffffffffffffffffffff8516156200336557600062003367565b825b90507f000000000000000000000000000000000000000000000000000000000000000073ffffffffffffffffffffffffffffffffffffffff16631e2fabb682878787876040518663ffffffff1660e01b8152600401620033cb949392919062003ed1565b6000604051808303818588803b158015620033e557600080fd5b505af1158015620033fa573d6000803e3d6000fd5b50505050505050505050565b6000828211156200347857604080517f08c379a000000000000000000000000000000000000000000000000000000000815260206004820152601e60248201527f536166654d6174683a207375627472616374696f6e206f766572666c6f770000604482015290519081900360640190fd5b50900390565b6040805173ffffffffffffffffffffffffffffffffffffffff8416602482015260448082018490528251808303909101815260649091019091526020810180517bffffffffffffffffffffffffffffffffffffffffffffffffffffffff167fa9059cbb000000000000000000000000000000000000000000000000000000001790526200231e908490620035e9565b6000826200351e575060006200303b565b828202828482816200352c57fe5b041462003038576040517f08c379a0000000000000000000000000000000000000000000000000000000008152600401808060200182810382526021815260200180620056966021913960400191505060405180910390fd5b6000818152600760205260409020600201547801000000000000000000000000000000000000000000000000900463ffffffff16620035c362003041565b63ffffffff168163ffffffff161115620035e457620035e162003041565b90505b919050565b60006200364d826040518060400160405280602081526020017f5361666545524332303a206c6f772d6c6576656c2063616c6c206661696c65648152508573ffffffffffffffffffffffffffffffffffffffff1662002c6e9092919063ffffffff16565b8051909150156200231e578080602001905160208110156200366e57600080fd5b50516200231e576040517f08c379a000000000000000000000000000000000000000000000000000000000815260040180806020018281038252602a815260200180620056b7602a913960400191505060405180910390fd5b60608247101562003724576040517f08c379a0000000000000000000000000000000000000000000000000000000008152600401808060200182810382526026815260200180620056706026913960400191505060405180910390fd5b6200372f856200388c565b6200379b57604080517f08c379a000000000000000000000000000000000000000000000000000000000815260206004820152601d60248201527f416464726573733a2063616c6c20746f206e6f6e2d636f6e7472616374000000604482015290519081900360640190fd5b6000808673ffffffffffffffffffffffffffffffffffffffff1685876040518082805190602001908083835b602083106200380657805182527fffffffffffffffffffffffffffffffffffffffffffffffffffffffffffffffe09092019160209182019101620037c7565b6001836020036101000a03801982511681845116808217855250505050505090500191505060006040518083038185875af1925050503d80600081146200386a576040519150601f19603f3d011682016040523d82523d6000602084013e6200386f565b606091505b50915091506200388182828662003892565b979650505050505050565b3b151590565b60608315620038a357508162002c82565b825115620038b45782518084602001fd5b816040517f08c379a00000000000000000000000000000000000000000000000000000000081526004018080602001828103825283818151815260200191508051906020019080838360005b838110156200391a57818101518382015260200162003900565b50505050905090810190601f168015620039485780820380516001836020036101000a031916815260200191505b509250505060405180910390fd5b6112a680620043ca83390190565b803573ffffffffffffffffffffffffffffffffffffffff81168114620035e457600080fd5b60008083601f8401126200399b578081fd5b50813567ffffffffffffffff811115620039b3578182fd5b6020830191508360208083028501011115620039ce57600080fd5b9250929050565b600082601f830112620039e6578081fd5b813567ffffffffffffffff80821115620039fc57fe5b60405160207fffffffffffffffffffffffffffffffffffffffffffffffffffffffffffffffe0601f850116820101818110838211171562003a3957fe5b60405282815284830160200186101562003a51578384fd5b82602086016020830137918201602001929092529392505050565b803563ffffffff81168114620035e457600080fd5b60006020828403121562003a93578081fd5b62002c828262003964565b60008060008060008060008060e0898b03121562003aba578384fd5b62003ac58962003964565b975062003ad560208a0162003a6c565b965062003ae560408a0162003a6c565b955062003af560608a0162003a6c565b9450608089013567ffffffffffffffff8082111562003b12578586fd5b62003b208c838d0162003989565b909650945060a08b013591508082111562003b39578384fd5b62003b478c838d01620039d5565b935060c08b013591508082111562003b5d578283fd5b5062003b6c8b828c01620039d5565b9150509295985092959890939650565b6000806020838503121562003b8f578182fd5b823567ffffffffffffffff81111562003ba6578283fd5b62003bb48582860162003989565b90969095509350505050565b60006020828403121562003bd2578081fd5b5035919050565b6000806040838503121562003bec578182fd5b8235915062003bfe6020840162003964565b90509250929050565b6000806040838503121562003c1a578182fd5b50508035926020909101359150565b60008060006060848603121562003c3e578283fd5b83359250602084013591506040840135801515811462003c5c578182fd5b809150509250925092565b60008060008060006080868803121562003c7f578081fd5b8535945062003c916020870162003a6c565b935062003ca16040870162003a6c565b9250606086013567ffffffffffffffff81111562003cbd578182fd5b62003ccb8882890162003989565b969995985093965092949392505050565b60008060008060008060a0878903121562003cf5578182fd5b8635955062003d076020880162003a6c565b945062003d176040880162003a6c565b935062003d276060880162003a6c565b9250608087013567ffffffffffffffff81111562003d43578283fd5b62003d5189828a0162003989565b979a9699509497509295939492505050565b6000815180845260208085019450808401835b8381101562003d945781518752958201959082019060010162003d76565b509495945050505050565b60008151808452815b8181101562003dc65760208185018101518683018201520162003da8565b8181111562003dd85782602083870101525b50601f017fffffffffffffffffffffffffffffffffffffffffffffffffffffffffffffffe0169290920160200192915050565b90565b73ffffffffffffffffffffffffffffffffffffffff91909116815260200190565b73ffffffffffffffffffffffffffffffffffffffff929092168252602082015260400190565b6020808252825182820181905260009190848201906040850190845b8181101562003ea557835173ffffffffffffffffffffffffffffffffffffffff168352928401929184019160010162003e71565b50909695505050505050565b60006020825262002c82602083018462003d63565b901515815260200190565b73ffffffffffffffffffffffffffffffffffffffff9485168152929093166020830152604082015263ffffffff909116606082015260800190565b60006040825262003f21604083018562003d9f565b828103602084015262003f35818562003d9f565b95945050505050565b60208082526017908201527f686172766573743a20656d70747920706f6f6c20696473000000000000000000604082015260600190565b60208082526018908201527f6164643a20696e76616c6964207374616b6520746f6b656e0000000000000000604082015260600190565b60208082526012908201527f6164643a20696e76616c69642074696d65730000000000000000000000000000604082015260600190565b60208082526016908201527f7570646174653a20696e76616c6964206c656e67746800000000000000000000604082015260600190565b6020808252600f908201527f696e76616c696420706f6f6c2069640000000000000000000000000000000000604082015260600190565b60208082526013908201527f6164643a20696e76616c6964206c656e67746800000000000000000000000000604082015260600190565b60208082526018908201527f7570646174653a20696e76616c696420656e642074696d650000000000000000604082015260600190565b60208082526014908201527f72656e65773a20696e76616c69642074696d6573000000000000000000000000604082015260600190565b60208082526015908201527f72656e65773a20696e76616c6964206c656e6774680000000000000000000000604082015260600190565b60208082526010908201527f72657761726420746f6f20736d616c6c00000000000000000000000000000000604082015260600190565b6020808252601d908201527f77697468647261773a20696e73756666696369656e7420616d6f756e74000000604082015260600190565b6020808252601c908201527f7472616e736665722072657761726420746f6b656e206661696c656400000000604082015260600190565b60208082526014908201527f6164643a206475706c69636174656420706f6f6c000000000000000000000000604082015260600190565b60208082526022908201527f72656e65773a20696e76616c696420706f6f6c20737461746520746f2072656e60408201527f6577000000000000000000000000000000000000000000000000000000000000606082015260800190565b6020808252601a908201527f7570646174653a20706f6f6c20616c726561647920656e646564000000000000604082015260600190565b90815260200190565b8a815273ffffffffffffffffffffffffffffffffffffffff8a811660208301528916604082015263ffffffff8881166060830152878116608083015286811660a0830152851660c082015261014060e082018190526000906200430c8382018762003d63565b905082810361010084015262004323818662003d63565b90508281036101208401526200433a818562003d63565b9d9c50505050505050505050505050565b60008482526060602083015262004366606083018562003d63565b82810360408401526200437a818562003d63565b9695505050505050565b91825263ffffffff16602082015260400190565b63ffffffff91909116815260200190565b63ffffffff9384168152918316602083015290911660408201526060019056fe60806040523480156200001157600080fd5b50604051620012a6380380620012a68339810160408190526200003491620001d6565b8151829082906200004d9060039060208501906200008f565b508051620000639060049060208401906200008f565b505060058054601260ff1990911617610100600160a81b0319166101003302179055506200023d915050565b828054600181600116156101000203166002900490600052602060002090601f016020900481019282620000c7576000855562000112565b82601f10620000e257805160ff191683800117855562000112565b8280016001018555821562000112579182015b8281111562000112578251825591602001919060010190620000f5565b506200012092915062000124565b5090565b5b8082111562000120576000815560010162000125565b600082601f8301126200014c578081fd5b81516001600160401b03808211156200016157fe5b6040516020601f8401601f19168201810183811183821017156200018157fe5b604052838252858401810187101562000198578485fd5b8492505b83831015620001bb57858301810151828401820152918201916200019c565b83831115620001cc57848185840101525b5095945050505050565b60008060408385031215620001e9578182fd5b82516001600160401b038082111562000200578384fd5b6200020e868387016200013b565b9350602085015191508082111562000224578283fd5b5062000233858286016200013b565b9150509250929050565b611059806200024d6000396000f3fe608060405234801561001057600080fd5b50600436106100df5760003560e01c806340c10f191161008c5780639dc29fac116100665780639dc29fac146101a2578063a457c2d7146101b5578063a9059cbb146101c8578063dd62ed3e146101db576100df565b806340c10f191461017257806370a082311461018757806395d89b411461019a576100df565b806323b872dd116100bd57806323b872dd14610137578063313ce5671461014a578063395093511461015f576100df565b806306fdde03146100e4578063095ea7b31461010257806318160ddd14610122575b600080fd5b6100ec6101ee565b6040516100f99190610e20565b60405180910390f35b610115610110366004610dec565b6102a2565b6040516100f99190610e15565b61012a6102bf565b6040516100f99190610ec8565b610115610145366004610db1565b6102c5565b610152610366565b6040516100f99190610ed1565b61011561016d366004610dec565b61036f565b610185610180366004610dec565b6103ca565b005b61012a610195366004610d65565b610437565b6100ec610463565b6101856101b0366004610dec565b6104e2565b6101156101c3366004610dec565b610542565b6101156101d6366004610dec565b6105b7565b61012a6101e9366004610d7f565b6105cb565b60038054604080516020601f60027fffffffffffffffffffffffffffffffffffffffffffffffffffffffffffffffff6101006001881615020190951694909404938401819004810282018101909252828152606093909290918301828280156102985780601f1061026d57610100808354040283529160200191610298565b820191906000526020600020905b81548152906001019060200180831161027b57829003601f168201915b5050505050905090565b60006102b66102af610603565b8484610607565b50600192915050565b60025490565b60006102d284848461074e565b61035c846102de610603565b61035785604051806060016040528060288152602001610f6d6028913973ffffffffffffffffffffffffffffffffffffffff8a16600090815260016020526040812090610329610603565b73ffffffffffffffffffffffffffffffffffffffff168152602081019190915260400160002054919061091e565b610607565b5060019392505050565b60055460ff1690565b60006102b661037c610603565b84610357856001600061038d610603565b73ffffffffffffffffffffffffffffffffffffffff908116825260208083019390935260409182016000908120918c1681529252902054906109cf565b600554610100900473ffffffffffffffffffffffffffffffffffffffff163314610429576040517f08c379a000000000000000000000000000000000000000000000000000000000815260040161042090610e91565b60405180910390fd5b6104338282610a4a565b5050565b73ffffffffffffffffffffffffffffffffffffffff81166000908152602081905260409020545b919050565b60048054604080516020601f60027fffffffffffffffffffffffffffffffffffffffffffffffffffffffffffffffff6101006001881615020190951694909404938401819004810282018101909252828152606093909290918301828280156102985780601f1061026d57610100808354040283529160200191610298565b600554610100900473ffffffffffffffffffffffffffffffffffffffff163314610538576040517f08c379a000000000000000000000000000000000000000000000000000000000815260040161042090610e91565b6104338282610b7b565b60006102b661054f610603565b8461035785604051806060016040528060258152602001610fff6025913960016000610579610603565b73ffffffffffffffffffffffffffffffffffffffff908116825260208083019390935260409182016000908120918d1681529252902054919061091e565b60006102b66105c4610603565b848461074e565b73ffffffffffffffffffffffffffffffffffffffff918216600090815260016020908152604080832093909416825291909152205490565b3390565b73ffffffffffffffffffffffffffffffffffffffff8316610673576040517f08c379a0000000000000000000000000000000000000000000000000000000008152600401808060200182810382526024815260200180610fdb6024913960400191505060405180910390fd5b73ffffffffffffffffffffffffffffffffffffffff82166106df576040517f08c379a0000000000000000000000000000000000000000000000000000000008152600401808060200182810382526022815260200180610f256022913960400191505060405180910390fd5b73ffffffffffffffffffffffffffffffffffffffff808416600081815260016020908152604080832094871680845294825291829020859055815185815291517f8c5be1e5ebec7d5bd14f71427d1e84f3dd0314c0f7b2291e5b200ac8c7c3b9259281900390910190a3505050565b73ffffffffffffffffffffffffffffffffffffffff83166107ba576040517f08c379a0000000000000000000000000000000000000000000000000000000008152600401808060200182810382526025815260200180610fb66025913960400191505060405180910390fd5b73ffffffffffffffffffffffffffffffffffffffff8216610826576040517f08c379a0000000000000000000000000000000000000000000000000000000008152600401808060200182810382526023815260200180610ee06023913960400191505060405180910390fd5b610831838383610cc5565b61087b81604051806060016040528060268152602001610f476026913973ffffffffffffffffffffffffffffffffffffffff8616600090815260208190526040902054919061091e565b73ffffffffffffffffffffffffffffffffffffffff80851660009081526020819052604080822093909355908416815220546108b790826109cf565b73ffffffffffffffffffffffffffffffffffffffff8084166000818152602081815260409182902094909455805185815290519193928716927fddf252ad1be2c89b69c2b068fc378daa952ba7f163c4a11628f55a4df523b3ef92918290030190a3505050565b600081848411156109c7576040517f08c379a00000000000000000000000000000000000000000000000000000000081526004018080602001828103825283818151815260200191508051906020019080838360005b8381101561098c578181015183820152602001610974565b50505050905090810190601f1680156109b95780820380516001836020036101000a031916815260200191505b509250505060405180910390fd5b505050900390565b600082820183811015610a4357604080517f08c379a000000000000000000000000000000000000000000000000000000000815260206004820152601b60248201527f536166654d6174683a206164646974696f6e206f766572666c6f770000000000604482015290519081900360640190fd5b9392505050565b73ffffffffffffffffffffffffffffffffffffffff8216610acc57604080517f08c379a000000000000000000000000000000000000000000000000000000000815260206004820152601f60248201527f45524332303a206d696e7420746f20746865207a65726f206164647265737300604482015290519081900360640190fd5b610ad860008383610cc5565b600254610ae590826109cf565b60025573ffffffffffffffffffffffffffffffffffffffff8216600090815260208190526040902054610b1890826109cf565b73ffffffffffffffffffffffffffffffffffffffff83166000818152602081815260408083209490945583518581529351929391927fddf252ad1be2c89b69c2b068fc378daa952ba7f163c4a11628f55a4df523b3ef9281900390910190a35050565b73ffffffffffffffffffffffffffffffffffffffff8216610be7576040517f08c379a0000000000000000000000000000000000000000000000000000000008152600401808060200182810382526021815260200180610f956021913960400191505060405180910390fd5b610bf382600083610cc5565b610c3d81604051806060016040528060228152602001610f036022913973ffffffffffffffffffffffffffffffffffffffff8516600090815260208190526040902054919061091e565b73ffffffffffffffffffffffffffffffffffffffff8316600090815260208190526040902055600254610c709082610cca565b60025560408051828152905160009173ffffffffffffffffffffffffffffffffffffffff8516917fddf252ad1be2c89b69c2b068fc378daa952ba7f163c4a11628f55a4df523b3ef9181900360200190a35050565b505050565b600082821115610d3b57604080517f08c379a000000000000000000000000000000000000000000000000000000000815260206004820152601e60248201527f536166654d6174683a207375627472616374696f6e206f766572666c6f770000604482015290519081900360640190fd5b50900390565b803573ffffffffffffffffffffffffffffffffffffffff8116811461045e57600080fd5b600060208284031215610d76578081fd5b610a4382610d41565b60008060408385031215610d91578081fd5b610d9a83610d41565b9150610da860208401610d41565b90509250929050565b600080600060608486031215610dc5578081fd5b610dce84610d41565b9250610ddc60208501610d41565b9150604084013590509250925092565b60008060408385031215610dfe578182fd5b610e0783610d41565b946020939093013593505050565b901515815260200190565b6000602080835283518082850152825b81811015610e4c57858101830151858201604001528201610e30565b81811115610e5d5783604083870101525b50601f017fffffffffffffffffffffffffffffffffffffffffffffffffffffffffffffffe016929092016040019392505050565b6020808252600c908201527f756e617574686f72697a65640000000000000000000000000000000000000000604082015260600190565b90815260200190565b60ff9190911681526020019056fe45524332303a207472616e7366657220746f20746865207a65726f206164647265737345524332303a206275726e20616d6f756e7420657863656564732062616c616e636545524332303a20617070726f766520746f20746865207a65726f206164647265737345524332303a207472616e7366657220616d6f756e7420657863656564732062616c616e636545524332303a207472616e7366657220616d6f756e74206578636565647320616c6c6f77616e636545524332303a206275726e2066726f6d20746865207a65726f206164647265737345524332303a207472616e736665722066726f6d20746865207a65726f206164647265737345524332303a20617070726f76652066726f6d20746865207a65726f206164647265737345524332303a2064656372656173656420616c6c6f77616e63652062656c6f77207a65726fa2646970667358221220182564e4ea6b6386d8317d8d21422e5251402cbd245ff340428909ee66c7c33564736f6c63430007060033416464726573733a20696e73756666696369656e742062616c616e636520666f722063616c6c536166654d6174683a206d756c7469706c69636174696f6e206f766572666c6f775361666545524332303a204552433230206f7065726174696f6e20646964206e6f7420737563636565645361666545524332303a20617070726f76652066726f6d206e6f6e2d7a65726f20746f206e6f6e2d7a65726f20616c6c6f77616e6365a26469706673582212205cc094a5285579c399ad68484cb9de636ae7e7d445f157dd25e389ff389a574564736f6c63430007060033416464726573733a20696e73756666696369656e742062616c616e636520666f722063616c6c5361666545524332303a204552433230206f7065726174696f6e20646964206e6f7420737563636565645361666545524332303a20617070726f76652066726f6d206e6f6e2d7a65726f20746f206e6f6e2d7a65726f20616c6c6f77616e6365",
  "linkReferences": {},
  "deployedLinkReferences": {}
}