{
  "_format": "hh-sol-artifact-1",
  "contractName": "KyberRewardLocker",
  "sourceName": "contracts/liquidityMining/KyberRewardLocker.sol",
  "abi": [
    {
      "inputs": [
        {
          "internalType": "address",
          "name": "_admin",
          "type": "address"
        }
      ],
      "stateMutability": "nonpayable",
      "type": "constructor"
    },
    {
      "anonymous": false,
      "inputs": [
        {
          "indexed": false,
          "internalType": "address",
          "name": "newAdmin",
          "type": "address"
        },
        {
          "indexed": false,
          "internalType": "address",
          "name": "previousAdmin",
          "type": "address"
        }
      ],
      "name": "AdminClaimed",
      "type": "event"
    },
    {
      "anonymous": false,
      "inputs": [
        {
          "indexed": true,
          "internalType": "address",
          "name": "rewardContract",
          "type": "address"
        },
        {
          "indexed": true,
          "internalType": "contract IERC20Ext",
          "name": "token",
          "type": "address"
        },
        {
          "indexed": false,
          "internalType": "bool",
          "name": "isAdded",
          "type": "bool"
        }
      ],
      "name": "RewardContractAdded",
      "type": "event"
    },
    {
      "anonymous": false,
      "inputs": [
        {
          "indexed": true,
          "internalType": "contract IERC20Ext",
          "name": "token",
          "type": "address"
        },
        {
          "indexed": false,
          "internalType": "uint64",
          "name": "vestingDuration",
          "type": "uint64"
        }
      ],
      "name": "SetVestingDuration",
      "type": "event"
    },
    {
      "anonymous": false,
      "inputs": [
        {
          "indexed": false,
          "internalType": "address",
          "name": "pendingAdmin",
          "type": "address"
        }
      ],
      "name": "TransferAdminPending",
      "type": "event"
    },
    {
      "anonymous": false,
      "inputs": [
        {
          "indexed": true,
          "internalType": "contract IERC20Ext",
          "name": "token",
          "type": "address"
        },
        {
          "indexed": true,
          "internalType": "address",
          "name": "beneficiary",
          "type": "address"
        },
        {
          "indexed": false,
          "internalType": "uint256",
          "name": "vestedQuantity",
          "type": "uint256"
        },
        {
          "indexed": false,
          "internalType": "uint256",
          "name": "index",
          "type": "uint256"
        }
      ],
      "name": "Vested",
      "type": "event"
    },
    {
      "anonymous": false,
      "inputs": [
        {
          "indexed": true,
          "internalType": "contract IERC20Ext",
          "name": "token",
          "type": "address"
        },
        {
          "indexed": true,
          "internalType": "address",
          "name": "beneficiary",
          "type": "address"
        },
        {
          "indexed": false,
          "internalType": "uint256",
          "name": "startBlock",
          "type": "uint256"
        },
        {
          "indexed": false,
          "internalType": "uint256",
          "name": "endBlock",
          "type": "uint256"
        },
        {
          "indexed": false,
          "internalType": "uint256",
          "name": "quantity",
          "type": "uint256"
        },
        {
          "indexed": false,
          "internalType": "uint256",
          "name": "index",
          "type": "uint256"
        }
      ],
      "name": "VestingEntryCreated",
      "type": "event"
    },
    {
      "anonymous": false,
      "inputs": [
        {
          "indexed": true,
          "internalType": "uint256",
          "name": "index",
          "type": "uint256"
        },
        {
          "indexed": true,
          "internalType": "contract IERC20Ext",
          "name": "token",
          "type": "address"
        },
        {
          "indexed": true,
          "internalType": "address",
          "name": "beneficiary",
          "type": "address"
        },
        {
          "indexed": false,
          "internalType": "uint256",
          "name": "quantity",
          "type": "uint256"
        }
      ],
      "name": "VestingEntryQueued",
      "type": "event"
    },
    {
      "inputs": [
        {
          "internalType": "address",
          "name": "",
          "type": "address"
        },
        {
          "internalType": "contract IERC20Ext",
          "name": "",
          "type": "address"
        }
      ],
      "name": "accountEscrowedBalance",
      "outputs": [
        {
          "internalType": "uint256",
          "name": "",
          "type": "uint256"
        }
      ],
      "stateMutability": "view",
      "type": "function"
    },
    {
      "inputs": [
        {
          "internalType": "address",
          "name": "",
          "type": "address"
        },
        {
          "internalType": "contract IERC20Ext",
          "name": "",
          "type": "address"
        }
      ],
      "name": "accountVestedBalance",
      "outputs": [
        {
          "internalType": "uint256",
          "name": "",
          "type": "uint256"
        }
      ],
      "stateMutability": "view",
      "type": "function"
    },
    {
      "inputs": [
        {
          "internalType": "contract IERC20Ext",
          "name": "token",
          "type": "address"
        },
        {
          "internalType": "address",
          "name": "_rewardContract",
          "type": "address"
        }
      ],
      "name": "addRewardsContract",
      "outputs": [],
      "stateMutability": "nonpayable",
      "type": "function"
    },
    {
      "inputs": [],
      "name": "admin",
      "outputs": [
        {
          "internalType": "address",
          "name": "",
          "type": "address"
        }
      ],
      "stateMutability": "view",
      "type": "function"
    },
    {
      "inputs": [],
      "name": "claimAdmin",
      "outputs": [],
      "stateMutability": "nonpayable",
      "type": "function"
    },
    {
      "inputs": [
        {
          "internalType": "contract IERC20Ext",
          "name": "token",
          "type": "address"
        }
      ],
      "name": "getRewardContractsPerToken",
      "outputs": [
        {
          "internalType": "address[]",
          "name": "rewardContracts",
          "type": "address[]"
        }
      ],
      "stateMutability": "view",
      "type": "function"
    },
    {
      "inputs": [
        {
          "internalType": "address",
          "name": "account",
          "type": "address"
        },
        {
          "internalType": "contract IERC20Ext",
          "name": "token",
          "type": "address"
        },
        {
          "internalType": "uint256",
          "name": "index",
          "type": "uint256"
        }
      ],
      "name": "getVestingScheduleAtIndex",
      "outputs": [
        {
          "components": [
            {
              "internalType": "uint64",
              "name": "startBlock",
              "type": "uint64"
            },
            {
              "internalType": "uint64",
              "name": "endBlock",
              "type": "uint64"
            },
            {
              "internalType": "uint128",
              "name": "quantity",
              "type": "uint128"
            },
            {
              "internalType": "uint128",
              "name": "vestedQuantity",
              "type": "uint128"
            }
          ],
          "internalType": "struct IKyberRewardLocker.VestingSchedule",
          "name": "",
          "type": "tuple"
        }
      ],
      "stateMutability": "view",
      "type": "function"
    },
    {
      "inputs": [
        {
          "internalType": "address",
          "name": "account",
          "type": "address"
        },
        {
          "internalType": "contract IERC20Ext",
          "name": "token",
          "type": "address"
        }
      ],
      "name": "getVestingSchedules",
      "outputs": [
        {
          "components": [
            {
              "internalType": "uint64",
              "name": "startBlock",
              "type": "uint64"
            },
            {
              "internalType": "uint64",
              "name": "endBlock",
              "type": "uint64"
            },
            {
              "internalType": "uint128",
              "name": "quantity",
              "type": "uint128"
            },
            {
              "internalType": "uint128",
              "name": "vestedQuantity",
              "type": "uint128"
            }
          ],
          "internalType": "struct IKyberRewardLocker.VestingSchedule[]",
          "name": "schedules",
          "type": "tuple[]"
        }
      ],
      "stateMutability": "view",
      "type": "function"
    },
    {
      "inputs": [
        {
          "internalType": "contract IERC20Ext",
          "name": "token",
          "type": "address"
        },
        {
          "internalType": "address",
          "name": "account",
          "type": "address"
        },
        {
          "internalType": "uint256",
          "name": "quantity",
          "type": "uint256"
        }
      ],
      "name": "lock",
      "outputs": [],
      "stateMutability": "payable",
      "type": "function"
    },
    {
      "inputs": [
        {
          "internalType": "contract IERC20Ext",
          "name": "token",
          "type": "address"
        },
        {
          "internalType": "address",
          "name": "account",
          "type": "address"
        },
        {
          "internalType": "uint256",
          "name": "quantity",
          "type": "uint256"
        },
        {
          "internalType": "uint256",
          "name": "startBlock",
          "type": "uint256"
        }
      ],
      "name": "lockWithStartBlock",
      "outputs": [],
      "stateMutability": "payable",
      "type": "function"
    },
    {
      "inputs": [
        {
          "internalType": "address",
          "name": "account",
          "type": "address"
        },
        {
          "internalType": "contract IERC20Ext",
          "name": "token",
          "type": "address"
        }
      ],
      "name": "numVestingSchedules",
      "outputs": [
        {
          "internalType": "uint256",
          "name": "",
          "type": "uint256"
        }
      ],
      "stateMutability": "view",
      "type": "function"
    },
    {
      "inputs": [],
      "name": "pendingAdmin",
      "outputs": [
        {
          "internalType": "address",
          "name": "",
          "type": "address"
        }
      ],
      "stateMutability": "view",
      "type": "function"
    },
    {
      "inputs": [
        {
          "internalType": "contract IERC20Ext",
          "name": "token",
          "type": "address"
        },
        {
          "internalType": "address",
          "name": "_rewardContract",
          "type": "address"
        }
      ],
      "name": "removeRewardsContract",
      "outputs": [],
      "stateMutability": "nonpayable",
      "type": "function"
    },
    {
      "inputs": [
        {
          "internalType": "contract IERC20Ext",
          "name": "token",
          "type": "address"
        },
        {
          "internalType": "uint64",
          "name": "_vestingDuration",
          "type": "uint64"
        }
      ],
      "name": "setVestingDuration",
      "outputs": [],
      "stateMutability": "nonpayable",
      "type": "function"
    },
    {
      "inputs": [
        {
          "internalType": "address",
          "name": "newAdmin",
          "type": "address"
        }
      ],
      "name": "transferAdmin",
      "outputs": [],
      "stateMutability": "nonpayable",
      "type": "function"
    },
    {
      "inputs": [
        {
          "internalType": "address",
          "name": "newAdmin",
          "type": "address"
        }
      ],
      "name": "transferAdminQuickly",
      "outputs": [],
      "stateMutability": "nonpayable",
      "type": "function"
    },
    {
      "inputs": [
        {
          "internalType": "contract IERC20Ext",
          "name": "token",
          "type": "address"
        }
      ],
      "name": "vestCompletedSchedules",
      "outputs": [
        {
          "internalType": "uint256",
          "name": "",
          "type": "uint256"
        }
      ],
      "stateMutability": "nonpayable",
      "type": "function"
    },
    {
      "inputs": [
        {
          "internalType": "contract IERC20Ext[]",
          "name": "tokens",
          "type": "address[]"
        }
      ],
      "name": "vestCompletedSchedulesForMultipleTokens",
      "outputs": [
        {
          "internalType": "uint256[]",
          "name": "vestedAmounts",
          "type": "uint256[]"
        }
      ],
      "stateMutability": "nonpayable",
      "type": "function"
    },
    {
      "inputs": [
        {
          "internalType": "contract IERC20Ext",
          "name": "token",
          "type": "address"
        },
        {
          "internalType": "uint256[]",
          "name": "indexes",
          "type": "uint256[]"
        }
      ],
      "name": "vestScheduleAtIndices",
      "outputs": [
        {
          "internalType": "uint256",
          "name": "",
          "type": "uint256"
        }
      ],
      "stateMutability": "nonpayable",
      "type": "function"
    },
    {
      "inputs": [
        {
          "internalType": "contract IERC20Ext[]",
          "name": "tokens",
          "type": "address[]"
        },
        {
          "internalType": "uint256[][]",
          "name": "indices",
          "type": "uint256[][]"
        }
      ],
      "name": "vestScheduleForMultipleTokensAtIndices",
      "outputs": [
        {
          "internalType": "uint256[]",
          "name": "vestedAmounts",
          "type": "uint256[]"
        }
      ],
      "stateMutability": "nonpayable",
      "type": "function"
    },
    {
      "inputs": [
        {
          "internalType": "contract IERC20Ext",
          "name": "token",
          "type": "address"
        },
        {
          "internalType": "uint256",
          "name": "startIndex",
          "type": "uint256"
        },
        {
          "internalType": "uint256",
          "name": "endIndex",
          "type": "uint256"
        }
      ],
      "name": "vestSchedulesInRange",
      "outputs": [
        {
          "internalType": "uint256",
          "name": "",
          "type": "uint256"
        }
      ],
      "stateMutability": "nonpayable",
      "type": "function"
    },
    {
      "inputs": [
        {
          "internalType": "contract IERC20Ext",
          "name": "",
          "type": "address"
        }
      ],
      "name": "vestingDurationPerToken",
      "outputs": [
        {
          "internalType": "uint256",
          "name": "",
          "type": "uint256"
        }
      ],
      "stateMutability": "view",
      "type": "function"
    }
  ],
  "bytecode": "0x60806040523480156200001157600080fd5b5060405162003341380380620033418339810160408190526200003491620000a2565b806001600160a01b0381166200007b576040805162461bcd60e51b8152602060048201526007602482015266061646d696e20360cc1b604482015290519081900360640190fd5b600080546001600160a01b0319166001600160a01b039290921691909117905550620000d2565b600060208284031215620000b4578081fd5b81516001600160a01b0381168114620000cb578182fd5b9392505050565b61325f80620000e26000396000f3fe6080604052600436106101755760003560e01c806377f50f97116100cb578063bbd8a3281161007f578063f793d77e11610059578063f793d77e14610403578063f851a44014610423578063fdfaaa051461043857610175565b8063bbd8a32814610396578063c33fddf8146103c3578063cb1d086b146103e357610175565b80639059aa6a116100b05780639059aa6a14610343578063a5d21e3114610363578063aaf543851461037657610175565b806377f50f971461030e5780637acc86781461032357610175565b80634c9d00cc1161012d5780636e732b70116101075780636e732b70146102bb57806375829def146102db5780637750c9f0146102fb57610175565b80634c9d00cc1461024c5780634d4f3d931461026e578063679f7f771461029b57610175565b8063267822471161015e57806326782247146101dd5780632f50bd72146101ff5780633b5bfa8b1461022c57610175565b80630a3b7e311461017a5780630f5636c3146101b0575b600080fd5b34801561018657600080fd5b5061019a610195366004612a3a565b610458565b6040516101a7919061306a565b60405180910390f35b3480156101bc57600080fd5b506101d06101cb366004612b8e565b610510565b6040516101a79190613078565b3480156101e957600080fd5b506101f2610791565b6040516101a79190612d0d565b34801561020b57600080fd5b5061021f61021a366004612a02565b6107ad565b6040516101a79190612d88565b34801561023857600080fd5b506101d0610247366004612a02565b610912565b34801561025857600080fd5b5061026c610267366004612b23565b61092f565b005b34801561027a57600080fd5b5061028e610289366004612aba565b610a84565b6040516101a79190612dca565b3480156102a757600080fd5b506101d06102b6366004612a02565b610baf565b3480156102c757600080fd5b506101d06102d6366004612a02565b610be7565b3480156102e757600080fd5b5061026c6102f63660046129e6565b610c04565b61026c610309366004612b35565b610d9c565b34801561031a57600080fd5b5061026c610daf565b34801561032f57600080fd5b5061026c61033e3660046129e6565b610eda565b34801561034f57600080fd5b5061028e61035e366004612a7a565b6110c7565b61026c610371366004612b49565b611162565b34801561038257600080fd5b506101d06103913660046129e6565b611677565b3480156103a257600080fd5b506103b66103b13660046129e6565b611689565b6040516101a79190612d2e565b3480156103cf57600080fd5b506101d06103de366004612c51565b611777565b3480156103ef57600080fd5b5061026c6103fe366004612c85565b61183d565b34801561040f57600080fd5b5061026c61041e366004612b23565b611931565b34801561042f57600080fd5b506101f2611ae2565b34801561044457600080fd5b506101d06104533660046129e6565b611afe565b610460612976565b5073ffffffffffffffffffffffffffffffffffffffff8084166000908152600360209081526040808320938616835292815282822084835260019081018252918390208351608081018552815467ffffffffffffffff808216835268010000000000000000820416938201939093526fffffffffffffffffffffffffffffffff700100000000000000000000000000000000909304831694810194909452909101541660608201525b9392505050565b33600090815260036020908152604080832073ffffffffffffffffffffffffffffffffffffffff861684529091528120805482805b855181101561077b578286828151811061055b57fe5b6020026020010151106105a3576040517f08c379a000000000000000000000000000000000000000000000000000000000815260040161059a90612e0d565b60405180910390fd5b60008460010160008884815181106105b757fe5b602090810291909101810151825281810192909252604090810160009081208251608081018452815467ffffffffffffffff808216835268010000000000000000820416958201959095526fffffffffffffffffffffffffffffffff700100000000000000000000000000000000909504851693810193909352600101549092166060820152915061064882611d03565b905080610656575050610773565b60608201516106809061067b906fffffffffffffffffffffffffffffffff1683611e1a565b611e8e565b8660010160008a868151811061069257fe5b6020026020010151815260200190815260200160002060010160006101000a8154816fffffffffffffffffffffffffffffffff02191690836fffffffffffffffffffffffffffffffff1602179055506106f48185611e1a90919063ffffffff16565b93503373ffffffffffffffffffffffffffffffffffffffff168973ffffffffffffffffffffffffffffffffffffffff167f6d06f0a463d80b43fe6cd0b79c61bb2790cfe898790e69828f25e6e12886e178838b878151811061075257fe5b6020026020010151604051610768929190613081565b60405180910390a350505b600101610545565b506107868682611efd565b925050505b92915050565b60015473ffffffffffffffffffffffffffffffffffffffff1681565b73ffffffffffffffffffffffffffffffffffffffff8083166000908152600360209081526040808320938516835292905220546060908067ffffffffffffffff811180156107fa57600080fd5b5060405190808252806020026020018201604052801561083457816020015b610821612976565b8152602001906001900390816108195790505b50915060005b8181101561090a5773ffffffffffffffffffffffffffffffffffffffff8086166000908152600360209081526040808320938816835292815282822084835260019081018252918390208351608081018552815467ffffffffffffffff808216835268010000000000000000820416938201939093526fffffffffffffffffffffffffffffffff7001000000000000000000000000000000009093048316948101949094529091015416606082015283518490839081106108f757fe5b602090810291909101015260010161083a565b505092915050565b600560209081526000928352604080842090915290825290205481565b60005473ffffffffffffffffffffffffffffffffffffffff1633146109b557604080517f08c379a000000000000000000000000000000000000000000000000000000000815260206004820152600a60248201527f6f6e6c792061646d696e00000000000000000000000000000000000000000000604482015290519081900360640190fd5b73ffffffffffffffffffffffffffffffffffffffff821660009081526002602052604090206109e490826120ca565b610a1a576040517f08c379a000000000000000000000000000000000000000000000000000000000815260040161059a90612eb2565b8173ffffffffffffffffffffffffffffffffffffffff168173ffffffffffffffffffffffffffffffffffffffff167f88a8c998079a07d6a1e59a32ce0c359a00e4c94ce7a6068350a9574e7e0f993d6000604051610a789190612e02565b60405180910390a35050565b6060838214610abf576040517f08c379a000000000000000000000000000000000000000000000000000000000815260040161059a90612fc5565b8367ffffffffffffffff81118015610ad657600080fd5b50604051908082528060200260200182016040528015610b00578160200160208202803683370190505b50905060005b84811015610ba657610b87868683818110610b1d57fe5b9050602002016020810190610b3291906129e6565b858584818110610b3e57fe5b9050602002810190610b5091906130bf565b8080602002602001604051908101604052809392919081815260200183836020028082843760009201919091525061051092505050565b828281518110610b9357fe5b6020908102919091010152600101610b06565b50949350505050565b73ffffffffffffffffffffffffffffffffffffffff918216600090815260036020908152604080832093909416825291909152205490565b600460209081526000928352604080842090915290825290205481565b60005473ffffffffffffffffffffffffffffffffffffffff163314610c8a57604080517f08c379a000000000000000000000000000000000000000000000000000000000815260206004820152600a60248201527f6f6e6c792061646d696e00000000000000000000000000000000000000000000604482015290519081900360640190fd5b73ffffffffffffffffffffffffffffffffffffffff8116610d0c57604080517f08c379a000000000000000000000000000000000000000000000000000000000815260206004820152600b60248201527f6e65772061646d696e2030000000000000000000000000000000000000000000604482015290519081900360640190fd5b6040805173ffffffffffffffffffffffffffffffffffffffff8316815290517f3b81caf78fa51ecbc8acb482fd7012a277b428d9b80f9d156e8a54107496cc409181900360200190a1600180547fffffffffffffffffffffffff00000000000000000000000000000000000000001673ffffffffffffffffffffffffffffffffffffffff92909216919091179055565b610daa8383836103716120ec565b505050565b60015473ffffffffffffffffffffffffffffffffffffffff163314610e3557604080517f08c379a000000000000000000000000000000000000000000000000000000000815260206004820152600b60248201527f6e6f742070656e64696e67000000000000000000000000000000000000000000604482015290519081900360640190fd5b6001546000546040805173ffffffffffffffffffffffffffffffffffffffff938416815292909116602083015280517f65da1cfc2c2e81576ad96afb24a581f8e109b7a403b35cbd3243a1c99efdb9ed9281900390910190a160018054600080547fffffffffffffffffffffffff000000000000000000000000000000000000000090811673ffffffffffffffffffffffffffffffffffffffff841617909155169055565b60005473ffffffffffffffffffffffffffffffffffffffff163314610f6057604080517f08c379a000000000000000000000000000000000000000000000000000000000815260206004820152600a60248201527f6f6e6c792061646d696e00000000000000000000000000000000000000000000604482015290519081900360640190fd5b73ffffffffffffffffffffffffffffffffffffffff8116610fe257604080517f08c379a000000000000000000000000000000000000000000000000000000000815260206004820152600760248201527f61646d696e203000000000000000000000000000000000000000000000000000604482015290519081900360640190fd5b6040805173ffffffffffffffffffffffffffffffffffffffff8316815290517f3b81caf78fa51ecbc8acb482fd7012a277b428d9b80f9d156e8a54107496cc409181900360200190a16000546040805173ffffffffffffffffffffffffffffffffffffffff8085168252909216602083015280517f65da1cfc2c2e81576ad96afb24a581f8e109b7a403b35cbd3243a1c99efdb9ed9281900390910190a1600080547fffffffffffffffffffffffff00000000000000000000000000000000000000001673ffffffffffffffffffffffffffffffffffffffff92909216919091179055565b60608167ffffffffffffffff811180156110e057600080fd5b5060405190808252806020026020018201604052801561110a578160200160208202803683370190505b50905060005b8281101561115b5761113c84848381811061112757fe5b905060200201602081019061045391906129e6565b82828151811061114857fe5b6020908102919091010152600101611110565b5092915050565b73ffffffffffffffffffffffffffffffffffffffff84166000908152600260205260409020849061119390336120f0565b6111c9576040517f08c379a000000000000000000000000000000000000000000000000000000000815260040161059a90612f8e565b60008311611203576040517f08c379a000000000000000000000000000000000000000000000000000000000815260040161059a90612ffc565b73ffffffffffffffffffffffffffffffffffffffff851661125c57823414611257576040517f08c379a000000000000000000000000000000000000000000000000000000000815260040161059a90612ee9565b61127e565b61127e73ffffffffffffffffffffffffffffffffffffffff8616333086612112565b73ffffffffffffffffffffffffffffffffffffffff8085166000908152600360209081526040808320938916835292815282822080546006909252928220549091906112cb908690611e1a565b9050811561147d577fffffffffffffffffffffffffffffffffffffffffffffffffffffffffffffffff820160009081526001840160205260409020805467ffffffffffffffff16861480156113365750805468010000000000000000900467ffffffffffffffff1682145b1561147b5780546113719061067b9070010000000000000000000000000000000090046fffffffffffffffffffffffffffffffff1689611e1a565b81546fffffffffffffffffffffffffffffffff91821670010000000000000000000000000000000002911617815573ffffffffffffffffffffffffffffffffffffffff8089166000908152600460209081526040808320938d16835292905220546113dc9088611e1a565b73ffffffffffffffffffffffffffffffffffffffff808a166000818152600460209081526040808320948f1680845294909152908190209390935591517fffffffffffffffffffffffffffffffffffffffffffffffffffffffffffffffff8601907fa6fd3a57929c9152d86fa5f83c8478f1af480353a0aef0cacc3240d63b5707679061146a908c90613078565b60405180910390a450505050611670565b505b6040518060800160405280611491876121ad565b67ffffffffffffffff1681526020016114a9836121ad565b67ffffffffffffffff1681526020016114c188611e8e565b6fffffffffffffffffffffffffffffffff90811682526000602092830181905285815260018088018452604080832086518154888801518985015188167001000000000000000000000000000000000267ffffffffffffffff91821668010000000000000000027fffffffffffffffffffffffffffffffff0000000000000000ffffffffffffffff929094167fffffffffffffffffffffffffffffffffffffffffffffffff000000000000000090931692909217169190911786161781556060909601519582018054969094167fffffffffffffffffffffffffffffffff000000000000000000000000000000009690961695909517909255908501865573ffffffffffffffffffffffffffffffffffffffff808b16825260048352838220908c16825290915220546115f49087611e1a565b73ffffffffffffffffffffffffffffffffffffffff8089166000818152600460209081526040808320948e1680845294909152908190209390935591517ffb1fd0fee690638acf30008a00d7fc669e970dd6fa8912488ee11171986edabb9061166490899086908c90899061308f565b60405180910390a35050505b5050505050565b60066020526000908152604090205481565b73ffffffffffffffffffffffffffffffffffffffff811660009081526002602052604090206060906116ba90612210565b67ffffffffffffffff811180156116d057600080fd5b506040519080825280602002602001820160405280156116fa578160200160208202803683370190505b50905060005b81518110156117715773ffffffffffffffffffffffffffffffffffffffff83166000908152600260205260409020611738908261221b565b82828151811061174457fe5b73ffffffffffffffffffffffffffffffffffffffff90921660209283029190910190910152600101611700565b50919050565b6000818311156117b3576040517f08c379a000000000000000000000000000000000000000000000000000000000815260040161059a90612f20565b600083830360010167ffffffffffffffff811180156117d157600080fd5b506040519080825280602002602001820160405280156117fb578160200160208202803683370190505b509050835b8381116118295780828683038151811061181657fe5b6020908102919091010152600101611800565b506118348582610510565b95945050505050565b60005473ffffffffffffffffffffffffffffffffffffffff1633146118c357604080517f08c379a000000000000000000000000000000000000000000000000000000000815260206004820152600a60248201527f6f6e6c792061646d696e00000000000000000000000000000000000000000000604482015290519081900360640190fd5b73ffffffffffffffffffffffffffffffffffffffff82166000818152600660205260409081902067ffffffffffffffff84169055517f8604b95f1c6f11de3cf58583f6524c5b1aaa150f2391ec1544bb059d75177236906119259084906130aa565b60405180910390a25050565b60005473ffffffffffffffffffffffffffffffffffffffff1633146119b757604080517f08c379a000000000000000000000000000000000000000000000000000000000815260206004820152600a60248201527f6f6e6c792061646d696e00000000000000000000000000000000000000000000604482015290519081900360640190fd5b73ffffffffffffffffffffffffffffffffffffffff821660009081526002602052604090206064906119e890612210565b10611a1f576040517f08c379a000000000000000000000000000000000000000000000000000000000815260040161059a90613033565b73ffffffffffffffffffffffffffffffffffffffff82166000908152600260205260409020611a4e9082612227565b611a84576040517f08c379a000000000000000000000000000000000000000000000000000000000815260040161059a90612e7b565b8173ffffffffffffffffffffffffffffffffffffffff168173ffffffffffffffffffffffffffffffffffffffff167f88a8c998079a07d6a1e59a32ce0c359a00e4c94ce7a6068350a9574e7e0f993d6001604051610a789190612e02565b60005473ffffffffffffffffffffffffffffffffffffffff1681565b33600090815260036020908152604080832073ffffffffffffffffffffffffffffffffffffffff851684529091528120805482805b82811015611cee576000818152600180860160209081526040928390208351608081018552815467ffffffffffffffff8082168352680100000000000000008204169382018490526fffffffffffffffffffffffffffffffff700100000000000000000000000000000000909104811695820195909552920154909216606082015290611bbe6120ec565b1015611bca5750611ce6565b6000611c0b82606001516fffffffffffffffffffffffffffffffff1683604001516fffffffffffffffffffffffffffffffff1661224990919063ffffffff16565b905080611c19575050611ce6565b6040828101516000858152600189810160205292902090910180547fffffffffffffffffffffffffffffffff00000000000000000000000000000000166fffffffffffffffffffffffffffffffff909216919091179055611c7a8482611e1a565b93503373ffffffffffffffffffffffffffffffffffffffff168873ffffffffffffffffffffffffffffffffffffffff167f6d06f0a463d80b43fe6cd0b79c61bb2790cfe898790e69828f25e6e12886e1788386604051611cdb929190613081565b60405180910390a350505b600101611b33565b50611cf98582611efd565b925050505b919050565b6000816020015167ffffffffffffffff16611d1c6120ec565b10611d6757611d6082606001516fffffffffffffffffffffffffffffffff1683604001516fffffffffffffffffffffffffffffffff1661224990919063ffffffff16565b9050611cfe565b815167ffffffffffffffff16611d7b6120ec565b11611d8857506000611cfe565b81516020830151600091611da99167ffffffffffffffff9081169116612249565b90506000836000015167ffffffffffffffff16611dc46120ec565b039050611cf984606001516fffffffffffffffffffffffffffffffff16611e1484611e0e88604001516fffffffffffffffffffffffffffffffff16866122c090919063ffffffff16565b90612333565b90612249565b60008282018381101561050957604080517f08c379a000000000000000000000000000000000000000000000000000000000815260206004820152601b60248201527f536166654d6174683a206164646974696f6e206f766572666c6f770000000000604482015290519081900360640190fd5b60007001000000000000000000000000000000008210611ef9576040517f08c379a000000000000000000000000000000000000000000000000000000000815260040180806020018281038252602781526020018061316c6027913960400191505060405180910390fd5b5090565b80611f34576040517f08c379a000000000000000000000000000000000000000000000000000000000815260040161059a90612f57565b33600090815260046020908152604080832073ffffffffffffffffffffffffffffffffffffffff86168452909152902054611f6f9082612249565b33600081815260046020908152604080832073ffffffffffffffffffffffffffffffffffffffff8816808552908352818420959095559282526005815282822093825292909252902054611fc39082611e1a565b33600090815260056020908152604080832073ffffffffffffffffffffffffffffffffffffffff87168085529252909120919091556120a55760003373ffffffffffffffffffffffffffffffffffffffff168260405161202290612d0a565b60006040518083038185875af1925050503d806000811461205f576040519150601f19603f3d011682016040523d82523d6000602084013e612064565b606091505b505090508061209f576040517f08c379a000000000000000000000000000000000000000000000000000000000815260040161059a90612e44565b506120c6565b6120c673ffffffffffffffffffffffffffffffffffffffff831633836123b4565b5050565b60006105098373ffffffffffffffffffffffffffffffffffffffff8416612441565b4390565b60006105098373ffffffffffffffffffffffffffffffffffffffff8416612525565b6040805173ffffffffffffffffffffffffffffffffffffffff80861660248301528416604482015260648082018490528251808303909101815260849091019091526020810180517bffffffffffffffffffffffffffffffffffffffffffffffffffffffff167f23b872dd000000000000000000000000000000000000000000000000000000001790526121a790859061253d565b50505050565b6000680100000000000000008210611ef9576040517f08c379a00000000000000000000000000000000000000000000000000000000081526004018080602001828103825260268152602001806131da6026913960400191505060405180910390fd5b600061078b82612615565b60006105098383612619565b60006105098373ffffffffffffffffffffffffffffffffffffffff8416612697565b6000828211156122ba57604080517f08c379a000000000000000000000000000000000000000000000000000000000815260206004820152601e60248201527f536166654d6174683a207375627472616374696f6e206f766572666c6f770000604482015290519081900360640190fd5b50900390565b6000826122cf5750600061078b565b828202828482816122dc57fe5b0414610509576040517f08c379a00000000000000000000000000000000000000000000000000000000081526004018080602001828103825260218152602001806131b96021913960400191505060405180910390fd5b60008082116123a357604080517f08c379a000000000000000000000000000000000000000000000000000000000815260206004820152601a60248201527f536166654d6174683a206469766973696f6e206279207a65726f000000000000604482015290519081900360640190fd5b8183816123ac57fe5b049392505050565b6040805173ffffffffffffffffffffffffffffffffffffffff8416602482015260448082018490528251808303909101815260649091019091526020810180517bffffffffffffffffffffffffffffffffffffffffffffffffffffffff167fa9059cbb00000000000000000000000000000000000000000000000000000000179052610daa90849061253d565b6000818152600183016020526040812054801561251b5783547fffffffffffffffffffffffffffffffffffffffffffffffffffffffffffffffff808301919081019060009087908390811061249257fe5b90600052602060002001549050808760000184815481106124af57fe5b6000918252602080832090910192909255828152600189810190925260409020908401905586548790806124df57fe5b6001900381819060005260206000200160009055905586600101600087815260200190815260200160002060009055600194505050505061078b565b600091505061078b565b60009081526001919091016020526040902054151590565b600061259f826040518060400160405280602081526020017f5361666545524332303a206c6f772d6c6576656c2063616c6c206661696c65648152508573ffffffffffffffffffffffffffffffffffffffff166126e19092919063ffffffff16565b805190915015610daa578080602001905160208110156125be57600080fd5b5051610daa576040517f08c379a000000000000000000000000000000000000000000000000000000000815260040180806020018281038252602a815260200180613200602a913960400191505060405180910390fd5b5490565b81546000908210612675576040517f08c379a000000000000000000000000000000000000000000000000000000000815260040180806020018281038252602281526020018061314a6022913960400191505060405180910390fd5b82600001828154811061268457fe5b9060005260206000200154905092915050565b60006126a38383612525565b6126d95750815460018181018455600084815260208082209093018490558454848252828601909352604090209190915561078b565b50600061078b565b60606126f084846000856126f8565b949350505050565b606082471015612753576040517f08c379a00000000000000000000000000000000000000000000000000000000081526004018080602001828103825260268152602001806131936026913960400191505060405180910390fd5b61275c856128b2565b6127c757604080517f08c379a000000000000000000000000000000000000000000000000000000000815260206004820152601d60248201527f416464726573733a2063616c6c20746f206e6f6e2d636f6e7472616374000000604482015290519081900360640190fd5b6000808673ffffffffffffffffffffffffffffffffffffffff1685876040518082805190602001908083835b6020831061283057805182527fffffffffffffffffffffffffffffffffffffffffffffffffffffffffffffffe090920191602091820191016127f3565b6001836020036101000a03801982511681845116808217855250505050505090500191505060006040518083038185875af1925050503d8060008114612892576040519150601f19603f3d011682016040523d82523d6000602084013e612897565b606091505b50915091506128a78282866128b8565b979650505050505050565b3b151590565b606083156128c7575081610509565b8251156128d75782518084602001fd5b816040517f08c379a00000000000000000000000000000000000000000000000000000000081526004018080602001828103825283818151815260200191508051906020019080838360005b8381101561293b578181015183820152602001612923565b50505050905090810190601f1680156129685780820380516001836020036101000a031916815260200191505b509250505060405180910390fd5b60408051608081018252600080825260208201819052918101829052606081019190915290565b60008083601f8401126129ae578081fd5b50813567ffffffffffffffff8111156129c5578182fd5b60208301915083602080830285010111156129df57600080fd5b9250929050565b6000602082840312156129f7578081fd5b813561050981613124565b60008060408385031215612a14578081fd5b8235612a1f81613124565b91506020830135612a2f81613124565b809150509250929050565b600080600060608486031215612a4e578081fd5b8335612a5981613124565b92506020840135612a6981613124565b929592945050506040919091013590565b60008060208385031215612a8c578182fd5b823567ffffffffffffffff811115612aa2578283fd5b612aae8582860161299d565b90969095509350505050565b60008060008060408587031215612acf578081fd5b843567ffffffffffffffff80821115612ae6578283fd5b612af28883890161299d565b90965094506020870135915080821115612b0a578283fd5b50612b178782880161299d565b95989497509550505050565b60008060408385031215612a14578182fd5b600080600060608486031215612a4e578283fd5b60008060008060808587031215612b5e578384fd5b8435612b6981613124565b93506020850135612b7981613124565b93969395505050506040820135916060013590565b60008060408385031215612ba0578182fd5b8235612bab81613124565b915060208381013567ffffffffffffffff80821115612bc8578384fd5b818601915086601f830112612bdb578384fd5b813581811115612be757fe5b83810260405185828201018181108582111715612c0057fe5b604052828152858101935084860182860187018b1015612c1e578788fd5b8795505b83861015612c40578035855260019590950194938601938601612c22565b508096505050505050509250929050565b600080600060608486031215612c65578283fd5b8335612c7081613124565b95602085013595506040909401359392505050565b60008060408385031215612c97578182fd5b8235612ca281613124565b9150602083013567ffffffffffffffff81168114612a2f578182fd5b67ffffffffffffffff8082511683528060208301511660208401525060408101516fffffffffffffffffffffffffffffffff808216604085015280606084015116606085015250505050565b90565b73ffffffffffffffffffffffffffffffffffffffff91909116815260200190565b6020808252825182820181905260009190848201906040850190845b81811015612d7c57835173ffffffffffffffffffffffffffffffffffffffff1683529284019291840191600101612d4a565b50909695505050505050565b6020808252825182820181905260009190848201906040850190845b81811015612d7c57612db7838551612cbe565b9284019260809290920191600101612da4565b6020808252825182820181905260009190848201906040850190845b81811015612d7c57835183529284019291840191600101612de6565b901515815260200190565b60208082526016908201527f696e76616c6964207363686564756c6520696e64657800000000000000000000604082015260600190565b60208082526010908201527f6661696c20746f207472616e7366657200000000000000000000000000000000604082015260600190565b60208082526018908201527f5f726577617264436f6e74726163742069732061646465640000000000000000604082015260600190565b6020808252601a908201527f5f726577617264436f6e74726163742069732072656d6f766564000000000000604082015260600190565b60208082526011908201527f496e76616c6964206d73672e76616c7565000000000000000000000000000000604082015260600190565b60208082526015908201527f7374617274496e646578203e20656e64496e6465780000000000000000000000604082015260600190565b60208082526010908201527f302076657374696e6720616d6f756e7400000000000000000000000000000000604082015260600190565b60208082526014908201527f6f6e6c792072657761726420636f6e7472616374000000000000000000000000604082015260600190565b6020808252601f908201527f746f6b656e732e6c656e67746820213d20696e64696365732e6c656e67746800604082015260600190565b6020808252600a908201527f30207175616e7469747900000000000000000000000000000000000000000000604082015260600190565b6020808252601b908201527f726577617264436f6e74726163747320697320746f6f206c6f6e670000000000604082015260600190565b6080810161078b8284612cbe565b90815260200190565b918252602082015260400190565b93845260208401929092526040830152606082015260800190565b67ffffffffffffffff91909116815260200190565b60008083357fffffffffffffffffffffffffffffffffffffffffffffffffffffffffffffffe18436030181126130f3578283fd5b83018035915067ffffffffffffffff82111561310d578283fd5b60209081019250810236038213156129df57600080fd5b73ffffffffffffffffffffffffffffffffffffffff8116811461314657600080fd5b5056fe456e756d657261626c655365743a20696e646578206f7574206f6620626f756e647353616665436173743a2076616c756520646f65736e27742066697420696e203132382062697473416464726573733a20696e73756666696369656e742062616c616e636520666f722063616c6c536166654d6174683a206d756c7469706c69636174696f6e206f766572666c6f7753616665436173743a2076616c756520646f65736e27742066697420696e20363420626974735361666545524332303a204552433230206f7065726174696f6e20646964206e6f742073756363656564a264697066735822122082bb75b0badcf693d376afade37e731cb70f3423d58086bd94d38b3e317de61264736f6c63430007060033",
  "linkReferences": {},
  "deployedLinkReferences": {}
}