{
  "_format": "hh-sol-artifact-1",
  "contractName": "NUSBank",
  "sourceName": "contracts/NUSBank.sol",
  "abi": [
    {
      "inputs": [],
      "stateMutability": "nonpayable",
      "type": "constructor"
    },
    {
      "inputs": [
        {
          "internalType": "address",
          "name": "",
          "type": "address"
        },
        {
          "internalType": "bytes32",
          "name": "",
          "type": "bytes32"
        }
      ],
      "name": "balances",
      "outputs": [
        {
          "internalType": "uint256",
          "name": "",
          "type": "uint256"
        }
      ],
      "stateMutability": "view",
      "type": "function"
    },
    {
      "inputs": [
        {
          "internalType": "uint256",
          "name": "amount",
          "type": "uint256"
        },
        {
          "internalType": "bytes32",
          "name": "symbol",
          "type": "bytes32"
        }
      ],
      "name": "depositTokens",
      "outputs": [],
      "stateMutability": "nonpayable",
      "type": "function"
    },
    {
      "inputs": [
        {
          "internalType": "bytes32",
          "name": "symbol",
          "type": "bytes32"
        }
      ],
      "name": "getTokenBalance",
      "outputs": [
        {
          "internalType": "uint256",
          "name": "",
          "type": "uint256"
        }
      ],
      "stateMutability": "view",
      "type": "function"
    },
    {
      "inputs": [],
      "name": "getWhitelistedSymbols",
      "outputs": [
        {
          "internalType": "bytes32[]",
          "name": "",
          "type": "bytes32[]"
        }
      ],
      "stateMutability": "view",
      "type": "function"
    },
    {
      "inputs": [
        {
          "internalType": "bytes32",
          "name": "symbol",
          "type": "bytes32"
        }
      ],
      "name": "getWhitelistedTokenAddress",
      "outputs": [
        {
          "internalType": "address",
          "name": "",
          "type": "address"
        }
      ],
      "stateMutability": "view",
      "type": "function"
    },
    {
      "inputs": [
        {
          "internalType": "uint256",
          "name": "amount",
          "type": "uint256"
        },
        {
          "internalType": "bytes32",
          "name": "symbol",
          "type": "bytes32"
        }
      ],
      "name": "sendTokens",
      "outputs": [],
      "stateMutability": "nonpayable",
      "type": "function"
    },
    {
      "inputs": [
        {
          "internalType": "bytes32",
          "name": "symbol",
          "type": "bytes32"
        },
        {
          "internalType": "address",
          "name": "tokenAddress",
          "type": "address"
        }
      ],
      "name": "whitelistToken",
      "outputs": [],
      "stateMutability": "nonpayable",
      "type": "function"
    },
    {
      "inputs": [
        {
          "internalType": "uint256",
          "name": "",
          "type": "uint256"
        }
      ],
      "name": "whitelistedSymbols",
      "outputs": [
        {
          "internalType": "bytes32",
          "name": "",
          "type": "bytes32"
        }
      ],
      "stateMutability": "view",
      "type": "function"
    },
    {
      "inputs": [
        {
          "internalType": "bytes32",
          "name": "",
          "type": "bytes32"
        }
      ],
      "name": "whitelistedTokens",
      "outputs": [
        {
          "internalType": "address",
          "name": "",
          "type": "address"
        }
      ],
      "stateMutability": "view",
      "type": "function"
    },
    {
      "inputs": [
        {
          "internalType": "uint256",
          "name": "amount",
          "type": "uint256"
        }
      ],
      "name": "withdrawEther",
      "outputs": [],
      "stateMutability": "nonpayable",
      "type": "function"
    },
    {
      "inputs": [
        {
          "internalType": "uint256",
          "name": "amount",
          "type": "uint256"
        },
        {
          "internalType": "bytes32",
          "name": "symbol",
          "type": "bytes32"
        }
      ],
      "name": "withdrawTokens",
      "outputs": [],
      "stateMutability": "nonpayable",
      "type": "function"
    },
    {
      "stateMutability": "payable",
      "type": "receive"
    }
  ],
  "bytecode": "0x608060405234801561001057600080fd5b50336000806101000a81548173ffffffffffffffffffffffffffffffffffffffff021916908373ffffffffffffffffffffffffffffffffffffffff160217905550611325806100606000396000f3fe6080604052600436106100a05760003560e01c806388db6ac61161006457806388db6ac61461022a5780638f97994b14610267578063aa3d9a1514610290578063b7691c9f146102cd578063d15b223e146102f6578063e88127881461031f5761012e565b8063069fdaae146101335780631f14df691461015c5780633bed33ce146101995780634762b976146101c25780634b1e4aa5146101ff5761012e565b3661012e5734600360003373ffffffffffffffffffffffffffffffffffffffff1673ffffffffffffffffffffffffffffffffffffffff16815260200190815260200160002060007f457468000000000000000000000000000000000000000000000000000000000081526020019081526020016000206000828254610125919061110a565b92505081905550005b600080fd5b34801561013f57600080fd5b5061015a60048036038101906101559190610d8e565b61035c565b005b34801561016857600080fd5b50610183600480360381019061017e9190610d00565b610469565b604051610190919061109a565b60405180910390f35b3480156101a557600080fd5b506101c060048036038101906101bb9190610dca565b61048e565b005b3480156101ce57600080fd5b506101e960048036038101906101e49190610dca565b610678565b6040516101f6919061101f565b60405180910390f35b34801561020b57600080fd5b5061021461069c565b6040516102219190610ffd565b60405180910390f35b34801561023657600080fd5b50610251600480360381019061024c9190610d65565b6106f4565b60405161025e919061109a565b60405180910390f35b34801561027357600080fd5b5061028e60048036038101906102899190610df3565b61074e565b005b34801561029c57600080fd5b506102b760048036038101906102b29190610d65565b61090d565b6040516102c49190610f82565b60405180910390f35b3480156102d957600080fd5b506102f460048036038101906102ef9190610df3565b610940565b005b34801561030257600080fd5b5061031d60048036038101906103189190610df3565b610b41565b005b34801561032b57600080fd5b5061034660048036038101906103419190610d65565b610c6f565b6040516103539190610f82565b60405180910390f35b60008054906101000a900473ffffffffffffffffffffffffffffffffffffffff1673ffffffffffffffffffffffffffffffffffffffff163373ffffffffffffffffffffffffffffffffffffffff16146103ea576040517f08c379a00000000000000000000000000000000000000000000000000000000081526004016103e19061107a565b60405180910390fd5b6001829080600181540180825580915050600190039060005260206000200160009091909190915055806002600084815260200190815260200160002060006101000a81548173ffffffffffffffffffffffffffffffffffffffff021916908373ffffffffffffffffffffffffffffffffffffffff1602179055505050565b6003602052816000526040600020602052806000526040600020600091509150505481565b80600360003373ffffffffffffffffffffffffffffffffffffffff1673ffffffffffffffffffffffffffffffffffffffff16815260200190815260200160002060007f45746800000000000000000000000000000000000000000000000000000000008152602001908152602001600020541015610541576040517f08c379a00000000000000000000000000000000000000000000000000000000081526004016105389061105a565b60405180910390fd5b80600360003373ffffffffffffffffffffffffffffffffffffffff1673ffffffffffffffffffffffffffffffffffffffff16815260200190815260200160002060007f4574680000000000000000000000000000000000000000000000000000000000815260200190815260200160002060008282546105c19190611160565b9250508190555060003373ffffffffffffffffffffffffffffffffffffffff16826040516105ee90610f6d565b60006040518083038185875af1925050503d806000811461062b576040519150601f19603f3d011682016040523d82523d6000602084013e610630565b606091505b5050905080610674576040517f08c379a000000000000000000000000000000000000000000000000000000000815260040161066b9061103a565b60405180910390fd5b5050565b6001818154811061068857600080fd5b906000526020600020016000915090505481565b606060018054806020026020016040519081016040528092919081815260200182805480156106ea57602002820191906000526020600020905b8154815260200190600101908083116106d6575b5050505050905090565b6000600360003373ffffffffffffffffffffffffffffffffffffffff1673ffffffffffffffffffffffffffffffffffffffff1681526020019081526020016000206000838152602001908152602001600020549050919050565b81600360003373ffffffffffffffffffffffffffffffffffffffff1673ffffffffffffffffffffffffffffffffffffffff16815260200190815260200160002060008381526020019081526020016000205410156107e1576040517f08c379a00000000000000000000000000000000000000000000000000000000081526004016107d89061105a565b60405180910390fd5b81600360003373ffffffffffffffffffffffffffffffffffffffff1673ffffffffffffffffffffffffffffffffffffffff168152602001908152602001600020600083815260200190815260200160002060008282546108419190611160565b925050819055506002600082815260200190815260200160002060009054906101000a900473ffffffffffffffffffffffffffffffffffffffff1673ffffffffffffffffffffffffffffffffffffffff1663a9059cbb33846040518363ffffffff1660e01b81526004016108b6929190610fd4565b602060405180830381600087803b1580156108d057600080fd5b505af11580156108e4573d6000803e3d6000fd5b505050506040513d601f19601f820116820180604052508101906109089190610d3c565b505050565b60026020528060005260406000206000915054906101000a900473ffffffffffffffffffffffffffffffffffffffff1681565b81600360008060009054906101000a900473ffffffffffffffffffffffffffffffffffffffff1673ffffffffffffffffffffffffffffffffffffffff1673ffffffffffffffffffffffffffffffffffffffff16815260200190815260200160002060008381526020019081526020016000205410156109f4576040517f08c379a00000000000000000000000000000000000000000000000000000000081526004016109eb9061105a565b60405180910390fd5b81600360008060009054906101000a900473ffffffffffffffffffffffffffffffffffffffff1673ffffffffffffffffffffffffffffffffffffffff1673ffffffffffffffffffffffffffffffffffffffff16815260200190815260200160002060008381526020019081526020016000206000828254610a759190611160565b925050819055506002600082815260200190815260200160002060009054906101000a900473ffffffffffffffffffffffffffffffffffffffff1673ffffffffffffffffffffffffffffffffffffffff1663a9059cbb33846040518363ffffffff1660e01b8152600401610aea929190610fd4565b602060405180830381600087803b158015610b0457600080fd5b505af1158015610b18573d6000803e3d6000fd5b505050506040513d601f19601f82011682018060405250810190610b3c9190610d3c565b505050565b81600360003373ffffffffffffffffffffffffffffffffffffffff1673ffffffffffffffffffffffffffffffffffffffff16815260200190815260200160002060008381526020019081526020016000206000828254610ba1919061110a565b925050819055506002600082815260200190815260200160002060009054906101000a900473ffffffffffffffffffffffffffffffffffffffff1673ffffffffffffffffffffffffffffffffffffffff166323b872dd3330856040518463ffffffff1660e01b8152600401610c1893929190610f9d565b602060405180830381600087803b158015610c3257600080fd5b505af1158015610c46573d6000803e3d6000fd5b505050506040513d601f19601f82011682018060405250810190610c6a9190610d3c565b505050565b60006002600083815260200190815260200160002060009054906101000a900473ffffffffffffffffffffffffffffffffffffffff169050919050565b600081359050610cbb81611293565b92915050565b600081519050610cd0816112aa565b92915050565b600081359050610ce5816112c1565b92915050565b600081359050610cfa816112d8565b92915050565b60008060408385031215610d1357600080fd5b6000610d2185828601610cac565b9250506020610d3285828601610cd6565b9150509250929050565b600060208284031215610d4e57600080fd5b6000610d5c84828501610cc1565b91505092915050565b600060208284031215610d7757600080fd5b6000610d8584828501610cd6565b91505092915050565b60008060408385031215610da157600080fd5b6000610daf85828601610cd6565b9250506020610dc085828601610cac565b9150509250929050565b600060208284031215610ddc57600080fd5b6000610dea84828501610ceb565b91505092915050565b60008060408385031215610e0657600080fd5b6000610e1485828601610ceb565b9250506020610e2585828601610cd6565b9150509250929050565b6000610e3b8383610eb4565b60208301905092915050565b610e5081611194565b82525050565b6000610e61826110c5565b610e6b81856110dd565b9350610e76836110b5565b8060005b83811015610ea7578151610e8e8882610e2f565b9750610e99836110d0565b925050600181019050610e7a565b5085935050505092915050565b610ebd816111b2565b82525050565b610ecc816111b2565b82525050565b6000610edf600b836110f9565b9150610eea82611215565b602082019050919050565b6000610f026012836110f9565b9150610f0d8261123e565b602082019050919050565b6000610f256000836110ee565b9150610f3082611267565b600082019050919050565b6000610f48601e836110f9565b9150610f538261126a565b602082019050919050565b610f67816111dc565b82525050565b6000610f7882610f18565b9150819050919050565b6000602082019050610f976000830184610e47565b92915050565b6000606082019050610fb26000830186610e47565b610fbf6020830185610e47565b610fcc6040830184610f5e565b949350505050565b6000604082019050610fe96000830185610e47565b610ff66020830184610f5e565b9392505050565b600060208201905081810360008301526110178184610e56565b905092915050565b60006020820190506110346000830184610ec3565b92915050565b6000602082019050818103600083015261105381610ed2565b9050919050565b6000602082019050818103600083015261107381610ef5565b9050919050565b6000602082019050818103600083015261109381610f3b565b9050919050565b60006020820190506110af6000830184610f5e565b92915050565b6000819050602082019050919050565b600081519050919050565b6000602082019050919050565b600082825260208201905092915050565b600081905092915050565b600082825260208201905092915050565b6000611115826111dc565b9150611120836111dc565b9250827fffffffffffffffffffffffffffffffffffffffffffffffffffffffffffffffff03821115611155576111546111e6565b5b828201905092915050565b600061116b826111dc565b9150611176836111dc565b925082821015611189576111886111e6565b5b828203905092915050565b600061119f826111bc565b9050919050565b60008115159050919050565b6000819050919050565b600073ffffffffffffffffffffffffffffffffffffffff82169050919050565b6000819050919050565b7f4e487b7100000000000000000000000000000000000000000000000000000000600052601160045260246000fd5b7f43616c6c206661696c6564000000000000000000000000000000000000000000600082015250565b7f496e73756666696369656e742066756e64730000000000000000000000000000600082015250565b50565b7f4f6e6c79204f776e65722063616e2077686974656c69737420746f6b656e0000600082015250565b61129c81611194565b81146112a757600080fd5b50565b6112b3816111a6565b81146112be57600080fd5b50565b6112ca816111b2565b81146112d557600080fd5b50565b6112e1816111dc565b81146112ec57600080fd5b5056fea2646970667358221220431ba9a3c7afff10bd347d51db71b70ff04419aa75c3cb9b33f8ea298296a27c64736f6c63430008040033",
  "linkReferences": {},
  "deployedLinkReferences": {}
}