{
  "_format": "hh-sol-artifact-1",
  "contractName": "NUSMoneyToken",
  "sourceName": "contracts/NUSMoneyToken.sol",
  "abi": [
    {
      "inputs": [],
      "stateMutability": "nonpayable",
      "type": "constructor"
    },
    {
      "anonymous": false,
      "inputs": [
        {
          "indexed": true,
          "internalType": "address",
          "name": "owner",
          "type": "address"
        },
        {
          "indexed": true,
          "internalType": "address",
          "name": "spender",
          "type": "address"
        },
        {
          "indexed": false,
          "internalType": "uint256",
          "name": "value",
          "type": "uint256"
        }
      ],
      "name": "Approval",
      "type": "event"
    },
    {
      "anonymous": false,
      "inputs": [
        {
          "indexed": true,
          "internalType": "address",
          "name": "delegator",
          "type": "address"
        },
        {
          "indexed": true,
          "internalType": "address",
          "name": "fromDelegate",
          "type": "address"
        },
        {
          "indexed": true,
          "internalType": "address",
          "name": "toDelegate",
          "type": "address"
        }
      ],
      "name": "DelegateChanged",
      "type": "event"
    },
    {
      "anonymous": false,
      "inputs": [
        {
          "indexed": true,
          "internalType": "address",
          "name": "delegate",
          "type": "address"
        },
        {
          "indexed": false,
          "internalType": "uint256",
          "name": "previousBalance",
          "type": "uint256"
        },
        {
          "indexed": false,
          "internalType": "uint256",
          "name": "newBalance",
          "type": "uint256"
        }
      ],
      "name": "DelegateVotesChanged",
      "type": "event"
    },
    {
      "anonymous": false,
      "inputs": [
        {
          "indexed": true,
          "internalType": "address",
          "name": "previousOwner",
          "type": "address"
        },
        {
          "indexed": true,
          "internalType": "address",
          "name": "newOwner",
          "type": "address"
        }
      ],
      "name": "OwnershipTransferred",
      "type": "event"
    },
    {
      "anonymous": false,
      "inputs": [
        {
          "indexed": false,
          "internalType": "uint256",
          "name": "id",
          "type": "uint256"
        }
      ],
      "name": "Snapshot",
      "type": "event"
    },
    {
      "anonymous": false,
      "inputs": [
        {
          "indexed": true,
          "internalType": "address",
          "name": "from",
          "type": "address"
        },
        {
          "indexed": true,
          "internalType": "address",
          "name": "to",
          "type": "address"
        },
        {
          "indexed": false,
          "internalType": "uint256",
          "name": "value",
          "type": "uint256"
        }
      ],
      "name": "Transfer",
      "type": "event"
    },
    {
      "inputs": [],
      "name": "DOMAIN_SEPARATOR",
      "outputs": [
        {
          "internalType": "bytes32",
          "name": "",
          "type": "bytes32"
        }
      ],
      "stateMutability": "view",
      "type": "function"
    },
    {
      "inputs": [
        {
          "internalType": "address",
          "name": "owner",
          "type": "address"
        },
        {
          "internalType": "address",
          "name": "spender",
          "type": "address"
        }
      ],
      "name": "allowance",
      "outputs": [
        {
          "internalType": "uint256",
          "name": "",
          "type": "uint256"
        }
      ],
      "stateMutability": "view",
      "type": "function"
    },
    {
      "inputs": [
        {
          "internalType": "address",
          "name": "spender",
          "type": "address"
        },
        {
          "internalType": "uint256",
          "name": "amount",
          "type": "uint256"
        }
      ],
      "name": "approve",
      "outputs": [
        {
          "internalType": "bool",
          "name": "",
          "type": "bool"
        }
      ],
      "stateMutability": "nonpayable",
      "type": "function"
    },
    {
      "inputs": [
        {
          "internalType": "address",
          "name": "account",
          "type": "address"
        }
      ],
      "name": "balanceOf",
      "outputs": [
        {
          "internalType": "uint256",
          "name": "",
          "type": "uint256"
        }
      ],
      "stateMutability": "view",
      "type": "function"
    },
    {
      "inputs": [
        {
          "internalType": "address",
          "name": "account",
          "type": "address"
        },
        {
          "internalType": "uint256",
          "name": "snapshotId",
          "type": "uint256"
        }
      ],
      "name": "balanceOfAt",
      "outputs": [
        {
          "internalType": "uint256",
          "name": "",
          "type": "uint256"
        }
      ],
      "stateMutability": "view",
      "type": "function"
    },
    {
      "inputs": [
        {
          "internalType": "uint256",
          "name": "amount",
          "type": "uint256"
        }
      ],
      "name": "burn",
      "outputs": [],
      "stateMutability": "nonpayable",
      "type": "function"
    },
    {
      "inputs": [
        {
          "internalType": "address",
          "name": "account",
          "type": "address"
        },
        {
          "internalType": "uint256",
          "name": "amount",
          "type": "uint256"
        }
      ],
      "name": "burnFrom",
      "outputs": [],
      "stateMutability": "nonpayable",
      "type": "function"
    },
    {
      "inputs": [
        {
          "internalType": "address",
          "name": "account",
          "type": "address"
        },
        {
          "internalType": "uint32",
          "name": "pos",
          "type": "uint32"
        }
      ],
      "name": "checkpoints",
      "outputs": [
        {
          "components": [
            {
              "internalType": "uint32",
              "name": "fromBlock",
              "type": "uint32"
            },
            {
              "internalType": "uint224",
              "name": "votes",
              "type": "uint224"
            }
          ],
          "internalType": "struct ERC20Votes.Checkpoint",
          "name": "",
          "type": "tuple"
        }
      ],
      "stateMutability": "view",
      "type": "function"
    },
    {
      "inputs": [],
      "name": "decimals",
      "outputs": [
        {
          "internalType": "uint8",
          "name": "",
          "type": "uint8"
        }
      ],
      "stateMutability": "view",
      "type": "function"
    },
    {
      "inputs": [
        {
          "internalType": "address",
          "name": "spender",
          "type": "address"
        },
        {
          "internalType": "uint256",
          "name": "subtractedValue",
          "type": "uint256"
        }
      ],
      "name": "decreaseAllowance",
      "outputs": [
        {
          "internalType": "bool",
          "name": "",
          "type": "bool"
        }
      ],
      "stateMutability": "nonpayable",
      "type": "function"
    },
    {
      "inputs": [
        {
          "internalType": "address",
          "name": "delegatee",
          "type": "address"
        }
      ],
      "name": "delegate",
      "outputs": [],
      "stateMutability": "nonpayable",
      "type": "function"
    },
    {
      "inputs": [
        {
          "internalType": "address",
          "name": "delegatee",
          "type": "address"
        },
        {
          "internalType": "uint256",
          "name": "nonce",
          "type": "uint256"
        },
        {
          "internalType": "uint256",
          "name": "expiry",
          "type": "uint256"
        },
        {
          "internalType": "uint8",
          "name": "v",
          "type": "uint8"
        },
        {
          "internalType": "bytes32",
          "name": "r",
          "type": "bytes32"
        },
        {
          "internalType": "bytes32",
          "name": "s",
          "type": "bytes32"
        }
      ],
      "name": "delegateBySig",
      "outputs": [],
      "stateMutability": "nonpayable",
      "type": "function"
    },
    {
      "inputs": [
        {
          "internalType": "address",
          "name": "account",
          "type": "address"
        }
      ],
      "name": "delegates",
      "outputs": [
        {
          "internalType": "address",
          "name": "",
          "type": "address"
        }
      ],
      "stateMutability": "view",
      "type": "function"
    },
    {
      "inputs": [
        {
          "internalType": "address",
          "name": "token",
          "type": "address"
        },
        {
          "internalType": "uint256",
          "name": "amount",
          "type": "uint256"
        }
      ],
      "name": "flashFee",
      "outputs": [
        {
          "internalType": "uint256",
          "name": "",
          "type": "uint256"
        }
      ],
      "stateMutability": "view",
      "type": "function"
    },
    {
      "inputs": [
        {
          "internalType": "contract IERC3156FlashBorrower",
          "name": "receiver",
          "type": "address"
        },
        {
          "internalType": "address",
          "name": "token",
          "type": "address"
        },
        {
          "internalType": "uint256",
          "name": "amount",
          "type": "uint256"
        },
        {
          "internalType": "bytes",
          "name": "data",
          "type": "bytes"
        }
      ],
      "name": "flashLoan",
      "outputs": [
        {
          "internalType": "bool",
          "name": "",
          "type": "bool"
        }
      ],
      "stateMutability": "nonpayable",
      "type": "function"
    },
    {
      "inputs": [
        {
          "internalType": "uint256",
          "name": "blockNumber",
          "type": "uint256"
        }
      ],
      "name": "getPastTotalSupply",
      "outputs": [
        {
          "internalType": "uint256",
          "name": "",
          "type": "uint256"
        }
      ],
      "stateMutability": "view",
      "type": "function"
    },
    {
      "inputs": [
        {
          "internalType": "address",
          "name": "account",
          "type": "address"
        },
        {
          "internalType": "uint256",
          "name": "blockNumber",
          "type": "uint256"
        }
      ],
      "name": "getPastVotes",
      "outputs": [
        {
          "internalType": "uint256",
          "name": "",
          "type": "uint256"
        }
      ],
      "stateMutability": "view",
      "type": "function"
    },
    {
      "inputs": [
        {
          "internalType": "address",
          "name": "account",
          "type": "address"
        }
      ],
      "name": "getVotes",
      "outputs": [
        {
          "internalType": "uint256",
          "name": "",
          "type": "uint256"
        }
      ],
      "stateMutability": "view",
      "type": "function"
    },
    {
      "inputs": [
        {
          "internalType": "address",
          "name": "spender",
          "type": "address"
        },
        {
          "internalType": "uint256",
          "name": "addedValue",
          "type": "uint256"
        }
      ],
      "name": "increaseAllowance",
      "outputs": [
        {
          "internalType": "bool",
          "name": "",
          "type": "bool"
        }
      ],
      "stateMutability": "nonpayable",
      "type": "function"
    },
    {
      "inputs": [
        {
          "internalType": "address",
          "name": "token",
          "type": "address"
        }
      ],
      "name": "maxFlashLoan",
      "outputs": [
        {
          "internalType": "uint256",
          "name": "",
          "type": "uint256"
        }
      ],
      "stateMutability": "view",
      "type": "function"
    },
    {
      "inputs": [
        {
          "internalType": "address",
          "name": "to",
          "type": "address"
        },
        {
          "internalType": "uint256",
          "name": "amount",
          "type": "uint256"
        }
      ],
      "name": "mint",
      "outputs": [],
      "stateMutability": "nonpayable",
      "type": "function"
    },
    {
      "inputs": [],
      "name": "name",
      "outputs": [
        {
          "internalType": "string",
          "name": "",
          "type": "string"
        }
      ],
      "stateMutability": "view",
      "type": "function"
    },
    {
      "inputs": [
        {
          "internalType": "address",
          "name": "owner",
          "type": "address"
        }
      ],
      "name": "nonces",
      "outputs": [
        {
          "internalType": "uint256",
          "name": "",
          "type": "uint256"
        }
      ],
      "stateMutability": "view",
      "type": "function"
    },
    {
      "inputs": [
        {
          "internalType": "address",
          "name": "account",
          "type": "address"
        }
      ],
      "name": "numCheckpoints",
      "outputs": [
        {
          "internalType": "uint32",
          "name": "",
          "type": "uint32"
        }
      ],
      "stateMutability": "view",
      "type": "function"
    },
    {
      "inputs": [],
      "name": "owner",
      "outputs": [
        {
          "internalType": "address",
          "name": "",
          "type": "address"
        }
      ],
      "stateMutability": "view",
      "type": "function"
    },
    {
      "inputs": [
        {
          "internalType": "address",
          "name": "owner",
          "type": "address"
        },
        {
          "internalType": "address",
          "name": "spender",
          "type": "address"
        },
        {
          "internalType": "uint256",
          "name": "value",
          "type": "uint256"
        },
        {
          "internalType": "uint256",
          "name": "deadline",
          "type": "uint256"
        },
        {
          "internalType": "uint8",
          "name": "v",
          "type": "uint8"
        },
        {
          "internalType": "bytes32",
          "name": "r",
          "type": "bytes32"
        },
        {
          "internalType": "bytes32",
          "name": "s",
          "type": "bytes32"
        }
      ],
      "name": "permit",
      "outputs": [],
      "stateMutability": "nonpayable",
      "type": "function"
    },
    {
      "inputs": [],
      "name": "renounceOwnership",
      "outputs": [],
      "stateMutability": "nonpayable",
      "type": "function"
    },
    {
      "inputs": [],
      "name": "snapshot",
      "outputs": [],
      "stateMutability": "nonpayable",
      "type": "function"
    },
    {
      "inputs": [],
      "name": "symbol",
      "outputs": [
        {
          "internalType": "string",
          "name": "",
          "type": "string"
        }
      ],
      "stateMutability": "view",
      "type": "function"
    },
    {
      "inputs": [],
      "name": "totalSupply",
      "outputs": [
        {
          "internalType": "uint256",
          "name": "",
          "type": "uint256"
        }
      ],
      "stateMutability": "view",
      "type": "function"
    },
    {
      "inputs": [
        {
          "internalType": "uint256",
          "name": "snapshotId",
          "type": "uint256"
        }
      ],
      "name": "totalSupplyAt",
      "outputs": [
        {
          "internalType": "uint256",
          "name": "",
          "type": "uint256"
        }
      ],
      "stateMutability": "view",
      "type": "function"
    },
    {
      "inputs": [
        {
          "internalType": "address",
          "name": "to",
          "type": "address"
        },
        {
          "internalType": "uint256",
          "name": "amount",
          "type": "uint256"
        }
      ],
      "name": "transfer",
      "outputs": [
        {
          "internalType": "bool",
          "name": "",
          "type": "bool"
        }
      ],
      "stateMutability": "nonpayable",
      "type": "function"
    },
    {
      "inputs": [
        {
          "internalType": "address",
          "name": "from",
          "type": "address"
        },
        {
          "internalType": "address",
          "name": "to",
          "type": "address"
        },
        {
          "internalType": "uint256",
          "name": "amount",
          "type": "uint256"
        }
      ],
      "name": "transferFrom",
      "outputs": [
        {
          "internalType": "bool",
          "name": "",
          "type": "bool"
        }
      ],
      "stateMutability": "nonpayable",
      "type": "function"
    },
    {
      "inputs": [
        {
          "internalType": "address",
          "name": "newOwner",
          "type": "address"
        }
      ],
      "name": "transferOwnership",
      "outputs": [],
      "stateMutability": "nonpayable",
      "type": "function"
    }
  ],
  "bytecode": "0x6101606040527f6e71edae12b1b97f4d1f60370fef10105fa2faae0126114a169c64845d6126c9610140908152503480156200003a57600080fd5b506040518060400160405280600f81526020017f4e5553204d6f6e657920546f6b656e0000000000000000000000000000000000815250806040518060400160405280600181526020017f31000000000000000000000000000000000000000000000000000000000000008152506040518060400160405280600f81526020017f4e5553204d6f6e657920546f6b656e00000000000000000000000000000000008152506040518060400160405280600881526020017f4e55534d6f6e657900000000000000000000000000000000000000000000000081525081600390805190602001906200012c92919062001021565b5080600490805190602001906200014592919062001021565b505050620001686200015c6200026360201b60201c565b6200026b60201b60201c565b60008280519060200120905060008280519060200120905060007f8b73c3c69bb8fe3d512ecc4cf759cc79239f7b179b0ffacaa9a75d522b39400f90508260e081815250508161010081815250504660a08181525050620001d18184846200033160201b60201c565b608081815250503073ffffffffffffffffffffffffffffffffffffffff1660c08173ffffffffffffffffffffffffffffffffffffffff1660601b815250508061012081815250505050505050506200025d33620002336200036d60201b60201c565b600a62000241919062001398565b621e8480620002519190620014d5565b6200037660201b60201c565b6200177d565b600033905090565b6000600960009054906101000a900473ffffffffffffffffffffffffffffffffffffffff16905081600960006101000a81548173ffffffffffffffffffffffffffffffffffffffff021916908373ffffffffffffffffffffffffffffffffffffffff1602179055508173ffffffffffffffffffffffffffffffffffffffff168173ffffffffffffffffffffffffffffffffffffffff167f8be0079c531659141344cd1fd0a4f28419497f9722a3daafe3b4186f6b6457e060405160405180910390a35050565b600083838346306040516020016200034e959493929190620011a0565b6040516020818303038152906040528051906020012090509392505050565b60006012905090565b6200038d82826200039160201b620018801760201c565b5050565b620003a882826200044f60201b6200190d1760201c565b620003b8620005c860201b60201c565b7bffffffffffffffffffffffffffffffffffffffffffffffffffffffff16620003e6620005ec60201b60201c565b11156200042a576040517f08c379a00000000000000000000000000000000000000000000000000000000081526004016200042190620011fd565b60405180910390fd5b62000449600d620005f660201b62001a6d17836200060e60201b60201c565b50505050565b600073ffffffffffffffffffffffffffffffffffffffff168273ffffffffffffffffffffffffffffffffffffffff161415620004c2576040517f08c379a0000000000000000000000000000000000000000000000000000000008152600401620004b99062001263565b60405180910390fd5b620004d6600083836200092b60201b60201c565b8060026000828254620004ea9190620012e0565b92505081905550806000808473ffffffffffffffffffffffffffffffffffffffff1673ffffffffffffffffffffffffffffffffffffffff1681526020019081526020016000206000828254620005419190620012e0565b925050819055508173ffffffffffffffffffffffffffffffffffffffff16600073ffffffffffffffffffffffffffffffffffffffff167fddf252ad1be2c89b69c2b068fc378daa952ba7f163c4a11628f55a4df523b3ef83604051620005a8919062001285565b60405180910390a3620005c4600083836200094860201b60201c565b5050565b60007bffffffffffffffffffffffffffffffffffffffffffffffffffffffff905090565b6000600254905090565b60008183620006069190620012e0565b905092915050565b60008060008580549050905060008114620006a7578560018262000633919062001536565b815481106200066b577f4e487b7100000000000000000000000000000000000000000000000000000000600052603260045260246000fd5b9060005260206000200160000160049054906101000a90047bffffffffffffffffffffffffffffffffffffffffffffffffffffffff16620006aa565b60005b7bffffffffffffffffffffffffffffffffffffffffffffffffffffffff169250620006d683858760201c565b91506000811180156200075357504386600183620006f5919062001536565b815481106200072d577f4e487b7100000000000000000000000000000000000000000000000000000000600052603260045260246000fd5b9060005260206000200160000160009054906101000a900463ffffffff1663ffffffff16145b1562000818576200076f826200096560201b62001a831760201c565b866001836200077f919062001536565b81548110620007b7577f4e487b7100000000000000000000000000000000000000000000000000000000600052603260045260246000fd5b9060005260206000200160000160046101000a8154817bffffffffffffffffffffffffffffffffffffffffffffffffffffffff02191690837bffffffffffffffffffffffffffffffffffffffffffffffffffffffff16021790555062000922565b8560405180604001604052806200083a43620009d360201b62001aee1760201c565b63ffffffff1681526020016200085b856200096560201b62001a831760201c565b7bffffffffffffffffffffffffffffffffffffffffffffffffffffffff168152509080600181540180825580915050600190039060005260206000200160009091909190915060008201518160000160006101000a81548163ffffffff021916908363ffffffff16021790555060208201518160000160046101000a8154817bffffffffffffffffffffffffffffffffffffffffffffffffffffffff02191690837bffffffffffffffffffffffffffffffffffffffffffffffffffffffff16021790555050505b50935093915050565b6200094383838362000a2960201b62001b411760201c565b505050565b6200096083838362000b2460201b62001bfb1760201c565b505050565b60007bffffffffffffffffffffffffffffffffffffffffffffffffffffffff8016821115620009cb576040517f08c379a0000000000000000000000000000000000000000000000000000000008152600401620009c2906200121f565b60405180910390fd5b819050919050565b600063ffffffff801682111562000a21576040517f08c379a000000000000000000000000000000000000000000000000000000000815260040162000a189062001241565b60405180910390fd5b819050919050565b62000a4183838362000b7460201b62001c261760201c565b600073ffffffffffffffffffffffffffffffffffffffff168373ffffffffffffffffffffffffffffffffffffffff16141562000a9e5762000a888262000b7960201b60201c565b62000a9862000bdc60201b60201c565b62000b1f565b600073ffffffffffffffffffffffffffffffffffffffff168273ffffffffffffffffffffffffffffffffffffffff16141562000afb5762000ae58362000b7960201b60201c565b62000af562000bdc60201b60201c565b62000b1e565b62000b0c8362000b7960201b60201c565b62000b1d8262000b7960201b60201c565b5b5b505050565b62000b3c83838362000c0060201b62001c2b1760201c565b62000b6f62000b518462000c0560201b60201c565b62000b628462000c0560201b60201c565b8362000c6e60201b60201c565b505050565b505050565b62000bd9600560008373ffffffffffffffffffffffffffffffffffffffff1673ffffffffffffffffffffffffffffffffffffffff16815260200190815260200160002062000bcd8362000e9160201b60201c565b62000ed960201b60201c565b50565b62000bfe600662000bf2620005ec60201b60201c565b62000ed960201b60201c565b565b505050565b6000600b60008373ffffffffffffffffffffffffffffffffffffffff1673ffffffffffffffffffffffffffffffffffffffff16815260200190815260200160002060009054906101000a900473ffffffffffffffffffffffffffffffffffffffff169050919050565b8173ffffffffffffffffffffffffffffffffffffffff168373ffffffffffffffffffffffffffffffffffffffff161415801562000cab5750600081115b1562000e8c57600073ffffffffffffffffffffffffffffffffffffffff168373ffffffffffffffffffffffffffffffffffffffff161462000d9e5760008062000d45600c60008773ffffffffffffffffffffffffffffffffffffffff1673ffffffffffffffffffffffffffffffffffffffff16815260200190815260200160002062000f6560201b62001c3017856200060e60201b60201c565b915091508473ffffffffffffffffffffffffffffffffffffffff167fdec2bacdd2f05b59de34da9b523dff8be42e5e38e818c82fdb0bae774387a724838360405162000d93929190620012a2565b60405180910390a250505b600073ffffffffffffffffffffffffffffffffffffffff168273ffffffffffffffffffffffffffffffffffffffff161462000e8b5760008062000e32600c60008673ffffffffffffffffffffffffffffffffffffffff1673ffffffffffffffffffffffffffffffffffffffff168152602001908152602001600020620005f660201b62001a6d17856200060e60201b60201c565b915091508373ffffffffffffffffffffffffffffffffffffffff167fdec2bacdd2f05b59de34da9b523dff8be42e5e38e818c82fdb0bae774387a724838360405162000e80929190620012a2565b60405180910390a250505b5b505050565b60008060008373ffffffffffffffffffffffffffffffffffffffff1673ffffffffffffffffffffffffffffffffffffffff168152602001908152602001600020549050919050565b600062000eeb62000f7d60201b60201c565b90508062000f028460000162000f9b60201b60201c565b101562000f605782600001819080600181540180825580915050600190039060005260206000200160009091909190915055826001018290806001815401808255809150506001900390600052602060002001600090919091909150555b505050565b6000818362000f75919062001536565b905092915050565b600062000f9660086200101360201b62001c461760201c565b905090565b6000808280549050141562000fb457600090506200100e565b816001838054905062000fc8919062001536565b8154811062001000577f4e487b7100000000000000000000000000000000000000000000000000000000600052603260045260246000fd5b906000526020600020015490505b919050565b600081600001549050919050565b8280546200102f90620015c6565b90600052602060002090601f0160209004810192826200105357600085556200109f565b82601f106200106e57805160ff19168380011785556200109f565b828001600101855582156200109f579182015b828111156200109e57825182559160200191906001019062001081565b5b509050620010ae9190620010b2565b5090565b5b80821115620010cd576000816000905550600101620010b3565b5090565b620010dc8162001571565b82525050565b620010ed8162001585565b82525050565b600062001102603083620012cf565b91506200110f8262001667565b604082019050919050565b600062001129602783620012cf565b91506200113682620016b6565b604082019050919050565b600062001150602683620012cf565b91506200115d8262001705565b604082019050919050565b600062001177601f83620012cf565b9150620011848262001754565b602082019050919050565b6200119a81620015af565b82525050565b600060a082019050620011b76000830188620010e2565b620011c66020830187620010e2565b620011d56040830186620010e2565b620011e460608301856200118f565b620011f36080830184620010d1565b9695505050505050565b600060208201905081810360008301526200121881620010f3565b9050919050565b600060208201905081810360008301526200123a816200111a565b9050919050565b600060208201905081810360008301526200125c8162001141565b9050919050565b600060208201905081810360008301526200127e8162001168565b9050919050565b60006020820190506200129c60008301846200118f565b92915050565b6000604082019050620012b960008301856200118f565b620012c860208301846200118f565b9392505050565b600082825260208201905092915050565b6000620012ed82620015af565b9150620012fa83620015af565b9250827fffffffffffffffffffffffffffffffffffffffffffffffffffffffffffffffff03821115620013325762001331620015fc565b5b828201905092915050565b6000808291508390505b60018511156200138f57808604811115620013675762001366620015fc565b5b6001851615620013775780820291505b808102905062001387856200165a565b945062001347565b94509492505050565b6000620013a582620015af565b9150620013b283620015b9565b9250620013e17fffffffffffffffffffffffffffffffffffffffffffffffffffffffffffffffff8484620013e9565b905092915050565b600082620013fb5760019050620014ce565b816200140b5760009050620014ce565b81600181146200142457600281146200142f5762001465565b6001915050620014ce565b60ff841115620014445762001443620015fc565b5b8360020a9150848211156200145e576200145d620015fc565b5b50620014ce565b5060208310610133831016604e8410600b84101617156200149f5782820a905083811115620014995762001498620015fc565b5b620014ce565b620014ae84848460016200133d565b92509050818404811115620014c857620014c7620015fc565b5b81810290505b9392505050565b6000620014e282620015af565b9150620014ef83620015af565b9250817fffffffffffffffffffffffffffffffffffffffffffffffffffffffffffffffff04831182151516156200152b576200152a620015fc565b5b828202905092915050565b60006200154382620015af565b91506200155083620015af565b925082821015620015665762001565620015fc565b5b828203905092915050565b60006200157e826200158f565b9050919050565b6000819050919050565b600073ffffffffffffffffffffffffffffffffffffffff82169050919050565b6000819050919050565b600060ff82169050919050565b60006002820490506001821680620015df57607f821691505b60208210811415620015f657620015f56200162b565b5b50919050565b7f4e487b7100000000000000000000000000000000000000000000000000000000600052601160045260246000fd5b7f4e487b7100000000000000000000000000000000000000000000000000000000600052602260045260246000fd5b60008160011c9050919050565b7f4552433230566f7465733a20746f74616c20737570706c79207269736b73206f60008201527f766572666c6f77696e6720766f74657300000000000000000000000000000000602082015250565b7f53616665436173743a2076616c756520646f65736e27742066697420696e203260008201527f3234206269747300000000000000000000000000000000000000000000000000602082015250565b7f53616665436173743a2076616c756520646f65736e27742066697420696e203360008201527f3220626974730000000000000000000000000000000000000000000000000000602082015250565b7f45524332303a206d696e7420746f20746865207a65726f206164647265737300600082015250565b60805160a05160c05160601c60e051610100516101205161014051615195620017db6000396000611456015260006121e20152600061222401526000612203015260006121380152600061218e015260006121b701526151956000f3fe608060405234801561001057600080fd5b50600436106102065760003560e01c8063715018a61161011a5780639ab24eb0116100ad578063d505accf1161007c578063d505accf1461065f578063d9d98ce41461067b578063dd62ed3e146106ab578063f1127ed8146106db578063f2fde38b1461070b57610206565b80639ab24eb0146105b3578063a457c2d7146105e3578063a9059cbb14610613578063c3cda5201461064357610206565b80638e539e8c116100e95780638e539e8c1461052b57806395d89b411461055b5780639711715a14610579578063981b24d01461058357610206565b8063715018a6146104b757806379cc6790146104c15780637ecebe00146104dd5780638da5cb5b1461050d57610206565b806340c10f191161019d5780635c19a95c1161016c5780635c19a95c146103db5780635cffe9de146103f7578063613255ab146104275780636fcfff451461045757806370a082311461048757610206565b806340c10f191461034357806342966c681461035f5780634ee2cd7e1461037b578063587cde1e146103ab57610206565b8063313ce567116101d9578063313ce567146102a75780633644e515146102c557806339509351146102e35780633a46b1a81461031357610206565b806306fdde031461020b578063095ea7b31461022957806318160ddd1461025957806323b872dd14610277575b600080fd5b610213610727565b6040516102209190614229565b60405180910390f35b610243600480360381019061023e91906138d3565b6107b9565b60405161025091906140b5565b60405180910390f35b6102616107dc565b60405161026e9190614626565b60405180910390f35b610291600480360381019061028c91906137e6565b6107e6565b60405161029e91906140b5565b60405180910390f35b6102af610815565b6040516102bc9190614685565b60405180910390f35b6102cd61081e565b6040516102da91906140d0565b60405180910390f35b6102fd60048036038101906102f891906138d3565b61082d565b60405161030a91906140b5565b60405180910390f35b61032d600480360381019061032891906138d3565b6108d7565b60405161033a9190614626565b60405180910390f35b61035d600480360381019061035891906138d3565b61096b565b005b61037960048036038101906103749190613a7d565b6109f5565b005b610395600480360381019061039091906138d3565b610a09565b6040516103a29190614626565b60405180910390f35b6103c560048036038101906103c09190613781565b610a79565b6040516103d2919061403e565b60405180910390f35b6103f560048036038101906103f09190613781565b610ae2565b005b610411600480360381019061040c91906139fd565b610af6565b60405161041e91906140b5565b60405180910390f35b610441600480360381019061043c9190613781565b610cf2565b60405161044e9190614626565b60405180910390f35b610471600480360381019061046c9190613781565b610d69565b60405161047e919061466a565b60405180910390f35b6104a1600480360381019061049c9190613781565b610dbd565b6040516104ae9190614626565b60405180910390f35b6104bf610e05565b005b6104db60048036038101906104d691906138d3565b610e8d565b005b6104f760048036038101906104f29190613781565b610ead565b6040516105049190614626565b60405180910390f35b610515610efd565b604051610522919061403e565b60405180910390f35b61054560048036038101906105409190613a7d565b610f27565b6040516105529190614626565b60405180910390f35b610563610f7d565b6040516105709190614229565b60405180910390f35b61058161100f565b005b61059d60048036038101906105989190613a7d565b611096565b6040516105aa9190614626565b60405180910390f35b6105cd60048036038101906105c89190613781565b6110c7565b6040516105da9190614626565b60405180910390f35b6105fd60048036038101906105f891906138d3565b6111fe565b60405161060a91906140b5565b60405180910390f35b61062d600480360381019061062891906138d3565b6112e8565b60405161063a91906140b5565b60405180910390f35b61065d6004803603810190610658919061390f565b61130b565b005b61067960048036038101906106749190613835565b61140f565b005b610695600480360381019061069091906138d3565b611551565b6040516106a29190614626565b60405180910390f35b6106c560048036038101906106c091906137aa565b6115cb565b6040516106d29190614626565b60405180910390f35b6106f560048036038101906106f09190613998565b611652565b604051610702919061460b565b60405180910390f35b61072560048036038101906107209190613781565b611788565b005b6060600380546107369061487e565b80601f01602080910402602001604051908101604052809291908181526020018280546107629061487e565b80156107af5780601f10610784576101008083540402835291602001916107af565b820191906000526020600020905b81548152906001019060200180831161079257829003601f168201915b5050505050905090565b6000806107c4611c54565b90506107d1818585611c5c565b600191505092915050565b6000600254905090565b6000806107f1611c54565b90506107fe858285611e27565b610809858585611eb3565b60019150509392505050565b60006012905090565b6000610828612134565b905090565b600080610838611c54565b90506108cc818585600160008673ffffffffffffffffffffffffffffffffffffffff1673ffffffffffffffffffffffffffffffffffffffff16815260200190815260200160002060008973ffffffffffffffffffffffffffffffffffffffff1673ffffffffffffffffffffffffffffffffffffffff168152602001908152602001600020546108c791906146d8565b611c5c565b600191505092915050565b600043821061091b576040517f08c379a0000000000000000000000000000000000000000000000000000000008152600401610912906142ab565b60405180910390fd5b610963600c60008573ffffffffffffffffffffffffffffffffffffffff1673ffffffffffffffffffffffffffffffffffffffff1681526020019081526020016000208361224e565b905092915050565b610973611c54565b73ffffffffffffffffffffffffffffffffffffffff16610991610efd565b73ffffffffffffffffffffffffffffffffffffffff16146109e7576040517f08c379a00000000000000000000000000000000000000000000000000000000081526004016109de906144ab565b60405180910390fd5b6109f182826123a6565b5050565b610a06610a00611c54565b826123b4565b50565b6000806000610a5684600560008873ffffffffffffffffffffffffffffffffffffffff1673ffffffffffffffffffffffffffffffffffffffff1681526020019081526020016000206123c2565b9150915081610a6d57610a6885610dbd565b610a6f565b805b9250505092915050565b6000600b60008373ffffffffffffffffffffffffffffffffffffffff1673ffffffffffffffffffffffffffffffffffffffff16815260200190815260200160002060009054906101000a900473ffffffffffffffffffffffffffffffffffffffff169050919050565b610af3610aed611c54565b826124de565b50565b6000610b0185610cf2565b841115610b43576040517f08c379a0000000000000000000000000000000000000000000000000000000008152600401610b3a906144eb565b60405180910390fd5b6000610b4f8686611551565b9050610b5b87866123a6565b7f439148f0bbc682ca079e46d6e2c2f0c1e3b820f1a291b069d8882abf8cf18dd98773ffffffffffffffffffffffffffffffffffffffff166323e30c8b338989868a8a6040518763ffffffff1660e01b8152600401610bbf96959493929190614059565b602060405180830381600087803b158015610bd957600080fd5b505af1158015610bed573d6000803e3d6000fd5b505050506040513d601f19601f82011682018060405250810190610c1191906139d4565b14610c51576040517f08c379a0000000000000000000000000000000000000000000000000000000008152600401610c489061440b565b60405180910390fd5b6000610c5d88306115cb565b90508186610c6b91906146d8565b811015610cad576040517f08c379a0000000000000000000000000000000000000000000000000000000008152600401610ca4906145ab565b60405180910390fd5b610cce8830848985610cbf919061475f565b610cc9919061475f565b611c5c565b610ce3888388610cde91906146d8565b6123b4565b60019250505095945050505050565b60003073ffffffffffffffffffffffffffffffffffffffff168273ffffffffffffffffffffffffffffffffffffffff1614610d2e576000610d62565b610d366107dc565b7fffffffffffffffffffffffffffffffffffffffffffffffffffffffffffffffff610d61919061475f565b5b9050919050565b6000610db6600c60008473ffffffffffffffffffffffffffffffffffffffff1673ffffffffffffffffffffffffffffffffffffffff16815260200190815260200160002080549050611aee565b9050919050565b60008060008373ffffffffffffffffffffffffffffffffffffffff1673ffffffffffffffffffffffffffffffffffffffff168152602001908152602001600020549050919050565b610e0d611c54565b73ffffffffffffffffffffffffffffffffffffffff16610e2b610efd565b73ffffffffffffffffffffffffffffffffffffffff1614610e81576040517f08c379a0000000000000000000000000000000000000000000000000000000008152600401610e78906144ab565b60405180910390fd5b610e8b60006125f8565b565b610e9f82610e99611c54565b83611e27565b610ea982826123b4565b5050565b6000610ef6600a60008473ffffffffffffffffffffffffffffffffffffffff1673ffffffffffffffffffffffffffffffffffffffff168152602001908152602001600020611c46565b9050919050565b6000600960009054906101000a900473ffffffffffffffffffffffffffffffffffffffff16905090565b6000438210610f6b576040517f08c379a0000000000000000000000000000000000000000000000000000000008152600401610f62906142ab565b60405180910390fd5b610f76600d8361224e565b9050919050565b606060048054610f8c9061487e565b80601f0160208091040260200160405190810160405280929190818152602001828054610fb89061487e565b80156110055780601f10610fda57610100808354040283529160200191611005565b820191906000526020600020905b815481529060010190602001808311610fe857829003601f168201915b5050505050905090565b611017611c54565b73ffffffffffffffffffffffffffffffffffffffff16611035610efd565b73ffffffffffffffffffffffffffffffffffffffff161461108b576040517f08c379a0000000000000000000000000000000000000000000000000000000008152600401611082906144ab565b60405180910390fd5b6110936126be565b50565b60008060006110a68460066123c2565b91509150816110bc576110b76107dc565b6110be565b805b92505050919050565b600080600c60008473ffffffffffffffffffffffffffffffffffffffff1673ffffffffffffffffffffffffffffffffffffffff168152602001908152602001600020805490509050600081146111d557600c60008473ffffffffffffffffffffffffffffffffffffffff1673ffffffffffffffffffffffffffffffffffffffff168152602001908152602001600020600182611163919061475f565b8154811061119a577f4e487b7100000000000000000000000000000000000000000000000000000000600052603260045260246000fd5b9060005260206000200160000160049054906101000a90047bffffffffffffffffffffffffffffffffffffffffffffffffffffffff166111d8565b60005b7bffffffffffffffffffffffffffffffffffffffffffffffffffffffff16915050919050565b600080611209611c54565b90506000600160008373ffffffffffffffffffffffffffffffffffffffff1673ffffffffffffffffffffffffffffffffffffffff16815260200190815260200160002060008673ffffffffffffffffffffffffffffffffffffffff1673ffffffffffffffffffffffffffffffffffffffff168152602001908152602001600020549050838110156112cf576040517f08c379a00000000000000000000000000000000000000000000000000000000081526004016112c6906145cb565b60405180910390fd5b6112dc8286868403611c5c565b60019250505092915050565b6000806112f3611c54565b9050611300818585611eb3565b600191505092915050565b8342111561134e576040517f08c379a0000000000000000000000000000000000000000000000000000000008152600401611345906142cb565b60405180910390fd5b60006113b06113a87fe48329057bfd03d55e49b547132e39cffd9c1820ad7b9d4c5307691425d15adf89898960405160200161138d949392919061414c565b60405160208183030381529060405280519060200120612714565b85858561272e565b90506113bb81612759565b86146113fc576040517f08c379a00000000000000000000000000000000000000000000000000000000081526004016113f39061432b565b60405180910390fd5b61140681886124de565b50505050505050565b83421115611452576040517f08c379a0000000000000000000000000000000000000000000000000000000008152600401611449906143ab565b60405180910390fd5b60007f00000000000000000000000000000000000000000000000000000000000000008888886114818c612759565b89604051602001611497969594939291906140eb565b60405160208183030381529060405280519060200120905060006114ba82612714565b905060006114ca8287878761272e565b90508973ffffffffffffffffffffffffffffffffffffffff168173ffffffffffffffffffffffffffffffffffffffff161461153a576040517f08c379a00000000000000000000000000000000000000000000000000000000081526004016115319061446b565b60405180910390fd5b6115458a8a8a611c5c565b50505050505050505050565b60003073ffffffffffffffffffffffffffffffffffffffff168373ffffffffffffffffffffffffffffffffffffffff16146115c1576040517f08c379a00000000000000000000000000000000000000000000000000000000081526004016115b89061442b565b60405180910390fd5b6000905092915050565b6000600160008473ffffffffffffffffffffffffffffffffffffffff1673ffffffffffffffffffffffffffffffffffffffff16815260200190815260200160002060008373ffffffffffffffffffffffffffffffffffffffff1673ffffffffffffffffffffffffffffffffffffffff16815260200190815260200160002054905092915050565b61165a613666565b600c60008473ffffffffffffffffffffffffffffffffffffffff1673ffffffffffffffffffffffffffffffffffffffff1681526020019081526020016000208263ffffffff16815481106116d7577f4e487b7100000000000000000000000000000000000000000000000000000000600052603260045260246000fd5b906000526020600020016040518060400160405290816000820160009054906101000a900463ffffffff1663ffffffff1663ffffffff1681526020016000820160049054906101000a90047bffffffffffffffffffffffffffffffffffffffffffffffffffffffff167bffffffffffffffffffffffffffffffffffffffffffffffffffffffff167bffffffffffffffffffffffffffffffffffffffffffffffffffffffff1681525050905092915050565b611790611c54565b73ffffffffffffffffffffffffffffffffffffffff166117ae610efd565b73ffffffffffffffffffffffffffffffffffffffff1614611804576040517f08c379a00000000000000000000000000000000000000000000000000000000081526004016117fb906144ab565b60405180910390fd5b600073ffffffffffffffffffffffffffffffffffffffff168173ffffffffffffffffffffffffffffffffffffffff161415611874576040517f08c379a000000000000000000000000000000000000000000000000000000000815260040161186b9061434b565b60405180910390fd5b61187d816125f8565b50565b61188a828261190d565b6118926127b7565b7bffffffffffffffffffffffffffffffffffffffffffffffffffffffff166118b86107dc565b11156118f9576040517f08c379a00000000000000000000000000000000000000000000000000000000081526004016118f09061448b565b60405180910390fd5b611907600d611a6d836127db565b50505050565b600073ffffffffffffffffffffffffffffffffffffffff168273ffffffffffffffffffffffffffffffffffffffff16141561197d576040517f08c379a0000000000000000000000000000000000000000000000000000000008152600401611974906145eb565b60405180910390fd5b61198960008383612ac5565b806002600082825461199b91906146d8565b92505081905550806000808473ffffffffffffffffffffffffffffffffffffffff1673ffffffffffffffffffffffffffffffffffffffff16815260200190815260200160002060008282546119f091906146d8565b925050819055508173ffffffffffffffffffffffffffffffffffffffff16600073ffffffffffffffffffffffffffffffffffffffff167fddf252ad1be2c89b69c2b068fc378daa952ba7f163c4a11628f55a4df523b3ef83604051611a559190614626565b60405180910390a3611a6960008383612ad5565b5050565b60008183611a7b91906146d8565b905092915050565b60007bffffffffffffffffffffffffffffffffffffffffffffffffffffffff8016821115611ae6576040517f08c379a0000000000000000000000000000000000000000000000000000000008152600401611add906144cb565b60405180910390fd5b819050919050565b600063ffffffff8016821115611b39576040517f08c379a0000000000000000000000000000000000000000000000000000000008152600401611b309061454b565b60405180910390fd5b819050919050565b611b4c838383611c26565b600073ffffffffffffffffffffffffffffffffffffffff168373ffffffffffffffffffffffffffffffffffffffff161415611b9757611b8a82612ae5565b611b92612b38565b611bf6565b600073ffffffffffffffffffffffffffffffffffffffff168273ffffffffffffffffffffffffffffffffffffffff161415611be257611bd583612ae5565b611bdd612b38565b611bf5565b611beb83612ae5565b611bf482612ae5565b5b5b505050565b611c06838383611c2b565b611c21611c1284610a79565b611c1b84610a79565b83612b4c565b505050565b505050565b505050565b60008183611c3e919061475f565b905092915050565b600081600001549050919050565b600033905090565b600073ffffffffffffffffffffffffffffffffffffffff168373ffffffffffffffffffffffffffffffffffffffff161415611ccc576040517f08c379a0000000000000000000000000000000000000000000000000000000008152600401611cc39061456b565b60405180910390fd5b600073ffffffffffffffffffffffffffffffffffffffff168273ffffffffffffffffffffffffffffffffffffffff161415611d3c576040517f08c379a0000000000000000000000000000000000000000000000000000000008152600401611d339061436b565b60405180910390fd5b80600160008573ffffffffffffffffffffffffffffffffffffffff1673ffffffffffffffffffffffffffffffffffffffff16815260200190815260200160002060008473ffffffffffffffffffffffffffffffffffffffff1673ffffffffffffffffffffffffffffffffffffffff168152602001908152602001600020819055508173ffffffffffffffffffffffffffffffffffffffff168373ffffffffffffffffffffffffffffffffffffffff167f8c5be1e5ebec7d5bd14f71427d1e84f3dd0314c0f7b2291e5b200ac8c7c3b92583604051611e1a9190614626565b60405180910390a3505050565b6000611e3384846115cb565b90507fffffffffffffffffffffffffffffffffffffffffffffffffffffffffffffffff8114611ead5781811015611e9f576040517f08c379a0000000000000000000000000000000000000000000000000000000008152600401611e969061438b565b60405180910390fd5b611eac8484848403611c5c565b5b50505050565b600073ffffffffffffffffffffffffffffffffffffffff168373ffffffffffffffffffffffffffffffffffffffff161415611f23576040517f08c379a0000000000000000000000000000000000000000000000000000000008152600401611f1a9061452b565b60405180910390fd5b600073ffffffffffffffffffffffffffffffffffffffff168273ffffffffffffffffffffffffffffffffffffffff161415611f93576040517f08c379a0000000000000000000000000000000000000000000000000000000008152600401611f8a9061428b565b60405180910390fd5b611f9e838383612ac5565b60008060008573ffffffffffffffffffffffffffffffffffffffff1673ffffffffffffffffffffffffffffffffffffffff16815260200190815260200160002054905081811015612024576040517f08c379a000000000000000000000000000000000000000000000000000000000815260040161201b906143cb565b60405180910390fd5b8181036000808673ffffffffffffffffffffffffffffffffffffffff1673ffffffffffffffffffffffffffffffffffffffff16815260200190815260200160002081905550816000808573ffffffffffffffffffffffffffffffffffffffff1673ffffffffffffffffffffffffffffffffffffffff16815260200190815260200160002060008282546120b791906146d8565b925050819055508273ffffffffffffffffffffffffffffffffffffffff168473ffffffffffffffffffffffffffffffffffffffff167fddf252ad1be2c89b69c2b068fc378daa952ba7f163c4a11628f55a4df523b3ef8460405161211b9190614626565b60405180910390a361212e848484612ad5565b50505050565b60007f000000000000000000000000000000000000000000000000000000000000000073ffffffffffffffffffffffffffffffffffffffff163073ffffffffffffffffffffffffffffffffffffffff161480156121b057507f000000000000000000000000000000000000000000000000000000000000000046145b156121dd577f0000000000000000000000000000000000000000000000000000000000000000905061224b565b6122487f00000000000000000000000000000000000000000000000000000000000000007f00000000000000000000000000000000000000000000000000000000000000007f0000000000000000000000000000000000000000000000000000000000000000612d45565b90505b90565b6000808380549050905060005b818110156122f357600061226f8284612d7f565b9050848682815481106122ab577f4e487b7100000000000000000000000000000000000000000000000000000000600052603260045260246000fd5b9060005260206000200160000160009054906101000a900463ffffffff1663ffffffff1611156122dd578092506122ed565b6001816122ea91906146d8565b91505b5061225b565b6000821461237b5784600183612309919061475f565b81548110612340577f4e487b7100000000000000000000000000000000000000000000000000000000600052603260045260246000fd5b9060005260206000200160000160049054906101000a90047bffffffffffffffffffffffffffffffffffffffffffffffffffffffff1661237e565b60005b7bffffffffffffffffffffffffffffffffffffffffffffffffffffffff169250505092915050565b6123b08282611880565b5050565b6123be8282612da5565b5050565b60008060008411612408576040517f08c379a00000000000000000000000000000000000000000000000000000000081526004016123ff9061458b565b60405180910390fd5b612410612dc3565b841115612452576040517f08c379a00000000000000000000000000000000000000000000000000000000081526004016124499061426b565b60405180910390fd5b600061246a8585600001612dd490919063ffffffff16565b905083600001805490508114156124885760008092509250506124d7565b60018460010182815481106124c6577f4e487b7100000000000000000000000000000000000000000000000000000000600052603260045260246000fd5b906000526020600020015492509250505b9250929050565b60006124e983610a79565b905060006124f684610dbd565b905082600b60008673ffffffffffffffffffffffffffffffffffffffff1673ffffffffffffffffffffffffffffffffffffffff16815260200190815260200160002060006101000a81548173ffffffffffffffffffffffffffffffffffffffff021916908373ffffffffffffffffffffffffffffffffffffffff1602179055508273ffffffffffffffffffffffffffffffffffffffff168273ffffffffffffffffffffffffffffffffffffffff168573ffffffffffffffffffffffffffffffffffffffff167f3134e8a2e6d97e929a7e54011ea5485d7d196dd5f0ba4d4ef95803e8e3fc257f60405160405180910390a46125f2828483612b4c565b50505050565b6000600960009054906101000a900473ffffffffffffffffffffffffffffffffffffffff16905081600960006101000a81548173ffffffffffffffffffffffffffffffffffffffff021916908373ffffffffffffffffffffffffffffffffffffffff1602179055508173ffffffffffffffffffffffffffffffffffffffff168173ffffffffffffffffffffffffffffffffffffffff167f8be0079c531659141344cd1fd0a4f28419497f9722a3daafe3b4186f6b6457e060405160405180910390a35050565b60006126ca6008612efa565b60006126d4612dc3565b90507f8030e83b04d87bef53480e26263266d6ca66863aa8506aca6f2559d18aa1cb67816040516127059190614626565b60405180910390a18091505090565b6000612727612721612134565b83612f10565b9050919050565b600080600061273f87878787612f43565b9150915061274c81613050565b8192505050949350505050565b600080600a60008473ffffffffffffffffffffffffffffffffffffffff1673ffffffffffffffffffffffffffffffffffffffff16815260200190815260200160002090506127a681611c46565b91506127b181612efa565b50919050565b60007bffffffffffffffffffffffffffffffffffffffffffffffffffffffff905090565b6000806000858054905090506000811461286f57856001826127fd919061475f565b81548110612834577f4e487b7100000000000000000000000000000000000000000000000000000000600052603260045260246000fd5b9060005260206000200160000160049054906101000a90047bffffffffffffffffffffffffffffffffffffffffffffffffffffffff16612872565b60005b7bffffffffffffffffffffffffffffffffffffffffffffffffffffffff1692506128a083858763ffffffff16565b9150600081118015612919575043866001836128bc919061475f565b815481106128f3577f4e487b7100000000000000000000000000000000000000000000000000000000600052603260045260246000fd5b9060005260206000200160000160009054906101000a900463ffffffff1663ffffffff16145b156129cc5761292782611a83565b86600183612935919061475f565b8154811061296c577f4e487b7100000000000000000000000000000000000000000000000000000000600052603260045260246000fd5b9060005260206000200160000160046101000a8154817bffffffffffffffffffffffffffffffffffffffffffffffffffffffff02191690837bffffffffffffffffffffffffffffffffffffffffffffffffffffffff160217905550612abc565b8560405180604001604052806129e143611aee565b63ffffffff1681526020016129f585611a83565b7bffffffffffffffffffffffffffffffffffffffffffffffffffffffff168152509080600181540180825580915050600190039060005260206000200160009091909190915060008201518160000160006101000a81548163ffffffff021916908363ffffffff16021790555060208201518160000160046101000a8154817bffffffffffffffffffffffffffffffffffffffffffffffffffffffff02191690837bffffffffffffffffffffffffffffffffffffffffffffffffffffffff16021790555050505b50935093915050565b612ad0838383611b41565b505050565b612ae0838383611bfb565b505050565b612b35600560008373ffffffffffffffffffffffffffffffffffffffff1673ffffffffffffffffffffffffffffffffffffffff168152602001908152602001600020612b3083610dbd565b6133a1565b50565b612b4a6006612b456107dc565b6133a1565b565b8173ffffffffffffffffffffffffffffffffffffffff168373ffffffffffffffffffffffffffffffffffffffff1614158015612b885750600081115b15612d4057600073ffffffffffffffffffffffffffffffffffffffff168373ffffffffffffffffffffffffffffffffffffffff1614612c6657600080612c0f600c60008773ffffffffffffffffffffffffffffffffffffffff1673ffffffffffffffffffffffffffffffffffffffff168152602001908152602001600020611c30856127db565b915091508473ffffffffffffffffffffffffffffffffffffffff167fdec2bacdd2f05b59de34da9b523dff8be42e5e38e818c82fdb0bae774387a7248383604051612c5b929190614641565b60405180910390a250505b600073ffffffffffffffffffffffffffffffffffffffff168273ffffffffffffffffffffffffffffffffffffffff1614612d3f57600080612ce8600c60008673ffffffffffffffffffffffffffffffffffffffff1673ffffffffffffffffffffffffffffffffffffffff168152602001908152602001600020611a6d856127db565b915091508373ffffffffffffffffffffffffffffffffffffffff167fdec2bacdd2f05b59de34da9b523dff8be42e5e38e818c82fdb0bae774387a7248383604051612d34929190614641565b60405180910390a250505b5b505050565b60008383834630604051602001612d60959493929190614191565b6040516020818303038152906040528051906020012090509392505050565b60006002828418612d90919061472e565b828416612d9d91906146d8565b905092915050565b612daf828261341c565b612dbd600d611c30836127db565b50505050565b6000612dcf6008611c46565b905090565b60008083805490501415612deb5760009050612ef4565b600080848054905090505b80821015612e75576000612e0a8383612d7f565b905084868281548110612e46577f4e487b7100000000000000000000000000000000000000000000000000000000600052603260045260246000fd5b90600052602060002001541115612e5f57809150612e6f565b600181612e6c91906146d8565b92505b50612df6565b600082118015612ed357508385600184612e8f919061475f565b81548110612ec6577f4e487b7100000000000000000000000000000000000000000000000000000000600052603260045260246000fd5b9060005260206000200154145b15612eee57600182612ee5919061475f565b92505050612ef4565b81925050505b92915050565b6001816000016000828254019250508190555050565b60008282604051602001612f25929190614007565b60405160208183030381529060405280519060200120905092915050565b6000807f7fffffffffffffffffffffffffffffff5d576e7357a4501ddfe92f46681b20a08360001c1115612f7e576000600391509150613047565b601b8560ff1614158015612f965750601c8560ff1614155b15612fa8576000600491509150613047565b600060018787878760405160008152602001604052604051612fcd94939291906141e4565b6020604051602081039080840390855afa158015612fef573d6000803e3d6000fd5b505050602060405103519050600073ffffffffffffffffffffffffffffffffffffffff168173ffffffffffffffffffffffffffffffffffffffff16141561303e57600060019250925050613047565b80600092509250505b94509492505050565b6000600481111561308a577f4e487b7100000000000000000000000000000000000000000000000000000000600052602160045260246000fd5b8160048111156130c3577f4e487b7100000000000000000000000000000000000000000000000000000000600052602160045260246000fd5b14156130ce5761339e565b60016004811115613108577f4e487b7100000000000000000000000000000000000000000000000000000000600052602160045260246000fd5b816004811115613141577f4e487b7100000000000000000000000000000000000000000000000000000000600052602160045260246000fd5b1415613182576040517f08c379a00000000000000000000000000000000000000000000000000000000081526004016131799061424b565b60405180910390fd5b600260048111156131bc577f4e487b7100000000000000000000000000000000000000000000000000000000600052602160045260246000fd5b8160048111156131f5577f4e487b7100000000000000000000000000000000000000000000000000000000600052602160045260246000fd5b1415613236576040517f08c379a000000000000000000000000000000000000000000000000000000000815260040161322d9061430b565b60405180910390fd5b60036004811115613270577f4e487b7100000000000000000000000000000000000000000000000000000000600052602160045260246000fd5b8160048111156132a9577f4e487b7100000000000000000000000000000000000000000000000000000000600052602160045260246000fd5b14156132ea576040517f08c379a00000000000000000000000000000000000000000000000000000000081526004016132e1906143eb565b60405180910390fd5b600480811115613323577f4e487b7100000000000000000000000000000000000000000000000000000000600052602160045260246000fd5b81600481111561335c577f4e487b7100000000000000000000000000000000000000000000000000000000600052602160045260246000fd5b141561339d576040517f08c379a00000000000000000000000000000000000000000000000000000000081526004016133949061444b565b60405180910390fd5b5b50565b60006133ab612dc3565b9050806133ba846000016135f3565b10156134175782600001819080600181540180825580915050600190039060005260206000200160009091909190915055826001018290806001815401808255809150506001900390600052602060002001600090919091909150555b505050565b600073ffffffffffffffffffffffffffffffffffffffff168273ffffffffffffffffffffffffffffffffffffffff16141561348c576040517f08c379a00000000000000000000000000000000000000000000000000000000081526004016134839061450b565b60405180910390fd5b61349882600083612ac5565b60008060008473ffffffffffffffffffffffffffffffffffffffff1673ffffffffffffffffffffffffffffffffffffffff1681526020019081526020016000205490508181101561351e576040517f08c379a0000000000000000000000000000000000000000000000000000000008152600401613515906142eb565b60405180910390fd5b8181036000808573ffffffffffffffffffffffffffffffffffffffff1673ffffffffffffffffffffffffffffffffffffffff168152602001908152602001600020819055508160026000828254613575919061475f565b92505081905550600073ffffffffffffffffffffffffffffffffffffffff168373ffffffffffffffffffffffffffffffffffffffff167fddf252ad1be2c89b69c2b068fc378daa952ba7f163c4a11628f55a4df523b3ef846040516135da9190614626565b60405180910390a36135ee83600084612ad5565b505050565b6000808280549050141561360a5760009050613661565b816001838054905061361c919061475f565b81548110613653577f4e487b7100000000000000000000000000000000000000000000000000000000600052603260045260246000fd5b906000526020600020015490505b919050565b6040518060400160405280600063ffffffff16815260200160007bffffffffffffffffffffffffffffffffffffffffffffffffffffffff1681525090565b6000813590506136b3816150d5565b92915050565b6000813590506136c8816150ec565b92915050565b6000815190506136dd816150ec565b92915050565b60008083601f8401126136f557600080fd5b8235905067ffffffffffffffff81111561370e57600080fd5b60208301915083600182028301111561372657600080fd5b9250929050565b60008135905061373c81615103565b92915050565b6000813590506137518161511a565b92915050565b60008135905061376681615131565b92915050565b60008135905061377b81615148565b92915050565b60006020828403121561379357600080fd5b60006137a1848285016136a4565b91505092915050565b600080604083850312156137bd57600080fd5b60006137cb858286016136a4565b92505060206137dc858286016136a4565b9150509250929050565b6000806000606084860312156137fb57600080fd5b6000613809868287016136a4565b935050602061381a868287016136a4565b925050604061382b86828701613742565b9150509250925092565b600080600080600080600060e0888a03121561385057600080fd5b600061385e8a828b016136a4565b975050602061386f8a828b016136a4565b96505060406138808a828b01613742565b95505060606138918a828b01613742565b94505060806138a28a828b0161376c565b93505060a06138b38a828b016136b9565b92505060c06138c48a828b016136b9565b91505092959891949750929550565b600080604083850312156138e657600080fd5b60006138f4858286016136a4565b925050602061390585828601613742565b9150509250929050565b60008060008060008060c0878903121561392857600080fd5b600061393689828a016136a4565b965050602061394789828a01613742565b955050604061395889828a01613742565b945050606061396989828a0161376c565b935050608061397a89828a016136b9565b92505060a061398b89828a016136b9565b9150509295509295509295565b600080604083850312156139ab57600080fd5b60006139b9858286016136a4565b92505060206139ca85828601613757565b9150509250929050565b6000602082840312156139e657600080fd5b60006139f4848285016136ce565b91505092915050565b600080600080600060808688031215613a1557600080fd5b6000613a238882890161372d565b9550506020613a34888289016136a4565b9450506040613a4588828901613742565b935050606086013567ffffffffffffffff811115613a6257600080fd5b613a6e888289016136e3565b92509250509295509295909350565b600060208284031215613a8f57600080fd5b6000613a9d84828501613742565b91505092915050565b613aaf81614793565b82525050565b613abe816147a5565b82525050565b613acd816147b1565b82525050565b613ae4613adf826147b1565b6148b0565b82525050565b6000613af683856146ab565b9350613b0383858461483c565b613b0c83614947565b840190509392505050565b6000613b22826146a0565b613b2c81856146bc565b9350613b3c81856020860161484b565b613b4581614947565b840191505092915050565b6000613b5d6018836146bc565b9150613b6882614958565b602082019050919050565b6000613b80601d836146bc565b9150613b8b82614981565b602082019050919050565b6000613ba36023836146bc565b9150613bae826149aa565b604082019050919050565b6000613bc6601f836146bc565b9150613bd1826149f9565b602082019050919050565b6000613be9601d836146bc565b9150613bf482614a22565b602082019050919050565b6000613c0c6022836146bc565b9150613c1782614a4b565b604082019050919050565b6000613c2f601f836146bc565b9150613c3a82614a9a565b602082019050919050565b6000613c526019836146bc565b9150613c5d82614ac3565b602082019050919050565b6000613c756026836146bc565b9150613c8082614aec565b604082019050919050565b6000613c986022836146bc565b9150613ca382614b3b565b604082019050919050565b6000613cbb6002836146cd565b9150613cc682614b8a565b600282019050919050565b6000613cde601d836146bc565b9150613ce982614bb3565b602082019050919050565b6000613d01601d836146bc565b9150613d0c82614bdc565b602082019050919050565b6000613d246026836146bc565b9150613d2f82614c05565b604082019050919050565b6000613d476022836146bc565b9150613d5282614c54565b604082019050919050565b6000613d6a6024836146bc565b9150613d7582614ca3565b604082019050919050565b6000613d8d601b836146bc565b9150613d9882614cf2565b602082019050919050565b6000613db06022836146bc565b9150613dbb82614d1b565b604082019050919050565b6000613dd3601e836146bc565b9150613dde82614d6a565b602082019050919050565b6000613df66030836146bc565b9150613e0182614d93565b604082019050919050565b6000613e196020836146bc565b9150613e2482614de2565b602082019050919050565b6000613e3c6027836146bc565b9150613e4782614e0b565b604082019050919050565b6000613e5f602b836146bc565b9150613e6a82614e5a565b604082019050919050565b6000613e826021836146bc565b9150613e8d82614ea9565b604082019050919050565b6000613ea56025836146bc565b9150613eb082614ef8565b604082019050919050565b6000613ec86026836146bc565b9150613ed382614f47565b604082019050919050565b6000613eeb6024836146bc565b9150613ef682614f96565b604082019050919050565b6000613f0e6016836146bc565b9150613f1982614fe5565b602082019050919050565b6000613f31602f836146bc565b9150613f3c8261500e565b604082019050919050565b6000613f546025836146bc565b9150613f5f8261505d565b604082019050919050565b6000613f77601f836146bc565b9150613f82826150ac565b602082019050919050565b604082016000820151613fa36000850182613fda565b506020820151613fb66020850182613fbc565b50505050565b613fc5816147ed565b82525050565b613fd481614815565b82525050565b613fe38161481f565b82525050565b613ff28161481f565b82525050565b6140018161482f565b82525050565b600061401282613cae565b915061401e8285613ad3565b60208201915061402e8284613ad3565b6020820191508190509392505050565b60006020820190506140536000830184613aa6565b92915050565b600060a08201905061406e6000830189613aa6565b61407b6020830188613aa6565b6140886040830187613fcb565b6140956060830186613fcb565b81810360808301526140a8818486613aea565b9050979650505050505050565b60006020820190506140ca6000830184613ab5565b92915050565b60006020820190506140e56000830184613ac4565b92915050565b600060c0820190506141006000830189613ac4565b61410d6020830188613aa6565b61411a6040830187613aa6565b6141276060830186613fcb565b6141346080830185613fcb565b61414160a0830184613fcb565b979650505050505050565b60006080820190506141616000830187613ac4565b61416e6020830186613aa6565b61417b6040830185613fcb565b6141886060830184613fcb565b95945050505050565b600060a0820190506141a66000830188613ac4565b6141b36020830187613ac4565b6141c06040830186613ac4565b6141cd6060830185613fcb565b6141da6080830184613aa6565b9695505050505050565b60006080820190506141f96000830187613ac4565b6142066020830186613ff8565b6142136040830185613ac4565b6142206060830184613ac4565b95945050505050565b600060208201905081810360008301526142438184613b17565b905092915050565b6000602082019050818103600083015261426481613b50565b9050919050565b6000602082019050818103600083015261428481613b73565b9050919050565b600060208201905081810360008301526142a481613b96565b9050919050565b600060208201905081810360008301526142c481613bb9565b9050919050565b600060208201905081810360008301526142e481613bdc565b9050919050565b6000602082019050818103600083015261430481613bff565b9050919050565b6000602082019050818103600083015261432481613c22565b9050919050565b6000602082019050818103600083015261434481613c45565b9050919050565b6000602082019050818103600083015261436481613c68565b9050919050565b6000602082019050818103600083015261438481613c8b565b9050919050565b600060208201905081810360008301526143a481613cd1565b9050919050565b600060208201905081810360008301526143c481613cf4565b9050919050565b600060208201905081810360008301526143e481613d17565b9050919050565b6000602082019050818103600083015261440481613d3a565b9050919050565b6000602082019050818103600083015261442481613d5d565b9050919050565b6000602082019050818103600083015261444481613d80565b9050919050565b6000602082019050818103600083015261446481613da3565b9050919050565b6000602082019050818103600083015261448481613dc6565b9050919050565b600060208201905081810360008301526144a481613de9565b9050919050565b600060208201905081810360008301526144c481613e0c565b9050919050565b600060208201905081810360008301526144e481613e2f565b9050919050565b6000602082019050818103600083015261450481613e52565b9050919050565b6000602082019050818103600083015261452481613e75565b9050919050565b6000602082019050818103600083015261454481613e98565b9050919050565b6000602082019050818103600083015261456481613ebb565b9050919050565b6000602082019050818103600083015261458481613ede565b9050919050565b600060208201905081810360008301526145a481613f01565b9050919050565b600060208201905081810360008301526145c481613f24565b9050919050565b600060208201905081810360008301526145e481613f47565b9050919050565b6000602082019050818103600083015261460481613f6a565b9050919050565b60006040820190506146206000830184613f8d565b92915050565b600060208201905061463b6000830184613fcb565b92915050565b60006040820190506146566000830185613fcb565b6146636020830184613fcb565b9392505050565b600060208201905061467f6000830184613fe9565b92915050565b600060208201905061469a6000830184613ff8565b92915050565b600081519050919050565b600082825260208201905092915050565b600082825260208201905092915050565b600081905092915050565b60006146e382614815565b91506146ee83614815565b9250827fffffffffffffffffffffffffffffffffffffffffffffffffffffffffffffffff03821115614723576147226148ba565b5b828201905092915050565b600061473982614815565b915061474483614815565b925082614754576147536148e9565b5b828204905092915050565b600061476a82614815565b915061477583614815565b925082821015614788576147876148ba565b5b828203905092915050565b600061479e826147cd565b9050919050565b60008115159050919050565b6000819050919050565b60006147c682614793565b9050919050565b600073ffffffffffffffffffffffffffffffffffffffff82169050919050565b60007bffffffffffffffffffffffffffffffffffffffffffffffffffffffff82169050919050565b6000819050919050565b600063ffffffff82169050919050565b600060ff82169050919050565b82818337600083830152505050565b60005b8381101561486957808201518184015260208101905061484e565b83811115614878576000848401525b50505050565b6000600282049050600182168061489657607f821691505b602082108114156148aa576148a9614918565b5b50919050565b6000819050919050565b7f4e487b7100000000000000000000000000000000000000000000000000000000600052601160045260246000fd5b7f4e487b7100000000000000000000000000000000000000000000000000000000600052601260045260246000fd5b7f4e487b7100000000000000000000000000000000000000000000000000000000600052602260045260246000fd5b6000601f19601f8301169050919050565b7f45434453413a20696e76616c6964207369676e61747572650000000000000000600082015250565b7f4552433230536e617073686f743a206e6f6e6578697374656e74206964000000600082015250565b7f45524332303a207472616e7366657220746f20746865207a65726f206164647260008201527f6573730000000000000000000000000000000000000000000000000000000000602082015250565b7f4552433230566f7465733a20626c6f636b206e6f7420796574206d696e656400600082015250565b7f4552433230566f7465733a207369676e61747572652065787069726564000000600082015250565b7f45524332303a206275726e20616d6f756e7420657863656564732062616c616e60008201527f6365000000000000000000000000000000000000000000000000000000000000602082015250565b7f45434453413a20696e76616c6964207369676e6174757265206c656e67746800600082015250565b7f4552433230566f7465733a20696e76616c6964206e6f6e636500000000000000600082015250565b7f4f776e61626c653a206e6577206f776e657220697320746865207a65726f206160008201527f6464726573730000000000000000000000000000000000000000000000000000602082015250565b7f45524332303a20617070726f766520746f20746865207a65726f20616464726560008201527f7373000000000000000000000000000000000000000000000000000000000000602082015250565b7f1901000000000000000000000000000000000000000000000000000000000000600082015250565b7f45524332303a20696e73756666696369656e7420616c6c6f77616e6365000000600082015250565b7f45524332305065726d69743a206578706972656420646561646c696e65000000600082015250565b7f45524332303a207472616e7366657220616d6f756e742065786365656473206260008201527f616c616e63650000000000000000000000000000000000000000000000000000602082015250565b7f45434453413a20696e76616c6964207369676e6174757265202773272076616c60008201527f7565000000000000000000000000000000000000000000000000000000000000602082015250565b7f4552433230466c6173684d696e743a20696e76616c69642072657475726e207660008201527f616c756500000000000000000000000000000000000000000000000000000000602082015250565b7f4552433230466c6173684d696e743a2077726f6e6720746f6b656e0000000000600082015250565b7f45434453413a20696e76616c6964207369676e6174757265202776272076616c60008201527f7565000000000000000000000000000000000000000000000000000000000000602082015250565b7f45524332305065726d69743a20696e76616c6964207369676e61747572650000600082015250565b7f4552433230566f7465733a20746f74616c20737570706c79207269736b73206f60008201527f766572666c6f77696e6720766f74657300000000000000000000000000000000602082015250565b7f4f776e61626c653a2063616c6c6572206973206e6f7420746865206f776e6572600082015250565b7f53616665436173743a2076616c756520646f65736e27742066697420696e203260008201527f3234206269747300000000000000000000000000000000000000000000000000602082015250565b7f4552433230466c6173684d696e743a20616d6f756e742065786365656473206d60008201527f6178466c6173684c6f616e000000000000000000000000000000000000000000602082015250565b7f45524332303a206275726e2066726f6d20746865207a65726f2061646472657360008201527f7300000000000000000000000000000000000000000000000000000000000000602082015250565b7f45524332303a207472616e736665722066726f6d20746865207a65726f20616460008201527f6472657373000000000000000000000000000000000000000000000000000000602082015250565b7f53616665436173743a2076616c756520646f65736e27742066697420696e203360008201527f3220626974730000000000000000000000000000000000000000000000000000602082015250565b7f45524332303a20617070726f76652066726f6d20746865207a65726f2061646460008201527f7265737300000000000000000000000000000000000000000000000000000000602082015250565b7f4552433230536e617073686f743a206964206973203000000000000000000000600082015250565b7f4552433230466c6173684d696e743a20616c6c6f77616e636520646f6573206e60008201527f6f7420616c6c6f7720726566756e640000000000000000000000000000000000602082015250565b7f45524332303a2064656372656173656420616c6c6f77616e63652062656c6f7760008201527f207a65726f000000000000000000000000000000000000000000000000000000602082015250565b7f45524332303a206d696e7420746f20746865207a65726f206164647265737300600082015250565b6150de81614793565b81146150e957600080fd5b50565b6150f5816147b1565b811461510057600080fd5b50565b61510c816147bb565b811461511757600080fd5b50565b61512381614815565b811461512e57600080fd5b50565b61513a8161481f565b811461514557600080fd5b50565b6151518161482f565b811461515c57600080fd5b5056fea264697066735822122074ceddc8718c2cba427279a2c73a952b41d0832d010557c906fa9d4efcec470d64736f6c63430008040033",
  "linkReferences": {},
  "deployedLinkReferences": {}
}