{
	"contracts/liquidityMining/KyberRewardLockerV2.sol": {
		"KyberRewardLockerV2": {
			"abi": [
				{
					"inputs": [
						{
							"internalType": "address",
							"name": "_admin",
							"type": "address"
						}
					],
					"stateMutability": "nonpayable",
					"type": "constructor"
				},
				{
					"anonymous": false,
					"inputs": [
						{
							"indexed": false,
							"internalType": "address",
							"name": "newAdmin",
							"type": "address"
						},
						{
							"indexed": false,
							"internalType": "address",
							"name": "previousAdmin",
							"type": "address"
						}
					],
					"name": "AdminClaimed",
					"type": "event"
				},
				{
					"anonymous": false,
					"inputs": [
						{
							"indexed": true,
							"internalType": "address",
							"name": "rewardContract",
							"type": "address"
						},
						{
							"indexed": true,
							"internalType": "contract IERC20Ext",
							"name": "token",
							"type": "address"
						},
						{
							"indexed": false,
							"internalType": "bool",
							"name": "isAdded",
							"type": "bool"
						}
					],
					"name": "RewardContractAdded",
					"type": "event"
				},
				{
					"anonymous": false,
					"inputs": [
						{
							"indexed": false,
							"internalType": "address",
							"name": "pendingAdmin",
							"type": "address"
						}
					],
					"name": "TransferAdminPending",
					"type": "event"
				},
				{
					"anonymous": false,
					"inputs": [
						{
							"indexed": true,
							"internalType": "contract IERC20Ext",
							"name": "token",
							"type": "address"
						},
						{
							"indexed": true,
							"internalType": "address",
							"name": "beneficiary",
							"type": "address"
						},
						{
							"indexed": false,
							"internalType": "uint256",
							"name": "vestedQuantity",
							"type": "uint256"
						},
						{
							"indexed": false,
							"internalType": "uint256",
							"name": "index",
							"type": "uint256"
						}
					],
					"name": "Vested",
					"type": "event"
				},
				{
					"anonymous": false,
					"inputs": [
						{
							"indexed": true,
							"internalType": "contract IERC20Ext",
							"name": "token",
							"type": "address"
						},
						{
							"indexed": true,
							"internalType": "address",
							"name": "beneficiary",
							"type": "address"
						},
						{
							"indexed": false,
							"internalType": "uint256",
							"name": "startTime",
							"type": "uint256"
						},
						{
							"indexed": false,
							"internalType": "uint256",
							"name": "endTime",
							"type": "uint256"
						},
						{
							"indexed": false,
							"internalType": "uint256",
							"name": "quantity",
							"type": "uint256"
						},
						{
							"indexed": false,
							"internalType": "uint256",
							"name": "index",
							"type": "uint256"
						}
					],
					"name": "VestingEntryCreated",
					"type": "event"
				},
				{
					"anonymous": false,
					"inputs": [
						{
							"indexed": true,
							"internalType": "uint256",
							"name": "index",
							"type": "uint256"
						},
						{
							"indexed": true,
							"internalType": "contract IERC20Ext",
							"name": "token",
							"type": "address"
						},
						{
							"indexed": true,
							"internalType": "address",
							"name": "beneficiary",
							"type": "address"
						},
						{
							"indexed": false,
							"internalType": "uint256",
							"name": "quantity",
							"type": "uint256"
						}
					],
					"name": "VestingEntryQueued",
					"type": "event"
				},
				{
					"inputs": [
						{
							"internalType": "address",
							"name": "",
							"type": "address"
						},
						{
							"internalType": "contract IERC20Ext",
							"name": "",
							"type": "address"
						}
					],
					"name": "accountEscrowedBalance",
					"outputs": [
						{
							"internalType": "uint256",
							"name": "",
							"type": "uint256"
						}
					],
					"stateMutability": "view",
					"type": "function"
				},
				{
					"inputs": [
						{
							"internalType": "address",
							"name": "",
							"type": "address"
						},
						{
							"internalType": "contract IERC20Ext",
							"name": "",
							"type": "address"
						}
					],
					"name": "accountVestedBalance",
					"outputs": [
						{
							"internalType": "uint256",
							"name": "",
							"type": "uint256"
						}
					],
					"stateMutability": "view",
					"type": "function"
				},
				{
					"inputs": [
						{
							"internalType": "contract IERC20Ext",
							"name": "token",
							"type": "address"
						},
						{
							"internalType": "address",
							"name": "_rewardContract",
							"type": "address"
						}
					],
					"name": "addRewardsContract",
					"outputs": [],
					"stateMutability": "nonpayable",
					"type": "function"
				},
				{
					"inputs": [],
					"name": "admin",
					"outputs": [
						{
							"internalType": "address",
							"name": "",
							"type": "address"
						}
					],
					"stateMutability": "view",
					"type": "function"
				},
				{
					"inputs": [],
					"name": "claimAdmin",
					"outputs": [],
					"stateMutability": "nonpayable",
					"type": "function"
				},
				{
					"inputs": [
						{
							"internalType": "contract IERC20Ext",
							"name": "token",
							"type": "address"
						}
					],
					"name": "getRewardContractsPerToken",
					"outputs": [
						{
							"internalType": "address[]",
							"name": "rewardContracts",
							"type": "address[]"
						}
					],
					"stateMutability": "view",
					"type": "function"
				},
				{
					"inputs": [
						{
							"internalType": "address",
							"name": "account",
							"type": "address"
						},
						{
							"internalType": "contract IERC20Ext",
							"name": "token",
							"type": "address"
						},
						{
							"internalType": "uint256",
							"name": "index",
							"type": "uint256"
						}
					],
					"name": "getVestingScheduleAtIndex",
					"outputs": [
						{
							"components": [
								{
									"internalType": "uint64",
									"name": "startTime",
									"type": "uint64"
								},
								{
									"internalType": "uint64",
									"name": "endTime",
									"type": "uint64"
								},
								{
									"internalType": "uint128",
									"name": "quantity",
									"type": "uint128"
								},
								{
									"internalType": "uint128",
									"name": "vestedQuantity",
									"type": "uint128"
								}
							],
							"internalType": "struct IKyberRewardLockerV2.VestingSchedule",
							"name": "",
							"type": "tuple"
						}
					],
					"stateMutability": "view",
					"type": "function"
				},
				{
					"inputs": [
						{
							"internalType": "address",
							"name": "account",
							"type": "address"
						},
						{
							"internalType": "contract IERC20Ext",
							"name": "token",
							"type": "address"
						}
					],
					"name": "getVestingSchedules",
					"outputs": [
						{
							"components": [
								{
									"internalType": "uint64",
									"name": "startTime",
									"type": "uint64"
								},
								{
									"internalType": "uint64",
									"name": "endTime",
									"type": "uint64"
								},
								{
									"internalType": "uint128",
									"name": "quantity",
									"type": "uint128"
								},
								{
									"internalType": "uint128",
									"name": "vestedQuantity",
									"type": "uint128"
								}
							],
							"internalType": "struct IKyberRewardLockerV2.VestingSchedule[]",
							"name": "schedules",
							"type": "tuple[]"
						}
					],
					"stateMutability": "view",
					"type": "function"
				},
				{
					"inputs": [
						{
							"internalType": "contract IERC20Ext",
							"name": "token",
							"type": "address"
						},
						{
							"internalType": "address",
							"name": "account",
							"type": "address"
						},
						{
							"internalType": "uint256",
							"name": "quantity",
							"type": "uint256"
						},
						{
							"internalType": "uint32",
							"name": "vestingDuration",
							"type": "uint32"
						}
					],
					"name": "lock",
					"outputs": [],
					"stateMutability": "payable",
					"type": "function"
				},
				{
					"inputs": [
						{
							"internalType": "contract IERC20Ext",
							"name": "token",
							"type": "address"
						},
						{
							"internalType": "address",
							"name": "account",
							"type": "address"
						},
						{
							"internalType": "uint256",
							"name": "quantity",
							"type": "uint256"
						},
						{
							"internalType": "uint256",
							"name": "startTime",
							"type": "uint256"
						},
						{
							"internalType": "uint32",
							"name": "vestingDuration",
							"type": "uint32"
						}
					],
					"name": "lockWithStartTime",
					"outputs": [],
					"stateMutability": "payable",
					"type": "function"
				},
				{
					"inputs": [
						{
							"internalType": "address",
							"name": "account",
							"type": "address"
						},
						{
							"internalType": "contract IERC20Ext",
							"name": "token",
							"type": "address"
						}
					],
					"name": "numVestingSchedules",
					"outputs": [
						{
							"internalType": "uint256",
							"name": "",
							"type": "uint256"
						}
					],
					"stateMutability": "view",
					"type": "function"
				},
				{
					"inputs": [],
					"name": "pendingAdmin",
					"outputs": [
						{
							"internalType": "address",
							"name": "",
							"type": "address"
						}
					],
					"stateMutability": "view",
					"type": "function"
				},
				{
					"inputs": [
						{
							"internalType": "contract IERC20Ext",
							"name": "token",
							"type": "address"
						},
						{
							"internalType": "address",
							"name": "_rewardContract",
							"type": "address"
						}
					],
					"name": "removeRewardsContract",
					"outputs": [],
					"stateMutability": "nonpayable",
					"type": "function"
				},
				{
					"inputs": [
						{
							"internalType": "address",
							"name": "newAdmin",
							"type": "address"
						}
					],
					"name": "transferAdmin",
					"outputs": [],
					"stateMutability": "nonpayable",
					"type": "function"
				},
				{
					"inputs": [
						{
							"internalType": "address",
							"name": "newAdmin",
							"type": "address"
						}
					],
					"name": "transferAdminQuickly",
					"outputs": [],
					"stateMutability": "nonpayable",
					"type": "function"
				},
				{
					"inputs": [
						{
							"internalType": "contract IERC20Ext",
							"name": "token",
							"type": "address"
						}
					],
					"name": "vestCompletedSchedules",
					"outputs": [
						{
							"internalType": "uint256",
							"name": "",
							"type": "uint256"
						}
					],
					"stateMutability": "nonpayable",
					"type": "function"
				},
				{
					"inputs": [
						{
							"internalType": "contract IERC20Ext[]",
							"name": "tokens",
							"type": "address[]"
						}
					],
					"name": "vestCompletedSchedulesForMultipleTokens",
					"outputs": [
						{
							"internalType": "uint256[]",
							"name": "vestedAmounts",
							"type": "uint256[]"
						}
					],
					"stateMutability": "nonpayable",
					"type": "function"
				},
				{
					"inputs": [
						{
							"internalType": "contract IERC20Ext",
							"name": "token",
							"type": "address"
						},
						{
							"internalType": "uint256[]",
							"name": "indexes",
							"type": "uint256[]"
						}
					],
					"name": "vestScheduleAtIndices",
					"outputs": [
						{
							"internalType": "uint256",
							"name": "",
							"type": "uint256"
						}
					],
					"stateMutability": "nonpayable",
					"type": "function"
				},
				{
					"inputs": [
						{
							"internalType": "contract IERC20Ext[]",
							"name": "tokens",
							"type": "address[]"
						},
						{
							"internalType": "uint256[][]",
							"name": "indices",
							"type": "uint256[][]"
						}
					],
					"name": "vestScheduleForMultipleTokensAtIndices",
					"outputs": [
						{
							"internalType": "uint256[]",
							"name": "vestedAmounts",
							"type": "uint256[]"
						}
					],
					"stateMutability": "nonpayable",
					"type": "function"
				},
				{
					"inputs": [
						{
							"internalType": "contract IERC20Ext",
							"name": "token",
							"type": "address"
						},
						{
							"internalType": "uint256",
							"name": "startIndex",
							"type": "uint256"
						},
						{
							"internalType": "uint256",
							"name": "endIndex",
							"type": "uint256"
						}
					],
					"name": "vestSchedulesInRange",
					"outputs": [
						{
							"internalType": "uint256",
							"name": "",
							"type": "uint256"
						}
					],
					"stateMutability": "nonpayable",
					"type": "function"
				}
			],
			"devdoc": {
				"kind": "dev",
				"methods": {
					"claimAdmin()": {
						"details": "Allows the pendingAdmin address to finalize the change admin process."
					},
					"getVestingScheduleAtIndex(address,address,uint256)": {
						"details": "manually get vesting schedule at index"
					},
					"getVestingSchedules(address,address)": {
						"details": "Get all schedules for an account."
					},
					"lockWithStartTime(address,address,uint256,uint256,uint32)": {
						"details": "queue a vesting schedule"
					},
					"transferAdmin(address)": {
						"details": "Allows the current admin to set the pendingAdmin address.",
						"params": {
							"newAdmin": "The address to transfer ownership to."
						}
					},
					"transferAdminQuickly(address)": {
						"details": "Allows the current admin to set the admin in one tx. Useful initial deployment.",
						"params": {
							"newAdmin": "The address to transfer ownership to."
						}
					},
					"vestCompletedSchedules(address)": {
						"details": "Allow a user to vest all ended schedules"
					},
					"vestCompletedSchedulesForMultipleTokens(address[])": {
						"details": "vest all completed schedules for multiple tokens"
					},
					"vestScheduleForMultipleTokensAtIndices(address[],uint256[][])": {
						"details": "claim multiple tokens for specific vesting schedule,      if schedule has not ended yet, claiming amounts are linear with vesting times"
					},
					"vestSchedulesInRange(address,uint256,uint256)": {
						"details": "claim token for specific vesting schedule from startIndex to endIndex"
					}
				},
				"stateVariables": {
					"accountEscrowedBalance": {
						"details": "An account's total escrowed balance per token to save recomputing this for fee extraction purposes"
					},
					"accountVestedBalance": {
						"details": "An account's total vested reward per token"
					},
					"accountVestingSchedules": {
						"details": "vesting schedule of an account"
					},
					"rewardContractsPerToken": {
						"details": "whitelist of reward contracts"
					}
				},
				"version": 1
			},
			"evm": {
				"assembly": "    /* \"contracts/liquidityMining/KyberRewardLockerV2.sol\":596:13161  contract KyberRewardLockerV2 is IKyberRewardLockerV2, PermissionAdmin {\r... */\n  mstore(0x40, 0x80)\n    /* \"contracts/liquidityMining/KyberRewardLockerV2.sol\":2101:2155  constructor(address _admin) PermissionAdmin(_admin) {} */\n  callvalue\n  dup1\n  iszero\n  tag_1\n  jumpi\n  0x00\n  dup1\n  revert\ntag_1:\n  pop\n  mload(0x40)\n  sub(codesize, bytecodeSize)\n  dup1\n  bytecodeSize\n  dup4\n  codecopy\n  dup2\n  add\n  0x40\n  dup2\n  swap1\n  mstore\n  tag_2\n  swap2\n  tag_3\n  jump\t// in\ntag_2:\n    /* \"contracts/liquidityMining/KyberRewardLockerV2.sol\":2145:2151  _admin */\n  dup1\n  sub(shl(0xa0, 0x01), 0x01)\n    /* \"contracts/manual/PermissionAdmin.sol\":335:355  _admin != address(0) */\n  dup2\n  and\n    /* \"contracts/manual/PermissionAdmin.sol\":327:367  require(_admin != address(0), \"admin 0\") */\n  tag_7\n  jumpi\n  0x40\n  dup1\n  mload\n  shl(0xe5, 0x461bcd)\n  dup2\n  mstore\n  0x20\n  0x04\n  dup3\n  add\n  mstore\n  0x07\n  0x24\n  dup3\n  add\n  mstore\n  shl(0xcc, 0x061646d696e203)\n  0x44\n  dup3\n  add\n  mstore\n  swap1\n  mload\n  swap1\n  dup2\n  swap1\n  sub\n  0x64\n  add\n  swap1\n  revert\ntag_7:\n    /* \"contracts/manual/PermissionAdmin.sol\":378:383  admin */\n  0x00\n    /* \"contracts/manual/PermissionAdmin.sol\":378:392  admin = _admin */\n  dup1\n  sload\n  not(sub(shl(0xa0, 0x01), 0x01))\n  and\n  sub(shl(0xa0, 0x01), 0x01)\n  swap3\n  swap1\n  swap3\n  and\n  swap2\n  swap1\n  swap2\n  or\n  swap1\n  sstore\n  pop\n    /* \"contracts/liquidityMining/KyberRewardLockerV2.sol\":596:13161  contract KyberRewardLockerV2 is IKyberRewardLockerV2, PermissionAdmin {\r... */\n  jump(tag_10)\n    /* \"#utility.yul\":14:324   */\ntag_3:\n  0x00\n    /* \"#utility.yul\":137:139   */\n  0x20\n    /* \"#utility.yul\":125:134   */\n  dup3\n    /* \"#utility.yul\":116:123   */\n  dup5\n    /* \"#utility.yul\":112:135   */\n  sub\n    /* \"#utility.yul\":108:140   */\n  slt\n    /* \"#utility.yul\":105:107   */\n  iszero\n  tag_12\n  jumpi\n    /* \"#utility.yul\":158:164   */\n  dup1\n    /* \"#utility.yul\":150:156   */\n  dup2\n    /* \"#utility.yul\":143:165   */\n  revert\n    /* \"#utility.yul\":105:107   */\ntag_12:\n    /* \"#utility.yul\":189:205   */\n  dup2\n  mload\n  sub(shl(0xa0, 0x01), 0x01)\n    /* \"#utility.yul\":234:265   */\n  dup2\n  and\n    /* \"#utility.yul\":224:266   */\n  dup2\n  eq\n    /* \"#utility.yul\":214:216   */\n  tag_13\n  jumpi\n    /* \"#utility.yul\":285:291   */\n  dup2\n    /* \"#utility.yul\":277:283   */\n  dup3\n    /* \"#utility.yul\":270:292   */\n  revert\n    /* \"#utility.yul\":214:216   */\ntag_13:\n    /* \"#utility.yul\":313:318   */\n  swap4\n    /* \"#utility.yul\":95:324   */\n  swap3\n  pop\n  pop\n  pop\n  jump\t// out\ntag_10:\n    /* \"contracts/liquidityMining/KyberRewardLockerV2.sol\":596:13161  contract KyberRewardLockerV2 is IKyberRewardLockerV2, PermissionAdmin {\r... */\n  dataSize(sub_0)\n  dup1\n  dataOffset(sub_0)\n  0x00\n  codecopy\n  0x00\n  return\nstop\n\nsub_0: assembly {\n        /* \"contracts/liquidityMining/KyberRewardLockerV2.sol\":596:13161  contract KyberRewardLockerV2 is IKyberRewardLockerV2, PermissionAdmin {\r... */\n      mstore(0x40, 0x80)\n      jumpi(tag_1, lt(calldatasize, 0x04))\n      shr(0xe0, calldataload(0x00))\n      dup1\n      0x75829def\n      gt\n      tag_22\n      jumpi\n      dup1\n      0xc33fddf8\n      gt\n      tag_23\n      jumpi\n      dup1\n      0xc33fddf8\n      eq\n      tag_17\n      jumpi\n      dup1\n      0xf793d77e\n      eq\n      tag_18\n      jumpi\n      dup1\n      0xf851a440\n      eq\n      tag_19\n      jumpi\n      dup1\n      0xfdfaaa05\n      eq\n      tag_20\n      jumpi\n      dup1\n      0xff4931d3\n      eq\n      tag_21\n      jumpi\n      jump(tag_1)\n    tag_23:\n      dup1\n      0x75829def\n      eq\n      tag_12\n      jumpi\n      dup1\n      0x77f50f97\n      eq\n      tag_13\n      jumpi\n      dup1\n      0x7acc8678\n      eq\n      tag_14\n      jumpi\n      dup1\n      0x9059aa6a\n      eq\n      tag_15\n      jumpi\n      dup1\n      0xbbd8a328\n      eq\n      tag_16\n      jumpi\n      jump(tag_1)\n    tag_22:\n      dup1\n      0x3b5bfa8b\n      gt\n      tag_24\n      jumpi\n      dup1\n      0x3b5bfa8b\n      eq\n      tag_7\n      jumpi\n      dup1\n      0x4c9d00cc\n      eq\n      tag_8\n      jumpi\n      dup1\n      0x4d4f3d93\n      eq\n      tag_9\n      jumpi\n      dup1\n      0x679f7f77\n      eq\n      tag_10\n      jumpi\n      dup1\n      0x6e732b70\n      eq\n      tag_11\n      jumpi\n      jump(tag_1)\n    tag_24:\n      dup1\n      0x0a3b7e31\n      eq\n      tag_2\n      jumpi\n      dup1\n      0x0f5636c3\n      eq\n      tag_3\n      jumpi\n      dup1\n      0x1e2fabb6\n      eq\n      tag_4\n      jumpi\n      dup1\n      0x26782247\n      eq\n      tag_5\n      jumpi\n      dup1\n      0x2f50bd72\n      eq\n      tag_6\n      jumpi\n    tag_1:\n      0x00\n      dup1\n      revert\n        /* \"contracts/liquidityMining/KyberRewardLockerV2.sol\":10225:10476  function getVestingScheduleAtIndex(\r... */\n    tag_2:\n      callvalue\n      dup1\n      iszero\n      tag_25\n      jumpi\n      0x00\n      dup1\n      revert\n    tag_25:\n      pop\n      tag_26\n      tag_27\n      calldatasize\n      0x04\n      tag_28\n      jump\t// in\n    tag_27:\n      tag_29\n      jump\t// in\n    tag_26:\n      mload(0x40)\n      tag_30\n      swap2\n      swap1\n      tag_31\n      jump\t// in\n    tag_30:\n      mload(0x40)\n      dup1\n      swap2\n      sub\n      swap1\n      return\n        /* \"contracts/liquidityMining/KyberRewardLockerV2.sol\":8199:9282  function vestScheduleAtIndices(IERC20Ext token, uint256[] memory indexes)\r... */\n    tag_3:\n      callvalue\n      dup1\n      iszero\n      tag_32\n      jumpi\n      0x00\n      dup1\n      revert\n    tag_32:\n      pop\n      tag_33\n      tag_34\n      calldatasize\n      0x04\n      tag_35\n      jump\t// in\n    tag_34:\n      tag_36\n      jump\t// in\n    tag_33:\n      mload(0x40)\n      tag_30\n      swap2\n      swap1\n      tag_38\n      jump\t// in\n        /* \"contracts/liquidityMining/KyberRewardLockerV2.sol\":3130:3461  function lock(\r... */\n    tag_4:\n      tag_39\n      tag_40\n      calldatasize\n      0x04\n      tag_41\n      jump\t// in\n    tag_40:\n      tag_42\n      jump\t// in\n    tag_39:\n      stop\n        /* \"contracts/manual/PermissionAdmin.sol\":127:154  address public pendingAdmin */\n    tag_5:\n      callvalue\n      dup1\n      iszero\n      tag_43\n      jumpi\n      0x00\n      dup1\n      revert\n    tag_43:\n      pop\n      tag_44\n      tag_45\n      jump\t// in\n    tag_44:\n      mload(0x40)\n      tag_30\n      swap2\n      swap1\n      tag_47\n      jump\t// in\n        /* \"contracts/liquidityMining/KyberRewardLockerV2.sol\":10549:11032  function getVestingSchedules(address account, IERC20Ext token)\r... */\n    tag_6:\n      callvalue\n      dup1\n      iszero\n      tag_48\n      jumpi\n      0x00\n      dup1\n      revert\n    tag_48:\n      pop\n      tag_49\n      tag_50\n      calldatasize\n      0x04\n      tag_51\n      jump\t// in\n    tag_50:\n      tag_52\n      jump\t// in\n    tag_49:\n      mload(0x40)\n      tag_30\n      swap2\n      swap1\n      tag_54\n      jump\t// in\n        /* \"contracts/liquidityMining/KyberRewardLockerV2.sol\":1576:1662  mapping(address => mapping(IERC20Ext => uint256))\r... */\n    tag_7:\n      callvalue\n      dup1\n      iszero\n      tag_55\n      jumpi\n      0x00\n      dup1\n      revert\n    tag_55:\n      pop\n      tag_33\n      tag_57\n      calldatasize\n      0x04\n      tag_51\n      jump\t// in\n    tag_57:\n      tag_58\n      jump\t// in\n        /* \"contracts/liquidityMining/KyberRewardLockerV2.sol\":2790:3122  function removeRewardsContract(IERC20Ext token, address _rewardContract)\r... */\n    tag_8:\n      callvalue\n      dup1\n      iszero\n      tag_60\n      jumpi\n      0x00\n      dup1\n      revert\n    tag_60:\n      pop\n      tag_39\n      tag_62\n      calldatasize\n      0x04\n      tag_63\n      jump\t// in\n    tag_62:\n      tag_64\n      jump\t// in\n        /* \"contracts/liquidityMining/KyberRewardLockerV2.sol\":4081:4602  function vestScheduleForMultipleTokensAtIndices(\r... */\n    tag_9:\n      callvalue\n      dup1\n      iszero\n      tag_65\n      jumpi\n      0x00\n      dup1\n      revert\n    tag_65:\n      pop\n      tag_66\n      tag_67\n      calldatasize\n      0x04\n      tag_68\n      jump\t// in\n    tag_67:\n      tag_69\n      jump\t// in\n    tag_66:\n      mload(0x40)\n      tag_30\n      swap2\n      swap1\n      tag_71\n      jump\t// in\n        /* \"contracts/liquidityMining/KyberRewardLockerV2.sol\":9930:10147  function numVestingSchedules(address account, IERC20Ext token)\r... */\n    tag_10:\n      callvalue\n      dup1\n      iszero\n      tag_72\n      jumpi\n      0x00\n      dup1\n      revert\n    tag_72:\n      pop\n      tag_33\n      tag_74\n      calldatasize\n      0x04\n      tag_51\n      jump\t// in\n    tag_74:\n      tag_75\n      jump\t// in\n        /* \"contracts/liquidityMining/KyberRewardLockerV2.sol\":1422:1510  mapping(address => mapping(IERC20Ext => uint256))\r... */\n    tag_11:\n      callvalue\n      dup1\n      iszero\n      tag_77\n      jumpi\n      0x00\n      dup1\n      revert\n    tag_77:\n      pop\n      tag_33\n      tag_79\n      calldatasize\n      0x04\n      tag_51\n      jump\t// in\n    tag_79:\n      tag_80\n      jump\t// in\n        /* \"contracts/manual/PermissionAdmin.sol\":661:864  function transferAdmin(address newAdmin) public onlyAdmin {\r... */\n    tag_12:\n      callvalue\n      dup1\n      iszero\n      tag_82\n      jumpi\n      0x00\n      dup1\n      revert\n    tag_82:\n      pop\n      tag_39\n      tag_84\n      calldatasize\n      0x04\n      tag_85\n      jump\t// in\n    tag_84:\n      tag_86\n      jump\t// in\n        /* \"contracts/manual/PermissionAdmin.sol\":1398:1612  function claimAdmin() public {\r... */\n    tag_13:\n      callvalue\n      dup1\n      iszero\n      tag_87\n      jumpi\n      0x00\n      dup1\n      revert\n    tag_87:\n      pop\n      tag_39\n      tag_89\n      jump\t// in\n        /* \"contracts/manual/PermissionAdmin.sol\":1045:1289  function transferAdminQuickly(address newAdmin) public onlyAdmin {\r... */\n    tag_14:\n      callvalue\n      dup1\n      iszero\n      tag_90\n      jumpi\n      0x00\n      dup1\n      revert\n    tag_90:\n      pop\n      tag_39\n      tag_92\n      calldatasize\n      0x04\n      tag_85\n      jump\t// in\n    tag_92:\n      tag_93\n      jump\t// in\n        /* \"contracts/liquidityMining/KyberRewardLockerV2.sol\":3549:3898  function vestCompletedSchedulesForMultipleTokens(\r... */\n    tag_15:\n      callvalue\n      dup1\n      iszero\n      tag_94\n      jumpi\n      0x00\n      dup1\n      revert\n    tag_94:\n      pop\n      tag_66\n      tag_96\n      calldatasize\n      0x04\n      tag_97\n      jump\t// in\n    tag_96:\n      tag_98\n      jump\t// in\n        /* \"contracts/liquidityMining/KyberRewardLockerV2.sol\":11040:11444  function getRewardContractsPerToken(IERC20Ext token)\r... */\n    tag_16:\n      callvalue\n      dup1\n      iszero\n      tag_100\n      jumpi\n      0x00\n      dup1\n      revert\n    tag_100:\n      pop\n      tag_101\n      tag_102\n      calldatasize\n      0x04\n      tag_85\n      jump\t// in\n    tag_102:\n      tag_104\n      jump\t// in\n    tag_101:\n      mload(0x40)\n      tag_30\n      swap2\n      swap1\n      tag_106\n      jump\t// in\n        /* \"contracts/liquidityMining/KyberRewardLockerV2.sol\":9290:9784  function vestSchedulesInRange(\r... */\n    tag_17:\n      callvalue\n      dup1\n      iszero\n      tag_107\n      jumpi\n      0x00\n      dup1\n      revert\n    tag_107:\n      pop\n      tag_33\n      tag_109\n      calldatasize\n      0x04\n      tag_110\n      jump\t// in\n    tag_109:\n      tag_111\n      jump\t// in\n        /* \"contracts/liquidityMining/KyberRewardLockerV2.sol\":2232:2710  function addRewardsContract(IERC20Ext token, address _rewardContract)\r... */\n    tag_18:\n      callvalue\n      dup1\n      iszero\n      tag_113\n      jumpi\n      0x00\n      dup1\n      revert\n    tag_113:\n      pop\n      tag_39\n      tag_115\n      calldatasize\n      0x04\n      tag_63\n      jump\t// in\n    tag_115:\n      tag_116\n      jump\t// in\n        /* \"contracts/manual/PermissionAdmin.sol\":100:120  address public admin */\n    tag_19:\n      callvalue\n      dup1\n      iszero\n      tag_117\n      jumpi\n      0x00\n      dup1\n      revert\n    tag_117:\n      pop\n      tag_44\n      tag_119\n      jump\t// in\n        /* \"contracts/liquidityMining/KyberRewardLockerV2.sol\":7079:8113  function vestCompletedSchedules(IERC20Ext token)\r... */\n    tag_20:\n      callvalue\n      dup1\n      iszero\n      tag_121\n      jumpi\n      0x00\n      dup1\n      revert\n    tag_121:\n      pop\n      tag_33\n      tag_123\n      calldatasize\n      0x04\n      tag_85\n      jump\t// in\n    tag_123:\n      tag_124\n      jump\t// in\n        /* \"contracts/liquidityMining/KyberRewardLockerV2.sol\":4610:6999  function lockWithStartTime(\r... */\n    tag_21:\n      tag_39\n      tag_127\n      calldatasize\n      0x04\n      tag_128\n      jump\t// in\n    tag_127:\n      tag_129\n      jump\t// in\n        /* \"contracts/liquidityMining/KyberRewardLockerV2.sol\":10225:10476  function getVestingScheduleAtIndex(\r... */\n    tag_29:\n        /* \"contracts/liquidityMining/KyberRewardLockerV2.sol\":10375:10397  VestingSchedule memory */\n      tag_130\n      tag_131\n      jump\t// in\n    tag_130:\n      pop\n      sub(shl(0xa0, 0x01), 0x01)\n        /* \"contracts/liquidityMining/KyberRewardLockerV2.sol\":10417:10449  accountVestingSchedules[account] */\n      dup1\n      dup5\n      and\n      0x00\n      swap1\n      dup2\n      mstore\n        /* \"contracts/liquidityMining/KyberRewardLockerV2.sol\":10417:10440  accountVestingSchedules */\n      0x03\n        /* \"contracts/liquidityMining/KyberRewardLockerV2.sol\":10417:10449  accountVestingSchedules[account] */\n      0x20\n      swap1\n      dup2\n      mstore\n      0x40\n      dup1\n      dup4\n      keccak256\n        /* \"contracts/liquidityMining/KyberRewardLockerV2.sol\":10417:10456  accountVestingSchedules[account][token] */\n      swap4\n      dup7\n      and\n      dup4\n      mstore\n      swap3\n      dup2\n      mstore\n      dup3\n      dup3\n      keccak256\n        /* \"contracts/liquidityMining/KyberRewardLockerV2.sol\":10417:10468  accountVestingSchedules[account][token].data[index] */\n      dup5\n      dup4\n      mstore\n        /* \"contracts/liquidityMining/KyberRewardLockerV2.sol\":10417:10461  accountVestingSchedules[account][token].data */\n      0x01\n      swap1\n      dup2\n      add\n        /* \"contracts/liquidityMining/KyberRewardLockerV2.sol\":10417:10468  accountVestingSchedules[account][token].data[index] */\n      dup3\n      mstore\n      swap2\n      dup4\n      swap1\n      keccak256\n        /* \"contracts/liquidityMining/KyberRewardLockerV2.sol\":10410:10468  return accountVestingSchedules[account][token].data[index] */\n      dup4\n      mload\n      0x80\n      dup2\n      add\n      dup6\n      mstore\n      dup2\n      sload\n      sub(shl(0x40, 0x01), 0x01)\n      dup1\n      dup3\n      and\n      dup4\n      mstore\n      shl(0x40, 0x01)\n      dup3\n      div\n      and\n      swap4\n      dup3\n      add\n      swap4\n      swap1\n      swap4\n      mstore\n      sub(shl(0x80, 0x01), 0x01)\n      shl(0x80, 0x01)\n      swap1\n      swap4\n      div\n      dup4\n      and\n      swap5\n      dup2\n      add\n      swap5\n      swap1\n      swap5\n      mstore\n      swap1\n      swap2\n      add\n      sload\n      and\n      0x60\n      dup3\n      add\n      mstore\n        /* \"contracts/liquidityMining/KyberRewardLockerV2.sol\":10225:10476  function getVestingScheduleAtIndex(\r... */\n    tag_132:\n      swap4\n      swap3\n      pop\n      pop\n      pop\n      jump\t// out\n        /* \"contracts/liquidityMining/KyberRewardLockerV2.sol\":8199:9282  function vestScheduleAtIndices(IERC20Ext token, uint256[] memory indexes)\r... */\n    tag_36:\n        /* \"contracts/liquidityMining/KyberRewardLockerV2.sol\":8425:8435  msg.sender */\n      caller\n        /* \"contracts/liquidityMining/KyberRewardLockerV2.sol\":8325:8332  uint256 */\n      0x00\n        /* \"contracts/liquidityMining/KyberRewardLockerV2.sol\":8387:8446  accountVestingSchedules[\r... */\n      swap1\n      dup2\n      mstore\n        /* \"contracts/liquidityMining/KyberRewardLockerV2.sol\":8387:8410  accountVestingSchedules */\n      0x03\n        /* \"contracts/liquidityMining/KyberRewardLockerV2.sol\":8387:8446  accountVestingSchedules[\r... */\n      0x20\n      swap1\n      dup2\n      mstore\n      0x40\n      dup1\n      dup4\n      keccak256\n      sub(shl(0xa0, 0x01), 0x01)\n        /* \"contracts/liquidityMining/KyberRewardLockerV2.sol\":8387:8453  accountVestingSchedules[\r... */\n      dup7\n      and\n      dup5\n      mstore\n      swap1\n      swap2\n      mstore\n      dup2\n      keccak256\n        /* \"contracts/liquidityMining/KyberRewardLockerV2.sol\":8490:8506  schedules.length */\n      dup1\n      sload\n        /* \"contracts/liquidityMining/KyberRewardLockerV2.sol\":8325:8332  uint256 */\n      dup3\n      dup1\n        /* \"contracts/liquidityMining/KyberRewardLockerV2.sol\":8552:9197  for (uint256 i = 0; i < indexes.length; i++) {\r... */\n    tag_134:\n        /* \"contracts/liquidityMining/KyberRewardLockerV2.sol\":8576:8583  indexes */\n      dup6\n        /* \"contracts/liquidityMining/KyberRewardLockerV2.sol\":8576:8590  indexes.length */\n      mload\n        /* \"contracts/liquidityMining/KyberRewardLockerV2.sol\":8572:8573  i */\n      dup2\n        /* \"contracts/liquidityMining/KyberRewardLockerV2.sol\":8572:8590  i < indexes.length */\n      lt\n        /* \"contracts/liquidityMining/KyberRewardLockerV2.sol\":8552:9197  for (uint256 i = 0; i < indexes.length; i++) {\r... */\n      iszero\n      tag_135\n      jumpi\n        /* \"contracts/liquidityMining/KyberRewardLockerV2.sol\":8633:8648  schedulesLength */\n      dup3\n        /* \"contracts/liquidityMining/KyberRewardLockerV2.sol\":8620:8627  indexes */\n      dup7\n        /* \"contracts/liquidityMining/KyberRewardLockerV2.sol\":8628:8629  i */\n      dup3\n        /* \"contracts/liquidityMining/KyberRewardLockerV2.sol\":8620:8630  indexes[i] */\n      dup2\n      mload\n      dup2\n      lt\n      tag_137\n      jumpi\n      invalid\n    tag_137:\n      0x20\n      mul\n      0x20\n      add\n      add\n      mload\n        /* \"contracts/liquidityMining/KyberRewardLockerV2.sol\":8620:8648  indexes[i] < schedulesLength */\n      lt\n        /* \"contracts/liquidityMining/KyberRewardLockerV2.sol\":8612:8675  require(indexes[i] < schedulesLength, \"invalid schedule index\") */\n      tag_138\n      jumpi\n      mload(0x40)\n      shl(0xe5, 0x461bcd)\n      dup2\n      mstore\n      0x04\n      add\n      tag_139\n      swap1\n      tag_140\n      jump\t// in\n    tag_139:\n      mload(0x40)\n      dup1\n      swap2\n      sub\n      swap1\n      revert\n    tag_138:\n        /* \"contracts/liquidityMining/KyberRewardLockerV2.sol\":8690:8721  VestingSchedule memory schedule */\n      0x00\n        /* \"contracts/liquidityMining/KyberRewardLockerV2.sol\":8724:8733  schedules */\n      dup5\n        /* \"contracts/liquidityMining/KyberRewardLockerV2.sol\":8724:8738  schedules.data */\n      0x01\n      add\n        /* \"contracts/liquidityMining/KyberRewardLockerV2.sol\":8724:8750  schedules.data[indexes[i]] */\n      0x00\n        /* \"contracts/liquidityMining/KyberRewardLockerV2.sol\":8739:8746  indexes */\n      dup9\n        /* \"contracts/liquidityMining/KyberRewardLockerV2.sol\":8747:8748  i */\n      dup5\n        /* \"contracts/liquidityMining/KyberRewardLockerV2.sol\":8739:8749  indexes[i] */\n      dup2\n      mload\n      dup2\n      lt\n      tag_141\n      jumpi\n      invalid\n    tag_141:\n      0x20\n      swap1\n      dup2\n      mul\n      swap2\n      swap1\n      swap2\n      add\n      dup2\n      add\n      mload\n        /* \"contracts/liquidityMining/KyberRewardLockerV2.sol\":8724:8750  schedules.data[indexes[i]] */\n      dup3\n      mstore\n      dup2\n      dup2\n      add\n      swap3\n      swap1\n      swap3\n      mstore\n      0x40\n      swap1\n      dup2\n      add\n      0x00\n      swap1\n      dup2\n      keccak256\n        /* \"contracts/liquidityMining/KyberRewardLockerV2.sol\":8690:8750  VestingSchedule memory schedule = schedules.data[indexes[i]] */\n      dup3\n      mload\n      0x80\n      dup2\n      add\n      dup5\n      mstore\n      dup2\n      sload\n      sub(shl(0x40, 0x01), 0x01)\n      dup1\n      dup3\n      and\n      dup4\n      mstore\n      shl(0x40, 0x01)\n      dup3\n      div\n      and\n      swap6\n      dup3\n      add\n      swap6\n      swap1\n      swap6\n      mstore\n      sub(shl(0x80, 0x01), 0x01)\n      shl(0x80, 0x01)\n      swap1\n      swap6\n      div\n      dup6\n      and\n      swap4\n      dup2\n      add\n      swap4\n      swap1\n      swap4\n      mstore\n      0x01\n      add\n      sload\n      swap1\n      swap3\n      and\n      0x60\n      dup3\n      add\n      mstore\n      swap2\n      pop\n        /* \"contracts/liquidityMining/KyberRewardLockerV2.sol\":8788:8817  _getVestingQuantity(schedule) */\n      tag_142\n        /* \"contracts/liquidityMining/KyberRewardLockerV2.sol\":8690:8750  VestingSchedule memory schedule = schedules.data[indexes[i]] */\n      dup3\n        /* \"contracts/liquidityMining/KyberRewardLockerV2.sol\":8788:8807  _getVestingQuantity */\n      tag_143\n        /* \"contracts/liquidityMining/KyberRewardLockerV2.sol\":8788:8817  _getVestingQuantity(schedule) */\n      jump\t// in\n    tag_142:\n        /* \"contracts/liquidityMining/KyberRewardLockerV2.sol\":8765:8817  uint256 vestQuantity = _getVestingQuantity(schedule) */\n      swap1\n      pop\n        /* \"contracts/liquidityMining/KyberRewardLockerV2.sol\":8836:8853  vestQuantity == 0 */\n      dup1\n        /* \"contracts/liquidityMining/KyberRewardLockerV2.sol\":8832:8898  if (vestQuantity == 0) {\r... */\n      tag_144\n      jumpi\n        /* \"contracts/liquidityMining/KyberRewardLockerV2.sol\":8874:8882  continue */\n      pop\n      pop\n      jump(tag_136)\n        /* \"contracts/liquidityMining/KyberRewardLockerV2.sol\":8832:8898  if (vestQuantity == 0) {\r... */\n    tag_144:\n        /* \"contracts/liquidityMining/KyberRewardLockerV2.sol\":8982:9005  schedule.vestedQuantity */\n      0x60\n      dup3\n      add\n      mload\n        /* \"contracts/liquidityMining/KyberRewardLockerV2.sol\":8956:9050  uint256(\r... */\n      tag_145\n      swap1\n        /* \"contracts/liquidityMining/KyberRewardLockerV2.sol\":8956:9038  uint256(\r... */\n      tag_146\n      swap1\n      sub(shl(0x80, 0x01), 0x01)\n        /* \"contracts/liquidityMining/KyberRewardLockerV2.sol\":8956:9020  uint256(\r... */\n      and\n        /* \"contracts/liquidityMining/KyberRewardLockerV2.sol\":9025:9037  vestQuantity */\n      dup4\n        /* \"contracts/liquidityMining/KyberRewardLockerV2.sol\":8956:9024  uint256(\r... */\n      tag_147\n        /* \"contracts/liquidityMining/KyberRewardLockerV2.sol\":8956:9038  uint256(\r... */\n      jump\t// in\n    tag_146:\n        /* \"contracts/liquidityMining/KyberRewardLockerV2.sol\":8956:9048  uint256(\r... */\n      tag_148\n        /* \"contracts/liquidityMining/KyberRewardLockerV2.sol\":8956:9050  uint256(\r... */\n      jump\t// in\n    tag_145:\n        /* \"contracts/liquidityMining/KyberRewardLockerV2.sol\":8912:8921  schedules */\n      dup7\n        /* \"contracts/liquidityMining/KyberRewardLockerV2.sol\":8912:8926  schedules.data */\n      0x01\n      add\n        /* \"contracts/liquidityMining/KyberRewardLockerV2.sol\":8912:8938  schedules.data[indexes[i]] */\n      0x00\n        /* \"contracts/liquidityMining/KyberRewardLockerV2.sol\":8927:8934  indexes */\n      dup11\n        /* \"contracts/liquidityMining/KyberRewardLockerV2.sol\":8935:8936  i */\n      dup7\n        /* \"contracts/liquidityMining/KyberRewardLockerV2.sol\":8927:8937  indexes[i] */\n      dup2\n      mload\n      dup2\n      lt\n      tag_149\n      jumpi\n      invalid\n    tag_149:\n      0x20\n      mul\n      0x20\n      add\n      add\n      mload\n        /* \"contracts/liquidityMining/KyberRewardLockerV2.sol\":8912:8938  schedules.data[indexes[i]] */\n      dup2\n      mstore\n      0x20\n      add\n      swap1\n      dup2\n      mstore\n      0x20\n      add\n      0x00\n      keccak256\n        /* \"contracts/liquidityMining/KyberRewardLockerV2.sol\":8912:8953  schedules.data[indexes[i]].vestedQuantity */\n      0x01\n      add\n      0x00\n        /* \"contracts/liquidityMining/KyberRewardLockerV2.sol\":8912:9050  schedules.data[indexes[i]].vestedQuantity = uint256(\r... */\n      0x0100\n      exp\n      dup2\n      sload\n      dup2\n      sub(shl(0x80, 0x01), 0x01)\n      mul\n      not\n      and\n      swap1\n      dup4\n      sub(shl(0x80, 0x01), 0x01)\n      and\n      mul\n      or\n      swap1\n      sstore\n      pop\n        /* \"contracts/liquidityMining/KyberRewardLockerV2.sol\":9082:9112  totalVesting.add(vestQuantity) */\n      tag_150\n        /* \"contracts/liquidityMining/KyberRewardLockerV2.sol\":9099:9111  vestQuantity */\n      dup2\n        /* \"contracts/liquidityMining/KyberRewardLockerV2.sol\":9082:9094  totalVesting */\n      dup6\n        /* \"contracts/liquidityMining/KyberRewardLockerV2.sol\":9082:9098  totalVesting.add */\n      tag_147\n      swap1\n        /* \"contracts/liquidityMining/KyberRewardLockerV2.sol\":9082:9112  totalVesting.add(vestQuantity) */\n      swap2\n      swap1\n      0xffffffff\n      and\n      jump\t// in\n    tag_150:\n        /* \"contracts/liquidityMining/KyberRewardLockerV2.sol\":9067:9112  totalVesting = totalVesting.add(vestQuantity) */\n      swap4\n      pop\n        /* \"contracts/liquidityMining/KyberRewardLockerV2.sol\":9148:9158  msg.sender */\n      caller\n      sub(shl(0xa0, 0x01), 0x01)\n        /* \"contracts/liquidityMining/KyberRewardLockerV2.sol\":9134:9185  Vested(token, msg.sender, vestQuantity, indexes[i]) */\n      and\n        /* \"contracts/liquidityMining/KyberRewardLockerV2.sol\":9141:9146  token */\n      dup10\n      sub(shl(0xa0, 0x01), 0x01)\n        /* \"contracts/liquidityMining/KyberRewardLockerV2.sol\":9134:9185  Vested(token, msg.sender, vestQuantity, indexes[i]) */\n      and\n      0x6d06f0a463d80b43fe6cd0b79c61bb2790cfe898790e69828f25e6e12886e178\n        /* \"contracts/liquidityMining/KyberRewardLockerV2.sol\":9160:9172  vestQuantity */\n      dup4\n        /* \"contracts/liquidityMining/KyberRewardLockerV2.sol\":9174:9181  indexes */\n      dup12\n        /* \"contracts/liquidityMining/KyberRewardLockerV2.sol\":9182:9183  i */\n      dup8\n        /* \"contracts/liquidityMining/KyberRewardLockerV2.sol\":9174:9184  indexes[i] */\n      dup2\n      mload\n      dup2\n      lt\n      tag_151\n      jumpi\n      invalid\n    tag_151:\n      0x20\n      mul\n      0x20\n      add\n      add\n      mload\n        /* \"contracts/liquidityMining/KyberRewardLockerV2.sol\":9134:9185  Vested(token, msg.sender, vestQuantity, indexes[i]) */\n      mload(0x40)\n      tag_152\n      swap3\n      swap2\n      swap1\n      tag_153\n      jump\t// in\n    tag_152:\n      mload(0x40)\n      dup1\n      swap2\n      sub\n      swap1\n      log3\n        /* \"contracts/liquidityMining/KyberRewardLockerV2.sol\":8552:9197  for (uint256 i = 0; i < indexes.length; i++) {\r... */\n      pop\n      pop\n    tag_136:\n        /* \"contracts/liquidityMining/KyberRewardLockerV2.sol\":8592:8595  i++ */\n      0x01\n      add\n        /* \"contracts/liquidityMining/KyberRewardLockerV2.sol\":8552:9197  for (uint256 i = 0; i < indexes.length; i++) {\r... */\n      jump(tag_134)\n    tag_135:\n      pop\n        /* \"contracts/liquidityMining/KyberRewardLockerV2.sol\":9207:9244  _completeVesting(token, totalVesting) */\n      tag_154\n        /* \"contracts/liquidityMining/KyberRewardLockerV2.sol\":9224:9229  token */\n      dup7\n        /* \"contracts/liquidityMining/KyberRewardLockerV2.sol\":9231:9243  totalVesting */\n      dup3\n        /* \"contracts/liquidityMining/KyberRewardLockerV2.sol\":9207:9223  _completeVesting */\n      tag_155\n        /* \"contracts/liquidityMining/KyberRewardLockerV2.sol\":9207:9244  _completeVesting(token, totalVesting) */\n      jump\t// in\n    tag_154:\n        /* \"contracts/liquidityMining/KyberRewardLockerV2.sol\":9262:9274  totalVesting */\n      swap3\n      pop\n      pop\n      pop\n        /* \"contracts/liquidityMining/KyberRewardLockerV2.sol\":8199:9282  function vestScheduleAtIndices(IERC20Ext token, uint256[] memory indexes)\r... */\n    tag_133:\n      swap3\n      swap2\n      pop\n      pop\n      jump\t// out\n        /* \"contracts/liquidityMining/KyberRewardLockerV2.sol\":3130:3461  function lock(\r... */\n    tag_42:\n        /* \"contracts/liquidityMining/KyberRewardLockerV2.sol\":3300:3453  lockWithStartTime(\r... */\n      tag_157\n        /* \"contracts/liquidityMining/KyberRewardLockerV2.sol\":3332:3337  token */\n      dup5\n        /* \"contracts/liquidityMining/KyberRewardLockerV2.sol\":3352:3359  account */\n      dup5\n        /* \"contracts/liquidityMining/KyberRewardLockerV2.sol\":3374:3382  quantity */\n      dup5\n        /* \"contracts/liquidityMining/KyberRewardLockerV2.sol\":3397:3412  _getBlockTime() */\n      tag_158\n        /* \"contracts/liquidityMining/KyberRewardLockerV2.sol\":3397:3410  _getBlockTime */\n      tag_159\n        /* \"contracts/liquidityMining/KyberRewardLockerV2.sol\":3397:3412  _getBlockTime() */\n      jump\t// in\n    tag_158:\n        /* \"contracts/liquidityMining/KyberRewardLockerV2.sol\":3300:3453  lockWithStartTime(\r... */\n      0xffffffff\n      and\n        /* \"contracts/liquidityMining/KyberRewardLockerV2.sol\":3427:3442  vestingDuration */\n      dup6\n        /* \"contracts/liquidityMining/KyberRewardLockerV2.sol\":3300:3317  lockWithStartTime */\n      tag_129\n        /* \"contracts/liquidityMining/KyberRewardLockerV2.sol\":3300:3453  lockWithStartTime(\r... */\n      jump\t// in\n    tag_157:\n        /* \"contracts/liquidityMining/KyberRewardLockerV2.sol\":3130:3461  function lock(\r... */\n      pop\n      pop\n      pop\n      pop\n      jump\t// out\n        /* \"contracts/manual/PermissionAdmin.sol\":127:154  address public pendingAdmin */\n    tag_45:\n      and(sub(shl(0xa0, 0x01), 0x01), sload(0x01))\n      dup2\n      jump\t// out\n        /* \"contracts/liquidityMining/KyberRewardLockerV2.sol\":10549:11032  function getVestingSchedules(address account, IERC20Ext token)\r... */\n    tag_52:\n      sub(shl(0xa0, 0x01), 0x01)\n        /* \"contracts/liquidityMining/KyberRewardLockerV2.sol\":10758:10790  accountVestingSchedules[account] */\n      dup1\n      dup4\n      and\n        /* \"contracts/liquidityMining/KyberRewardLockerV2.sol\":10732:10755  uint256 schedulesLength */\n      0x00\n        /* \"contracts/liquidityMining/KyberRewardLockerV2.sol\":10758:10790  accountVestingSchedules[account] */\n      swap1\n      dup2\n      mstore\n        /* \"contracts/liquidityMining/KyberRewardLockerV2.sol\":10758:10781  accountVestingSchedules */\n      0x03\n        /* \"contracts/liquidityMining/KyberRewardLockerV2.sol\":10758:10790  accountVestingSchedules[account] */\n      0x20\n      swap1\n      dup2\n      mstore\n      0x40\n      dup1\n      dup4\n      keccak256\n        /* \"contracts/liquidityMining/KyberRewardLockerV2.sol\":10758:10797  accountVestingSchedules[account][token] */\n      swap4\n      dup6\n      and\n      dup4\n      mstore\n      swap3\n      swap1\n      mstore\n      keccak256\n        /* \"contracts/liquidityMining/KyberRewardLockerV2.sol\":10758:10818  accountVestingSchedules[account][token]\r... */\n      sload\n        /* \"contracts/liquidityMining/KyberRewardLockerV2.sol\":10680:10714  VestingSchedule[] memory schedules */\n      0x60\n      swap1\n        /* \"contracts/liquidityMining/KyberRewardLockerV2.sol\":10758:10818  accountVestingSchedules[account][token]\r... */\n      dup1\n      sub(shl(0x40, 0x01), 0x01)\n        /* \"contracts/liquidityMining/KyberRewardLockerV2.sol\":10841:10879  new VestingSchedule[](schedulesLength) */\n      dup2\n      gt\n      dup1\n      iszero\n      tag_161\n      jumpi\n      0x00\n      dup1\n      revert\n    tag_161:\n      pop\n      mload(0x40)\n      swap1\n      dup1\n      dup3\n      mstore\n      dup1\n      0x20\n      mul\n      0x20\n      add\n      dup3\n      add\n      0x40\n      mstore\n      dup1\n      iszero\n      tag_162\n      jumpi\n      dup2\n      0x20\n      add\n    tag_163:\n      tag_164\n      tag_131\n      jump\t// in\n    tag_164:\n      dup2\n      mstore\n      0x20\n      add\n      swap1\n      0x01\n      swap1\n      sub\n      swap1\n      dup2\n      tag_163\n      jumpi\n      swap1\n      pop\n    tag_162:\n      pop\n        /* \"contracts/liquidityMining/KyberRewardLockerV2.sol\":10829:10879  schedules = new VestingSchedule[](schedulesLength) */\n      swap2\n      pop\n        /* \"contracts/liquidityMining/KyberRewardLockerV2.sol\":10895:10904  uint256 i */\n      0x00\n        /* \"contracts/liquidityMining/KyberRewardLockerV2.sol\":10890:11025  for (uint256 i = 0; i < schedulesLength; i++) {\r... */\n    tag_165:\n        /* \"contracts/liquidityMining/KyberRewardLockerV2.sol\":10914:10929  schedulesLength */\n      dup2\n        /* \"contracts/liquidityMining/KyberRewardLockerV2.sol\":10910:10911  i */\n      dup2\n        /* \"contracts/liquidityMining/KyberRewardLockerV2.sol\":10910:10929  i < schedulesLength */\n      lt\n        /* \"contracts/liquidityMining/KyberRewardLockerV2.sol\":10890:11025  for (uint256 i = 0; i < schedulesLength; i++) {\r... */\n      iszero\n      tag_166\n      jumpi\n      sub(shl(0xa0, 0x01), 0x01)\n        /* \"contracts/liquidityMining/KyberRewardLockerV2.sol\":10966:10998  accountVestingSchedules[account] */\n      dup1\n      dup7\n      and\n      0x00\n      swap1\n      dup2\n      mstore\n        /* \"contracts/liquidityMining/KyberRewardLockerV2.sol\":10966:10989  accountVestingSchedules */\n      0x03\n        /* \"contracts/liquidityMining/KyberRewardLockerV2.sol\":10966:10998  accountVestingSchedules[account] */\n      0x20\n      swap1\n      dup2\n      mstore\n      0x40\n      dup1\n      dup4\n      keccak256\n        /* \"contracts/liquidityMining/KyberRewardLockerV2.sol\":10966:11005  accountVestingSchedules[account][token] */\n      swap4\n      dup9\n      and\n      dup4\n      mstore\n      swap3\n      dup2\n      mstore\n      dup3\n      dup3\n      keccak256\n        /* \"contracts/liquidityMining/KyberRewardLockerV2.sol\":10966:11013  accountVestingSchedules[account][token].data[i] */\n      dup5\n      dup4\n      mstore\n        /* \"contracts/liquidityMining/KyberRewardLockerV2.sol\":10966:11010  accountVestingSchedules[account][token].data */\n      0x01\n      swap1\n      dup2\n      add\n        /* \"contracts/liquidityMining/KyberRewardLockerV2.sol\":10966:11013  accountVestingSchedules[account][token].data[i] */\n      dup3\n      mstore\n      swap2\n      dup4\n      swap1\n      keccak256\n        /* \"contracts/liquidityMining/KyberRewardLockerV2.sol\":10951:11013  schedules[i] = accountVestingSchedules[account][token].data[i] */\n      dup4\n      mload\n      0x80\n      dup2\n      add\n      dup6\n      mstore\n      dup2\n      sload\n      sub(shl(0x40, 0x01), 0x01)\n      dup1\n      dup3\n      and\n      dup4\n      mstore\n      shl(0x40, 0x01)\n      dup3\n      div\n      and\n      swap4\n      dup3\n      add\n      swap4\n      swap1\n      swap4\n      mstore\n      sub(shl(0x80, 0x01), 0x01)\n      shl(0x80, 0x01)\n      swap1\n      swap4\n      div\n      dup4\n      and\n      swap5\n      dup2\n      add\n      swap5\n      swap1\n      swap5\n      mstore\n      swap1\n      swap2\n      add\n      sload\n      and\n      0x60\n      dup3\n      add\n      mstore\n        /* \"contracts/liquidityMining/KyberRewardLockerV2.sol\":10951:10963  schedules[i] */\n      dup4\n      mload\n        /* \"contracts/liquidityMining/KyberRewardLockerV2.sol\":10951:10960  schedules */\n      dup5\n      swap1\n        /* \"contracts/liquidityMining/KyberRewardLockerV2.sol\":11011:11012  i */\n      dup4\n      swap1\n        /* \"contracts/liquidityMining/KyberRewardLockerV2.sol\":10951:10963  schedules[i] */\n      dup2\n      lt\n      tag_168\n      jumpi\n      invalid\n    tag_168:\n      0x20\n      swap1\n      dup2\n      mul\n      swap2\n      swap1\n      swap2\n      add\n      add\n        /* \"contracts/liquidityMining/KyberRewardLockerV2.sol\":10951:11013  schedules[i] = accountVestingSchedules[account][token].data[i] */\n      mstore\n        /* \"contracts/liquidityMining/KyberRewardLockerV2.sol\":10931:10934  i++ */\n      0x01\n      add\n        /* \"contracts/liquidityMining/KyberRewardLockerV2.sol\":10890:11025  for (uint256 i = 0; i < schedulesLength; i++) {\r... */\n      jump(tag_165)\n    tag_166:\n      pop\n        /* \"contracts/liquidityMining/KyberRewardLockerV2.sol\":10549:11032  function getVestingSchedules(address account, IERC20Ext token)\r... */\n      pop\n      swap3\n      swap2\n      pop\n      pop\n      jump\t// out\n        /* \"contracts/liquidityMining/KyberRewardLockerV2.sol\":1576:1662  mapping(address => mapping(IERC20Ext => uint256))\r... */\n    tag_58:\n      0x05\n      0x20\n      swap1\n      dup2\n      mstore\n      0x00\n      swap3\n      dup4\n      mstore\n      0x40\n      dup1\n      dup5\n      keccak256\n      swap1\n      swap2\n      mstore\n      swap1\n      dup3\n      mstore\n      swap1\n      keccak256\n      sload\n      dup2\n      jump\t// out\n        /* \"contracts/liquidityMining/KyberRewardLockerV2.sol\":2790:3122  function removeRewardsContract(IERC20Ext token, address _rewardContract)\r... */\n    tag_64:\n        /* \"contracts/manual/PermissionAdmin.sol\":462:467  admin */\n      and(sub(shl(0xa0, 0x01), 0x01), sload(0x00))\n        /* \"contracts/manual/PermissionAdmin.sol\":448:458  msg.sender */\n      caller\n        /* \"contracts/manual/PermissionAdmin.sol\":448:467  msg.sender == admin */\n      eq\n        /* \"contracts/manual/PermissionAdmin.sol\":440:482  require(msg.sender == admin, \"only admin\") */\n      tag_170\n      jumpi\n      0x40\n      dup1\n      mload\n      shl(0xe5, 0x461bcd)\n      dup2\n      mstore\n      0x20\n      0x04\n      dup3\n      add\n      mstore\n      0x0a\n      0x24\n      dup3\n      add\n      mstore\n      shl(0xb1, 0x37b7363c9030b236b4b7)\n      0x44\n      dup3\n      add\n      mstore\n      swap1\n      mload\n      swap1\n      dup2\n      swap1\n      sub\n      0x64\n      add\n      swap1\n      revert\n    tag_170:\n      sub(shl(0xa0, 0x01), 0x01)\n        /* \"contracts/liquidityMining/KyberRewardLockerV2.sol\":2938:2968  rewardContractsPerToken[token] */\n      dup3\n      and\n      0x00\n      swap1\n      dup2\n      mstore\n        /* \"contracts/liquidityMining/KyberRewardLockerV2.sol\":2938:2961  rewardContractsPerToken */\n      0x02\n        /* \"contracts/liquidityMining/KyberRewardLockerV2.sol\":2938:2968  rewardContractsPerToken[token] */\n      0x20\n      mstore\n      0x40\n      swap1\n      keccak256\n        /* \"contracts/liquidityMining/KyberRewardLockerV2.sol\":2938:2992  rewardContractsPerToken[token].remove(_rewardContract) */\n      tag_172\n      swap1\n        /* \"contracts/liquidityMining/KyberRewardLockerV2.sol\":2976:2991  _rewardContract */\n      dup3\n        /* \"contracts/liquidityMining/KyberRewardLockerV2.sol\":2938:2975  rewardContractsPerToken[token].remove */\n      tag_173\n        /* \"contracts/liquidityMining/KyberRewardLockerV2.sol\":2938:2992  rewardContractsPerToken[token].remove(_rewardContract) */\n      jump\t// in\n    tag_172:\n        /* \"contracts/liquidityMining/KyberRewardLockerV2.sol\":2916:3046  require(\r... */\n      tag_174\n      jumpi\n      mload(0x40)\n      shl(0xe5, 0x461bcd)\n      dup2\n      mstore\n      0x04\n      add\n      tag_139\n      swap1\n      tag_176\n      jump\t// in\n    tag_174:\n        /* \"contracts/liquidityMining/KyberRewardLockerV2.sol\":3101:3106  token */\n      dup2\n      sub(shl(0xa0, 0x01), 0x01)\n        /* \"contracts/liquidityMining/KyberRewardLockerV2.sol\":3064:3114  RewardContractAdded(_rewardContract, token, false) */\n      and\n        /* \"contracts/liquidityMining/KyberRewardLockerV2.sol\":3084:3099  _rewardContract */\n      dup2\n      sub(shl(0xa0, 0x01), 0x01)\n        /* \"contracts/liquidityMining/KyberRewardLockerV2.sol\":3064:3114  RewardContractAdded(_rewardContract, token, false) */\n      and\n      0x88a8c998079a07d6a1e59a32ce0c359a00e4c94ce7a6068350a9574e7e0f993d\n        /* \"contracts/liquidityMining/KyberRewardLockerV2.sol\":3108:3113  false */\n      0x00\n        /* \"contracts/liquidityMining/KyberRewardLockerV2.sol\":3064:3114  RewardContractAdded(_rewardContract, token, false) */\n      mload(0x40)\n      tag_177\n      swap2\n      swap1\n      tag_178\n      jump\t// in\n    tag_177:\n      mload(0x40)\n      dup1\n      swap2\n      sub\n      swap1\n      log3\n        /* \"contracts/liquidityMining/KyberRewardLockerV2.sol\":2790:3122  function removeRewardsContract(IERC20Ext token, address _rewardContract)\r... */\n      pop\n      pop\n      jump\t// out\n        /* \"contracts/liquidityMining/KyberRewardLockerV2.sol\":4081:4602  function vestScheduleForMultipleTokensAtIndices(\r... */\n    tag_69:\n        /* \"contracts/liquidityMining/KyberRewardLockerV2.sol\":4240:4270  uint256[] memory vestedAmounts */\n      0x60\n        /* \"contracts/liquidityMining/KyberRewardLockerV2.sol\":4305:4336  tokens.length == indices.length */\n      dup4\n      dup3\n      eq\n        /* \"contracts/liquidityMining/KyberRewardLockerV2.sol\":4283:4395  require(\r... */\n      tag_180\n      jumpi\n      mload(0x40)\n      shl(0xe5, 0x461bcd)\n      dup2\n      mstore\n      0x04\n      add\n      tag_139\n      swap1\n      tag_182\n      jump\t// in\n    tag_180:\n        /* \"contracts/liquidityMining/KyberRewardLockerV2.sol\":4436:4442  tokens */\n      dup4\n      sub(shl(0x40, 0x01), 0x01)\n        /* \"contracts/liquidityMining/KyberRewardLockerV2.sol\":4422:4450  new uint256[](tokens.length) */\n      dup2\n      gt\n      dup1\n      iszero\n      tag_183\n      jumpi\n      0x00\n      dup1\n      revert\n    tag_183:\n      pop\n      mload(0x40)\n      swap1\n      dup1\n      dup3\n      mstore\n      dup1\n      0x20\n      mul\n      0x20\n      add\n      dup3\n      add\n      0x40\n      mstore\n      dup1\n      iszero\n      tag_184\n      jumpi\n      dup2\n      0x20\n      add\n      0x20\n      dup3\n      mul\n      dup1\n      calldatasize\n      dup4\n      calldatacopy\n      add\n      swap1\n      pop\n    tag_184:\n      pop\n        /* \"contracts/liquidityMining/KyberRewardLockerV2.sol\":4406:4450  vestedAmounts = new uint256[](tokens.length) */\n      swap1\n      pop\n        /* \"contracts/liquidityMining/KyberRewardLockerV2.sol\":4466:4475  uint256 i */\n      0x00\n        /* \"contracts/liquidityMining/KyberRewardLockerV2.sol\":4461:4595  for (uint256 i = 0; i < tokens.length; i++) {\r... */\n    tag_185:\n        /* \"contracts/liquidityMining/KyberRewardLockerV2.sol\":4481:4498  i < tokens.length */\n      dup5\n      dup2\n      lt\n        /* \"contracts/liquidityMining/KyberRewardLockerV2.sol\":4461:4595  for (uint256 i = 0; i < tokens.length; i++) {\r... */\n      iszero\n      tag_186\n      jumpi\n        /* \"contracts/liquidityMining/KyberRewardLockerV2.sol\":4539:4583  vestScheduleAtIndices(tokens[i], indices[i]) */\n      tag_188\n        /* \"contracts/liquidityMining/KyberRewardLockerV2.sol\":4561:4567  tokens */\n      dup7\n      dup7\n        /* \"contracts/liquidityMining/KyberRewardLockerV2.sol\":4568:4569  i */\n      dup4\n        /* \"contracts/liquidityMining/KyberRewardLockerV2.sol\":4561:4570  tokens[i] */\n      dup2\n      dup2\n      lt\n      tag_189\n      jumpi\n      invalid\n    tag_189:\n      swap1\n      pop\n      0x20\n      mul\n      add\n      0x20\n      dup2\n      add\n      swap1\n      tag_190\n      swap2\n      swap1\n      tag_85\n      jump\t// in\n    tag_190:\n        /* \"contracts/liquidityMining/KyberRewardLockerV2.sol\":4572:4579  indices */\n      dup6\n      dup6\n        /* \"contracts/liquidityMining/KyberRewardLockerV2.sol\":4580:4581  i */\n      dup5\n        /* \"contracts/liquidityMining/KyberRewardLockerV2.sol\":4572:4582  indices[i] */\n      dup2\n      dup2\n      lt\n      tag_191\n      jumpi\n      invalid\n    tag_191:\n      swap1\n      pop\n      0x20\n      mul\n      dup2\n      add\n      swap1\n      tag_192\n      swap2\n      swap1\n      tag_193\n      jump\t// in\n    tag_192:\n        /* \"contracts/liquidityMining/KyberRewardLockerV2.sol\":4539:4583  vestScheduleAtIndices(tokens[i], indices[i]) */\n      dup1\n      dup1\n      0x20\n      mul\n      0x20\n      add\n      mload(0x40)\n      swap1\n      dup2\n      add\n      0x40\n      mstore\n      dup1\n      swap4\n      swap3\n      swap2\n      swap1\n      dup2\n      dup2\n      mstore\n      0x20\n      add\n      dup4\n      dup4\n      0x20\n      mul\n      dup1\n      dup3\n      dup5\n      calldatacopy\n      0x00\n      swap3\n      add\n      swap2\n      swap1\n      swap2\n      mstore\n      pop\n        /* \"contracts/liquidityMining/KyberRewardLockerV2.sol\":4539:4560  vestScheduleAtIndices */\n      tag_36\n      swap3\n      pop\n      pop\n      pop\n        /* \"contracts/liquidityMining/KyberRewardLockerV2.sol\":4539:4583  vestScheduleAtIndices(tokens[i], indices[i]) */\n      jump\t// in\n    tag_188:\n        /* \"contracts/liquidityMining/KyberRewardLockerV2.sol\":4520:4533  vestedAmounts */\n      dup3\n        /* \"contracts/liquidityMining/KyberRewardLockerV2.sol\":4534:4535  i */\n      dup3\n        /* \"contracts/liquidityMining/KyberRewardLockerV2.sol\":4520:4536  vestedAmounts[i] */\n      dup2\n      mload\n      dup2\n      lt\n      tag_194\n      jumpi\n      invalid\n    tag_194:\n      0x20\n      swap1\n      dup2\n      mul\n      swap2\n      swap1\n      swap2\n      add\n      add\n        /* \"contracts/liquidityMining/KyberRewardLockerV2.sol\":4520:4583  vestedAmounts[i] = vestScheduleAtIndices(tokens[i], indices[i]) */\n      mstore\n        /* \"contracts/liquidityMining/KyberRewardLockerV2.sol\":4500:4503  i++ */\n      0x01\n      add\n        /* \"contracts/liquidityMining/KyberRewardLockerV2.sol\":4461:4595  for (uint256 i = 0; i < tokens.length; i++) {\r... */\n      jump(tag_185)\n    tag_186:\n      pop\n        /* \"contracts/liquidityMining/KyberRewardLockerV2.sol\":4081:4602  function vestScheduleForMultipleTokensAtIndices(\r... */\n      swap5\n      swap4\n      pop\n      pop\n      pop\n      pop\n      jump\t// out\n        /* \"contracts/liquidityMining/KyberRewardLockerV2.sol\":9930:10147  function numVestingSchedules(address account, IERC20Ext token)\r... */\n    tag_75:\n      sub(shl(0xa0, 0x01), 0x01)\n        /* \"contracts/liquidityMining/KyberRewardLockerV2.sol\":10093:10125  accountVestingSchedules[account] */\n      swap2\n      dup3\n      and\n        /* \"contracts/liquidityMining/KyberRewardLockerV2.sol\":10061:10068  uint256 */\n      0x00\n        /* \"contracts/liquidityMining/KyberRewardLockerV2.sol\":10093:10125  accountVestingSchedules[account] */\n      swap1\n      dup2\n      mstore\n        /* \"contracts/liquidityMining/KyberRewardLockerV2.sol\":10093:10116  accountVestingSchedules */\n      0x03\n        /* \"contracts/liquidityMining/KyberRewardLockerV2.sol\":10093:10125  accountVestingSchedules[account] */\n      0x20\n      swap1\n      dup2\n      mstore\n      0x40\n      dup1\n      dup4\n      keccak256\n        /* \"contracts/liquidityMining/KyberRewardLockerV2.sol\":10093:10132  accountVestingSchedules[account][token] */\n      swap4\n      swap1\n      swap5\n      and\n      dup3\n      mstore\n      swap2\n      swap1\n      swap2\n      mstore\n      keccak256\n        /* \"contracts/liquidityMining/KyberRewardLockerV2.sol\":10093:10139  accountVestingSchedules[account][token].length */\n      sload\n      swap1\n        /* \"contracts/liquidityMining/KyberRewardLockerV2.sol\":9930:10147  function numVestingSchedules(address account, IERC20Ext token)\r... */\n      jump\t// out\n        /* \"contracts/liquidityMining/KyberRewardLockerV2.sol\":1422:1510  mapping(address => mapping(IERC20Ext => uint256))\r... */\n    tag_80:\n      0x04\n      0x20\n      swap1\n      dup2\n      mstore\n      0x00\n      swap3\n      dup4\n      mstore\n      0x40\n      dup1\n      dup5\n      keccak256\n      swap1\n      swap2\n      mstore\n      swap1\n      dup3\n      mstore\n      swap1\n      keccak256\n      sload\n      dup2\n      jump\t// out\n        /* \"contracts/manual/PermissionAdmin.sol\":661:864  function transferAdmin(address newAdmin) public onlyAdmin {\r... */\n    tag_86:\n        /* \"contracts/manual/PermissionAdmin.sol\":462:467  admin */\n      and(sub(shl(0xa0, 0x01), 0x01), sload(0x00))\n        /* \"contracts/manual/PermissionAdmin.sol\":448:458  msg.sender */\n      caller\n        /* \"contracts/manual/PermissionAdmin.sol\":448:467  msg.sender == admin */\n      eq\n        /* \"contracts/manual/PermissionAdmin.sol\":440:482  require(msg.sender == admin, \"only admin\") */\n      tag_197\n      jumpi\n      0x40\n      dup1\n      mload\n      shl(0xe5, 0x461bcd)\n      dup2\n      mstore\n      0x20\n      0x04\n      dup3\n      add\n      mstore\n      0x0a\n      0x24\n      dup3\n      add\n      mstore\n      shl(0xb1, 0x37b7363c9030b236b4b7)\n      0x44\n      dup3\n      add\n      mstore\n      swap1\n      mload\n      swap1\n      dup2\n      swap1\n      sub\n      0x64\n      add\n      swap1\n      revert\n    tag_197:\n      sub(shl(0xa0, 0x01), 0x01)\n        /* \"contracts/manual/PermissionAdmin.sol\":738:760  newAdmin != address(0) */\n      dup2\n      and\n        /* \"contracts/manual/PermissionAdmin.sol\":730:776  require(newAdmin != address(0), \"new admin 0\") */\n      tag_199\n      jumpi\n      0x40\n      dup1\n      mload\n      shl(0xe5, 0x461bcd)\n      dup2\n      mstore\n      0x20\n      0x04\n      dup3\n      add\n      mstore\n      0x0b\n      0x24\n      dup3\n      add\n      mstore\n      shl(0xac, 0x06e65772061646d696e203)\n      0x44\n      dup3\n      add\n      mstore\n      swap1\n      mload\n      swap1\n      dup2\n      swap1\n      sub\n      0x64\n      add\n      swap1\n      revert\n    tag_199:\n        /* \"contracts/manual/PermissionAdmin.sol\":792:822  TransferAdminPending(newAdmin) */\n      0x40\n      dup1\n      mload\n      sub(shl(0xa0, 0x01), 0x01)\n      dup4\n      and\n      dup2\n      mstore\n      swap1\n      mload\n      0x3b81caf78fa51ecbc8acb482fd7012a277b428d9b80f9d156e8a54107496cc40\n      swap2\n      dup2\n      swap1\n      sub\n      0x20\n      add\n      swap1\n      log1\n        /* \"contracts/manual/PermissionAdmin.sol\":833:845  pendingAdmin */\n      0x01\n        /* \"contracts/manual/PermissionAdmin.sol\":833:856  pendingAdmin = newAdmin */\n      dup1\n      sload\n      not(sub(shl(0xa0, 0x01), 0x01))\n      and\n      sub(shl(0xa0, 0x01), 0x01)\n      swap3\n      swap1\n      swap3\n      and\n      swap2\n      swap1\n      swap2\n      or\n      swap1\n      sstore\n        /* \"contracts/manual/PermissionAdmin.sol\":661:864  function transferAdmin(address newAdmin) public onlyAdmin {\r... */\n      jump\t// out\n        /* \"contracts/manual/PermissionAdmin.sol\":1398:1612  function claimAdmin() public {\r... */\n    tag_89:\n        /* \"contracts/manual/PermissionAdmin.sol\":1446:1458  pendingAdmin */\n      and(sub(shl(0xa0, 0x01), 0x01), sload(0x01))\n        /* \"contracts/manual/PermissionAdmin.sol\":1462:1472  msg.sender */\n      caller\n        /* \"contracts/manual/PermissionAdmin.sol\":1446:1472  pendingAdmin == msg.sender */\n      eq\n        /* \"contracts/manual/PermissionAdmin.sol\":1438:1488  require(pendingAdmin == msg.sender, \"not pending\") */\n      tag_201\n      jumpi\n      0x40\n      dup1\n      mload\n      shl(0xe5, 0x461bcd)\n      dup2\n      mstore\n      0x20\n      0x04\n      dup3\n      add\n      mstore\n      0x0b\n      0x24\n      dup3\n      add\n      mstore\n      shl(0xa8, 0x6e6f742070656e64696e67)\n      0x44\n      dup3\n      add\n      mstore\n      swap1\n      mload\n      swap1\n      dup2\n      swap1\n      sub\n      0x64\n      add\n      swap1\n      revert\n    tag_201:\n        /* \"contracts/manual/PermissionAdmin.sol\":1517:1529  pendingAdmin */\n      sload(0x01)\n      0x00\n        /* \"contracts/manual/PermissionAdmin.sol\":1531:1536  admin */\n      sload\n        /* \"contracts/manual/PermissionAdmin.sol\":1504:1537  AdminClaimed(pendingAdmin, admin) */\n      0x40\n      dup1\n      mload\n      sub(shl(0xa0, 0x01), 0x01)\n        /* \"contracts/manual/PermissionAdmin.sol\":1517:1529  pendingAdmin */\n      swap4\n      dup5\n      and\n        /* \"contracts/manual/PermissionAdmin.sol\":1504:1537  AdminClaimed(pendingAdmin, admin) */\n      dup2\n      mstore\n        /* \"contracts/manual/PermissionAdmin.sol\":1531:1536  admin */\n      swap3\n      swap1\n      swap2\n      and\n        /* \"contracts/manual/PermissionAdmin.sol\":1504:1537  AdminClaimed(pendingAdmin, admin) */\n      0x20\n      dup4\n      add\n      mstore\n      dup1\n      mload\n      0x65da1cfc2c2e81576ad96afb24a581f8e109b7a403b35cbd3243a1c99efdb9ed\n      swap3\n      dup2\n      swap1\n      sub\n      swap1\n      swap2\n      add\n      swap1\n      log1\n        /* \"contracts/manual/PermissionAdmin.sol\":1556:1568  pendingAdmin */\n      0x01\n      dup1\n      sload\n      0x00\n        /* \"contracts/manual/PermissionAdmin.sol\":1548:1568  admin = pendingAdmin */\n      dup1\n      sload\n      not(sub(shl(0xa0, 0x01), 0x01))\n      swap1\n      dup2\n      and\n      sub(shl(0xa0, 0x01), 0x01)\n        /* \"contracts/manual/PermissionAdmin.sol\":1556:1568  pendingAdmin */\n      dup5\n      and\n        /* \"contracts/manual/PermissionAdmin.sol\":1548:1568  admin = pendingAdmin */\n      or\n      swap1\n      swap2\n      sstore\n        /* \"contracts/manual/PermissionAdmin.sol\":1579:1604  pendingAdmin = address(0) */\n      and\n      swap1\n      sstore\n        /* \"contracts/manual/PermissionAdmin.sol\":1398:1612  function claimAdmin() public {\r... */\n      jump\t// out\n        /* \"contracts/manual/PermissionAdmin.sol\":1045:1289  function transferAdminQuickly(address newAdmin) public onlyAdmin {\r... */\n    tag_93:\n        /* \"contracts/manual/PermissionAdmin.sol\":462:467  admin */\n      and(sub(shl(0xa0, 0x01), 0x01), sload(0x00))\n        /* \"contracts/manual/PermissionAdmin.sol\":448:458  msg.sender */\n      caller\n        /* \"contracts/manual/PermissionAdmin.sol\":448:467  msg.sender == admin */\n      eq\n        /* \"contracts/manual/PermissionAdmin.sol\":440:482  require(msg.sender == admin, \"only admin\") */\n      tag_203\n      jumpi\n      0x40\n      dup1\n      mload\n      shl(0xe5, 0x461bcd)\n      dup2\n      mstore\n      0x20\n      0x04\n      dup3\n      add\n      mstore\n      0x0a\n      0x24\n      dup3\n      add\n      mstore\n      shl(0xb1, 0x37b7363c9030b236b4b7)\n      0x44\n      dup3\n      add\n      mstore\n      swap1\n      mload\n      swap1\n      dup2\n      swap1\n      sub\n      0x64\n      add\n      swap1\n      revert\n    tag_203:\n      sub(shl(0xa0, 0x01), 0x01)\n        /* \"contracts/manual/PermissionAdmin.sol\":1129:1151  newAdmin != address(0) */\n      dup2\n      and\n        /* \"contracts/manual/PermissionAdmin.sol\":1121:1163  require(newAdmin != address(0), \"admin 0\") */\n      tag_205\n      jumpi\n      0x40\n      dup1\n      mload\n      shl(0xe5, 0x461bcd)\n      dup2\n      mstore\n      0x20\n      0x04\n      dup3\n      add\n      mstore\n      0x07\n      0x24\n      dup3\n      add\n      mstore\n      shl(0xcc, 0x061646d696e203)\n      0x44\n      dup3\n      add\n      mstore\n      swap1\n      mload\n      swap1\n      dup2\n      swap1\n      sub\n      0x64\n      add\n      swap1\n      revert\n    tag_205:\n        /* \"contracts/manual/PermissionAdmin.sol\":1179:1209  TransferAdminPending(newAdmin) */\n      0x40\n      dup1\n      mload\n      sub(shl(0xa0, 0x01), 0x01)\n      dup4\n      and\n      dup2\n      mstore\n      swap1\n      mload\n      0x3b81caf78fa51ecbc8acb482fd7012a277b428d9b80f9d156e8a54107496cc40\n      swap2\n      dup2\n      swap1\n      sub\n      0x20\n      add\n      swap1\n      log1\n        /* \"contracts/manual/PermissionAdmin.sol\":1248:1253  admin */\n      sload(0x00)\n        /* \"contracts/manual/PermissionAdmin.sol\":1225:1254  AdminClaimed(newAdmin, admin) */\n      0x40\n      dup1\n      mload\n      sub(shl(0xa0, 0x01), 0x01)\n      dup1\n      dup6\n      and\n      dup3\n      mstore\n        /* \"contracts/manual/PermissionAdmin.sol\":1248:1253  admin */\n      swap1\n      swap3\n      and\n        /* \"contracts/manual/PermissionAdmin.sol\":1225:1254  AdminClaimed(newAdmin, admin) */\n      0x20\n      dup4\n      add\n      mstore\n      dup1\n      mload\n      0x65da1cfc2c2e81576ad96afb24a581f8e109b7a403b35cbd3243a1c99efdb9ed\n      swap3\n      dup2\n      swap1\n      sub\n      swap1\n      swap2\n      add\n      swap1\n      log1\n        /* \"contracts/manual/PermissionAdmin.sol\":1265:1270  admin */\n      0x00\n        /* \"contracts/manual/PermissionAdmin.sol\":1265:1281  admin = newAdmin */\n      dup1\n      sload\n      not(sub(shl(0xa0, 0x01), 0x01))\n      and\n      sub(shl(0xa0, 0x01), 0x01)\n      swap3\n      swap1\n      swap3\n      and\n      swap2\n      swap1\n      swap2\n      or\n      swap1\n      sstore\n        /* \"contracts/manual/PermissionAdmin.sol\":1045:1289  function transferAdminQuickly(address newAdmin) public onlyAdmin {\r... */\n      jump\t// out\n        /* \"contracts/liquidityMining/KyberRewardLockerV2.sol\":3549:3898  function vestCompletedSchedulesForMultipleTokens(\r... */\n    tag_98:\n        /* \"contracts/liquidityMining/KyberRewardLockerV2.sol\":3670:3700  uint256[] memory vestedAmounts */\n      0x60\n        /* \"contracts/liquidityMining/KyberRewardLockerV2.sol\":3743:3749  tokens */\n      dup2\n      sub(shl(0x40, 0x01), 0x01)\n        /* \"contracts/liquidityMining/KyberRewardLockerV2.sol\":3729:3757  new uint256[](tokens.length) */\n      dup2\n      gt\n      dup1\n      iszero\n      tag_207\n      jumpi\n      0x00\n      dup1\n      revert\n    tag_207:\n      pop\n      mload(0x40)\n      swap1\n      dup1\n      dup3\n      mstore\n      dup1\n      0x20\n      mul\n      0x20\n      add\n      dup3\n      add\n      0x40\n      mstore\n      dup1\n      iszero\n      tag_208\n      jumpi\n      dup2\n      0x20\n      add\n      0x20\n      dup3\n      mul\n      dup1\n      calldatasize\n      dup4\n      calldatacopy\n      add\n      swap1\n      pop\n    tag_208:\n      pop\n        /* \"contracts/liquidityMining/KyberRewardLockerV2.sol\":3713:3757  vestedAmounts = new uint256[](tokens.length) */\n      swap1\n      pop\n        /* \"contracts/liquidityMining/KyberRewardLockerV2.sol\":3773:3782  uint256 i */\n      0x00\n        /* \"contracts/liquidityMining/KyberRewardLockerV2.sol\":3768:3891  for (uint256 i = 0; i < tokens.length; i++) {\r... */\n    tag_209:\n        /* \"contracts/liquidityMining/KyberRewardLockerV2.sol\":3788:3805  i < tokens.length */\n      dup3\n      dup2\n      lt\n        /* \"contracts/liquidityMining/KyberRewardLockerV2.sol\":3768:3891  for (uint256 i = 0; i < tokens.length; i++) {\r... */\n      iszero\n      tag_210\n      jumpi\n        /* \"contracts/liquidityMining/KyberRewardLockerV2.sol\":3846:3879  vestCompletedSchedules(tokens[i]) */\n      tag_212\n        /* \"contracts/liquidityMining/KyberRewardLockerV2.sol\":3869:3875  tokens */\n      dup5\n      dup5\n        /* \"contracts/liquidityMining/KyberRewardLockerV2.sol\":3876:3877  i */\n      dup4\n        /* \"contracts/liquidityMining/KyberRewardLockerV2.sol\":3869:3878  tokens[i] */\n      dup2\n      dup2\n      lt\n      tag_213\n      jumpi\n      invalid\n    tag_213:\n      swap1\n      pop\n      0x20\n      mul\n      add\n      0x20\n      dup2\n      add\n      swap1\n      tag_123\n      swap2\n      swap1\n      tag_85\n      jump\t// in\n        /* \"contracts/liquidityMining/KyberRewardLockerV2.sol\":3846:3879  vestCompletedSchedules(tokens[i]) */\n    tag_212:\n        /* \"contracts/liquidityMining/KyberRewardLockerV2.sol\":3827:3840  vestedAmounts */\n      dup3\n        /* \"contracts/liquidityMining/KyberRewardLockerV2.sol\":3841:3842  i */\n      dup3\n        /* \"contracts/liquidityMining/KyberRewardLockerV2.sol\":3827:3843  vestedAmounts[i] */\n      dup2\n      mload\n      dup2\n      lt\n      tag_215\n      jumpi\n      invalid\n    tag_215:\n      0x20\n      swap1\n      dup2\n      mul\n      swap2\n      swap1\n      swap2\n      add\n      add\n        /* \"contracts/liquidityMining/KyberRewardLockerV2.sol\":3827:3879  vestedAmounts[i] = vestCompletedSchedules(tokens[i]) */\n      mstore\n        /* \"contracts/liquidityMining/KyberRewardLockerV2.sol\":3807:3810  i++ */\n      0x01\n      add\n        /* \"contracts/liquidityMining/KyberRewardLockerV2.sol\":3768:3891  for (uint256 i = 0; i < tokens.length; i++) {\r... */\n      jump(tag_209)\n    tag_210:\n      pop\n        /* \"contracts/liquidityMining/KyberRewardLockerV2.sol\":3549:3898  function vestCompletedSchedulesForMultipleTokens(\r... */\n      swap3\n      swap2\n      pop\n      pop\n      jump\t// out\n        /* \"contracts/liquidityMining/KyberRewardLockerV2.sol\":11040:11444  function getRewardContractsPerToken(IERC20Ext token)\r... */\n    tag_104:\n      sub(shl(0xa0, 0x01), 0x01)\n        /* \"contracts/liquidityMining/KyberRewardLockerV2.sol\":11239:11269  rewardContractsPerToken[token] */\n      dup2\n      and\n      0x00\n      swap1\n      dup2\n      mstore\n        /* \"contracts/liquidityMining/KyberRewardLockerV2.sol\":11239:11262  rewardContractsPerToken */\n      0x02\n        /* \"contracts/liquidityMining/KyberRewardLockerV2.sol\":11239:11269  rewardContractsPerToken[token] */\n      0x20\n      mstore\n      0x40\n      swap1\n      keccak256\n        /* \"contracts/liquidityMining/KyberRewardLockerV2.sol\":11143:11175  address[] memory rewardContracts */\n      0x60\n      swap1\n        /* \"contracts/liquidityMining/KyberRewardLockerV2.sol\":11239:11278  rewardContractsPerToken[token].length() */\n      tag_217\n      swap1\n        /* \"contracts/liquidityMining/KyberRewardLockerV2.sol\":11239:11276  rewardContractsPerToken[token].length */\n      tag_218\n        /* \"contracts/liquidityMining/KyberRewardLockerV2.sol\":11239:11278  rewardContractsPerToken[token].length() */\n      jump\t// in\n    tag_217:\n      sub(shl(0x40, 0x01), 0x01)\n        /* \"contracts/liquidityMining/KyberRewardLockerV2.sol\":11211:11289  new address[](\r... */\n      dup2\n      gt\n      dup1\n      iszero\n      tag_219\n      jumpi\n      0x00\n      dup1\n      revert\n    tag_219:\n      pop\n      mload(0x40)\n      swap1\n      dup1\n      dup3\n      mstore\n      dup1\n      0x20\n      mul\n      0x20\n      add\n      dup3\n      add\n      0x40\n      mstore\n      dup1\n      iszero\n      tag_220\n      jumpi\n      dup2\n      0x20\n      add\n      0x20\n      dup3\n      mul\n      dup1\n      calldatasize\n      dup4\n      calldatacopy\n      add\n      swap1\n      pop\n    tag_220:\n      pop\n        /* \"contracts/liquidityMining/KyberRewardLockerV2.sol\":11193:11289  rewardContracts = new address[](\r... */\n      swap1\n      pop\n        /* \"contracts/liquidityMining/KyberRewardLockerV2.sol\":11305:11314  uint256 i */\n      0x00\n        /* \"contracts/liquidityMining/KyberRewardLockerV2.sol\":11300:11437  for (uint256 i = 0; i < rewardContracts.length; i++) {\r... */\n    tag_221:\n        /* \"contracts/liquidityMining/KyberRewardLockerV2.sol\":11324:11339  rewardContracts */\n      dup2\n        /* \"contracts/liquidityMining/KyberRewardLockerV2.sol\":11324:11346  rewardContracts.length */\n      mload\n        /* \"contracts/liquidityMining/KyberRewardLockerV2.sol\":11320:11321  i */\n      dup2\n        /* \"contracts/liquidityMining/KyberRewardLockerV2.sol\":11320:11346  i < rewardContracts.length */\n      lt\n        /* \"contracts/liquidityMining/KyberRewardLockerV2.sol\":11300:11437  for (uint256 i = 0; i < rewardContracts.length; i++) {\r... */\n      iszero\n      tag_222\n      jumpi\n      sub(shl(0xa0, 0x01), 0x01)\n        /* \"contracts/liquidityMining/KyberRewardLockerV2.sol\":11389:11419  rewardContractsPerToken[token] */\n      dup4\n      and\n      0x00\n      swap1\n      dup2\n      mstore\n        /* \"contracts/liquidityMining/KyberRewardLockerV2.sol\":11389:11412  rewardContractsPerToken */\n      0x02\n        /* \"contracts/liquidityMining/KyberRewardLockerV2.sol\":11389:11419  rewardContractsPerToken[token] */\n      0x20\n      mstore\n      0x40\n      swap1\n      keccak256\n        /* \"contracts/liquidityMining/KyberRewardLockerV2.sol\":11389:11425  rewardContractsPerToken[token].at(i) */\n      tag_224\n      swap1\n        /* \"contracts/liquidityMining/KyberRewardLockerV2.sol\":11423:11424  i */\n      dup3\n        /* \"contracts/liquidityMining/KyberRewardLockerV2.sol\":11389:11422  rewardContractsPerToken[token].at */\n      tag_225\n        /* \"contracts/liquidityMining/KyberRewardLockerV2.sol\":11389:11425  rewardContractsPerToken[token].at(i) */\n      jump\t// in\n    tag_224:\n        /* \"contracts/liquidityMining/KyberRewardLockerV2.sol\":11368:11383  rewardContracts */\n      dup3\n        /* \"contracts/liquidityMining/KyberRewardLockerV2.sol\":11384:11385  i */\n      dup3\n        /* \"contracts/liquidityMining/KyberRewardLockerV2.sol\":11368:11386  rewardContracts[i] */\n      dup2\n      mload\n      dup2\n      lt\n      tag_226\n      jumpi\n      invalid\n    tag_226:\n      sub(shl(0xa0, 0x01), 0x01)\n        /* \"contracts/liquidityMining/KyberRewardLockerV2.sol\":11368:11425  rewardContracts[i] = rewardContractsPerToken[token].at(i) */\n      swap1\n      swap3\n      and\n        /* \"contracts/liquidityMining/KyberRewardLockerV2.sol\":11368:11386  rewardContracts[i] */\n      0x20\n      swap3\n      dup4\n      mul\n      swap2\n      swap1\n      swap2\n      add\n      swap1\n      swap2\n      add\n        /* \"contracts/liquidityMining/KyberRewardLockerV2.sol\":11368:11425  rewardContracts[i] = rewardContractsPerToken[token].at(i) */\n      mstore\n        /* \"contracts/liquidityMining/KyberRewardLockerV2.sol\":11348:11351  i++ */\n      0x01\n      add\n        /* \"contracts/liquidityMining/KyberRewardLockerV2.sol\":11300:11437  for (uint256 i = 0; i < rewardContracts.length; i++) {\r... */\n      jump(tag_221)\n    tag_222:\n      pop\n        /* \"contracts/liquidityMining/KyberRewardLockerV2.sol\":11040:11444  function getRewardContractsPerToken(IERC20Ext token)\r... */\n      swap2\n      swap1\n      pop\n      jump\t// out\n        /* \"contracts/liquidityMining/KyberRewardLockerV2.sol\":9290:9784  function vestSchedulesInRange(\r... */\n    tag_111:\n        /* \"contracts/liquidityMining/KyberRewardLockerV2.sol\":9434:9441  uint256 */\n      0x00\n        /* \"contracts/liquidityMining/KyberRewardLockerV2.sol\":9476:9484  endIndex */\n      dup2\n        /* \"contracts/liquidityMining/KyberRewardLockerV2.sol\":9462:9472  startIndex */\n      dup4\n        /* \"contracts/liquidityMining/KyberRewardLockerV2.sol\":9462:9484  startIndex <= endIndex */\n      gt\n      iszero\n        /* \"contracts/liquidityMining/KyberRewardLockerV2.sol\":9454:9510  require(startIndex <= endIndex, \"startIndex > endIndex\") */\n      tag_228\n      jumpi\n      mload(0x40)\n      shl(0xe5, 0x461bcd)\n      dup2\n      mstore\n      0x04\n      add\n      tag_139\n      swap1\n      tag_230\n      jump\t// in\n    tag_228:\n        /* \"contracts/liquidityMining/KyberRewardLockerV2.sol\":9521:9545  uint256[] memory indexes */\n      0x00\n        /* \"contracts/liquidityMining/KyberRewardLockerV2.sol\":9573:9583  startIndex */\n      dup4\n        /* \"contracts/liquidityMining/KyberRewardLockerV2.sol\":9562:9570  endIndex */\n      dup4\n        /* \"contracts/liquidityMining/KyberRewardLockerV2.sol\":9562:9583  endIndex - startIndex */\n      sub\n        /* \"contracts/liquidityMining/KyberRewardLockerV2.sol\":9586:9587  1 */\n      0x01\n        /* \"contracts/liquidityMining/KyberRewardLockerV2.sol\":9562:9587  endIndex - startIndex + 1 */\n      add\n      sub(shl(0x40, 0x01), 0x01)\n        /* \"contracts/liquidityMining/KyberRewardLockerV2.sol\":9548:9588  new uint256[](endIndex - startIndex + 1) */\n      dup2\n      gt\n      dup1\n      iszero\n      tag_231\n      jumpi\n      0x00\n      dup1\n      revert\n    tag_231:\n      pop\n      mload(0x40)\n      swap1\n      dup1\n      dup3\n      mstore\n      dup1\n      0x20\n      mul\n      0x20\n      add\n      dup3\n      add\n      0x40\n      mstore\n      dup1\n      iszero\n      tag_232\n      jumpi\n      dup2\n      0x20\n      add\n      0x20\n      dup3\n      mul\n      dup1\n      calldatasize\n      dup4\n      calldatacopy\n      add\n      swap1\n      pop\n    tag_232:\n      pop\n        /* \"contracts/liquidityMining/KyberRewardLockerV2.sol\":9521:9588  uint256[] memory indexes = new uint256[](endIndex - startIndex + 1) */\n      swap1\n      pop\n        /* \"contracts/liquidityMining/KyberRewardLockerV2.sol\":9620:9630  startIndex */\n      dup4\n        /* \"contracts/liquidityMining/KyberRewardLockerV2.sol\":9599:9722  for (uint256 index = startIndex; index <= endIndex; index++) {\r... */\n    tag_233:\n        /* \"contracts/liquidityMining/KyberRewardLockerV2.sol\":9641:9649  endIndex */\n      dup4\n        /* \"contracts/liquidityMining/KyberRewardLockerV2.sol\":9632:9637  index */\n      dup2\n        /* \"contracts/liquidityMining/KyberRewardLockerV2.sol\":9632:9649  index <= endIndex */\n      gt\n        /* \"contracts/liquidityMining/KyberRewardLockerV2.sol\":9599:9722  for (uint256 index = startIndex; index <= endIndex; index++) {\r... */\n      tag_234\n      jumpi\n        /* \"contracts/liquidityMining/KyberRewardLockerV2.sol\":9705:9710  index */\n      dup1\n        /* \"contracts/liquidityMining/KyberRewardLockerV2.sol\":9675:9682  indexes */\n      dup3\n        /* \"contracts/liquidityMining/KyberRewardLockerV2.sol\":9691:9701  startIndex */\n      dup7\n        /* \"contracts/liquidityMining/KyberRewardLockerV2.sol\":9683:9688  index */\n      dup4\n        /* \"contracts/liquidityMining/KyberRewardLockerV2.sol\":9683:9701  index - startIndex */\n      sub\n        /* \"contracts/liquidityMining/KyberRewardLockerV2.sol\":9675:9702  indexes[index - startIndex] */\n      dup2\n      mload\n      dup2\n      lt\n      tag_236\n      jumpi\n      invalid\n    tag_236:\n      0x20\n      swap1\n      dup2\n      mul\n      swap2\n      swap1\n      swap2\n      add\n      add\n        /* \"contracts/liquidityMining/KyberRewardLockerV2.sol\":9675:9710  indexes[index - startIndex] = index */\n      mstore\n        /* \"contracts/liquidityMining/KyberRewardLockerV2.sol\":9651:9658  index++ */\n      0x01\n      add\n        /* \"contracts/liquidityMining/KyberRewardLockerV2.sol\":9599:9722  for (uint256 index = startIndex; index <= endIndex; index++) {\r... */\n      jump(tag_233)\n    tag_234:\n      pop\n        /* \"contracts/liquidityMining/KyberRewardLockerV2.sol\":9739:9776  vestScheduleAtIndices(token, indexes) */\n      tag_237\n        /* \"contracts/liquidityMining/KyberRewardLockerV2.sol\":9761:9766  token */\n      dup6\n        /* \"contracts/liquidityMining/KyberRewardLockerV2.sol\":9768:9775  indexes */\n      dup3\n        /* \"contracts/liquidityMining/KyberRewardLockerV2.sol\":9739:9760  vestScheduleAtIndices */\n      tag_36\n        /* \"contracts/liquidityMining/KyberRewardLockerV2.sol\":9739:9776  vestScheduleAtIndices(token, indexes) */\n      jump\t// in\n    tag_237:\n        /* \"contracts/liquidityMining/KyberRewardLockerV2.sol\":9732:9776  return vestScheduleAtIndices(token, indexes) */\n      swap6\n        /* \"contracts/liquidityMining/KyberRewardLockerV2.sol\":9290:9784  function vestSchedulesInRange(\r... */\n      swap5\n      pop\n      pop\n      pop\n      pop\n      pop\n      jump\t// out\n        /* \"contracts/liquidityMining/KyberRewardLockerV2.sol\":2232:2710  function addRewardsContract(IERC20Ext token, address _rewardContract)\r... */\n    tag_116:\n        /* \"contracts/manual/PermissionAdmin.sol\":462:467  admin */\n      and(sub(shl(0xa0, 0x01), 0x01), sload(0x00))\n        /* \"contracts/manual/PermissionAdmin.sol\":448:458  msg.sender */\n      caller\n        /* \"contracts/manual/PermissionAdmin.sol\":448:467  msg.sender == admin */\n      eq\n        /* \"contracts/manual/PermissionAdmin.sol\":440:482  require(msg.sender == admin, \"only admin\") */\n      tag_239\n      jumpi\n      0x40\n      dup1\n      mload\n      shl(0xe5, 0x461bcd)\n      dup2\n      mstore\n      0x20\n      0x04\n      dup3\n      add\n      mstore\n      0x0a\n      0x24\n      dup3\n      add\n      mstore\n      shl(0xb1, 0x37b7363c9030b236b4b7)\n      0x44\n      dup3\n      add\n      mstore\n      swap1\n      mload\n      swap1\n      dup2\n      swap1\n      sub\n      0x64\n      add\n      swap1\n      revert\n    tag_239:\n      sub(shl(0xa0, 0x01), 0x01)\n        /* \"contracts/liquidityMining/KyberRewardLockerV2.sol\":2377:2407  rewardContractsPerToken[token] */\n      dup3\n      and\n      0x00\n      swap1\n      dup2\n      mstore\n        /* \"contracts/liquidityMining/KyberRewardLockerV2.sol\":2377:2400  rewardContractsPerToken */\n      0x02\n        /* \"contracts/liquidityMining/KyberRewardLockerV2.sol\":2377:2407  rewardContractsPerToken[token] */\n      0x20\n      mstore\n      0x40\n      swap1\n      keccak256\n        /* \"contracts/liquidityMining/KyberRewardLockerV2.sol\":1003:1006  100 */\n      0x64\n      swap1\n        /* \"contracts/liquidityMining/KyberRewardLockerV2.sol\":2377:2416  rewardContractsPerToken[token].length() */\n      tag_241\n      swap1\n        /* \"contracts/liquidityMining/KyberRewardLockerV2.sol\":2377:2414  rewardContractsPerToken[token].length */\n      tag_218\n        /* \"contracts/liquidityMining/KyberRewardLockerV2.sol\":2377:2416  rewardContractsPerToken[token].length() */\n      jump\t// in\n    tag_241:\n        /* \"contracts/liquidityMining/KyberRewardLockerV2.sol\":2377:2444  rewardContractsPerToken[token].length() < MAX_REWARD_CONTRACTS_SIZE */\n      lt\n        /* \"contracts/liquidityMining/KyberRewardLockerV2.sol\":2355:2499  require(\r... */\n      tag_242\n      jumpi\n      mload(0x40)\n      shl(0xe5, 0x461bcd)\n      dup2\n      mstore\n      0x04\n      add\n      tag_139\n      swap1\n      tag_244\n      jump\t// in\n    tag_242:\n      sub(shl(0xa0, 0x01), 0x01)\n        /* \"contracts/liquidityMining/KyberRewardLockerV2.sol\":2532:2562  rewardContractsPerToken[token] */\n      dup3\n      and\n      0x00\n      swap1\n      dup2\n      mstore\n        /* \"contracts/liquidityMining/KyberRewardLockerV2.sol\":2532:2555  rewardContractsPerToken */\n      0x02\n        /* \"contracts/liquidityMining/KyberRewardLockerV2.sol\":2532:2562  rewardContractsPerToken[token] */\n      0x20\n      mstore\n      0x40\n      swap1\n      keccak256\n        /* \"contracts/liquidityMining/KyberRewardLockerV2.sol\":2532:2583  rewardContractsPerToken[token].add(_rewardContract) */\n      tag_245\n      swap1\n        /* \"contracts/liquidityMining/KyberRewardLockerV2.sol\":2567:2582  _rewardContract */\n      dup3\n        /* \"contracts/liquidityMining/KyberRewardLockerV2.sol\":2532:2566  rewardContractsPerToken[token].add */\n      tag_246\n        /* \"contracts/liquidityMining/KyberRewardLockerV2.sol\":2532:2583  rewardContractsPerToken[token].add(_rewardContract) */\n      jump\t// in\n    tag_245:\n        /* \"contracts/liquidityMining/KyberRewardLockerV2.sol\":2510:2635  require(\r... */\n      tag_247\n      jumpi\n      mload(0x40)\n      shl(0xe5, 0x461bcd)\n      dup2\n      mstore\n      0x04\n      add\n      tag_139\n      swap1\n      tag_249\n      jump\t// in\n    tag_247:\n        /* \"contracts/liquidityMining/KyberRewardLockerV2.sol\":2690:2695  token */\n      dup2\n      sub(shl(0xa0, 0x01), 0x01)\n        /* \"contracts/liquidityMining/KyberRewardLockerV2.sol\":2653:2702  RewardContractAdded(_rewardContract, token, true) */\n      and\n        /* \"contracts/liquidityMining/KyberRewardLockerV2.sol\":2673:2688  _rewardContract */\n      dup2\n      sub(shl(0xa0, 0x01), 0x01)\n        /* \"contracts/liquidityMining/KyberRewardLockerV2.sol\":2653:2702  RewardContractAdded(_rewardContract, token, true) */\n      and\n      0x88a8c998079a07d6a1e59a32ce0c359a00e4c94ce7a6068350a9574e7e0f993d\n        /* \"contracts/liquidityMining/KyberRewardLockerV2.sol\":2697:2701  true */\n      0x01\n        /* \"contracts/liquidityMining/KyberRewardLockerV2.sol\":2653:2702  RewardContractAdded(_rewardContract, token, true) */\n      mload(0x40)\n      tag_177\n      swap2\n      swap1\n      tag_178\n      jump\t// in\n        /* \"contracts/manual/PermissionAdmin.sol\":100:120  address public admin */\n    tag_119:\n      and(sub(shl(0xa0, 0x01), 0x01), sload(0x00))\n      dup2\n      jump\t// out\n        /* \"contracts/liquidityMining/KyberRewardLockerV2.sol\":7079:8113  function vestCompletedSchedules(IERC20Ext token)\r... */\n    tag_124:\n        /* \"contracts/liquidityMining/KyberRewardLockerV2.sol\":7280:7290  msg.sender */\n      caller\n        /* \"contracts/liquidityMining/KyberRewardLockerV2.sol\":7180:7187  uint256 */\n      0x00\n        /* \"contracts/liquidityMining/KyberRewardLockerV2.sol\":7242:7301  accountVestingSchedules[\r... */\n      swap1\n      dup2\n      mstore\n        /* \"contracts/liquidityMining/KyberRewardLockerV2.sol\":7242:7265  accountVestingSchedules */\n      0x03\n        /* \"contracts/liquidityMining/KyberRewardLockerV2.sol\":7242:7301  accountVestingSchedules[\r... */\n      0x20\n      swap1\n      dup2\n      mstore\n      0x40\n      dup1\n      dup4\n      keccak256\n      sub(shl(0xa0, 0x01), 0x01)\n        /* \"contracts/liquidityMining/KyberRewardLockerV2.sol\":7242:7308  accountVestingSchedules[\r... */\n      dup6\n      and\n      dup5\n      mstore\n      swap1\n      swap2\n      mstore\n      dup2\n      keccak256\n        /* \"contracts/liquidityMining/KyberRewardLockerV2.sol\":7345:7361  schedules.length */\n      dup1\n      sload\n        /* \"contracts/liquidityMining/KyberRewardLockerV2.sol\":7180:7187  uint256 */\n      dup3\n      dup1\n        /* \"contracts/liquidityMining/KyberRewardLockerV2.sol\":7409:8026  for (uint256 i = 0; i < schedulesLength; i++) {\r... */\n    tag_252:\n        /* \"contracts/liquidityMining/KyberRewardLockerV2.sol\":7433:7448  schedulesLength */\n      dup3\n        /* \"contracts/liquidityMining/KyberRewardLockerV2.sol\":7429:7430  i */\n      dup2\n        /* \"contracts/liquidityMining/KyberRewardLockerV2.sol\":7429:7448  i < schedulesLength */\n      lt\n        /* \"contracts/liquidityMining/KyberRewardLockerV2.sol\":7409:8026  for (uint256 i = 0; i < schedulesLength; i++) {\r... */\n      iszero\n      tag_253\n      jumpi\n        /* \"contracts/liquidityMining/KyberRewardLockerV2.sol\":7470:7501  VestingSchedule memory schedule */\n      0x00\n        /* \"contracts/liquidityMining/KyberRewardLockerV2.sol\":7504:7521  schedules.data[i] */\n      dup2\n      dup2\n      mstore\n        /* \"contracts/liquidityMining/KyberRewardLockerV2.sol\":7504:7518  schedules.data */\n      0x01\n      dup1\n      dup7\n      add\n        /* \"contracts/liquidityMining/KyberRewardLockerV2.sol\":7504:7521  schedules.data[i] */\n      0x20\n      swap1\n      dup2\n      mstore\n      0x40\n      swap3\n      dup4\n      swap1\n      keccak256\n        /* \"contracts/liquidityMining/KyberRewardLockerV2.sol\":7470:7521  VestingSchedule memory schedule = schedules.data[i] */\n      dup4\n      mload\n      0x80\n      dup2\n      add\n      dup6\n      mstore\n      dup2\n      sload\n      sub(shl(0x40, 0x01), 0x01)\n      dup1\n      dup3\n      and\n      dup4\n      mstore\n      shl(0x40, 0x01)\n      dup3\n      div\n      and\n      swap4\n      dup3\n      add\n      dup5\n      swap1\n      mstore\n      sub(shl(0x80, 0x01), 0x01)\n      shl(0x80, 0x01)\n      swap1\n      swap2\n      div\n      dup2\n      and\n      swap6\n      dup3\n      add\n      swap6\n      swap1\n      swap6\n      mstore\n      swap3\n      add\n      sload\n      swap1\n      swap3\n      and\n      0x60\n      dup3\n      add\n      mstore\n      swap1\n        /* \"contracts/liquidityMining/KyberRewardLockerV2.sol\":7540:7555  _getBlockTime() */\n      tag_255\n        /* \"contracts/liquidityMining/KyberRewardLockerV2.sol\":7540:7553  _getBlockTime */\n      tag_159\n        /* \"contracts/liquidityMining/KyberRewardLockerV2.sol\":7540:7555  _getBlockTime() */\n      jump\t// in\n    tag_255:\n        /* \"contracts/liquidityMining/KyberRewardLockerV2.sol\":7540:7574  _getBlockTime() < schedule.endTime */\n      0xffffffff\n      and\n      lt\n        /* \"contracts/liquidityMining/KyberRewardLockerV2.sol\":7536:7619  if (_getBlockTime() < schedule.endTime) {\r... */\n      iszero\n      tag_256\n      jumpi\n        /* \"contracts/liquidityMining/KyberRewardLockerV2.sol\":7595:7603  continue */\n      pop\n      jump(tag_254)\n        /* \"contracts/liquidityMining/KyberRewardLockerV2.sol\":7536:7619  if (_getBlockTime() < schedule.endTime) {\r... */\n    tag_256:\n        /* \"contracts/liquidityMining/KyberRewardLockerV2.sol\":7633:7653  uint256 vestQuantity */\n      0x00\n        /* \"contracts/liquidityMining/KyberRewardLockerV2.sol\":7656:7743  uint256(schedule.quantity).sub(\r... */\n      tag_257\n        /* \"contracts/liquidityMining/KyberRewardLockerV2.sol\":7705:7713  schedule */\n      dup3\n        /* \"contracts/liquidityMining/KyberRewardLockerV2.sol\":7705:7728  schedule.vestedQuantity */\n      0x60\n      add\n      mload\n      sub(shl(0x80, 0x01), 0x01)\n        /* \"contracts/liquidityMining/KyberRewardLockerV2.sol\":7656:7743  uint256(schedule.quantity).sub(\r... */\n      and\n        /* \"contracts/liquidityMining/KyberRewardLockerV2.sol\":7664:7672  schedule */\n      dup4\n        /* \"contracts/liquidityMining/KyberRewardLockerV2.sol\":7664:7681  schedule.quantity */\n      0x40\n      add\n      mload\n      sub(shl(0x80, 0x01), 0x01)\n        /* \"contracts/liquidityMining/KyberRewardLockerV2.sol\":7656:7682  uint256(schedule.quantity) */\n      and\n        /* \"contracts/liquidityMining/KyberRewardLockerV2.sol\":7656:7686  uint256(schedule.quantity).sub */\n      tag_258\n      swap1\n        /* \"contracts/liquidityMining/KyberRewardLockerV2.sol\":7656:7743  uint256(schedule.quantity).sub(\r... */\n      swap2\n      swap1\n      0xffffffff\n      and\n      jump\t// in\n    tag_257:\n        /* \"contracts/liquidityMining/KyberRewardLockerV2.sol\":7633:7743  uint256 vestQuantity = uint256(schedule.quantity).sub(\r... */\n      swap1\n      pop\n        /* \"contracts/liquidityMining/KyberRewardLockerV2.sol\":7762:7779  vestQuantity == 0 */\n      dup1\n        /* \"contracts/liquidityMining/KyberRewardLockerV2.sol\":7758:7824  if (vestQuantity == 0) {\r... */\n      tag_259\n      jumpi\n        /* \"contracts/liquidityMining/KyberRewardLockerV2.sol\":7800:7808  continue */\n      pop\n      pop\n      jump(tag_254)\n        /* \"contracts/liquidityMining/KyberRewardLockerV2.sol\":7758:7824  if (vestQuantity == 0) {\r... */\n    tag_259:\n        /* \"contracts/liquidityMining/KyberRewardLockerV2.sol\":7873:7890  schedule.quantity */\n      0x40\n      dup3\n      dup2\n      add\n      mload\n        /* \"contracts/liquidityMining/KyberRewardLockerV2.sol\":7838:7855  schedules.data[i] */\n      0x00\n      dup6\n      dup2\n      mstore\n        /* \"contracts/liquidityMining/KyberRewardLockerV2.sol\":7838:7852  schedules.data */\n      0x01\n      dup10\n      dup2\n      add\n        /* \"contracts/liquidityMining/KyberRewardLockerV2.sol\":7838:7855  schedules.data[i] */\n      0x20\n      mstore\n      swap3\n      swap1\n      keccak256\n        /* \"contracts/liquidityMining/KyberRewardLockerV2.sol\":7838:7870  schedules.data[i].vestedQuantity */\n      swap1\n      swap2\n      add\n        /* \"contracts/liquidityMining/KyberRewardLockerV2.sol\":7838:7890  schedules.data[i].vestedQuantity = schedule.quantity */\n      dup1\n      sload\n      not(sub(shl(0x80, 0x01), 0x01))\n      and\n      sub(shl(0x80, 0x01), 0x01)\n      swap1\n      swap3\n      and\n      swap2\n      swap1\n      swap2\n      or\n      swap1\n      sstore\n        /* \"contracts/liquidityMining/KyberRewardLockerV2.sol\":7920:7950  totalVesting.add(vestQuantity) */\n      tag_260\n        /* \"contracts/liquidityMining/KyberRewardLockerV2.sol\":7920:7932  totalVesting */\n      dup5\n        /* \"contracts/liquidityMining/KyberRewardLockerV2.sol\":7937:7949  vestQuantity */\n      dup3\n        /* \"contracts/liquidityMining/KyberRewardLockerV2.sol\":7920:7936  totalVesting.add */\n      tag_147\n        /* \"contracts/liquidityMining/KyberRewardLockerV2.sol\":7920:7950  totalVesting.add(vestQuantity) */\n      jump\t// in\n    tag_260:\n        /* \"contracts/liquidityMining/KyberRewardLockerV2.sol\":7905:7950  totalVesting = totalVesting.add(vestQuantity) */\n      swap4\n      pop\n        /* \"contracts/liquidityMining/KyberRewardLockerV2.sol\":7986:7996  msg.sender */\n      caller\n      sub(shl(0xa0, 0x01), 0x01)\n        /* \"contracts/liquidityMining/KyberRewardLockerV2.sol\":7972:8014  Vested(token, msg.sender, vestQuantity, i) */\n      and\n        /* \"contracts/liquidityMining/KyberRewardLockerV2.sol\":7979:7984  token */\n      dup9\n      sub(shl(0xa0, 0x01), 0x01)\n        /* \"contracts/liquidityMining/KyberRewardLockerV2.sol\":7972:8014  Vested(token, msg.sender, vestQuantity, i) */\n      and\n      0x6d06f0a463d80b43fe6cd0b79c61bb2790cfe898790e69828f25e6e12886e178\n        /* \"contracts/liquidityMining/KyberRewardLockerV2.sol\":7998:8010  vestQuantity */\n      dup4\n        /* \"contracts/liquidityMining/KyberRewardLockerV2.sol\":8012:8013  i */\n      dup7\n        /* \"contracts/liquidityMining/KyberRewardLockerV2.sol\":7972:8014  Vested(token, msg.sender, vestQuantity, i) */\n      mload(0x40)\n      tag_261\n      swap3\n      swap2\n      swap1\n      tag_153\n      jump\t// in\n    tag_261:\n      mload(0x40)\n      dup1\n      swap2\n      sub\n      swap1\n      log3\n        /* \"contracts/liquidityMining/KyberRewardLockerV2.sol\":7409:8026  for (uint256 i = 0; i < schedulesLength; i++) {\r... */\n      pop\n      pop\n    tag_254:\n        /* \"contracts/liquidityMining/KyberRewardLockerV2.sol\":7450:7453  i++ */\n      0x01\n      add\n        /* \"contracts/liquidityMining/KyberRewardLockerV2.sol\":7409:8026  for (uint256 i = 0; i < schedulesLength; i++) {\r... */\n      jump(tag_252)\n    tag_253:\n      pop\n        /* \"contracts/liquidityMining/KyberRewardLockerV2.sol\":8036:8073  _completeVesting(token, totalVesting) */\n      tag_262\n        /* \"contracts/liquidityMining/KyberRewardLockerV2.sol\":8053:8058  token */\n      dup6\n        /* \"contracts/liquidityMining/KyberRewardLockerV2.sol\":8060:8072  totalVesting */\n      dup3\n        /* \"contracts/liquidityMining/KyberRewardLockerV2.sol\":8036:8052  _completeVesting */\n      tag_155\n        /* \"contracts/liquidityMining/KyberRewardLockerV2.sol\":8036:8073  _completeVesting(token, totalVesting) */\n      jump\t// in\n    tag_262:\n        /* \"contracts/liquidityMining/KyberRewardLockerV2.sol\":8093:8105  totalVesting */\n      swap3\n      pop\n      pop\n      pop\n        /* \"contracts/liquidityMining/KyberRewardLockerV2.sol\":7079:8113  function vestCompletedSchedules(IERC20Ext token)\r... */\n    tag_251:\n      swap2\n      swap1\n      pop\n      jump\t// out\n        /* \"contracts/liquidityMining/KyberRewardLockerV2.sol\":4610:6999  function lockWithStartTime(\r... */\n    tag_129:\n      sub(shl(0xa0, 0x01), 0x01)\n        /* \"contracts/liquidityMining/KyberRewardLockerV2.sol\":1974:2004  rewardContractsPerToken[token] */\n      dup6\n      and\n      0x00\n      swap1\n      dup2\n      mstore\n        /* \"contracts/liquidityMining/KyberRewardLockerV2.sol\":1974:1997  rewardContractsPerToken */\n      0x02\n        /* \"contracts/liquidityMining/KyberRewardLockerV2.sol\":1974:2004  rewardContractsPerToken[token] */\n      0x20\n      mstore\n      0x40\n      swap1\n      keccak256\n        /* \"contracts/liquidityMining/KyberRewardLockerV2.sol\":4828:4833  token */\n      dup6\n      swap1\n        /* \"contracts/liquidityMining/KyberRewardLockerV2.sol\":1974:2025  rewardContractsPerToken[token].contains(msg.sender) */\n      tag_264\n      swap1\n        /* \"contracts/liquidityMining/KyberRewardLockerV2.sol\":2014:2024  msg.sender */\n      caller\n        /* \"contracts/liquidityMining/KyberRewardLockerV2.sol\":1974:2013  rewardContractsPerToken[token].contains */\n      tag_265\n        /* \"contracts/liquidityMining/KyberRewardLockerV2.sol\":1974:2025  rewardContractsPerToken[token].contains(msg.sender) */\n      jump\t// in\n    tag_264:\n        /* \"contracts/liquidityMining/KyberRewardLockerV2.sol\":1952:2073  require(\r... */\n      tag_266\n      jumpi\n      mload(0x40)\n      shl(0xe5, 0x461bcd)\n      dup2\n      mstore\n      0x04\n      add\n      tag_139\n      swap1\n      tag_268\n      jump\t// in\n    tag_266:\n        /* \"contracts/liquidityMining/KyberRewardLockerV2.sol\":4865:4866  0 */\n      0x00\n        /* \"contracts/liquidityMining/KyberRewardLockerV2.sol\":4854:4862  quantity */\n      dup5\n        /* \"contracts/liquidityMining/KyberRewardLockerV2.sol\":4854:4866  quantity > 0 */\n      gt\n        /* \"contracts/liquidityMining/KyberRewardLockerV2.sol\":4846:4881  require(quantity > 0, \"0 quantity\") */\n      tag_270\n      jumpi\n      mload(0x40)\n      shl(0xe5, 0x461bcd)\n      dup2\n      mstore\n      0x04\n      add\n      tag_139\n      swap1\n      tag_272\n      jump\t// in\n    tag_270:\n      sub(shl(0xa0, 0x01), 0x01)\n        /* \"contracts/liquidityMining/KyberRewardLockerV2.sol\":4898:4919  token == IERC20Ext(0) */\n      dup7\n      and\n        /* \"contracts/liquidityMining/KyberRewardLockerV2.sol\":4894:5160  if (token == IERC20Ext(0)) {\r... */\n      tag_273\n      jumpi\n        /* \"contracts/liquidityMining/KyberRewardLockerV2.sol\":4957:4965  quantity */\n      dup4\n        /* \"contracts/liquidityMining/KyberRewardLockerV2.sol\":4944:4953  msg.value */\n      callvalue\n        /* \"contracts/liquidityMining/KyberRewardLockerV2.sol\":4944:4965  msg.value == quantity */\n      eq\n        /* \"contracts/liquidityMining/KyberRewardLockerV2.sol\":4936:4987  require(msg.value == quantity, \"Invalid msg.value\") */\n      tag_274\n      jumpi\n      mload(0x40)\n      shl(0xe5, 0x461bcd)\n      dup2\n      mstore\n      0x04\n      add\n      tag_139\n      swap1\n      tag_276\n      jump\t// in\n    tag_274:\n        /* \"contracts/liquidityMining/KyberRewardLockerV2.sol\":4894:5160  if (token == IERC20Ext(0)) {\r... */\n      jump(tag_278)\n    tag_273:\n        /* \"contracts/liquidityMining/KyberRewardLockerV2.sol\":5089:5148  token.safeTransferFrom(msg.sender, address(this), quantity) */\n      tag_278\n      sub(shl(0xa0, 0x01), 0x01)\n        /* \"contracts/liquidityMining/KyberRewardLockerV2.sol\":5089:5111  token.safeTransferFrom */\n      dup8\n      and\n        /* \"contracts/liquidityMining/KyberRewardLockerV2.sol\":5112:5122  msg.sender */\n      caller\n        /* \"contracts/liquidityMining/KyberRewardLockerV2.sol\":5132:5136  this */\n      address\n        /* \"contracts/liquidityMining/KyberRewardLockerV2.sol\":5139:5147  quantity */\n      dup8\n        /* \"contracts/liquidityMining/KyberRewardLockerV2.sol\":5089:5111  token.safeTransferFrom */\n      tag_279\n        /* \"contracts/liquidityMining/KyberRewardLockerV2.sol\":5089:5148  token.safeTransferFrom(msg.sender, address(this), quantity) */\n      jump\t// in\n    tag_278:\n      sub(shl(0xa0, 0x01), 0x01)\n        /* \"contracts/liquidityMining/KyberRewardLockerV2.sol\":5209:5241  accountVestingSchedules[account] */\n      dup1\n      dup7\n      and\n        /* \"contracts/liquidityMining/KyberRewardLockerV2.sol\":5172:5206  VestingSchedules storage schedules */\n      0x00\n        /* \"contracts/liquidityMining/KyberRewardLockerV2.sol\":5209:5241  accountVestingSchedules[account] */\n      swap1\n      dup2\n      mstore\n        /* \"contracts/liquidityMining/KyberRewardLockerV2.sol\":5209:5232  accountVestingSchedules */\n      0x03\n        /* \"contracts/liquidityMining/KyberRewardLockerV2.sol\":5209:5241  accountVestingSchedules[account] */\n      0x20\n      swap1\n      dup2\n      mstore\n      0x40\n      dup1\n      dup4\n      keccak256\n        /* \"contracts/liquidityMining/KyberRewardLockerV2.sol\":5209:5272  accountVestingSchedules[account][\r... */\n      swap4\n      dup11\n      and\n      dup4\n      mstore\n      swap3\n      swap1\n      mstore\n      swap1\n      dup2\n      keccak256\n        /* \"contracts/liquidityMining/KyberRewardLockerV2.sol\":5309:5325  schedules.length */\n      dup1\n      sload\n        /* \"contracts/liquidityMining/KyberRewardLockerV2.sol\":5209:5272  accountVestingSchedules[account][\r... */\n      swap1\n      swap2\n        /* \"contracts/liquidityMining/KyberRewardLockerV2.sol\":5354:5384  startTime.add(vestingDuration) */\n      tag_280\n        /* \"contracts/liquidityMining/KyberRewardLockerV2.sol\":5354:5363  startTime */\n      dup7\n        /* \"contracts/liquidityMining/KyberRewardLockerV2.sol\":5354:5384  startTime.add(vestingDuration) */\n      0xffffffff\n      dup1\n      dup9\n      and\n      swap1\n        /* \"contracts/liquidityMining/KyberRewardLockerV2.sol\":5354:5367  startTime.add */\n      tag_147\n        /* \"contracts/liquidityMining/KyberRewardLockerV2.sol\":5354:5384  startTime.add(vestingDuration) */\n      and\n      jump\t// in\n    tag_280:\n        /* \"contracts/liquidityMining/KyberRewardLockerV2.sol\":5336:5384  uint256 endTime = startTime.add(vestingDuration) */\n      swap1\n      pop\n        /* \"contracts/liquidityMining/KyberRewardLockerV2.sol\":5484:5503  schedulesLength > 0 */\n      dup2\n      iszero\n        /* \"contracts/liquidityMining/KyberRewardLockerV2.sol\":5480:6305  if (schedulesLength > 0) {\r... */\n      tag_281\n      jumpi\n      not(0x00)\n        /* \"contracts/liquidityMining/KyberRewardLockerV2.sol\":5592:5611  schedulesLength - 1 */\n      dup3\n      add\n        /* \"contracts/liquidityMining/KyberRewardLockerV2.sol\":5520:5556  VestingSchedule storage lastSchedule */\n      0x00\n        /* \"contracts/liquidityMining/KyberRewardLockerV2.sol\":5559:5626  schedules.data[\r... */\n      swap1\n      dup2\n      mstore\n        /* \"contracts/liquidityMining/KyberRewardLockerV2.sol\":5559:5573  schedules.data */\n      0x01\n      dup5\n      add\n        /* \"contracts/liquidityMining/KyberRewardLockerV2.sol\":5559:5626  schedules.data[\r... */\n      0x20\n      mstore\n      0x40\n      swap1\n      keccak256\n        /* \"contracts/liquidityMining/KyberRewardLockerV2.sol\":5663:5685  lastSchedule.startTime */\n      dup1\n      sload\n      sub(shl(0x40, 0x01), 0x01)\n      and\n        /* \"contracts/liquidityMining/KyberRewardLockerV2.sol\":5663:5698  lastSchedule.startTime == startTime */\n      dup8\n      eq\n        /* \"contracts/liquidityMining/KyberRewardLockerV2.sol\":5663:5750  lastSchedule.startTime == startTime &&\r... */\n      dup1\n      iszero\n      tag_282\n      jumpi\n      pop\n        /* \"contracts/liquidityMining/KyberRewardLockerV2.sol\":5719:5739  lastSchedule.endTime */\n      dup1\n      sload\n      shl(0x40, 0x01)\n      swap1\n      div\n      sub(shl(0x40, 0x01), 0x01)\n      and\n        /* \"contracts/liquidityMining/KyberRewardLockerV2.sol\":5719:5750  lastSchedule.endTime == endTime */\n      dup3\n      eq\n        /* \"contracts/liquidityMining/KyberRewardLockerV2.sol\":5663:5750  lastSchedule.startTime == startTime &&\r... */\n    tag_282:\n        /* \"contracts/liquidityMining/KyberRewardLockerV2.sol\":5641:6294  if (\r... */\n      iszero\n      tag_283\n      jumpi\n        /* \"contracts/liquidityMining/KyberRewardLockerV2.sol\":5817:5838  lastSchedule.quantity */\n      dup1\n      sload\n        /* \"contracts/liquidityMining/KyberRewardLockerV2.sol\":5809:5909  uint256(lastSchedule.quantity)\r... */\n      tag_284\n      swap1\n        /* \"contracts/liquidityMining/KyberRewardLockerV2.sol\":5809:5875  uint256(lastSchedule.quantity)\r... */\n      tag_146\n      swap1\n      shl(0x80, 0x01)\n        /* \"contracts/liquidityMining/KyberRewardLockerV2.sol\":5817:5838  lastSchedule.quantity */\n      swap1\n      div\n      sub(shl(0x80, 0x01), 0x01)\n      and\n        /* \"contracts/liquidityMining/KyberRewardLockerV2.sol\":5866:5874  quantity */\n      dup11\n        /* \"contracts/liquidityMining/KyberRewardLockerV2.sol\":5809:5865  uint256(lastSchedule.quantity)\r... */\n      tag_147\n        /* \"contracts/liquidityMining/KyberRewardLockerV2.sol\":5809:5875  uint256(lastSchedule.quantity)\r... */\n      jump\t// in\n        /* \"contracts/liquidityMining/KyberRewardLockerV2.sol\":5809:5909  uint256(lastSchedule.quantity)\r... */\n    tag_284:\n        /* \"contracts/liquidityMining/KyberRewardLockerV2.sol\":5785:5909  lastSchedule.quantity = uint256(lastSchedule.quantity)\r... */\n      dup2\n      sload\n      sub(shl(0x80, 0x01), 0x01)\n      swap2\n      dup3\n      and\n      shl(0x80, 0x01)\n      mul\n      swap2\n      and\n      or\n      dup2\n      sstore\n      sub(shl(0xa0, 0x01), 0x01)\n        /* \"contracts/liquidityMining/KyberRewardLockerV2.sol\":5969:6040  accountEscrowedBalance[\r... */\n      dup1\n      dup11\n      and\n        /* \"contracts/liquidityMining/KyberRewardLockerV2.sol\":5785:5806  lastSchedule.quantity */\n      0x00\n        /* \"contracts/liquidityMining/KyberRewardLockerV2.sol\":5969:6040  accountEscrowedBalance[\r... */\n      swap1\n      dup2\n      mstore\n        /* \"contracts/liquidityMining/KyberRewardLockerV2.sol\":5969:5991  accountEscrowedBalance */\n      0x04\n        /* \"contracts/liquidityMining/KyberRewardLockerV2.sol\":5969:6040  accountEscrowedBalance[\r... */\n      0x20\n      swap1\n      dup2\n      mstore\n      0x40\n      dup1\n      dup4\n      keccak256\n        /* \"contracts/liquidityMining/KyberRewardLockerV2.sol\":5969:6047  accountEscrowedBalance[\r... */\n      swap4\n      dup15\n      and\n      dup4\n      mstore\n      swap3\n      swap1\n      mstore\n      keccak256\n      sload\n        /* \"contracts/liquidityMining/KyberRewardLockerV2.sol\":5969:6061  accountEscrowedBalance[\r... */\n      tag_286\n      swap1\n        /* \"contracts/liquidityMining/KyberRewardLockerV2.sol\":6052:6060  quantity */\n      dup10\n        /* \"contracts/liquidityMining/KyberRewardLockerV2.sol\":5969:6051  accountEscrowedBalance[\r... */\n      tag_147\n        /* \"contracts/liquidityMining/KyberRewardLockerV2.sol\":5969:6061  accountEscrowedBalance[\r... */\n      jump\t// in\n    tag_286:\n        /* \"contracts/liquidityMining/KyberRewardLockerV2.sol\":5928:5950  accountEscrowedBalance */\n      0x04\n        /* \"contracts/liquidityMining/KyberRewardLockerV2.sol\":5928:5959  accountEscrowedBalance[account] */\n      0x00\n        /* \"contracts/liquidityMining/KyberRewardLockerV2.sol\":5951:5958  account */\n      dup12\n      sub(shl(0xa0, 0x01), 0x01)\n        /* \"contracts/liquidityMining/KyberRewardLockerV2.sol\":5928:5959  accountEscrowedBalance[account] */\n      and\n      sub(shl(0xa0, 0x01), 0x01)\n      and\n      dup2\n      mstore\n      0x20\n      add\n      swap1\n      dup2\n      mstore\n      0x20\n      add\n      0x00\n      keccak256\n        /* \"contracts/liquidityMining/KyberRewardLockerV2.sol\":5928:5966  accountEscrowedBalance[account][token] */\n      0x00\n        /* \"contracts/liquidityMining/KyberRewardLockerV2.sol\":5960:5965  token */\n      dup13\n      sub(shl(0xa0, 0x01), 0x01)\n        /* \"contracts/liquidityMining/KyberRewardLockerV2.sol\":5928:5966  accountEscrowedBalance[account][token] */\n      and\n      sub(shl(0xa0, 0x01), 0x01)\n      and\n      dup2\n      mstore\n      0x20\n      add\n      swap1\n      dup2\n      mstore\n      0x20\n      add\n      0x00\n      keccak256\n        /* \"contracts/liquidityMining/KyberRewardLockerV2.sol\":5928:6061  accountEscrowedBalance[account][token] = accountEscrowedBalance[\r... */\n      dup2\n      swap1\n      sstore\n      pop\n        /* \"contracts/liquidityMining/KyberRewardLockerV2.sol\":6196:6203  account */\n      dup9\n      sub(shl(0xa0, 0x01), 0x01)\n        /* \"contracts/liquidityMining/KyberRewardLockerV2.sol\":6085:6253  VestingEntryQueued(\r... */\n      and\n        /* \"contracts/liquidityMining/KyberRewardLockerV2.sol\":6168:6173  token */\n      dup11\n      sub(shl(0xa0, 0x01), 0x01)\n        /* \"contracts/liquidityMining/KyberRewardLockerV2.sol\":6085:6253  VestingEntryQueued(\r... */\n      and\n        /* \"contracts/liquidityMining/KyberRewardLockerV2.sol\":6144:6145  1 */\n      0x01\n        /* \"contracts/liquidityMining/KyberRewardLockerV2.sol\":6126:6141  schedulesLength */\n      dup6\n        /* \"contracts/liquidityMining/KyberRewardLockerV2.sol\":6126:6145  schedulesLength - 1 */\n      sub\n        /* \"contracts/liquidityMining/KyberRewardLockerV2.sol\":6085:6253  VestingEntryQueued(\r... */\n      0xa6fd3a57929c9152d86fa5f83c8478f1af480353a0aef0cacc3240d63b570767\n        /* \"contracts/liquidityMining/KyberRewardLockerV2.sol\":6226:6234  quantity */\n      dup12\n        /* \"contracts/liquidityMining/KyberRewardLockerV2.sol\":6085:6253  VestingEntryQueued(\r... */\n      mload(0x40)\n      tag_287\n      swap2\n      swap1\n      tag_38\n      jump\t// in\n    tag_287:\n      mload(0x40)\n      dup1\n      swap2\n      sub\n      swap1\n      log4\n        /* \"contracts/liquidityMining/KyberRewardLockerV2.sol\":6272:6279  return; */\n      pop\n      pop\n      pop\n      pop\n      jump(tag_269)\n        /* \"contracts/liquidityMining/KyberRewardLockerV2.sol\":5641:6294  if (\r... */\n    tag_283:\n        /* \"contracts/liquidityMining/KyberRewardLockerV2.sol\":5480:6305  if (schedulesLength > 0) {\r... */\n      pop\n    tag_281:\n        /* \"contracts/liquidityMining/KyberRewardLockerV2.sol\":6383:6576  VestingSchedule({\r... */\n      mload(0x40)\n      dup1\n      0x80\n      add\n      0x40\n      mstore\n      dup1\n        /* \"contracts/liquidityMining/KyberRewardLockerV2.sol\":6425:6445  startTime.toUint64() */\n      tag_288\n        /* \"contracts/liquidityMining/KyberRewardLockerV2.sol\":6425:6434  startTime */\n      dup9\n        /* \"contracts/liquidityMining/KyberRewardLockerV2.sol\":6425:6443  startTime.toUint64 */\n      tag_289\n        /* \"contracts/liquidityMining/KyberRewardLockerV2.sol\":6425:6445  startTime.toUint64() */\n      jump\t// in\n    tag_288:\n      sub(shl(0x40, 0x01), 0x01)\n        /* \"contracts/liquidityMining/KyberRewardLockerV2.sol\":6383:6576  VestingSchedule({\r... */\n      and\n      dup2\n      mstore\n      0x20\n      add\n        /* \"contracts/liquidityMining/KyberRewardLockerV2.sol\":6469:6487  endTime.toUint64() */\n      tag_290\n        /* \"contracts/liquidityMining/KyberRewardLockerV2.sol\":6469:6476  endTime */\n      dup4\n        /* \"contracts/liquidityMining/KyberRewardLockerV2.sol\":6469:6485  endTime.toUint64 */\n      tag_289\n        /* \"contracts/liquidityMining/KyberRewardLockerV2.sol\":6469:6487  endTime.toUint64() */\n      jump\t// in\n    tag_290:\n      sub(shl(0x40, 0x01), 0x01)\n        /* \"contracts/liquidityMining/KyberRewardLockerV2.sol\":6383:6576  VestingSchedule({\r... */\n      and\n      dup2\n      mstore\n      0x20\n      add\n        /* \"contracts/liquidityMining/KyberRewardLockerV2.sol\":6512:6532  quantity.toUint128() */\n      tag_291\n        /* \"contracts/liquidityMining/KyberRewardLockerV2.sol\":6512:6520  quantity */\n      dup10\n        /* \"contracts/liquidityMining/KyberRewardLockerV2.sol\":6512:6530  quantity.toUint128 */\n      tag_148\n        /* \"contracts/liquidityMining/KyberRewardLockerV2.sol\":6512:6532  quantity.toUint128() */\n      jump\t// in\n    tag_291:\n      sub(shl(0x80, 0x01), 0x01)\n        /* \"contracts/liquidityMining/KyberRewardLockerV2.sol\":6383:6576  VestingSchedule({\r... */\n      swap1\n      dup2\n      and\n      dup3\n      mstore\n        /* \"contracts/liquidityMining/KyberRewardLockerV2.sol\":6563:6564  0 */\n      0x00\n        /* \"contracts/liquidityMining/KyberRewardLockerV2.sol\":6383:6576  VestingSchedule({\r... */\n      0x20\n      swap3\n      dup4\n      add\n      dup2\n      swap1\n      mstore\n        /* \"contracts/liquidityMining/KyberRewardLockerV2.sol\":6349:6380  schedules.data[schedulesLength] */\n      dup6\n      dup2\n      mstore\n        /* \"contracts/liquidityMining/KyberRewardLockerV2.sol\":6349:6363  schedules.data */\n      0x01\n      dup1\n      dup9\n      add\n        /* \"contracts/liquidityMining/KyberRewardLockerV2.sol\":6349:6380  schedules.data[schedulesLength] */\n      dup5\n      mstore\n      0x40\n      dup1\n      dup4\n      keccak256\n        /* \"contracts/liquidityMining/KyberRewardLockerV2.sol\":6349:6576  schedules.data[schedulesLength] = VestingSchedule({\r... */\n      dup7\n      mload\n      dup2\n      sload\n      dup9\n      dup9\n      add\n      mload\n      dup10\n      dup6\n      add\n      mload\n      dup9\n      and\n      shl(0x80, 0x01)\n      mul\n      sub(shl(0x40, 0x01), 0x01)\n      swap2\n      dup3\n      and\n      shl(0x40, 0x01)\n      mul\n      not(0xffffffffffffffff0000000000000000)\n      swap3\n      swap1\n      swap5\n      and\n      not(0xffffffffffffffff)\n      swap1\n      swap4\n      and\n      swap3\n      swap1\n      swap3\n      or\n      and\n      swap2\n      swap1\n      swap2\n      or\n      dup7\n      and\n      or\n      dup2\n      sstore\n      0x60\n      swap1\n      swap7\n      add\n      mload\n      swap6\n      dup3\n      add\n      dup1\n      sload\n      swap7\n      swap1\n      swap5\n      and\n      not(sub(shl(0x80, 0x01), 0x01))\n      swap7\n      swap1\n      swap7\n      and\n      swap6\n      swap1\n      swap6\n      or\n      swap1\n      swap3\n      sstore\n        /* \"contracts/liquidityMining/KyberRewardLockerV2.sol\":6606:6625  schedulesLength + 1 */\n      swap1\n      dup6\n      add\n        /* \"contracts/liquidityMining/KyberRewardLockerV2.sol\":6587:6625  schedules.length = schedulesLength + 1 */\n      dup7\n      sstore\n      sub(shl(0xa0, 0x01), 0x01)\n        /* \"contracts/liquidityMining/KyberRewardLockerV2.sol\":6726:6781  accountEscrowedBalance[\r... */\n      dup1\n      dup13\n      and\n      dup3\n      mstore\n        /* \"contracts/liquidityMining/KyberRewardLockerV2.sol\":6726:6748  accountEscrowedBalance */\n      0x04\n        /* \"contracts/liquidityMining/KyberRewardLockerV2.sol\":6726:6781  accountEscrowedBalance[\r... */\n      dup4\n      mstore\n      dup4\n      dup3\n      keccak256\n        /* \"contracts/liquidityMining/KyberRewardLockerV2.sol\":6726:6788  accountEscrowedBalance[\r... */\n      swap1\n      dup14\n      and\n      dup3\n      mstore\n      swap1\n      swap2\n      mstore\n      keccak256\n      sload\n        /* \"contracts/liquidityMining/KyberRewardLockerV2.sol\":6726:6802  accountEscrowedBalance[\r... */\n      tag_292\n      swap1\n        /* \"contracts/liquidityMining/KyberRewardLockerV2.sol\":6793:6801  quantity */\n      dup9\n        /* \"contracts/liquidityMining/KyberRewardLockerV2.sol\":6726:6792  accountEscrowedBalance[\r... */\n      tag_147\n        /* \"contracts/liquidityMining/KyberRewardLockerV2.sol\":6726:6802  accountEscrowedBalance[\r... */\n      jump\t// in\n    tag_292:\n      sub(shl(0xa0, 0x01), 0x01)\n        /* \"contracts/liquidityMining/KyberRewardLockerV2.sol\":6685:6716  accountEscrowedBalance[account] */\n      dup1\n      dup11\n      and\n      0x00\n      dup2\n      dup2\n      mstore\n        /* \"contracts/liquidityMining/KyberRewardLockerV2.sol\":6685:6707  accountEscrowedBalance */\n      0x04\n        /* \"contracts/liquidityMining/KyberRewardLockerV2.sol\":6685:6716  accountEscrowedBalance[account] */\n      0x20\n      swap1\n      dup2\n      mstore\n      0x40\n      dup1\n      dup4\n      keccak256\n        /* \"contracts/liquidityMining/KyberRewardLockerV2.sol\":6685:6723  accountEscrowedBalance[account][token] */\n      swap5\n      dup16\n      and\n      dup1\n      dup5\n      mstore\n      swap5\n      swap1\n      swap2\n      mstore\n      swap1\n      dup2\n      swap1\n      keccak256\n        /* \"contracts/liquidityMining/KyberRewardLockerV2.sol\":6685:6802  accountEscrowedBalance[account][token] = accountEscrowedBalance[\r... */\n      swap4\n      swap1\n      swap4\n      sstore\n        /* \"contracts/liquidityMining/KyberRewardLockerV2.sol\":6820:6991  VestingEntryCreated(\r... */\n      swap2\n      mload\n      0xfb1fd0fee690638acf30008a00d7fc669e970dd6fa8912488ee11171986edabb\n      swap1\n      tag_293\n      swap1\n        /* \"contracts/liquidityMining/KyberRewardLockerV2.sol\":6896:6905  startTime */\n      dup11\n      swap1\n        /* \"contracts/liquidityMining/KyberRewardLockerV2.sol\":6920:6927  endTime */\n      dup7\n      swap1\n        /* \"contracts/liquidityMining/KyberRewardLockerV2.sol\":6942:6950  quantity */\n      dup14\n      swap1\n        /* \"contracts/liquidityMining/KyberRewardLockerV2.sol\":6965:6980  schedulesLength */\n      dup10\n      swap1\n        /* \"contracts/liquidityMining/KyberRewardLockerV2.sol\":6820:6991  VestingEntryCreated(\r... */\n      tag_294\n      jump\t// in\n    tag_293:\n      mload(0x40)\n      dup1\n      swap2\n      sub\n      swap1\n      log3\n        /* \"contracts/liquidityMining/KyberRewardLockerV2.sol\":2084:2085  _ */\n      pop\n      pop\n      pop\n    tag_269:\n        /* \"contracts/liquidityMining/KyberRewardLockerV2.sol\":4610:6999  function lockWithStartTime(\r... */\n      pop\n      pop\n      pop\n      pop\n      pop\n      pop\n      jump\t// out\n        /* \"contracts/liquidityMining/KyberRewardLockerV2.sol\":12245:12960  function _getVestingQuantity(VestingSchedule memory schedule)\r... */\n    tag_143:\n        /* \"contracts/liquidityMining/KyberRewardLockerV2.sol\":12357:12364  uint256 */\n      0x00\n        /* \"contracts/liquidityMining/KyberRewardLockerV2.sol\":12413:12421  schedule */\n      dup2\n        /* \"contracts/liquidityMining/KyberRewardLockerV2.sol\":12413:12429  schedule.endTime */\n      0x20\n      add\n      mload\n      sub(shl(0x40, 0x01), 0x01)\n        /* \"contracts/liquidityMining/KyberRewardLockerV2.sol\":12405:12430  uint256(schedule.endTime) */\n      and\n        /* \"contracts/liquidityMining/KyberRewardLockerV2.sol\":12386:12401  _getBlockTime() */\n      tag_296\n        /* \"contracts/liquidityMining/KyberRewardLockerV2.sol\":12386:12399  _getBlockTime */\n      tag_159\n        /* \"contracts/liquidityMining/KyberRewardLockerV2.sol\":12386:12401  _getBlockTime() */\n      jump\t// in\n    tag_296:\n        /* \"contracts/liquidityMining/KyberRewardLockerV2.sol\":12386:12430  _getBlockTime() >= uint256(schedule.endTime) */\n      0xffffffff\n      and\n      lt\n        /* \"contracts/liquidityMining/KyberRewardLockerV2.sol\":12382:12521  if (_getBlockTime() >= uint256(schedule.endTime)) {\r... */\n      tag_297\n      jumpi\n        /* \"contracts/liquidityMining/KyberRewardLockerV2.sol\":12454:12509  uint256(schedule.quantity).sub(schedule.vestedQuantity) */\n      tag_298\n        /* \"contracts/liquidityMining/KyberRewardLockerV2.sol\":12485:12493  schedule */\n      dup3\n        /* \"contracts/liquidityMining/KyberRewardLockerV2.sol\":12485:12508  schedule.vestedQuantity */\n      0x60\n      add\n      mload\n      sub(shl(0x80, 0x01), 0x01)\n        /* \"contracts/liquidityMining/KyberRewardLockerV2.sol\":12454:12509  uint256(schedule.quantity).sub(schedule.vestedQuantity) */\n      and\n        /* \"contracts/liquidityMining/KyberRewardLockerV2.sol\":12462:12470  schedule */\n      dup4\n        /* \"contracts/liquidityMining/KyberRewardLockerV2.sol\":12462:12479  schedule.quantity */\n      0x40\n      add\n      mload\n      sub(shl(0x80, 0x01), 0x01)\n        /* \"contracts/liquidityMining/KyberRewardLockerV2.sol\":12454:12480  uint256(schedule.quantity) */\n      and\n        /* \"contracts/liquidityMining/KyberRewardLockerV2.sol\":12454:12484  uint256(schedule.quantity).sub */\n      tag_258\n      swap1\n        /* \"contracts/liquidityMining/KyberRewardLockerV2.sol\":12454:12509  uint256(schedule.quantity).sub(schedule.vestedQuantity) */\n      swap2\n      swap1\n      0xffffffff\n      and\n      jump\t// in\n    tag_298:\n        /* \"contracts/liquidityMining/KyberRewardLockerV2.sol\":12447:12509  return uint256(schedule.quantity).sub(schedule.vestedQuantity) */\n      swap1\n      pop\n      jump(tag_251)\n        /* \"contracts/liquidityMining/KyberRewardLockerV2.sol\":12382:12521  if (_getBlockTime() >= uint256(schedule.endTime)) {\r... */\n    tag_297:\n        /* \"contracts/liquidityMining/KyberRewardLockerV2.sol\":12562:12580  schedule.startTime */\n      dup2\n      mload\n      sub(shl(0x40, 0x01), 0x01)\n        /* \"contracts/liquidityMining/KyberRewardLockerV2.sol\":12554:12581  uint256(schedule.startTime) */\n      and\n        /* \"contracts/liquidityMining/KyberRewardLockerV2.sol\":12535:12550  _getBlockTime() */\n      tag_299\n        /* \"contracts/liquidityMining/KyberRewardLockerV2.sol\":12535:12548  _getBlockTime */\n      tag_159\n        /* \"contracts/liquidityMining/KyberRewardLockerV2.sol\":12535:12550  _getBlockTime() */\n      jump\t// in\n    tag_299:\n        /* \"contracts/liquidityMining/KyberRewardLockerV2.sol\":12535:12581  _getBlockTime() <= uint256(schedule.startTime) */\n      0xffffffff\n      and\n      gt\n        /* \"contracts/liquidityMining/KyberRewardLockerV2.sol\":12531:12618  if (_getBlockTime() <= uint256(schedule.startTime)) {\r... */\n      tag_300\n      jumpi\n      pop\n        /* \"contracts/liquidityMining/KyberRewardLockerV2.sol\":12605:12606  0 */\n      0x00\n        /* \"contracts/liquidityMining/KyberRewardLockerV2.sol\":12598:12606  return 0 */\n      jump(tag_251)\n        /* \"contracts/liquidityMining/KyberRewardLockerV2.sol\":12531:12618  if (_getBlockTime() <= uint256(schedule.startTime)) {\r... */\n    tag_300:\n        /* \"contracts/liquidityMining/KyberRewardLockerV2.sol\":12695:12713  schedule.startTime */\n      dup2\n      mload\n        /* \"contracts/liquidityMining/KyberRewardLockerV2.sol\":12659:12675  schedule.endTime */\n      0x20\n      dup4\n      add\n      mload\n        /* \"contracts/liquidityMining/KyberRewardLockerV2.sol\":12628:12648  uint256 lockDuration */\n      0x00\n      swap2\n        /* \"contracts/liquidityMining/KyberRewardLockerV2.sol\":12651:12724  uint256(schedule.endTime).sub(\r... */\n      tag_301\n      swap2\n      sub(shl(0x40, 0x01), 0x01)\n        /* \"contracts/liquidityMining/KyberRewardLockerV2.sol\":12651:12676  uint256(schedule.endTime) */\n      swap1\n      dup2\n      and\n      swap2\n        /* \"contracts/liquidityMining/KyberRewardLockerV2.sol\":12651:12724  uint256(schedule.endTime).sub(\r... */\n      and\n        /* \"contracts/liquidityMining/KyberRewardLockerV2.sol\":12651:12680  uint256(schedule.endTime).sub */\n      tag_258\n        /* \"contracts/liquidityMining/KyberRewardLockerV2.sol\":12651:12724  uint256(schedule.endTime).sub(\r... */\n      jump\t// in\n    tag_301:\n        /* \"contracts/liquidityMining/KyberRewardLockerV2.sol\":12628:12724  uint256 lockDuration = uint256(schedule.endTime).sub(\r... */\n      swap1\n      pop\n        /* \"contracts/liquidityMining/KyberRewardLockerV2.sol\":12735:12757  uint256 passedDuration */\n      0x00\n        /* \"contracts/liquidityMining/KyberRewardLockerV2.sol\":12786:12794  schedule */\n      dup4\n        /* \"contracts/liquidityMining/KyberRewardLockerV2.sol\":12786:12804  schedule.startTime */\n      0x00\n      add\n      mload\n      sub(shl(0x40, 0x01), 0x01)\n        /* \"contracts/liquidityMining/KyberRewardLockerV2.sol\":12778:12805  uint256(schedule.startTime) */\n      and\n        /* \"contracts/liquidityMining/KyberRewardLockerV2.sol\":12760:12775  _getBlockTime() */\n      tag_302\n        /* \"contracts/liquidityMining/KyberRewardLockerV2.sol\":12760:12773  _getBlockTime */\n      tag_159\n        /* \"contracts/liquidityMining/KyberRewardLockerV2.sol\":12760:12775  _getBlockTime() */\n      jump\t// in\n    tag_302:\n        /* \"contracts/liquidityMining/KyberRewardLockerV2.sol\":12760:12805  _getBlockTime() - uint256(schedule.startTime) */\n      0xffffffff\n      and\n      sub\n        /* \"contracts/liquidityMining/KyberRewardLockerV2.sol\":12735:12805  uint256 passedDuration = _getBlockTime() - uint256(schedule.startTime) */\n      swap1\n      pop\n        /* \"contracts/liquidityMining/KyberRewardLockerV2.sol\":12836:12952  passedDuration.mul(schedule.quantity).div(lockDuration).sub(\r... */\n      tag_262\n        /* \"contracts/liquidityMining/KyberRewardLockerV2.sol\":12914:12922  schedule */\n      dup5\n        /* \"contracts/liquidityMining/KyberRewardLockerV2.sol\":12914:12937  schedule.vestedQuantity */\n      0x60\n      add\n      mload\n      sub(shl(0x80, 0x01), 0x01)\n        /* \"contracts/liquidityMining/KyberRewardLockerV2.sol\":12836:12952  passedDuration.mul(schedule.quantity).div(lockDuration).sub(\r... */\n      and\n        /* \"contracts/liquidityMining/KyberRewardLockerV2.sol\":12836:12891  passedDuration.mul(schedule.quantity).div(lockDuration) */\n      tag_304\n        /* \"contracts/liquidityMining/KyberRewardLockerV2.sol\":12878:12890  lockDuration */\n      dup5\n        /* \"contracts/liquidityMining/KyberRewardLockerV2.sol\":12836:12873  passedDuration.mul(schedule.quantity) */\n      tag_305\n        /* \"contracts/liquidityMining/KyberRewardLockerV2.sol\":12855:12863  schedule */\n      dup9\n        /* \"contracts/liquidityMining/KyberRewardLockerV2.sol\":12855:12872  schedule.quantity */\n      0x40\n      add\n      mload\n      sub(shl(0x80, 0x01), 0x01)\n        /* \"contracts/liquidityMining/KyberRewardLockerV2.sol\":12836:12873  passedDuration.mul(schedule.quantity) */\n      and\n        /* \"contracts/liquidityMining/KyberRewardLockerV2.sol\":12836:12850  passedDuration */\n      dup7\n        /* \"contracts/liquidityMining/KyberRewardLockerV2.sol\":12836:12854  passedDuration.mul */\n      tag_306\n      swap1\n        /* \"contracts/liquidityMining/KyberRewardLockerV2.sol\":12836:12873  passedDuration.mul(schedule.quantity) */\n      swap2\n      swap1\n      0xffffffff\n      and\n      jump\t// in\n    tag_305:\n        /* \"contracts/liquidityMining/KyberRewardLockerV2.sol\":12836:12877  passedDuration.mul(schedule.quantity).div */\n      swap1\n      tag_307\n        /* \"contracts/liquidityMining/KyberRewardLockerV2.sol\":12836:12891  passedDuration.mul(schedule.quantity).div(lockDuration) */\n      jump\t// in\n    tag_304:\n        /* \"contracts/liquidityMining/KyberRewardLockerV2.sol\":12836:12895  passedDuration.mul(schedule.quantity).div(lockDuration).sub */\n      swap1\n      tag_258\n        /* \"contracts/liquidityMining/KyberRewardLockerV2.sol\":12836:12952  passedDuration.mul(schedule.quantity).div(lockDuration).sub(\r... */\n      jump\t// in\n        /* \"@openzeppelin/contracts/math/SafeMath.sol\":2690:2865  function add(uint256 a, uint256 b) internal pure returns (uint256) {... */\n    tag_147:\n        /* \"@openzeppelin/contracts/math/SafeMath.sol\":2748:2755  uint256 */\n      0x00\n        /* \"@openzeppelin/contracts/math/SafeMath.sol\":2779:2784  a + b */\n      dup3\n      dup3\n      add\n        /* \"@openzeppelin/contracts/math/SafeMath.sol\":2802:2808  c >= a */\n      dup4\n      dup2\n      lt\n      iszero\n        /* \"@openzeppelin/contracts/math/SafeMath.sol\":2794:2840  require(c >= a, \"SafeMath: addition overflow\") */\n      tag_132\n      jumpi\n      0x40\n      dup1\n      mload\n      shl(0xe5, 0x461bcd)\n      dup2\n      mstore\n      0x20\n      0x04\n      dup3\n      add\n      mstore\n      0x1b\n      0x24\n      dup3\n      add\n      mstore\n      0x536166654d6174683a206164646974696f6e206f766572666c6f770000000000\n      0x44\n      dup3\n      add\n      mstore\n      swap1\n      mload\n      swap1\n      dup2\n      swap1\n      sub\n      0x64\n      add\n      swap1\n      revert\n        /* \"@openzeppelin/contracts/utils/SafeCast.sol\":1086:1267  function toUint128(uint256 value) internal pure returns (uint128) {... */\n    tag_148:\n        /* \"@openzeppelin/contracts/utils/SafeCast.sol\":1143:1150  uint128 */\n      0x00\n      shl(0x80, 0x01)\n        /* \"@openzeppelin/contracts/utils/SafeCast.sol\":1170:1175  value */\n      dup3\n        /* \"@openzeppelin/contracts/utils/SafeCast.sol\":1170:1184  value < 2**128 */\n      lt\n        /* \"@openzeppelin/contracts/utils/SafeCast.sol\":1162:1229  require(value < 2**128, \"SafeCast: value doesn\\'t fit in 128 bits\") */\n      tag_311\n      jumpi\n      mload(0x40)\n      shl(0xe5, 0x461bcd)\n      dup2\n      mstore\n      0x04\n      add\n      dup1\n      dup1\n      0x20\n      add\n      dup3\n      dup2\n      sub\n      dup3\n      mstore\n      0x27\n      dup2\n      mstore\n      0x20\n      add\n      dup1\n      data_47a1e201974f94d3d1a31c8b08ae18c6966c758bdcd4400020012b98cc55426c\n      0x27\n      swap2\n      codecopy\n      0x40\n      add\n      swap2\n      pop\n      pop\n      mload(0x40)\n      dup1\n      swap2\n      sub\n      swap1\n      revert\n    tag_311:\n      pop\n        /* \"@openzeppelin/contracts/utils/SafeCast.sol\":1254:1259  value */\n      swap1\n        /* \"@openzeppelin/contracts/utils/SafeCast.sol\":1086:1267  function toUint128(uint256 value) internal pure returns (uint128) {... */\n      jump\t// out\n        /* \"contracts/liquidityMining/KyberRewardLockerV2.sol\":11506:12170  function _completeVesting(IERC20Ext token, uint256 totalVesting) internal {\r... */\n    tag_155:\n        /* \"contracts/liquidityMining/KyberRewardLockerV2.sol\":11599:11616  totalVesting != 0 */\n      dup1\n        /* \"contracts/liquidityMining/KyberRewardLockerV2.sol\":11591:11637  require(totalVesting != 0, \"0 vesting amount\") */\n      tag_313\n      jumpi\n      mload(0x40)\n      shl(0xe5, 0x461bcd)\n      dup2\n      mstore\n      0x04\n      add\n      tag_139\n      swap1\n      tag_315\n      jump\t// in\n    tag_313:\n        /* \"contracts/liquidityMining/KyberRewardLockerV2.sol\":11729:11739  msg.sender */\n      caller\n        /* \"contracts/liquidityMining/KyberRewardLockerV2.sol\":11692:11750  accountEscrowedBalance[\r... */\n      0x00\n      swap1\n      dup2\n      mstore\n        /* \"contracts/liquidityMining/KyberRewardLockerV2.sol\":11692:11714  accountEscrowedBalance */\n      0x04\n        /* \"contracts/liquidityMining/KyberRewardLockerV2.sol\":11692:11750  accountEscrowedBalance[\r... */\n      0x20\n      swap1\n      dup2\n      mstore\n      0x40\n      dup1\n      dup4\n      keccak256\n      sub(shl(0xa0, 0x01), 0x01)\n        /* \"contracts/liquidityMining/KyberRewardLockerV2.sol\":11692:11757  accountEscrowedBalance[\r... */\n      dup7\n      and\n      dup5\n      mstore\n      swap1\n      swap2\n      mstore\n      swap1\n      keccak256\n      sload\n        /* \"contracts/liquidityMining/KyberRewardLockerV2.sol\":11692:11775  accountEscrowedBalance[\r... */\n      tag_316\n      swap1\n        /* \"contracts/liquidityMining/KyberRewardLockerV2.sol\":11762:11774  totalVesting */\n      dup3\n        /* \"contracts/liquidityMining/KyberRewardLockerV2.sol\":11692:11761  accountEscrowedBalance[\r... */\n      tag_258\n        /* \"contracts/liquidityMining/KyberRewardLockerV2.sol\":11692:11775  accountEscrowedBalance[\r... */\n      jump\t// in\n    tag_316:\n        /* \"contracts/liquidityMining/KyberRewardLockerV2.sol\":11671:11681  msg.sender */\n      caller\n        /* \"contracts/liquidityMining/KyberRewardLockerV2.sol\":11648:11682  accountEscrowedBalance[msg.sender] */\n      0x00\n      dup2\n      dup2\n      mstore\n        /* \"contracts/liquidityMining/KyberRewardLockerV2.sol\":11648:11670  accountEscrowedBalance */\n      0x04\n        /* \"contracts/liquidityMining/KyberRewardLockerV2.sol\":11648:11682  accountEscrowedBalance[msg.sender] */\n      0x20\n      swap1\n      dup2\n      mstore\n      0x40\n      dup1\n      dup4\n      keccak256\n      sub(shl(0xa0, 0x01), 0x01)\n        /* \"contracts/liquidityMining/KyberRewardLockerV2.sol\":11648:11689  accountEscrowedBalance[msg.sender][token] */\n      dup9\n      and\n      dup1\n      dup6\n      mstore\n      swap1\n      dup4\n      mstore\n      dup2\n      dup5\n      keccak256\n        /* \"contracts/liquidityMining/KyberRewardLockerV2.sol\":11648:11775  accountEscrowedBalance[msg.sender][token] = accountEscrowedBalance[\r... */\n      swap6\n      swap1\n      swap6\n      sstore\n        /* \"contracts/liquidityMining/KyberRewardLockerV2.sol\":11828:11884  accountVestedBalance[\r... */\n      swap3\n      dup3\n      mstore\n        /* \"contracts/liquidityMining/KyberRewardLockerV2.sol\":11828:11848  accountVestedBalance */\n      0x05\n        /* \"contracts/liquidityMining/KyberRewardLockerV2.sol\":11828:11884  accountVestedBalance[\r... */\n      dup2\n      mstore\n      dup3\n      dup3\n      keccak256\n        /* \"contracts/liquidityMining/KyberRewardLockerV2.sol\":11828:11891  accountVestedBalance[\r... */\n      swap4\n      dup3\n      mstore\n      swap3\n      swap1\n      swap3\n      mstore\n      swap1\n      keccak256\n      sload\n        /* \"contracts/liquidityMining/KyberRewardLockerV2.sol\":11828:11909  accountVestedBalance[\r... */\n      tag_317\n      swap1\n        /* \"contracts/liquidityMining/KyberRewardLockerV2.sol\":11896:11908  totalVesting */\n      dup3\n        /* \"contracts/liquidityMining/KyberRewardLockerV2.sol\":11828:11895  accountVestedBalance[\r... */\n      tag_147\n        /* \"contracts/liquidityMining/KyberRewardLockerV2.sol\":11828:11909  accountVestedBalance[\r... */\n      jump\t// in\n    tag_317:\n        /* \"contracts/liquidityMining/KyberRewardLockerV2.sol\":11807:11817  msg.sender */\n      caller\n        /* \"contracts/liquidityMining/KyberRewardLockerV2.sol\":11786:11818  accountVestedBalance[msg.sender] */\n      0x00\n      swap1\n      dup2\n      mstore\n        /* \"contracts/liquidityMining/KyberRewardLockerV2.sol\":11786:11806  accountVestedBalance */\n      0x05\n        /* \"contracts/liquidityMining/KyberRewardLockerV2.sol\":11786:11818  accountVestedBalance[msg.sender] */\n      0x20\n      swap1\n      dup2\n      mstore\n      0x40\n      dup1\n      dup4\n      keccak256\n      sub(shl(0xa0, 0x01), 0x01)\n        /* \"contracts/liquidityMining/KyberRewardLockerV2.sol\":11786:11825  accountVestedBalance[msg.sender][token] */\n      dup8\n      and\n      dup1\n      dup6\n      mstore\n      swap3\n      mstore\n      swap1\n      swap2\n      keccak256\n        /* \"contracts/liquidityMining/KyberRewardLockerV2.sol\":11786:11909  accountVestedBalance[msg.sender][token] = accountVestedBalance[\r... */\n      swap2\n      swap1\n      swap2\n      sstore\n        /* \"contracts/liquidityMining/KyberRewardLockerV2.sol\":11922:12163  if (token == IERC20Ext(0)) {\r... */\n      tag_318\n      jumpi\n        /* \"contracts/liquidityMining/KyberRewardLockerV2.sol\":11965:11977  bool success */\n      0x00\n        /* \"contracts/liquidityMining/KyberRewardLockerV2.sol\":11983:11993  msg.sender */\n      caller\n      sub(shl(0xa0, 0x01), 0x01)\n        /* \"contracts/liquidityMining/KyberRewardLockerV2.sol\":11983:11998  msg.sender.call */\n      and\n        /* \"contracts/liquidityMining/KyberRewardLockerV2.sol\":12006:12018  totalVesting */\n      dup3\n        /* \"contracts/liquidityMining/KyberRewardLockerV2.sol\":11983:12023  msg.sender.call{value: totalVesting}(\"\") */\n      mload(0x40)\n      tag_319\n      swap1\n      tag_320\n      jump\t// in\n    tag_319:\n      0x00\n      mload(0x40)\n      dup1\n      dup4\n      sub\n      dup2\n      dup6\n      dup8\n      gas\n      call\n      swap3\n      pop\n      pop\n      pop\n      returndatasize\n      dup1\n      0x00\n      dup2\n      eq\n      tag_323\n      jumpi\n      mload(0x40)\n      swap2\n      pop\n      and(add(returndatasize, 0x3f), not(0x1f))\n      dup3\n      add\n      0x40\n      mstore\n      returndatasize\n      dup3\n      mstore\n      returndatasize\n      0x00\n      0x20\n      dup5\n      add\n      returndatacopy\n      jump(tag_322)\n    tag_323:\n      0x60\n      swap2\n      pop\n    tag_322:\n      pop\n        /* \"contracts/liquidityMining/KyberRewardLockerV2.sol\":11964:12023  (bool success, ) = msg.sender.call{value: totalVesting}(\"\") */\n      pop\n      swap1\n      pop\n        /* \"contracts/liquidityMining/KyberRewardLockerV2.sol\":12046:12053  success */\n      dup1\n        /* \"contracts/liquidityMining/KyberRewardLockerV2.sol\":12038:12074  require(success, \"fail to transfer\") */\n      tag_324\n      jumpi\n      mload(0x40)\n      shl(0xe5, 0x461bcd)\n      dup2\n      mstore\n      0x04\n      add\n      tag_139\n      swap1\n      tag_326\n      jump\t// in\n    tag_324:\n        /* \"contracts/liquidityMining/KyberRewardLockerV2.sol\":11922:12163  if (token == IERC20Ext(0)) {\r... */\n      pop\n      jump(tag_328)\n    tag_318:\n        /* \"contracts/liquidityMining/KyberRewardLockerV2.sol\":12107:12151  token.safeTransfer(msg.sender, totalVesting) */\n      tag_328\n      sub(shl(0xa0, 0x01), 0x01)\n        /* \"contracts/liquidityMining/KyberRewardLockerV2.sol\":12107:12125  token.safeTransfer */\n      dup4\n      and\n        /* \"contracts/liquidityMining/KyberRewardLockerV2.sol\":12126:12136  msg.sender */\n      caller\n        /* \"contracts/liquidityMining/KyberRewardLockerV2.sol\":12138:12150  totalVesting */\n      dup4\n        /* \"contracts/liquidityMining/KyberRewardLockerV2.sol\":12107:12125  token.safeTransfer */\n      tag_329\n        /* \"contracts/liquidityMining/KyberRewardLockerV2.sol\":12107:12151  token.safeTransfer(msg.sender, totalVesting) */\n      jump\t// in\n    tag_328:\n        /* \"contracts/liquidityMining/KyberRewardLockerV2.sol\":11506:12170  function _completeVesting(IERC20Ext token, uint256 totalVesting) internal {\r... */\n      pop\n      pop\n      jump\t// out\n        /* \"contracts/liquidityMining/KyberRewardLockerV2.sol\":13045:13158  function _getBlockTime() internal view virtual returns (uint32) {\r... */\n    tag_159:\n        /* \"contracts/liquidityMining/KyberRewardLockerV2.sol\":13134:13149  block.timestamp */\n      timestamp\n        /* \"contracts/liquidityMining/KyberRewardLockerV2.sol\":13045:13158  function _getBlockTime() internal view virtual returns (uint32) {\r... */\n      swap1\n      jump\t// out\n        /* \"@openzeppelin/contracts/utils/EnumerableSet.sol\":6747:6903  function remove(AddressSet storage set, address value) internal returns (bool) {... */\n    tag_173:\n        /* \"@openzeppelin/contracts/utils/EnumerableSet.sol\":6820:6824  bool */\n      0x00\n        /* \"@openzeppelin/contracts/utils/EnumerableSet.sol\":6843:6896  _remove(set._inner, bytes32(uint256(uint160(value)))) */\n      tag_132\n        /* \"@openzeppelin/contracts/utils/EnumerableSet.sol\":6851:6854  set */\n      dup4\n      sub(shl(0xa0, 0x01), 0x01)\n        /* \"@openzeppelin/contracts/utils/EnumerableSet.sol\":6871:6894  uint256(uint160(value)) */\n      dup5\n      and\n        /* \"@openzeppelin/contracts/utils/EnumerableSet.sol\":6843:6850  _remove */\n      tag_333\n        /* \"@openzeppelin/contracts/utils/EnumerableSet.sol\":6843:6896  _remove(set._inner, bytes32(uint256(uint160(value)))) */\n      jump\t// in\n        /* \"@openzeppelin/contracts/utils/EnumerableSet.sol\":7230:7345  function length(AddressSet storage set) internal view returns (uint256) {... */\n    tag_218:\n        /* \"@openzeppelin/contracts/utils/EnumerableSet.sol\":7293:7300  uint256 */\n      0x00\n        /* \"@openzeppelin/contracts/utils/EnumerableSet.sol\":7319:7338  _length(set._inner) */\n      tag_133\n        /* \"@openzeppelin/contracts/utils/EnumerableSet.sol\":7327:7330  set */\n      dup3\n        /* \"@openzeppelin/contracts/utils/EnumerableSet.sol\":7319:7326  _length */\n      tag_336\n        /* \"@openzeppelin/contracts/utils/EnumerableSet.sol\":7319:7338  _length(set._inner) */\n      jump\t// in\n        /* \"@openzeppelin/contracts/utils/EnumerableSet.sol\":7677:7833  function at(AddressSet storage set, uint256 index) internal view returns (address) {... */\n    tag_225:\n        /* \"@openzeppelin/contracts/utils/EnumerableSet.sol\":7751:7758  address */\n      0x00\n        /* \"@openzeppelin/contracts/utils/EnumerableSet.sol\":7801:7823  _at(set._inner, index) */\n      tag_132\n        /* \"@openzeppelin/contracts/utils/EnumerableSet.sol\":7805:7808  set */\n      dup4\n        /* \"@openzeppelin/contracts/utils/EnumerableSet.sol\":7817:7822  index */\n      dup4\n        /* \"@openzeppelin/contracts/utils/EnumerableSet.sol\":7801:7804  _at */\n      tag_339\n        /* \"@openzeppelin/contracts/utils/EnumerableSet.sol\":7801:7823  _at(set._inner, index) */\n      jump\t// in\n        /* \"@openzeppelin/contracts/utils/EnumerableSet.sol\":6429:6579  function add(AddressSet storage set, address value) internal returns (bool) {... */\n    tag_246:\n        /* \"@openzeppelin/contracts/utils/EnumerableSet.sol\":6499:6503  bool */\n      0x00\n        /* \"@openzeppelin/contracts/utils/EnumerableSet.sol\":6522:6572  _add(set._inner, bytes32(uint256(uint160(value)))) */\n      tag_132\n        /* \"@openzeppelin/contracts/utils/EnumerableSet.sol\":6527:6530  set */\n      dup4\n      sub(shl(0xa0, 0x01), 0x01)\n        /* \"@openzeppelin/contracts/utils/EnumerableSet.sol\":6547:6570  uint256(uint160(value)) */\n      dup5\n      and\n        /* \"@openzeppelin/contracts/utils/EnumerableSet.sol\":6522:6526  _add */\n      tag_342\n        /* \"@openzeppelin/contracts/utils/EnumerableSet.sol\":6522:6572  _add(set._inner, bytes32(uint256(uint160(value)))) */\n      jump\t// in\n        /* \"@openzeppelin/contracts/math/SafeMath.sol\":3136:3291  function sub(uint256 a, uint256 b) internal pure returns (uint256) {... */\n    tag_258:\n        /* \"@openzeppelin/contracts/math/SafeMath.sol\":3194:3201  uint256 */\n      0x00\n        /* \"@openzeppelin/contracts/math/SafeMath.sol\":3226:3227  a */\n      dup3\n        /* \"@openzeppelin/contracts/math/SafeMath.sol\":3221:3222  b */\n      dup3\n        /* \"@openzeppelin/contracts/math/SafeMath.sol\":3221:3227  b <= a */\n      gt\n      iszero\n        /* \"@openzeppelin/contracts/math/SafeMath.sol\":3213:3262  require(b <= a, \"SafeMath: subtraction overflow\") */\n      tag_344\n      jumpi\n      0x40\n      dup1\n      mload\n      shl(0xe5, 0x461bcd)\n      dup2\n      mstore\n      0x20\n      0x04\n      dup3\n      add\n      mstore\n      0x1e\n      0x24\n      dup3\n      add\n      mstore\n      0x536166654d6174683a207375627472616374696f6e206f766572666c6f770000\n      0x44\n      dup3\n      add\n      mstore\n      swap1\n      mload\n      swap1\n      dup2\n      swap1\n      sub\n      0x64\n      add\n      swap1\n      revert\n    tag_344:\n      pop\n        /* \"@openzeppelin/contracts/math/SafeMath.sol\":3279:3284  a - b */\n      swap1\n      sub\n      swap1\n        /* \"@openzeppelin/contracts/math/SafeMath.sol\":3136:3291  function sub(uint256 a, uint256 b) internal pure returns (uint256) {... */\n      jump\t// out\n        /* \"@openzeppelin/contracts/utils/EnumerableSet.sol\":6984:7149  function contains(AddressSet storage set, address value) internal view returns (bool) {... */\n    tag_265:\n        /* \"@openzeppelin/contracts/utils/EnumerableSet.sol\":7064:7068  bool */\n      0x00\n        /* \"@openzeppelin/contracts/utils/EnumerableSet.sol\":7087:7142  _contains(set._inner, bytes32(uint256(uint160(value)))) */\n      tag_132\n        /* \"@openzeppelin/contracts/utils/EnumerableSet.sol\":7097:7100  set */\n      dup4\n      sub(shl(0xa0, 0x01), 0x01)\n        /* \"@openzeppelin/contracts/utils/EnumerableSet.sol\":7117:7140  uint256(uint160(value)) */\n      dup5\n      and\n        /* \"@openzeppelin/contracts/utils/EnumerableSet.sol\":7087:7096  _contains */\n      tag_347\n        /* \"@openzeppelin/contracts/utils/EnumerableSet.sol\":7087:7142  _contains(set._inner, bytes32(uint256(uint160(value)))) */\n      jump\t// in\n        /* \"@openzeppelin/contracts/token/ERC20/SafeERC20.sol\":885:1088  function safeTransferFrom(IERC20 token, address from, address to, uint256 value) internal {... */\n    tag_279:\n        /* \"@openzeppelin/contracts/token/ERC20/SafeERC20.sol\":1012:1080  abi.encodeWithSelector(token.transferFrom.selector, from, to, value) */\n      0x40\n      dup1\n      mload\n      sub(shl(0xa0, 0x01), 0x01)\n      dup1\n      dup7\n      and\n      0x24\n      dup4\n      add\n      mstore\n      dup5\n      and\n      0x44\n      dup3\n      add\n      mstore\n      0x64\n      dup1\n      dup3\n      add\n      dup5\n      swap1\n      mstore\n      dup3\n      mload\n      dup1\n      dup4\n      sub\n      swap1\n      swap2\n      add\n      dup2\n      mstore\n      0x84\n      swap1\n      swap2\n      add\n      swap1\n      swap2\n      mstore\n      0x20\n      dup2\n      add\n      dup1\n      mload\n      sub(shl(0xe0, 0x01), 0x01)\n      and\n      shl(0xe0, 0x23b872dd)\n      or\n      swap1\n      mstore\n        /* \"@openzeppelin/contracts/token/ERC20/SafeERC20.sol\":985:1081  _callOptionalReturn(token, abi.encodeWithSelector(token.transferFrom.selector, from, to, value)) */\n      tag_157\n      swap1\n        /* \"@openzeppelin/contracts/token/ERC20/SafeERC20.sol\":1005:1010  token */\n      dup6\n      swap1\n        /* \"@openzeppelin/contracts/token/ERC20/SafeERC20.sol\":985:1004  _callOptionalReturn */\n      tag_350\n        /* \"@openzeppelin/contracts/token/ERC20/SafeERC20.sol\":985:1081  _callOptionalReturn(token, abi.encodeWithSelector(token.transferFrom.selector, from, to, value)) */\n      jump\t// in\n        /* \"@openzeppelin/contracts/utils/SafeCast.sol\":1554:1730  function toUint64(uint256 value) internal pure returns (uint64) {... */\n    tag_289:\n        /* \"@openzeppelin/contracts/utils/SafeCast.sol\":1610:1616  uint64 */\n      0x00\n      shl(0x40, 0x01)\n        /* \"@openzeppelin/contracts/utils/SafeCast.sol\":1636:1641  value */\n      dup3\n        /* \"@openzeppelin/contracts/utils/SafeCast.sol\":1636:1649  value < 2**64 */\n      lt\n        /* \"@openzeppelin/contracts/utils/SafeCast.sol\":1628:1693  require(value < 2**64, \"SafeCast: value doesn\\'t fit in 64 bits\") */\n      tag_311\n      jumpi\n      mload(0x40)\n      shl(0xe5, 0x461bcd)\n      dup2\n      mstore\n      0x04\n      add\n      dup1\n      dup1\n      0x20\n      add\n      dup3\n      dup2\n      sub\n      dup3\n      mstore\n      0x26\n      dup2\n      mstore\n      0x20\n      add\n      dup1\n      data_93ae0c6bf6ffaece591a770b1865daa9f65157e541970aa9d8dc5f89a9490939\n      0x26\n      swap2\n      codecopy\n      0x40\n      add\n      swap2\n      pop\n      pop\n      mload(0x40)\n      dup1\n      swap2\n      sub\n      swap1\n      revert\n        /* \"@openzeppelin/contracts/math/SafeMath.sol\":3538:3753  function mul(uint256 a, uint256 b) internal pure returns (uint256) {... */\n    tag_306:\n        /* \"@openzeppelin/contracts/math/SafeMath.sol\":3596:3603  uint256 */\n      0x00\n        /* \"@openzeppelin/contracts/math/SafeMath.sol\":3619:3625  a == 0 */\n      dup3\n        /* \"@openzeppelin/contracts/math/SafeMath.sol\":3615:3635  if (a == 0) return 0 */\n      tag_354\n      jumpi\n      pop\n        /* \"@openzeppelin/contracts/math/SafeMath.sol\":3634:3635  0 */\n      0x00\n        /* \"@openzeppelin/contracts/math/SafeMath.sol\":3627:3635  return 0 */\n      jump(tag_133)\n        /* \"@openzeppelin/contracts/math/SafeMath.sol\":3615:3635  if (a == 0) return 0 */\n    tag_354:\n        /* \"@openzeppelin/contracts/math/SafeMath.sol\":3657:3662  a * b */\n      dup3\n      dup3\n      mul\n        /* \"@openzeppelin/contracts/math/SafeMath.sol\":3661:3662  b */\n      dup3\n        /* \"@openzeppelin/contracts/math/SafeMath.sol\":3657:3658  a */\n      dup5\n        /* \"@openzeppelin/contracts/math/SafeMath.sol\":3657:3662  a * b */\n      dup3\n        /* \"@openzeppelin/contracts/math/SafeMath.sol\":3657:3658  a */\n      dup2\n        /* \"@openzeppelin/contracts/math/SafeMath.sol\":3680:3685  c / a */\n      tag_355\n      jumpi\n      invalid\n    tag_355:\n      div\n        /* \"@openzeppelin/contracts/math/SafeMath.sol\":3680:3690  c / a == b */\n      eq\n        /* \"@openzeppelin/contracts/math/SafeMath.sol\":3672:3728  require(c / a == b, \"SafeMath: multiplication overflow\") */\n      tag_132\n      jumpi\n      mload(0x40)\n      shl(0xe5, 0x461bcd)\n      dup2\n      mstore\n      0x04\n      add\n      dup1\n      dup1\n      0x20\n      add\n      dup3\n      dup2\n      sub\n      dup3\n      mstore\n      0x21\n      dup2\n      mstore\n      0x20\n      add\n      dup1\n      data_9113bb53c2876a3805b2c9242029423fc540a728243ce887ab24c82cf119fba3\n      0x21\n      swap2\n      codecopy\n      0x40\n      add\n      swap2\n      pop\n      pop\n      mload(0x40)\n      dup1\n      swap2\n      sub\n      swap1\n      revert\n        /* \"@openzeppelin/contracts/math/SafeMath.sol\":4217:4367  function div(uint256 a, uint256 b) internal pure returns (uint256) {... */\n    tag_307:\n        /* \"@openzeppelin/contracts/math/SafeMath.sol\":4275:4282  uint256 */\n      0x00\n        /* \"@openzeppelin/contracts/math/SafeMath.sol\":4306:4307  0 */\n      dup1\n        /* \"@openzeppelin/contracts/math/SafeMath.sol\":4302:4303  b */\n      dup3\n        /* \"@openzeppelin/contracts/math/SafeMath.sol\":4302:4307  b > 0 */\n      gt\n        /* \"@openzeppelin/contracts/math/SafeMath.sol\":4294:4338  require(b > 0, \"SafeMath: division by zero\") */\n      tag_358\n      jumpi\n      0x40\n      dup1\n      mload\n      shl(0xe5, 0x461bcd)\n      dup2\n      mstore\n      0x20\n      0x04\n      dup3\n      add\n      mstore\n      0x1a\n      0x24\n      dup3\n      add\n      mstore\n      0x536166654d6174683a206469766973696f6e206279207a65726f000000000000\n      0x44\n      dup3\n      add\n      mstore\n      swap1\n      mload\n      swap1\n      dup2\n      swap1\n      sub\n      0x64\n      add\n      swap1\n      revert\n    tag_358:\n        /* \"@openzeppelin/contracts/math/SafeMath.sol\":4359:4360  b */\n      dup2\n        /* \"@openzeppelin/contracts/math/SafeMath.sol\":4355:4356  a */\n      dup4\n        /* \"@openzeppelin/contracts/math/SafeMath.sol\":4355:4360  a / b */\n      dup2\n      tag_359\n      jumpi\n      invalid\n    tag_359:\n      div\n      swap4\n        /* \"@openzeppelin/contracts/math/SafeMath.sol\":4217:4367  function div(uint256 a, uint256 b) internal pure returns (uint256) {... */\n      swap3\n      pop\n      pop\n      pop\n      jump\t// out\n        /* \"@openzeppelin/contracts/token/ERC20/SafeERC20.sol\":704:879  function safeTransfer(IERC20 token, address to, uint256 value) internal {... */\n    tag_329:\n        /* \"@openzeppelin/contracts/token/ERC20/SafeERC20.sol\":813:871  abi.encodeWithSelector(token.transfer.selector, to, value) */\n      0x40\n      dup1\n      mload\n      sub(shl(0xa0, 0x01), 0x01)\n      dup5\n      and\n      0x24\n      dup3\n      add\n      mstore\n      0x44\n      dup1\n      dup3\n      add\n      dup5\n      swap1\n      mstore\n      dup3\n      mload\n      dup1\n      dup4\n      sub\n      swap1\n      swap2\n      add\n      dup2\n      mstore\n      0x64\n      swap1\n      swap2\n      add\n      swap1\n      swap2\n      mstore\n      0x20\n      dup2\n      add\n      dup1\n      mload\n      sub(shl(0xe0, 0x01), 0x01)\n      and\n      shl(0xe0, 0xa9059cbb)\n      or\n      swap1\n      mstore\n        /* \"@openzeppelin/contracts/token/ERC20/SafeERC20.sol\":786:872  _callOptionalReturn(token, abi.encodeWithSelector(token.transfer.selector, to, value)) */\n      tag_361\n      swap1\n        /* \"@openzeppelin/contracts/token/ERC20/SafeERC20.sol\":806:811  token */\n      dup5\n      swap1\n        /* \"@openzeppelin/contracts/token/ERC20/SafeERC20.sol\":786:805  _callOptionalReturn */\n      tag_350\n        /* \"@openzeppelin/contracts/token/ERC20/SafeERC20.sol\":786:872  _callOptionalReturn(token, abi.encodeWithSelector(token.transfer.selector, to, value)) */\n      jump\t// in\n    tag_361:\n        /* \"@openzeppelin/contracts/token/ERC20/SafeERC20.sol\":704:879  function safeTransfer(IERC20 token, address to, uint256 value) internal {... */\n      pop\n      pop\n      pop\n      jump\t// out\n        /* \"@openzeppelin/contracts/utils/EnumerableSet.sol\":2212:3724  function _remove(Set storage set, bytes32 value) private returns (bool) {... */\n    tag_333:\n        /* \"@openzeppelin/contracts/utils/EnumerableSet.sol\":2278:2282  bool */\n      0x00\n        /* \"@openzeppelin/contracts/utils/EnumerableSet.sol\":2415:2434  set._indexes[value] */\n      dup2\n      dup2\n      mstore\n        /* \"@openzeppelin/contracts/utils/EnumerableSet.sol\":2415:2427  set._indexes */\n      0x01\n      dup4\n      add\n        /* \"@openzeppelin/contracts/utils/EnumerableSet.sol\":2415:2434  set._indexes[value] */\n      0x20\n      mstore\n      0x40\n      dup2\n      keccak256\n      sload\n        /* \"@openzeppelin/contracts/utils/EnumerableSet.sol\":2449:2464  valueIndex != 0 */\n      dup1\n      iszero\n        /* \"@openzeppelin/contracts/utils/EnumerableSet.sol\":2445:3718  if (valueIndex != 0) { // Equivalent to contains(set, value)... */\n      tag_363\n      jumpi\n        /* \"@openzeppelin/contracts/utils/EnumerableSet.sol\":2878:2896  set._values.length */\n      dup4\n      sload\n      not(0x00)\n        /* \"@openzeppelin/contracts/utils/EnumerableSet.sol\":2830:2844  valueIndex - 1 */\n      dup1\n      dup4\n      add\n      swap2\n        /* \"@openzeppelin/contracts/utils/EnumerableSet.sol\":2878:2900  set._values.length - 1 */\n      swap1\n      dup2\n      add\n      swap1\n        /* \"@openzeppelin/contracts/utils/EnumerableSet.sol\":2806:2827  uint256 toDeleteIndex */\n      0x00\n      swap1\n        /* \"@openzeppelin/contracts/utils/EnumerableSet.sol\":2878:2881  set */\n      dup8\n      swap1\n        /* \"@openzeppelin/contracts/utils/EnumerableSet.sol\":2878:2900  set._values.length - 1 */\n      dup4\n      swap1\n        /* \"@openzeppelin/contracts/utils/EnumerableSet.sol\":3160:3182  set._values[lastIndex] */\n      dup2\n      lt\n      tag_364\n      jumpi\n      invalid\n    tag_364:\n      swap1\n      0x00\n      mstore\n      keccak256(0x00, 0x20)\n      add\n      sload\n        /* \"@openzeppelin/contracts/utils/EnumerableSet.sol\":3140:3182  bytes32 lastvalue = set._values[lastIndex] */\n      swap1\n      pop\n        /* \"@openzeppelin/contracts/utils/EnumerableSet.sol\":3303:3312  lastvalue */\n      dup1\n        /* \"@openzeppelin/contracts/utils/EnumerableSet.sol\":3274:3277  set */\n      dup8\n        /* \"@openzeppelin/contracts/utils/EnumerableSet.sol\":3274:3285  set._values */\n      0x00\n      add\n        /* \"@openzeppelin/contracts/utils/EnumerableSet.sol\":3286:3299  toDeleteIndex */\n      dup5\n        /* \"@openzeppelin/contracts/utils/EnumerableSet.sol\":3274:3300  set._values[toDeleteIndex] */\n      dup2\n      sload\n      dup2\n      lt\n      tag_366\n      jumpi\n      invalid\n    tag_366:\n      0x00\n      swap2\n      dup3\n      mstore\n      0x20\n      dup1\n      dup4\n      keccak256\n      swap1\n      swap2\n      add\n        /* \"@openzeppelin/contracts/utils/EnumerableSet.sol\":3274:3312  set._values[toDeleteIndex] = lastvalue */\n      swap3\n      swap1\n      swap3\n      sstore\n        /* \"@openzeppelin/contracts/utils/EnumerableSet.sol\":3378:3401  set._indexes[lastvalue] */\n      dup3\n      dup2\n      mstore\n        /* \"@openzeppelin/contracts/utils/EnumerableSet.sol\":3420:3421  1 */\n      0x01\n        /* \"@openzeppelin/contracts/utils/EnumerableSet.sol\":3378:3390  set._indexes */\n      dup10\n      dup2\n      add\n        /* \"@openzeppelin/contracts/utils/EnumerableSet.sol\":3378:3401  set._indexes[lastvalue] */\n      swap1\n      swap3\n      mstore\n      0x40\n      swap1\n      keccak256\n        /* \"@openzeppelin/contracts/utils/EnumerableSet.sol\":3404:3421  toDeleteIndex + 1 */\n      swap1\n      dup5\n      add\n        /* \"@openzeppelin/contracts/utils/EnumerableSet.sol\":3378:3421  set._indexes[lastvalue] = toDeleteIndex + 1 */\n      swap1\n      sstore\n        /* \"@openzeppelin/contracts/utils/EnumerableSet.sol\":3527:3544  set._values.pop() */\n      dup7\n      sload\n        /* \"@openzeppelin/contracts/utils/EnumerableSet.sol\":3378:3381  set */\n      dup8\n      swap1\n        /* \"@openzeppelin/contracts/utils/EnumerableSet.sol\":3527:3544  set._values.pop() */\n      dup1\n      tag_368\n      jumpi\n      invalid\n    tag_368:\n      0x01\n      swap1\n      sub\n      dup2\n      dup2\n      swap1\n      0x00\n      mstore\n      keccak256(0x00, 0x20)\n      add\n      0x00\n      swap1\n      sstore\n      swap1\n      sstore\n        /* \"@openzeppelin/contracts/utils/EnumerableSet.sol\":3619:3622  set */\n      dup7\n        /* \"@openzeppelin/contracts/utils/EnumerableSet.sol\":3619:3631  set._indexes */\n      0x01\n      add\n        /* \"@openzeppelin/contracts/utils/EnumerableSet.sol\":3619:3638  set._indexes[value] */\n      0x00\n        /* \"@openzeppelin/contracts/utils/EnumerableSet.sol\":3632:3637  value */\n      dup8\n        /* \"@openzeppelin/contracts/utils/EnumerableSet.sol\":3619:3638  set._indexes[value] */\n      dup2\n      mstore\n      0x20\n      add\n      swap1\n      dup2\n      mstore\n      0x20\n      add\n      0x00\n      keccak256\n        /* \"@openzeppelin/contracts/utils/EnumerableSet.sol\":3612:3638  delete set._indexes[value] */\n      0x00\n      swap1\n      sstore\n        /* \"@openzeppelin/contracts/utils/EnumerableSet.sol\":3660:3664  true */\n      0x01\n        /* \"@openzeppelin/contracts/utils/EnumerableSet.sol\":3653:3664  return true */\n      swap5\n      pop\n      pop\n      pop\n      pop\n      pop\n      jump(tag_133)\n        /* \"@openzeppelin/contracts/utils/EnumerableSet.sol\":2445:3718  if (valueIndex != 0) { // Equivalent to contains(set, value)... */\n    tag_363:\n        /* \"@openzeppelin/contracts/utils/EnumerableSet.sol\":3702:3707  false */\n      0x00\n        /* \"@openzeppelin/contracts/utils/EnumerableSet.sol\":3695:3707  return false */\n      swap2\n      pop\n      pop\n      jump(tag_133)\n        /* \"@openzeppelin/contracts/utils/EnumerableSet.sol\":4013:4120  function _length(Set storage set) private view returns (uint256) {... */\n    tag_336:\n        /* \"@openzeppelin/contracts/utils/EnumerableSet.sol\":4095:4113  set._values.length */\n      sload\n      swap1\n        /* \"@openzeppelin/contracts/utils/EnumerableSet.sol\":4013:4120  function _length(Set storage set) private view returns (uint256) {... */\n      jump\t// out\n        /* \"@openzeppelin/contracts/utils/EnumerableSet.sol\":4452:4653  function _at(Set storage set, uint256 index) private view returns (bytes32) {... */\n    tag_339:\n        /* \"@openzeppelin/contracts/utils/EnumerableSet.sol\":4546:4564  set._values.length */\n      dup2\n      sload\n        /* \"@openzeppelin/contracts/utils/EnumerableSet.sol\":4519:4526  bytes32 */\n      0x00\n      swap1\n        /* \"@openzeppelin/contracts/utils/EnumerableSet.sol\":4546:4572  set._values.length > index */\n      dup3\n      lt\n        /* \"@openzeppelin/contracts/utils/EnumerableSet.sol\":4538:4611  require(set._values.length > index, \"EnumerableSet: index out of bounds\") */\n      tag_373\n      jumpi\n      mload(0x40)\n      shl(0xe5, 0x461bcd)\n      dup2\n      mstore\n      0x04\n      add\n      dup1\n      dup1\n      0x20\n      add\n      dup3\n      dup2\n      sub\n      dup3\n      mstore\n      0x22\n      dup2\n      mstore\n      0x20\n      add\n      dup1\n      data_045d6834e6193a687012a3ad777f612279e549b6945364d9d2324f48610d3cbb\n      0x22\n      swap2\n      codecopy\n      0x40\n      add\n      swap2\n      pop\n      pop\n      mload(0x40)\n      dup1\n      swap2\n      sub\n      swap1\n      revert\n    tag_373:\n        /* \"@openzeppelin/contracts/utils/EnumerableSet.sol\":4628:4631  set */\n      dup3\n        /* \"@openzeppelin/contracts/utils/EnumerableSet.sol\":4628:4639  set._values */\n      0x00\n      add\n        /* \"@openzeppelin/contracts/utils/EnumerableSet.sol\":4640:4645  index */\n      dup3\n        /* \"@openzeppelin/contracts/utils/EnumerableSet.sol\":4628:4646  set._values[index] */\n      dup2\n      sload\n      dup2\n      lt\n      tag_374\n      jumpi\n      invalid\n    tag_374:\n      swap1\n      0x00\n      mstore\n      keccak256(0x00, 0x20)\n      add\n      sload\n        /* \"@openzeppelin/contracts/utils/EnumerableSet.sol\":4621:4646  return set._values[index] */\n      swap1\n      pop\n        /* \"@openzeppelin/contracts/utils/EnumerableSet.sol\":4452:4653  function _at(Set storage set, uint256 index) private view returns (bytes32) {... */\n      swap3\n      swap2\n      pop\n      pop\n      jump\t// out\n        /* \"@openzeppelin/contracts/utils/EnumerableSet.sol\":1640:2044  function _add(Set storage set, bytes32 value) private returns (bool) {... */\n    tag_342:\n        /* \"@openzeppelin/contracts/utils/EnumerableSet.sol\":1703:1707  bool */\n      0x00\n        /* \"@openzeppelin/contracts/utils/EnumerableSet.sol\":1724:1745  _contains(set, value) */\n      tag_377\n        /* \"@openzeppelin/contracts/utils/EnumerableSet.sol\":1734:1737  set */\n      dup4\n        /* \"@openzeppelin/contracts/utils/EnumerableSet.sol\":1739:1744  value */\n      dup4\n        /* \"@openzeppelin/contracts/utils/EnumerableSet.sol\":1724:1733  _contains */\n      tag_347\n        /* \"@openzeppelin/contracts/utils/EnumerableSet.sol\":1724:1745  _contains(set, value) */\n      jump\t// in\n    tag_377:\n        /* \"@openzeppelin/contracts/utils/EnumerableSet.sol\":1719:2038  if (!_contains(set, value)) {... */\n      tag_378\n      jumpi\n      pop\n        /* \"@openzeppelin/contracts/utils/EnumerableSet.sol\":1761:1784  set._values.push(value) */\n      dup2\n      sload\n      0x01\n      dup2\n      dup2\n      add\n      dup5\n      sstore\n        /* \"@openzeppelin/contracts/utils/EnumerableSet.sol\":1761:1772  set._values */\n      0x00\n        /* \"@openzeppelin/contracts/utils/EnumerableSet.sol\":1761:1784  set._values.push(value) */\n      dup5\n      dup2\n      mstore\n      0x20\n      dup1\n      dup3\n      keccak256\n      swap1\n      swap4\n      add\n      dup5\n      swap1\n      sstore\n        /* \"@openzeppelin/contracts/utils/EnumerableSet.sol\":1941:1959  set._values.length */\n      dup5\n      sload\n        /* \"@openzeppelin/contracts/utils/EnumerableSet.sol\":1919:1938  set._indexes[value] */\n      dup5\n      dup3\n      mstore\n        /* \"@openzeppelin/contracts/utils/EnumerableSet.sol\":1919:1931  set._indexes */\n      dup3\n      dup7\n      add\n        /* \"@openzeppelin/contracts/utils/EnumerableSet.sol\":1919:1938  set._indexes[value] */\n      swap1\n      swap4\n      mstore\n      0x40\n      swap1\n      keccak256\n        /* \"@openzeppelin/contracts/utils/EnumerableSet.sol\":1919:1959  set._indexes[value] = set._values.length */\n      swap2\n      swap1\n      swap2\n      sstore\n        /* \"@openzeppelin/contracts/utils/EnumerableSet.sol\":1973:1984  return true */\n      jump(tag_133)\n        /* \"@openzeppelin/contracts/utils/EnumerableSet.sol\":1719:2038  if (!_contains(set, value)) {... */\n    tag_378:\n      pop\n        /* \"@openzeppelin/contracts/utils/EnumerableSet.sol\":2022:2027  false */\n      0x00\n        /* \"@openzeppelin/contracts/utils/EnumerableSet.sol\":2015:2027  return false */\n      jump(tag_133)\n        /* \"@openzeppelin/contracts/utils/EnumerableSet.sol\":3805:3932  function _contains(Set storage set, bytes32 value) private view returns (bool) {... */\n    tag_347:\n        /* \"@openzeppelin/contracts/utils/EnumerableSet.sol\":3878:3882  bool */\n      0x00\n        /* \"@openzeppelin/contracts/utils/EnumerableSet.sol\":3901:3920  set._indexes[value] */\n      swap1\n      dup2\n      mstore\n        /* \"@openzeppelin/contracts/utils/EnumerableSet.sol\":3901:3913  set._indexes */\n      0x01\n      swap2\n      swap1\n      swap2\n      add\n        /* \"@openzeppelin/contracts/utils/EnumerableSet.sol\":3901:3920  set._indexes[value] */\n      0x20\n      mstore\n      0x40\n      swap1\n      keccak256\n      sload\n        /* \"@openzeppelin/contracts/utils/EnumerableSet.sol\":3901:3925  set._indexes[value] != 0 */\n      iszero\n      iszero\n      swap1\n        /* \"@openzeppelin/contracts/utils/EnumerableSet.sol\":3805:3932  function _contains(Set storage set, bytes32 value) private view returns (bool) {... */\n      jump\t// out\n        /* \"@openzeppelin/contracts/token/ERC20/SafeERC20.sol\":2967:3718  function _callOptionalReturn(IERC20 token, bytes memory data) private {... */\n    tag_350:\n        /* \"@openzeppelin/contracts/token/ERC20/SafeERC20.sol\":3386:3409  bytes memory returndata */\n      0x00\n        /* \"@openzeppelin/contracts/token/ERC20/SafeERC20.sol\":3412:3481  address(token).functionCall(data, \"SafeERC20: low-level call failed\") */\n      tag_383\n        /* \"@openzeppelin/contracts/token/ERC20/SafeERC20.sol\":3440:3444  data */\n      dup3\n        /* \"@openzeppelin/contracts/token/ERC20/SafeERC20.sol\":3412:3481  address(token).functionCall(data, \"SafeERC20: low-level call failed\") */\n      mload(0x40)\n      dup1\n      0x40\n      add\n      0x40\n      mstore\n      dup1\n      0x20\n      dup2\n      mstore\n      0x20\n      add\n      0x5361666545524332303a206c6f772d6c6576656c2063616c6c206661696c6564\n      dup2\n      mstore\n      pop\n        /* \"@openzeppelin/contracts/token/ERC20/SafeERC20.sol\":3420:3425  token */\n      dup6\n      sub(shl(0xa0, 0x01), 0x01)\n        /* \"@openzeppelin/contracts/token/ERC20/SafeERC20.sol\":3412:3439  address(token).functionCall */\n      and\n      tag_384\n      swap1\n        /* \"@openzeppelin/contracts/token/ERC20/SafeERC20.sol\":3412:3481  address(token).functionCall(data, \"SafeERC20: low-level call failed\") */\n      swap3\n      swap2\n      swap1\n      0xffffffff\n      and\n      jump\t// in\n    tag_383:\n        /* \"@openzeppelin/contracts/token/ERC20/SafeERC20.sol\":3495:3512  returndata.length */\n      dup1\n      mload\n        /* \"@openzeppelin/contracts/token/ERC20/SafeERC20.sol\":3386:3481  bytes memory returndata = address(token).functionCall(data, \"SafeERC20: low-level call failed\") */\n      swap1\n      swap2\n      pop\n        /* \"@openzeppelin/contracts/token/ERC20/SafeERC20.sol\":3495:3516  returndata.length > 0 */\n      iszero\n        /* \"@openzeppelin/contracts/token/ERC20/SafeERC20.sol\":3491:3712  if (returndata.length > 0) { // Return data is optional... */\n      tag_361\n      jumpi\n        /* \"@openzeppelin/contracts/token/ERC20/SafeERC20.sol\":3635:3645  returndata */\n      dup1\n        /* \"@openzeppelin/contracts/token/ERC20/SafeERC20.sol\":3624:3654  abi.decode(returndata, (bool)) */\n      dup1\n      0x20\n      add\n      swap1\n      mload\n      0x20\n      dup2\n      lt\n      iszero\n      tag_386\n      jumpi\n      0x00\n      dup1\n      revert\n    tag_386:\n      pop\n      mload\n        /* \"@openzeppelin/contracts/token/ERC20/SafeERC20.sol\":3616:3701  require(abi.decode(returndata, (bool)), \"SafeERC20: ERC20 operation did not succeed\") */\n      tag_361\n      jumpi\n      mload(0x40)\n      shl(0xe5, 0x461bcd)\n      dup2\n      mstore\n      0x04\n      add\n      dup1\n      dup1\n      0x20\n      add\n      dup3\n      dup2\n      sub\n      dup3\n      mstore\n      0x2a\n      dup2\n      mstore\n      0x20\n      add\n      dup1\n      data_e11ad79d1e4a7f2e5f376964cb99e8e8f7904e3fc16a109f7a7ecb9aa7956dcd\n      0x2a\n      swap2\n      codecopy\n      0x40\n      add\n      swap2\n      pop\n      pop\n      mload(0x40)\n      dup1\n      swap2\n      sub\n      swap1\n      revert\n        /* \"@openzeppelin/contracts/utils/Address.sol\":3581:3774  function functionCall(address target, bytes memory data, string memory errorMessage) internal returns (bytes memory) {... */\n    tag_384:\n        /* \"@openzeppelin/contracts/utils/Address.sol\":3684:3696  bytes memory */\n      0x60\n        /* \"@openzeppelin/contracts/utils/Address.sol\":3715:3767  functionCallWithValue(target, data, 0, errorMessage) */\n      tag_389\n        /* \"@openzeppelin/contracts/utils/Address.sol\":3737:3743  target */\n      dup5\n        /* \"@openzeppelin/contracts/utils/Address.sol\":3745:3749  data */\n      dup5\n        /* \"@openzeppelin/contracts/utils/Address.sol\":3751:3752  0 */\n      0x00\n        /* \"@openzeppelin/contracts/utils/Address.sol\":3754:3766  errorMessage */\n      dup6\n        /* \"@openzeppelin/contracts/utils/Address.sol\":3715:3736  functionCallWithValue */\n      tag_390\n        /* \"@openzeppelin/contracts/utils/Address.sol\":3715:3767  functionCallWithValue(target, data, 0, errorMessage) */\n      jump\t// in\n    tag_389:\n        /* \"@openzeppelin/contracts/utils/Address.sol\":3708:3767  return functionCallWithValue(target, data, 0, errorMessage) */\n      swap5\n        /* \"@openzeppelin/contracts/utils/Address.sol\":3581:3774  function functionCall(address target, bytes memory data, string memory errorMessage) internal returns (bytes memory) {... */\n      swap4\n      pop\n      pop\n      pop\n      pop\n      jump\t// out\n        /* \"@openzeppelin/contracts/utils/Address.sol\":4608:5131  function functionCallWithValue(address target, bytes memory data, uint256 value, string memory errorMessage) internal returns (bytes memory) {... */\n    tag_390:\n        /* \"@openzeppelin/contracts/utils/Address.sol\":4735:4747  bytes memory */\n      0x60\n        /* \"@openzeppelin/contracts/utils/Address.sol\":4792:4797  value */\n      dup3\n        /* \"@openzeppelin/contracts/utils/Address.sol\":4767:4788  address(this).balance */\n      selfbalance\n        /* \"@openzeppelin/contracts/utils/Address.sol\":4767:4797  address(this).balance >= value */\n      lt\n      iszero\n        /* \"@openzeppelin/contracts/utils/Address.sol\":4759:4840  require(address(this).balance >= value, \"Address: insufficient balance for call\") */\n      tag_392\n      jumpi\n      mload(0x40)\n      shl(0xe5, 0x461bcd)\n      dup2\n      mstore\n      0x04\n      add\n      dup1\n      dup1\n      0x20\n      add\n      dup3\n      dup2\n      sub\n      dup3\n      mstore\n      0x26\n      dup2\n      mstore\n      0x20\n      add\n      dup1\n      data_565f1a77334fc4792800921178c71e4521acffab18ff9e7885b49377ee80ab4c\n      0x26\n      swap2\n      codecopy\n      0x40\n      add\n      swap2\n      pop\n      pop\n      mload(0x40)\n      dup1\n      swap2\n      sub\n      swap1\n      revert\n    tag_392:\n        /* \"@openzeppelin/contracts/utils/Address.sol\":4858:4876  isContract(target) */\n      tag_393\n        /* \"@openzeppelin/contracts/utils/Address.sol\":4869:4875  target */\n      dup6\n        /* \"@openzeppelin/contracts/utils/Address.sol\":4858:4868  isContract */\n      tag_394\n        /* \"@openzeppelin/contracts/utils/Address.sol\":4858:4876  isContract(target) */\n      jump\t// in\n    tag_393:\n        /* \"@openzeppelin/contracts/utils/Address.sol\":4850:4910  require(isContract(target), \"Address: call to non-contract\") */\n      tag_395\n      jumpi\n      0x40\n      dup1\n      mload\n      shl(0xe5, 0x461bcd)\n      dup2\n      mstore\n      0x20\n      0x04\n      dup3\n      add\n      mstore\n      0x1d\n      0x24\n      dup3\n      add\n      mstore\n      0x416464726573733a2063616c6c20746f206e6f6e2d636f6e7472616374000000\n      0x44\n      dup3\n      add\n      mstore\n      swap1\n      mload\n      swap1\n      dup2\n      swap1\n      sub\n      0x64\n      add\n      swap1\n      revert\n    tag_395:\n        /* \"@openzeppelin/contracts/utils/Address.sol\":4981:4993  bool success */\n      0x00\n        /* \"@openzeppelin/contracts/utils/Address.sol\":4995:5018  bytes memory returndata */\n      dup1\n        /* \"@openzeppelin/contracts/utils/Address.sol\":5022:5028  target */\n      dup7\n      sub(shl(0xa0, 0x01), 0x01)\n        /* \"@openzeppelin/contracts/utils/Address.sol\":5022:5033  target.call */\n      and\n        /* \"@openzeppelin/contracts/utils/Address.sol\":5042:5047  value */\n      dup6\n        /* \"@openzeppelin/contracts/utils/Address.sol\":5050:5054  data */\n      dup8\n        /* \"@openzeppelin/contracts/utils/Address.sol\":5022:5055  target.call{ value: value }(data) */\n      mload(0x40)\n      dup1\n      dup3\n      dup1\n      mload\n      swap1\n      0x20\n      add\n      swap1\n      dup1\n      dup4\n      dup4\n    tag_396:\n      0x20\n      dup4\n      lt\n      tag_398\n      jumpi\n      dup1\n      mload\n      dup3\n      mstore\n      not(0x1f)\n      swap1\n      swap3\n      add\n      swap2\n      0x20\n      swap2\n      dup3\n      add\n      swap2\n      add\n      jump(tag_396)\n    tag_398:\n      0x01\n      dup4\n      0x20\n      sub\n      0x0100\n      exp\n      sub\n      dup1\n      not\n      dup3\n      mload\n      and\n      dup2\n      dup5\n      mload\n      and\n      dup1\n      dup3\n      or\n      dup6\n      mstore\n      pop\n      pop\n      pop\n      pop\n      pop\n      pop\n      swap1\n      pop\n      add\n      swap2\n      pop\n      pop\n      0x00\n      mload(0x40)\n      dup1\n      dup4\n      sub\n      dup2\n      dup6\n      dup8\n      gas\n      call\n      swap3\n      pop\n      pop\n      pop\n      returndatasize\n      dup1\n      0x00\n      dup2\n      eq\n      tag_401\n      jumpi\n      mload(0x40)\n      swap2\n      pop\n      and(add(returndatasize, 0x3f), not(0x1f))\n      dup3\n      add\n      0x40\n      mstore\n      returndatasize\n      dup3\n      mstore\n      returndatasize\n      0x00\n      0x20\n      dup5\n      add\n      returndatacopy\n      jump(tag_400)\n    tag_401:\n      0x60\n      swap2\n      pop\n    tag_400:\n      pop\n        /* \"@openzeppelin/contracts/utils/Address.sol\":4980:5055  (bool success, bytes memory returndata) = target.call{ value: value }(data) */\n      swap2\n      pop\n      swap2\n      pop\n        /* \"@openzeppelin/contracts/utils/Address.sol\":5072:5124  _verifyCallResult(success, returndata, errorMessage) */\n      tag_402\n        /* \"@openzeppelin/contracts/utils/Address.sol\":5090:5097  success */\n      dup3\n        /* \"@openzeppelin/contracts/utils/Address.sol\":5099:5109  returndata */\n      dup3\n        /* \"@openzeppelin/contracts/utils/Address.sol\":5111:5123  errorMessage */\n      dup7\n        /* \"@openzeppelin/contracts/utils/Address.sol\":5072:5089  _verifyCallResult */\n      tag_403\n        /* \"@openzeppelin/contracts/utils/Address.sol\":5072:5124  _verifyCallResult(success, returndata, errorMessage) */\n      jump\t// in\n    tag_402:\n        /* \"@openzeppelin/contracts/utils/Address.sol\":5065:5124  return _verifyCallResult(success, returndata, errorMessage) */\n      swap8\n        /* \"@openzeppelin/contracts/utils/Address.sol\":4608:5131  function functionCallWithValue(address target, bytes memory data, uint256 value, string memory errorMessage) internal returns (bytes memory) {... */\n      swap7\n      pop\n      pop\n      pop\n      pop\n      pop\n      pop\n      pop\n      jump\t// out\n        /* \"@openzeppelin/contracts/utils/Address.sol\":726:1139  function isContract(address account) internal view returns (bool) {... */\n    tag_394:\n        /* \"@openzeppelin/contracts/utils/Address.sol\":1086:1106  extcodesize(account) */\n      extcodesize\n        /* \"@openzeppelin/contracts/utils/Address.sol\":1124:1132  size > 0 */\n      iszero\n      iszero\n      swap1\n        /* \"@openzeppelin/contracts/utils/Address.sol\":726:1139  function isContract(address account) internal view returns (bool) {... */\n      jump\t// out\n        /* \"@openzeppelin/contracts/utils/Address.sol\":7091:7816  function _verifyCallResult(bool success, bytes memory returndata, string memory errorMessage) private pure returns(bytes memory) {... */\n    tag_403:\n        /* \"@openzeppelin/contracts/utils/Address.sol\":7206:7218  bytes memory */\n      0x60\n        /* \"@openzeppelin/contracts/utils/Address.sol\":7234:7241  success */\n      dup4\n        /* \"@openzeppelin/contracts/utils/Address.sol\":7230:7810  if (success) {... */\n      iszero\n      tag_406\n      jumpi\n      pop\n        /* \"@openzeppelin/contracts/utils/Address.sol\":7264:7274  returndata */\n      dup2\n        /* \"@openzeppelin/contracts/utils/Address.sol\":7257:7274  return returndata */\n      jump(tag_132)\n        /* \"@openzeppelin/contracts/utils/Address.sol\":7230:7810  if (success) {... */\n    tag_406:\n        /* \"@openzeppelin/contracts/utils/Address.sol\":7375:7392  returndata.length */\n      dup3\n      mload\n        /* \"@openzeppelin/contracts/utils/Address.sol\":7375:7396  returndata.length > 0 */\n      iszero\n        /* \"@openzeppelin/contracts/utils/Address.sol\":7371:7800  if (returndata.length > 0) {... */\n      tag_408\n      jumpi\n        /* \"@openzeppelin/contracts/utils/Address.sol\":7633:7643  returndata */\n      dup3\n        /* \"@openzeppelin/contracts/utils/Address.sol\":7627:7644  mload(returndata) */\n      mload\n        /* \"@openzeppelin/contracts/utils/Address.sol\":7693:7708  returndata_size */\n      dup1\n        /* \"@openzeppelin/contracts/utils/Address.sol\":7680:7690  returndata */\n      dup5\n        /* \"@openzeppelin/contracts/utils/Address.sol\":7676:7678  32 */\n      0x20\n        /* \"@openzeppelin/contracts/utils/Address.sol\":7672:7691  add(32, returndata) */\n      add\n        /* \"@openzeppelin/contracts/utils/Address.sol\":7665:7709  revert(add(32, returndata), returndata_size) */\n      revert\n        /* \"@openzeppelin/contracts/utils/Address.sol\":7582:7727  {... */\n    tag_408:\n        /* \"@openzeppelin/contracts/utils/Address.sol\":7772:7784  errorMessage */\n      dup2\n        /* \"@openzeppelin/contracts/utils/Address.sol\":7765:7785  revert(errorMessage) */\n      mload(0x40)\n      shl(0xe5, 0x461bcd)\n      dup2\n      mstore\n      0x04\n      add\n      dup1\n      dup1\n      0x20\n      add\n      dup3\n      dup2\n      sub\n      dup3\n      mstore\n      dup4\n      dup2\n      dup2\n      mload\n      dup2\n      mstore\n      0x20\n      add\n      swap2\n      pop\n      dup1\n      mload\n      swap1\n      0x20\n      add\n      swap1\n      dup1\n      dup4\n      dup4\n      0x00\n    tag_410:\n      dup4\n      dup2\n      lt\n      iszero\n      tag_412\n      jumpi\n      dup2\n      dup2\n      add\n      mload\n      dup4\n      dup3\n      add\n      mstore\n      0x20\n      add\n      jump(tag_410)\n    tag_412:\n      pop\n      pop\n      pop\n      pop\n      swap1\n      pop\n      swap1\n      dup2\n      add\n      swap1\n      0x1f\n      and\n      dup1\n      iszero\n      tag_413\n      jumpi\n      dup1\n      dup3\n      sub\n      dup1\n      mload\n      0x01\n      dup4\n      0x20\n      sub\n      0x0100\n      exp\n      sub\n      not\n      and\n      dup2\n      mstore\n      0x20\n      add\n      swap2\n      pop\n    tag_413:\n      pop\n      swap3\n      pop\n      pop\n      pop\n      mload(0x40)\n      dup1\n      swap2\n      sub\n      swap1\n      revert\n    tag_131:\n      0x40\n      dup1\n      mload\n      0x80\n      dup2\n      add\n      dup3\n      mstore\n      0x00\n      dup1\n      dup3\n      mstore\n      0x20\n      dup3\n      add\n      dup2\n      swap1\n      mstore\n      swap2\n      dup2\n      add\n      dup3\n      swap1\n      mstore\n      0x60\n      dup2\n      add\n      swap2\n      swap1\n      swap2\n      mstore\n      swap1\n      jump\t// out\n        /* \"#utility.yul\":14:437   */\n    tag_415:\n      0x00\n      dup1\n        /* \"#utility.yul\":170:173   */\n      dup4\n        /* \"#utility.yul\":163:167   */\n      0x1f\n        /* \"#utility.yul\":155:161   */\n      dup5\n        /* \"#utility.yul\":151:168   */\n      add\n        /* \"#utility.yul\":147:174   */\n      slt\n        /* \"#utility.yul\":137:139   */\n      tag_417\n      jumpi\n        /* \"#utility.yul\":193:199   */\n      dup1\n        /* \"#utility.yul\":185:191   */\n      dup2\n        /* \"#utility.yul\":178:200   */\n      revert\n        /* \"#utility.yul\":137:139   */\n    tag_417:\n      pop\n        /* \"#utility.yul\":221:241   */\n      dup2\n      calldataload\n      sub(shl(0x40, 0x01), 0x01)\n        /* \"#utility.yul\":253:283   */\n      dup2\n      gt\n        /* \"#utility.yul\":250:252   */\n      iszero\n      tag_418\n      jumpi\n        /* \"#utility.yul\":303:311   */\n      dup2\n        /* \"#utility.yul\":293:301   */\n      dup3\n        /* \"#utility.yul\":286:312   */\n      revert\n        /* \"#utility.yul\":250:252   */\n    tag_418:\n        /* \"#utility.yul\":347:351   */\n      0x20\n        /* \"#utility.yul\":339:345   */\n      dup4\n        /* \"#utility.yul\":335:352   */\n      add\n        /* \"#utility.yul\":323:352   */\n      swap2\n      pop\n        /* \"#utility.yul\":410:413   */\n      dup4\n        /* \"#utility.yul\":403:407   */\n      0x20\n        /* \"#utility.yul\":395:399   */\n      dup1\n        /* \"#utility.yul\":387:393   */\n      dup4\n        /* \"#utility.yul\":383:400   */\n      mul\n        /* \"#utility.yul\":375:381   */\n      dup6\n        /* \"#utility.yul\":371:401   */\n      add\n        /* \"#utility.yul\":367:408   */\n      add\n        /* \"#utility.yul\":364:414   */\n      gt\n        /* \"#utility.yul\":361:363   */\n      iszero\n      tag_419\n      jumpi\n        /* \"#utility.yul\":427:428   */\n      0x00\n        /* \"#utility.yul\":424:425   */\n      dup1\n        /* \"#utility.yul\":417:429   */\n      revert\n        /* \"#utility.yul\":361:363   */\n    tag_419:\n        /* \"#utility.yul\":127:437   */\n      swap3\n      pop\n      swap3\n      swap1\n      pop\n      jump\t// out\n        /* \"#utility.yul\":442:607   */\n    tag_420:\n        /* \"#utility.yul\":511:531   */\n      dup1\n      calldataload\n        /* \"#utility.yul\":571:581   */\n      0xffffffff\n        /* \"#utility.yul\":560:582   */\n      dup2\n      and\n        /* \"#utility.yul\":550:583   */\n      dup2\n      eq\n        /* \"#utility.yul\":540:542   */\n      tag_251\n      jumpi\n        /* \"#utility.yul\":597:598   */\n      0x00\n        /* \"#utility.yul\":594:595   */\n      dup1\n        /* \"#utility.yul\":587:599   */\n      revert\n        /* \"#utility.yul\":612:871   */\n    tag_85:\n      0x00\n        /* \"#utility.yul\":724:726   */\n      0x20\n        /* \"#utility.yul\":712:721   */\n      dup3\n        /* \"#utility.yul\":703:710   */\n      dup5\n        /* \"#utility.yul\":699:722   */\n      sub\n        /* \"#utility.yul\":695:727   */\n      slt\n        /* \"#utility.yul\":692:694   */\n      iszero\n      tag_424\n      jumpi\n        /* \"#utility.yul\":745:751   */\n      dup1\n        /* \"#utility.yul\":737:743   */\n      dup2\n        /* \"#utility.yul\":730:752   */\n      revert\n        /* \"#utility.yul\":692:694   */\n    tag_424:\n        /* \"#utility.yul\":789:798   */\n      dup2\n        /* \"#utility.yul\":776:799   */\n      calldataload\n        /* \"#utility.yul\":808:841   */\n      tag_132\n        /* \"#utility.yul\":835:840   */\n      dup2\n        /* \"#utility.yul\":808:841   */\n      tag_426\n      jump\t// in\n        /* \"#utility.yul\":876:1296   */\n    tag_51:\n      0x00\n      dup1\n        /* \"#utility.yul\":1023:1025   */\n      0x40\n        /* \"#utility.yul\":1011:1020   */\n      dup4\n        /* \"#utility.yul\":1002:1009   */\n      dup6\n        /* \"#utility.yul\":998:1021   */\n      sub\n        /* \"#utility.yul\":994:1026   */\n      slt\n        /* \"#utility.yul\":991:993   */\n      iszero\n      tag_428\n      jumpi\n        /* \"#utility.yul\":1044:1050   */\n      dup1\n        /* \"#utility.yul\":1036:1042   */\n      dup2\n        /* \"#utility.yul\":1029:1051   */\n      revert\n        /* \"#utility.yul\":991:993   */\n    tag_428:\n        /* \"#utility.yul\":1088:1097   */\n      dup3\n        /* \"#utility.yul\":1075:1098   */\n      calldataload\n        /* \"#utility.yul\":1107:1140   */\n      tag_429\n        /* \"#utility.yul\":1134:1139   */\n      dup2\n        /* \"#utility.yul\":1107:1140   */\n      tag_426\n      jump\t// in\n    tag_429:\n        /* \"#utility.yul\":1159:1164   */\n      swap2\n      pop\n        /* \"#utility.yul\":1216:1218   */\n      0x20\n        /* \"#utility.yul\":1201:1219   */\n      dup4\n      add\n        /* \"#utility.yul\":1188:1220   */\n      calldataload\n        /* \"#utility.yul\":1229:1264   */\n      tag_430\n        /* \"#utility.yul\":1188:1220   */\n      dup2\n        /* \"#utility.yul\":1229:1264   */\n      tag_426\n      jump\t// in\n    tag_430:\n        /* \"#utility.yul\":1283:1290   */\n      dup1\n        /* \"#utility.yul\":1273:1290   */\n      swap2\n      pop\n      pop\n        /* \"#utility.yul\":981:1296   */\n      swap3\n      pop\n      swap3\n      swap1\n      pop\n      jump\t// out\n        /* \"#utility.yul\":1301:1789   */\n    tag_28:\n      0x00\n      dup1\n      0x00\n        /* \"#utility.yul\":1465:1467   */\n      0x60\n        /* \"#utility.yul\":1453:1462   */\n      dup5\n        /* \"#utility.yul\":1444:1451   */\n      dup7\n        /* \"#utility.yul\":1440:1463   */\n      sub\n        /* \"#utility.yul\":1436:1468   */\n      slt\n        /* \"#utility.yul\":1433:1435   */\n      iszero\n      tag_432\n      jumpi\n        /* \"#utility.yul\":1486:1492   */\n      dup1\n        /* \"#utility.yul\":1478:1484   */\n      dup2\n        /* \"#utility.yul\":1471:1493   */\n      revert\n        /* \"#utility.yul\":1433:1435   */\n    tag_432:\n        /* \"#utility.yul\":1530:1539   */\n      dup4\n        /* \"#utility.yul\":1517:1540   */\n      calldataload\n        /* \"#utility.yul\":1549:1582   */\n      tag_433\n        /* \"#utility.yul\":1576:1581   */\n      dup2\n        /* \"#utility.yul\":1549:1582   */\n      tag_426\n      jump\t// in\n    tag_433:\n        /* \"#utility.yul\":1601:1606   */\n      swap3\n      pop\n        /* \"#utility.yul\":1658:1660   */\n      0x20\n        /* \"#utility.yul\":1643:1661   */\n      dup5\n      add\n        /* \"#utility.yul\":1630:1662   */\n      calldataload\n        /* \"#utility.yul\":1671:1706   */\n      tag_434\n        /* \"#utility.yul\":1630:1662   */\n      dup2\n        /* \"#utility.yul\":1671:1706   */\n      tag_426\n      jump\t// in\n    tag_434:\n        /* \"#utility.yul\":1423:1789   */\n      swap3\n      swap6\n        /* \"#utility.yul\":1725:1732   */\n      swap3\n      swap5\n      pop\n      pop\n      pop\n        /* \"#utility.yul\":1779:1781   */\n      0x40\n        /* \"#utility.yul\":1764:1782   */\n      swap2\n      swap1\n      swap2\n      add\n        /* \"#utility.yul\":1751:1783   */\n      calldataload\n      swap1\n        /* \"#utility.yul\":1423:1789   */\n      jump\t// out\n        /* \"#utility.yul\":1794:2298   */\n    tag_97:\n      0x00\n      dup1\n        /* \"#utility.yul\":1959:1961   */\n      0x20\n        /* \"#utility.yul\":1947:1956   */\n      dup4\n        /* \"#utility.yul\":1938:1945   */\n      dup6\n        /* \"#utility.yul\":1934:1957   */\n      sub\n        /* \"#utility.yul\":1930:1962   */\n      slt\n        /* \"#utility.yul\":1927:1929   */\n      iszero\n      tag_436\n      jumpi\n        /* \"#utility.yul\":1980:1986   */\n      dup2\n        /* \"#utility.yul\":1972:1978   */\n      dup3\n        /* \"#utility.yul\":1965:1987   */\n      revert\n        /* \"#utility.yul\":1927:1929   */\n    tag_436:\n        /* \"#utility.yul\":2025:2034   */\n      dup3\n        /* \"#utility.yul\":2012:2035   */\n      calldataload\n      sub(shl(0x40, 0x01), 0x01)\n        /* \"#utility.yul\":2050:2056   */\n      dup2\n        /* \"#utility.yul\":2047:2077   */\n      gt\n        /* \"#utility.yul\":2044:2046   */\n      iszero\n      tag_437\n      jumpi\n        /* \"#utility.yul\":2095:2101   */\n      dup3\n        /* \"#utility.yul\":2087:2093   */\n      dup4\n        /* \"#utility.yul\":2080:2102   */\n      revert\n        /* \"#utility.yul\":2044:2046   */\n    tag_437:\n        /* \"#utility.yul\":2139:2238   */\n      tag_438\n        /* \"#utility.yul\":2230:2237   */\n      dup6\n        /* \"#utility.yul\":2221:2227   */\n      dup3\n        /* \"#utility.yul\":2210:2219   */\n      dup7\n        /* \"#utility.yul\":2206:2228   */\n      add\n        /* \"#utility.yul\":2139:2238   */\n      tag_415\n      jump\t// in\n    tag_438:\n        /* \"#utility.yul\":2257:2265   */\n      swap1\n      swap7\n        /* \"#utility.yul\":2113:2238   */\n      swap1\n      swap6\n      pop\n        /* \"#utility.yul\":1917:2298   */\n      swap4\n      pop\n      pop\n      pop\n      pop\n      jump\t// out\n        /* \"#utility.yul\":2303:3209   */\n    tag_68:\n      0x00\n      dup1\n      0x00\n      dup1\n        /* \"#utility.yul\":2547:2549   */\n      0x40\n        /* \"#utility.yul\":2535:2544   */\n      dup6\n        /* \"#utility.yul\":2526:2533   */\n      dup8\n        /* \"#utility.yul\":2522:2545   */\n      sub\n        /* \"#utility.yul\":2518:2550   */\n      slt\n        /* \"#utility.yul\":2515:2517   */\n      iszero\n      tag_440\n      jumpi\n        /* \"#utility.yul\":2568:2574   */\n      dup1\n        /* \"#utility.yul\":2560:2566   */\n      dup2\n        /* \"#utility.yul\":2553:2575   */\n      revert\n        /* \"#utility.yul\":2515:2517   */\n    tag_440:\n        /* \"#utility.yul\":2613:2622   */\n      dup5\n        /* \"#utility.yul\":2600:2623   */\n      calldataload\n      sub(shl(0x40, 0x01), 0x01)\n        /* \"#utility.yul\":2683:2685   */\n      dup1\n        /* \"#utility.yul\":2675:2681   */\n      dup3\n        /* \"#utility.yul\":2672:2686   */\n      gt\n        /* \"#utility.yul\":2669:2671   */\n      iszero\n      tag_441\n      jumpi\n        /* \"#utility.yul\":2704:2710   */\n      dup3\n        /* \"#utility.yul\":2696:2702   */\n      dup4\n        /* \"#utility.yul\":2689:2711   */\n      revert\n        /* \"#utility.yul\":2669:2671   */\n    tag_441:\n        /* \"#utility.yul\":2748:2847   */\n      tag_442\n        /* \"#utility.yul\":2839:2846   */\n      dup9\n        /* \"#utility.yul\":2830:2836   */\n      dup4\n        /* \"#utility.yul\":2819:2828   */\n      dup10\n        /* \"#utility.yul\":2815:2837   */\n      add\n        /* \"#utility.yul\":2748:2847   */\n      tag_415\n      jump\t// in\n    tag_442:\n        /* \"#utility.yul\":2866:2874   */\n      swap1\n      swap7\n      pop\n        /* \"#utility.yul\":2722:2847   */\n      swap5\n      pop\n        /* \"#utility.yul\":2954:2956   */\n      0x20\n        /* \"#utility.yul\":2939:2957   */\n      dup8\n      add\n        /* \"#utility.yul\":2926:2958   */\n      calldataload\n      swap2\n      pop\n        /* \"#utility.yul\":2970:2986   */\n      dup1\n      dup3\n      gt\n        /* \"#utility.yul\":2967:2969   */\n      iszero\n      tag_443\n      jumpi\n        /* \"#utility.yul\":3004:3010   */\n      dup3\n        /* \"#utility.yul\":2996:3002   */\n      dup4\n        /* \"#utility.yul\":2989:3011   */\n      revert\n        /* \"#utility.yul\":2967:2969   */\n    tag_443:\n      pop\n        /* \"#utility.yul\":3048:3149   */\n      tag_444\n        /* \"#utility.yul\":3141:3148   */\n      dup8\n        /* \"#utility.yul\":3130:3138   */\n      dup3\n        /* \"#utility.yul\":3119:3128   */\n      dup9\n        /* \"#utility.yul\":3115:3139   */\n      add\n        /* \"#utility.yul\":3048:3149   */\n      tag_415\n      jump\t// in\n    tag_444:\n        /* \"#utility.yul\":2505:3209   */\n      swap6\n      swap9\n      swap5\n      swap8\n      pop\n        /* \"#utility.yul\":3168:3176   */\n      swap6\n      pop\n      pop\n      pop\n      pop\n        /* \"#utility.yul\":2505:3209   */\n      jump\t// out\n        /* \"#utility.yul\":3496:3916   */\n    tag_63:\n      0x00\n      dup1\n        /* \"#utility.yul\":3643:3645   */\n      0x40\n        /* \"#utility.yul\":3631:3640   */\n      dup4\n        /* \"#utility.yul\":3622:3629   */\n      dup6\n        /* \"#utility.yul\":3618:3641   */\n      sub\n        /* \"#utility.yul\":3614:3646   */\n      slt\n        /* \"#utility.yul\":3611:3613   */\n      iszero\n      tag_428\n      jumpi\n        /* \"#utility.yul\":3664:3670   */\n      dup2\n        /* \"#utility.yul\":3656:3662   */\n      dup3\n        /* \"#utility.yul\":3649:3671   */\n      revert\n        /* \"#utility.yul\":3921:4553   */\n    tag_128:\n      0x00\n      dup1\n      0x00\n      dup1\n      0x00\n        /* \"#utility.yul\":4118:4121   */\n      0xa0\n        /* \"#utility.yul\":4106:4115   */\n      dup7\n        /* \"#utility.yul\":4097:4104   */\n      dup9\n        /* \"#utility.yul\":4093:4116   */\n      sub\n        /* \"#utility.yul\":4089:4122   */\n      slt\n        /* \"#utility.yul\":4086:4088   */\n      iszero\n      tag_453\n      jumpi\n        /* \"#utility.yul\":4140:4146   */\n      dup1\n        /* \"#utility.yul\":4132:4138   */\n      dup2\n        /* \"#utility.yul\":4125:4147   */\n      revert\n        /* \"#utility.yul\":4086:4088   */\n    tag_453:\n        /* \"#utility.yul\":4184:4193   */\n      dup6\n        /* \"#utility.yul\":4171:4194   */\n      calldataload\n        /* \"#utility.yul\":4203:4236   */\n      tag_454\n        /* \"#utility.yul\":4230:4235   */\n      dup2\n        /* \"#utility.yul\":4203:4236   */\n      tag_426\n      jump\t// in\n    tag_454:\n        /* \"#utility.yul\":4255:4260   */\n      swap5\n      pop\n        /* \"#utility.yul\":4312:4314   */\n      0x20\n        /* \"#utility.yul\":4297:4315   */\n      dup7\n      add\n        /* \"#utility.yul\":4284:4316   */\n      calldataload\n        /* \"#utility.yul\":4325:4360   */\n      tag_455\n        /* \"#utility.yul\":4284:4316   */\n      dup2\n        /* \"#utility.yul\":4325:4360   */\n      tag_426\n      jump\t// in\n    tag_455:\n        /* \"#utility.yul\":4379:4386   */\n      swap4\n      pop\n        /* \"#utility.yul\":4433:4435   */\n      0x40\n        /* \"#utility.yul\":4418:4436   */\n      dup7\n      add\n        /* \"#utility.yul\":4405:4437   */\n      calldataload\n      swap3\n      pop\n        /* \"#utility.yul\":4484:4486   */\n      0x60\n        /* \"#utility.yul\":4469:4487   */\n      dup7\n      add\n        /* \"#utility.yul\":4456:4488   */\n      calldataload\n      swap2\n      pop\n        /* \"#utility.yul\":4507:4547   */\n      tag_456\n        /* \"#utility.yul\":4542:4545   */\n      0x80\n        /* \"#utility.yul\":4527:4546   */\n      dup8\n      add\n        /* \"#utility.yul\":4507:4547   */\n      tag_420\n      jump\t// in\n    tag_456:\n        /* \"#utility.yul\":4497:4547   */\n      swap1\n      pop\n        /* \"#utility.yul\":4076:4553   */\n      swap3\n      swap6\n      pop\n      swap3\n      swap6\n      swap1\n      swap4\n      pop\n      jump\t// out\n        /* \"#utility.yul\":4558:5121   */\n    tag_41:\n      0x00\n      dup1\n      0x00\n      dup1\n        /* \"#utility.yul\":4738:4741   */\n      0x80\n        /* \"#utility.yul\":4726:4735   */\n      dup6\n        /* \"#utility.yul\":4717:4724   */\n      dup8\n        /* \"#utility.yul\":4713:4736   */\n      sub\n        /* \"#utility.yul\":4709:4742   */\n      slt\n        /* \"#utility.yul\":4706:4708   */\n      iszero\n      tag_458\n      jumpi\n        /* \"#utility.yul\":4760:4766   */\n      dup4\n        /* \"#utility.yul\":4752:4758   */\n      dup5\n        /* \"#utility.yul\":4745:4767   */\n      revert\n        /* \"#utility.yul\":4706:4708   */\n    tag_458:\n        /* \"#utility.yul\":4804:4813   */\n      dup5\n        /* \"#utility.yul\":4791:4814   */\n      calldataload\n        /* \"#utility.yul\":4823:4856   */\n      tag_459\n        /* \"#utility.yul\":4850:4855   */\n      dup2\n        /* \"#utility.yul\":4823:4856   */\n      tag_426\n      jump\t// in\n    tag_459:\n        /* \"#utility.yul\":4875:4880   */\n      swap4\n      pop\n        /* \"#utility.yul\":4932:4934   */\n      0x20\n        /* \"#utility.yul\":4917:4935   */\n      dup6\n      add\n        /* \"#utility.yul\":4904:4936   */\n      calldataload\n        /* \"#utility.yul\":4945:4980   */\n      tag_460\n        /* \"#utility.yul\":4904:4936   */\n      dup2\n        /* \"#utility.yul\":4945:4980   */\n      tag_426\n      jump\t// in\n    tag_460:\n        /* \"#utility.yul\":4999:5006   */\n      swap3\n      pop\n        /* \"#utility.yul\":5053:5055   */\n      0x40\n        /* \"#utility.yul\":5038:5056   */\n      dup6\n      add\n        /* \"#utility.yul\":5025:5057   */\n      calldataload\n      swap2\n      pop\n        /* \"#utility.yul\":5076:5115   */\n      tag_461\n        /* \"#utility.yul\":5111:5113   */\n      0x60\n        /* \"#utility.yul\":5096:5114   */\n      dup7\n      add\n        /* \"#utility.yul\":5076:5115   */\n      tag_420\n      jump\t// in\n    tag_461:\n        /* \"#utility.yul\":5066:5115   */\n      swap1\n      pop\n        /* \"#utility.yul\":4696:5121   */\n      swap3\n      swap6\n      swap2\n      swap5\n      pop\n      swap3\n      pop\n      jump\t// out\n        /* \"#utility.yul\":5126:6421   */\n    tag_35:\n      0x00\n      dup1\n        /* \"#utility.yul\":5298:5300   */\n      0x40\n        /* \"#utility.yul\":5286:5295   */\n      dup4\n        /* \"#utility.yul\":5277:5284   */\n      dup6\n        /* \"#utility.yul\":5273:5296   */\n      sub\n        /* \"#utility.yul\":5269:5301   */\n      slt\n        /* \"#utility.yul\":5266:5268   */\n      iszero\n      tag_463\n      jumpi\n        /* \"#utility.yul\":5319:5325   */\n      dup2\n        /* \"#utility.yul\":5311:5317   */\n      dup3\n        /* \"#utility.yul\":5304:5326   */\n      revert\n        /* \"#utility.yul\":5266:5268   */\n    tag_463:\n        /* \"#utility.yul\":5363:5372   */\n      dup3\n        /* \"#utility.yul\":5350:5373   */\n      calldataload\n        /* \"#utility.yul\":5382:5415   */\n      tag_464\n        /* \"#utility.yul\":5409:5414   */\n      dup2\n        /* \"#utility.yul\":5382:5415   */\n      tag_426\n      jump\t// in\n    tag_464:\n        /* \"#utility.yul\":5434:5439   */\n      swap2\n      pop\n        /* \"#utility.yul\":5458:5460   */\n      0x20\n        /* \"#utility.yul\":5496:5514   */\n      dup4\n      dup2\n      add\n        /* \"#utility.yul\":5483:5515   */\n      calldataload\n      sub(shl(0x40, 0x01), 0x01)\n        /* \"#utility.yul\":5564:5578   */\n      dup1\n      dup3\n      gt\n        /* \"#utility.yul\":5561:5563   */\n      iszero\n      tag_465\n      jumpi\n        /* \"#utility.yul\":5596:5602   */\n      dup4\n        /* \"#utility.yul\":5588:5594   */\n      dup5\n        /* \"#utility.yul\":5581:5603   */\n      revert\n        /* \"#utility.yul\":5561:5563   */\n    tag_465:\n        /* \"#utility.yul\":5639:5645   */\n      dup2\n        /* \"#utility.yul\":5628:5637   */\n      dup7\n        /* \"#utility.yul\":5624:5646   */\n      add\n        /* \"#utility.yul\":5614:5646   */\n      swap2\n      pop\n        /* \"#utility.yul\":5684:5691   */\n      dup7\n        /* \"#utility.yul\":5677:5681   */\n      0x1f\n        /* \"#utility.yul\":5673:5675   */\n      dup4\n        /* \"#utility.yul\":5669:5682   */\n      add\n        /* \"#utility.yul\":5665:5692   */\n      slt\n        /* \"#utility.yul\":5655:5657   */\n      tag_466\n      jumpi\n        /* \"#utility.yul\":5711:5717   */\n      dup4\n        /* \"#utility.yul\":5703:5709   */\n      dup5\n        /* \"#utility.yul\":5696:5718   */\n      revert\n        /* \"#utility.yul\":5655:5657   */\n    tag_466:\n        /* \"#utility.yul\":5752:5754   */\n      dup2\n        /* \"#utility.yul\":5739:5755   */\n      calldataload\n        /* \"#utility.yul\":5774:5776   */\n      dup2\n        /* \"#utility.yul\":5770:5772   */\n      dup2\n        /* \"#utility.yul\":5767:5777   */\n      gt\n        /* \"#utility.yul\":5764:5766   */\n      iszero\n      tag_467\n      jumpi\n        /* \"#utility.yul\":5780:5789   */\n      invalid\n        /* \"#utility.yul\":5764:5766   */\n    tag_467:\n        /* \"#utility.yul\":5818:5820   */\n      dup4\n        /* \"#utility.yul\":5814:5816   */\n      dup2\n        /* \"#utility.yul\":5810:5821   */\n      mul\n        /* \"#utility.yul\":5850:5852   */\n      0x40\n        /* \"#utility.yul\":5844:5853   */\n      mload\n        /* \"#utility.yul\":5901:5903   */\n      dup6\n        /* \"#utility.yul\":5896:5898   */\n      dup3\n        /* \"#utility.yul\":5888:5894   */\n      dup3\n        /* \"#utility.yul\":5884:5899   */\n      add\n        /* \"#utility.yul\":5880:5904   */\n      add\n        /* \"#utility.yul\":5954:5960   */\n      dup2\n        /* \"#utility.yul\":5942:5952   */\n      dup2\n        /* \"#utility.yul\":5939:5961   */\n      lt\n        /* \"#utility.yul\":5934:5936   */\n      dup6\n        /* \"#utility.yul\":5922:5932   */\n      dup3\n        /* \"#utility.yul\":5919:5937   */\n      gt\n        /* \"#utility.yul\":5916:5962   */\n      or\n        /* \"#utility.yul\":5913:5915   */\n      iszero\n      tag_468\n      jumpi\n        /* \"#utility.yul\":5965:5974   */\n      invalid\n        /* \"#utility.yul\":5913:5915   */\n    tag_468:\n        /* \"#utility.yul\":5992:5994   */\n      0x40\n        /* \"#utility.yul\":5985:6007   */\n      mstore\n        /* \"#utility.yul\":6042:6060   */\n      dup3\n      dup2\n      mstore\n        /* \"#utility.yul\":6076:6091   */\n      dup6\n      dup2\n      add\n      swap4\n      pop\n        /* \"#utility.yul\":6111:6122   */\n      dup5\n      dup7\n      add\n        /* \"#utility.yul\":6141:6152   */\n      dup3\n      dup7\n      add\n        /* \"#utility.yul\":6137:6157   */\n      dup8\n      add\n        /* \"#utility.yul\":6134:6167   */\n      dup12\n      lt\n        /* \"#utility.yul\":6131:6133   */\n      iszero\n      tag_469\n      jumpi\n        /* \"#utility.yul\":6185:6191   */\n      dup8\n        /* \"#utility.yul\":6177:6183   */\n      dup9\n        /* \"#utility.yul\":6170:6192   */\n      revert\n        /* \"#utility.yul\":6131:6133   */\n    tag_469:\n        /* \"#utility.yul\":6212:6218   */\n      dup8\n        /* \"#utility.yul\":6203:6218   */\n      swap6\n      pop\n        /* \"#utility.yul\":6227:6390   */\n    tag_470:\n        /* \"#utility.yul\":6241:6243   */\n      dup4\n        /* \"#utility.yul\":6238:6239   */\n      dup7\n        /* \"#utility.yul\":6235:6244   */\n      lt\n        /* \"#utility.yul\":6227:6390   */\n      iszero\n      tag_472\n      jumpi\n        /* \"#utility.yul\":6298:6315   */\n      dup1\n      calldataload\n        /* \"#utility.yul\":6286:6316   */\n      dup6\n      mstore\n        /* \"#utility.yul\":6259:6260   */\n      0x01\n        /* \"#utility.yul\":6252:6261   */\n      swap6\n      swap1\n      swap6\n      add\n      swap5\n        /* \"#utility.yul\":6336:6348   */\n      swap4\n      dup7\n      add\n      swap4\n        /* \"#utility.yul\":6368:6380   */\n      dup7\n      add\n        /* \"#utility.yul\":6227:6390   */\n      jump(tag_470)\n    tag_472:\n        /* \"#utility.yul\":6231:6234   */\n      pop\n        /* \"#utility.yul\":6409:6415   */\n      dup1\n        /* \"#utility.yul\":6399:6415   */\n      swap7\n      pop\n      pop\n      pop\n      pop\n      pop\n      pop\n      pop\n        /* \"#utility.yul\":5256:6421   */\n      swap3\n      pop\n      swap3\n      swap1\n      pop\n      jump\t// out\n        /* \"#utility.yul\":6426:6839   */\n    tag_110:\n      0x00\n      dup1\n      0x00\n        /* \"#utility.yul\":6590:6592   */\n      0x60\n        /* \"#utility.yul\":6578:6587   */\n      dup5\n        /* \"#utility.yul\":6569:6576   */\n      dup7\n        /* \"#utility.yul\":6565:6588   */\n      sub\n        /* \"#utility.yul\":6561:6593   */\n      slt\n        /* \"#utility.yul\":6558:6560   */\n      iszero\n      tag_474\n      jumpi\n        /* \"#utility.yul\":6611:6617   */\n      dup3\n        /* \"#utility.yul\":6603:6609   */\n      dup4\n        /* \"#utility.yul\":6596:6618   */\n      revert\n        /* \"#utility.yul\":6558:6560   */\n    tag_474:\n        /* \"#utility.yul\":6655:6664   */\n      dup4\n        /* \"#utility.yul\":6642:6665   */\n      calldataload\n        /* \"#utility.yul\":6674:6707   */\n      tag_475\n        /* \"#utility.yul\":6701:6706   */\n      dup2\n        /* \"#utility.yul\":6674:6707   */\n      tag_426\n      jump\t// in\n    tag_475:\n        /* \"#utility.yul\":6726:6731   */\n      swap6\n        /* \"#utility.yul\":6778:6780   */\n      0x20\n        /* \"#utility.yul\":6763:6781   */\n      dup6\n      add\n        /* \"#utility.yul\":6750:6782   */\n      calldataload\n      swap6\n      pop\n        /* \"#utility.yul\":6829:6831   */\n      0x40\n        /* \"#utility.yul\":6814:6832   */\n      swap1\n      swap5\n      add\n        /* \"#utility.yul\":6801:6833   */\n      calldataload\n      swap4\n        /* \"#utility.yul\":6548:6839   */\n      swap3\n      pop\n      pop\n      pop\n      jump\t// out\n        /* \"#utility.yul\":6844:7282   */\n    tag_476:\n      sub(shl(0x40, 0x01), 0x01)\n        /* \"#utility.yul\":6983:6985   */\n      dup1\n        /* \"#utility.yul\":6975:6980   */\n      dup3\n        /* \"#utility.yul\":6969:6981   */\n      mload\n        /* \"#utility.yul\":6965:6986   */\n      and\n        /* \"#utility.yul\":6960:6963   */\n      dup4\n        /* \"#utility.yul\":6953:6987   */\n      mstore\n        /* \"#utility.yul\":7048:7050   */\n      dup1\n        /* \"#utility.yul\":7040:7044   */\n      0x20\n        /* \"#utility.yul\":7033:7038   */\n      dup4\n        /* \"#utility.yul\":7029:7045   */\n      add\n        /* \"#utility.yul\":7023:7046   */\n      mload\n        /* \"#utility.yul\":7019:7051   */\n      and\n        /* \"#utility.yul\":7012:7016   */\n      0x20\n        /* \"#utility.yul\":7007:7010   */\n      dup5\n        /* \"#utility.yul\":7003:7017   */\n      add\n        /* \"#utility.yul\":6996:7052   */\n      mstore\n      pop\n        /* \"#utility.yul\":7098:7102   */\n      0x40\n        /* \"#utility.yul\":7091:7096   */\n      dup2\n        /* \"#utility.yul\":7087:7103   */\n      add\n        /* \"#utility.yul\":7081:7104   */\n      mload\n      sub(shl(0x80, 0x01), 0x01)\n        /* \"#utility.yul\":7207:7209   */\n      dup1\n        /* \"#utility.yul\":7193:7205   */\n      dup3\n        /* \"#utility.yul\":7189:7210   */\n      and\n        /* \"#utility.yul\":7182:7186   */\n      0x40\n        /* \"#utility.yul\":7177:7180   */\n      dup6\n        /* \"#utility.yul\":7173:7187   */\n      add\n        /* \"#utility.yul\":7166:7211   */\n      mstore\n        /* \"#utility.yul\":7272:7274   */\n      dup1\n        /* \"#utility.yul\":7264:7268   */\n      0x60\n        /* \"#utility.yul\":7257:7262   */\n      dup5\n        /* \"#utility.yul\":7253:7269   */\n      add\n        /* \"#utility.yul\":7247:7270   */\n      mload\n        /* \"#utility.yul\":7243:7275   */\n      and\n        /* \"#utility.yul\":7236:7240   */\n      0x60\n        /* \"#utility.yul\":7231:7234   */\n      dup6\n        /* \"#utility.yul\":7227:7241   */\n      add\n        /* \"#utility.yul\":7220:7276   */\n      mstore\n      pop\n      pop\n        /* \"#utility.yul\":6906:7282   */\n      pop\n      pop\n      jump\t// out\n        /* \"#utility.yul\":7287:7492   */\n    tag_320:\n        /* \"#utility.yul\":7487:7490   */\n      swap1\n        /* \"#utility.yul\":7478:7492   */\n      jump\t// out\n        /* \"#utility.yul\":7497:7700   */\n    tag_47:\n      sub(shl(0xa0, 0x01), 0x01)\n        /* \"#utility.yul\":7661:7693   */\n      swap2\n      swap1\n      swap2\n      and\n        /* \"#utility.yul\":7643:7694   */\n      dup2\n      mstore\n        /* \"#utility.yul\":7631:7633   */\n      0x20\n        /* \"#utility.yul\":7616:7634   */\n      add\n      swap1\n        /* \"#utility.yul\":7598:7700   */\n      jump\t// out\n        /* \"#utility.yul\":7705:8366   */\n    tag_106:\n        /* \"#utility.yul\":7876:7878   */\n      0x20\n        /* \"#utility.yul\":7928:7949   */\n      dup1\n      dup3\n      mstore\n        /* \"#utility.yul\":7998:8011   */\n      dup3\n      mload\n        /* \"#utility.yul\":7901:7919   */\n      dup3\n      dup3\n      add\n        /* \"#utility.yul\":8020:8042   */\n      dup2\n      swap1\n      mstore\n        /* \"#utility.yul\":7705:8366   */\n      0x00\n      swap2\n        /* \"#utility.yul\":7876:7878   */\n      swap1\n        /* \"#utility.yul\":8099:8114   */\n      dup5\n      dup3\n      add\n      swap1\n        /* \"#utility.yul\":8073:8075   */\n      0x40\n        /* \"#utility.yul\":8058:8076   */\n      dup6\n      add\n      swap1\n        /* \"#utility.yul\":7705:8366   */\n      dup5\n        /* \"#utility.yul\":8145:8340   */\n    tag_481:\n        /* \"#utility.yul\":8159:8165   */\n      dup2\n        /* \"#utility.yul\":8156:8157   */\n      dup2\n        /* \"#utility.yul\":8153:8166   */\n      lt\n        /* \"#utility.yul\":8145:8340   */\n      iszero\n      tag_483\n      jumpi\n        /* \"#utility.yul\":8224:8237   */\n      dup4\n      mload\n      sub(shl(0xa0, 0x01), 0x01)\n        /* \"#utility.yul\":8220:8259   */\n      and\n        /* \"#utility.yul\":8208:8260   */\n      dup4\n      mstore\n        /* \"#utility.yul\":8315:8330   */\n      swap3\n      dup5\n      add\n      swap3\n        /* \"#utility.yul\":8280:8292   */\n      swap2\n      dup5\n      add\n      swap2\n        /* \"#utility.yul\":8256:8257   */\n      0x01\n        /* \"#utility.yul\":8174:8183   */\n      add\n        /* \"#utility.yul\":8145:8340   */\n      jump(tag_481)\n    tag_483:\n      pop\n        /* \"#utility.yul\":8357:8360   */\n      swap1\n      swap7\n        /* \"#utility.yul\":7856:8366   */\n      swap6\n      pop\n      pop\n      pop\n      pop\n      pop\n      pop\n      jump\t// out\n        /* \"#utility.yul\":8371:9104   */\n    tag_54:\n        /* \"#utility.yul\":8608:8610   */\n      0x20\n        /* \"#utility.yul\":8660:8681   */\n      dup1\n      dup3\n      mstore\n        /* \"#utility.yul\":8730:8743   */\n      dup3\n      mload\n        /* \"#utility.yul\":8633:8651   */\n      dup3\n      dup3\n      add\n        /* \"#utility.yul\":8752:8774   */\n      dup2\n      swap1\n      mstore\n        /* \"#utility.yul\":8371:9104   */\n      0x00\n      swap2\n        /* \"#utility.yul\":8608:8610   */\n      swap1\n        /* \"#utility.yul\":8831:8846   */\n      dup5\n      dup3\n      add\n      swap1\n        /* \"#utility.yul\":8805:8807   */\n      0x40\n        /* \"#utility.yul\":8790:8808   */\n      dup6\n      add\n      swap1\n        /* \"#utility.yul\":8371:9104   */\n      dup5\n        /* \"#utility.yul\":8877:9078   */\n    tag_485:\n        /* \"#utility.yul\":8891:8897   */\n      dup2\n        /* \"#utility.yul\":8888:8889   */\n      dup2\n        /* \"#utility.yul\":8885:8898   */\n      lt\n        /* \"#utility.yul\":8877:9078   */\n      iszero\n      tag_483\n      jumpi\n        /* \"#utility.yul\":8940:8996   */\n      tag_488\n        /* \"#utility.yul\":8992:8995   */\n      dup4\n        /* \"#utility.yul\":8983:8989   */\n      dup6\n        /* \"#utility.yul\":8977:8990   */\n      mload\n        /* \"#utility.yul\":8940:8996   */\n      tag_476\n      jump\t// in\n    tag_488:\n        /* \"#utility.yul\":9053:9068   */\n      swap3\n      dup5\n      add\n      swap3\n        /* \"#utility.yul\":9025:9029   */\n      0x80\n        /* \"#utility.yul\":9016:9030   */\n      swap3\n      swap1\n      swap3\n      add\n      swap2\n        /* \"#utility.yul\":8913:8914   */\n      0x01\n        /* \"#utility.yul\":8906:8915   */\n      add\n        /* \"#utility.yul\":8877:9078   */\n      jump(tag_485)\n        /* \"#utility.yul\":9109:9744   */\n    tag_71:\n        /* \"#utility.yul\":9280:9282   */\n      0x20\n        /* \"#utility.yul\":9332:9353   */\n      dup1\n      dup3\n      mstore\n        /* \"#utility.yul\":9402:9415   */\n      dup3\n      mload\n        /* \"#utility.yul\":9305:9323   */\n      dup3\n      dup3\n      add\n        /* \"#utility.yul\":9424:9446   */\n      dup2\n      swap1\n      mstore\n        /* \"#utility.yul\":9109:9744   */\n      0x00\n      swap2\n        /* \"#utility.yul\":9280:9282   */\n      swap1\n        /* \"#utility.yul\":9503:9518   */\n      dup5\n      dup3\n      add\n      swap1\n        /* \"#utility.yul\":9477:9479   */\n      0x40\n        /* \"#utility.yul\":9462:9480   */\n      dup6\n      add\n      swap1\n        /* \"#utility.yul\":9109:9744   */\n      dup5\n        /* \"#utility.yul\":9549:9718   */\n    tag_490:\n        /* \"#utility.yul\":9563:9569   */\n      dup2\n        /* \"#utility.yul\":9560:9561   */\n      dup2\n        /* \"#utility.yul\":9557:9570   */\n      lt\n        /* \"#utility.yul\":9549:9718   */\n      iszero\n      tag_483\n      jumpi\n        /* \"#utility.yul\":9624:9637   */\n      dup4\n      mload\n        /* \"#utility.yul\":9612:9638   */\n      dup4\n      mstore\n        /* \"#utility.yul\":9693:9708   */\n      swap3\n      dup5\n      add\n      swap3\n        /* \"#utility.yul\":9658:9670   */\n      swap2\n      dup5\n      add\n      swap2\n        /* \"#utility.yul\":9585:9586   */\n      0x01\n        /* \"#utility.yul\":9578:9587   */\n      add\n        /* \"#utility.yul\":9549:9718   */\n      jump(tag_490)\n        /* \"#utility.yul\":9749:9936   */\n    tag_178:\n        /* \"#utility.yul\":9914:9928   */\n      swap1\n      iszero\n        /* \"#utility.yul\":9907:9929   */\n      iszero\n        /* \"#utility.yul\":9889:9930   */\n      dup2\n      mstore\n        /* \"#utility.yul\":9877:9879   */\n      0x20\n        /* \"#utility.yul\":9862:9880   */\n      add\n      swap1\n        /* \"#utility.yul\":9844:9936   */\n      jump\t// out\n        /* \"#utility.yul\":9941:10287   */\n    tag_140:\n        /* \"#utility.yul\":10143:10145   */\n      0x20\n        /* \"#utility.yul\":10125:10146   */\n      dup1\n      dup3\n      mstore\n        /* \"#utility.yul\":10182:10184   */\n      0x16\n        /* \"#utility.yul\":10162:10180   */\n      swap1\n      dup3\n      add\n        /* \"#utility.yul\":10155:10185   */\n      mstore\n      shl(0x53, 0x0d2dcecc2d8d2c840e6c6d0cac8ead8ca40d2dcc8caf)\n        /* \"#utility.yul\":10216:10218   */\n      0x40\n        /* \"#utility.yul\":10201:10219   */\n      dup3\n      add\n        /* \"#utility.yul\":10194:10246   */\n      mstore\n        /* \"#utility.yul\":10278:10280   */\n      0x60\n        /* \"#utility.yul\":10263:10281   */\n      add\n      swap1\n        /* \"#utility.yul\":10115:10287   */\n      jump\t// out\n        /* \"#utility.yul\":10292:10632   */\n    tag_326:\n        /* \"#utility.yul\":10494:10496   */\n      0x20\n        /* \"#utility.yul\":10476:10497   */\n      dup1\n      dup3\n      mstore\n        /* \"#utility.yul\":10533:10535   */\n      0x10\n        /* \"#utility.yul\":10513:10531   */\n      swap1\n      dup3\n      add\n        /* \"#utility.yul\":10506:10536   */\n      mstore\n      shl(0x81, 0x3330b4b6103a37903a3930b739b332b9)\n        /* \"#utility.yul\":10567:10569   */\n      0x40\n        /* \"#utility.yul\":10552:10570   */\n      dup3\n      add\n        /* \"#utility.yul\":10545:10591   */\n      mstore\n        /* \"#utility.yul\":10623:10625   */\n      0x60\n        /* \"#utility.yul\":10608:10626   */\n      add\n      swap1\n        /* \"#utility.yul\":10466:10632   */\n      jump\t// out\n        /* \"#utility.yul\":10637:10985   */\n    tag_249:\n        /* \"#utility.yul\":10839:10841   */\n      0x20\n        /* \"#utility.yul\":10821:10842   */\n      dup1\n      dup3\n      mstore\n        /* \"#utility.yul\":10878:10880   */\n      0x18\n        /* \"#utility.yul\":10858:10876   */\n      swap1\n      dup3\n      add\n        /* \"#utility.yul\":10851:10881   */\n      mstore\n        /* \"#utility.yul\":10917:10943   */\n      0x5f726577617264436f6e74726163742069732061646465640000000000000000\n        /* \"#utility.yul\":10912:10914   */\n      0x40\n        /* \"#utility.yul\":10897:10915   */\n      dup3\n      add\n        /* \"#utility.yul\":10890:10944   */\n      mstore\n        /* \"#utility.yul\":10976:10978   */\n      0x60\n        /* \"#utility.yul\":10961:10979   */\n      add\n      swap1\n        /* \"#utility.yul\":10811:10985   */\n      jump\t// out\n        /* \"#utility.yul\":10990:11340   */\n    tag_176:\n        /* \"#utility.yul\":11192:11194   */\n      0x20\n        /* \"#utility.yul\":11174:11195   */\n      dup1\n      dup3\n      mstore\n        /* \"#utility.yul\":11231:11233   */\n      0x1a\n        /* \"#utility.yul\":11211:11229   */\n      swap1\n      dup3\n      add\n        /* \"#utility.yul\":11204:11234   */\n      mstore\n        /* \"#utility.yul\":11270:11298   */\n      0x5f726577617264436f6e74726163742069732072656d6f766564000000000000\n        /* \"#utility.yul\":11265:11267   */\n      0x40\n        /* \"#utility.yul\":11250:11268   */\n      dup3\n      add\n        /* \"#utility.yul\":11243:11299   */\n      mstore\n        /* \"#utility.yul\":11331:11333   */\n      0x60\n        /* \"#utility.yul\":11316:11334   */\n      add\n      swap1\n        /* \"#utility.yul\":11164:11340   */\n      jump\t// out\n        /* \"#utility.yul\":11345:11686   */\n    tag_276:\n        /* \"#utility.yul\":11547:11549   */\n      0x20\n        /* \"#utility.yul\":11529:11550   */\n      dup1\n      dup3\n      mstore\n        /* \"#utility.yul\":11586:11588   */\n      0x11\n        /* \"#utility.yul\":11566:11584   */\n      swap1\n      dup3\n      add\n        /* \"#utility.yul\":11559:11589   */\n      mstore\n      shl(0x78, 0x496e76616c6964206d73672e76616c7565)\n        /* \"#utility.yul\":11620:11622   */\n      0x40\n        /* \"#utility.yul\":11605:11623   */\n      dup3\n      add\n        /* \"#utility.yul\":11598:11645   */\n      mstore\n        /* \"#utility.yul\":11677:11679   */\n      0x60\n        /* \"#utility.yul\":11662:11680   */\n      add\n      swap1\n        /* \"#utility.yul\":11519:11686   */\n      jump\t// out\n        /* \"#utility.yul\":11691:12036   */\n    tag_230:\n        /* \"#utility.yul\":11893:11895   */\n      0x20\n        /* \"#utility.yul\":11875:11896   */\n      dup1\n      dup3\n      mstore\n        /* \"#utility.yul\":11932:11934   */\n      0x15\n        /* \"#utility.yul\":11912:11930   */\n      swap1\n      dup3\n      add\n        /* \"#utility.yul\":11905:11935   */\n      mstore\n      shl(0x5b, 0x0e6e8c2e4e892dcc8caf0407c40cadcc892dcc8caf)\n        /* \"#utility.yul\":11966:11968   */\n      0x40\n        /* \"#utility.yul\":11951:11969   */\n      dup3\n      add\n        /* \"#utility.yul\":11944:11995   */\n      mstore\n        /* \"#utility.yul\":12027:12029   */\n      0x60\n        /* \"#utility.yul\":12012:12030   */\n      add\n      swap1\n        /* \"#utility.yul\":11865:12036   */\n      jump\t// out\n        /* \"#utility.yul\":12041:12381   */\n    tag_315:\n        /* \"#utility.yul\":12243:12245   */\n      0x20\n        /* \"#utility.yul\":12225:12246   */\n      dup1\n      dup3\n      mstore\n        /* \"#utility.yul\":12282:12284   */\n      0x10\n        /* \"#utility.yul\":12262:12280   */\n      swap1\n      dup3\n      add\n        /* \"#utility.yul\":12255:12285   */\n      mstore\n      shl(0x82, 0x0c081d995cdd1a5b99c8185b5bdd5b9d)\n        /* \"#utility.yul\":12316:12318   */\n      0x40\n        /* \"#utility.yul\":12301:12319   */\n      dup3\n      add\n        /* \"#utility.yul\":12294:12340   */\n      mstore\n        /* \"#utility.yul\":12372:12374   */\n      0x60\n        /* \"#utility.yul\":12357:12375   */\n      add\n      swap1\n        /* \"#utility.yul\":12215:12381   */\n      jump\t// out\n        /* \"#utility.yul\":12386:12730   */\n    tag_268:\n        /* \"#utility.yul\":12588:12590   */\n      0x20\n        /* \"#utility.yul\":12570:12591   */\n      dup1\n      dup3\n      mstore\n        /* \"#utility.yul\":12627:12629   */\n      0x14\n        /* \"#utility.yul\":12607:12625   */\n      swap1\n      dup3\n      add\n        /* \"#utility.yul\":12600:12630   */\n      mstore\n      shl(0x62, 0x1bdb9b1e481c995dd85c990818dbdb9d1c9858dd)\n        /* \"#utility.yul\":12661:12663   */\n      0x40\n        /* \"#utility.yul\":12646:12664   */\n      dup3\n      add\n        /* \"#utility.yul\":12639:12689   */\n      mstore\n        /* \"#utility.yul\":12721:12723   */\n      0x60\n        /* \"#utility.yul\":12706:12724   */\n      add\n      swap1\n        /* \"#utility.yul\":12560:12730   */\n      jump\t// out\n        /* \"#utility.yul\":12735:13090   */\n    tag_182:\n        /* \"#utility.yul\":12937:12939   */\n      0x20\n        /* \"#utility.yul\":12919:12940   */\n      dup1\n      dup3\n      mstore\n        /* \"#utility.yul\":12976:12978   */\n      0x1f\n        /* \"#utility.yul\":12956:12974   */\n      swap1\n      dup3\n      add\n        /* \"#utility.yul\":12949:12979   */\n      mstore\n        /* \"#utility.yul\":13015:13048   */\n      0x746f6b656e732e6c656e67746820213d20696e64696365732e6c656e67746800\n        /* \"#utility.yul\":13010:13012   */\n      0x40\n        /* \"#utility.yul\":12995:13013   */\n      dup3\n      add\n        /* \"#utility.yul\":12988:13049   */\n      mstore\n        /* \"#utility.yul\":13081:13083   */\n      0x60\n        /* \"#utility.yul\":13066:13084   */\n      add\n      swap1\n        /* \"#utility.yul\":12909:13090   */\n      jump\t// out\n        /* \"#utility.yul\":13095:13429   */\n    tag_272:\n        /* \"#utility.yul\":13297:13299   */\n      0x20\n        /* \"#utility.yul\":13279:13300   */\n      dup1\n      dup3\n      mstore\n        /* \"#utility.yul\":13336:13338   */\n      0x0a\n        /* \"#utility.yul\":13316:13334   */\n      swap1\n      dup3\n      add\n        /* \"#utility.yul\":13309:13339   */\n      mstore\n      shl(0xb0, 0x30207175616e74697479)\n        /* \"#utility.yul\":13370:13372   */\n      0x40\n        /* \"#utility.yul\":13355:13373   */\n      dup3\n      add\n        /* \"#utility.yul\":13348:13388   */\n      mstore\n        /* \"#utility.yul\":13420:13422   */\n      0x60\n        /* \"#utility.yul\":13405:13423   */\n      add\n      swap1\n        /* \"#utility.yul\":13269:13429   */\n      jump\t// out\n        /* \"#utility.yul\":13434:13785   */\n    tag_244:\n        /* \"#utility.yul\":13636:13638   */\n      0x20\n        /* \"#utility.yul\":13618:13639   */\n      dup1\n      dup3\n      mstore\n        /* \"#utility.yul\":13675:13677   */\n      0x1b\n        /* \"#utility.yul\":13655:13673   */\n      swap1\n      dup3\n      add\n        /* \"#utility.yul\":13648:13678   */\n      mstore\n        /* \"#utility.yul\":13714:13743   */\n      0x726577617264436f6e74726163747320697320746f6f206c6f6e670000000000\n        /* \"#utility.yul\":13709:13711   */\n      0x40\n        /* \"#utility.yul\":13694:13712   */\n      dup3\n      add\n        /* \"#utility.yul\":13687:13744   */\n      mstore\n        /* \"#utility.yul\":13776:13778   */\n      0x60\n        /* \"#utility.yul\":13761:13779   */\n      add\n      swap1\n        /* \"#utility.yul\":13608:13785   */\n      jump\t// out\n        /* \"#utility.yul\":13790:14064   */\n    tag_31:\n        /* \"#utility.yul\":13990:13993   */\n      0x80\n        /* \"#utility.yul\":13975:13994   */\n      dup2\n      add\n        /* \"#utility.yul\":14003:14058   */\n      tag_133\n        /* \"#utility.yul\":13979:13988   */\n      dup3\n        /* \"#utility.yul\":14040:14046   */\n      dup5\n        /* \"#utility.yul\":14003:14058   */\n      tag_476\n      jump\t// in\n        /* \"#utility.yul\":14069:14246   */\n    tag_38:\n        /* \"#utility.yul\":14215:14240   */\n      swap1\n      dup2\n      mstore\n        /* \"#utility.yul\":14203:14205   */\n      0x20\n        /* \"#utility.yul\":14188:14206   */\n      add\n      swap1\n        /* \"#utility.yul\":14170:14246   */\n      jump\t// out\n        /* \"#utility.yul\":14251:14499   */\n    tag_153:\n        /* \"#utility.yul\":14425:14450   */\n      swap2\n      dup3\n      mstore\n        /* \"#utility.yul\":14481:14483   */\n      0x20\n        /* \"#utility.yul\":14466:14484   */\n      dup3\n      add\n        /* \"#utility.yul\":14459:14493   */\n      mstore\n        /* \"#utility.yul\":14413:14415   */\n      0x40\n        /* \"#utility.yul\":14398:14416   */\n      add\n      swap1\n        /* \"#utility.yul\":14380:14499   */\n      jump\t// out\n        /* \"#utility.yul\":14504:14895   */\n    tag_294:\n        /* \"#utility.yul\":14735:14760   */\n      swap4\n      dup5\n      mstore\n        /* \"#utility.yul\":14791:14793   */\n      0x20\n        /* \"#utility.yul\":14776:14794   */\n      dup5\n      add\n        /* \"#utility.yul\":14769:14803   */\n      swap3\n      swap1\n      swap3\n      mstore\n        /* \"#utility.yul\":14834:14836   */\n      0x40\n        /* \"#utility.yul\":14819:14837   */\n      dup4\n      add\n        /* \"#utility.yul\":14812:14846   */\n      mstore\n        /* \"#utility.yul\":14877:14879   */\n      0x60\n        /* \"#utility.yul\":14862:14880   */\n      dup3\n      add\n        /* \"#utility.yul\":14855:14889   */\n      mstore\n        /* \"#utility.yul\":14722:14725   */\n      0x80\n        /* \"#utility.yul\":14707:14726   */\n      add\n      swap1\n        /* \"#utility.yul\":14689:14895   */\n      jump\t// out\n        /* \"#utility.yul\":14900:15460   */\n    tag_193:\n      0x00\n      dup1\n        /* \"#utility.yul\":15059:15070   */\n      dup4\n        /* \"#utility.yul\":15046:15071   */\n      calldataload\n        /* \"#utility.yul\":15153:15155   */\n      0x1e\n        /* \"#utility.yul\":15149:15156   */\n      not\n        /* \"#utility.yul\":15138:15146   */\n      dup5\n        /* \"#utility.yul\":15122:15136   */\n      calldatasize\n        /* \"#utility.yul\":15118:15147   */\n      sub\n        /* \"#utility.yul\":15114:15157   */\n      add\n        /* \"#utility.yul\":15094:15112   */\n      dup2\n        /* \"#utility.yul\":15090:15158   */\n      slt\n        /* \"#utility.yul\":15080:15082   */\n      tag_511\n      jumpi\n        /* \"#utility.yul\":15175:15179   */\n      dup3\n        /* \"#utility.yul\":15169:15173   */\n      dup4\n        /* \"#utility.yul\":15162:15180   */\n      revert\n        /* \"#utility.yul\":15080:15082   */\n    tag_511:\n        /* \"#utility.yul\":15205:15238   */\n      dup4\n      add\n        /* \"#utility.yul\":15257:15277   */\n      dup1\n      calldataload\n      swap2\n      pop\n      sub(shl(0x40, 0x01), 0x01)\n        /* \"#utility.yul\":15289:15319   */\n      dup3\n      gt\n        /* \"#utility.yul\":15286:15288   */\n      iszero\n      tag_512\n      jumpi\n        /* \"#utility.yul\":15335:15339   */\n      dup3\n        /* \"#utility.yul\":15329:15333   */\n      dup4\n        /* \"#utility.yul\":15322:15340   */\n      revert\n        /* \"#utility.yul\":15286:15288   */\n    tag_512:\n        /* \"#utility.yul\":15371:15375   */\n      0x20\n        /* \"#utility.yul\":15359:15376   */\n      swap1\n      dup2\n      add\n      swap3\n      pop\n        /* \"#utility.yul\":15418:15435   */\n      dup2\n      mul\n        /* \"#utility.yul\":15402:15416   */\n      calldatasize\n        /* \"#utility.yul\":15398:15436   */\n      sub\n        /* \"#utility.yul\":15388:15437   */\n      dup3\n      sgt\n        /* \"#utility.yul\":15385:15387   */\n      iszero\n      tag_419\n      jumpi\n        /* \"#utility.yul\":15450:15451   */\n      0x00\n        /* \"#utility.yul\":15447:15448   */\n      dup1\n        /* \"#utility.yul\":15440:15452   */\n      revert\n        /* \"#utility.yul\":15465:15598   */\n    tag_426:\n      sub(shl(0xa0, 0x01), 0x01)\n        /* \"#utility.yul\":15542:15573   */\n      dup2\n      and\n        /* \"#utility.yul\":15532:15574   */\n      dup2\n      eq\n        /* \"#utility.yul\":15522:15524   */\n      tag_515\n      jumpi\n        /* \"#utility.yul\":15588:15589   */\n      0x00\n        /* \"#utility.yul\":15585:15586   */\n      dup1\n        /* \"#utility.yul\":15578:15590   */\n      revert\n        /* \"#utility.yul\":15522:15524   */\n    tag_515:\n        /* \"#utility.yul\":15512:15598   */\n      pop\n      jump\t// out\n    stop\n    data_045d6834e6193a687012a3ad777f612279e549b6945364d9d2324f48610d3cbb 456e756d657261626c655365743a20696e646578206f7574206f6620626f756e6473\n    data_47a1e201974f94d3d1a31c8b08ae18c6966c758bdcd4400020012b98cc55426c 53616665436173743a2076616c756520646f65736e27742066697420696e203132382062697473\n    data_565f1a77334fc4792800921178c71e4521acffab18ff9e7885b49377ee80ab4c 416464726573733a20696e73756666696369656e742062616c616e636520666f722063616c6c\n    data_9113bb53c2876a3805b2c9242029423fc540a728243ce887ab24c82cf119fba3 536166654d6174683a206d756c7469706c69636174696f6e206f766572666c6f77\n    data_93ae0c6bf6ffaece591a770b1865daa9f65157e541970aa9d8dc5f89a9490939 53616665436173743a2076616c756520646f65736e27742066697420696e2036342062697473\n    data_e11ad79d1e4a7f2e5f376964cb99e8e8f7904e3fc16a109f7a7ecb9aa7956dcd 5361666545524332303a204552433230206f7065726174696f6e20646964206e6f742073756363656564\n\n    auxdata: 0xa2646970667358221220134d5c7090f3a417c1dfdcce0f9e25ce5c82dae352e52d63cd0e01879a989a7264736f6c63430007060033\n}\n",
				"bytecode": {
					"linkReferences": {},
					"object": "60806040523480156200001157600080fd5b5060405162002872380380620028728339810160408190526200003491620000a2565b806001600160a01b0381166200007b576040805162461bcd60e51b8152602060048201526007602482015266061646d696e20360cc1b604482015290519081900360640190fd5b600080546001600160a01b0319166001600160a01b039290921691909117905550620000d2565b600060208284031215620000b4578081fd5b81516001600160a01b0381168114620000cb578182fd5b9392505050565b61279080620000e26000396000f3fe60806040526004361061011f5760003560e01c806375829def116100a0578063c33fddf811610064578063c33fddf81461033a578063f793d77e1461035a578063f851a4401461037a578063fdfaaa051461038f578063ff4931d3146103af5761011f565b806375829def1461029857806377f50f97146102b85780637acc8678146102cd5780639059aa6a146102ed578063bbd8a3281461030d5761011f565b80633b5bfa8b116100e75780633b5bfa8b146101eb5780634c9d00cc1461020b5780634d4f3d931461022b578063679f7f77146102585780636e732b70146102785761011f565b80630a3b7e31146101245780630f5636c31461015a5780631e2fabb614610187578063267822471461019c5780632f50bd72146101be575b600080fd5b34801561013057600080fd5b5061014461013f36600461200c565b6103c2565b60405161015191906125dc565b60405180910390f35b34801561016657600080fd5b5061017a6101753660046121af565b610451565b60405161015191906125ea565b61019a61019536600461215f565b61065a565b005b3480156101a857600080fd5b506101b161067a565b60405161015191906122ea565b3480156101ca57600080fd5b506101de6101d9366004611fd4565b610689565b604051610151919061234b565b3480156101f757600080fd5b5061017a610206366004611fd4565b6107b7565b34801561021757600080fd5b5061019a6102263660046120f3565b6107d4565b34801561023757600080fd5b5061024b61024636600461208b565b6108ae565b604051610151919061238d565b34801561026457600080fd5b5061017a610273366004611fd4565b6109be565b34801561028457600080fd5b5061017a610293366004611fd4565b6109e9565b3480156102a457600080fd5b5061019a6102b3366004611fb8565b610a06565b3480156102c457600080fd5b5061019a610af9565b3480156102d957600080fd5b5061019a6102e8366004611fb8565b610bb9565b3480156102f957600080fd5b5061024b61030836600461204c565b610cf0565b34801561031957600080fd5b5061032d610328366004611fb8565b610d8a565b60405161015191906122fe565b34801561034657600080fd5b5061017a610355366004612271565b610e50565b34801561036657600080fd5b5061019a6103753660046120f3565b610efb565b34801561038657600080fd5b506101b161100a565b34801561039b57600080fd5b5061017a6103aa366004611fb8565b611019565b61019a6103bd366004612105565b6111ae565b6103ca611f35565b506001600160a01b03808416600090815260036020908152604080832093861683529281528282208483526001908101825291839020835160808101855281546001600160401b038082168352600160401b820416938201939093526001600160801b03600160801b909304831694810194909452909101541660608201525b9392505050565b3360009081526003602090815260408083206001600160a01b03861684529091528120805482805b8551811015610644578286828151811061048f57fe5b6020026020010151106104bd5760405162461bcd60e51b81526004016104b4906123d0565b60405180910390fd5b60008460010160008884815181106104d157fe5b60209081029190910181015182528181019290925260409081016000908120825160808101845281546001600160401b038082168352600160401b820416958201959095526001600160801b03600160801b909504851693810193909352600101549092166060820152915061054682611571565b90508061055457505061063c565b606082015161057590610570906001600160801b031683611672565b6116cc565b8660010160008a868151811061058757fe5b6020026020010151815260200190815260200160002060010160006101000a8154816001600160801b0302191690836001600160801b031602179055506105d7818561167290919063ffffffff16565b9350336001600160a01b0316896001600160a01b03167f6d06f0a463d80b43fe6cd0b79c61bb2790cfe898790e69828f25e6e12886e178838b878151811061061b57fe5b60200260200101516040516106319291906125f3565b60405180910390a350505b600101610479565b5061064f8682611714565b925050505b92915050565b61067484848461066861186c565b63ffffffff16856111ae565b50505050565b6001546001600160a01b031681565b6001600160a01b03808316600090815260036020908152604080832093851683529290522054606090806001600160401b03811180156106c857600080fd5b5060405190808252806020026020018201604052801561070257816020015b6106ef611f35565b8152602001906001900390816106e75790505b50915060005b818110156107af576001600160a01b03808616600090815260036020908152604080832093881683529281528282208483526001908101825291839020835160808101855281546001600160401b038082168352600160401b820416938201939093526001600160801b03600160801b90930483169481019490945290910154166060820152835184908390811061079c57fe5b6020908102919091010152600101610708565b505092915050565b600560209081526000928352604080842090915290825290205481565b6000546001600160a01b03163314610820576040805162461bcd60e51b815260206004820152600a60248201526937b7363c9030b236b4b760b11b604482015290519081900360640190fd5b6001600160a01b03821660009081526002602052604090206108429082611870565b61085e5760405162461bcd60e51b81526004016104b490612461565b816001600160a01b0316816001600160a01b03167f88a8c998079a07d6a1e59a32ce0c359a00e4c94ce7a6068350a9574e7e0f993d60006040516108a291906123c5565b60405180910390a35050565b60608382146108cf5760405162461bcd60e51b81526004016104b49061254a565b836001600160401b03811180156108e557600080fd5b5060405190808252806020026020018201604052801561090f578160200160208202803683370190505b50905060005b848110156109b55761099686868381811061092c57fe5b90506020020160208101906109419190611fb8565b85858481811061094d57fe5b905060200281019061095f919061261c565b8080602002602001604051908101604052809392919081815260200183836020028082843760009201919091525061045192505050565b8282815181106109a257fe5b6020908102919091010152600101610915565b50949350505050565b6001600160a01b03918216600090815260036020908152604080832093909416825291909152205490565b600460209081526000928352604080842090915290825290205481565b6000546001600160a01b03163314610a52576040805162461bcd60e51b815260206004820152600a60248201526937b7363c9030b236b4b760b11b604482015290519081900360640190fd5b6001600160a01b038116610a9b576040805162461bcd60e51b815260206004820152600b60248201526a06e65772061646d696e20360ac1b604482015290519081900360640190fd5b604080516001600160a01b038316815290517f3b81caf78fa51ecbc8acb482fd7012a277b428d9b80f9d156e8a54107496cc409181900360200190a1600180546001600160a01b0319166001600160a01b0392909216919091179055565b6001546001600160a01b03163314610b46576040805162461bcd60e51b815260206004820152600b60248201526a6e6f742070656e64696e6760a81b604482015290519081900360640190fd5b600154600054604080516001600160a01b03938416815292909116602083015280517f65da1cfc2c2e81576ad96afb24a581f8e109b7a403b35cbd3243a1c99efdb9ed9281900390910190a160018054600080546001600160a01b03199081166001600160a01b03841617909155169055565b6000546001600160a01b03163314610c05576040805162461bcd60e51b815260206004820152600a60248201526937b7363c9030b236b4b760b11b604482015290519081900360640190fd5b6001600160a01b038116610c4a576040805162461bcd60e51b8152602060048201526007602482015266061646d696e20360cc1b604482015290519081900360640190fd5b604080516001600160a01b038316815290517f3b81caf78fa51ecbc8acb482fd7012a277b428d9b80f9d156e8a54107496cc409181900360200190a1600054604080516001600160a01b038085168252909216602083015280517f65da1cfc2c2e81576ad96afb24a581f8e109b7a403b35cbd3243a1c99efdb9ed9281900390910190a1600080546001600160a01b0319166001600160a01b0392909216919091179055565b6060816001600160401b0381118015610d0857600080fd5b50604051908082528060200260200182016040528015610d32578160200160208202803683370190505b50905060005b82811015610d8357610d64848483818110610d4f57fe5b90506020020160208101906103aa9190611fb8565b828281518110610d7057fe5b6020908102919091010152600101610d38565b5092915050565b6001600160a01b0381166000908152600260205260409020606090610dae90611885565b6001600160401b0381118015610dc357600080fd5b50604051908082528060200260200182016040528015610ded578160200160208202803683370190505b50905060005b8151811015610e4a576001600160a01b0383166000908152600260205260409020610e1e9082611890565b828281518110610e2a57fe5b6001600160a01b0390921660209283029190910190910152600101610df3565b50919050565b600081831115610e725760405162461bcd60e51b81526004016104b4906124c3565b60008383036001016001600160401b0381118015610e8f57600080fd5b50604051908082528060200260200182016040528015610eb9578160200160208202803683370190505b509050835b838111610ee757808286830381518110610ed457fe5b6020908102919091010152600101610ebe565b50610ef28582610451565b95945050505050565b6000546001600160a01b03163314610f47576040805162461bcd60e51b815260206004820152600a60248201526937b7363c9030b236b4b760b11b604482015290519081900360640190fd5b6001600160a01b0382166000908152600260205260409020606490610f6b90611885565b10610f885760405162461bcd60e51b81526004016104b4906125a5565b6001600160a01b0382166000908152600260205260409020610faa908261189c565b610fc65760405162461bcd60e51b81526004016104b49061242a565b816001600160a01b0316816001600160a01b03167f88a8c998079a07d6a1e59a32ce0c359a00e4c94ce7a6068350a9574e7e0f993d60016040516108a291906123c5565b6000546001600160a01b031681565b3360009081526003602090815260408083206001600160a01b03851684529091528120805482805b8281101561119957600081815260018086016020908152604092839020835160808101855281546001600160401b038082168352600160401b8204169382018490526001600160801b03600160801b9091048116958201959095529201549092166060820152906110b061186c565b63ffffffff1610156110c25750611191565b60006110f182606001516001600160801b031683604001516001600160801b03166118b190919063ffffffff16565b9050806110ff575050611191565b6040828101516000858152600189810160205292902090910180546001600160801b0319166001600160801b0390921691909117905561113f8482611672565b9350336001600160a01b0316886001600160a01b03167f6d06f0a463d80b43fe6cd0b79c61bb2790cfe898790e69828f25e6e12886e17883866040516111869291906125f3565b60405180910390a350505b600101611041565b506111a48582611714565b925050505b919050565b6001600160a01b038516600090815260026020526040902085906111d2903361190e565b6111ee5760405162461bcd60e51b81526004016104b49061251c565b6000841161120e5760405162461bcd60e51b81526004016104b490612581565b6001600160a01b0386166112405783341461123b5760405162461bcd60e51b81526004016104b490612498565b611255565b6112556001600160a01b038716333087611923565b6001600160a01b038086166000908152600360209081526040808320938a168352929052908120805490916112938663ffffffff8088169061167216565b905081156113ec5760001982016000908152600184016020526040902080546001600160401b0316871480156112d957508054600160401b90046001600160401b031682145b156113ea5780546112fe9061057090600160801b90046001600160801b03168a611672565b81546001600160801b03918216600160801b0291161781556001600160a01b03808a166000908152600460209081526040808320938e16835292905220546113469089611672565b600460008b6001600160a01b03166001600160a01b0316815260200190815260200160002060008c6001600160a01b03166001600160a01b0316815260200190815260200160002081905550886001600160a01b03168a6001600160a01b0316600185037fa6fd3a57929c9152d86fa5f83c8478f1af480353a0aef0cacc3240d63b5707678b6040516113d991906125ea565b60405180910390a450505050611569565b505b60405180608001604052806114008861197d565b6001600160401b031681526020016114178361197d565b6001600160401b0316815260200161142e896116cc565b6001600160801b039081168252600060209283018190528581526001808801845260408083208651815488880151898501518816600160801b026001600160401b03918216600160401b026fffffffffffffffff0000000000000000199290941667ffffffffffffffff1990931692909217169190911786161781556060909601519582018054969094166001600160801b0319969096169590951790925590850186556001600160a01b03808c16825260048352838220908d16825290915220546114fa9088611672565b6001600160a01b03808a166000818152600460209081526040808320948f1680845294909152908190209390935591517ffb1fd0fee690638acf30008a00d7fc669e970dd6fa8912488ee11171986edabb9061155d908a9086908d908990612601565b60405180910390a35050505b505050505050565b600081602001516001600160401b031661158961186c565b63ffffffff16106115c8576115c182606001516001600160801b031683604001516001600160801b03166118b190919063ffffffff16565b90506111a9565b81516001600160401b03166115db61186c565b63ffffffff16116115ee575060006111a9565b8151602083015160009161160e916001600160401b0390811691166118b1565b9050600083600001516001600160401b031661162861186c565b63ffffffff160390506111a484606001516001600160801b031661166c8461166688604001516001600160801b0316866119c190919063ffffffff16565b90611a1a565b906118b1565b60008282018381101561044a576040805162461bcd60e51b815260206004820152601b60248201527f536166654d6174683a206164646974696f6e206f766572666c6f770000000000604482015290519081900360640190fd5b6000600160801b82106117105760405162461bcd60e51b815260040180806020018281038252602781526020018061269d6027913960400191505060405180910390fd5b5090565b806117315760405162461bcd60e51b81526004016104b4906124f2565b3360009081526004602090815260408083206001600160a01b038616845290915290205461175f90826118b1565b3360008181526004602090815260408083206001600160a01b0388168085529083528184209590955592825260058152828220938252929092529020546117a69082611672565b3360009081526005602090815260408083206001600160a01b038716808552925290912091909155611854576000336001600160a01b0316826040516117eb906122e7565b60006040518083038185875af1925050503d8060008114611828576040519150601f19603f3d011682016040523d82523d6000602084013e61182d565b606091505b505090508061184e5760405162461bcd60e51b81526004016104b490612400565b50611868565b6118686001600160a01b0383163383611a81565b5050565b4290565b600061044a836001600160a01b038416611ad8565b600061065482611b9e565b600061044a8383611ba2565b600061044a836001600160a01b038416611c06565b600082821115611908576040805162461bcd60e51b815260206004820152601e60248201527f536166654d6174683a207375627472616374696f6e206f766572666c6f770000604482015290519081900360640190fd5b50900390565b600061044a836001600160a01b038416611c50565b604080516001600160a01b0380861660248301528416604482015260648082018490528251808303909101815260849091019091526020810180516001600160e01b03166323b872dd60e01b179052610674908590611c68565b6000600160401b82106117105760405162461bcd60e51b815260040180806020018281038252602681526020018061270b6026913960400191505060405180910390fd5b6000826119d057506000610654565b828202828482816119dd57fe5b041461044a5760405162461bcd60e51b81526004018080602001828103825260218152602001806126ea6021913960400191505060405180910390fd5b6000808211611a70576040805162461bcd60e51b815260206004820152601a60248201527f536166654d6174683a206469766973696f6e206279207a65726f000000000000604482015290519081900360640190fd5b818381611a7957fe5b049392505050565b604080516001600160a01b038416602482015260448082018490528251808303909101815260649091019091526020810180516001600160e01b031663a9059cbb60e01b179052611ad3908490611c68565b505050565b60008181526001830160205260408120548015611b945783546000198083019190810190600090879083908110611b0b57fe5b9060005260206000200154905080876000018481548110611b2857fe5b600091825260208083209091019290925582815260018981019092526040902090840190558654879080611b5857fe5b60019003818190600052602060002001600090559055866001016000878152602001908152602001600020600090556001945050505050610654565b6000915050610654565b5490565b81546000908210611be45760405162461bcd60e51b815260040180806020018281038252602281526020018061267b6022913960400191505060405180910390fd5b826000018281548110611bf357fe5b9060005260206000200154905092915050565b6000611c128383611c50565b611c4857508154600181810184556000848152602080822090930184905584548482528286019093526040902091909155610654565b506000610654565b60009081526001919091016020526040902054151590565b6000611cbd826040518060400160405280602081526020017f5361666545524332303a206c6f772d6c6576656c2063616c6c206661696c6564815250856001600160a01b0316611d199092919063ffffffff16565b805190915015611ad357808060200190516020811015611cdc57600080fd5b5051611ad35760405162461bcd60e51b815260040180806020018281038252602a815260200180612731602a913960400191505060405180910390fd5b6060611d288484600085611d30565b949350505050565b606082471015611d715760405162461bcd60e51b81526004018080602001828103825260268152602001806126c46026913960400191505060405180910390fd5b611d7a85611e8b565b611dcb576040805162461bcd60e51b815260206004820152601d60248201527f416464726573733a2063616c6c20746f206e6f6e2d636f6e7472616374000000604482015290519081900360640190fd5b600080866001600160a01b031685876040518082805190602001908083835b60208310611e095780518252601f199092019160209182019101611dea565b6001836020036101000a03801982511681845116808217855250505050505090500191505060006040518083038185875af1925050503d8060008114611e6b576040519150601f19603f3d011682016040523d82523d6000602084013e611e70565b606091505b5091509150611e80828286611e91565b979650505050505050565b3b151590565b60608315611ea057508161044a565b825115611eb05782518084602001fd5b8160405162461bcd60e51b81526004018080602001828103825283818151815260200191508051906020019080838360005b83811015611efa578181015183820152602001611ee2565b50505050905090810190601f168015611f275780820380516001836020036101000a031916815260200191505b509250505060405180910390fd5b60408051608081018252600080825260208201819052918101829052606081019190915290565b60008083601f840112611f6d578081fd5b5081356001600160401b03811115611f83578182fd5b6020830191508360208083028501011115611f9d57600080fd5b9250929050565b803563ffffffff811681146111a957600080fd5b600060208284031215611fc9578081fd5b813561044a81612662565b60008060408385031215611fe6578081fd5b8235611ff181612662565b9150602083013561200181612662565b809150509250929050565b600080600060608486031215612020578081fd5b833561202b81612662565b9250602084013561203b81612662565b929592945050506040919091013590565b6000806020838503121561205e578182fd5b82356001600160401b03811115612073578283fd5b61207f85828601611f5c565b90969095509350505050565b600080600080604085870312156120a0578081fd5b84356001600160401b03808211156120b6578283fd5b6120c288838901611f5c565b909650945060208701359150808211156120da578283fd5b506120e787828801611f5c565b95989497509550505050565b60008060408385031215611fe6578182fd5b600080600080600060a0868803121561211c578081fd5b853561212781612662565b9450602086013561213781612662565b9350604086013592506060860135915061215360808701611fa4565b90509295509295909350565b60008060008060808587031215612174578384fd5b843561217f81612662565b9350602085013561218f81612662565b9250604085013591506121a460608601611fa4565b905092959194509250565b600080604083850312156121c1578182fd5b82356121cc81612662565b91506020838101356001600160401b03808211156121e8578384fd5b818601915086601f8301126121fb578384fd5b81358181111561220757fe5b8381026040518582820101818110858211171561222057fe5b604052828152858101935084860182860187018b101561223e578788fd5b8795505b83861015612260578035855260019590950194938601938601612242565b508096505050505050509250929050565b600080600060608486031215612285578283fd5b833561229081612662565b95602085013595506040909401359392505050565b6001600160401b038082511683528060208301511660208401525060408101516001600160801b03808216604085015280606084015116606085015250505050565b90565b6001600160a01b0391909116815260200190565b6020808252825182820181905260009190848201906040850190845b8181101561233f5783516001600160a01b03168352928401929184019160010161231a565b50909695505050505050565b6020808252825182820181905260009190848201906040850190845b8181101561233f5761237a8385516122a5565b9284019260809290920191600101612367565b6020808252825182820181905260009190848201906040850190845b8181101561233f578351835292840192918401916001016123a9565b901515815260200190565b6020808252601690820152750d2dcecc2d8d2c840e6c6d0cac8ead8ca40d2dcc8caf60531b604082015260600190565b60208082526010908201526f3330b4b6103a37903a3930b739b332b960811b604082015260600190565b60208082526018908201527f5f726577617264436f6e74726163742069732061646465640000000000000000604082015260600190565b6020808252601a908201527f5f726577617264436f6e74726163742069732072656d6f766564000000000000604082015260600190565b602080825260119082015270496e76616c6964206d73672e76616c756560781b604082015260600190565b6020808252601590820152740e6e8c2e4e892dcc8caf0407c40cadcc892dcc8caf605b1b604082015260600190565b60208082526010908201526f0c081d995cdd1a5b99c8185b5bdd5b9d60821b604082015260600190565b6020808252601490820152731bdb9b1e481c995dd85c990818dbdb9d1c9858dd60621b604082015260600190565b6020808252601f908201527f746f6b656e732e6c656e67746820213d20696e64696365732e6c656e67746800604082015260600190565b6020808252600a908201526930207175616e7469747960b01b604082015260600190565b6020808252601b908201527f726577617264436f6e74726163747320697320746f6f206c6f6e670000000000604082015260600190565b6080810161065482846122a5565b90815260200190565b918252602082015260400190565b93845260208401929092526040830152606082015260800190565b6000808335601e19843603018112612632578283fd5b8301803591506001600160401b0382111561264b578283fd5b6020908101925081023603821315611f9d57600080fd5b6001600160a01b038116811461267757600080fd5b5056fe456e756d657261626c655365743a20696e646578206f7574206f6620626f756e647353616665436173743a2076616c756520646f65736e27742066697420696e203132382062697473416464726573733a20696e73756666696369656e742062616c616e636520666f722063616c6c536166654d6174683a206d756c7469706c69636174696f6e206f766572666c6f7753616665436173743a2076616c756520646f65736e27742066697420696e20363420626974735361666545524332303a204552433230206f7065726174696f6e20646964206e6f742073756363656564a2646970667358221220134d5c7090f3a417c1dfdcce0f9e25ce5c82dae352e52d63cd0e01879a989a7264736f6c63430007060033",
					"opcodes": "PUSH1 0x80 PUSH1 0x40 MSTORE CALLVALUE DUP1 ISZERO PUSH3 0x11 JUMPI PUSH1 0x0 DUP1 REVERT JUMPDEST POP PUSH1 0x40 MLOAD PUSH3 0x2872 CODESIZE SUB DUP1 PUSH3 0x2872 DUP4 CODECOPY DUP2 ADD PUSH1 0x40 DUP2 SWAP1 MSTORE PUSH3 0x34 SWAP2 PUSH3 0xA2 JUMP JUMPDEST DUP1 PUSH1 0x1 PUSH1 0x1 PUSH1 0xA0 SHL SUB DUP2 AND PUSH3 0x7B JUMPI PUSH1 0x40 DUP1 MLOAD PUSH3 0x461BCD PUSH1 0xE5 SHL DUP2 MSTORE PUSH1 0x20 PUSH1 0x4 DUP3 ADD MSTORE PUSH1 0x7 PUSH1 0x24 DUP3 ADD MSTORE PUSH7 0x61646D696E203 PUSH1 0xCC SHL PUSH1 0x44 DUP3 ADD MSTORE SWAP1 MLOAD SWAP1 DUP2 SWAP1 SUB PUSH1 0x64 ADD SWAP1 REVERT JUMPDEST PUSH1 0x0 DUP1 SLOAD PUSH1 0x1 PUSH1 0x1 PUSH1 0xA0 SHL SUB NOT AND PUSH1 0x1 PUSH1 0x1 PUSH1 0xA0 SHL SUB SWAP3 SWAP1 SWAP3 AND SWAP2 SWAP1 SWAP2 OR SWAP1 SSTORE POP PUSH3 0xD2 JUMP JUMPDEST PUSH1 0x0 PUSH1 0x20 DUP3 DUP5 SUB SLT ISZERO PUSH3 0xB4 JUMPI DUP1 DUP2 REVERT JUMPDEST DUP2 MLOAD PUSH1 0x1 PUSH1 0x1 PUSH1 0xA0 SHL SUB DUP2 AND DUP2 EQ PUSH3 0xCB JUMPI DUP2 DUP3 REVERT JUMPDEST SWAP4 SWAP3 POP POP POP JUMP JUMPDEST PUSH2 0x2790 DUP1 PUSH3 0xE2 PUSH1 0x0 CODECOPY PUSH1 0x0 RETURN INVALID PUSH1 0x80 PUSH1 0x40 MSTORE PUSH1 0x4 CALLDATASIZE LT PUSH2 0x11F JUMPI PUSH1 0x0 CALLDATALOAD PUSH1 0xE0 SHR DUP1 PUSH4 0x75829DEF GT PUSH2 0xA0 JUMPI DUP1 PUSH4 0xC33FDDF8 GT PUSH2 0x64 JUMPI DUP1 PUSH4 0xC33FDDF8 EQ PUSH2 0x33A JUMPI DUP1 PUSH4 0xF793D77E EQ PUSH2 0x35A JUMPI DUP1 PUSH4 0xF851A440 EQ PUSH2 0x37A JUMPI DUP1 PUSH4 0xFDFAAA05 EQ PUSH2 0x38F JUMPI DUP1 PUSH4 0xFF4931D3 EQ PUSH2 0x3AF JUMPI PUSH2 0x11F JUMP JUMPDEST DUP1 PUSH4 0x75829DEF EQ PUSH2 0x298 JUMPI DUP1 PUSH4 0x77F50F97 EQ PUSH2 0x2B8 JUMPI DUP1 PUSH4 0x7ACC8678 EQ PUSH2 0x2CD JUMPI DUP1 PUSH4 0x9059AA6A EQ PUSH2 0x2ED JUMPI DUP1 PUSH4 0xBBD8A328 EQ PUSH2 0x30D JUMPI PUSH2 0x11F JUMP JUMPDEST DUP1 PUSH4 0x3B5BFA8B GT PUSH2 0xE7 JUMPI DUP1 PUSH4 0x3B5BFA8B EQ PUSH2 0x1EB JUMPI DUP1 PUSH4 0x4C9D00CC EQ PUSH2 0x20B JUMPI DUP1 PUSH4 0x4D4F3D93 EQ PUSH2 0x22B JUMPI DUP1 PUSH4 0x679F7F77 EQ PUSH2 0x258 JUMPI DUP1 PUSH4 0x6E732B70 EQ PUSH2 0x278 JUMPI PUSH2 0x11F JUMP JUMPDEST DUP1 PUSH4 0xA3B7E31 EQ PUSH2 0x124 JUMPI DUP1 PUSH4 0xF5636C3 EQ PUSH2 0x15A JUMPI DUP1 PUSH4 0x1E2FABB6 EQ PUSH2 0x187 JUMPI DUP1 PUSH4 0x26782247 EQ PUSH2 0x19C JUMPI DUP1 PUSH4 0x2F50BD72 EQ PUSH2 0x1BE JUMPI JUMPDEST PUSH1 0x0 DUP1 REVERT JUMPDEST CALLVALUE DUP1 ISZERO PUSH2 0x130 JUMPI PUSH1 0x0 DUP1 REVERT JUMPDEST POP PUSH2 0x144 PUSH2 0x13F CALLDATASIZE PUSH1 0x4 PUSH2 0x200C JUMP JUMPDEST PUSH2 0x3C2 JUMP JUMPDEST PUSH1 0x40 MLOAD PUSH2 0x151 SWAP2 SWAP1 PUSH2 0x25DC JUMP JUMPDEST PUSH1 0x40 MLOAD DUP1 SWAP2 SUB SWAP1 RETURN JUMPDEST CALLVALUE DUP1 ISZERO PUSH2 0x166 JUMPI PUSH1 0x0 DUP1 REVERT JUMPDEST POP PUSH2 0x17A PUSH2 0x175 CALLDATASIZE PUSH1 0x4 PUSH2 0x21AF JUMP JUMPDEST PUSH2 0x451 JUMP JUMPDEST PUSH1 0x40 MLOAD PUSH2 0x151 SWAP2 SWAP1 PUSH2 0x25EA JUMP JUMPDEST PUSH2 0x19A PUSH2 0x195 CALLDATASIZE PUSH1 0x4 PUSH2 0x215F JUMP JUMPDEST PUSH2 0x65A JUMP JUMPDEST STOP JUMPDEST CALLVALUE DUP1 ISZERO PUSH2 0x1A8 JUMPI PUSH1 0x0 DUP1 REVERT JUMPDEST POP PUSH2 0x1B1 PUSH2 0x67A JUMP JUMPDEST PUSH1 0x40 MLOAD PUSH2 0x151 SWAP2 SWAP1 PUSH2 0x22EA JUMP JUMPDEST CALLVALUE DUP1 ISZERO PUSH2 0x1CA JUMPI PUSH1 0x0 DUP1 REVERT JUMPDEST POP PUSH2 0x1DE PUSH2 0x1D9 CALLDATASIZE PUSH1 0x4 PUSH2 0x1FD4 JUMP JUMPDEST PUSH2 0x689 JUMP JUMPDEST PUSH1 0x40 MLOAD PUSH2 0x151 SWAP2 SWAP1 PUSH2 0x234B JUMP JUMPDEST CALLVALUE DUP1 ISZERO PUSH2 0x1F7 JUMPI PUSH1 0x0 DUP1 REVERT JUMPDEST POP PUSH2 0x17A PUSH2 0x206 CALLDATASIZE PUSH1 0x4 PUSH2 0x1FD4 JUMP JUMPDEST PUSH2 0x7B7 JUMP JUMPDEST CALLVALUE DUP1 ISZERO PUSH2 0x217 JUMPI PUSH1 0x0 DUP1 REVERT JUMPDEST POP PUSH2 0x19A PUSH2 0x226 CALLDATASIZE PUSH1 0x4 PUSH2 0x20F3 JUMP JUMPDEST PUSH2 0x7D4 JUMP JUMPDEST CALLVALUE DUP1 ISZERO PUSH2 0x237 JUMPI PUSH1 0x0 DUP1 REVERT JUMPDEST POP PUSH2 0x24B PUSH2 0x246 CALLDATASIZE PUSH1 0x4 PUSH2 0x208B JUMP JUMPDEST PUSH2 0x8AE JUMP JUMPDEST PUSH1 0x40 MLOAD PUSH2 0x151 SWAP2 SWAP1 PUSH2 0x238D JUMP JUMPDEST CALLVALUE DUP1 ISZERO PUSH2 0x264 JUMPI PUSH1 0x0 DUP1 REVERT JUMPDEST POP PUSH2 0x17A PUSH2 0x273 CALLDATASIZE PUSH1 0x4 PUSH2 0x1FD4 JUMP JUMPDEST PUSH2 0x9BE JUMP JUMPDEST CALLVALUE DUP1 ISZERO PUSH2 0x284 JUMPI PUSH1 0x0 DUP1 REVERT JUMPDEST POP PUSH2 0x17A PUSH2 0x293 CALLDATASIZE PUSH1 0x4 PUSH2 0x1FD4 JUMP JUMPDEST PUSH2 0x9E9 JUMP JUMPDEST CALLVALUE DUP1 ISZERO PUSH2 0x2A4 JUMPI PUSH1 0x0 DUP1 REVERT JUMPDEST POP PUSH2 0x19A PUSH2 0x2B3 CALLDATASIZE PUSH1 0x4 PUSH2 0x1FB8 JUMP JUMPDEST PUSH2 0xA06 JUMP JUMPDEST CALLVALUE DUP1 ISZERO PUSH2 0x2C4 JUMPI PUSH1 0x0 DUP1 REVERT JUMPDEST POP PUSH2 0x19A PUSH2 0xAF9 JUMP JUMPDEST CALLVALUE DUP1 ISZERO PUSH2 0x2D9 JUMPI PUSH1 0x0 DUP1 REVERT JUMPDEST POP PUSH2 0x19A PUSH2 0x2E8 CALLDATASIZE PUSH1 0x4 PUSH2 0x1FB8 JUMP JUMPDEST PUSH2 0xBB9 JUMP JUMPDEST CALLVALUE DUP1 ISZERO PUSH2 0x2F9 JUMPI PUSH1 0x0 DUP1 REVERT JUMPDEST POP PUSH2 0x24B PUSH2 0x308 CALLDATASIZE PUSH1 0x4 PUSH2 0x204C JUMP JUMPDEST PUSH2 0xCF0 JUMP JUMPDEST CALLVALUE DUP1 ISZERO PUSH2 0x319 JUMPI PUSH1 0x0 DUP1 REVERT JUMPDEST POP PUSH2 0x32D PUSH2 0x328 CALLDATASIZE PUSH1 0x4 PUSH2 0x1FB8 JUMP JUMPDEST PUSH2 0xD8A JUMP JUMPDEST PUSH1 0x40 MLOAD PUSH2 0x151 SWAP2 SWAP1 PUSH2 0x22FE JUMP JUMPDEST CALLVALUE DUP1 ISZERO PUSH2 0x346 JUMPI PUSH1 0x0 DUP1 REVERT JUMPDEST POP PUSH2 0x17A PUSH2 0x355 CALLDATASIZE PUSH1 0x4 PUSH2 0x2271 JUMP JUMPDEST PUSH2 0xE50 JUMP JUMPDEST CALLVALUE DUP1 ISZERO PUSH2 0x366 JUMPI PUSH1 0x0 DUP1 REVERT JUMPDEST POP PUSH2 0x19A PUSH2 0x375 CALLDATASIZE PUSH1 0x4 PUSH2 0x20F3 JUMP JUMPDEST PUSH2 0xEFB JUMP JUMPDEST CALLVALUE DUP1 ISZERO PUSH2 0x386 JUMPI PUSH1 0x0 DUP1 REVERT JUMPDEST POP PUSH2 0x1B1 PUSH2 0x100A JUMP JUMPDEST CALLVALUE DUP1 ISZERO PUSH2 0x39B JUMPI PUSH1 0x0 DUP1 REVERT JUMPDEST POP PUSH2 0x17A PUSH2 0x3AA CALLDATASIZE PUSH1 0x4 PUSH2 0x1FB8 JUMP JUMPDEST PUSH2 0x1019 JUMP JUMPDEST PUSH2 0x19A PUSH2 0x3BD CALLDATASIZE PUSH1 0x4 PUSH2 0x2105 JUMP JUMPDEST PUSH2 0x11AE JUMP JUMPDEST PUSH2 0x3CA PUSH2 0x1F35 JUMP JUMPDEST POP PUSH1 0x1 PUSH1 0x1 PUSH1 0xA0 SHL SUB DUP1 DUP5 AND PUSH1 0x0 SWAP1 DUP2 MSTORE PUSH1 0x3 PUSH1 0x20 SWAP1 DUP2 MSTORE PUSH1 0x40 DUP1 DUP4 KECCAK256 SWAP4 DUP7 AND DUP4 MSTORE SWAP3 DUP2 MSTORE DUP3 DUP3 KECCAK256 DUP5 DUP4 MSTORE PUSH1 0x1 SWAP1 DUP2 ADD DUP3 MSTORE SWAP2 DUP4 SWAP1 KECCAK256 DUP4 MLOAD PUSH1 0x80 DUP2 ADD DUP6 MSTORE DUP2 SLOAD PUSH1 0x1 PUSH1 0x1 PUSH1 0x40 SHL SUB DUP1 DUP3 AND DUP4 MSTORE PUSH1 0x1 PUSH1 0x40 SHL DUP3 DIV AND SWAP4 DUP3 ADD SWAP4 SWAP1 SWAP4 MSTORE PUSH1 0x1 PUSH1 0x1 PUSH1 0x80 SHL SUB PUSH1 0x1 PUSH1 0x80 SHL SWAP1 SWAP4 DIV DUP4 AND SWAP5 DUP2 ADD SWAP5 SWAP1 SWAP5 MSTORE SWAP1 SWAP2 ADD SLOAD AND PUSH1 0x60 DUP3 ADD MSTORE JUMPDEST SWAP4 SWAP3 POP POP POP JUMP JUMPDEST CALLER PUSH1 0x0 SWAP1 DUP2 MSTORE PUSH1 0x3 PUSH1 0x20 SWAP1 DUP2 MSTORE PUSH1 0x40 DUP1 DUP4 KECCAK256 PUSH1 0x1 PUSH1 0x1 PUSH1 0xA0 SHL SUB DUP7 AND DUP5 MSTORE SWAP1 SWAP2 MSTORE DUP2 KECCAK256 DUP1 SLOAD DUP3 DUP1 JUMPDEST DUP6 MLOAD DUP2 LT ISZERO PUSH2 0x644 JUMPI DUP3 DUP7 DUP3 DUP2 MLOAD DUP2 LT PUSH2 0x48F JUMPI INVALID JUMPDEST PUSH1 0x20 MUL PUSH1 0x20 ADD ADD MLOAD LT PUSH2 0x4BD JUMPI PUSH1 0x40 MLOAD PUSH3 0x461BCD PUSH1 0xE5 SHL DUP2 MSTORE PUSH1 0x4 ADD PUSH2 0x4B4 SWAP1 PUSH2 0x23D0 JUMP JUMPDEST PUSH1 0x40 MLOAD DUP1 SWAP2 SUB SWAP1 REVERT JUMPDEST PUSH1 0x0 DUP5 PUSH1 0x1 ADD PUSH1 0x0 DUP9 DUP5 DUP2 MLOAD DUP2 LT PUSH2 0x4D1 JUMPI INVALID JUMPDEST PUSH1 0x20 SWAP1 DUP2 MUL SWAP2 SWAP1 SWAP2 ADD DUP2 ADD MLOAD DUP3 MSTORE DUP2 DUP2 ADD SWAP3 SWAP1 SWAP3 MSTORE PUSH1 0x40 SWAP1 DUP2 ADD PUSH1 0x0 SWAP1 DUP2 KECCAK256 DUP3 MLOAD PUSH1 0x80 DUP2 ADD DUP5 MSTORE DUP2 SLOAD PUSH1 0x1 PUSH1 0x1 PUSH1 0x40 SHL SUB DUP1 DUP3 AND DUP4 MSTORE PUSH1 0x1 PUSH1 0x40 SHL DUP3 DIV AND SWAP6 DUP3 ADD SWAP6 SWAP1 SWAP6 MSTORE PUSH1 0x1 PUSH1 0x1 PUSH1 0x80 SHL SUB PUSH1 0x1 PUSH1 0x80 SHL SWAP1 SWAP6 DIV DUP6 AND SWAP4 DUP2 ADD SWAP4 SWAP1 SWAP4 MSTORE PUSH1 0x1 ADD SLOAD SWAP1 SWAP3 AND PUSH1 0x60 DUP3 ADD MSTORE SWAP2 POP PUSH2 0x546 DUP3 PUSH2 0x1571 JUMP JUMPDEST SWAP1 POP DUP1 PUSH2 0x554 JUMPI POP POP PUSH2 0x63C JUMP JUMPDEST PUSH1 0x60 DUP3 ADD MLOAD PUSH2 0x575 SWAP1 PUSH2 0x570 SWAP1 PUSH1 0x1 PUSH1 0x1 PUSH1 0x80 SHL SUB AND DUP4 PUSH2 0x1672 JUMP JUMPDEST PUSH2 0x16CC JUMP JUMPDEST DUP7 PUSH1 0x1 ADD PUSH1 0x0 DUP11 DUP7 DUP2 MLOAD DUP2 LT PUSH2 0x587 JUMPI INVALID JUMPDEST PUSH1 0x20 MUL PUSH1 0x20 ADD ADD MLOAD DUP2 MSTORE PUSH1 0x20 ADD SWAP1 DUP2 MSTORE PUSH1 0x20 ADD PUSH1 0x0 KECCAK256 PUSH1 0x1 ADD PUSH1 0x0 PUSH2 0x100 EXP DUP2 SLOAD DUP2 PUSH1 0x1 PUSH1 0x1 PUSH1 0x80 SHL SUB MUL NOT AND SWAP1 DUP4 PUSH1 0x1 PUSH1 0x1 PUSH1 0x80 SHL SUB AND MUL OR SWAP1 SSTORE POP PUSH2 0x5D7 DUP2 DUP6 PUSH2 0x1672 SWAP1 SWAP2 SWAP1 PUSH4 0xFFFFFFFF AND JUMP JUMPDEST SWAP4 POP CALLER PUSH1 0x1 PUSH1 0x1 PUSH1 0xA0 SHL SUB AND DUP10 PUSH1 0x1 PUSH1 0x1 PUSH1 0xA0 SHL SUB AND PUSH32 0x6D06F0A463D80B43FE6CD0B79C61BB2790CFE898790E69828F25E6E12886E178 DUP4 DUP12 DUP8 DUP2 MLOAD DUP2 LT PUSH2 0x61B JUMPI INVALID JUMPDEST PUSH1 0x20 MUL PUSH1 0x20 ADD ADD MLOAD PUSH1 0x40 MLOAD PUSH2 0x631 SWAP3 SWAP2 SWAP1 PUSH2 0x25F3 JUMP JUMPDEST PUSH1 0x40 MLOAD DUP1 SWAP2 SUB SWAP1 LOG3 POP POP JUMPDEST PUSH1 0x1 ADD PUSH2 0x479 JUMP JUMPDEST POP PUSH2 0x64F DUP7 DUP3 PUSH2 0x1714 JUMP JUMPDEST SWAP3 POP POP POP JUMPDEST SWAP3 SWAP2 POP POP JUMP JUMPDEST PUSH2 0x674 DUP5 DUP5 DUP5 PUSH2 0x668 PUSH2 0x186C JUMP JUMPDEST PUSH4 0xFFFFFFFF AND DUP6 PUSH2 0x11AE JUMP JUMPDEST POP POP POP POP JUMP JUMPDEST PUSH1 0x1 SLOAD PUSH1 0x1 PUSH1 0x1 PUSH1 0xA0 SHL SUB AND DUP2 JUMP JUMPDEST PUSH1 0x1 PUSH1 0x1 PUSH1 0xA0 SHL SUB DUP1 DUP4 AND PUSH1 0x0 SWAP1 DUP2 MSTORE PUSH1 0x3 PUSH1 0x20 SWAP1 DUP2 MSTORE PUSH1 0x40 DUP1 DUP4 KECCAK256 SWAP4 DUP6 AND DUP4 MSTORE SWAP3 SWAP1 MSTORE KECCAK256 SLOAD PUSH1 0x60 SWAP1 DUP1 PUSH1 0x1 PUSH1 0x1 PUSH1 0x40 SHL SUB DUP2 GT DUP1 ISZERO PUSH2 0x6C8 JUMPI PUSH1 0x0 DUP1 REVERT JUMPDEST POP PUSH1 0x40 MLOAD SWAP1 DUP1 DUP3 MSTORE DUP1 PUSH1 0x20 MUL PUSH1 0x20 ADD DUP3 ADD PUSH1 0x40 MSTORE DUP1 ISZERO PUSH2 0x702 JUMPI DUP2 PUSH1 0x20 ADD JUMPDEST PUSH2 0x6EF PUSH2 0x1F35 JUMP JUMPDEST DUP2 MSTORE PUSH1 0x20 ADD SWAP1 PUSH1 0x1 SWAP1 SUB SWAP1 DUP2 PUSH2 0x6E7 JUMPI SWAP1 POP JUMPDEST POP SWAP2 POP PUSH1 0x0 JUMPDEST DUP2 DUP2 LT ISZERO PUSH2 0x7AF JUMPI PUSH1 0x1 PUSH1 0x1 PUSH1 0xA0 SHL SUB DUP1 DUP7 AND PUSH1 0x0 SWAP1 DUP2 MSTORE PUSH1 0x3 PUSH1 0x20 SWAP1 DUP2 MSTORE PUSH1 0x40 DUP1 DUP4 KECCAK256 SWAP4 DUP9 AND DUP4 MSTORE SWAP3 DUP2 MSTORE DUP3 DUP3 KECCAK256 DUP5 DUP4 MSTORE PUSH1 0x1 SWAP1 DUP2 ADD DUP3 MSTORE SWAP2 DUP4 SWAP1 KECCAK256 DUP4 MLOAD PUSH1 0x80 DUP2 ADD DUP6 MSTORE DUP2 SLOAD PUSH1 0x1 PUSH1 0x1 PUSH1 0x40 SHL SUB DUP1 DUP3 AND DUP4 MSTORE PUSH1 0x1 PUSH1 0x40 SHL DUP3 DIV AND SWAP4 DUP3 ADD SWAP4 SWAP1 SWAP4 MSTORE PUSH1 0x1 PUSH1 0x1 PUSH1 0x80 SHL SUB PUSH1 0x1 PUSH1 0x80 SHL SWAP1 SWAP4 DIV DUP4 AND SWAP5 DUP2 ADD SWAP5 SWAP1 SWAP5 MSTORE SWAP1 SWAP2 ADD SLOAD AND PUSH1 0x60 DUP3 ADD MSTORE DUP4 MLOAD DUP5 SWAP1 DUP4 SWAP1 DUP2 LT PUSH2 0x79C JUMPI INVALID JUMPDEST PUSH1 0x20 SWAP1 DUP2 MUL SWAP2 SWAP1 SWAP2 ADD ADD MSTORE PUSH1 0x1 ADD PUSH2 0x708 JUMP JUMPDEST POP POP SWAP3 SWAP2 POP POP JUMP JUMPDEST PUSH1 0x5 PUSH1 0x20 SWAP1 DUP2 MSTORE PUSH1 0x0 SWAP3 DUP4 MSTORE PUSH1 0x40 DUP1 DUP5 KECCAK256 SWAP1 SWAP2 MSTORE SWAP1 DUP3 MSTORE SWAP1 KECCAK256 SLOAD DUP2 JUMP JUMPDEST PUSH1 0x0 SLOAD PUSH1 0x1 PUSH1 0x1 PUSH1 0xA0 SHL SUB AND CALLER EQ PUSH2 0x820 JUMPI PUSH1 0x40 DUP1 MLOAD PUSH3 0x461BCD PUSH1 0xE5 SHL DUP2 MSTORE PUSH1 0x20 PUSH1 0x4 DUP3 ADD MSTORE PUSH1 0xA PUSH1 0x24 DUP3 ADD MSTORE PUSH10 0x37B7363C9030B236B4B7 PUSH1 0xB1 SHL PUSH1 0x44 DUP3 ADD MSTORE SWAP1 MLOAD SWAP1 DUP2 SWAP1 SUB PUSH1 0x64 ADD SWAP1 REVERT JUMPDEST PUSH1 0x1 PUSH1 0x1 PUSH1 0xA0 SHL SUB DUP3 AND PUSH1 0x0 SWAP1 DUP2 MSTORE PUSH1 0x2 PUSH1 0x20 MSTORE PUSH1 0x40 SWAP1 KECCAK256 PUSH2 0x842 SWAP1 DUP3 PUSH2 0x1870 JUMP JUMPDEST PUSH2 0x85E JUMPI PUSH1 0x40 MLOAD PUSH3 0x461BCD PUSH1 0xE5 SHL DUP2 MSTORE PUSH1 0x4 ADD PUSH2 0x4B4 SWAP1 PUSH2 0x2461 JUMP JUMPDEST DUP2 PUSH1 0x1 PUSH1 0x1 PUSH1 0xA0 SHL SUB AND DUP2 PUSH1 0x1 PUSH1 0x1 PUSH1 0xA0 SHL SUB AND PUSH32 0x88A8C998079A07D6A1E59A32CE0C359A00E4C94CE7A6068350A9574E7E0F993D PUSH1 0x0 PUSH1 0x40 MLOAD PUSH2 0x8A2 SWAP2 SWAP1 PUSH2 0x23C5 JUMP JUMPDEST PUSH1 0x40 MLOAD DUP1 SWAP2 SUB SWAP1 LOG3 POP POP JUMP JUMPDEST PUSH1 0x60 DUP4 DUP3 EQ PUSH2 0x8CF JUMPI PUSH1 0x40 MLOAD PUSH3 0x461BCD PUSH1 0xE5 SHL DUP2 MSTORE PUSH1 0x4 ADD PUSH2 0x4B4 SWAP1 PUSH2 0x254A JUMP JUMPDEST DUP4 PUSH1 0x1 PUSH1 0x1 PUSH1 0x40 SHL SUB DUP2 GT DUP1 ISZERO PUSH2 0x8E5 JUMPI PUSH1 0x0 DUP1 REVERT JUMPDEST POP PUSH1 0x40 MLOAD SWAP1 DUP1 DUP3 MSTORE DUP1 PUSH1 0x20 MUL PUSH1 0x20 ADD DUP3 ADD PUSH1 0x40 MSTORE DUP1 ISZERO PUSH2 0x90F JUMPI DUP2 PUSH1 0x20 ADD PUSH1 0x20 DUP3 MUL DUP1 CALLDATASIZE DUP4 CALLDATACOPY ADD SWAP1 POP JUMPDEST POP SWAP1 POP PUSH1 0x0 JUMPDEST DUP5 DUP2 LT ISZERO PUSH2 0x9B5 JUMPI PUSH2 0x996 DUP7 DUP7 DUP4 DUP2 DUP2 LT PUSH2 0x92C JUMPI INVALID JUMPDEST SWAP1 POP PUSH1 0x20 MUL ADD PUSH1 0x20 DUP2 ADD SWAP1 PUSH2 0x941 SWAP2 SWAP1 PUSH2 0x1FB8 JUMP JUMPDEST DUP6 DUP6 DUP5 DUP2 DUP2 LT PUSH2 0x94D JUMPI INVALID JUMPDEST SWAP1 POP PUSH1 0x20 MUL DUP2 ADD SWAP1 PUSH2 0x95F SWAP2 SWAP1 PUSH2 0x261C JUMP JUMPDEST DUP1 DUP1 PUSH1 0x20 MUL PUSH1 0x20 ADD PUSH1 0x40 MLOAD SWAP1 DUP2 ADD PUSH1 0x40 MSTORE DUP1 SWAP4 SWAP3 SWAP2 SWAP1 DUP2 DUP2 MSTORE PUSH1 0x20 ADD DUP4 DUP4 PUSH1 0x20 MUL DUP1 DUP3 DUP5 CALLDATACOPY PUSH1 0x0 SWAP3 ADD SWAP2 SWAP1 SWAP2 MSTORE POP PUSH2 0x451 SWAP3 POP POP POP JUMP JUMPDEST DUP3 DUP3 DUP2 MLOAD DUP2 LT PUSH2 0x9A2 JUMPI INVALID JUMPDEST PUSH1 0x20 SWAP1 DUP2 MUL SWAP2 SWAP1 SWAP2 ADD ADD MSTORE PUSH1 0x1 ADD PUSH2 0x915 JUMP JUMPDEST POP SWAP5 SWAP4 POP POP POP POP JUMP JUMPDEST PUSH1 0x1 PUSH1 0x1 PUSH1 0xA0 SHL SUB SWAP2 DUP3 AND PUSH1 0x0 SWAP1 DUP2 MSTORE PUSH1 0x3 PUSH1 0x20 SWAP1 DUP2 MSTORE PUSH1 0x40 DUP1 DUP4 KECCAK256 SWAP4 SWAP1 SWAP5 AND DUP3 MSTORE SWAP2 SWAP1 SWAP2 MSTORE KECCAK256 SLOAD SWAP1 JUMP JUMPDEST PUSH1 0x4 PUSH1 0x20 SWAP1 DUP2 MSTORE PUSH1 0x0 SWAP3 DUP4 MSTORE PUSH1 0x40 DUP1 DUP5 KECCAK256 SWAP1 SWAP2 MSTORE SWAP1 DUP3 MSTORE SWAP1 KECCAK256 SLOAD DUP2 JUMP JUMPDEST PUSH1 0x0 SLOAD PUSH1 0x1 PUSH1 0x1 PUSH1 0xA0 SHL SUB AND CALLER EQ PUSH2 0xA52 JUMPI PUSH1 0x40 DUP1 MLOAD PUSH3 0x461BCD PUSH1 0xE5 SHL DUP2 MSTORE PUSH1 0x20 PUSH1 0x4 DUP3 ADD MSTORE PUSH1 0xA PUSH1 0x24 DUP3 ADD MSTORE PUSH10 0x37B7363C9030B236B4B7 PUSH1 0xB1 SHL PUSH1 0x44 DUP3 ADD MSTORE SWAP1 MLOAD SWAP1 DUP2 SWAP1 SUB PUSH1 0x64 ADD SWAP1 REVERT JUMPDEST PUSH1 0x1 PUSH1 0x1 PUSH1 0xA0 SHL SUB DUP2 AND PUSH2 0xA9B JUMPI PUSH1 0x40 DUP1 MLOAD PUSH3 0x461BCD PUSH1 0xE5 SHL DUP2 MSTORE PUSH1 0x20 PUSH1 0x4 DUP3 ADD MSTORE PUSH1 0xB PUSH1 0x24 DUP3 ADD MSTORE PUSH11 0x6E65772061646D696E203 PUSH1 0xAC SHL PUSH1 0x44 DUP3 ADD MSTORE SWAP1 MLOAD SWAP1 DUP2 SWAP1 SUB PUSH1 0x64 ADD SWAP1 REVERT JUMPDEST PUSH1 0x40 DUP1 MLOAD PUSH1 0x1 PUSH1 0x1 PUSH1 0xA0 SHL SUB DUP4 AND DUP2 MSTORE SWAP1 MLOAD PUSH32 0x3B81CAF78FA51ECBC8ACB482FD7012A277B428D9B80F9D156E8A54107496CC40 SWAP2 DUP2 SWAP1 SUB PUSH1 0x20 ADD SWAP1 LOG1 PUSH1 0x1 DUP1 SLOAD PUSH1 0x1 PUSH1 0x1 PUSH1 0xA0 SHL SUB NOT AND PUSH1 0x1 PUSH1 0x1 PUSH1 0xA0 SHL SUB SWAP3 SWAP1 SWAP3 AND SWAP2 SWAP1 SWAP2 OR SWAP1 SSTORE JUMP JUMPDEST PUSH1 0x1 SLOAD PUSH1 0x1 PUSH1 0x1 PUSH1 0xA0 SHL SUB AND CALLER EQ PUSH2 0xB46 JUMPI PUSH1 0x40 DUP1 MLOAD PUSH3 0x461BCD PUSH1 0xE5 SHL DUP2 MSTORE PUSH1 0x20 PUSH1 0x4 DUP3 ADD MSTORE PUSH1 0xB PUSH1 0x24 DUP3 ADD MSTORE PUSH11 0x6E6F742070656E64696E67 PUSH1 0xA8 SHL PUSH1 0x44 DUP3 ADD MSTORE SWAP1 MLOAD SWAP1 DUP2 SWAP1 SUB PUSH1 0x64 ADD SWAP1 REVERT JUMPDEST PUSH1 0x1 SLOAD PUSH1 0x0 SLOAD PUSH1 0x40 DUP1 MLOAD PUSH1 0x1 PUSH1 0x1 PUSH1 0xA0 SHL SUB SWAP4 DUP5 AND DUP2 MSTORE SWAP3 SWAP1 SWAP2 AND PUSH1 0x20 DUP4 ADD MSTORE DUP1 MLOAD PUSH32 0x65DA1CFC2C2E81576AD96AFB24A581F8E109B7A403B35CBD3243A1C99EFDB9ED SWAP3 DUP2 SWAP1 SUB SWAP1 SWAP2 ADD SWAP1 LOG1 PUSH1 0x1 DUP1 SLOAD PUSH1 0x0 DUP1 SLOAD PUSH1 0x1 PUSH1 0x1 PUSH1 0xA0 SHL SUB NOT SWAP1 DUP2 AND PUSH1 0x1 PUSH1 0x1 PUSH1 0xA0 SHL SUB DUP5 AND OR SWAP1 SWAP2 SSTORE AND SWAP1 SSTORE JUMP JUMPDEST PUSH1 0x0 SLOAD PUSH1 0x1 PUSH1 0x1 PUSH1 0xA0 SHL SUB AND CALLER EQ PUSH2 0xC05 JUMPI PUSH1 0x40 DUP1 MLOAD PUSH3 0x461BCD PUSH1 0xE5 SHL DUP2 MSTORE PUSH1 0x20 PUSH1 0x4 DUP3 ADD MSTORE PUSH1 0xA PUSH1 0x24 DUP3 ADD MSTORE PUSH10 0x37B7363C9030B236B4B7 PUSH1 0xB1 SHL PUSH1 0x44 DUP3 ADD MSTORE SWAP1 MLOAD SWAP1 DUP2 SWAP1 SUB PUSH1 0x64 ADD SWAP1 REVERT JUMPDEST PUSH1 0x1 PUSH1 0x1 PUSH1 0xA0 SHL SUB DUP2 AND PUSH2 0xC4A JUMPI PUSH1 0x40 DUP1 MLOAD PUSH3 0x461BCD PUSH1 0xE5 SHL DUP2 MSTORE PUSH1 0x20 PUSH1 0x4 DUP3 ADD MSTORE PUSH1 0x7 PUSH1 0x24 DUP3 ADD MSTORE PUSH7 0x61646D696E203 PUSH1 0xCC SHL PUSH1 0x44 DUP3 ADD MSTORE SWAP1 MLOAD SWAP1 DUP2 SWAP1 SUB PUSH1 0x64 ADD SWAP1 REVERT JUMPDEST PUSH1 0x40 DUP1 MLOAD PUSH1 0x1 PUSH1 0x1 PUSH1 0xA0 SHL SUB DUP4 AND DUP2 MSTORE SWAP1 MLOAD PUSH32 0x3B81CAF78FA51ECBC8ACB482FD7012A277B428D9B80F9D156E8A54107496CC40 SWAP2 DUP2 SWAP1 SUB PUSH1 0x20 ADD SWAP1 LOG1 PUSH1 0x0 SLOAD PUSH1 0x40 DUP1 MLOAD PUSH1 0x1 PUSH1 0x1 PUSH1 0xA0 SHL SUB DUP1 DUP6 AND DUP3 MSTORE SWAP1 SWAP3 AND PUSH1 0x20 DUP4 ADD MSTORE DUP1 MLOAD PUSH32 0x65DA1CFC2C2E81576AD96AFB24A581F8E109B7A403B35CBD3243A1C99EFDB9ED SWAP3 DUP2 SWAP1 SUB SWAP1 SWAP2 ADD SWAP1 LOG1 PUSH1 0x0 DUP1 SLOAD PUSH1 0x1 PUSH1 0x1 PUSH1 0xA0 SHL SUB NOT AND PUSH1 0x1 PUSH1 0x1 PUSH1 0xA0 SHL SUB SWAP3 SWAP1 SWAP3 AND SWAP2 SWAP1 SWAP2 OR SWAP1 SSTORE JUMP JUMPDEST PUSH1 0x60 DUP2 PUSH1 0x1 PUSH1 0x1 PUSH1 0x40 SHL SUB DUP2 GT DUP1 ISZERO PUSH2 0xD08 JUMPI PUSH1 0x0 DUP1 REVERT JUMPDEST POP PUSH1 0x40 MLOAD SWAP1 DUP1 DUP3 MSTORE DUP1 PUSH1 0x20 MUL PUSH1 0x20 ADD DUP3 ADD PUSH1 0x40 MSTORE DUP1 ISZERO PUSH2 0xD32 JUMPI DUP2 PUSH1 0x20 ADD PUSH1 0x20 DUP3 MUL DUP1 CALLDATASIZE DUP4 CALLDATACOPY ADD SWAP1 POP JUMPDEST POP SWAP1 POP PUSH1 0x0 JUMPDEST DUP3 DUP2 LT ISZERO PUSH2 0xD83 JUMPI PUSH2 0xD64 DUP5 DUP5 DUP4 DUP2 DUP2 LT PUSH2 0xD4F JUMPI INVALID JUMPDEST SWAP1 POP PUSH1 0x20 MUL ADD PUSH1 0x20 DUP2 ADD SWAP1 PUSH2 0x3AA SWAP2 SWAP1 PUSH2 0x1FB8 JUMP JUMPDEST DUP3 DUP3 DUP2 MLOAD DUP2 LT PUSH2 0xD70 JUMPI INVALID JUMPDEST PUSH1 0x20 SWAP1 DUP2 MUL SWAP2 SWAP1 SWAP2 ADD ADD MSTORE PUSH1 0x1 ADD PUSH2 0xD38 JUMP JUMPDEST POP SWAP3 SWAP2 POP POP JUMP JUMPDEST PUSH1 0x1 PUSH1 0x1 PUSH1 0xA0 SHL SUB DUP2 AND PUSH1 0x0 SWAP1 DUP2 MSTORE PUSH1 0x2 PUSH1 0x20 MSTORE PUSH1 0x40 SWAP1 KECCAK256 PUSH1 0x60 SWAP1 PUSH2 0xDAE SWAP1 PUSH2 0x1885 JUMP JUMPDEST PUSH1 0x1 PUSH1 0x1 PUSH1 0x40 SHL SUB DUP2 GT DUP1 ISZERO PUSH2 0xDC3 JUMPI PUSH1 0x0 DUP1 REVERT JUMPDEST POP PUSH1 0x40 MLOAD SWAP1 DUP1 DUP3 MSTORE DUP1 PUSH1 0x20 MUL PUSH1 0x20 ADD DUP3 ADD PUSH1 0x40 MSTORE DUP1 ISZERO PUSH2 0xDED JUMPI DUP2 PUSH1 0x20 ADD PUSH1 0x20 DUP3 MUL DUP1 CALLDATASIZE DUP4 CALLDATACOPY ADD SWAP1 POP JUMPDEST POP SWAP1 POP PUSH1 0x0 JUMPDEST DUP2 MLOAD DUP2 LT ISZERO PUSH2 0xE4A JUMPI PUSH1 0x1 PUSH1 0x1 PUSH1 0xA0 SHL SUB DUP4 AND PUSH1 0x0 SWAP1 DUP2 MSTORE PUSH1 0x2 PUSH1 0x20 MSTORE PUSH1 0x40 SWAP1 KECCAK256 PUSH2 0xE1E SWAP1 DUP3 PUSH2 0x1890 JUMP JUMPDEST DUP3 DUP3 DUP2 MLOAD DUP2 LT PUSH2 0xE2A JUMPI INVALID JUMPDEST PUSH1 0x1 PUSH1 0x1 PUSH1 0xA0 SHL SUB SWAP1 SWAP3 AND PUSH1 0x20 SWAP3 DUP4 MUL SWAP2 SWAP1 SWAP2 ADD SWAP1 SWAP2 ADD MSTORE PUSH1 0x1 ADD PUSH2 0xDF3 JUMP JUMPDEST POP SWAP2 SWAP1 POP JUMP JUMPDEST PUSH1 0x0 DUP2 DUP4 GT ISZERO PUSH2 0xE72 JUMPI PUSH1 0x40 MLOAD PUSH3 0x461BCD PUSH1 0xE5 SHL DUP2 MSTORE PUSH1 0x4 ADD PUSH2 0x4B4 SWAP1 PUSH2 0x24C3 JUMP JUMPDEST PUSH1 0x0 DUP4 DUP4 SUB PUSH1 0x1 ADD PUSH1 0x1 PUSH1 0x1 PUSH1 0x40 SHL SUB DUP2 GT DUP1 ISZERO PUSH2 0xE8F JUMPI PUSH1 0x0 DUP1 REVERT JUMPDEST POP PUSH1 0x40 MLOAD SWAP1 DUP1 DUP3 MSTORE DUP1 PUSH1 0x20 MUL PUSH1 0x20 ADD DUP3 ADD PUSH1 0x40 MSTORE DUP1 ISZERO PUSH2 0xEB9 JUMPI DUP2 PUSH1 0x20 ADD PUSH1 0x20 DUP3 MUL DUP1 CALLDATASIZE DUP4 CALLDATACOPY ADD SWAP1 POP JUMPDEST POP SWAP1 POP DUP4 JUMPDEST DUP4 DUP2 GT PUSH2 0xEE7 JUMPI DUP1 DUP3 DUP7 DUP4 SUB DUP2 MLOAD DUP2 LT PUSH2 0xED4 JUMPI INVALID JUMPDEST PUSH1 0x20 SWAP1 DUP2 MUL SWAP2 SWAP1 SWAP2 ADD ADD MSTORE PUSH1 0x1 ADD PUSH2 0xEBE JUMP JUMPDEST POP PUSH2 0xEF2 DUP6 DUP3 PUSH2 0x451 JUMP JUMPDEST SWAP6 SWAP5 POP POP POP POP POP JUMP JUMPDEST PUSH1 0x0 SLOAD PUSH1 0x1 PUSH1 0x1 PUSH1 0xA0 SHL SUB AND CALLER EQ PUSH2 0xF47 JUMPI PUSH1 0x40 DUP1 MLOAD PUSH3 0x461BCD PUSH1 0xE5 SHL DUP2 MSTORE PUSH1 0x20 PUSH1 0x4 DUP3 ADD MSTORE PUSH1 0xA PUSH1 0x24 DUP3 ADD MSTORE PUSH10 0x37B7363C9030B236B4B7 PUSH1 0xB1 SHL PUSH1 0x44 DUP3 ADD MSTORE SWAP1 MLOAD SWAP1 DUP2 SWAP1 SUB PUSH1 0x64 ADD SWAP1 REVERT JUMPDEST PUSH1 0x1 PUSH1 0x1 PUSH1 0xA0 SHL SUB DUP3 AND PUSH1 0x0 SWAP1 DUP2 MSTORE PUSH1 0x2 PUSH1 0x20 MSTORE PUSH1 0x40 SWAP1 KECCAK256 PUSH1 0x64 SWAP1 PUSH2 0xF6B SWAP1 PUSH2 0x1885 JUMP JUMPDEST LT PUSH2 0xF88 JUMPI PUSH1 0x40 MLOAD PUSH3 0x461BCD PUSH1 0xE5 SHL DUP2 MSTORE PUSH1 0x4 ADD PUSH2 0x4B4 SWAP1 PUSH2 0x25A5 JUMP JUMPDEST PUSH1 0x1 PUSH1 0x1 PUSH1 0xA0 SHL SUB DUP3 AND PUSH1 0x0 SWAP1 DUP2 MSTORE PUSH1 0x2 PUSH1 0x20 MSTORE PUSH1 0x40 SWAP1 KECCAK256 PUSH2 0xFAA SWAP1 DUP3 PUSH2 0x189C JUMP JUMPDEST PUSH2 0xFC6 JUMPI PUSH1 0x40 MLOAD PUSH3 0x461BCD PUSH1 0xE5 SHL DUP2 MSTORE PUSH1 0x4 ADD PUSH2 0x4B4 SWAP1 PUSH2 0x242A JUMP JUMPDEST DUP2 PUSH1 0x1 PUSH1 0x1 PUSH1 0xA0 SHL SUB AND DUP2 PUSH1 0x1 PUSH1 0x1 PUSH1 0xA0 SHL SUB AND PUSH32 0x88A8C998079A07D6A1E59A32CE0C359A00E4C94CE7A6068350A9574E7E0F993D PUSH1 0x1 PUSH1 0x40 MLOAD PUSH2 0x8A2 SWAP2 SWAP1 PUSH2 0x23C5 JUMP JUMPDEST PUSH1 0x0 SLOAD PUSH1 0x1 PUSH1 0x1 PUSH1 0xA0 SHL SUB AND DUP2 JUMP JUMPDEST CALLER PUSH1 0x0 SWAP1 DUP2 MSTORE PUSH1 0x3 PUSH1 0x20 SWAP1 DUP2 MSTORE PUSH1 0x40 DUP1 DUP4 KECCAK256 PUSH1 0x1 PUSH1 0x1 PUSH1 0xA0 SHL SUB DUP6 AND DUP5 MSTORE SWAP1 SWAP2 MSTORE DUP2 KECCAK256 DUP1 SLOAD DUP3 DUP1 JUMPDEST DUP3 DUP2 LT ISZERO PUSH2 0x1199 JUMPI PUSH1 0x0 DUP2 DUP2 MSTORE PUSH1 0x1 DUP1 DUP7 ADD PUSH1 0x20 SWAP1 DUP2 MSTORE PUSH1 0x40 SWAP3 DUP4 SWAP1 KECCAK256 DUP4 MLOAD PUSH1 0x80 DUP2 ADD DUP6 MSTORE DUP2 SLOAD PUSH1 0x1 PUSH1 0x1 PUSH1 0x40 SHL SUB DUP1 DUP3 AND DUP4 MSTORE PUSH1 0x1 PUSH1 0x40 SHL DUP3 DIV AND SWAP4 DUP3 ADD DUP5 SWAP1 MSTORE PUSH1 0x1 PUSH1 0x1 PUSH1 0x80 SHL SUB PUSH1 0x1 PUSH1 0x80 SHL SWAP1 SWAP2 DIV DUP2 AND SWAP6 DUP3 ADD SWAP6 SWAP1 SWAP6 MSTORE SWAP3 ADD SLOAD SWAP1 SWAP3 AND PUSH1 0x60 DUP3 ADD MSTORE SWAP1 PUSH2 0x10B0 PUSH2 0x186C JUMP JUMPDEST PUSH4 0xFFFFFFFF AND LT ISZERO PUSH2 0x10C2 JUMPI POP PUSH2 0x1191 JUMP JUMPDEST PUSH1 0x0 PUSH2 0x10F1 DUP3 PUSH1 0x60 ADD MLOAD PUSH1 0x1 PUSH1 0x1 PUSH1 0x80 SHL SUB AND DUP4 PUSH1 0x40 ADD MLOAD PUSH1 0x1 PUSH1 0x1 PUSH1 0x80 SHL SUB AND PUSH2 0x18B1 SWAP1 SWAP2 SWAP1 PUSH4 0xFFFFFFFF AND JUMP JUMPDEST SWAP1 POP DUP1 PUSH2 0x10FF JUMPI POP POP PUSH2 0x1191 JUMP JUMPDEST PUSH1 0x40 DUP3 DUP2 ADD MLOAD PUSH1 0x0 DUP6 DUP2 MSTORE PUSH1 0x1 DUP10 DUP2 ADD PUSH1 0x20 MSTORE SWAP3 SWAP1 KECCAK256 SWAP1 SWAP2 ADD DUP1 SLOAD PUSH1 0x1 PUSH1 0x1 PUSH1 0x80 SHL SUB NOT AND PUSH1 0x1 PUSH1 0x1 PUSH1 0x80 SHL SUB SWAP1 SWAP3 AND SWAP2 SWAP1 SWAP2 OR SWAP1 SSTORE PUSH2 0x113F DUP5 DUP3 PUSH2 0x1672 JUMP JUMPDEST SWAP4 POP CALLER PUSH1 0x1 PUSH1 0x1 PUSH1 0xA0 SHL SUB AND DUP9 PUSH1 0x1 PUSH1 0x1 PUSH1 0xA0 SHL SUB AND PUSH32 0x6D06F0A463D80B43FE6CD0B79C61BB2790CFE898790E69828F25E6E12886E178 DUP4 DUP7 PUSH1 0x40 MLOAD PUSH2 0x1186 SWAP3 SWAP2 SWAP1 PUSH2 0x25F3 JUMP JUMPDEST PUSH1 0x40 MLOAD DUP1 SWAP2 SUB SWAP1 LOG3 POP POP JUMPDEST PUSH1 0x1 ADD PUSH2 0x1041 JUMP JUMPDEST POP PUSH2 0x11A4 DUP6 DUP3 PUSH2 0x1714 JUMP JUMPDEST SWAP3 POP POP POP JUMPDEST SWAP2 SWAP1 POP JUMP JUMPDEST PUSH1 0x1 PUSH1 0x1 PUSH1 0xA0 SHL SUB DUP6 AND PUSH1 0x0 SWAP1 DUP2 MSTORE PUSH1 0x2 PUSH1 0x20 MSTORE PUSH1 0x40 SWAP1 KECCAK256 DUP6 SWAP1 PUSH2 0x11D2 SWAP1 CALLER PUSH2 0x190E JUMP JUMPDEST PUSH2 0x11EE JUMPI PUSH1 0x40 MLOAD PUSH3 0x461BCD PUSH1 0xE5 SHL DUP2 MSTORE PUSH1 0x4 ADD PUSH2 0x4B4 SWAP1 PUSH2 0x251C JUMP JUMPDEST PUSH1 0x0 DUP5 GT PUSH2 0x120E JUMPI PUSH1 0x40 MLOAD PUSH3 0x461BCD PUSH1 0xE5 SHL DUP2 MSTORE PUSH1 0x4 ADD PUSH2 0x4B4 SWAP1 PUSH2 0x2581 JUMP JUMPDEST PUSH1 0x1 PUSH1 0x1 PUSH1 0xA0 SHL SUB DUP7 AND PUSH2 0x1240 JUMPI DUP4 CALLVALUE EQ PUSH2 0x123B JUMPI PUSH1 0x40 MLOAD PUSH3 0x461BCD PUSH1 0xE5 SHL DUP2 MSTORE PUSH1 0x4 ADD PUSH2 0x4B4 SWAP1 PUSH2 0x2498 JUMP JUMPDEST PUSH2 0x1255 JUMP JUMPDEST PUSH2 0x1255 PUSH1 0x1 PUSH1 0x1 PUSH1 0xA0 SHL SUB DUP8 AND CALLER ADDRESS DUP8 PUSH2 0x1923 JUMP JUMPDEST PUSH1 0x1 PUSH1 0x1 PUSH1 0xA0 SHL SUB DUP1 DUP7 AND PUSH1 0x0 SWAP1 DUP2 MSTORE PUSH1 0x3 PUSH1 0x20 SWAP1 DUP2 MSTORE PUSH1 0x40 DUP1 DUP4 KECCAK256 SWAP4 DUP11 AND DUP4 MSTORE SWAP3 SWAP1 MSTORE SWAP1 DUP2 KECCAK256 DUP1 SLOAD SWAP1 SWAP2 PUSH2 0x1293 DUP7 PUSH4 0xFFFFFFFF DUP1 DUP9 AND SWAP1 PUSH2 0x1672 AND JUMP JUMPDEST SWAP1 POP DUP2 ISZERO PUSH2 0x13EC JUMPI PUSH1 0x0 NOT DUP3 ADD PUSH1 0x0 SWAP1 DUP2 MSTORE PUSH1 0x1 DUP5 ADD PUSH1 0x20 MSTORE PUSH1 0x40 SWAP1 KECCAK256 DUP1 SLOAD PUSH1 0x1 PUSH1 0x1 PUSH1 0x40 SHL SUB AND DUP8 EQ DUP1 ISZERO PUSH2 0x12D9 JUMPI POP DUP1 SLOAD PUSH1 0x1 PUSH1 0x40 SHL SWAP1 DIV PUSH1 0x1 PUSH1 0x1 PUSH1 0x40 SHL SUB AND DUP3 EQ JUMPDEST ISZERO PUSH2 0x13EA JUMPI DUP1 SLOAD PUSH2 0x12FE SWAP1 PUSH2 0x570 SWAP1 PUSH1 0x1 PUSH1 0x80 SHL SWAP1 DIV PUSH1 0x1 PUSH1 0x1 PUSH1 0x80 SHL SUB AND DUP11 PUSH2 0x1672 JUMP JUMPDEST DUP2 SLOAD PUSH1 0x1 PUSH1 0x1 PUSH1 0x80 SHL SUB SWAP2 DUP3 AND PUSH1 0x1 PUSH1 0x80 SHL MUL SWAP2 AND OR DUP2 SSTORE PUSH1 0x1 PUSH1 0x1 PUSH1 0xA0 SHL SUB DUP1 DUP11 AND PUSH1 0x0 SWAP1 DUP2 MSTORE PUSH1 0x4 PUSH1 0x20 SWAP1 DUP2 MSTORE PUSH1 0x40 DUP1 DUP4 KECCAK256 SWAP4 DUP15 AND DUP4 MSTORE SWAP3 SWAP1 MSTORE KECCAK256 SLOAD PUSH2 0x1346 SWAP1 DUP10 PUSH2 0x1672 JUMP JUMPDEST PUSH1 0x4 PUSH1 0x0 DUP12 PUSH1 0x1 PUSH1 0x1 PUSH1 0xA0 SHL SUB AND PUSH1 0x1 PUSH1 0x1 PUSH1 0xA0 SHL SUB AND DUP2 MSTORE PUSH1 0x20 ADD SWAP1 DUP2 MSTORE PUSH1 0x20 ADD PUSH1 0x0 KECCAK256 PUSH1 0x0 DUP13 PUSH1 0x1 PUSH1 0x1 PUSH1 0xA0 SHL SUB AND PUSH1 0x1 PUSH1 0x1 PUSH1 0xA0 SHL SUB AND DUP2 MSTORE PUSH1 0x20 ADD SWAP1 DUP2 MSTORE PUSH1 0x20 ADD PUSH1 0x0 KECCAK256 DUP2 SWAP1 SSTORE POP DUP9 PUSH1 0x1 PUSH1 0x1 PUSH1 0xA0 SHL SUB AND DUP11 PUSH1 0x1 PUSH1 0x1 PUSH1 0xA0 SHL SUB AND PUSH1 0x1 DUP6 SUB PUSH32 0xA6FD3A57929C9152D86FA5F83C8478F1AF480353A0AEF0CACC3240D63B570767 DUP12 PUSH1 0x40 MLOAD PUSH2 0x13D9 SWAP2 SWAP1 PUSH2 0x25EA JUMP JUMPDEST PUSH1 0x40 MLOAD DUP1 SWAP2 SUB SWAP1 LOG4 POP POP POP POP PUSH2 0x1569 JUMP JUMPDEST POP JUMPDEST PUSH1 0x40 MLOAD DUP1 PUSH1 0x80 ADD PUSH1 0x40 MSTORE DUP1 PUSH2 0x1400 DUP9 PUSH2 0x197D JUMP JUMPDEST PUSH1 0x1 PUSH1 0x1 PUSH1 0x40 SHL SUB AND DUP2 MSTORE PUSH1 0x20 ADD PUSH2 0x1417 DUP4 PUSH2 0x197D JUMP JUMPDEST PUSH1 0x1 PUSH1 0x1 PUSH1 0x40 SHL SUB AND DUP2 MSTORE PUSH1 0x20 ADD PUSH2 0x142E DUP10 PUSH2 0x16CC JUMP JUMPDEST PUSH1 0x1 PUSH1 0x1 PUSH1 0x80 SHL SUB SWAP1 DUP2 AND DUP3 MSTORE PUSH1 0x0 PUSH1 0x20 SWAP3 DUP4 ADD DUP2 SWAP1 MSTORE DUP6 DUP2 MSTORE PUSH1 0x1 DUP1 DUP9 ADD DUP5 MSTORE PUSH1 0x40 DUP1 DUP4 KECCAK256 DUP7 MLOAD DUP2 SLOAD DUP9 DUP9 ADD MLOAD DUP10 DUP6 ADD MLOAD DUP9 AND PUSH1 0x1 PUSH1 0x80 SHL MUL PUSH1 0x1 PUSH1 0x1 PUSH1 0x40 SHL SUB SWAP2 DUP3 AND PUSH1 0x1 PUSH1 0x40 SHL MUL PUSH16 0xFFFFFFFFFFFFFFFF0000000000000000 NOT SWAP3 SWAP1 SWAP5 AND PUSH8 0xFFFFFFFFFFFFFFFF NOT SWAP1 SWAP4 AND SWAP3 SWAP1 SWAP3 OR AND SWAP2 SWAP1 SWAP2 OR DUP7 AND OR DUP2 SSTORE PUSH1 0x60 SWAP1 SWAP7 ADD MLOAD SWAP6 DUP3 ADD DUP1 SLOAD SWAP7 SWAP1 SWAP5 AND PUSH1 0x1 PUSH1 0x1 PUSH1 0x80 SHL SUB NOT SWAP7 SWAP1 SWAP7 AND SWAP6 SWAP1 SWAP6 OR SWAP1 SWAP3 SSTORE SWAP1 DUP6 ADD DUP7 SSTORE PUSH1 0x1 PUSH1 0x1 PUSH1 0xA0 SHL SUB DUP1 DUP13 AND DUP3 MSTORE PUSH1 0x4 DUP4 MSTORE DUP4 DUP3 KECCAK256 SWAP1 DUP14 AND DUP3 MSTORE SWAP1 SWAP2 MSTORE KECCAK256 SLOAD PUSH2 0x14FA SWAP1 DUP9 PUSH2 0x1672 JUMP JUMPDEST PUSH1 0x1 PUSH1 0x1 PUSH1 0xA0 SHL SUB DUP1 DUP11 AND PUSH1 0x0 DUP2 DUP2 MSTORE PUSH1 0x4 PUSH1 0x20 SWAP1 DUP2 MSTORE PUSH1 0x40 DUP1 DUP4 KECCAK256 SWAP5 DUP16 AND DUP1 DUP5 MSTORE SWAP5 SWAP1 SWAP2 MSTORE SWAP1 DUP2 SWAP1 KECCAK256 SWAP4 SWAP1 SWAP4 SSTORE SWAP2 MLOAD PUSH32 0xFB1FD0FEE690638ACF30008A00D7FC669E970DD6FA8912488EE11171986EDABB SWAP1 PUSH2 0x155D SWAP1 DUP11 SWAP1 DUP7 SWAP1 DUP14 SWAP1 DUP10 SWAP1 PUSH2 0x2601 JUMP JUMPDEST PUSH1 0x40 MLOAD DUP1 SWAP2 SUB SWAP1 LOG3 POP POP POP JUMPDEST POP POP POP POP POP POP JUMP JUMPDEST PUSH1 0x0 DUP2 PUSH1 0x20 ADD MLOAD PUSH1 0x1 PUSH1 0x1 PUSH1 0x40 SHL SUB AND PUSH2 0x1589 PUSH2 0x186C JUMP JUMPDEST PUSH4 0xFFFFFFFF AND LT PUSH2 0x15C8 JUMPI PUSH2 0x15C1 DUP3 PUSH1 0x60 ADD MLOAD PUSH1 0x1 PUSH1 0x1 PUSH1 0x80 SHL SUB AND DUP4 PUSH1 0x40 ADD MLOAD PUSH1 0x1 PUSH1 0x1 PUSH1 0x80 SHL SUB AND PUSH2 0x18B1 SWAP1 SWAP2 SWAP1 PUSH4 0xFFFFFFFF AND JUMP JUMPDEST SWAP1 POP PUSH2 0x11A9 JUMP JUMPDEST DUP2 MLOAD PUSH1 0x1 PUSH1 0x1 PUSH1 0x40 SHL SUB AND PUSH2 0x15DB PUSH2 0x186C JUMP JUMPDEST PUSH4 0xFFFFFFFF AND GT PUSH2 0x15EE JUMPI POP PUSH1 0x0 PUSH2 0x11A9 JUMP JUMPDEST DUP2 MLOAD PUSH1 0x20 DUP4 ADD MLOAD PUSH1 0x0 SWAP2 PUSH2 0x160E SWAP2 PUSH1 0x1 PUSH1 0x1 PUSH1 0x40 SHL SUB SWAP1 DUP2 AND SWAP2 AND PUSH2 0x18B1 JUMP JUMPDEST SWAP1 POP PUSH1 0x0 DUP4 PUSH1 0x0 ADD MLOAD PUSH1 0x1 PUSH1 0x1 PUSH1 0x40 SHL SUB AND PUSH2 0x1628 PUSH2 0x186C JUMP JUMPDEST PUSH4 0xFFFFFFFF AND SUB SWAP1 POP PUSH2 0x11A4 DUP5 PUSH1 0x60 ADD MLOAD PUSH1 0x1 PUSH1 0x1 PUSH1 0x80 SHL SUB AND PUSH2 0x166C DUP5 PUSH2 0x1666 DUP9 PUSH1 0x40 ADD MLOAD PUSH1 0x1 PUSH1 0x1 PUSH1 0x80 SHL SUB AND DUP7 PUSH2 0x19C1 SWAP1 SWAP2 SWAP1 PUSH4 0xFFFFFFFF AND JUMP JUMPDEST SWAP1 PUSH2 0x1A1A JUMP JUMPDEST SWAP1 PUSH2 0x18B1 JUMP JUMPDEST PUSH1 0x0 DUP3 DUP3 ADD DUP4 DUP2 LT ISZERO PUSH2 0x44A JUMPI PUSH1 0x40 DUP1 MLOAD PUSH3 0x461BCD PUSH1 0xE5 SHL DUP2 MSTORE PUSH1 0x20 PUSH1 0x4 DUP3 ADD MSTORE PUSH1 0x1B PUSH1 0x24 DUP3 ADD MSTORE PUSH32 0x536166654D6174683A206164646974696F6E206F766572666C6F770000000000 PUSH1 0x44 DUP3 ADD MSTORE SWAP1 MLOAD SWAP1 DUP2 SWAP1 SUB PUSH1 0x64 ADD SWAP1 REVERT JUMPDEST PUSH1 0x0 PUSH1 0x1 PUSH1 0x80 SHL DUP3 LT PUSH2 0x1710 JUMPI PUSH1 0x40 MLOAD PUSH3 0x461BCD PUSH1 0xE5 SHL DUP2 MSTORE PUSH1 0x4 ADD DUP1 DUP1 PUSH1 0x20 ADD DUP3 DUP2 SUB DUP3 MSTORE PUSH1 0x27 DUP2 MSTORE PUSH1 0x20 ADD DUP1 PUSH2 0x269D PUSH1 0x27 SWAP2 CODECOPY PUSH1 0x40 ADD SWAP2 POP POP PUSH1 0x40 MLOAD DUP1 SWAP2 SUB SWAP1 REVERT JUMPDEST POP SWAP1 JUMP JUMPDEST DUP1 PUSH2 0x1731 JUMPI PUSH1 0x40 MLOAD PUSH3 0x461BCD PUSH1 0xE5 SHL DUP2 MSTORE PUSH1 0x4 ADD PUSH2 0x4B4 SWAP1 PUSH2 0x24F2 JUMP JUMPDEST CALLER PUSH1 0x0 SWAP1 DUP2 MSTORE PUSH1 0x4 PUSH1 0x20 SWAP1 DUP2 MSTORE PUSH1 0x40 DUP1 DUP4 KECCAK256 PUSH1 0x1 PUSH1 0x1 PUSH1 0xA0 SHL SUB DUP7 AND DUP5 MSTORE SWAP1 SWAP2 MSTORE SWAP1 KECCAK256 SLOAD PUSH2 0x175F SWAP1 DUP3 PUSH2 0x18B1 JUMP JUMPDEST CALLER PUSH1 0x0 DUP2 DUP2 MSTORE PUSH1 0x4 PUSH1 0x20 SWAP1 DUP2 MSTORE PUSH1 0x40 DUP1 DUP4 KECCAK256 PUSH1 0x1 PUSH1 0x1 PUSH1 0xA0 SHL SUB DUP9 AND DUP1 DUP6 MSTORE SWAP1 DUP4 MSTORE DUP2 DUP5 KECCAK256 SWAP6 SWAP1 SWAP6 SSTORE SWAP3 DUP3 MSTORE PUSH1 0x5 DUP2 MSTORE DUP3 DUP3 KECCAK256 SWAP4 DUP3 MSTORE SWAP3 SWAP1 SWAP3 MSTORE SWAP1 KECCAK256 SLOAD PUSH2 0x17A6 SWAP1 DUP3 PUSH2 0x1672 JUMP JUMPDEST CALLER PUSH1 0x0 SWAP1 DUP2 MSTORE PUSH1 0x5 PUSH1 0x20 SWAP1 DUP2 MSTORE PUSH1 0x40 DUP1 DUP4 KECCAK256 PUSH1 0x1 PUSH1 0x1 PUSH1 0xA0 SHL SUB DUP8 AND DUP1 DUP6 MSTORE SWAP3 MSTORE SWAP1 SWAP2 KECCAK256 SWAP2 SWAP1 SWAP2 SSTORE PUSH2 0x1854 JUMPI PUSH1 0x0 CALLER PUSH1 0x1 PUSH1 0x1 PUSH1 0xA0 SHL SUB AND DUP3 PUSH1 0x40 MLOAD PUSH2 0x17EB SWAP1 PUSH2 0x22E7 JUMP JUMPDEST PUSH1 0x0 PUSH1 0x40 MLOAD DUP1 DUP4 SUB DUP2 DUP6 DUP8 GAS CALL SWAP3 POP POP POP RETURNDATASIZE DUP1 PUSH1 0x0 DUP2 EQ PUSH2 0x1828 JUMPI PUSH1 0x40 MLOAD SWAP2 POP PUSH1 0x1F NOT PUSH1 0x3F RETURNDATASIZE ADD AND DUP3 ADD PUSH1 0x40 MSTORE RETURNDATASIZE DUP3 MSTORE RETURNDATASIZE PUSH1 0x0 PUSH1 0x20 DUP5 ADD RETURNDATACOPY PUSH2 0x182D JUMP JUMPDEST PUSH1 0x60 SWAP2 POP JUMPDEST POP POP SWAP1 POP DUP1 PUSH2 0x184E JUMPI PUSH1 0x40 MLOAD PUSH3 0x461BCD PUSH1 0xE5 SHL DUP2 MSTORE PUSH1 0x4 ADD PUSH2 0x4B4 SWAP1 PUSH2 0x2400 JUMP JUMPDEST POP PUSH2 0x1868 JUMP JUMPDEST PUSH2 0x1868 PUSH1 0x1 PUSH1 0x1 PUSH1 0xA0 SHL SUB DUP4 AND CALLER DUP4 PUSH2 0x1A81 JUMP JUMPDEST POP POP JUMP JUMPDEST TIMESTAMP SWAP1 JUMP JUMPDEST PUSH1 0x0 PUSH2 0x44A DUP4 PUSH1 0x1 PUSH1 0x1 PUSH1 0xA0 SHL SUB DUP5 AND PUSH2 0x1AD8 JUMP JUMPDEST PUSH1 0x0 PUSH2 0x654 DUP3 PUSH2 0x1B9E JUMP JUMPDEST PUSH1 0x0 PUSH2 0x44A DUP4 DUP4 PUSH2 0x1BA2 JUMP JUMPDEST PUSH1 0x0 PUSH2 0x44A DUP4 PUSH1 0x1 PUSH1 0x1 PUSH1 0xA0 SHL SUB DUP5 AND PUSH2 0x1C06 JUMP JUMPDEST PUSH1 0x0 DUP3 DUP3 GT ISZERO PUSH2 0x1908 JUMPI PUSH1 0x40 DUP1 MLOAD PUSH3 0x461BCD PUSH1 0xE5 SHL DUP2 MSTORE PUSH1 0x20 PUSH1 0x4 DUP3 ADD MSTORE PUSH1 0x1E PUSH1 0x24 DUP3 ADD MSTORE PUSH32 0x536166654D6174683A207375627472616374696F6E206F766572666C6F770000 PUSH1 0x44 DUP3 ADD MSTORE SWAP1 MLOAD SWAP1 DUP2 SWAP1 SUB PUSH1 0x64 ADD SWAP1 REVERT JUMPDEST POP SWAP1 SUB SWAP1 JUMP JUMPDEST PUSH1 0x0 PUSH2 0x44A DUP4 PUSH1 0x1 PUSH1 0x1 PUSH1 0xA0 SHL SUB DUP5 AND PUSH2 0x1C50 JUMP JUMPDEST PUSH1 0x40 DUP1 MLOAD PUSH1 0x1 PUSH1 0x1 PUSH1 0xA0 SHL SUB DUP1 DUP7 AND PUSH1 0x24 DUP4 ADD MSTORE DUP5 AND PUSH1 0x44 DUP3 ADD MSTORE PUSH1 0x64 DUP1 DUP3 ADD DUP5 SWAP1 MSTORE DUP3 MLOAD DUP1 DUP4 SUB SWAP1 SWAP2 ADD DUP2 MSTORE PUSH1 0x84 SWAP1 SWAP2 ADD SWAP1 SWAP2 MSTORE PUSH1 0x20 DUP2 ADD DUP1 MLOAD PUSH1 0x1 PUSH1 0x1 PUSH1 0xE0 SHL SUB AND PUSH4 0x23B872DD PUSH1 0xE0 SHL OR SWAP1 MSTORE PUSH2 0x674 SWAP1 DUP6 SWAP1 PUSH2 0x1C68 JUMP JUMPDEST PUSH1 0x0 PUSH1 0x1 PUSH1 0x40 SHL DUP3 LT PUSH2 0x1710 JUMPI PUSH1 0x40 MLOAD PUSH3 0x461BCD PUSH1 0xE5 SHL DUP2 MSTORE PUSH1 0x4 ADD DUP1 DUP1 PUSH1 0x20 ADD DUP3 DUP2 SUB DUP3 MSTORE PUSH1 0x26 DUP2 MSTORE PUSH1 0x20 ADD DUP1 PUSH2 0x270B PUSH1 0x26 SWAP2 CODECOPY PUSH1 0x40 ADD SWAP2 POP POP PUSH1 0x40 MLOAD DUP1 SWAP2 SUB SWAP1 REVERT JUMPDEST PUSH1 0x0 DUP3 PUSH2 0x19D0 JUMPI POP PUSH1 0x0 PUSH2 0x654 JUMP JUMPDEST DUP3 DUP3 MUL DUP3 DUP5 DUP3 DUP2 PUSH2 0x19DD JUMPI INVALID JUMPDEST DIV EQ PUSH2 0x44A JUMPI PUSH1 0x40 MLOAD PUSH3 0x461BCD PUSH1 0xE5 SHL DUP2 MSTORE PUSH1 0x4 ADD DUP1 DUP1 PUSH1 0x20 ADD DUP3 DUP2 SUB DUP3 MSTORE PUSH1 0x21 DUP2 MSTORE PUSH1 0x20 ADD DUP1 PUSH2 0x26EA PUSH1 0x21 SWAP2 CODECOPY PUSH1 0x40 ADD SWAP2 POP POP PUSH1 0x40 MLOAD DUP1 SWAP2 SUB SWAP1 REVERT JUMPDEST PUSH1 0x0 DUP1 DUP3 GT PUSH2 0x1A70 JUMPI PUSH1 0x40 DUP1 MLOAD PUSH3 0x461BCD PUSH1 0xE5 SHL DUP2 MSTORE PUSH1 0x20 PUSH1 0x4 DUP3 ADD MSTORE PUSH1 0x1A PUSH1 0x24 DUP3 ADD MSTORE PUSH32 0x536166654D6174683A206469766973696F6E206279207A65726F000000000000 PUSH1 0x44 DUP3 ADD MSTORE SWAP1 MLOAD SWAP1 DUP2 SWAP1 SUB PUSH1 0x64 ADD SWAP1 REVERT JUMPDEST DUP2 DUP4 DUP2 PUSH2 0x1A79 JUMPI INVALID JUMPDEST DIV SWAP4 SWAP3 POP POP POP JUMP JUMPDEST PUSH1 0x40 DUP1 MLOAD PUSH1 0x1 PUSH1 0x1 PUSH1 0xA0 SHL SUB DUP5 AND PUSH1 0x24 DUP3 ADD MSTORE PUSH1 0x44 DUP1 DUP3 ADD DUP5 SWAP1 MSTORE DUP3 MLOAD DUP1 DUP4 SUB SWAP1 SWAP2 ADD DUP2 MSTORE PUSH1 0x64 SWAP1 SWAP2 ADD SWAP1 SWAP2 MSTORE PUSH1 0x20 DUP2 ADD DUP1 MLOAD PUSH1 0x1 PUSH1 0x1 PUSH1 0xE0 SHL SUB AND PUSH4 0xA9059CBB PUSH1 0xE0 SHL OR SWAP1 MSTORE PUSH2 0x1AD3 SWAP1 DUP5 SWAP1 PUSH2 0x1C68 JUMP JUMPDEST POP POP POP JUMP JUMPDEST PUSH1 0x0 DUP2 DUP2 MSTORE PUSH1 0x1 DUP4 ADD PUSH1 0x20 MSTORE PUSH1 0x40 DUP2 KECCAK256 SLOAD DUP1 ISZERO PUSH2 0x1B94 JUMPI DUP4 SLOAD PUSH1 0x0 NOT DUP1 DUP4 ADD SWAP2 SWAP1 DUP2 ADD SWAP1 PUSH1 0x0 SWAP1 DUP8 SWAP1 DUP4 SWAP1 DUP2 LT PUSH2 0x1B0B JUMPI INVALID JUMPDEST SWAP1 PUSH1 0x0 MSTORE PUSH1 0x20 PUSH1 0x0 KECCAK256 ADD SLOAD SWAP1 POP DUP1 DUP8 PUSH1 0x0 ADD DUP5 DUP2 SLOAD DUP2 LT PUSH2 0x1B28 JUMPI INVALID JUMPDEST PUSH1 0x0 SWAP2 DUP3 MSTORE PUSH1 0x20 DUP1 DUP4 KECCAK256 SWAP1 SWAP2 ADD SWAP3 SWAP1 SWAP3 SSTORE DUP3 DUP2 MSTORE PUSH1 0x1 DUP10 DUP2 ADD SWAP1 SWAP3 MSTORE PUSH1 0x40 SWAP1 KECCAK256 SWAP1 DUP5 ADD SWAP1 SSTORE DUP7 SLOAD DUP8 SWAP1 DUP1 PUSH2 0x1B58 JUMPI INVALID JUMPDEST PUSH1 0x1 SWAP1 SUB DUP2 DUP2 SWAP1 PUSH1 0x0 MSTORE PUSH1 0x20 PUSH1 0x0 KECCAK256 ADD PUSH1 0x0 SWAP1 SSTORE SWAP1 SSTORE DUP7 PUSH1 0x1 ADD PUSH1 0x0 DUP8 DUP2 MSTORE PUSH1 0x20 ADD SWAP1 DUP2 MSTORE PUSH1 0x20 ADD PUSH1 0x0 KECCAK256 PUSH1 0x0 SWAP1 SSTORE PUSH1 0x1 SWAP5 POP POP POP POP POP PUSH2 0x654 JUMP JUMPDEST PUSH1 0x0 SWAP2 POP POP PUSH2 0x654 JUMP JUMPDEST SLOAD SWAP1 JUMP JUMPDEST DUP2 SLOAD PUSH1 0x0 SWAP1 DUP3 LT PUSH2 0x1BE4 JUMPI PUSH1 0x40 MLOAD PUSH3 0x461BCD PUSH1 0xE5 SHL DUP2 MSTORE PUSH1 0x4 ADD DUP1 DUP1 PUSH1 0x20 ADD DUP3 DUP2 SUB DUP3 MSTORE PUSH1 0x22 DUP2 MSTORE PUSH1 0x20 ADD DUP1 PUSH2 0x267B PUSH1 0x22 SWAP2 CODECOPY PUSH1 0x40 ADD SWAP2 POP POP PUSH1 0x40 MLOAD DUP1 SWAP2 SUB SWAP1 REVERT JUMPDEST DUP3 PUSH1 0x0 ADD DUP3 DUP2 SLOAD DUP2 LT PUSH2 0x1BF3 JUMPI INVALID JUMPDEST SWAP1 PUSH1 0x0 MSTORE PUSH1 0x20 PUSH1 0x0 KECCAK256 ADD SLOAD SWAP1 POP SWAP3 SWAP2 POP POP JUMP JUMPDEST PUSH1 0x0 PUSH2 0x1C12 DUP4 DUP4 PUSH2 0x1C50 JUMP JUMPDEST PUSH2 0x1C48 JUMPI POP DUP2 SLOAD PUSH1 0x1 DUP2 DUP2 ADD DUP5 SSTORE PUSH1 0x0 DUP5 DUP2 MSTORE PUSH1 0x20 DUP1 DUP3 KECCAK256 SWAP1 SWAP4 ADD DUP5 SWAP1 SSTORE DUP5 SLOAD DUP5 DUP3 MSTORE DUP3 DUP7 ADD SWAP1 SWAP4 MSTORE PUSH1 0x40 SWAP1 KECCAK256 SWAP2 SWAP1 SWAP2 SSTORE PUSH2 0x654 JUMP JUMPDEST POP PUSH1 0x0 PUSH2 0x654 JUMP JUMPDEST PUSH1 0x0 SWAP1 DUP2 MSTORE PUSH1 0x1 SWAP2 SWAP1 SWAP2 ADD PUSH1 0x20 MSTORE PUSH1 0x40 SWAP1 KECCAK256 SLOAD ISZERO ISZERO SWAP1 JUMP JUMPDEST PUSH1 0x0 PUSH2 0x1CBD DUP3 PUSH1 0x40 MLOAD DUP1 PUSH1 0x40 ADD PUSH1 0x40 MSTORE DUP1 PUSH1 0x20 DUP2 MSTORE PUSH1 0x20 ADD PUSH32 0x5361666545524332303A206C6F772D6C6576656C2063616C6C206661696C6564 DUP2 MSTORE POP DUP6 PUSH1 0x1 PUSH1 0x1 PUSH1 0xA0 SHL SUB AND PUSH2 0x1D19 SWAP1 SWAP3 SWAP2 SWAP1 PUSH4 0xFFFFFFFF AND JUMP JUMPDEST DUP1 MLOAD SWAP1 SWAP2 POP ISZERO PUSH2 0x1AD3 JUMPI DUP1 DUP1 PUSH1 0x20 ADD SWAP1 MLOAD PUSH1 0x20 DUP2 LT ISZERO PUSH2 0x1CDC JUMPI PUSH1 0x0 DUP1 REVERT JUMPDEST POP MLOAD PUSH2 0x1AD3 JUMPI PUSH1 0x40 MLOAD PUSH3 0x461BCD PUSH1 0xE5 SHL DUP2 MSTORE PUSH1 0x4 ADD DUP1 DUP1 PUSH1 0x20 ADD DUP3 DUP2 SUB DUP3 MSTORE PUSH1 0x2A DUP2 MSTORE PUSH1 0x20 ADD DUP1 PUSH2 0x2731 PUSH1 0x2A SWAP2 CODECOPY PUSH1 0x40 ADD SWAP2 POP POP PUSH1 0x40 MLOAD DUP1 SWAP2 SUB SWAP1 REVERT JUMPDEST PUSH1 0x60 PUSH2 0x1D28 DUP5 DUP5 PUSH1 0x0 DUP6 PUSH2 0x1D30 JUMP JUMPDEST SWAP5 SWAP4 POP POP POP POP JUMP JUMPDEST PUSH1 0x60 DUP3 SELFBALANCE LT ISZERO PUSH2 0x1D71 JUMPI PUSH1 0x40 MLOAD PUSH3 0x461BCD PUSH1 0xE5 SHL DUP2 MSTORE PUSH1 0x4 ADD DUP1 DUP1 PUSH1 0x20 ADD DUP3 DUP2 SUB DUP3 MSTORE PUSH1 0x26 DUP2 MSTORE PUSH1 0x20 ADD DUP1 PUSH2 0x26C4 PUSH1 0x26 SWAP2 CODECOPY PUSH1 0x40 ADD SWAP2 POP POP PUSH1 0x40 MLOAD DUP1 SWAP2 SUB SWAP1 REVERT JUMPDEST PUSH2 0x1D7A DUP6 PUSH2 0x1E8B JUMP JUMPDEST PUSH2 0x1DCB JUMPI PUSH1 0x40 DUP1 MLOAD PUSH3 0x461BCD PUSH1 0xE5 SHL DUP2 MSTORE PUSH1 0x20 PUSH1 0x4 DUP3 ADD MSTORE PUSH1 0x1D PUSH1 0x24 DUP3 ADD MSTORE PUSH32 0x416464726573733A2063616C6C20746F206E6F6E2D636F6E7472616374000000 PUSH1 0x44 DUP3 ADD MSTORE SWAP1 MLOAD SWAP1 DUP2 SWAP1 SUB PUSH1 0x64 ADD SWAP1 REVERT JUMPDEST PUSH1 0x0 DUP1 DUP7 PUSH1 0x1 PUSH1 0x1 PUSH1 0xA0 SHL SUB AND DUP6 DUP8 PUSH1 0x40 MLOAD DUP1 DUP3 DUP1 MLOAD SWAP1 PUSH1 0x20 ADD SWAP1 DUP1 DUP4 DUP4 JUMPDEST PUSH1 0x20 DUP4 LT PUSH2 0x1E09 JUMPI DUP1 MLOAD DUP3 MSTORE PUSH1 0x1F NOT SWAP1 SWAP3 ADD SWAP2 PUSH1 0x20 SWAP2 DUP3 ADD SWAP2 ADD PUSH2 0x1DEA JUMP JUMPDEST PUSH1 0x1 DUP4 PUSH1 0x20 SUB PUSH2 0x100 EXP SUB DUP1 NOT DUP3 MLOAD AND DUP2 DUP5 MLOAD AND DUP1 DUP3 OR DUP6 MSTORE POP POP POP POP POP POP SWAP1 POP ADD SWAP2 POP POP PUSH1 0x0 PUSH1 0x40 MLOAD DUP1 DUP4 SUB DUP2 DUP6 DUP8 GAS CALL SWAP3 POP POP POP RETURNDATASIZE DUP1 PUSH1 0x0 DUP2 EQ PUSH2 0x1E6B JUMPI PUSH1 0x40 MLOAD SWAP2 POP PUSH1 0x1F NOT PUSH1 0x3F RETURNDATASIZE ADD AND DUP3 ADD PUSH1 0x40 MSTORE RETURNDATASIZE DUP3 MSTORE RETURNDATASIZE PUSH1 0x0 PUSH1 0x20 DUP5 ADD RETURNDATACOPY PUSH2 0x1E70 JUMP JUMPDEST PUSH1 0x60 SWAP2 POP JUMPDEST POP SWAP2 POP SWAP2 POP PUSH2 0x1E80 DUP3 DUP3 DUP7 PUSH2 0x1E91 JUMP JUMPDEST SWAP8 SWAP7 POP POP POP POP POP POP POP JUMP JUMPDEST EXTCODESIZE ISZERO ISZERO SWAP1 JUMP JUMPDEST PUSH1 0x60 DUP4 ISZERO PUSH2 0x1EA0 JUMPI POP DUP2 PUSH2 0x44A JUMP JUMPDEST DUP3 MLOAD ISZERO PUSH2 0x1EB0 JUMPI DUP3 MLOAD DUP1 DUP5 PUSH1 0x20 ADD REVERT JUMPDEST DUP2 PUSH1 0x40 MLOAD PUSH3 0x461BCD PUSH1 0xE5 SHL DUP2 MSTORE PUSH1 0x4 ADD DUP1 DUP1 PUSH1 0x20 ADD DUP3 DUP2 SUB DUP3 MSTORE DUP4 DUP2 DUP2 MLOAD DUP2 MSTORE PUSH1 0x20 ADD SWAP2 POP DUP1 MLOAD SWAP1 PUSH1 0x20 ADD SWAP1 DUP1 DUP4 DUP4 PUSH1 0x0 JUMPDEST DUP4 DUP2 LT ISZERO PUSH2 0x1EFA JUMPI DUP2 DUP2 ADD MLOAD DUP4 DUP3 ADD MSTORE PUSH1 0x20 ADD PUSH2 0x1EE2 JUMP JUMPDEST POP POP POP POP SWAP1 POP SWAP1 DUP2 ADD SWAP1 PUSH1 0x1F AND DUP1 ISZERO PUSH2 0x1F27 JUMPI DUP1 DUP3 SUB DUP1 MLOAD PUSH1 0x1 DUP4 PUSH1 0x20 SUB PUSH2 0x100 EXP SUB NOT AND DUP2 MSTORE PUSH1 0x20 ADD SWAP2 POP JUMPDEST POP SWAP3 POP POP POP PUSH1 0x40 MLOAD DUP1 SWAP2 SUB SWAP1 REVERT JUMPDEST PUSH1 0x40 DUP1 MLOAD PUSH1 0x80 DUP2 ADD DUP3 MSTORE PUSH1 0x0 DUP1 DUP3 MSTORE PUSH1 0x20 DUP3 ADD DUP2 SWAP1 MSTORE SWAP2 DUP2 ADD DUP3 SWAP1 MSTORE PUSH1 0x60 DUP2 ADD SWAP2 SWAP1 SWAP2 MSTORE SWAP1 JUMP JUMPDEST PUSH1 0x0 DUP1 DUP4 PUSH1 0x1F DUP5 ADD SLT PUSH2 0x1F6D JUMPI DUP1 DUP2 REVERT JUMPDEST POP DUP2 CALLDATALOAD PUSH1 0x1 PUSH1 0x1 PUSH1 0x40 SHL SUB DUP2 GT ISZERO PUSH2 0x1F83 JUMPI DUP2 DUP3 REVERT JUMPDEST PUSH1 0x20 DUP4 ADD SWAP2 POP DUP4 PUSH1 0x20 DUP1 DUP4 MUL DUP6 ADD ADD GT ISZERO PUSH2 0x1F9D JUMPI PUSH1 0x0 DUP1 REVERT JUMPDEST SWAP3 POP SWAP3 SWAP1 POP JUMP JUMPDEST DUP1 CALLDATALOAD PUSH4 0xFFFFFFFF DUP2 AND DUP2 EQ PUSH2 0x11A9 JUMPI PUSH1 0x0 DUP1 REVERT JUMPDEST PUSH1 0x0 PUSH1 0x20 DUP3 DUP5 SUB SLT ISZERO PUSH2 0x1FC9 JUMPI DUP1 DUP2 REVERT JUMPDEST DUP2 CALLDATALOAD PUSH2 0x44A DUP2 PUSH2 0x2662 JUMP JUMPDEST PUSH1 0x0 DUP1 PUSH1 0x40 DUP4 DUP6 SUB SLT ISZERO PUSH2 0x1FE6 JUMPI DUP1 DUP2 REVERT JUMPDEST DUP3 CALLDATALOAD PUSH2 0x1FF1 DUP2 PUSH2 0x2662 JUMP JUMPDEST SWAP2 POP PUSH1 0x20 DUP4 ADD CALLDATALOAD PUSH2 0x2001 DUP2 PUSH2 0x2662 JUMP JUMPDEST DUP1 SWAP2 POP POP SWAP3 POP SWAP3 SWAP1 POP JUMP JUMPDEST PUSH1 0x0 DUP1 PUSH1 0x0 PUSH1 0x60 DUP5 DUP7 SUB SLT ISZERO PUSH2 0x2020 JUMPI DUP1 DUP2 REVERT JUMPDEST DUP4 CALLDATALOAD PUSH2 0x202B DUP2 PUSH2 0x2662 JUMP JUMPDEST SWAP3 POP PUSH1 0x20 DUP5 ADD CALLDATALOAD PUSH2 0x203B DUP2 PUSH2 0x2662 JUMP JUMPDEST SWAP3 SWAP6 SWAP3 SWAP5 POP POP POP PUSH1 0x40 SWAP2 SWAP1 SWAP2 ADD CALLDATALOAD SWAP1 JUMP JUMPDEST PUSH1 0x0 DUP1 PUSH1 0x20 DUP4 DUP6 SUB SLT ISZERO PUSH2 0x205E JUMPI DUP2 DUP3 REVERT JUMPDEST DUP3 CALLDATALOAD PUSH1 0x1 PUSH1 0x1 PUSH1 0x40 SHL SUB DUP2 GT ISZERO PUSH2 0x2073 JUMPI DUP3 DUP4 REVERT JUMPDEST PUSH2 0x207F DUP6 DUP3 DUP7 ADD PUSH2 0x1F5C JUMP JUMPDEST SWAP1 SWAP7 SWAP1 SWAP6 POP SWAP4 POP POP POP POP JUMP JUMPDEST PUSH1 0x0 DUP1 PUSH1 0x0 DUP1 PUSH1 0x40 DUP6 DUP8 SUB SLT ISZERO PUSH2 0x20A0 JUMPI DUP1 DUP2 REVERT JUMPDEST DUP5 CALLDATALOAD PUSH1 0x1 PUSH1 0x1 PUSH1 0x40 SHL SUB DUP1 DUP3 GT ISZERO PUSH2 0x20B6 JUMPI DUP3 DUP4 REVERT JUMPDEST PUSH2 0x20C2 DUP9 DUP4 DUP10 ADD PUSH2 0x1F5C JUMP JUMPDEST SWAP1 SWAP7 POP SWAP5 POP PUSH1 0x20 DUP8 ADD CALLDATALOAD SWAP2 POP DUP1 DUP3 GT ISZERO PUSH2 0x20DA JUMPI DUP3 DUP4 REVERT JUMPDEST POP PUSH2 0x20E7 DUP8 DUP3 DUP9 ADD PUSH2 0x1F5C JUMP JUMPDEST SWAP6 SWAP9 SWAP5 SWAP8 POP SWAP6 POP POP POP POP JUMP JUMPDEST PUSH1 0x0 DUP1 PUSH1 0x40 DUP4 DUP6 SUB SLT ISZERO PUSH2 0x1FE6 JUMPI DUP2 DUP3 REVERT JUMPDEST PUSH1 0x0 DUP1 PUSH1 0x0 DUP1 PUSH1 0x0 PUSH1 0xA0 DUP7 DUP9 SUB SLT ISZERO PUSH2 0x211C JUMPI DUP1 DUP2 REVERT JUMPDEST DUP6 CALLDATALOAD PUSH2 0x2127 DUP2 PUSH2 0x2662 JUMP JUMPDEST SWAP5 POP PUSH1 0x20 DUP7 ADD CALLDATALOAD PUSH2 0x2137 DUP2 PUSH2 0x2662 JUMP JUMPDEST SWAP4 POP PUSH1 0x40 DUP7 ADD CALLDATALOAD SWAP3 POP PUSH1 0x60 DUP7 ADD CALLDATALOAD SWAP2 POP PUSH2 0x2153 PUSH1 0x80 DUP8 ADD PUSH2 0x1FA4 JUMP JUMPDEST SWAP1 POP SWAP3 SWAP6 POP SWAP3 SWAP6 SWAP1 SWAP4 POP JUMP JUMPDEST PUSH1 0x0 DUP1 PUSH1 0x0 DUP1 PUSH1 0x80 DUP6 DUP8 SUB SLT ISZERO PUSH2 0x2174 JUMPI DUP4 DUP5 REVERT JUMPDEST DUP5 CALLDATALOAD PUSH2 0x217F DUP2 PUSH2 0x2662 JUMP JUMPDEST SWAP4 POP PUSH1 0x20 DUP6 ADD CALLDATALOAD PUSH2 0x218F DUP2 PUSH2 0x2662 JUMP JUMPDEST SWAP3 POP PUSH1 0x40 DUP6 ADD CALLDATALOAD SWAP2 POP PUSH2 0x21A4 PUSH1 0x60 DUP7 ADD PUSH2 0x1FA4 JUMP JUMPDEST SWAP1 POP SWAP3 SWAP6 SWAP2 SWAP5 POP SWAP3 POP JUMP JUMPDEST PUSH1 0x0 DUP1 PUSH1 0x40 DUP4 DUP6 SUB SLT ISZERO PUSH2 0x21C1 JUMPI DUP2 DUP3 REVERT JUMPDEST DUP3 CALLDATALOAD PUSH2 0x21CC DUP2 PUSH2 0x2662 JUMP JUMPDEST SWAP2 POP PUSH1 0x20 DUP4 DUP2 ADD CALLDATALOAD PUSH1 0x1 PUSH1 0x1 PUSH1 0x40 SHL SUB DUP1 DUP3 GT ISZERO PUSH2 0x21E8 JUMPI DUP4 DUP5 REVERT JUMPDEST DUP2 DUP7 ADD SWAP2 POP DUP7 PUSH1 0x1F DUP4 ADD SLT PUSH2 0x21FB JUMPI DUP4 DUP5 REVERT JUMPDEST DUP2 CALLDATALOAD DUP2 DUP2 GT ISZERO PUSH2 0x2207 JUMPI INVALID JUMPDEST DUP4 DUP2 MUL PUSH1 0x40 MLOAD DUP6 DUP3 DUP3 ADD ADD DUP2 DUP2 LT DUP6 DUP3 GT OR ISZERO PUSH2 0x2220 JUMPI INVALID JUMPDEST PUSH1 0x40 MSTORE DUP3 DUP2 MSTORE DUP6 DUP2 ADD SWAP4 POP DUP5 DUP7 ADD DUP3 DUP7 ADD DUP8 ADD DUP12 LT ISZERO PUSH2 0x223E JUMPI DUP8 DUP9 REVERT JUMPDEST DUP8 SWAP6 POP JUMPDEST DUP4 DUP7 LT ISZERO PUSH2 0x2260 JUMPI DUP1 CALLDATALOAD DUP6 MSTORE PUSH1 0x1 SWAP6 SWAP1 SWAP6 ADD SWAP5 SWAP4 DUP7 ADD SWAP4 DUP7 ADD PUSH2 0x2242 JUMP JUMPDEST POP DUP1 SWAP7 POP POP POP POP POP POP POP SWAP3 POP SWAP3 SWAP1 POP JUMP JUMPDEST PUSH1 0x0 DUP1 PUSH1 0x0 PUSH1 0x60 DUP5 DUP7 SUB SLT ISZERO PUSH2 0x2285 JUMPI DUP3 DUP4 REVERT JUMPDEST DUP4 CALLDATALOAD PUSH2 0x2290 DUP2 PUSH2 0x2662 JUMP JUMPDEST SWAP6 PUSH1 0x20 DUP6 ADD CALLDATALOAD SWAP6 POP PUSH1 0x40 SWAP1 SWAP5 ADD CALLDATALOAD SWAP4 SWAP3 POP POP POP JUMP JUMPDEST PUSH1 0x1 PUSH1 0x1 PUSH1 0x40 SHL SUB DUP1 DUP3 MLOAD AND DUP4 MSTORE DUP1 PUSH1 0x20 DUP4 ADD MLOAD AND PUSH1 0x20 DUP5 ADD MSTORE POP PUSH1 0x40 DUP2 ADD MLOAD PUSH1 0x1 PUSH1 0x1 PUSH1 0x80 SHL SUB DUP1 DUP3 AND PUSH1 0x40 DUP6 ADD MSTORE DUP1 PUSH1 0x60 DUP5 ADD MLOAD AND PUSH1 0x60 DUP6 ADD MSTORE POP POP POP POP JUMP JUMPDEST SWAP1 JUMP JUMPDEST PUSH1 0x1 PUSH1 0x1 PUSH1 0xA0 SHL SUB SWAP2 SWAP1 SWAP2 AND DUP2 MSTORE PUSH1 0x20 ADD SWAP1 JUMP JUMPDEST PUSH1 0x20 DUP1 DUP3 MSTORE DUP3 MLOAD DUP3 DUP3 ADD DUP2 SWAP1 MSTORE PUSH1 0x0 SWAP2 SWAP1 DUP5 DUP3 ADD SWAP1 PUSH1 0x40 DUP6 ADD SWAP1 DUP5 JUMPDEST DUP2 DUP2 LT ISZERO PUSH2 0x233F JUMPI DUP4 MLOAD PUSH1 0x1 PUSH1 0x1 PUSH1 0xA0 SHL SUB AND DUP4 MSTORE SWAP3 DUP5 ADD SWAP3 SWAP2 DUP5 ADD SWAP2 PUSH1 0x1 ADD PUSH2 0x231A JUMP JUMPDEST POP SWAP1 SWAP7 SWAP6 POP POP POP POP POP POP JUMP JUMPDEST PUSH1 0x20 DUP1 DUP3 MSTORE DUP3 MLOAD DUP3 DUP3 ADD DUP2 SWAP1 MSTORE PUSH1 0x0 SWAP2 SWAP1 DUP5 DUP3 ADD SWAP1 PUSH1 0x40 DUP6 ADD SWAP1 DUP5 JUMPDEST DUP2 DUP2 LT ISZERO PUSH2 0x233F JUMPI PUSH2 0x237A DUP4 DUP6 MLOAD PUSH2 0x22A5 JUMP JUMPDEST SWAP3 DUP5 ADD SWAP3 PUSH1 0x80 SWAP3 SWAP1 SWAP3 ADD SWAP2 PUSH1 0x1 ADD PUSH2 0x2367 JUMP JUMPDEST PUSH1 0x20 DUP1 DUP3 MSTORE DUP3 MLOAD DUP3 DUP3 ADD DUP2 SWAP1 MSTORE PUSH1 0x0 SWAP2 SWAP1 DUP5 DUP3 ADD SWAP1 PUSH1 0x40 DUP6 ADD SWAP1 DUP5 JUMPDEST DUP2 DUP2 LT ISZERO PUSH2 0x233F JUMPI DUP4 MLOAD DUP4 MSTORE SWAP3 DUP5 ADD SWAP3 SWAP2 DUP5 ADD SWAP2 PUSH1 0x1 ADD PUSH2 0x23A9 JUMP JUMPDEST SWAP1 ISZERO ISZERO DUP2 MSTORE PUSH1 0x20 ADD SWAP1 JUMP JUMPDEST PUSH1 0x20 DUP1 DUP3 MSTORE PUSH1 0x16 SWAP1 DUP3 ADD MSTORE PUSH22 0xD2DCECC2D8D2C840E6C6D0CAC8EAD8CA40D2DCC8CAF PUSH1 0x53 SHL PUSH1 0x40 DUP3 ADD MSTORE PUSH1 0x60 ADD SWAP1 JUMP JUMPDEST PUSH1 0x20 DUP1 DUP3 MSTORE PUSH1 0x10 SWAP1 DUP3 ADD MSTORE PUSH16 0x3330B4B6103A37903A3930B739B332B9 PUSH1 0x81 SHL PUSH1 0x40 DUP3 ADD MSTORE PUSH1 0x60 ADD SWAP1 JUMP JUMPDEST PUSH1 0x20 DUP1 DUP3 MSTORE PUSH1 0x18 SWAP1 DUP3 ADD MSTORE PUSH32 0x5F726577617264436F6E74726163742069732061646465640000000000000000 PUSH1 0x40 DUP3 ADD MSTORE PUSH1 0x60 ADD SWAP1 JUMP JUMPDEST PUSH1 0x20 DUP1 DUP3 MSTORE PUSH1 0x1A SWAP1 DUP3 ADD MSTORE PUSH32 0x5F726577617264436F6E74726163742069732072656D6F766564000000000000 PUSH1 0x40 DUP3 ADD MSTORE PUSH1 0x60 ADD SWAP1 JUMP JUMPDEST PUSH1 0x20 DUP1 DUP3 MSTORE PUSH1 0x11 SWAP1 DUP3 ADD MSTORE PUSH17 0x496E76616C6964206D73672E76616C7565 PUSH1 0x78 SHL PUSH1 0x40 DUP3 ADD MSTORE PUSH1 0x60 ADD SWAP1 JUMP JUMPDEST PUSH1 0x20 DUP1 DUP3 MSTORE PUSH1 0x15 SWAP1 DUP3 ADD MSTORE PUSH21 0xE6E8C2E4E892DCC8CAF0407C40CADCC892DCC8CAF PUSH1 0x5B SHL PUSH1 0x40 DUP3 ADD MSTORE PUSH1 0x60 ADD SWAP1 JUMP JUMPDEST PUSH1 0x20 DUP1 DUP3 MSTORE PUSH1 0x10 SWAP1 DUP3 ADD MSTORE PUSH16 0xC081D995CDD1A5B99C8185B5BDD5B9D PUSH1 0x82 SHL PUSH1 0x40 DUP3 ADD MSTORE PUSH1 0x60 ADD SWAP1 JUMP JUMPDEST PUSH1 0x20 DUP1 DUP3 MSTORE PUSH1 0x14 SWAP1 DUP3 ADD MSTORE PUSH20 0x1BDB9B1E481C995DD85C990818DBDB9D1C9858DD PUSH1 0x62 SHL PUSH1 0x40 DUP3 ADD MSTORE PUSH1 0x60 ADD SWAP1 JUMP JUMPDEST PUSH1 0x20 DUP1 DUP3 MSTORE PUSH1 0x1F SWAP1 DUP3 ADD MSTORE PUSH32 0x746F6B656E732E6C656E67746820213D20696E64696365732E6C656E67746800 PUSH1 0x40 DUP3 ADD MSTORE PUSH1 0x60 ADD SWAP1 JUMP JUMPDEST PUSH1 0x20 DUP1 DUP3 MSTORE PUSH1 0xA SWAP1 DUP3 ADD MSTORE PUSH10 0x30207175616E74697479 PUSH1 0xB0 SHL PUSH1 0x40 DUP3 ADD MSTORE PUSH1 0x60 ADD SWAP1 JUMP JUMPDEST PUSH1 0x20 DUP1 DUP3 MSTORE PUSH1 0x1B SWAP1 DUP3 ADD MSTORE PUSH32 0x726577617264436F6E74726163747320697320746F6F206C6F6E670000000000 PUSH1 0x40 DUP3 ADD MSTORE PUSH1 0x60 ADD SWAP1 JUMP JUMPDEST PUSH1 0x80 DUP2 ADD PUSH2 0x654 DUP3 DUP5 PUSH2 0x22A5 JUMP JUMPDEST SWAP1 DUP2 MSTORE PUSH1 0x20 ADD SWAP1 JUMP JUMPDEST SWAP2 DUP3 MSTORE PUSH1 0x20 DUP3 ADD MSTORE PUSH1 0x40 ADD SWAP1 JUMP JUMPDEST SWAP4 DUP5 MSTORE PUSH1 0x20 DUP5 ADD SWAP3 SWAP1 SWAP3 MSTORE PUSH1 0x40 DUP4 ADD MSTORE PUSH1 0x60 DUP3 ADD MSTORE PUSH1 0x80 ADD SWAP1 JUMP JUMPDEST PUSH1 0x0 DUP1 DUP4 CALLDATALOAD PUSH1 0x1E NOT DUP5 CALLDATASIZE SUB ADD DUP2 SLT PUSH2 0x2632 JUMPI DUP3 DUP4 REVERT JUMPDEST DUP4 ADD DUP1 CALLDATALOAD SWAP2 POP PUSH1 0x1 PUSH1 0x1 PUSH1 0x40 SHL SUB DUP3 GT ISZERO PUSH2 0x264B JUMPI DUP3 DUP4 REVERT JUMPDEST PUSH1 0x20 SWAP1 DUP2 ADD SWAP3 POP DUP2 MUL CALLDATASIZE SUB DUP3 SGT ISZERO PUSH2 0x1F9D JUMPI PUSH1 0x0 DUP1 REVERT JUMPDEST PUSH1 0x1 PUSH1 0x1 PUSH1 0xA0 SHL SUB DUP2 AND DUP2 EQ PUSH2 0x2677 JUMPI PUSH1 0x0 DUP1 REVERT JUMPDEST POP JUMP INVALID GASLIMIT PUSH15 0x756D657261626C655365743A20696E PUSH5 0x6578206F75 PUSH21 0x206F6620626F756E647353616665436173743A2076 PUSH2 0x6C75 PUSH6 0x20646F65736E 0x27 PUSH21 0x2066697420696E2031323820626974734164647265 PUSH20 0x733A20696E73756666696369656E742062616C61 PUSH15 0x636520666F722063616C6C53616665 0x4D PUSH2 0x7468 GASPRICE KECCAK256 PUSH14 0x756C7469706C69636174696F6E20 PUSH16 0x766572666C6F7753616665436173743A KECCAK256 PUSH23 0x616C756520646F65736E27742066697420696E20363420 PUSH3 0x697473 MSTORE8 PUSH2 0x6665 GASLIMIT MSTORE NUMBER ORIGIN ADDRESS GASPRICE KECCAK256 GASLIMIT MSTORE NUMBER ORIGIN ADDRESS KECCAK256 PUSH16 0x7065726174696F6E20646964206E6F74 KECCAK256 PUSH20 0x756363656564A2646970667358221220134D5C70 SWAP1 RETURN LOG4 OR 0xC1 0xDF 0xDC 0xCE 0xF SWAP15 0x25 0xCE 0x5C DUP3 0xDA 0xE3 MSTORE 0xE5 0x2D PUSH4 0xCD0E0187 SWAP11 SWAP9 SWAP11 PUSH19 0x64736F6C634300070600330000000000000000 "
				},
				"gasEstimates": {
					"creation": {
						"codeDepositCost": "2025600",
						"executionCost": "infinite",
						"totalCost": "infinite"
					},
					"external": {
						"accountEscrowedBalance(address,address)": "infinite",
						"accountVestedBalance(address,address)": "infinite",
						"addRewardsContract(address,address)": "infinite",
						"admin()": "1136",
						"claimAdmin()": "45677",
						"getRewardContractsPerToken(address)": "infinite",
						"getVestingScheduleAtIndex(address,address,uint256)": "infinite",
						"getVestingSchedules(address,address)": "infinite",
						"lock(address,address,uint256,uint32)": "infinite",
						"lockWithStartTime(address,address,uint256,uint256,uint32)": "infinite",
						"numVestingSchedules(address,address)": "infinite",
						"pendingAdmin()": "1160",
						"removeRewardsContract(address,address)": "infinite",
						"transferAdmin(address)": "23141",
						"transferAdminQuickly(address)": "25346",
						"vestCompletedSchedules(address)": "infinite",
						"vestCompletedSchedulesForMultipleTokens(address[])": "infinite",
						"vestScheduleAtIndices(address,uint256[])": "infinite",
						"vestScheduleForMultipleTokensAtIndices(address[],uint256[][])": "infinite",
						"vestSchedulesInRange(address,uint256,uint256)": "infinite"
					},
					"internal": {
						"_completeVesting(contract IERC20Ext,uint256)": "infinite",
						"_getBlockTime()": "14",
						"_getVestingQuantity(struct IKyberRewardLockerV2.VestingSchedule memory)": "infinite"
					}
				},
				"methodIdentifiers": {
					"accountEscrowedBalance(address,address)": "6e732b70",
					"accountVestedBalance(address,address)": "3b5bfa8b",
					"addRewardsContract(address,address)": "f793d77e",
					"admin()": "f851a440",
					"claimAdmin()": "77f50f97",
					"getRewardContractsPerToken(address)": "bbd8a328",
					"getVestingScheduleAtIndex(address,address,uint256)": "0a3b7e31",
					"getVestingSchedules(address,address)": "2f50bd72",
					"lock(address,address,uint256,uint32)": "1e2fabb6",
					"lockWithStartTime(address,address,uint256,uint256,uint32)": "ff4931d3",
					"numVestingSchedules(address,address)": "679f7f77",
					"pendingAdmin()": "26782247",
					"removeRewardsContract(address,address)": "4c9d00cc",
					"transferAdmin(address)": "75829def",
					"transferAdminQuickly(address)": "7acc8678",
					"vestCompletedSchedules(address)": "fdfaaa05",
					"vestCompletedSchedulesForMultipleTokens(address[])": "9059aa6a",
					"vestScheduleAtIndices(address,uint256[])": "0f5636c3",
					"vestScheduleForMultipleTokensAtIndices(address[],uint256[][])": "4d4f3d93",
					"vestSchedulesInRange(address,uint256,uint256)": "c33fddf8"
				}
			},
			"storageLayout": {
				"storage": [
					{
						"astId": 3005,
						"contract": "contracts/liquidityMining/KyberRewardLockerV2.sol:KyberRewardLockerV2",
						"label": "admin",
						"offset": 0,
						"slot": "0",
						"type": "t_address"
					},
					{
						"astId": 3007,
						"contract": "contracts/liquidityMining/KyberRewardLockerV2.sol:KyberRewardLockerV2",
						"label": "pendingAdmin",
						"offset": 0,
						"slot": "1",
						"type": "t_address"
					},
					{
						"astId": 1957,
						"contract": "contracts/liquidityMining/KyberRewardLockerV2.sol:KyberRewardLockerV2",
						"label": "rewardContractsPerToken",
						"offset": 0,
						"slot": "2",
						"type": "t_mapping(t_contract(IERC20Ext)3001,t_struct(AddressSet)1217_storage)"
					},
					{
						"astId": 1964,
						"contract": "contracts/liquidityMining/KyberRewardLockerV2.sol:KyberRewardLockerV2",
						"label": "accountVestingSchedules",
						"offset": 0,
						"slot": "3",
						"type": "t_mapping(t_address,t_mapping(t_contract(IERC20Ext)3001,t_struct(VestingSchedules)1949_storage))"
					},
					{
						"astId": 1971,
						"contract": "contracts/liquidityMining/KyberRewardLockerV2.sol:KyberRewardLockerV2",
						"label": "accountEscrowedBalance",
						"offset": 0,
						"slot": "4",
						"type": "t_mapping(t_address,t_mapping(t_contract(IERC20Ext)3001,t_uint256))"
					},
					{
						"astId": 1978,
						"contract": "contracts/liquidityMining/KyberRewardLockerV2.sol:KyberRewardLockerV2",
						"label": "accountVestedBalance",
						"offset": 0,
						"slot": "5",
						"type": "t_mapping(t_address,t_mapping(t_contract(IERC20Ext)3001,t_uint256))"
					}
				],
				"types": {
					"t_address": {
						"encoding": "inplace",
						"label": "address",
						"numberOfBytes": "20"
					},
					"t_array(t_bytes32)dyn_storage": {
						"base": "t_bytes32",
						"encoding": "dynamic_array",
						"label": "bytes32[]",
						"numberOfBytes": "32"
					},
					"t_bytes32": {
						"encoding": "inplace",
						"label": "bytes32",
						"numberOfBytes": "32"
					},
					"t_contract(IERC20Ext)3001": {
						"encoding": "inplace",
						"label": "contract IERC20Ext",
						"numberOfBytes": "20"
					},
					"t_mapping(t_address,t_mapping(t_contract(IERC20Ext)3001,t_struct(VestingSchedules)1949_storage))": {
						"encoding": "mapping",
						"key": "t_address",
						"label": "mapping(address => mapping(contract IERC20Ext => struct KyberRewardLockerV2.VestingSchedules))",
						"numberOfBytes": "32",
						"value": "t_mapping(t_contract(IERC20Ext)3001,t_struct(VestingSchedules)1949_storage)"
					},
					"t_mapping(t_address,t_mapping(t_contract(IERC20Ext)3001,t_uint256))": {
						"encoding": "mapping",
						"key": "t_address",
						"label": "mapping(address => mapping(contract IERC20Ext => uint256))",
						"numberOfBytes": "32",
						"value": "t_mapping(t_contract(IERC20Ext)3001,t_uint256)"
					},
					"t_mapping(t_bytes32,t_uint256)": {
						"encoding": "mapping",
						"key": "t_bytes32",
						"label": "mapping(bytes32 => uint256)",
						"numberOfBytes": "32",
						"value": "t_uint256"
					},
					"t_mapping(t_contract(IERC20Ext)3001,t_struct(AddressSet)1217_storage)": {
						"encoding": "mapping",
						"key": "t_contract(IERC20Ext)3001",
						"label": "mapping(contract IERC20Ext => struct EnumerableSet.AddressSet)",
						"numberOfBytes": "32",
						"value": "t_struct(AddressSet)1217_storage"
					},
					"t_mapping(t_contract(IERC20Ext)3001,t_struct(VestingSchedules)1949_storage)": {
						"encoding": "mapping",
						"key": "t_contract(IERC20Ext)3001",
						"label": "mapping(contract IERC20Ext => struct KyberRewardLockerV2.VestingSchedules)",
						"numberOfBytes": "32",
						"value": "t_struct(VestingSchedules)1949_storage"
					},
					"t_mapping(t_contract(IERC20Ext)3001,t_uint256)": {
						"encoding": "mapping",
						"key": "t_contract(IERC20Ext)3001",
						"label": "mapping(contract IERC20Ext => uint256)",
						"numberOfBytes": "32",
						"value": "t_uint256"
					},
					"t_mapping(t_uint256,t_struct(VestingSchedule)1760_storage)": {
						"encoding": "mapping",
						"key": "t_uint256",
						"label": "mapping(uint256 => struct IKyberRewardLockerV2.VestingSchedule)",
						"numberOfBytes": "32",
						"value": "t_struct(VestingSchedule)1760_storage"
					},
					"t_struct(AddressSet)1217_storage": {
						"encoding": "inplace",
						"label": "struct EnumerableSet.AddressSet",
						"members": [
							{
								"astId": 1216,
								"contract": "contracts/liquidityMining/KyberRewardLockerV2.sol:KyberRewardLockerV2",
								"label": "_inner",
								"offset": 0,
								"slot": "0",
								"type": "t_struct(Set)952_storage"
							}
						],
						"numberOfBytes": "64"
					},
					"t_struct(Set)952_storage": {
						"encoding": "inplace",
						"label": "struct EnumerableSet.Set",
						"members": [
							{
								"astId": 947,
								"contract": "contracts/liquidityMining/KyberRewardLockerV2.sol:KyberRewardLockerV2",
								"label": "_values",
								"offset": 0,
								"slot": "0",
								"type": "t_array(t_bytes32)dyn_storage"
							},
							{
								"astId": 951,
								"contract": "contracts/liquidityMining/KyberRewardLockerV2.sol:KyberRewardLockerV2",
								"label": "_indexes",
								"offset": 0,
								"slot": "1",
								"type": "t_mapping(t_bytes32,t_uint256)"
							}
						],
						"numberOfBytes": "64"
					},
					"t_struct(VestingSchedule)1760_storage": {
						"encoding": "inplace",
						"label": "struct IKyberRewardLockerV2.VestingSchedule",
						"members": [
							{
								"astId": 1753,
								"contract": "contracts/liquidityMining/KyberRewardLockerV2.sol:KyberRewardLockerV2",
								"label": "startTime",
								"offset": 0,
								"slot": "0",
								"type": "t_uint64"
							},
							{
								"astId": 1755,
								"contract": "contracts/liquidityMining/KyberRewardLockerV2.sol:KyberRewardLockerV2",
								"label": "endTime",
								"offset": 8,
								"slot": "0",
								"type": "t_uint64"
							},
							{
								"astId": 1757,
								"contract": "contracts/liquidityMining/KyberRewardLockerV2.sol:KyberRewardLockerV2",
								"label": "quantity",
								"offset": 16,
								"slot": "0",
								"type": "t_uint128"
							},
							{
								"astId": 1759,
								"contract": "contracts/liquidityMining/KyberRewardLockerV2.sol:KyberRewardLockerV2",
								"label": "vestedQuantity",
								"offset": 0,
								"slot": "1",
								"type": "t_uint128"
							}
						],
						"numberOfBytes": "64"
					},
					"t_struct(VestingSchedules)1949_storage": {
						"encoding": "inplace",
						"label": "struct KyberRewardLockerV2.VestingSchedules",
						"members": [
							{
								"astId": 1944,
								"contract": "contracts/liquidityMining/KyberRewardLockerV2.sol:KyberRewardLockerV2",
								"label": "length",
								"offset": 0,
								"slot": "0",
								"type": "t_uint256"
							},
							{
								"astId": 1948,
								"contract": "contracts/liquidityMining/KyberRewardLockerV2.sol:KyberRewardLockerV2",
								"label": "data",
								"offset": 0,
								"slot": "1",
								"type": "t_mapping(t_uint256,t_struct(VestingSchedule)1760_storage)"
							}
						],
						"numberOfBytes": "64"
					},
					"t_uint128": {
						"encoding": "inplace",
						"label": "uint128",
						"numberOfBytes": "16"
					},
					"t_uint256": {
						"encoding": "inplace",
						"label": "uint256",
						"numberOfBytes": "32"
					},
					"t_uint64": {
						"encoding": "inplace",
						"label": "uint64",
						"numberOfBytes": "8"
					}
				}
			},
			"userdoc": {
				"kind": "user",
				"methods": {
					"addRewardsContract(address,address)": {
						"notice": "Add a whitelisted rewards contract"
					},
					"numVestingSchedules(address,address)": {
						"notice": "The number of vesting dates in an account's schedule."
					},
					"removeRewardsContract(address,address)": {
						"notice": "Remove a whitelisted rewards contract"
					},
					"vestScheduleAtIndices(address,uint256[])": {
						"notice": "Allow a user to vest with specific schedule"
					}
				},
				"version": 1
			}
		}
	}
}