{
	"contracts/liquidityMining/KyberFairLaunch.sol": {
		"KyberFairLaunch": {
			"abi": [
				{
					"inputs": [
						{
							"internalType": "address",
							"name": "_admin",
							"type": "address"
						},
						{
							"internalType": "address[]",
							"name": "_rewardTokens",
							"type": "address[]"
						},
						{
							"internalType": "contract IKyberRewardLocker",
							"name": "_rewardLocker",
							"type": "address"
						}
					],
					"stateMutability": "nonpayable",
					"type": "constructor"
				},
				{
					"anonymous": false,
					"inputs": [
						{
							"indexed": true,
							"internalType": "address",
							"name": "stakeToken",
							"type": "address"
						},
						{
							"indexed": true,
							"internalType": "uint32",
							"name": "startBlock",
							"type": "uint32"
						},
						{
							"indexed": true,
							"internalType": "uint32",
							"name": "endBlock",
							"type": "uint32"
						},
						{
							"indexed": false,
							"internalType": "uint256[]",
							"name": "rewardPerBlocks",
							"type": "uint256[]"
						}
					],
					"name": "AddNewPool",
					"type": "event"
				},
				{
					"anonymous": false,
					"inputs": [
						{
							"indexed": false,
							"internalType": "address",
							"name": "newAdmin",
							"type": "address"
						},
						{
							"indexed": false,
							"internalType": "address",
							"name": "previousAdmin",
							"type": "address"
						}
					],
					"name": "AdminClaimed",
					"type": "event"
				},
				{
					"anonymous": false,
					"inputs": [
						{
							"indexed": true,
							"internalType": "address",
							"name": "user",
							"type": "address"
						},
						{
							"indexed": true,
							"internalType": "uint256",
							"name": "pid",
							"type": "uint256"
						},
						{
							"indexed": true,
							"internalType": "uint256",
							"name": "blockNumber",
							"type": "uint256"
						},
						{
							"indexed": false,
							"internalType": "uint256",
							"name": "amount",
							"type": "uint256"
						}
					],
					"name": "Deposit",
					"type": "event"
				},
				{
					"anonymous": false,
					"inputs": [
						{
							"indexed": true,
							"internalType": "address",
							"name": "user",
							"type": "address"
						},
						{
							"indexed": true,
							"internalType": "uint256",
							"name": "pid",
							"type": "uint256"
						},
						{
							"indexed": true,
							"internalType": "uint256",
							"name": "blockNumber",
							"type": "uint256"
						},
						{
							"indexed": false,
							"internalType": "uint256",
							"name": "amount",
							"type": "uint256"
						}
					],
					"name": "EmergencyWithdraw",
					"type": "event"
				},
				{
					"anonymous": false,
					"inputs": [
						{
							"indexed": true,
							"internalType": "address",
							"name": "user",
							"type": "address"
						},
						{
							"indexed": true,
							"internalType": "uint256",
							"name": "pid",
							"type": "uint256"
						},
						{
							"indexed": true,
							"internalType": "address",
							"name": "rewardToken",
							"type": "address"
						},
						{
							"indexed": false,
							"internalType": "uint256",
							"name": "lockedAmount",
							"type": "uint256"
						},
						{
							"indexed": false,
							"internalType": "uint256",
							"name": "blockNumber",
							"type": "uint256"
						}
					],
					"name": "Harvest",
					"type": "event"
				},
				{
					"anonymous": false,
					"inputs": [
						{
							"indexed": true,
							"internalType": "uint256",
							"name": "pid",
							"type": "uint256"
						},
						{
							"indexed": true,
							"internalType": "uint32",
							"name": "startBlock",
							"type": "uint32"
						},
						{
							"indexed": true,
							"internalType": "uint32",
							"name": "endBlock",
							"type": "uint32"
						},
						{
							"indexed": false,
							"internalType": "uint256[]",
							"name": "rewardPerBlocks",
							"type": "uint256[]"
						}
					],
					"name": "RenewPool",
					"type": "event"
				},
				{
					"anonymous": false,
					"inputs": [
						{
							"indexed": false,
							"internalType": "address",
							"name": "pendingAdmin",
							"type": "address"
						}
					],
					"name": "TransferAdminPending",
					"type": "event"
				},
				{
					"anonymous": false,
					"inputs": [
						{
							"indexed": true,
							"internalType": "uint256",
							"name": "pid",
							"type": "uint256"
						},
						{
							"indexed": true,
							"internalType": "uint32",
							"name": "endBlock",
							"type": "uint32"
						},
						{
							"indexed": false,
							"internalType": "uint256[]",
							"name": "rewardPerBlocks",
							"type": "uint256[]"
						}
					],
					"name": "UpdatePool",
					"type": "event"
				},
				{
					"anonymous": false,
					"inputs": [
						{
							"indexed": true,
							"internalType": "address",
							"name": "user",
							"type": "address"
						},
						{
							"indexed": true,
							"internalType": "uint256",
							"name": "pid",
							"type": "uint256"
						},
						{
							"indexed": true,
							"internalType": "uint256",
							"name": "blockNumber",
							"type": "uint256"
						},
						{
							"indexed": false,
							"internalType": "uint256",
							"name": "amount",
							"type": "uint256"
						}
					],
					"name": "Withdraw",
					"type": "event"
				},
				{
					"inputs": [
						{
							"internalType": "address",
							"name": "_stakeToken",
							"type": "address"
						},
						{
							"internalType": "uint32",
							"name": "_startBlock",
							"type": "uint32"
						},
						{
							"internalType": "uint32",
							"name": "_endBlock",
							"type": "uint32"
						},
						{
							"internalType": "uint256[]",
							"name": "_rewardPerBlocks",
							"type": "uint256[]"
						}
					],
					"name": "addPool",
					"outputs": [],
					"stateMutability": "nonpayable",
					"type": "function"
				},
				{
					"inputs": [],
					"name": "admin",
					"outputs": [
						{
							"internalType": "address",
							"name": "",
							"type": "address"
						}
					],
					"stateMutability": "view",
					"type": "function"
				},
				{
					"inputs": [
						{
							"internalType": "uint256",
							"name": "rewardTokenIndex",
							"type": "uint256"
						},
						{
							"internalType": "uint256",
							"name": "amount",
							"type": "uint256"
						}
					],
					"name": "adminWithdraw",
					"outputs": [],
					"stateMutability": "nonpayable",
					"type": "function"
				},
				{
					"inputs": [],
					"name": "claimAdmin",
					"outputs": [],
					"stateMutability": "nonpayable",
					"type": "function"
				},
				{
					"inputs": [
						{
							"internalType": "uint256",
							"name": "_pid",
							"type": "uint256"
						},
						{
							"internalType": "uint256",
							"name": "_amount",
							"type": "uint256"
						},
						{
							"internalType": "bool",
							"name": "_shouldHarvest",
							"type": "bool"
						}
					],
					"name": "deposit",
					"outputs": [],
					"stateMutability": "nonpayable",
					"type": "function"
				},
				{
					"inputs": [
						{
							"internalType": "uint256",
							"name": "_pid",
							"type": "uint256"
						}
					],
					"name": "emergencyWithdraw",
					"outputs": [],
					"stateMutability": "nonpayable",
					"type": "function"
				},
				{
					"inputs": [
						{
							"internalType": "uint256",
							"name": "_pid",
							"type": "uint256"
						}
					],
					"name": "getPoolInfo",
					"outputs": [
						{
							"internalType": "uint256",
							"name": "totalStake",
							"type": "uint256"
						},
						{
							"internalType": "address",
							"name": "stakeToken",
							"type": "address"
						},
						{
							"internalType": "uint32",
							"name": "startBlock",
							"type": "uint32"
						},
						{
							"internalType": "uint32",
							"name": "endBlock",
							"type": "uint32"
						},
						{
							"internalType": "uint32",
							"name": "lastRewardBlock",
							"type": "uint32"
						},
						{
							"internalType": "uint256[]",
							"name": "rewardPerBlocks",
							"type": "uint256[]"
						},
						{
							"internalType": "uint256[]",
							"name": "accRewardPerShares",
							"type": "uint256[]"
						}
					],
					"stateMutability": "view",
					"type": "function"
				},
				{
					"inputs": [],
					"name": "getRewardTokens",
					"outputs": [
						{
							"internalType": "address[]",
							"name": "",
							"type": "address[]"
						}
					],
					"stateMutability": "view",
					"type": "function"
				},
				{
					"inputs": [
						{
							"internalType": "uint256",
							"name": "_pid",
							"type": "uint256"
						},
						{
							"internalType": "address",
							"name": "_account",
							"type": "address"
						}
					],
					"name": "getUserInfo",
					"outputs": [
						{
							"internalType": "uint256",
							"name": "amount",
							"type": "uint256"
						},
						{
							"internalType": "uint256[]",
							"name": "unclaimedRewards",
							"type": "uint256[]"
						},
						{
							"internalType": "uint256[]",
							"name": "lastRewardPerShares",
							"type": "uint256[]"
						}
					],
					"stateMutability": "view",
					"type": "function"
				},
				{
					"inputs": [
						{
							"internalType": "uint256",
							"name": "_pid",
							"type": "uint256"
						}
					],
					"name": "harvest",
					"outputs": [],
					"stateMutability": "nonpayable",
					"type": "function"
				},
				{
					"inputs": [
						{
							"internalType": "uint256[]",
							"name": "_pids",
							"type": "uint256[]"
						}
					],
					"name": "harvestMultiplePools",
					"outputs": [],
					"stateMutability": "nonpayable",
					"type": "function"
				},
				{
					"inputs": [],
					"name": "pendingAdmin",
					"outputs": [
						{
							"internalType": "address",
							"name": "",
							"type": "address"
						}
					],
					"stateMutability": "view",
					"type": "function"
				},
				{
					"inputs": [
						{
							"internalType": "uint256",
							"name": "_pid",
							"type": "uint256"
						},
						{
							"internalType": "address",
							"name": "_user",
							"type": "address"
						}
					],
					"name": "pendingRewards",
					"outputs": [
						{
							"internalType": "uint256[]",
							"name": "rewards",
							"type": "uint256[]"
						}
					],
					"stateMutability": "view",
					"type": "function"
				},
				{
					"inputs": [
						{
							"internalType": "address",
							"name": "",
							"type": "address"
						}
					],
					"name": "poolExists",
					"outputs": [
						{
							"internalType": "bool",
							"name": "",
							"type": "bool"
						}
					],
					"stateMutability": "view",
					"type": "function"
				},
				{
					"inputs": [],
					"name": "poolLength",
					"outputs": [
						{
							"internalType": "uint256",
							"name": "",
							"type": "uint256"
						}
					],
					"stateMutability": "view",
					"type": "function"
				},
				{
					"inputs": [
						{
							"internalType": "uint256",
							"name": "_pid",
							"type": "uint256"
						},
						{
							"internalType": "uint32",
							"name": "_startBlock",
							"type": "uint32"
						},
						{
							"internalType": "uint32",
							"name": "_endBlock",
							"type": "uint32"
						},
						{
							"internalType": "uint256[]",
							"name": "_rewardPerBlocks",
							"type": "uint256[]"
						}
					],
					"name": "renewPool",
					"outputs": [],
					"stateMutability": "nonpayable",
					"type": "function"
				},
				{
					"inputs": [],
					"name": "rewardLocker",
					"outputs": [
						{
							"internalType": "contract IKyberRewardLocker",
							"name": "",
							"type": "address"
						}
					],
					"stateMutability": "view",
					"type": "function"
				},
				{
					"inputs": [
						{
							"internalType": "uint256",
							"name": "",
							"type": "uint256"
						}
					],
					"name": "rewardTokens",
					"outputs": [
						{
							"internalType": "address",
							"name": "",
							"type": "address"
						}
					],
					"stateMutability": "view",
					"type": "function"
				},
				{
					"inputs": [
						{
							"internalType": "address",
							"name": "newAdmin",
							"type": "address"
						}
					],
					"name": "transferAdmin",
					"outputs": [],
					"stateMutability": "nonpayable",
					"type": "function"
				},
				{
					"inputs": [
						{
							"internalType": "address",
							"name": "newAdmin",
							"type": "address"
						}
					],
					"name": "transferAdminQuickly",
					"outputs": [],
					"stateMutability": "nonpayable",
					"type": "function"
				},
				{
					"inputs": [
						{
							"internalType": "uint256",
							"name": "_pid",
							"type": "uint256"
						},
						{
							"internalType": "uint32",
							"name": "_endBlock",
							"type": "uint32"
						},
						{
							"internalType": "uint256[]",
							"name": "_rewardPerBlocks",
							"type": "uint256[]"
						}
					],
					"name": "updatePool",
					"outputs": [],
					"stateMutability": "nonpayable",
					"type": "function"
				},
				{
					"inputs": [
						{
							"internalType": "uint256",
							"name": "_pid",
							"type": "uint256"
						}
					],
					"name": "updatePoolRewards",
					"outputs": [],
					"stateMutability": "nonpayable",
					"type": "function"
				},
				{
					"inputs": [
						{
							"internalType": "uint256",
							"name": "_pid",
							"type": "uint256"
						},
						{
							"internalType": "uint256",
							"name": "_amount",
							"type": "uint256"
						}
					],
					"name": "withdraw",
					"outputs": [],
					"stateMutability": "nonpayable",
					"type": "function"
				},
				{
					"inputs": [
						{
							"internalType": "uint256",
							"name": "_pid",
							"type": "uint256"
						}
					],
					"name": "withdrawAll",
					"outputs": [],
					"stateMutability": "nonpayable",
					"type": "function"
				},
				{
					"stateMutability": "payable",
					"type": "receive"
				}
			],
			"devdoc": {
				"kind": "dev",
				"methods": {
					"addPool(address,uint32,uint32,uint256[])": {
						"details": "Add a new lp to the pool. Can only be called by the admin.",
						"params": {
							"_endBlock": ": block where the reward ends",
							"_rewardPerBlocks": ": amount of reward token per block for the pool for each reward token",
							"_stakeToken": ": token to be staked to the pool",
							"_startBlock": ": block where the reward starts"
						}
					},
					"adminWithdraw(uint256,uint256)": {
						"details": "Allow admin to withdraw only reward tokens"
					},
					"claimAdmin()": {
						"details": "Allows the pendingAdmin address to finalize the change admin process."
					},
					"deposit(uint256,uint256,bool)": {
						"details": "Deposit tokens to accumulate rewards",
						"params": {
							"_amount": ": amount of stakeToken to be deposited",
							"_pid": ": id of the pool",
							"_shouldHarvest": ": whether to harvest the reward or not"
						}
					},
					"emergencyWithdraw(uint256)": {
						"details": "Emergency withdrawal function to allow withdraw all deposited tokens (of the sender)   and reset all rewards",
						"params": {
							"_pid": ": id of the pool"
						}
					},
					"getPoolInfo(uint256)": {
						"details": "Return full details of a pool"
					},
					"getRewardTokens()": {
						"details": "Return list reward tokens"
					},
					"getUserInfo(uint256,address)": {
						"details": "Return user's info including deposited amount and reward data"
					},
					"harvest(uint256)": {
						"details": "Harvest rewards from a pool for the sender",
						"params": {
							"_pid": ": id of the pool"
						}
					},
					"harvestMultiplePools(uint256[])": {
						"details": "Harvest rewards from multiple pools for the sender   combine rewards from all pools and only transfer once to save gas"
					},
					"pendingRewards(uint256,address)": {
						"details": "Get pending rewards of a user from a pool, mostly for front-end",
						"params": {
							"_pid": ": id of the pool",
							"_user": ": user to check for pending rewards"
						}
					},
					"renewPool(uint256,uint32,uint32,uint256[])": {
						"details": "Renew a pool to start another liquidity mining program",
						"params": {
							"_endBlock": ": block where the reward ends",
							"_pid": ": id of the pool to renew, must be pool that has not started or already ended",
							"_rewardPerBlocks": ": amount of reward token per block for the pool   0 if we want to stop the pool from accumulating rewards",
							"_startBlock": ": block where the reward starts"
						}
					},
					"transferAdmin(address)": {
						"details": "Allows the current admin to set the pendingAdmin address.",
						"params": {
							"newAdmin": "The address to transfer ownership to."
						}
					},
					"transferAdminQuickly(address)": {
						"details": "Allows the current admin to set the admin in one tx. Useful initial deployment.",
						"params": {
							"newAdmin": "The address to transfer ownership to."
						}
					},
					"updatePool(uint256,uint32,uint256[])": {
						"details": "Update a pool, allow to change end block, reward per block",
						"params": {
							"_endBlock": ": block where the reward ends",
							"_pid": ": pool id to be renew",
							"_rewardPerBlocks": ": amount of reward token per block for the pool,   0 if we want to stop the pool from accumulating rewards"
						}
					},
					"updatePoolRewards(uint256)": {
						"details": "Update rewards for one pool"
					},
					"withdraw(uint256,uint256)": {
						"details": "Withdraw token (of the sender) from pool, also harvest rewards",
						"params": {
							"_amount": ": amount of stakeToken to withdraw",
							"_pid": ": id of the pool"
						}
					},
					"withdrawAll(uint256)": {
						"details": "Withdraw all tokens (of the sender) from pool, also harvest reward",
						"params": {
							"_pid": ": id of the pool"
						}
					}
				},
				"stateVariables": {
					"poolLength": {
						"details": "return the total of pools that have been added"
					}
				},
				"version": 1
			},
			"evm": {
				"assembly": "    /* \"contracts/liquidityMining/KyberFairLaunch.sol\":1064:23424  contract KyberFairLaunch is IKyberFairLaunch, PermissionAdmin, ReentrancyGuard {\r... */\n  mstore(0x40, 0xa0)\n    /* \"contracts/liquidityMining/KyberFairLaunch.sol\":4873:5461  constructor(\r... */\n  callvalue\n  dup1\n  iszero\n  tag_1\n  jumpi\n  0x00\n  dup1\n  revert\ntag_1:\n  pop\n  mload(0x40)\n  sub(codesize, bytecodeSize)\n  dup1\n  bytecodeSize\n  dup4\n  codecopy\n  dup2\n  add\n  0x40\n  dup2\n  swap1\n  mstore\n  tag_2\n  swap2\n  tag_3\n  jump\t// in\ntag_2:\n    /* \"contracts/liquidityMining/KyberFairLaunch.sol\":5017:5023  _admin */\n  dup3\n  sub(shl(0xa0, 0x01), 0x01)\n    /* \"contracts/manual/PermissionAdmin.sol\":335:355  _admin != address(0) */\n  dup2\n  and\n    /* \"contracts/manual/PermissionAdmin.sol\":327:367  require(_admin != address(0), \"admin 0\") */\n  tag_8\n  jumpi\n  0x40\n  dup1\n  mload\n  shl(0xe5, 0x461bcd)\n  dup2\n  mstore\n  0x20\n  0x04\n  dup3\n  add\n  mstore\n  0x07\n  0x24\n  dup3\n  add\n  mstore\n  shl(0xcc, 0x061646d696e203)\n  0x44\n  dup3\n  add\n  mstore\n  swap1\n  mload\n  swap1\n  dup2\n  swap1\n  sub\n  0x64\n  add\n  swap1\n  revert\ntag_8:\n    /* \"contracts/manual/PermissionAdmin.sol\":378:383  admin */\n  0x00\n    /* \"contracts/manual/PermissionAdmin.sol\":378:392  admin = _admin */\n  dup1\n  sload\n  not(sub(shl(0xa0, 0x01), 0x01))\n  and\n  sub(shl(0xa0, 0x01), 0x01)\n  swap3\n  swap1\n  swap3\n  and\n  swap2\n  swap1\n  swap2\n  or\n  swap1\n  sstore\n  0x01\n    /* \"@openzeppelin/contracts/utils/ReentrancyGuard.sol\":1760:1767  _status */\n  0x02\n    /* \"@openzeppelin/contracts/utils/ReentrancyGuard.sol\":1760:1782  _status = _NOT_ENTERED */\n  sstore\n    /* \"contracts/liquidityMining/KyberFairLaunch.sol\":5036:5064  rewardTokens = _rewardTokens */\n  dup2\n  mload\n  tag_11\n  swap1\n    /* \"contracts/liquidityMining/KyberFairLaunch.sol\":5036:5048  rewardTokens */\n  0x04\n  swap1\n    /* \"contracts/liquidityMining/KyberFairLaunch.sol\":5036:5064  rewardTokens = _rewardTokens */\n  0x20\n  dup6\n  add\n  swap1\n  tag_12\n  jump\t// in\ntag_11:\n  pop\n  not(sub(shl(0x60, 0x01), 0x01))\n    /* \"contracts/liquidityMining/KyberFairLaunch.sol\":5075:5103  rewardLocker = _rewardLocker */\n  0x60\n  dup3\n  swap1\n  shl\n  and\n  0x80\n  mstore\n    /* \"contracts/liquidityMining/KyberFairLaunch.sol\":5168:5177  uint256 i */\n  0x00\n    /* \"contracts/liquidityMining/KyberFairLaunch.sol\":5163:5454  for (uint256 i = 0; i < _rewardTokens.length; i++) {\r... */\ntag_13:\n    /* \"contracts/liquidityMining/KyberFairLaunch.sol\":5187:5200  _rewardTokens */\n  dup3\n    /* \"contracts/liquidityMining/KyberFairLaunch.sol\":5187:5207  _rewardTokens.length */\n  mload\n    /* \"contracts/liquidityMining/KyberFairLaunch.sol\":5183:5184  i */\n  dup2\n    /* \"contracts/liquidityMining/KyberFairLaunch.sol\":5183:5207  i < _rewardTokens.length */\n  lt\n    /* \"contracts/liquidityMining/KyberFairLaunch.sol\":5163:5454  for (uint256 i = 0; i < _rewardTokens.length; i++) {\r... */\n  iszero\n  tag_14\n  jumpi\n    /* \"contracts/liquidityMining/KyberFairLaunch.sol\":5261:5262  0 */\n  0x00\n  sub(shl(0xa0, 0x01), 0x01)\n    /* \"contracts/liquidityMining/KyberFairLaunch.sol\":5233:5263  _rewardTokens[i] != address(0) */\n  and\n    /* \"contracts/liquidityMining/KyberFairLaunch.sol\":5233:5246  _rewardTokens */\n  dup4\n    /* \"contracts/liquidityMining/KyberFairLaunch.sol\":5247:5248  i */\n  dup3\n    /* \"contracts/liquidityMining/KyberFairLaunch.sol\":5233:5249  _rewardTokens[i] */\n  dup2\n  mload\n  dup2\n  lt\n  tag_16\n  jumpi\n  invalid\ntag_16:\n  0x20\n  mul\n  0x20\n  add\n  add\n  mload\n  sub(shl(0xa0, 0x01), 0x01)\n    /* \"contracts/liquidityMining/KyberFairLaunch.sol\":5233:5263  _rewardTokens[i] != address(0) */\n  and\n  eq\n    /* \"contracts/liquidityMining/KyberFairLaunch.sol\":5229:5443  if (_rewardTokens[i] != address(0)) {\r... */\n  tag_18\n  jumpi\n    /* \"contracts/liquidityMining/KyberFairLaunch.sol\":5284:5427  IERC20Ext(_rewardTokens[i]).safeApprove(\r... */\n  tag_18\n    /* \"contracts/liquidityMining/KyberFairLaunch.sol\":5354:5367  _rewardLocker */\n  dup3\n  not(0x00)\n    /* \"contracts/liquidityMining/KyberFairLaunch.sol\":5294:5307  _rewardTokens */\n  dup6\n    /* \"contracts/liquidityMining/KyberFairLaunch.sol\":5308:5309  i */\n  dup5\n    /* \"contracts/liquidityMining/KyberFairLaunch.sol\":5294:5310  _rewardTokens[i] */\n  dup2\n  mload\n  dup2\n  lt\n  tag_19\n  jumpi\n  invalid\ntag_19:\n  0x20\n  mul\n  0x20\n  add\n  add\n  mload\n  sub(shl(0xa0, 0x01), 0x01)\n    /* \"contracts/liquidityMining/KyberFairLaunch.sol\":5284:5323  IERC20Ext(_rewardTokens[i]).safeApprove */\n  and\n  or(tag_0_149, shl(0x20, tag_20))\n  swap1\n    /* \"contracts/liquidityMining/KyberFairLaunch.sol\":5284:5427  IERC20Ext(_rewardTokens[i]).safeApprove(\r... */\n  swap3\n  swap2\n  swap1\n  0x20\n  shr\n  jump\t// in\ntag_18:\n    /* \"contracts/liquidityMining/KyberFairLaunch.sol\":5209:5212  i++ */\n  0x01\n  add\n    /* \"contracts/liquidityMining/KyberFairLaunch.sol\":5163:5454  for (uint256 i = 0; i < _rewardTokens.length; i++) {\r... */\n  jump(tag_13)\ntag_14:\n  pop\n    /* \"contracts/liquidityMining/KyberFairLaunch.sol\":4873:5461  constructor(\r... */\n  pop\n  pop\n  pop\n    /* \"contracts/liquidityMining/KyberFairLaunch.sol\":1064:23424  contract KyberFairLaunch is IKyberFairLaunch, PermissionAdmin, ReentrancyGuard {\r... */\n  jump(tag_70)\n    /* \"@openzeppelin/contracts/token/ERC20/SafeERC20.sol\":1348:1961  function safeApprove(IERC20 token, address spender, uint256 value) internal {... */\ntag_20:\n    /* \"@openzeppelin/contracts/token/ERC20/SafeERC20.sol\":1713:1723  value == 0 */\n  dup1\n  iszero\n  dup1\n    /* \"@openzeppelin/contracts/token/ERC20/SafeERC20.sol\":1712:1774  (value == 0) || (token.allowance(address(this), spender) == 0) */\n  tag_23\n  jumpi\n  pop\n    /* \"@openzeppelin/contracts/token/ERC20/SafeERC20.sol\":1729:1768  token.allowance(address(this), spender) */\n  0x40\n  dup1\n  mload\n  shl(0xe1, 0x6eb1769f)\n  dup2\n  mstore\n    /* \"@openzeppelin/contracts/token/ERC20/SafeERC20.sol\":1753:1757  this */\n  address\n    /* \"@openzeppelin/contracts/token/ERC20/SafeERC20.sol\":1729:1768  token.allowance(address(this), spender) */\n  0x04\n  dup3\n  add\n  mstore\n  sub(shl(0xa0, 0x01), 0x01)\n  dup5\n  dup2\n  and\n  0x24\n  dup4\n  add\n  mstore\n  swap2\n  mload\n    /* \"@openzeppelin/contracts/token/ERC20/SafeERC20.sol\":1729:1744  token.allowance */\n  swap2\n  dup6\n  and\n  swap2\n  0xdd62ed3e\n  swap2\n    /* \"@openzeppelin/contracts/token/ERC20/SafeERC20.sol\":1729:1768  token.allowance(address(this), spender) */\n  0x44\n  dup1\n  dup3\n  add\n  swap3\n  0x20\n  swap3\n  swap1\n  swap2\n  swap1\n  dup3\n  swap1\n  sub\n  add\n  dup2\n    /* \"@openzeppelin/contracts/token/ERC20/SafeERC20.sol\":1729:1744  token.allowance */\n  dup7\n    /* \"@openzeppelin/contracts/token/ERC20/SafeERC20.sol\":1729:1768  token.allowance(address(this), spender) */\n  dup1\n  extcodesize\n  iszero\n  dup1\n  iszero\n  tag_24\n  jumpi\n  0x00\n  dup1\n  revert\ntag_24:\n  pop\n  gas\n  staticcall\n  iszero\n  dup1\n  iszero\n  tag_26\n  jumpi\n  returndatasize\n  0x00\n  dup1\n  returndatacopy\n  revert(0x00, returndatasize)\ntag_26:\n  pop\n  pop\n  pop\n  pop\n  mload(0x40)\n  returndatasize\n  0x20\n  dup2\n  lt\n  iszero\n  tag_27\n  jumpi\n  0x00\n  dup1\n  revert\ntag_27:\n  pop\n  mload\n    /* \"@openzeppelin/contracts/token/ERC20/SafeERC20.sol\":1729:1773  token.allowance(address(this), spender) == 0 */\n  iszero\n    /* \"@openzeppelin/contracts/token/ERC20/SafeERC20.sol\":1712:1774  (value == 0) || (token.allowance(address(this), spender) == 0) */\ntag_23:\n    /* \"@openzeppelin/contracts/token/ERC20/SafeERC20.sol\":1704:1854  require((value == 0) || (token.allowance(address(this), spender) == 0),... */\n  tag_28\n  jumpi\n  mload(0x40)\n  shl(0xe5, 0x461bcd)\n  dup2\n  mstore\n  0x04\n  add\n  dup1\n  dup1\n  0x20\n  add\n  dup3\n  dup2\n  sub\n  dup3\n  mstore\n  0x36\n  dup2\n  mstore\n  0x20\n  add\n  dup1\n  data_ef945ddb1bfdc0da870feb4560d868b047642b4ac7f2fb7f8b7c51cb4a411e25\n  0x36\n  swap2\n  codecopy\n  0x40\n  add\n  swap2\n  pop\n  pop\n  mload(0x40)\n  dup1\n  swap2\n  sub\n  swap1\n  revert\ntag_28:\n    /* \"@openzeppelin/contracts/token/ERC20/SafeERC20.sol\":1891:1953  abi.encodeWithSelector(token.approve.selector, spender, value) */\n  0x40\n  dup1\n  mload\n  sub(shl(0xa0, 0x01), 0x01)\n  dup5\n  and\n  0x24\n  dup3\n  add\n  mstore\n  0x44\n  dup1\n  dup3\n  add\n  dup5\n  swap1\n  mstore\n  dup3\n  mload\n  dup1\n  dup4\n  sub\n  swap1\n  swap2\n  add\n  dup2\n  mstore\n  0x64\n  swap1\n  swap2\n  add\n  swap1\n  swap2\n  mstore\n  0x20\n  dup2\n  add\n  dup1\n  mload\n  sub(shl(0xe0, 0x01), 0x01)\n  swap1\n  dup2\n  and\n  shl(0xe0, 0x095ea7b3)\n  or\n  swap1\n  swap2\n  mstore\n    /* \"@openzeppelin/contracts/token/ERC20/SafeERC20.sol\":1864:1954  _callOptionalReturn(token, abi.encodeWithSelector(token.approve.selector, spender, value)) */\n  tag_29\n  swap2\n    /* \"@openzeppelin/contracts/token/ERC20/SafeERC20.sol\":1884:1889  token */\n  dup6\n  swap2\n    /* \"@openzeppelin/contracts/token/ERC20/SafeERC20.sol\":1864:1883  _callOptionalReturn */\n  tag_30\n    /* \"@openzeppelin/contracts/token/ERC20/SafeERC20.sol\":1864:1954  _callOptionalReturn(token, abi.encodeWithSelector(token.approve.selector, spender, value)) */\n  and\n  jump\t// in\ntag_29:\n    /* \"@openzeppelin/contracts/token/ERC20/SafeERC20.sol\":1348:1961  function safeApprove(IERC20 token, address spender, uint256 value) internal {... */\n  pop\n  pop\n  pop\n  jump\t// out\n    /* \"@openzeppelin/contracts/token/ERC20/SafeERC20.sol\":2967:3718  function _callOptionalReturn(IERC20 token, bytes memory data) private {... */\ntag_30:\n    /* \"@openzeppelin/contracts/token/ERC20/SafeERC20.sol\":3386:3409  bytes memory returndata */\n  0x00\n    /* \"@openzeppelin/contracts/token/ERC20/SafeERC20.sol\":3412:3481  address(token).functionCall(data, \"SafeERC20: low-level call failed\") */\n  tag_32\n    /* \"@openzeppelin/contracts/token/ERC20/SafeERC20.sol\":3440:3444  data */\n  dup3\n    /* \"@openzeppelin/contracts/token/ERC20/SafeERC20.sol\":3412:3481  address(token).functionCall(data, \"SafeERC20: low-level call failed\") */\n  mload(0x40)\n  dup1\n  0x40\n  add\n  0x40\n  mstore\n  dup1\n  0x20\n  dup2\n  mstore\n  0x20\n  add\n  0x5361666545524332303a206c6f772d6c6576656c2063616c6c206661696c6564\n  dup2\n  mstore\n  pop\n    /* \"@openzeppelin/contracts/token/ERC20/SafeERC20.sol\":3420:3425  token */\n  dup6\n  sub(shl(0xa0, 0x01), 0x01)\n    /* \"@openzeppelin/contracts/token/ERC20/SafeERC20.sol\":3412:3439  address(token).functionCall */\n  and\n  or(tag_0_150, shl(0x20, tag_33))\n  swap1\n    /* \"@openzeppelin/contracts/token/ERC20/SafeERC20.sol\":3412:3481  address(token).functionCall(data, \"SafeERC20: low-level call failed\") */\n  swap3\n  swap2\n  swap1\n  0x20\n  shr\n  jump\t// in\ntag_32:\n    /* \"@openzeppelin/contracts/token/ERC20/SafeERC20.sol\":3495:3512  returndata.length */\n  dup1\n  mload\n    /* \"@openzeppelin/contracts/token/ERC20/SafeERC20.sol\":3386:3481  bytes memory returndata = address(token).functionCall(data, \"SafeERC20: low-level call failed\") */\n  swap1\n  swap2\n  pop\n    /* \"@openzeppelin/contracts/token/ERC20/SafeERC20.sol\":3495:3516  returndata.length > 0 */\n  iszero\n    /* \"@openzeppelin/contracts/token/ERC20/SafeERC20.sol\":3491:3712  if (returndata.length > 0) { // Return data is optional... */\n  tag_29\n  jumpi\n    /* \"@openzeppelin/contracts/token/ERC20/SafeERC20.sol\":3635:3645  returndata */\n  dup1\n    /* \"@openzeppelin/contracts/token/ERC20/SafeERC20.sol\":3624:3654  abi.decode(returndata, (bool)) */\n  dup1\n  0x20\n  add\n  swap1\n  mload\n  0x20\n  dup2\n  lt\n  iszero\n  tag_35\n  jumpi\n  0x00\n  dup1\n  revert\ntag_35:\n  pop\n  mload\n    /* \"@openzeppelin/contracts/token/ERC20/SafeERC20.sol\":3616:3701  require(abi.decode(returndata, (bool)), \"SafeERC20: ERC20 operation did not succeed\") */\n  tag_29\n  jumpi\n  mload(0x40)\n  shl(0xe5, 0x461bcd)\n  dup2\n  mstore\n  0x04\n  add\n  dup1\n  dup1\n  0x20\n  add\n  dup3\n  dup2\n  sub\n  dup3\n  mstore\n  0x2a\n  dup2\n  mstore\n  0x20\n  add\n  dup1\n  data_e11ad79d1e4a7f2e5f376964cb99e8e8f7904e3fc16a109f7a7ecb9aa7956dcd\n  0x2a\n  swap2\n  codecopy\n  0x40\n  add\n  swap2\n  pop\n  pop\n  mload(0x40)\n  dup1\n  swap2\n  sub\n  swap1\n  revert\n    /* \"@openzeppelin/contracts/utils/Address.sol\":3581:3774  function functionCall(address target, bytes memory data, string memory errorMessage) internal returns (bytes memory) {... */\ntag_33:\n    /* \"@openzeppelin/contracts/utils/Address.sol\":3684:3696  bytes memory */\n  0x60\n    /* \"@openzeppelin/contracts/utils/Address.sol\":3715:3767  functionCallWithValue(target, data, 0, errorMessage) */\n  tag_38\n    /* \"@openzeppelin/contracts/utils/Address.sol\":3737:3743  target */\n  dup5\n    /* \"@openzeppelin/contracts/utils/Address.sol\":3745:3749  data */\n  dup5\n    /* \"@openzeppelin/contracts/utils/Address.sol\":3751:3752  0 */\n  0x00\n    /* \"@openzeppelin/contracts/utils/Address.sol\":3754:3766  errorMessage */\n  dup6\n    /* \"@openzeppelin/contracts/utils/Address.sol\":3715:3736  functionCallWithValue */\n  tag_39\n    /* \"@openzeppelin/contracts/utils/Address.sol\":3715:3767  functionCallWithValue(target, data, 0, errorMessage) */\n  jump\t// in\ntag_38:\n    /* \"@openzeppelin/contracts/utils/Address.sol\":3708:3767  return functionCallWithValue(target, data, 0, errorMessage) */\n  swap1\n  pop\n    /* \"@openzeppelin/contracts/utils/Address.sol\":3581:3774  function functionCall(address target, bytes memory data, string memory errorMessage) internal returns (bytes memory) {... */\ntag_37:\n  swap4\n  swap3\n  pop\n  pop\n  pop\n  jump\t// out\n    /* \"@openzeppelin/contracts/utils/Address.sol\":4608:5131  function functionCallWithValue(address target, bytes memory data, uint256 value, string memory errorMessage) internal returns (bytes memory) {... */\ntag_39:\n    /* \"@openzeppelin/contracts/utils/Address.sol\":4735:4747  bytes memory */\n  0x60\n    /* \"@openzeppelin/contracts/utils/Address.sol\":4792:4797  value */\n  dup3\n    /* \"@openzeppelin/contracts/utils/Address.sol\":4767:4788  address(this).balance */\n  selfbalance\n    /* \"@openzeppelin/contracts/utils/Address.sol\":4767:4797  address(this).balance >= value */\n  lt\n  iszero\n    /* \"@openzeppelin/contracts/utils/Address.sol\":4759:4840  require(address(this).balance >= value, \"Address: insufficient balance for call\") */\n  tag_41\n  jumpi\n  mload(0x40)\n  shl(0xe5, 0x461bcd)\n  dup2\n  mstore\n  0x04\n  add\n  dup1\n  dup1\n  0x20\n  add\n  dup3\n  dup2\n  sub\n  dup3\n  mstore\n  0x26\n  dup2\n  mstore\n  0x20\n  add\n  dup1\n  data_565f1a77334fc4792800921178c71e4521acffab18ff9e7885b49377ee80ab4c\n  0x26\n  swap2\n  codecopy\n  0x40\n  add\n  swap2\n  pop\n  pop\n  mload(0x40)\n  dup1\n  swap2\n  sub\n  swap1\n  revert\ntag_41:\n    /* \"@openzeppelin/contracts/utils/Address.sol\":4858:4876  isContract(target) */\n  tag_42\n    /* \"@openzeppelin/contracts/utils/Address.sol\":4869:4875  target */\n  dup6\n    /* \"@openzeppelin/contracts/utils/Address.sol\":4858:4868  isContract */\n  tag_43\n    /* \"@openzeppelin/contracts/utils/Address.sol\":4858:4876  isContract(target) */\n  jump\t// in\ntag_42:\n    /* \"@openzeppelin/contracts/utils/Address.sol\":4850:4910  require(isContract(target), \"Address: call to non-contract\") */\n  tag_44\n  jumpi\n  0x40\n  dup1\n  mload\n  shl(0xe5, 0x461bcd)\n  dup2\n  mstore\n  0x20\n  0x04\n  dup3\n  add\n  mstore\n  0x1d\n  0x24\n  dup3\n  add\n  mstore\n  0x416464726573733a2063616c6c20746f206e6f6e2d636f6e7472616374000000\n  0x44\n  dup3\n  add\n  mstore\n  swap1\n  mload\n  swap1\n  dup2\n  swap1\n  sub\n  0x64\n  add\n  swap1\n  revert\ntag_44:\n    /* \"@openzeppelin/contracts/utils/Address.sol\":4981:4993  bool success */\n  0x00\n    /* \"@openzeppelin/contracts/utils/Address.sol\":4995:5018  bytes memory returndata */\n  dup1\n    /* \"@openzeppelin/contracts/utils/Address.sol\":5022:5028  target */\n  dup7\n  sub(shl(0xa0, 0x01), 0x01)\n    /* \"@openzeppelin/contracts/utils/Address.sol\":5022:5033  target.call */\n  and\n    /* \"@openzeppelin/contracts/utils/Address.sol\":5042:5047  value */\n  dup6\n    /* \"@openzeppelin/contracts/utils/Address.sol\":5050:5054  data */\n  dup8\n    /* \"@openzeppelin/contracts/utils/Address.sol\":5022:5055  target.call{ value: value }(data) */\n  mload(0x40)\n  dup1\n  dup3\n  dup1\n  mload\n  swap1\n  0x20\n  add\n  swap1\n  dup1\n  dup4\n  dup4\ntag_45:\n  0x20\n  dup4\n  lt\n  tag_47\n  jumpi\n  dup1\n  mload\n  dup3\n  mstore\n  not(0x1f)\n  swap1\n  swap3\n  add\n  swap2\n  0x20\n  swap2\n  dup3\n  add\n  swap2\n  add\n  jump(tag_45)\ntag_47:\n  0x01\n  dup4\n  0x20\n  sub\n  0x0100\n  exp\n  sub\n  dup1\n  not\n  dup3\n  mload\n  and\n  dup2\n  dup5\n  mload\n  and\n  dup1\n  dup3\n  or\n  dup6\n  mstore\n  pop\n  pop\n  pop\n  pop\n  pop\n  pop\n  swap1\n  pop\n  add\n  swap2\n  pop\n  pop\n  0x00\n  mload(0x40)\n  dup1\n  dup4\n  sub\n  dup2\n  dup6\n  dup8\n  gas\n  call\n  swap3\n  pop\n  pop\n  pop\n  returndatasize\n  dup1\n  0x00\n  dup2\n  eq\n  tag_50\n  jumpi\n  mload(0x40)\n  swap2\n  pop\n  and(add(returndatasize, 0x3f), not(0x1f))\n  dup3\n  add\n  0x40\n  mstore\n  returndatasize\n  dup3\n  mstore\n  returndatasize\n  0x00\n  0x20\n  dup5\n  add\n  returndatacopy\n  jump(tag_49)\ntag_50:\n  0x60\n  swap2\n  pop\ntag_49:\n  pop\n    /* \"@openzeppelin/contracts/utils/Address.sol\":4980:5055  (bool success, bytes memory returndata) = target.call{ value: value }(data) */\n  swap1\n  swap3\n  pop\n  swap1\n  pop\n    /* \"@openzeppelin/contracts/utils/Address.sol\":5072:5124  _verifyCallResult(success, returndata, errorMessage) */\n  tag_51\n    /* \"@openzeppelin/contracts/utils/Address.sol\":4980:5055  (bool success, bytes memory returndata) = target.call{ value: value }(data) */\n  dup3\n  dup3\n    /* \"@openzeppelin/contracts/utils/Address.sol\":5111:5123  errorMessage */\n  dup7\n    /* \"@openzeppelin/contracts/utils/Address.sol\":5072:5089  _verifyCallResult */\n  tag_52\n    /* \"@openzeppelin/contracts/utils/Address.sol\":5072:5124  _verifyCallResult(success, returndata, errorMessage) */\n  jump\t// in\ntag_51:\n    /* \"@openzeppelin/contracts/utils/Address.sol\":5065:5124  return _verifyCallResult(success, returndata, errorMessage) */\n  swap8\n    /* \"@openzeppelin/contracts/utils/Address.sol\":4608:5131  function functionCallWithValue(address target, bytes memory data, uint256 value, string memory errorMessage) internal returns (bytes memory) {... */\n  swap7\n  pop\n  pop\n  pop\n  pop\n  pop\n  pop\n  pop\n  jump\t// out\n    /* \"@openzeppelin/contracts/utils/Address.sol\":726:1139  function isContract(address account) internal view returns (bool) {... */\ntag_43:\n    /* \"@openzeppelin/contracts/utils/Address.sol\":1086:1106  extcodesize(account) */\n  dup1\n  extcodesize\n    /* \"@openzeppelin/contracts/utils/Address.sol\":1124:1132  size > 0 */\n  iszero\n  iszero\n    /* \"@openzeppelin/contracts/utils/Address.sol\":726:1139  function isContract(address account) internal view returns (bool) {... */\ntag_53:\n  swap2\n  swap1\n  pop\n  jump\t// out\n    /* \"@openzeppelin/contracts/utils/Address.sol\":7091:7816  function _verifyCallResult(bool success, bytes memory returndata, string memory errorMessage) private pure returns(bytes memory) {... */\ntag_52:\n    /* \"@openzeppelin/contracts/utils/Address.sol\":7206:7218  bytes memory */\n  0x60\n    /* \"@openzeppelin/contracts/utils/Address.sol\":7234:7241  success */\n  dup4\n    /* \"@openzeppelin/contracts/utils/Address.sol\":7230:7810  if (success) {... */\n  iszero\n  tag_55\n  jumpi\n  pop\n    /* \"@openzeppelin/contracts/utils/Address.sol\":7264:7274  returndata */\n  dup2\n    /* \"@openzeppelin/contracts/utils/Address.sol\":7257:7274  return returndata */\n  jump(tag_37)\n    /* \"@openzeppelin/contracts/utils/Address.sol\":7230:7810  if (success) {... */\ntag_55:\n    /* \"@openzeppelin/contracts/utils/Address.sol\":7375:7392  returndata.length */\n  dup3\n  mload\n    /* \"@openzeppelin/contracts/utils/Address.sol\":7375:7396  returndata.length > 0 */\n  iszero\n    /* \"@openzeppelin/contracts/utils/Address.sol\":7371:7800  if (returndata.length > 0) {... */\n  tag_57\n  jumpi\n    /* \"@openzeppelin/contracts/utils/Address.sol\":7633:7643  returndata */\n  dup3\n    /* \"@openzeppelin/contracts/utils/Address.sol\":7627:7644  mload(returndata) */\n  mload\n    /* \"@openzeppelin/contracts/utils/Address.sol\":7693:7708  returndata_size */\n  dup1\n    /* \"@openzeppelin/contracts/utils/Address.sol\":7680:7690  returndata */\n  dup5\n    /* \"@openzeppelin/contracts/utils/Address.sol\":7676:7678  32 */\n  0x20\n    /* \"@openzeppelin/contracts/utils/Address.sol\":7672:7691  add(32, returndata) */\n  add\n    /* \"@openzeppelin/contracts/utils/Address.sol\":7665:7709  revert(add(32, returndata), returndata_size) */\n  revert\n    /* \"@openzeppelin/contracts/utils/Address.sol\":7582:7727  {... */\ntag_57:\n    /* \"@openzeppelin/contracts/utils/Address.sol\":7772:7784  errorMessage */\n  dup2\n    /* \"@openzeppelin/contracts/utils/Address.sol\":7765:7785  revert(errorMessage) */\n  mload(0x40)\n  shl(0xe5, 0x461bcd)\n  dup2\n  mstore\n  0x04\n  add\n  dup1\n  dup1\n  0x20\n  add\n  dup3\n  dup2\n  sub\n  dup3\n  mstore\n  dup4\n  dup2\n  dup2\n  mload\n  dup2\n  mstore\n  0x20\n  add\n  swap2\n  pop\n  dup1\n  mload\n  swap1\n  0x20\n  add\n  swap1\n  dup1\n  dup4\n  dup4\n  0x00\ntag_59:\n  dup4\n  dup2\n  lt\n  iszero\n  tag_61\n  jumpi\n  dup2\n  dup2\n  add\n  mload\n  dup4\n  dup3\n  add\n  mstore\n  0x20\n  add\n  jump(tag_59)\ntag_61:\n  pop\n  pop\n  pop\n  pop\n  swap1\n  pop\n  swap1\n  dup2\n  add\n  swap1\n  0x1f\n  and\n  dup1\n  iszero\n  tag_62\n  jumpi\n  dup1\n  dup3\n  sub\n  dup1\n  mload\n  0x01\n  dup4\n  0x20\n  sub\n  0x0100\n  exp\n  sub\n  not\n  and\n  dup2\n  mstore\n  0x20\n  add\n  swap2\n  pop\ntag_62:\n  pop\n  swap3\n  pop\n  pop\n  pop\n  mload(0x40)\n  dup1\n  swap2\n  sub\n  swap1\n  revert\n    /* \"contracts/liquidityMining/KyberFairLaunch.sol\":1064:23424  contract KyberFairLaunch is IKyberFairLaunch, PermissionAdmin, ReentrancyGuard {\r... */\ntag_12:\n  dup3\n  dup1\n  sload\n  dup3\n  dup3\n  sstore\n  swap1\n  0x00\n  mstore\n  keccak256(0x00, 0x20)\n  swap1\n  dup2\n  add\n  swap3\n  dup3\n  iszero\n  tag_65\n  jumpi\n  swap2\n  0x20\n  mul\n  dup3\n  add\ntag_64:\n  dup3\n  dup2\n  gt\n  iszero\n  tag_65\n  jumpi\n  dup3\n  mload\n  dup3\n  sload\n  not(sub(shl(0xa0, 0x01), 0x01))\n  and\n  sub(shl(0xa0, 0x01), 0x01)\n  swap1\n  swap2\n  and\n  or\n  dup3\n  sstore\n  0x20\n  swap1\n  swap3\n  add\n  swap2\n  0x01\n  swap1\n  swap2\n  add\n  swap1\n  jump(tag_64)\ntag_65:\n  pop\n  tag_66\n  swap3\n  swap2\n  pop\n  tag_67\n  jump\t// in\ntag_66:\n  pop\n  swap1\n  jump\t// out\ntag_67:\ntag_68:\n  dup1\n  dup3\n  gt\n  iszero\n  tag_66\n  jumpi\n  0x00\n  dup2\n  sstore\n  0x01\n  add\n  jump(tag_68)\n    /* \"#utility.yul\":14:156   */\ntag_71:\n    /* \"#utility.yul\":95:108   */\n  dup1\n  mload\n    /* \"#utility.yul\":117:150   */\n  tag_53\n    /* \"#utility.yul\":95:108   */\n  dup2\n    /* \"#utility.yul\":117:150   */\n  tag_74\n  jump\t// in\n    /* \"#utility.yul\":161:1561   */\ntag_3:\n  0x00\n  dup1\n  0x00\n    /* \"#utility.yul\":370:372   */\n  0x60\n    /* \"#utility.yul\":358:367   */\n  dup5\n    /* \"#utility.yul\":349:356   */\n  dup7\n    /* \"#utility.yul\":345:368   */\n  sub\n    /* \"#utility.yul\":341:373   */\n  slt\n    /* \"#utility.yul\":338:340   */\n  iszero\n  tag_76\n  jumpi\n    /* \"#utility.yul\":391:397   */\n  dup3\n    /* \"#utility.yul\":383:389   */\n  dup4\n    /* \"#utility.yul\":376:398   */\n  revert\n    /* \"#utility.yul\":338:340   */\ntag_76:\n    /* \"#utility.yul\":428:437   */\n  dup4\n    /* \"#utility.yul\":422:438   */\n  mload\n    /* \"#utility.yul\":447:480   */\n  tag_77\n    /* \"#utility.yul\":474:479   */\n  dup2\n    /* \"#utility.yul\":447:480   */\n  tag_74\n  jump\t// in\ntag_77:\n    /* \"#utility.yul\":523:525   */\n  0x20\n    /* \"#utility.yul\":554:572   */\n  dup6\n  dup2\n  add\n    /* \"#utility.yul\":548:573   */\n  mload\n    /* \"#utility.yul\":499:504   */\n  swap2\n  swap5\n  pop\n    /* \"#utility.yul\":523:525   */\n  swap1\n  sub(shl(0x40, 0x01), 0x01)\n    /* \"#utility.yul\":622:636   */\n  dup1\n  dup3\n  gt\n    /* \"#utility.yul\":619:621   */\n  iszero\n  tag_78\n  jumpi\n    /* \"#utility.yul\":654:660   */\n  dup5\n    /* \"#utility.yul\":646:652   */\n  dup6\n    /* \"#utility.yul\":639:661   */\n  revert\n    /* \"#utility.yul\":619:621   */\ntag_78:\n    /* \"#utility.yul\":697:703   */\n  dup2\n    /* \"#utility.yul\":686:695   */\n  dup8\n    /* \"#utility.yul\":682:704   */\n  add\n    /* \"#utility.yul\":672:704   */\n  swap2\n  pop\n    /* \"#utility.yul\":742:749   */\n  dup8\n    /* \"#utility.yul\":735:739   */\n  0x1f\n    /* \"#utility.yul\":731:733   */\n  dup4\n    /* \"#utility.yul\":727:740   */\n  add\n    /* \"#utility.yul\":723:750   */\n  slt\n    /* \"#utility.yul\":713:715   */\n  tag_79\n  jumpi\n    /* \"#utility.yul\":769:775   */\n  dup5\n    /* \"#utility.yul\":761:767   */\n  dup6\n    /* \"#utility.yul\":754:776   */\n  revert\n    /* \"#utility.yul\":713:715   */\ntag_79:\n    /* \"#utility.yul\":803:805   */\n  dup2\n    /* \"#utility.yul\":797:806   */\n  mload\n    /* \"#utility.yul\":825:827   */\n  dup2\n    /* \"#utility.yul\":821:823   */\n  dup2\n    /* \"#utility.yul\":818:828   */\n  gt\n    /* \"#utility.yul\":815:817   */\n  iszero\n  tag_80\n  jumpi\n    /* \"#utility.yul\":831:840   */\n  invalid\n    /* \"#utility.yul\":815:817   */\ntag_80:\n    /* \"#utility.yul\":869:871   */\n  dup4\n    /* \"#utility.yul\":865:867   */\n  dup2\n    /* \"#utility.yul\":861:872   */\n  mul\n    /* \"#utility.yul\":901:903   */\n  0x40\n    /* \"#utility.yul\":895:904   */\n  mload\n    /* \"#utility.yul\":952:954   */\n  dup6\n    /* \"#utility.yul\":947:949   */\n  dup3\n    /* \"#utility.yul\":939:945   */\n  dup3\n    /* \"#utility.yul\":935:950   */\n  add\n    /* \"#utility.yul\":931:955   */\n  add\n    /* \"#utility.yul\":1005:1011   */\n  dup2\n    /* \"#utility.yul\":993:1003   */\n  dup2\n    /* \"#utility.yul\":990:1012   */\n  lt\n    /* \"#utility.yul\":985:987   */\n  dup6\n    /* \"#utility.yul\":973:983   */\n  dup3\n    /* \"#utility.yul\":970:988   */\n  gt\n    /* \"#utility.yul\":967:1013   */\n  or\n    /* \"#utility.yul\":964:966   */\n  iszero\n  tag_81\n  jumpi\n    /* \"#utility.yul\":1016:1025   */\n  invalid\n    /* \"#utility.yul\":964:966   */\ntag_81:\n    /* \"#utility.yul\":1043:1045   */\n  0x40\n    /* \"#utility.yul\":1036:1058   */\n  mstore\n    /* \"#utility.yul\":1093:1111   */\n  dup3\n  dup2\n  mstore\n    /* \"#utility.yul\":1127:1142   */\n  dup6\n  dup2\n  add\n  swap4\n  pop\n    /* \"#utility.yul\":1162:1173   */\n  dup5\n  dup7\n  add\n    /* \"#utility.yul\":1192:1203   */\n  dup3\n  dup7\n  add\n    /* \"#utility.yul\":1188:1208   */\n  dup8\n  add\n    /* \"#utility.yul\":1185:1218   */\n  dup13\n  lt\n    /* \"#utility.yul\":1182:1184   */\n  iszero\n  tag_82\n  jumpi\n    /* \"#utility.yul\":1236:1242   */\n  dup9\n    /* \"#utility.yul\":1228:1234   */\n  dup10\n    /* \"#utility.yul\":1221:1243   */\n  revert\n    /* \"#utility.yul\":1182:1184   */\ntag_82:\n    /* \"#utility.yul\":1263:1269   */\n  dup9\n    /* \"#utility.yul\":1254:1269   */\n  swap6\n  pop\n    /* \"#utility.yul\":1278:1460   */\ntag_83:\n    /* \"#utility.yul\":1292:1294   */\n  dup4\n    /* \"#utility.yul\":1289:1290   */\n  dup7\n    /* \"#utility.yul\":1286:1295   */\n  lt\n    /* \"#utility.yul\":1278:1460   */\n  iszero\n  tag_85\n  jumpi\n    /* \"#utility.yul\":1349:1385   */\n  tag_86\n    /* \"#utility.yul\":1381:1384   */\n  dup2\n    /* \"#utility.yul\":1349:1385   */\n  tag_71\n  jump\t// in\ntag_86:\n    /* \"#utility.yul\":1337:1386   */\n  dup6\n  mstore\n    /* \"#utility.yul\":1310:1311   */\n  0x01\n    /* \"#utility.yul\":1303:1312   */\n  swap6\n  swap1\n  swap6\n  add\n  swap5\n    /* \"#utility.yul\":1406:1418   */\n  swap4\n  dup7\n  add\n  swap4\n    /* \"#utility.yul\":1438:1450   */\n  dup7\n  add\n    /* \"#utility.yul\":1278:1460   */\n  jump(tag_83)\ntag_85:\n    /* \"#utility.yul\":1282:1285   */\n  pop\n    /* \"#utility.yul\":1479:1485   */\n  dup1\n    /* \"#utility.yul\":1469:1485   */\n  swap8\n  pop\n  pop\n  pop\n  pop\n  pop\n  pop\n  pop\n    /* \"#utility.yul\":1504:1555   */\n  tag_87\n    /* \"#utility.yul\":1551:1553   */\n  0x40\n    /* \"#utility.yul\":1540:1549   */\n  dup6\n    /* \"#utility.yul\":1536:1554   */\n  add\n    /* \"#utility.yul\":1504:1555   */\n  tag_71\n  jump\t// in\ntag_87:\n    /* \"#utility.yul\":1494:1555   */\n  swap1\n  pop\n    /* \"#utility.yul\":328:1561   */\n  swap3\n  pop\n  swap3\n  pop\n  swap3\n  jump\t// out\n    /* \"#utility.yul\":1566:1699   */\ntag_74:\n  sub(shl(0xa0, 0x01), 0x01)\n    /* \"#utility.yul\":1643:1674   */\n  dup2\n  and\n    /* \"#utility.yul\":1633:1675   */\n  dup2\n  eq\n    /* \"#utility.yul\":1623:1625   */\n  tag_89\n  jumpi\n    /* \"#utility.yul\":1689:1690   */\n  0x00\n    /* \"#utility.yul\":1686:1687   */\n  dup1\n    /* \"#utility.yul\":1679:1691   */\n  revert\n    /* \"#utility.yul\":1623:1625   */\ntag_89:\n    /* \"#utility.yul\":1613:1699   */\n  pop\n  jump\t// out\ntag_70:\n    /* \"contracts/liquidityMining/KyberFairLaunch.sol\":1064:23424  contract KyberFairLaunch is IKyberFairLaunch, PermissionAdmin, ReentrancyGuard {\r... */\n  shr(0x60, mload(0x80))\n  codecopy(0x00, dataOffset(sub_0), dataSize(sub_0))\n  assignImmutable(\"0x840fecb9bca2c4e63427c4b817f3137cd391e6a160600107c90b96ae83fdac7e\")\n  return(0x00, dataSize(sub_0))\nstop\ndata_565f1a77334fc4792800921178c71e4521acffab18ff9e7885b49377ee80ab4c 416464726573733a20696e73756666696369656e742062616c616e636520666f722063616c6c\ndata_e11ad79d1e4a7f2e5f376964cb99e8e8f7904e3fc16a109f7a7ecb9aa7956dcd 5361666545524332303a204552433230206f7065726174696f6e20646964206e6f742073756363656564\ndata_ef945ddb1bfdc0da870feb4560d868b047642b4ac7f2fb7f8b7c51cb4a411e25 5361666545524332303a20617070726f76652066726f6d206e6f6e2d7a65726f20746f206e6f6e2d7a65726f20616c6c6f77616e6365\n\nsub_0: assembly {\n        /* \"contracts/liquidityMining/KyberFairLaunch.sol\":1064:23424  contract KyberFairLaunch is IKyberFairLaunch, PermissionAdmin, ReentrancyGuard {\r... */\n      mstore(0x40, 0x80)\n      jumpi(tag_1, lt(calldatasize, 0x04))\n      shr(0xe0, calldataload(0x00))\n      dup1\n      0x77f50f97\n      gt\n      tag_27\n      jumpi\n      dup1\n      0xb43c6270\n      gt\n      tag_28\n      jumpi\n      dup1\n      0xb43c6270\n      eq\n      tag_21\n      jumpi\n      dup1\n      0xc4f59f9b\n      eq\n      tag_22\n      jumpi\n      dup1\n      0xd12e4ceb\n      eq\n      tag_23\n      jumpi\n      dup1\n      0xd18df53c\n      eq\n      tag_24\n      jumpi\n      dup1\n      0xddc63262\n      eq\n      tag_25\n      jumpi\n      dup1\n      0xf851a440\n      eq\n      tag_26\n      jumpi\n      jump(tag_2)\n    tag_28:\n      dup1\n      0x77f50f97\n      eq\n      tag_15\n      jumpi\n      dup1\n      0x7acc8678\n      eq\n      tag_16\n      jumpi\n      dup1\n      0x7bb7bed1\n      eq\n      tag_17\n      jumpi\n      dup1\n      0x958e2d31\n      eq\n      tag_18\n      jumpi\n      dup1\n      0xadb82b31\n      eq\n      tag_19\n      jumpi\n      dup1\n      0xaffb9fc8\n      eq\n      tag_20\n      jumpi\n      jump(tag_2)\n    tag_27:\n      dup1\n      0x3892601c\n      gt\n      tag_29\n      jumpi\n      dup1\n      0x3892601c\n      eq\n      tag_9\n      jumpi\n      dup1\n      0x43a0d066\n      eq\n      tag_10\n      jumpi\n      dup1\n      0x441a3e70\n      eq\n      tag_11\n      jumpi\n      dup1\n      0x52fd9f2f\n      eq\n      tag_12\n      jumpi\n      dup1\n      0x5312ea8e\n      eq\n      tag_13\n      jumpi\n      dup1\n      0x75829def\n      eq\n      tag_14\n      jumpi\n      jump(tag_2)\n    tag_29:\n      dup1\n      0x081e3eda\n      eq\n      tag_3\n      jumpi\n      dup1\n      0x1069f3b5\n      eq\n      tag_4\n      jumpi\n      dup1\n      0x1e1c6a07\n      eq\n      tag_5\n      jumpi\n      dup1\n      0x26782247\n      eq\n      tag_6\n      jumpi\n      dup1\n      0x2f380b35\n      eq\n      tag_7\n      jumpi\n      dup1\n      0x2fb40ce1\n      eq\n      tag_8\n      jumpi\n      jump(tag_2)\n    tag_1:\n      jumpi(tag_2, calldatasize)\n      stop\n    tag_2:\n      0x00\n      dup1\n      revert\n        /* \"contracts/liquidityMining/KyberFairLaunch.sol\":3529:3563  uint256 public override poolLength */\n    tag_3:\n      callvalue\n      dup1\n      iszero\n      tag_32\n      jumpi\n      0x00\n      dup1\n      revert\n    tag_32:\n      pop\n      tag_33\n      tag_34\n      jump\t// in\n    tag_33:\n      mload(0x40)\n      tag_35\n      swap2\n      swap1\n      tag_36\n      jump\t// in\n    tag_35:\n      mload(0x40)\n      dup1\n      swap2\n      sub\n      swap1\n      return\n        /* \"contracts/liquidityMining/KyberFairLaunch.sol\":17792:18514  function getUserInfo(uint256 _pid, address _account)\r... */\n    tag_4:\n      callvalue\n      dup1\n      iszero\n      tag_37\n      jumpi\n      0x00\n      dup1\n      revert\n    tag_37:\n      pop\n      tag_38\n      tag_39\n      calldatasize\n      0x04\n      tag_40\n      jump\t// in\n    tag_39:\n      tag_41\n      jump\t// in\n    tag_38:\n      mload(0x40)\n      tag_35\n      swap4\n      swap3\n      swap2\n      swap1\n      tag_43\n      jump\t// in\n        /* \"contracts/liquidityMining/KyberFairLaunch.sol\":3169:3211  mapping(address => bool) public poolExists */\n    tag_5:\n      callvalue\n      dup1\n      iszero\n      tag_44\n      jumpi\n      0x00\n      dup1\n      revert\n    tag_44:\n      pop\n      tag_45\n      tag_46\n      calldatasize\n      0x04\n      tag_47\n      jump\t// in\n    tag_46:\n      tag_48\n      jump\t// in\n    tag_45:\n      mload(0x40)\n      tag_35\n      swap2\n      swap1\n      tag_50\n      jump\t// in\n        /* \"contracts/manual/PermissionAdmin.sol\":127:154  address public pendingAdmin */\n    tag_6:\n      callvalue\n      dup1\n      iszero\n      tag_51\n      jumpi\n      0x00\n      dup1\n      revert\n    tag_51:\n      pop\n      tag_52\n      tag_53\n      jump\t// in\n    tag_52:\n      mload(0x40)\n      tag_35\n      swap2\n      swap1\n      tag_55\n      jump\t// in\n        /* \"contracts/liquidityMining/KyberFairLaunch.sol\":16659:17691  function getPoolInfo(uint256 _pid)\r... */\n    tag_7:\n      callvalue\n      dup1\n      iszero\n      tag_56\n      jumpi\n      0x00\n      dup1\n      revert\n    tag_56:\n      pop\n      tag_57\n      tag_58\n      calldatasize\n      0x04\n      tag_59\n      jump\t// in\n    tag_58:\n      tag_60\n      jump\t// in\n    tag_57:\n      mload(0x40)\n      tag_35\n      swap8\n      swap7\n      swap6\n      swap5\n      swap4\n      swap3\n      swap2\n      swap1\n      tag_62\n      jump\t// in\n        /* \"contracts/liquidityMining/KyberFairLaunch.sol\":6404:7634  function addPool(\r... */\n    tag_8:\n      callvalue\n      dup1\n      iszero\n      tag_63\n      jumpi\n      0x00\n      dup1\n      revert\n    tag_63:\n      pop\n      tag_64\n      tag_65\n      calldatasize\n      0x04\n      tag_66\n      jump\t// in\n    tag_65:\n      tag_67\n      jump\t// in\n    tag_64:\n      stop\n        /* \"contracts/liquidityMining/KyberFairLaunch.sol\":3254:3302  IKyberRewardLocker public immutable rewardLocker */\n    tag_9:\n      callvalue\n      dup1\n      iszero\n      tag_68\n      jumpi\n      0x00\n      dup1\n      revert\n    tag_68:\n      pop\n      tag_52\n      tag_70\n      jump\t// in\n        /* \"contracts/liquidityMining/KyberFairLaunch.sol\":10703:11524  function deposit(\r... */\n    tag_10:\n      callvalue\n      dup1\n      iszero\n      tag_73\n      jumpi\n      0x00\n      dup1\n      revert\n    tag_73:\n      pop\n      tag_64\n      tag_75\n      calldatasize\n      0x04\n      tag_76\n      jump\t// in\n    tag_75:\n      tag_77\n      jump\t// in\n        /* \"contracts/liquidityMining/KyberFairLaunch.sol\":11719:11874  function withdraw(uint256 _pid, uint256 _amount)\r... */\n    tag_11:\n      callvalue\n      dup1\n      iszero\n      tag_78\n      jumpi\n      0x00\n      dup1\n      revert\n    tag_78:\n      pop\n      tag_64\n      tag_80\n      calldatasize\n      0x04\n      tag_81\n      jump\t// in\n    tag_80:\n      tag_82\n      jump\t// in\n        /* \"contracts/liquidityMining/KyberFairLaunch.sol\":13318:14732  function harvestMultiplePools(uint256[] calldata _pids) external override {\r... */\n    tag_12:\n      callvalue\n      dup1\n      iszero\n      tag_83\n      jumpi\n      0x00\n      dup1\n      revert\n    tag_83:\n      pop\n      tag_64\n      tag_85\n      calldatasize\n      0x04\n      tag_86\n      jump\t// in\n    tag_85:\n      tag_87\n      jump\t// in\n        /* \"contracts/liquidityMining/KyberFairLaunch.sol\":12410:13152  function emergencyWithdraw(uint256 _pid) external override nonReentrant {\r... */\n    tag_13:\n      callvalue\n      dup1\n      iszero\n      tag_88\n      jumpi\n      0x00\n      dup1\n      revert\n    tag_88:\n      pop\n      tag_64\n      tag_90\n      calldatasize\n      0x04\n      tag_59\n      jump\t// in\n    tag_90:\n      tag_91\n      jump\t// in\n        /* \"contracts/manual/PermissionAdmin.sol\":661:864  function transferAdmin(address newAdmin) public onlyAdmin {\r... */\n    tag_14:\n      callvalue\n      dup1\n      iszero\n      tag_92\n      jumpi\n      0x00\n      dup1\n      revert\n    tag_92:\n      pop\n      tag_64\n      tag_94\n      calldatasize\n      0x04\n      tag_47\n      jump\t// in\n    tag_94:\n      tag_95\n      jump\t// in\n        /* \"contracts/manual/PermissionAdmin.sol\":1398:1612  function claimAdmin() public {\r... */\n    tag_15:\n      callvalue\n      dup1\n      iszero\n      tag_96\n      jumpi\n      0x00\n      dup1\n      revert\n    tag_96:\n      pop\n      tag_64\n      tag_98\n      jump\t// in\n        /* \"contracts/manual/PermissionAdmin.sol\":1045:1289  function transferAdminQuickly(address newAdmin) public onlyAdmin {\r... */\n    tag_16:\n      callvalue\n      dup1\n      iszero\n      tag_99\n      jumpi\n      0x00\n      dup1\n      revert\n    tag_99:\n      pop\n      tag_64\n      tag_101\n      calldatasize\n      0x04\n      tag_47\n      jump\t// in\n    tag_101:\n      tag_102\n      jump\t// in\n        /* \"contracts/liquidityMining/KyberFairLaunch.sol\":3464:3493  address[] public rewardTokens */\n    tag_17:\n      callvalue\n      dup1\n      iszero\n      tag_103\n      jumpi\n      0x00\n      dup1\n      revert\n    tag_103:\n      pop\n      tag_52\n      tag_105\n      calldatasize\n      0x04\n      tag_59\n      jump\t// in\n    tag_105:\n      tag_106\n      jump\t// in\n        /* \"contracts/liquidityMining/KyberFairLaunch.sol\":12016:12151  function withdrawAll(uint256 _pid) external override nonReentrant {\r... */\n    tag_18:\n      callvalue\n      dup1\n      iszero\n      tag_108\n      jumpi\n      0x00\n      dup1\n      revert\n    tag_108:\n      pop\n      tag_64\n      tag_110\n      calldatasize\n      0x04\n      tag_59\n      jump\t// in\n    tag_110:\n      tag_111\n      jump\t// in\n        /* \"contracts/liquidityMining/KyberFairLaunch.sol\":18840:19808  function updatePoolRewards(uint256 _pid) public override {\r... */\n    tag_19:\n      callvalue\n      dup1\n      iszero\n      tag_112\n      jumpi\n      0x00\n      dup1\n      revert\n    tag_112:\n      pop\n      tag_64\n      tag_114\n      calldatasize\n      0x04\n      tag_59\n      jump\t// in\n    tag_114:\n      tag_115\n      jump\t// in\n        /* \"contracts/liquidityMining/KyberFairLaunch.sol\":9560:10462  function updatePool(\r... */\n    tag_20:\n      callvalue\n      dup1\n      iszero\n      tag_116\n      jumpi\n      0x00\n      dup1\n      revert\n    tag_116:\n      pop\n      tag_64\n      tag_118\n      calldatasize\n      0x04\n      tag_119\n      jump\t// in\n    tag_118:\n      tag_120\n      jump\t// in\n        /* \"contracts/liquidityMining/KyberFairLaunch.sol\":8082:9221  function renewPool(\r... */\n    tag_21:\n      callvalue\n      dup1\n      iszero\n      tag_121\n      jumpi\n      0x00\n      dup1\n      revert\n    tag_121:\n      pop\n      tag_64\n      tag_123\n      calldatasize\n      0x04\n      tag_124\n      jump\t// in\n    tag_123:\n      tag_125\n      jump\t// in\n        /* \"contracts/liquidityMining/KyberFairLaunch.sol\":16434:16590  function getRewardTokens()\r... */\n    tag_22:\n      callvalue\n      dup1\n      iszero\n      tag_126\n      jumpi\n      0x00\n      dup1\n      revert\n    tag_126:\n      pop\n      tag_127\n      tag_128\n      jump\t// in\n    tag_127:\n      mload(0x40)\n      tag_35\n      swap2\n      swap1\n      tag_130\n      jump\t// in\n        /* \"contracts/liquidityMining/KyberFairLaunch.sol\":5580:6034  function adminWithdraw(uint256 rewardTokenIndex, uint256 amount)\r... */\n    tag_23:\n      callvalue\n      dup1\n      iszero\n      tag_131\n      jumpi\n      0x00\n      dup1\n      revert\n    tag_131:\n      pop\n      tag_64\n      tag_133\n      calldatasize\n      0x04\n      tag_81\n      jump\t// in\n    tag_133:\n      tag_134\n      jump\t// in\n        /* \"contracts/liquidityMining/KyberFairLaunch.sol\":14927:16369  function pendingRewards(uint256 _pid, address _user)\r... */\n    tag_24:\n      callvalue\n      dup1\n      iszero\n      tag_135\n      jumpi\n      0x00\n      dup1\n      revert\n    tag_135:\n      pop\n      tag_136\n      tag_137\n      calldatasize\n      0x04\n      tag_40\n      jump\t// in\n    tag_137:\n      tag_138\n      jump\t// in\n    tag_136:\n      mload(0x40)\n      tag_35\n      swap2\n      swap1\n      tag_140\n      jump\t// in\n        /* \"contracts/liquidityMining/KyberFairLaunch.sol\":18632:18773  function harvest(uint256 _pid) public override {\r... */\n    tag_25:\n      callvalue\n      dup1\n      iszero\n      tag_141\n      jumpi\n      0x00\n      dup1\n      revert\n    tag_141:\n      pop\n      tag_64\n      tag_143\n      calldatasize\n      0x04\n      tag_59\n      jump\t// in\n    tag_143:\n      tag_144\n      jump\t// in\n        /* \"contracts/manual/PermissionAdmin.sol\":100:120  address public admin */\n    tag_26:\n      callvalue\n      dup1\n      iszero\n      tag_145\n      jumpi\n      0x00\n      dup1\n      revert\n    tag_145:\n      pop\n      tag_52\n      tag_147\n      jump\t// in\n        /* \"contracts/liquidityMining/KyberFairLaunch.sol\":3529:3563  uint256 public override poolLength */\n    tag_34:\n      sload(0x05)\n      dup2\n      jump\t// out\n        /* \"contracts/liquidityMining/KyberFairLaunch.sol\":17792:18514  function getUserInfo(uint256 _pid, address _account)\r... */\n    tag_41:\n        /* \"contracts/liquidityMining/KyberFairLaunch.sol\":17927:17941  uint256 amount */\n      0x00\n        /* \"contracts/liquidityMining/KyberFairLaunch.sol\":18092:18106  userInfo[_pid] */\n      dup3\n      dup2\n      mstore\n        /* \"contracts/liquidityMining/KyberFairLaunch.sol\":18092:18100  userInfo */\n      0x07\n        /* \"contracts/liquidityMining/KyberFairLaunch.sol\":18092:18106  userInfo[_pid] */\n      0x20\n      swap1\n      dup2\n      mstore\n      0x40\n      dup1\n      dup4\n      keccak256\n      sub(shl(0xa0, 0x01), 0x01)\n        /* \"contracts/liquidityMining/KyberFairLaunch.sol\":18092:18116  userInfo[_pid][_account] */\n      dup6\n      and\n      dup5\n      mstore\n      swap1\n      swap2\n      mstore\n      swap1\n      keccak256\n        /* \"contracts/liquidityMining/KyberFairLaunch.sol\":18136:18147  user.amount */\n      dup1\n      sload\n        /* \"contracts/liquidityMining/KyberFairLaunch.sol\":18191:18203  rewardTokens */\n      0x04\n        /* \"contracts/liquidityMining/KyberFairLaunch.sol\":18191:18210  rewardTokens.length */\n      sload\n        /* \"contracts/liquidityMining/KyberFairLaunch.sol\":18136:18147  user.amount */\n      swap1\n      swap2\n        /* \"contracts/liquidityMining/KyberFairLaunch.sol\":17956:17989  uint256[] memory unclaimedRewards */\n      0x60\n      swap2\n      dup3\n      swap2\n        /* \"contracts/liquidityMining/KyberFairLaunch.sol\":18092:18116  userInfo[_pid][_account] */\n      swap1\n        /* \"contracts/liquidityMining/KyberFairLaunch.sol\":18177:18211  new uint256[](rewardTokens.length) */\n      0xffffffffffffffff\n      dup2\n      gt\n      dup1\n      iszero\n      tag_152\n      jumpi\n      0x00\n      dup1\n      revert\n    tag_152:\n      pop\n      mload(0x40)\n      swap1\n      dup1\n      dup3\n      mstore\n      dup1\n      0x20\n      mul\n      0x20\n      add\n      dup3\n      add\n      0x40\n      mstore\n      dup1\n      iszero\n      tag_153\n      jumpi\n      dup2\n      0x20\n      add\n      0x20\n      dup3\n      mul\n      dup1\n      calldatasize\n      dup4\n      calldatacopy\n      add\n      swap1\n      pop\n    tag_153:\n      pop\n        /* \"contracts/liquidityMining/KyberFairLaunch.sol\":18258:18270  rewardTokens */\n      0x04\n        /* \"contracts/liquidityMining/KyberFairLaunch.sol\":18258:18277  rewardTokens.length */\n      sload\n        /* \"contracts/liquidityMining/KyberFairLaunch.sol\":18158:18211  unclaimedRewards = new uint256[](rewardTokens.length) */\n      swap1\n      swap4\n      pop\n        /* \"contracts/liquidityMining/KyberFairLaunch.sol\":18244:18278  new uint256[](rewardTokens.length) */\n      0xffffffffffffffff\n      dup2\n      gt\n      dup1\n      iszero\n      tag_154\n      jumpi\n      0x00\n      dup1\n      revert\n    tag_154:\n      pop\n      mload(0x40)\n      swap1\n      dup1\n      dup3\n      mstore\n      dup1\n      0x20\n      mul\n      0x20\n      add\n      dup3\n      add\n      0x40\n      mstore\n      dup1\n      iszero\n      tag_155\n      jumpi\n      dup2\n      0x20\n      add\n      0x20\n      dup3\n      mul\n      dup1\n      calldatasize\n      dup4\n      calldatacopy\n      add\n      swap1\n      pop\n    tag_155:\n      pop\n        /* \"contracts/liquidityMining/KyberFairLaunch.sol\":18222:18278  lastRewardPerShares = new uint256[](rewardTokens.length) */\n      swap2\n      pop\n        /* \"contracts/liquidityMining/KyberFairLaunch.sol\":18294:18303  uint256 i */\n      0x00\n        /* \"contracts/liquidityMining/KyberFairLaunch.sol\":18289:18507  for (uint256 i = 0; i < rewardTokens.length; i++) {\r... */\n    tag_156:\n        /* \"contracts/liquidityMining/KyberFairLaunch.sol\":18313:18325  rewardTokens */\n      0x04\n        /* \"contracts/liquidityMining/KyberFairLaunch.sol\":18313:18332  rewardTokens.length */\n      sload\n        /* \"contracts/liquidityMining/KyberFairLaunch.sol\":18309:18332  i < rewardTokens.length */\n      dup2\n      lt\n        /* \"contracts/liquidityMining/KyberFairLaunch.sol\":18289:18507  for (uint256 i = 0; i < rewardTokens.length; i++) {\r... */\n      iszero\n      tag_157\n      jumpi\n        /* \"contracts/liquidityMining/KyberFairLaunch.sol\":18376:18398  user.userRewardData[i] */\n      0x00\n      dup2\n      dup2\n      mstore\n        /* \"contracts/liquidityMining/KyberFairLaunch.sol\":18376:18395  user.userRewardData */\n      0x01\n      dup4\n      add\n        /* \"contracts/liquidityMining/KyberFairLaunch.sol\":18376:18398  user.userRewardData[i] */\n      0x20\n      mstore\n      0x40\n      swap1\n      keccak256\n        /* \"contracts/liquidityMining/KyberFairLaunch.sol\":18376:18414  user.userRewardData[i].unclaimedReward */\n      sload\n        /* \"contracts/liquidityMining/KyberFairLaunch.sol\":18354:18373  unclaimedRewards[i] */\n      dup5\n      mload\n        /* \"contracts/liquidityMining/KyberFairLaunch.sol\":18354:18370  unclaimedRewards */\n      dup6\n      swap1\n        /* \"contracts/liquidityMining/KyberFairLaunch.sol\":18396:18397  i */\n      dup4\n      swap1\n        /* \"contracts/liquidityMining/KyberFairLaunch.sol\":18354:18373  unclaimedRewards[i] */\n      dup2\n      lt\n      tag_159\n      jumpi\n      invalid\n    tag_159:\n      0x20\n      mul\n      0x20\n      add\n      add\n        /* \"contracts/liquidityMining/KyberFairLaunch.sol\":18354:18414  unclaimedRewards[i] = user.userRewardData[i].unclaimedReward */\n      dup2\n      dup2\n      mstore\n      pop\n      pop\n        /* \"contracts/liquidityMining/KyberFairLaunch.sol\":18454:18458  user */\n      dup2\n        /* \"contracts/liquidityMining/KyberFairLaunch.sol\":18454:18473  user.userRewardData */\n      0x01\n      add\n        /* \"contracts/liquidityMining/KyberFairLaunch.sol\":18454:18476  user.userRewardData[i] */\n      0x00\n        /* \"contracts/liquidityMining/KyberFairLaunch.sol\":18474:18475  i */\n      dup3\n        /* \"contracts/liquidityMining/KyberFairLaunch.sol\":18454:18476  user.userRewardData[i] */\n      dup2\n      mstore\n      0x20\n      add\n      swap1\n      dup2\n      mstore\n      0x20\n      add\n      0x00\n      keccak256\n        /* \"contracts/liquidityMining/KyberFairLaunch.sol\":18454:18495  user.userRewardData[i].lastRewardPerShare */\n      0x01\n      add\n      sload\n        /* \"contracts/liquidityMining/KyberFairLaunch.sol\":18429:18448  lastRewardPerShares */\n      dup4\n        /* \"contracts/liquidityMining/KyberFairLaunch.sol\":18449:18450  i */\n      dup3\n        /* \"contracts/liquidityMining/KyberFairLaunch.sol\":18429:18451  lastRewardPerShares[i] */\n      dup2\n      mload\n      dup2\n      lt\n      tag_160\n      jumpi\n      invalid\n    tag_160:\n      0x20\n      swap1\n      dup2\n      mul\n      swap2\n      swap1\n      swap2\n      add\n      add\n        /* \"contracts/liquidityMining/KyberFairLaunch.sol\":18429:18495  lastRewardPerShares[i] = user.userRewardData[i].lastRewardPerShare */\n      mstore\n        /* \"contracts/liquidityMining/KyberFairLaunch.sol\":18334:18337  i++ */\n      0x01\n      add\n        /* \"contracts/liquidityMining/KyberFairLaunch.sol\":18289:18507  for (uint256 i = 0; i < rewardTokens.length; i++) {\r... */\n      jump(tag_156)\n    tag_157:\n      pop\n        /* \"contracts/liquidityMining/KyberFairLaunch.sol\":17792:18514  function getUserInfo(uint256 _pid, address _account)\r... */\n      pop\n      swap3\n      pop\n      swap3\n      pop\n      swap3\n      jump\t// out\n        /* \"contracts/liquidityMining/KyberFairLaunch.sol\":3169:3211  mapping(address => bool) public poolExists */\n    tag_48:\n      mstore(0x20, 0x03)\n      0x00\n      swap1\n      dup2\n      mstore\n      0x40\n      swap1\n      keccak256\n      sload\n      0xff\n      and\n      dup2\n      jump\t// out\n        /* \"contracts/manual/PermissionAdmin.sol\":127:154  address public pendingAdmin */\n    tag_53:\n      and(sub(shl(0xa0, 0x01), 0x01), sload(0x01))\n      dup2\n      jump\t// out\n        /* \"contracts/liquidityMining/KyberFairLaunch.sol\":16659:17691  function getPoolInfo(uint256 _pid)\r... */\n    tag_60:\n        /* \"contracts/liquidityMining/KyberFairLaunch.sol\":16776:16794  uint256 totalStake */\n      0x00\n        /* \"contracts/liquidityMining/KyberFairLaunch.sol\":17075:17089  poolInfo[_pid] */\n      dup2\n      dup2\n      mstore\n        /* \"contracts/liquidityMining/KyberFairLaunch.sol\":17075:17083  poolInfo */\n      0x06\n        /* \"contracts/liquidityMining/KyberFairLaunch.sol\":17075:17089  poolInfo[_pid] */\n      0x20\n      mstore\n      0x40\n      swap1\n      keccak256\n        /* \"contracts/liquidityMining/KyberFairLaunch.sol\":17181:17196  pool.totalStake */\n      dup1\n      sload\n        /* \"contracts/liquidityMining/KyberFairLaunch.sol\":17211:17226  pool.stakeToken */\n      0x01\n      dup3\n      add\n      sload\n        /* \"contracts/liquidityMining/KyberFairLaunch.sol\":17373:17385  rewardTokens */\n      0x04\n        /* \"contracts/liquidityMining/KyberFairLaunch.sol\":17373:17392  rewardTokens.length */\n      sload\n        /* \"contracts/liquidityMining/KyberFairLaunch.sol\":17181:17196  pool.totalStake */\n      swap2\n      swap3\n      sub(shl(0xa0, 0x01), 0x01)\n        /* \"contracts/liquidityMining/KyberFairLaunch.sol\":17211:17226  pool.stakeToken */\n      dup3\n      and\n      swap3\n        /* \"contracts/liquidityMining/KyberFairLaunch.sol\":17241:17256  pool.startBlock */\n      0xffffffff\n      shl(0xa0, 0x01)\n      dup5\n      div\n      dup2\n      and\n      swap4\n      shl(0xc0, 0x01)\n        /* \"contracts/liquidityMining/KyberFairLaunch.sol\":17271:17284  pool.endBlock */\n      dup2\n      div\n      dup3\n      and\n      swap4\n      shl(0xe0, 0x01)\n        /* \"contracts/liquidityMining/KyberFairLaunch.sol\":17299:17319  pool.lastRewardBlock */\n      swap1\n      swap2\n      div\n      swap1\n      swap2\n      and\n      swap2\n        /* \"contracts/liquidityMining/KyberFairLaunch.sol\":16941:16973  uint256[] memory rewardPerBlocks */\n      0x60\n      swap2\n      dup3\n      swap2\n        /* \"contracts/liquidityMining/KyberFairLaunch.sol\":17359:17393  new uint256[](rewardTokens.length) */\n      0xffffffffffffffff\n      dup2\n      gt\n      dup1\n      iszero\n      tag_162\n      jumpi\n      0x00\n      dup1\n      revert\n    tag_162:\n      pop\n      mload(0x40)\n      swap1\n      dup1\n      dup3\n      mstore\n      dup1\n      0x20\n      mul\n      0x20\n      add\n      dup3\n      add\n      0x40\n      mstore\n      dup1\n      iszero\n      tag_163\n      jumpi\n      dup2\n      0x20\n      add\n      0x20\n      dup3\n      mul\n      dup1\n      calldatasize\n      dup4\n      calldatacopy\n      add\n      swap1\n      pop\n    tag_163:\n      pop\n        /* \"contracts/liquidityMining/KyberFairLaunch.sol\":17439:17451  rewardTokens */\n      0x04\n        /* \"contracts/liquidityMining/KyberFairLaunch.sol\":17439:17458  rewardTokens.length */\n      sload\n        /* \"contracts/liquidityMining/KyberFairLaunch.sol\":17341:17393  rewardPerBlocks = new uint256[](rewardTokens.length) */\n      swap1\n      swap4\n      pop\n        /* \"contracts/liquidityMining/KyberFairLaunch.sol\":17425:17459  new uint256[](rewardTokens.length) */\n      0xffffffffffffffff\n      dup2\n      gt\n      dup1\n      iszero\n      tag_164\n      jumpi\n      0x00\n      dup1\n      revert\n    tag_164:\n      pop\n      mload(0x40)\n      swap1\n      dup1\n      dup3\n      mstore\n      dup1\n      0x20\n      mul\n      0x20\n      add\n      dup3\n      add\n      0x40\n      mstore\n      dup1\n      iszero\n      tag_165\n      jumpi\n      dup2\n      0x20\n      add\n      0x20\n      dup3\n      mul\n      dup1\n      calldatasize\n      dup4\n      calldatacopy\n      add\n      swap1\n      pop\n    tag_165:\n      pop\n        /* \"contracts/liquidityMining/KyberFairLaunch.sol\":17404:17459  accRewardPerShares = new uint256[](rewardTokens.length) */\n      swap2\n      pop\n        /* \"contracts/liquidityMining/KyberFairLaunch.sol\":17475:17484  uint256 i */\n      0x00\n        /* \"contracts/liquidityMining/KyberFairLaunch.sol\":17470:17684  for (uint256 i = 0; i < rewardTokens.length; i++) {\r... */\n    tag_166:\n        /* \"contracts/liquidityMining/KyberFairLaunch.sol\":17494:17506  rewardTokens */\n      0x04\n        /* \"contracts/liquidityMining/KyberFairLaunch.sol\":17494:17513  rewardTokens.length */\n      sload\n        /* \"contracts/liquidityMining/KyberFairLaunch.sol\":17490:17513  i < rewardTokens.length */\n      dup2\n      lt\n        /* \"contracts/liquidityMining/KyberFairLaunch.sol\":17470:17684  for (uint256 i = 0; i < rewardTokens.length; i++) {\r... */\n      iszero\n      tag_167\n      jumpi\n        /* \"contracts/liquidityMining/KyberFairLaunch.sol\":17556:17578  pool.poolRewardData[i] */\n      0x00\n      dup2\n      dup2\n      mstore\n        /* \"contracts/liquidityMining/KyberFairLaunch.sol\":17556:17575  pool.poolRewardData */\n      0x02\n      dup4\n      add\n        /* \"contracts/liquidityMining/KyberFairLaunch.sol\":17556:17578  pool.poolRewardData[i] */\n      0x20\n      mstore\n      0x40\n      swap1\n      keccak256\n        /* \"contracts/liquidityMining/KyberFairLaunch.sol\":17556:17593  pool.poolRewardData[i].rewardPerBlock */\n      sload\n        /* \"contracts/liquidityMining/KyberFairLaunch.sol\":17535:17553  rewardPerBlocks[i] */\n      dup5\n      mload\n        /* \"contracts/liquidityMining/KyberFairLaunch.sol\":17535:17550  rewardPerBlocks */\n      dup6\n      swap1\n        /* \"contracts/liquidityMining/KyberFairLaunch.sol\":17576:17577  i */\n      dup4\n      swap1\n        /* \"contracts/liquidityMining/KyberFairLaunch.sol\":17535:17553  rewardPerBlocks[i] */\n      dup2\n      lt\n      tag_169\n      jumpi\n      invalid\n    tag_169:\n      0x20\n      mul\n      0x20\n      add\n      add\n        /* \"contracts/liquidityMining/KyberFairLaunch.sol\":17535:17593  rewardPerBlocks[i] = pool.poolRewardData[i].rewardPerBlock */\n      dup2\n      dup2\n      mstore\n      pop\n      pop\n        /* \"contracts/liquidityMining/KyberFairLaunch.sol\":17632:17636  pool */\n      dup2\n        /* \"contracts/liquidityMining/KyberFairLaunch.sol\":17632:17651  pool.poolRewardData */\n      0x02\n      add\n        /* \"contracts/liquidityMining/KyberFairLaunch.sol\":17632:17654  pool.poolRewardData[i] */\n      0x00\n        /* \"contracts/liquidityMining/KyberFairLaunch.sol\":17652:17653  i */\n      dup3\n        /* \"contracts/liquidityMining/KyberFairLaunch.sol\":17632:17654  pool.poolRewardData[i] */\n      dup2\n      mstore\n      0x20\n      add\n      swap1\n      dup2\n      mstore\n      0x20\n      add\n      0x00\n      keccak256\n        /* \"contracts/liquidityMining/KyberFairLaunch.sol\":17632:17672  pool.poolRewardData[i].accRewardPerShare */\n      0x01\n      add\n      sload\n        /* \"contracts/liquidityMining/KyberFairLaunch.sol\":17608:17626  accRewardPerShares */\n      dup4\n        /* \"contracts/liquidityMining/KyberFairLaunch.sol\":17627:17628  i */\n      dup3\n        /* \"contracts/liquidityMining/KyberFairLaunch.sol\":17608:17629  accRewardPerShares[i] */\n      dup2\n      mload\n      dup2\n      lt\n      tag_170\n      jumpi\n      invalid\n    tag_170:\n      0x20\n      swap1\n      dup2\n      mul\n      swap2\n      swap1\n      swap2\n      add\n      add\n        /* \"contracts/liquidityMining/KyberFairLaunch.sol\":17608:17672  accRewardPerShares[i] = pool.poolRewardData[i].accRewardPerShare */\n      mstore\n        /* \"contracts/liquidityMining/KyberFairLaunch.sol\":17515:17518  i++ */\n      0x01\n      add\n        /* \"contracts/liquidityMining/KyberFairLaunch.sol\":17470:17684  for (uint256 i = 0; i < rewardTokens.length; i++) {\r... */\n      jump(tag_166)\n    tag_167:\n      pop\n        /* \"contracts/liquidityMining/KyberFairLaunch.sol\":16659:17691  function getPoolInfo(uint256 _pid)\r... */\n      pop\n      swap2\n      swap4\n      swap6\n      swap8\n      swap1\n      swap3\n      swap5\n      swap7\n      pop\n      jump\t// out\n        /* \"contracts/liquidityMining/KyberFairLaunch.sol\":6404:7634  function addPool(\r... */\n    tag_67:\n        /* \"contracts/manual/PermissionAdmin.sol\":462:467  admin */\n      and(sub(shl(0xa0, 0x01), 0x01), sload(0x00))\n        /* \"contracts/manual/PermissionAdmin.sol\":448:458  msg.sender */\n      caller\n        /* \"contracts/manual/PermissionAdmin.sol\":448:467  msg.sender == admin */\n      eq\n        /* \"contracts/manual/PermissionAdmin.sol\":440:482  require(msg.sender == admin, \"only admin\") */\n      tag_172\n      jumpi\n      0x40\n      dup1\n      mload\n      shl(0xe5, 0x461bcd)\n      dup2\n      mstore\n      0x20\n      0x04\n      dup3\n      add\n      mstore\n      0x0a\n      0x24\n      dup3\n      add\n      mstore\n      shl(0xb1, 0x37b7363c9030b236b4b7)\n      0x44\n      dup3\n      add\n      mstore\n      swap1\n      mload\n      swap1\n      dup2\n      swap1\n      sub\n      0x64\n      add\n      swap1\n      revert\n    tag_172:\n      sub(shl(0xa0, 0x01), 0x01)\n        /* \"contracts/liquidityMining/KyberFairLaunch.sol\":6608:6631  poolExists[_stakeToken] */\n      dup6\n      and\n      0x00\n      swap1\n      dup2\n      mstore\n        /* \"contracts/liquidityMining/KyberFairLaunch.sol\":6608:6618  poolExists */\n      0x03\n        /* \"contracts/liquidityMining/KyberFairLaunch.sol\":6608:6631  poolExists[_stakeToken] */\n      0x20\n      mstore\n      0x40\n      swap1\n      keccak256\n      sload\n      0xff\n      and\n        /* \"contracts/liquidityMining/KyberFairLaunch.sol\":6607:6631  !poolExists[_stakeToken] */\n      iszero\n        /* \"contracts/liquidityMining/KyberFairLaunch.sol\":6599:6656  require(!poolExists[_stakeToken], \"add: duplicated pool\") */\n      tag_174\n      jumpi\n      mload(0x40)\n      shl(0xe5, 0x461bcd)\n      dup2\n      mstore\n      0x04\n      add\n      tag_175\n      swap1\n      tag_176\n      jump\t// in\n    tag_175:\n      mload(0x40)\n      dup1\n      swap2\n      sub\n      swap1\n      revert\n    tag_174:\n      sub(shl(0xa0, 0x01), 0x01)\n        /* \"contracts/liquidityMining/KyberFairLaunch.sol\":6675:6700  _stakeToken != address(0) */\n      dup6\n      and\n        /* \"contracts/liquidityMining/KyberFairLaunch.sol\":6667:6729  require(_stakeToken != address(0), \"add: invalid stake token\") */\n      tag_177\n      jumpi\n      mload(0x40)\n      shl(0xe5, 0x461bcd)\n      dup2\n      mstore\n      0x04\n      add\n      tag_175\n      swap1\n      tag_179\n      jump\t// in\n    tag_177:\n        /* \"contracts/liquidityMining/KyberFairLaunch.sol\":6762:6774  rewardTokens */\n      0x04\n        /* \"contracts/liquidityMining/KyberFairLaunch.sol\":6762:6781  rewardTokens.length */\n      sload\n        /* \"contracts/liquidityMining/KyberFairLaunch.sol\":6762:6808  rewardTokens.length == _rewardPerBlocks.length */\n      dup2\n      eq\n        /* \"contracts/liquidityMining/KyberFairLaunch.sol\":6740:6855  require(\r... */\n      tag_180\n      jumpi\n      mload(0x40)\n      shl(0xe5, 0x461bcd)\n      dup2\n      mstore\n      0x04\n      add\n      tag_175\n      swap1\n      tag_182\n      jump\t// in\n    tag_180:\n        /* \"contracts/liquidityMining/KyberFairLaunch.sol\":6904:6916  block.number */\n      number\n        /* \"contracts/liquidityMining/KyberFairLaunch.sol\":6890:6901  _startBlock */\n      dup5\n        /* \"contracts/liquidityMining/KyberFairLaunch.sol\":6890:6916  _startBlock > block.number */\n      0xffffffff\n      and\n      gt\n        /* \"contracts/liquidityMining/KyberFairLaunch.sol\":6890:6943  _startBlock > block.number && _endBlock > _startBlock */\n      dup1\n      iszero\n      tag_183\n      jumpi\n      pop\n        /* \"contracts/liquidityMining/KyberFairLaunch.sol\":6932:6943  _startBlock */\n      dup4\n        /* \"contracts/liquidityMining/KyberFairLaunch.sol\":6920:6943  _endBlock > _startBlock */\n      0xffffffff\n      and\n        /* \"contracts/liquidityMining/KyberFairLaunch.sol\":6920:6929  _endBlock */\n      dup4\n        /* \"contracts/liquidityMining/KyberFairLaunch.sol\":6920:6943  _endBlock > _startBlock */\n      0xffffffff\n      and\n      gt\n        /* \"contracts/liquidityMining/KyberFairLaunch.sol\":6890:6943  _startBlock > block.number && _endBlock > _startBlock */\n    tag_183:\n        /* \"contracts/liquidityMining/KyberFairLaunch.sol\":6868:6990  require(\r... */\n      tag_184\n      jumpi\n      mload(0x40)\n      shl(0xe5, 0x461bcd)\n      dup2\n      mstore\n      0x04\n      add\n      tag_175\n      swap1\n      tag_186\n      jump\t// in\n    tag_184:\n        /* \"contracts/liquidityMining/KyberFairLaunch.sol\":7012:7022  poolLength */\n      0x05\n      dup1\n      sload\n        /* \"contracts/liquidityMining/KyberFairLaunch.sol\":7003:7023  poolInfo[poolLength] */\n      0x00\n      swap1\n      dup2\n      mstore\n        /* \"contracts/liquidityMining/KyberFairLaunch.sol\":7003:7011  poolInfo */\n      0x06\n        /* \"contracts/liquidityMining/KyberFairLaunch.sol\":7003:7023  poolInfo[poolLength] */\n      0x20\n      mstore\n      0x40\n      dup1\n      dup3\n      keccak256\n        /* \"contracts/liquidityMining/KyberFairLaunch.sol\":7003:7034  poolInfo[poolLength].stakeToken */\n      0x01\n      swap1\n      dup2\n      add\n        /* \"contracts/liquidityMining/KyberFairLaunch.sol\":7003:7048  poolInfo[poolLength].stakeToken = _stakeToken */\n      dup1\n      sload\n      not(sub(shl(0xa0, 0x01), 0x01))\n      and\n      sub(shl(0xa0, 0x01), 0x01)\n      dup12\n      and\n      or\n      swap1\n      sstore\n        /* \"contracts/liquidityMining/KyberFairLaunch.sol\":7068:7078  poolLength */\n      dup4\n      sload\n        /* \"contracts/liquidityMining/KyberFairLaunch.sol\":7059:7079  poolInfo[poolLength] */\n      dup4\n      mstore\n      dup2\n      dup4\n      keccak256\n        /* \"contracts/liquidityMining/KyberFairLaunch.sol\":7059:7090  poolInfo[poolLength].startBlock */\n      dup2\n      add\n        /* \"contracts/liquidityMining/KyberFairLaunch.sol\":7059:7104  poolInfo[poolLength].startBlock = _startBlock */\n      dup1\n      sload\n      not(shl(0xa0, 0xffffffff))\n      and\n      shl(0xa0, 0x01)\n      0xffffffff\n      dup12\n      dup2\n      and\n      swap2\n      dup3\n      mul\n      swap3\n      swap1\n      swap3\n      or\n      swap1\n      swap3\n      sstore\n        /* \"contracts/liquidityMining/KyberFairLaunch.sol\":7124:7134  poolLength */\n      dup6\n      sload\n        /* \"contracts/liquidityMining/KyberFairLaunch.sol\":7115:7135  poolInfo[poolLength] */\n      dup6\n      mstore\n      dup4\n      dup6\n      keccak256\n        /* \"contracts/liquidityMining/KyberFairLaunch.sol\":7115:7144  poolInfo[poolLength].endBlock */\n      dup4\n      add\n        /* \"contracts/liquidityMining/KyberFairLaunch.sol\":7115:7156  poolInfo[poolLength].endBlock = _endBlock */\n      dup1\n      sload\n      not(shl(0xc0, 0xffffffff))\n      and\n      shl(0xc0, 0x01)\n      swap3\n      dup12\n      and\n      swap3\n      swap1\n      swap3\n      mul\n      swap2\n      swap1\n      swap2\n      or\n      swap1\n      sstore\n        /* \"contracts/liquidityMining/KyberFairLaunch.sol\":7176:7186  poolLength */\n      swap4\n      sload\n        /* \"contracts/liquidityMining/KyberFairLaunch.sol\":7167:7187  poolInfo[poolLength] */\n      dup4\n      mstore\n      swap1\n      dup3\n      keccak256\n        /* \"contracts/liquidityMining/KyberFairLaunch.sol\":7167:7203  poolInfo[poolLength].lastRewardBlock */\n      add\n        /* \"contracts/liquidityMining/KyberFairLaunch.sol\":7167:7217  poolInfo[poolLength].lastRewardBlock = _startBlock */\n      dup1\n      sload\n      sub(shl(0xe0, 0x01), 0x01)\n      and\n      shl(0xe0, 0x01)\n      swap1\n      swap4\n      mul\n      swap3\n      swap1\n      swap3\n      or\n      swap1\n      swap2\n      sstore\n        /* \"contracts/liquidityMining/KyberFairLaunch.sol\":7230:7476  for (uint256 i = 0; i < _rewardPerBlocks.length; i++) {\r... */\n    tag_187:\n        /* \"contracts/liquidityMining/KyberFairLaunch.sol\":7250:7277  i < _rewardPerBlocks.length */\n      dup2\n      dup2\n      lt\n        /* \"contracts/liquidityMining/KyberFairLaunch.sol\":7230:7476  for (uint256 i = 0; i < _rewardPerBlocks.length; i++) {\r... */\n      iszero\n      tag_188\n      jumpi\n        /* \"contracts/liquidityMining/KyberFairLaunch.sol\":7340:7464  PoolRewardData({\r... */\n      mload(0x40)\n      dup1\n      0x40\n      add\n      0x40\n      mstore\n      dup1\n        /* \"contracts/liquidityMining/KyberFairLaunch.sol\":7390:7406  _rewardPerBlocks */\n      dup5\n      dup5\n        /* \"contracts/liquidityMining/KyberFairLaunch.sol\":7407:7408  i */\n      dup5\n        /* \"contracts/liquidityMining/KyberFairLaunch.sol\":7390:7409  _rewardPerBlocks[i] */\n      dup2\n      dup2\n      lt\n      tag_190\n      jumpi\n      invalid\n    tag_190:\n      0x20\n      swap1\n      dup2\n      mul\n      swap3\n      swap1\n      swap3\n      add\n      calldataload\n        /* \"contracts/liquidityMining/KyberFairLaunch.sol\":7340:7464  PoolRewardData({\r... */\n      dup4\n      mstore\n      pop\n        /* \"contracts/liquidityMining/KyberFairLaunch.sol\":7447:7448  0 */\n      0x00\n        /* \"contracts/liquidityMining/KyberFairLaunch.sol\":7340:7464  PoolRewardData({\r... */\n      swap2\n      dup2\n      add\n      dup3\n      swap1\n      mstore\n        /* \"contracts/liquidityMining/KyberFairLaunch.sol\":7308:7318  poolLength */\n      sload(0x05)\n        /* \"contracts/liquidityMining/KyberFairLaunch.sol\":7299:7319  poolInfo[poolLength] */\n      dup3\n      mstore\n        /* \"contracts/liquidityMining/KyberFairLaunch.sol\":7299:7307  poolInfo */\n      0x06\n        /* \"contracts/liquidityMining/KyberFairLaunch.sol\":7299:7319  poolInfo[poolLength] */\n      dup2\n      mstore\n      0x40\n      dup1\n      dup4\n      keccak256\n        /* \"contracts/liquidityMining/KyberFairLaunch.sol\":7299:7337  poolInfo[poolLength].poolRewardData[i] */\n      dup6\n      dup5\n      mstore\n        /* \"contracts/liquidityMining/KyberFairLaunch.sol\":7299:7334  poolInfo[poolLength].poolRewardData */\n      0x02\n      add\n        /* \"contracts/liquidityMining/KyberFairLaunch.sol\":7299:7337  poolInfo[poolLength].poolRewardData[i] */\n      dup3\n      mstore\n      swap1\n      swap2\n      keccak256\n        /* \"contracts/liquidityMining/KyberFairLaunch.sol\":7299:7464  poolInfo[poolLength].poolRewardData[i] = PoolRewardData({\r... */\n      dup3\n      mload\n      dup2\n      sstore\n      swap2\n      add\n      mload\n      0x01\n      swap2\n      dup3\n      add\n      sstore\n        /* \"contracts/liquidityMining/KyberFairLaunch.sol\":7279:7282  i++ */\n      add\n        /* \"contracts/liquidityMining/KyberFairLaunch.sol\":7230:7476  for (uint256 i = 0; i < _rewardPerBlocks.length; i++) {\r... */\n      jump(tag_187)\n    tag_188:\n      pop\n        /* \"contracts/liquidityMining/KyberFairLaunch.sol\":7488:7498  poolLength */\n      0x05\n        /* \"contracts/liquidityMining/KyberFairLaunch.sol\":7488:7500  poolLength++ */\n      dup1\n      sload\n      0x01\n      swap1\n      dup2\n      add\n      swap1\n      swap2\n      sstore\n      sub(shl(0xa0, 0x01), 0x01)\n        /* \"contracts/liquidityMining/KyberFairLaunch.sol\":7513:7536  poolExists[_stakeToken] */\n      dup7\n      and\n        /* \"contracts/liquidityMining/KyberFairLaunch.sol\":7488:7498  poolLength */\n      0x00\n        /* \"contracts/liquidityMining/KyberFairLaunch.sol\":7513:7536  poolExists[_stakeToken] */\n      dup2\n      dup2\n      mstore\n        /* \"contracts/liquidityMining/KyberFairLaunch.sol\":7513:7523  poolExists */\n      0x03\n        /* \"contracts/liquidityMining/KyberFairLaunch.sol\":7513:7536  poolExists[_stakeToken] */\n      0x20\n      mstore\n      0x40\n      swap1\n      dup2\n      swap1\n      keccak256\n        /* \"contracts/liquidityMining/KyberFairLaunch.sol\":7513:7543  poolExists[_stakeToken] = true */\n      dup1\n      sload\n      not(0xff)\n      and\n      swap1\n      swap4\n      or\n      swap1\n      swap3\n      sstore\n        /* \"contracts/liquidityMining/KyberFairLaunch.sol\":7561:7626  AddNewPool(_stakeToken, _startBlock, _endBlock, _rewardPerBlocks) */\n      swap1\n      mload\n      0xffffffff\n      dup1\n      dup7\n      and\n      swap3\n      swap1\n      dup8\n      and\n      swap2\n      0xeb19e76b03b99eff4d0329a19e44569c131f242c9590234f19b76f2c56a817a1\n      swap1\n      tag_191\n      swap1\n        /* \"contracts/liquidityMining/KyberFairLaunch.sol\":7609:7625  _rewardPerBlocks */\n      dup8\n      swap1\n      dup8\n      swap1\n        /* \"contracts/liquidityMining/KyberFairLaunch.sol\":7561:7626  AddNewPool(_stakeToken, _startBlock, _endBlock, _rewardPerBlocks) */\n      tag_192\n      jump\t// in\n    tag_191:\n      mload(0x40)\n      dup1\n      swap2\n      sub\n      swap1\n      log4\n        /* \"contracts/liquidityMining/KyberFairLaunch.sol\":6404:7634  function addPool(\r... */\n      pop\n      pop\n      pop\n      pop\n      pop\n      jump\t// out\n        /* \"contracts/liquidityMining/KyberFairLaunch.sol\":3254:3302  IKyberRewardLocker public immutable rewardLocker */\n    tag_70:\n      immutable(\"0x840fecb9bca2c4e63427c4b817f3137cd391e6a160600107c90b96ae83fdac7e\")\n      dup2\n      jump\t// out\n        /* \"contracts/liquidityMining/KyberFairLaunch.sol\":10703:11524  function deposit(\r... */\n    tag_77:\n        /* \"@openzeppelin/contracts/utils/ReentrancyGuard.sol\":1688:1689  2 */\n      0x02\n        /* \"@openzeppelin/contracts/utils/ReentrancyGuard.sol\":2277:2284  _status */\n      dup1\n      sload\n        /* \"@openzeppelin/contracts/utils/ReentrancyGuard.sol\":2277:2296  _status != _ENTERED */\n      eq\n      iszero\n        /* \"@openzeppelin/contracts/utils/ReentrancyGuard.sol\":2269:2332  require(_status != _ENTERED, \"ReentrancyGuard: reentrant call\") */\n      tag_194\n      jumpi\n      0x40\n      dup1\n      mload\n      shl(0xe5, 0x461bcd)\n      dup2\n      mstore\n      0x20\n      0x04\n      dup3\n      add\n      mstore\n      0x1f\n      0x24\n      dup3\n      add\n      mstore\n      0x00\n      dup1\n      mload\n      0x20\n      data_0d74825aecb0211bbe1f02ccfb998d9e49771bedb2c6414e20fd8978a2e0f54c\n      dup4\n      codecopy\n      dup2\n      mload\n      swap2\n      mstore\n      0x44\n      dup3\n      add\n      mstore\n      swap1\n      mload\n      swap1\n      dup2\n      swap1\n      sub\n      0x64\n      add\n      swap1\n      revert\n    tag_194:\n        /* \"@openzeppelin/contracts/utils/ReentrancyGuard.sol\":1688:1689  2 */\n      0x02\n        /* \"@openzeppelin/contracts/utils/ReentrancyGuard.sol\":2407:2425  _status = _ENTERED */\n      dup1\n      sstore\n        /* \"contracts/liquidityMining/KyberFairLaunch.sol\":10896:10919  updatePoolRewards(_pid) */\n      tag_196\n        /* \"contracts/liquidityMining/KyberFairLaunch.sol\":10914:10918  _pid */\n      dup4\n        /* \"contracts/liquidityMining/KyberFairLaunch.sol\":10896:10913  updatePoolRewards */\n      tag_115\n        /* \"contracts/liquidityMining/KyberFairLaunch.sol\":10896:10919  updatePoolRewards(_pid) */\n      jump\t// in\n    tag_196:\n        /* \"contracts/liquidityMining/KyberFairLaunch.sol\":10930:10981  _updateUserReward(msg.sender, _pid, _shouldHarvest) */\n      tag_197\n        /* \"contracts/liquidityMining/KyberFairLaunch.sol\":10948:10958  msg.sender */\n      caller\n        /* \"contracts/liquidityMining/KyberFairLaunch.sol\":10960:10964  _pid */\n      dup5\n        /* \"contracts/liquidityMining/KyberFairLaunch.sol\":10966:10980  _shouldHarvest */\n      dup4\n        /* \"contracts/liquidityMining/KyberFairLaunch.sol\":10930:10947  _updateUserReward */\n      tag_198\n        /* \"contracts/liquidityMining/KyberFairLaunch.sol\":10930:10981  _updateUserReward(msg.sender, _pid, _shouldHarvest) */\n      jump\t// in\n    tag_197:\n        /* \"contracts/liquidityMining/KyberFairLaunch.sol\":10994:11015  PoolInfo storage pool */\n      0x00\n        /* \"contracts/liquidityMining/KyberFairLaunch.sol\":11018:11032  poolInfo[_pid] */\n      dup4\n      dup2\n      mstore\n        /* \"contracts/liquidityMining/KyberFairLaunch.sol\":11018:11026  poolInfo */\n      0x06\n        /* \"contracts/liquidityMining/KyberFairLaunch.sol\":11018:11032  poolInfo[_pid] */\n      0x20\n      swap1\n      dup2\n      mstore\n      0x40\n      dup1\n      dup4\n      keccak256\n        /* \"contracts/liquidityMining/KyberFairLaunch.sol\":11067:11075  userInfo */\n      0x07\n        /* \"contracts/liquidityMining/KyberFairLaunch.sol\":11067:11081  userInfo[_pid] */\n      dup4\n      mstore\n      dup2\n      dup5\n      keccak256\n        /* \"contracts/liquidityMining/KyberFairLaunch.sol\":11082:11092  msg.sender */\n      caller\n        /* \"contracts/liquidityMining/KyberFairLaunch.sol\":11067:11093  userInfo[_pid][msg.sender] */\n      dup1\n      dup7\n      mstore\n      swap4\n      mstore\n      swap3\n      keccak256\n        /* \"contracts/liquidityMining/KyberFairLaunch.sol\":11147:11162  pool.stakeToken */\n      0x01\n      dup4\n      add\n      sload\n        /* \"contracts/liquidityMining/KyberFairLaunch.sol\":11067:11093  userInfo[_pid][msg.sender] */\n      swap1\n      swap2\n        /* \"contracts/liquidityMining/KyberFairLaunch.sol\":11137:11266  IERC20Ext(pool.stakeToken).safeTransferFrom(\r... */\n      tag_199\n      swap2\n      sub(shl(0xa0, 0x01), 0x01)\n        /* \"contracts/liquidityMining/KyberFairLaunch.sol\":11147:11162  pool.stakeToken */\n      and\n      swap1\n        /* \"contracts/liquidityMining/KyberFairLaunch.sol\":11228:11232  this */\n      address\n        /* \"contracts/liquidityMining/KyberFairLaunch.sol\":11248:11255  _amount */\n      dup8\n        /* \"contracts/liquidityMining/KyberFairLaunch.sol\":11137:11180  IERC20Ext(pool.stakeToken).safeTransferFrom */\n      tag_200\n        /* \"contracts/liquidityMining/KyberFairLaunch.sol\":11137:11266  IERC20Ext(pool.stakeToken).safeTransferFrom(\r... */\n      jump\t// in\n    tag_199:\n        /* \"contracts/liquidityMining/KyberFairLaunch.sol\":11369:11380  user.amount */\n      dup1\n      sload\n        /* \"contracts/liquidityMining/KyberFairLaunch.sol\":11369:11393  user.amount.add(_amount) */\n      tag_201\n      swap1\n        /* \"contracts/liquidityMining/KyberFairLaunch.sol\":11385:11392  _amount */\n      dup6\n        /* \"contracts/liquidityMining/KyberFairLaunch.sol\":11369:11384  user.amount.add */\n      tag_202\n        /* \"contracts/liquidityMining/KyberFairLaunch.sol\":11369:11393  user.amount.add(_amount) */\n      jump\t// in\n    tag_201:\n        /* \"contracts/liquidityMining/KyberFairLaunch.sol\":11355:11393  user.amount = user.amount.add(_amount) */\n      dup2\n      sstore\n        /* \"contracts/liquidityMining/KyberFairLaunch.sol\":11422:11437  pool.totalStake */\n      dup2\n      sload\n        /* \"contracts/liquidityMining/KyberFairLaunch.sol\":11422:11450  pool.totalStake.add(_amount) */\n      tag_203\n      swap1\n        /* \"contracts/liquidityMining/KyberFairLaunch.sol\":11442:11449  _amount */\n      dup6\n        /* \"contracts/liquidityMining/KyberFairLaunch.sol\":11422:11441  pool.totalStake.add */\n      tag_202\n        /* \"contracts/liquidityMining/KyberFairLaunch.sol\":11422:11450  pool.totalStake.add(_amount) */\n      jump\t// in\n    tag_203:\n        /* \"contracts/liquidityMining/KyberFairLaunch.sol\":11404:11450  pool.totalStake = pool.totalStake.add(_amount) */\n      dup3\n      sstore\n        /* \"contracts/liquidityMining/KyberFairLaunch.sol\":11468:11516  Deposit(msg.sender, _pid, block.number, _amount) */\n      mload(0x40)\n        /* \"contracts/liquidityMining/KyberFairLaunch.sol\":11494:11506  block.number */\n      number\n      swap1\n        /* \"contracts/liquidityMining/KyberFairLaunch.sol\":11488:11492  _pid */\n      dup7\n      swap1\n        /* \"contracts/liquidityMining/KyberFairLaunch.sol\":11476:11486  msg.sender */\n      caller\n      swap1\n        /* \"contracts/liquidityMining/KyberFairLaunch.sol\":11468:11516  Deposit(msg.sender, _pid, block.number, _amount) */\n      0x36af321ec8d3c75236829c5317affd40ddb308863a1236d2d277a4025cccee1e\n      swap1\n      tag_204\n      swap1\n        /* \"contracts/liquidityMining/KyberFairLaunch.sol\":11508:11515  _amount */\n      dup10\n      swap1\n        /* \"contracts/liquidityMining/KyberFairLaunch.sol\":11468:11516  Deposit(msg.sender, _pid, block.number, _amount) */\n      tag_36\n      jump\t// in\n    tag_204:\n      mload(0x40)\n      dup1\n      swap2\n      sub\n      swap1\n      log4\n      pop\n      pop\n        /* \"@openzeppelin/contracts/utils/ReentrancyGuard.sol\":1645:1646  1 */\n      0x01\n        /* \"@openzeppelin/contracts/utils/ReentrancyGuard.sol\":2580:2587  _status */\n      0x02\n        /* \"@openzeppelin/contracts/utils/ReentrancyGuard.sol\":2580:2602  _status = _NOT_ENTERED */\n      sstore\n      pop\n      pop\n      pop\n        /* \"contracts/liquidityMining/KyberFairLaunch.sol\":10703:11524  function deposit(\r... */\n      jump\t// out\n        /* \"contracts/liquidityMining/KyberFairLaunch.sol\":11719:11874  function withdraw(uint256 _pid, uint256 _amount)\r... */\n    tag_82:\n        /* \"@openzeppelin/contracts/utils/ReentrancyGuard.sol\":1688:1689  2 */\n      0x02\n        /* \"@openzeppelin/contracts/utils/ReentrancyGuard.sol\":2277:2284  _status */\n      dup1\n      sload\n        /* \"@openzeppelin/contracts/utils/ReentrancyGuard.sol\":2277:2296  _status != _ENTERED */\n      eq\n      iszero\n        /* \"@openzeppelin/contracts/utils/ReentrancyGuard.sol\":2269:2332  require(_status != _ENTERED, \"ReentrancyGuard: reentrant call\") */\n      tag_206\n      jumpi\n      0x40\n      dup1\n      mload\n      shl(0xe5, 0x461bcd)\n      dup2\n      mstore\n      0x20\n      0x04\n      dup3\n      add\n      mstore\n      0x1f\n      0x24\n      dup3\n      add\n      mstore\n      0x00\n      dup1\n      mload\n      0x20\n      data_0d74825aecb0211bbe1f02ccfb998d9e49771bedb2c6414e20fd8978a2e0f54c\n      dup4\n      codecopy\n      dup2\n      mload\n      swap2\n      mstore\n      0x44\n      dup3\n      add\n      mstore\n      swap1\n      mload\n      swap1\n      dup2\n      swap1\n      sub\n      0x64\n      add\n      swap1\n      revert\n    tag_206:\n        /* \"@openzeppelin/contracts/utils/ReentrancyGuard.sol\":1688:1689  2 */\n      0x02\n        /* \"@openzeppelin/contracts/utils/ReentrancyGuard.sol\":2407:2425  _status = _ENTERED */\n      dup1\n      sstore\n        /* \"contracts/liquidityMining/KyberFairLaunch.sol\":11842:11866  _withdraw(_pid, _amount) */\n      tag_208\n        /* \"contracts/liquidityMining/KyberFairLaunch.sol\":11852:11856  _pid */\n      dup3\n        /* \"contracts/liquidityMining/KyberFairLaunch.sol\":11858:11865  _amount */\n      dup3\n        /* \"contracts/liquidityMining/KyberFairLaunch.sol\":11842:11851  _withdraw */\n      tag_209\n        /* \"contracts/liquidityMining/KyberFairLaunch.sol\":11842:11866  _withdraw(_pid, _amount) */\n      jump\t// in\n    tag_208:\n      pop\n      pop\n        /* \"@openzeppelin/contracts/utils/ReentrancyGuard.sol\":1645:1646  1 */\n      0x01\n        /* \"@openzeppelin/contracts/utils/ReentrancyGuard.sol\":2580:2587  _status */\n      0x02\n        /* \"@openzeppelin/contracts/utils/ReentrancyGuard.sol\":2580:2602  _status = _NOT_ENTERED */\n      sstore\n        /* \"contracts/liquidityMining/KyberFairLaunch.sol\":11719:11874  function withdraw(uint256 _pid, uint256 _amount)\r... */\n      jump\t// out\n        /* \"contracts/liquidityMining/KyberFairLaunch.sol\":13318:14732  function harvestMultiplePools(uint256[] calldata _pids) external override {\r... */\n    tag_87:\n        /* \"contracts/liquidityMining/KyberFairLaunch.sol\":13403:13427  address[] memory rTokens */\n      0x00\n        /* \"contracts/liquidityMining/KyberFairLaunch.sol\":13430:13442  rewardTokens */\n      0x04\n        /* \"contracts/liquidityMining/KyberFairLaunch.sol\":13403:13442  address[] memory rTokens = rewardTokens */\n      dup1\n      sload\n      dup1\n      0x20\n      mul\n      0x20\n      add\n      mload(0x40)\n      swap1\n      dup2\n      add\n      0x40\n      mstore\n      dup1\n      swap3\n      swap2\n      swap1\n      dup2\n      dup2\n      mstore\n      0x20\n      add\n      dup3\n      dup1\n      sload\n      dup1\n      iszero\n      tag_211\n      jumpi\n      0x20\n      mul\n      dup3\n      add\n      swap2\n      swap1\n      0x00\n      mstore\n      keccak256(0x00, 0x20)\n      swap1\n    tag_212:\n      dup2\n      sload\n      sub(shl(0xa0, 0x01), 0x01)\n      and\n      dup2\n      mstore\n      0x01\n      swap1\n      swap2\n      add\n      swap1\n      0x20\n      add\n      dup1\n      dup4\n      gt\n      tag_212\n      jumpi\n    tag_211:\n      pop\n      pop\n      pop\n      pop\n      pop\n      swap1\n      pop\n        /* \"contracts/liquidityMining/KyberFairLaunch.sol\":13453:13482  uint256[] memory totalRewards */\n      0x00\n        /* \"contracts/liquidityMining/KyberFairLaunch.sol\":13499:13506  rTokens */\n      dup2\n        /* \"contracts/liquidityMining/KyberFairLaunch.sol\":13499:13513  rTokens.length */\n      mload\n        /* \"contracts/liquidityMining/KyberFairLaunch.sol\":13485:13514  new uint256[](rTokens.length) */\n      0xffffffffffffffff\n      dup2\n      gt\n      dup1\n      iszero\n      tag_213\n      jumpi\n      0x00\n      dup1\n      revert\n    tag_213:\n      pop\n      mload(0x40)\n      swap1\n      dup1\n      dup3\n      mstore\n      dup1\n      0x20\n      mul\n      0x20\n      add\n      dup3\n      add\n      0x40\n      mstore\n      dup1\n      iszero\n      tag_214\n      jumpi\n      dup2\n      0x20\n      add\n      0x20\n      dup3\n      mul\n      dup1\n      calldatasize\n      dup4\n      calldatacopy\n      add\n      swap1\n      pop\n    tag_214:\n      pop\n        /* \"contracts/liquidityMining/KyberFairLaunch.sol\":13453:13514  uint256[] memory totalRewards = new uint256[](rTokens.length) */\n      swap1\n      pop\n        /* \"contracts/liquidityMining/KyberFairLaunch.sol\":13543:13553  msg.sender */\n      caller\n        /* \"contracts/liquidityMining/KyberFairLaunch.sol\":13525:13540  address account */\n      0x00\n      dup1\n        /* \"contracts/liquidityMining/KyberFairLaunch.sol\":13588:14517  for (uint256 i = 0; i < _pids.length; i++) {\r... */\n    tag_215:\n        /* \"contracts/liquidityMining/KyberFairLaunch.sol\":13608:13624  i < _pids.length */\n      dup6\n      dup2\n      lt\n        /* \"contracts/liquidityMining/KyberFairLaunch.sol\":13588:14517  for (uint256 i = 0; i < _pids.length; i++) {\r... */\n      iszero\n      tag_216\n      jumpi\n        /* \"contracts/liquidityMining/KyberFairLaunch.sol\":13652:13657  _pids */\n      dup7\n      dup7\n        /* \"contracts/liquidityMining/KyberFairLaunch.sol\":13658:13659  i */\n      dup3\n        /* \"contracts/liquidityMining/KyberFairLaunch.sol\":13652:13660  _pids[i] */\n      dup2\n      dup2\n      lt\n      tag_218\n      jumpi\n      invalid\n    tag_218:\n      swap1\n      pop\n      0x20\n      mul\n      add\n      calldataload\n        /* \"contracts/liquidityMining/KyberFairLaunch.sol\":13646:13660  pid = _pids[i] */\n      swap2\n      pop\n        /* \"contracts/liquidityMining/KyberFairLaunch.sol\":13675:13697  updatePoolRewards(pid) */\n      tag_219\n        /* \"contracts/liquidityMining/KyberFairLaunch.sol\":13693:13696  pid */\n      dup3\n        /* \"contracts/liquidityMining/KyberFairLaunch.sol\":13675:13692  updatePoolRewards */\n      tag_115\n        /* \"contracts/liquidityMining/KyberFairLaunch.sol\":13675:13697  updatePoolRewards(pid) */\n      jump\t// in\n    tag_219:\n        /* \"contracts/liquidityMining/KyberFairLaunch.sol\":13766:13804  _updateUserReward(account, pid, false) */\n      tag_220\n        /* \"contracts/liquidityMining/KyberFairLaunch.sol\":13784:13791  account */\n      dup4\n        /* \"contracts/liquidityMining/KyberFairLaunch.sol\":13793:13796  pid */\n      dup4\n        /* \"contracts/liquidityMining/KyberFairLaunch.sol\":13798:13803  false */\n      0x00\n        /* \"contracts/liquidityMining/KyberFairLaunch.sol\":13766:13783  _updateUserReward */\n      tag_198\n        /* \"contracts/liquidityMining/KyberFairLaunch.sol\":13766:13804  _updateUserReward(account, pid, false) */\n      jump\t// in\n    tag_220:\n        /* \"contracts/liquidityMining/KyberFairLaunch.sol\":13826:13835  uint256 j */\n      0x00\n        /* \"contracts/liquidityMining/KyberFairLaunch.sol\":13821:14506  for (uint256 j = 0; j < rTokens.length; j++) {\r... */\n    tag_221:\n        /* \"contracts/liquidityMining/KyberFairLaunch.sol\":13845:13852  rTokens */\n      dup6\n        /* \"contracts/liquidityMining/KyberFairLaunch.sol\":13845:13859  rTokens.length */\n      mload\n        /* \"contracts/liquidityMining/KyberFairLaunch.sol\":13841:13842  j */\n      dup2\n        /* \"contracts/liquidityMining/KyberFairLaunch.sol\":13841:13859  j < rTokens.length */\n      lt\n        /* \"contracts/liquidityMining/KyberFairLaunch.sol\":13821:14506  for (uint256 j = 0; j < rTokens.length; j++) {\r... */\n      iszero\n      tag_222\n      jumpi\n        /* \"contracts/liquidityMining/KyberFairLaunch.sol\":13885:13899  uint256 reward */\n      0x00\n        /* \"contracts/liquidityMining/KyberFairLaunch.sol\":13902:13915  userInfo[pid] */\n      dup4\n      dup2\n      mstore\n        /* \"contracts/liquidityMining/KyberFairLaunch.sol\":13902:13910  userInfo */\n      0x07\n        /* \"contracts/liquidityMining/KyberFairLaunch.sol\":13902:13915  userInfo[pid] */\n      0x20\n      swap1\n      dup2\n      mstore\n      0x40\n      dup1\n      dup4\n      keccak256\n      sub(shl(0xa0, 0x01), 0x01)\n        /* \"contracts/liquidityMining/KyberFairLaunch.sol\":13902:13924  userInfo[pid][account] */\n      dup9\n      and\n      dup5\n      mstore\n      dup3\n      mstore\n      dup1\n      dup4\n      keccak256\n        /* \"contracts/liquidityMining/KyberFairLaunch.sol\":13902:13964  userInfo[pid][account]\r... */\n      dup5\n      dup5\n      mstore\n        /* \"contracts/liquidityMining/KyberFairLaunch.sol\":13902:13961  userInfo[pid][account]\r... */\n      0x01\n      add\n        /* \"contracts/liquidityMining/KyberFairLaunch.sol\":13902:13964  userInfo[pid][account]\r... */\n      swap1\n      swap2\n      mstore\n      swap1\n      keccak256\n        /* \"contracts/liquidityMining/KyberFairLaunch.sol\":13902:14002  userInfo[pid][account]\r... */\n      sload\n        /* \"contracts/liquidityMining/KyberFairLaunch.sol\":14025:14035  reward > 0 */\n      dup1\n      iszero\n        /* \"contracts/liquidityMining/KyberFairLaunch.sol\":14021:14491  if (reward > 0) {\r... */\n      tag_224\n      jumpi\n        /* \"contracts/liquidityMining/KyberFairLaunch.sol\":14078:14105  totalRewards[j].add(reward) */\n      tag_225\n        /* \"contracts/liquidityMining/KyberFairLaunch.sol\":14098:14104  reward */\n      dup2\n        /* \"contracts/liquidityMining/KyberFairLaunch.sol\":14078:14090  totalRewards */\n      dup8\n        /* \"contracts/liquidityMining/KyberFairLaunch.sol\":14091:14092  j */\n      dup5\n        /* \"contracts/liquidityMining/KyberFairLaunch.sol\":14078:14093  totalRewards[j] */\n      dup2\n      mload\n      dup2\n      lt\n      tag_226\n      jumpi\n      invalid\n    tag_226:\n      0x20\n      mul\n      0x20\n      add\n      add\n      mload\n        /* \"contracts/liquidityMining/KyberFairLaunch.sol\":14078:14097  totalRewards[j].add */\n      tag_202\n      swap1\n        /* \"contracts/liquidityMining/KyberFairLaunch.sol\":14078:14105  totalRewards[j].add(reward) */\n      swap2\n      swap1\n      0xffffffff\n      and\n      jump\t// in\n    tag_225:\n        /* \"contracts/liquidityMining/KyberFairLaunch.sol\":14060:14072  totalRewards */\n      dup7\n        /* \"contracts/liquidityMining/KyberFairLaunch.sol\":14073:14074  j */\n      dup4\n        /* \"contracts/liquidityMining/KyberFairLaunch.sol\":14060:14075  totalRewards[j] */\n      dup2\n      mload\n      dup2\n      lt\n      tag_227\n      jumpi\n      invalid\n    tag_227:\n      0x20\n      swap1\n      dup2\n      mul\n      swap2\n      swap1\n      swap2\n      add\n      dup2\n      add\n        /* \"contracts/liquidityMining/KyberFairLaunch.sol\":14060:14105  totalRewards[j] = totalRewards[j].add(reward) */\n      swap2\n      swap1\n      swap2\n      mstore\n        /* \"contracts/liquidityMining/KyberFairLaunch.sol\":14239:14240  0 */\n      0x00\n        /* \"contracts/liquidityMining/KyberFairLaunch.sol\":14128:14141  userInfo[pid] */\n      dup6\n      dup2\n      mstore\n        /* \"contracts/liquidityMining/KyberFairLaunch.sol\":14128:14136  userInfo */\n      0x07\n        /* \"contracts/liquidityMining/KyberFairLaunch.sol\":14128:14141  userInfo[pid] */\n      dup3\n      mstore\n      0x40\n      dup1\n      dup3\n      keccak256\n      sub(shl(0xa0, 0x01), 0x01)\n        /* \"contracts/liquidityMining/KyberFairLaunch.sol\":14128:14150  userInfo[pid][account] */\n      dup10\n      and\n      dup4\n      mstore\n      dup4\n      mstore\n      dup1\n      dup3\n      keccak256\n        /* \"contracts/liquidityMining/KyberFairLaunch.sol\":14128:14194  userInfo[pid][account]\r... */\n      dup6\n      dup4\n      mstore\n        /* \"contracts/liquidityMining/KyberFairLaunch.sol\":14128:14191  userInfo[pid][account]\r... */\n      0x01\n      add\n        /* \"contracts/liquidityMining/KyberFairLaunch.sol\":14128:14194  userInfo[pid][account]\r... */\n      swap1\n      swap3\n      mstore\n      swap1\n      dup2\n      keccak256\n        /* \"contracts/liquidityMining/KyberFairLaunch.sol\":14128:14240  userInfo[pid][account]\r... */\n      sstore\n        /* \"contracts/liquidityMining/KyberFairLaunch.sol\":14366:14376  rTokens[j] */\n      dup7\n      mload\n        /* \"contracts/liquidityMining/KyberFairLaunch.sol\":14366:14373  rTokens */\n      dup8\n      swap1\n        /* \"contracts/liquidityMining/KyberFairLaunch.sol\":14192:14193  j */\n      dup4\n      swap1\n        /* \"contracts/liquidityMining/KyberFairLaunch.sol\":14366:14376  rTokens[j] */\n      dup2\n      lt\n      tag_228\n      jumpi\n      invalid\n    tag_228:\n      0x20\n      mul\n      0x20\n      add\n      add\n      mload\n      sub(shl(0xa0, 0x01), 0x01)\n        /* \"contracts/liquidityMining/KyberFairLaunch.sol\":14268:14471  Harvest(\r... */\n      and\n        /* \"contracts/liquidityMining/KyberFairLaunch.sol\":14336:14339  pid */\n      dup5\n        /* \"contracts/liquidityMining/KyberFairLaunch.sol\":14302:14309  account */\n      dup7\n      sub(shl(0xa0, 0x01), 0x01)\n        /* \"contracts/liquidityMining/KyberFairLaunch.sol\":14268:14471  Harvest(\r... */\n      and\n      0xf75f3d433c6628e04e01a0be1a2c6692a6011ce4b00389824cfa8b8a12f3c1c4\n        /* \"contracts/liquidityMining/KyberFairLaunch.sol\":14403:14409  reward */\n      dup5\n        /* \"contracts/liquidityMining/KyberFairLaunch.sol\":14436:14448  block.number */\n      number\n        /* \"contracts/liquidityMining/KyberFairLaunch.sol\":14268:14471  Harvest(\r... */\n      mload(0x40)\n      tag_229\n      swap3\n      swap2\n      swap1\n      tag_230\n      jump\t// in\n    tag_229:\n      mload(0x40)\n      dup1\n      swap2\n      sub\n      swap1\n      log4\n        /* \"contracts/liquidityMining/KyberFairLaunch.sol\":14021:14491  if (reward > 0) {\r... */\n    tag_224:\n      pop\n        /* \"contracts/liquidityMining/KyberFairLaunch.sol\":13861:13864  j++ */\n      0x01\n      add\n        /* \"contracts/liquidityMining/KyberFairLaunch.sol\":13821:14506  for (uint256 j = 0; j < rTokens.length; j++) {\r... */\n      jump(tag_221)\n    tag_222:\n      pop\n        /* \"contracts/liquidityMining/KyberFairLaunch.sol\":13626:13629  i++ */\n      0x01\n      add\n        /* \"contracts/liquidityMining/KyberFairLaunch.sol\":13588:14517  for (uint256 i = 0; i < _pids.length; i++) {\r... */\n      jump(tag_215)\n    tag_216:\n      pop\n        /* \"contracts/liquidityMining/KyberFairLaunch.sol\":14534:14543  uint256 i */\n      0x00\n        /* \"contracts/liquidityMining/KyberFairLaunch.sol\":14529:14725  for (uint256 i = 0; i < totalRewards.length; i++) {\r... */\n    tag_231:\n        /* \"contracts/liquidityMining/KyberFairLaunch.sol\":14553:14565  totalRewards */\n      dup4\n        /* \"contracts/liquidityMining/KyberFairLaunch.sol\":14553:14572  totalRewards.length */\n      mload\n        /* \"contracts/liquidityMining/KyberFairLaunch.sol\":14549:14550  i */\n      dup2\n        /* \"contracts/liquidityMining/KyberFairLaunch.sol\":14549:14572  i < totalRewards.length */\n      lt\n        /* \"contracts/liquidityMining/KyberFairLaunch.sol\":14529:14725  for (uint256 i = 0; i < totalRewards.length; i++) {\r... */\n      iszero\n      tag_232\n      jumpi\n        /* \"contracts/liquidityMining/KyberFairLaunch.sol\":14616:14617  0 */\n      0x00\n        /* \"contracts/liquidityMining/KyberFairLaunch.sol\":14598:14610  totalRewards */\n      dup5\n        /* \"contracts/liquidityMining/KyberFairLaunch.sol\":14611:14612  i */\n      dup3\n        /* \"contracts/liquidityMining/KyberFairLaunch.sol\":14598:14613  totalRewards[i] */\n      dup2\n      mload\n      dup2\n      lt\n      tag_234\n      jumpi\n      invalid\n    tag_234:\n      0x20\n      mul\n      0x20\n      add\n      add\n      mload\n        /* \"contracts/liquidityMining/KyberFairLaunch.sol\":14598:14617  totalRewards[i] > 0 */\n      gt\n        /* \"contracts/liquidityMining/KyberFairLaunch.sol\":14594:14714  if (totalRewards[i] > 0) {\r... */\n      iszero\n      tag_236\n      jumpi\n        /* \"contracts/liquidityMining/KyberFairLaunch.sol\":14638:14698  _lockReward(IERC20Ext(rTokens[i]), account, totalRewards[i]) */\n      tag_236\n        /* \"contracts/liquidityMining/KyberFairLaunch.sol\":14660:14667  rTokens */\n      dup6\n        /* \"contracts/liquidityMining/KyberFairLaunch.sol\":14668:14669  i */\n      dup3\n        /* \"contracts/liquidityMining/KyberFairLaunch.sol\":14660:14670  rTokens[i] */\n      dup2\n      mload\n      dup2\n      lt\n      tag_237\n      jumpi\n      invalid\n    tag_237:\n      0x20\n      mul\n      0x20\n      add\n      add\n      mload\n        /* \"contracts/liquidityMining/KyberFairLaunch.sol\":14673:14680  account */\n      dup5\n        /* \"contracts/liquidityMining/KyberFairLaunch.sol\":14682:14694  totalRewards */\n      dup7\n        /* \"contracts/liquidityMining/KyberFairLaunch.sol\":14695:14696  i */\n      dup5\n        /* \"contracts/liquidityMining/KyberFairLaunch.sol\":14682:14697  totalRewards[i] */\n      dup2\n      mload\n      dup2\n      lt\n      tag_238\n      jumpi\n      invalid\n    tag_238:\n      0x20\n      mul\n      0x20\n      add\n      add\n      mload\n        /* \"contracts/liquidityMining/KyberFairLaunch.sol\":14638:14649  _lockReward */\n      tag_239\n        /* \"contracts/liquidityMining/KyberFairLaunch.sol\":14638:14698  _lockReward(IERC20Ext(rTokens[i]), account, totalRewards[i]) */\n      jump\t// in\n    tag_236:\n        /* \"contracts/liquidityMining/KyberFairLaunch.sol\":14574:14577  i++ */\n      0x01\n      add\n        /* \"contracts/liquidityMining/KyberFairLaunch.sol\":14529:14725  for (uint256 i = 0; i < totalRewards.length; i++) {\r... */\n      jump(tag_231)\n    tag_232:\n      pop\n        /* \"contracts/liquidityMining/KyberFairLaunch.sol\":13318:14732  function harvestMultiplePools(uint256[] calldata _pids) external override {\r... */\n      pop\n      pop\n      pop\n      pop\n      pop\n      pop\n      jump\t// out\n        /* \"contracts/liquidityMining/KyberFairLaunch.sol\":12410:13152  function emergencyWithdraw(uint256 _pid) external override nonReentrant {\r... */\n    tag_91:\n        /* \"@openzeppelin/contracts/utils/ReentrancyGuard.sol\":1688:1689  2 */\n      0x02\n        /* \"@openzeppelin/contracts/utils/ReentrancyGuard.sol\":2277:2284  _status */\n      dup1\n      sload\n        /* \"@openzeppelin/contracts/utils/ReentrancyGuard.sol\":2277:2296  _status != _ENTERED */\n      eq\n      iszero\n        /* \"@openzeppelin/contracts/utils/ReentrancyGuard.sol\":2269:2332  require(_status != _ENTERED, \"ReentrancyGuard: reentrant call\") */\n      tag_241\n      jumpi\n      0x40\n      dup1\n      mload\n      shl(0xe5, 0x461bcd)\n      dup2\n      mstore\n      0x20\n      0x04\n      dup3\n      add\n      mstore\n      0x1f\n      0x24\n      dup3\n      add\n      mstore\n      0x00\n      dup1\n      mload\n      0x20\n      data_0d74825aecb0211bbe1f02ccfb998d9e49771bedb2c6414e20fd8978a2e0f54c\n      dup4\n      codecopy\n      dup2\n      mload\n      swap2\n      mstore\n      0x44\n      dup3\n      add\n      mstore\n      swap1\n      mload\n      swap1\n      dup2\n      swap1\n      sub\n      0x64\n      add\n      swap1\n      revert\n    tag_241:\n        /* \"@openzeppelin/contracts/utils/ReentrancyGuard.sol\":1688:1689  2 */\n      0x02\n        /* \"@openzeppelin/contracts/utils/ReentrancyGuard.sol\":2407:2425  _status = _ENTERED */\n      dup1\n      sstore\n        /* \"contracts/liquidityMining/KyberFairLaunch.sol\":12493:12514  PoolInfo storage pool */\n      0x00\n        /* \"contracts/liquidityMining/KyberFairLaunch.sol\":12517:12531  poolInfo[_pid] */\n      dup2\n      dup2\n      mstore\n        /* \"contracts/liquidityMining/KyberFairLaunch.sol\":12517:12525  poolInfo */\n      0x06\n        /* \"contracts/liquidityMining/KyberFairLaunch.sol\":12517:12531  poolInfo[_pid] */\n      0x20\n      swap1\n      dup2\n      mstore\n      0x40\n      dup1\n      dup4\n      keccak256\n        /* \"contracts/liquidityMining/KyberFairLaunch.sol\":12566:12574  userInfo */\n      0x07\n        /* \"contracts/liquidityMining/KyberFairLaunch.sol\":12566:12580  userInfo[_pid] */\n      dup4\n      mstore\n      dup2\n      dup5\n      keccak256\n        /* \"contracts/liquidityMining/KyberFairLaunch.sol\":12581:12591  msg.sender */\n      caller\n        /* \"contracts/liquidityMining/KyberFairLaunch.sol\":12566:12592  userInfo[_pid][msg.sender] */\n      dup6\n      mstore\n      swap1\n      swap3\n      mstore\n      dup3\n      keccak256\n        /* \"contracts/liquidityMining/KyberFairLaunch.sol\":12620:12631  user.amount */\n      dup1\n      sload\n        /* \"contracts/liquidityMining/KyberFairLaunch.sol\":12644:12659  user.amount = 0 */\n      dup4\n      dup3\n      sstore\n        /* \"contracts/liquidityMining/KyberFairLaunch.sol\":12517:12531  poolInfo[_pid] */\n      swap2\n      swap3\n        /* \"contracts/liquidityMining/KyberFairLaunch.sol\":12566:12592  userInfo[_pid][msg.sender] */\n      swap1\n      swap2\n        /* \"contracts/liquidityMining/KyberFairLaunch.sol\":12620:12631  user.amount */\n      swap1\n        /* \"contracts/liquidityMining/KyberFairLaunch.sol\":12670:12898  for (uint256 i = 0; i < rewardTokens.length; i++) {\r... */\n    tag_243:\n        /* \"contracts/liquidityMining/KyberFairLaunch.sol\":12694:12706  rewardTokens */\n      0x04\n        /* \"contracts/liquidityMining/KyberFairLaunch.sol\":12694:12713  rewardTokens.length */\n      sload\n        /* \"contracts/liquidityMining/KyberFairLaunch.sol\":12690:12713  i < rewardTokens.length */\n      dup2\n      lt\n        /* \"contracts/liquidityMining/KyberFairLaunch.sol\":12670:12898  for (uint256 i = 0; i < rewardTokens.length; i++) {\r... */\n      iszero\n      tag_244\n      jumpi\n        /* \"contracts/liquidityMining/KyberFairLaunch.sol\":12735:12768  UserRewardData storage rewardData */\n      0x00\n        /* \"contracts/liquidityMining/KyberFairLaunch.sol\":12771:12793  user.userRewardData[i] */\n      dup2\n      dup2\n      mstore\n        /* \"contracts/liquidityMining/KyberFairLaunch.sol\":12771:12790  user.userRewardData */\n      0x01\n      dup1\n      dup6\n      add\n        /* \"contracts/liquidityMining/KyberFairLaunch.sol\":12771:12793  user.userRewardData[i] */\n      0x20\n      mstore\n      0x40\n      dup3\n      keccak256\n        /* \"contracts/liquidityMining/KyberFairLaunch.sol\":12808:12837  rewardData.lastRewardPerShare */\n      dup1\n      dup3\n      add\n        /* \"contracts/liquidityMining/KyberFairLaunch.sol\":12808:12841  rewardData.lastRewardPerShare = 0 */\n      dup4\n      swap1\n      sstore\n        /* \"contracts/liquidityMining/KyberFairLaunch.sol\":12856:12886  rewardData.unclaimedReward = 0 */\n      swap2\n      swap1\n      swap2\n      sstore\n        /* \"contracts/liquidityMining/KyberFairLaunch.sol\":12715:12718  i++ */\n      add\n        /* \"contracts/liquidityMining/KyberFairLaunch.sol\":12670:12898  for (uint256 i = 0; i < rewardTokens.length; i++) {\r... */\n      jump(tag_243)\n    tag_244:\n      pop\n        /* \"contracts/liquidityMining/KyberFairLaunch.sol\":12928:12943  pool.totalStake */\n      dup3\n      sload\n        /* \"contracts/liquidityMining/KyberFairLaunch.sol\":12928:12955  pool.totalStake.sub(amount) */\n      tag_246\n      swap1\n        /* \"contracts/liquidityMining/KyberFairLaunch.sol\":12948:12954  amount */\n      dup3\n        /* \"contracts/liquidityMining/KyberFairLaunch.sol\":12928:12947  pool.totalStake.sub */\n      tag_247\n        /* \"contracts/liquidityMining/KyberFairLaunch.sol\":12928:12955  pool.totalStake.sub(amount) */\n      jump\t// in\n    tag_246:\n        /* \"contracts/liquidityMining/KyberFairLaunch.sol\":12910:12955  pool.totalStake = pool.totalStake.sub(amount) */\n      dup4\n      sstore\n        /* \"contracts/liquidityMining/KyberFairLaunch.sol\":12972:12982  amount > 0 */\n      dup1\n      iszero\n        /* \"contracts/liquidityMining/KyberFairLaunch.sol\":12968:13070  if (amount > 0) {\r... */\n      tag_249\n      jumpi\n        /* \"contracts/liquidityMining/KyberFairLaunch.sol\":13009:13024  pool.stakeToken */\n      0x01\n      dup4\n      add\n      sload\n        /* \"contracts/liquidityMining/KyberFairLaunch.sol\":12999:13058  IERC20Ext(pool.stakeToken).safeTransfer(msg.sender, amount) */\n      tag_249\n      swap1\n      sub(shl(0xa0, 0x01), 0x01)\n        /* \"contracts/liquidityMining/KyberFairLaunch.sol\":13009:13024  pool.stakeToken */\n      and\n        /* \"contracts/liquidityMining/KyberFairLaunch.sol\":13039:13049  msg.sender */\n      caller\n        /* \"contracts/liquidityMining/KyberFairLaunch.sol\":13051:13057  amount */\n      dup4\n        /* \"contracts/liquidityMining/KyberFairLaunch.sol\":12999:13038  IERC20Ext(pool.stakeToken).safeTransfer */\n      tag_250\n        /* \"contracts/liquidityMining/KyberFairLaunch.sol\":12999:13058  IERC20Ext(pool.stakeToken).safeTransfer(msg.sender, amount) */\n      jump\t// in\n    tag_249:\n        /* \"contracts/liquidityMining/KyberFairLaunch.sol\":13123:13135  block.number */\n      number\n        /* \"contracts/liquidityMining/KyberFairLaunch.sol\":13117:13121  _pid */\n      dup5\n        /* \"contracts/liquidityMining/KyberFairLaunch.sol\":13105:13115  msg.sender */\n      caller\n      sub(shl(0xa0, 0x01), 0x01)\n        /* \"contracts/liquidityMining/KyberFairLaunch.sol\":13087:13144  EmergencyWithdraw(msg.sender, _pid, block.number, amount) */\n      and\n      0x2369db1bafee945aee5630782f4a170682e3f8188d8dc247a4c73eb8c9e692d2\n        /* \"contracts/liquidityMining/KyberFairLaunch.sol\":13137:13143  amount */\n      dup5\n        /* \"contracts/liquidityMining/KyberFairLaunch.sol\":13087:13144  EmergencyWithdraw(msg.sender, _pid, block.number, amount) */\n      mload(0x40)\n      tag_251\n      swap2\n      swap1\n      tag_36\n      jump\t// in\n    tag_251:\n      mload(0x40)\n      dup1\n      swap2\n      sub\n      swap1\n      log4\n      pop\n      pop\n        /* \"@openzeppelin/contracts/utils/ReentrancyGuard.sol\":1645:1646  1 */\n      0x01\n        /* \"@openzeppelin/contracts/utils/ReentrancyGuard.sol\":2580:2587  _status */\n      0x02\n        /* \"@openzeppelin/contracts/utils/ReentrancyGuard.sol\":2580:2602  _status = _NOT_ENTERED */\n      sstore\n      pop\n      pop\n        /* \"contracts/liquidityMining/KyberFairLaunch.sol\":12410:13152  function emergencyWithdraw(uint256 _pid) external override nonReentrant {\r... */\n      jump\t// out\n        /* \"contracts/manual/PermissionAdmin.sol\":661:864  function transferAdmin(address newAdmin) public onlyAdmin {\r... */\n    tag_95:\n        /* \"contracts/manual/PermissionAdmin.sol\":462:467  admin */\n      and(sub(shl(0xa0, 0x01), 0x01), sload(0x00))\n        /* \"contracts/manual/PermissionAdmin.sol\":448:458  msg.sender */\n      caller\n        /* \"contracts/manual/PermissionAdmin.sol\":448:467  msg.sender == admin */\n      eq\n        /* \"contracts/manual/PermissionAdmin.sol\":440:482  require(msg.sender == admin, \"only admin\") */\n      tag_253\n      jumpi\n      0x40\n      dup1\n      mload\n      shl(0xe5, 0x461bcd)\n      dup2\n      mstore\n      0x20\n      0x04\n      dup3\n      add\n      mstore\n      0x0a\n      0x24\n      dup3\n      add\n      mstore\n      shl(0xb1, 0x37b7363c9030b236b4b7)\n      0x44\n      dup3\n      add\n      mstore\n      swap1\n      mload\n      swap1\n      dup2\n      swap1\n      sub\n      0x64\n      add\n      swap1\n      revert\n    tag_253:\n      sub(shl(0xa0, 0x01), 0x01)\n        /* \"contracts/manual/PermissionAdmin.sol\":738:760  newAdmin != address(0) */\n      dup2\n      and\n        /* \"contracts/manual/PermissionAdmin.sol\":730:776  require(newAdmin != address(0), \"new admin 0\") */\n      tag_255\n      jumpi\n      0x40\n      dup1\n      mload\n      shl(0xe5, 0x461bcd)\n      dup2\n      mstore\n      0x20\n      0x04\n      dup3\n      add\n      mstore\n      0x0b\n      0x24\n      dup3\n      add\n      mstore\n      shl(0xac, 0x06e65772061646d696e203)\n      0x44\n      dup3\n      add\n      mstore\n      swap1\n      mload\n      swap1\n      dup2\n      swap1\n      sub\n      0x64\n      add\n      swap1\n      revert\n    tag_255:\n        /* \"contracts/manual/PermissionAdmin.sol\":792:822  TransferAdminPending(newAdmin) */\n      0x40\n      dup1\n      mload\n      sub(shl(0xa0, 0x01), 0x01)\n      dup4\n      and\n      dup2\n      mstore\n      swap1\n      mload\n      0x3b81caf78fa51ecbc8acb482fd7012a277b428d9b80f9d156e8a54107496cc40\n      swap2\n      dup2\n      swap1\n      sub\n      0x20\n      add\n      swap1\n      log1\n        /* \"contracts/manual/PermissionAdmin.sol\":833:845  pendingAdmin */\n      0x01\n        /* \"contracts/manual/PermissionAdmin.sol\":833:856  pendingAdmin = newAdmin */\n      dup1\n      sload\n      not(sub(shl(0xa0, 0x01), 0x01))\n      and\n      sub(shl(0xa0, 0x01), 0x01)\n      swap3\n      swap1\n      swap3\n      and\n      swap2\n      swap1\n      swap2\n      or\n      swap1\n      sstore\n        /* \"contracts/manual/PermissionAdmin.sol\":661:864  function transferAdmin(address newAdmin) public onlyAdmin {\r... */\n      jump\t// out\n        /* \"contracts/manual/PermissionAdmin.sol\":1398:1612  function claimAdmin() public {\r... */\n    tag_98:\n        /* \"contracts/manual/PermissionAdmin.sol\":1446:1458  pendingAdmin */\n      and(sub(shl(0xa0, 0x01), 0x01), sload(0x01))\n        /* \"contracts/manual/PermissionAdmin.sol\":1462:1472  msg.sender */\n      caller\n        /* \"contracts/manual/PermissionAdmin.sol\":1446:1472  pendingAdmin == msg.sender */\n      eq\n        /* \"contracts/manual/PermissionAdmin.sol\":1438:1488  require(pendingAdmin == msg.sender, \"not pending\") */\n      tag_257\n      jumpi\n      0x40\n      dup1\n      mload\n      shl(0xe5, 0x461bcd)\n      dup2\n      mstore\n      0x20\n      0x04\n      dup3\n      add\n      mstore\n      0x0b\n      0x24\n      dup3\n      add\n      mstore\n      shl(0xa8, 0x6e6f742070656e64696e67)\n      0x44\n      dup3\n      add\n      mstore\n      swap1\n      mload\n      swap1\n      dup2\n      swap1\n      sub\n      0x64\n      add\n      swap1\n      revert\n    tag_257:\n        /* \"contracts/manual/PermissionAdmin.sol\":1517:1529  pendingAdmin */\n      sload(0x01)\n      0x00\n        /* \"contracts/manual/PermissionAdmin.sol\":1531:1536  admin */\n      sload\n        /* \"contracts/manual/PermissionAdmin.sol\":1504:1537  AdminClaimed(pendingAdmin, admin) */\n      0x40\n      dup1\n      mload\n      sub(shl(0xa0, 0x01), 0x01)\n        /* \"contracts/manual/PermissionAdmin.sol\":1517:1529  pendingAdmin */\n      swap4\n      dup5\n      and\n        /* \"contracts/manual/PermissionAdmin.sol\":1504:1537  AdminClaimed(pendingAdmin, admin) */\n      dup2\n      mstore\n        /* \"contracts/manual/PermissionAdmin.sol\":1531:1536  admin */\n      swap3\n      swap1\n      swap2\n      and\n        /* \"contracts/manual/PermissionAdmin.sol\":1504:1537  AdminClaimed(pendingAdmin, admin) */\n      0x20\n      dup4\n      add\n      mstore\n      dup1\n      mload\n      0x65da1cfc2c2e81576ad96afb24a581f8e109b7a403b35cbd3243a1c99efdb9ed\n      swap3\n      dup2\n      swap1\n      sub\n      swap1\n      swap2\n      add\n      swap1\n      log1\n        /* \"contracts/manual/PermissionAdmin.sol\":1556:1568  pendingAdmin */\n      0x01\n      dup1\n      sload\n      0x00\n        /* \"contracts/manual/PermissionAdmin.sol\":1548:1568  admin = pendingAdmin */\n      dup1\n      sload\n      not(sub(shl(0xa0, 0x01), 0x01))\n      swap1\n      dup2\n      and\n      sub(shl(0xa0, 0x01), 0x01)\n        /* \"contracts/manual/PermissionAdmin.sol\":1556:1568  pendingAdmin */\n      dup5\n      and\n        /* \"contracts/manual/PermissionAdmin.sol\":1548:1568  admin = pendingAdmin */\n      or\n      swap1\n      swap2\n      sstore\n        /* \"contracts/manual/PermissionAdmin.sol\":1579:1604  pendingAdmin = address(0) */\n      and\n      swap1\n      sstore\n        /* \"contracts/manual/PermissionAdmin.sol\":1398:1612  function claimAdmin() public {\r... */\n      jump\t// out\n        /* \"contracts/manual/PermissionAdmin.sol\":1045:1289  function transferAdminQuickly(address newAdmin) public onlyAdmin {\r... */\n    tag_102:\n        /* \"contracts/manual/PermissionAdmin.sol\":462:467  admin */\n      and(sub(shl(0xa0, 0x01), 0x01), sload(0x00))\n        /* \"contracts/manual/PermissionAdmin.sol\":448:458  msg.sender */\n      caller\n        /* \"contracts/manual/PermissionAdmin.sol\":448:467  msg.sender == admin */\n      eq\n        /* \"contracts/manual/PermissionAdmin.sol\":440:482  require(msg.sender == admin, \"only admin\") */\n      tag_259\n      jumpi\n      0x40\n      dup1\n      mload\n      shl(0xe5, 0x461bcd)\n      dup2\n      mstore\n      0x20\n      0x04\n      dup3\n      add\n      mstore\n      0x0a\n      0x24\n      dup3\n      add\n      mstore\n      shl(0xb1, 0x37b7363c9030b236b4b7)\n      0x44\n      dup3\n      add\n      mstore\n      swap1\n      mload\n      swap1\n      dup2\n      swap1\n      sub\n      0x64\n      add\n      swap1\n      revert\n    tag_259:\n      sub(shl(0xa0, 0x01), 0x01)\n        /* \"contracts/manual/PermissionAdmin.sol\":1129:1151  newAdmin != address(0) */\n      dup2\n      and\n        /* \"contracts/manual/PermissionAdmin.sol\":1121:1163  require(newAdmin != address(0), \"admin 0\") */\n      tag_261\n      jumpi\n      0x40\n      dup1\n      mload\n      shl(0xe5, 0x461bcd)\n      dup2\n      mstore\n      0x20\n      0x04\n      dup3\n      add\n      mstore\n      0x07\n      0x24\n      dup3\n      add\n      mstore\n      shl(0xcc, 0x061646d696e203)\n      0x44\n      dup3\n      add\n      mstore\n      swap1\n      mload\n      swap1\n      dup2\n      swap1\n      sub\n      0x64\n      add\n      swap1\n      revert\n    tag_261:\n        /* \"contracts/manual/PermissionAdmin.sol\":1179:1209  TransferAdminPending(newAdmin) */\n      0x40\n      dup1\n      mload\n      sub(shl(0xa0, 0x01), 0x01)\n      dup4\n      and\n      dup2\n      mstore\n      swap1\n      mload\n      0x3b81caf78fa51ecbc8acb482fd7012a277b428d9b80f9d156e8a54107496cc40\n      swap2\n      dup2\n      swap1\n      sub\n      0x20\n      add\n      swap1\n      log1\n        /* \"contracts/manual/PermissionAdmin.sol\":1248:1253  admin */\n      sload(0x00)\n        /* \"contracts/manual/PermissionAdmin.sol\":1225:1254  AdminClaimed(newAdmin, admin) */\n      0x40\n      dup1\n      mload\n      sub(shl(0xa0, 0x01), 0x01)\n      dup1\n      dup6\n      and\n      dup3\n      mstore\n        /* \"contracts/manual/PermissionAdmin.sol\":1248:1253  admin */\n      swap1\n      swap3\n      and\n        /* \"contracts/manual/PermissionAdmin.sol\":1225:1254  AdminClaimed(newAdmin, admin) */\n      0x20\n      dup4\n      add\n      mstore\n      dup1\n      mload\n      0x65da1cfc2c2e81576ad96afb24a581f8e109b7a403b35cbd3243a1c99efdb9ed\n      swap3\n      dup2\n      swap1\n      sub\n      swap1\n      swap2\n      add\n      swap1\n      log1\n        /* \"contracts/manual/PermissionAdmin.sol\":1265:1270  admin */\n      0x00\n        /* \"contracts/manual/PermissionAdmin.sol\":1265:1281  admin = newAdmin */\n      dup1\n      sload\n      not(sub(shl(0xa0, 0x01), 0x01))\n      and\n      sub(shl(0xa0, 0x01), 0x01)\n      swap3\n      swap1\n      swap3\n      and\n      swap2\n      swap1\n      swap2\n      or\n      swap1\n      sstore\n        /* \"contracts/manual/PermissionAdmin.sol\":1045:1289  function transferAdminQuickly(address newAdmin) public onlyAdmin {\r... */\n      jump\t// out\n        /* \"contracts/liquidityMining/KyberFairLaunch.sol\":3464:3493  address[] public rewardTokens */\n    tag_106:\n      0x04\n      dup2\n      dup2\n      sload\n      dup2\n      lt\n      tag_262\n      jumpi\n      0x00\n      dup1\n      revert\n    tag_262:\n      0x00\n      swap2\n      dup3\n      mstore\n      0x20\n      swap1\n      swap2\n      keccak256\n      add\n      sload\n      sub(shl(0xa0, 0x01), 0x01)\n      and\n      swap1\n      pop\n      dup2\n      jump\t// out\n        /* \"contracts/liquidityMining/KyberFairLaunch.sol\":12016:12151  function withdrawAll(uint256 _pid) external override nonReentrant {\r... */\n    tag_111:\n        /* \"@openzeppelin/contracts/utils/ReentrancyGuard.sol\":1688:1689  2 */\n      0x02\n        /* \"@openzeppelin/contracts/utils/ReentrancyGuard.sol\":2277:2284  _status */\n      dup1\n      sload\n        /* \"@openzeppelin/contracts/utils/ReentrancyGuard.sol\":2277:2296  _status != _ENTERED */\n      eq\n      iszero\n        /* \"@openzeppelin/contracts/utils/ReentrancyGuard.sol\":2269:2332  require(_status != _ENTERED, \"ReentrancyGuard: reentrant call\") */\n      tag_265\n      jumpi\n      0x40\n      dup1\n      mload\n      shl(0xe5, 0x461bcd)\n      dup2\n      mstore\n      0x20\n      0x04\n      dup3\n      add\n      mstore\n      0x1f\n      0x24\n      dup3\n      add\n      mstore\n      0x00\n      dup1\n      mload\n      0x20\n      data_0d74825aecb0211bbe1f02ccfb998d9e49771bedb2c6414e20fd8978a2e0f54c\n      dup4\n      codecopy\n      dup2\n      mload\n      swap2\n      mstore\n      0x44\n      dup3\n      add\n      mstore\n      swap1\n      mload\n      swap1\n      dup2\n      swap1\n      sub\n      0x64\n      add\n      swap1\n      revert\n    tag_265:\n        /* \"@openzeppelin/contracts/utils/ReentrancyGuard.sol\":1688:1689  2 */\n      0x02\n        /* \"@openzeppelin/contracts/utils/ReentrancyGuard.sol\":2407:2425  _status = _ENTERED */\n      dup1\n      sstore\n        /* \"contracts/liquidityMining/KyberFairLaunch.sol\":12109:12123  userInfo[_pid] */\n      0x00\n      dup2\n      dup2\n      mstore\n        /* \"contracts/liquidityMining/KyberFairLaunch.sol\":12109:12117  userInfo */\n      0x07\n        /* \"contracts/liquidityMining/KyberFairLaunch.sol\":12109:12123  userInfo[_pid] */\n      0x20\n      swap1\n      dup2\n      mstore\n      0x40\n      dup1\n      dup4\n      keccak256\n        /* \"contracts/liquidityMining/KyberFairLaunch.sol\":12124:12134  msg.sender */\n      caller\n        /* \"contracts/liquidityMining/KyberFairLaunch.sol\":12109:12135  userInfo[_pid][msg.sender] */\n      dup5\n      mstore\n      swap1\n      swap2\n      mstore\n      swap1\n      keccak256\n        /* \"contracts/liquidityMining/KyberFairLaunch.sol\":12109:12142  userInfo[_pid][msg.sender].amount */\n      sload\n        /* \"contracts/liquidityMining/KyberFairLaunch.sol\":12093:12143  _withdraw(_pid, userInfo[_pid][msg.sender].amount) */\n      tag_267\n      swap1\n        /* \"contracts/liquidityMining/KyberFairLaunch.sol\":12103:12107  _pid */\n      dup3\n      swap1\n        /* \"contracts/liquidityMining/KyberFairLaunch.sol\":12093:12102  _withdraw */\n      tag_209\n        /* \"contracts/liquidityMining/KyberFairLaunch.sol\":12093:12143  _withdraw(_pid, userInfo[_pid][msg.sender].amount) */\n      jump\t// in\n    tag_267:\n      pop\n        /* \"@openzeppelin/contracts/utils/ReentrancyGuard.sol\":1645:1646  1 */\n      0x01\n        /* \"@openzeppelin/contracts/utils/ReentrancyGuard.sol\":2580:2587  _status */\n      0x02\n        /* \"@openzeppelin/contracts/utils/ReentrancyGuard.sol\":2580:2602  _status = _NOT_ENTERED */\n      sstore\n        /* \"contracts/liquidityMining/KyberFairLaunch.sol\":12016:12151  function withdrawAll(uint256 _pid) external override nonReentrant {\r... */\n      jump\t// out\n        /* \"contracts/liquidityMining/KyberFairLaunch.sol\":18840:19808  function updatePoolRewards(uint256 _pid) public override {\r... */\n    tag_115:\n        /* \"contracts/liquidityMining/KyberFairLaunch.sol\":18923:18933  poolLength */\n      sload(0x05)\n        /* \"contracts/liquidityMining/KyberFairLaunch.sol\":18916:18920  _pid */\n      dup2\n        /* \"contracts/liquidityMining/KyberFairLaunch.sol\":18916:18933  _pid < poolLength */\n      lt\n        /* \"contracts/liquidityMining/KyberFairLaunch.sol\":18908:18953  require(_pid < poolLength, \"invalid pool id\") */\n      tag_269\n      jumpi\n      mload(0x40)\n      shl(0xe5, 0x461bcd)\n      dup2\n      mstore\n      0x04\n      add\n      tag_175\n      swap1\n      tag_271\n      jump\t// in\n    tag_269:\n        /* \"contracts/liquidityMining/KyberFairLaunch.sol\":18964:18985  PoolInfo storage pool */\n      0x00\n        /* \"contracts/liquidityMining/KyberFairLaunch.sol\":18988:19002  poolInfo[_pid] */\n      dup2\n      dup2\n      mstore\n        /* \"contracts/liquidityMining/KyberFairLaunch.sol\":18988:18996  poolInfo */\n      0x06\n        /* \"contracts/liquidityMining/KyberFairLaunch.sol\":18988:19002  poolInfo[_pid] */\n      0x20\n      mstore\n      0x40\n      dup2\n      keccak256\n      swap1\n        /* \"contracts/liquidityMining/KyberFairLaunch.sol\":19041:19072  _lastAccountedRewardBlock(_pid) */\n      tag_272\n        /* \"contracts/liquidityMining/KyberFairLaunch.sol\":18997:19001  _pid */\n      dup4\n        /* \"contracts/liquidityMining/KyberFairLaunch.sol\":19041:19066  _lastAccountedRewardBlock */\n      tag_273\n        /* \"contracts/liquidityMining/KyberFairLaunch.sol\":19041:19072  _lastAccountedRewardBlock(_pid) */\n      jump\t// in\n    tag_272:\n        /* \"contracts/liquidityMining/KyberFairLaunch.sol\":19109:19129  pool.lastRewardBlock */\n      0x01\n      dup4\n      add\n      sload\n        /* \"contracts/liquidityMining/KyberFairLaunch.sol\":19013:19072  uint32 lastAccountedBlock = _lastAccountedRewardBlock(_pid) */\n      swap1\n      swap2\n      pop\n        /* \"contracts/liquidityMining/KyberFairLaunch.sol\":19109:19129  pool.lastRewardBlock */\n      0xffffffff\n      shl(0xe0, 0x01)\n      swap1\n      swap2\n      div\n      dup2\n      and\n        /* \"contracts/liquidityMining/KyberFairLaunch.sol\":19087:19129  lastAccountedBlock <= pool.lastRewardBlock */\n      swap1\n      dup3\n      and\n      gt\n        /* \"contracts/liquidityMining/KyberFairLaunch.sol\":19083:19138  if (lastAccountedBlock <= pool.lastRewardBlock) return; */\n      tag_274\n      jumpi\n        /* \"contracts/liquidityMining/KyberFairLaunch.sol\":19131:19138  return; */\n      pop\n      pop\n      jump(tag_268)\n        /* \"contracts/liquidityMining/KyberFairLaunch.sol\":19083:19138  if (lastAccountedBlock <= pool.lastRewardBlock) return; */\n    tag_274:\n        /* \"contracts/liquidityMining/KyberFairLaunch.sol\":19170:19185  pool.totalStake */\n      dup2\n      sload\n        /* \"contracts/liquidityMining/KyberFairLaunch.sol\":19200:19216  _totalStake == 0 */\n      dup1\n        /* \"contracts/liquidityMining/KyberFairLaunch.sol\":19196:19307  if (_totalStake == 0) {\r... */\n      tag_275\n      jumpi\n      pop\n        /* \"contracts/liquidityMining/KyberFairLaunch.sol\":19233:19253  pool.lastRewardBlock */\n      0x01\n      swap1\n      swap2\n      add\n        /* \"contracts/liquidityMining/KyberFairLaunch.sol\":19233:19274  pool.lastRewardBlock = lastAccountedBlock */\n      dup1\n      sload\n      0xffffffff\n      swap1\n      swap3\n      and\n      shl(0xe0, 0x01)\n      mul\n      sub(shl(0xe0, 0x01), 0x01)\n      swap1\n      swap3\n      and\n      swap2\n      swap1\n      swap2\n      or\n      swap1\n      sstore\n        /* \"contracts/liquidityMining/KyberFairLaunch.sol\":19289:19296  return; */\n      jump(tag_268)\n        /* \"contracts/liquidityMining/KyberFairLaunch.sol\":19196:19307  if (_totalStake == 0) {\r... */\n    tag_275:\n        /* \"contracts/liquidityMining/KyberFairLaunch.sol\":19361:19381  pool.lastRewardBlock */\n      0x01\n      dup4\n      add\n      sload\n      0xffffffff\n      shl(0xe0, 0x01)\n      swap1\n      swap2\n      div\n      dup2\n      and\n        /* \"contracts/liquidityMining/KyberFairLaunch.sol\":19340:19381  lastAccountedBlock - pool.lastRewardBlock */\n      dup4\n      sub\n        /* \"contracts/liquidityMining/KyberFairLaunch.sol\":19317:19381  uint256 numberBlocks = lastAccountedBlock - pool.lastRewardBlock */\n      and\n        /* \"contracts/liquidityMining/KyberFairLaunch.sol\":19317:19337  uint256 numberBlocks */\n      0x00\n        /* \"contracts/liquidityMining/KyberFairLaunch.sol\":19392:19749  for (uint256 i = 0; i < rewardTokens.length; i++) {\r... */\n    tag_276:\n        /* \"contracts/liquidityMining/KyberFairLaunch.sol\":19416:19428  rewardTokens */\n      0x04\n        /* \"contracts/liquidityMining/KyberFairLaunch.sol\":19416:19435  rewardTokens.length */\n      sload\n        /* \"contracts/liquidityMining/KyberFairLaunch.sol\":19412:19435  i < rewardTokens.length */\n      dup2\n      lt\n        /* \"contracts/liquidityMining/KyberFairLaunch.sol\":19392:19749  for (uint256 i = 0; i < rewardTokens.length; i++) {\r... */\n      iszero\n      tag_277\n      jumpi\n        /* \"contracts/liquidityMining/KyberFairLaunch.sol\":19457:19490  PoolRewardData storage rewardData */\n      0x00\n        /* \"contracts/liquidityMining/KyberFairLaunch.sol\":19493:19515  pool.poolRewardData[i] */\n      dup2\n      dup2\n      mstore\n        /* \"contracts/liquidityMining/KyberFairLaunch.sol\":19493:19512  pool.poolRewardData */\n      0x02\n      dup7\n      add\n        /* \"contracts/liquidityMining/KyberFairLaunch.sol\":19493:19515  pool.poolRewardData[i] */\n      0x20\n      mstore\n      0x40\n      dup2\n      keccak256\n        /* \"contracts/liquidityMining/KyberFairLaunch.sol\":19564:19589  rewardData.rewardPerBlock */\n      dup1\n      sload\n        /* \"contracts/liquidityMining/KyberFairLaunch.sol\":19493:19515  pool.poolRewardData[i] */\n      swap1\n      swap2\n        /* \"contracts/liquidityMining/KyberFairLaunch.sol\":19457:19490  PoolRewardData storage rewardData */\n      swap1\n        /* \"contracts/liquidityMining/KyberFairLaunch.sol\":19547:19590  numberBlocks.mul(rewardData.rewardPerBlock) */\n      tag_279\n      swap1\n        /* \"contracts/liquidityMining/KyberFairLaunch.sol\":19547:19559  numberBlocks */\n      dup6\n      swap1\n        /* \"contracts/liquidityMining/KyberFairLaunch.sol\":19547:19563  numberBlocks.mul */\n      tag_280\n        /* \"contracts/liquidityMining/KyberFairLaunch.sol\":19547:19590  numberBlocks.mul(rewardData.rewardPerBlock) */\n      jump\t// in\n    tag_279:\n        /* \"contracts/liquidityMining/KyberFairLaunch.sol\":19530:19590  uint256 reward = numberBlocks.mul(rewardData.rewardPerBlock) */\n      swap1\n      pop\n        /* \"contracts/liquidityMining/KyberFairLaunch.sol\":19636:19737  rewardData.accRewardPerShare.add(\r... */\n      tag_281\n        /* \"contracts/liquidityMining/KyberFairLaunch.sol\":19711:19722  _totalStake */\n      dup6\n        /* \"contracts/liquidityMining/KyberFairLaunch.sol\":19687:19708  reward.mul(PRECISION) */\n      tag_282\n        /* \"contracts/liquidityMining/KyberFairLaunch.sol\":19530:19590  uint256 reward = numberBlocks.mul(rewardData.rewardPerBlock) */\n      dup4\n        /* \"contracts/liquidityMining/KyberFairLaunch.sol\":1292:1296  1e12 */\n      0xe8d4a51000\n        /* \"contracts/liquidityMining/KyberFairLaunch.sol\":19687:19697  reward.mul */\n      tag_280\n        /* \"contracts/liquidityMining/KyberFairLaunch.sol\":19687:19708  reward.mul(PRECISION) */\n      jump\t// in\n    tag_282:\n        /* \"contracts/liquidityMining/KyberFairLaunch.sol\":19687:19722  reward.mul(PRECISION) / _totalStake */\n      dup2\n      tag_283\n      jumpi\n      invalid\n    tag_283:\n        /* \"contracts/liquidityMining/KyberFairLaunch.sol\":19636:19664  rewardData.accRewardPerShare */\n      0x01\n      dup6\n      add\n      sload\n      swap2\n        /* \"contracts/liquidityMining/KyberFairLaunch.sol\":19687:19722  reward.mul(PRECISION) / _totalStake */\n      swap1\n      div\n        /* \"contracts/liquidityMining/KyberFairLaunch.sol\":19636:19668  rewardData.accRewardPerShare.add */\n      tag_202\n        /* \"contracts/liquidityMining/KyberFairLaunch.sol\":19636:19737  rewardData.accRewardPerShare.add(\r... */\n      jump\t// in\n    tag_281:\n        /* \"contracts/liquidityMining/KyberFairLaunch.sol\":19605:19633  rewardData.accRewardPerShare */\n      0x01\n      swap3\n      dup4\n      add\n        /* \"contracts/liquidityMining/KyberFairLaunch.sol\":19605:19737  rewardData.accRewardPerShare = rewardData.accRewardPerShare.add(\r... */\n      sstore\n      pop\n        /* \"contracts/liquidityMining/KyberFairLaunch.sol\":19437:19440  i++ */\n      add\n        /* \"contracts/liquidityMining/KyberFairLaunch.sol\":19392:19749  for (uint256 i = 0; i < rewardTokens.length; i++) {\r... */\n      jump(tag_276)\n    tag_277:\n      pop\n      pop\n      pop\n        /* \"contracts/liquidityMining/KyberFairLaunch.sol\":19759:19779  pool.lastRewardBlock */\n      0x01\n      swap1\n      swap2\n      add\n        /* \"contracts/liquidityMining/KyberFairLaunch.sol\":19759:19800  pool.lastRewardBlock = lastAccountedBlock */\n      dup1\n      sload\n      0xffffffff\n      swap1\n      swap3\n      and\n      shl(0xe0, 0x01)\n      mul\n      sub(shl(0xe0, 0x01), 0x01)\n      swap1\n      swap3\n      and\n      swap2\n      swap1\n      swap2\n      or\n      swap1\n      sstore\n        /* \"contracts/liquidityMining/KyberFairLaunch.sol\":18840:19808  function updatePoolRewards(uint256 _pid) public override {\r... */\n    tag_268:\n      pop\n      jump\t// out\n        /* \"contracts/liquidityMining/KyberFairLaunch.sol\":9560:10462  function updatePool(\r... */\n    tag_120:\n        /* \"contracts/manual/PermissionAdmin.sol\":462:467  admin */\n      and(sub(shl(0xa0, 0x01), 0x01), sload(0x00))\n        /* \"contracts/manual/PermissionAdmin.sol\":448:458  msg.sender */\n      caller\n        /* \"contracts/manual/PermissionAdmin.sol\":448:467  msg.sender == admin */\n      eq\n        /* \"contracts/manual/PermissionAdmin.sol\":440:482  require(msg.sender == admin, \"only admin\") */\n      tag_285\n      jumpi\n      0x40\n      dup1\n      mload\n      shl(0xe5, 0x461bcd)\n      dup2\n      mstore\n      0x20\n      0x04\n      dup3\n      add\n      mstore\n      0x0a\n      0x24\n      dup3\n      add\n      mstore\n      shl(0xb1, 0x37b7363c9030b236b4b7)\n      0x44\n      dup3\n      add\n      mstore\n      swap1\n      mload\n      swap1\n      dup2\n      swap1\n      sub\n      0x64\n      add\n      swap1\n      revert\n    tag_285:\n        /* \"contracts/liquidityMining/KyberFairLaunch.sol\":9722:9745  updatePoolRewards(_pid) */\n      tag_287\n        /* \"contracts/liquidityMining/KyberFairLaunch.sol\":9740:9744  _pid */\n      dup5\n        /* \"contracts/liquidityMining/KyberFairLaunch.sol\":9722:9739  updatePoolRewards */\n      tag_115\n        /* \"contracts/liquidityMining/KyberFairLaunch.sol\":9722:9745  updatePoolRewards(_pid) */\n      jump\t// in\n    tag_287:\n        /* \"contracts/liquidityMining/KyberFairLaunch.sol\":9758:9779  PoolInfo storage pool */\n      0x00\n        /* \"contracts/liquidityMining/KyberFairLaunch.sol\":9782:9796  poolInfo[_pid] */\n      dup5\n      dup2\n      mstore\n        /* \"contracts/liquidityMining/KyberFairLaunch.sol\":9782:9790  poolInfo */\n      0x06\n        /* \"contracts/liquidityMining/KyberFairLaunch.sol\":9782:9796  poolInfo[_pid] */\n      0x20\n      mstore\n      0x40\n      swap1\n      keccak256\n        /* \"contracts/liquidityMining/KyberFairLaunch.sol\":9874:9887  pool.endBlock */\n      0x01\n      dup2\n      add\n      sload\n        /* \"contracts/liquidityMining/KyberFairLaunch.sol\":9890:9902  block.number */\n      number\n      shl(0xc0, 0x01)\n        /* \"contracts/liquidityMining/KyberFairLaunch.sol\":9874:9887  pool.endBlock */\n      swap1\n      swap2\n      div\n      0xffffffff\n      and\n        /* \"contracts/liquidityMining/KyberFairLaunch.sol\":9874:9902  pool.endBlock > block.number */\n      gt\n        /* \"contracts/liquidityMining/KyberFairLaunch.sol\":9866:9933  require(pool.endBlock > block.number, \"update: pool already ended\") */\n      tag_288\n      jumpi\n      mload(0x40)\n      shl(0xe5, 0x461bcd)\n      dup2\n      mstore\n      0x04\n      add\n      tag_175\n      swap1\n      tag_290\n      jump\t// in\n    tag_288:\n        /* \"contracts/liquidityMining/KyberFairLaunch.sol\":9966:9978  rewardTokens */\n      0x04\n        /* \"contracts/liquidityMining/KyberFairLaunch.sol\":9966:9985  rewardTokens.length */\n      sload\n        /* \"contracts/liquidityMining/KyberFairLaunch.sol\":9966:10012  rewardTokens.length == _rewardPerBlocks.length */\n      dup3\n      eq\n        /* \"contracts/liquidityMining/KyberFairLaunch.sol\":9944:10062  require(\r... */\n      tag_291\n      jumpi\n      mload(0x40)\n      shl(0xe5, 0x461bcd)\n      dup2\n      mstore\n      0x04\n      add\n      tag_175\n      swap1\n      tag_293\n      jump\t// in\n    tag_291:\n        /* \"contracts/liquidityMining/KyberFairLaunch.sol\":10107:10119  block.number */\n      number\n        /* \"contracts/liquidityMining/KyberFairLaunch.sol\":10095:10104  _endBlock */\n      dup5\n        /* \"contracts/liquidityMining/KyberFairLaunch.sol\":10095:10119  _endBlock > block.number */\n      0xffffffff\n      and\n      gt\n        /* \"contracts/liquidityMining/KyberFairLaunch.sol\":10095:10150  _endBlock > block.number && _endBlock > pool.startBlock */\n      dup1\n      iszero\n      tag_294\n      jumpi\n      pop\n        /* \"contracts/liquidityMining/KyberFairLaunch.sol\":10135:10150  pool.startBlock */\n      0x01\n      dup2\n      add\n      sload\n      0xffffffff\n      shl(0xa0, 0x01)\n      swap1\n      swap2\n      div\n      dup2\n      and\n        /* \"contracts/liquidityMining/KyberFairLaunch.sol\":10123:10150  _endBlock > pool.startBlock */\n      swap1\n      dup6\n      and\n      gt\n        /* \"contracts/liquidityMining/KyberFairLaunch.sol\":10095:10150  _endBlock > block.number && _endBlock > pool.startBlock */\n    tag_294:\n        /* \"contracts/liquidityMining/KyberFairLaunch.sol\":10073:10203  require(\r... */\n      tag_295\n      jumpi\n      mload(0x40)\n      shl(0xe5, 0x461bcd)\n      dup2\n      mstore\n      0x04\n      add\n      tag_175\n      swap1\n      tag_297\n      jump\t// in\n    tag_295:\n        /* \"contracts/liquidityMining/KyberFairLaunch.sol\":10216:10229  pool.endBlock */\n      0x01\n      dup2\n      add\n        /* \"contracts/liquidityMining/KyberFairLaunch.sol\":10216:10241  pool.endBlock = _endBlock */\n      dup1\n      sload\n      not(shl(0xc0, 0xffffffff))\n      and\n      shl(0xc0, 0x01)\n      0xffffffff\n      dup8\n      and\n      mul\n      or\n      swap1\n      sstore\n      0x00\n        /* \"contracts/liquidityMining/KyberFairLaunch.sol\":10252:10392  for (uint256 i = 0; i < _rewardPerBlocks.length; i++) {\r... */\n    tag_298:\n        /* \"contracts/liquidityMining/KyberFairLaunch.sol\":10272:10299  i < _rewardPerBlocks.length */\n      dup3\n      dup2\n      lt\n        /* \"contracts/liquidityMining/KyberFairLaunch.sol\":10252:10392  for (uint256 i = 0; i < _rewardPerBlocks.length; i++) {\r... */\n      iszero\n      tag_299\n      jumpi\n        /* \"contracts/liquidityMining/KyberFairLaunch.sol\":10361:10377  _rewardPerBlocks */\n      dup4\n      dup4\n        /* \"contracts/liquidityMining/KyberFairLaunch.sol\":10378:10379  i */\n      dup3\n        /* \"contracts/liquidityMining/KyberFairLaunch.sol\":10361:10380  _rewardPerBlocks[i] */\n      dup2\n      dup2\n      lt\n      tag_301\n      jumpi\n      invalid\n    tag_301:\n        /* \"contracts/liquidityMining/KyberFairLaunch.sol\":10321:10343  pool.poolRewardData[i] */\n      0x00\n      dup5\n      dup2\n      mstore\n        /* \"contracts/liquidityMining/KyberFairLaunch.sol\":10321:10340  pool.poolRewardData */\n      0x02\n      dup7\n      add\n        /* \"contracts/liquidityMining/KyberFairLaunch.sol\":10361:10380  _rewardPerBlocks[i] */\n      0x20\n        /* \"contracts/liquidityMining/KyberFairLaunch.sol\":10321:10343  pool.poolRewardData[i] */\n      swap1\n      dup2\n      mstore\n      0x40\n      swap1\n      swap2\n      keccak256\n        /* \"contracts/liquidityMining/KyberFairLaunch.sol\":10361:10380  _rewardPerBlocks[i] */\n      swap2\n      mul\n      swap3\n      swap1\n      swap3\n      add\n      calldataload\n        /* \"contracts/liquidityMining/KyberFairLaunch.sol\":10321:10380  pool.poolRewardData[i].rewardPerBlock = _rewardPerBlocks[i] */\n      swap1\n      swap2\n      sstore\n      pop\n        /* \"contracts/liquidityMining/KyberFairLaunch.sol\":10301:10304  i++ */\n      0x01\n      add\n        /* \"contracts/liquidityMining/KyberFairLaunch.sol\":10252:10392  for (uint256 i = 0; i < _rewardPerBlocks.length; i++) {\r... */\n      jump(tag_298)\n    tag_299:\n      pop\n        /* \"contracts/liquidityMining/KyberFairLaunch.sol\":10426:10435  _endBlock */\n      dup4\n        /* \"contracts/liquidityMining/KyberFairLaunch.sol\":10409:10454  UpdatePool(_pid, _endBlock, _rewardPerBlocks) */\n      0xffffffff\n      and\n        /* \"contracts/liquidityMining/KyberFairLaunch.sol\":10420:10424  _pid */\n      dup6\n        /* \"contracts/liquidityMining/KyberFairLaunch.sol\":10409:10454  UpdatePool(_pid, _endBlock, _rewardPerBlocks) */\n      0xba2d8506275d684e80223910f1065a195ea279f37e27eb97ac24f4107eba6cf9\n        /* \"contracts/liquidityMining/KyberFairLaunch.sol\":10437:10453  _rewardPerBlocks */\n      dup6\n      dup6\n        /* \"contracts/liquidityMining/KyberFairLaunch.sol\":10409:10454  UpdatePool(_pid, _endBlock, _rewardPerBlocks) */\n      mload(0x40)\n      tag_302\n      swap3\n      swap2\n      swap1\n      tag_192\n      jump\t// in\n    tag_302:\n      mload(0x40)\n      dup1\n      swap2\n      sub\n      swap1\n      log3\n        /* \"contracts/manual/PermissionAdmin.sol\":493:494  _ */\n      pop\n        /* \"contracts/liquidityMining/KyberFairLaunch.sol\":9560:10462  function updatePool(\r... */\n      pop\n      pop\n      pop\n      pop\n      jump\t// out\n        /* \"contracts/liquidityMining/KyberFairLaunch.sol\":8082:9221  function renewPool(\r... */\n    tag_125:\n        /* \"contracts/manual/PermissionAdmin.sol\":462:467  admin */\n      and(sub(shl(0xa0, 0x01), 0x01), sload(0x00))\n        /* \"contracts/manual/PermissionAdmin.sol\":448:458  msg.sender */\n      caller\n        /* \"contracts/manual/PermissionAdmin.sol\":448:467  msg.sender == admin */\n      eq\n        /* \"contracts/manual/PermissionAdmin.sol\":440:482  require(msg.sender == admin, \"only admin\") */\n      tag_304\n      jumpi\n      0x40\n      dup1\n      mload\n      shl(0xe5, 0x461bcd)\n      dup2\n      mstore\n      0x20\n      0x04\n      dup3\n      add\n      mstore\n      0x0a\n      0x24\n      dup3\n      add\n      mstore\n      shl(0xb1, 0x37b7363c9030b236b4b7)\n      0x44\n      dup3\n      add\n      mstore\n      swap1\n      mload\n      swap1\n      dup2\n      swap1\n      sub\n      0x64\n      add\n      swap1\n      revert\n    tag_304:\n        /* \"contracts/liquidityMining/KyberFairLaunch.sol\":8272:8295  updatePoolRewards(_pid) */\n      tag_306\n        /* \"contracts/liquidityMining/KyberFairLaunch.sol\":8290:8294  _pid */\n      dup6\n        /* \"contracts/liquidityMining/KyberFairLaunch.sol\":8272:8289  updatePoolRewards */\n      tag_115\n        /* \"contracts/liquidityMining/KyberFairLaunch.sol\":8272:8295  updatePoolRewards(_pid) */\n      jump\t// in\n    tag_306:\n        /* \"contracts/liquidityMining/KyberFairLaunch.sol\":8308:8329  PoolInfo storage pool */\n      0x00\n        /* \"contracts/liquidityMining/KyberFairLaunch.sol\":8332:8346  poolInfo[_pid] */\n      dup6\n      dup2\n      mstore\n        /* \"contracts/liquidityMining/KyberFairLaunch.sol\":8332:8340  poolInfo */\n      0x06\n        /* \"contracts/liquidityMining/KyberFairLaunch.sol\":8332:8346  poolInfo[_pid] */\n      0x20\n      mstore\n      0x40\n      swap1\n      keccak256\n        /* \"contracts/liquidityMining/KyberFairLaunch.sol\":8438:8453  pool.startBlock */\n      0x01\n      dup2\n      add\n      sload\n        /* \"contracts/liquidityMining/KyberFairLaunch.sol\":8456:8468  block.number */\n      number\n      shl(0xa0, 0x01)\n        /* \"contracts/liquidityMining/KyberFairLaunch.sol\":8438:8453  pool.startBlock */\n      swap1\n      swap2\n      div\n      0xffffffff\n      and\n        /* \"contracts/liquidityMining/KyberFairLaunch.sol\":8438:8468  pool.startBlock > block.number */\n      gt\n      dup1\n        /* \"contracts/liquidityMining/KyberFairLaunch.sol\":8438:8500  pool.startBlock > block.number || pool.endBlock < block.number */\n      tag_307\n      jumpi\n      pop\n        /* \"contracts/liquidityMining/KyberFairLaunch.sol\":8472:8485  pool.endBlock */\n      0x01\n      dup2\n      add\n      sload\n        /* \"contracts/liquidityMining/KyberFairLaunch.sol\":8488:8500  block.number */\n      number\n      shl(0xc0, 0x01)\n        /* \"contracts/liquidityMining/KyberFairLaunch.sol\":8472:8485  pool.endBlock */\n      swap1\n      swap2\n      div\n      0xffffffff\n      and\n        /* \"contracts/liquidityMining/KyberFairLaunch.sol\":8472:8500  pool.endBlock < block.number */\n      lt\n        /* \"contracts/liquidityMining/KyberFairLaunch.sol\":8438:8500  pool.startBlock > block.number || pool.endBlock < block.number */\n    tag_307:\n        /* \"contracts/liquidityMining/KyberFairLaunch.sol\":8416:8562  require(\r... */\n      tag_308\n      jumpi\n      mload(0x40)\n      shl(0xe5, 0x461bcd)\n      dup2\n      mstore\n      0x04\n      add\n      tag_175\n      swap1\n      tag_310\n      jump\t// in\n    tag_308:\n        /* \"contracts/liquidityMining/KyberFairLaunch.sol\":8633:8645  rewardTokens */\n      0x04\n        /* \"contracts/liquidityMining/KyberFairLaunch.sol\":8633:8652  rewardTokens.length */\n      sload\n        /* \"contracts/liquidityMining/KyberFairLaunch.sol\":8633:8679  rewardTokens.length == _rewardPerBlocks.length */\n      dup3\n      eq\n        /* \"contracts/liquidityMining/KyberFairLaunch.sol\":8611:8728  require(\r... */\n      tag_311\n      jumpi\n      mload(0x40)\n      shl(0xe5, 0x461bcd)\n      dup2\n      mstore\n      0x04\n      add\n      tag_175\n      swap1\n      tag_313\n      jump\t// in\n    tag_311:\n        /* \"contracts/liquidityMining/KyberFairLaunch.sol\":8775:8787  block.number */\n      number\n        /* \"contracts/liquidityMining/KyberFairLaunch.sol\":8761:8772  _startBlock */\n      dup6\n        /* \"contracts/liquidityMining/KyberFairLaunch.sol\":8761:8787  _startBlock > block.number */\n      0xffffffff\n      and\n      gt\n        /* \"contracts/liquidityMining/KyberFairLaunch.sol\":8761:8814  _startBlock > block.number && _endBlock > _startBlock */\n      dup1\n      iszero\n      tag_314\n      jumpi\n      pop\n        /* \"contracts/liquidityMining/KyberFairLaunch.sol\":8803:8814  _startBlock */\n      dup5\n        /* \"contracts/liquidityMining/KyberFairLaunch.sol\":8791:8814  _endBlock > _startBlock */\n      0xffffffff\n      and\n        /* \"contracts/liquidityMining/KyberFairLaunch.sol\":8791:8800  _endBlock */\n      dup5\n        /* \"contracts/liquidityMining/KyberFairLaunch.sol\":8791:8814  _endBlock > _startBlock */\n      0xffffffff\n      and\n      gt\n        /* \"contracts/liquidityMining/KyberFairLaunch.sol\":8761:8814  _startBlock > block.number && _endBlock > _startBlock */\n    tag_314:\n        /* \"contracts/liquidityMining/KyberFairLaunch.sol\":8739:8863  require(\r... */\n      tag_315\n      jumpi\n      mload(0x40)\n      shl(0xe5, 0x461bcd)\n      dup2\n      mstore\n      0x04\n      add\n      tag_175\n      swap1\n      tag_317\n      jump\t// in\n    tag_315:\n        /* \"contracts/liquidityMining/KyberFairLaunch.sol\":8876:8891  pool.startBlock */\n      0x01\n      dup2\n      add\n        /* \"contracts/liquidityMining/KyberFairLaunch.sol\":8876:8905  pool.startBlock = _startBlock */\n      dup1\n      sload\n      not(shl(0xa0, 0xffffffff))\n      and\n      shl(0xa0, 0x01)\n      0xffffffff\n      dup9\n      dup2\n      and\n      swap2\n      dup3\n      mul\n      swap3\n      swap1\n      swap3\n      or\n      not(shl(0xc0, 0xffffffff))\n        /* \"contracts/liquidityMining/KyberFairLaunch.sol\":8916:8941  pool.endBlock = _endBlock */\n      and\n      shl(0xc0, 0x01)\n      swap3\n      dup9\n      and\n      swap3\n      swap1\n      swap3\n      mul\n      swap2\n      swap1\n      swap2\n      or\n      sub(shl(0xe0, 0x01), 0x01)\n        /* \"contracts/liquidityMining/KyberFairLaunch.sol\":8952:8986  pool.lastRewardBlock = _startBlock */\n      and\n      shl(0xe0, 0x01)\n      swap2\n      swap1\n      swap2\n      mul\n      or\n      swap1\n      sstore\n      0x00\n        /* \"contracts/liquidityMining/KyberFairLaunch.sol\":8999:9139  for (uint256 i = 0; i < _rewardPerBlocks.length; i++) {\r... */\n    tag_318:\n        /* \"contracts/liquidityMining/KyberFairLaunch.sol\":9019:9046  i < _rewardPerBlocks.length */\n      dup3\n      dup2\n      lt\n        /* \"contracts/liquidityMining/KyberFairLaunch.sol\":8999:9139  for (uint256 i = 0; i < _rewardPerBlocks.length; i++) {\r... */\n      iszero\n      tag_319\n      jumpi\n        /* \"contracts/liquidityMining/KyberFairLaunch.sol\":9108:9124  _rewardPerBlocks */\n      dup4\n      dup4\n        /* \"contracts/liquidityMining/KyberFairLaunch.sol\":9125:9126  i */\n      dup3\n        /* \"contracts/liquidityMining/KyberFairLaunch.sol\":9108:9127  _rewardPerBlocks[i] */\n      dup2\n      dup2\n      lt\n      tag_321\n      jumpi\n      invalid\n    tag_321:\n        /* \"contracts/liquidityMining/KyberFairLaunch.sol\":9068:9090  pool.poolRewardData[i] */\n      0x00\n      dup5\n      dup2\n      mstore\n        /* \"contracts/liquidityMining/KyberFairLaunch.sol\":9068:9087  pool.poolRewardData */\n      0x02\n      dup7\n      add\n        /* \"contracts/liquidityMining/KyberFairLaunch.sol\":9108:9127  _rewardPerBlocks[i] */\n      0x20\n        /* \"contracts/liquidityMining/KyberFairLaunch.sol\":9068:9090  pool.poolRewardData[i] */\n      swap1\n      dup2\n      mstore\n      0x40\n      swap1\n      swap2\n      keccak256\n        /* \"contracts/liquidityMining/KyberFairLaunch.sol\":9108:9127  _rewardPerBlocks[i] */\n      swap2\n      mul\n      swap3\n      swap1\n      swap3\n      add\n      calldataload\n        /* \"contracts/liquidityMining/KyberFairLaunch.sol\":9068:9127  pool.poolRewardData[i].rewardPerBlock = _rewardPerBlocks[i] */\n      swap1\n      swap2\n      sstore\n      pop\n        /* \"contracts/liquidityMining/KyberFairLaunch.sol\":9048:9051  i++ */\n      0x01\n      add\n        /* \"contracts/liquidityMining/KyberFairLaunch.sol\":8999:9139  for (uint256 i = 0; i < _rewardPerBlocks.length; i++) {\r... */\n      jump(tag_318)\n    tag_319:\n      pop\n        /* \"contracts/liquidityMining/KyberFairLaunch.sol\":9185:9194  _endBlock */\n      dup4\n        /* \"contracts/liquidityMining/KyberFairLaunch.sol\":9156:9213  RenewPool(_pid, _startBlock, _endBlock, _rewardPerBlocks) */\n      0xffffffff\n      and\n        /* \"contracts/liquidityMining/KyberFairLaunch.sol\":9172:9183  _startBlock */\n      dup6\n        /* \"contracts/liquidityMining/KyberFairLaunch.sol\":9156:9213  RenewPool(_pid, _startBlock, _endBlock, _rewardPerBlocks) */\n      0xffffffff\n      and\n        /* \"contracts/liquidityMining/KyberFairLaunch.sol\":9166:9170  _pid */\n      dup8\n        /* \"contracts/liquidityMining/KyberFairLaunch.sol\":9156:9213  RenewPool(_pid, _startBlock, _endBlock, _rewardPerBlocks) */\n      0x4f863dc93468acf71ff8f5770599fbead4d0ff8ea6bd0c3251576f68fdad0904\n        /* \"contracts/liquidityMining/KyberFairLaunch.sol\":9196:9212  _rewardPerBlocks */\n      dup7\n      dup7\n        /* \"contracts/liquidityMining/KyberFairLaunch.sol\":9156:9213  RenewPool(_pid, _startBlock, _endBlock, _rewardPerBlocks) */\n      mload(0x40)\n      tag_322\n      swap3\n      swap2\n      swap1\n      tag_192\n      jump\t// in\n    tag_322:\n      mload(0x40)\n      dup1\n      swap2\n      sub\n      swap1\n      log4\n        /* \"contracts/manual/PermissionAdmin.sol\":493:494  _ */\n      pop\n        /* \"contracts/liquidityMining/KyberFairLaunch.sol\":8082:9221  function renewPool(\r... */\n      pop\n      pop\n      pop\n      pop\n      pop\n      jump\t// out\n        /* \"contracts/liquidityMining/KyberFairLaunch.sol\":16434:16590  function getRewardTokens()\r... */\n    tag_128:\n        /* \"contracts/liquidityMining/KyberFairLaunch.sol\":16529:16545  address[] memory */\n      0x60\n        /* \"contracts/liquidityMining/KyberFairLaunch.sol\":16570:16582  rewardTokens */\n      0x04\n        /* \"contracts/liquidityMining/KyberFairLaunch.sol\":16563:16582  return rewardTokens */\n      dup1\n      sload\n      dup1\n      0x20\n      mul\n      0x20\n      add\n      mload(0x40)\n      swap1\n      dup2\n      add\n      0x40\n      mstore\n      dup1\n      swap3\n      swap2\n      swap1\n      dup2\n      dup2\n      mstore\n      0x20\n      add\n      dup3\n      dup1\n      sload\n      dup1\n      iszero\n      tag_324\n      jumpi\n      0x20\n      mul\n      dup3\n      add\n      swap2\n      swap1\n      0x00\n      mstore\n      keccak256(0x00, 0x20)\n      swap1\n    tag_325:\n      dup2\n      sload\n      sub(shl(0xa0, 0x01), 0x01)\n      and\n      dup2\n      mstore\n      0x01\n      swap1\n      swap2\n      add\n      swap1\n      0x20\n      add\n      dup1\n      dup4\n      gt\n      tag_325\n      jumpi\n    tag_324:\n      pop\n      pop\n      pop\n      pop\n      pop\n      swap1\n      pop\n        /* \"contracts/liquidityMining/KyberFairLaunch.sol\":16434:16590  function getRewardTokens()\r... */\n      swap1\n      jump\t// out\n        /* \"contracts/liquidityMining/KyberFairLaunch.sol\":5580:6034  function adminWithdraw(uint256 rewardTokenIndex, uint256 amount)\r... */\n    tag_134:\n        /* \"contracts/manual/PermissionAdmin.sol\":462:467  admin */\n      and(sub(shl(0xa0, 0x01), 0x01), sload(0x00))\n        /* \"contracts/manual/PermissionAdmin.sol\":448:458  msg.sender */\n      caller\n        /* \"contracts/manual/PermissionAdmin.sol\":448:467  msg.sender == admin */\n      eq\n        /* \"contracts/manual/PermissionAdmin.sol\":440:482  require(msg.sender == admin, \"only admin\") */\n      tag_327\n      jumpi\n      0x40\n      dup1\n      mload\n      shl(0xe5, 0x461bcd)\n      dup2\n      mstore\n      0x20\n      0x04\n      dup3\n      add\n      mstore\n      0x0a\n      0x24\n      dup3\n      add\n      mstore\n      shl(0xb1, 0x37b7363c9030b236b4b7)\n      0x44\n      dup3\n      add\n      mstore\n      swap1\n      mload\n      swap1\n      dup2\n      swap1\n      sub\n      0x64\n      add\n      swap1\n      revert\n    tag_327:\n        /* \"contracts/liquidityMining/KyberFairLaunch.sol\":5698:5719  IERC20Ext rewardToken */\n      0x00\n        /* \"contracts/liquidityMining/KyberFairLaunch.sol\":5732:5744  rewardTokens */\n      0x04\n        /* \"contracts/liquidityMining/KyberFairLaunch.sol\":5745:5761  rewardTokenIndex */\n      dup4\n        /* \"contracts/liquidityMining/KyberFairLaunch.sol\":5732:5762  rewardTokens[rewardTokenIndex] */\n      dup2\n      sload\n      dup2\n      lt\n      tag_329\n      jumpi\n      invalid\n    tag_329:\n      0x00\n      swap2\n      dup3\n      mstore\n      0x20\n      swap1\n      swap2\n      keccak256\n      add\n      sload\n      sub(shl(0xa0, 0x01), 0x01)\n      and\n      swap1\n      pop\n        /* \"contracts/liquidityMining/KyberFairLaunch.sol\":5778:5805  rewardToken == IERC20Ext(0) */\n      dup1\n        /* \"contracts/liquidityMining/KyberFairLaunch.sol\":5774:6027  if (rewardToken == IERC20Ext(0)) {\r... */\n      tag_331\n      jumpi\n        /* \"contracts/liquidityMining/KyberFairLaunch.sol\":5823:5835  bool success */\n      0x00\n        /* \"contracts/liquidityMining/KyberFairLaunch.sol\":5841:5851  msg.sender */\n      caller\n      sub(shl(0xa0, 0x01), 0x01)\n        /* \"contracts/liquidityMining/KyberFairLaunch.sol\":5841:5856  msg.sender.call */\n      and\n        /* \"contracts/liquidityMining/KyberFairLaunch.sol\":5864:5870  amount */\n      dup4\n        /* \"contracts/liquidityMining/KyberFairLaunch.sol\":5841:5875  msg.sender.call{value: amount}(\"\") */\n      mload(0x40)\n      tag_332\n      swap1\n      tag_333\n      jump\t// in\n    tag_332:\n      0x00\n      mload(0x40)\n      dup1\n      dup4\n      sub\n      dup2\n      dup6\n      dup8\n      gas\n      call\n      swap3\n      pop\n      pop\n      pop\n      returndatasize\n      dup1\n      0x00\n      dup2\n      eq\n      tag_336\n      jumpi\n      mload(0x40)\n      swap2\n      pop\n      and(add(returndatasize, 0x3f), not(0x1f))\n      dup3\n      add\n      0x40\n      mstore\n      returndatasize\n      dup3\n      mstore\n      returndatasize\n      0x00\n      0x20\n      dup5\n      add\n      returndatacopy\n      jump(tag_335)\n    tag_336:\n      0x60\n      swap2\n      pop\n    tag_335:\n      pop\n        /* \"contracts/liquidityMining/KyberFairLaunch.sol\":5822:5875  (bool success, ) = msg.sender.call{value: amount}(\"\") */\n      pop\n      swap1\n      pop\n        /* \"contracts/liquidityMining/KyberFairLaunch.sol\":5898:5905  success */\n      dup1\n        /* \"contracts/liquidityMining/KyberFairLaunch.sol\":5890:5938  require(success, \"transfer reward token failed\") */\n      tag_337\n      jumpi\n      mload(0x40)\n      shl(0xe5, 0x461bcd)\n      dup2\n      mstore\n      0x04\n      add\n      tag_175\n      swap1\n      tag_339\n      jump\t// in\n    tag_337:\n        /* \"contracts/liquidityMining/KyberFairLaunch.sol\":5774:6027  if (rewardToken == IERC20Ext(0)) {\r... */\n      pop\n      jump(tag_341)\n    tag_331:\n        /* \"contracts/liquidityMining/KyberFairLaunch.sol\":5971:6015  rewardToken.safeTransfer(msg.sender, amount) */\n      tag_341\n      sub(shl(0xa0, 0x01), 0x01)\n        /* \"contracts/liquidityMining/KyberFairLaunch.sol\":5971:5995  rewardToken.safeTransfer */\n      dup3\n      and\n        /* \"contracts/liquidityMining/KyberFairLaunch.sol\":5996:6006  msg.sender */\n      caller\n        /* \"contracts/liquidityMining/KyberFairLaunch.sol\":6008:6014  amount */\n      dup5\n        /* \"contracts/liquidityMining/KyberFairLaunch.sol\":5971:5995  rewardToken.safeTransfer */\n      tag_250\n        /* \"contracts/liquidityMining/KyberFairLaunch.sol\":5971:6015  rewardToken.safeTransfer(msg.sender, amount) */\n      jump\t// in\n    tag_341:\n        /* \"contracts/manual/PermissionAdmin.sol\":493:494  _ */\n      pop\n        /* \"contracts/liquidityMining/KyberFairLaunch.sol\":5580:6034  function adminWithdraw(uint256 rewardTokenIndex, uint256 amount)\r... */\n      pop\n      pop\n      jump\t// out\n        /* \"contracts/liquidityMining/KyberFairLaunch.sol\":14927:16369  function pendingRewards(uint256 _pid, address _user)\r... */\n    tag_138:\n        /* \"contracts/liquidityMining/KyberFairLaunch.sol\":15114:15126  rewardTokens */\n      0x04\n        /* \"contracts/liquidityMining/KyberFairLaunch.sol\":15114:15133  rewardTokens.length */\n      sload\n        /* \"contracts/liquidityMining/KyberFairLaunch.sol\":15048:15072  uint256[] memory rewards */\n      0x60\n      swap1\n        /* \"contracts/liquidityMining/KyberFairLaunch.sol\":15114:15133  rewardTokens.length */\n      dup1\n        /* \"contracts/liquidityMining/KyberFairLaunch.sol\":15154:15182  new uint256[](rTokensLength) */\n      0xffffffffffffffff\n      dup2\n      gt\n      dup1\n      iszero\n      tag_343\n      jumpi\n      0x00\n      dup1\n      revert\n    tag_343:\n      pop\n      mload(0x40)\n      swap1\n      dup1\n      dup3\n      mstore\n      dup1\n      0x20\n      mul\n      0x20\n      add\n      dup3\n      add\n      0x40\n      mstore\n      dup1\n      iszero\n      tag_344\n      jumpi\n      dup2\n      0x20\n      add\n      0x20\n      dup3\n      mul\n      dup1\n      calldatasize\n      dup4\n      calldatacopy\n      add\n      swap1\n      pop\n    tag_344:\n      pop\n        /* \"contracts/liquidityMining/KyberFairLaunch.sol\":15193:15214  PoolInfo storage pool */\n      0x00\n        /* \"contracts/liquidityMining/KyberFairLaunch.sol\":15217:15231  poolInfo[_pid] */\n      dup6\n      dup2\n      mstore\n        /* \"contracts/liquidityMining/KyberFairLaunch.sol\":15217:15225  poolInfo */\n      0x06\n        /* \"contracts/liquidityMining/KyberFairLaunch.sol\":15217:15231  poolInfo[_pid] */\n      0x20\n      swap1\n      dup2\n      mstore\n      0x40\n      dup1\n      dup4\n      keccak256\n        /* \"contracts/liquidityMining/KyberFairLaunch.sol\":15266:15274  userInfo */\n      0x07\n        /* \"contracts/liquidityMining/KyberFairLaunch.sol\":15266:15280  userInfo[_pid] */\n      dup4\n      mstore\n      dup2\n      dup5\n      keccak256\n      sub(shl(0xa0, 0x01), 0x01)\n        /* \"contracts/liquidityMining/KyberFairLaunch.sol\":15266:15287  userInfo[_pid][_user] */\n      dup10\n      and\n      dup6\n      mstore\n      swap1\n      swap3\n      mstore\n      dup3\n      keccak256\n        /* \"contracts/liquidityMining/KyberFairLaunch.sol\":15320:15335  pool.totalStake */\n      dup2\n      sload\n        /* \"contracts/liquidityMining/KyberFairLaunch.sol\":15377:15397  pool.lastRewardBlock */\n      0x01\n      dup4\n      add\n      sload\n        /* \"contracts/liquidityMining/KyberFairLaunch.sol\":15144:15182  rewards = new uint256[](rTokensLength) */\n      swap5\n      swap7\n      pop\n        /* \"contracts/liquidityMining/KyberFairLaunch.sol\":15217:15231  poolInfo[_pid] */\n      swap2\n      swap4\n        /* \"contracts/liquidityMining/KyberFairLaunch.sol\":15266:15287  userInfo[_pid][_user] */\n      swap1\n      swap3\n      shl(0xe0, 0x01)\n        /* \"contracts/liquidityMining/KyberFairLaunch.sol\":15377:15397  pool.lastRewardBlock */\n      swap1\n      swap2\n      div\n      0xffffffff\n      and\n      swap1\n        /* \"contracts/liquidityMining/KyberFairLaunch.sol\":15436:15467  _lastAccountedRewardBlock(_pid) */\n      tag_345\n        /* \"contracts/liquidityMining/KyberFairLaunch.sol\":15217:15231  poolInfo[_pid] */\n      dup10\n        /* \"contracts/liquidityMining/KyberFairLaunch.sol\":15436:15461  _lastAccountedRewardBlock */\n      tag_273\n        /* \"contracts/liquidityMining/KyberFairLaunch.sol\":15436:15467  _lastAccountedRewardBlock(_pid) */\n      jump\t// in\n    tag_345:\n        /* \"contracts/liquidityMining/KyberFairLaunch.sol\":15408:15467  uint32 lastAccountedBlock = _lastAccountedRewardBlock(_pid) */\n      swap1\n      pop\n        /* \"contracts/liquidityMining/KyberFairLaunch.sol\":15483:15492  uint256 i */\n      0x00\n        /* \"contracts/liquidityMining/KyberFairLaunch.sol\":15478:16362  for (uint256 i = 0; i < rTokensLength; i++) {\r... */\n    tag_346:\n        /* \"contracts/liquidityMining/KyberFairLaunch.sol\":15502:15515  rTokensLength */\n      dup7\n        /* \"contracts/liquidityMining/KyberFairLaunch.sol\":15498:15499  i */\n      dup2\n        /* \"contracts/liquidityMining/KyberFairLaunch.sol\":15498:15515  i < rTokensLength */\n      lt\n        /* \"contracts/liquidityMining/KyberFairLaunch.sol\":15478:16362  for (uint256 i = 0; i < rTokensLength; i++) {\r... */\n      iszero\n      tag_347\n      jumpi\n        /* \"contracts/liquidityMining/KyberFairLaunch.sol\":15537:15563  uint256 _accRewardPerShare */\n      0x00\n        /* \"contracts/liquidityMining/KyberFairLaunch.sol\":15566:15606  pool\r... */\n      dup2\n      dup2\n      mstore\n        /* \"contracts/liquidityMining/KyberFairLaunch.sol\":15566:15603  pool\r... */\n      0x02\n      dup8\n      add\n        /* \"contracts/liquidityMining/KyberFairLaunch.sol\":15566:15606  pool\r... */\n      0x20\n      mstore\n      0x40\n      swap1\n      keccak256\n        /* \"contracts/liquidityMining/KyberFairLaunch.sol\":15566:15642  pool\r... */\n      0x01\n      add\n      sload\n        /* \"contracts/liquidityMining/KyberFairLaunch.sol\":15661:15702  lastAccountedBlock > _poolLastRewardBlock */\n      0xffffffff\n      dup4\n      and\n      dup5\n      lt\n        /* \"contracts/liquidityMining/KyberFairLaunch.sol\":15661:15722  lastAccountedBlock > _poolLastRewardBlock && _totalStake != 0 */\n      dup1\n      iszero\n      tag_349\n      jumpi\n      pop\n        /* \"contracts/liquidityMining/KyberFairLaunch.sol\":15706:15722  _totalStake != 0 */\n      dup5\n      iszero\n      iszero\n        /* \"contracts/liquidityMining/KyberFairLaunch.sol\":15661:15722  lastAccountedBlock > _poolLastRewardBlock && _totalStake != 0 */\n    tag_349:\n        /* \"contracts/liquidityMining/KyberFairLaunch.sol\":15657:16023  if (lastAccountedBlock > _poolLastRewardBlock && _totalStake != 0) {\r... */\n      iszero\n      tag_350\n      jumpi\n        /* \"contracts/liquidityMining/KyberFairLaunch.sol\":15743:15757  uint256 reward */\n      0x00\n        /* \"contracts/liquidityMining/KyberFairLaunch.sol\":15830:15852  pool.poolRewardData[i] */\n      dup3\n      dup2\n      mstore\n        /* \"contracts/liquidityMining/KyberFairLaunch.sol\":15830:15849  pool.poolRewardData */\n      0x02\n      dup9\n      add\n        /* \"contracts/liquidityMining/KyberFairLaunch.sol\":15830:15852  pool.poolRewardData[i] */\n      0x20\n      mstore\n      0x40\n      dup2\n      keccak256\n        /* \"contracts/liquidityMining/KyberFairLaunch.sol\":15830:15867  pool.poolRewardData[i].rewardPerBlock */\n      sload\n        /* \"contracts/liquidityMining/KyberFairLaunch.sol\":15760:15868  (lastAccountedBlock - _poolLastRewardBlock)\r... */\n      tag_351\n      swap1\n        /* \"contracts/liquidityMining/KyberFairLaunch.sol\":15761:15802  lastAccountedBlock - _poolLastRewardBlock */\n      0xffffffff\n      dup1\n      dup8\n      and\n      dup9\n      swap1\n      sub\n      swap2\n        /* \"contracts/liquidityMining/KyberFairLaunch.sol\":15830:15867  pool.poolRewardData[i].rewardPerBlock */\n      swap1\n        /* \"contracts/liquidityMining/KyberFairLaunch.sol\":15760:15829  (lastAccountedBlock - _poolLastRewardBlock)\r... */\n      tag_280\n        /* \"contracts/liquidityMining/KyberFairLaunch.sol\":15760:15868  (lastAccountedBlock - _poolLastRewardBlock)\r... */\n      and\n      jump\t// in\n    tag_351:\n        /* \"contracts/liquidityMining/KyberFairLaunch.sol\":15743:15868  uint256 reward = (lastAccountedBlock - _poolLastRewardBlock)\r... */\n      swap1\n      pop\n        /* \"contracts/liquidityMining/KyberFairLaunch.sol\":15908:16007  _accRewardPerShare.add(\r... */\n      tag_352\n        /* \"contracts/liquidityMining/KyberFairLaunch.sol\":15977:15988  _totalStake */\n      dup7\n        /* \"contracts/liquidityMining/KyberFairLaunch.sol\":15953:15974  reward.mul(PRECISION) */\n      tag_353\n        /* \"contracts/liquidityMining/KyberFairLaunch.sol\":15743:15868  uint256 reward = (lastAccountedBlock - _poolLastRewardBlock)\r... */\n      dup4\n        /* \"contracts/liquidityMining/KyberFairLaunch.sol\":1292:1296  1e12 */\n      0xe8d4a51000\n        /* \"contracts/liquidityMining/KyberFairLaunch.sol\":15953:15963  reward.mul */\n      tag_280\n        /* \"contracts/liquidityMining/KyberFairLaunch.sol\":15953:15974  reward.mul(PRECISION) */\n      jump\t// in\n    tag_353:\n        /* \"contracts/liquidityMining/KyberFairLaunch.sol\":15953:15988  reward.mul(PRECISION) / _totalStake */\n      dup2\n      tag_354\n      jumpi\n      invalid\n    tag_354:\n        /* \"contracts/liquidityMining/KyberFairLaunch.sol\":15908:15926  _accRewardPerShare */\n      dup5\n      swap2\n        /* \"contracts/liquidityMining/KyberFairLaunch.sol\":15953:15988  reward.mul(PRECISION) / _totalStake */\n      swap1\n      div\n        /* \"contracts/liquidityMining/KyberFairLaunch.sol\":15908:15930  _accRewardPerShare.add */\n      tag_202\n        /* \"contracts/liquidityMining/KyberFairLaunch.sol\":15908:16007  _accRewardPerShare.add(\r... */\n      jump\t// in\n    tag_352:\n        /* \"contracts/liquidityMining/KyberFairLaunch.sol\":15887:16007  _accRewardPerShare = _accRewardPerShare.add(\r... */\n      swap2\n      pop\n        /* \"contracts/liquidityMining/KyberFairLaunch.sol\":15657:16023  if (lastAccountedBlock > _poolLastRewardBlock && _totalStake != 0) {\r... */\n      pop\n    tag_350:\n        /* \"contracts/liquidityMining/KyberFairLaunch.sol\":16156:16178  user.userRewardData[i] */\n      0x00\n      dup3\n      dup2\n      mstore\n        /* \"contracts/liquidityMining/KyberFairLaunch.sol\":16156:16175  user.userRewardData */\n      0x01\n      dup1\n      dup9\n      add\n        /* \"contracts/liquidityMining/KyberFairLaunch.sol\":16156:16178  user.userRewardData[i] */\n      0x20\n      mstore\n      0x40\n      swap1\n      swap2\n      keccak256\n        /* \"contracts/liquidityMining/KyberFairLaunch.sol\":16156:16197  user.userRewardData[i].lastRewardPerShare */\n      add\n      sload\n        /* \"contracts/liquidityMining/KyberFairLaunch.sol\":1292:1296  1e12 */\n      0xe8d4a51000\n      swap1\n        /* \"contracts/liquidityMining/KyberFairLaunch.sol\":16069:16239  user.amount.mul(\r... */\n      tag_355\n      swap1\n        /* \"contracts/liquidityMining/KyberFairLaunch.sol\":16107:16220  _accRewardPerShare.sub(\r... */\n      tag_356\n      swap1\n        /* \"contracts/liquidityMining/KyberFairLaunch.sol\":16107:16125  _accRewardPerShare */\n      dup5\n      swap1\n        /* \"contracts/liquidityMining/KyberFairLaunch.sol\":16107:16129  _accRewardPerShare.sub */\n      tag_247\n        /* \"contracts/liquidityMining/KyberFairLaunch.sol\":16107:16220  _accRewardPerShare.sub(\r... */\n      jump\t// in\n    tag_356:\n        /* \"contracts/liquidityMining/KyberFairLaunch.sol\":16069:16080  user.amount */\n      dup9\n      sload\n      swap1\n        /* \"contracts/liquidityMining/KyberFairLaunch.sol\":16069:16084  user.amount.mul */\n      tag_280\n        /* \"contracts/liquidityMining/KyberFairLaunch.sol\":16069:16239  user.amount.mul(\r... */\n      jump\t// in\n    tag_355:\n        /* \"contracts/liquidityMining/KyberFairLaunch.sol\":16069:16268  user.amount.mul(\r... */\n      dup2\n      tag_357\n      jumpi\n      invalid\n    tag_357:\n      div\n        /* \"contracts/liquidityMining/KyberFairLaunch.sol\":16039:16046  rewards */\n      dup10\n        /* \"contracts/liquidityMining/KyberFairLaunch.sol\":16047:16048  i */\n      dup4\n        /* \"contracts/liquidityMining/KyberFairLaunch.sol\":16039:16049  rewards[i] */\n      dup2\n      mload\n      dup2\n      lt\n      tag_358\n      jumpi\n      invalid\n    tag_358:\n      0x20\n      mul\n      0x20\n      add\n      add\n        /* \"contracts/liquidityMining/KyberFairLaunch.sol\":16039:16268  rewards[i] =\r... */\n      dup2\n      dup2\n      mstore\n      pop\n      pop\n        /* \"contracts/liquidityMining/KyberFairLaunch.sol\":16296:16350  rewards[i].add(user.userRewardData[i].unclaimedReward) */\n      tag_359\n        /* \"contracts/liquidityMining/KyberFairLaunch.sol\":16311:16315  user */\n      dup7\n        /* \"contracts/liquidityMining/KyberFairLaunch.sol\":16311:16330  user.userRewardData */\n      0x01\n      add\n        /* \"contracts/liquidityMining/KyberFairLaunch.sol\":16311:16333  user.userRewardData[i] */\n      0x00\n        /* \"contracts/liquidityMining/KyberFairLaunch.sol\":16331:16332  i */\n      dup5\n        /* \"contracts/liquidityMining/KyberFairLaunch.sol\":16311:16333  user.userRewardData[i] */\n      dup2\n      mstore\n      0x20\n      add\n      swap1\n      dup2\n      mstore\n      0x20\n      add\n      0x00\n      keccak256\n        /* \"contracts/liquidityMining/KyberFairLaunch.sol\":16311:16349  user.userRewardData[i].unclaimedReward */\n      0x00\n      add\n      sload\n        /* \"contracts/liquidityMining/KyberFairLaunch.sol\":16296:16303  rewards */\n      dup11\n        /* \"contracts/liquidityMining/KyberFairLaunch.sol\":16304:16305  i */\n      dup5\n        /* \"contracts/liquidityMining/KyberFairLaunch.sol\":16296:16306  rewards[i] */\n      dup2\n      mload\n      dup2\n      lt\n      tag_226\n      jumpi\n      invalid\n        /* \"contracts/liquidityMining/KyberFairLaunch.sol\":16296:16350  rewards[i].add(user.userRewardData[i].unclaimedReward) */\n    tag_359:\n        /* \"contracts/liquidityMining/KyberFairLaunch.sol\":16283:16290  rewards */\n      dup10\n        /* \"contracts/liquidityMining/KyberFairLaunch.sol\":16291:16292  i */\n      dup4\n        /* \"contracts/liquidityMining/KyberFairLaunch.sol\":16283:16293  rewards[i] */\n      dup2\n      mload\n      dup2\n      lt\n      tag_361\n      jumpi\n      invalid\n    tag_361:\n      0x20\n      swap1\n      dup2\n      mul\n      swap2\n      swap1\n      swap2\n      add\n      add\n        /* \"contracts/liquidityMining/KyberFairLaunch.sol\":16283:16350  rewards[i] = rewards[i].add(user.userRewardData[i].unclaimedReward) */\n      mstore\n      pop\n        /* \"contracts/liquidityMining/KyberFairLaunch.sol\":15517:15520  i++ */\n      0x01\n      add\n        /* \"contracts/liquidityMining/KyberFairLaunch.sol\":15478:16362  for (uint256 i = 0; i < rTokensLength; i++) {\r... */\n      jump(tag_346)\n    tag_347:\n      pop\n        /* \"contracts/liquidityMining/KyberFairLaunch.sol\":14927:16369  function pendingRewards(uint256 _pid, address _user)\r... */\n      pop\n      pop\n      pop\n      pop\n      pop\n      pop\n      swap3\n      swap2\n      pop\n      pop\n      jump\t// out\n        /* \"contracts/liquidityMining/KyberFairLaunch.sol\":18632:18773  function harvest(uint256 _pid) public override {\r... */\n    tag_144:\n        /* \"contracts/liquidityMining/KyberFairLaunch.sol\":18690:18713  updatePoolRewards(_pid) */\n      tag_363\n        /* \"contracts/liquidityMining/KyberFairLaunch.sol\":18708:18712  _pid */\n      dup2\n        /* \"contracts/liquidityMining/KyberFairLaunch.sol\":18690:18707  updatePoolRewards */\n      tag_115\n        /* \"contracts/liquidityMining/KyberFairLaunch.sol\":18690:18713  updatePoolRewards(_pid) */\n      jump\t// in\n    tag_363:\n        /* \"contracts/liquidityMining/KyberFairLaunch.sol\":18724:18765  _updateUserReward(msg.sender, _pid, true) */\n      tag_268\n        /* \"contracts/liquidityMining/KyberFairLaunch.sol\":18742:18752  msg.sender */\n      caller\n        /* \"contracts/liquidityMining/KyberFairLaunch.sol\":18754:18758  _pid */\n      dup3\n        /* \"contracts/liquidityMining/KyberFairLaunch.sol\":18760:18764  true */\n      0x01\n        /* \"contracts/liquidityMining/KyberFairLaunch.sol\":18724:18741  _updateUserReward */\n      tag_198\n        /* \"contracts/liquidityMining/KyberFairLaunch.sol\":18724:18765  _updateUserReward(msg.sender, _pid, true) */\n      jump\t// in\n        /* \"contracts/manual/PermissionAdmin.sol\":100:120  address public admin */\n    tag_147:\n      and(sub(shl(0xa0, 0x01), 0x01), sload(0x00))\n      dup2\n      jump\t// out\n        /* \"@openzeppelin/contracts/token/ERC20/SafeERC20.sol\":1348:1961  function safeApprove(IERC20 token, address spender, uint256 value) internal {... */\n    tag_149:\n        /* \"@openzeppelin/contracts/token/ERC20/SafeERC20.sol\":1713:1723  value == 0 */\n      dup1\n      iszero\n      dup1\n        /* \"@openzeppelin/contracts/token/ERC20/SafeERC20.sol\":1712:1774  (value == 0) || (token.allowance(address(this), spender) == 0) */\n      tag_366\n      jumpi\n      pop\n        /* \"@openzeppelin/contracts/token/ERC20/SafeERC20.sol\":1729:1768  token.allowance(address(this), spender) */\n      0x40\n      dup1\n      mload\n      shl(0xe1, 0x6eb1769f)\n      dup2\n      mstore\n        /* \"@openzeppelin/contracts/token/ERC20/SafeERC20.sol\":1753:1757  this */\n      address\n        /* \"@openzeppelin/contracts/token/ERC20/SafeERC20.sol\":1729:1768  token.allowance(address(this), spender) */\n      0x04\n      dup3\n      add\n      mstore\n      sub(shl(0xa0, 0x01), 0x01)\n      dup5\n      dup2\n      and\n      0x24\n      dup4\n      add\n      mstore\n      swap2\n      mload\n        /* \"@openzeppelin/contracts/token/ERC20/SafeERC20.sol\":1729:1744  token.allowance */\n      swap2\n      dup6\n      and\n      swap2\n      0xdd62ed3e\n      swap2\n        /* \"@openzeppelin/contracts/token/ERC20/SafeERC20.sol\":1729:1768  token.allowance(address(this), spender) */\n      0x44\n      dup1\n      dup3\n      add\n      swap3\n      0x20\n      swap3\n      swap1\n      swap2\n      swap1\n      dup3\n      swap1\n      sub\n      add\n      dup2\n        /* \"@openzeppelin/contracts/token/ERC20/SafeERC20.sol\":1729:1744  token.allowance */\n      dup7\n        /* \"@openzeppelin/contracts/token/ERC20/SafeERC20.sol\":1729:1768  token.allowance(address(this), spender) */\n      dup1\n      extcodesize\n      iszero\n      dup1\n      iszero\n      tag_367\n      jumpi\n      0x00\n      dup1\n      revert\n    tag_367:\n      pop\n      gas\n      staticcall\n      iszero\n      dup1\n      iszero\n      tag_369\n      jumpi\n      returndatasize\n      0x00\n      dup1\n      returndatacopy\n      revert(0x00, returndatasize)\n    tag_369:\n      pop\n      pop\n      pop\n      pop\n      mload(0x40)\n      returndatasize\n      0x20\n      dup2\n      lt\n      iszero\n      tag_370\n      jumpi\n      0x00\n      dup1\n      revert\n    tag_370:\n      pop\n      mload\n        /* \"@openzeppelin/contracts/token/ERC20/SafeERC20.sol\":1729:1773  token.allowance(address(this), spender) == 0 */\n      iszero\n        /* \"@openzeppelin/contracts/token/ERC20/SafeERC20.sol\":1712:1774  (value == 0) || (token.allowance(address(this), spender) == 0) */\n    tag_366:\n        /* \"@openzeppelin/contracts/token/ERC20/SafeERC20.sol\":1704:1854  require((value == 0) || (token.allowance(address(this), spender) == 0),... */\n      tag_371\n      jumpi\n      mload(0x40)\n      shl(0xe5, 0x461bcd)\n      dup2\n      mstore\n      0x04\n      add\n      dup1\n      dup1\n      0x20\n      add\n      dup3\n      dup2\n      sub\n      dup3\n      mstore\n      0x36\n      dup2\n      mstore\n      0x20\n      add\n      dup1\n      data_ef945ddb1bfdc0da870feb4560d868b047642b4ac7f2fb7f8b7c51cb4a411e25\n      0x36\n      swap2\n      codecopy\n      0x40\n      add\n      swap2\n      pop\n      pop\n      mload(0x40)\n      dup1\n      swap2\n      sub\n      swap1\n      revert\n    tag_371:\n        /* \"@openzeppelin/contracts/token/ERC20/SafeERC20.sol\":1891:1953  abi.encodeWithSelector(token.approve.selector, spender, value) */\n      0x40\n      dup1\n      mload\n      sub(shl(0xa0, 0x01), 0x01)\n      dup5\n      and\n      0x24\n      dup3\n      add\n      mstore\n      0x44\n      dup1\n      dup3\n      add\n      dup5\n      swap1\n      mstore\n      dup3\n      mload\n      dup1\n      dup4\n      sub\n      swap1\n      swap2\n      add\n      dup2\n      mstore\n      0x64\n      swap1\n      swap2\n      add\n      swap1\n      swap2\n      mstore\n      0x20\n      dup2\n      add\n      dup1\n      mload\n      sub(shl(0xe0, 0x01), 0x01)\n      and\n      shl(0xe0, 0x095ea7b3)\n      or\n      swap1\n      mstore\n        /* \"@openzeppelin/contracts/token/ERC20/SafeERC20.sol\":1864:1954  _callOptionalReturn(token, abi.encodeWithSelector(token.approve.selector, spender, value)) */\n      tag_341\n      swap1\n        /* \"@openzeppelin/contracts/token/ERC20/SafeERC20.sol\":1884:1889  token */\n      dup5\n      swap1\n        /* \"@openzeppelin/contracts/token/ERC20/SafeERC20.sol\":1864:1883  _callOptionalReturn */\n      tag_373\n        /* \"@openzeppelin/contracts/token/ERC20/SafeERC20.sol\":1864:1954  _callOptionalReturn(token, abi.encodeWithSelector(token.approve.selector, spender, value)) */\n      jump\t// in\n        /* \"@openzeppelin/contracts/utils/Address.sol\":3581:3774  function functionCall(address target, bytes memory data, string memory errorMessage) internal returns (bytes memory) {... */\n    tag_150:\n        /* \"@openzeppelin/contracts/utils/Address.sol\":3684:3696  bytes memory */\n      0x60\n        /* \"@openzeppelin/contracts/utils/Address.sol\":3715:3767  functionCallWithValue(target, data, 0, errorMessage) */\n      tag_375\n        /* \"@openzeppelin/contracts/utils/Address.sol\":3737:3743  target */\n      dup5\n        /* \"@openzeppelin/contracts/utils/Address.sol\":3745:3749  data */\n      dup5\n        /* \"@openzeppelin/contracts/utils/Address.sol\":3751:3752  0 */\n      0x00\n        /* \"@openzeppelin/contracts/utils/Address.sol\":3754:3766  errorMessage */\n      dup6\n        /* \"@openzeppelin/contracts/utils/Address.sol\":3715:3736  functionCallWithValue */\n      tag_376\n        /* \"@openzeppelin/contracts/utils/Address.sol\":3715:3767  functionCallWithValue(target, data, 0, errorMessage) */\n      jump\t// in\n    tag_375:\n        /* \"@openzeppelin/contracts/utils/Address.sol\":3708:3767  return functionCallWithValue(target, data, 0, errorMessage) */\n      swap1\n      pop\n        /* \"@openzeppelin/contracts/utils/Address.sol\":3581:3774  function functionCall(address target, bytes memory data, string memory errorMessage) internal returns (bytes memory) {... */\n    tag_374:\n      swap4\n      swap3\n      pop\n      pop\n      pop\n      jump\t// out\n        /* \"contracts/liquidityMining/KyberFairLaunch.sol\":20662:22715  function _updateUserReward(\r... */\n    tag_198:\n        /* \"contracts/liquidityMining/KyberFairLaunch.sol\":20790:20808  uint256 userAmount */\n      0x00\n        /* \"contracts/liquidityMining/KyberFairLaunch.sol\":20811:20825  userInfo[_pid] */\n      dup3\n      dup2\n      mstore\n        /* \"contracts/liquidityMining/KyberFairLaunch.sol\":20811:20819  userInfo */\n      0x07\n        /* \"contracts/liquidityMining/KyberFairLaunch.sol\":20811:20825  userInfo[_pid] */\n      0x20\n      swap1\n      dup2\n      mstore\n      0x40\n      dup1\n      dup4\n      keccak256\n      sub(shl(0xa0, 0x01), 0x01)\n        /* \"contracts/liquidityMining/KyberFairLaunch.sol\":20811:20830  userInfo[_pid][_to] */\n      dup8\n      and\n      dup5\n      mstore\n      swap1\n      swap2\n      mstore\n      swap1\n      keccak256\n        /* \"contracts/liquidityMining/KyberFairLaunch.sol\":20811:20837  userInfo[_pid][_to].amount */\n      sload\n        /* \"contracts/liquidityMining/KyberFairLaunch.sol\":20872:20884  rewardTokens */\n      0x04\n        /* \"contracts/liquidityMining/KyberFairLaunch.sol\":20872:20891  rewardTokens.length */\n      sload\n        /* \"contracts/liquidityMining/KyberFairLaunch.sol\":20908:20923  userAmount == 0 */\n      dup2\n        /* \"contracts/liquidityMining/KyberFairLaunch.sol\":20904:21487  if (userAmount == 0) {\r... */\n      tag_378\n      jumpi\n        /* \"contracts/liquidityMining/KyberFairLaunch.sol\":21184:21193  uint256 i */\n      0x00\n        /* \"contracts/liquidityMining/KyberFairLaunch.sol\":21179:21455  for (uint256 i = 0; i < rTokensLength; i++) {\r... */\n    tag_379:\n        /* \"contracts/liquidityMining/KyberFairLaunch.sol\":21203:21216  rTokensLength */\n      dup2\n        /* \"contracts/liquidityMining/KyberFairLaunch.sol\":21199:21200  i */\n      dup2\n        /* \"contracts/liquidityMining/KyberFairLaunch.sol\":21199:21216  i < rTokensLength */\n      lt\n        /* \"contracts/liquidityMining/KyberFairLaunch.sol\":21179:21455  for (uint256 i = 0; i < rTokensLength; i++) {\r... */\n      iszero\n      tag_380\n      jumpi\n        /* \"contracts/liquidityMining/KyberFairLaunch.sol\":21345:21359  poolInfo[_pid] */\n      0x00\n      dup6\n      dup2\n      mstore\n        /* \"contracts/liquidityMining/KyberFairLaunch.sol\":21345:21353  poolInfo */\n      0x06\n        /* \"contracts/liquidityMining/KyberFairLaunch.sol\":21345:21359  poolInfo[_pid] */\n      0x20\n      swap1\n      dup2\n      mstore\n      0x40\n      dup1\n      dup4\n      keccak256\n        /* \"contracts/liquidityMining/KyberFairLaunch.sol\":21345:21399  poolInfo[_pid]\r... */\n      dup5\n      dup5\n      mstore\n        /* \"contracts/liquidityMining/KyberFairLaunch.sol\":21345:21396  poolInfo[_pid]\r... */\n      0x02\n      add\n        /* \"contracts/liquidityMining/KyberFairLaunch.sol\":21345:21399  poolInfo[_pid]\r... */\n      dup3\n      mstore\n      dup1\n      dup4\n      keccak256\n        /* \"contracts/liquidityMining/KyberFairLaunch.sol\":21345:21439  poolInfo[_pid]\r... */\n      0x01\n      swap1\n      dup2\n      add\n      sload\n        /* \"contracts/liquidityMining/KyberFairLaunch.sol\":21242:21256  userInfo[_pid] */\n      dup10\n      dup6\n      mstore\n        /* \"contracts/liquidityMining/KyberFairLaunch.sol\":21242:21250  userInfo */\n      0x07\n        /* \"contracts/liquidityMining/KyberFairLaunch.sol\":21242:21256  userInfo[_pid] */\n      dup5\n      mstore\n      dup3\n      dup6\n      keccak256\n      sub(shl(0xa0, 0x01), 0x01)\n        /* \"contracts/liquidityMining/KyberFairLaunch.sol\":21242:21261  userInfo[_pid][_to] */\n      dup13\n      and\n      dup7\n      mstore\n      dup5\n      mstore\n      dup3\n      dup6\n      keccak256\n        /* \"contracts/liquidityMining/KyberFairLaunch.sol\":21242:21301  userInfo[_pid][_to]\r... */\n      dup7\n      dup7\n      mstore\n        /* \"contracts/liquidityMining/KyberFairLaunch.sol\":21242:21298  userInfo[_pid][_to]\r... */\n      dup3\n      add\n        /* \"contracts/liquidityMining/KyberFairLaunch.sol\":21242:21301  userInfo[_pid][_to]\r... */\n      swap1\n      swap4\n      mstore\n      swap3\n      keccak256\n        /* \"contracts/liquidityMining/KyberFairLaunch.sol\":21242:21342  userInfo[_pid][_to]\r... */\n      dup3\n      add\n        /* \"contracts/liquidityMining/KyberFairLaunch.sol\":21242:21439  userInfo[_pid][_to]\r... */\n      sstore\n        /* \"contracts/liquidityMining/KyberFairLaunch.sol\":21218:21221  i++ */\n      add\n        /* \"contracts/liquidityMining/KyberFairLaunch.sol\":21179:21455  for (uint256 i = 0; i < rTokensLength; i++) {\r... */\n      jump(tag_379)\n    tag_380:\n      pop\n        /* \"contracts/liquidityMining/KyberFairLaunch.sol\":21469:21476  return; */\n      pop\n      pop\n      jump(tag_341)\n        /* \"contracts/liquidityMining/KyberFairLaunch.sol\":20904:21487  if (userAmount == 0) {\r... */\n    tag_378:\n        /* \"contracts/liquidityMining/KyberFairLaunch.sol\":21504:21513  uint256 i */\n      0x00\n        /* \"contracts/liquidityMining/KyberFairLaunch.sol\":21499:22708  for (uint256 i = 0; i < rTokensLength; i++) {\r... */\n    tag_382:\n        /* \"contracts/liquidityMining/KyberFairLaunch.sol\":21523:21536  rTokensLength */\n      dup2\n        /* \"contracts/liquidityMining/KyberFairLaunch.sol\":21519:21520  i */\n      dup2\n        /* \"contracts/liquidityMining/KyberFairLaunch.sol\":21519:21536  i < rTokensLength */\n      lt\n        /* \"contracts/liquidityMining/KyberFairLaunch.sol\":21499:22708  for (uint256 i = 0; i < rTokensLength; i++) {\r... */\n      iszero\n      tag_383\n      jumpi\n        /* \"contracts/liquidityMining/KyberFairLaunch.sol\":21558:21587  uint256 lastAccRewardPerShare */\n      0x00\n        /* \"contracts/liquidityMining/KyberFairLaunch.sol\":21590:21604  poolInfo[_pid] */\n      dup6\n      dup2\n      mstore\n        /* \"contracts/liquidityMining/KyberFairLaunch.sol\":21590:21598  poolInfo */\n      0x06\n        /* \"contracts/liquidityMining/KyberFairLaunch.sol\":21590:21604  poolInfo[_pid] */\n      0x20\n      swap1\n      dup2\n      mstore\n      0x40\n      dup1\n      dup4\n      keccak256\n        /* \"contracts/liquidityMining/KyberFairLaunch.sol\":21590:21640  poolInfo[_pid]\r... */\n      dup5\n      dup5\n      mstore\n        /* \"contracts/liquidityMining/KyberFairLaunch.sol\":21590:21637  poolInfo[_pid]\r... */\n      0x02\n      add\n        /* \"contracts/liquidityMining/KyberFairLaunch.sol\":21590:21640  poolInfo[_pid]\r... */\n      dup3\n      mstore\n      dup1\n      dup4\n      keccak256\n        /* \"contracts/liquidityMining/KyberFairLaunch.sol\":21590:21676  poolInfo[_pid]\r... */\n      0x01\n      swap1\n      dup2\n      add\n      sload\n        /* \"contracts/liquidityMining/KyberFairLaunch.sol\":21727:21741  userInfo[_pid] */\n      dup10\n      dup6\n      mstore\n        /* \"contracts/liquidityMining/KyberFairLaunch.sol\":21727:21735  userInfo */\n      0x07\n        /* \"contracts/liquidityMining/KyberFairLaunch.sol\":21727:21741  userInfo[_pid] */\n      dup5\n      mstore\n      dup3\n      dup6\n      keccak256\n      sub(shl(0xa0, 0x01), 0x01)\n        /* \"contracts/liquidityMining/KyberFairLaunch.sol\":21727:21746  userInfo[_pid][_to] */\n      dup13\n      and\n      dup7\n      mstore\n      dup5\n      mstore\n      dup3\n      dup6\n      keccak256\n        /* \"contracts/liquidityMining/KyberFairLaunch.sol\":21727:21782  userInfo[_pid][_to]\r... */\n      dup7\n      dup7\n      mstore\n        /* \"contracts/liquidityMining/KyberFairLaunch.sol\":21727:21779  userInfo[_pid][_to]\r... */\n      dup3\n      add\n        /* \"contracts/liquidityMining/KyberFairLaunch.sol\":21727:21782  userInfo[_pid][_to]\r... */\n      swap1\n      swap4\n      mstore\n      swap1\n      dup4\n      keccak256\n        /* \"contracts/liquidityMining/KyberFairLaunch.sol\":21998:22027  rewardData.lastRewardPerShare */\n      swap1\n      dup2\n      add\n      sload\n        /* \"contracts/liquidityMining/KyberFairLaunch.sol\":21590:21676  poolInfo[_pid]\r... */\n      swap2\n      swap3\n        /* \"contracts/liquidityMining/KyberFairLaunch.sol\":21727:21782  userInfo[_pid][_to]\r... */\n      swap1\n      swap2\n        /* \"contracts/liquidityMining/KyberFairLaunch.sol\":1292:1296  1e12 */\n      0xe8d4a51000\n      swap1\n        /* \"contracts/liquidityMining/KyberFairLaunch.sol\":21939:22043  userAmount.mul(\r... */\n      tag_385\n      swap1\n        /* \"contracts/liquidityMining/KyberFairLaunch.sol\":21972:22028  lastAccRewardPerShare.sub(rewardData.lastRewardPerShare) */\n      tag_386\n      swap1\n        /* \"contracts/liquidityMining/KyberFairLaunch.sol\":21590:21676  poolInfo[_pid]\r... */\n      dup7\n      swap1\n        /* \"contracts/liquidityMining/KyberFairLaunch.sol\":21972:21997  lastAccRewardPerShare.sub */\n      tag_247\n        /* \"contracts/liquidityMining/KyberFairLaunch.sol\":21972:22028  lastAccRewardPerShare.sub(rewardData.lastRewardPerShare) */\n      jump\t// in\n    tag_386:\n        /* \"contracts/liquidityMining/KyberFairLaunch.sol\":21939:21949  userAmount */\n      dup9\n      swap1\n        /* \"contracts/liquidityMining/KyberFairLaunch.sol\":21939:21953  userAmount.mul */\n      tag_280\n        /* \"contracts/liquidityMining/KyberFairLaunch.sol\":21939:22043  userAmount.mul(\r... */\n      jump\t// in\n    tag_385:\n        /* \"contracts/liquidityMining/KyberFairLaunch.sol\":21939:22055  userAmount.mul(\r... */\n      dup2\n      tag_387\n      jumpi\n      invalid\n    tag_387:\n        /* \"contracts/liquidityMining/KyberFairLaunch.sol\":22094:22120  rewardData.unclaimedReward */\n      dup4\n      sload\n        /* \"contracts/liquidityMining/KyberFairLaunch.sol\":21939:22055  userAmount.mul(\r... */\n      swap2\n      swap1\n      div\n      swap2\n      pop\n        /* \"contracts/liquidityMining/KyberFairLaunch.sol\":22081:22121  _pending.add(rewardData.unclaimedReward) */\n      tag_388\n      swap1\n        /* \"contracts/liquidityMining/KyberFairLaunch.sol\":21939:22055  userAmount.mul(\r... */\n      dup3\n      swap1\n        /* \"contracts/liquidityMining/KyberFairLaunch.sol\":22081:22093  _pending.add */\n      tag_202\n        /* \"contracts/liquidityMining/KyberFairLaunch.sol\":22081:22121  _pending.add(rewardData.unclaimedReward) */\n      jump\t// in\n    tag_388:\n        /* \"contracts/liquidityMining/KyberFairLaunch.sol\":22070:22121  _pending = _pending.add(rewardData.unclaimedReward) */\n      swap1\n      pop\n        /* \"contracts/liquidityMining/KyberFairLaunch.sol\":22167:22180  shouldHarvest */\n      dup7\n        /* \"contracts/liquidityMining/KyberFairLaunch.sol\":22167:22195  shouldHarvest ? 0 : _pending */\n      tag_389\n      jumpi\n        /* \"contracts/liquidityMining/KyberFairLaunch.sol\":22187:22195  _pending */\n      dup1\n        /* \"contracts/liquidityMining/KyberFairLaunch.sol\":22167:22195  shouldHarvest ? 0 : _pending */\n      jump(tag_390)\n    tag_389:\n        /* \"contracts/liquidityMining/KyberFairLaunch.sol\":22183:22184  0 */\n      0x00\n        /* \"contracts/liquidityMining/KyberFairLaunch.sol\":22167:22195  shouldHarvest ? 0 : _pending */\n    tag_390:\n        /* \"contracts/liquidityMining/KyberFairLaunch.sol\":22138:22195  rewardData.unclaimedReward = shouldHarvest ? 0 : _pending */\n      dup3\n      sstore\n        /* \"contracts/liquidityMining/KyberFairLaunch.sol\":22296:22325  rewardData.lastRewardPerShare */\n      0x01\n      dup3\n      add\n        /* \"contracts/liquidityMining/KyberFairLaunch.sol\":22296:22349  rewardData.lastRewardPerShare = lastAccRewardPerShare */\n      dup4\n      swap1\n      sstore\n        /* \"contracts/liquidityMining/KyberFairLaunch.sol\":22370:22383  shouldHarvest */\n      dup7\n        /* \"contracts/liquidityMining/KyberFairLaunch.sol\":22370:22399  shouldHarvest && _pending > 0 */\n      dup1\n      iszero\n      tag_391\n      jumpi\n      pop\n        /* \"contracts/liquidityMining/KyberFairLaunch.sol\":22398:22399  0 */\n      0x00\n        /* \"contracts/liquidityMining/KyberFairLaunch.sol\":22387:22395  _pending */\n      dup2\n        /* \"contracts/liquidityMining/KyberFairLaunch.sol\":22387:22399  _pending > 0 */\n      gt\n        /* \"contracts/liquidityMining/KyberFairLaunch.sol\":22370:22399  shouldHarvest && _pending > 0 */\n    tag_391:\n        /* \"contracts/liquidityMining/KyberFairLaunch.sol\":22366:22697  if (shouldHarvest && _pending > 0) {\r... */\n      iszero\n      tag_392\n      jumpi\n        /* \"contracts/liquidityMining/KyberFairLaunch.sol\":22420:22474  _lockReward(IERC20Ext(rewardTokens[i]), _to, _pending) */\n      tag_393\n        /* \"contracts/liquidityMining/KyberFairLaunch.sol\":22442:22454  rewardTokens */\n      0x04\n        /* \"contracts/liquidityMining/KyberFairLaunch.sol\":22455:22456  i */\n      dup6\n        /* \"contracts/liquidityMining/KyberFairLaunch.sol\":22442:22457  rewardTokens[i] */\n      dup2\n      sload\n      dup2\n      lt\n      tag_394\n      jumpi\n      invalid\n    tag_394:\n      0x00\n      swap2\n      dup3\n      mstore\n      0x20\n      swap1\n      swap2\n      keccak256\n      add\n      sload\n      sub(shl(0xa0, 0x01), 0x01)\n      and\n        /* \"contracts/liquidityMining/KyberFairLaunch.sol\":22460:22463  _to */\n      dup11\n        /* \"contracts/liquidityMining/KyberFairLaunch.sol\":22465:22473  _pending */\n      dup4\n        /* \"contracts/liquidityMining/KyberFairLaunch.sol\":22420:22431  _lockReward */\n      tag_239\n        /* \"contracts/liquidityMining/KyberFairLaunch.sol\":22420:22474  _lockReward(IERC20Ext(rewardTokens[i]), _to, _pending) */\n      jump\t// in\n    tag_393:\n        /* \"contracts/liquidityMining/KyberFairLaunch.sol\":22581:22593  rewardTokens */\n      0x04\n        /* \"contracts/liquidityMining/KyberFairLaunch.sol\":22594:22595  i */\n      dup5\n        /* \"contracts/liquidityMining/KyberFairLaunch.sol\":22581:22596  rewardTokens[i] */\n      dup2\n      sload\n      dup2\n      lt\n      tag_396\n      jumpi\n      invalid\n    tag_396:\n      0x00\n      swap2\n      dup3\n      mstore\n      0x20\n      swap1\n      swap2\n      keccak256\n      add\n      sload\n        /* \"contracts/liquidityMining/KyberFairLaunch.sol\":22498:22681  Harvest(\r... */\n      mload(0x40)\n      sub(shl(0xa0, 0x01), 0x01)\n        /* \"contracts/liquidityMining/KyberFairLaunch.sol\":22581:22596  rewardTokens[i] */\n      swap2\n      dup3\n      and\n      swap2\n        /* \"contracts/liquidityMining/KyberFairLaunch.sol\":22554:22558  _pid */\n      dup11\n      swap2\n        /* \"contracts/liquidityMining/KyberFairLaunch.sol\":22498:22681  Harvest(\r... */\n      swap1\n      dup13\n      and\n      swap1\n      0xf75f3d433c6628e04e01a0be1a2c6692a6011ce4b00389824cfa8b8a12f3c1c4\n      swap1\n      tag_398\n      swap1\n        /* \"contracts/liquidityMining/KyberFairLaunch.sol\":22619:22627  _pending */\n      dup7\n      swap1\n        /* \"contracts/liquidityMining/KyberFairLaunch.sol\":22650:22662  block.number */\n      number\n      swap1\n        /* \"contracts/liquidityMining/KyberFairLaunch.sol\":22498:22681  Harvest(\r... */\n      tag_230\n      jump\t// in\n    tag_398:\n      mload(0x40)\n      dup1\n      swap2\n      sub\n      swap1\n      log4\n        /* \"contracts/liquidityMining/KyberFairLaunch.sol\":22366:22697  if (shouldHarvest && _pending > 0) {\r... */\n    tag_392:\n      pop\n      pop\n      pop\n        /* \"contracts/liquidityMining/KyberFairLaunch.sol\":21538:21541  i++ */\n      0x01\n      add\n        /* \"contracts/liquidityMining/KyberFairLaunch.sol\":21499:22708  for (uint256 i = 0; i < rTokensLength; i++) {\r... */\n      jump(tag_382)\n    tag_383:\n      pop\n        /* \"contracts/liquidityMining/KyberFairLaunch.sol\":20662:22715  function _updateUserReward(\r... */\n      pop\n      pop\n      pop\n      pop\n      pop\n      jump\t// out\n        /* \"@openzeppelin/contracts/token/ERC20/SafeERC20.sol\":885:1088  function safeTransferFrom(IERC20 token, address from, address to, uint256 value) internal {... */\n    tag_200:\n        /* \"@openzeppelin/contracts/token/ERC20/SafeERC20.sol\":1012:1080  abi.encodeWithSelector(token.transferFrom.selector, from, to, value) */\n      0x40\n      dup1\n      mload\n      sub(shl(0xa0, 0x01), 0x01)\n      dup1\n      dup7\n      and\n      0x24\n      dup4\n      add\n      mstore\n      dup5\n      and\n      0x44\n      dup3\n      add\n      mstore\n      0x64\n      dup1\n      dup3\n      add\n      dup5\n      swap1\n      mstore\n      dup3\n      mload\n      dup1\n      dup4\n      sub\n      swap1\n      swap2\n      add\n      dup2\n      mstore\n      0x84\n      swap1\n      swap2\n      add\n      swap1\n      swap2\n      mstore\n      0x20\n      dup2\n      add\n      dup1\n      mload\n      sub(shl(0xe0, 0x01), 0x01)\n      and\n      shl(0xe0, 0x23b872dd)\n      or\n      swap1\n      mstore\n        /* \"@openzeppelin/contracts/token/ERC20/SafeERC20.sol\":985:1081  _callOptionalReturn(token, abi.encodeWithSelector(token.transferFrom.selector, from, to, value)) */\n      tag_400\n      swap1\n        /* \"@openzeppelin/contracts/token/ERC20/SafeERC20.sol\":1005:1010  token */\n      dup6\n      swap1\n        /* \"@openzeppelin/contracts/token/ERC20/SafeERC20.sol\":985:1004  _callOptionalReturn */\n      tag_373\n        /* \"@openzeppelin/contracts/token/ERC20/SafeERC20.sol\":985:1081  _callOptionalReturn(token, abi.encodeWithSelector(token.transferFrom.selector, from, to, value)) */\n      jump\t// in\n    tag_400:\n        /* \"@openzeppelin/contracts/token/ERC20/SafeERC20.sol\":885:1088  function safeTransferFrom(IERC20 token, address from, address to, uint256 value) internal {... */\n      pop\n      pop\n      pop\n      pop\n      jump\t// out\n        /* \"@openzeppelin/contracts/math/SafeMath.sol\":2690:2865  function add(uint256 a, uint256 b) internal pure returns (uint256) {... */\n    tag_202:\n        /* \"@openzeppelin/contracts/math/SafeMath.sol\":2748:2755  uint256 */\n      0x00\n        /* \"@openzeppelin/contracts/math/SafeMath.sol\":2779:2784  a + b */\n      dup3\n      dup3\n      add\n        /* \"@openzeppelin/contracts/math/SafeMath.sol\":2802:2808  c >= a */\n      dup4\n      dup2\n      lt\n      iszero\n        /* \"@openzeppelin/contracts/math/SafeMath.sol\":2794:2840  require(c >= a, \"SafeMath: addition overflow\") */\n      tag_402\n      jumpi\n      0x40\n      dup1\n      mload\n      shl(0xe5, 0x461bcd)\n      dup2\n      mstore\n      0x20\n      0x04\n      dup3\n      add\n      mstore\n      0x1b\n      0x24\n      dup3\n      add\n      mstore\n      0x536166654d6174683a206164646974696f6e206f766572666c6f770000000000\n      0x44\n      dup3\n      add\n      mstore\n      swap1\n      mload\n      swap1\n      dup2\n      swap1\n      sub\n      0x64\n      add\n      swap1\n      revert\n    tag_402:\n        /* \"@openzeppelin/contracts/math/SafeMath.sol\":2857:2858  c */\n      swap1\n      pop\n        /* \"@openzeppelin/contracts/math/SafeMath.sol\":2690:2865  function add(uint256 a, uint256 b) internal pure returns (uint256) {... */\n    tag_401:\n      swap3\n      swap2\n      pop\n      pop\n      jump\t// out\n        /* \"contracts/liquidityMining/KyberFairLaunch.sol\":19929:20560  function _withdraw(uint256 _pid, uint256 _amount) internal {\r... */\n    tag_209:\n        /* \"contracts/liquidityMining/KyberFairLaunch.sol\":19999:20020  PoolInfo storage pool */\n      0x00\n        /* \"contracts/liquidityMining/KyberFairLaunch.sol\":20023:20037  poolInfo[_pid] */\n      dup3\n      dup2\n      mstore\n        /* \"contracts/liquidityMining/KyberFairLaunch.sol\":20023:20031  poolInfo */\n      0x06\n        /* \"contracts/liquidityMining/KyberFairLaunch.sol\":20023:20037  poolInfo[_pid] */\n      0x20\n      swap1\n      dup2\n      mstore\n      0x40\n      dup1\n      dup4\n      keccak256\n        /* \"contracts/liquidityMining/KyberFairLaunch.sol\":20072:20080  userInfo */\n      0x07\n        /* \"contracts/liquidityMining/KyberFairLaunch.sol\":20072:20086  userInfo[_pid] */\n      dup4\n      mstore\n      dup2\n      dup5\n      keccak256\n        /* \"contracts/liquidityMining/KyberFairLaunch.sol\":20087:20097  msg.sender */\n      caller\n        /* \"contracts/liquidityMining/KyberFairLaunch.sol\":20072:20098  userInfo[_pid][msg.sender] */\n      dup6\n      mstore\n      swap1\n      swap3\n      mstore\n      swap1\n      swap2\n      keccak256\n        /* \"contracts/liquidityMining/KyberFairLaunch.sol\":20117:20128  user.amount */\n      dup1\n      sload\n        /* \"contracts/liquidityMining/KyberFairLaunch.sol\":20117:20139  user.amount >= _amount */\n      dup4\n      gt\n      iszero\n        /* \"contracts/liquidityMining/KyberFairLaunch.sol\":20109:20173  require(user.amount >= _amount, \"withdraw: insufficient amount\") */\n      tag_404\n      jumpi\n      mload(0x40)\n      shl(0xe5, 0x461bcd)\n      dup2\n      mstore\n      0x04\n      add\n      tag_175\n      swap1\n      tag_406\n      jump\t// in\n    tag_404:\n        /* \"contracts/liquidityMining/KyberFairLaunch.sol\":20229:20252  updatePoolRewards(_pid) */\n      tag_407\n        /* \"contracts/liquidityMining/KyberFairLaunch.sol\":20247:20251  _pid */\n      dup5\n        /* \"contracts/liquidityMining/KyberFairLaunch.sol\":20229:20246  updatePoolRewards */\n      tag_115\n        /* \"contracts/liquidityMining/KyberFairLaunch.sol\":20229:20252  updatePoolRewards(_pid) */\n      jump\t// in\n    tag_407:\n        /* \"contracts/liquidityMining/KyberFairLaunch.sol\":20263:20304  _updateUserReward(msg.sender, _pid, true) */\n      tag_408\n        /* \"contracts/liquidityMining/KyberFairLaunch.sol\":20281:20291  msg.sender */\n      caller\n        /* \"contracts/liquidityMining/KyberFairLaunch.sol\":20293:20297  _pid */\n      dup6\n        /* \"contracts/liquidityMining/KyberFairLaunch.sol\":20299:20303  true */\n      0x01\n        /* \"contracts/liquidityMining/KyberFairLaunch.sol\":20263:20280  _updateUserReward */\n      tag_198\n        /* \"contracts/liquidityMining/KyberFairLaunch.sol\":20263:20304  _updateUserReward(msg.sender, _pid, true) */\n      jump\t// in\n    tag_408:\n        /* \"contracts/liquidityMining/KyberFairLaunch.sol\":20331:20342  user.amount */\n      dup1\n      sload\n        /* \"contracts/liquidityMining/KyberFairLaunch.sol\":20331:20355  user.amount.sub(_amount) */\n      tag_409\n      swap1\n        /* \"contracts/liquidityMining/KyberFairLaunch.sol\":20347:20354  _amount */\n      dup5\n        /* \"contracts/liquidityMining/KyberFairLaunch.sol\":20331:20346  user.amount.sub */\n      tag_247\n        /* \"contracts/liquidityMining/KyberFairLaunch.sol\":20331:20355  user.amount.sub(_amount) */\n      jump\t// in\n    tag_409:\n        /* \"contracts/liquidityMining/KyberFairLaunch.sol\":20317:20355  user.amount = user.amount.sub(_amount) */\n      dup2\n      sstore\n        /* \"contracts/liquidityMining/KyberFairLaunch.sol\":20384:20399  pool.totalStake */\n      dup2\n      sload\n        /* \"contracts/liquidityMining/KyberFairLaunch.sol\":20384:20412  pool.totalStake.sub(_amount) */\n      tag_410\n      swap1\n        /* \"contracts/liquidityMining/KyberFairLaunch.sol\":20404:20411  _amount */\n      dup5\n        /* \"contracts/liquidityMining/KyberFairLaunch.sol\":20384:20403  pool.totalStake.sub */\n      tag_247\n        /* \"contracts/liquidityMining/KyberFairLaunch.sol\":20384:20412  pool.totalStake.sub(_amount) */\n      jump\t// in\n    tag_410:\n        /* \"contracts/liquidityMining/KyberFairLaunch.sol\":20366:20412  pool.totalStake = pool.totalStake.sub(_amount) */\n      dup3\n      sstore\n        /* \"contracts/liquidityMining/KyberFairLaunch.sol\":20435:20450  pool.stakeToken */\n      0x01\n      dup3\n      add\n      sload\n        /* \"contracts/liquidityMining/KyberFairLaunch.sol\":20425:20485  IERC20Ext(pool.stakeToken).safeTransfer(msg.sender, _amount) */\n      tag_411\n      swap1\n      sub(shl(0xa0, 0x01), 0x01)\n        /* \"contracts/liquidityMining/KyberFairLaunch.sol\":20435:20450  pool.stakeToken */\n      and\n        /* \"contracts/liquidityMining/KyberFairLaunch.sol\":20465:20475  msg.sender */\n      caller\n        /* \"contracts/liquidityMining/KyberFairLaunch.sol\":20477:20484  _amount */\n      dup6\n        /* \"contracts/liquidityMining/KyberFairLaunch.sol\":20425:20464  IERC20Ext(pool.stakeToken).safeTransfer */\n      tag_250\n        /* \"contracts/liquidityMining/KyberFairLaunch.sol\":20425:20485  IERC20Ext(pool.stakeToken).safeTransfer(msg.sender, _amount) */\n      jump\t// in\n    tag_411:\n        /* \"contracts/liquidityMining/KyberFairLaunch.sol\":20530:20542  block.number */\n      number\n        /* \"contracts/liquidityMining/KyberFairLaunch.sol\":20524:20528  _pid */\n      dup5\n        /* \"contracts/liquidityMining/KyberFairLaunch.sol\":20512:20522  msg.sender */\n      caller\n      sub(shl(0xa0, 0x01), 0x01)\n        /* \"contracts/liquidityMining/KyberFairLaunch.sol\":20503:20552  Withdraw(msg.sender, _pid, block.number, _amount) */\n      and\n      0x02f25270a4d87bea75db541cdfe559334a275b4a233520ed6c0a2429667cca94\n        /* \"contracts/liquidityMining/KyberFairLaunch.sol\":20544:20551  _amount */\n      dup7\n        /* \"contracts/liquidityMining/KyberFairLaunch.sol\":20503:20552  Withdraw(msg.sender, _pid, block.number, _amount) */\n      mload(0x40)\n      tag_412\n      swap2\n      swap1\n      tag_36\n      jump\t// in\n    tag_412:\n      mload(0x40)\n      dup1\n      swap2\n      sub\n      swap1\n      log4\n        /* \"contracts/liquidityMining/KyberFairLaunch.sol\":19929:20560  function _withdraw(uint256 _pid, uint256 _amount) internal {\r... */\n      pop\n      pop\n      pop\n      pop\n      jump\t// out\n        /* \"contracts/liquidityMining/KyberFairLaunch.sol\":23167:23421  function _lockReward(\r... */\n    tag_239:\n        /* \"contracts/liquidityMining/KyberFairLaunch.sol\":23294:23307  uint256 value */\n      0x00\n      sub(shl(0xa0, 0x01), 0x01)\n        /* \"contracts/liquidityMining/KyberFairLaunch.sol\":23310:23331  token == IERC20Ext(0) */\n      dup5\n      and\n      iszero\n        /* \"contracts/liquidityMining/KyberFairLaunch.sol\":23310:23345  token == IERC20Ext(0) ? _amount : 0 */\n      tag_414\n      jumpi\n        /* \"contracts/liquidityMining/KyberFairLaunch.sol\":23344:23345  0 */\n      0x00\n        /* \"contracts/liquidityMining/KyberFairLaunch.sol\":23310:23345  token == IERC20Ext(0) ? _amount : 0 */\n      jump(tag_415)\n    tag_414:\n        /* \"contracts/liquidityMining/KyberFairLaunch.sol\":23334:23341  _amount */\n      dup2\n        /* \"contracts/liquidityMining/KyberFairLaunch.sol\":23310:23345  token == IERC20Ext(0) ? _amount : 0 */\n    tag_415:\n        /* \"contracts/liquidityMining/KyberFairLaunch.sol\":23294:23345  uint256 value = token == IERC20Ext(0) ? _amount : 0 */\n      swap1\n      pop\n        /* \"contracts/liquidityMining/KyberFairLaunch.sol\":23356:23368  rewardLocker */\n      immutable(\"0x840fecb9bca2c4e63427c4b817f3137cd391e6a160600107c90b96ae83fdac7e\")\n      sub(shl(0xa0, 0x01), 0x01)\n        /* \"contracts/liquidityMining/KyberFairLaunch.sol\":23356:23373  rewardLocker.lock */\n      and\n      0x7750c9f0\n        /* \"contracts/liquidityMining/KyberFairLaunch.sol\":23381:23386  value */\n      dup3\n        /* \"contracts/liquidityMining/KyberFairLaunch.sol\":23388:23393  token */\n      dup7\n        /* \"contracts/liquidityMining/KyberFairLaunch.sol\":23395:23403  _account */\n      dup7\n        /* \"contracts/liquidityMining/KyberFairLaunch.sol\":23405:23412  _amount */\n      dup7\n        /* \"contracts/liquidityMining/KyberFairLaunch.sol\":23356:23413  rewardLocker.lock{value: value}(token, _account, _amount) */\n      mload(0x40)\n      dup6\n      0xffffffff\n      and\n      0xe0\n      shl\n      dup2\n      mstore\n      0x04\n      add\n      tag_416\n      swap4\n      swap3\n      swap2\n      swap1\n      tag_417\n      jump\t// in\n    tag_416:\n      0x00\n      mload(0x40)\n      dup1\n      dup4\n      sub\n      dup2\n      dup6\n      dup9\n      dup1\n      extcodesize\n      iszero\n      dup1\n      iszero\n      tag_418\n      jumpi\n      0x00\n      dup1\n      revert\n    tag_418:\n      pop\n      gas\n      call\n      iszero\n      dup1\n      iszero\n      tag_420\n      jumpi\n      returndatasize\n      0x00\n      dup1\n      returndatacopy\n      revert(0x00, returndatasize)\n    tag_420:\n      pop\n      pop\n      pop\n      pop\n      pop\n        /* \"contracts/liquidityMining/KyberFairLaunch.sol\":23167:23421  function _lockReward(\r... */\n      pop\n      pop\n      pop\n      pop\n      jump\t// out\n        /* \"@openzeppelin/contracts/math/SafeMath.sol\":3136:3291  function sub(uint256 a, uint256 b) internal pure returns (uint256) {... */\n    tag_247:\n        /* \"@openzeppelin/contracts/math/SafeMath.sol\":3194:3201  uint256 */\n      0x00\n        /* \"@openzeppelin/contracts/math/SafeMath.sol\":3226:3227  a */\n      dup3\n        /* \"@openzeppelin/contracts/math/SafeMath.sol\":3221:3222  b */\n      dup3\n        /* \"@openzeppelin/contracts/math/SafeMath.sol\":3221:3227  b <= a */\n      gt\n      iszero\n        /* \"@openzeppelin/contracts/math/SafeMath.sol\":3213:3262  require(b <= a, \"SafeMath: subtraction overflow\") */\n      tag_422\n      jumpi\n      0x40\n      dup1\n      mload\n      shl(0xe5, 0x461bcd)\n      dup2\n      mstore\n      0x20\n      0x04\n      dup3\n      add\n      mstore\n      0x1e\n      0x24\n      dup3\n      add\n      mstore\n      0x536166654d6174683a207375627472616374696f6e206f766572666c6f770000\n      0x44\n      dup3\n      add\n      mstore\n      swap1\n      mload\n      swap1\n      dup2\n      swap1\n      sub\n      0x64\n      add\n      swap1\n      revert\n    tag_422:\n      pop\n        /* \"@openzeppelin/contracts/math/SafeMath.sol\":3279:3284  a - b */\n      swap1\n      sub\n      swap1\n        /* \"@openzeppelin/contracts/math/SafeMath.sol\":3136:3291  function sub(uint256 a, uint256 b) internal pure returns (uint256) {... */\n      jump\t// out\n        /* \"@openzeppelin/contracts/token/ERC20/SafeERC20.sol\":704:879  function safeTransfer(IERC20 token, address to, uint256 value) internal {... */\n    tag_250:\n        /* \"@openzeppelin/contracts/token/ERC20/SafeERC20.sol\":813:871  abi.encodeWithSelector(token.transfer.selector, to, value) */\n      0x40\n      dup1\n      mload\n      sub(shl(0xa0, 0x01), 0x01)\n      dup5\n      and\n      0x24\n      dup3\n      add\n      mstore\n      0x44\n      dup1\n      dup3\n      add\n      dup5\n      swap1\n      mstore\n      dup3\n      mload\n      dup1\n      dup4\n      sub\n      swap1\n      swap2\n      add\n      dup2\n      mstore\n      0x64\n      swap1\n      swap2\n      add\n      swap1\n      swap2\n      mstore\n      0x20\n      dup2\n      add\n      dup1\n      mload\n      sub(shl(0xe0, 0x01), 0x01)\n      and\n      shl(0xe0, 0xa9059cbb)\n      or\n      swap1\n      mstore\n        /* \"@openzeppelin/contracts/token/ERC20/SafeERC20.sol\":786:872  _callOptionalReturn(token, abi.encodeWithSelector(token.transfer.selector, to, value)) */\n      tag_341\n      swap1\n        /* \"@openzeppelin/contracts/token/ERC20/SafeERC20.sol\":806:811  token */\n      dup5\n      swap1\n        /* \"@openzeppelin/contracts/token/ERC20/SafeERC20.sol\":786:805  _callOptionalReturn */\n      tag_373\n        /* \"@openzeppelin/contracts/token/ERC20/SafeERC20.sol\":786:872  _callOptionalReturn(token, abi.encodeWithSelector(token.transfer.selector, to, value)) */\n      jump\t// in\n        /* \"contracts/liquidityMining/KyberFairLaunch.sol\":22851:23091  function _lastAccountedRewardBlock(uint256 _pid)\r... */\n    tag_273:\n        /* \"contracts/liquidityMining/KyberFairLaunch.sol\":22950:22963  uint32 _value */\n      0x00\n        /* \"contracts/liquidityMining/KyberFairLaunch.sol\":22990:23004  poolInfo[_pid] */\n      dup2\n      dup2\n      mstore\n        /* \"contracts/liquidityMining/KyberFairLaunch.sol\":22990:22998  poolInfo */\n      0x06\n        /* \"contracts/liquidityMining/KyberFairLaunch.sol\":22990:23004  poolInfo[_pid] */\n      0x20\n      mstore\n      0x40\n      swap1\n      keccak256\n        /* \"contracts/liquidityMining/KyberFairLaunch.sol\":22990:23013  poolInfo[_pid].endBlock */\n      0x01\n      add\n      sload\n      shl(0xc0, 0x01)\n      swap1\n      div\n      0xffffffff\n      and\n        /* \"contracts/liquidityMining/KyberFairLaunch.sol\":23037:23049  block.number */\n      number\n        /* \"contracts/liquidityMining/KyberFairLaunch.sol\":23028:23049  _value > block.number */\n      dup2\n      gt\n        /* \"contracts/liquidityMining/KyberFairLaunch.sol\":23024:23083  if (_value > block.number) _value = block.number.toUint32() */\n      iszero\n      tag_426\n      jumpi\n        /* \"contracts/liquidityMining/KyberFairLaunch.sol\":23060:23083  block.number.toUint32() */\n      tag_427\n        /* \"contracts/liquidityMining/KyberFairLaunch.sol\":23060:23072  block.number */\n      number\n        /* \"contracts/liquidityMining/KyberFairLaunch.sol\":23060:23081  block.number.toUint32 */\n      tag_428\n        /* \"contracts/liquidityMining/KyberFairLaunch.sol\":23060:23083  block.number.toUint32() */\n      jump\t// in\n    tag_427:\n        /* \"contracts/liquidityMining/KyberFairLaunch.sol\":23051:23083  _value = block.number.toUint32() */\n      swap1\n      pop\n        /* \"contracts/liquidityMining/KyberFairLaunch.sol\":23024:23083  if (_value > block.number) _value = block.number.toUint32() */\n    tag_426:\n        /* \"contracts/liquidityMining/KyberFairLaunch.sol\":22851:23091  function _lastAccountedRewardBlock(uint256 _pid)\r... */\n      swap2\n      swap1\n      pop\n      jump\t// out\n        /* \"@openzeppelin/contracts/math/SafeMath.sol\":3538:3753  function mul(uint256 a, uint256 b) internal pure returns (uint256) {... */\n    tag_280:\n        /* \"@openzeppelin/contracts/math/SafeMath.sol\":3596:3603  uint256 */\n      0x00\n        /* \"@openzeppelin/contracts/math/SafeMath.sol\":3619:3625  a == 0 */\n      dup3\n        /* \"@openzeppelin/contracts/math/SafeMath.sol\":3615:3635  if (a == 0) return 0 */\n      tag_430\n      jumpi\n      pop\n        /* \"@openzeppelin/contracts/math/SafeMath.sol\":3634:3635  0 */\n      0x00\n        /* \"@openzeppelin/contracts/math/SafeMath.sol\":3627:3635  return 0 */\n      jump(tag_401)\n        /* \"@openzeppelin/contracts/math/SafeMath.sol\":3615:3635  if (a == 0) return 0 */\n    tag_430:\n        /* \"@openzeppelin/contracts/math/SafeMath.sol\":3657:3662  a * b */\n      dup3\n      dup3\n      mul\n        /* \"@openzeppelin/contracts/math/SafeMath.sol\":3661:3662  b */\n      dup3\n        /* \"@openzeppelin/contracts/math/SafeMath.sol\":3657:3658  a */\n      dup5\n        /* \"@openzeppelin/contracts/math/SafeMath.sol\":3657:3662  a * b */\n      dup3\n        /* \"@openzeppelin/contracts/math/SafeMath.sol\":3657:3658  a */\n      dup2\n        /* \"@openzeppelin/contracts/math/SafeMath.sol\":3680:3685  c / a */\n      tag_431\n      jumpi\n      invalid\n    tag_431:\n      div\n        /* \"@openzeppelin/contracts/math/SafeMath.sol\":3680:3690  c / a == b */\n      eq\n        /* \"@openzeppelin/contracts/math/SafeMath.sol\":3672:3728  require(c / a == b, \"SafeMath: multiplication overflow\") */\n      tag_402\n      jumpi\n      mload(0x40)\n      shl(0xe5, 0x461bcd)\n      dup2\n      mstore\n      0x04\n      add\n      dup1\n      dup1\n      0x20\n      add\n      dup3\n      dup2\n      sub\n      dup3\n      mstore\n      0x21\n      dup2\n      mstore\n      0x20\n      add\n      dup1\n      data_9113bb53c2876a3805b2c9242029423fc540a728243ce887ab24c82cf119fba3\n      0x21\n      swap2\n      codecopy\n      0x40\n      add\n      swap2\n      pop\n      pop\n      mload(0x40)\n      dup1\n      swap2\n      sub\n      swap1\n      revert\n        /* \"@openzeppelin/contracts/token/ERC20/SafeERC20.sol\":2967:3718  function _callOptionalReturn(IERC20 token, bytes memory data) private {... */\n    tag_373:\n        /* \"@openzeppelin/contracts/token/ERC20/SafeERC20.sol\":3386:3409  bytes memory returndata */\n      0x00\n        /* \"@openzeppelin/contracts/token/ERC20/SafeERC20.sol\":3412:3481  address(token).functionCall(data, \"SafeERC20: low-level call failed\") */\n      tag_434\n        /* \"@openzeppelin/contracts/token/ERC20/SafeERC20.sol\":3440:3444  data */\n      dup3\n        /* \"@openzeppelin/contracts/token/ERC20/SafeERC20.sol\":3412:3481  address(token).functionCall(data, \"SafeERC20: low-level call failed\") */\n      mload(0x40)\n      dup1\n      0x40\n      add\n      0x40\n      mstore\n      dup1\n      0x20\n      dup2\n      mstore\n      0x20\n      add\n      0x5361666545524332303a206c6f772d6c6576656c2063616c6c206661696c6564\n      dup2\n      mstore\n      pop\n        /* \"@openzeppelin/contracts/token/ERC20/SafeERC20.sol\":3420:3425  token */\n      dup6\n      sub(shl(0xa0, 0x01), 0x01)\n        /* \"@openzeppelin/contracts/token/ERC20/SafeERC20.sol\":3412:3439  address(token).functionCall */\n      and\n      tag_150\n      swap1\n        /* \"@openzeppelin/contracts/token/ERC20/SafeERC20.sol\":3412:3481  address(token).functionCall(data, \"SafeERC20: low-level call failed\") */\n      swap3\n      swap2\n      swap1\n      0xffffffff\n      and\n      jump\t// in\n    tag_434:\n        /* \"@openzeppelin/contracts/token/ERC20/SafeERC20.sol\":3495:3512  returndata.length */\n      dup1\n      mload\n        /* \"@openzeppelin/contracts/token/ERC20/SafeERC20.sol\":3386:3481  bytes memory returndata = address(token).functionCall(data, \"SafeERC20: low-level call failed\") */\n      swap1\n      swap2\n      pop\n        /* \"@openzeppelin/contracts/token/ERC20/SafeERC20.sol\":3495:3516  returndata.length > 0 */\n      iszero\n        /* \"@openzeppelin/contracts/token/ERC20/SafeERC20.sol\":3491:3712  if (returndata.length > 0) { // Return data is optional... */\n      tag_341\n      jumpi\n        /* \"@openzeppelin/contracts/token/ERC20/SafeERC20.sol\":3635:3645  returndata */\n      dup1\n        /* \"@openzeppelin/contracts/token/ERC20/SafeERC20.sol\":3624:3654  abi.decode(returndata, (bool)) */\n      dup1\n      0x20\n      add\n      swap1\n      mload\n      0x20\n      dup2\n      lt\n      iszero\n      tag_436\n      jumpi\n      0x00\n      dup1\n      revert\n    tag_436:\n      pop\n      mload\n        /* \"@openzeppelin/contracts/token/ERC20/SafeERC20.sol\":3616:3701  require(abi.decode(returndata, (bool)), \"SafeERC20: ERC20 operation did not succeed\") */\n      tag_341\n      jumpi\n      mload(0x40)\n      shl(0xe5, 0x461bcd)\n      dup2\n      mstore\n      0x04\n      add\n      dup1\n      dup1\n      0x20\n      add\n      dup3\n      dup2\n      sub\n      dup3\n      mstore\n      0x2a\n      dup2\n      mstore\n      0x20\n      add\n      dup1\n      data_e11ad79d1e4a7f2e5f376964cb99e8e8f7904e3fc16a109f7a7ecb9aa7956dcd\n      0x2a\n      swap2\n      codecopy\n      0x40\n      add\n      swap2\n      pop\n      pop\n      mload(0x40)\n      dup1\n      swap2\n      sub\n      swap1\n      revert\n        /* \"@openzeppelin/contracts/utils/Address.sol\":4608:5131  function functionCallWithValue(address target, bytes memory data, uint256 value, string memory errorMessage) internal returns (bytes memory) {... */\n    tag_376:\n        /* \"@openzeppelin/contracts/utils/Address.sol\":4735:4747  bytes memory */\n      0x60\n        /* \"@openzeppelin/contracts/utils/Address.sol\":4792:4797  value */\n      dup3\n        /* \"@openzeppelin/contracts/utils/Address.sol\":4767:4788  address(this).balance */\n      selfbalance\n        /* \"@openzeppelin/contracts/utils/Address.sol\":4767:4797  address(this).balance >= value */\n      lt\n      iszero\n        /* \"@openzeppelin/contracts/utils/Address.sol\":4759:4840  require(address(this).balance >= value, \"Address: insufficient balance for call\") */\n      tag_439\n      jumpi\n      mload(0x40)\n      shl(0xe5, 0x461bcd)\n      dup2\n      mstore\n      0x04\n      add\n      dup1\n      dup1\n      0x20\n      add\n      dup3\n      dup2\n      sub\n      dup3\n      mstore\n      0x26\n      dup2\n      mstore\n      0x20\n      add\n      dup1\n      data_565f1a77334fc4792800921178c71e4521acffab18ff9e7885b49377ee80ab4c\n      0x26\n      swap2\n      codecopy\n      0x40\n      add\n      swap2\n      pop\n      pop\n      mload(0x40)\n      dup1\n      swap2\n      sub\n      swap1\n      revert\n    tag_439:\n        /* \"@openzeppelin/contracts/utils/Address.sol\":4858:4876  isContract(target) */\n      tag_440\n        /* \"@openzeppelin/contracts/utils/Address.sol\":4869:4875  target */\n      dup6\n        /* \"@openzeppelin/contracts/utils/Address.sol\":4858:4868  isContract */\n      tag_441\n        /* \"@openzeppelin/contracts/utils/Address.sol\":4858:4876  isContract(target) */\n      jump\t// in\n    tag_440:\n        /* \"@openzeppelin/contracts/utils/Address.sol\":4850:4910  require(isContract(target), \"Address: call to non-contract\") */\n      tag_442\n      jumpi\n      0x40\n      dup1\n      mload\n      shl(0xe5, 0x461bcd)\n      dup2\n      mstore\n      0x20\n      0x04\n      dup3\n      add\n      mstore\n      0x1d\n      0x24\n      dup3\n      add\n      mstore\n      0x416464726573733a2063616c6c20746f206e6f6e2d636f6e7472616374000000\n      0x44\n      dup3\n      add\n      mstore\n      swap1\n      mload\n      swap1\n      dup2\n      swap1\n      sub\n      0x64\n      add\n      swap1\n      revert\n    tag_442:\n        /* \"@openzeppelin/contracts/utils/Address.sol\":4981:4993  bool success */\n      0x00\n        /* \"@openzeppelin/contracts/utils/Address.sol\":4995:5018  bytes memory returndata */\n      dup1\n        /* \"@openzeppelin/contracts/utils/Address.sol\":5022:5028  target */\n      dup7\n      sub(shl(0xa0, 0x01), 0x01)\n        /* \"@openzeppelin/contracts/utils/Address.sol\":5022:5033  target.call */\n      and\n        /* \"@openzeppelin/contracts/utils/Address.sol\":5042:5047  value */\n      dup6\n        /* \"@openzeppelin/contracts/utils/Address.sol\":5050:5054  data */\n      dup8\n        /* \"@openzeppelin/contracts/utils/Address.sol\":5022:5055  target.call{ value: value }(data) */\n      mload(0x40)\n      dup1\n      dup3\n      dup1\n      mload\n      swap1\n      0x20\n      add\n      swap1\n      dup1\n      dup4\n      dup4\n    tag_443:\n      0x20\n      dup4\n      lt\n      tag_445\n      jumpi\n      dup1\n      mload\n      dup3\n      mstore\n      not(0x1f)\n      swap1\n      swap3\n      add\n      swap2\n      0x20\n      swap2\n      dup3\n      add\n      swap2\n      add\n      jump(tag_443)\n    tag_445:\n      0x01\n      dup4\n      0x20\n      sub\n      0x0100\n      exp\n      sub\n      dup1\n      not\n      dup3\n      mload\n      and\n      dup2\n      dup5\n      mload\n      and\n      dup1\n      dup3\n      or\n      dup6\n      mstore\n      pop\n      pop\n      pop\n      pop\n      pop\n      pop\n      swap1\n      pop\n      add\n      swap2\n      pop\n      pop\n      0x00\n      mload(0x40)\n      dup1\n      dup4\n      sub\n      dup2\n      dup6\n      dup8\n      gas\n      call\n      swap3\n      pop\n      pop\n      pop\n      returndatasize\n      dup1\n      0x00\n      dup2\n      eq\n      tag_448\n      jumpi\n      mload(0x40)\n      swap2\n      pop\n      and(add(returndatasize, 0x3f), not(0x1f))\n      dup3\n      add\n      0x40\n      mstore\n      returndatasize\n      dup3\n      mstore\n      returndatasize\n      0x00\n      0x20\n      dup5\n      add\n      returndatacopy\n      jump(tag_447)\n    tag_448:\n      0x60\n      swap2\n      pop\n    tag_447:\n      pop\n        /* \"@openzeppelin/contracts/utils/Address.sol\":4980:5055  (bool success, bytes memory returndata) = target.call{ value: value }(data) */\n      swap2\n      pop\n      swap2\n      pop\n        /* \"@openzeppelin/contracts/utils/Address.sol\":5072:5124  _verifyCallResult(success, returndata, errorMessage) */\n      tag_449\n        /* \"@openzeppelin/contracts/utils/Address.sol\":5090:5097  success */\n      dup3\n        /* \"@openzeppelin/contracts/utils/Address.sol\":5099:5109  returndata */\n      dup3\n        /* \"@openzeppelin/contracts/utils/Address.sol\":5111:5123  errorMessage */\n      dup7\n        /* \"@openzeppelin/contracts/utils/Address.sol\":5072:5089  _verifyCallResult */\n      tag_450\n        /* \"@openzeppelin/contracts/utils/Address.sol\":5072:5124  _verifyCallResult(success, returndata, errorMessage) */\n      jump\t// in\n    tag_449:\n        /* \"@openzeppelin/contracts/utils/Address.sol\":5065:5124  return _verifyCallResult(success, returndata, errorMessage) */\n      swap8\n        /* \"@openzeppelin/contracts/utils/Address.sol\":4608:5131  function functionCallWithValue(address target, bytes memory data, uint256 value, string memory errorMessage) internal returns (bytes memory) {... */\n      swap7\n      pop\n      pop\n      pop\n      pop\n      pop\n      pop\n      pop\n      jump\t// out\n        /* \"@openzeppelin/contracts/utils/SafeCast.sol\":2017:2193  function toUint32(uint256 value) internal pure returns (uint32) {... */\n    tag_428:\n        /* \"@openzeppelin/contracts/utils/SafeCast.sol\":2073:2079  uint32 */\n      0x00\n        /* \"@openzeppelin/contracts/utils/SafeCast.sol\":2107:2112  2**32 */\n      0x0100000000\n        /* \"@openzeppelin/contracts/utils/SafeCast.sol\":2099:2104  value */\n      dup3\n        /* \"@openzeppelin/contracts/utils/SafeCast.sol\":2099:2112  value < 2**32 */\n      lt\n        /* \"@openzeppelin/contracts/utils/SafeCast.sol\":2091:2156  require(value < 2**32, \"SafeCast: value doesn\\'t fit in 32 bits\") */\n      tag_452\n      jumpi\n      mload(0x40)\n      shl(0xe5, 0x461bcd)\n      dup2\n      mstore\n      0x04\n      add\n      dup1\n      dup1\n      0x20\n      add\n      dup3\n      dup2\n      sub\n      dup3\n      mstore\n      0x26\n      dup2\n      mstore\n      0x20\n      add\n      dup1\n      data_c907489dafcfb622d3b83f2657a14d6da2f59e0de3116af0d6a80554c1a7cb19\n      0x26\n      swap2\n      codecopy\n      0x40\n      add\n      swap2\n      pop\n      pop\n      mload(0x40)\n      dup1\n      swap2\n      sub\n      swap1\n      revert\n    tag_452:\n      pop\n        /* \"@openzeppelin/contracts/utils/SafeCast.sol\":2180:2185  value */\n      swap1\n        /* \"@openzeppelin/contracts/utils/SafeCast.sol\":2017:2193  function toUint32(uint256 value) internal pure returns (uint32) {... */\n      jump\t// out\n        /* \"@openzeppelin/contracts/utils/Address.sol\":726:1139  function isContract(address account) internal view returns (bool) {... */\n    tag_441:\n        /* \"@openzeppelin/contracts/utils/Address.sol\":1086:1106  extcodesize(account) */\n      extcodesize\n        /* \"@openzeppelin/contracts/utils/Address.sol\":1124:1132  size > 0 */\n      iszero\n      iszero\n      swap1\n        /* \"@openzeppelin/contracts/utils/Address.sol\":726:1139  function isContract(address account) internal view returns (bool) {... */\n      jump\t// out\n        /* \"@openzeppelin/contracts/utils/Address.sol\":7091:7816  function _verifyCallResult(bool success, bytes memory returndata, string memory errorMessage) private pure returns(bytes memory) {... */\n    tag_450:\n        /* \"@openzeppelin/contracts/utils/Address.sol\":7206:7218  bytes memory */\n      0x60\n        /* \"@openzeppelin/contracts/utils/Address.sol\":7234:7241  success */\n      dup4\n        /* \"@openzeppelin/contracts/utils/Address.sol\":7230:7810  if (success) {... */\n      iszero\n      tag_455\n      jumpi\n      pop\n        /* \"@openzeppelin/contracts/utils/Address.sol\":7264:7274  returndata */\n      dup2\n        /* \"@openzeppelin/contracts/utils/Address.sol\":7257:7274  return returndata */\n      jump(tag_374)\n        /* \"@openzeppelin/contracts/utils/Address.sol\":7230:7810  if (success) {... */\n    tag_455:\n        /* \"@openzeppelin/contracts/utils/Address.sol\":7375:7392  returndata.length */\n      dup3\n      mload\n        /* \"@openzeppelin/contracts/utils/Address.sol\":7375:7396  returndata.length > 0 */\n      iszero\n        /* \"@openzeppelin/contracts/utils/Address.sol\":7371:7800  if (returndata.length > 0) {... */\n      tag_457\n      jumpi\n        /* \"@openzeppelin/contracts/utils/Address.sol\":7633:7643  returndata */\n      dup3\n        /* \"@openzeppelin/contracts/utils/Address.sol\":7627:7644  mload(returndata) */\n      mload\n        /* \"@openzeppelin/contracts/utils/Address.sol\":7693:7708  returndata_size */\n      dup1\n        /* \"@openzeppelin/contracts/utils/Address.sol\":7680:7690  returndata */\n      dup5\n        /* \"@openzeppelin/contracts/utils/Address.sol\":7676:7678  32 */\n      0x20\n        /* \"@openzeppelin/contracts/utils/Address.sol\":7672:7691  add(32, returndata) */\n      add\n        /* \"@openzeppelin/contracts/utils/Address.sol\":7665:7709  revert(add(32, returndata), returndata_size) */\n      revert\n        /* \"@openzeppelin/contracts/utils/Address.sol\":7582:7727  {... */\n    tag_457:\n        /* \"@openzeppelin/contracts/utils/Address.sol\":7772:7784  errorMessage */\n      dup2\n        /* \"@openzeppelin/contracts/utils/Address.sol\":7765:7785  revert(errorMessage) */\n      mload(0x40)\n      shl(0xe5, 0x461bcd)\n      dup2\n      mstore\n      0x04\n      add\n      dup1\n      dup1\n      0x20\n      add\n      dup3\n      dup2\n      sub\n      dup3\n      mstore\n      dup4\n      dup2\n      dup2\n      mload\n      dup2\n      mstore\n      0x20\n      add\n      swap2\n      pop\n      dup1\n      mload\n      swap1\n      0x20\n      add\n      swap1\n      dup1\n      dup4\n      dup4\n      0x00\n    tag_459:\n      dup4\n      dup2\n      lt\n      iszero\n      tag_461\n      jumpi\n      dup2\n      dup2\n      add\n      mload\n      dup4\n      dup3\n      add\n      mstore\n      0x20\n      add\n      jump(tag_459)\n    tag_461:\n      pop\n      pop\n      pop\n      pop\n      swap1\n      pop\n      swap1\n      dup2\n      add\n      swap1\n      0x1f\n      and\n      dup1\n      iszero\n      tag_462\n      jumpi\n      dup1\n      dup3\n      sub\n      dup1\n      mload\n      0x01\n      dup4\n      0x20\n      sub\n      0x0100\n      exp\n      sub\n      not\n      and\n      dup2\n      mstore\n      0x20\n      add\n      swap2\n      pop\n    tag_462:\n      pop\n      swap3\n      pop\n      pop\n      pop\n      mload(0x40)\n      dup1\n      swap2\n      sub\n      swap1\n      revert\n        /* \"#utility.yul\":14:189   */\n    tag_464:\n        /* \"#utility.yul\":84:104   */\n      dup1\n      calldataload\n      sub(shl(0xa0, 0x01), 0x01)\n        /* \"#utility.yul\":133:164   */\n      dup2\n      and\n        /* \"#utility.yul\":123:165   */\n      dup2\n      eq\n        /* \"#utility.yul\":113:115   */\n      tag_426\n      jumpi\n        /* \"#utility.yul\":179:180   */\n      0x00\n        /* \"#utility.yul\":176:177   */\n      dup1\n        /* \"#utility.yul\":169:181   */\n      revert\n        /* \"#utility.yul\":194:598   */\n    tag_467:\n      0x00\n      dup1\n        /* \"#utility.yul\":327:330   */\n      dup4\n        /* \"#utility.yul\":320:324   */\n      0x1f\n        /* \"#utility.yul\":312:318   */\n      dup5\n        /* \"#utility.yul\":308:325   */\n      add\n        /* \"#utility.yul\":304:331   */\n      slt\n        /* \"#utility.yul\":294:296   */\n      tag_469\n      jumpi\n        /* \"#utility.yul\":352:360   */\n      dup2\n        /* \"#utility.yul\":342:350   */\n      dup3\n        /* \"#utility.yul\":335:361   */\n      revert\n        /* \"#utility.yul\":294:296   */\n    tag_469:\n      pop\n        /* \"#utility.yul\":382:402   */\n      dup2\n      calldataload\n        /* \"#utility.yul\":425:443   */\n      0xffffffffffffffff\n        /* \"#utility.yul\":414:444   */\n      dup2\n      gt\n        /* \"#utility.yul\":411:413   */\n      iszero\n      tag_470\n      jumpi\n        /* \"#utility.yul\":464:472   */\n      dup2\n        /* \"#utility.yul\":454:462   */\n      dup3\n        /* \"#utility.yul\":447:473   */\n      revert\n        /* \"#utility.yul\":411:413   */\n    tag_470:\n        /* \"#utility.yul\":508:512   */\n      0x20\n        /* \"#utility.yul\":500:506   */\n      dup4\n        /* \"#utility.yul\":496:513   */\n      add\n        /* \"#utility.yul\":484:513   */\n      swap2\n      pop\n        /* \"#utility.yul\":571:574   */\n      dup4\n        /* \"#utility.yul\":564:568   */\n      0x20\n        /* \"#utility.yul\":556:560   */\n      dup1\n        /* \"#utility.yul\":548:554   */\n      dup4\n        /* \"#utility.yul\":544:561   */\n      mul\n        /* \"#utility.yul\":536:542   */\n      dup6\n        /* \"#utility.yul\":532:562   */\n      add\n        /* \"#utility.yul\":528:569   */\n      add\n        /* \"#utility.yul\":525:575   */\n      gt\n        /* \"#utility.yul\":522:524   */\n      iszero\n      tag_471\n      jumpi\n        /* \"#utility.yul\":588:589   */\n      0x00\n        /* \"#utility.yul\":585:586   */\n      dup1\n        /* \"#utility.yul\":578:590   */\n      revert\n        /* \"#utility.yul\":522:524   */\n    tag_471:\n        /* \"#utility.yul\":284:598   */\n      swap3\n      pop\n      swap3\n      swap1\n      pop\n      jump\t// out\n        /* \"#utility.yul\":603:768   */\n    tag_472:\n        /* \"#utility.yul\":672:692   */\n      dup1\n      calldataload\n        /* \"#utility.yul\":732:742   */\n      0xffffffff\n        /* \"#utility.yul\":721:743   */\n      dup2\n      and\n        /* \"#utility.yul\":711:744   */\n      dup2\n      eq\n        /* \"#utility.yul\":701:703   */\n      tag_426\n      jumpi\n        /* \"#utility.yul\":758:759   */\n      0x00\n        /* \"#utility.yul\":755:756   */\n      dup1\n        /* \"#utility.yul\":748:760   */\n      revert\n        /* \"#utility.yul\":773:971   */\n    tag_47:\n      0x00\n        /* \"#utility.yul\":885:887   */\n      0x20\n        /* \"#utility.yul\":873:882   */\n      dup3\n        /* \"#utility.yul\":864:871   */\n      dup5\n        /* \"#utility.yul\":860:883   */\n      sub\n        /* \"#utility.yul\":856:888   */\n      slt\n        /* \"#utility.yul\":853:855   */\n      iszero\n      tag_476\n      jumpi\n        /* \"#utility.yul\":906:912   */\n      dup1\n        /* \"#utility.yul\":898:904   */\n      dup2\n        /* \"#utility.yul\":891:913   */\n      revert\n        /* \"#utility.yul\":853:855   */\n    tag_476:\n        /* \"#utility.yul\":934:965   */\n      tag_374\n        /* \"#utility.yul\":955:964   */\n      dup3\n        /* \"#utility.yul\":934:965   */\n      tag_464\n      jump\t// in\n        /* \"#utility.yul\":976:1664   */\n    tag_66:\n      0x00\n      dup1\n      0x00\n      dup1\n      0x00\n        /* \"#utility.yul\":1172:1175   */\n      0x80\n        /* \"#utility.yul\":1160:1169   */\n      dup7\n        /* \"#utility.yul\":1151:1158   */\n      dup9\n        /* \"#utility.yul\":1147:1170   */\n      sub\n        /* \"#utility.yul\":1143:1176   */\n      slt\n        /* \"#utility.yul\":1140:1142   */\n      iszero\n      tag_479\n      jumpi\n        /* \"#utility.yul\":1194:1200   */\n      dup1\n        /* \"#utility.yul\":1186:1192   */\n      dup2\n        /* \"#utility.yul\":1179:1201   */\n      revert\n        /* \"#utility.yul\":1140:1142   */\n    tag_479:\n        /* \"#utility.yul\":1222:1253   */\n      tag_480\n        /* \"#utility.yul\":1243:1252   */\n      dup7\n        /* \"#utility.yul\":1222:1253   */\n      tag_464\n      jump\t// in\n    tag_480:\n        /* \"#utility.yul\":1212:1253   */\n      swap5\n      pop\n        /* \"#utility.yul\":1272:1311   */\n      tag_481\n        /* \"#utility.yul\":1307:1309   */\n      0x20\n        /* \"#utility.yul\":1296:1305   */\n      dup8\n        /* \"#utility.yul\":1292:1310   */\n      add\n        /* \"#utility.yul\":1272:1311   */\n      tag_472\n      jump\t// in\n    tag_481:\n        /* \"#utility.yul\":1262:1311   */\n      swap4\n      pop\n        /* \"#utility.yul\":1330:1369   */\n      tag_482\n        /* \"#utility.yul\":1365:1367   */\n      0x40\n        /* \"#utility.yul\":1354:1363   */\n      dup8\n        /* \"#utility.yul\":1350:1368   */\n      add\n        /* \"#utility.yul\":1330:1369   */\n      tag_472\n      jump\t// in\n    tag_482:\n        /* \"#utility.yul\":1320:1369   */\n      swap3\n      pop\n        /* \"#utility.yul\":1420:1422   */\n      0x60\n        /* \"#utility.yul\":1409:1418   */\n      dup7\n        /* \"#utility.yul\":1405:1423   */\n      add\n        /* \"#utility.yul\":1392:1424   */\n      calldataload\n        /* \"#utility.yul\":1447:1465   */\n      0xffffffffffffffff\n        /* \"#utility.yul\":1439:1445   */\n      dup2\n        /* \"#utility.yul\":1436:1466   */\n      gt\n        /* \"#utility.yul\":1433:1435   */\n      iszero\n      tag_483\n      jumpi\n        /* \"#utility.yul\":1484:1490   */\n      dup2\n        /* \"#utility.yul\":1476:1482   */\n      dup3\n        /* \"#utility.yul\":1469:1491   */\n      revert\n        /* \"#utility.yul\":1433:1435   */\n    tag_483:\n        /* \"#utility.yul\":1528:1604   */\n      tag_484\n        /* \"#utility.yul\":1596:1603   */\n      dup9\n        /* \"#utility.yul\":1587:1593   */\n      dup3\n        /* \"#utility.yul\":1576:1585   */\n      dup10\n        /* \"#utility.yul\":1572:1594   */\n      add\n        /* \"#utility.yul\":1528:1604   */\n      tag_467\n      jump\t// in\n    tag_484:\n        /* \"#utility.yul\":1130:1664   */\n      swap7\n      swap10\n      swap6\n      swap9\n      pop\n      swap4\n      swap7\n      pop\n        /* \"#utility.yul\":1623:1631   */\n      swap3\n      swap5\n        /* \"#utility.yul\":1502:1604   */\n      swap4\n        /* \"#utility.yul\":1130:1664   */\n      swap3\n      pop\n      pop\n      pop\n      jump\t// out\n        /* \"#utility.yul\":1669:2132   */\n    tag_86:\n      0x00\n      dup1\n        /* \"#utility.yul\":1816:1818   */\n      0x20\n        /* \"#utility.yul\":1804:1813   */\n      dup4\n        /* \"#utility.yul\":1795:1802   */\n      dup6\n        /* \"#utility.yul\":1791:1814   */\n      sub\n        /* \"#utility.yul\":1787:1819   */\n      slt\n        /* \"#utility.yul\":1784:1786   */\n      iszero\n      tag_486\n      jumpi\n        /* \"#utility.yul\":1837:1843   */\n      dup2\n        /* \"#utility.yul\":1829:1835   */\n      dup3\n        /* \"#utility.yul\":1822:1844   */\n      revert\n        /* \"#utility.yul\":1784:1786   */\n    tag_486:\n        /* \"#utility.yul\":1882:1891   */\n      dup3\n        /* \"#utility.yul\":1869:1892   */\n      calldataload\n        /* \"#utility.yul\":1915:1933   */\n      0xffffffffffffffff\n        /* \"#utility.yul\":1907:1913   */\n      dup2\n        /* \"#utility.yul\":1904:1934   */\n      gt\n        /* \"#utility.yul\":1901:1903   */\n      iszero\n      tag_487\n      jumpi\n        /* \"#utility.yul\":1952:1958   */\n      dup3\n        /* \"#utility.yul\":1944:1950   */\n      dup4\n        /* \"#utility.yul\":1937:1959   */\n      revert\n        /* \"#utility.yul\":1901:1903   */\n    tag_487:\n        /* \"#utility.yul\":1996:2072   */\n      tag_488\n        /* \"#utility.yul\":2064:2071   */\n      dup6\n        /* \"#utility.yul\":2055:2061   */\n      dup3\n        /* \"#utility.yul\":2044:2053   */\n      dup7\n        /* \"#utility.yul\":2040:2062   */\n      add\n        /* \"#utility.yul\":1996:2072   */\n      tag_467\n      jump\t// in\n    tag_488:\n        /* \"#utility.yul\":2091:2099   */\n      swap1\n      swap7\n        /* \"#utility.yul\":1970:2072   */\n      swap1\n      swap6\n      pop\n        /* \"#utility.yul\":1774:2132   */\n      swap4\n      pop\n      pop\n      pop\n      pop\n      jump\t// out\n        /* \"#utility.yul\":2137:2327   */\n    tag_59:\n      0x00\n        /* \"#utility.yul\":2249:2251   */\n      0x20\n        /* \"#utility.yul\":2237:2246   */\n      dup3\n        /* \"#utility.yul\":2228:2235   */\n      dup5\n        /* \"#utility.yul\":2224:2247   */\n      sub\n        /* \"#utility.yul\":2220:2252   */\n      slt\n        /* \"#utility.yul\":2217:2219   */\n      iszero\n      tag_490\n      jumpi\n        /* \"#utility.yul\":2270:2276   */\n      dup1\n        /* \"#utility.yul\":2262:2268   */\n      dup2\n        /* \"#utility.yul\":2255:2277   */\n      revert\n        /* \"#utility.yul\":2217:2219   */\n    tag_490:\n      pop\n        /* \"#utility.yul\":2298:2321   */\n      calldataload\n      swap2\n        /* \"#utility.yul\":2207:2327   */\n      swap1\n      pop\n      jump\t// out\n        /* \"#utility.yul\":2332:2598   */\n    tag_40:\n      0x00\n      dup1\n        /* \"#utility.yul\":2461:2463   */\n      0x40\n        /* \"#utility.yul\":2449:2458   */\n      dup4\n        /* \"#utility.yul\":2440:2447   */\n      dup6\n        /* \"#utility.yul\":2436:2459   */\n      sub\n        /* \"#utility.yul\":2432:2464   */\n      slt\n        /* \"#utility.yul\":2429:2431   */\n      iszero\n      tag_492\n      jumpi\n        /* \"#utility.yul\":2482:2488   */\n      dup2\n        /* \"#utility.yul\":2474:2480   */\n      dup3\n        /* \"#utility.yul\":2467:2489   */\n      revert\n        /* \"#utility.yul\":2429:2431   */\n    tag_492:\n        /* \"#utility.yul\":2523:2532   */\n      dup3\n        /* \"#utility.yul\":2510:2533   */\n      calldataload\n        /* \"#utility.yul\":2500:2533   */\n      swap2\n      pop\n        /* \"#utility.yul\":2552:2592   */\n      tag_493\n        /* \"#utility.yul\":2588:2590   */\n      0x20\n        /* \"#utility.yul\":2577:2586   */\n      dup5\n        /* \"#utility.yul\":2573:2591   */\n      add\n        /* \"#utility.yul\":2552:2592   */\n      tag_464\n      jump\t// in\n    tag_493:\n        /* \"#utility.yul\":2542:2592   */\n      swap1\n      pop\n        /* \"#utility.yul\":2419:2598   */\n      swap3\n      pop\n      swap3\n      swap1\n      pop\n      jump\t// out\n        /* \"#utility.yul\":2603:2861   */\n    tag_81:\n      0x00\n      dup1\n        /* \"#utility.yul\":2732:2734   */\n      0x40\n        /* \"#utility.yul\":2720:2729   */\n      dup4\n        /* \"#utility.yul\":2711:2718   */\n      dup6\n        /* \"#utility.yul\":2707:2730   */\n      sub\n        /* \"#utility.yul\":2703:2735   */\n      slt\n        /* \"#utility.yul\":2700:2702   */\n      iszero\n      tag_495\n      jumpi\n        /* \"#utility.yul\":2753:2759   */\n      dup2\n        /* \"#utility.yul\":2745:2751   */\n      dup3\n        /* \"#utility.yul\":2738:2760   */\n      revert\n        /* \"#utility.yul\":2700:2702   */\n    tag_495:\n      pop\n      pop\n        /* \"#utility.yul\":2781:2804   */\n      dup1\n      calldataload\n      swap3\n        /* \"#utility.yul\":2851:2853   */\n      0x20\n        /* \"#utility.yul\":2836:2854   */\n      swap1\n      swap2\n      add\n        /* \"#utility.yul\":2823:2855   */\n      calldataload\n      swap2\n      pop\n        /* \"#utility.yul\":2690:2861   */\n      jump\t// out\n        /* \"#utility.yul\":2866:3295   */\n    tag_76:\n      0x00\n      dup1\n      0x00\n        /* \"#utility.yul\":3009:3011   */\n      0x60\n        /* \"#utility.yul\":2997:3006   */\n      dup5\n        /* \"#utility.yul\":2988:2995   */\n      dup7\n        /* \"#utility.yul\":2984:3007   */\n      sub\n        /* \"#utility.yul\":2980:3012   */\n      slt\n        /* \"#utility.yul\":2977:2979   */\n      iszero\n      tag_497\n      jumpi\n        /* \"#utility.yul\":3030:3036   */\n      dup3\n        /* \"#utility.yul\":3022:3028   */\n      dup4\n        /* \"#utility.yul\":3015:3037   */\n      revert\n        /* \"#utility.yul\":2977:2979   */\n    tag_497:\n        /* \"#utility.yul\":3071:3080   */\n      dup4\n        /* \"#utility.yul\":3058:3081   */\n      calldataload\n        /* \"#utility.yul\":3048:3081   */\n      swap3\n      pop\n        /* \"#utility.yul\":3128:3130   */\n      0x20\n        /* \"#utility.yul\":3117:3126   */\n      dup5\n        /* \"#utility.yul\":3113:3131   */\n      add\n        /* \"#utility.yul\":3100:3132   */\n      calldataload\n        /* \"#utility.yul\":3090:3132   */\n      swap2\n      pop\n        /* \"#utility.yul\":3182:3184   */\n      0x40\n        /* \"#utility.yul\":3171:3180   */\n      dup5\n        /* \"#utility.yul\":3167:3185   */\n      add\n        /* \"#utility.yul\":3154:3186   */\n      calldataload\n        /* \"#utility.yul\":3229:3234   */\n      dup1\n        /* \"#utility.yul\":3222:3235   */\n      iszero\n        /* \"#utility.yul\":3215:3236   */\n      iszero\n        /* \"#utility.yul\":3208:3213   */\n      dup2\n        /* \"#utility.yul\":3205:3237   */\n      eq\n        /* \"#utility.yul\":3195:3197   */\n      tag_498\n      jumpi\n        /* \"#utility.yul\":3256:3262   */\n      dup2\n        /* \"#utility.yul\":3248:3254   */\n      dup3\n        /* \"#utility.yul\":3241:3263   */\n      revert\n        /* \"#utility.yul\":3195:3197   */\n    tag_498:\n        /* \"#utility.yul\":3284:3289   */\n      dup1\n        /* \"#utility.yul\":3274:3289   */\n      swap2\n      pop\n      pop\n        /* \"#utility.yul\":2967:3295   */\n      swap3\n      pop\n      swap3\n      pop\n      swap3\n      jump\t// out\n        /* \"#utility.yul\":3300:3905   */\n    tag_119:\n      0x00\n      dup1\n      0x00\n      dup1\n        /* \"#utility.yul\":3480:3482   */\n      0x60\n        /* \"#utility.yul\":3468:3477   */\n      dup6\n        /* \"#utility.yul\":3459:3466   */\n      dup8\n        /* \"#utility.yul\":3455:3478   */\n      sub\n        /* \"#utility.yul\":3451:3483   */\n      slt\n        /* \"#utility.yul\":3448:3450   */\n      iszero\n      tag_500\n      jumpi\n        /* \"#utility.yul\":3501:3507   */\n      dup4\n        /* \"#utility.yul\":3493:3499   */\n      dup5\n        /* \"#utility.yul\":3486:3508   */\n      revert\n        /* \"#utility.yul\":3448:3450   */\n    tag_500:\n        /* \"#utility.yul\":3542:3551   */\n      dup5\n        /* \"#utility.yul\":3529:3552   */\n      calldataload\n        /* \"#utility.yul\":3519:3552   */\n      swap4\n      pop\n        /* \"#utility.yul\":3571:3610   */\n      tag_501\n        /* \"#utility.yul\":3606:3608   */\n      0x20\n        /* \"#utility.yul\":3595:3604   */\n      dup7\n        /* \"#utility.yul\":3591:3609   */\n      add\n        /* \"#utility.yul\":3571:3610   */\n      tag_472\n      jump\t// in\n    tag_501:\n        /* \"#utility.yul\":3561:3610   */\n      swap3\n      pop\n        /* \"#utility.yul\":3661:3663   */\n      0x40\n        /* \"#utility.yul\":3650:3659   */\n      dup6\n        /* \"#utility.yul\":3646:3664   */\n      add\n        /* \"#utility.yul\":3633:3665   */\n      calldataload\n        /* \"#utility.yul\":3688:3706   */\n      0xffffffffffffffff\n        /* \"#utility.yul\":3680:3686   */\n      dup2\n        /* \"#utility.yul\":3677:3707   */\n      gt\n        /* \"#utility.yul\":3674:3676   */\n      iszero\n      tag_502\n      jumpi\n        /* \"#utility.yul\":3725:3731   */\n      dup3\n        /* \"#utility.yul\":3717:3723   */\n      dup4\n        /* \"#utility.yul\":3710:3732   */\n      revert\n        /* \"#utility.yul\":3674:3676   */\n    tag_502:\n        /* \"#utility.yul\":3769:3845   */\n      tag_503\n        /* \"#utility.yul\":3837:3844   */\n      dup8\n        /* \"#utility.yul\":3828:3834   */\n      dup3\n        /* \"#utility.yul\":3817:3826   */\n      dup9\n        /* \"#utility.yul\":3813:3835   */\n      add\n        /* \"#utility.yul\":3769:3845   */\n      tag_467\n      jump\t// in\n    tag_503:\n        /* \"#utility.yul\":3438:3905   */\n      swap6\n      swap9\n      swap5\n      swap8\n      pop\n        /* \"#utility.yul\":3864:3872   */\n      swap6\n      pop\n      pop\n      pop\n      pop\n        /* \"#utility.yul\":3438:3905   */\n      jump\t// out\n        /* \"#utility.yul\":3910:4590   */\n    tag_124:\n      0x00\n      dup1\n      0x00\n      dup1\n      0x00\n        /* \"#utility.yul\":4106:4109   */\n      0x80\n        /* \"#utility.yul\":4094:4103   */\n      dup7\n        /* \"#utility.yul\":4085:4092   */\n      dup9\n        /* \"#utility.yul\":4081:4104   */\n      sub\n        /* \"#utility.yul\":4077:4110   */\n      slt\n        /* \"#utility.yul\":4074:4076   */\n      iszero\n      tag_505\n      jumpi\n        /* \"#utility.yul\":4128:4134   */\n      dup1\n        /* \"#utility.yul\":4120:4126   */\n      dup2\n        /* \"#utility.yul\":4113:4135   */\n      revert\n        /* \"#utility.yul\":4074:4076   */\n    tag_505:\n        /* \"#utility.yul\":4169:4178   */\n      dup6\n        /* \"#utility.yul\":4156:4179   */\n      calldataload\n        /* \"#utility.yul\":4146:4179   */\n      swap5\n      pop\n        /* \"#utility.yul\":4198:4237   */\n      tag_481\n        /* \"#utility.yul\":4233:4235   */\n      0x20\n        /* \"#utility.yul\":4222:4231   */\n      dup8\n        /* \"#utility.yul\":4218:4236   */\n      add\n        /* \"#utility.yul\":4198:4237   */\n      tag_472\n      jump\t// in\n        /* \"#utility.yul\":4595:5038   */\n    tag_510:\n      0x00\n        /* \"#utility.yul\":4692:4697   */\n      dup2\n        /* \"#utility.yul\":4686:4698   */\n      mload\n        /* \"#utility.yul\":4719:4725   */\n      dup1\n        /* \"#utility.yul\":4714:4717   */\n      dup5\n        /* \"#utility.yul\":4707:4726   */\n      mstore\n        /* \"#utility.yul\":4745:4749   */\n      0x20\n        /* \"#utility.yul\":4774:4776   */\n      dup1\n        /* \"#utility.yul\":4769:4772   */\n      dup6\n        /* \"#utility.yul\":4765:4777   */\n      add\n        /* \"#utility.yul\":4758:4777   */\n      swap5\n      pop\n        /* \"#utility.yul\":4811:4813   */\n      dup1\n        /* \"#utility.yul\":4804:4809   */\n      dup5\n        /* \"#utility.yul\":4800:4814   */\n      add\n        /* \"#utility.yul\":4832:4835   */\n      dup4\n        /* \"#utility.yul\":4844:5013   */\n    tag_512:\n        /* \"#utility.yul\":4858:4864   */\n      dup4\n        /* \"#utility.yul\":4855:4856   */\n      dup2\n        /* \"#utility.yul\":4852:4865   */\n      lt\n        /* \"#utility.yul\":4844:5013   */\n      iszero\n      tag_514\n      jumpi\n        /* \"#utility.yul\":4919:4932   */\n      dup2\n      mload\n        /* \"#utility.yul\":4907:4933   */\n      dup8\n      mstore\n        /* \"#utility.yul\":4953:4965   */\n      swap6\n      dup3\n      add\n      swap6\n        /* \"#utility.yul\":4988:5003   */\n      swap1\n      dup3\n      add\n      swap1\n        /* \"#utility.yul\":4880:4881   */\n      0x01\n        /* \"#utility.yul\":4873:4882   */\n      add\n        /* \"#utility.yul\":4844:5013   */\n      jump(tag_512)\n    tag_514:\n      pop\n        /* \"#utility.yul\":5029:5032   */\n      swap5\n      swap6\n        /* \"#utility.yul\":4662:5038   */\n      swap5\n      pop\n      pop\n      pop\n      pop\n      pop\n      jump\t// out\n        /* \"#utility.yul\":5043:5248   */\n    tag_333:\n        /* \"#utility.yul\":5243:5246   */\n      swap1\n        /* \"#utility.yul\":5234:5248   */\n      jump\t// out\n        /* \"#utility.yul\":5253:5456   */\n    tag_55:\n      sub(shl(0xa0, 0x01), 0x01)\n        /* \"#utility.yul\":5417:5449   */\n      swap2\n      swap1\n      swap2\n      and\n        /* \"#utility.yul\":5399:5450   */\n      dup2\n      mstore\n        /* \"#utility.yul\":5387:5389   */\n      0x20\n        /* \"#utility.yul\":5372:5390   */\n      add\n      swap1\n        /* \"#utility.yul\":5354:5456   */\n      jump\t// out\n        /* \"#utility.yul\":5461:6122   */\n    tag_130:\n        /* \"#utility.yul\":5632:5634   */\n      0x20\n        /* \"#utility.yul\":5684:5705   */\n      dup1\n      dup3\n      mstore\n        /* \"#utility.yul\":5754:5767   */\n      dup3\n      mload\n        /* \"#utility.yul\":5657:5675   */\n      dup3\n      dup3\n      add\n        /* \"#utility.yul\":5776:5798   */\n      dup2\n      swap1\n      mstore\n        /* \"#utility.yul\":5461:6122   */\n      0x00\n      swap2\n        /* \"#utility.yul\":5632:5634   */\n      swap1\n        /* \"#utility.yul\":5855:5870   */\n      dup5\n      dup3\n      add\n      swap1\n        /* \"#utility.yul\":5829:5831   */\n      0x40\n        /* \"#utility.yul\":5814:5832   */\n      dup6\n      add\n      swap1\n        /* \"#utility.yul\":5461:6122   */\n      dup5\n        /* \"#utility.yul\":5901:6096   */\n    tag_518:\n        /* \"#utility.yul\":5915:5921   */\n      dup2\n        /* \"#utility.yul\":5912:5913   */\n      dup2\n        /* \"#utility.yul\":5909:5922   */\n      lt\n        /* \"#utility.yul\":5901:6096   */\n      iszero\n      tag_520\n      jumpi\n        /* \"#utility.yul\":5980:5993   */\n      dup4\n      mload\n      sub(shl(0xa0, 0x01), 0x01)\n        /* \"#utility.yul\":5976:6015   */\n      and\n        /* \"#utility.yul\":5964:6016   */\n      dup4\n      mstore\n        /* \"#utility.yul\":6071:6086   */\n      swap3\n      dup5\n      add\n      swap3\n        /* \"#utility.yul\":6036:6048   */\n      swap2\n      dup5\n      add\n      swap2\n        /* \"#utility.yul\":6012:6013   */\n      0x01\n        /* \"#utility.yul\":5930:5939   */\n      add\n        /* \"#utility.yul\":5901:6096   */\n      jump(tag_518)\n    tag_520:\n      pop\n        /* \"#utility.yul\":6113:6116   */\n      swap1\n      swap7\n        /* \"#utility.yul\":5612:6122   */\n      swap6\n      pop\n      pop\n      pop\n      pop\n      pop\n      pop\n      jump\t// out\n        /* \"#utility.yul\":6127:6623   */\n    tag_192:\n        /* \"#utility.yul\":6316:6318   */\n      0x20\n        /* \"#utility.yul\":6298:6319   */\n      dup1\n      dup3\n      mstore\n        /* \"#utility.yul\":6335:6353   */\n      dup2\n      add\n        /* \"#utility.yul\":6328:6362   */\n      dup3\n      swap1\n      mstore\n        /* \"#utility.yul\":6127:6623   */\n      0x00\n      sub(shl(0xfb, 0x01), 0x01)\n        /* \"#utility.yul\":6374:6405   */\n      dup4\n      gt\n        /* \"#utility.yul\":6371:6373   */\n      iszero\n      tag_522\n      jumpi\n        /* \"#utility.yul\":6421:6425   */\n      dup1\n        /* \"#utility.yul\":6415:6419   */\n      dup2\n        /* \"#utility.yul\":6408:6426   */\n      revert\n        /* \"#utility.yul\":6371:6373   */\n    tag_522:\n        /* \"#utility.yul\":6463:6465   */\n      0x20\n        /* \"#utility.yul\":6455:6461   */\n      dup4\n        /* \"#utility.yul\":6451:6466   */\n      mul\n        /* \"#utility.yul\":6516:6522   */\n      dup1\n        /* \"#utility.yul\":6508:6514   */\n      dup6\n        /* \"#utility.yul\":6503:6505   */\n      0x40\n        /* \"#utility.yul\":6492:6501   */\n      dup6\n        /* \"#utility.yul\":6488:6506   */\n      add\n        /* \"#utility.yul\":6475:6523   */\n      calldatacopy\n        /* \"#utility.yul\":6546:6568   */\n      swap2\n      swap1\n      swap2\n      add\n        /* \"#utility.yul\":6570:6572   */\n      0x40\n        /* \"#utility.yul\":6542:6573   */\n      add\n        /* \"#utility.yul\":6582:6598   */\n      swap1\n      dup2\n      mstore\n        /* \"#utility.yul\":6542:6573   */\n      swap3\n        /* \"#utility.yul\":6288:6623   */\n      swap2\n      pop\n      pop\n      jump\t// out\n        /* \"#utility.yul\":6628:6895   */\n    tag_140:\n      0x00\n        /* \"#utility.yul\":6807:6809   */\n      0x20\n        /* \"#utility.yul\":6796:6805   */\n      dup3\n        /* \"#utility.yul\":6789:6810   */\n      mstore\n        /* \"#utility.yul\":6827:6889   */\n      tag_374\n        /* \"#utility.yul\":6885:6887   */\n      0x20\n        /* \"#utility.yul\":6874:6883   */\n      dup4\n        /* \"#utility.yul\":6870:6888   */\n      add\n        /* \"#utility.yul\":6862:6868   */\n      dup5\n        /* \"#utility.yul\":6827:6889   */\n      tag_510\n      jump\t// in\n        /* \"#utility.yul\":6900:7087   */\n    tag_50:\n        /* \"#utility.yul\":7065:7079   */\n      swap1\n      iszero\n        /* \"#utility.yul\":7058:7080   */\n      iszero\n        /* \"#utility.yul\":7040:7081   */\n      dup2\n      mstore\n        /* \"#utility.yul\":7028:7030   */\n      0x20\n        /* \"#utility.yul\":7013:7031   */\n      add\n      swap1\n        /* \"#utility.yul\":6995:7087   */\n      jump\t// out\n        /* \"#utility.yul\":7092:7485   */\n    tag_417:\n      sub(shl(0xa0, 0x01), 0x01)\n        /* \"#utility.yul\":7368:7383   */\n      swap4\n      dup5\n      and\n        /* \"#utility.yul\":7350:7384   */\n      dup2\n      mstore\n        /* \"#utility.yul\":7420:7435   */\n      swap2\n      swap1\n      swap3\n      and\n        /* \"#utility.yul\":7415:7417   */\n      0x20\n        /* \"#utility.yul\":7400:7418   */\n      dup3\n      add\n        /* \"#utility.yul\":7393:7436   */\n      mstore\n        /* \"#utility.yul\":7467:7469   */\n      0x40\n        /* \"#utility.yul\":7452:7470   */\n      dup2\n      add\n        /* \"#utility.yul\":7445:7479   */\n      swap2\n      swap1\n      swap2\n      mstore\n        /* \"#utility.yul\":7300:7302   */\n      0x60\n        /* \"#utility.yul\":7285:7303   */\n      add\n      swap1\n        /* \"#utility.yul\":7267:7485   */\n      jump\t// out\n        /* \"#utility.yul\":7725:8073   */\n    tag_179:\n        /* \"#utility.yul\":7927:7929   */\n      0x20\n        /* \"#utility.yul\":7909:7930   */\n      dup1\n      dup3\n      mstore\n        /* \"#utility.yul\":7966:7968   */\n      0x18\n        /* \"#utility.yul\":7946:7964   */\n      swap1\n      dup3\n      add\n        /* \"#utility.yul\":7939:7969   */\n      mstore\n        /* \"#utility.yul\":8005:8031   */\n      0x6164643a20696e76616c6964207374616b6520746f6b656e0000000000000000\n        /* \"#utility.yul\":8000:8002   */\n      0x40\n        /* \"#utility.yul\":7985:8003   */\n      dup3\n      add\n        /* \"#utility.yul\":7978:8032   */\n      mstore\n        /* \"#utility.yul\":8064:8066   */\n      0x60\n        /* \"#utility.yul\":8049:8067   */\n      add\n      swap1\n        /* \"#utility.yul\":7899:8073   */\n      jump\t// out\n        /* \"#utility.yul\":8078:8423   */\n    tag_317:\n        /* \"#utility.yul\":8280:8282   */\n      0x20\n        /* \"#utility.yul\":8262:8283   */\n      dup1\n      dup3\n      mstore\n        /* \"#utility.yul\":8319:8321   */\n      0x15\n        /* \"#utility.yul\":8299:8317   */\n      swap1\n      dup3\n      add\n        /* \"#utility.yul\":8292:8322   */\n      mstore\n      shl(0x58, 0x72656e65773a20696e76616c696420626c6f636b73)\n        /* \"#utility.yul\":8353:8355   */\n      0x40\n        /* \"#utility.yul\":8338:8356   */\n      dup3\n      add\n        /* \"#utility.yul\":8331:8382   */\n      mstore\n        /* \"#utility.yul\":8414:8416   */\n      0x60\n        /* \"#utility.yul\":8399:8417   */\n      add\n      swap1\n        /* \"#utility.yul\":8252:8423   */\n      jump\t// out\n        /* \"#utility.yul\":8428:8774   */\n    tag_293:\n        /* \"#utility.yul\":8630:8632   */\n      0x20\n        /* \"#utility.yul\":8612:8633   */\n      dup1\n      dup3\n      mstore\n        /* \"#utility.yul\":8669:8671   */\n      0x16\n        /* \"#utility.yul\":8649:8667   */\n      swap1\n      dup3\n      add\n        /* \"#utility.yul\":8642:8672   */\n      mstore\n      shl(0x53, 0x0eae0c8c2e8ca7440d2dcecc2d8d2c840d8cadccee8d)\n        /* \"#utility.yul\":8703:8705   */\n      0x40\n        /* \"#utility.yul\":8688:8706   */\n      dup3\n      add\n        /* \"#utility.yul\":8681:8733   */\n      mstore\n        /* \"#utility.yul\":8765:8767   */\n      0x60\n        /* \"#utility.yul\":8750:8768   */\n      add\n      swap1\n        /* \"#utility.yul\":8602:8774   */\n      jump\t// out\n        /* \"#utility.yul\":8779:9118   */\n    tag_271:\n        /* \"#utility.yul\":8981:8983   */\n      0x20\n        /* \"#utility.yul\":8963:8984   */\n      dup1\n      dup3\n      mstore\n        /* \"#utility.yul\":9020:9022   */\n      0x0f\n        /* \"#utility.yul\":9000:9018   */\n      swap1\n      dup3\n      add\n        /* \"#utility.yul\":8993:9023   */\n      mstore\n      shl(0x8a, 0x1a5b9d985b1a59081c1bdbdb081a59)\n        /* \"#utility.yul\":9054:9056   */\n      0x40\n        /* \"#utility.yul\":9039:9057   */\n      dup3\n      add\n        /* \"#utility.yul\":9032:9077   */\n      mstore\n        /* \"#utility.yul\":9109:9111   */\n      0x60\n        /* \"#utility.yul\":9094:9112   */\n      add\n      swap1\n        /* \"#utility.yul\":8953:9118   */\n      jump\t// out\n        /* \"#utility.yul\":9123:9466   */\n    tag_182:\n        /* \"#utility.yul\":9325:9327   */\n      0x20\n        /* \"#utility.yul\":9307:9328   */\n      dup1\n      dup3\n      mstore\n        /* \"#utility.yul\":9364:9366   */\n      0x13\n        /* \"#utility.yul\":9344:9362   */\n      swap1\n      dup3\n      add\n        /* \"#utility.yul\":9337:9367   */\n      mstore\n      shl(0x6b, 0x0c2c8c87440d2dcecc2d8d2c840d8cadccee8d)\n        /* \"#utility.yul\":9398:9400   */\n      0x40\n        /* \"#utility.yul\":9383:9401   */\n      dup3\n      add\n        /* \"#utility.yul\":9376:9425   */\n      mstore\n        /* \"#utility.yul\":9457:9459   */\n      0x60\n        /* \"#utility.yul\":9442:9460   */\n      add\n      swap1\n        /* \"#utility.yul\":9297:9466   */\n      jump\t// out\n        /* \"#utility.yul\":9471:9816   */\n    tag_313:\n        /* \"#utility.yul\":9673:9675   */\n      0x20\n        /* \"#utility.yul\":9655:9676   */\n      dup1\n      dup3\n      mstore\n        /* \"#utility.yul\":9712:9714   */\n      0x15\n        /* \"#utility.yul\":9692:9710   */\n      swap1\n      dup3\n      add\n        /* \"#utility.yul\":9685:9715   */\n      mstore\n      shl(0x5b, 0x0e4cadccaee7440d2dcecc2d8d2c840d8cadccee8d)\n        /* \"#utility.yul\":9746:9748   */\n      0x40\n        /* \"#utility.yul\":9731:9749   */\n      dup3\n      add\n        /* \"#utility.yul\":9724:9775   */\n      mstore\n        /* \"#utility.yul\":9807:9809   */\n      0x60\n        /* \"#utility.yul\":9792:9810   */\n      add\n      swap1\n        /* \"#utility.yul\":9645:9816   */\n      jump\t// out\n        /* \"#utility.yul\":9821:10174   */\n    tag_406:\n        /* \"#utility.yul\":10023:10025   */\n      0x20\n        /* \"#utility.yul\":10005:10026   */\n      dup1\n      dup3\n      mstore\n        /* \"#utility.yul\":10062:10064   */\n      0x1d\n        /* \"#utility.yul\":10042:10060   */\n      swap1\n      dup3\n      add\n        /* \"#utility.yul\":10035:10065   */\n      mstore\n        /* \"#utility.yul\":10101:10132   */\n      0x77697468647261773a20696e73756666696369656e7420616d6f756e74000000\n        /* \"#utility.yul\":10096:10098   */\n      0x40\n        /* \"#utility.yul\":10081:10099   */\n      dup3\n      add\n        /* \"#utility.yul\":10074:10133   */\n      mstore\n        /* \"#utility.yul\":10165:10167   */\n      0x60\n        /* \"#utility.yul\":10150:10168   */\n      add\n      swap1\n        /* \"#utility.yul\":9995:10174   */\n      jump\t// out\n        /* \"#utility.yul\":10179:10528   */\n    tag_297:\n        /* \"#utility.yul\":10381:10383   */\n      0x20\n        /* \"#utility.yul\":10363:10384   */\n      dup1\n      dup3\n      mstore\n        /* \"#utility.yul\":10420:10422   */\n      0x19\n        /* \"#utility.yul\":10400:10418   */\n      swap1\n      dup3\n      add\n        /* \"#utility.yul\":10393:10423   */\n      mstore\n        /* \"#utility.yul\":10459:10486   */\n      0x7570646174653a20696e76616c696420656e6420626c6f636b00000000000000\n        /* \"#utility.yul\":10454:10456   */\n      0x40\n        /* \"#utility.yul\":10439:10457   */\n      dup3\n      add\n        /* \"#utility.yul\":10432:10487   */\n      mstore\n        /* \"#utility.yul\":10519:10521   */\n      0x60\n        /* \"#utility.yul\":10504:10522   */\n      add\n      swap1\n        /* \"#utility.yul\":10353:10528   */\n      jump\t// out\n        /* \"#utility.yul\":10533:10885   */\n    tag_339:\n        /* \"#utility.yul\":10735:10737   */\n      0x20\n        /* \"#utility.yul\":10717:10738   */\n      dup1\n      dup3\n      mstore\n        /* \"#utility.yul\":10774:10776   */\n      0x1c\n        /* \"#utility.yul\":10754:10772   */\n      swap1\n      dup3\n      add\n        /* \"#utility.yul\":10747:10777   */\n      mstore\n        /* \"#utility.yul\":10813:10843   */\n      0x7472616e736665722072657761726420746f6b656e206661696c656400000000\n        /* \"#utility.yul\":10808:10810   */\n      0x40\n        /* \"#utility.yul\":10793:10811   */\n      dup3\n      add\n        /* \"#utility.yul\":10786:10844   */\n      mstore\n        /* \"#utility.yul\":10876:10878   */\n      0x60\n        /* \"#utility.yul\":10861:10879   */\n      add\n      swap1\n        /* \"#utility.yul\":10707:10885   */\n      jump\t// out\n        /* \"#utility.yul\":10890:11234   */\n    tag_176:\n        /* \"#utility.yul\":11092:11094   */\n      0x20\n        /* \"#utility.yul\":11074:11095   */\n      dup1\n      dup3\n      mstore\n        /* \"#utility.yul\":11131:11133   */\n      0x14\n        /* \"#utility.yul\":11111:11129   */\n      swap1\n      dup3\n      add\n        /* \"#utility.yul\":11104:11134   */\n      mstore\n      shl(0x62, 0x1859190e88191d5c1b1a58d85d1959081c1bdbdb)\n        /* \"#utility.yul\":11165:11167   */\n      0x40\n        /* \"#utility.yul\":11150:11168   */\n      dup3\n      add\n        /* \"#utility.yul\":11143:11193   */\n      mstore\n        /* \"#utility.yul\":11225:11227   */\n      0x60\n        /* \"#utility.yul\":11210:11228   */\n      add\n      swap1\n        /* \"#utility.yul\":11064:11234   */\n      jump\t// out\n        /* \"#utility.yul\":11239:11637   */\n    tag_310:\n        /* \"#utility.yul\":11441:11443   */\n      0x20\n        /* \"#utility.yul\":11423:11444   */\n      dup1\n      dup3\n      mstore\n        /* \"#utility.yul\":11480:11482   */\n      0x22\n        /* \"#utility.yul\":11460:11478   */\n      swap1\n      dup3\n      add\n        /* \"#utility.yul\":11453:11483   */\n      mstore\n        /* \"#utility.yul\":11519:11553   */\n      0x72656e65773a20696e76616c696420706f6f6c20737461746520746f2072656e\n        /* \"#utility.yul\":11514:11516   */\n      0x40\n        /* \"#utility.yul\":11499:11517   */\n      dup3\n      add\n        /* \"#utility.yul\":11492:11554   */\n      mstore\n      shl(0xf0, 0x6577)\n        /* \"#utility.yul\":11585:11587   */\n      0x60\n        /* \"#utility.yul\":11570:11588   */\n      dup3\n      add\n        /* \"#utility.yul\":11563:11595   */\n      mstore\n        /* \"#utility.yul\":11627:11630   */\n      0x80\n        /* \"#utility.yul\":11612:11631   */\n      add\n      swap1\n        /* \"#utility.yul\":11413:11637   */\n      jump\t// out\n        /* \"#utility.yul\":11642:11992   */\n    tag_290:\n        /* \"#utility.yul\":11844:11846   */\n      0x20\n        /* \"#utility.yul\":11826:11847   */\n      dup1\n      dup3\n      mstore\n        /* \"#utility.yul\":11883:11885   */\n      0x1a\n        /* \"#utility.yul\":11863:11881   */\n      swap1\n      dup3\n      add\n        /* \"#utility.yul\":11856:11886   */\n      mstore\n        /* \"#utility.yul\":11922:11950   */\n      0x7570646174653a20706f6f6c20616c726561647920656e646564000000000000\n        /* \"#utility.yul\":11917:11919   */\n      0x40\n        /* \"#utility.yul\":11902:11920   */\n      dup3\n      add\n        /* \"#utility.yul\":11895:11951   */\n      mstore\n        /* \"#utility.yul\":11983:11985   */\n      0x60\n        /* \"#utility.yul\":11968:11986   */\n      add\n      swap1\n        /* \"#utility.yul\":11816:11992   */\n      jump\t// out\n        /* \"#utility.yul\":11997:12340   */\n    tag_186:\n        /* \"#utility.yul\":12199:12201   */\n      0x20\n        /* \"#utility.yul\":12181:12202   */\n      dup1\n      dup3\n      mstore\n        /* \"#utility.yul\":12238:12240   */\n      0x13\n        /* \"#utility.yul\":12218:12236   */\n      swap1\n      dup3\n      add\n        /* \"#utility.yul\":12211:12241   */\n      mstore\n      shl(0x68, 0x6164643a20696e76616c696420626c6f636b73)\n        /* \"#utility.yul\":12272:12274   */\n      0x40\n        /* \"#utility.yul\":12257:12275   */\n      dup3\n      add\n        /* \"#utility.yul\":12250:12299   */\n      mstore\n        /* \"#utility.yul\":12331:12333   */\n      0x60\n        /* \"#utility.yul\":12316:12334   */\n      add\n      swap1\n        /* \"#utility.yul\":12171:12340   */\n      jump\t// out\n        /* \"#utility.yul\":12345:12522   */\n    tag_36:\n        /* \"#utility.yul\":12491:12516   */\n      swap1\n      dup2\n      mstore\n        /* \"#utility.yul\":12479:12481   */\n      0x20\n        /* \"#utility.yul\":12464:12482   */\n      add\n      swap1\n        /* \"#utility.yul\":12446:12522   */\n      jump\t// out\n        /* \"#utility.yul\":12527:13440   */\n    tag_62:\n        /* \"#utility.yul\":12900:12925   */\n      dup8\n      dup2\n      mstore\n      sub(shl(0xa0, 0x01), 0x01)\n        /* \"#utility.yul\":12961:12993   */\n      dup8\n      and\n        /* \"#utility.yul\":12956:12958   */\n      0x20\n        /* \"#utility.yul\":12941:12959   */\n      dup3\n      add\n        /* \"#utility.yul\":12934:12994   */\n      mstore\n        /* \"#utility.yul\":13013:13023   */\n      0xffffffff\n        /* \"#utility.yul\":13059:13074   */\n      dup7\n      dup2\n      and\n        /* \"#utility.yul\":13054:13056   */\n      0x40\n        /* \"#utility.yul\":13039:13057   */\n      dup4\n      add\n        /* \"#utility.yul\":13032:13075   */\n      mstore\n        /* \"#utility.yul\":13111:13126   */\n      dup6\n      dup2\n      and\n        /* \"#utility.yul\":13106:13108   */\n      0x60\n        /* \"#utility.yul\":13091:13109   */\n      dup4\n      add\n        /* \"#utility.yul\":13084:13127   */\n      mstore\n        /* \"#utility.yul\":13164:13179   */\n      dup5\n      and\n        /* \"#utility.yul\":13158:13161   */\n      0x80\n        /* \"#utility.yul\":13143:13162   */\n      dup3\n      add\n        /* \"#utility.yul\":13136:13180   */\n      mstore\n        /* \"#utility.yul\":13217:13220   */\n      0xe0\n        /* \"#utility.yul\":12981:12984   */\n      0xa0\n        /* \"#utility.yul\":13196:13215   */\n      dup3\n      add\n        /* \"#utility.yul\":13189:13221   */\n      dup2\n      swap1\n      mstore\n        /* \"#utility.yul\":12527:13440   */\n      0x00\n      swap1\n        /* \"#utility.yul\":13244:13307   */\n      tag_543\n      swap1\n        /* \"#utility.yul\":13287:13306   */\n      dup4\n      add\n        /* \"#utility.yul\":13279:13285   */\n      dup6\n        /* \"#utility.yul\":13244:13307   */\n      tag_510\n      jump\t// in\n    tag_543:\n        /* \"#utility.yul\":13356:13365   */\n      dup3\n        /* \"#utility.yul\":13348:13354   */\n      dup2\n        /* \"#utility.yul\":13344:13366   */\n      sub\n        /* \"#utility.yul\":13338:13341   */\n      0xc0\n        /* \"#utility.yul\":13327:13336   */\n      dup5\n        /* \"#utility.yul\":13323:13342   */\n      add\n        /* \"#utility.yul\":13316:13367   */\n      mstore\n        /* \"#utility.yul\":13384:13434   */\n      tag_544\n        /* \"#utility.yul\":13427:13433   */\n      dup2\n        /* \"#utility.yul\":13419:13425   */\n      dup6\n        /* \"#utility.yul\":13384:13434   */\n      tag_510\n      jump\t// in\n    tag_544:\n        /* \"#utility.yul\":13376:13434   */\n      swap11\n        /* \"#utility.yul\":12890:13440   */\n      swap10\n      pop\n      pop\n      pop\n      pop\n      pop\n      pop\n      pop\n      pop\n      pop\n      pop\n      jump\t// out\n        /* \"#utility.yul\":13445:13993   */\n    tag_43:\n      0x00\n        /* \"#utility.yul\":13730:13736   */\n      dup5\n        /* \"#utility.yul\":13719:13728   */\n      dup3\n        /* \"#utility.yul\":13712:13737   */\n      mstore\n        /* \"#utility.yul\":13773:13775   */\n      0x60\n        /* \"#utility.yul\":13768:13770   */\n      0x20\n        /* \"#utility.yul\":13757:13766   */\n      dup4\n        /* \"#utility.yul\":13753:13771   */\n      add\n        /* \"#utility.yul\":13746:13776   */\n      mstore\n        /* \"#utility.yul\":13799:13861   */\n      tag_546\n        /* \"#utility.yul\":13857:13859   */\n      0x60\n        /* \"#utility.yul\":13846:13855   */\n      dup4\n        /* \"#utility.yul\":13842:13860   */\n      add\n        /* \"#utility.yul\":13834:13840   */\n      dup6\n        /* \"#utility.yul\":13799:13861   */\n      tag_510\n      jump\t// in\n    tag_546:\n        /* \"#utility.yul\":13909:13918   */\n      dup3\n        /* \"#utility.yul\":13901:13907   */\n      dup2\n        /* \"#utility.yul\":13897:13919   */\n      sub\n        /* \"#utility.yul\":13892:13894   */\n      0x40\n        /* \"#utility.yul\":13881:13890   */\n      dup5\n        /* \"#utility.yul\":13877:13895   */\n      add\n        /* \"#utility.yul\":13870:13920   */\n      mstore\n        /* \"#utility.yul\":13937:13987   */\n      tag_547\n        /* \"#utility.yul\":13980:13986   */\n      dup2\n        /* \"#utility.yul\":13972:13978   */\n      dup6\n        /* \"#utility.yul\":13937:13987   */\n      tag_510\n      jump\t// in\n    tag_547:\n        /* \"#utility.yul\":13929:13987   */\n      swap7\n        /* \"#utility.yul\":13702:13993   */\n      swap6\n      pop\n      pop\n      pop\n      pop\n      pop\n      pop\n      jump\t// out\n        /* \"#utility.yul\":13998:14246   */\n    tag_230:\n        /* \"#utility.yul\":14172:14197   */\n      swap2\n      dup3\n      mstore\n        /* \"#utility.yul\":14228:14230   */\n      0x20\n        /* \"#utility.yul\":14213:14231   */\n      dup3\n      add\n        /* \"#utility.yul\":14206:14240   */\n      mstore\n        /* \"#utility.yul\":14160:14162   */\n      0x40\n        /* \"#utility.yul\":14145:14163   */\n      add\n      swap1\n        /* \"#utility.yul\":14127:14246   */\n      jump\t// out\n    stop\n    data_0d74825aecb0211bbe1f02ccfb998d9e49771bedb2c6414e20fd8978a2e0f54c 5265656e7472616e637947756172643a207265656e7472616e742063616c6c00\n    data_565f1a77334fc4792800921178c71e4521acffab18ff9e7885b49377ee80ab4c 416464726573733a20696e73756666696369656e742062616c616e636520666f722063616c6c\n    data_9113bb53c2876a3805b2c9242029423fc540a728243ce887ab24c82cf119fba3 536166654d6174683a206d756c7469706c69636174696f6e206f766572666c6f77\n    data_c907489dafcfb622d3b83f2657a14d6da2f59e0de3116af0d6a80554c1a7cb19 53616665436173743a2076616c756520646f65736e27742066697420696e2033322062697473\n    data_e11ad79d1e4a7f2e5f376964cb99e8e8f7904e3fc16a109f7a7ecb9aa7956dcd 5361666545524332303a204552433230206f7065726174696f6e20646964206e6f742073756363656564\n    data_ef945ddb1bfdc0da870feb4560d868b047642b4ac7f2fb7f8b7c51cb4a411e25 5361666545524332303a20617070726f76652066726f6d206e6f6e2d7a65726f20746f206e6f6e2d7a65726f20616c6c6f77616e6365\n\n    auxdata: 0xa2646970667358221220c5123b60dff18c0319a60de1a907c57be74f3db5bfa5928e7b14949e5eb97be864736f6c63430007060033\n}\n",
				"bytecode": {
					"linkReferences": {},
					"object": "60a06040523480156200001157600080fd5b50604051620033a4380380620033a48339810160408190526200003491620005f6565b826001600160a01b0381166200007b576040805162461bcd60e51b8152602060048201526007602482015266061646d696e20360cc1b604482015290519081900360640190fd5b600080546001600160a01b0319166001600160a01b039290921691909117905560016002558151620000b590600490602085019062000568565b506001600160601b0319606082901b1660805260005b8251811015620001485760006001600160a01b0316838281518110620000ed57fe5b60200260200101516001600160a01b0316146200013f576200013f826000198584815181106200011957fe5b60200260200101516001600160a01b03166200015260201b62001a88179092919060201c565b600101620000cb565b50505050620006f8565b801580620001dc575060408051636eb1769f60e11b81523060048201526001600160a01b03848116602483015291519185169163dd62ed3e91604480820192602092909190829003018186803b158015620001ac57600080fd5b505afa158015620001c1573d6000803e3d6000fd5b505050506040513d6020811015620001d857600080fd5b5051155b620002195760405162461bcd60e51b81526004018080602001828103825260368152602001806200336e6036913960400191505060405180910390fd5b604080516001600160a01b038416602482015260448082018490528251808303909101815260649091019091526020810180516001600160e01b0390811663095ea7b360e01b17909152620002719185916200027616565b505050565b6000620002d2826040518060400160405280602081526020017f5361666545524332303a206c6f772d6c6576656c2063616c6c206661696c6564815250856001600160a01b03166200033260201b62001b9b179092919060201c565b8051909150156200027157808060200190516020811015620002f357600080fd5b5051620002715760405162461bcd60e51b815260040180806020018281038252602a81526020018062003344602a913960400191505060405180910390fd5b60606200034384846000856200034d565b90505b9392505050565b606082471015620003905760405162461bcd60e51b81526004018080602001828103825260268152602001806200331e6026913960400191505060405180910390fd5b6200039b85620004b4565b620003ed576040805162461bcd60e51b815260206004820152601d60248201527f416464726573733a2063616c6c20746f206e6f6e2d636f6e7472616374000000604482015290519081900360640190fd5b600080866001600160a01b031685876040518082805190602001908083835b602083106200042d5780518252601f1990920191602091820191016200040c565b6001836020036101000a03801982511681845116808217855250505050505090500191505060006040518083038185875af1925050503d806000811462000491576040519150601f19603f3d011682016040523d82523d6000602084013e62000496565b606091505b509092509050620004a9828286620004be565b979650505050505050565b803b15155b919050565b60608315620004cf57508162000346565b825115620004e05782518084602001fd5b8160405162461bcd60e51b81526004018080602001828103825283818151815260200191508051906020019080838360005b838110156200052c57818101518382015260200162000512565b50505050905090810190601f1680156200055a5780820380516001836020036101000a031916815260200191505b509250505060405180910390fd5b828054828255906000526020600020908101928215620005c0579160200282015b82811115620005c057825182546001600160a01b0319166001600160a01b0390911617825560209092019160019091019062000589565b50620005ce929150620005d2565b5090565b5b80821115620005ce5760008155600101620005d3565b8051620004b981620006df565b6000806000606084860312156200060b578283fd5b83516200061881620006df565b602085810151919450906001600160401b038082111562000637578485fd5b818701915087601f8301126200064b578485fd5b8151818111156200065857fe5b838102604051858282010181811085821117156200067257fe5b604052828152858101935084860182860187018c101562000691578889fd5b8895505b83861015620006be57620006a981620005e9565b85526001959095019493860193860162000695565b50809750505050505050620006d660408501620005e9565b90509250925092565b6001600160a01b0381168114620006f557600080fd5b50565b60805160601c612c036200071b600039806109d35280611f595250612c036000f3fe60806040526004361061014f5760003560e01c806377f50f97116100b6578063b43c62701161006f578063b43c6270146103c3578063c4f59f9b146103e3578063d12e4ceb14610405578063d18df53c14610425578063ddc6326214610452578063f851a4401461047257610156565b806377f50f971461030e5780637acc8678146103235780637bb7bed114610343578063958e2d3114610363578063adb82b3114610383578063affb9fc8146103a357610156565b80633892601c116101085780633892601c1461025957806343a0d0661461026e578063441a3e701461028e57806352fd9f2f146102ae5780635312ea8e146102ce57806375829def146102ee57610156565b8063081e3eda1461015b5780631069f3b5146101865780631e1c6a07146101b557806326782247146101e25780632f380b35146102045780632fb40ce11461023757610156565b3661015657005b600080fd5b34801561016757600080fd5b50610170610487565b60405161017d9190612a2e565b60405180910390f35b34801561019257600080fd5b506101a66101a1366004612579565b61048d565b60405161017d93929190612a9d565b3480156101c157600080fd5b506101d56101d0366004612493565b6105bf565b60405161017d919061276b565b3480156101ee57600080fd5b506101f76105d4565b60405161017d91906126bd565b34801561021057600080fd5b5061022461021f366004612561565b6105e3565b60405161017d9796959493929190612a37565b34801561024357600080fd5b506102576102523660046124ad565b610739565b005b34801561026557600080fd5b506101f76109d1565b34801561027a57600080fd5b506102576102893660046125c5565b6109f5565b34801561029a57600080fd5b506102576102a93660046125a4565b610af4565b3480156102ba57600080fd5b506102576102c9366004612521565b610b50565b3480156102da57600080fd5b506102576102e9366004612561565b610dbb565b3480156102fa57600080fd5b50610257610309366004612493565b610ed6565b34801561031a57600080fd5b50610257610fc9565b34801561032f57600080fd5b5061025761033e366004612493565b611089565b34801561034f57600080fd5b506101f761035e366004612561565b6111c0565b34801561036f57600080fd5b5061025761037e366004612561565b6111ea565b34801561038f57600080fd5b5061025761039e366004612561565b611260565b3480156103af57600080fd5b506102576103be366004612601565b611399565b3480156103cf57600080fd5b506102576103de366004612659565b611539565b3480156103ef57600080fd5b506103f8611727565b60405161017d91906126d1565b34801561041157600080fd5b506102576104203660046125a4565b611789565b34801561043157600080fd5b50610445610440366004612579565b61189b565b60405161017d9190612758565b34801561045e57600080fd5b5061025761046d366004612561565b611a64565b34801561047e57600080fd5b506101f7611a79565b60055481565b60008281526007602090815260408083206001600160a01b038516845290915290208054600454909160609182919067ffffffffffffffff811180156104d257600080fd5b506040519080825280602002602001820160405280156104fc578160200160208202803683370190505b5060045490935067ffffffffffffffff8111801561051957600080fd5b50604051908082528060200260200182016040528015610543578160200160208202803683370190505b50915060005b6004548110156105b6576000818152600183016020526040902054845185908390811061057257fe5b602002602001018181525050816001016000828152602001908152602001600020600101548382815181106105a357fe5b6020908102919091010152600101610549565b50509250925092565b60036020526000908152604090205460ff1681565b6001546001600160a01b031681565b60008181526006602052604090208054600182015460045491926001600160a01b0382169263ffffffff600160a01b8404811693600160c01b8104821693600160e01b90910490911691606091829167ffffffffffffffff8111801561064857600080fd5b50604051908082528060200260200182016040528015610672578160200160208202803683370190505b5060045490935067ffffffffffffffff8111801561068f57600080fd5b506040519080825280602002602001820160405280156106b9578160200160208202803683370190505b50915060005b60045481101561072c57600081815260028301602052604090205484518590839081106106e857fe5b6020026020010181815250508160020160008281526020019081526020016000206001015483828151811061071957fe5b60209081029190910101526001016106bf565b5050919395979092949650565b6000546001600160a01b03163314610785576040805162461bcd60e51b815260206004820152600a60248201526937b7363c9030b236b4b760b11b604482015290519081900360640190fd5b6001600160a01b03851660009081526003602052604090205460ff16156107c75760405162461bcd60e51b81526004016107be9061295a565b60405180910390fd5b6001600160a01b0385166107ed5760405162461bcd60e51b81526004016107be9061279a565b600454811461080e5760405162461bcd60e51b81526004016107be90612859565b438463ffffffff1611801561082e57508363ffffffff168363ffffffff16115b61084a5760405162461bcd60e51b81526004016107be90612a01565b60058054600090815260066020526040808220600190810180546001600160a01b0319166001600160a01b038b16179055835483528183208101805463ffffffff60a01b1916600160a01b63ffffffff8b811691820292909217909255855485528385208301805463ffffffff60c01b1916600160c01b928b1692909202919091179055935483529082200180546001600160e01b0316600160e01b909302929092179091555b8181101561095157604051806040016040528084848481811061091057fe5b6020908102929092013583525060009181018290526005548252600681526040808320858452600201825290912082518155910151600191820155016108f1565b506005805460019081019091556001600160a01b03861660008181526003602052604090819020805460ff1916909317909255905163ffffffff80861692908716917feb19e76b03b99eff4d0329a19e44569c131f242c9590234f19b76f2c56a817a1906109c2908790879061271e565b60405180910390a45050505050565b7f000000000000000000000000000000000000000000000000000000000000000081565b600280541415610a3a576040805162461bcd60e51b815260206004820152601f6024820152600080516020612ae1833981519152604482015290519081900360640190fd5b60028055610a4783611260565b610a52338483611bb4565b600083815260066020908152604080832060078352818420338086529352922060018301549091610a8e916001600160a01b0316903087611da3565b8054610a9a9085611e03565b81558154610aa89085611e03565b82556040514390869033907f36af321ec8d3c75236829c5317affd40ddb308863a1236d2d277a4025cccee1e90610ae0908990612a2e565b60405180910390a450506001600255505050565b600280541415610b39576040805162461bcd60e51b815260206004820152601f6024820152600080516020612ae1833981519152604482015290519081900360640190fd5b60028055610b478282611e66565b50506001600255565b60006004805480602002602001604051908101604052809291908181526020018280548015610ba857602002820191906000526020600020905b81546001600160a01b03168152600190910190602001808311610b8a575b505050505090506000815167ffffffffffffffff81118015610bc957600080fd5b50604051908082528060200260200182016040528015610bf3578160200160208202803683370190505b509050336000805b85811015610d5057868682818110610c0f57fe5b905060200201359150610c2182611260565b610c2d83836000611bb4565b60005b8551811015610d475760008381526007602090815260408083206001600160a01b038816845282528083208484526001019091529020548015610d3e57610c9381878481518110610c7d57fe5b6020026020010151611e0390919063ffffffff16565b868381518110610c9f57fe5b60209081029190910181019190915260008581526007825260408082206001600160a01b03891683528352808220858352600101909252908120558651879083908110610ce857fe5b60200260200101516001600160a01b031684866001600160a01b03167ff75f3d433c6628e04e01a0be1a2c6692a6011ce4b00389824cfa8b8a12f3c1c48443604051610d35929190612ad2565b60405180910390a45b50600101610c30565b50600101610bfb565b5060005b8351811015610db2576000848281518110610d6b57fe5b60200260200101511115610daa57610daa858281518110610d8857fe5b602002602001015184868481518110610d9d57fe5b6020026020010151611f3b565b600101610d54565b50505050505050565b600280541415610e00576040805162461bcd60e51b815260206004820152601f6024820152600080516020612ae1833981519152604482015290519081900360640190fd5b600280556000818152600660209081526040808320600783528184203385529092528220805483825591929091905b600454811015610e5a5760008181526001808501602052604082208082018390559190915501610e2f565b508254610e679082611fe0565b83558015610e88576001830154610e88906001600160a01b0316338361203d565b4384336001600160a01b03167f2369db1bafee945aee5630782f4a170682e3f8188d8dc247a4c73eb8c9e692d284604051610ec39190612a2e565b60405180910390a4505060016002555050565b6000546001600160a01b03163314610f22576040805162461bcd60e51b815260206004820152600a60248201526937b7363c9030b236b4b760b11b604482015290519081900360640190fd5b6001600160a01b038116610f6b576040805162461bcd60e51b815260206004820152600b60248201526a06e65772061646d696e20360ac1b604482015290519081900360640190fd5b604080516001600160a01b038316815290517f3b81caf78fa51ecbc8acb482fd7012a277b428d9b80f9d156e8a54107496cc409181900360200190a1600180546001600160a01b0319166001600160a01b0392909216919091179055565b6001546001600160a01b03163314611016576040805162461bcd60e51b815260206004820152600b60248201526a6e6f742070656e64696e6760a81b604482015290519081900360640190fd5b600154600054604080516001600160a01b03938416815292909116602083015280517f65da1cfc2c2e81576ad96afb24a581f8e109b7a403b35cbd3243a1c99efdb9ed9281900390910190a160018054600080546001600160a01b03199081166001600160a01b03841617909155169055565b6000546001600160a01b031633146110d5576040805162461bcd60e51b815260206004820152600a60248201526937b7363c9030b236b4b760b11b604482015290519081900360640190fd5b6001600160a01b03811661111a576040805162461bcd60e51b8152602060048201526007602482015266061646d696e20360cc1b604482015290519081900360640190fd5b604080516001600160a01b038316815290517f3b81caf78fa51ecbc8acb482fd7012a277b428d9b80f9d156e8a54107496cc409181900360200190a1600054604080516001600160a01b038085168252909216602083015280517f65da1cfc2c2e81576ad96afb24a581f8e109b7a403b35cbd3243a1c99efdb9ed9281900390910190a1600080546001600160a01b0319166001600160a01b0392909216919091179055565b600481815481106111d057600080fd5b6000918252602090912001546001600160a01b0316905081565b60028054141561122f576040805162461bcd60e51b815260206004820152601f6024820152600080516020612ae1833981519152604482015290519081900360640190fd5b600280556000818152600760209081526040808320338452909152902054611258908290611e66565b506001600255565b60055481106112815760405162461bcd60e51b81526004016107be90612830565b6000818152600660205260408120906112998361208f565b600183015490915063ffffffff600160e01b9091048116908216116112bf575050611396565b8154806112f257506001909101805463ffffffff909216600160e01b026001600160e01b03909216919091179055611396565b600183015463ffffffff600160e01b909104811683031660005b60045481101561136c576000818152600286016020526040812080549091906113369085906120c7565b905061135f8561134b8364e8d4a510006120c7565b8161135257fe5b6001850154919004611e03565b600192830155500161130c565b5050506001909101805463ffffffff909216600160e01b026001600160e01b039092169190911790555b50565b6000546001600160a01b031633146113e5576040805162461bcd60e51b815260206004820152600a60248201526937b7363c9030b236b4b760b11b604482015290519081900360640190fd5b6113ee84611260565b6000848152600660205260409020600181015443600160c01b90910463ffffffff161161142d5760405162461bcd60e51b81526004016107be906129ca565b600454821461144e5760405162461bcd60e51b81526004016107be90612800565b438463ffffffff161180156114775750600181015463ffffffff600160a01b9091048116908516115b6114935760405162461bcd60e51b81526004016107be906128ec565b60018101805463ffffffff60c01b1916600160c01b63ffffffff87160217905560005b828110156114f0578383828181106114ca57fe5b6000848152600286016020908152604090912091029290920135909155506001016114b6565b508363ffffffff16857fba2d8506275d684e80223910f1065a195ea279f37e27eb97ac24f4107eba6cf9858560405161152a92919061271e565b60405180910390a35050505050565b6000546001600160a01b03163314611585576040805162461bcd60e51b815260206004820152600a60248201526937b7363c9030b236b4b760b11b604482015290519081900360640190fd5b61158e85611260565b6000858152600660205260409020600181015443600160a01b90910463ffffffff1611806115cd5750600181015443600160c01b90910463ffffffff16105b6115e95760405162461bcd60e51b81526004016107be90612988565b600454821461160a5760405162461bcd60e51b81526004016107be90612886565b438563ffffffff1611801561162a57508463ffffffff168463ffffffff16115b6116465760405162461bcd60e51b81526004016107be906127d1565b60018101805463ffffffff60a01b1916600160a01b63ffffffff8881169182029290921763ffffffff60c01b1916600160c01b92881692909202919091176001600160e01b0316600160e01b9190910217905560005b828110156116d6578383828181106116b057fe5b60008481526002860160209081526040909120910292909201359091555060010161169c565b508363ffffffff168563ffffffff16877f4f863dc93468acf71ff8f5770599fbead4d0ff8ea6bd0c3251576f68fdad0904868660405161171792919061271e565b60405180910390a4505050505050565b6060600480548060200260200160405190810160405280929190818152602001828054801561177f57602002820191906000526020600020905b81546001600160a01b03168152600190910190602001808311611761575b5050505050905090565b6000546001600160a01b031633146117d5576040805162461bcd60e51b815260206004820152600a60248201526937b7363c9030b236b4b760b11b604482015290519081900360640190fd5b6000600483815481106117e457fe5b6000918252602090912001546001600160a01b0316905080611882576000336001600160a01b031683604051611819906126ba565b60006040518083038185875af1925050503d8060008114611856576040519150601f19603f3d011682016040523d82523d6000602084013e61185b565b606091505b505090508061187c5760405162461bcd60e51b81526004016107be90612923565b50611896565b6118966001600160a01b038216338461203d565b505050565b6004546060908067ffffffffffffffff811180156118b857600080fd5b506040519080825280602002602001820160405280156118e2578160200160208202803683370190505b506000858152600660209081526040808320600783528184206001600160a01b038916855290925282208154600183015494965091939092600160e01b90910463ffffffff16906119328961208f565b905060005b86811015611a5757600081815260028701602052604090206001015463ffffffff83168410801561196757508415155b156119bd5760008281526002880160205260408120546119949063ffffffff80871688900391906120c716565b90506119b9866119a98364e8d4a510006120c7565b816119b057fe5b84919004611e03565b9150505b600082815260018088016020526040909120015464e8d4a51000906119ef906119e7908490611fe0565b8854906120c7565b816119f657fe5b04898381518110611a0357fe5b602002602001018181525050611a37866001016000848152602001908152602001600020600001548a8481518110610c7d57fe5b898381518110611a4357fe5b602090810291909101015250600101611937565b5050505050505092915050565b611a6d81611260565b61139633826001611bb4565b6000546001600160a01b031681565b801580611b0e575060408051636eb1769f60e11b81523060048201526001600160a01b03848116602483015291519185169163dd62ed3e91604480820192602092909190829003018186803b158015611ae057600080fd5b505afa158015611af4573d6000803e3d6000fd5b505050506040513d6020811015611b0a57600080fd5b5051155b611b495760405162461bcd60e51b8152600401808060200182810382526036815260200180612b986036913960400191505060405180910390fd5b604080516001600160a01b038416602482015260448082018490528251808303909101815260649091019091526020810180516001600160e01b031663095ea7b360e01b179052611896908490612120565b6060611baa84846000856121d1565b90505b9392505050565b60008281526007602090815260408083206001600160a01b038716845290915290205460045481611c425760005b81811015611c3a5760008581526006602090815260408083208484526002018252808320600190810154898552600784528285206001600160a01b038c16865284528285208686528201909352922082015501611be2565b505050611896565b60005b81811015611d9b5760008581526006602090815260408083208484526002018252808320600190810154898552600784528285206001600160a01b038c16865284528285208686528201909352908320908101549192909164e8d4a5100090611cba90611cb3908690611fe0565b88906120c7565b81611cc157fe5b83549190049150611cd3908290611e03565b905086611ce05780611ce3565b60005b825560018201839055868015611cf95750600081115b15611d9057611d2a60048581548110611d0e57fe5b6000918252602090912001546001600160a01b03168a83611f3b565b60048481548110611d3757fe5b6000918252602090912001546040516001600160a01b03918216918a91908c16907ff75f3d433c6628e04e01a0be1a2c6692a6011ce4b00389824cfa8b8a12f3c1c490611d879086904390612ad2565b60405180910390a45b505050600101611c45565b505050505050565b604080516001600160a01b0380861660248301528416604482015260648082018490528251808303909101815260849091019091526020810180516001600160e01b03166323b872dd60e01b179052611dfd908590612120565b50505050565b600082820183811015611e5d576040805162461bcd60e51b815260206004820152601b60248201527f536166654d6174683a206164646974696f6e206f766572666c6f770000000000604482015290519081900360640190fd5b90505b92915050565b6000828152600660209081526040808320600783528184203385529092529091208054831115611ea85760405162461bcd60e51b81526004016107be906128b5565b611eb184611260565b611ebd33856001611bb4565b8054611ec99084611fe0565b81558154611ed79084611fe0565b82556001820154611ef2906001600160a01b0316338561203d565b4384336001600160a01b03167f02f25270a4d87bea75db541cdfe559334a275b4a233520ed6c0a2429667cca9486604051611f2d9190612a2e565b60405180910390a450505050565b60006001600160a01b03841615611f53576000611f55565b815b90507f00000000000000000000000000000000000000000000000000000000000000006001600160a01b0316637750c9f0828686866040518563ffffffff1660e01b8152600401611fa893929190612776565b6000604051808303818588803b158015611fc157600080fd5b505af1158015611fd5573d6000803e3d6000fd5b505050505050505050565b600082821115612037576040805162461bcd60e51b815260206004820152601e60248201527f536166654d6174683a207375627472616374696f6e206f766572666c6f770000604482015290519081900360640190fd5b50900390565b604080516001600160a01b038416602482015260448082018490528251808303909101815260649091019091526020810180516001600160e01b031663a9059cbb60e01b179052611896908490612120565b600081815260066020526040902060010154600160c01b900463ffffffff16438111156120c2576120bf4361232c565b90505b919050565b6000826120d657506000611e60565b828202828482816120e357fe5b0414611e5d5760405162461bcd60e51b8152600401808060200182810382526021815260200180612b276021913960400191505060405180910390fd5b6000612175826040518060400160405280602081526020017f5361666545524332303a206c6f772d6c6576656c2063616c6c206661696c6564815250856001600160a01b0316611b9b9092919063ffffffff16565b8051909150156118965780806020019051602081101561219457600080fd5b50516118965760405162461bcd60e51b815260040180806020018281038252602a815260200180612b6e602a913960400191505060405180910390fd5b6060824710156122125760405162461bcd60e51b8152600401808060200182810382526026815260200180612b016026913960400191505060405180910390fd5b61221b85612375565b61226c576040805162461bcd60e51b815260206004820152601d60248201527f416464726573733a2063616c6c20746f206e6f6e2d636f6e7472616374000000604482015290519081900360640190fd5b600080866001600160a01b031685876040518082805190602001908083835b602083106122aa5780518252601f19909201916020918201910161228b565b6001836020036101000a03801982511681845116808217855250505050505090500191505060006040518083038185875af1925050503d806000811461230c576040519150601f19603f3d011682016040523d82523d6000602084013e612311565b606091505b509150915061232182828661237b565b979650505050505050565b600064010000000082106123715760405162461bcd60e51b8152600401808060200182810382526026815260200180612b486026913960400191505060405180910390fd5b5090565b3b151590565b6060831561238a575081611bad565b82511561239a5782518084602001fd5b8160405162461bcd60e51b81526004018080602001828103825283818151815260200191508051906020019080838360005b838110156123e45781810151838201526020016123cc565b50505050905090810190601f1680156124115780820380516001836020036101000a031916815260200191505b509250505060405180910390fd5b80356001600160a01b03811681146120c257600080fd5b60008083601f840112612447578182fd5b50813567ffffffffffffffff81111561245e578182fd5b602083019150836020808302850101111561247857600080fd5b9250929050565b803563ffffffff811681146120c257600080fd5b6000602082840312156124a4578081fd5b611bad8261241f565b6000806000806000608086880312156124c4578081fd5b6124cd8661241f565b94506124db6020870161247f565b93506124e96040870161247f565b9250606086013567ffffffffffffffff811115612504578182fd5b61251088828901612436565b969995985093965092949392505050565b60008060208385031215612533578182fd5b823567ffffffffffffffff811115612549578283fd5b61255585828601612436565b90969095509350505050565b600060208284031215612572578081fd5b5035919050565b6000806040838503121561258b578182fd5b8235915061259b6020840161241f565b90509250929050565b600080604083850312156125b6578182fd5b50508035926020909101359150565b6000806000606084860312156125d9578283fd5b8335925060208401359150604084013580151581146125f6578182fd5b809150509250925092565b60008060008060608587031215612616578384fd5b843593506126266020860161247f565b9250604085013567ffffffffffffffff811115612641578283fd5b61264d87828801612436565b95989497509550505050565b600080600080600060808688031215612670578081fd5b853594506124db6020870161247f565b6000815180845260208085019450808401835b838110156126af57815187529582019590820190600101612693565b509495945050505050565b90565b6001600160a01b0391909116815260200190565b6020808252825182820181905260009190848201906040850190845b818110156127125783516001600160a01b0316835292840192918401916001016126ed565b50909695505050505050565b6020808252810182905260006001600160fb1b0383111561273d578081fd5b60208302808560408501379190910160400190815292915050565b600060208252611bad6020830184612680565b901515815260200190565b6001600160a01b039384168152919092166020820152604081019190915260600190565b60208082526018908201527f6164643a20696e76616c6964207374616b6520746f6b656e0000000000000000604082015260600190565b60208082526015908201527472656e65773a20696e76616c696420626c6f636b7360581b604082015260600190565b6020808252601690820152750eae0c8c2e8ca7440d2dcecc2d8d2c840d8cadccee8d60531b604082015260600190565b6020808252600f908201526e1a5b9d985b1a59081c1bdbdb081a59608a1b604082015260600190565b6020808252601390820152720c2c8c87440d2dcecc2d8d2c840d8cadccee8d606b1b604082015260600190565b6020808252601590820152740e4cadccaee7440d2dcecc2d8d2c840d8cadccee8d605b1b604082015260600190565b6020808252601d908201527f77697468647261773a20696e73756666696369656e7420616d6f756e74000000604082015260600190565b60208082526019908201527f7570646174653a20696e76616c696420656e6420626c6f636b00000000000000604082015260600190565b6020808252601c908201527f7472616e736665722072657761726420746f6b656e206661696c656400000000604082015260600190565b6020808252601490820152731859190e88191d5c1b1a58d85d1959081c1bdbdb60621b604082015260600190565b60208082526022908201527f72656e65773a20696e76616c696420706f6f6c20737461746520746f2072656e604082015261657760f01b606082015260800190565b6020808252601a908201527f7570646174653a20706f6f6c20616c726561647920656e646564000000000000604082015260600190565b6020808252601390820152726164643a20696e76616c696420626c6f636b7360681b604082015260600190565b90815260200190565b8781526001600160a01b038716602082015263ffffffff868116604083015285811660608301528416608082015260e060a08201819052600090612a7d90830185612680565b82810360c0840152612a8f8185612680565b9a9950505050505050505050565b600084825260606020830152612ab66060830185612680565b8281036040840152612ac88185612680565b9695505050505050565b91825260208201526040019056fe5265656e7472616e637947756172643a207265656e7472616e742063616c6c00416464726573733a20696e73756666696369656e742062616c616e636520666f722063616c6c536166654d6174683a206d756c7469706c69636174696f6e206f766572666c6f7753616665436173743a2076616c756520646f65736e27742066697420696e20333220626974735361666545524332303a204552433230206f7065726174696f6e20646964206e6f7420737563636565645361666545524332303a20617070726f76652066726f6d206e6f6e2d7a65726f20746f206e6f6e2d7a65726f20616c6c6f77616e6365a2646970667358221220c5123b60dff18c0319a60de1a907c57be74f3db5bfa5928e7b14949e5eb97be864736f6c63430007060033416464726573733a20696e73756666696369656e742062616c616e636520666f722063616c6c5361666545524332303a204552433230206f7065726174696f6e20646964206e6f7420737563636565645361666545524332303a20617070726f76652066726f6d206e6f6e2d7a65726f20746f206e6f6e2d7a65726f20616c6c6f77616e6365",
					"opcodes": "PUSH1 0xA0 PUSH1 0x40 MSTORE CALLVALUE DUP1 ISZERO PUSH3 0x11 JUMPI PUSH1 0x0 DUP1 REVERT JUMPDEST POP PUSH1 0x40 MLOAD PUSH3 0x33A4 CODESIZE SUB DUP1 PUSH3 0x33A4 DUP4 CODECOPY DUP2 ADD PUSH1 0x40 DUP2 SWAP1 MSTORE PUSH3 0x34 SWAP2 PUSH3 0x5F6 JUMP JUMPDEST DUP3 PUSH1 0x1 PUSH1 0x1 PUSH1 0xA0 SHL SUB DUP2 AND PUSH3 0x7B JUMPI PUSH1 0x40 DUP1 MLOAD PUSH3 0x461BCD PUSH1 0xE5 SHL DUP2 MSTORE PUSH1 0x20 PUSH1 0x4 DUP3 ADD MSTORE PUSH1 0x7 PUSH1 0x24 DUP3 ADD MSTORE PUSH7 0x61646D696E203 PUSH1 0xCC SHL PUSH1 0x44 DUP3 ADD MSTORE SWAP1 MLOAD SWAP1 DUP2 SWAP1 SUB PUSH1 0x64 ADD SWAP1 REVERT JUMPDEST PUSH1 0x0 DUP1 SLOAD PUSH1 0x1 PUSH1 0x1 PUSH1 0xA0 SHL SUB NOT AND PUSH1 0x1 PUSH1 0x1 PUSH1 0xA0 SHL SUB SWAP3 SWAP1 SWAP3 AND SWAP2 SWAP1 SWAP2 OR SWAP1 SSTORE PUSH1 0x1 PUSH1 0x2 SSTORE DUP2 MLOAD PUSH3 0xB5 SWAP1 PUSH1 0x4 SWAP1 PUSH1 0x20 DUP6 ADD SWAP1 PUSH3 0x568 JUMP JUMPDEST POP PUSH1 0x1 PUSH1 0x1 PUSH1 0x60 SHL SUB NOT PUSH1 0x60 DUP3 SWAP1 SHL AND PUSH1 0x80 MSTORE PUSH1 0x0 JUMPDEST DUP3 MLOAD DUP2 LT ISZERO PUSH3 0x148 JUMPI PUSH1 0x0 PUSH1 0x1 PUSH1 0x1 PUSH1 0xA0 SHL SUB AND DUP4 DUP3 DUP2 MLOAD DUP2 LT PUSH3 0xED JUMPI INVALID JUMPDEST PUSH1 0x20 MUL PUSH1 0x20 ADD ADD MLOAD PUSH1 0x1 PUSH1 0x1 PUSH1 0xA0 SHL SUB AND EQ PUSH3 0x13F JUMPI PUSH3 0x13F DUP3 PUSH1 0x0 NOT DUP6 DUP5 DUP2 MLOAD DUP2 LT PUSH3 0x119 JUMPI INVALID JUMPDEST PUSH1 0x20 MUL PUSH1 0x20 ADD ADD MLOAD PUSH1 0x1 PUSH1 0x1 PUSH1 0xA0 SHL SUB AND PUSH3 0x152 PUSH1 0x20 SHL PUSH3 0x1A88 OR SWAP1 SWAP3 SWAP2 SWAP1 PUSH1 0x20 SHR JUMP JUMPDEST PUSH1 0x1 ADD PUSH3 0xCB JUMP JUMPDEST POP POP POP POP PUSH3 0x6F8 JUMP JUMPDEST DUP1 ISZERO DUP1 PUSH3 0x1DC JUMPI POP PUSH1 0x40 DUP1 MLOAD PUSH4 0x6EB1769F PUSH1 0xE1 SHL DUP2 MSTORE ADDRESS PUSH1 0x4 DUP3 ADD MSTORE PUSH1 0x1 PUSH1 0x1 PUSH1 0xA0 SHL SUB DUP5 DUP2 AND PUSH1 0x24 DUP4 ADD MSTORE SWAP2 MLOAD SWAP2 DUP6 AND SWAP2 PUSH4 0xDD62ED3E SWAP2 PUSH1 0x44 DUP1 DUP3 ADD SWAP3 PUSH1 0x20 SWAP3 SWAP1 SWAP2 SWAP1 DUP3 SWAP1 SUB ADD DUP2 DUP7 DUP1 EXTCODESIZE ISZERO DUP1 ISZERO PUSH3 0x1AC JUMPI PUSH1 0x0 DUP1 REVERT JUMPDEST POP GAS STATICCALL ISZERO DUP1 ISZERO PUSH3 0x1C1 JUMPI RETURNDATASIZE PUSH1 0x0 DUP1 RETURNDATACOPY RETURNDATASIZE PUSH1 0x0 REVERT JUMPDEST POP POP POP POP PUSH1 0x40 MLOAD RETURNDATASIZE PUSH1 0x20 DUP2 LT ISZERO PUSH3 0x1D8 JUMPI PUSH1 0x0 DUP1 REVERT JUMPDEST POP MLOAD ISZERO JUMPDEST PUSH3 0x219 JUMPI PUSH1 0x40 MLOAD PUSH3 0x461BCD PUSH1 0xE5 SHL DUP2 MSTORE PUSH1 0x4 ADD DUP1 DUP1 PUSH1 0x20 ADD DUP3 DUP2 SUB DUP3 MSTORE PUSH1 0x36 DUP2 MSTORE PUSH1 0x20 ADD DUP1 PUSH3 0x336E PUSH1 0x36 SWAP2 CODECOPY PUSH1 0x40 ADD SWAP2 POP POP PUSH1 0x40 MLOAD DUP1 SWAP2 SUB SWAP1 REVERT JUMPDEST PUSH1 0x40 DUP1 MLOAD PUSH1 0x1 PUSH1 0x1 PUSH1 0xA0 SHL SUB DUP5 AND PUSH1 0x24 DUP3 ADD MSTORE PUSH1 0x44 DUP1 DUP3 ADD DUP5 SWAP1 MSTORE DUP3 MLOAD DUP1 DUP4 SUB SWAP1 SWAP2 ADD DUP2 MSTORE PUSH1 0x64 SWAP1 SWAP2 ADD SWAP1 SWAP2 MSTORE PUSH1 0x20 DUP2 ADD DUP1 MLOAD PUSH1 0x1 PUSH1 0x1 PUSH1 0xE0 SHL SUB SWAP1 DUP2 AND PUSH4 0x95EA7B3 PUSH1 0xE0 SHL OR SWAP1 SWAP2 MSTORE PUSH3 0x271 SWAP2 DUP6 SWAP2 PUSH3 0x276 AND JUMP JUMPDEST POP POP POP JUMP JUMPDEST PUSH1 0x0 PUSH3 0x2D2 DUP3 PUSH1 0x40 MLOAD DUP1 PUSH1 0x40 ADD PUSH1 0x40 MSTORE DUP1 PUSH1 0x20 DUP2 MSTORE PUSH1 0x20 ADD PUSH32 0x5361666545524332303A206C6F772D6C6576656C2063616C6C206661696C6564 DUP2 MSTORE POP DUP6 PUSH1 0x1 PUSH1 0x1 PUSH1 0xA0 SHL SUB AND PUSH3 0x332 PUSH1 0x20 SHL PUSH3 0x1B9B OR SWAP1 SWAP3 SWAP2 SWAP1 PUSH1 0x20 SHR JUMP JUMPDEST DUP1 MLOAD SWAP1 SWAP2 POP ISZERO PUSH3 0x271 JUMPI DUP1 DUP1 PUSH1 0x20 ADD SWAP1 MLOAD PUSH1 0x20 DUP2 LT ISZERO PUSH3 0x2F3 JUMPI PUSH1 0x0 DUP1 REVERT JUMPDEST POP MLOAD PUSH3 0x271 JUMPI PUSH1 0x40 MLOAD PUSH3 0x461BCD PUSH1 0xE5 SHL DUP2 MSTORE PUSH1 0x4 ADD DUP1 DUP1 PUSH1 0x20 ADD DUP3 DUP2 SUB DUP3 MSTORE PUSH1 0x2A DUP2 MSTORE PUSH1 0x20 ADD DUP1 PUSH3 0x3344 PUSH1 0x2A SWAP2 CODECOPY PUSH1 0x40 ADD SWAP2 POP POP PUSH1 0x40 MLOAD DUP1 SWAP2 SUB SWAP1 REVERT JUMPDEST PUSH1 0x60 PUSH3 0x343 DUP5 DUP5 PUSH1 0x0 DUP6 PUSH3 0x34D JUMP JUMPDEST SWAP1 POP JUMPDEST SWAP4 SWAP3 POP POP POP JUMP JUMPDEST PUSH1 0x60 DUP3 SELFBALANCE LT ISZERO PUSH3 0x390 JUMPI PUSH1 0x40 MLOAD PUSH3 0x461BCD PUSH1 0xE5 SHL DUP2 MSTORE PUSH1 0x4 ADD DUP1 DUP1 PUSH1 0x20 ADD DUP3 DUP2 SUB DUP3 MSTORE PUSH1 0x26 DUP2 MSTORE PUSH1 0x20 ADD DUP1 PUSH3 0x331E PUSH1 0x26 SWAP2 CODECOPY PUSH1 0x40 ADD SWAP2 POP POP PUSH1 0x40 MLOAD DUP1 SWAP2 SUB SWAP1 REVERT JUMPDEST PUSH3 0x39B DUP6 PUSH3 0x4B4 JUMP JUMPDEST PUSH3 0x3ED JUMPI PUSH1 0x40 DUP1 MLOAD PUSH3 0x461BCD PUSH1 0xE5 SHL DUP2 MSTORE PUSH1 0x20 PUSH1 0x4 DUP3 ADD MSTORE PUSH1 0x1D PUSH1 0x24 DUP3 ADD MSTORE PUSH32 0x416464726573733A2063616C6C20746F206E6F6E2D636F6E7472616374000000 PUSH1 0x44 DUP3 ADD MSTORE SWAP1 MLOAD SWAP1 DUP2 SWAP1 SUB PUSH1 0x64 ADD SWAP1 REVERT JUMPDEST PUSH1 0x0 DUP1 DUP7 PUSH1 0x1 PUSH1 0x1 PUSH1 0xA0 SHL SUB AND DUP6 DUP8 PUSH1 0x40 MLOAD DUP1 DUP3 DUP1 MLOAD SWAP1 PUSH1 0x20 ADD SWAP1 DUP1 DUP4 DUP4 JUMPDEST PUSH1 0x20 DUP4 LT PUSH3 0x42D JUMPI DUP1 MLOAD DUP3 MSTORE PUSH1 0x1F NOT SWAP1 SWAP3 ADD SWAP2 PUSH1 0x20 SWAP2 DUP3 ADD SWAP2 ADD PUSH3 0x40C JUMP JUMPDEST PUSH1 0x1 DUP4 PUSH1 0x20 SUB PUSH2 0x100 EXP SUB DUP1 NOT DUP3 MLOAD AND DUP2 DUP5 MLOAD AND DUP1 DUP3 OR DUP6 MSTORE POP POP POP POP POP POP SWAP1 POP ADD SWAP2 POP POP PUSH1 0x0 PUSH1 0x40 MLOAD DUP1 DUP4 SUB DUP2 DUP6 DUP8 GAS CALL SWAP3 POP POP POP RETURNDATASIZE DUP1 PUSH1 0x0 DUP2 EQ PUSH3 0x491 JUMPI PUSH1 0x40 MLOAD SWAP2 POP PUSH1 0x1F NOT PUSH1 0x3F RETURNDATASIZE ADD AND DUP3 ADD PUSH1 0x40 MSTORE RETURNDATASIZE DUP3 MSTORE RETURNDATASIZE PUSH1 0x0 PUSH1 0x20 DUP5 ADD RETURNDATACOPY PUSH3 0x496 JUMP JUMPDEST PUSH1 0x60 SWAP2 POP JUMPDEST POP SWAP1 SWAP3 POP SWAP1 POP PUSH3 0x4A9 DUP3 DUP3 DUP7 PUSH3 0x4BE JUMP JUMPDEST SWAP8 SWAP7 POP POP POP POP POP POP POP JUMP JUMPDEST DUP1 EXTCODESIZE ISZERO ISZERO JUMPDEST SWAP2 SWAP1 POP JUMP JUMPDEST PUSH1 0x60 DUP4 ISZERO PUSH3 0x4CF JUMPI POP DUP2 PUSH3 0x346 JUMP JUMPDEST DUP3 MLOAD ISZERO PUSH3 0x4E0 JUMPI DUP3 MLOAD DUP1 DUP5 PUSH1 0x20 ADD REVERT JUMPDEST DUP2 PUSH1 0x40 MLOAD PUSH3 0x461BCD PUSH1 0xE5 SHL DUP2 MSTORE PUSH1 0x4 ADD DUP1 DUP1 PUSH1 0x20 ADD DUP3 DUP2 SUB DUP3 MSTORE DUP4 DUP2 DUP2 MLOAD DUP2 MSTORE PUSH1 0x20 ADD SWAP2 POP DUP1 MLOAD SWAP1 PUSH1 0x20 ADD SWAP1 DUP1 DUP4 DUP4 PUSH1 0x0 JUMPDEST DUP4 DUP2 LT ISZERO PUSH3 0x52C JUMPI DUP2 DUP2 ADD MLOAD DUP4 DUP3 ADD MSTORE PUSH1 0x20 ADD PUSH3 0x512 JUMP JUMPDEST POP POP POP POP SWAP1 POP SWAP1 DUP2 ADD SWAP1 PUSH1 0x1F AND DUP1 ISZERO PUSH3 0x55A JUMPI DUP1 DUP3 SUB DUP1 MLOAD PUSH1 0x1 DUP4 PUSH1 0x20 SUB PUSH2 0x100 EXP SUB NOT AND DUP2 MSTORE PUSH1 0x20 ADD SWAP2 POP JUMPDEST POP SWAP3 POP POP POP PUSH1 0x40 MLOAD DUP1 SWAP2 SUB SWAP1 REVERT JUMPDEST DUP3 DUP1 SLOAD DUP3 DUP3 SSTORE SWAP1 PUSH1 0x0 MSTORE PUSH1 0x20 PUSH1 0x0 KECCAK256 SWAP1 DUP2 ADD SWAP3 DUP3 ISZERO PUSH3 0x5C0 JUMPI SWAP2 PUSH1 0x20 MUL DUP3 ADD JUMPDEST DUP3 DUP2 GT ISZERO PUSH3 0x5C0 JUMPI DUP3 MLOAD DUP3 SLOAD PUSH1 0x1 PUSH1 0x1 PUSH1 0xA0 SHL SUB NOT AND PUSH1 0x1 PUSH1 0x1 PUSH1 0xA0 SHL SUB SWAP1 SWAP2 AND OR DUP3 SSTORE PUSH1 0x20 SWAP1 SWAP3 ADD SWAP2 PUSH1 0x1 SWAP1 SWAP2 ADD SWAP1 PUSH3 0x589 JUMP JUMPDEST POP PUSH3 0x5CE SWAP3 SWAP2 POP PUSH3 0x5D2 JUMP JUMPDEST POP SWAP1 JUMP JUMPDEST JUMPDEST DUP1 DUP3 GT ISZERO PUSH3 0x5CE JUMPI PUSH1 0x0 DUP2 SSTORE PUSH1 0x1 ADD PUSH3 0x5D3 JUMP JUMPDEST DUP1 MLOAD PUSH3 0x4B9 DUP2 PUSH3 0x6DF JUMP JUMPDEST PUSH1 0x0 DUP1 PUSH1 0x0 PUSH1 0x60 DUP5 DUP7 SUB SLT ISZERO PUSH3 0x60B JUMPI DUP3 DUP4 REVERT JUMPDEST DUP4 MLOAD PUSH3 0x618 DUP2 PUSH3 0x6DF JUMP JUMPDEST PUSH1 0x20 DUP6 DUP2 ADD MLOAD SWAP2 SWAP5 POP SWAP1 PUSH1 0x1 PUSH1 0x1 PUSH1 0x40 SHL SUB DUP1 DUP3 GT ISZERO PUSH3 0x637 JUMPI DUP5 DUP6 REVERT JUMPDEST DUP2 DUP8 ADD SWAP2 POP DUP8 PUSH1 0x1F DUP4 ADD SLT PUSH3 0x64B JUMPI DUP5 DUP6 REVERT JUMPDEST DUP2 MLOAD DUP2 DUP2 GT ISZERO PUSH3 0x658 JUMPI INVALID JUMPDEST DUP4 DUP2 MUL PUSH1 0x40 MLOAD DUP6 DUP3 DUP3 ADD ADD DUP2 DUP2 LT DUP6 DUP3 GT OR ISZERO PUSH3 0x672 JUMPI INVALID JUMPDEST PUSH1 0x40 MSTORE DUP3 DUP2 MSTORE DUP6 DUP2 ADD SWAP4 POP DUP5 DUP7 ADD DUP3 DUP7 ADD DUP8 ADD DUP13 LT ISZERO PUSH3 0x691 JUMPI DUP9 DUP10 REVERT JUMPDEST DUP9 SWAP6 POP JUMPDEST DUP4 DUP7 LT ISZERO PUSH3 0x6BE JUMPI PUSH3 0x6A9 DUP2 PUSH3 0x5E9 JUMP JUMPDEST DUP6 MSTORE PUSH1 0x1 SWAP6 SWAP1 SWAP6 ADD SWAP5 SWAP4 DUP7 ADD SWAP4 DUP7 ADD PUSH3 0x695 JUMP JUMPDEST POP DUP1 SWAP8 POP POP POP POP POP POP POP PUSH3 0x6D6 PUSH1 0x40 DUP6 ADD PUSH3 0x5E9 JUMP JUMPDEST SWAP1 POP SWAP3 POP SWAP3 POP SWAP3 JUMP JUMPDEST PUSH1 0x1 PUSH1 0x1 PUSH1 0xA0 SHL SUB DUP2 AND DUP2 EQ PUSH3 0x6F5 JUMPI PUSH1 0x0 DUP1 REVERT JUMPDEST POP JUMP JUMPDEST PUSH1 0x80 MLOAD PUSH1 0x60 SHR PUSH2 0x2C03 PUSH3 0x71B PUSH1 0x0 CODECOPY DUP1 PUSH2 0x9D3 MSTORE DUP1 PUSH2 0x1F59 MSTORE POP PUSH2 0x2C03 PUSH1 0x0 RETURN INVALID PUSH1 0x80 PUSH1 0x40 MSTORE PUSH1 0x4 CALLDATASIZE LT PUSH2 0x14F JUMPI PUSH1 0x0 CALLDATALOAD PUSH1 0xE0 SHR DUP1 PUSH4 0x77F50F97 GT PUSH2 0xB6 JUMPI DUP1 PUSH4 0xB43C6270 GT PUSH2 0x6F JUMPI DUP1 PUSH4 0xB43C6270 EQ PUSH2 0x3C3 JUMPI DUP1 PUSH4 0xC4F59F9B EQ PUSH2 0x3E3 JUMPI DUP1 PUSH4 0xD12E4CEB EQ PUSH2 0x405 JUMPI DUP1 PUSH4 0xD18DF53C EQ PUSH2 0x425 JUMPI DUP1 PUSH4 0xDDC63262 EQ PUSH2 0x452 JUMPI DUP1 PUSH4 0xF851A440 EQ PUSH2 0x472 JUMPI PUSH2 0x156 JUMP JUMPDEST DUP1 PUSH4 0x77F50F97 EQ PUSH2 0x30E JUMPI DUP1 PUSH4 0x7ACC8678 EQ PUSH2 0x323 JUMPI DUP1 PUSH4 0x7BB7BED1 EQ PUSH2 0x343 JUMPI DUP1 PUSH4 0x958E2D31 EQ PUSH2 0x363 JUMPI DUP1 PUSH4 0xADB82B31 EQ PUSH2 0x383 JUMPI DUP1 PUSH4 0xAFFB9FC8 EQ PUSH2 0x3A3 JUMPI PUSH2 0x156 JUMP JUMPDEST DUP1 PUSH4 0x3892601C GT PUSH2 0x108 JUMPI DUP1 PUSH4 0x3892601C EQ PUSH2 0x259 JUMPI DUP1 PUSH4 0x43A0D066 EQ PUSH2 0x26E JUMPI DUP1 PUSH4 0x441A3E70 EQ PUSH2 0x28E JUMPI DUP1 PUSH4 0x52FD9F2F EQ PUSH2 0x2AE JUMPI DUP1 PUSH4 0x5312EA8E EQ PUSH2 0x2CE JUMPI DUP1 PUSH4 0x75829DEF EQ PUSH2 0x2EE JUMPI PUSH2 0x156 JUMP JUMPDEST DUP1 PUSH4 0x81E3EDA EQ PUSH2 0x15B JUMPI DUP1 PUSH4 0x1069F3B5 EQ PUSH2 0x186 JUMPI DUP1 PUSH4 0x1E1C6A07 EQ PUSH2 0x1B5 JUMPI DUP1 PUSH4 0x26782247 EQ PUSH2 0x1E2 JUMPI DUP1 PUSH4 0x2F380B35 EQ PUSH2 0x204 JUMPI DUP1 PUSH4 0x2FB40CE1 EQ PUSH2 0x237 JUMPI PUSH2 0x156 JUMP JUMPDEST CALLDATASIZE PUSH2 0x156 JUMPI STOP JUMPDEST PUSH1 0x0 DUP1 REVERT JUMPDEST CALLVALUE DUP1 ISZERO PUSH2 0x167 JUMPI PUSH1 0x0 DUP1 REVERT JUMPDEST POP PUSH2 0x170 PUSH2 0x487 JUMP JUMPDEST PUSH1 0x40 MLOAD PUSH2 0x17D SWAP2 SWAP1 PUSH2 0x2A2E JUMP JUMPDEST PUSH1 0x40 MLOAD DUP1 SWAP2 SUB SWAP1 RETURN JUMPDEST CALLVALUE DUP1 ISZERO PUSH2 0x192 JUMPI PUSH1 0x0 DUP1 REVERT JUMPDEST POP PUSH2 0x1A6 PUSH2 0x1A1 CALLDATASIZE PUSH1 0x4 PUSH2 0x2579 JUMP JUMPDEST PUSH2 0x48D JUMP JUMPDEST PUSH1 0x40 MLOAD PUSH2 0x17D SWAP4 SWAP3 SWAP2 SWAP1 PUSH2 0x2A9D JUMP JUMPDEST CALLVALUE DUP1 ISZERO PUSH2 0x1C1 JUMPI PUSH1 0x0 DUP1 REVERT JUMPDEST POP PUSH2 0x1D5 PUSH2 0x1D0 CALLDATASIZE PUSH1 0x4 PUSH2 0x2493 JUMP JUMPDEST PUSH2 0x5BF JUMP JUMPDEST PUSH1 0x40 MLOAD PUSH2 0x17D SWAP2 SWAP1 PUSH2 0x276B JUMP JUMPDEST CALLVALUE DUP1 ISZERO PUSH2 0x1EE JUMPI PUSH1 0x0 DUP1 REVERT JUMPDEST POP PUSH2 0x1F7 PUSH2 0x5D4 JUMP JUMPDEST PUSH1 0x40 MLOAD PUSH2 0x17D SWAP2 SWAP1 PUSH2 0x26BD JUMP JUMPDEST CALLVALUE DUP1 ISZERO PUSH2 0x210 JUMPI PUSH1 0x0 DUP1 REVERT JUMPDEST POP PUSH2 0x224 PUSH2 0x21F CALLDATASIZE PUSH1 0x4 PUSH2 0x2561 JUMP JUMPDEST PUSH2 0x5E3 JUMP JUMPDEST PUSH1 0x40 MLOAD PUSH2 0x17D SWAP8 SWAP7 SWAP6 SWAP5 SWAP4 SWAP3 SWAP2 SWAP1 PUSH2 0x2A37 JUMP JUMPDEST CALLVALUE DUP1 ISZERO PUSH2 0x243 JUMPI PUSH1 0x0 DUP1 REVERT JUMPDEST POP PUSH2 0x257 PUSH2 0x252 CALLDATASIZE PUSH1 0x4 PUSH2 0x24AD JUMP JUMPDEST PUSH2 0x739 JUMP JUMPDEST STOP JUMPDEST CALLVALUE DUP1 ISZERO PUSH2 0x265 JUMPI PUSH1 0x0 DUP1 REVERT JUMPDEST POP PUSH2 0x1F7 PUSH2 0x9D1 JUMP JUMPDEST CALLVALUE DUP1 ISZERO PUSH2 0x27A JUMPI PUSH1 0x0 DUP1 REVERT JUMPDEST POP PUSH2 0x257 PUSH2 0x289 CALLDATASIZE PUSH1 0x4 PUSH2 0x25C5 JUMP JUMPDEST PUSH2 0x9F5 JUMP JUMPDEST CALLVALUE DUP1 ISZERO PUSH2 0x29A JUMPI PUSH1 0x0 DUP1 REVERT JUMPDEST POP PUSH2 0x257 PUSH2 0x2A9 CALLDATASIZE PUSH1 0x4 PUSH2 0x25A4 JUMP JUMPDEST PUSH2 0xAF4 JUMP JUMPDEST CALLVALUE DUP1 ISZERO PUSH2 0x2BA JUMPI PUSH1 0x0 DUP1 REVERT JUMPDEST POP PUSH2 0x257 PUSH2 0x2C9 CALLDATASIZE PUSH1 0x4 PUSH2 0x2521 JUMP JUMPDEST PUSH2 0xB50 JUMP JUMPDEST CALLVALUE DUP1 ISZERO PUSH2 0x2DA JUMPI PUSH1 0x0 DUP1 REVERT JUMPDEST POP PUSH2 0x257 PUSH2 0x2E9 CALLDATASIZE PUSH1 0x4 PUSH2 0x2561 JUMP JUMPDEST PUSH2 0xDBB JUMP JUMPDEST CALLVALUE DUP1 ISZERO PUSH2 0x2FA JUMPI PUSH1 0x0 DUP1 REVERT JUMPDEST POP PUSH2 0x257 PUSH2 0x309 CALLDATASIZE PUSH1 0x4 PUSH2 0x2493 JUMP JUMPDEST PUSH2 0xED6 JUMP JUMPDEST CALLVALUE DUP1 ISZERO PUSH2 0x31A JUMPI PUSH1 0x0 DUP1 REVERT JUMPDEST POP PUSH2 0x257 PUSH2 0xFC9 JUMP JUMPDEST CALLVALUE DUP1 ISZERO PUSH2 0x32F JUMPI PUSH1 0x0 DUP1 REVERT JUMPDEST POP PUSH2 0x257 PUSH2 0x33E CALLDATASIZE PUSH1 0x4 PUSH2 0x2493 JUMP JUMPDEST PUSH2 0x1089 JUMP JUMPDEST CALLVALUE DUP1 ISZERO PUSH2 0x34F JUMPI PUSH1 0x0 DUP1 REVERT JUMPDEST POP PUSH2 0x1F7 PUSH2 0x35E CALLDATASIZE PUSH1 0x4 PUSH2 0x2561 JUMP JUMPDEST PUSH2 0x11C0 JUMP JUMPDEST CALLVALUE DUP1 ISZERO PUSH2 0x36F JUMPI PUSH1 0x0 DUP1 REVERT JUMPDEST POP PUSH2 0x257 PUSH2 0x37E CALLDATASIZE PUSH1 0x4 PUSH2 0x2561 JUMP JUMPDEST PUSH2 0x11EA JUMP JUMPDEST CALLVALUE DUP1 ISZERO PUSH2 0x38F JUMPI PUSH1 0x0 DUP1 REVERT JUMPDEST POP PUSH2 0x257 PUSH2 0x39E CALLDATASIZE PUSH1 0x4 PUSH2 0x2561 JUMP JUMPDEST PUSH2 0x1260 JUMP JUMPDEST CALLVALUE DUP1 ISZERO PUSH2 0x3AF JUMPI PUSH1 0x0 DUP1 REVERT JUMPDEST POP PUSH2 0x257 PUSH2 0x3BE CALLDATASIZE PUSH1 0x4 PUSH2 0x2601 JUMP JUMPDEST PUSH2 0x1399 JUMP JUMPDEST CALLVALUE DUP1 ISZERO PUSH2 0x3CF JUMPI PUSH1 0x0 DUP1 REVERT JUMPDEST POP PUSH2 0x257 PUSH2 0x3DE CALLDATASIZE PUSH1 0x4 PUSH2 0x2659 JUMP JUMPDEST PUSH2 0x1539 JUMP JUMPDEST CALLVALUE DUP1 ISZERO PUSH2 0x3EF JUMPI PUSH1 0x0 DUP1 REVERT JUMPDEST POP PUSH2 0x3F8 PUSH2 0x1727 JUMP JUMPDEST PUSH1 0x40 MLOAD PUSH2 0x17D SWAP2 SWAP1 PUSH2 0x26D1 JUMP JUMPDEST CALLVALUE DUP1 ISZERO PUSH2 0x411 JUMPI PUSH1 0x0 DUP1 REVERT JUMPDEST POP PUSH2 0x257 PUSH2 0x420 CALLDATASIZE PUSH1 0x4 PUSH2 0x25A4 JUMP JUMPDEST PUSH2 0x1789 JUMP JUMPDEST CALLVALUE DUP1 ISZERO PUSH2 0x431 JUMPI PUSH1 0x0 DUP1 REVERT JUMPDEST POP PUSH2 0x445 PUSH2 0x440 CALLDATASIZE PUSH1 0x4 PUSH2 0x2579 JUMP JUMPDEST PUSH2 0x189B JUMP JUMPDEST PUSH1 0x40 MLOAD PUSH2 0x17D SWAP2 SWAP1 PUSH2 0x2758 JUMP JUMPDEST CALLVALUE DUP1 ISZERO PUSH2 0x45E JUMPI PUSH1 0x0 DUP1 REVERT JUMPDEST POP PUSH2 0x257 PUSH2 0x46D CALLDATASIZE PUSH1 0x4 PUSH2 0x2561 JUMP JUMPDEST PUSH2 0x1A64 JUMP JUMPDEST CALLVALUE DUP1 ISZERO PUSH2 0x47E JUMPI PUSH1 0x0 DUP1 REVERT JUMPDEST POP PUSH2 0x1F7 PUSH2 0x1A79 JUMP JUMPDEST PUSH1 0x5 SLOAD DUP2 JUMP JUMPDEST PUSH1 0x0 DUP3 DUP2 MSTORE PUSH1 0x7 PUSH1 0x20 SWAP1 DUP2 MSTORE PUSH1 0x40 DUP1 DUP4 KECCAK256 PUSH1 0x1 PUSH1 0x1 PUSH1 0xA0 SHL SUB DUP6 AND DUP5 MSTORE SWAP1 SWAP2 MSTORE SWAP1 KECCAK256 DUP1 SLOAD PUSH1 0x4 SLOAD SWAP1 SWAP2 PUSH1 0x60 SWAP2 DUP3 SWAP2 SWAP1 PUSH8 0xFFFFFFFFFFFFFFFF DUP2 GT DUP1 ISZERO PUSH2 0x4D2 JUMPI PUSH1 0x0 DUP1 REVERT JUMPDEST POP PUSH1 0x40 MLOAD SWAP1 DUP1 DUP3 MSTORE DUP1 PUSH1 0x20 MUL PUSH1 0x20 ADD DUP3 ADD PUSH1 0x40 MSTORE DUP1 ISZERO PUSH2 0x4FC JUMPI DUP2 PUSH1 0x20 ADD PUSH1 0x20 DUP3 MUL DUP1 CALLDATASIZE DUP4 CALLDATACOPY ADD SWAP1 POP JUMPDEST POP PUSH1 0x4 SLOAD SWAP1 SWAP4 POP PUSH8 0xFFFFFFFFFFFFFFFF DUP2 GT DUP1 ISZERO PUSH2 0x519 JUMPI PUSH1 0x0 DUP1 REVERT JUMPDEST POP PUSH1 0x40 MLOAD SWAP1 DUP1 DUP3 MSTORE DUP1 PUSH1 0x20 MUL PUSH1 0x20 ADD DUP3 ADD PUSH1 0x40 MSTORE DUP1 ISZERO PUSH2 0x543 JUMPI DUP2 PUSH1 0x20 ADD PUSH1 0x20 DUP3 MUL DUP1 CALLDATASIZE DUP4 CALLDATACOPY ADD SWAP1 POP JUMPDEST POP SWAP2 POP PUSH1 0x0 JUMPDEST PUSH1 0x4 SLOAD DUP2 LT ISZERO PUSH2 0x5B6 JUMPI PUSH1 0x0 DUP2 DUP2 MSTORE PUSH1 0x1 DUP4 ADD PUSH1 0x20 MSTORE PUSH1 0x40 SWAP1 KECCAK256 SLOAD DUP5 MLOAD DUP6 SWAP1 DUP4 SWAP1 DUP2 LT PUSH2 0x572 JUMPI INVALID JUMPDEST PUSH1 0x20 MUL PUSH1 0x20 ADD ADD DUP2 DUP2 MSTORE POP POP DUP2 PUSH1 0x1 ADD PUSH1 0x0 DUP3 DUP2 MSTORE PUSH1 0x20 ADD SWAP1 DUP2 MSTORE PUSH1 0x20 ADD PUSH1 0x0 KECCAK256 PUSH1 0x1 ADD SLOAD DUP4 DUP3 DUP2 MLOAD DUP2 LT PUSH2 0x5A3 JUMPI INVALID JUMPDEST PUSH1 0x20 SWAP1 DUP2 MUL SWAP2 SWAP1 SWAP2 ADD ADD MSTORE PUSH1 0x1 ADD PUSH2 0x549 JUMP JUMPDEST POP POP SWAP3 POP SWAP3 POP SWAP3 JUMP JUMPDEST PUSH1 0x3 PUSH1 0x20 MSTORE PUSH1 0x0 SWAP1 DUP2 MSTORE PUSH1 0x40 SWAP1 KECCAK256 SLOAD PUSH1 0xFF AND DUP2 JUMP JUMPDEST PUSH1 0x1 SLOAD PUSH1 0x1 PUSH1 0x1 PUSH1 0xA0 SHL SUB AND DUP2 JUMP JUMPDEST PUSH1 0x0 DUP2 DUP2 MSTORE PUSH1 0x6 PUSH1 0x20 MSTORE PUSH1 0x40 SWAP1 KECCAK256 DUP1 SLOAD PUSH1 0x1 DUP3 ADD SLOAD PUSH1 0x4 SLOAD SWAP2 SWAP3 PUSH1 0x1 PUSH1 0x1 PUSH1 0xA0 SHL SUB DUP3 AND SWAP3 PUSH4 0xFFFFFFFF PUSH1 0x1 PUSH1 0xA0 SHL DUP5 DIV DUP2 AND SWAP4 PUSH1 0x1 PUSH1 0xC0 SHL DUP2 DIV DUP3 AND SWAP4 PUSH1 0x1 PUSH1 0xE0 SHL SWAP1 SWAP2 DIV SWAP1 SWAP2 AND SWAP2 PUSH1 0x60 SWAP2 DUP3 SWAP2 PUSH8 0xFFFFFFFFFFFFFFFF DUP2 GT DUP1 ISZERO PUSH2 0x648 JUMPI PUSH1 0x0 DUP1 REVERT JUMPDEST POP PUSH1 0x40 MLOAD SWAP1 DUP1 DUP3 MSTORE DUP1 PUSH1 0x20 MUL PUSH1 0x20 ADD DUP3 ADD PUSH1 0x40 MSTORE DUP1 ISZERO PUSH2 0x672 JUMPI DUP2 PUSH1 0x20 ADD PUSH1 0x20 DUP3 MUL DUP1 CALLDATASIZE DUP4 CALLDATACOPY ADD SWAP1 POP JUMPDEST POP PUSH1 0x4 SLOAD SWAP1 SWAP4 POP PUSH8 0xFFFFFFFFFFFFFFFF DUP2 GT DUP1 ISZERO PUSH2 0x68F JUMPI PUSH1 0x0 DUP1 REVERT JUMPDEST POP PUSH1 0x40 MLOAD SWAP1 DUP1 DUP3 MSTORE DUP1 PUSH1 0x20 MUL PUSH1 0x20 ADD DUP3 ADD PUSH1 0x40 MSTORE DUP1 ISZERO PUSH2 0x6B9 JUMPI DUP2 PUSH1 0x20 ADD PUSH1 0x20 DUP3 MUL DUP1 CALLDATASIZE DUP4 CALLDATACOPY ADD SWAP1 POP JUMPDEST POP SWAP2 POP PUSH1 0x0 JUMPDEST PUSH1 0x4 SLOAD DUP2 LT ISZERO PUSH2 0x72C JUMPI PUSH1 0x0 DUP2 DUP2 MSTORE PUSH1 0x2 DUP4 ADD PUSH1 0x20 MSTORE PUSH1 0x40 SWAP1 KECCAK256 SLOAD DUP5 MLOAD DUP6 SWAP1 DUP4 SWAP1 DUP2 LT PUSH2 0x6E8 JUMPI INVALID JUMPDEST PUSH1 0x20 MUL PUSH1 0x20 ADD ADD DUP2 DUP2 MSTORE POP POP DUP2 PUSH1 0x2 ADD PUSH1 0x0 DUP3 DUP2 MSTORE PUSH1 0x20 ADD SWAP1 DUP2 MSTORE PUSH1 0x20 ADD PUSH1 0x0 KECCAK256 PUSH1 0x1 ADD SLOAD DUP4 DUP3 DUP2 MLOAD DUP2 LT PUSH2 0x719 JUMPI INVALID JUMPDEST PUSH1 0x20 SWAP1 DUP2 MUL SWAP2 SWAP1 SWAP2 ADD ADD MSTORE PUSH1 0x1 ADD PUSH2 0x6BF JUMP JUMPDEST POP POP SWAP2 SWAP4 SWAP6 SWAP8 SWAP1 SWAP3 SWAP5 SWAP7 POP JUMP JUMPDEST PUSH1 0x0 SLOAD PUSH1 0x1 PUSH1 0x1 PUSH1 0xA0 SHL SUB AND CALLER EQ PUSH2 0x785 JUMPI PUSH1 0x40 DUP1 MLOAD PUSH3 0x461BCD PUSH1 0xE5 SHL DUP2 MSTORE PUSH1 0x20 PUSH1 0x4 DUP3 ADD MSTORE PUSH1 0xA PUSH1 0x24 DUP3 ADD MSTORE PUSH10 0x37B7363C9030B236B4B7 PUSH1 0xB1 SHL PUSH1 0x44 DUP3 ADD MSTORE SWAP1 MLOAD SWAP1 DUP2 SWAP1 SUB PUSH1 0x64 ADD SWAP1 REVERT JUMPDEST PUSH1 0x1 PUSH1 0x1 PUSH1 0xA0 SHL SUB DUP6 AND PUSH1 0x0 SWAP1 DUP2 MSTORE PUSH1 0x3 PUSH1 0x20 MSTORE PUSH1 0x40 SWAP1 KECCAK256 SLOAD PUSH1 0xFF AND ISZERO PUSH2 0x7C7 JUMPI PUSH1 0x40 MLOAD PUSH3 0x461BCD PUSH1 0xE5 SHL DUP2 MSTORE PUSH1 0x4 ADD PUSH2 0x7BE SWAP1 PUSH2 0x295A JUMP JUMPDEST PUSH1 0x40 MLOAD DUP1 SWAP2 SUB SWAP1 REVERT JUMPDEST PUSH1 0x1 PUSH1 0x1 PUSH1 0xA0 SHL SUB DUP6 AND PUSH2 0x7ED JUMPI PUSH1 0x40 MLOAD PUSH3 0x461BCD PUSH1 0xE5 SHL DUP2 MSTORE PUSH1 0x4 ADD PUSH2 0x7BE SWAP1 PUSH2 0x279A JUMP JUMPDEST PUSH1 0x4 SLOAD DUP2 EQ PUSH2 0x80E JUMPI PUSH1 0x40 MLOAD PUSH3 0x461BCD PUSH1 0xE5 SHL DUP2 MSTORE PUSH1 0x4 ADD PUSH2 0x7BE SWAP1 PUSH2 0x2859 JUMP JUMPDEST NUMBER DUP5 PUSH4 0xFFFFFFFF AND GT DUP1 ISZERO PUSH2 0x82E JUMPI POP DUP4 PUSH4 0xFFFFFFFF AND DUP4 PUSH4 0xFFFFFFFF AND GT JUMPDEST PUSH2 0x84A JUMPI PUSH1 0x40 MLOAD PUSH3 0x461BCD PUSH1 0xE5 SHL DUP2 MSTORE PUSH1 0x4 ADD PUSH2 0x7BE SWAP1 PUSH2 0x2A01 JUMP JUMPDEST PUSH1 0x5 DUP1 SLOAD PUSH1 0x0 SWAP1 DUP2 MSTORE PUSH1 0x6 PUSH1 0x20 MSTORE PUSH1 0x40 DUP1 DUP3 KECCAK256 PUSH1 0x1 SWAP1 DUP2 ADD DUP1 SLOAD PUSH1 0x1 PUSH1 0x1 PUSH1 0xA0 SHL SUB NOT AND PUSH1 0x1 PUSH1 0x1 PUSH1 0xA0 SHL SUB DUP12 AND OR SWAP1 SSTORE DUP4 SLOAD DUP4 MSTORE DUP2 DUP4 KECCAK256 DUP2 ADD DUP1 SLOAD PUSH4 0xFFFFFFFF PUSH1 0xA0 SHL NOT AND PUSH1 0x1 PUSH1 0xA0 SHL PUSH4 0xFFFFFFFF DUP12 DUP2 AND SWAP2 DUP3 MUL SWAP3 SWAP1 SWAP3 OR SWAP1 SWAP3 SSTORE DUP6 SLOAD DUP6 MSTORE DUP4 DUP6 KECCAK256 DUP4 ADD DUP1 SLOAD PUSH4 0xFFFFFFFF PUSH1 0xC0 SHL NOT AND PUSH1 0x1 PUSH1 0xC0 SHL SWAP3 DUP12 AND SWAP3 SWAP1 SWAP3 MUL SWAP2 SWAP1 SWAP2 OR SWAP1 SSTORE SWAP4 SLOAD DUP4 MSTORE SWAP1 DUP3 KECCAK256 ADD DUP1 SLOAD PUSH1 0x1 PUSH1 0x1 PUSH1 0xE0 SHL SUB AND PUSH1 0x1 PUSH1 0xE0 SHL SWAP1 SWAP4 MUL SWAP3 SWAP1 SWAP3 OR SWAP1 SWAP2 SSTORE JUMPDEST DUP2 DUP2 LT ISZERO PUSH2 0x951 JUMPI PUSH1 0x40 MLOAD DUP1 PUSH1 0x40 ADD PUSH1 0x40 MSTORE DUP1 DUP5 DUP5 DUP5 DUP2 DUP2 LT PUSH2 0x910 JUMPI INVALID JUMPDEST PUSH1 0x20 SWAP1 DUP2 MUL SWAP3 SWAP1 SWAP3 ADD CALLDATALOAD DUP4 MSTORE POP PUSH1 0x0 SWAP2 DUP2 ADD DUP3 SWAP1 MSTORE PUSH1 0x5 SLOAD DUP3 MSTORE PUSH1 0x6 DUP2 MSTORE PUSH1 0x40 DUP1 DUP4 KECCAK256 DUP6 DUP5 MSTORE PUSH1 0x2 ADD DUP3 MSTORE SWAP1 SWAP2 KECCAK256 DUP3 MLOAD DUP2 SSTORE SWAP2 ADD MLOAD PUSH1 0x1 SWAP2 DUP3 ADD SSTORE ADD PUSH2 0x8F1 JUMP JUMPDEST POP PUSH1 0x5 DUP1 SLOAD PUSH1 0x1 SWAP1 DUP2 ADD SWAP1 SWAP2 SSTORE PUSH1 0x1 PUSH1 0x1 PUSH1 0xA0 SHL SUB DUP7 AND PUSH1 0x0 DUP2 DUP2 MSTORE PUSH1 0x3 PUSH1 0x20 MSTORE PUSH1 0x40 SWAP1 DUP2 SWAP1 KECCAK256 DUP1 SLOAD PUSH1 0xFF NOT AND SWAP1 SWAP4 OR SWAP1 SWAP3 SSTORE SWAP1 MLOAD PUSH4 0xFFFFFFFF DUP1 DUP7 AND SWAP3 SWAP1 DUP8 AND SWAP2 PUSH32 0xEB19E76B03B99EFF4D0329A19E44569C131F242C9590234F19B76F2C56A817A1 SWAP1 PUSH2 0x9C2 SWAP1 DUP8 SWAP1 DUP8 SWAP1 PUSH2 0x271E JUMP JUMPDEST PUSH1 0x40 MLOAD DUP1 SWAP2 SUB SWAP1 LOG4 POP POP POP POP POP JUMP JUMPDEST PUSH32 0x0 DUP2 JUMP JUMPDEST PUSH1 0x2 DUP1 SLOAD EQ ISZERO PUSH2 0xA3A JUMPI PUSH1 0x40 DUP1 MLOAD PUSH3 0x461BCD PUSH1 0xE5 SHL DUP2 MSTORE PUSH1 0x20 PUSH1 0x4 DUP3 ADD MSTORE PUSH1 0x1F PUSH1 0x24 DUP3 ADD MSTORE PUSH1 0x0 DUP1 MLOAD PUSH1 0x20 PUSH2 0x2AE1 DUP4 CODECOPY DUP2 MLOAD SWAP2 MSTORE PUSH1 0x44 DUP3 ADD MSTORE SWAP1 MLOAD SWAP1 DUP2 SWAP1 SUB PUSH1 0x64 ADD SWAP1 REVERT JUMPDEST PUSH1 0x2 DUP1 SSTORE PUSH2 0xA47 DUP4 PUSH2 0x1260 JUMP JUMPDEST PUSH2 0xA52 CALLER DUP5 DUP4 PUSH2 0x1BB4 JUMP JUMPDEST PUSH1 0x0 DUP4 DUP2 MSTORE PUSH1 0x6 PUSH1 0x20 SWAP1 DUP2 MSTORE PUSH1 0x40 DUP1 DUP4 KECCAK256 PUSH1 0x7 DUP4 MSTORE DUP2 DUP5 KECCAK256 CALLER DUP1 DUP7 MSTORE SWAP4 MSTORE SWAP3 KECCAK256 PUSH1 0x1 DUP4 ADD SLOAD SWAP1 SWAP2 PUSH2 0xA8E SWAP2 PUSH1 0x1 PUSH1 0x1 PUSH1 0xA0 SHL SUB AND SWAP1 ADDRESS DUP8 PUSH2 0x1DA3 JUMP JUMPDEST DUP1 SLOAD PUSH2 0xA9A SWAP1 DUP6 PUSH2 0x1E03 JUMP JUMPDEST DUP2 SSTORE DUP2 SLOAD PUSH2 0xAA8 SWAP1 DUP6 PUSH2 0x1E03 JUMP JUMPDEST DUP3 SSTORE PUSH1 0x40 MLOAD NUMBER SWAP1 DUP7 SWAP1 CALLER SWAP1 PUSH32 0x36AF321EC8D3C75236829C5317AFFD40DDB308863A1236D2D277A4025CCCEE1E SWAP1 PUSH2 0xAE0 SWAP1 DUP10 SWAP1 PUSH2 0x2A2E JUMP JUMPDEST PUSH1 0x40 MLOAD DUP1 SWAP2 SUB SWAP1 LOG4 POP POP PUSH1 0x1 PUSH1 0x2 SSTORE POP POP POP JUMP JUMPDEST PUSH1 0x2 DUP1 SLOAD EQ ISZERO PUSH2 0xB39 JUMPI PUSH1 0x40 DUP1 MLOAD PUSH3 0x461BCD PUSH1 0xE5 SHL DUP2 MSTORE PUSH1 0x20 PUSH1 0x4 DUP3 ADD MSTORE PUSH1 0x1F PUSH1 0x24 DUP3 ADD MSTORE PUSH1 0x0 DUP1 MLOAD PUSH1 0x20 PUSH2 0x2AE1 DUP4 CODECOPY DUP2 MLOAD SWAP2 MSTORE PUSH1 0x44 DUP3 ADD MSTORE SWAP1 MLOAD SWAP1 DUP2 SWAP1 SUB PUSH1 0x64 ADD SWAP1 REVERT JUMPDEST PUSH1 0x2 DUP1 SSTORE PUSH2 0xB47 DUP3 DUP3 PUSH2 0x1E66 JUMP JUMPDEST POP POP PUSH1 0x1 PUSH1 0x2 SSTORE JUMP JUMPDEST PUSH1 0x0 PUSH1 0x4 DUP1 SLOAD DUP1 PUSH1 0x20 MUL PUSH1 0x20 ADD PUSH1 0x40 MLOAD SWAP1 DUP2 ADD PUSH1 0x40 MSTORE DUP1 SWAP3 SWAP2 SWAP1 DUP2 DUP2 MSTORE PUSH1 0x20 ADD DUP3 DUP1 SLOAD DUP1 ISZERO PUSH2 0xBA8 JUMPI PUSH1 0x20 MUL DUP3 ADD SWAP2 SWAP1 PUSH1 0x0 MSTORE PUSH1 0x20 PUSH1 0x0 KECCAK256 SWAP1 JUMPDEST DUP2 SLOAD PUSH1 0x1 PUSH1 0x1 PUSH1 0xA0 SHL SUB AND DUP2 MSTORE PUSH1 0x1 SWAP1 SWAP2 ADD SWAP1 PUSH1 0x20 ADD DUP1 DUP4 GT PUSH2 0xB8A JUMPI JUMPDEST POP POP POP POP POP SWAP1 POP PUSH1 0x0 DUP2 MLOAD PUSH8 0xFFFFFFFFFFFFFFFF DUP2 GT DUP1 ISZERO PUSH2 0xBC9 JUMPI PUSH1 0x0 DUP1 REVERT JUMPDEST POP PUSH1 0x40 MLOAD SWAP1 DUP1 DUP3 MSTORE DUP1 PUSH1 0x20 MUL PUSH1 0x20 ADD DUP3 ADD PUSH1 0x40 MSTORE DUP1 ISZERO PUSH2 0xBF3 JUMPI DUP2 PUSH1 0x20 ADD PUSH1 0x20 DUP3 MUL DUP1 CALLDATASIZE DUP4 CALLDATACOPY ADD SWAP1 POP JUMPDEST POP SWAP1 POP CALLER PUSH1 0x0 DUP1 JUMPDEST DUP6 DUP2 LT ISZERO PUSH2 0xD50 JUMPI DUP7 DUP7 DUP3 DUP2 DUP2 LT PUSH2 0xC0F JUMPI INVALID JUMPDEST SWAP1 POP PUSH1 0x20 MUL ADD CALLDATALOAD SWAP2 POP PUSH2 0xC21 DUP3 PUSH2 0x1260 JUMP JUMPDEST PUSH2 0xC2D DUP4 DUP4 PUSH1 0x0 PUSH2 0x1BB4 JUMP JUMPDEST PUSH1 0x0 JUMPDEST DUP6 MLOAD DUP2 LT ISZERO PUSH2 0xD47 JUMPI PUSH1 0x0 DUP4 DUP2 MSTORE PUSH1 0x7 PUSH1 0x20 SWAP1 DUP2 MSTORE PUSH1 0x40 DUP1 DUP4 KECCAK256 PUSH1 0x1 PUSH1 0x1 PUSH1 0xA0 SHL SUB DUP9 AND DUP5 MSTORE DUP3 MSTORE DUP1 DUP4 KECCAK256 DUP5 DUP5 MSTORE PUSH1 0x1 ADD SWAP1 SWAP2 MSTORE SWAP1 KECCAK256 SLOAD DUP1 ISZERO PUSH2 0xD3E JUMPI PUSH2 0xC93 DUP2 DUP8 DUP5 DUP2 MLOAD DUP2 LT PUSH2 0xC7D JUMPI INVALID JUMPDEST PUSH1 0x20 MUL PUSH1 0x20 ADD ADD MLOAD PUSH2 0x1E03 SWAP1 SWAP2 SWAP1 PUSH4 0xFFFFFFFF AND JUMP JUMPDEST DUP7 DUP4 DUP2 MLOAD DUP2 LT PUSH2 0xC9F JUMPI INVALID JUMPDEST PUSH1 0x20 SWAP1 DUP2 MUL SWAP2 SWAP1 SWAP2 ADD DUP2 ADD SWAP2 SWAP1 SWAP2 MSTORE PUSH1 0x0 DUP6 DUP2 MSTORE PUSH1 0x7 DUP3 MSTORE PUSH1 0x40 DUP1 DUP3 KECCAK256 PUSH1 0x1 PUSH1 0x1 PUSH1 0xA0 SHL SUB DUP10 AND DUP4 MSTORE DUP4 MSTORE DUP1 DUP3 KECCAK256 DUP6 DUP4 MSTORE PUSH1 0x1 ADD SWAP1 SWAP3 MSTORE SWAP1 DUP2 KECCAK256 SSTORE DUP7 MLOAD DUP8 SWAP1 DUP4 SWAP1 DUP2 LT PUSH2 0xCE8 JUMPI INVALID JUMPDEST PUSH1 0x20 MUL PUSH1 0x20 ADD ADD MLOAD PUSH1 0x1 PUSH1 0x1 PUSH1 0xA0 SHL SUB AND DUP5 DUP7 PUSH1 0x1 PUSH1 0x1 PUSH1 0xA0 SHL SUB AND PUSH32 0xF75F3D433C6628E04E01A0BE1A2C6692A6011CE4B00389824CFA8B8A12F3C1C4 DUP5 NUMBER PUSH1 0x40 MLOAD PUSH2 0xD35 SWAP3 SWAP2 SWAP1 PUSH2 0x2AD2 JUMP JUMPDEST PUSH1 0x40 MLOAD DUP1 SWAP2 SUB SWAP1 LOG4 JUMPDEST POP PUSH1 0x1 ADD PUSH2 0xC30 JUMP JUMPDEST POP PUSH1 0x1 ADD PUSH2 0xBFB JUMP JUMPDEST POP PUSH1 0x0 JUMPDEST DUP4 MLOAD DUP2 LT ISZERO PUSH2 0xDB2 JUMPI PUSH1 0x0 DUP5 DUP3 DUP2 MLOAD DUP2 LT PUSH2 0xD6B JUMPI INVALID JUMPDEST PUSH1 0x20 MUL PUSH1 0x20 ADD ADD MLOAD GT ISZERO PUSH2 0xDAA JUMPI PUSH2 0xDAA DUP6 DUP3 DUP2 MLOAD DUP2 LT PUSH2 0xD88 JUMPI INVALID JUMPDEST PUSH1 0x20 MUL PUSH1 0x20 ADD ADD MLOAD DUP5 DUP7 DUP5 DUP2 MLOAD DUP2 LT PUSH2 0xD9D JUMPI INVALID JUMPDEST PUSH1 0x20 MUL PUSH1 0x20 ADD ADD MLOAD PUSH2 0x1F3B JUMP JUMPDEST PUSH1 0x1 ADD PUSH2 0xD54 JUMP JUMPDEST POP POP POP POP POP POP POP JUMP JUMPDEST PUSH1 0x2 DUP1 SLOAD EQ ISZERO PUSH2 0xE00 JUMPI PUSH1 0x40 DUP1 MLOAD PUSH3 0x461BCD PUSH1 0xE5 SHL DUP2 MSTORE PUSH1 0x20 PUSH1 0x4 DUP3 ADD MSTORE PUSH1 0x1F PUSH1 0x24 DUP3 ADD MSTORE PUSH1 0x0 DUP1 MLOAD PUSH1 0x20 PUSH2 0x2AE1 DUP4 CODECOPY DUP2 MLOAD SWAP2 MSTORE PUSH1 0x44 DUP3 ADD MSTORE SWAP1 MLOAD SWAP1 DUP2 SWAP1 SUB PUSH1 0x64 ADD SWAP1 REVERT JUMPDEST PUSH1 0x2 DUP1 SSTORE PUSH1 0x0 DUP2 DUP2 MSTORE PUSH1 0x6 PUSH1 0x20 SWAP1 DUP2 MSTORE PUSH1 0x40 DUP1 DUP4 KECCAK256 PUSH1 0x7 DUP4 MSTORE DUP2 DUP5 KECCAK256 CALLER DUP6 MSTORE SWAP1 SWAP3 MSTORE DUP3 KECCAK256 DUP1 SLOAD DUP4 DUP3 SSTORE SWAP2 SWAP3 SWAP1 SWAP2 SWAP1 JUMPDEST PUSH1 0x4 SLOAD DUP2 LT ISZERO PUSH2 0xE5A JUMPI PUSH1 0x0 DUP2 DUP2 MSTORE PUSH1 0x1 DUP1 DUP6 ADD PUSH1 0x20 MSTORE PUSH1 0x40 DUP3 KECCAK256 DUP1 DUP3 ADD DUP4 SWAP1 SSTORE SWAP2 SWAP1 SWAP2 SSTORE ADD PUSH2 0xE2F JUMP JUMPDEST POP DUP3 SLOAD PUSH2 0xE67 SWAP1 DUP3 PUSH2 0x1FE0 JUMP JUMPDEST DUP4 SSTORE DUP1 ISZERO PUSH2 0xE88 JUMPI PUSH1 0x1 DUP4 ADD SLOAD PUSH2 0xE88 SWAP1 PUSH1 0x1 PUSH1 0x1 PUSH1 0xA0 SHL SUB AND CALLER DUP4 PUSH2 0x203D JUMP JUMPDEST NUMBER DUP5 CALLER PUSH1 0x1 PUSH1 0x1 PUSH1 0xA0 SHL SUB AND PUSH32 0x2369DB1BAFEE945AEE5630782F4A170682E3F8188D8DC247A4C73EB8C9E692D2 DUP5 PUSH1 0x40 MLOAD PUSH2 0xEC3 SWAP2 SWAP1 PUSH2 0x2A2E JUMP JUMPDEST PUSH1 0x40 MLOAD DUP1 SWAP2 SUB SWAP1 LOG4 POP POP PUSH1 0x1 PUSH1 0x2 SSTORE POP POP JUMP JUMPDEST PUSH1 0x0 SLOAD PUSH1 0x1 PUSH1 0x1 PUSH1 0xA0 SHL SUB AND CALLER EQ PUSH2 0xF22 JUMPI PUSH1 0x40 DUP1 MLOAD PUSH3 0x461BCD PUSH1 0xE5 SHL DUP2 MSTORE PUSH1 0x20 PUSH1 0x4 DUP3 ADD MSTORE PUSH1 0xA PUSH1 0x24 DUP3 ADD MSTORE PUSH10 0x37B7363C9030B236B4B7 PUSH1 0xB1 SHL PUSH1 0x44 DUP3 ADD MSTORE SWAP1 MLOAD SWAP1 DUP2 SWAP1 SUB PUSH1 0x64 ADD SWAP1 REVERT JUMPDEST PUSH1 0x1 PUSH1 0x1 PUSH1 0xA0 SHL SUB DUP2 AND PUSH2 0xF6B JUMPI PUSH1 0x40 DUP1 MLOAD PUSH3 0x461BCD PUSH1 0xE5 SHL DUP2 MSTORE PUSH1 0x20 PUSH1 0x4 DUP3 ADD MSTORE PUSH1 0xB PUSH1 0x24 DUP3 ADD MSTORE PUSH11 0x6E65772061646D696E203 PUSH1 0xAC SHL PUSH1 0x44 DUP3 ADD MSTORE SWAP1 MLOAD SWAP1 DUP2 SWAP1 SUB PUSH1 0x64 ADD SWAP1 REVERT JUMPDEST PUSH1 0x40 DUP1 MLOAD PUSH1 0x1 PUSH1 0x1 PUSH1 0xA0 SHL SUB DUP4 AND DUP2 MSTORE SWAP1 MLOAD PUSH32 0x3B81CAF78FA51ECBC8ACB482FD7012A277B428D9B80F9D156E8A54107496CC40 SWAP2 DUP2 SWAP1 SUB PUSH1 0x20 ADD SWAP1 LOG1 PUSH1 0x1 DUP1 SLOAD PUSH1 0x1 PUSH1 0x1 PUSH1 0xA0 SHL SUB NOT AND PUSH1 0x1 PUSH1 0x1 PUSH1 0xA0 SHL SUB SWAP3 SWAP1 SWAP3 AND SWAP2 SWAP1 SWAP2 OR SWAP1 SSTORE JUMP JUMPDEST PUSH1 0x1 SLOAD PUSH1 0x1 PUSH1 0x1 PUSH1 0xA0 SHL SUB AND CALLER EQ PUSH2 0x1016 JUMPI PUSH1 0x40 DUP1 MLOAD PUSH3 0x461BCD PUSH1 0xE5 SHL DUP2 MSTORE PUSH1 0x20 PUSH1 0x4 DUP3 ADD MSTORE PUSH1 0xB PUSH1 0x24 DUP3 ADD MSTORE PUSH11 0x6E6F742070656E64696E67 PUSH1 0xA8 SHL PUSH1 0x44 DUP3 ADD MSTORE SWAP1 MLOAD SWAP1 DUP2 SWAP1 SUB PUSH1 0x64 ADD SWAP1 REVERT JUMPDEST PUSH1 0x1 SLOAD PUSH1 0x0 SLOAD PUSH1 0x40 DUP1 MLOAD PUSH1 0x1 PUSH1 0x1 PUSH1 0xA0 SHL SUB SWAP4 DUP5 AND DUP2 MSTORE SWAP3 SWAP1 SWAP2 AND PUSH1 0x20 DUP4 ADD MSTORE DUP1 MLOAD PUSH32 0x65DA1CFC2C2E81576AD96AFB24A581F8E109B7A403B35CBD3243A1C99EFDB9ED SWAP3 DUP2 SWAP1 SUB SWAP1 SWAP2 ADD SWAP1 LOG1 PUSH1 0x1 DUP1 SLOAD PUSH1 0x0 DUP1 SLOAD PUSH1 0x1 PUSH1 0x1 PUSH1 0xA0 SHL SUB NOT SWAP1 DUP2 AND PUSH1 0x1 PUSH1 0x1 PUSH1 0xA0 SHL SUB DUP5 AND OR SWAP1 SWAP2 SSTORE AND SWAP1 SSTORE JUMP JUMPDEST PUSH1 0x0 SLOAD PUSH1 0x1 PUSH1 0x1 PUSH1 0xA0 SHL SUB AND CALLER EQ PUSH2 0x10D5 JUMPI PUSH1 0x40 DUP1 MLOAD PUSH3 0x461BCD PUSH1 0xE5 SHL DUP2 MSTORE PUSH1 0x20 PUSH1 0x4 DUP3 ADD MSTORE PUSH1 0xA PUSH1 0x24 DUP3 ADD MSTORE PUSH10 0x37B7363C9030B236B4B7 PUSH1 0xB1 SHL PUSH1 0x44 DUP3 ADD MSTORE SWAP1 MLOAD SWAP1 DUP2 SWAP1 SUB PUSH1 0x64 ADD SWAP1 REVERT JUMPDEST PUSH1 0x1 PUSH1 0x1 PUSH1 0xA0 SHL SUB DUP2 AND PUSH2 0x111A JUMPI PUSH1 0x40 DUP1 MLOAD PUSH3 0x461BCD PUSH1 0xE5 SHL DUP2 MSTORE PUSH1 0x20 PUSH1 0x4 DUP3 ADD MSTORE PUSH1 0x7 PUSH1 0x24 DUP3 ADD MSTORE PUSH7 0x61646D696E203 PUSH1 0xCC SHL PUSH1 0x44 DUP3 ADD MSTORE SWAP1 MLOAD SWAP1 DUP2 SWAP1 SUB PUSH1 0x64 ADD SWAP1 REVERT JUMPDEST PUSH1 0x40 DUP1 MLOAD PUSH1 0x1 PUSH1 0x1 PUSH1 0xA0 SHL SUB DUP4 AND DUP2 MSTORE SWAP1 MLOAD PUSH32 0x3B81CAF78FA51ECBC8ACB482FD7012A277B428D9B80F9D156E8A54107496CC40 SWAP2 DUP2 SWAP1 SUB PUSH1 0x20 ADD SWAP1 LOG1 PUSH1 0x0 SLOAD PUSH1 0x40 DUP1 MLOAD PUSH1 0x1 PUSH1 0x1 PUSH1 0xA0 SHL SUB DUP1 DUP6 AND DUP3 MSTORE SWAP1 SWAP3 AND PUSH1 0x20 DUP4 ADD MSTORE DUP1 MLOAD PUSH32 0x65DA1CFC2C2E81576AD96AFB24A581F8E109B7A403B35CBD3243A1C99EFDB9ED SWAP3 DUP2 SWAP1 SUB SWAP1 SWAP2 ADD SWAP1 LOG1 PUSH1 0x0 DUP1 SLOAD PUSH1 0x1 PUSH1 0x1 PUSH1 0xA0 SHL SUB NOT AND PUSH1 0x1 PUSH1 0x1 PUSH1 0xA0 SHL SUB SWAP3 SWAP1 SWAP3 AND SWAP2 SWAP1 SWAP2 OR SWAP1 SSTORE JUMP JUMPDEST PUSH1 0x4 DUP2 DUP2 SLOAD DUP2 LT PUSH2 0x11D0 JUMPI PUSH1 0x0 DUP1 REVERT JUMPDEST PUSH1 0x0 SWAP2 DUP3 MSTORE PUSH1 0x20 SWAP1 SWAP2 KECCAK256 ADD SLOAD PUSH1 0x1 PUSH1 0x1 PUSH1 0xA0 SHL SUB AND SWAP1 POP DUP2 JUMP JUMPDEST PUSH1 0x2 DUP1 SLOAD EQ ISZERO PUSH2 0x122F JUMPI PUSH1 0x40 DUP1 MLOAD PUSH3 0x461BCD PUSH1 0xE5 SHL DUP2 MSTORE PUSH1 0x20 PUSH1 0x4 DUP3 ADD MSTORE PUSH1 0x1F PUSH1 0x24 DUP3 ADD MSTORE PUSH1 0x0 DUP1 MLOAD PUSH1 0x20 PUSH2 0x2AE1 DUP4 CODECOPY DUP2 MLOAD SWAP2 MSTORE PUSH1 0x44 DUP3 ADD MSTORE SWAP1 MLOAD SWAP1 DUP2 SWAP1 SUB PUSH1 0x64 ADD SWAP1 REVERT JUMPDEST PUSH1 0x2 DUP1 SSTORE PUSH1 0x0 DUP2 DUP2 MSTORE PUSH1 0x7 PUSH1 0x20 SWAP1 DUP2 MSTORE PUSH1 0x40 DUP1 DUP4 KECCAK256 CALLER DUP5 MSTORE SWAP1 SWAP2 MSTORE SWAP1 KECCAK256 SLOAD PUSH2 0x1258 SWAP1 DUP3 SWAP1 PUSH2 0x1E66 JUMP JUMPDEST POP PUSH1 0x1 PUSH1 0x2 SSTORE JUMP JUMPDEST PUSH1 0x5 SLOAD DUP2 LT PUSH2 0x1281 JUMPI PUSH1 0x40 MLOAD PUSH3 0x461BCD PUSH1 0xE5 SHL DUP2 MSTORE PUSH1 0x4 ADD PUSH2 0x7BE SWAP1 PUSH2 0x2830 JUMP JUMPDEST PUSH1 0x0 DUP2 DUP2 MSTORE PUSH1 0x6 PUSH1 0x20 MSTORE PUSH1 0x40 DUP2 KECCAK256 SWAP1 PUSH2 0x1299 DUP4 PUSH2 0x208F JUMP JUMPDEST PUSH1 0x1 DUP4 ADD SLOAD SWAP1 SWAP2 POP PUSH4 0xFFFFFFFF PUSH1 0x1 PUSH1 0xE0 SHL SWAP1 SWAP2 DIV DUP2 AND SWAP1 DUP3 AND GT PUSH2 0x12BF JUMPI POP POP PUSH2 0x1396 JUMP JUMPDEST DUP2 SLOAD DUP1 PUSH2 0x12F2 JUMPI POP PUSH1 0x1 SWAP1 SWAP2 ADD DUP1 SLOAD PUSH4 0xFFFFFFFF SWAP1 SWAP3 AND PUSH1 0x1 PUSH1 0xE0 SHL MUL PUSH1 0x1 PUSH1 0x1 PUSH1 0xE0 SHL SUB SWAP1 SWAP3 AND SWAP2 SWAP1 SWAP2 OR SWAP1 SSTORE PUSH2 0x1396 JUMP JUMPDEST PUSH1 0x1 DUP4 ADD SLOAD PUSH4 0xFFFFFFFF PUSH1 0x1 PUSH1 0xE0 SHL SWAP1 SWAP2 DIV DUP2 AND DUP4 SUB AND PUSH1 0x0 JUMPDEST PUSH1 0x4 SLOAD DUP2 LT ISZERO PUSH2 0x136C JUMPI PUSH1 0x0 DUP2 DUP2 MSTORE PUSH1 0x2 DUP7 ADD PUSH1 0x20 MSTORE PUSH1 0x40 DUP2 KECCAK256 DUP1 SLOAD SWAP1 SWAP2 SWAP1 PUSH2 0x1336 SWAP1 DUP6 SWAP1 PUSH2 0x20C7 JUMP JUMPDEST SWAP1 POP PUSH2 0x135F DUP6 PUSH2 0x134B DUP4 PUSH5 0xE8D4A51000 PUSH2 0x20C7 JUMP JUMPDEST DUP2 PUSH2 0x1352 JUMPI INVALID JUMPDEST PUSH1 0x1 DUP6 ADD SLOAD SWAP2 SWAP1 DIV PUSH2 0x1E03 JUMP JUMPDEST PUSH1 0x1 SWAP3 DUP4 ADD SSTORE POP ADD PUSH2 0x130C JUMP JUMPDEST POP POP POP PUSH1 0x1 SWAP1 SWAP2 ADD DUP1 SLOAD PUSH4 0xFFFFFFFF SWAP1 SWAP3 AND PUSH1 0x1 PUSH1 0xE0 SHL MUL PUSH1 0x1 PUSH1 0x1 PUSH1 0xE0 SHL SUB SWAP1 SWAP3 AND SWAP2 SWAP1 SWAP2 OR SWAP1 SSTORE JUMPDEST POP JUMP JUMPDEST PUSH1 0x0 SLOAD PUSH1 0x1 PUSH1 0x1 PUSH1 0xA0 SHL SUB AND CALLER EQ PUSH2 0x13E5 JUMPI PUSH1 0x40 DUP1 MLOAD PUSH3 0x461BCD PUSH1 0xE5 SHL DUP2 MSTORE PUSH1 0x20 PUSH1 0x4 DUP3 ADD MSTORE PUSH1 0xA PUSH1 0x24 DUP3 ADD MSTORE PUSH10 0x37B7363C9030B236B4B7 PUSH1 0xB1 SHL PUSH1 0x44 DUP3 ADD MSTORE SWAP1 MLOAD SWAP1 DUP2 SWAP1 SUB PUSH1 0x64 ADD SWAP1 REVERT JUMPDEST PUSH2 0x13EE DUP5 PUSH2 0x1260 JUMP JUMPDEST PUSH1 0x0 DUP5 DUP2 MSTORE PUSH1 0x6 PUSH1 0x20 MSTORE PUSH1 0x40 SWAP1 KECCAK256 PUSH1 0x1 DUP2 ADD SLOAD NUMBER PUSH1 0x1 PUSH1 0xC0 SHL SWAP1 SWAP2 DIV PUSH4 0xFFFFFFFF AND GT PUSH2 0x142D JUMPI PUSH1 0x40 MLOAD PUSH3 0x461BCD PUSH1 0xE5 SHL DUP2 MSTORE PUSH1 0x4 ADD PUSH2 0x7BE SWAP1 PUSH2 0x29CA JUMP JUMPDEST PUSH1 0x4 SLOAD DUP3 EQ PUSH2 0x144E JUMPI PUSH1 0x40 MLOAD PUSH3 0x461BCD PUSH1 0xE5 SHL DUP2 MSTORE PUSH1 0x4 ADD PUSH2 0x7BE SWAP1 PUSH2 0x2800 JUMP JUMPDEST NUMBER DUP5 PUSH4 0xFFFFFFFF AND GT DUP1 ISZERO PUSH2 0x1477 JUMPI POP PUSH1 0x1 DUP2 ADD SLOAD PUSH4 0xFFFFFFFF PUSH1 0x1 PUSH1 0xA0 SHL SWAP1 SWAP2 DIV DUP2 AND SWAP1 DUP6 AND GT JUMPDEST PUSH2 0x1493 JUMPI PUSH1 0x40 MLOAD PUSH3 0x461BCD PUSH1 0xE5 SHL DUP2 MSTORE PUSH1 0x4 ADD PUSH2 0x7BE SWAP1 PUSH2 0x28EC JUMP JUMPDEST PUSH1 0x1 DUP2 ADD DUP1 SLOAD PUSH4 0xFFFFFFFF PUSH1 0xC0 SHL NOT AND PUSH1 0x1 PUSH1 0xC0 SHL PUSH4 0xFFFFFFFF DUP8 AND MUL OR SWAP1 SSTORE PUSH1 0x0 JUMPDEST DUP3 DUP2 LT ISZERO PUSH2 0x14F0 JUMPI DUP4 DUP4 DUP3 DUP2 DUP2 LT PUSH2 0x14CA JUMPI INVALID JUMPDEST PUSH1 0x0 DUP5 DUP2 MSTORE PUSH1 0x2 DUP7 ADD PUSH1 0x20 SWAP1 DUP2 MSTORE PUSH1 0x40 SWAP1 SWAP2 KECCAK256 SWAP2 MUL SWAP3 SWAP1 SWAP3 ADD CALLDATALOAD SWAP1 SWAP2 SSTORE POP PUSH1 0x1 ADD PUSH2 0x14B6 JUMP JUMPDEST POP DUP4 PUSH4 0xFFFFFFFF AND DUP6 PUSH32 0xBA2D8506275D684E80223910F1065A195EA279F37E27EB97AC24F4107EBA6CF9 DUP6 DUP6 PUSH1 0x40 MLOAD PUSH2 0x152A SWAP3 SWAP2 SWAP1 PUSH2 0x271E JUMP JUMPDEST PUSH1 0x40 MLOAD DUP1 SWAP2 SUB SWAP1 LOG3 POP POP POP POP POP JUMP JUMPDEST PUSH1 0x0 SLOAD PUSH1 0x1 PUSH1 0x1 PUSH1 0xA0 SHL SUB AND CALLER EQ PUSH2 0x1585 JUMPI PUSH1 0x40 DUP1 MLOAD PUSH3 0x461BCD PUSH1 0xE5 SHL DUP2 MSTORE PUSH1 0x20 PUSH1 0x4 DUP3 ADD MSTORE PUSH1 0xA PUSH1 0x24 DUP3 ADD MSTORE PUSH10 0x37B7363C9030B236B4B7 PUSH1 0xB1 SHL PUSH1 0x44 DUP3 ADD MSTORE SWAP1 MLOAD SWAP1 DUP2 SWAP1 SUB PUSH1 0x64 ADD SWAP1 REVERT JUMPDEST PUSH2 0x158E DUP6 PUSH2 0x1260 JUMP JUMPDEST PUSH1 0x0 DUP6 DUP2 MSTORE PUSH1 0x6 PUSH1 0x20 MSTORE PUSH1 0x40 SWAP1 KECCAK256 PUSH1 0x1 DUP2 ADD SLOAD NUMBER PUSH1 0x1 PUSH1 0xA0 SHL SWAP1 SWAP2 DIV PUSH4 0xFFFFFFFF AND GT DUP1 PUSH2 0x15CD JUMPI POP PUSH1 0x1 DUP2 ADD SLOAD NUMBER PUSH1 0x1 PUSH1 0xC0 SHL SWAP1 SWAP2 DIV PUSH4 0xFFFFFFFF AND LT JUMPDEST PUSH2 0x15E9 JUMPI PUSH1 0x40 MLOAD PUSH3 0x461BCD PUSH1 0xE5 SHL DUP2 MSTORE PUSH1 0x4 ADD PUSH2 0x7BE SWAP1 PUSH2 0x2988 JUMP JUMPDEST PUSH1 0x4 SLOAD DUP3 EQ PUSH2 0x160A JUMPI PUSH1 0x40 MLOAD PUSH3 0x461BCD PUSH1 0xE5 SHL DUP2 MSTORE PUSH1 0x4 ADD PUSH2 0x7BE SWAP1 PUSH2 0x2886 JUMP JUMPDEST NUMBER DUP6 PUSH4 0xFFFFFFFF AND GT DUP1 ISZERO PUSH2 0x162A JUMPI POP DUP5 PUSH4 0xFFFFFFFF AND DUP5 PUSH4 0xFFFFFFFF AND GT JUMPDEST PUSH2 0x1646 JUMPI PUSH1 0x40 MLOAD PUSH3 0x461BCD PUSH1 0xE5 SHL DUP2 MSTORE PUSH1 0x4 ADD PUSH2 0x7BE SWAP1 PUSH2 0x27D1 JUMP JUMPDEST PUSH1 0x1 DUP2 ADD DUP1 SLOAD PUSH4 0xFFFFFFFF PUSH1 0xA0 SHL NOT AND PUSH1 0x1 PUSH1 0xA0 SHL PUSH4 0xFFFFFFFF DUP9 DUP2 AND SWAP2 DUP3 MUL SWAP3 SWAP1 SWAP3 OR PUSH4 0xFFFFFFFF PUSH1 0xC0 SHL NOT AND PUSH1 0x1 PUSH1 0xC0 SHL SWAP3 DUP9 AND SWAP3 SWAP1 SWAP3 MUL SWAP2 SWAP1 SWAP2 OR PUSH1 0x1 PUSH1 0x1 PUSH1 0xE0 SHL SUB AND PUSH1 0x1 PUSH1 0xE0 SHL SWAP2 SWAP1 SWAP2 MUL OR SWAP1 SSTORE PUSH1 0x0 JUMPDEST DUP3 DUP2 LT ISZERO PUSH2 0x16D6 JUMPI DUP4 DUP4 DUP3 DUP2 DUP2 LT PUSH2 0x16B0 JUMPI INVALID JUMPDEST PUSH1 0x0 DUP5 DUP2 MSTORE PUSH1 0x2 DUP7 ADD PUSH1 0x20 SWAP1 DUP2 MSTORE PUSH1 0x40 SWAP1 SWAP2 KECCAK256 SWAP2 MUL SWAP3 SWAP1 SWAP3 ADD CALLDATALOAD SWAP1 SWAP2 SSTORE POP PUSH1 0x1 ADD PUSH2 0x169C JUMP JUMPDEST POP DUP4 PUSH4 0xFFFFFFFF AND DUP6 PUSH4 0xFFFFFFFF AND DUP8 PUSH32 0x4F863DC93468ACF71FF8F5770599FBEAD4D0FF8EA6BD0C3251576F68FDAD0904 DUP7 DUP7 PUSH1 0x40 MLOAD PUSH2 0x1717 SWAP3 SWAP2 SWAP1 PUSH2 0x271E JUMP JUMPDEST PUSH1 0x40 MLOAD DUP1 SWAP2 SUB SWAP1 LOG4 POP POP POP POP POP POP JUMP JUMPDEST PUSH1 0x60 PUSH1 0x4 DUP1 SLOAD DUP1 PUSH1 0x20 MUL PUSH1 0x20 ADD PUSH1 0x40 MLOAD SWAP1 DUP2 ADD PUSH1 0x40 MSTORE DUP1 SWAP3 SWAP2 SWAP1 DUP2 DUP2 MSTORE PUSH1 0x20 ADD DUP3 DUP1 SLOAD DUP1 ISZERO PUSH2 0x177F JUMPI PUSH1 0x20 MUL DUP3 ADD SWAP2 SWAP1 PUSH1 0x0 MSTORE PUSH1 0x20 PUSH1 0x0 KECCAK256 SWAP1 JUMPDEST DUP2 SLOAD PUSH1 0x1 PUSH1 0x1 PUSH1 0xA0 SHL SUB AND DUP2 MSTORE PUSH1 0x1 SWAP1 SWAP2 ADD SWAP1 PUSH1 0x20 ADD DUP1 DUP4 GT PUSH2 0x1761 JUMPI JUMPDEST POP POP POP POP POP SWAP1 POP SWAP1 JUMP JUMPDEST PUSH1 0x0 SLOAD PUSH1 0x1 PUSH1 0x1 PUSH1 0xA0 SHL SUB AND CALLER EQ PUSH2 0x17D5 JUMPI PUSH1 0x40 DUP1 MLOAD PUSH3 0x461BCD PUSH1 0xE5 SHL DUP2 MSTORE PUSH1 0x20 PUSH1 0x4 DUP3 ADD MSTORE PUSH1 0xA PUSH1 0x24 DUP3 ADD MSTORE PUSH10 0x37B7363C9030B236B4B7 PUSH1 0xB1 SHL PUSH1 0x44 DUP3 ADD MSTORE SWAP1 MLOAD SWAP1 DUP2 SWAP1 SUB PUSH1 0x64 ADD SWAP1 REVERT JUMPDEST PUSH1 0x0 PUSH1 0x4 DUP4 DUP2 SLOAD DUP2 LT PUSH2 0x17E4 JUMPI INVALID JUMPDEST PUSH1 0x0 SWAP2 DUP3 MSTORE PUSH1 0x20 SWAP1 SWAP2 KECCAK256 ADD SLOAD PUSH1 0x1 PUSH1 0x1 PUSH1 0xA0 SHL SUB AND SWAP1 POP DUP1 PUSH2 0x1882 JUMPI PUSH1 0x0 CALLER PUSH1 0x1 PUSH1 0x1 PUSH1 0xA0 SHL SUB AND DUP4 PUSH1 0x40 MLOAD PUSH2 0x1819 SWAP1 PUSH2 0x26BA JUMP JUMPDEST PUSH1 0x0 PUSH1 0x40 MLOAD DUP1 DUP4 SUB DUP2 DUP6 DUP8 GAS CALL SWAP3 POP POP POP RETURNDATASIZE DUP1 PUSH1 0x0 DUP2 EQ PUSH2 0x1856 JUMPI PUSH1 0x40 MLOAD SWAP2 POP PUSH1 0x1F NOT PUSH1 0x3F RETURNDATASIZE ADD AND DUP3 ADD PUSH1 0x40 MSTORE RETURNDATASIZE DUP3 MSTORE RETURNDATASIZE PUSH1 0x0 PUSH1 0x20 DUP5 ADD RETURNDATACOPY PUSH2 0x185B JUMP JUMPDEST PUSH1 0x60 SWAP2 POP JUMPDEST POP POP SWAP1 POP DUP1 PUSH2 0x187C JUMPI PUSH1 0x40 MLOAD PUSH3 0x461BCD PUSH1 0xE5 SHL DUP2 MSTORE PUSH1 0x4 ADD PUSH2 0x7BE SWAP1 PUSH2 0x2923 JUMP JUMPDEST POP PUSH2 0x1896 JUMP JUMPDEST PUSH2 0x1896 PUSH1 0x1 PUSH1 0x1 PUSH1 0xA0 SHL SUB DUP3 AND CALLER DUP5 PUSH2 0x203D JUMP JUMPDEST POP POP POP JUMP JUMPDEST PUSH1 0x4 SLOAD PUSH1 0x60 SWAP1 DUP1 PUSH8 0xFFFFFFFFFFFFFFFF DUP2 GT DUP1 ISZERO PUSH2 0x18B8 JUMPI PUSH1 0x0 DUP1 REVERT JUMPDEST POP PUSH1 0x40 MLOAD SWAP1 DUP1 DUP3 MSTORE DUP1 PUSH1 0x20 MUL PUSH1 0x20 ADD DUP3 ADD PUSH1 0x40 MSTORE DUP1 ISZERO PUSH2 0x18E2 JUMPI DUP2 PUSH1 0x20 ADD PUSH1 0x20 DUP3 MUL DUP1 CALLDATASIZE DUP4 CALLDATACOPY ADD SWAP1 POP JUMPDEST POP PUSH1 0x0 DUP6 DUP2 MSTORE PUSH1 0x6 PUSH1 0x20 SWAP1 DUP2 MSTORE PUSH1 0x40 DUP1 DUP4 KECCAK256 PUSH1 0x7 DUP4 MSTORE DUP2 DUP5 KECCAK256 PUSH1 0x1 PUSH1 0x1 PUSH1 0xA0 SHL SUB DUP10 AND DUP6 MSTORE SWAP1 SWAP3 MSTORE DUP3 KECCAK256 DUP2 SLOAD PUSH1 0x1 DUP4 ADD SLOAD SWAP5 SWAP7 POP SWAP2 SWAP4 SWAP1 SWAP3 PUSH1 0x1 PUSH1 0xE0 SHL SWAP1 SWAP2 DIV PUSH4 0xFFFFFFFF AND SWAP1 PUSH2 0x1932 DUP10 PUSH2 0x208F JUMP JUMPDEST SWAP1 POP PUSH1 0x0 JUMPDEST DUP7 DUP2 LT ISZERO PUSH2 0x1A57 JUMPI PUSH1 0x0 DUP2 DUP2 MSTORE PUSH1 0x2 DUP8 ADD PUSH1 0x20 MSTORE PUSH1 0x40 SWAP1 KECCAK256 PUSH1 0x1 ADD SLOAD PUSH4 0xFFFFFFFF DUP4 AND DUP5 LT DUP1 ISZERO PUSH2 0x1967 JUMPI POP DUP5 ISZERO ISZERO JUMPDEST ISZERO PUSH2 0x19BD JUMPI PUSH1 0x0 DUP3 DUP2 MSTORE PUSH1 0x2 DUP9 ADD PUSH1 0x20 MSTORE PUSH1 0x40 DUP2 KECCAK256 SLOAD PUSH2 0x1994 SWAP1 PUSH4 0xFFFFFFFF DUP1 DUP8 AND DUP9 SWAP1 SUB SWAP2 SWAP1 PUSH2 0x20C7 AND JUMP JUMPDEST SWAP1 POP PUSH2 0x19B9 DUP7 PUSH2 0x19A9 DUP4 PUSH5 0xE8D4A51000 PUSH2 0x20C7 JUMP JUMPDEST DUP2 PUSH2 0x19B0 JUMPI INVALID JUMPDEST DUP5 SWAP2 SWAP1 DIV PUSH2 0x1E03 JUMP JUMPDEST SWAP2 POP POP JUMPDEST PUSH1 0x0 DUP3 DUP2 MSTORE PUSH1 0x1 DUP1 DUP9 ADD PUSH1 0x20 MSTORE PUSH1 0x40 SWAP1 SWAP2 KECCAK256 ADD SLOAD PUSH5 0xE8D4A51000 SWAP1 PUSH2 0x19EF SWAP1 PUSH2 0x19E7 SWAP1 DUP5 SWAP1 PUSH2 0x1FE0 JUMP JUMPDEST DUP9 SLOAD SWAP1 PUSH2 0x20C7 JUMP JUMPDEST DUP2 PUSH2 0x19F6 JUMPI INVALID JUMPDEST DIV DUP10 DUP4 DUP2 MLOAD DUP2 LT PUSH2 0x1A03 JUMPI INVALID JUMPDEST PUSH1 0x20 MUL PUSH1 0x20 ADD ADD DUP2 DUP2 MSTORE POP POP PUSH2 0x1A37 DUP7 PUSH1 0x1 ADD PUSH1 0x0 DUP5 DUP2 MSTORE PUSH1 0x20 ADD SWAP1 DUP2 MSTORE PUSH1 0x20 ADD PUSH1 0x0 KECCAK256 PUSH1 0x0 ADD SLOAD DUP11 DUP5 DUP2 MLOAD DUP2 LT PUSH2 0xC7D JUMPI INVALID JUMPDEST DUP10 DUP4 DUP2 MLOAD DUP2 LT PUSH2 0x1A43 JUMPI INVALID JUMPDEST PUSH1 0x20 SWAP1 DUP2 MUL SWAP2 SWAP1 SWAP2 ADD ADD MSTORE POP PUSH1 0x1 ADD PUSH2 0x1937 JUMP JUMPDEST POP POP POP POP POP POP POP SWAP3 SWAP2 POP POP JUMP JUMPDEST PUSH2 0x1A6D DUP2 PUSH2 0x1260 JUMP JUMPDEST PUSH2 0x1396 CALLER DUP3 PUSH1 0x1 PUSH2 0x1BB4 JUMP JUMPDEST PUSH1 0x0 SLOAD PUSH1 0x1 PUSH1 0x1 PUSH1 0xA0 SHL SUB AND DUP2 JUMP JUMPDEST DUP1 ISZERO DUP1 PUSH2 0x1B0E JUMPI POP PUSH1 0x40 DUP1 MLOAD PUSH4 0x6EB1769F PUSH1 0xE1 SHL DUP2 MSTORE ADDRESS PUSH1 0x4 DUP3 ADD MSTORE PUSH1 0x1 PUSH1 0x1 PUSH1 0xA0 SHL SUB DUP5 DUP2 AND PUSH1 0x24 DUP4 ADD MSTORE SWAP2 MLOAD SWAP2 DUP6 AND SWAP2 PUSH4 0xDD62ED3E SWAP2 PUSH1 0x44 DUP1 DUP3 ADD SWAP3 PUSH1 0x20 SWAP3 SWAP1 SWAP2 SWAP1 DUP3 SWAP1 SUB ADD DUP2 DUP7 DUP1 EXTCODESIZE ISZERO DUP1 ISZERO PUSH2 0x1AE0 JUMPI PUSH1 0x0 DUP1 REVERT JUMPDEST POP GAS STATICCALL ISZERO DUP1 ISZERO PUSH2 0x1AF4 JUMPI RETURNDATASIZE PUSH1 0x0 DUP1 RETURNDATACOPY RETURNDATASIZE PUSH1 0x0 REVERT JUMPDEST POP POP POP POP PUSH1 0x40 MLOAD RETURNDATASIZE PUSH1 0x20 DUP2 LT ISZERO PUSH2 0x1B0A JUMPI PUSH1 0x0 DUP1 REVERT JUMPDEST POP MLOAD ISZERO JUMPDEST PUSH2 0x1B49 JUMPI PUSH1 0x40 MLOAD PUSH3 0x461BCD PUSH1 0xE5 SHL DUP2 MSTORE PUSH1 0x4 ADD DUP1 DUP1 PUSH1 0x20 ADD DUP3 DUP2 SUB DUP3 MSTORE PUSH1 0x36 DUP2 MSTORE PUSH1 0x20 ADD DUP1 PUSH2 0x2B98 PUSH1 0x36 SWAP2 CODECOPY PUSH1 0x40 ADD SWAP2 POP POP PUSH1 0x40 MLOAD DUP1 SWAP2 SUB SWAP1 REVERT JUMPDEST PUSH1 0x40 DUP1 MLOAD PUSH1 0x1 PUSH1 0x1 PUSH1 0xA0 SHL SUB DUP5 AND PUSH1 0x24 DUP3 ADD MSTORE PUSH1 0x44 DUP1 DUP3 ADD DUP5 SWAP1 MSTORE DUP3 MLOAD DUP1 DUP4 SUB SWAP1 SWAP2 ADD DUP2 MSTORE PUSH1 0x64 SWAP1 SWAP2 ADD SWAP1 SWAP2 MSTORE PUSH1 0x20 DUP2 ADD DUP1 MLOAD PUSH1 0x1 PUSH1 0x1 PUSH1 0xE0 SHL SUB AND PUSH4 0x95EA7B3 PUSH1 0xE0 SHL OR SWAP1 MSTORE PUSH2 0x1896 SWAP1 DUP5 SWAP1 PUSH2 0x2120 JUMP JUMPDEST PUSH1 0x60 PUSH2 0x1BAA DUP5 DUP5 PUSH1 0x0 DUP6 PUSH2 0x21D1 JUMP JUMPDEST SWAP1 POP JUMPDEST SWAP4 SWAP3 POP POP POP JUMP JUMPDEST PUSH1 0x0 DUP3 DUP2 MSTORE PUSH1 0x7 PUSH1 0x20 SWAP1 DUP2 MSTORE PUSH1 0x40 DUP1 DUP4 KECCAK256 PUSH1 0x1 PUSH1 0x1 PUSH1 0xA0 SHL SUB DUP8 AND DUP5 MSTORE SWAP1 SWAP2 MSTORE SWAP1 KECCAK256 SLOAD PUSH1 0x4 SLOAD DUP2 PUSH2 0x1C42 JUMPI PUSH1 0x0 JUMPDEST DUP2 DUP2 LT ISZERO PUSH2 0x1C3A JUMPI PUSH1 0x0 DUP6 DUP2 MSTORE PUSH1 0x6 PUSH1 0x20 SWAP1 DUP2 MSTORE PUSH1 0x40 DUP1 DUP4 KECCAK256 DUP5 DUP5 MSTORE PUSH1 0x2 ADD DUP3 MSTORE DUP1 DUP4 KECCAK256 PUSH1 0x1 SWAP1 DUP2 ADD SLOAD DUP10 DUP6 MSTORE PUSH1 0x7 DUP5 MSTORE DUP3 DUP6 KECCAK256 PUSH1 0x1 PUSH1 0x1 PUSH1 0xA0 SHL SUB DUP13 AND DUP7 MSTORE DUP5 MSTORE DUP3 DUP6 KECCAK256 DUP7 DUP7 MSTORE DUP3 ADD SWAP1 SWAP4 MSTORE SWAP3 KECCAK256 DUP3 ADD SSTORE ADD PUSH2 0x1BE2 JUMP JUMPDEST POP POP POP PUSH2 0x1896 JUMP JUMPDEST PUSH1 0x0 JUMPDEST DUP2 DUP2 LT ISZERO PUSH2 0x1D9B JUMPI PUSH1 0x0 DUP6 DUP2 MSTORE PUSH1 0x6 PUSH1 0x20 SWAP1 DUP2 MSTORE PUSH1 0x40 DUP1 DUP4 KECCAK256 DUP5 DUP5 MSTORE PUSH1 0x2 ADD DUP3 MSTORE DUP1 DUP4 KECCAK256 PUSH1 0x1 SWAP1 DUP2 ADD SLOAD DUP10 DUP6 MSTORE PUSH1 0x7 DUP5 MSTORE DUP3 DUP6 KECCAK256 PUSH1 0x1 PUSH1 0x1 PUSH1 0xA0 SHL SUB DUP13 AND DUP7 MSTORE DUP5 MSTORE DUP3 DUP6 KECCAK256 DUP7 DUP7 MSTORE DUP3 ADD SWAP1 SWAP4 MSTORE SWAP1 DUP4 KECCAK256 SWAP1 DUP2 ADD SLOAD SWAP2 SWAP3 SWAP1 SWAP2 PUSH5 0xE8D4A51000 SWAP1 PUSH2 0x1CBA SWAP1 PUSH2 0x1CB3 SWAP1 DUP7 SWAP1 PUSH2 0x1FE0 JUMP JUMPDEST DUP9 SWAP1 PUSH2 0x20C7 JUMP JUMPDEST DUP2 PUSH2 0x1CC1 JUMPI INVALID JUMPDEST DUP4 SLOAD SWAP2 SWAP1 DIV SWAP2 POP PUSH2 0x1CD3 SWAP1 DUP3 SWAP1 PUSH2 0x1E03 JUMP JUMPDEST SWAP1 POP DUP7 PUSH2 0x1CE0 JUMPI DUP1 PUSH2 0x1CE3 JUMP JUMPDEST PUSH1 0x0 JUMPDEST DUP3 SSTORE PUSH1 0x1 DUP3 ADD DUP4 SWAP1 SSTORE DUP7 DUP1 ISZERO PUSH2 0x1CF9 JUMPI POP PUSH1 0x0 DUP2 GT JUMPDEST ISZERO PUSH2 0x1D90 JUMPI PUSH2 0x1D2A PUSH1 0x4 DUP6 DUP2 SLOAD DUP2 LT PUSH2 0x1D0E JUMPI INVALID JUMPDEST PUSH1 0x0 SWAP2 DUP3 MSTORE PUSH1 0x20 SWAP1 SWAP2 KECCAK256 ADD SLOAD PUSH1 0x1 PUSH1 0x1 PUSH1 0xA0 SHL SUB AND DUP11 DUP4 PUSH2 0x1F3B JUMP JUMPDEST PUSH1 0x4 DUP5 DUP2 SLOAD DUP2 LT PUSH2 0x1D37 JUMPI INVALID JUMPDEST PUSH1 0x0 SWAP2 DUP3 MSTORE PUSH1 0x20 SWAP1 SWAP2 KECCAK256 ADD SLOAD PUSH1 0x40 MLOAD PUSH1 0x1 PUSH1 0x1 PUSH1 0xA0 SHL SUB SWAP2 DUP3 AND SWAP2 DUP11 SWAP2 SWAP1 DUP13 AND SWAP1 PUSH32 0xF75F3D433C6628E04E01A0BE1A2C6692A6011CE4B00389824CFA8B8A12F3C1C4 SWAP1 PUSH2 0x1D87 SWAP1 DUP7 SWAP1 NUMBER SWAP1 PUSH2 0x2AD2 JUMP JUMPDEST PUSH1 0x40 MLOAD DUP1 SWAP2 SUB SWAP1 LOG4 JUMPDEST POP POP POP PUSH1 0x1 ADD PUSH2 0x1C45 JUMP JUMPDEST POP POP POP POP POP POP JUMP JUMPDEST PUSH1 0x40 DUP1 MLOAD PUSH1 0x1 PUSH1 0x1 PUSH1 0xA0 SHL SUB DUP1 DUP7 AND PUSH1 0x24 DUP4 ADD MSTORE DUP5 AND PUSH1 0x44 DUP3 ADD MSTORE PUSH1 0x64 DUP1 DUP3 ADD DUP5 SWAP1 MSTORE DUP3 MLOAD DUP1 DUP4 SUB SWAP1 SWAP2 ADD DUP2 MSTORE PUSH1 0x84 SWAP1 SWAP2 ADD SWAP1 SWAP2 MSTORE PUSH1 0x20 DUP2 ADD DUP1 MLOAD PUSH1 0x1 PUSH1 0x1 PUSH1 0xE0 SHL SUB AND PUSH4 0x23B872DD PUSH1 0xE0 SHL OR SWAP1 MSTORE PUSH2 0x1DFD SWAP1 DUP6 SWAP1 PUSH2 0x2120 JUMP JUMPDEST POP POP POP POP JUMP JUMPDEST PUSH1 0x0 DUP3 DUP3 ADD DUP4 DUP2 LT ISZERO PUSH2 0x1E5D JUMPI PUSH1 0x40 DUP1 MLOAD PUSH3 0x461BCD PUSH1 0xE5 SHL DUP2 MSTORE PUSH1 0x20 PUSH1 0x4 DUP3 ADD MSTORE PUSH1 0x1B PUSH1 0x24 DUP3 ADD MSTORE PUSH32 0x536166654D6174683A206164646974696F6E206F766572666C6F770000000000 PUSH1 0x44 DUP3 ADD MSTORE SWAP1 MLOAD SWAP1 DUP2 SWAP1 SUB PUSH1 0x64 ADD SWAP1 REVERT JUMPDEST SWAP1 POP JUMPDEST SWAP3 SWAP2 POP POP JUMP JUMPDEST PUSH1 0x0 DUP3 DUP2 MSTORE PUSH1 0x6 PUSH1 0x20 SWAP1 DUP2 MSTORE PUSH1 0x40 DUP1 DUP4 KECCAK256 PUSH1 0x7 DUP4 MSTORE DUP2 DUP5 KECCAK256 CALLER DUP6 MSTORE SWAP1 SWAP3 MSTORE SWAP1 SWAP2 KECCAK256 DUP1 SLOAD DUP4 GT ISZERO PUSH2 0x1EA8 JUMPI PUSH1 0x40 MLOAD PUSH3 0x461BCD PUSH1 0xE5 SHL DUP2 MSTORE PUSH1 0x4 ADD PUSH2 0x7BE SWAP1 PUSH2 0x28B5 JUMP JUMPDEST PUSH2 0x1EB1 DUP5 PUSH2 0x1260 JUMP JUMPDEST PUSH2 0x1EBD CALLER DUP6 PUSH1 0x1 PUSH2 0x1BB4 JUMP JUMPDEST DUP1 SLOAD PUSH2 0x1EC9 SWAP1 DUP5 PUSH2 0x1FE0 JUMP JUMPDEST DUP2 SSTORE DUP2 SLOAD PUSH2 0x1ED7 SWAP1 DUP5 PUSH2 0x1FE0 JUMP JUMPDEST DUP3 SSTORE PUSH1 0x1 DUP3 ADD SLOAD PUSH2 0x1EF2 SWAP1 PUSH1 0x1 PUSH1 0x1 PUSH1 0xA0 SHL SUB AND CALLER DUP6 PUSH2 0x203D JUMP JUMPDEST NUMBER DUP5 CALLER PUSH1 0x1 PUSH1 0x1 PUSH1 0xA0 SHL SUB AND PUSH32 0x2F25270A4D87BEA75DB541CDFE559334A275B4A233520ED6C0A2429667CCA94 DUP7 PUSH1 0x40 MLOAD PUSH2 0x1F2D SWAP2 SWAP1 PUSH2 0x2A2E JUMP JUMPDEST PUSH1 0x40 MLOAD DUP1 SWAP2 SUB SWAP1 LOG4 POP POP POP POP JUMP JUMPDEST PUSH1 0x0 PUSH1 0x1 PUSH1 0x1 PUSH1 0xA0 SHL SUB DUP5 AND ISZERO PUSH2 0x1F53 JUMPI PUSH1 0x0 PUSH2 0x1F55 JUMP JUMPDEST DUP2 JUMPDEST SWAP1 POP PUSH32 0x0 PUSH1 0x1 PUSH1 0x1 PUSH1 0xA0 SHL SUB AND PUSH4 0x7750C9F0 DUP3 DUP7 DUP7 DUP7 PUSH1 0x40 MLOAD DUP6 PUSH4 0xFFFFFFFF AND PUSH1 0xE0 SHL DUP2 MSTORE PUSH1 0x4 ADD PUSH2 0x1FA8 SWAP4 SWAP3 SWAP2 SWAP1 PUSH2 0x2776 JUMP JUMPDEST PUSH1 0x0 PUSH1 0x40 MLOAD DUP1 DUP4 SUB DUP2 DUP6 DUP9 DUP1 EXTCODESIZE ISZERO DUP1 ISZERO PUSH2 0x1FC1 JUMPI PUSH1 0x0 DUP1 REVERT JUMPDEST POP GAS CALL ISZERO DUP1 ISZERO PUSH2 0x1FD5 JUMPI RETURNDATASIZE PUSH1 0x0 DUP1 RETURNDATACOPY RETURNDATASIZE PUSH1 0x0 REVERT JUMPDEST POP POP POP POP POP POP POP POP POP JUMP JUMPDEST PUSH1 0x0 DUP3 DUP3 GT ISZERO PUSH2 0x2037 JUMPI PUSH1 0x40 DUP1 MLOAD PUSH3 0x461BCD PUSH1 0xE5 SHL DUP2 MSTORE PUSH1 0x20 PUSH1 0x4 DUP3 ADD MSTORE PUSH1 0x1E PUSH1 0x24 DUP3 ADD MSTORE PUSH32 0x536166654D6174683A207375627472616374696F6E206F766572666C6F770000 PUSH1 0x44 DUP3 ADD MSTORE SWAP1 MLOAD SWAP1 DUP2 SWAP1 SUB PUSH1 0x64 ADD SWAP1 REVERT JUMPDEST POP SWAP1 SUB SWAP1 JUMP JUMPDEST PUSH1 0x40 DUP1 MLOAD PUSH1 0x1 PUSH1 0x1 PUSH1 0xA0 SHL SUB DUP5 AND PUSH1 0x24 DUP3 ADD MSTORE PUSH1 0x44 DUP1 DUP3 ADD DUP5 SWAP1 MSTORE DUP3 MLOAD DUP1 DUP4 SUB SWAP1 SWAP2 ADD DUP2 MSTORE PUSH1 0x64 SWAP1 SWAP2 ADD SWAP1 SWAP2 MSTORE PUSH1 0x20 DUP2 ADD DUP1 MLOAD PUSH1 0x1 PUSH1 0x1 PUSH1 0xE0 SHL SUB AND PUSH4 0xA9059CBB PUSH1 0xE0 SHL OR SWAP1 MSTORE PUSH2 0x1896 SWAP1 DUP5 SWAP1 PUSH2 0x2120 JUMP JUMPDEST PUSH1 0x0 DUP2 DUP2 MSTORE PUSH1 0x6 PUSH1 0x20 MSTORE PUSH1 0x40 SWAP1 KECCAK256 PUSH1 0x1 ADD SLOAD PUSH1 0x1 PUSH1 0xC0 SHL SWAP1 DIV PUSH4 0xFFFFFFFF AND NUMBER DUP2 GT ISZERO PUSH2 0x20C2 JUMPI PUSH2 0x20BF NUMBER PUSH2 0x232C JUMP JUMPDEST SWAP1 POP JUMPDEST SWAP2 SWAP1 POP JUMP JUMPDEST PUSH1 0x0 DUP3 PUSH2 0x20D6 JUMPI POP PUSH1 0x0 PUSH2 0x1E60 JUMP JUMPDEST DUP3 DUP3 MUL DUP3 DUP5 DUP3 DUP2 PUSH2 0x20E3 JUMPI INVALID JUMPDEST DIV EQ PUSH2 0x1E5D JUMPI PUSH1 0x40 MLOAD PUSH3 0x461BCD PUSH1 0xE5 SHL DUP2 MSTORE PUSH1 0x4 ADD DUP1 DUP1 PUSH1 0x20 ADD DUP3 DUP2 SUB DUP3 MSTORE PUSH1 0x21 DUP2 MSTORE PUSH1 0x20 ADD DUP1 PUSH2 0x2B27 PUSH1 0x21 SWAP2 CODECOPY PUSH1 0x40 ADD SWAP2 POP POP PUSH1 0x40 MLOAD DUP1 SWAP2 SUB SWAP1 REVERT JUMPDEST PUSH1 0x0 PUSH2 0x2175 DUP3 PUSH1 0x40 MLOAD DUP1 PUSH1 0x40 ADD PUSH1 0x40 MSTORE DUP1 PUSH1 0x20 DUP2 MSTORE PUSH1 0x20 ADD PUSH32 0x5361666545524332303A206C6F772D6C6576656C2063616C6C206661696C6564 DUP2 MSTORE POP DUP6 PUSH1 0x1 PUSH1 0x1 PUSH1 0xA0 SHL SUB AND PUSH2 0x1B9B SWAP1 SWAP3 SWAP2 SWAP1 PUSH4 0xFFFFFFFF AND JUMP JUMPDEST DUP1 MLOAD SWAP1 SWAP2 POP ISZERO PUSH2 0x1896 JUMPI DUP1 DUP1 PUSH1 0x20 ADD SWAP1 MLOAD PUSH1 0x20 DUP2 LT ISZERO PUSH2 0x2194 JUMPI PUSH1 0x0 DUP1 REVERT JUMPDEST POP MLOAD PUSH2 0x1896 JUMPI PUSH1 0x40 MLOAD PUSH3 0x461BCD PUSH1 0xE5 SHL DUP2 MSTORE PUSH1 0x4 ADD DUP1 DUP1 PUSH1 0x20 ADD DUP3 DUP2 SUB DUP3 MSTORE PUSH1 0x2A DUP2 MSTORE PUSH1 0x20 ADD DUP1 PUSH2 0x2B6E PUSH1 0x2A SWAP2 CODECOPY PUSH1 0x40 ADD SWAP2 POP POP PUSH1 0x40 MLOAD DUP1 SWAP2 SUB SWAP1 REVERT JUMPDEST PUSH1 0x60 DUP3 SELFBALANCE LT ISZERO PUSH2 0x2212 JUMPI PUSH1 0x40 MLOAD PUSH3 0x461BCD PUSH1 0xE5 SHL DUP2 MSTORE PUSH1 0x4 ADD DUP1 DUP1 PUSH1 0x20 ADD DUP3 DUP2 SUB DUP3 MSTORE PUSH1 0x26 DUP2 MSTORE PUSH1 0x20 ADD DUP1 PUSH2 0x2B01 PUSH1 0x26 SWAP2 CODECOPY PUSH1 0x40 ADD SWAP2 POP POP PUSH1 0x40 MLOAD DUP1 SWAP2 SUB SWAP1 REVERT JUMPDEST PUSH2 0x221B DUP6 PUSH2 0x2375 JUMP JUMPDEST PUSH2 0x226C JUMPI PUSH1 0x40 DUP1 MLOAD PUSH3 0x461BCD PUSH1 0xE5 SHL DUP2 MSTORE PUSH1 0x20 PUSH1 0x4 DUP3 ADD MSTORE PUSH1 0x1D PUSH1 0x24 DUP3 ADD MSTORE PUSH32 0x416464726573733A2063616C6C20746F206E6F6E2D636F6E7472616374000000 PUSH1 0x44 DUP3 ADD MSTORE SWAP1 MLOAD SWAP1 DUP2 SWAP1 SUB PUSH1 0x64 ADD SWAP1 REVERT JUMPDEST PUSH1 0x0 DUP1 DUP7 PUSH1 0x1 PUSH1 0x1 PUSH1 0xA0 SHL SUB AND DUP6 DUP8 PUSH1 0x40 MLOAD DUP1 DUP3 DUP1 MLOAD SWAP1 PUSH1 0x20 ADD SWAP1 DUP1 DUP4 DUP4 JUMPDEST PUSH1 0x20 DUP4 LT PUSH2 0x22AA JUMPI DUP1 MLOAD DUP3 MSTORE PUSH1 0x1F NOT SWAP1 SWAP3 ADD SWAP2 PUSH1 0x20 SWAP2 DUP3 ADD SWAP2 ADD PUSH2 0x228B JUMP JUMPDEST PUSH1 0x1 DUP4 PUSH1 0x20 SUB PUSH2 0x100 EXP SUB DUP1 NOT DUP3 MLOAD AND DUP2 DUP5 MLOAD AND DUP1 DUP3 OR DUP6 MSTORE POP POP POP POP POP POP SWAP1 POP ADD SWAP2 POP POP PUSH1 0x0 PUSH1 0x40 MLOAD DUP1 DUP4 SUB DUP2 DUP6 DUP8 GAS CALL SWAP3 POP POP POP RETURNDATASIZE DUP1 PUSH1 0x0 DUP2 EQ PUSH2 0x230C JUMPI PUSH1 0x40 MLOAD SWAP2 POP PUSH1 0x1F NOT PUSH1 0x3F RETURNDATASIZE ADD AND DUP3 ADD PUSH1 0x40 MSTORE RETURNDATASIZE DUP3 MSTORE RETURNDATASIZE PUSH1 0x0 PUSH1 0x20 DUP5 ADD RETURNDATACOPY PUSH2 0x2311 JUMP JUMPDEST PUSH1 0x60 SWAP2 POP JUMPDEST POP SWAP2 POP SWAP2 POP PUSH2 0x2321 DUP3 DUP3 DUP7 PUSH2 0x237B JUMP JUMPDEST SWAP8 SWAP7 POP POP POP POP POP POP POP JUMP JUMPDEST PUSH1 0x0 PUSH5 0x100000000 DUP3 LT PUSH2 0x2371 JUMPI PUSH1 0x40 MLOAD PUSH3 0x461BCD PUSH1 0xE5 SHL DUP2 MSTORE PUSH1 0x4 ADD DUP1 DUP1 PUSH1 0x20 ADD DUP3 DUP2 SUB DUP3 MSTORE PUSH1 0x26 DUP2 MSTORE PUSH1 0x20 ADD DUP1 PUSH2 0x2B48 PUSH1 0x26 SWAP2 CODECOPY PUSH1 0x40 ADD SWAP2 POP POP PUSH1 0x40 MLOAD DUP1 SWAP2 SUB SWAP1 REVERT JUMPDEST POP SWAP1 JUMP JUMPDEST EXTCODESIZE ISZERO ISZERO SWAP1 JUMP JUMPDEST PUSH1 0x60 DUP4 ISZERO PUSH2 0x238A JUMPI POP DUP2 PUSH2 0x1BAD JUMP JUMPDEST DUP3 MLOAD ISZERO PUSH2 0x239A JUMPI DUP3 MLOAD DUP1 DUP5 PUSH1 0x20 ADD REVERT JUMPDEST DUP2 PUSH1 0x40 MLOAD PUSH3 0x461BCD PUSH1 0xE5 SHL DUP2 MSTORE PUSH1 0x4 ADD DUP1 DUP1 PUSH1 0x20 ADD DUP3 DUP2 SUB DUP3 MSTORE DUP4 DUP2 DUP2 MLOAD DUP2 MSTORE PUSH1 0x20 ADD SWAP2 POP DUP1 MLOAD SWAP1 PUSH1 0x20 ADD SWAP1 DUP1 DUP4 DUP4 PUSH1 0x0 JUMPDEST DUP4 DUP2 LT ISZERO PUSH2 0x23E4 JUMPI DUP2 DUP2 ADD MLOAD DUP4 DUP3 ADD MSTORE PUSH1 0x20 ADD PUSH2 0x23CC JUMP JUMPDEST POP POP POP POP SWAP1 POP SWAP1 DUP2 ADD SWAP1 PUSH1 0x1F AND DUP1 ISZERO PUSH2 0x2411 JUMPI DUP1 DUP3 SUB DUP1 MLOAD PUSH1 0x1 DUP4 PUSH1 0x20 SUB PUSH2 0x100 EXP SUB NOT AND DUP2 MSTORE PUSH1 0x20 ADD SWAP2 POP JUMPDEST POP SWAP3 POP POP POP PUSH1 0x40 MLOAD DUP1 SWAP2 SUB SWAP1 REVERT JUMPDEST DUP1 CALLDATALOAD PUSH1 0x1 PUSH1 0x1 PUSH1 0xA0 SHL SUB DUP2 AND DUP2 EQ PUSH2 0x20C2 JUMPI PUSH1 0x0 DUP1 REVERT JUMPDEST PUSH1 0x0 DUP1 DUP4 PUSH1 0x1F DUP5 ADD SLT PUSH2 0x2447 JUMPI DUP2 DUP3 REVERT JUMPDEST POP DUP2 CALLDATALOAD PUSH8 0xFFFFFFFFFFFFFFFF DUP2 GT ISZERO PUSH2 0x245E JUMPI DUP2 DUP3 REVERT JUMPDEST PUSH1 0x20 DUP4 ADD SWAP2 POP DUP4 PUSH1 0x20 DUP1 DUP4 MUL DUP6 ADD ADD GT ISZERO PUSH2 0x2478 JUMPI PUSH1 0x0 DUP1 REVERT JUMPDEST SWAP3 POP SWAP3 SWAP1 POP JUMP JUMPDEST DUP1 CALLDATALOAD PUSH4 0xFFFFFFFF DUP2 AND DUP2 EQ PUSH2 0x20C2 JUMPI PUSH1 0x0 DUP1 REVERT JUMPDEST PUSH1 0x0 PUSH1 0x20 DUP3 DUP5 SUB SLT ISZERO PUSH2 0x24A4 JUMPI DUP1 DUP2 REVERT JUMPDEST PUSH2 0x1BAD DUP3 PUSH2 0x241F JUMP JUMPDEST PUSH1 0x0 DUP1 PUSH1 0x0 DUP1 PUSH1 0x0 PUSH1 0x80 DUP7 DUP9 SUB SLT ISZERO PUSH2 0x24C4 JUMPI DUP1 DUP2 REVERT JUMPDEST PUSH2 0x24CD DUP7 PUSH2 0x241F JUMP JUMPDEST SWAP5 POP PUSH2 0x24DB PUSH1 0x20 DUP8 ADD PUSH2 0x247F JUMP JUMPDEST SWAP4 POP PUSH2 0x24E9 PUSH1 0x40 DUP8 ADD PUSH2 0x247F JUMP JUMPDEST SWAP3 POP PUSH1 0x60 DUP7 ADD CALLDATALOAD PUSH8 0xFFFFFFFFFFFFFFFF DUP2 GT ISZERO PUSH2 0x2504 JUMPI DUP2 DUP3 REVERT JUMPDEST PUSH2 0x2510 DUP9 DUP3 DUP10 ADD PUSH2 0x2436 JUMP JUMPDEST SWAP7 SWAP10 SWAP6 SWAP9 POP SWAP4 SWAP7 POP SWAP3 SWAP5 SWAP4 SWAP3 POP POP POP JUMP JUMPDEST PUSH1 0x0 DUP1 PUSH1 0x20 DUP4 DUP6 SUB SLT ISZERO PUSH2 0x2533 JUMPI DUP2 DUP3 REVERT JUMPDEST DUP3 CALLDATALOAD PUSH8 0xFFFFFFFFFFFFFFFF DUP2 GT ISZERO PUSH2 0x2549 JUMPI DUP3 DUP4 REVERT JUMPDEST PUSH2 0x2555 DUP6 DUP3 DUP7 ADD PUSH2 0x2436 JUMP JUMPDEST SWAP1 SWAP7 SWAP1 SWAP6 POP SWAP4 POP POP POP POP JUMP JUMPDEST PUSH1 0x0 PUSH1 0x20 DUP3 DUP5 SUB SLT ISZERO PUSH2 0x2572 JUMPI DUP1 DUP2 REVERT JUMPDEST POP CALLDATALOAD SWAP2 SWAP1 POP JUMP JUMPDEST PUSH1 0x0 DUP1 PUSH1 0x40 DUP4 DUP6 SUB SLT ISZERO PUSH2 0x258B JUMPI DUP2 DUP3 REVERT JUMPDEST DUP3 CALLDATALOAD SWAP2 POP PUSH2 0x259B PUSH1 0x20 DUP5 ADD PUSH2 0x241F JUMP JUMPDEST SWAP1 POP SWAP3 POP SWAP3 SWAP1 POP JUMP JUMPDEST PUSH1 0x0 DUP1 PUSH1 0x40 DUP4 DUP6 SUB SLT ISZERO PUSH2 0x25B6 JUMPI DUP2 DUP3 REVERT JUMPDEST POP POP DUP1 CALLDATALOAD SWAP3 PUSH1 0x20 SWAP1 SWAP2 ADD CALLDATALOAD SWAP2 POP JUMP JUMPDEST PUSH1 0x0 DUP1 PUSH1 0x0 PUSH1 0x60 DUP5 DUP7 SUB SLT ISZERO PUSH2 0x25D9 JUMPI DUP3 DUP4 REVERT JUMPDEST DUP4 CALLDATALOAD SWAP3 POP PUSH1 0x20 DUP5 ADD CALLDATALOAD SWAP2 POP PUSH1 0x40 DUP5 ADD CALLDATALOAD DUP1 ISZERO ISZERO DUP2 EQ PUSH2 0x25F6 JUMPI DUP2 DUP3 REVERT JUMPDEST DUP1 SWAP2 POP POP SWAP3 POP SWAP3 POP SWAP3 JUMP JUMPDEST PUSH1 0x0 DUP1 PUSH1 0x0 DUP1 PUSH1 0x60 DUP6 DUP8 SUB SLT ISZERO PUSH2 0x2616 JUMPI DUP4 DUP5 REVERT JUMPDEST DUP5 CALLDATALOAD SWAP4 POP PUSH2 0x2626 PUSH1 0x20 DUP7 ADD PUSH2 0x247F JUMP JUMPDEST SWAP3 POP PUSH1 0x40 DUP6 ADD CALLDATALOAD PUSH8 0xFFFFFFFFFFFFFFFF DUP2 GT ISZERO PUSH2 0x2641 JUMPI DUP3 DUP4 REVERT JUMPDEST PUSH2 0x264D DUP8 DUP3 DUP9 ADD PUSH2 0x2436 JUMP JUMPDEST SWAP6 SWAP9 SWAP5 SWAP8 POP SWAP6 POP POP POP POP JUMP JUMPDEST PUSH1 0x0 DUP1 PUSH1 0x0 DUP1 PUSH1 0x0 PUSH1 0x80 DUP7 DUP9 SUB SLT ISZERO PUSH2 0x2670 JUMPI DUP1 DUP2 REVERT JUMPDEST DUP6 CALLDATALOAD SWAP5 POP PUSH2 0x24DB PUSH1 0x20 DUP8 ADD PUSH2 0x247F JUMP JUMPDEST PUSH1 0x0 DUP2 MLOAD DUP1 DUP5 MSTORE PUSH1 0x20 DUP1 DUP6 ADD SWAP5 POP DUP1 DUP5 ADD DUP4 JUMPDEST DUP4 DUP2 LT ISZERO PUSH2 0x26AF JUMPI DUP2 MLOAD DUP8 MSTORE SWAP6 DUP3 ADD SWAP6 SWAP1 DUP3 ADD SWAP1 PUSH1 0x1 ADD PUSH2 0x2693 JUMP JUMPDEST POP SWAP5 SWAP6 SWAP5 POP POP POP POP POP JUMP JUMPDEST SWAP1 JUMP JUMPDEST PUSH1 0x1 PUSH1 0x1 PUSH1 0xA0 SHL SUB SWAP2 SWAP1 SWAP2 AND DUP2 MSTORE PUSH1 0x20 ADD SWAP1 JUMP JUMPDEST PUSH1 0x20 DUP1 DUP3 MSTORE DUP3 MLOAD DUP3 DUP3 ADD DUP2 SWAP1 MSTORE PUSH1 0x0 SWAP2 SWAP1 DUP5 DUP3 ADD SWAP1 PUSH1 0x40 DUP6 ADD SWAP1 DUP5 JUMPDEST DUP2 DUP2 LT ISZERO PUSH2 0x2712 JUMPI DUP4 MLOAD PUSH1 0x1 PUSH1 0x1 PUSH1 0xA0 SHL SUB AND DUP4 MSTORE SWAP3 DUP5 ADD SWAP3 SWAP2 DUP5 ADD SWAP2 PUSH1 0x1 ADD PUSH2 0x26ED JUMP JUMPDEST POP SWAP1 SWAP7 SWAP6 POP POP POP POP POP POP JUMP JUMPDEST PUSH1 0x20 DUP1 DUP3 MSTORE DUP2 ADD DUP3 SWAP1 MSTORE PUSH1 0x0 PUSH1 0x1 PUSH1 0x1 PUSH1 0xFB SHL SUB DUP4 GT ISZERO PUSH2 0x273D JUMPI DUP1 DUP2 REVERT JUMPDEST PUSH1 0x20 DUP4 MUL DUP1 DUP6 PUSH1 0x40 DUP6 ADD CALLDATACOPY SWAP2 SWAP1 SWAP2 ADD PUSH1 0x40 ADD SWAP1 DUP2 MSTORE SWAP3 SWAP2 POP POP JUMP JUMPDEST PUSH1 0x0 PUSH1 0x20 DUP3 MSTORE PUSH2 0x1BAD PUSH1 0x20 DUP4 ADD DUP5 PUSH2 0x2680 JUMP JUMPDEST SWAP1 ISZERO ISZERO DUP2 MSTORE PUSH1 0x20 ADD SWAP1 JUMP JUMPDEST PUSH1 0x1 PUSH1 0x1 PUSH1 0xA0 SHL SUB SWAP4 DUP5 AND DUP2 MSTORE SWAP2 SWAP1 SWAP3 AND PUSH1 0x20 DUP3 ADD MSTORE PUSH1 0x40 DUP2 ADD SWAP2 SWAP1 SWAP2 MSTORE PUSH1 0x60 ADD SWAP1 JUMP JUMPDEST PUSH1 0x20 DUP1 DUP3 MSTORE PUSH1 0x18 SWAP1 DUP3 ADD MSTORE PUSH32 0x6164643A20696E76616C6964207374616B6520746F6B656E0000000000000000 PUSH1 0x40 DUP3 ADD MSTORE PUSH1 0x60 ADD SWAP1 JUMP JUMPDEST PUSH1 0x20 DUP1 DUP3 MSTORE PUSH1 0x15 SWAP1 DUP3 ADD MSTORE PUSH21 0x72656E65773A20696E76616C696420626C6F636B73 PUSH1 0x58 SHL PUSH1 0x40 DUP3 ADD MSTORE PUSH1 0x60 ADD SWAP1 JUMP JUMPDEST PUSH1 0x20 DUP1 DUP3 MSTORE PUSH1 0x16 SWAP1 DUP3 ADD MSTORE PUSH22 0xEAE0C8C2E8CA7440D2DCECC2D8D2C840D8CADCCEE8D PUSH1 0x53 SHL PUSH1 0x40 DUP3 ADD MSTORE PUSH1 0x60 ADD SWAP1 JUMP JUMPDEST PUSH1 0x20 DUP1 DUP3 MSTORE PUSH1 0xF SWAP1 DUP3 ADD MSTORE PUSH15 0x1A5B9D985B1A59081C1BDBDB081A59 PUSH1 0x8A SHL PUSH1 0x40 DUP3 ADD MSTORE PUSH1 0x60 ADD SWAP1 JUMP JUMPDEST PUSH1 0x20 DUP1 DUP3 MSTORE PUSH1 0x13 SWAP1 DUP3 ADD MSTORE PUSH19 0xC2C8C87440D2DCECC2D8D2C840D8CADCCEE8D PUSH1 0x6B SHL PUSH1 0x40 DUP3 ADD MSTORE PUSH1 0x60 ADD SWAP1 JUMP JUMPDEST PUSH1 0x20 DUP1 DUP3 MSTORE PUSH1 0x15 SWAP1 DUP3 ADD MSTORE PUSH21 0xE4CADCCAEE7440D2DCECC2D8D2C840D8CADCCEE8D PUSH1 0x5B SHL PUSH1 0x40 DUP3 ADD MSTORE PUSH1 0x60 ADD SWAP1 JUMP JUMPDEST PUSH1 0x20 DUP1 DUP3 MSTORE PUSH1 0x1D SWAP1 DUP3 ADD MSTORE PUSH32 0x77697468647261773A20696E73756666696369656E7420616D6F756E74000000 PUSH1 0x40 DUP3 ADD MSTORE PUSH1 0x60 ADD SWAP1 JUMP JUMPDEST PUSH1 0x20 DUP1 DUP3 MSTORE PUSH1 0x19 SWAP1 DUP3 ADD MSTORE PUSH32 0x7570646174653A20696E76616C696420656E6420626C6F636B00000000000000 PUSH1 0x40 DUP3 ADD MSTORE PUSH1 0x60 ADD SWAP1 JUMP JUMPDEST PUSH1 0x20 DUP1 DUP3 MSTORE PUSH1 0x1C SWAP1 DUP3 ADD MSTORE PUSH32 0x7472616E736665722072657761726420746F6B656E206661696C656400000000 PUSH1 0x40 DUP3 ADD MSTORE PUSH1 0x60 ADD SWAP1 JUMP JUMPDEST PUSH1 0x20 DUP1 DUP3 MSTORE PUSH1 0x14 SWAP1 DUP3 ADD MSTORE PUSH20 0x1859190E88191D5C1B1A58D85D1959081C1BDBDB PUSH1 0x62 SHL PUSH1 0x40 DUP3 ADD MSTORE PUSH1 0x60 ADD SWAP1 JUMP JUMPDEST PUSH1 0x20 DUP1 DUP3 MSTORE PUSH1 0x22 SWAP1 DUP3 ADD MSTORE PUSH32 0x72656E65773A20696E76616C696420706F6F6C20737461746520746F2072656E PUSH1 0x40 DUP3 ADD MSTORE PUSH2 0x6577 PUSH1 0xF0 SHL PUSH1 0x60 DUP3 ADD MSTORE PUSH1 0x80 ADD SWAP1 JUMP JUMPDEST PUSH1 0x20 DUP1 DUP3 MSTORE PUSH1 0x1A SWAP1 DUP3 ADD MSTORE PUSH32 0x7570646174653A20706F6F6C20616C726561647920656E646564000000000000 PUSH1 0x40 DUP3 ADD MSTORE PUSH1 0x60 ADD SWAP1 JUMP JUMPDEST PUSH1 0x20 DUP1 DUP3 MSTORE PUSH1 0x13 SWAP1 DUP3 ADD MSTORE PUSH19 0x6164643A20696E76616C696420626C6F636B73 PUSH1 0x68 SHL PUSH1 0x40 DUP3 ADD MSTORE PUSH1 0x60 ADD SWAP1 JUMP JUMPDEST SWAP1 DUP2 MSTORE PUSH1 0x20 ADD SWAP1 JUMP JUMPDEST DUP8 DUP2 MSTORE PUSH1 0x1 PUSH1 0x1 PUSH1 0xA0 SHL SUB DUP8 AND PUSH1 0x20 DUP3 ADD MSTORE PUSH4 0xFFFFFFFF DUP7 DUP2 AND PUSH1 0x40 DUP4 ADD MSTORE DUP6 DUP2 AND PUSH1 0x60 DUP4 ADD MSTORE DUP5 AND PUSH1 0x80 DUP3 ADD MSTORE PUSH1 0xE0 PUSH1 0xA0 DUP3 ADD DUP2 SWAP1 MSTORE PUSH1 0x0 SWAP1 PUSH2 0x2A7D SWAP1 DUP4 ADD DUP6 PUSH2 0x2680 JUMP JUMPDEST DUP3 DUP2 SUB PUSH1 0xC0 DUP5 ADD MSTORE PUSH2 0x2A8F DUP2 DUP6 PUSH2 0x2680 JUMP JUMPDEST SWAP11 SWAP10 POP POP POP POP POP POP POP POP POP POP JUMP JUMPDEST PUSH1 0x0 DUP5 DUP3 MSTORE PUSH1 0x60 PUSH1 0x20 DUP4 ADD MSTORE PUSH2 0x2AB6 PUSH1 0x60 DUP4 ADD DUP6 PUSH2 0x2680 JUMP JUMPDEST DUP3 DUP2 SUB PUSH1 0x40 DUP5 ADD MSTORE PUSH2 0x2AC8 DUP2 DUP6 PUSH2 0x2680 JUMP JUMPDEST SWAP7 SWAP6 POP POP POP POP POP POP JUMP JUMPDEST SWAP2 DUP3 MSTORE PUSH1 0x20 DUP3 ADD MSTORE PUSH1 0x40 ADD SWAP1 JUMP INVALID MSTORE PUSH6 0x656E7472616E PUSH4 0x79477561 PUSH19 0x643A207265656E7472616E742063616C6C0041 PUSH5 0x6472657373 GASPRICE KECCAK256 PUSH10 0x6E73756666696369656E PUSH21 0x2062616C616E636520666F722063616C6C53616665 0x4D PUSH2 0x7468 GASPRICE KECCAK256 PUSH14 0x756C7469706C69636174696F6E20 PUSH16 0x766572666C6F7753616665436173743A KECCAK256 PUSH23 0x616C756520646F65736E27742066697420696E20333220 PUSH3 0x697473 MSTORE8 PUSH2 0x6665 GASLIMIT MSTORE NUMBER ORIGIN ADDRESS GASPRICE KECCAK256 GASLIMIT MSTORE NUMBER ORIGIN ADDRESS KECCAK256 PUSH16 0x7065726174696F6E20646964206E6F74 KECCAK256 PUSH20 0x7563636565645361666545524332303A20617070 PUSH19 0x6F76652066726F6D206E6F6E2D7A65726F2074 PUSH16 0x206E6F6E2D7A65726F20616C6C6F7761 PUSH15 0x6365A2646970667358221220C5123B PUSH1 0xDF CALL DUP13 SUB NOT 0xA6 0xD 0xE1 0xA9 SMOD 0xC5 PUSH28 0xE74F3DB5BFA5928E7B14949E5EB97BE864736F6C6343000706003341 PUSH5 0x6472657373 GASPRICE KECCAK256 PUSH10 0x6E73756666696369656E PUSH21 0x2062616C616E636520666F722063616C6C53616665 GASLIMIT MSTORE NUMBER ORIGIN ADDRESS GASPRICE KECCAK256 GASLIMIT MSTORE NUMBER ORIGIN ADDRESS KECCAK256 PUSH16 0x7065726174696F6E20646964206E6F74 KECCAK256 PUSH20 0x7563636565645361666545524332303A20617070 PUSH19 0x6F76652066726F6D206E6F6E2D7A65726F2074 PUSH16 0x206E6F6E2D7A65726F20616C6C6F7761 PUSH15 0x636500000000000000000000000000 "
				},
				"gasEstimates": {
					"creation": {
						"codeDepositCost": "2253400",
						"executionCost": "infinite",
						"totalCost": "infinite"
					},
					"external": {
						"addPool(address,uint32,uint32,uint256[])": "infinite",
						"admin()": "1202",
						"adminWithdraw(uint256,uint256)": "infinite",
						"claimAdmin()": "45655",
						"deposit(uint256,uint256,bool)": "infinite",
						"emergencyWithdraw(uint256)": "infinite",
						"getPoolInfo(uint256)": "infinite",
						"getRewardTokens()": "infinite",
						"getUserInfo(uint256,address)": "infinite",
						"harvest(uint256)": "infinite",
						"harvestMultiplePools(uint256[])": "infinite",
						"pendingAdmin()": "1160",
						"pendingRewards(uint256,address)": "infinite",
						"poolExists(address)": "1332",
						"poolLength()": "1052",
						"renewPool(uint256,uint32,uint32,uint256[])": "infinite",
						"rewardLocker()": "infinite",
						"rewardTokens(uint256)": "2105",
						"transferAdmin(address)": "23257",
						"transferAdminQuickly(address)": "25330",
						"updatePool(uint256,uint32,uint256[])": "infinite",
						"updatePoolRewards(uint256)": "infinite",
						"withdraw(uint256,uint256)": "infinite",
						"withdrawAll(uint256)": "infinite"
					},
					"internal": {
						"_lastAccountedRewardBlock(uint256)": "infinite",
						"_lockReward(contract IERC20Ext,address,uint256)": "infinite",
						"_updateUserReward(address,uint256,bool)": "infinite",
						"_withdraw(uint256,uint256)": "infinite"
					}
				},
				"methodIdentifiers": {
					"addPool(address,uint32,uint32,uint256[])": "2fb40ce1",
					"admin()": "f851a440",
					"adminWithdraw(uint256,uint256)": "d12e4ceb",
					"claimAdmin()": "77f50f97",
					"deposit(uint256,uint256,bool)": "43a0d066",
					"emergencyWithdraw(uint256)": "5312ea8e",
					"getPoolInfo(uint256)": "2f380b35",
					"getRewardTokens()": "c4f59f9b",
					"getUserInfo(uint256,address)": "1069f3b5",
					"harvest(uint256)": "ddc63262",
					"harvestMultiplePools(uint256[])": "52fd9f2f",
					"pendingAdmin()": "26782247",
					"pendingRewards(uint256,address)": "d18df53c",
					"poolExists(address)": "1e1c6a07",
					"poolLength()": "081e3eda",
					"renewPool(uint256,uint32,uint32,uint256[])": "b43c6270",
					"rewardLocker()": "3892601c",
					"rewardTokens(uint256)": "7bb7bed1",
					"transferAdmin(address)": "75829def",
					"transferAdminQuickly(address)": "7acc8678",
					"updatePool(uint256,uint32,uint256[])": "affb9fc8",
					"updatePoolRewards(uint256)": "adb82b31",
					"withdraw(uint256,uint256)": "441a3e70",
					"withdrawAll(uint256)": "958e2d31"
				}
			},
			"storageLayout": {
				"storage": [
					{
						"astId": 3382,
						"contract": "contracts/liquidityMining/KyberFairLaunch.sol:KyberFairLaunch",
						"label": "admin",
						"offset": 0,
						"slot": "0",
						"type": "t_address"
					},
					{
						"astId": 3384,
						"contract": "contracts/liquidityMining/KyberFairLaunch.sol:KyberFairLaunch",
						"label": "pendingAdmin",
						"offset": 0,
						"slot": "1",
						"type": "t_address"
					},
					{
						"astId": 952,
						"contract": "contracts/liquidityMining/KyberFairLaunch.sol:KyberFairLaunch",
						"label": "_status",
						"offset": 0,
						"slot": "2",
						"type": "t_uint256"
					},
					{
						"astId": 1679,
						"contract": "contracts/liquidityMining/KyberFairLaunch.sol:KyberFairLaunch",
						"label": "poolExists",
						"offset": 0,
						"slot": "3",
						"type": "t_mapping(t_address,t_bool)"
					},
					{
						"astId": 1684,
						"contract": "contracts/liquidityMining/KyberFairLaunch.sol:KyberFairLaunch",
						"label": "rewardTokens",
						"offset": 0,
						"slot": "4",
						"type": "t_array(t_address)dyn_storage"
					},
					{
						"astId": 1687,
						"contract": "contracts/liquidityMining/KyberFairLaunch.sol:KyberFairLaunch",
						"label": "poolLength",
						"offset": 0,
						"slot": "5",
						"type": "t_uint256"
					},
					{
						"astId": 1691,
						"contract": "contracts/liquidityMining/KyberFairLaunch.sol:KyberFairLaunch",
						"label": "poolInfo",
						"offset": 0,
						"slot": "6",
						"type": "t_mapping(t_uint256,t_struct(PoolInfo)1675_storage)"
					},
					{
						"astId": 1697,
						"contract": "contracts/liquidityMining/KyberFairLaunch.sol:KyberFairLaunch",
						"label": "userInfo",
						"offset": 0,
						"slot": "7",
						"type": "t_mapping(t_uint256,t_mapping(t_address,t_struct(UserInfo)1655_storage))"
					}
				],
				"types": {
					"t_address": {
						"encoding": "inplace",
						"label": "address",
						"numberOfBytes": "20"
					},
					"t_array(t_address)dyn_storage": {
						"base": "t_address",
						"encoding": "dynamic_array",
						"label": "address[]",
						"numberOfBytes": "32"
					},
					"t_bool": {
						"encoding": "inplace",
						"label": "bool",
						"numberOfBytes": "1"
					},
					"t_mapping(t_address,t_bool)": {
						"encoding": "mapping",
						"key": "t_address",
						"label": "mapping(address => bool)",
						"numberOfBytes": "32",
						"value": "t_bool"
					},
					"t_mapping(t_address,t_struct(UserInfo)1655_storage)": {
						"encoding": "mapping",
						"key": "t_address",
						"label": "mapping(address => struct KyberFairLaunch.UserInfo)",
						"numberOfBytes": "32",
						"value": "t_struct(UserInfo)1655_storage"
					},
					"t_mapping(t_uint256,t_mapping(t_address,t_struct(UserInfo)1655_storage))": {
						"encoding": "mapping",
						"key": "t_uint256",
						"label": "mapping(uint256 => mapping(address => struct KyberFairLaunch.UserInfo))",
						"numberOfBytes": "32",
						"value": "t_mapping(t_address,t_struct(UserInfo)1655_storage)"
					},
					"t_mapping(t_uint256,t_struct(PoolInfo)1675_storage)": {
						"encoding": "mapping",
						"key": "t_uint256",
						"label": "mapping(uint256 => struct KyberFairLaunch.PoolInfo)",
						"numberOfBytes": "32",
						"value": "t_struct(PoolInfo)1675_storage"
					},
					"t_mapping(t_uint256,t_struct(PoolRewardData)1660_storage)": {
						"encoding": "mapping",
						"key": "t_uint256",
						"label": "mapping(uint256 => struct KyberFairLaunch.PoolRewardData)",
						"numberOfBytes": "32",
						"value": "t_struct(PoolRewardData)1660_storage"
					},
					"t_mapping(t_uint256,t_struct(UserRewardData)1648_storage)": {
						"encoding": "mapping",
						"key": "t_uint256",
						"label": "mapping(uint256 => struct KyberFairLaunch.UserRewardData)",
						"numberOfBytes": "32",
						"value": "t_struct(UserRewardData)1648_storage"
					},
					"t_struct(PoolInfo)1675_storage": {
						"encoding": "inplace",
						"label": "struct KyberFairLaunch.PoolInfo",
						"members": [
							{
								"astId": 1662,
								"contract": "contracts/liquidityMining/KyberFairLaunch.sol:KyberFairLaunch",
								"label": "totalStake",
								"offset": 0,
								"slot": "0",
								"type": "t_uint256"
							},
							{
								"astId": 1664,
								"contract": "contracts/liquidityMining/KyberFairLaunch.sol:KyberFairLaunch",
								"label": "stakeToken",
								"offset": 0,
								"slot": "1",
								"type": "t_address"
							},
							{
								"astId": 1666,
								"contract": "contracts/liquidityMining/KyberFairLaunch.sol:KyberFairLaunch",
								"label": "startBlock",
								"offset": 20,
								"slot": "1",
								"type": "t_uint32"
							},
							{
								"astId": 1668,
								"contract": "contracts/liquidityMining/KyberFairLaunch.sol:KyberFairLaunch",
								"label": "endBlock",
								"offset": 24,
								"slot": "1",
								"type": "t_uint32"
							},
							{
								"astId": 1670,
								"contract": "contracts/liquidityMining/KyberFairLaunch.sol:KyberFairLaunch",
								"label": "lastRewardBlock",
								"offset": 28,
								"slot": "1",
								"type": "t_uint32"
							},
							{
								"astId": 1674,
								"contract": "contracts/liquidityMining/KyberFairLaunch.sol:KyberFairLaunch",
								"label": "poolRewardData",
								"offset": 0,
								"slot": "2",
								"type": "t_mapping(t_uint256,t_struct(PoolRewardData)1660_storage)"
							}
						],
						"numberOfBytes": "96"
					},
					"t_struct(PoolRewardData)1660_storage": {
						"encoding": "inplace",
						"label": "struct KyberFairLaunch.PoolRewardData",
						"members": [
							{
								"astId": 1657,
								"contract": "contracts/liquidityMining/KyberFairLaunch.sol:KyberFairLaunch",
								"label": "rewardPerBlock",
								"offset": 0,
								"slot": "0",
								"type": "t_uint256"
							},
							{
								"astId": 1659,
								"contract": "contracts/liquidityMining/KyberFairLaunch.sol:KyberFairLaunch",
								"label": "accRewardPerShare",
								"offset": 0,
								"slot": "1",
								"type": "t_uint256"
							}
						],
						"numberOfBytes": "64"
					},
					"t_struct(UserInfo)1655_storage": {
						"encoding": "inplace",
						"label": "struct KyberFairLaunch.UserInfo",
						"members": [
							{
								"astId": 1650,
								"contract": "contracts/liquidityMining/KyberFairLaunch.sol:KyberFairLaunch",
								"label": "amount",
								"offset": 0,
								"slot": "0",
								"type": "t_uint256"
							},
							{
								"astId": 1654,
								"contract": "contracts/liquidityMining/KyberFairLaunch.sol:KyberFairLaunch",
								"label": "userRewardData",
								"offset": 0,
								"slot": "1",
								"type": "t_mapping(t_uint256,t_struct(UserRewardData)1648_storage)"
							}
						],
						"numberOfBytes": "64"
					},
					"t_struct(UserRewardData)1648_storage": {
						"encoding": "inplace",
						"label": "struct KyberFairLaunch.UserRewardData",
						"members": [
							{
								"astId": 1645,
								"contract": "contracts/liquidityMining/KyberFairLaunch.sol:KyberFairLaunch",
								"label": "unclaimedReward",
								"offset": 0,
								"slot": "0",
								"type": "t_uint256"
							},
							{
								"astId": 1647,
								"contract": "contracts/liquidityMining/KyberFairLaunch.sol:KyberFairLaunch",
								"label": "lastRewardPerShare",
								"offset": 0,
								"slot": "1",
								"type": "t_uint256"
							}
						],
						"numberOfBytes": "64"
					},
					"t_uint256": {
						"encoding": "inplace",
						"label": "uint256",
						"numberOfBytes": "32"
					},
					"t_uint32": {
						"encoding": "inplace",
						"label": "uint32",
						"numberOfBytes": "4"
					}
				}
			},
			"userdoc": {
				"kind": "user",
				"methods": {
					"emergencyWithdraw(uint256)": {
						"notice": "EMERGENCY USAGE ONLY, USER'S REWARDS WILL BE RESET"
					}
				},
				"notice": "FairLaunch contract for Kyber DMM Liquidity Mining program Allow stakers to stake LP tokens and receive reward tokens Allow extend or renew a pool to continue/restart the LM program When harvesting, rewards will be transferred to a RewardLocker Support multiple reward tokens, reward tokens must be distinct and immutable",
				"version": 1
			}
		}
	}
}