{
  "_format": "hh-sol-artifact-1",
  "contractName": "MockDMMLibrary",
  "sourceName": "contracts/mock/MockDMMLibrary.sol",
  "abi": [
    {
      "inputs": [
        {
          "internalType": "uint256",
          "name": "amountOut",
          "type": "uint256"
        },
        {
          "internalType": "uint256",
          "name": "reserveIn",
          "type": "uint256"
        },
        {
          "internalType": "uint256",
          "name": "reserveOut",
          "type": "uint256"
        },
        {
          "internalType": "uint256",
          "name": "vReserveIn",
          "type": "uint256"
        },
        {
          "internalType": "uint256",
          "name": "vReserveOut",
          "type": "uint256"
        },
        {
          "internalType": "uint256",
          "name": "fee",
          "type": "uint256"
        }
      ],
      "name": "getAmountIn",
      "outputs": [
        {
          "internalType": "uint256",
          "name": "amountIn",
          "type": "uint256"
        }
      ],
      "stateMutability": "pure",
      "type": "function"
    },
    {
      "inputs": [
        {
          "internalType": "uint256",
          "name": "amountIn",
          "type": "uint256"
        },
        {
          "internalType": "uint256",
          "name": "reserveIn",
          "type": "uint256"
        },
        {
          "internalType": "uint256",
          "name": "reserveOut",
          "type": "uint256"
        },
        {
          "internalType": "uint256",
          "name": "vReserveIn",
          "type": "uint256"
        },
        {
          "internalType": "uint256",
          "name": "vReserveOut",
          "type": "uint256"
        },
        {
          "internalType": "uint256",
          "name": "fee",
          "type": "uint256"
        }
      ],
      "name": "getAmountOut",
      "outputs": [
        {
          "internalType": "uint256",
          "name": "amountOut",
          "type": "uint256"
        }
      ],
      "stateMutability": "pure",
      "type": "function"
    },
    {
      "inputs": [
        {
          "internalType": "contract IERC20",
          "name": "tokenA",
          "type": "address"
        },
        {
          "internalType": "contract IERC20",
          "name": "tokenB",
          "type": "address"
        }
      ],
      "name": "sortTokens",
      "outputs": [
        {
          "internalType": "contract IERC20",
          "name": "token0",
          "type": "address"
        },
        {
          "internalType": "contract IERC20",
          "name": "token1",
          "type": "address"
        }
      ],
      "stateMutability": "pure",
      "type": "function"
    }
  ],
  "bytecode": "0x608060405234801561001057600080fd5b50610873806100206000396000f3fe608060405234801561001057600080fd5b50600436106100415760003560e01c80635445b9f814610046578063544caa561461009357806360c26fbc14610117575b600080fd5b610081600480360360c081101561005c57600080fd5b5080359060208101359060408101359060608101359060808101359060a00135610152565b60408051918252519081900360200190f35b6100ce600480360360408110156100a957600080fd5b5073ffffffffffffffffffffffffffffffffffffffff8135811691602001351661016d565b604051808373ffffffffffffffffffffffffffffffffffffffff1681526020018273ffffffffffffffffffffffffffffffffffffffff1681526020019250505060405180910390f35b610081600480360360c081101561012d57600080fd5b5080359060208101359060408101359060608101359060808101359060a00135610186565b6000610162878787878787610196565b979650505050505050565b60008061017a848461030c565b915091505b9250929050565b600061016287878787878761046e565b60008087116101f0576040517f08c379a00000000000000000000000000000000000000000000000000000000081526004018080602001828103825260258152602001806108196025913960400191505060405180910390fd5b6000861180156102005750600085115b610255576040517f08c379a00000000000000000000000000000000000000000000000000000000081526004018080602001828103825260228152602001806107b06022913960400191505060405180910390fd5b600061027d670de0b6b3a764000061027761027082876105c4565b8b90610640565b906106ba565b9050600061028b8286610640565b90506000610299878461073b565b90506102a582826106ba565b93508388116102ff576040517f08c379a00000000000000000000000000000000000000000000000000000000081526004018080602001828103825260228152602001806107b06022913960400191505060405180910390fd5b5050509695505050505050565b6000808273ffffffffffffffffffffffffffffffffffffffff168473ffffffffffffffffffffffffffffffffffffffff1614156103aa57604080517f08c379a000000000000000000000000000000000000000000000000000000000815260206004820152601f60248201527f444d4d4c6962726172793a204944454e544943414c5f41444452455353455300604482015290519081900360640190fd5b8273ffffffffffffffffffffffffffffffffffffffff168473ffffffffffffffffffffffffffffffffffffffff16106103e45782846103e7565b83835b909250905073ffffffffffffffffffffffffffffffffffffffff821661017f57604080517f08c379a000000000000000000000000000000000000000000000000000000000815260206004820152601860248201527f444d4d4c6962726172793a205a45524f5f414444524553530000000000000000604482015290519081900360640190fd5b60008087116104c8576040517f08c379a00000000000000000000000000000000000000000000000000000000081526004018080602001828103825260268152602001806107f36026913960400191505060405180910390fd5b6000861180156104d757508685115b61052c576040517f08c379a00000000000000000000000000000000000000000000000000000000081526004018080602001828103825260228152602001806107b06022913960400191505060405180910390fd5b60006105388589610640565b90506000610546858a6105c4565b905061055d600161055784846106ba565b9061073b565b925061057183670de0b6b3a7640000610640565b9150610585670de0b6b3a7640000856105c4565b90506105b781610277847fffffffffffffffffffffffffffffffffffffffffffffffffffffffffffffffff830161073b565b9998505050505050505050565b60008282111561063557604080517f08c379a000000000000000000000000000000000000000000000000000000000815260206004820152601e60248201527f536166654d6174683a207375627472616374696f6e206f766572666c6f770000604482015290519081900360640190fd5b508082035b92915050565b60008261064f5750600061063a565b8282028284828161065c57fe5b04146106b3576040517f08c379a00000000000000000000000000000000000000000000000000000000081526004018080602001828103825260218152602001806107d26021913960400191505060405180910390fd5b9392505050565b600080821161072a57604080517f08c379a000000000000000000000000000000000000000000000000000000000815260206004820152601a60248201527f536166654d6174683a206469766973696f6e206279207a65726f000000000000604482015290519081900360640190fd5b81838161073357fe5b049392505050565b6000828201838110156106b357604080517f08c379a000000000000000000000000000000000000000000000000000000000815260206004820152601b60248201527f536166654d6174683a206164646974696f6e206f766572666c6f770000000000604482015290519081900360640190fdfe444d4d4c6962726172793a20494e53554646494349454e545f4c4951554944495459536166654d6174683a206d756c7469706c69636174696f6e206f766572666c6f77444d4d4c6962726172793a20494e53554646494349454e545f4f55545055545f414d4f554e54444d4d4c6962726172793a20494e53554646494349454e545f494e5055545f414d4f554e54a2646970667358221220b50db746e0188b6c8d76f319a94ce11326627e6c504d9177731c6072dfbe856964736f6c634300060c0033",
  "linkReferences": {},
  "deployedLinkReferences": {}
}