{
  "_format": "hh-sol-artifact-1",
  "contractName": "MockMathExt",
  "sourceName": "contracts/mock/MockMathExt.sol",
  "abi": [
    {
      "inputs": [
        {
          "internalType": "uint256",
          "name": "x",
          "type": "uint256"
        },
        {
          "internalType": "uint256",
          "name": "y",
          "type": "uint256"
        }
      ],
      "name": "mulInPrecision",
      "outputs": [
        {
          "internalType": "uint256",
          "name": "",
          "type": "uint256"
        }
      ],
      "stateMutability": "pure",
      "type": "function"
    },
    {
      "inputs": [
        {
          "internalType": "uint256",
          "name": "x",
          "type": "uint256"
        },
        {
          "internalType": "uint256",
          "name": "k",
          "type": "uint256"
        }
      ],
      "name": "powInPrecision",
      "outputs": [
        {
          "internalType": "uint256",
          "name": "",
          "type": "uint256"
        }
      ],
      "stateMutability": "pure",
      "type": "function"
    },
    {
      "inputs": [
        {
          "internalType": "uint256",
          "name": "x",
          "type": "uint256"
        }
      ],
      "name": "sqrt",
      "outputs": [
        {
          "internalType": "uint256",
          "name": "",
          "type": "uint256"
        }
      ],
      "stateMutability": "pure",
      "type": "function"
    }
  ],
  "bytecode": "0x608060405234801561001057600080fd5b506102fe806100206000396000f3fe608060405234801561001057600080fd5b50600436106100405760003560e01c806289e80f14610045578063677342ce1461007a578063f1ae8e6d14610097575b600080fd5b6100686004803603604081101561005b57600080fd5b50803590602001356100ba565b60408051918252519081900360200190f35b6100686004803603602081101561009057600080fd5b50356100cf565b610068600480360360408110156100ad57600080fd5b50803590602001356100e2565b60006100c683836100ee565b90505b92915050565b60006100da826101bf565b90505b919050565b60006100c68383610210565b6000670de0b6b3a764000083111561016757604080517f08c379a000000000000000000000000000000000000000000000000000000000815260206004820152601660248201527f4d6174684578743a2078203e20505245434953494f4e00000000000000000000604482015290519081900360640190fd5b6002820661017d57670de0b6b3a764000061017f565b825b90506002820491505b81156100c957670de0b6b3a764000083800204925060028206156101b457670de0b6b3a7640000908302045b600282049150610188565b60006003821115610202575080600160028204015b818110156101fc578091506002818285816101eb57fe5b0401816101f457fe5b0490506101d4565b506100dd565b81156100dd57506001919050565b6000670de0b6b3a76400006102258484610234565b8161022c57fe5b049392505050565b600082610243575060006100c9565b8282028284828161025057fe5b04146100c6576040517f08c379a00000000000000000000000000000000000000000000000000000000081526004018080602001828103825260218152602001806102a86021913960400191505060405180910390fdfe536166654d6174683a206d756c7469706c69636174696f6e206f766572666c6f77a264697066735822122034e90a491533457bc49f5bf6bfa5b6b4cd3f0af2bfbd07edea51fcf960b1eef864736f6c634300060c0033",
  "linkReferences": {},
  "deployedLinkReferences": {}
}