{
  "_format": "hh-sol-artifact-1",
  "contractName": "MockMathExt",
  "sourceName": "contracts/mock/MockMathExt.sol",
  "abi": [
    {
      "inputs": [
        {
          "internalType": "uint256",
          "name": "x",
          "type": "uint256"
        },
        {
          "internalType": "uint256",
          "name": "y",
          "type": "uint256"
        }
      ],
      "name": "mulInPrecision",
      "outputs": [
        {
          "internalType": "uint256",
          "name": "",
          "type": "uint256"
        }
      ],
      "stateMutability": "pure",
      "type": "function"
    },
    {
      "inputs": [
        {
          "internalType": "uint256",
          "name": "x",
          "type": "uint256"
        },
        {
          "internalType": "uint256",
          "name": "k",
          "type": "uint256"
        }
      ],
      "name": "powInPrecision",
      "outputs": [
        {
          "internalType": "uint256",
          "name": "",
          "type": "uint256"
        }
      ],
      "stateMutability": "pure",
      "type": "function"
    },
    {
      "inputs": [
        {
          "internalType": "uint256",
          "name": "x",
          "type": "uint256"
        }
      ],
      "name": "sqrt",
      "outputs": [
        {
          "internalType": "uint256",
          "name": "",
          "type": "uint256"
        }
      ],
      "stateMutability": "pure",
      "type": "function"
    }
  ],
  "bytecode": "0x608060405234801561001057600080fd5b506102c3806100206000396000f3fe608060405234801561001057600080fd5b50600436106100405760003560e01c806289e80f14610045578063677342ce1461007a578063f1ae8e6d14610097575b600080fd5b6100686004803603604081101561005b57600080fd5b50803590602001356100ba565b60408051918252519081900360200190f35b6100686004803603602081101561009057600080fd5b50356100cf565b610068600480360360408110156100ad57600080fd5b50803590602001356100e2565b60006100c683836100ee565b90505b92915050565b60006100da8261019e565b90505b919050565b60006100c683836101ef565b6000670de0b6b3a7640000831115610146576040805162461bcd60e51b815260206004820152601660248201527526b0ba3422bc3a1d103c101f10282922a1a4a9a4a7a760511b604482015290519081900360640190fd5b6002820661015c57670de0b6b3a764000061015e565b825b90506002820491505b81156100c957670de0b6b3a7640000838002049250600282061561019357670de0b6b3a7640000908302045b600282049150610167565b600060038211156101e1575080600160028204015b818110156101db578091506002818285816101ca57fe5b0401816101d357fe5b0490506101b3565b506100dd565b81156100dd57506001919050565b6000670de0b6b3a76400006102048484610213565b8161020b57fe5b049392505050565b600082610222575060006100c9565b8282028284828161022f57fe5b04146100c65760405162461bcd60e51b815260040180806020018281038252602181526020018061026d6021913960400191505060405180910390fdfe536166654d6174683a206d756c7469706c69636174696f6e206f766572666c6f77a26469706673582212207a7e78066cb8dd1e7d3d178e5e789eeb11454ee5e030901c40de2b0ff9d735cd64736f6c634300060c0033",
  "linkReferences": {},
  "deployedLinkReferences": {}
}