{
  "_format": "hh-sol-artifact-1",
  "contractName": "ZapIn",
  "sourceName": "contracts/periphery/ZapIn.sol",
  "abi": [
    {
      "inputs": [
        {
          "internalType": "contract IDMMFactory",
          "name": "_factory",
          "type": "address"
        },
        {
          "internalType": "address",
          "name": "_weth",
          "type": "address"
        }
      ],
      "stateMutability": "nonpayable",
      "type": "constructor"
    },
    {
      "inputs": [
        {
          "internalType": "contract IERC20",
          "name": "tokenIn",
          "type": "address"
        },
        {
          "internalType": "contract IERC20",
          "name": "tokenOut",
          "type": "address"
        },
        {
          "internalType": "address",
          "name": "pool",
          "type": "address"
        },
        {
          "internalType": "uint256",
          "name": "userIn",
          "type": "uint256"
        }
      ],
      "name": "calculateSwapAmounts",
      "outputs": [
        {
          "internalType": "uint256",
          "name": "amountSwap",
          "type": "uint256"
        },
        {
          "internalType": "uint256",
          "name": "amountOutput",
          "type": "uint256"
        }
      ],
      "stateMutability": "view",
      "type": "function"
    },
    {
      "inputs": [
        {
          "internalType": "contract IERC20",
          "name": "tokenIn",
          "type": "address"
        },
        {
          "internalType": "contract IERC20",
          "name": "tokenOut",
          "type": "address"
        },
        {
          "internalType": "address",
          "name": "pool",
          "type": "address"
        },
        {
          "internalType": "uint256",
          "name": "userIn",
          "type": "uint256"
        }
      ],
      "name": "calculateZapInAmounts",
      "outputs": [
        {
          "internalType": "uint256",
          "name": "tokenInAmount",
          "type": "uint256"
        },
        {
          "internalType": "uint256",
          "name": "tokenOutAmount",
          "type": "uint256"
        }
      ],
      "stateMutability": "view",
      "type": "function"
    },
    {
      "inputs": [
        {
          "internalType": "contract IERC20",
          "name": "tokenIn",
          "type": "address"
        },
        {
          "internalType": "contract IERC20",
          "name": "tokenOut",
          "type": "address"
        },
        {
          "internalType": "address",
          "name": "pool",
          "type": "address"
        },
        {
          "internalType": "uint256",
          "name": "lpQty",
          "type": "uint256"
        }
      ],
      "name": "calculateZapOutAmount",
      "outputs": [
        {
          "internalType": "uint256",
          "name": "",
          "type": "uint256"
        }
      ],
      "stateMutability": "view",
      "type": "function"
    },
    {
      "inputs": [],
      "name": "factory",
      "outputs": [
        {
          "internalType": "contract IDMMFactory",
          "name": "",
          "type": "address"
        }
      ],
      "stateMutability": "view",
      "type": "function"
    },
    {
      "inputs": [],
      "name": "weth",
      "outputs": [
        {
          "internalType": "address",
          "name": "",
          "type": "address"
        }
      ],
      "stateMutability": "view",
      "type": "function"
    },
    {
      "inputs": [
        {
          "internalType": "contract IERC20",
          "name": "tokenIn",
          "type": "address"
        },
        {
          "internalType": "contract IERC20",
          "name": "tokenOut",
          "type": "address"
        },
        {
          "internalType": "uint256",
          "name": "userIn",
          "type": "uint256"
        },
        {
          "internalType": "address",
          "name": "pool",
          "type": "address"
        },
        {
          "internalType": "address",
          "name": "to",
          "type": "address"
        },
        {
          "internalType": "uint256",
          "name": "minLpQty",
          "type": "uint256"
        },
        {
          "internalType": "uint256",
          "name": "deadline",
          "type": "uint256"
        }
      ],
      "name": "zapIn",
      "outputs": [
        {
          "internalType": "uint256",
          "name": "lpQty",
          "type": "uint256"
        }
      ],
      "stateMutability": "nonpayable",
      "type": "function"
    },
    {
      "inputs": [
        {
          "internalType": "contract IERC20",
          "name": "tokenOut",
          "type": "address"
        },
        {
          "internalType": "address",
          "name": "pool",
          "type": "address"
        },
        {
          "internalType": "address",
          "name": "to",
          "type": "address"
        },
        {
          "internalType": "uint256",
          "name": "minLpQty",
          "type": "uint256"
        },
        {
          "internalType": "uint256",
          "name": "deadline",
          "type": "uint256"
        }
      ],
      "name": "zapInEth",
      "outputs": [
        {
          "internalType": "uint256",
          "name": "lpQty",
          "type": "uint256"
        }
      ],
      "stateMutability": "payable",
      "type": "function"
    },
    {
      "inputs": [
        {
          "internalType": "contract IERC20",
          "name": "tokenIn",
          "type": "address"
        },
        {
          "internalType": "contract IERC20",
          "name": "tokenOut",
          "type": "address"
        },
        {
          "internalType": "uint256",
          "name": "liquidity",
          "type": "uint256"
        },
        {
          "internalType": "address",
          "name": "pool",
          "type": "address"
        },
        {
          "internalType": "address",
          "name": "to",
          "type": "address"
        },
        {
          "internalType": "uint256",
          "name": "minTokenOut",
          "type": "uint256"
        },
        {
          "internalType": "uint256",
          "name": "deadline",
          "type": "uint256"
        }
      ],
      "name": "zapOut",
      "outputs": [
        {
          "internalType": "uint256",
          "name": "amountOut",
          "type": "uint256"
        }
      ],
      "stateMutability": "nonpayable",
      "type": "function"
    },
    {
      "inputs": [
        {
          "internalType": "contract IERC20",
          "name": "tokenIn",
          "type": "address"
        },
        {
          "internalType": "uint256",
          "name": "liquidity",
          "type": "uint256"
        },
        {
          "internalType": "address",
          "name": "pool",
          "type": "address"
        },
        {
          "internalType": "address",
          "name": "to",
          "type": "address"
        },
        {
          "internalType": "uint256",
          "name": "minTokenOut",
          "type": "uint256"
        },
        {
          "internalType": "uint256",
          "name": "deadline",
          "type": "uint256"
        }
      ],
      "name": "zapOutEth",
      "outputs": [
        {
          "internalType": "uint256",
          "name": "amountOut",
          "type": "uint256"
        }
      ],
      "stateMutability": "nonpayable",
      "type": "function"
    },
    {
      "inputs": [
        {
          "internalType": "contract IERC20",
          "name": "tokenIn",
          "type": "address"
        },
        {
          "internalType": "uint256",
          "name": "liquidity",
          "type": "uint256"
        },
        {
          "internalType": "address",
          "name": "pool",
          "type": "address"
        },
        {
          "internalType": "address",
          "name": "to",
          "type": "address"
        },
        {
          "internalType": "uint256",
          "name": "minTokenOut",
          "type": "uint256"
        },
        {
          "internalType": "uint256",
          "name": "deadline",
          "type": "uint256"
        },
        {
          "internalType": "bool",
          "name": "approveMax",
          "type": "bool"
        },
        {
          "internalType": "uint8",
          "name": "v",
          "type": "uint8"
        },
        {
          "internalType": "bytes32",
          "name": "r",
          "type": "bytes32"
        },
        {
          "internalType": "bytes32",
          "name": "s",
          "type": "bytes32"
        }
      ],
      "name": "zapOutEthPermit",
      "outputs": [
        {
          "internalType": "uint256",
          "name": "amountOut",
          "type": "uint256"
        }
      ],
      "stateMutability": "nonpayable",
      "type": "function"
    },
    {
      "inputs": [
        {
          "internalType": "contract IERC20",
          "name": "tokenIn",
          "type": "address"
        },
        {
          "internalType": "contract IERC20",
          "name": "tokenOut",
          "type": "address"
        },
        {
          "internalType": "uint256",
          "name": "liquidity",
          "type": "uint256"
        },
        {
          "internalType": "address",
          "name": "pool",
          "type": "address"
        },
        {
          "internalType": "address",
          "name": "to",
          "type": "address"
        },
        {
          "internalType": "uint256",
          "name": "minTokenOut",
          "type": "uint256"
        },
        {
          "internalType": "uint256",
          "name": "deadline",
          "type": "uint256"
        },
        {
          "internalType": "bool",
          "name": "approveMax",
          "type": "bool"
        },
        {
          "internalType": "uint8",
          "name": "v",
          "type": "uint8"
        },
        {
          "internalType": "bytes32",
          "name": "r",
          "type": "bytes32"
        },
        {
          "internalType": "bytes32",
          "name": "s",
          "type": "bytes32"
        }
      ],
      "name": "zapOutPermit",
      "outputs": [
        {
          "internalType": "uint256",
          "name": "amountOut",
          "type": "uint256"
        }
      ],
      "stateMutability": "nonpayable",
      "type": "function"
    },
    {
      "stateMutability": "payable",
      "type": "receive"
    }
  ],
  "bytecode": "0x60c060405234801561001057600080fd5b506040516123d03803806123d08339818101604052604081101561003357600080fd5b5080516020909101516001600160601b0319606092831b8116608052911b1660a05260805160601c60a05160601c61230d6100c36000398060b052806105185280610543528061085a5280610a5b5280610ad55280610b0e5280610b3b5280610b7a5280610ce65280610d1152508061060d5280610da75280610eed5280610f905280611bda525061230d6000f3fe6080604052600436106100a05760003560e01c80635ce9303a116100645780635ce9303a146102c1578063716793091461031e5780639711c8c514610360578063b7b9015d146103b7578063c45a015514610400578063d4f9ec7314610415576100d9565b80630fe9b4b6146100de5780631ffbd649146101675780632bb1a4ec146101b05780633e6ddaaa1461022e5780633fc8cef314610290576100d9565b366100d957336001600160a01b037f000000000000000000000000000000000000000000000000000000000000000016146100d757fe5b005b600080fd5b3480156100ea57600080fd5b50610155600480360361014081101561010257600080fd5b506001600160a01b038135811691602081013591604082013581169160608101359091169060808101359060a08101359060c081013515159060ff60e08201351690610100810135906101200135610472565b60408051918252519081900360200190f35b34801561017357600080fd5b506101556004803603608081101561018a57600080fd5b506001600160a01b038135811691602081013582169160408201351690606001356105d8565b3480156101bc57600080fd5b5061015560048036036101608110156101d457600080fd5b506001600160a01b038135811691602081013582169160408201359160608101358216916080820135169060a08101359060c08101359060e081013515159060ff610100820135169061012081013590610140013561070d565b34801561023a57600080fd5b506102776004803603608081101561025157600080fd5b506001600160a01b0381358116916020810135821691604082013516906060013561082d565b6040805192835260208301919091528051918290030190f35b34801561029c57600080fd5b506102a5610858565b604080516001600160a01b039092168252519081900360200190f35b3480156102cd57600080fd5b50610155600480360360e08110156102e457600080fd5b506001600160a01b038135811691602081013582169160408201359160608101358216916080820135169060a08101359060c0013561087c565b610155600480360360a081101561033457600080fd5b506001600160a01b03813581169160208101358216916040820135169060608101359060800135610a0c565b34801561036c57600080fd5b50610155600480360360c081101561038357600080fd5b506001600160a01b038135811691602081013591604082013581169160608101359091169060808101359060a00135610c93565b3480156103c357600080fd5b50610277600480360360808110156103da57600080fd5b506001600160a01b03813581169160208101358216916040820135169060600135610da2565b34801561040c57600080fd5b506102a5610eeb565b34801561042157600080fd5b50610155600480360360e081101561043857600080fd5b506001600160a01b038135811691602081013582169160408201359160608101358216916080820135169060a08101359060c00135610f0f565b60008085610480578a610484565b6000195b6040805163d505accf60e01b815233600482015230602482015260448101839052606481018a905260ff8816608482015260a4810187905260c4810186905290519192506001600160a01b038c169163d505accf9160e48082019260009290919082900301818387803b1580156104fa57600080fd5b505af115801561050e573d6000803e3d6000fd5b5050505061053f8c7f00000000000000000000000000000000000000000000000000000000000000008d8d8c610f8b565b91507f00000000000000000000000000000000000000000000000000000000000000006001600160a01b0316632e1a7d4d836040518263ffffffff1660e01b815260040180828152602001915050600060405180830381600087803b1580156105a757600080fd5b505af11580156105bb573d6000803e3d6000fd5b505050506105c98983611223565b509a9950505050505050505050565b6040805163eb787f6160e01b81526001600160a01b0386811660048301528581166024830152848116604483015291516000927f0000000000000000000000000000000000000000000000000000000000000000169163eb787f61916064808301926020929190829003018186803b15801561065357600080fd5b505afa158015610667573d6000803e3d6000fd5b505050506040513d602081101561067d57600080fd5b50516106bf576040805162461bcd60e51b815260206004820152600c60248201526b1253959053125117d413d3d360a21b604482015290519081900360640190fd5b6000806106ca6121bc565b6106d68689898861131b565b9250925092506106fe8382600001518360200151846040015185606001518660800151611504565b90910192505050949350505050565b6000854281101561075a576040805162461bcd60e51b8152602060048201526012602482015271111353549bdd5d195c8e881156141254915160721b604482015290519081900360640190fd5b600086610767578b61076b565b6000195b6040805163d505accf60e01b815233600482015230602482015260448101839052606481018b905260ff8916608482015260a4810188905260c4810187905290519192506001600160a01b038d169163d505accf9160e48082019260009290919082900301818387803b1580156107e157600080fd5b505af11580156107f5573d6000803e3d6000fd5b505050506108068e8e8e8e8d610f8b565b925061081c6001600160a01b038e168b8561162c565b50509b9a5050505050505050505050565b600080600061083e87878787610da2565b9250905061084c848261167e565b92505094509492505050565b7f000000000000000000000000000000000000000000000000000000000000000081565b600081428110156108c9576040805162461bcd60e51b8152602060048201526012602482015271111353549bdd5d195c8e881156141254915160721b604482015290519081900360640190fd5b6000806108d88b8b8a8c610da2565b90925090506108f26001600160a01b038c16338a856116e0565b6108ff818c8c8b30611740565b610920338961090e8c8661167e565b6001600160a01b038f169291906116e0565b6109346001600160a01b038b16898361162c565b876001600160a01b0316636a627842886040518263ffffffff1660e01b815260040180826001600160a01b03168152602001915050602060405180830381600087803b15801561098357600080fd5b505af1158015610997573d6000803e3d6000fd5b505050506040513d60208110156109ad57600080fd5b50519350858410156109fe576040805162461bcd60e51b8152602060048201526015602482015274494e53554646494349454e545f4d494e545f51545960581b604482015290519081900360640190fd5b505050979650505050505050565b60008142811015610a59576040805162461bcd60e51b8152602060048201526012602482015271111353549bdd5d195c8e881156141254915160721b604482015290519081900360640190fd5b7f00000000000000000000000000000000000000000000000000000000000000006001600160a01b031663d0e30db0346040518263ffffffff1660e01b81526004016000604051808303818588803b158015610ab457600080fd5b505af1158015610ac8573d6000803e3d6000fd5b5050505050600080610afc7f00000000000000000000000000000000000000000000000000000000000000008a8a34610da2565b9092509050610b356001600160a01b037f000000000000000000000000000000000000000000000000000000000000000016898461162c565b610b62817f00000000000000000000000000000000000000000000000000000000000000008b8b30611740565b610ba188610b70348561167e565b6001600160a01b037f000000000000000000000000000000000000000000000000000000000000000016919061162c565b610bb56001600160a01b038a16898361162c565b876001600160a01b0316636a627842886040518263ffffffff1660e01b815260040180826001600160a01b03168152602001915050602060405180830381600087803b158015610c0457600080fd5b505af1158015610c18573d6000803e3d6000fd5b505050506040513d6020811015610c2e57600080fd5b5051935085841015610c87576040805162461bcd60e51b815260206004820181905260248201527f444d4d526f757465723a20494e53554646494349454e545f4d494e545f515459604482015290519081900360640190fd5b50505095945050505050565b60008142811015610ce0576040805162461bcd60e51b8152602060048201526012602482015271111353549bdd5d195c8e881156141254915160721b604482015290519081900360640190fd5b610d0d887f0000000000000000000000000000000000000000000000000000000000000000898988610f8b565b91507f00000000000000000000000000000000000000000000000000000000000000006001600160a01b0316632e1a7d4d836040518263ffffffff1660e01b815260040180828152602001915050600060405180830381600087803b158015610d7557600080fd5b505af1158015610d89573d6000803e3d6000fd5b50505050610d978583611223565b509695505050505050565b6000807f00000000000000000000000000000000000000000000000000000000000000006001600160a01b031663eb787f618787876040518463ffffffff1660e01b815260040180846001600160a01b03168152602001836001600160a01b03168152602001826001600160a01b03168152602001935050505060206040518083038186803b158015610e3457600080fd5b505afa158015610e48573d6000803e3d6000fd5b505050506040513d6020811015610e5e57600080fd5b5051610ea0576040805162461bcd60e51b815260206004820152600c60248201526b1253959053125117d413d3d360a21b604482015290519081900360640190fd5b6000806000806000610eb3898c8c611870565b94509450945094509450610ecb85858585858d61196a565b9650610edb878686868686611504565b9550505050505094509492505050565b7f000000000000000000000000000000000000000000000000000000000000000081565b60008142811015610f5c576040805162461bcd60e51b8152602060048201526012602482015271111353549bdd5d195c8e881156141254915160721b604482015290519081900360640190fd5b610f698989898988610f8b565b9150610f7f6001600160a01b038916868461162c565b50979650505050505050565b6000807f00000000000000000000000000000000000000000000000000000000000000006001600160a01b031663eb787f618888876040518463ffffffff1660e01b815260040180846001600160a01b03168152602001836001600160a01b03168152602001826001600160a01b03168152602001935050505060206040518083038186803b15801561101d57600080fd5b505afa158015611031573d6000803e3d6000fd5b505050506040513d602081101561104757600080fd5b5051611089576040805162461bcd60e51b815260206004820152600c60248201526b1253959053125117d413d3d360a21b604482015290519081900360640190fd5b61109e6001600160a01b0385163386886116e0565b600080856001600160a01b03166389afcb44306040518263ffffffff1660e01b815260040180826001600160a01b031681526020019150506040805180830381600087803b1580156110ef57600080fd5b505af1158015611103573d6000803e3d6000fd5b505050506040513d604081101561111957600080fd5b508051602090910151909250905060006111338a8a611a5d565b509050806001600160a01b03168a6001600160a01b031614611156578183611159565b82825b95509350600092508291508190508080806111758a8e8e611870565b9450945094509450945061118d878686868686611504565b955050505050506111b285838a6001600160a01b031661162c9092919063ffffffff16565b6111bf8189898830611740565b9182019183831015611218576040805162461bcd60e51b815260206004820152601a60248201527f494e53554646494349454e545f4f55545055545f414d4f554e54000000000000604482015290519081900360640190fd5b505095945050505050565b604080516000808252602082019092526001600160a01b0384169083906040518082805190602001908083835b6020831061126f5780518252601f199092019160209182019101611250565b6001836020036101000a03801982511681845116808217855250505050505090500191505060006040518083038185875af1925050503d80600081146112d1576040519150601f19603f3d011682016040523d82523d6000602084013e6112d6565b606091505b50509050806113165760405162461bcd60e51b815260040180806020018281038252603481526020018061220e6034913960400191505060405180910390fd5b505050565b6000806113266121bc565b61132e6121bc565b611339888888611870565b60808601526060850152604084015260208301528152600061135b8983611b51565b90506000896001600160a01b03166349386b166040518163ffffffff1660e01b815260040160206040518083038186803b15801561139857600080fd5b505afa1580156113ac573d6000803e3d6000fd5b505050506040513d60208110156113c257600080fd5b5051835161271063ffffffff9283161415925083916113e3918a91611d5516565b816113ea57fe5b04955081611405846020015189611d5590919063ffffffff16565b8161140c57fe5b84518890038652602080860151929091049182900390860152945080156114d95782518451600091611473916114429086611d55565b8161144957fe5b048560200151611466868960200151611d5590919063ffffffff16565b8161146d57fe5b04611db5565b90506114a283611490838760400151611d5590919063ffffffff16565b8161149757fe5b048660000151611dcb565b604086015260608401516114ce9084906114bc9084611d55565b816114c357fe5b048660200151611dcb565b6060860152506114eb565b83516040850152602084015160608501525b5050608090810151908201529196909550909350915050565b60008087116115445760405162461bcd60e51b81526004018080602001828103825260258152602001806122896025913960400191505060405180910390fd5b6000861180156115545750600085115b61158f5760405162461bcd60e51b81526004018080602001828103825260228152602001806121ec6022913960400191505060405180910390fd5b60006115b7670de0b6b3a76400006115b16115aa828761167e565b8b90611d55565b90611ddb565b905060006115c58286611d55565b905060006115d38784611e42565b90506115df8282611ddb565b935083881161161f5760405162461bcd60e51b81526004018080602001828103825260228152602001806121ec6022913960400191505060405180910390fd5b5050509695505050505050565b604080516001600160a01b038416602482015260448082018490528251808303909101815260649091019091526020810180516001600160e01b031663a9059cbb60e01b179052611316908490611e9c565b6000828211156116d5576040805162461bcd60e51b815260206004820152601e60248201527f536166654d6174683a207375627472616374696f6e206f766572666c6f770000604482015290519081900360640190fd5b508082035b92915050565b604080516001600160a01b0380861660248301528416604482015260648082018490528251808303909101815260849091019091526020810180516001600160e01b03166323b872dd60e01b17905261173a908590611e9c565b50505050565b600061174c8585611a5d565b509050600080826001600160a01b0316876001600160a01b03161461177357876000611777565b6000885b604080516000808252602082019283905263022c0d9f60e01b835260248201858152604483018590526001600160a01b038a81166064850152608060848501908152845160a486018190529799509597508b169563022c0d9f95899589958d9590949360c4860192918190849084905b838110156117ff5781810151838201526020016117e7565b50505050905090810190601f16801561182c5780820380516001836020036101000a031916815260200191505b5095505050505050600060405180830381600087803b15801561184e57600080fd5b505af1158015611862573d6000803e3d6000fd5b505050505050505050505050565b6000806000806000806118838888611a5d565b5090506000806000808c6001600160a01b031663d66940276040518163ffffffff1660e01b815260040160a06040518083038186803b1580156118c557600080fd5b505afa1580156118d9573d6000803e3d6000fd5b505050506040513d60a08110156118ef57600080fd5b50805160208201516040830151606084015160809094015199506dffffffffffffffffffffffffffff92831697509082169550811693501690506001600160a01b038c811690861614611945578284828461194a565b838383835b809a50819b50829c50839d50505050505050505050939792965093509350565b6000670de0b6b3a7640000839003818061198e611987888b61167e565b8690611d55565b90506119a461199d888c611d55565b8290611e42565b9050670de0b6b3a76400006119c3846119bd848d611ddb565b90611d55565b816119ca57fe5b0491506119d78289611e42565b9150600090506119e78886611d55565b90506000611a2e83611a28611a23670de0b6b3a7640000611a0b8760048b02611d55565b81611a1257fe5b04611a1d8880611d55565b90611e42565b611f4d565b9061167e565b905060028402611a4682670de0b6b3a7640000611d55565b81611a4d57fe5b049b9a5050505050505050505050565b600080826001600160a01b0316846001600160a01b03161415611ac7576040805162461bcd60e51b815260206004820152601f60248201527f444d4d4c6962726172793a204944454e544943414c5f41444452455353455300604482015290519081900360640190fd5b826001600160a01b0316846001600160a01b031610611ae7578284611aea565b83835b90925090506001600160a01b038216611b4a576040805162461bcd60e51b815260206004820152601860248201527f444d4d4c6962726172793a205a45524f5f414444524553530000000000000000604482015290519081900360640190fd5b9250929050565b6000826001600160a01b03166318160ddd6040518163ffffffff1660e01b815260040160206040518083038186803b158015611b8c57600080fd5b505afa158015611ba0573d6000803e3d6000fd5b505050506040513d6020811015611bb657600080fd5b50516040805163ad5cb2e160e01b8152815192935060009283926001600160a01b037f0000000000000000000000000000000000000000000000000000000000000000169263ad5cb2e19260048083019392829003018186803b158015611c1c57600080fd5b505afa158015611c30573d6000803e3d6000fd5b505050506040513d6040811015611c4657600080fd5b50805160209091015190925090506001600160a01b038216611c695750506116da565b6000856001600160a01b0316637464fc3d6040518163ffffffff1660e01b815260040160206040518083038186803b158015611ca457600080fd5b505afa158015611cb8573d6000803e3d6000fd5b505050506040513d6020811015611cce57600080fd5b5051905080611cdf575050506116da565b6000611cea82611f4d565b90506000611d018760600151886040015102611f4d565b90506000611d2161ffff86166119bd611d1a858761167e565b8a90611d55565b90506000611d356113886119bd8587611e42565b90506000818381611d4257fe5b04989098019a9950505050505050505050565b600082611d64575060006116da565b82820282848281611d7157fe5b0414611dae5760405162461bcd60e51b81526004018080602001828103825260218152602001806122686021913960400191505060405180910390fd5b9392505050565b6000818310611dc45781611dae565b5090919050565b600081831015611dc45781611dae565b6000808211611e31576040805162461bcd60e51b815260206004820152601a60248201527f536166654d6174683a206469766973696f6e206279207a65726f000000000000604482015290519081900360640190fd5b818381611e3a57fe5b049392505050565b600082820183811015611dae576040805162461bcd60e51b815260206004820152601b60248201527f536166654d6174683a206164646974696f6e206f766572666c6f770000000000604482015290519081900360640190fd5b6060611ef1826040518060400160405280602081526020017f5361666545524332303a206c6f772d6c6576656c2063616c6c206661696c6564815250856001600160a01b0316611f9f9092919063ffffffff16565b80519091501561131657808060200190516020811015611f1057600080fd5b50516113165760405162461bcd60e51b815260040180806020018281038252602a8152602001806122ae602a913960400191505060405180910390fd5b60006003821115611f90575080600160028204015b81811015611f8a57809150600281828581611f7957fe5b040181611f8257fe5b049050611f62565b50611f9a565b8115611f9a575060015b919050565b6060611fae8484600085611fb6565b949350505050565b606082471015611ff75760405162461bcd60e51b81526004018080602001828103825260268152602001806122426026913960400191505060405180910390fd5b61200085612112565b612051576040805162461bcd60e51b815260206004820152601d60248201527f416464726573733a2063616c6c20746f206e6f6e2d636f6e7472616374000000604482015290519081900360640190fd5b60006060866001600160a01b031685876040518082805190602001908083835b602083106120905780518252601f199092019160209182019101612071565b6001836020036101000a03801982511681845116808217855250505050505090500191505060006040518083038185875af1925050503d80600081146120f2576040519150601f19603f3d011682016040523d82523d6000602084013e6120f7565b606091505b5091509150612107828286612118565b979650505050505050565b3b151590565b60608315612127575081611dae565b8251156121375782518084602001fd5b8160405162461bcd60e51b81526004018080602001828103825283818151815260200191508051906020019080838360005b83811015612181578181015183820152602001612169565b50505050905090810190601f1680156121ae5780820380516001836020036101000a031916815260200191505b509250505060405180910390fd5b6040518060a001604052806000815260200160008152602001600081526020016000815260200160008152509056fe444d4d4c6962726172793a20494e53554646494349454e545f4c49515549444954595472616e7366657248656c7065723a3a736166655472616e736665724554483a20455448207472616e73666572206661696c6564416464726573733a20696e73756666696369656e742062616c616e636520666f722063616c6c536166654d6174683a206d756c7469706c69636174696f6e206f766572666c6f77444d4d4c6962726172793a20494e53554646494349454e545f494e5055545f414d4f554e545361666545524332303a204552433230206f7065726174696f6e20646964206e6f742073756363656564a264697066735822122048182b5fddcab54b865159609ff932312d4ebfdeebb2ae0eb2c9a4d44a45605764736f6c634300060c0033",
  "linkReferences": {},
  "deployedLinkReferences": {}
}