{
  "_format": "hh-sol-artifact-1",
  "contractName": "ZapIn",
  "sourceName": "contracts/periphery/ZapIn.sol",
  "abi": [
    {
      "inputs": [
        {
          "internalType": "contract IDMMFactory",
          "name": "_factory",
          "type": "address"
        },
        {
          "internalType": "address",
          "name": "_weth",
          "type": "address"
        }
      ],
      "stateMutability": "nonpayable",
      "type": "constructor"
    },
    {
      "inputs": [
        {
          "internalType": "contract IERC20",
          "name": "tokenIn",
          "type": "address"
        },
        {
          "internalType": "contract IERC20",
          "name": "tokenOut",
          "type": "address"
        },
        {
          "internalType": "address",
          "name": "pool",
          "type": "address"
        },
        {
          "internalType": "uint256",
          "name": "userIn",
          "type": "uint256"
        }
      ],
      "name": "calculateSwapAmounts",
      "outputs": [
        {
          "internalType": "uint256",
          "name": "amountSwap",
          "type": "uint256"
        },
        {
          "internalType": "uint256",
          "name": "amountOutput",
          "type": "uint256"
        }
      ],
      "stateMutability": "view",
      "type": "function"
    },
    {
      "inputs": [
        {
          "internalType": "contract IERC20",
          "name": "tokenIn",
          "type": "address"
        },
        {
          "internalType": "contract IERC20",
          "name": "tokenOut",
          "type": "address"
        },
        {
          "internalType": "address",
          "name": "pool",
          "type": "address"
        },
        {
          "internalType": "uint256",
          "name": "userIn",
          "type": "uint256"
        }
      ],
      "name": "calculateZapInAmounts",
      "outputs": [
        {
          "internalType": "uint256",
          "name": "tokenInAmount",
          "type": "uint256"
        },
        {
          "internalType": "uint256",
          "name": "tokenOutAmount",
          "type": "uint256"
        }
      ],
      "stateMutability": "view",
      "type": "function"
    },
    {
      "inputs": [
        {
          "internalType": "contract IERC20",
          "name": "tokenIn",
          "type": "address"
        },
        {
          "internalType": "contract IERC20",
          "name": "tokenOut",
          "type": "address"
        },
        {
          "internalType": "address",
          "name": "pool",
          "type": "address"
        },
        {
          "internalType": "uint256",
          "name": "lpQty",
          "type": "uint256"
        }
      ],
      "name": "calculateZapOutAmount",
      "outputs": [
        {
          "internalType": "uint256",
          "name": "",
          "type": "uint256"
        }
      ],
      "stateMutability": "view",
      "type": "function"
    },
    {
      "inputs": [],
      "name": "factory",
      "outputs": [
        {
          "internalType": "contract IDMMFactory",
          "name": "",
          "type": "address"
        }
      ],
      "stateMutability": "view",
      "type": "function"
    },
    {
      "inputs": [],
      "name": "weth",
      "outputs": [
        {
          "internalType": "address",
          "name": "",
          "type": "address"
        }
      ],
      "stateMutability": "view",
      "type": "function"
    },
    {
      "inputs": [
        {
          "internalType": "contract IERC20",
          "name": "tokenIn",
          "type": "address"
        },
        {
          "internalType": "contract IERC20",
          "name": "tokenOut",
          "type": "address"
        },
        {
          "internalType": "uint256",
          "name": "userIn",
          "type": "uint256"
        },
        {
          "internalType": "address",
          "name": "pool",
          "type": "address"
        },
        {
          "internalType": "address",
          "name": "to",
          "type": "address"
        },
        {
          "internalType": "uint256",
          "name": "minLpQty",
          "type": "uint256"
        },
        {
          "internalType": "uint256",
          "name": "deadline",
          "type": "uint256"
        }
      ],
      "name": "zapIn",
      "outputs": [
        {
          "internalType": "uint256",
          "name": "lpQty",
          "type": "uint256"
        }
      ],
      "stateMutability": "nonpayable",
      "type": "function"
    },
    {
      "inputs": [
        {
          "internalType": "contract IERC20",
          "name": "tokenOut",
          "type": "address"
        },
        {
          "internalType": "address",
          "name": "pool",
          "type": "address"
        },
        {
          "internalType": "address",
          "name": "to",
          "type": "address"
        },
        {
          "internalType": "uint256",
          "name": "minLpQty",
          "type": "uint256"
        },
        {
          "internalType": "uint256",
          "name": "deadline",
          "type": "uint256"
        }
      ],
      "name": "zapInEth",
      "outputs": [
        {
          "internalType": "uint256",
          "name": "lpQty",
          "type": "uint256"
        }
      ],
      "stateMutability": "payable",
      "type": "function"
    },
    {
      "inputs": [
        {
          "internalType": "contract IERC20",
          "name": "tokenIn",
          "type": "address"
        },
        {
          "internalType": "contract IERC20",
          "name": "tokenOut",
          "type": "address"
        },
        {
          "internalType": "uint256",
          "name": "liquidity",
          "type": "uint256"
        },
        {
          "internalType": "address",
          "name": "pool",
          "type": "address"
        },
        {
          "internalType": "address",
          "name": "to",
          "type": "address"
        },
        {
          "internalType": "uint256",
          "name": "minTokenOut",
          "type": "uint256"
        },
        {
          "internalType": "uint256",
          "name": "deadline",
          "type": "uint256"
        }
      ],
      "name": "zapOut",
      "outputs": [
        {
          "internalType": "uint256",
          "name": "amountOut",
          "type": "uint256"
        }
      ],
      "stateMutability": "nonpayable",
      "type": "function"
    },
    {
      "inputs": [
        {
          "internalType": "contract IERC20",
          "name": "tokenIn",
          "type": "address"
        },
        {
          "internalType": "uint256",
          "name": "liquidity",
          "type": "uint256"
        },
        {
          "internalType": "address",
          "name": "pool",
          "type": "address"
        },
        {
          "internalType": "address",
          "name": "to",
          "type": "address"
        },
        {
          "internalType": "uint256",
          "name": "minTokenOut",
          "type": "uint256"
        },
        {
          "internalType": "uint256",
          "name": "deadline",
          "type": "uint256"
        }
      ],
      "name": "zapOutEth",
      "outputs": [
        {
          "internalType": "uint256",
          "name": "amountOut",
          "type": "uint256"
        }
      ],
      "stateMutability": "nonpayable",
      "type": "function"
    },
    {
      "inputs": [
        {
          "internalType": "contract IERC20",
          "name": "tokenIn",
          "type": "address"
        },
        {
          "internalType": "uint256",
          "name": "liquidity",
          "type": "uint256"
        },
        {
          "internalType": "address",
          "name": "pool",
          "type": "address"
        },
        {
          "internalType": "address",
          "name": "to",
          "type": "address"
        },
        {
          "internalType": "uint256",
          "name": "minTokenOut",
          "type": "uint256"
        },
        {
          "internalType": "uint256",
          "name": "deadline",
          "type": "uint256"
        },
        {
          "internalType": "bool",
          "name": "approveMax",
          "type": "bool"
        },
        {
          "internalType": "uint8",
          "name": "v",
          "type": "uint8"
        },
        {
          "internalType": "bytes32",
          "name": "r",
          "type": "bytes32"
        },
        {
          "internalType": "bytes32",
          "name": "s",
          "type": "bytes32"
        }
      ],
      "name": "zapOutEthPermit",
      "outputs": [
        {
          "internalType": "uint256",
          "name": "amountOut",
          "type": "uint256"
        }
      ],
      "stateMutability": "nonpayable",
      "type": "function"
    },
    {
      "inputs": [
        {
          "internalType": "contract IERC20",
          "name": "tokenIn",
          "type": "address"
        },
        {
          "internalType": "contract IERC20",
          "name": "tokenOut",
          "type": "address"
        },
        {
          "internalType": "uint256",
          "name": "liquidity",
          "type": "uint256"
        },
        {
          "internalType": "address",
          "name": "pool",
          "type": "address"
        },
        {
          "internalType": "address",
          "name": "to",
          "type": "address"
        },
        {
          "internalType": "uint256",
          "name": "minTokenOut",
          "type": "uint256"
        },
        {
          "internalType": "uint256",
          "name": "deadline",
          "type": "uint256"
        },
        {
          "internalType": "bool",
          "name": "approveMax",
          "type": "bool"
        },
        {
          "internalType": "uint8",
          "name": "v",
          "type": "uint8"
        },
        {
          "internalType": "bytes32",
          "name": "r",
          "type": "bytes32"
        },
        {
          "internalType": "bytes32",
          "name": "s",
          "type": "bytes32"
        }
      ],
      "name": "zapOutPermit",
      "outputs": [
        {
          "internalType": "uint256",
          "name": "amountOut",
          "type": "uint256"
        }
      ],
      "stateMutability": "nonpayable",
      "type": "function"
    },
    {
      "stateMutability": "payable",
      "type": "receive"
    }
  ],
  "bytecode": "0x60c060405234801561001057600080fd5b506040516123df3803806123df8339818101604052604081101561003357600080fd5b5080516020909101516001600160601b0319606092831b8116608052911b1660a05260805160601c60a05160601c61231c6100c36000398060b052806105185280610543528061085a5280610a5b5280610ad55280610b0e5280610b3b5280610b7a5280610cd05280610cfb52508061060d5280610d915280610ed75280610f7a5280611bc4525061231c6000f3fe6080604052600436106100a05760003560e01c80635ce9303a116100645780635ce9303a146102c1578063716793091461031e5780639711c8c514610360578063b7b9015d146103b7578063c45a015514610400578063d4f9ec7314610415576100d9565b80630fe9b4b6146100de5780631ffbd649146101675780632bb1a4ec146101b05780633e6ddaaa1461022e5780633fc8cef314610290576100d9565b366100d957336001600160a01b037f000000000000000000000000000000000000000000000000000000000000000016146100d757fe5b005b600080fd5b3480156100ea57600080fd5b50610155600480360361014081101561010257600080fd5b506001600160a01b038135811691602081013591604082013581169160608101359091169060808101359060a08101359060c081013515159060ff60e08201351690610100810135906101200135610472565b60408051918252519081900360200190f35b34801561017357600080fd5b506101556004803603608081101561018a57600080fd5b506001600160a01b038135811691602081013582169160408201351690606001356105d8565b3480156101bc57600080fd5b5061015560048036036101608110156101d457600080fd5b506001600160a01b038135811691602081013582169160408201359160608101358216916080820135169060a08101359060c08101359060e081013515159060ff610100820135169061012081013590610140013561070d565b34801561023a57600080fd5b506102776004803603608081101561025157600080fd5b506001600160a01b0381358116916020810135821691604082013516906060013561082d565b6040805192835260208301919091528051918290030190f35b34801561029c57600080fd5b506102a5610858565b604080516001600160a01b039092168252519081900360200190f35b3480156102cd57600080fd5b50610155600480360360e08110156102e457600080fd5b506001600160a01b038135811691602081013582169160408201359160608101358216916080820135169060a08101359060c0013561087c565b610155600480360360a081101561033457600080fd5b506001600160a01b03813581169160208101358216916040820135169060608101359060800135610a0c565b34801561036c57600080fd5b50610155600480360360c081101561038357600080fd5b506001600160a01b038135811691602081013591604082013581169160608101359091169060808101359060a00135610c7d565b3480156103c357600080fd5b50610277600480360360808110156103da57600080fd5b506001600160a01b03813581169160208101358216916040820135169060600135610d8c565b34801561040c57600080fd5b506102a5610ed5565b34801561042157600080fd5b50610155600480360360e081101561043857600080fd5b506001600160a01b038135811691602081013582169160408201359160608101358216916080820135169060a08101359060c00135610ef9565b60008085610480578a610484565b6000195b6040805163d505accf60e01b815233600482015230602482015260448101839052606481018a905260ff8816608482015260a4810187905260c4810186905290519192506001600160a01b038c169163d505accf9160e48082019260009290919082900301818387803b1580156104fa57600080fd5b505af115801561050e573d6000803e3d6000fd5b5050505061053f8c7f00000000000000000000000000000000000000000000000000000000000000008d8d8c610f75565b91507f00000000000000000000000000000000000000000000000000000000000000006001600160a01b0316632e1a7d4d836040518263ffffffff1660e01b815260040180828152602001915050600060405180830381600087803b1580156105a757600080fd5b505af11580156105bb573d6000803e3d6000fd5b505050506105c9898361120d565b509a9950505050505050505050565b6040805163eb787f6160e01b81526001600160a01b0386811660048301528581166024830152848116604483015291516000927f0000000000000000000000000000000000000000000000000000000000000000169163eb787f61916064808301926020929190829003018186803b15801561065357600080fd5b505afa158015610667573d6000803e3d6000fd5b505050506040513d602081101561067d57600080fd5b50516106bf576040805162461bcd60e51b815260206004820152600c60248201526b1253959053125117d413d3d360a21b604482015290519081900360640190fd5b6000806106ca6121a6565b6106d686898988611305565b9250925092506106fe83826000015183602001518460400151856060015186608001516114ee565b90910192505050949350505050565b6000854281101561075a576040805162461bcd60e51b8152602060048201526012602482015271111353549bdd5d195c8e881156141254915160721b604482015290519081900360640190fd5b600086610767578b61076b565b6000195b6040805163d505accf60e01b815233600482015230602482015260448101839052606481018b905260ff8916608482015260a4810188905260c4810187905290519192506001600160a01b038d169163d505accf9160e48082019260009290919082900301818387803b1580156107e157600080fd5b505af11580156107f5573d6000803e3d6000fd5b505050506108068e8e8e8e8d610f75565b925061081c6001600160a01b038e168b85611616565b50509b9a5050505050505050505050565b600080600061083e87878787610d8c565b9250905061084c8482611668565b92505094509492505050565b7f000000000000000000000000000000000000000000000000000000000000000081565b600081428110156108c9576040805162461bcd60e51b8152602060048201526012602482015271111353549bdd5d195c8e881156141254915160721b604482015290519081900360640190fd5b6000806108d88b8b8a8c610d8c565b90925090506108f26001600160a01b038c16338a856116ca565b6108ff818c8c8b3061172a565b610920338961090e8c86611668565b6001600160a01b038f169291906116ca565b6109346001600160a01b038b168983611616565b876001600160a01b0316636a627842886040518263ffffffff1660e01b815260040180826001600160a01b03168152602001915050602060405180830381600087803b15801561098357600080fd5b505af1158015610997573d6000803e3d6000fd5b505050506040513d60208110156109ad57600080fd5b50519350858410156109fe576040805162461bcd60e51b8152602060048201526015602482015274494e53554646494349454e545f4d494e545f51545960581b604482015290519081900360640190fd5b505050979650505050505050565b60008142811015610a59576040805162461bcd60e51b8152602060048201526012602482015271111353549bdd5d195c8e881156141254915160721b604482015290519081900360640190fd5b7f00000000000000000000000000000000000000000000000000000000000000006001600160a01b031663d0e30db0346040518263ffffffff1660e01b81526004016000604051808303818588803b158015610ab457600080fd5b505af1158015610ac8573d6000803e3d6000fd5b5050505050600080610afc7f00000000000000000000000000000000000000000000000000000000000000008a8a34610d8c565b9092509050610b356001600160a01b037f0000000000000000000000000000000000000000000000000000000000000000168984611616565b610b62817f00000000000000000000000000000000000000000000000000000000000000008b8b3061172a565b610ba188610b703485611668565b6001600160a01b037f0000000000000000000000000000000000000000000000000000000000000000169190611616565b610bb56001600160a01b038a168983611616565b876001600160a01b0316636a627842886040518263ffffffff1660e01b815260040180826001600160a01b03168152602001915050602060405180830381600087803b158015610c0457600080fd5b505af1158015610c18573d6000803e3d6000fd5b505050506040513d6020811015610c2e57600080fd5b5051935085841015610c715760405162461bcd60e51b81526004018080602001828103825260258152602001806122736025913960400191505060405180910390fd5b50505095945050505050565b60008142811015610cca576040805162461bcd60e51b8152602060048201526012602482015271111353549bdd5d195c8e881156141254915160721b604482015290519081900360640190fd5b610cf7887f0000000000000000000000000000000000000000000000000000000000000000898988610f75565b91507f00000000000000000000000000000000000000000000000000000000000000006001600160a01b0316632e1a7d4d836040518263ffffffff1660e01b815260040180828152602001915050600060405180830381600087803b158015610d5f57600080fd5b505af1158015610d73573d6000803e3d6000fd5b50505050610d81858361120d565b509695505050505050565b6000807f00000000000000000000000000000000000000000000000000000000000000006001600160a01b031663eb787f618787876040518463ffffffff1660e01b815260040180846001600160a01b03168152602001836001600160a01b03168152602001826001600160a01b03168152602001935050505060206040518083038186803b158015610e1e57600080fd5b505afa158015610e32573d6000803e3d6000fd5b505050506040513d6020811015610e4857600080fd5b5051610e8a576040805162461bcd60e51b815260206004820152600c60248201526b1253959053125117d413d3d360a21b604482015290519081900360640190fd5b6000806000806000610e9d898c8c61185a565b94509450945094509450610eb585858585858d611954565b9650610ec58786868686866114ee565b9550505050505094509492505050565b7f000000000000000000000000000000000000000000000000000000000000000081565b60008142811015610f46576040805162461bcd60e51b8152602060048201526012602482015271111353549bdd5d195c8e881156141254915160721b604482015290519081900360640190fd5b610f538989898988610f75565b9150610f696001600160a01b0389168684611616565b50979650505050505050565b6000807f00000000000000000000000000000000000000000000000000000000000000006001600160a01b031663eb787f618888876040518463ffffffff1660e01b815260040180846001600160a01b03168152602001836001600160a01b03168152602001826001600160a01b03168152602001935050505060206040518083038186803b15801561100757600080fd5b505afa15801561101b573d6000803e3d6000fd5b505050506040513d602081101561103157600080fd5b5051611073576040805162461bcd60e51b815260206004820152600c60248201526b1253959053125117d413d3d360a21b604482015290519081900360640190fd5b6110886001600160a01b0385163386886116ca565b600080856001600160a01b03166389afcb44306040518263ffffffff1660e01b815260040180826001600160a01b031681526020019150506040805180830381600087803b1580156110d957600080fd5b505af11580156110ed573d6000803e3d6000fd5b505050506040513d604081101561110357600080fd5b5080516020909101519092509050600061111d8a8a611a47565b509050806001600160a01b03168a6001600160a01b031614611140578183611143565b82825b955093506000925082915081905080808061115f8a8e8e61185a565b945094509450945094506111778786868686866114ee565b9550505050505061119c85838a6001600160a01b03166116169092919063ffffffff16565b6111a9818989883061172a565b9182019183831015611202576040805162461bcd60e51b815260206004820152601a60248201527f494e53554646494349454e545f4f55545055545f414d4f554e54000000000000604482015290519081900360640190fd5b505095945050505050565b604080516000808252602082019092526001600160a01b0384169083906040518082805190602001908083835b602083106112595780518252601f19909201916020918201910161123a565b6001836020036101000a03801982511681845116808217855250505050505090500191505060006040518083038185875af1925050503d80600081146112bb576040519150601f19603f3d011682016040523d82523d6000602084013e6112c0565b606091505b50509050806113005760405162461bcd60e51b81526004018080602001828103825260348152602001806121f86034913960400191505060405180910390fd5b505050565b6000806113106121a6565b6113186121a6565b61132388888861185a565b6080860152606085015260408401526020830152815260006113458983611b3b565b90506000896001600160a01b03166349386b166040518163ffffffff1660e01b815260040160206040518083038186803b15801561138257600080fd5b505afa158015611396573d6000803e3d6000fd5b505050506040513d60208110156113ac57600080fd5b5051835161271063ffffffff9283161415925083916113cd918a91611d3f16565b816113d457fe5b049550816113ef846020015189611d3f90919063ffffffff16565b816113f657fe5b84518890038652602080860151929091049182900390860152945080156114c3578251845160009161145d9161142c9086611d3f565b8161143357fe5b048560200151611450868960200151611d3f90919063ffffffff16565b8161145757fe5b04611d9f565b905061148c8361147a838760400151611d3f90919063ffffffff16565b8161148157fe5b048660000151611db5565b604086015260608401516114b89084906114a69084611d3f565b816114ad57fe5b048660200151611db5565b6060860152506114d5565b83516040850152602084015160608501525b5050608090810151908201529196909550909350915050565b600080871161152e5760405162461bcd60e51b81526004018080602001828103825260258152602001806122986025913960400191505060405180910390fd5b60008611801561153e5750600085115b6115795760405162461bcd60e51b81526004018080602001828103825260228152602001806121d66022913960400191505060405180910390fd5b60006115a1670de0b6b3a764000061159b6115948287611668565b8b90611d3f565b90611dc5565b905060006115af8286611d3f565b905060006115bd8784611e2c565b90506115c98282611dc5565b93508388116116095760405162461bcd60e51b81526004018080602001828103825260228152602001806121d66022913960400191505060405180910390fd5b5050509695505050505050565b604080516001600160a01b038416602482015260448082018490528251808303909101815260649091019091526020810180516001600160e01b031663a9059cbb60e01b179052611300908490611e86565b6000828211156116bf576040805162461bcd60e51b815260206004820152601e60248201527f536166654d6174683a207375627472616374696f6e206f766572666c6f770000604482015290519081900360640190fd5b508082035b92915050565b604080516001600160a01b0380861660248301528416604482015260648082018490528251808303909101815260849091019091526020810180516001600160e01b03166323b872dd60e01b179052611724908590611e86565b50505050565b60006117368585611a47565b509050600080826001600160a01b0316876001600160a01b03161461175d57876000611761565b6000885b604080516000808252602082019283905263022c0d9f60e01b835260248201858152604483018590526001600160a01b038a81166064850152608060848501908152845160a486018190529799509597508b169563022c0d9f95899589958d9590949360c4860192918190849084905b838110156117e95781810151838201526020016117d1565b50505050905090810190601f1680156118165780820380516001836020036101000a031916815260200191505b5095505050505050600060405180830381600087803b15801561183857600080fd5b505af115801561184c573d6000803e3d6000fd5b505050505050505050505050565b60008060008060008061186d8888611a47565b5090506000806000808c6001600160a01b031663d66940276040518163ffffffff1660e01b815260040160a06040518083038186803b1580156118af57600080fd5b505afa1580156118c3573d6000803e3d6000fd5b505050506040513d60a08110156118d957600080fd5b50805160208201516040830151606084015160809094015199506dffffffffffffffffffffffffffff92831697509082169550811693501690506001600160a01b038c81169086161461192f5782848284611934565b838383835b809a50819b50829c50839d50505050505050505050939792965093509350565b6000670de0b6b3a76400008390038180611978611971888b611668565b8690611d3f565b905061198e611987888c611d3f565b8290611e2c565b9050670de0b6b3a76400006119ad846119a7848d611dc5565b90611d3f565b816119b457fe5b0491506119c18289611e2c565b9150600090506119d18886611d3f565b90506000611a1883611a12611a0d670de0b6b3a76400006119f58760048b02611d3f565b816119fc57fe5b04611a078880611d3f565b90611e2c565b611f37565b90611668565b905060028402611a3082670de0b6b3a7640000611d3f565b81611a3757fe5b049b9a5050505050505050505050565b600080826001600160a01b0316846001600160a01b03161415611ab1576040805162461bcd60e51b815260206004820152601f60248201527f444d4d4c6962726172793a204944454e544943414c5f41444452455353455300604482015290519081900360640190fd5b826001600160a01b0316846001600160a01b031610611ad1578284611ad4565b83835b90925090506001600160a01b038216611b34576040805162461bcd60e51b815260206004820152601860248201527f444d4d4c6962726172793a205a45524f5f414444524553530000000000000000604482015290519081900360640190fd5b9250929050565b6000826001600160a01b03166318160ddd6040518163ffffffff1660e01b815260040160206040518083038186803b158015611b7657600080fd5b505afa158015611b8a573d6000803e3d6000fd5b505050506040513d6020811015611ba057600080fd5b50516040805163ad5cb2e160e01b8152815192935060009283926001600160a01b037f0000000000000000000000000000000000000000000000000000000000000000169263ad5cb2e19260048083019392829003018186803b158015611c0657600080fd5b505afa158015611c1a573d6000803e3d6000fd5b505050506040513d6040811015611c3057600080fd5b50805160209091015190925090506001600160a01b038216611c535750506116c4565b6000856001600160a01b0316637464fc3d6040518163ffffffff1660e01b815260040160206040518083038186803b158015611c8e57600080fd5b505afa158015611ca2573d6000803e3d6000fd5b505050506040513d6020811015611cb857600080fd5b5051905080611cc9575050506116c4565b6000611cd482611f37565b90506000611ceb8760600151886040015102611f37565b90506000611d0b61ffff86166119a7611d048587611668565b8a90611d3f565b90506000611d1f6113886119a78587611e2c565b90506000818381611d2c57fe5b04989098019a9950505050505050505050565b600082611d4e575060006116c4565b82820282848281611d5b57fe5b0414611d985760405162461bcd60e51b81526004018080602001828103825260218152602001806122526021913960400191505060405180910390fd5b9392505050565b6000818310611dae5781611d98565b5090919050565b600081831015611dae5781611d98565b6000808211611e1b576040805162461bcd60e51b815260206004820152601a60248201527f536166654d6174683a206469766973696f6e206279207a65726f000000000000604482015290519081900360640190fd5b818381611e2457fe5b049392505050565b600082820183811015611d98576040805162461bcd60e51b815260206004820152601b60248201527f536166654d6174683a206164646974696f6e206f766572666c6f770000000000604482015290519081900360640190fd5b6060611edb826040518060400160405280602081526020017f5361666545524332303a206c6f772d6c6576656c2063616c6c206661696c6564815250856001600160a01b0316611f899092919063ffffffff16565b80519091501561130057808060200190516020811015611efa57600080fd5b50516113005760405162461bcd60e51b815260040180806020018281038252602a8152602001806122bd602a913960400191505060405180910390fd5b60006003821115611f7a575080600160028204015b81811015611f7457809150600281828581611f6357fe5b040181611f6c57fe5b049050611f4c565b50611f84565b8115611f84575060015b919050565b6060611f988484600085611fa0565b949350505050565b606082471015611fe15760405162461bcd60e51b815260040180806020018281038252602681526020018061222c6026913960400191505060405180910390fd5b611fea856120fc565b61203b576040805162461bcd60e51b815260206004820152601d60248201527f416464726573733a2063616c6c20746f206e6f6e2d636f6e7472616374000000604482015290519081900360640190fd5b60006060866001600160a01b031685876040518082805190602001908083835b6020831061207a5780518252601f19909201916020918201910161205b565b6001836020036101000a03801982511681845116808217855250505050505090500191505060006040518083038185875af1925050503d80600081146120dc576040519150601f19603f3d011682016040523d82523d6000602084013e6120e1565b606091505b50915091506120f1828286612102565b979650505050505050565b3b151590565b60608315612111575081611d98565b8251156121215782518084602001fd5b8160405162461bcd60e51b81526004018080602001828103825283818151815260200191508051906020019080838360005b8381101561216b578181015183820152602001612153565b50505050905090810190601f1680156121985780820380516001836020036101000a031916815260200191505b509250505060405180910390fd5b6040518060a001604052806000815260200160008152602001600081526020016000815260200160008152509056fe444d4d4c6962726172793a20494e53554646494349454e545f4c49515549444954595472616e7366657248656c7065723a3a736166655472616e736665724554483a20455448207472616e73666572206661696c6564416464726573733a20696e73756666696369656e742062616c616e636520666f722063616c6c536166654d6174683a206d756c7469706c69636174696f6e206f766572666c6f774f72636861726420526f757465723a20494e53554646494349454e545f4d494e545f515459444d4d4c6962726172793a20494e53554646494349454e545f494e5055545f414d4f554e545361666545524332303a204552433230206f7065726174696f6e20646964206e6f742073756363656564a2646970667358221220cf6e8a5ad8a9f69110c4c0cc7b203da4055eaa612b16ac342ad9e192397eedc864736f6c634300060c0033",
  "linkReferences": {},
  "deployedLinkReferences": {}
}