{
  "_format": "hh-sol-artifact-1",
  "contractName": "LiquidityMigrator",
  "sourceName": "contracts/wrapper/LiquidityMigrator.sol",
  "abi": [
    {
      "inputs": [
        {
          "internalType": "address",
          "name": "_dmmRouter",
          "type": "address"
        }
      ],
      "stateMutability": "nonpayable",
      "type": "constructor"
    },
    {
      "anonymous": false,
      "inputs": [
        {
          "indexed": true,
          "internalType": "address",
          "name": "tokenA",
          "type": "address"
        },
        {
          "indexed": true,
          "internalType": "address",
          "name": "tokenB",
          "type": "address"
        },
        {
          "indexed": false,
          "internalType": "uint256",
          "name": "dmmAmountA",
          "type": "uint256"
        },
        {
          "indexed": false,
          "internalType": "uint256",
          "name": "dmmAmountB",
          "type": "uint256"
        },
        {
          "indexed": false,
          "internalType": "uint256",
          "name": "dmmLiquidity",
          "type": "uint256"
        },
        {
          "components": [
            {
              "internalType": "address",
              "name": "poolAddress",
              "type": "address"
            },
            {
              "internalType": "uint32",
              "name": "poolAmp",
              "type": "uint32"
            },
            {
              "internalType": "uint256[2]",
              "name": "dmmVReserveRatioBounds",
              "type": "uint256[2]"
            }
          ],
          "indexed": false,
          "internalType": "struct ILiquidityMigrator.PoolInfo",
          "name": "info",
          "type": "tuple"
        }
      ],
      "name": "Migrated",
      "type": "event"
    },
    {
      "anonymous": false,
      "inputs": [
        {
          "indexed": true,
          "internalType": "address",
          "name": "previousOwner",
          "type": "address"
        },
        {
          "indexed": true,
          "internalType": "address",
          "name": "newOwner",
          "type": "address"
        }
      ],
      "name": "OwnershipTransferred",
      "type": "event"
    },
    {
      "anonymous": false,
      "inputs": [
        {
          "indexed": true,
          "internalType": "address",
          "name": "tokenA",
          "type": "address"
        },
        {
          "indexed": true,
          "internalType": "address",
          "name": "tokenB",
          "type": "address"
        },
        {
          "indexed": true,
          "internalType": "address",
          "name": "uniPair",
          "type": "address"
        },
        {
          "indexed": false,
          "internalType": "uint256",
          "name": "liquidity",
          "type": "uint256"
        },
        {
          "indexed": false,
          "internalType": "uint256",
          "name": "amountA",
          "type": "uint256"
        },
        {
          "indexed": false,
          "internalType": "uint256",
          "name": "amountB",
          "type": "uint256"
        }
      ],
      "name": "RemoveLiquidity",
      "type": "event"
    },
    {
      "inputs": [],
      "name": "dmmRouter",
      "outputs": [
        {
          "internalType": "address",
          "name": "",
          "type": "address"
        }
      ],
      "stateMutability": "view",
      "type": "function"
    },
    {
      "inputs": [
        {
          "internalType": "contract IERC20[]",
          "name": "tokens",
          "type": "address[]"
        },
        {
          "internalType": "address[]",
          "name": "spenders",
          "type": "address[]"
        },
        {
          "internalType": "uint256",
          "name": "allowance",
          "type": "uint256"
        }
      ],
      "name": "manualApproveAllowance",
      "outputs": [],
      "stateMutability": "nonpayable",
      "type": "function"
    },
    {
      "inputs": [
        {
          "internalType": "address",
          "name": "uniPair",
          "type": "address"
        },
        {
          "internalType": "address",
          "name": "tokenA",
          "type": "address"
        },
        {
          "internalType": "address",
          "name": "tokenB",
          "type": "address"
        },
        {
          "internalType": "uint256",
          "name": "liquidity",
          "type": "uint256"
        },
        {
          "internalType": "uint256",
          "name": "amountAMin",
          "type": "uint256"
        },
        {
          "internalType": "uint256",
          "name": "amountBMin",
          "type": "uint256"
        },
        {
          "internalType": "uint256",
          "name": "dmmAmountAMin",
          "type": "uint256"
        },
        {
          "internalType": "uint256",
          "name": "dmmAmountBMin",
          "type": "uint256"
        },
        {
          "components": [
            {
              "internalType": "address",
              "name": "poolAddress",
              "type": "address"
            },
            {
              "internalType": "uint32",
              "name": "poolAmp",
              "type": "uint32"
            },
            {
              "internalType": "uint256[2]",
              "name": "dmmVReserveRatioBounds",
              "type": "uint256[2]"
            }
          ],
          "internalType": "struct ILiquidityMigrator.PoolInfo",
          "name": "poolInfo",
          "type": "tuple"
        },
        {
          "internalType": "uint256",
          "name": "deadline",
          "type": "uint256"
        }
      ],
      "name": "migrateLpToDmmPool",
      "outputs": [
        {
          "internalType": "uint256",
          "name": "dmmAmountA",
          "type": "uint256"
        },
        {
          "internalType": "uint256",
          "name": "dmmAmountB",
          "type": "uint256"
        },
        {
          "internalType": "uint256",
          "name": "dmmLiquidity",
          "type": "uint256"
        }
      ],
      "stateMutability": "nonpayable",
      "type": "function"
    },
    {
      "inputs": [
        {
          "internalType": "address",
          "name": "uniPair",
          "type": "address"
        },
        {
          "internalType": "address",
          "name": "tokenA",
          "type": "address"
        },
        {
          "internalType": "address",
          "name": "tokenB",
          "type": "address"
        },
        {
          "internalType": "uint256",
          "name": "liquidity",
          "type": "uint256"
        },
        {
          "internalType": "uint256",
          "name": "amountAMin",
          "type": "uint256"
        },
        {
          "internalType": "uint256",
          "name": "amountBMin",
          "type": "uint256"
        },
        {
          "internalType": "uint256",
          "name": "dmmAmountAMin",
          "type": "uint256"
        },
        {
          "internalType": "uint256",
          "name": "dmmAmountBMin",
          "type": "uint256"
        },
        {
          "components": [
            {
              "internalType": "address",
              "name": "poolAddress",
              "type": "address"
            },
            {
              "internalType": "uint32",
              "name": "poolAmp",
              "type": "uint32"
            },
            {
              "internalType": "uint256[2]",
              "name": "dmmVReserveRatioBounds",
              "type": "uint256[2]"
            }
          ],
          "internalType": "struct ILiquidityMigrator.PoolInfo",
          "name": "poolInfo",
          "type": "tuple"
        },
        {
          "internalType": "uint256",
          "name": "deadline",
          "type": "uint256"
        },
        {
          "components": [
            {
              "internalType": "bool",
              "name": "approveMax",
              "type": "bool"
            },
            {
              "internalType": "uint8",
              "name": "v",
              "type": "uint8"
            },
            {
              "internalType": "bytes32",
              "name": "r",
              "type": "bytes32"
            },
            {
              "internalType": "bytes32",
              "name": "s",
              "type": "bytes32"
            }
          ],
          "internalType": "struct ILiquidityMigrator.PermitData",
          "name": "permitData",
          "type": "tuple"
        }
      ],
      "name": "migrateLpToDmmPoolWithPermit",
      "outputs": [
        {
          "internalType": "uint256",
          "name": "amountA",
          "type": "uint256"
        },
        {
          "internalType": "uint256",
          "name": "amountB",
          "type": "uint256"
        },
        {
          "internalType": "uint256",
          "name": "addedLiquidity",
          "type": "uint256"
        }
      ],
      "stateMutability": "nonpayable",
      "type": "function"
    },
    {
      "inputs": [],
      "name": "owner",
      "outputs": [
        {
          "internalType": "address",
          "name": "",
          "type": "address"
        }
      ],
      "stateMutability": "view",
      "type": "function"
    },
    {
      "inputs": [],
      "name": "renounceOwnership",
      "outputs": [],
      "stateMutability": "nonpayable",
      "type": "function"
    },
    {
      "inputs": [
        {
          "internalType": "address",
          "name": "newOwner",
          "type": "address"
        }
      ],
      "name": "transferOwnership",
      "outputs": [],
      "stateMutability": "nonpayable",
      "type": "function"
    },
    {
      "inputs": [
        {
          "internalType": "contract IERC20",
          "name": "token",
          "type": "address"
        },
        {
          "internalType": "uint256",
          "name": "amount",
          "type": "uint256"
        }
      ],
      "name": "withdrawFund",
      "outputs": [],
      "stateMutability": "nonpayable",
      "type": "function"
    }
  ],
  "bytecode": "0x60a06040523480156200001157600080fd5b5060405162001bf838038062001bf88339810160408190526200003491620000d6565b600062000040620000d2565b600080546001600160a01b0319166001600160a01b0383169081178255604051929350917f8be0079c531659141344cd1fd0a4f28419497f9722a3daafe3b4186f6b6457e0908290a3506001600160a01b038116620000bc5760405162461bcd60e51b8152600401620000b39062000106565b60405180910390fd5b60601b6001600160601b0319166080526200013d565b3390565b600060208284031215620000e8578081fd5b81516001600160a01b0381168114620000ff578182fd5b9392505050565b60208082526018908201527f4d69677261746f723a20494e56414c49445f524f555445520000000000000000604082015260600190565b60805160601c611a896200016f6000398061020b5280610a8f5280610ab95280610d395280610e2f5250611a896000f3fe608060405234801561001057600080fd5b50600436106100885760003560e01c8063715018a61161005b578063715018a6146100f55780638da5cb5b146100fd578063f2fde38b14610105578063f7c8d2211461011857610088565b806318c091641461008d57806319ca9178146100b85780633904a5ef146100cd5780633eb5e1a1146100e2575b600080fd5b6100a061009b36600461116a565b61012b565b6040516100af93929190611956565b60405180910390f35b6100c0610209565b6040516100af9190611463565b6100e06100db3660046112a9565b61022d565b005b6100a06100f0366004611213565b6102fa565b6100e06105cb565b6100c0610654565b6100e061011336600461114e565b610663565b6100e0610126366004611352565b610723565b600080806001600160a01b038e1663d505accf333061014d602089018961131a565b610157578e61015b565b6000195b8961016c60408b0160208c01611400565b8a604001358b606001356040518863ffffffff1660e01b81526004016101989796959493929190611477565b600060405180830381600087803b1580156101b257600080fd5b505af11580156101c6573d6000803e3d6000fd5b505050506101ec8e8e8e8e8e8e8e8e8e8036038101906101e6919061137d565b8e6102fa565b8093508194508295505050509b509b509b98505050505050505050565b7f000000000000000000000000000000000000000000000000000000000000000081565b610235610819565b6001600160a01b0316610246610654565b6001600160a01b0316146102755760405162461bcd60e51b815260040161026c9061172f565b60405180910390fd5b60005b848110156102f25760005b838110156102e9576102e185858381811061029a57fe5b90506020020160208101906102af919061114e565b848989868181106102bc57fe5b90506020020160208101906102d1919061114e565b6001600160a01b0316919061081d565b600101610283565b50600101610278565b505050505050565b6000806000808c6001600160a01b03166370a08231306040518263ffffffff1660e01b815260040161032c9190611463565b60206040518083038186803b15801561034457600080fd5b505afa158015610358573d6000803e3d6000fd5b505050506040513d601f19601f8201168201806040525081019061037c9190611398565b905060008c6001600160a01b03166370a08231306040518263ffffffff1660e01b81526004016103ac9190611463565b60206040518083038186803b1580156103c457600080fd5b505afa1580156103d8573d6000803e3d6000fd5b505050506040513d601f19601f820116820180604052508101906103fc9190611398565b905061040d8f8f8f8f8f8f8c61091c565b610493828f6001600160a01b03166370a08231306040518263ffffffff1660e01b815260040161043d9190611463565b60206040518083038186803b15801561045557600080fd5b505afa158015610469573d6000803e3d6000fd5b505050506040513d601f19601f8201168201806040525081019061048d9190611398565b90610a5c565b94506104c5818e6001600160a01b03166370a08231306040518263ffffffff1660e01b815260040161043d9190611463565b93506000851180156104d75750600084115b6104f35760405162461bcd60e51b815260040161026c906116f8565b8e6001600160a01b03168d6001600160a01b03168f6001600160a01b03167f094577f52c15f75d98e8b7e35fd170e61ac73ad9fb3135eae6674b39828d4d6e8f898960405161054493929190611956565b60405180910390a4505061055e8c8c85858b8b8b8b610a84565b8093508194508295505050508a6001600160a01b03168c6001600160a01b03167f508a039123cf87508a308c557a86025dcb8b3fea3b682250339652536f1f2baa8585858a6040516105b3949392919061196c565b60405180910390a39a509a509a975050505050505050565b6105d3610819565b6001600160a01b03166105e4610654565b6001600160a01b03161461060a5760405162461bcd60e51b815260040161026c9061172f565b600080546040516001600160a01b03909116907f8be0079c531659141344cd1fd0a4f28419497f9722a3daafe3b4186f6b6457e0908390a3600080546001600160a01b0319169055565b6000546001600160a01b031690565b61066b610819565b6001600160a01b031661067c610654565b6001600160a01b0316146106a25760405162461bcd60e51b815260040161026c9061172f565b6001600160a01b0381166106c85760405162461bcd60e51b815260040161026c906115fe565b600080546040516001600160a01b03808516939216917f8be0079c531659141344cd1fd0a4f28419497f9722a3daafe3b4186f6b6457e091a3600080546001600160a01b0319166001600160a01b0392909216919091179055565b61072b610819565b6001600160a01b031661073c610654565b6001600160a01b0316146107625760405162461bcd60e51b815260040161026c9061172f565b6001600160a01b0382166107f957600061077a610654565b6001600160a01b03168260405161079090611460565b60006040518083038185875af1925050503d80600081146107cd576040519150601f19603f3d011682016040523d82523d6000602084013e6107d2565b606091505b50509050806107f35760405162461bcd60e51b815260040161026c906116c1565b50610815565b610815610804610654565b6001600160a01b0384169083610b3b565b5050565b3390565b8015806108a55750604051636eb1769f60e11b81526001600160a01b0384169063dd62ed3e9061085390309086906004016114b8565b60206040518083038186803b15801561086b57600080fd5b505afa15801561087f573d6000803e3d6000fd5b505050506040513d601f19601f820116820180604052508101906108a39190611398565b155b6108c15760405162461bcd60e51b815260040161026c90611900565b6109178363095ea7b360e01b84846040516024016108e09291906114f6565b60408051601f198184030181529190526020810180516001600160e01b03166001600160e01b031990931692909217909152610b5a565b505050565b4281101561093c5760405162461bcd60e51b815260040161026c906118d4565b6109516001600160a01b038816338987610be9565b600080886001600160a01b03166389afcb44306040518263ffffffff1660e01b81526004016109809190611463565b6040805180830381600087803b15801561099957600080fd5b505af11580156109ad573d6000803e3d6000fd5b505050506040513d601f19601f820116820180604052508101906109d191906113b0565b9150915060006109e18989610c10565b509050600080826001600160a01b03168b6001600160a01b031614610a07578385610a0a565b84845b9150915087821015610a2e5760405162461bcd60e51b815260040161026c90611794565b86811015610a4e5760405162461bcd60e51b815260040161026c90611890565b505050505050505050505050565b600082821115610a7e5760405162461bcd60e51b815260040161026c90611644565b50900390565b6000806000610ab38b7f0000000000000000000000000000000000000000000000000000000000000000610c9a565b610add8a7f0000000000000000000000000000000000000000000000000000000000000000610c9a565b84516001600160a01b0316610b0c57610b008b8b8b8b8b8b8b602001518b610d32565b91945092509050610b2d565b610b258b8b8b8b8b8b8b600001518c604001518c610e28565b919450925090505b985098509895505050505050565b6109178363a9059cbb60e01b84846040516024016108e09291906114f6565b6060610baf826040518060400160405280602081526020017f5361666545524332303a206c6f772d6c6576656c2063616c6c206661696c6564815250856001600160a01b0316610f2f9092919063ffffffff16565b8051909150156109175780806020019051810190610bcd9190611336565b6109175760405162461bcd60e51b815260040161026c90611846565b610c0a846323b872dd60e01b8585856040516024016108e0939291906114d2565b50505050565b600080826001600160a01b0316846001600160a01b03161415610c455760405162461bcd60e51b815260040161026c906117d8565b826001600160a01b0316846001600160a01b031610610c65578284610c68565b83835b90925090506001600160a01b038216610c935760405162461bcd60e51b815260040161026c90611764565b9250929050565b604051636eb1769f60e11b81526001600160a01b0383169063dd62ed3e90610cc890309085906004016114b8565b60206040518083038186803b158015610ce057600080fd5b505afa158015610cf4573d6000803e3d6000fd5b505050506040513d601f19601f82011682018060405250810190610d189190611398565b610815576108156001600160a01b0383168260001961081d565b60008060007f00000000000000000000000000000000000000000000000000000000000000006001600160a01b0316631c5d0a6b8c8c888d8d8d8d338d6040518a63ffffffff1660e01b8152600401610d9399989796959493929190611576565b606060405180830381600087803b158015610dad57600080fd5b505af1158015610dc1573d6000803e3d6000fd5b505050506040513d601f19601f82011682018060405250810190610de591906113d3565b9194509250905088831015610e0a57610e0a6001600160a01b038c1633858c03610b3b565b87821015610b2d57610b2d6001600160a01b038b1633848b03610b3b565b60008060007f00000000000000000000000000000000000000000000000000000000000000006001600160a01b031663243419348d8d898e8e8e8e8d338e6040518b63ffffffff1660e01b8152600401610e8b9a9998979695949392919061150f565b606060405180830381600087803b158015610ea557600080fd5b505af1158015610eb9573d6000803e3d6000fd5b505050506040513d601f19601f82011682018060405250810190610edd91906113d3565b9194509250905089831015610f0257610f026001600160a01b038d1633858d03610b3b565b88821015610f2057610f206001600160a01b038c1633848c03610b3b565b99509950999650505050505050565b6060610f3e8484600085610f48565b90505b9392505050565b606082471015610f6a5760405162461bcd60e51b815260040161026c9061167b565b610f7385611009565b610f8f5760405162461bcd60e51b815260040161026c9061180f565b60006060866001600160a01b03168587604051610fac9190611444565b60006040518083038185875af1925050503d8060008114610fe9576040519150601f19603f3d011682016040523d82523d6000602084013e610fee565b606091505b5091509150610ffe82828661100f565b979650505050505050565b3b151590565b6060831561101e575081610f41565b82511561102e5782518084602001fd5b8160405162461bcd60e51b815260040161026c91906115cb565b60008083601f840112611059578182fd5b50813567ffffffffffffffff811115611070578182fd5b6020830191508360208083028501011115610c9357600080fd5b60006080828403121561109b578081fd5b50919050565b6000608082840312156110b2578081fd5b6110bc60606119bd565b905081356110c981611a2d565b815260208281013563ffffffff811681146110e357600080fd5b82820152605f830184136110f657600080fd5b6002611109611104826119e4565b6119bd565b80604086018760808801111561111e57600080fd5b60005b8481101561113d57813584529285019290850190600101611121565b505060408501525091949350505050565b60006020828403121561115f578081fd5b8135610f4181611a2d565b60008060008060008060008060008060006102208c8e03121561118b578687fd5b8b3561119681611a2d565b9a5060208c01356111a681611a2d565b995060408c01356111b681611a2d565b985060608c0135975060808c0135965060a08c0135955060c08c0135945060e08c013593506111e98d6101008e0161108a565b92506101808c013591506112018d6101a08e0161108a565b90509295989b509295989b9093969950565b6000806000806000806000806000806101a08b8d031215611232578586fd5b8a3561123d81611a2d565b995060208b013561124d81611a2d565b985060408b013561125d81611a2d565b975060608b0135965060808b0135955060a08b0135945060c08b0135935060e08b013592506112908c6101008d016110a1565b91506101808b013590509295989b9194979a5092959850565b6000806000806000606086880312156112c0578081fd5b853567ffffffffffffffff808211156112d7578283fd5b6112e389838a01611048565b909750955060208801359150808211156112fb578283fd5b5061130888828901611048565b96999598509660400135949350505050565b60006020828403121561132b578081fd5b8135610f4181611a45565b600060208284031215611347578081fd5b8151610f4181611a45565b60008060408385031215611364578182fd5b823561136f81611a2d565b946020939093013593505050565b60006080828403121561138e578081fd5b610f4183836110a1565b6000602082840312156113a9578081fd5b5051919050565b600080604083850312156113c2578182fd5b505080516020909101519092909150565b6000806000606084860312156113e7578081fd5b8351925060208401519150604084015190509250925092565b600060208284031215611411578081fd5b813560ff81168114610f41578182fd5b8060005b6002811015610c0a578151845260209384019390910190600101611425565b60008251611456818460208701611a01565b9190910192915050565b90565b6001600160a01b0391909116815260200190565b6001600160a01b0397881681529590961660208601526040850193909352606084019190915260ff16608083015260a082015260c081019190915260e00190565b6001600160a01b0392831681529116602082015260400190565b6001600160a01b039384168152919092166020820152604081019190915260600190565b6001600160a01b03929092168252602082015260400190565b6001600160a01b038b811682528a811660208301528981166040830152606082018990526080820188905260a0820187905260c0820186905261016082019061155b60e0840187611421565b93909316610120820152610140015298975050505050505050565b6001600160a01b03998a168152978916602089015263ffffffff9690961660408801526060870194909452608086019290925260a085015260c084015290921660e08201526101008101919091526101200190565b60006020825282518060208401526115ea816040850160208701611a01565b601f01601f19169190910160400192915050565b60208082526026908201527f4f776e61626c653a206e6577206f776e657220697320746865207a65726f206160408201526564647265737360d01b606082015260800190565b6020808252601e908201527f536166654d6174683a207375627472616374696f6e206f766572666c6f770000604082015260600190565b60208082526026908201527f416464726573733a20696e73756666696369656e742062616c616e636520666f6040820152651c8818d85b1b60d21b606082015260800190565b6020808252601d908201527f4d69677261746f723a205452414e534645525f4554485f4641494c4544000000604082015260600190565b60208082526018908201527f4d69677261746f723a20494e56414c49445f414d4f554e540000000000000000604082015260600190565b6020808252818101527f4f776e61626c653a2063616c6c6572206973206e6f7420746865206f776e6572604082015260600190565b6020808252601690820152754d69677261746f723a205a45524f5f4144445245535360501b604082015260600190565b60208082526024908201527f4d6967726174696f723a20554e495f494e53554646494349454e545f415f414d60408201526313d5539560e21b606082015260800190565b6020808252601d908201527f4d69677261746f723a204944454e544943414c5f414444524553534553000000604082015260600190565b6020808252601d908201527f416464726573733a2063616c6c20746f206e6f6e2d636f6e7472616374000000604082015260600190565b6020808252602a908201527f5361666545524332303a204552433230206f7065726174696f6e20646964206e6040820152691bdd081cdd58d8d9595960b21b606082015260800190565b60208082526024908201527f4d6967726174696f723a20554e495f494e53554646494349454e545f425f414d60408201526313d5539560e21b606082015260800190565b602080825260129082015271135a59dc985d1a5bdc8e881156141254915160721b604082015260600190565b60208082526036908201527f5361666545524332303a20617070726f76652066726f6d206e6f6e2d7a65726f60408201527520746f206e6f6e2d7a65726f20616c6c6f77616e636560501b606082015260800190565b9283526020830191909152604082015260600190565b8481526020808201859052604080830185905283516001600160a01b031660608401529083015163ffffffff16608083015282015160e08201906119b360a0840182611421565b5095945050505050565b60405181810167ffffffffffffffff811182821017156119dc57600080fd5b604052919050565b600067ffffffffffffffff8211156119fa578081fd5b5060200290565b60005b83811015611a1c578181015183820152602001611a04565b83811115610c0a5750506000910152565b6001600160a01b0381168114611a4257600080fd5b50565b8015158114611a4257600080fdfea2646970667358221220566d2ddd1a6fee0dab26b1c89588c8f3ab421753aa85271bfa73ccea91fcf78a64736f6c634300060c0033",
  "linkReferences": {},
  "deployedLinkReferences": {}
}