{
  "_format": "hh-sol-artifact-1",
  "contractName": "DMMLibrary",
  "sourceName": "contracts/libraries/DMMLibrary.sol",
  "abi": [
    {
      "inputs": [],
      "name": "PRECISION",
      "outputs": [
        {
          "internalType": "uint256",
          "name": "",
          "type": "uint256"
        }
      ],
      "stateMutability": "view",
      "type": "function"
    }
  ],
  "bytecode": "0x6092610024600b82828239805160001a607314601757fe5b30600052607381538281f3fe730000000000000000000000000000000000000000301460806040526004361060335760003560e01c8063aaf5eb68146038575b600080fd5b603e6050565b60408051918252519081900360200190f35b670de0b6b3a76400008156fea2646970667358221220b38c346754d9f225b88327837aa69ac6c8b22597ce0aaef35cb2ed4c3feac60a64736f6c634300060c0033",
  "linkReferences": {},
  "deployedLinkReferences": {}
}