{
  "_format": "hh-sol-artifact-1",
  "contractName": "DaoRegistry",
  "sourceName": "contracts/periphery/DaoRegistry.sol",
  "abi": [
    {
      "inputs": [
        {
          "internalType": "address",
          "name": "_factory",
          "type": "address"
        }
      ],
      "stateMutability": "nonpayable",
      "type": "constructor"
    },
    {
      "anonymous": false,
      "inputs": [
        {
          "indexed": false,
          "internalType": "contract IERC20",
          "name": "token0",
          "type": "address"
        },
        {
          "indexed": false,
          "internalType": "contract IERC20",
          "name": "token1",
          "type": "address"
        },
        {
          "indexed": false,
          "internalType": "address",
          "name": "pool",
          "type": "address"
        },
        {
          "indexed": false,
          "internalType": "bool",
          "name": "isAdd",
          "type": "bool"
        }
      ],
      "name": "AddPool",
      "type": "event"
    },
    {
      "anonymous": false,
      "inputs": [
        {
          "indexed": true,
          "internalType": "address",
          "name": "previousOwner",
          "type": "address"
        },
        {
          "indexed": true,
          "internalType": "address",
          "name": "newOwner",
          "type": "address"
        }
      ],
      "name": "OwnershipTransferred",
      "type": "event"
    },
    {
      "inputs": [
        {
          "internalType": "contract IERC20",
          "name": "token0",
          "type": "address"
        },
        {
          "internalType": "contract IERC20",
          "name": "token1",
          "type": "address"
        },
        {
          "internalType": "address",
          "name": "pool",
          "type": "address"
        },
        {
          "internalType": "bool",
          "name": "isAdd",
          "type": "bool"
        }
      ],
      "name": "addPool",
      "outputs": [],
      "stateMutability": "nonpayable",
      "type": "function"
    },
    {
      "inputs": [],
      "name": "factory",
      "outputs": [
        {
          "internalType": "address",
          "name": "",
          "type": "address"
        }
      ],
      "stateMutability": "view",
      "type": "function"
    },
    {
      "inputs": [
        {
          "internalType": "contract IERC20",
          "name": "token0",
          "type": "address"
        },
        {
          "internalType": "contract IERC20",
          "name": "token1",
          "type": "address"
        }
      ],
      "name": "getPools",
      "outputs": [
        {
          "internalType": "address[]",
          "name": "_tokenPools",
          "type": "address[]"
        }
      ],
      "stateMutability": "view",
      "type": "function"
    },
    {
      "inputs": [],
      "name": "owner",
      "outputs": [
        {
          "internalType": "address",
          "name": "",
          "type": "address"
        }
      ],
      "stateMutability": "view",
      "type": "function"
    },
    {
      "inputs": [],
      "name": "renounceOwnership",
      "outputs": [],
      "stateMutability": "nonpayable",
      "type": "function"
    },
    {
      "inputs": [
        {
          "internalType": "address",
          "name": "newOwner",
          "type": "address"
        }
      ],
      "name": "transferOwnership",
      "outputs": [],
      "stateMutability": "nonpayable",
      "type": "function"
    }
  ],
  "bytecode": "0x60a060405234801561001057600080fd5b50604051610a2a380380610a2a8339818101604052602081101561003357600080fd5b5051600061003f61009e565b600080546001600160a01b0319166001600160a01b0383169081178255604051929350917f8be0079c531659141344cd1fd0a4f28419497f9722a3daafe3b4186f6b6457e0908290a35060601b6001600160601b0319166080526100a2565b3390565b60805160601c6109666100c4600039806101fb52806105d452506109666000f3fe608060405234801561001057600080fd5b50600436106100625760003560e01c806324ca32b3146100675780635b1dc86f146100a7578063715018a6146101255780638da5cb5b1461012d578063c45a015514610151578063f2fde38b14610159575b600080fd5b6100a56004803603608081101561007d57600080fd5b506001600160a01b03813581169160208101358216916040820135169060600135151561017f565b005b6100d5600480360360408110156100bd57600080fd5b506001600160a01b038135811691602001351661041d565b60408051602080825283518183015283519192839290830191858101910280838360005b838110156101115781810151838201526020016100f9565b505050509050019250505060405180910390f35b6100a5610505565b6101356105c3565b604080516001600160a01b039092168252519081900360200190f35b6101356105d2565b6100a56004803603602081101561016f57600080fd5b50356001600160a01b03166105f6565b61018761070a565b6001600160a01b03166101986105c3565b6001600160a01b0316146101f3576040805162461bcd60e51b815260206004820181905260248201527f4f776e61626c653a2063616c6c6572206973206e6f7420746865206f776e6572604482015290519081900360640190fd5b8015610363577f00000000000000000000000000000000000000000000000000000000000000006001600160a01b031663eb787f618585856040518463ffffffff1660e01b815260040180846001600160a01b03168152602001836001600160a01b03168152602001826001600160a01b03168152602001935050505060206040518083038186803b15801561028857600080fd5b505afa15801561029c573d6000803e3d6000fd5b505050506040513d60208110156102b257600080fd5b50516102fe576040805162461bcd60e51b8152602060048201526016602482015275149959da5cdd1c9e4e881253959053125117d413d3d360521b604482015290519081900360640190fd5b6001600160a01b03808516600090815260016020908152604080832093871683529290522061032d908361070e565b506001600160a01b03808416600090815260016020908152604080832093881683529290522061035d908361070e565b506103c4565b6001600160a01b038085166000908152600160209081526040808320938716835292905220610392908361072c565b506001600160a01b0380841660009081526001602090815260408083209388168352929052206103c2908361072c565b505b604080516001600160a01b0380871682528086166020830152841681830152821515606082015290517f0a02747d615a6fc80c96a31faac62e7f6a579a39ad451622a6970c974f4f903b9181900360800190a150505050565b6001600160a01b03808316600090815260016020908152604080832093851683529290529081206060919061045190610741565b90508067ffffffffffffffff8111801561046a57600080fd5b50604051908082528060200260200182016040528015610494578160200160208202803683370190505b50915060005b818110156104fd576001600160a01b0380861660009081526001602090815260408083209388168352929052206104d1908261074c565b8382815181106104dd57fe5b6001600160a01b039092166020928302919091019091015260010161049a565b505092915050565b61050d61070a565b6001600160a01b031661051e6105c3565b6001600160a01b031614610579576040805162461bcd60e51b815260206004820181905260248201527f4f776e61626c653a2063616c6c6572206973206e6f7420746865206f776e6572604482015290519081900360640190fd5b600080546040516001600160a01b03909116907f8be0079c531659141344cd1fd0a4f28419497f9722a3daafe3b4186f6b6457e0908390a3600080546001600160a01b0319169055565b6000546001600160a01b031690565b7f000000000000000000000000000000000000000000000000000000000000000081565b6105fe61070a565b6001600160a01b031661060f6105c3565b6001600160a01b03161461066a576040805162461bcd60e51b815260206004820181905260248201527f4f776e61626c653a2063616c6c6572206973206e6f7420746865206f776e6572604482015290519081900360640190fd5b6001600160a01b0381166106af5760405162461bcd60e51b815260040180806020018281038252602681526020018061090b6026913960400191505060405180910390fd5b600080546040516001600160a01b03808516939216917f8be0079c531659141344cd1fd0a4f28419497f9722a3daafe3b4186f6b6457e091a3600080546001600160a01b0319166001600160a01b0392909216919091179055565b3390565b6000610723836001600160a01b038416610758565b90505b92915050565b6000610723836001600160a01b0384166107a2565b600061072682610868565b6000610723838361086c565b600061076483836108d0565b61079a57508154600181810184556000848152602080822090930184905584548482528286019093526040902091909155610726565b506000610726565b6000818152600183016020526040812054801561085e57835460001980830191908101906000908790839081106107d557fe5b90600052602060002001549050808760000184815481106107f257fe5b60009182526020808320909101929092558281526001898101909252604090209084019055865487908061082257fe5b60019003818190600052602060002001600090559055866001016000878152602001908152602001600020600090556001945050505050610726565b6000915050610726565b5490565b815460009082106108ae5760405162461bcd60e51b81526004018080602001828103825260228152602001806108e96022913960400191505060405180910390fd5b8260000182815481106108bd57fe5b9060005260206000200154905092915050565b6000908152600191909101602052604090205415159056fe456e756d657261626c655365743a20696e646578206f7574206f6620626f756e64734f776e61626c653a206e6577206f776e657220697320746865207a65726f2061646472657373a2646970667358221220d8f69ef3a3998a4db5c8a8234d505518039605ad972b55784ec91805ca3b5b8164736f6c634300060c0033",
  "linkReferences": {},
  "deployedLinkReferences": {}
}