{
  "_format": "hh-sol-artifact-1",
  "contractName": "DaoRegistry",
  "sourceName": "contracts/periphery/DaoRegistry.sol",
  "abi": [
    {
      "inputs": [
        {
          "internalType": "address",
          "name": "_factory",
          "type": "address"
        }
      ],
      "stateMutability": "nonpayable",
      "type": "constructor"
    },
    {
      "anonymous": false,
      "inputs": [
        {
          "indexed": false,
          "internalType": "contract IERC20",
          "name": "token0",
          "type": "address"
        },
        {
          "indexed": false,
          "internalType": "contract IERC20",
          "name": "token1",
          "type": "address"
        },
        {
          "indexed": false,
          "internalType": "address",
          "name": "pool",
          "type": "address"
        },
        {
          "indexed": false,
          "internalType": "bool",
          "name": "isAdd",
          "type": "bool"
        }
      ],
      "name": "AddPool",
      "type": "event"
    },
    {
      "anonymous": false,
      "inputs": [
        {
          "indexed": true,
          "internalType": "address",
          "name": "previousOwner",
          "type": "address"
        },
        {
          "indexed": true,
          "internalType": "address",
          "name": "newOwner",
          "type": "address"
        }
      ],
      "name": "OwnershipTransferred",
      "type": "event"
    },
    {
      "inputs": [
        {
          "internalType": "contract IERC20",
          "name": "token0",
          "type": "address"
        },
        {
          "internalType": "contract IERC20",
          "name": "token1",
          "type": "address"
        },
        {
          "internalType": "address",
          "name": "pool",
          "type": "address"
        },
        {
          "internalType": "bool",
          "name": "isAdd",
          "type": "bool"
        }
      ],
      "name": "addPool",
      "outputs": [],
      "stateMutability": "nonpayable",
      "type": "function"
    },
    {
      "inputs": [],
      "name": "factory",
      "outputs": [
        {
          "internalType": "address",
          "name": "",
          "type": "address"
        }
      ],
      "stateMutability": "view",
      "type": "function"
    },
    {
      "inputs": [
        {
          "internalType": "contract IERC20",
          "name": "token0",
          "type": "address"
        },
        {
          "internalType": "contract IERC20",
          "name": "token1",
          "type": "address"
        }
      ],
      "name": "getPools",
      "outputs": [
        {
          "internalType": "address[]",
          "name": "_tokenPools",
          "type": "address[]"
        }
      ],
      "stateMutability": "view",
      "type": "function"
    },
    {
      "inputs": [],
      "name": "owner",
      "outputs": [
        {
          "internalType": "address",
          "name": "",
          "type": "address"
        }
      ],
      "stateMutability": "view",
      "type": "function"
    },
    {
      "inputs": [],
      "name": "renounceOwnership",
      "outputs": [],
      "stateMutability": "nonpayable",
      "type": "function"
    },
    {
      "inputs": [
        {
          "internalType": "address",
          "name": "newOwner",
          "type": "address"
        }
      ],
      "name": "transferOwnership",
      "outputs": [],
      "stateMutability": "nonpayable",
      "type": "function"
    }
  ],
  "bytecode": "0x60a060405234801561001057600080fd5b50604051610ca4380380610ca48339818101604052602081101561003357600080fd5b5051600061003f61009e565b600080546001600160a01b0319166001600160a01b0383169081178255604051929350917f8be0079c531659141344cd1fd0a4f28419497f9722a3daafe3b4186f6b6457e0908290a35060601b6001600160601b0319166080526100a2565b3390565b60805160601c610be06100c460003980610273528061076f5250610be06000f3fe608060405234801561001057600080fd5b50600436106100725760003560e01c80638da5cb5b116100505780638da5cb5b14610157578063c45a015514610188578063f2fde38b1461019057610072565b806324ca32b3146100775780635b1dc86f146100c4578063715018a61461014f575b600080fd5b6100c26004803603608081101561008d57600080fd5b5073ffffffffffffffffffffffffffffffffffffffff81358116916020810135821691604082013516906060013515156101c3565b005b6100ff600480360360408110156100da57600080fd5b5073ffffffffffffffffffffffffffffffffffffffff8135811691602001351661052b565b60408051602080825283518183015283519192839290830191858101910280838360005b8381101561013b578181015183820152602001610123565b505050509050019250505060405180910390f35b6100c261063a565b61015f610751565b6040805173ffffffffffffffffffffffffffffffffffffffff9092168252519081900360200190f35b61015f61076d565b6100c2600480360360208110156101a657600080fd5b503573ffffffffffffffffffffffffffffffffffffffff16610791565b6101cb610932565b73ffffffffffffffffffffffffffffffffffffffff166101e9610751565b73ffffffffffffffffffffffffffffffffffffffff161461026b57604080517f08c379a000000000000000000000000000000000000000000000000000000000815260206004820181905260248201527f4f776e61626c653a2063616c6c6572206973206e6f7420746865206f776e6572604482015290519081900360640190fd5b801561044a577f000000000000000000000000000000000000000000000000000000000000000073ffffffffffffffffffffffffffffffffffffffff1663eb787f618585856040518463ffffffff1660e01b8152600401808473ffffffffffffffffffffffffffffffffffffffff1681526020018373ffffffffffffffffffffffffffffffffffffffff1681526020018273ffffffffffffffffffffffffffffffffffffffff168152602001935050505060206040518083038186803b15801561033457600080fd5b505afa158015610348573d6000803e3d6000fd5b505050506040513d602081101561035e57600080fd5b50516103cb57604080517f08c379a000000000000000000000000000000000000000000000000000000000815260206004820152601660248201527f52656769737472793a20494e56414c49445f504f4f4c00000000000000000000604482015290519081900360640190fd5b73ffffffffffffffffffffffffffffffffffffffff80851660009081526001602090815260408083209387168352929052206104079083610936565b5073ffffffffffffffffffffffffffffffffffffffff80841660009081526001602090815260408083209388168352929052206104449083610936565b506104c5565b73ffffffffffffffffffffffffffffffffffffffff80851660009081526001602090815260408083209387168352929052206104869083610961565b5073ffffffffffffffffffffffffffffffffffffffff80841660009081526001602090815260408083209388168352929052206104c39083610961565b505b6040805173ffffffffffffffffffffffffffffffffffffffff80871682528086166020830152841681830152821515606082015290517f0a02747d615a6fc80c96a31faac62e7f6a579a39ad451622a6970c974f4f903b9181900360800190a150505050565b73ffffffffffffffffffffffffffffffffffffffff808316600090815260016020908152604080832093851683529290529081206060919061056c90610983565b90508067ffffffffffffffff8111801561058557600080fd5b506040519080825280602002602001820160405280156105af578160200160208202803683370190505b50915060005b818110156106325773ffffffffffffffffffffffffffffffffffffffff80861660009081526001602090815260408083209388168352929052206105f9908261098e565b83828151811061060557fe5b73ffffffffffffffffffffffffffffffffffffffff909216602092830291909101909101526001016105b5565b505092915050565b610642610932565b73ffffffffffffffffffffffffffffffffffffffff16610660610751565b73ffffffffffffffffffffffffffffffffffffffff16146106e257604080517f08c379a000000000000000000000000000000000000000000000000000000000815260206004820181905260248201527f4f776e61626c653a2063616c6c6572206973206e6f7420746865206f776e6572604482015290519081900360640190fd5b6000805460405173ffffffffffffffffffffffffffffffffffffffff909116907f8be0079c531659141344cd1fd0a4f28419497f9722a3daafe3b4186f6b6457e0908390a3600080547fffffffffffffffffffffffff0000000000000000000000000000000000000000169055565b60005473ffffffffffffffffffffffffffffffffffffffff1690565b7f000000000000000000000000000000000000000000000000000000000000000081565b610799610932565b73ffffffffffffffffffffffffffffffffffffffff166107b7610751565b73ffffffffffffffffffffffffffffffffffffffff161461083957604080517f08c379a000000000000000000000000000000000000000000000000000000000815260206004820181905260248201527f4f776e61626c653a2063616c6c6572206973206e6f7420746865206f776e6572604482015290519081900360640190fd5b73ffffffffffffffffffffffffffffffffffffffff81166108a5576040517f08c379a0000000000000000000000000000000000000000000000000000000008152600401808060200182810382526026815260200180610b856026913960400191505060405180910390fd5b6000805460405173ffffffffffffffffffffffffffffffffffffffff808516939216917f8be0079c531659141344cd1fd0a4f28419497f9722a3daafe3b4186f6b6457e091a3600080547fffffffffffffffffffffffff00000000000000000000000000000000000000001673ffffffffffffffffffffffffffffffffffffffff92909216919091179055565b3390565b60006109588373ffffffffffffffffffffffffffffffffffffffff841661099a565b90505b92915050565b60006109588373ffffffffffffffffffffffffffffffffffffffff84166109e4565b600061095b82610ac8565b60006109588383610acc565b60006109a68383610b4a565b6109dc5750815460018181018455600084815260208082209093018490558454848252828601909352604090209190915561095b565b50600061095b565b60008181526001830160205260408120548015610abe5783547fffffffffffffffffffffffffffffffffffffffffffffffffffffffffffffffff8083019190810190600090879083908110610a3557fe5b9060005260206000200154905080876000018481548110610a5257fe5b600091825260208083209091019290925582815260018981019092526040902090840190558654879080610a8257fe5b6001900381819060005260206000200160009055905586600101600087815260200190815260200160002060009055600194505050505061095b565b600091505061095b565b5490565b81546000908210610b28576040517f08c379a0000000000000000000000000000000000000000000000000000000008152600401808060200182810382526022815260200180610b636022913960400191505060405180910390fd5b826000018281548110610b3757fe5b9060005260206000200154905092915050565b6000908152600191909101602052604090205415159056fe456e756d657261626c655365743a20696e646578206f7574206f6620626f756e64734f776e61626c653a206e6577206f776e657220697320746865207a65726f2061646472657373a264697066735822122049ea09214423b6a2c5086b3e36665af3915e5723cd75e9e12d595cf79a3503ac64736f6c634300060c0033",
  "linkReferences": {},
  "deployedLinkReferences": {}
}