{
  "_format": "hh-sol-artifact-1",
  "contractName": "MockDMMPool",
  "sourceName": "contracts/mock/MockDMMPair.sol",
  "abi": [
    {
      "inputs": [
        {
          "internalType": "address",
          "name": "_factory",
          "type": "address"
        },
        {
          "internalType": "contract IERC20",
          "name": "_token0",
          "type": "address"
        },
        {
          "internalType": "contract IERC20",
          "name": "_token1",
          "type": "address"
        },
        {
          "internalType": "bool",
          "name": "isAmpPool",
          "type": "bool"
        }
      ],
      "stateMutability": "nonpayable",
      "type": "constructor"
    },
    {
      "anonymous": false,
      "inputs": [
        {
          "indexed": true,
          "internalType": "address",
          "name": "owner",
          "type": "address"
        },
        {
          "indexed": true,
          "internalType": "address",
          "name": "spender",
          "type": "address"
        },
        {
          "indexed": false,
          "internalType": "uint256",
          "name": "value",
          "type": "uint256"
        }
      ],
      "name": "Approval",
      "type": "event"
    },
    {
      "anonymous": false,
      "inputs": [
        {
          "indexed": true,
          "internalType": "address",
          "name": "sender",
          "type": "address"
        },
        {
          "indexed": false,
          "internalType": "uint256",
          "name": "amount0",
          "type": "uint256"
        },
        {
          "indexed": false,
          "internalType": "uint256",
          "name": "amount1",
          "type": "uint256"
        },
        {
          "indexed": true,
          "internalType": "address",
          "name": "to",
          "type": "address"
        }
      ],
      "name": "Burn",
      "type": "event"
    },
    {
      "anonymous": false,
      "inputs": [
        {
          "indexed": true,
          "internalType": "address",
          "name": "sender",
          "type": "address"
        },
        {
          "indexed": false,
          "internalType": "uint256",
          "name": "amount0",
          "type": "uint256"
        },
        {
          "indexed": false,
          "internalType": "uint256",
          "name": "amount1",
          "type": "uint256"
        }
      ],
      "name": "Mint",
      "type": "event"
    },
    {
      "anonymous": false,
      "inputs": [
        {
          "indexed": true,
          "internalType": "address",
          "name": "sender",
          "type": "address"
        },
        {
          "indexed": false,
          "internalType": "uint256",
          "name": "amount0In",
          "type": "uint256"
        },
        {
          "indexed": false,
          "internalType": "uint256",
          "name": "amount1In",
          "type": "uint256"
        },
        {
          "indexed": false,
          "internalType": "uint256",
          "name": "amount0Out",
          "type": "uint256"
        },
        {
          "indexed": false,
          "internalType": "uint256",
          "name": "amount1Out",
          "type": "uint256"
        },
        {
          "indexed": true,
          "internalType": "address",
          "name": "to",
          "type": "address"
        },
        {
          "indexed": false,
          "internalType": "uint256",
          "name": "feeInPrecision",
          "type": "uint256"
        }
      ],
      "name": "Swap",
      "type": "event"
    },
    {
      "anonymous": false,
      "inputs": [
        {
          "indexed": false,
          "internalType": "uint256",
          "name": "vReserve0",
          "type": "uint256"
        },
        {
          "indexed": false,
          "internalType": "uint256",
          "name": "vReserve1",
          "type": "uint256"
        },
        {
          "indexed": false,
          "internalType": "uint256",
          "name": "reserve0",
          "type": "uint256"
        },
        {
          "indexed": false,
          "internalType": "uint256",
          "name": "reserve1",
          "type": "uint256"
        }
      ],
      "name": "Sync",
      "type": "event"
    },
    {
      "anonymous": false,
      "inputs": [
        {
          "indexed": true,
          "internalType": "address",
          "name": "from",
          "type": "address"
        },
        {
          "indexed": true,
          "internalType": "address",
          "name": "to",
          "type": "address"
        },
        {
          "indexed": false,
          "internalType": "uint256",
          "name": "value",
          "type": "uint256"
        }
      ],
      "name": "Transfer",
      "type": "event"
    },
    {
      "anonymous": false,
      "inputs": [
        {
          "indexed": false,
          "internalType": "uint256",
          "name": "shortEMA",
          "type": "uint256"
        },
        {
          "indexed": false,
          "internalType": "uint256",
          "name": "longEMA",
          "type": "uint256"
        },
        {
          "indexed": false,
          "internalType": "uint128",
          "name": "lastBlockVolume",
          "type": "uint128"
        },
        {
          "indexed": false,
          "internalType": "uint256",
          "name": "skipBlock",
          "type": "uint256"
        }
      ],
      "name": "UpdateEMA",
      "type": "event"
    },
    {
      "inputs": [],
      "name": "MINIMUM_LIQUIDITY",
      "outputs": [
        {
          "internalType": "uint256",
          "name": "",
          "type": "uint256"
        }
      ],
      "stateMutability": "view",
      "type": "function"
    },
    {
      "inputs": [],
      "name": "PERMIT_TYPEHASH",
      "outputs": [
        {
          "internalType": "bytes32",
          "name": "",
          "type": "bytes32"
        }
      ],
      "stateMutability": "view",
      "type": "function"
    },
    {
      "inputs": [
        {
          "internalType": "address",
          "name": "owner",
          "type": "address"
        },
        {
          "internalType": "address",
          "name": "spender",
          "type": "address"
        }
      ],
      "name": "allowance",
      "outputs": [
        {
          "internalType": "uint256",
          "name": "",
          "type": "uint256"
        }
      ],
      "stateMutability": "view",
      "type": "function"
    },
    {
      "inputs": [],
      "name": "ampBps",
      "outputs": [
        {
          "internalType": "uint32",
          "name": "",
          "type": "uint32"
        }
      ],
      "stateMutability": "view",
      "type": "function"
    },
    {
      "inputs": [
        {
          "internalType": "address",
          "name": "spender",
          "type": "address"
        },
        {
          "internalType": "uint256",
          "name": "amount",
          "type": "uint256"
        }
      ],
      "name": "approve",
      "outputs": [
        {
          "internalType": "bool",
          "name": "",
          "type": "bool"
        }
      ],
      "stateMutability": "nonpayable",
      "type": "function"
    },
    {
      "inputs": [
        {
          "internalType": "address",
          "name": "account",
          "type": "address"
        }
      ],
      "name": "balanceOf",
      "outputs": [
        {
          "internalType": "uint256",
          "name": "",
          "type": "uint256"
        }
      ],
      "stateMutability": "view",
      "type": "function"
    },
    {
      "inputs": [
        {
          "internalType": "address",
          "name": "to",
          "type": "address"
        }
      ],
      "name": "burn",
      "outputs": [
        {
          "internalType": "uint256",
          "name": "amount0",
          "type": "uint256"
        },
        {
          "internalType": "uint256",
          "name": "amount1",
          "type": "uint256"
        }
      ],
      "stateMutability": "nonpayable",
      "type": "function"
    },
    {
      "inputs": [],
      "name": "decimals",
      "outputs": [
        {
          "internalType": "uint8",
          "name": "",
          "type": "uint8"
        }
      ],
      "stateMutability": "view",
      "type": "function"
    },
    {
      "inputs": [
        {
          "internalType": "address",
          "name": "spender",
          "type": "address"
        },
        {
          "internalType": "uint256",
          "name": "subtractedValue",
          "type": "uint256"
        }
      ],
      "name": "decreaseAllowance",
      "outputs": [
        {
          "internalType": "bool",
          "name": "",
          "type": "bool"
        }
      ],
      "stateMutability": "nonpayable",
      "type": "function"
    },
    {
      "inputs": [],
      "name": "domainSeparator",
      "outputs": [
        {
          "internalType": "bytes32",
          "name": "",
          "type": "bytes32"
        }
      ],
      "stateMutability": "view",
      "type": "function"
    },
    {
      "inputs": [],
      "name": "factory",
      "outputs": [
        {
          "internalType": "contract IDMMFactory",
          "name": "",
          "type": "address"
        }
      ],
      "stateMutability": "view",
      "type": "function"
    },
    {
      "inputs": [],
      "name": "getReserves",
      "outputs": [
        {
          "internalType": "uint112",
          "name": "_reserve0",
          "type": "uint112"
        },
        {
          "internalType": "uint112",
          "name": "_reserve1",
          "type": "uint112"
        }
      ],
      "stateMutability": "view",
      "type": "function"
    },
    {
      "inputs": [],
      "name": "getTradeInfo",
      "outputs": [
        {
          "internalType": "uint112",
          "name": "_reserve0",
          "type": "uint112"
        },
        {
          "internalType": "uint112",
          "name": "_reserve1",
          "type": "uint112"
        },
        {
          "internalType": "uint112",
          "name": "_vReserve0",
          "type": "uint112"
        },
        {
          "internalType": "uint112",
          "name": "_vReserve1",
          "type": "uint112"
        },
        {
          "internalType": "uint256",
          "name": "feeInPrecision",
          "type": "uint256"
        }
      ],
      "stateMutability": "view",
      "type": "function"
    },
    {
      "inputs": [],
      "name": "getVolumeTrendData",
      "outputs": [
        {
          "internalType": "uint128",
          "name": "_shortEMA",
          "type": "uint128"
        },
        {
          "internalType": "uint128",
          "name": "_longEMA",
          "type": "uint128"
        },
        {
          "internalType": "uint128",
          "name": "_currentBlockVolume",
          "type": "uint128"
        },
        {
          "internalType": "uint128",
          "name": "_lastTradeBlock",
          "type": "uint128"
        }
      ],
      "stateMutability": "view",
      "type": "function"
    },
    {
      "inputs": [
        {
          "internalType": "address",
          "name": "spender",
          "type": "address"
        },
        {
          "internalType": "uint256",
          "name": "addedValue",
          "type": "uint256"
        }
      ],
      "name": "increaseAllowance",
      "outputs": [
        {
          "internalType": "bool",
          "name": "",
          "type": "bool"
        }
      ],
      "stateMutability": "nonpayable",
      "type": "function"
    },
    {
      "inputs": [
        {
          "internalType": "contract IERC20",
          "name": "_token0",
          "type": "address"
        },
        {
          "internalType": "contract IERC20",
          "name": "_token1",
          "type": "address"
        },
        {
          "internalType": "uint32",
          "name": "_ampBps",
          "type": "uint32"
        }
      ],
      "name": "initialize",
      "outputs": [],
      "stateMutability": "nonpayable",
      "type": "function"
    },
    {
      "inputs": [],
      "name": "kLast",
      "outputs": [
        {
          "internalType": "uint256",
          "name": "",
          "type": "uint256"
        }
      ],
      "stateMutability": "view",
      "type": "function"
    },
    {
      "inputs": [
        {
          "internalType": "address",
          "name": "to",
          "type": "address"
        }
      ],
      "name": "mint",
      "outputs": [
        {
          "internalType": "uint256",
          "name": "liquidity",
          "type": "uint256"
        }
      ],
      "stateMutability": "nonpayable",
      "type": "function"
    },
    {
      "inputs": [],
      "name": "name",
      "outputs": [
        {
          "internalType": "string",
          "name": "",
          "type": "string"
        }
      ],
      "stateMutability": "view",
      "type": "function"
    },
    {
      "inputs": [
        {
          "internalType": "address",
          "name": "",
          "type": "address"
        }
      ],
      "name": "nonces",
      "outputs": [
        {
          "internalType": "uint256",
          "name": "",
          "type": "uint256"
        }
      ],
      "stateMutability": "view",
      "type": "function"
    },
    {
      "inputs": [
        {
          "internalType": "address",
          "name": "owner",
          "type": "address"
        },
        {
          "internalType": "address",
          "name": "spender",
          "type": "address"
        },
        {
          "internalType": "uint256",
          "name": "value",
          "type": "uint256"
        },
        {
          "internalType": "uint256",
          "name": "deadline",
          "type": "uint256"
        },
        {
          "internalType": "uint8",
          "name": "v",
          "type": "uint8"
        },
        {
          "internalType": "bytes32",
          "name": "r",
          "type": "bytes32"
        },
        {
          "internalType": "bytes32",
          "name": "s",
          "type": "bytes32"
        }
      ],
      "name": "permit",
      "outputs": [],
      "stateMutability": "nonpayable",
      "type": "function"
    },
    {
      "inputs": [
        {
          "internalType": "uint256",
          "name": "_fee",
          "type": "uint256"
        }
      ],
      "name": "setFee",
      "outputs": [],
      "stateMutability": "nonpayable",
      "type": "function"
    },
    {
      "inputs": [
        {
          "internalType": "uint112",
          "name": "_reserve0",
          "type": "uint112"
        },
        {
          "internalType": "uint112",
          "name": "_reserve1",
          "type": "uint112"
        },
        {
          "internalType": "uint112",
          "name": "_vReserve0",
          "type": "uint112"
        },
        {
          "internalType": "uint112",
          "name": "_vReserve1",
          "type": "uint112"
        }
      ],
      "name": "setReserves",
      "outputs": [],
      "stateMutability": "nonpayable",
      "type": "function"
    },
    {
      "inputs": [],
      "name": "simulationFee",
      "outputs": [
        {
          "internalType": "uint256",
          "name": "",
          "type": "uint256"
        }
      ],
      "stateMutability": "view",
      "type": "function"
    },
    {
      "inputs": [
        {
          "internalType": "address",
          "name": "to",
          "type": "address"
        }
      ],
      "name": "skim",
      "outputs": [],
      "stateMutability": "nonpayable",
      "type": "function"
    },
    {
      "inputs": [
        {
          "internalType": "uint256",
          "name": "amount0Out",
          "type": "uint256"
        },
        {
          "internalType": "uint256",
          "name": "amount1Out",
          "type": "uint256"
        },
        {
          "internalType": "address",
          "name": "to",
          "type": "address"
        },
        {
          "internalType": "bytes",
          "name": "callbackData",
          "type": "bytes"
        }
      ],
      "name": "swap",
      "outputs": [],
      "stateMutability": "nonpayable",
      "type": "function"
    },
    {
      "inputs": [],
      "name": "symbol",
      "outputs": [
        {
          "internalType": "string",
          "name": "",
          "type": "string"
        }
      ],
      "stateMutability": "view",
      "type": "function"
    },
    {
      "inputs": [],
      "name": "sync",
      "outputs": [],
      "stateMutability": "nonpayable",
      "type": "function"
    },
    {
      "inputs": [],
      "name": "token0",
      "outputs": [
        {
          "internalType": "contract IERC20",
          "name": "",
          "type": "address"
        }
      ],
      "stateMutability": "view",
      "type": "function"
    },
    {
      "inputs": [],
      "name": "token1",
      "outputs": [
        {
          "internalType": "contract IERC20",
          "name": "",
          "type": "address"
        }
      ],
      "stateMutability": "view",
      "type": "function"
    },
    {
      "inputs": [],
      "name": "totalSupply",
      "outputs": [
        {
          "internalType": "uint256",
          "name": "",
          "type": "uint256"
        }
      ],
      "stateMutability": "view",
      "type": "function"
    },
    {
      "inputs": [
        {
          "internalType": "address",
          "name": "recipient",
          "type": "address"
        },
        {
          "internalType": "uint256",
          "name": "amount",
          "type": "uint256"
        }
      ],
      "name": "transfer",
      "outputs": [
        {
          "internalType": "bool",
          "name": "",
          "type": "bool"
        }
      ],
      "stateMutability": "nonpayable",
      "type": "function"
    },
    {
      "inputs": [
        {
          "internalType": "address",
          "name": "sender",
          "type": "address"
        },
        {
          "internalType": "address",
          "name": "recipient",
          "type": "address"
        },
        {
          "internalType": "uint256",
          "name": "amount",
          "type": "uint256"
        }
      ],
      "name": "transferFrom",
      "outputs": [
        {
          "internalType": "bool",
          "name": "",
          "type": "bool"
        }
      ],
      "stateMutability": "nonpayable",
      "type": "function"
    }
  ],
  "bytecode": "0x60806040523480156200001157600080fd5b5060405162004aa038038062004aa0833981810160405260808110156200003757600080fd5b50805160208083015160408085015160609095015181518083018352600a81526904f726368617264204c560b41b81860190815283518085018552600681526504f52432d4c560d41b81880152845180860190955260018552603160f81b96850196909652815196979496949592946000949293929184918491620000c0916003919062000289565b508051620000d690600490602084019062000289565b50506005805460ff19166012179055508251602093840120815191840191909120604080517f8b73c3c69bb8fe3d512ecc4cf759cc79239f7b179b0ffacaa9a75d522b39400f818701528082019390935260608301919091524660808301523060a0808401919091528151808403909101815260c09092019052805192019190912060065550600160085560098054600160801b6001600160801b038085169182026001600160801b03199093169190911716179055620001974362000233565b600a80546001600160801b03928316600160801b02921691909117905550600b80546001600160a01b038681166001600160a01b03199283163317831617909255600c8054868416908316179055600d80549285169290911691909117905580620002055761271062000209565b6127115b600e601c6101000a81548163ffffffff021916908363ffffffff160217905550505050506200031b565b60006001600160801b0382111562000285576040805162461bcd60e51b815260206004820152601060248201526f0deeccae4ccd8deee40ead2dce86264760831b604482015290519081900360640190fd5b5090565b828054600181600116156101000203166002900490600052602060002090601f016020900481019282601f10620002cc57805160ff1916838001178555620002fc565b82800160010185558215620002fc579182015b82811115620002fc578251825591602001919060010190620002df565b50620002859291505b8082111562000285576000815560010162000305565b614775806200032b6000396000f3fe608060405234801561001057600080fd5b506004361061020b5760003560e01c806370a082311161012a578063bc25cf77116100bd578063d66940271161008c578063dd62ed3e11610071578063dd62ed3e1461081b578063f698da2514610856578063fff6cae91461085e5761020b565b8063d66940271461078c578063db4a8977146107d65761020b565b8063bc25cf77146106eb578063c45a01551461071e578063d21220a714610726578063d505accf1461072e5761020b565b806395d89b41116100f957806395d89b4114610669578063a457c2d714610671578063a9059cbb146106aa578063ba9a7a56146106e35761020b565b806370a08231146105af5780637464fc3d146105e25780637ecebe00146105ea57806389afcb441461061d5761020b565b806330adf81f116101a257806349386b161161017157806349386b16146104f457806369fe0e2d146105155780636a627842146105325780636ecf2b22146105655761020b565b806330adf81f1461048d578063313ce56714610495578063382c638d146104b357806339509351146104bb5761020b565b80630d94d50b116101de5780630d94d50b146103ba5780630dfe1681146103ff57806318160ddd1461043057806323b872dd1461044a5761020b565b8063022c0d9f1461021057806306fdde03146102ab5780630902f1ac14610328578063095ea7b31461036d575b600080fd5b6102a96004803603608081101561022657600080fd5b81359160208101359173ffffffffffffffffffffffffffffffffffffffff604083013516919081019060808101606082013564010000000081111561026a57600080fd5b82018360208201111561027c57600080fd5b8035906020019184600183028401116401000000008311171561029e57600080fd5b509092509050610866565b005b6102b3610f05565b6040805160208082528351818301528351919283929083019185019080838360005b838110156102ed5781810151838201526020016102d5565b50505050905090810190601f16801561031a5780820380516001836020036101000a031916815260200191505b509250505060405180910390f35b61033061131d565b60405180836dffffffffffffffffffffffffffff168152602001826dffffffffffffffffffffffffffff1681526020019250505060405180910390f35b6103a66004803603604081101561038357600080fd5b5073ffffffffffffffffffffffffffffffffffffffff813516906020013561134a565b604080519115158252519081900360200190f35b6103c2611368565b604080516fffffffffffffffffffffffffffffffff9586168152938516602085015291841683830152909216606082015290519081900360800190f35b6104076113a7565b6040805173ffffffffffffffffffffffffffffffffffffffff9092168252519081900360200190f35b6104386113c3565b60408051918252519081900360200190f35b6103a66004803603606081101561046057600080fd5b5073ffffffffffffffffffffffffffffffffffffffff8135811691602081013590911690604001356113c9565b61043861146b565b61049d61148f565b6040805160ff9092168252519081900360200190f35b610438611498565b6103a6600480360360408110156104d157600080fd5b5073ffffffffffffffffffffffffffffffffffffffff813516906020013561149e565b6104fc6114f9565b6040805163ffffffff9092168252519081900360200190f35b6102a96004803603602081101561052b57600080fd5b5035611525565b6104386004803603602081101561054857600080fd5b503573ffffffffffffffffffffffffffffffffffffffff1661152a565b6102a96004803603606081101561057b57600080fd5b50803573ffffffffffffffffffffffffffffffffffffffff908116916020810135909116906040013563ffffffff1661199a565b610438600480360360208110156105c557600080fd5b503573ffffffffffffffffffffffffffffffffffffffff16611ac8565b610438611af4565b6104386004803603602081101561060057600080fd5b503573ffffffffffffffffffffffffffffffffffffffff16611afa565b6106506004803603602081101561063357600080fd5b503573ffffffffffffffffffffffffffffffffffffffff16611b0c565b6040805192835260208301919091528051918290030190f35b6102b36120ea565b6103a66004803603604081101561068757600080fd5b5073ffffffffffffffffffffffffffffffffffffffff8135169060200135612432565b6103a6600480360360408110156106c057600080fd5b5073ffffffffffffffffffffffffffffffffffffffff81351690602001356124a7565b6104386124bb565b6102a96004803603602081101561070157600080fd5b503573ffffffffffffffffffffffffffffffffffffffff166124c1565b6104076126e3565b6104076126ff565b6102a9600480360360e081101561074457600080fd5b5073ffffffffffffffffffffffffffffffffffffffff813581169160208101359091169060408101359060608101359060ff6080820135169060a08101359060c0013561271b565b6107946129e7565b604080516dffffffffffffffffffffffffffff968716815294861660208601529285168484015293166060830152608082019290925290519081900360a00190f35b6102a9600480360360808110156107ec57600080fd5b506dffffffffffffffffffffffffffff8135811691602081013582169160408201358116916060013516612a83565b6104386004803603604081101561083157600080fd5b5073ffffffffffffffffffffffffffffffffffffffff81358116916020013516612b17565b610438612b4f565b6102a9612b55565b600260085414156108d857604080517f08c379a000000000000000000000000000000000000000000000000000000000815260206004820152601f60248201527f5265656e7472616e637947756172643a207265656e7472616e742063616c6c00604482015290519081900360640190fd5b6002600855841515806108eb5750600084115b61095657604080517f08c379a000000000000000000000000000000000000000000000000000000000815260206004820152601f60248201527f444d4d3a20494e53554646494349454e545f4f55545055545f414d4f554e5400604482015290519081900360640190fd5b600061096061451e565b610968612e12565b80519193509150871080156109805750806020015186105b6109eb57604080517f08c379a000000000000000000000000000000000000000000000000000000000815260206004820152601b60248201527f444d4d3a20494e53554646494349454e545f4c49515549444954590000000000604482015290519081900360640190fd5b6109f361451e565b600c54600d5473ffffffffffffffffffffffffffffffffffffffff918216919081169088168214801590610a5357508073ffffffffffffffffffffffffffffffffffffffff168873ffffffffffffffffffffffffffffffffffffffff1614155b610abe57604080517f08c379a000000000000000000000000000000000000000000000000000000000815260206004820152600f60248201527f444d4d3a20494e56414c49445f544f0000000000000000000000000000000000604482015290519081900360640190fd5b8915610ae557610ae573ffffffffffffffffffffffffffffffffffffffff8316898c612eb6565b8815610b0c57610b0c73ffffffffffffffffffffffffffffffffffffffff8216898b612eb6565b8515610bd8578773ffffffffffffffffffffffffffffffffffffffff166381279c7e338c8c8b8b6040518663ffffffff1660e01b8152600401808673ffffffffffffffffffffffffffffffffffffffff168152602001858152602001848152602001806020018281038252848482818152602001925080828437600081840152601f19601f8201169050808301925050509650505050505050600060405180830381600087803b158015610bbf57600080fd5b505af1158015610bd3573d6000803e3d6000fd5b505050505b604080517f70a08231000000000000000000000000000000000000000000000000000000008152306004820152905173ffffffffffffffffffffffffffffffffffffffff8416916370a08231916024808301926020929190829003018186803b158015610c4457600080fd5b505afa158015610c58573d6000803e3d6000fd5b505050506040513d6020811015610c6e57600080fd5b50518352604080517f70a08231000000000000000000000000000000000000000000000000000000008152306004820152905173ffffffffffffffffffffffffffffffffffffffff8316916370a08231916024808301926020929190829003018186803b158015610cde57600080fd5b505afa158015610cf2573d6000803e3d6000fd5b505050506040513d6020811015610d0857600080fd5b505160208401528415610d5c57835183516040860151610d339291610d2d9190612f48565b90612fbc565b6040840152602080850151908401516060860151610d569291610d2d9190612f48565b60608401525b5050815181516000918a900310610d74576000610d7f565b82518251908a900390035b9050600088846020015103836020015111610d9b576000610da9565b888460200151038360200151035b90506000821180610dba5750600081115b610e2557604080517f08c379a000000000000000000000000000000000000000000000000000000000815260206004820152601e60248201527f444d4d3a20494e53554646494349454e545f494e5055545f414d4f554e540000604482015290519081900360640190fd5b6000610e7f838388610e38578751610e3e565b87604001515b89610e4d578860200151610e53565b88606001515b8a610e5f578851610e65565b88604001515b8b610e74578960200151610e7a565b89606001515b613033565b9050610e8b868561312c565b60408051848152602081018490528082018d9052606081018c905260808101839052905173ffffffffffffffffffffffffffffffffffffffff8b169133917f606ecd02b3e3b4778f8e97b2e03351de14224efaa5fa64e62200afc9395c24999181900360a00190a350506001600855505050505050505050565b600c54600d54604080517f95d89b41000000000000000000000000000000000000000000000000000000008152905160609373ffffffffffffffffffffffffffffffffffffffff90811693169183916395d89b4191600480820192600092909190829003018186803b158015610f7a57600080fd5b505afa158015610f8e573d6000803e3d6000fd5b505050506040513d6000823e601f3d9081017fffffffffffffffffffffffffffffffffffffffffffffffffffffffffffffffe01682016040526020811015610fd557600080fd5b8101908080516040519392919084640100000000821115610ff557600080fd5b90830190602082018581111561100a57600080fd5b825164010000000081118282018810171561102457600080fd5b82525081516020918201929091019080838360005b83811015611051578181015183820152602001611039565b50505050905090810190601f16801561107e5780820380516001836020036101000a031916815260200191505b506040525050508173ffffffffffffffffffffffffffffffffffffffff166395d89b416040518163ffffffff1660e01b815260040160006040518083038186803b1580156110cb57600080fd5b505afa1580156110df573d6000803e3d6000fd5b505050506040513d6000823e601f3d9081017fffffffffffffffffffffffffffffffffffffffffffffffffffffffffffffffe0168201604052602081101561112657600080fd5b810190808051604051939291908464010000000082111561114657600080fd5b90830190602082018581111561115b57600080fd5b825164010000000081118282018810171561117557600080fd5b82525081516020918201929091019080838360005b838110156111a257818101518382015260200161118a565b50505050905090810190601f1680156111cf5780820380516001836020036101000a031916815260200191505b5060405250505060405160200180807f4f726368617264204c5020000000000000000000000000000000000000000000815250600b0183805190602001908083835b6020831061124e57805182527fffffffffffffffffffffffffffffffffffffffffffffffffffffffffffffffe09092019160209182019101611211565b6001836020036101000a038019825116818451168082178552505050505050905001807f2d0000000000000000000000000000000000000000000000000000000000000081525060010182805190602001908083835b602083106112e157805182527fffffffffffffffffffffffffffffffffffffffffffffffffffffffffffffffe090920191602091820191016112a4565b6001836020036101000a038019825116818451168082178552505050505050905001925050506040516020818303038152906040529250505090565b600e546dffffffffffffffffffffffffffff808216926e0100000000000000000000000000009092041690565b600061135e6113576132c7565b84846132cb565b5060015b92915050565b600954600a546fffffffffffffffffffffffffffffffff8083169370010000000000000000000000000000000093849004821693838316930490911690565b600c5473ffffffffffffffffffffffffffffffffffffffff1681565b60025490565b60006113d6848484613412565b611460846113e26132c7565b61145b8560405180606001604052806028815260200161463d6028913973ffffffffffffffffffffffffffffffffffffffff8a1660009081526001602052604081209061142d6132c7565b73ffffffffffffffffffffffffffffffffffffffff16815260208101919091526040016000205491906135e2565b6132cb565b5060015b9392505050565b7f6e71edae12b1b97f4d1f60370fef10105fa2faae0126114a169c64845d6126c981565b60055460ff1690565b60115481565b600061135e6114ab6132c7565b8461145b85600160006114bc6132c7565b73ffffffffffffffffffffffffffffffffffffffff908116825260208083019390935260409182016000908120918c168152925290205490612f48565b600e547c0100000000000000000000000000000000000000000000000000000000900463ffffffff1681565b601155565b60006002600854141561159e57604080517f08c379a000000000000000000000000000000000000000000000000000000000815260206004820152601f60248201527f5265656e7472616e637947756172643a207265656e7472616e742063616c6c00604482015290519081900360640190fd5b600260085560006115ad61451e565b6115b5612e12565b915091506115c161451e565b600c54604080517f70a08231000000000000000000000000000000000000000000000000000000008152306004820152905173ffffffffffffffffffffffffffffffffffffffff909216916370a0823191602480820192602092909190829003018186803b15801561163257600080fd5b505afa158015611646573d6000803e3d6000fd5b505050506040513d602081101561165c57600080fd5b50518152600d54604080517f70a08231000000000000000000000000000000000000000000000000000000008152306004820152905173ffffffffffffffffffffffffffffffffffffffff909216916370a0823191602480820192602092909190829003018186803b1580156116d157600080fd5b505afa1580156116e5573d6000803e3d6000fd5b505050506040513d60208110156116fb57600080fd5b50516020820152815181516000916117139190612fbc565b9050600061173284602001518460200151612fbc90919063ffffffff16565b905060006117408686613693565b9050600061174c6113c3565b90508061181a5786156117cf57600e54855163ffffffff7c01000000000000000000000000000000000000000000000000000000009092048216916127109161179791849061380216565b8161179e57fe5b0460408701526020860151612710906117c09063ffffffff8085169061380216565b816117c757fe5b046060870152505b6117e76103e8610d2d6117e28787613802565b613875565b97506118157fffffffffffffffffffffffffffffffffffffffffffffffffffffffffffffffff6103e86138c6565b6118cd565b85516118579061182a8684613802565b8161183157fe5b04876020015161184a848761380290919063ffffffff16565b8161185157fe5b046139f7565b975086156118cd57600061186b8983612f48565b905061189a82611888838a6040015161380290919063ffffffff16565b8161188f57fe5b048760000151613a0d565b604087015260608701516118c69083906118b49084613802565b816118bb57fe5b048760200151613a0d565b6060870152505b60008811611926576040517f08c379a00000000000000000000000000000000000000000000000000000000081526004018080602001828103825260228152602001806146656022913960400191505060405180910390fd5b61193089896138c6565b61193a878661312c565b811561194e5761194a8786613a1d565b6010555b6040805185815260208101859052815133927f4c209b5fc8ad50758f13e2e1088ba56a560dff690a1c6fef26394f4c03821c4f928290030190a250506001600855509395945050505050565b600b5473ffffffffffffffffffffffffffffffffffffffff163314611a2057604080517f08c379a000000000000000000000000000000000000000000000000000000000815260206004820152600e60248201527f444d4d3a20464f5242494444454e000000000000000000000000000000000000604482015290519081900360640190fd5b600c805473ffffffffffffffffffffffffffffffffffffffff9485167fffffffffffffffffffffffff000000000000000000000000000000000000000091821617909155600d805493909416921691909117909155600e805463ffffffff9092167c0100000000000000000000000000000000000000000000000000000000027bffffffffffffffffffffffffffffffffffffffffffffffffffffffff909216919091179055565b73ffffffffffffffffffffffffffffffffffffffff81166000908152602081905260409020545b919050565b60105481565b60076020526000908152604090205481565b60008060026008541415611b8157604080517f08c379a000000000000000000000000000000000000000000000000000000000815260206004820152601f60248201527f5265656e7472616e637947756172643a207265656e7472616e742063616c6c00604482015290519081900360640190fd5b60026008556000611b9061451e565b611b98612e12565b600c54600d54604080517f70a08231000000000000000000000000000000000000000000000000000000008152306004820152905194965092945073ffffffffffffffffffffffffffffffffffffffff9182169391169160009184916370a08231916024808301926020929190829003018186803b158015611c1957600080fd5b505afa158015611c2d573d6000803e3d6000fd5b505050506040513d6020811015611c4357600080fd5b5051604080517f70a08231000000000000000000000000000000000000000000000000000000008152306004820152905191925060009173ffffffffffffffffffffffffffffffffffffffff8516916370a08231916024808301926020929190829003018186803b158015611cb757600080fd5b505afa158015611ccb573d6000803e3d6000fd5b505050506040513d6020811015611ce157600080fd5b505185519091508210801590611cfb575084602001518110155b611d6657604080517f08c379a000000000000000000000000000000000000000000000000000000000815260206004820152601460248201527f444d4d3a20554e53594e435f5245534552564553000000000000000000000000604482015290519081900360640190fd5b6000611d7130611ac8565b90506000611d7f8888613693565b90506000611d8b6113c3565b905080611d988487613802565b81611d9f57fe5b049a5080611dad8486613802565b81611db457fe5b04995060008b118015611dc7575060008a115b611e1c576040517f08c379a00000000000000000000000000000000000000000000000000000000081526004018080602001828103825260228152602001806145fa6022913960400191505060405180910390fd5b611e263084613a43565b611e4773ffffffffffffffffffffffffffffffffffffffff88168d8d612eb6565b611e6873ffffffffffffffffffffffffffffffffffffffff87168d8c612eb6565b611e7061451e565b604080517f70a08231000000000000000000000000000000000000000000000000000000008152306004820152905173ffffffffffffffffffffffffffffffffffffffff8a16916370a08231916024808301926020929190829003018186803b158015611edc57600080fd5b505afa158015611ef0573d6000803e3d6000fd5b505050506040513d6020811015611f0657600080fd5b50518152604080517f70a08231000000000000000000000000000000000000000000000000000000008152306004820152905173ffffffffffffffffffffffffffffffffffffffff8916916370a08231916024808301926020929190829003018186803b158015611f7657600080fd5b505afa158015611f8a573d6000803e3d6000fd5b505050506040513d6020811015611fa057600080fd5b5051602082015289156120485788518151600091611fe691611fc29086613802565b81611fc957fe5b048b6020015161184a86866020015161380290919063ffffffff16565b905061201583612003838d6040015161380290919063ffffffff16565b8161200a57fe5b048360000151613a0d565b604083015260608a015161204190849061202f9084613802565b8161203657fe5b048360200151613a0d565b6060830152505b6120528a8261312c565b8215612066576120628a82613a1d565b6010555b8c73ffffffffffffffffffffffffffffffffffffffff163373ffffffffffffffffffffffffffffffffffffffff167fdccd412f0b1252819cb1fd330b93224ca42612892bb3f4f789976e6d819364968e8e604051808381526020018281526020019250505060405180910390a3505050505050505050506001600881905550915091565b600c54600d54604080517f95d89b41000000000000000000000000000000000000000000000000000000008152905160609373ffffffffffffffffffffffffffffffffffffffff90811693169183916395d89b4191600480820192600092909190829003018186803b15801561215f57600080fd5b505afa158015612173573d6000803e3d6000fd5b505050506040513d6000823e601f3d9081017fffffffffffffffffffffffffffffffffffffffffffffffffffffffffffffffe016820160405260208110156121ba57600080fd5b81019080805160405193929190846401000000008211156121da57600080fd5b9083019060208201858111156121ef57600080fd5b825164010000000081118282018810171561220957600080fd5b82525081516020918201929091019080838360005b8381101561223657818101518382015260200161221e565b50505050905090810190601f1680156122635780820380516001836020036101000a031916815260200191505b506040525050508173ffffffffffffffffffffffffffffffffffffffff166395d89b416040518163ffffffff1660e01b815260040160006040518083038186803b1580156122b057600080fd5b505afa1580156122c4573d6000803e3d6000fd5b505050506040513d6000823e601f3d9081017fffffffffffffffffffffffffffffffffffffffffffffffffffffffffffffffe0168201604052602081101561230b57600080fd5b810190808051604051939291908464010000000082111561232b57600080fd5b90830190602082018581111561234057600080fd5b825164010000000081118282018810171561235a57600080fd5b82525081516020918201929091019080838360005b8381101561238757818101518382015260200161236f565b50505050905090810190601f1680156123b45780820380516001836020036101000a031916815260200191505b5060405250505060405160200180807f4f52432d4c50200000000000000000000000000000000000000000000000000081525060070183805190602001908083836020831061124e57805182527fffffffffffffffffffffffffffffffffffffffffffffffffffffffffffffffe09092019160209182019101611211565b600061135e61243f6132c7565b8461145b8560405180606001604052806025815260200161471b60259139600160006124696132c7565b73ffffffffffffffffffffffffffffffffffffffff908116825260208083019390935260409182016000908120918d168152925290205491906135e2565b600061135e6124b46132c7565b8484613412565b6103e881565b6002600854141561253357604080517f08c379a000000000000000000000000000000000000000000000000000000000815260206004820152601f60248201527f5265656e7472616e637947756172643a207265656e7472616e742063616c6c00604482015290519081900360640190fd5b6002600855600e54600c54604080517f70a08231000000000000000000000000000000000000000000000000000000008152306004820152905161261a9385936125fa936dffffffffffffffffffffffffffff9092169273ffffffffffffffffffffffffffffffffffffffff909116916370a08231916024808301926020929190829003018186803b1580156125c857600080fd5b505afa1580156125dc573d6000803e3d6000fd5b505050506040513d60208110156125f257600080fd5b505190612fbc565b600c5473ffffffffffffffffffffffffffffffffffffffff169190612eb6565b600e54600d54604080517f70a0823100000000000000000000000000000000000000000000000000000000815230600482015290516126db9385936126bb936e0100000000000000000000000000009092046dffffffffffffffffffffffffffff169273ffffffffffffffffffffffffffffffffffffffff909116916370a08231916024808301926020929190829003018186803b1580156125c857600080fd5b600d5473ffffffffffffffffffffffffffffffffffffffff169190612eb6565b506001600855565b600b5473ffffffffffffffffffffffffffffffffffffffff1681565b600d5473ffffffffffffffffffffffffffffffffffffffff1681565b4284101561278a57604080517f08c379a000000000000000000000000000000000000000000000000000000000815260206004820152601460248201527f45524332305065726d69743a2045585049524544000000000000000000000000604482015290519081900360640190fd5b60065473ffffffffffffffffffffffffffffffffffffffff80891660008181526007602090815260408083208054600180820190925582517f6e71edae12b1b97f4d1f60370fef10105fa2faae0126114a169c64845d6126c98186015280840196909652958d166060860152608085018c905260a085019590955260c08085018b90528151808603909101815260e0850182528051908301207f19010000000000000000000000000000000000000000000000000000000000006101008601526101028501969096526101228085019690965280518085039096018652610142840180825286519683019690962095839052610162840180825286905260ff89166101828501526101a284018890526101c28401879052519193926101e2808201937fffffffffffffffffffffffffffffffffffffffffffffffffffffffffffffffe081019281900390910190855afa1580156128eb573d6000803e3d6000fd5b50506040517fffffffffffffffffffffffffffffffffffffffffffffffffffffffffffffffe0015191505073ffffffffffffffffffffffffffffffffffffffff81161580159061296657508873ffffffffffffffffffffffffffffffffffffffff168173ffffffffffffffffffffffffffffffffffffffff16145b6129d157604080517f08c379a000000000000000000000000000000000000000000000000000000000815260206004820152601e60248201527f45524332305065726d69743a20494e56414c49445f5349474e41545552450000604482015290519081900360640190fd5b6129dc8989896132cb565b505050505050505050565b600e54600f546dffffffffffffffffffffffffffff808316926e0100000000000000000000000000008082048316938381169391900416906000907c0100000000000000000000000000000000000000000000000000000000900463ffffffff16612710811415612a59578593508492505b6000612a6443613b8d565b9050612a78612a7282613d31565b83613f1e565b925050509091929394565b600e80547fffffffffffffffffffffffffffffffffffff00000000000000000000000000009081166dffffffffffffffffffffffffffff968716177fffffffff0000000000000000000000000000ffffffffffffffffffffffffffff9081166e010000000000000000000000000000968816870217909255600f805490911693861693909317169316909102919091179055565b73ffffffffffffffffffffffffffffffffffffffff918216600090815260016020908152604080832093909416825291909152205490565b60065481565b60026008541415612bc757604080517f08c379a000000000000000000000000000000000000000000000000000000000815260206004820152601f60248201527f5265656e7472616e637947756172643a207265656e7472616e742063616c6c00604482015290519081900360640190fd5b60026008556000612bd661451e565b612bde612e12565b915091506000612bee8383613693565b9050612bf861451e565b600c54604080517f70a08231000000000000000000000000000000000000000000000000000000008152306004820152905173ffffffffffffffffffffffffffffffffffffffff909216916370a0823191602480820192602092909190829003018186803b158015612c6957600080fd5b505afa158015612c7d573d6000803e3d6000fd5b505050506040513d6020811015612c9357600080fd5b50518152600d54604080517f70a08231000000000000000000000000000000000000000000000000000000008152306004820152905173ffffffffffffffffffffffffffffffffffffffff909216916370a0823191602480820192602092909190829003018186803b158015612d0857600080fd5b505afa158015612d1c573d6000803e3d6000fd5b505050506040513d6020811015612d3257600080fd5b505160208201528315612de9576000612d496113c3565b84518351919250600091612d869190612d629085613802565b81612d6957fe5b04866020015161184a85876020015161380290919063ffffffff16565b9050612db582612da383886040015161380290919063ffffffff16565b81612daa57fe5b048460000151613a0d565b60408401526060850151612de1908390612dcf9084613802565b81612dd657fe5b048460200151613a0d565b606084015250505b612df3848261312c565b8115612e0757612e038482613a1d565b6010555b505060016008555050565b6000612e1c61451e565b600e546dffffffffffffffffffffffffffff80821683526e010000000000000000000000000000820416602083015263ffffffff7c0100000000000000000000000000000000000000000000000000000000909104166127101480159250612eb257600f546dffffffffffffffffffffffffffff80821660408401526e0100000000000000000000000000009091041660608201525b9091565b6040805173ffffffffffffffffffffffffffffffffffffffff8416602482015260448082018490528251808303909101815260649091019091526020810180517bffffffffffffffffffffffffffffffffffffffffffffffffffffffff167fa9059cbb00000000000000000000000000000000000000000000000000000000179052612f43908490613f7a565b505050565b60008282018381101561146457604080517f08c379a000000000000000000000000000000000000000000000000000000000815260206004820152601b60248201527f536166654d6174683a206164646974696f6e206f766572666c6f770000000000604482015290519081900360640190fd5b60008282111561302d57604080517f08c379a000000000000000000000000000000000000000000000000000000000815260206004820152601e60248201527f536166654d6174683a207375627472616374696f6e206f766572666c6f770000604482015290519081900360640190fd5b50900390565b601154600061304a84670de0b6b3a7640000613802565b90506130606130598984613802565b8290612fbc565b9050670de0b6b3a764000081049050600061308384670de0b6b3a7640000613802565b90506130926130598985613802565b670de0b6b3a7640000900490506130a98787613802565b6130b38383613802565b101561312057604080517f08c379a000000000000000000000000000000000000000000000000000000000815260206004820152600660248201527f444d4d3a204b0000000000000000000000000000000000000000000000000000604482015290519081900360640190fd5b50509695505050505050565b805161313790614052565b600e80547fffffffffffffffffffffffffffffffffffff0000000000000000000000000000166dffffffffffffffffffffffffffff92909216919091179055602081015161318490614052565b600e806101000a8154816dffffffffffffffffffffffffffff02191690836dffffffffffffffffffffffffffff160217905550811561326f5780516040820151108015906131da57508060200151816060015110155b6131e057fe5b6131ed8160400151614052565b600f80547fffffffffffffffffffffffffffffffffffff0000000000000000000000000000166dffffffffffffffffffffffffffff92909216919091179055606081015161323a90614052565b600f600e6101000a8154816dffffffffffffffffffffffffffff02191690836dffffffffffffffffffffffffffff1602179055505b6040808201516060808401518451602080870151865195865290850192909252838501529082015290517f2f9d55abfefdfd4c3a83e00a1b419b3c2fe4b83100c559f0e2213e57f6e0bba99181900360800190a15050565b3390565b73ffffffffffffffffffffffffffffffffffffffff8316613337576040517f08c379a00000000000000000000000000000000000000000000000000000000081526004018080602001828103825260248152602001806146cd6024913960400191505060405180910390fd5b73ffffffffffffffffffffffffffffffffffffffff82166133a3576040517f08c379a000000000000000000000000000000000000000000000000000000000815260040180806020018281038252602281526020018061458c6022913960400191505060405180910390fd5b73ffffffffffffffffffffffffffffffffffffffff808416600081815260016020908152604080832094871680845294825291829020859055815185815291517f8c5be1e5ebec7d5bd14f71427d1e84f3dd0314c0f7b2291e5b200ac8c7c3b9259281900390910190a3505050565b73ffffffffffffffffffffffffffffffffffffffff831661347e576040517f08c379a00000000000000000000000000000000000000000000000000000000081526004018080602001828103825260258152602001806146a86025913960400191505060405180910390fd5b73ffffffffffffffffffffffffffffffffffffffff82166134ea576040517f08c379a00000000000000000000000000000000000000000000000000000000081526004018080602001828103825260238152602001806145476023913960400191505060405180910390fd5b6134f5838383612f43565b61353f816040518060600160405280602681526020016145ae6026913973ffffffffffffffffffffffffffffffffffffffff861660009081526020819052604090205491906135e2565b73ffffffffffffffffffffffffffffffffffffffff808516600090815260208190526040808220939093559084168152205461357b9082612f48565b73ffffffffffffffffffffffffffffffffffffffff8084166000818152602081815260409182902094909455805185815290519193928716927fddf252ad1be2c89b69c2b068fc378daa952ba7f163c4a11628f55a4df523b3ef92918290030190a3505050565b6000818484111561368b576040517f08c379a00000000000000000000000000000000000000000000000000000000081526004018080602001828103825283818151815260200191508051906020019080838360005b83811015613650578181015183820152602001613638565b50505050905090810190601f16801561367d5780820380516001836020036101000a031916815260200191505b509250505060405180910390fd5b505050900390565b6000806000600b60009054906101000a900473ffffffffffffffffffffffffffffffffffffffff1673ffffffffffffffffffffffffffffffffffffffff1663ad5cb2e16040518163ffffffff1660e01b8152600401604080518083038186803b1580156136ff57600080fd5b505afa158015613713573d6000803e3d6000fd5b505050506040513d604081101561372957600080fd5b50805160209091015160105473ffffffffffffffffffffffffffffffffffffffff83161580159650929450909250906137ed5780156137e85760006137716117e28888613a1d565b9050600061377e83613875565b9050808211156137e55760006137ad61ffff86166137a761379f8686612fbc565b6137a76113c3565b90613802565b905060006137c16113886137a78686612f48565b905060008183816137ce57fe5b04905080156137e1576137e188826138c6565b5050505b50505b6137f9565b80156137f95760006010555b50505092915050565b60008261381157506000611362565b8282028284828161381e57fe5b0414611464576040517f08c379a000000000000000000000000000000000000000000000000000000000815260040180806020018281038252602181526020018061461c6021913960400191505060405180910390fd5b600060038211156138b8575080600160028204015b818110156138b2578091506002818285816138a157fe5b0401816138aa57fe5b04905061388a565b50611aef565b8115611aef57506001919050565b73ffffffffffffffffffffffffffffffffffffffff821661394857604080517f08c379a000000000000000000000000000000000000000000000000000000000815260206004820152601f60248201527f45524332303a206d696e7420746f20746865207a65726f206164647265737300604482015290519081900360640190fd5b61395460008383612f43565b6002546139619082612f48565b60025573ffffffffffffffffffffffffffffffffffffffff82166000908152602081905260409020546139949082612f48565b73ffffffffffffffffffffffffffffffffffffffff83166000818152602081815260408083209490945583518581529351929391927fddf252ad1be2c89b69c2b068fc378daa952ba7f163c4a11628f55a4df523b3ef9281900390910190a35050565b6000818310613a065781611464565b5090919050565b600081831015613a065781611464565b600082613a31576020820151825102611464565b50606081015160409091015102919050565b73ffffffffffffffffffffffffffffffffffffffff8216613aaf576040517f08c379a00000000000000000000000000000000000000000000000000000000081526004018080602001828103825260218152602001806146876021913960400191505060405180910390fd5b613abb82600083612f43565b613b058160405180606001604052806022815260200161456a6022913973ffffffffffffffffffffffffffffffffffffffff851660009081526020819052604090205491906135e2565b73ffffffffffffffffffffffffffffffffffffffff8316600090815260208190526040902055600254613b389082612fbc565b60025560408051828152905160009173ffffffffffffffffffffffffffffffffffffffff8516917fddf252ad1be2c89b69c2b068fc378daa952ba7f163c4a11628f55a4df523b3ef9181900360200190a35050565b600a5460009070010000000000000000000000000000000090046fffffffffffffffffffffffffffffffff16820380613bfe57600954613bf6906fffffffffffffffffffffffffffffffff808216917001000000000000000000000000000000009004166140d5565b915050611aef565b600954600090613c45906fffffffffffffffffffffffffffffffff16611519671bc16d674ec800005b600a54919004906fffffffffffffffffffffffffffffffff166140ff565b600954909150600090613c899070010000000000000000000000000000000090046fffffffffffffffffffffffffffffffff16612a31671bc16d674ec80000613c27565b9050613cd9613cd27fffffffffffffffffffffffffffffffffffffffffffffffffffffffffffffffff8501611519671bc16d674ec800005b04670de0b6b3a76400000390614160565b8390614231565b9150613d1c613d157fffffffffffffffffffffffffffffffffffffffffffffffffffffffffffffffff8501612a31671bc16d674ec80000613cc1565b8290614231565b9050613d2882826140d5565b95945050505050565b6000671480cc142da92a848210613d505750661550f7dca70000611aef565b670de0b6b3a76400008210613e5e576710a741a462780000821115613dff577fffffffffffffffffffffffffffffffffffffffffffffffffef58be5b9d88000082016000613d9f826003614160565b9050612710613dee613dbf846009680d8d726b7177a800005b0490614231565b613de8613dd885601b69043c33c1937564800000613db8565b6801fa48421ec7b1ed0990612f48565b90612f48565b81613df557fe5b0492505050611aef565b6710a741a4627800008290036000613e18826003614160565b9050612710613dee613e35846009680d8d726b7177a80000613db8565b610d2d613e4e85601b69043c33c1937564800000613db8565b6801fa48421ec7b1ed0990612fbc565b6000670b9a1192183a00008311613e8057670b9a1192183a0000839003613ea4565b7ffffffffffffffffffffffffffffffffffffffffffffffffff465ee6de7c6000083015b9050613eb1816002614160565b90506000613ee0613ec88365b5e620f48000612f48565b613eda674563918244f4000085613802565b9061424d565b9050670b9a1192183a0000841115613f0857612710613dee6801161163ae0de59a9283612f48565b612710613dee6801161163ae0de59a9283612fbc565b6000614e208263ffffffff1611613f36575081611362565b61c3508263ffffffff1611613f5457601e601484025b049050611362565b62030d408263ffffffff1611613f6f57601e600a8402613f4c565b601e60048402613f4c565b6060613fdc826040518060400160405280602081526020017f5361666545524332303a206c6f772d6c6576656c2063616c6c206661696c65648152508573ffffffffffffffffffffffffffffffffffffffff166142c69092919063ffffffff16565b805190915015612f4357808060200190516020811015613ffb57600080fd5b5051612f43576040517f08c379a000000000000000000000000000000000000000000000000000000000815260040180806020018281038252602a8152602001806146f1602a913960400191505060405180910390fd5b60006dffffffffffffffffffffffffffff8211156140d157604080517f08c379a000000000000000000000000000000000000000000000000000000000815260206004820152600d60248201527f444d4d3a204f564552464c4f5700000000000000000000000000000000000000604482015290519081900360640190fd5b5090565b6000816140e457506000611362565b81670de0b6b3a76400008402816140f757fe5b049392505050565b6000670de0b6b3a7640000831061411257fe5b670de0b6b3a7640000826fffffffffffffffffffffffffffffffff168402856fffffffffffffffffffffffffffffffff1685670de0b6b3a76400000302018161415757fe5b04949350505050565b6000670de0b6b3a76400008311156141d957604080517f08c379a000000000000000000000000000000000000000000000000000000000815260206004820152601660248201527f4d6174684578743a2078203e20505245434953494f4e00000000000000000000604482015290519081900360640190fd5b600282066141ef57670de0b6b3a76400006141f1565b825b90506002820491505b811561136257670de0b6b3a7640000838002049250600282061561422657670de0b6b3a7640000908302045b6002820491506141fa565b6000670de0b6b3a76400006142468484613802565b816140f757fe5b60008082116142bd57604080517f08c379a000000000000000000000000000000000000000000000000000000000815260206004820152601a60248201527f536166654d6174683a206469766973696f6e206279207a65726f000000000000604482015290519081900360640190fd5b8183816140f757fe5b60606142d584846000856142dd565b949350505050565b606082471015614338576040517f08c379a00000000000000000000000000000000000000000000000000000000081526004018080602001828103825260268152602001806145d46026913960400191505060405180910390fd5b61434185614498565b6143ac57604080517f08c379a000000000000000000000000000000000000000000000000000000000815260206004820152601d60248201527f416464726573733a2063616c6c20746f206e6f6e2d636f6e7472616374000000604482015290519081900360640190fd5b600060608673ffffffffffffffffffffffffffffffffffffffff1685876040518082805190602001908083835b6020831061441657805182527fffffffffffffffffffffffffffffffffffffffffffffffffffffffffffffffe090920191602091820191016143d9565b6001836020036101000a03801982511681845116808217855250505050505090500191505060006040518083038185875af1925050503d8060008114614478576040519150601f19603f3d011682016040523d82523d6000602084013e61447d565b606091505b509150915061448d82828661449e565b979650505050505050565b3b151590565b606083156144ad575081611464565b8251156144bd5782518084602001fd5b6040517f08c379a0000000000000000000000000000000000000000000000000000000008152602060048201818152845160248401528451859391928392604401919085019080838360008315613650578181015183820152602001613638565b604051806080016040528060008152602001600081526020016000815260200160008152509056fe45524332303a207472616e7366657220746f20746865207a65726f206164647265737345524332303a206275726e20616d6f756e7420657863656564732062616c616e636545524332303a20617070726f766520746f20746865207a65726f206164647265737345524332303a207472616e7366657220616d6f756e7420657863656564732062616c616e6365416464726573733a20696e73756666696369656e742062616c616e636520666f722063616c6c444d4d3a20494e53554646494349454e545f4c49515549444954595f4255524e4544536166654d6174683a206d756c7469706c69636174696f6e206f766572666c6f7745524332303a207472616e7366657220616d6f756e74206578636565647320616c6c6f77616e6365444d4d3a20494e53554646494349454e545f4c49515549444954595f4d494e54454445524332303a206275726e2066726f6d20746865207a65726f206164647265737345524332303a207472616e736665722066726f6d20746865207a65726f206164647265737345524332303a20617070726f76652066726f6d20746865207a65726f20616464726573735361666545524332303a204552433230206f7065726174696f6e20646964206e6f74207375636365656445524332303a2064656372656173656420616c6c6f77616e63652062656c6f77207a65726fa2646970667358221220c3aefd2020b77522e5ead222daaf21e6b3db7708834fef997d5c2f2f5308231664736f6c634300060c0033",
  "linkReferences": {},
  "deployedLinkReferences": {}
}