{
  "_format": "hh-sol-artifact-1",
  "contractName": "MockDMMPool",
  "sourceName": "contracts/mock/MockDMMPair.sol",
  "abi": [
    {
      "inputs": [
        {
          "internalType": "address",
          "name": "_factory",
          "type": "address"
        },
        {
          "internalType": "contract IERC20",
          "name": "_token0",
          "type": "address"
        },
        {
          "internalType": "contract IERC20",
          "name": "_token1",
          "type": "address"
        },
        {
          "internalType": "bool",
          "name": "isAmpPool",
          "type": "bool"
        }
      ],
      "stateMutability": "nonpayable",
      "type": "constructor"
    },
    {
      "anonymous": false,
      "inputs": [
        {
          "indexed": true,
          "internalType": "address",
          "name": "owner",
          "type": "address"
        },
        {
          "indexed": true,
          "internalType": "address",
          "name": "spender",
          "type": "address"
        },
        {
          "indexed": false,
          "internalType": "uint256",
          "name": "value",
          "type": "uint256"
        }
      ],
      "name": "Approval",
      "type": "event"
    },
    {
      "anonymous": false,
      "inputs": [
        {
          "indexed": true,
          "internalType": "address",
          "name": "sender",
          "type": "address"
        },
        {
          "indexed": false,
          "internalType": "uint256",
          "name": "amount0",
          "type": "uint256"
        },
        {
          "indexed": false,
          "internalType": "uint256",
          "name": "amount1",
          "type": "uint256"
        },
        {
          "indexed": true,
          "internalType": "address",
          "name": "to",
          "type": "address"
        }
      ],
      "name": "Burn",
      "type": "event"
    },
    {
      "anonymous": false,
      "inputs": [
        {
          "indexed": true,
          "internalType": "address",
          "name": "sender",
          "type": "address"
        },
        {
          "indexed": false,
          "internalType": "uint256",
          "name": "amount0",
          "type": "uint256"
        },
        {
          "indexed": false,
          "internalType": "uint256",
          "name": "amount1",
          "type": "uint256"
        }
      ],
      "name": "Mint",
      "type": "event"
    },
    {
      "anonymous": false,
      "inputs": [
        {
          "indexed": true,
          "internalType": "address",
          "name": "sender",
          "type": "address"
        },
        {
          "indexed": false,
          "internalType": "uint256",
          "name": "amount0In",
          "type": "uint256"
        },
        {
          "indexed": false,
          "internalType": "uint256",
          "name": "amount1In",
          "type": "uint256"
        },
        {
          "indexed": false,
          "internalType": "uint256",
          "name": "amount0Out",
          "type": "uint256"
        },
        {
          "indexed": false,
          "internalType": "uint256",
          "name": "amount1Out",
          "type": "uint256"
        },
        {
          "indexed": true,
          "internalType": "address",
          "name": "to",
          "type": "address"
        },
        {
          "indexed": false,
          "internalType": "uint256",
          "name": "feeInPrecision",
          "type": "uint256"
        }
      ],
      "name": "Swap",
      "type": "event"
    },
    {
      "anonymous": false,
      "inputs": [
        {
          "indexed": false,
          "internalType": "uint256",
          "name": "vReserve0",
          "type": "uint256"
        },
        {
          "indexed": false,
          "internalType": "uint256",
          "name": "vReserve1",
          "type": "uint256"
        },
        {
          "indexed": false,
          "internalType": "uint256",
          "name": "reserve0",
          "type": "uint256"
        },
        {
          "indexed": false,
          "internalType": "uint256",
          "name": "reserve1",
          "type": "uint256"
        }
      ],
      "name": "Sync",
      "type": "event"
    },
    {
      "anonymous": false,
      "inputs": [
        {
          "indexed": true,
          "internalType": "address",
          "name": "from",
          "type": "address"
        },
        {
          "indexed": true,
          "internalType": "address",
          "name": "to",
          "type": "address"
        },
        {
          "indexed": false,
          "internalType": "uint256",
          "name": "value",
          "type": "uint256"
        }
      ],
      "name": "Transfer",
      "type": "event"
    },
    {
      "anonymous": false,
      "inputs": [
        {
          "indexed": false,
          "internalType": "uint256",
          "name": "shortEMA",
          "type": "uint256"
        },
        {
          "indexed": false,
          "internalType": "uint256",
          "name": "longEMA",
          "type": "uint256"
        },
        {
          "indexed": false,
          "internalType": "uint128",
          "name": "lastBlockVolume",
          "type": "uint128"
        },
        {
          "indexed": false,
          "internalType": "uint256",
          "name": "skipBlock",
          "type": "uint256"
        }
      ],
      "name": "UpdateEMA",
      "type": "event"
    },
    {
      "inputs": [],
      "name": "MINIMUM_LIQUIDITY",
      "outputs": [
        {
          "internalType": "uint256",
          "name": "",
          "type": "uint256"
        }
      ],
      "stateMutability": "view",
      "type": "function"
    },
    {
      "inputs": [],
      "name": "PERMIT_TYPEHASH",
      "outputs": [
        {
          "internalType": "bytes32",
          "name": "",
          "type": "bytes32"
        }
      ],
      "stateMutability": "view",
      "type": "function"
    },
    {
      "inputs": [
        {
          "internalType": "address",
          "name": "owner",
          "type": "address"
        },
        {
          "internalType": "address",
          "name": "spender",
          "type": "address"
        }
      ],
      "name": "allowance",
      "outputs": [
        {
          "internalType": "uint256",
          "name": "",
          "type": "uint256"
        }
      ],
      "stateMutability": "view",
      "type": "function"
    },
    {
      "inputs": [],
      "name": "ampBps",
      "outputs": [
        {
          "internalType": "uint32",
          "name": "",
          "type": "uint32"
        }
      ],
      "stateMutability": "view",
      "type": "function"
    },
    {
      "inputs": [
        {
          "internalType": "address",
          "name": "spender",
          "type": "address"
        },
        {
          "internalType": "uint256",
          "name": "amount",
          "type": "uint256"
        }
      ],
      "name": "approve",
      "outputs": [
        {
          "internalType": "bool",
          "name": "",
          "type": "bool"
        }
      ],
      "stateMutability": "nonpayable",
      "type": "function"
    },
    {
      "inputs": [
        {
          "internalType": "address",
          "name": "account",
          "type": "address"
        }
      ],
      "name": "balanceOf",
      "outputs": [
        {
          "internalType": "uint256",
          "name": "",
          "type": "uint256"
        }
      ],
      "stateMutability": "view",
      "type": "function"
    },
    {
      "inputs": [
        {
          "internalType": "address",
          "name": "to",
          "type": "address"
        }
      ],
      "name": "burn",
      "outputs": [
        {
          "internalType": "uint256",
          "name": "amount0",
          "type": "uint256"
        },
        {
          "internalType": "uint256",
          "name": "amount1",
          "type": "uint256"
        }
      ],
      "stateMutability": "nonpayable",
      "type": "function"
    },
    {
      "inputs": [],
      "name": "decimals",
      "outputs": [
        {
          "internalType": "uint8",
          "name": "",
          "type": "uint8"
        }
      ],
      "stateMutability": "view",
      "type": "function"
    },
    {
      "inputs": [
        {
          "internalType": "address",
          "name": "spender",
          "type": "address"
        },
        {
          "internalType": "uint256",
          "name": "subtractedValue",
          "type": "uint256"
        }
      ],
      "name": "decreaseAllowance",
      "outputs": [
        {
          "internalType": "bool",
          "name": "",
          "type": "bool"
        }
      ],
      "stateMutability": "nonpayable",
      "type": "function"
    },
    {
      "inputs": [],
      "name": "domainSeparator",
      "outputs": [
        {
          "internalType": "bytes32",
          "name": "",
          "type": "bytes32"
        }
      ],
      "stateMutability": "view",
      "type": "function"
    },
    {
      "inputs": [],
      "name": "factory",
      "outputs": [
        {
          "internalType": "contract IDMMFactory",
          "name": "",
          "type": "address"
        }
      ],
      "stateMutability": "view",
      "type": "function"
    },
    {
      "inputs": [],
      "name": "getReserves",
      "outputs": [
        {
          "internalType": "uint112",
          "name": "_reserve0",
          "type": "uint112"
        },
        {
          "internalType": "uint112",
          "name": "_reserve1",
          "type": "uint112"
        }
      ],
      "stateMutability": "view",
      "type": "function"
    },
    {
      "inputs": [],
      "name": "getTradeInfo",
      "outputs": [
        {
          "internalType": "uint112",
          "name": "_reserve0",
          "type": "uint112"
        },
        {
          "internalType": "uint112",
          "name": "_reserve1",
          "type": "uint112"
        },
        {
          "internalType": "uint112",
          "name": "_vReserve0",
          "type": "uint112"
        },
        {
          "internalType": "uint112",
          "name": "_vReserve1",
          "type": "uint112"
        },
        {
          "internalType": "uint256",
          "name": "feeInPrecision",
          "type": "uint256"
        }
      ],
      "stateMutability": "view",
      "type": "function"
    },
    {
      "inputs": [],
      "name": "getVolumeTrendData",
      "outputs": [
        {
          "internalType": "uint128",
          "name": "_shortEMA",
          "type": "uint128"
        },
        {
          "internalType": "uint128",
          "name": "_longEMA",
          "type": "uint128"
        },
        {
          "internalType": "uint128",
          "name": "_currentBlockVolume",
          "type": "uint128"
        },
        {
          "internalType": "uint128",
          "name": "_lastTradeBlock",
          "type": "uint128"
        }
      ],
      "stateMutability": "view",
      "type": "function"
    },
    {
      "inputs": [
        {
          "internalType": "address",
          "name": "spender",
          "type": "address"
        },
        {
          "internalType": "uint256",
          "name": "addedValue",
          "type": "uint256"
        }
      ],
      "name": "increaseAllowance",
      "outputs": [
        {
          "internalType": "bool",
          "name": "",
          "type": "bool"
        }
      ],
      "stateMutability": "nonpayable",
      "type": "function"
    },
    {
      "inputs": [
        {
          "internalType": "contract IERC20",
          "name": "_token0",
          "type": "address"
        },
        {
          "internalType": "contract IERC20",
          "name": "_token1",
          "type": "address"
        },
        {
          "internalType": "uint32",
          "name": "_ampBps",
          "type": "uint32"
        }
      ],
      "name": "initialize",
      "outputs": [],
      "stateMutability": "nonpayable",
      "type": "function"
    },
    {
      "inputs": [],
      "name": "kLast",
      "outputs": [
        {
          "internalType": "uint256",
          "name": "",
          "type": "uint256"
        }
      ],
      "stateMutability": "view",
      "type": "function"
    },
    {
      "inputs": [
        {
          "internalType": "address",
          "name": "to",
          "type": "address"
        }
      ],
      "name": "mint",
      "outputs": [
        {
          "internalType": "uint256",
          "name": "liquidity",
          "type": "uint256"
        }
      ],
      "stateMutability": "nonpayable",
      "type": "function"
    },
    {
      "inputs": [],
      "name": "name",
      "outputs": [
        {
          "internalType": "string",
          "name": "",
          "type": "string"
        }
      ],
      "stateMutability": "view",
      "type": "function"
    },
    {
      "inputs": [
        {
          "internalType": "address",
          "name": "",
          "type": "address"
        }
      ],
      "name": "nonces",
      "outputs": [
        {
          "internalType": "uint256",
          "name": "",
          "type": "uint256"
        }
      ],
      "stateMutability": "view",
      "type": "function"
    },
    {
      "inputs": [
        {
          "internalType": "address",
          "name": "owner",
          "type": "address"
        },
        {
          "internalType": "address",
          "name": "spender",
          "type": "address"
        },
        {
          "internalType": "uint256",
          "name": "value",
          "type": "uint256"
        },
        {
          "internalType": "uint256",
          "name": "deadline",
          "type": "uint256"
        },
        {
          "internalType": "uint8",
          "name": "v",
          "type": "uint8"
        },
        {
          "internalType": "bytes32",
          "name": "r",
          "type": "bytes32"
        },
        {
          "internalType": "bytes32",
          "name": "s",
          "type": "bytes32"
        }
      ],
      "name": "permit",
      "outputs": [],
      "stateMutability": "nonpayable",
      "type": "function"
    },
    {
      "inputs": [
        {
          "internalType": "uint256",
          "name": "_fee",
          "type": "uint256"
        }
      ],
      "name": "setFee",
      "outputs": [],
      "stateMutability": "nonpayable",
      "type": "function"
    },
    {
      "inputs": [
        {
          "internalType": "uint112",
          "name": "_reserve0",
          "type": "uint112"
        },
        {
          "internalType": "uint112",
          "name": "_reserve1",
          "type": "uint112"
        },
        {
          "internalType": "uint112",
          "name": "_vReserve0",
          "type": "uint112"
        },
        {
          "internalType": "uint112",
          "name": "_vReserve1",
          "type": "uint112"
        }
      ],
      "name": "setReserves",
      "outputs": [],
      "stateMutability": "nonpayable",
      "type": "function"
    },
    {
      "inputs": [],
      "name": "simulationFee",
      "outputs": [
        {
          "internalType": "uint256",
          "name": "",
          "type": "uint256"
        }
      ],
      "stateMutability": "view",
      "type": "function"
    },
    {
      "inputs": [
        {
          "internalType": "address",
          "name": "to",
          "type": "address"
        }
      ],
      "name": "skim",
      "outputs": [],
      "stateMutability": "nonpayable",
      "type": "function"
    },
    {
      "inputs": [
        {
          "internalType": "uint256",
          "name": "amount0Out",
          "type": "uint256"
        },
        {
          "internalType": "uint256",
          "name": "amount1Out",
          "type": "uint256"
        },
        {
          "internalType": "address",
          "name": "to",
          "type": "address"
        },
        {
          "internalType": "bytes",
          "name": "callbackData",
          "type": "bytes"
        }
      ],
      "name": "swap",
      "outputs": [],
      "stateMutability": "nonpayable",
      "type": "function"
    },
    {
      "inputs": [],
      "name": "symbol",
      "outputs": [
        {
          "internalType": "string",
          "name": "",
          "type": "string"
        }
      ],
      "stateMutability": "view",
      "type": "function"
    },
    {
      "inputs": [],
      "name": "sync",
      "outputs": [],
      "stateMutability": "nonpayable",
      "type": "function"
    },
    {
      "inputs": [],
      "name": "token0",
      "outputs": [
        {
          "internalType": "contract IERC20",
          "name": "",
          "type": "address"
        }
      ],
      "stateMutability": "view",
      "type": "function"
    },
    {
      "inputs": [],
      "name": "token1",
      "outputs": [
        {
          "internalType": "contract IERC20",
          "name": "",
          "type": "address"
        }
      ],
      "stateMutability": "view",
      "type": "function"
    },
    {
      "inputs": [],
      "name": "totalSupply",
      "outputs": [
        {
          "internalType": "uint256",
          "name": "",
          "type": "uint256"
        }
      ],
      "stateMutability": "view",
      "type": "function"
    },
    {
      "inputs": [
        {
          "internalType": "address",
          "name": "recipient",
          "type": "address"
        },
        {
          "internalType": "uint256",
          "name": "amount",
          "type": "uint256"
        }
      ],
      "name": "transfer",
      "outputs": [
        {
          "internalType": "bool",
          "name": "",
          "type": "bool"
        }
      ],
      "stateMutability": "nonpayable",
      "type": "function"
    },
    {
      "inputs": [
        {
          "internalType": "address",
          "name": "sender",
          "type": "address"
        },
        {
          "internalType": "address",
          "name": "recipient",
          "type": "address"
        },
        {
          "internalType": "uint256",
          "name": "amount",
          "type": "uint256"
        }
      ],
      "name": "transferFrom",
      "outputs": [
        {
          "internalType": "bool",
          "name": "",
          "type": "bool"
        }
      ],
      "stateMutability": "nonpayable",
      "type": "function"
    }
  ],
  "bytecode": "0x60806040523480156200001157600080fd5b5060405162003c9438038062003c94833981810160405260808110156200003757600080fd5b50805160208083015160408085015160609095015181518083018352600a81526904f726368617264204c560b41b81860190815283518085018552600681526504f52432d4c560d41b81880152845180860190955260018552603160f81b96850196909652815196979496949592946000949293929184918491620000c0916003919062000289565b508051620000d690600490602084019062000289565b50506005805460ff19166012179055508251602093840120815191840191909120604080517f8b73c3c69bb8fe3d512ecc4cf759cc79239f7b179b0ffacaa9a75d522b39400f818701528082019390935260608301919091524660808301523060a0808401919091528151808403909101815260c09092019052805192019190912060065550600160085560098054600160801b6001600160801b038085169182026001600160801b03199093169190911716179055620001974362000233565b600a80546001600160801b03928316600160801b02921691909117905550600b80546001600160a01b038681166001600160a01b03199283163317831617909255600c8054868416908316179055600d80549285169290911691909117905580620002055761271062000209565b6127115b600e601c6101000a81548163ffffffff021916908363ffffffff160217905550505050506200031b565b60006001600160801b0382111562000285576040805162461bcd60e51b815260206004820152601060248201526f0deeccae4ccd8deee40ead2dce86264760831b604482015290519081900360640190fd5b5090565b828054600181600116156101000203166002900490600052602060002090601f016020900481019282601f10620002cc57805160ff1916838001178555620002fc565b82800160010185558215620002fc579182015b82811115620002fc578251825591602001919060010190620002df565b50620002859291505b8082111562000285576000815560010162000305565b613969806200032b6000396000f3fe608060405234801561001057600080fd5b50600436106101fb5760003560e01c806370a082311161011a578063bc25cf77116100ad578063d66940271161007c578063d6694027146106ad578063db4a8977146106f0578063dd62ed3e1461072e578063f698da251461075c578063fff6cae914610764576101fb565b8063bc25cf7714610626578063c45a01551461064c578063d21220a714610654578063d505accf1461065c576101fb565b806395d89b41116100e957806395d89b41146105be578063a457c2d7146105c6578063a9059cbb146105f2578063ba9a7a561461061e576101fb565b806370a082311461052b5780637464fc3d146105515780637ecebe001461055957806389afcb441461057f576101fb565b806330adf81f1161019257806349386b161161016157806349386b161461048a57806369fe0e2d146104ab5780636a627842146104c85780636ecf2b22146104ee576101fb565b806330adf81f14610430578063313ce56714610438578063382c638d14610456578063395093511461045e576101fb565b80630d94d50b116101ce5780630d94d50b146103805780630dfe1681146103bc57806318160ddd146103e057806323b872dd146103fa576101fb565b8063022c0d9f1461020057806306fdde031461028c5780630902f1ac14610309578063095ea7b314610340575b600080fd5b61028a6004803603608081101561021657600080fd5b8135916020810135916001600160a01b036040830135169190810190608081016060820135600160201b81111561024c57600080fd5b82018360208201111561025e57600080fd5b803590602001918460018302840111600160201b8311171561027f57600080fd5b50909250905061076c565b005b610294610cb5565b6040805160208082528351818301528351919283929083019185019080838360005b838110156102ce5781810151838201526020016102b6565b50505050905090810190601f1680156102fb5780820380516001836020036101000a031916815260200191505b509250505060405180910390f35b610311610ff0565b60405180836001600160701b03168152602001826001600160701b031681526020019250505060405180910390f35b61036c6004803603604081101561035657600080fd5b506001600160a01b03813516906020013561100b565b604080519115158252519081900360200190f35b610388611029565b604080516001600160801b039586168152938516602085015291841683830152909216606082015290519081900360800190f35b6103c4611052565b604080516001600160a01b039092168252519081900360200190f35b6103e8611061565b60408051918252519081900360200190f35b61036c6004803603606081101561041057600080fd5b506001600160a01b03813581169160208101359091169060400135611067565b6103e86110ef565b610440611113565b6040805160ff9092168252519081900360200190f35b6103e861111c565b61036c6004803603604081101561047457600080fd5b506001600160a01b038135169060200135611122565b610492611170565b6040805163ffffffff9092168252519081900360200190f35b61028a600480360360208110156104c157600080fd5b5035611183565b6103e8600480360360208110156104de57600080fd5b50356001600160a01b0316611188565b61028a6004803603606081101561050457600080fd5b5080356001600160a01b03908116916020810135909116906040013563ffffffff1661152f565b6103e86004803603602081101561054157600080fd5b50356001600160a01b03166115d4565b6103e86115f3565b6103e86004803603602081101561056f57600080fd5b50356001600160a01b03166115f9565b6105a56004803603602081101561059557600080fd5b50356001600160a01b031661160b565b6040805192835260208301919091528051918290030190f35b610294611ab4565b61036c600480360360408110156105dc57600080fd5b506001600160a01b038135169060200135611d55565b61036c6004803603604081101561060857600080fd5b506001600160a01b038135169060200135611dbd565b6103e8611dd1565b61028a6004803603602081101561063c57600080fd5b50356001600160a01b0316611dd7565b6103c4611f4e565b6103c4611f5d565b61028a600480360360e081101561067257600080fd5b506001600160a01b03813581169160208101359091169060408101359060608101359060ff6080820135169060a08101359060c00135611f6c565b6106b5612170565b604080516001600160701b03968716815294861660208601529285168484015293166060830152608082019290925290519081900360a00190f35b61028a6004803603608081101561070657600080fd5b506001600160701b0381358116916020810135821691604082013581169160600135166121e1565b6103e86004803603604081101561074457600080fd5b506001600160a01b038135811691602001351661223d565b6103e8612268565b61028a61226e565b600260085414156107b2576040805162461bcd60e51b815260206004820152601f602482015260008051602061373e833981519152604482015290519081900360640190fd5b6002600855841515806107c55750600084115b610816576040805162461bcd60e51b815260206004820152601f60248201527f444d4d3a20494e53554646494349454e545f4f55545055545f414d4f554e5400604482015290519081900360640190fd5b60006108206136f2565b6108286124b3565b80519193509150871080156108405750806020015186105b610891576040805162461bcd60e51b815260206004820152601b60248201527f444d4d3a20494e53554646494349454e545f4c49515549444954590000000000604482015290519081900360640190fd5b6108996136f2565b600c54600d546001600160a01b039182169190811690881682148015906108d25750806001600160a01b0316886001600160a01b031614155b610915576040805162461bcd60e51b815260206004820152600f60248201526e444d4d3a20494e56414c49445f544f60881b604482015290519081900360640190fd5b891561092f5761092f6001600160a01b038316898c61251a565b8815610949576109496001600160a01b038216898b61251a565b85156109fb57876001600160a01b03166381279c7e338c8c8b8b6040518663ffffffff1660e01b815260040180866001600160a01b03168152602001858152602001848152602001806020018281038252848482818152602001925080828437600081840152601f19601f8201169050808301925050509650505050505050600060405180830381600087803b1580156109e257600080fd5b505af11580156109f6573d6000803e3d6000fd5b505050505b604080516370a0823160e01b815230600482015290516001600160a01b038416916370a08231916024808301926020929190829003018186803b158015610a4157600080fd5b505afa158015610a55573d6000803e3d6000fd5b505050506040513d6020811015610a6b57600080fd5b50518352604080516370a0823160e01b815230600482015290516001600160a01b038316916370a08231916024808301926020929190829003018186803b158015610ab557600080fd5b505afa158015610ac9573d6000803e3d6000fd5b505050506040513d6020811015610adf57600080fd5b505160208401528415610b3357835183516040860151610b0a9291610b049190612571565b906125cb565b6040840152602080850151908401516060860151610b2d9291610b049190612571565b60608401525b5050815181516000918a900310610b4b576000610b56565b82518251908a900390035b9050600088846020015103836020015111610b72576000610b80565b888460200151038360200151035b90506000821180610b915750600081115b610be2576040805162461bcd60e51b815260206004820152601e60248201527f444d4d3a20494e53554646494349454e545f494e5055545f414d4f554e540000604482015290519081900360640190fd5b6000610c3c838388610bf5578751610bfb565b87604001515b89610c0a578860200151610c10565b88606001515b8a610c1c578851610c22565b88604001515b8b610c31578960200151610c37565b89606001515b612628565b9050610c4886856126f0565b60408051848152602081018490528082018d9052606081018c90526080810183905290516001600160a01b038b169133917f606ecd02b3e3b4778f8e97b2e03351de14224efaa5fa64e62200afc9395c24999181900360a00190a350506001600855505050505050505050565b600c54600d54604080516395d89b4160e01b815290516060936001600160a01b0390811693169183916395d89b4191600480820192600092909190829003018186803b158015610d0457600080fd5b505afa158015610d18573d6000803e3d6000fd5b505050506040513d6000823e601f3d908101601f191682016040526020811015610d4157600080fd5b8101908080516040519392919084600160201b821115610d6057600080fd5b908301906020820185811115610d7557600080fd5b8251600160201b811182820188101715610d8e57600080fd5b82525081516020918201929091019080838360005b83811015610dbb578181015183820152602001610da3565b50505050905090810190601f168015610de85780820380516001836020036101000a031916815260200191505b50604052505050816001600160a01b03166395d89b416040518163ffffffff1660e01b815260040160006040518083038186803b158015610e2857600080fd5b505afa158015610e3c573d6000803e3d6000fd5b505050506040513d6000823e601f3d908101601f191682016040526020811015610e6557600080fd5b8101908080516040519392919084600160201b821115610e8457600080fd5b908301906020820185811115610e9957600080fd5b8251600160201b811182820188101715610eb257600080fd5b82525081516020918201929091019080838360005b83811015610edf578181015183820152602001610ec7565b50505050905090810190601f168015610f0c5780820380516001836020036101000a031916815260200191505b5060405250505060405160200180806a027b931b430b932102628160ad1b815250600b0183805190602001908083835b60208310610f5b5780518252601f199092019160209182019101610f3c565b6001836020036101000a03801982511681845116808217855250505050505090500180602d60f81b81525060010182805190602001908083835b60208310610fb45780518252601f199092019160209182019101610f95565b6001836020036101000a038019825116818451168082178552505050505050905001925050506040516020818303038152906040529250505090565b600e546001600160701b0380821692600160701b9092041690565b600061101f611018612831565b8484612835565b5060015b92915050565b600954600a546001600160801b0380831693600160801b93849004821693838316930490911690565b600c546001600160a01b031681565b60025490565b6000611074848484612921565b6110e484611080612831565b6110df85604051806060016040528060288152602001613831602891396001600160a01b038a166000908152600160205260408120906110be612831565b6001600160a01b031681526020810191909152604001600020549190612a7c565b612835565b5060015b9392505050565b7f6e71edae12b1b97f4d1f60370fef10105fa2faae0126114a169c64845d6126c981565b60055460ff1690565b60115481565b600061101f61112f612831565b846110df8560016000611140612831565b6001600160a01b03908116825260208083019390935260409182016000908120918c168152925290205490612571565b600e54600160e01b900463ffffffff1681565b601155565b6000600260085414156111d0576040805162461bcd60e51b815260206004820152601f602482015260008051602061373e833981519152604482015290519081900360640190fd5b600260085560006111df6136f2565b6111e76124b3565b915091506111f36136f2565b600c54604080516370a0823160e01b815230600482015290516001600160a01b03909216916370a0823191602480820192602092909190829003018186803b15801561123e57600080fd5b505afa158015611252573d6000803e3d6000fd5b505050506040513d602081101561126857600080fd5b50518152600d54604080516370a0823160e01b815230600482015290516001600160a01b03909216916370a0823191602480820192602092909190829003018186803b1580156112b757600080fd5b505afa1580156112cb573d6000803e3d6000fd5b505050506040513d60208110156112e157600080fd5b50516020820152815181516000916112f991906125cb565b90506000611318846020015184602001516125cb90919063ffffffff16565b905060006113268686612b13565b90506000611332611061565b9050806113c957861561139c57600e54855163ffffffff600160e01b90920482169161271091611364918490612c5b16565b8161136b57fe5b04604087015260208601516127109061138d9063ffffffff80851690612c5b16565b8161139457fe5b046060870152505b6113b46103e8610b046113af8787612c5b565b612cb4565b97506113c46000196103e8612d05565b61147c565b8551611406906113d98684612c5b565b816113e057fe5b0487602001516113f98487612c5b90919063ffffffff16565b8161140057fe5b04612df5565b9750861561147c57600061141a8983612571565b905061144982611437838a60400151612c5b90919063ffffffff16565b8161143e57fe5b048760000151612e0b565b604087015260608701516114759083906114639084612c5b565b8161146a57fe5b048760200151612e0b565b6060870152505b600088116114bb5760405162461bcd60e51b81526004018080602001828103825260228152602001806138596022913960400191505060405180910390fd5b6114c58989612d05565b6114cf87866126f0565b81156114e3576114df8786612e1b565b6010555b6040805185815260208101859052815133927f4c209b5fc8ad50758f13e2e1088ba56a560dff690a1c6fef26394f4c03821c4f928290030190a250506001600855509395945050505050565b600b546001600160a01b0316331461157f576040805162461bcd60e51b815260206004820152600e60248201526d2226a69d102327a92124a22222a760911b604482015290519081900360640190fd5b600c80546001600160a01b039485166001600160a01b031991821617909155600d805493909416921691909117909155600e805463ffffffff909216600160e01b026001600160e01b03909216919091179055565b6001600160a01b0381166000908152602081905260409020545b919050565b60105481565b60076020526000908152604090205481565b60008060026008541415611654576040805162461bcd60e51b815260206004820152601f602482015260008051602061373e833981519152604482015290519081900360640190fd5b600260085560006116636136f2565b61166b6124b3565b600c54600d54604080516370a0823160e01b815230600482015290519496509294506001600160a01b039182169391169160009184916370a08231916024808301926020929190829003018186803b1580156116c657600080fd5b505afa1580156116da573d6000803e3d6000fd5b505050506040513d60208110156116f057600080fd5b5051604080516370a0823160e01b815230600482015290519192506000916001600160a01b038516916370a08231916024808301926020929190829003018186803b15801561173e57600080fd5b505afa158015611752573d6000803e3d6000fd5b505050506040513d602081101561176857600080fd5b505185519091508210801590611782575084602001518110155b6117ca576040805162461bcd60e51b8152602060048201526014602482015273444d4d3a20554e53594e435f524553455256455360601b604482015290519081900360640190fd5b60006117d5306115d4565b905060006117e38888612b13565b905060006117ef611061565b9050806117fc8487612c5b565b8161180357fe5b049a50806118118486612c5b565b8161181857fe5b04995060008b11801561182b575060008a115b6118665760405162461bcd60e51b81526004018080602001828103825260228152602001806137ee6022913960400191505060405180910390fd5b6118703084612e41565b6118846001600160a01b0388168d8d61251a565b6118986001600160a01b0387168d8c61251a565b6118a06136f2565b604080516370a0823160e01b815230600482015290516001600160a01b038a16916370a08231916024808301926020929190829003018186803b1580156118e657600080fd5b505afa1580156118fa573d6000803e3d6000fd5b505050506040513d602081101561191057600080fd5b50518152604080516370a0823160e01b815230600482015290516001600160a01b038916916370a08231916024808301926020929190829003018186803b15801561195a57600080fd5b505afa15801561196e573d6000803e3d6000fd5b505050506040513d602081101561198457600080fd5b505160208201528915611a2c57885181516000916119ca916119a69086612c5b565b816119ad57fe5b048b602001516113f9868660200151612c5b90919063ffffffff16565b90506119f9836119e7838d60400151612c5b90919063ffffffff16565b816119ee57fe5b048360000151612e0b565b604083015260608a0151611a25908490611a139084612c5b565b81611a1a57fe5b048360200151612e0b565b6060830152505b611a368a826126f0565b8215611a4a57611a468a82612e1b565b6010555b8c6001600160a01b0316336001600160a01b03167fdccd412f0b1252819cb1fd330b93224ca42612892bb3f4f789976e6d819364968e8e604051808381526020018281526020019250505060405180910390a3505050505050505050506001600881905550915091565b600c54600d54604080516395d89b4160e01b815290516060936001600160a01b0390811693169183916395d89b4191600480820192600092909190829003018186803b158015611b0357600080fd5b505afa158015611b17573d6000803e3d6000fd5b505050506040513d6000823e601f3d908101601f191682016040526020811015611b4057600080fd5b8101908080516040519392919084600160201b821115611b5f57600080fd5b908301906020820185811115611b7457600080fd5b8251600160201b811182820188101715611b8d57600080fd5b82525081516020918201929091019080838360005b83811015611bba578181015183820152602001611ba2565b50505050905090810190601f168015611be75780820380516001836020036101000a031916815260200191505b50604052505050816001600160a01b03166395d89b416040518163ffffffff1660e01b815260040160006040518083038186803b158015611c2757600080fd5b505afa158015611c3b573d6000803e3d6000fd5b505050506040513d6000823e601f3d908101601f191682016040526020811015611c6457600080fd5b8101908080516040519392919084600160201b821115611c8357600080fd5b908301906020820185811115611c9857600080fd5b8251600160201b811182820188101715611cb157600080fd5b82525081516020918201929091019080838360005b83811015611cde578181015183820152602001611cc6565b50505050905090810190601f168015611d0b5780820380516001836020036101000a031916815260200191505b50604052505050604051602001808066027a92196a628160cd1b815250600701838051906020019080838360208310610f5b5780518252601f199092019160209182019101610f3c565b600061101f611d62612831565b846110df8560405180606001604052806025815260200161390f6025913960016000611d8c612831565b6001600160a01b03908116825260208083019390935260409182016000908120918d16815292529020549190612a7c565b600061101f611dca612831565b8484612921565b6103e881565b60026008541415611e1d576040805162461bcd60e51b815260206004820152601f602482015260008051602061373e833981519152604482015290519081900360640190fd5b6002600855600e54600c54604080516370a0823160e01b81523060048201529051611eca938593611eb7936001600160701b03909216926001600160a01b03909116916370a08231916024808301926020929190829003018186803b158015611e8557600080fd5b505afa158015611e99573d6000803e3d6000fd5b505050506040513d6020811015611eaf57600080fd5b5051906125cb565b600c546001600160a01b0316919061251a565b600e54600d54604080516370a0823160e01b81523060048201529051611f46938593611f3393600160701b9092046001600160701b0316926001600160a01b03909116916370a08231916024808301926020929190829003018186803b158015611e8557600080fd5b600d546001600160a01b0316919061251a565b506001600855565b600b546001600160a01b031681565b600d546001600160a01b031681565b42841015611fb8576040805162461bcd60e51b8152602060048201526014602482015273115490cc8c14195c9b5a5d0e881156141254915160621b604482015290519081900360640190fd5b6006546001600160a01b0380891660008181526007602090815260408083208054600180820190925582517f6e71edae12b1b97f4d1f60370fef10105fa2faae0126114a169c64845d6126c98186015280840196909652958d166060860152608085018c905260a085019590955260c08085018b90528151808603909101815260e08501825280519083012061190160f01b6101008601526101028501969096526101228085019690965280518085039096018652610142840180825286519683019690962095839052610162840180825286905260ff89166101828501526101a284018890526101c28401879052519193926101e280820193601f1981019281900390910190855afa1580156120d3573d6000803e3d6000fd5b5050604051601f1901519150506001600160a01b038116158015906121095750886001600160a01b0316816001600160a01b0316145b61215a576040805162461bcd60e51b815260206004820152601e60248201527f45524332305065726d69743a20494e56414c49445f5349474e41545552450000604482015290519081900360640190fd5b612165898989612835565b505050505050505050565b600e54600f546001600160701b0380831692600160701b808204831693838116939190041690600090600160e01b900463ffffffff166127108114156121b7578593508492505b60006121c243612f3d565b90506121d66121d082613051565b83613210565b925050509091929394565b600e80546001600160701b03199081166001600160701b03968716176dffffffffffffffffffffffffffff60701b19908116600160701b968816870217909255600f805490911693861693909317169316909102919091179055565b6001600160a01b03918216600090815260016020908152604080832093909416825291909152205490565b60065481565b600260085414156122b4576040805162461bcd60e51b815260206004820152601f602482015260008051602061373e833981519152604482015290519081900360640190fd5b600260085560006122c36136f2565b6122cb6124b3565b9150915060006122db8383612b13565b90506122e56136f2565b600c54604080516370a0823160e01b815230600482015290516001600160a01b03909216916370a0823191602480820192602092909190829003018186803b15801561233057600080fd5b505afa158015612344573d6000803e3d6000fd5b505050506040513d602081101561235a57600080fd5b50518152600d54604080516370a0823160e01b815230600482015290516001600160a01b03909216916370a0823191602480820192602092909190829003018186803b1580156123a957600080fd5b505afa1580156123bd573d6000803e3d6000fd5b505050506040513d60208110156123d357600080fd5b50516020820152831561248a5760006123ea611061565b8451835191925060009161242791906124039085612c5b565b8161240a57fe5b0486602001516113f9858760200151612c5b90919063ffffffff16565b905061245682612444838860400151612c5b90919063ffffffff16565b8161244b57fe5b048460000151612e0b565b604084015260608501516124829083906124709084612c5b565b8161247757fe5b048460200151612e0b565b606084015250505b61249484826126f0565b81156124a8576124a48482612e1b565b6010555b505060016008555050565b60006124bd6136f2565b600e546001600160701b038082168352600160701b820416602083015263ffffffff600160e01b90910416612710148015925061251657600f546001600160701b038082166040840152600160701b9091041660608201525b9091565b604080516001600160a01b038416602482015260448082018490528251808303909101815260649091019091526020810180516001600160e01b031663a9059cbb60e01b17905261256c90849061326c565b505050565b6000828201838110156110e8576040805162461bcd60e51b815260206004820152601b60248201527f536166654d6174683a206164646974696f6e206f766572666c6f770000000000604482015290519081900360640190fd5b600082821115612622576040805162461bcd60e51b815260206004820152601e60248201527f536166654d6174683a207375627472616374696f6e206f766572666c6f770000604482015290519081900360640190fd5b50900390565b601154600061263f84670de0b6b3a7640000612c5b565b905061265561264e8984612c5b565b82906125cb565b9050670de0b6b3a764000081049050600061267884670de0b6b3a7640000612c5b565b905061268761264e8985612c5b565b670de0b6b3a76400009004905061269e8787612c5b565b6126a88383612c5b565b10156126e4576040805162461bcd60e51b8152602060048201526006602482015265444d4d3a204b60d01b604482015290519081900360640190fd5b50509695505050505050565b80516126fb9061331d565b600e80546001600160701b0319166001600160701b039290921691909117905560208101516127299061331d565b600e806101000a8154816001600160701b0302191690836001600160701b0316021790555081156127d957805160408201511080159061277157508060200151816060015110155b61277757fe5b612784816040015161331d565b600f80546001600160701b0319166001600160701b039290921691909117905560608101516127b29061331d565b600f600e6101000a8154816001600160701b0302191690836001600160701b031602179055505b6040808201516060808401518451602080870151865195865290850192909252838501529082015290517f2f9d55abfefdfd4c3a83e00a1b419b3c2fe4b83100c559f0e2213e57f6e0bba99181900360800190a15050565b3390565b6001600160a01b03831661287a5760405162461bcd60e51b81526004018080602001828103825260248152602001806138c16024913960400191505060405180910390fd5b6001600160a01b0382166128bf5760405162461bcd60e51b81526004018080602001828103825260228152602001806137806022913960400191505060405180910390fd5b6001600160a01b03808416600081815260016020908152604080832094871680845294825291829020859055815185815291517f8c5be1e5ebec7d5bd14f71427d1e84f3dd0314c0f7b2291e5b200ac8c7c3b9259281900390910190a3505050565b6001600160a01b0383166129665760405162461bcd60e51b815260040180806020018281038252602581526020018061389c6025913960400191505060405180910390fd5b6001600160a01b0382166129ab5760405162461bcd60e51b815260040180806020018281038252602381526020018061371b6023913960400191505060405180910390fd5b6129b683838361256c565b6129f3816040518060600160405280602681526020016137a2602691396001600160a01b0386166000908152602081905260409020549190612a7c565b6001600160a01b038085166000908152602081905260408082209390935590841681522054612a229082612571565b6001600160a01b038084166000818152602081815260409182902094909455805185815290519193928716927fddf252ad1be2c89b69c2b068fc378daa952ba7f163c4a11628f55a4df523b3ef92918290030190a3505050565b60008184841115612b0b5760405162461bcd60e51b81526004018080602001828103825283818151815260200191508051906020019080838360005b83811015612ad0578181015183820152602001612ab8565b50505050905090810190601f168015612afd5780820380516001836020036101000a031916815260200191505b509250505060405180910390fd5b505050900390565b6000806000600b60009054906101000a90046001600160a01b03166001600160a01b031663ad5cb2e16040518163ffffffff1660e01b8152600401604080518083038186803b158015612b6557600080fd5b505afa158015612b79573d6000803e3d6000fd5b505050506040513d6040811015612b8f57600080fd5b5080516020909101516010546001600160a01b038316158015965092945090925090612c46578015612c41576000612bca6113af8888612e1b565b90506000612bd783612cb4565b905080821115612c3e576000612c0661ffff8616612c00612bf886866125cb565b612c00611061565b90612c5b565b90506000612c1a611388612c008686612571565b90506000818381612c2757fe5b0490508015612c3a57612c3a8882612d05565b5050505b50505b612c52565b8015612c525760006010555b50505092915050565b600082612c6a57506000611023565b82820282848281612c7757fe5b04146110e85760405162461bcd60e51b81526004018080602001828103825260218152602001806138106021913960400191505060405180910390fd5b60006003821115612cf7575080600160028204015b81811015612cf157809150600281828581612ce057fe5b040181612ce957fe5b049050612cc9565b506115ee565b81156115ee57506001919050565b6001600160a01b038216612d60576040805162461bcd60e51b815260206004820152601f60248201527f45524332303a206d696e7420746f20746865207a65726f206164647265737300604482015290519081900360640190fd5b612d6c6000838361256c565b600254612d799082612571565b6002556001600160a01b038216600090815260208190526040902054612d9f9082612571565b6001600160a01b0383166000818152602081815260408083209490945583518581529351929391927fddf252ad1be2c89b69c2b068fc378daa952ba7f163c4a11628f55a4df523b3ef9281900390910190a35050565b6000818310612e0457816110e8565b5090919050565b600081831015612e0457816110e8565b600082612e2f5760208201518251026110e8565b50606081015160409091015102919050565b6001600160a01b038216612e865760405162461bcd60e51b815260040180806020018281038252602181526020018061387b6021913960400191505060405180910390fd5b612e928260008361256c565b612ecf8160405180606001604052806022815260200161375e602291396001600160a01b0385166000908152602081905260409020549190612a7c565b6001600160a01b038316600090815260208190526040902055600254612ef590826125cb565b6002556040805182815290516000916001600160a01b038516917fddf252ad1be2c89b69c2b068fc378daa952ba7f163c4a11628f55a4df523b3ef9181900360200190a35050565b600a54600090600160801b90046001600160801b0316820380612f8257600954612f7a906001600160801b0380821691600160801b90041661336f565b9150506115ee565b600954600090612fb7906001600160801b0316611519671bc16d674ec800005b600a54919004906001600160801b0316613399565b600954909150600090612fe590600160801b90046001600160801b0316612a31671bc16d674ec80000612fa2565b90506130176130106000198501611519671bc16d674ec800005b04670de0b6b3a764000003906133e8565b8390613498565b915061303c6130356000198501612a31671bc16d674ec80000612fff565b8290613498565b9050613048828261336f565b95945050505050565b6000671480cc142da92a8482106130705750661550f7dca700006115ee565b670de0b6b3a76400008210613167576710a741a462780000821115613108576710a741a46277ffff19820160006130a88260036133e8565b90506127106130f76130c8846009680d8d726b7177a800005b0490613498565b6130f16130e185601b69043c33c19375648000006130c1565b6801fa48421ec7b1ed0990612571565b90612571565b816130fe57fe5b04925050506115ee565b6710a741a46278000082900360006131218260036133e8565b90506127106130f761313e846009680d8d726b7177a800006130c1565b610b0461315785601b69043c33c19375648000006130c1565b6801fa48421ec7b1ed09906125cb565b6000670b9a1192183a0000831161318957670b9a1192183a0000839003613196565b670b9a11921839ffff1983015b90506131a38160026133e8565b905060006131d26131ba8365b5e620f48000612571565b6131cc674563918244f4000085612c5b565b906134b4565b9050670b9a1192183a00008411156131fa576127106130f76801161163ae0de59a9283612571565b6127106130f76801161163ae0de59a92836125cb565b6000614e208263ffffffff1611613228575081611023565b61c3508263ffffffff161161324657601e601484025b049050611023565b62030d408263ffffffff161161326157601e600a840261323e565b601e6004840261323e565b60606132c1826040518060400160405280602081526020017f5361666545524332303a206c6f772d6c6576656c2063616c6c206661696c6564815250856001600160a01b03166135139092919063ffffffff16565b80519091501561256c578080602001905160208110156132e057600080fd5b505161256c5760405162461bcd60e51b815260040180806020018281038252602a8152602001806138e5602a913960400191505060405180910390fd5b60006001600160701b0382111561336b576040805162461bcd60e51b815260206004820152600d60248201526c444d4d3a204f564552464c4f5760981b604482015290519081900360640190fd5b5090565b60008161337e57506000611023565b81670de0b6b3a764000084028161339157fe5b049392505050565b6000670de0b6b3a764000083106133ac57fe5b670de0b6b3a7640000826001600160801b03168402856001600160801b031685670de0b6b3a7640000030201816133df57fe5b04949350505050565b6000670de0b6b3a7640000831115613440576040805162461bcd60e51b815260206004820152601660248201527526b0ba3422bc3a1d103c101f10282922a1a4a9a4a7a760511b604482015290519081900360640190fd5b6002820661345657670de0b6b3a7640000613458565b825b90506002820491505b811561102357670de0b6b3a7640000838002049250600282061561348d57670de0b6b3a7640000908302045b600282049150613461565b6000670de0b6b3a76400006134ad8484612c5b565b8161339157fe5b600080821161350a576040805162461bcd60e51b815260206004820152601a60248201527f536166654d6174683a206469766973696f6e206279207a65726f000000000000604482015290519081900360640190fd5b81838161339157fe5b6060613522848460008561352a565b949350505050565b60608247101561356b5760405162461bcd60e51b81526004018080602001828103825260268152602001806137c86026913960400191505060405180910390fd5b61357485613686565b6135c5576040805162461bcd60e51b815260206004820152601d60248201527f416464726573733a2063616c6c20746f206e6f6e2d636f6e7472616374000000604482015290519081900360640190fd5b60006060866001600160a01b031685876040518082805190602001908083835b602083106136045780518252601f1990920191602091820191016135e5565b6001836020036101000a03801982511681845116808217855250505050505090500191505060006040518083038185875af1925050503d8060008114613666576040519150601f19603f3d011682016040523d82523d6000602084013e61366b565b606091505b509150915061367b82828661368c565b979650505050505050565b3b151590565b6060831561369b5750816110e8565b8251156136ab5782518084602001fd5b60405162461bcd60e51b8152602060048201818152845160248401528451859391928392604401919085019080838360008315612ad0578181015183820152602001612ab8565b604051806080016040528060008152602001600081526020016000815260200160008152509056fe45524332303a207472616e7366657220746f20746865207a65726f20616464726573735265656e7472616e637947756172643a207265656e7472616e742063616c6c0045524332303a206275726e20616d6f756e7420657863656564732062616c616e636545524332303a20617070726f766520746f20746865207a65726f206164647265737345524332303a207472616e7366657220616d6f756e7420657863656564732062616c616e6365416464726573733a20696e73756666696369656e742062616c616e636520666f722063616c6c444d4d3a20494e53554646494349454e545f4c49515549444954595f4255524e4544536166654d6174683a206d756c7469706c69636174696f6e206f766572666c6f7745524332303a207472616e7366657220616d6f756e74206578636565647320616c6c6f77616e6365444d4d3a20494e53554646494349454e545f4c49515549444954595f4d494e54454445524332303a206275726e2066726f6d20746865207a65726f206164647265737345524332303a207472616e736665722066726f6d20746865207a65726f206164647265737345524332303a20617070726f76652066726f6d20746865207a65726f20616464726573735361666545524332303a204552433230206f7065726174696f6e20646964206e6f74207375636365656445524332303a2064656372656173656420616c6c6f77616e63652062656c6f77207a65726fa2646970667358221220ed6c4c331b0bd261d03b15f95d47479a0461ad544b7ecfcacc466bf27a8f413664736f6c634300060c0033",
  "linkReferences": {},
  "deployedLinkReferences": {}
}