{
  "_format": "hh-sol-artifact-1",
  "contractName": "MockKyberDao",
  "sourceName": "contracts/mock/fee/MockKyberDao.sol",
  "abi": [
    {
      "inputs": [
        {
          "internalType": "uint256",
          "name": "_rewardInBPS",
          "type": "uint256"
        },
        {
          "internalType": "uint256",
          "name": "_rebateInBPS",
          "type": "uint256"
        },
        {
          "internalType": "uint256",
          "name": "_epoch",
          "type": "uint256"
        },
        {
          "internalType": "uint256",
          "name": "_expiryTimestamp",
          "type": "uint256"
        }
      ],
      "stateMutability": "nonpayable",
      "type": "constructor"
    },
    {
      "anonymous": false,
      "inputs": [
        {
          "indexed": true,
          "internalType": "address",
          "name": "staker",
          "type": "address"
        },
        {
          "indexed": true,
          "internalType": "uint256",
          "name": "epoch",
          "type": "uint256"
        },
        {
          "indexed": true,
          "internalType": "uint256",
          "name": "campaignID",
          "type": "uint256"
        },
        {
          "indexed": false,
          "internalType": "uint256",
          "name": "option",
          "type": "uint256"
        }
      ],
      "name": "Voted",
      "type": "event"
    },
    {
      "inputs": [],
      "name": "BPS",
      "outputs": [
        {
          "internalType": "uint256",
          "name": "",
          "type": "uint256"
        }
      ],
      "stateMutability": "view",
      "type": "function"
    },
    {
      "inputs": [],
      "name": "advanceEpoch",
      "outputs": [],
      "stateMutability": "nonpayable",
      "type": "function"
    },
    {
      "inputs": [],
      "name": "epoch",
      "outputs": [
        {
          "internalType": "uint256",
          "name": "",
          "type": "uint256"
        }
      ],
      "stateMutability": "view",
      "type": "function"
    },
    {
      "inputs": [],
      "name": "epochPeriod",
      "outputs": [
        {
          "internalType": "uint256",
          "name": "",
          "type": "uint256"
        }
      ],
      "stateMutability": "view",
      "type": "function"
    },
    {
      "inputs": [],
      "name": "epochPeriodInSeconds",
      "outputs": [
        {
          "internalType": "uint256",
          "name": "",
          "type": "uint256"
        }
      ],
      "stateMutability": "view",
      "type": "function"
    },
    {
      "inputs": [],
      "name": "expiryTimestamp",
      "outputs": [
        {
          "internalType": "uint256",
          "name": "",
          "type": "uint256"
        }
      ],
      "stateMutability": "view",
      "type": "function"
    },
    {
      "inputs": [],
      "name": "feeBps",
      "outputs": [
        {
          "internalType": "uint256",
          "name": "",
          "type": "uint256"
        }
      ],
      "stateMutability": "view",
      "type": "function"
    },
    {
      "inputs": [],
      "name": "firstEpochStartTimestamp",
      "outputs": [
        {
          "internalType": "uint256",
          "name": "",
          "type": "uint256"
        }
      ],
      "stateMutability": "view",
      "type": "function"
    },
    {
      "inputs": [],
      "name": "getCurrentEpochNumber",
      "outputs": [
        {
          "internalType": "uint256",
          "name": "",
          "type": "uint256"
        }
      ],
      "stateMutability": "view",
      "type": "function"
    },
    {
      "inputs": [
        {
          "internalType": "address",
          "name": "staker",
          "type": "address"
        }
      ],
      "name": "getCurrentEpochRewardPercentageInPrecision",
      "outputs": [
        {
          "internalType": "uint256",
          "name": "",
          "type": "uint256"
        }
      ],
      "stateMutability": "view",
      "type": "function"
    },
    {
      "inputs": [
        {
          "internalType": "uint256",
          "name": "timestamp",
          "type": "uint256"
        }
      ],
      "name": "getEpochNumber",
      "outputs": [
        {
          "internalType": "uint256",
          "name": "",
          "type": "uint256"
        }
      ],
      "stateMutability": "view",
      "type": "function"
    },
    {
      "inputs": [],
      "name": "getLatestBRRDataWithCache",
      "outputs": [
        {
          "internalType": "uint256",
          "name": "",
          "type": "uint256"
        },
        {
          "internalType": "uint256",
          "name": "",
          "type": "uint256"
        },
        {
          "internalType": "uint256",
          "name": "",
          "type": "uint256"
        },
        {
          "internalType": "uint256",
          "name": "",
          "type": "uint256"
        },
        {
          "internalType": "uint256",
          "name": "",
          "type": "uint256"
        }
      ],
      "stateMutability": "nonpayable",
      "type": "function"
    },
    {
      "inputs": [],
      "name": "getLatestNetworkFeeData",
      "outputs": [
        {
          "internalType": "uint256",
          "name": "",
          "type": "uint256"
        },
        {
          "internalType": "uint256",
          "name": "",
          "type": "uint256"
        }
      ],
      "stateMutability": "view",
      "type": "function"
    },
    {
      "inputs": [],
      "name": "getLatestNetworkFeeDataWithCache",
      "outputs": [
        {
          "internalType": "uint256",
          "name": "",
          "type": "uint256"
        },
        {
          "internalType": "uint256",
          "name": "",
          "type": "uint256"
        }
      ],
      "stateMutability": "nonpayable",
      "type": "function"
    },
    {
      "inputs": [
        {
          "internalType": "address",
          "name": "staker",
          "type": "address"
        },
        {
          "internalType": "uint256",
          "name": "forEpoch",
          "type": "uint256"
        }
      ],
      "name": "getPastEpochRewardPercentageInPrecision",
      "outputs": [
        {
          "internalType": "uint256",
          "name": "",
          "type": "uint256"
        }
      ],
      "stateMutability": "view",
      "type": "function"
    },
    {
      "inputs": [
        {
          "internalType": "address",
          "name": "staker",
          "type": "address"
        },
        {
          "internalType": "uint256",
          "name": "reduceAmount",
          "type": "uint256"
        }
      ],
      "name": "handleWithdrawal",
      "outputs": [],
      "stateMutability": "nonpayable",
      "type": "function"
    },
    {
      "inputs": [],
      "name": "rebateInBPS",
      "outputs": [
        {
          "internalType": "uint256",
          "name": "",
          "type": "uint256"
        }
      ],
      "stateMutability": "view",
      "type": "function"
    },
    {
      "inputs": [],
      "name": "rewardInBPS",
      "outputs": [
        {
          "internalType": "uint256",
          "name": "",
          "type": "uint256"
        }
      ],
      "stateMutability": "view",
      "type": "function"
    },
    {
      "inputs": [],
      "name": "rewardPercentageInPrecision",
      "outputs": [
        {
          "internalType": "uint256",
          "name": "",
          "type": "uint256"
        }
      ],
      "stateMutability": "view",
      "type": "function"
    },
    {
      "inputs": [
        {
          "internalType": "uint256",
          "name": "_rewardInBPS",
          "type": "uint256"
        },
        {
          "internalType": "uint256",
          "name": "_rebateInBPS",
          "type": "uint256"
        }
      ],
      "name": "setMockBRR",
      "outputs": [],
      "stateMutability": "nonpayable",
      "type": "function"
    },
    {
      "inputs": [
        {
          "internalType": "uint256",
          "name": "_epoch",
          "type": "uint256"
        },
        {
          "internalType": "uint256",
          "name": "_expiryTimestamp",
          "type": "uint256"
        }
      ],
      "name": "setMockEpochAndExpiryTimestamp",
      "outputs": [],
      "stateMutability": "nonpayable",
      "type": "function"
    },
    {
      "inputs": [
        {
          "internalType": "uint256",
          "name": "_feeBps",
          "type": "uint256"
        }
      ],
      "name": "setNetworkFeeBps",
      "outputs": [],
      "stateMutability": "nonpayable",
      "type": "function"
    },
    {
      "inputs": [
        {
          "internalType": "uint256",
          "name": "epochNum",
          "type": "uint256"
        }
      ],
      "name": "setShouldBurnRewardTrue",
      "outputs": [],
      "stateMutability": "nonpayable",
      "type": "function"
    },
    {
      "inputs": [
        {
          "internalType": "uint256",
          "name": "percentage",
          "type": "uint256"
        }
      ],
      "name": "setStakerPercentageInPrecision",
      "outputs": [],
      "stateMutability": "nonpayable",
      "type": "function"
    },
    {
      "inputs": [
        {
          "internalType": "uint256",
          "name": "",
          "type": "uint256"
        }
      ],
      "name": "shouldBurnRewardEpoch",
      "outputs": [
        {
          "internalType": "bool",
          "name": "",
          "type": "bool"
        }
      ],
      "stateMutability": "view",
      "type": "function"
    },
    {
      "inputs": [
        {
          "internalType": "uint256",
          "name": "epochNum",
          "type": "uint256"
        }
      ],
      "name": "shouldBurnRewardForEpoch",
      "outputs": [
        {
          "internalType": "bool",
          "name": "",
          "type": "bool"
        }
      ],
      "stateMutability": "view",
      "type": "function"
    },
    {
      "inputs": [],
      "name": "startTimestamp",
      "outputs": [
        {
          "internalType": "uint256",
          "name": "",
          "type": "uint256"
        }
      ],
      "stateMutability": "view",
      "type": "function"
    },
    {
      "inputs": [
        {
          "internalType": "uint256",
          "name": "campaignID",
          "type": "uint256"
        },
        {
          "internalType": "uint256",
          "name": "option",
          "type": "uint256"
        }
      ],
      "name": "vote",
      "outputs": [],
      "stateMutability": "nonpayable",
      "type": "function"
    }
  ],
  "bytecode": "0x608060405260a060055534801561001557600080fd5b506040516106a23803806106a28339818101604052608081101561003857600080fd5b5080516020820151604083015160609093015160009290925560015560029190915560035542600655610632806100706000396000f3fe608060405234801561001057600080fd5b50600436106101c45760003560e01c8063ade6e2aa116100f9578063c70d7b6c11610097578063e2346d7111610071578063e2346d7114610405578063e6b740f91461043e578063e6fd48bc14610461578063f63e781114610469576101c4565b8063c70d7b6c146103d8578063cab3765d146103e0578063cd2737ee146103fd576101c4565b8063b484f726116100d3578063b484f7261461038d578063b5ac5590146103c0578063b5b7a184146103c8578063b8e615a2146103d0576101c4565b8063ade6e2aa1461035a578063adea696014610362578063b384abef1461036a576101c4565b806355d5309b11610166578063900cf0cf11610140578063900cf0cf146102db5780639833afaf146102e357806399e30ba8146103045780639a6d8bf31461033d576101c4565b806355d5309b146102685780636695c9811461028b578063669a0cd4146102be576101c4565b80633b5b40c3116101a25780633b5b40c3146102085780633cf80e6c146102395780634408d2ba1461024357806345bd004e1461024b576101c4565b80631c552f00146101c9578063249d39e9146101f857806324a9d85314610200575b600080fd5b6101e6600480360360208110156101df57600080fd5b5035610471565b60408051918252519081900360200190f35b6101e66104ab565b6101e66104b1565b6102256004803603602081101561021e57600080fd5b50356104b7565b604080519115158252519081900360200190f35b6102416104cc565b005b6101e66104df565b6102256004803603602081101561026157600080fd5b50356104e5565b6102416004803603604081101561027e57600080fd5b508035906020013561050c565b610293610517565b6040805195865260208601949094528484019290925260608401526080830152519081900360a00190f35b610241600480360360208110156102d457600080fd5b5035610532565b6101e661056b565b6102eb610571565b6040805192835260208301919091528051918290030190f35b6101e66004803603604081101561031a57600080fd5b5073ffffffffffffffffffffffffffffffffffffffff8135169060200135610584565b6102416004803603602081101561035357600080fd5b50356105a2565b6101e66105a7565b6102eb6105ad565b6102416004803603604081101561038057600080fd5b50803590602001356105b7565b6101e6600480360360208110156103a357600080fd5b503573ffffffffffffffffffffffffffffffffffffffff166105bb565b6101e66105c2565b6101e66105c8565b6101e66105ce565b6101e66105d4565b610241600480360360208110156103f657600080fd5b50356105da565b6101e66105df565b6102416004803603604081101561041b57600080fd5b5073ffffffffffffffffffffffffffffffffffffffff81351690602001356105b7565b6102416004803603604081101561045457600080fd5b50803590602001356105e5565b6101e66105f0565b6101e66105f6565b60006006548210806104835750600554155b15610490575060006104a6565b60055460065483038161049f57fe5b0460010190505b919050565b61271081565b60045481565b60096020526000908152604090205460ff1681565b6002805460010190556005544201600355565b60025490565b60008181526009602052604081205460ff1615610504575060016104a6565b506000919050565b600091909155600155565b60015460005460025460035461271083900384900393929394565b600090815260096020526040902080547fffffffffffffffffffffffffffffffffffffffffffffffffffffffffffffff00166001179055565b60025481565b6008805460010190556004546003549091565b600060025482106105975750600061059c565b506007545b92915050565b600755565b60035481565b6004546003549091565b5050565b5060075490565b60005481565b60055481565b60015481565b60065490565b600455565b60075481565b600291909155600355565b60065481565b6005549056fea2646970667358221220a311a6375e67fbf3087c69bd5d8d3a4bc8fb67f0cc44032be14200b154bae02464736f6c634300060c0033",
  "linkReferences": {},
  "deployedLinkReferences": {}
}