{
  "_format": "hh-sol-artifact-1",
  "contractName": "MockKyberDao",
  "sourceName": "contracts/mock/fee/MockKyberDao.sol",
  "abi": [
    {
      "inputs": [
        {
          "internalType": "uint256",
          "name": "_rewardInBPS",
          "type": "uint256"
        },
        {
          "internalType": "uint256",
          "name": "_rebateInBPS",
          "type": "uint256"
        },
        {
          "internalType": "uint256",
          "name": "_epoch",
          "type": "uint256"
        },
        {
          "internalType": "uint256",
          "name": "_expiryTimestamp",
          "type": "uint256"
        }
      ],
      "stateMutability": "nonpayable",
      "type": "constructor"
    },
    {
      "anonymous": false,
      "inputs": [
        {
          "indexed": true,
          "internalType": "address",
          "name": "staker",
          "type": "address"
        },
        {
          "indexed": true,
          "internalType": "uint256",
          "name": "epoch",
          "type": "uint256"
        },
        {
          "indexed": true,
          "internalType": "uint256",
          "name": "campaignID",
          "type": "uint256"
        },
        {
          "indexed": false,
          "internalType": "uint256",
          "name": "option",
          "type": "uint256"
        }
      ],
      "name": "Voted",
      "type": "event"
    },
    {
      "inputs": [],
      "name": "BPS",
      "outputs": [
        {
          "internalType": "uint256",
          "name": "",
          "type": "uint256"
        }
      ],
      "stateMutability": "view",
      "type": "function"
    },
    {
      "inputs": [],
      "name": "advanceEpoch",
      "outputs": [],
      "stateMutability": "nonpayable",
      "type": "function"
    },
    {
      "inputs": [],
      "name": "epoch",
      "outputs": [
        {
          "internalType": "uint256",
          "name": "",
          "type": "uint256"
        }
      ],
      "stateMutability": "view",
      "type": "function"
    },
    {
      "inputs": [],
      "name": "epochPeriod",
      "outputs": [
        {
          "internalType": "uint256",
          "name": "",
          "type": "uint256"
        }
      ],
      "stateMutability": "view",
      "type": "function"
    },
    {
      "inputs": [],
      "name": "epochPeriodInSeconds",
      "outputs": [
        {
          "internalType": "uint256",
          "name": "",
          "type": "uint256"
        }
      ],
      "stateMutability": "view",
      "type": "function"
    },
    {
      "inputs": [],
      "name": "expiryTimestamp",
      "outputs": [
        {
          "internalType": "uint256",
          "name": "",
          "type": "uint256"
        }
      ],
      "stateMutability": "view",
      "type": "function"
    },
    {
      "inputs": [],
      "name": "feeBps",
      "outputs": [
        {
          "internalType": "uint256",
          "name": "",
          "type": "uint256"
        }
      ],
      "stateMutability": "view",
      "type": "function"
    },
    {
      "inputs": [],
      "name": "firstEpochStartTimestamp",
      "outputs": [
        {
          "internalType": "uint256",
          "name": "",
          "type": "uint256"
        }
      ],
      "stateMutability": "view",
      "type": "function"
    },
    {
      "inputs": [],
      "name": "getCurrentEpochNumber",
      "outputs": [
        {
          "internalType": "uint256",
          "name": "",
          "type": "uint256"
        }
      ],
      "stateMutability": "view",
      "type": "function"
    },
    {
      "inputs": [
        {
          "internalType": "address",
          "name": "staker",
          "type": "address"
        }
      ],
      "name": "getCurrentEpochRewardPercentageInPrecision",
      "outputs": [
        {
          "internalType": "uint256",
          "name": "",
          "type": "uint256"
        }
      ],
      "stateMutability": "view",
      "type": "function"
    },
    {
      "inputs": [
        {
          "internalType": "uint256",
          "name": "timestamp",
          "type": "uint256"
        }
      ],
      "name": "getEpochNumber",
      "outputs": [
        {
          "internalType": "uint256",
          "name": "",
          "type": "uint256"
        }
      ],
      "stateMutability": "view",
      "type": "function"
    },
    {
      "inputs": [],
      "name": "getLatestBRRDataWithCache",
      "outputs": [
        {
          "internalType": "uint256",
          "name": "",
          "type": "uint256"
        },
        {
          "internalType": "uint256",
          "name": "",
          "type": "uint256"
        },
        {
          "internalType": "uint256",
          "name": "",
          "type": "uint256"
        },
        {
          "internalType": "uint256",
          "name": "",
          "type": "uint256"
        },
        {
          "internalType": "uint256",
          "name": "",
          "type": "uint256"
        }
      ],
      "stateMutability": "nonpayable",
      "type": "function"
    },
    {
      "inputs": [],
      "name": "getLatestNetworkFeeData",
      "outputs": [
        {
          "internalType": "uint256",
          "name": "",
          "type": "uint256"
        },
        {
          "internalType": "uint256",
          "name": "",
          "type": "uint256"
        }
      ],
      "stateMutability": "view",
      "type": "function"
    },
    {
      "inputs": [],
      "name": "getLatestNetworkFeeDataWithCache",
      "outputs": [
        {
          "internalType": "uint256",
          "name": "",
          "type": "uint256"
        },
        {
          "internalType": "uint256",
          "name": "",
          "type": "uint256"
        }
      ],
      "stateMutability": "nonpayable",
      "type": "function"
    },
    {
      "inputs": [
        {
          "internalType": "address",
          "name": "staker",
          "type": "address"
        },
        {
          "internalType": "uint256",
          "name": "forEpoch",
          "type": "uint256"
        }
      ],
      "name": "getPastEpochRewardPercentageInPrecision",
      "outputs": [
        {
          "internalType": "uint256",
          "name": "",
          "type": "uint256"
        }
      ],
      "stateMutability": "view",
      "type": "function"
    },
    {
      "inputs": [
        {
          "internalType": "address",
          "name": "staker",
          "type": "address"
        },
        {
          "internalType": "uint256",
          "name": "reduceAmount",
          "type": "uint256"
        }
      ],
      "name": "handleWithdrawal",
      "outputs": [],
      "stateMutability": "nonpayable",
      "type": "function"
    },
    {
      "inputs": [],
      "name": "rebateInBPS",
      "outputs": [
        {
          "internalType": "uint256",
          "name": "",
          "type": "uint256"
        }
      ],
      "stateMutability": "view",
      "type": "function"
    },
    {
      "inputs": [],
      "name": "rewardInBPS",
      "outputs": [
        {
          "internalType": "uint256",
          "name": "",
          "type": "uint256"
        }
      ],
      "stateMutability": "view",
      "type": "function"
    },
    {
      "inputs": [],
      "name": "rewardPercentageInPrecision",
      "outputs": [
        {
          "internalType": "uint256",
          "name": "",
          "type": "uint256"
        }
      ],
      "stateMutability": "view",
      "type": "function"
    },
    {
      "inputs": [
        {
          "internalType": "uint256",
          "name": "_rewardInBPS",
          "type": "uint256"
        },
        {
          "internalType": "uint256",
          "name": "_rebateInBPS",
          "type": "uint256"
        }
      ],
      "name": "setMockBRR",
      "outputs": [],
      "stateMutability": "nonpayable",
      "type": "function"
    },
    {
      "inputs": [
        {
          "internalType": "uint256",
          "name": "_epoch",
          "type": "uint256"
        },
        {
          "internalType": "uint256",
          "name": "_expiryTimestamp",
          "type": "uint256"
        }
      ],
      "name": "setMockEpochAndExpiryTimestamp",
      "outputs": [],
      "stateMutability": "nonpayable",
      "type": "function"
    },
    {
      "inputs": [
        {
          "internalType": "uint256",
          "name": "_feeBps",
          "type": "uint256"
        }
      ],
      "name": "setNetworkFeeBps",
      "outputs": [],
      "stateMutability": "nonpayable",
      "type": "function"
    },
    {
      "inputs": [
        {
          "internalType": "uint256",
          "name": "epochNum",
          "type": "uint256"
        }
      ],
      "name": "setShouldBurnRewardTrue",
      "outputs": [],
      "stateMutability": "nonpayable",
      "type": "function"
    },
    {
      "inputs": [
        {
          "internalType": "uint256",
          "name": "percentage",
          "type": "uint256"
        }
      ],
      "name": "setStakerPercentageInPrecision",
      "outputs": [],
      "stateMutability": "nonpayable",
      "type": "function"
    },
    {
      "inputs": [
        {
          "internalType": "uint256",
          "name": "",
          "type": "uint256"
        }
      ],
      "name": "shouldBurnRewardEpoch",
      "outputs": [
        {
          "internalType": "bool",
          "name": "",
          "type": "bool"
        }
      ],
      "stateMutability": "view",
      "type": "function"
    },
    {
      "inputs": [
        {
          "internalType": "uint256",
          "name": "epochNum",
          "type": "uint256"
        }
      ],
      "name": "shouldBurnRewardForEpoch",
      "outputs": [
        {
          "internalType": "bool",
          "name": "",
          "type": "bool"
        }
      ],
      "stateMutability": "view",
      "type": "function"
    },
    {
      "inputs": [],
      "name": "startTimestamp",
      "outputs": [
        {
          "internalType": "uint256",
          "name": "",
          "type": "uint256"
        }
      ],
      "stateMutability": "view",
      "type": "function"
    },
    {
      "inputs": [
        {
          "internalType": "uint256",
          "name": "campaignID",
          "type": "uint256"
        },
        {
          "internalType": "uint256",
          "name": "option",
          "type": "uint256"
        }
      ],
      "name": "vote",
      "outputs": [],
      "stateMutability": "nonpayable",
      "type": "function"
    }
  ],
  "bytecode": "0x608060405260a060055534801561001557600080fd5b5060405161065d38038061065d8339818101604052608081101561003857600080fd5b50805160208201516040830151606090930151600092909255600155600291909155600355426006556105ed806100706000396000f3fe608060405234801561001057600080fd5b50600436106101c45760003560e01c8063ade6e2aa116100f9578063c70d7b6c11610097578063e2346d7111610071578063e2346d71146103eb578063e6b740f914610417578063e6fd48bc1461043a578063f63e781114610442576101c4565b8063c70d7b6c146103be578063cab3765d146103c6578063cd2737ee146103e3576101c4565b8063b484f726116100d3578063b484f72614610380578063b5ac5590146103a6578063b5b7a184146103ae578063b8e615a2146103b6576101c4565b8063ade6e2aa1461034d578063adea696014610355578063b384abef1461035d576101c4565b806355d5309b11610166578063900cf0cf11610140578063900cf0cf146102db5780639833afaf146102e357806399e30ba8146103045780639a6d8bf314610330576101c4565b806355d5309b146102685780636695c9811461028b578063669a0cd4146102be576101c4565b80633b5b40c3116101a25780633b5b40c3146102085780633cf80e6c146102395780634408d2ba1461024357806345bd004e1461024b576101c4565b80631c552f00146101c9578063249d39e9146101f857806324a9d85314610200575b600080fd5b6101e6600480360360208110156101df57600080fd5b503561044a565b60408051918252519081900360200190f35b6101e6610484565b6101e661048a565b6102256004803603602081101561021e57600080fd5b5035610490565b604080519115158252519081900360200190f35b6102416104a5565b005b6101e66104b8565b6102256004803603602081101561026157600080fd5b50356104be565b6102416004803603604081101561027e57600080fd5b50803590602001356104e5565b6102936104f0565b6040805195865260208601949094528484019290925260608401526080830152519081900360a00190f35b610241600480360360208110156102d457600080fd5b503561050b565b6101e6610526565b6102eb61052c565b6040805192835260208301919091528051918290030190f35b6101e66004803603604081101561031a57600080fd5b506001600160a01b03813516906020013561053f565b6102416004803603602081101561034657600080fd5b503561055d565b6101e6610562565b6102eb610568565b6102416004803603604081101561037357600080fd5b5080359060200135610572565b6101e66004803603602081101561039657600080fd5b50356001600160a01b0316610576565b6101e661057d565b6101e6610583565b6101e6610589565b6101e661058f565b610241600480360360208110156103dc57600080fd5b5035610595565b6101e661059a565b6102416004803603604081101561040157600080fd5b506001600160a01b038135169060200135610572565b6102416004803603604081101561042d57600080fd5b50803590602001356105a0565b6101e66105ab565b6101e66105b1565b600060065482108061045c5750600554155b156104695750600061047f565b60055460065483038161047857fe5b0460010190505b919050565b61271081565b60045481565b60096020526000908152604090205460ff1681565b6002805460010190556005544201600355565b60025490565b60008181526009602052604081205460ff16156104dd5750600161047f565b506000919050565b600091909155600155565b60015460005460025460035461271083900384900393929394565b6000908152600960205260409020805460ff19166001179055565b60025481565b6008805460010190556004546003549091565b6000600254821061055257506000610557565b506007545b92915050565b600755565b60035481565b6004546003549091565b5050565b5060075490565b60005481565b60055481565b60015481565b60065490565b600455565b60075481565b600291909155600355565b60065481565b6005549056fea264697066735822122083266128e4223ccad1c442077b757d1cea5ee7e8709b910a5eba5ce22c82cf5564736f6c634300060c0033",
  "linkReferences": {},
  "deployedLinkReferences": {}
}