{
	"data": {
		"bytecode": {
			"linkReferences": {},
			"object": "60806040523480156200001157600080fd5b5060006040518060400160405280600a81526020016904f726368617264204c560b41b8152506040518060400160405280600681526020016504f52432d4c560d41b815250604051806040016040528060018152602001603160f81b815250828281600390805190602001906200008a929190620001ed565b508051620000a0906004906020840190620001ed565b50506005805460ff19166012179055508251602093840120815191840191909120604080517f8b73c3c69bb8fe3d512ecc4cf759cc79239f7b179b0ffacaa9a75d522b39400f818701528082019390935260608301919091524660808301523060a0808401919091528151808403909101815260c09092019052805192019190912060065550600160085560098054600160801b6001600160801b038085169182026001600160801b03199093169190911716179055620001614362000197565b600a80546001600160801b03928316600160801b02921691909117905550600b80546001600160a01b031916331790556200027f565b60006001600160801b03821115620001e9576040805162461bcd60e51b815260206004820152601060248201526f0deeccae4ccd8deee40ead2dce86264760831b604482015290519081900360640190fd5b5090565b828054600181600116156101000203166002900490600052602060002090601f016020900481019282601f106200023057805160ff191683800117855562000260565b8280016001018555821562000260579182015b828111156200026057825182559160200191906001019062000243565b50620001e99291505b80821115620001e9576000815560010162000269565b613ba9806200028f6000396000f3fe608060405234801561001057600080fd5b50600436106101da5760003560e01c80637464fc3d11610104578063bc25cf77116100a2578063d669402711610071578063d669402714610667578063dd62ed3e146106aa578063f698da25146106d8578063fff6cae9146106e0576101da565b8063bc25cf77146105e0578063c45a015514610606578063d21220a71461060e578063d505accf14610616576101da565b806395d89b41116100de57806395d89b4114610578578063a457c2d714610580578063a9059cbb146105ac578063ba9a7a56146105d8576101da565b80637464fc3d1461050b5780637ecebe001461051357806389afcb4414610539576101da565b806323b872dd1161017c57806349386b161161014b57806349386b16146104615780636a627842146104825780636ecf2b22146104a857806370a08231146104e5576101da565b806323b872dd146103d957806330adf81f1461040f578063313ce567146104175780633950935114610435576101da565b8063095ea7b3116101b8578063095ea7b31461031f5780630d94d50b1461035f5780630dfe16811461039b57806318160ddd146103bf576101da565b8063022c0d9f146101df57806306fdde031461026b5780630902f1ac146102e8575b600080fd5b610269600480360360808110156101f557600080fd5b8135916020810135916001600160a01b036040830135169190810190608081016060820135600160201b81111561022b57600080fd5b82018360208201111561023d57600080fd5b803590602001918460018302840111600160201b8311171561025e57600080fd5b5090925090506106e8565b005b610273610c31565b6040805160208082528351818301528351919283929083019185019080838360005b838110156102ad578181015183820152602001610295565b50505050905090810190601f1680156102da5780820380516001836020036101000a031916815260200191505b509250505060405180910390f35b6102f0610f6c565b60405180836001600160701b03168152602001826001600160701b031681526020019250505060405180910390f35b61034b6004803603604081101561033557600080fd5b506001600160a01b038135169060200135610f87565b604080519115158252519081900360200190f35b610367610fa5565b604080516001600160801b039586168152938516602085015291841683830152909216606082015290519081900360800190f35b6103a3610fce565b604080516001600160a01b039092168252519081900360200190f35b6103c7610fdd565b60408051918252519081900360200190f35b61034b600480360360608110156103ef57600080fd5b506001600160a01b03813581169160208101359091169060400135610fe3565b6103c761106b565b61041f61108f565b6040805160ff9092168252519081900360200190f35b61034b6004803603604081101561044b57600080fd5b506001600160a01b038135169060200135611098565b6104696110e6565b6040805163ffffffff9092168252519081900360200190f35b6103c76004803603602081101561049857600080fd5b50356001600160a01b03166110f9565b610269600480360360608110156104be57600080fd5b5080356001600160a01b03908116916020810135909116906040013563ffffffff166114a0565b6103c7600480360360208110156104fb57600080fd5b50356001600160a01b0316611545565b6103c7611564565b6103c76004803603602081101561052957600080fd5b50356001600160a01b031661156a565b61055f6004803603602081101561054f57600080fd5b50356001600160a01b031661157c565b6040805192835260208301919091528051918290030190f35b610273611a25565b61034b6004803603604081101561059657600080fd5b506001600160a01b038135169060200135611cc6565b61034b600480360360408110156105c257600080fd5b506001600160a01b038135169060200135611d2e565b6103c7611d42565b610269600480360360208110156105f657600080fd5b50356001600160a01b0316611d48565b6103a3611ebf565b6103a3611ece565b610269600480360360e081101561062c57600080fd5b506001600160a01b03813581169160208101359091169060408101359060608101359060ff6080820135169060a08101359060c00135611edd565b61066f6120e1565b604080516001600160701b03968716815294861660208601529285168484015293166060830152608082019290925290519081900360a00190f35b6103c7600480360360408110156106c057600080fd5b506001600160a01b0381358116916020013516612152565b6103c761217d565b610269612183565b6002600854141561072e576040805162461bcd60e51b815260206004820152601f602482015260008051602061397e833981519152604482015290519081900360640190fd5b6002600855841515806107415750600084115b610792576040805162461bcd60e51b815260206004820152601f60248201527f444d4d3a20494e53554646494349454e545f4f55545055545f414d4f554e5400604482015290519081900360640190fd5b600061079c613932565b6107a46123c8565b80519193509150871080156107bc5750806020015186105b61080d576040805162461bcd60e51b815260206004820152601b60248201527f444d4d3a20494e53554646494349454e545f4c49515549444954590000000000604482015290519081900360640190fd5b610815613932565b600c54600d546001600160a01b0391821691908116908816821480159061084e5750806001600160a01b0316886001600160a01b031614155b610891576040805162461bcd60e51b815260206004820152600f60248201526e444d4d3a20494e56414c49445f544f60881b604482015290519081900360640190fd5b89156108ab576108ab6001600160a01b038316898c61242f565b88156108c5576108c56001600160a01b038216898b61242f565b851561097757876001600160a01b03166381279c7e338c8c8b8b6040518663ffffffff1660e01b815260040180866001600160a01b03168152602001858152602001848152602001806020018281038252848482818152602001925080828437600081840152601f19601f8201169050808301925050509650505050505050600060405180830381600087803b15801561095e57600080fd5b505af1158015610972573d6000803e3d6000fd5b505050505b604080516370a0823160e01b815230600482015290516001600160a01b038416916370a08231916024808301926020929190829003018186803b1580156109bd57600080fd5b505afa1580156109d1573d6000803e3d6000fd5b505050506040513d60208110156109e757600080fd5b50518352604080516370a0823160e01b815230600482015290516001600160a01b038316916370a08231916024808301926020929190829003018186803b158015610a3157600080fd5b505afa158015610a45573d6000803e3d6000fd5b505050506040513d6020811015610a5b57600080fd5b505160208401528415610aaf57835183516040860151610a869291610a809190612486565b906124e0565b6040840152602080850151908401516060860151610aa99291610a809190612486565b60608401525b5050815181516000918a900310610ac7576000610ad2565b82518251908a900390035b9050600088846020015103836020015111610aee576000610afc565b888460200151038360200151035b90506000821180610b0d5750600081115b610b5e576040805162461bcd60e51b815260206004820152601e60248201527f444d4d3a20494e53554646494349454e545f494e5055545f414d4f554e540000604482015290519081900360640190fd5b6000610bb8838388610b71578751610b77565b87604001515b89610b86578860200151610b8c565b88606001515b8a610b98578851610b9e565b88604001515b8b610bad578960200151610bb3565b89606001515b61253d565b9050610bc48685612658565b60408051848152602081018490528082018d9052606081018c90526080810183905290516001600160a01b038b169133917f606ecd02b3e3b4778f8e97b2e03351de14224efaa5fa64e62200afc9395c24999181900360a00190a350506001600855505050505050505050565b600c54600d54604080516395d89b4160e01b815290516060936001600160a01b0390811693169183916395d89b4191600480820192600092909190829003018186803b158015610c8057600080fd5b505afa158015610c94573d6000803e3d6000fd5b505050506040513d6000823e601f3d908101601f191682016040526020811015610cbd57600080fd5b8101908080516040519392919084600160201b821115610cdc57600080fd5b908301906020820185811115610cf157600080fd5b8251600160201b811182820188101715610d0a57600080fd5b82525081516020918201929091019080838360005b83811015610d37578181015183820152602001610d1f565b50505050905090810190601f168015610d645780820380516001836020036101000a031916815260200191505b50604052505050816001600160a01b03166395d89b416040518163ffffffff1660e01b815260040160006040518083038186803b158015610da457600080fd5b505afa158015610db8573d6000803e3d6000fd5b505050506040513d6000823e601f3d908101601f191682016040526020811015610de157600080fd5b8101908080516040519392919084600160201b821115610e0057600080fd5b908301906020820185811115610e1557600080fd5b8251600160201b811182820188101715610e2e57600080fd5b82525081516020918201929091019080838360005b83811015610e5b578181015183820152602001610e43565b50505050905090810190601f168015610e885780820380516001836020036101000a031916815260200191505b5060405250505060405160200180806a027b931b430b932102628160ad1b815250600b0183805190602001908083835b60208310610ed75780518252601f199092019160209182019101610eb8565b6001836020036101000a03801982511681845116808217855250505050505090500180602d60f81b81525060010182805190602001908083835b60208310610f305780518252601f199092019160209182019101610f11565b6001836020036101000a038019825116818451168082178552505050505050905001925050506040516020818303038152906040529250505090565b600e546001600160701b0380821692600160701b9092041690565b6000610f9b610f94612799565b848461279d565b5060015b92915050565b600954600a546001600160801b0380831693600160801b93849004821693838316930490911690565b600c546001600160a01b031681565b60025490565b6000610ff0848484612889565b61106084610ffc612799565b61105b85604051806060016040528060288152602001613a71602891396001600160a01b038a1660009081526001602052604081209061103a612799565b6001600160a01b0316815260208101919091526040016000205491906129e4565b61279d565b5060015b9392505050565b7f6e71edae12b1b97f4d1f60370fef10105fa2faae0126114a169c64845d6126c981565b60055460ff1690565b6000610f9b6110a5612799565b8461105b85600160006110b6612799565b6001600160a01b03908116825260208083019390935260409182016000908120918c168152925290205490612486565b600e54600160e01b900463ffffffff1681565b600060026008541415611141576040805162461bcd60e51b815260206004820152601f602482015260008051602061397e833981519152604482015290519081900360640190fd5b60026008556000611150613932565b6111586123c8565b91509150611164613932565b600c54604080516370a0823160e01b815230600482015290516001600160a01b03909216916370a0823191602480820192602092909190829003018186803b1580156111af57600080fd5b505afa1580156111c3573d6000803e3d6000fd5b505050506040513d60208110156111d957600080fd5b50518152600d54604080516370a0823160e01b815230600482015290516001600160a01b03909216916370a0823191602480820192602092909190829003018186803b15801561122857600080fd5b505afa15801561123c573d6000803e3d6000fd5b505050506040513d602081101561125257600080fd5b505160208201528151815160009161126a91906124e0565b90506000611289846020015184602001516124e090919063ffffffff16565b905060006112978686612a7b565b905060006112a3610fdd565b90508061133a57861561130d57600e54855163ffffffff600160e01b909204821691612710916112d5918490612bc316565b816112dc57fe5b0460408701526020860151612710906112fe9063ffffffff80851690612bc316565b8161130557fe5b046060870152505b6113256103e8610a806113208787612bc3565b612c1c565b97506113356000196103e8612c6d565b6113ed565b85516113779061134a8684612bc3565b8161135157fe5b04876020015161136a8487612bc390919063ffffffff16565b8161137157fe5b04612d5d565b975086156113ed57600061138b8983612486565b90506113ba826113a8838a60400151612bc390919063ffffffff16565b816113af57fe5b048760000151612d73565b604087015260608701516113e69083906113d49084612bc3565b816113db57fe5b048760200151612d73565b6060870152505b6000881161142c5760405162461bcd60e51b8152600401808060200182810382526022815260200180613a996022913960400191505060405180910390fd5b6114368989612c6d565b6114408786612658565b8115611454576114508786612d83565b6010555b6040805185815260208101859052815133927f4c209b5fc8ad50758f13e2e1088ba56a560dff690a1c6fef26394f4c03821c4f928290030190a250506001600855509395945050505050565b600b546001600160a01b031633146114f0576040805162461bcd60e51b815260206004820152600e60248201526d2226a69d102327a92124a22222a760911b604482015290519081900360640190fd5b600c80546001600160a01b039485166001600160a01b031991821617909155600d805493909416921691909117909155600e805463ffffffff909216600160e01b026001600160e01b03909216919091179055565b6001600160a01b0381166000908152602081905260409020545b919050565b60105481565b60076020526000908152604090205481565b600080600260085414156115c5576040805162461bcd60e51b815260206004820152601f602482015260008051602061397e833981519152604482015290519081900360640190fd5b600260085560006115d4613932565b6115dc6123c8565b600c54600d54604080516370a0823160e01b815230600482015290519496509294506001600160a01b039182169391169160009184916370a08231916024808301926020929190829003018186803b15801561163757600080fd5b505afa15801561164b573d6000803e3d6000fd5b505050506040513d602081101561166157600080fd5b5051604080516370a0823160e01b815230600482015290519192506000916001600160a01b038516916370a08231916024808301926020929190829003018186803b1580156116af57600080fd5b505afa1580156116c3573d6000803e3d6000fd5b505050506040513d60208110156116d957600080fd5b5051855190915082108015906116f3575084602001518110155b61173b576040805162461bcd60e51b8152602060048201526014602482015273444d4d3a20554e53594e435f524553455256455360601b604482015290519081900360640190fd5b600061174630611545565b905060006117548888612a7b565b90506000611760610fdd565b90508061176d8487612bc3565b8161177457fe5b049a50806117828486612bc3565b8161178957fe5b04995060008b11801561179c575060008a115b6117d75760405162461bcd60e51b8152600401808060200182810382526022815260200180613a2e6022913960400191505060405180910390fd5b6117e13084612da9565b6117f56001600160a01b0388168d8d61242f565b6118096001600160a01b0387168d8c61242f565b611811613932565b604080516370a0823160e01b815230600482015290516001600160a01b038a16916370a08231916024808301926020929190829003018186803b15801561185757600080fd5b505afa15801561186b573d6000803e3d6000fd5b505050506040513d602081101561188157600080fd5b50518152604080516370a0823160e01b815230600482015290516001600160a01b038916916370a08231916024808301926020929190829003018186803b1580156118cb57600080fd5b505afa1580156118df573d6000803e3d6000fd5b505050506040513d60208110156118f557600080fd5b50516020820152891561199d578851815160009161193b916119179086612bc3565b8161191e57fe5b048b6020015161136a868660200151612bc390919063ffffffff16565b905061196a83611958838d60400151612bc390919063ffffffff16565b8161195f57fe5b048360000151612d73565b604083015260608a01516119969084906119849084612bc3565b8161198b57fe5b048360200151612d73565b6060830152505b6119a78a82612658565b82156119bb576119b78a82612d83565b6010555b8c6001600160a01b0316336001600160a01b03167fdccd412f0b1252819cb1fd330b93224ca42612892bb3f4f789976e6d819364968e8e604051808381526020018281526020019250505060405180910390a3505050505050505050506001600881905550915091565b600c54600d54604080516395d89b4160e01b815290516060936001600160a01b0390811693169183916395d89b4191600480820192600092909190829003018186803b158015611a7457600080fd5b505afa158015611a88573d6000803e3d6000fd5b505050506040513d6000823e601f3d908101601f191682016040526020811015611ab157600080fd5b8101908080516040519392919084600160201b821115611ad057600080fd5b908301906020820185811115611ae557600080fd5b8251600160201b811182820188101715611afe57600080fd5b82525081516020918201929091019080838360005b83811015611b2b578181015183820152602001611b13565b50505050905090810190601f168015611b585780820380516001836020036101000a031916815260200191505b50604052505050816001600160a01b03166395d89b416040518163ffffffff1660e01b815260040160006040518083038186803b158015611b9857600080fd5b505afa158015611bac573d6000803e3d6000fd5b505050506040513d6000823e601f3d908101601f191682016040526020811015611bd557600080fd5b8101908080516040519392919084600160201b821115611bf457600080fd5b908301906020820185811115611c0957600080fd5b8251600160201b811182820188101715611c2257600080fd5b82525081516020918201929091019080838360005b83811015611c4f578181015183820152602001611c37565b50505050905090810190601f168015611c7c5780820380516001836020036101000a031916815260200191505b50604052505050604051602001808066027a92196a628160cd1b815250600701838051906020019080838360208310610ed75780518252601f199092019160209182019101610eb8565b6000610f9b611cd3612799565b8461105b85604051806060016040528060258152602001613b4f6025913960016000611cfd612799565b6001600160a01b03908116825260208083019390935260409182016000908120918d168152925290205491906129e4565b6000610f9b611d3b612799565b8484612889565b6103e881565b60026008541415611d8e576040805162461bcd60e51b815260206004820152601f602482015260008051602061397e833981519152604482015290519081900360640190fd5b6002600855600e54600c54604080516370a0823160e01b81523060048201529051611e3b938593611e28936001600160701b03909216926001600160a01b03909116916370a08231916024808301926020929190829003018186803b158015611df657600080fd5b505afa158015611e0a573d6000803e3d6000fd5b505050506040513d6020811015611e2057600080fd5b5051906124e0565b600c546001600160a01b0316919061242f565b600e54600d54604080516370a0823160e01b81523060048201529051611eb7938593611ea493600160701b9092046001600160701b0316926001600160a01b03909116916370a08231916024808301926020929190829003018186803b158015611df657600080fd5b600d546001600160a01b0316919061242f565b506001600855565b600b546001600160a01b031681565b600d546001600160a01b031681565b42841015611f29576040805162461bcd60e51b8152602060048201526014602482015273115490cc8c14195c9b5a5d0e881156141254915160621b604482015290519081900360640190fd5b6006546001600160a01b0380891660008181526007602090815260408083208054600180820190925582517f6e71edae12b1b97f4d1f60370fef10105fa2faae0126114a169c64845d6126c98186015280840196909652958d166060860152608085018c905260a085019590955260c08085018b90528151808603909101815260e08501825280519083012061190160f01b6101008601526101028501969096526101228085019690965280518085039096018652610142840180825286519683019690962095839052610162840180825286905260ff89166101828501526101a284018890526101c28401879052519193926101e280820193601f1981019281900390910190855afa158015612044573d6000803e3d6000fd5b5050604051601f1901519150506001600160a01b0381161580159061207a5750886001600160a01b0316816001600160a01b0316145b6120cb576040805162461bcd60e51b815260206004820152601e60248201527f45524332305065726d69743a20494e56414c49445f5349474e41545552450000604482015290519081900360640190fd5b6120d689898961279d565b505050505050505050565b600e54600f546001600160701b0380831692600160701b808204831693838116939190041690600090600160e01b900463ffffffff16612710811415612128578593508492505b600061213343612ea5565b905061214761214182612fb9565b8361316c565b925050509091929394565b6001600160a01b03918216600090815260016020908152604080832093909416825291909152205490565b60065481565b600260085414156121c9576040805162461bcd60e51b815260206004820152601f602482015260008051602061397e833981519152604482015290519081900360640190fd5b600260085560006121d8613932565b6121e06123c8565b9150915060006121f08383612a7b565b90506121fa613932565b600c54604080516370a0823160e01b815230600482015290516001600160a01b03909216916370a0823191602480820192602092909190829003018186803b15801561224557600080fd5b505afa158015612259573d6000803e3d6000fd5b505050506040513d602081101561226f57600080fd5b50518152600d54604080516370a0823160e01b815230600482015290516001600160a01b03909216916370a0823191602480820192602092909190829003018186803b1580156122be57600080fd5b505afa1580156122d2573d6000803e3d6000fd5b505050506040513d60208110156122e857600080fd5b50516020820152831561239f5760006122ff610fdd565b8451835191925060009161233c91906123189085612bc3565b8161231f57fe5b04866020015161136a858760200151612bc390919063ffffffff16565b905061236b82612359838860400151612bc390919063ffffffff16565b8161236057fe5b048460000151612d73565b604084015260608501516123979083906123859084612bc3565b8161238c57fe5b048460200151612d73565b606084015250505b6123a98482612658565b81156123bd576123b98482612d83565b6010555b505060016008555050565b60006123d2613932565b600e546001600160701b038082168352600160701b820416602083015263ffffffff600160e01b90910416612710148015925061242b57600f546001600160701b038082166040840152600160701b9091041660608201525b9091565b604080516001600160a01b038416602482015260448082018490528251808303909101815260649091019091526020810180516001600160e01b031663a9059cbb60e01b1790526124819084906131c8565b505050565b600082820183811015611064576040805162461bcd60e51b815260206004820152601b60248201527f536166654d6174683a206164646974696f6e206f766572666c6f770000000000604482015290519081900360640190fd5b600082821115612537576040805162461bcd60e51b815260206004820152601e60248201527f536166654d6174683a207375627472616374696f6e206f766572666c6f770000604482015290519081900360640190fd5b50900390565b60008061255e88612558876125528a8c612bc3565b90613279565b90612486565b9050600061256c43836132e0565b905061258f61257a82612fb9565b600e54600160e01b900463ffffffff1661316c565b925060006125a586670de0b6b3a7640000612bc3565b90506125bb6125b48b86612bc3565b82906124e0565b9050670de0b6b3a76400008104905060006125de86670de0b6b3a7640000612bc3565b90506125ed6125b48b87612bc3565b670de0b6b3a7640000900490506126048989612bc3565b61260e8383612bc3565b101561264a576040805162461bcd60e51b8152602060048201526006602482015265444d4d3a204b60d01b604482015290519081900360640190fd5b505050509695505050505050565b80516126639061351d565b600e80546001600160701b0319166001600160701b039290921691909117905560208101516126919061351d565b600e806101000a8154816001600160701b0302191690836001600160701b0316021790555081156127415780516040820151108015906126d957508060200151816060015110155b6126df57fe5b6126ec816040015161351d565b600f80546001600160701b0319166001600160701b0392909216919091179055606081015161271a9061351d565b600f600e6101000a8154816001600160701b0302191690836001600160701b031602179055505b6040808201516060808401518451602080870151865195865290850192909252838501529082015290517f2f9d55abfefdfd4c3a83e00a1b419b3c2fe4b83100c559f0e2213e57f6e0bba99181900360800190a15050565b3390565b6001600160a01b0383166127e25760405162461bcd60e51b8152600401808060200182810382526024815260200180613b016024913960400191505060405180910390fd5b6001600160a01b0382166128275760405162461bcd60e51b81526004018080602001828103825260228152602001806139c06022913960400191505060405180910390fd5b6001600160a01b03808416600081815260016020908152604080832094871680845294825291829020859055815185815291517f8c5be1e5ebec7d5bd14f71427d1e84f3dd0314c0f7b2291e5b200ac8c7c3b9259281900390910190a3505050565b6001600160a01b0383166128ce5760405162461bcd60e51b8152600401808060200182810382526025815260200180613adc6025913960400191505060405180910390fd5b6001600160a01b0382166129135760405162461bcd60e51b815260040180806020018281038252602381526020018061395b6023913960400191505060405180910390fd5b61291e838383612481565b61295b816040518060600160405280602681526020016139e2602691396001600160a01b03861660009081526020819052604090205491906129e4565b6001600160a01b03808516600090815260208190526040808220939093559084168152205461298a9082612486565b6001600160a01b038084166000818152602081815260409182902094909455805185815290519193928716927fddf252ad1be2c89b69c2b068fc378daa952ba7f163c4a11628f55a4df523b3ef92918290030190a3505050565b60008184841115612a735760405162461bcd60e51b81526004018080602001828103825283818151815260200191508051906020019080838360005b83811015612a38578181015183820152602001612a20565b50505050905090810190601f168015612a655780820380516001836020036101000a031916815260200191505b509250505060405180910390fd5b505050900390565b6000806000600b60009054906101000a90046001600160a01b03166001600160a01b031663ad5cb2e16040518163ffffffff1660e01b8152600401604080518083038186803b158015612acd57600080fd5b505afa158015612ae1573d6000803e3d6000fd5b505050506040513d6040811015612af757600080fd5b5080516020909101516010546001600160a01b038316158015965092945090925090612bae578015612ba9576000612b326113208888612d83565b90506000612b3f83612c1c565b905080821115612ba6576000612b6e61ffff8616612b68612b6086866124e0565b612b68610fdd565b90612bc3565b90506000612b82611388612b688686612486565b90506000818381612b8f57fe5b0490508015612ba257612ba28882612c6d565b5050505b50505b612bba565b8015612bba5760006010555b50505092915050565b600082612bd257506000610f9f565b82820282848281612bdf57fe5b04146110645760405162461bcd60e51b8152600401808060200182810382526021815260200180613a506021913960400191505060405180910390fd5b60006003821115612c5f575080600160028204015b81811015612c5957809150600281828581612c4857fe5b040181612c5157fe5b049050612c31565b5061155f565b811561155f57506001919050565b6001600160a01b038216612cc8576040805162461bcd60e51b815260206004820152601f60248201527f45524332303a206d696e7420746f20746865207a65726f206164647265737300604482015290519081900360640190fd5b612cd460008383612481565b600254612ce19082612486565b6002556001600160a01b038216600090815260208190526040902054612d079082612486565b6001600160a01b0383166000818152602081815260408083209490945583518581529351929391927fddf252ad1be2c89b69c2b068fc378daa952ba7f163c4a11628f55a4df523b3ef9281900390910190a35050565b6000818310612d6c5781611064565b5090919050565b600081831015612d6c5781611064565b600082612d97576020820151825102611064565b50606081015160409091015102919050565b6001600160a01b038216612dee5760405162461bcd60e51b8152600401808060200182810382526021815260200180613abb6021913960400191505060405180910390fd5b612dfa82600083612481565b612e378160405180606001604052806022815260200161399e602291396001600160a01b03851660009081526020819052604090205491906129e4565b6001600160a01b038316600090815260208190526040902055600254612e5d90826124e0565b6002556040805182815290516000916001600160a01b038516917fddf252ad1be2c89b69c2b068fc378daa952ba7f163c4a11628f55a4df523b3ef9181900360200190a35050565b600a54600090600160801b90046001600160801b0316820380612eea57600954612ee2906001600160801b0380821691600160801b90041661356f565b91505061155f565b600954600090612f1f906001600160801b0316611519671bc16d674ec800005b600a54919004906001600160801b0316613591565b600954909150600090612f4d90600160801b90046001600160801b0316612a31671bc16d674ec80000612f0a565b9050612f7f612f786000198501611519671bc16d674ec800005b04670de0b6b3a764000003906135e0565b8390613690565b9150612fa4612f9d6000198501612a31671bc16d674ec80000612f67565b8290613690565b9050612fb0828261356f565b95945050505050565b6000671480cc142da92a848210612fd85750661550f7dca7000061155f565b670de0b6b3a764000082106130c9576710a741a46278000082111561306a576710a741a46277ffff19820160006130108260036135e0565b9050612710613059613030846009680d8d726b7177a800005b0490613690565b61255861304985601b69043c33c1937564800000613029565b6801fa48421ec7b1ed0990612486565b8161306057fe5b049250505061155f565b6710a741a46278000082900360006130838260036135e0565b90506127106130596130a0846009680d8d726b7177a80000613029565b610a806130b985601b69043c33c1937564800000613029565b6801fa48421ec7b1ed09906124e0565b6000670b9a1192183a000083116130eb57670b9a1192183a00008390036130f8565b670b9a11921839ffff1983015b90506131058160026135e0565b9050600061312e61311c8365b5e620f48000612486565b612552674563918244f4000085612bc3565b9050670b9a1192183a0000841115613156576127106130596801161163ae0de59a9283612486565b6127106130596801161163ae0de59a92836124e0565b6000614e208263ffffffff1611613184575081610f9f565b61c3508263ffffffff16116131a257601e601484025b049050610f9f565b62030d408263ffffffff16116131bd57601e600a840261319a565b601e6004840261319a565b606061321d826040518060400160405280602081526020017f5361666545524332303a206c6f772d6c6576656c2063616c6c206661696c6564815250856001600160a01b03166136ac9092919063ffffffff16565b8051909150156124815780806020019051602081101561323c57600080fd5b50516124815760405162461bcd60e51b815260040180806020018281038252602a815260200180613b25602a913960400191505060405180910390fd5b60008082116132cf576040805162461bcd60e51b815260206004820152601a60248201527f536166654d6174683a206469766973696f6e206279207a65726f000000000000604482015290519081900360640190fd5b8183816132d857fe5b049392505050565b600a54600090600160801b90046001600160801b031683038061338e57600a5461335290613317906001600160801b031685612486565b6040518060400160405280601a81526020017f766f6c756d6520657863656564732076616c69642072616e67650000000000008152506136c3565b600a80546001600160801b0319166001600160801b039283161790556009546133869181811691600160801b90041661356f565b915050610f9f565b600a546009546001600160801b03918216916000916133b99116611519671bc16d674ec80000612f0a565b6009549091506000906133e790600160801b90046001600160801b0316612a31671bc16d674ec80000612f0a565b9050613405612f786000198601611519671bc16d674ec80000612f67565b9150613423612f9d6000198601612a31671bc16d674ec80000612f67565b905061342e82613724565b600980546001600160801b0319166001600160801b039290921691909117905561345781613724565b600980546001600160801b03928316600160801b02921691909117905561347d86613724565b600a80546001600160801b0319166001600160801b03929092169190911790556134a687613724565b600a80546001600160801b03928316600160801b0290831617905560408051848152602081018490529185168282015260608201869052517f96e2c334d3c0fa98c8b728ee84471864ffe5b28e05f46e52f8a469d0ab3a8b8b9181900360800190a1613512828261356f565b979650505050505050565b60006001600160701b0382111561356b576040805162461bcd60e51b815260206004820152600d60248201526c444d4d3a204f564552464c4f5760981b604482015290519081900360640190fd5b5090565b60008161357e57506000610f9f565b81670de0b6b3a76400008402816132d857fe5b6000670de0b6b3a764000083106135a457fe5b670de0b6b3a7640000826001600160801b03168402856001600160801b031685670de0b6b3a7640000030201816135d757fe5b04949350505050565b6000670de0b6b3a7640000831115613638576040805162461bcd60e51b815260206004820152601660248201527526b0ba3422bc3a1d103c101f10282922a1a4a9a4a7a760511b604482015290519081900360640190fd5b6002820661364e57670de0b6b3a7640000613650565b825b90506002820491505b8115610f9f57670de0b6b3a7640000838002049250600282061561368557670de0b6b3a7640000908302045b600282049150613659565b6000670de0b6b3a76400006136a58484612bc3565b816132d857fe5b60606136bb8484600085613775565b949350505050565b6000816001600160801b0384111561371c5760405162461bcd60e51b8152602060048201818152835160248401528351909283926044909101919085019080838360008315612a38578181015183820152602001612a20565b509192915050565b60006001600160801b0382111561356b576040805162461bcd60e51b815260206004820152601060248201526f0deeccae4ccd8deee40ead2dce86264760831b604482015290519081900360640190fd5b6060824710156137b65760405162461bcd60e51b8152600401808060200182810382526026815260200180613a086026913960400191505060405180910390fd5b6137bf856138c6565b613810576040805162461bcd60e51b815260206004820152601d60248201527f416464726573733a2063616c6c20746f206e6f6e2d636f6e7472616374000000604482015290519081900360640190fd5b60006060866001600160a01b031685876040518082805190602001908083835b6020831061384f5780518252601f199092019160209182019101613830565b6001836020036101000a03801982511681845116808217855250505050505090500191505060006040518083038185875af1925050503d80600081146138b1576040519150601f19603f3d011682016040523d82523d6000602084013e6138b6565b606091505b50915091506135128282866138cc565b3b151590565b606083156138db575081611064565b8251156138eb5782518084602001fd5b60405162461bcd60e51b8152602060048201818152845160248401528451859391928392604401919085019080838360008315612a38578181015183820152602001612a20565b604051806080016040528060008152602001600081526020016000815260200160008152509056fe45524332303a207472616e7366657220746f20746865207a65726f20616464726573735265656e7472616e637947756172643a207265656e7472616e742063616c6c0045524332303a206275726e20616d6f756e7420657863656564732062616c616e636545524332303a20617070726f766520746f20746865207a65726f206164647265737345524332303a207472616e7366657220616d6f756e7420657863656564732062616c616e6365416464726573733a20696e73756666696369656e742062616c616e636520666f722063616c6c444d4d3a20494e53554646494349454e545f4c49515549444954595f4255524e4544536166654d6174683a206d756c7469706c69636174696f6e206f766572666c6f7745524332303a207472616e7366657220616d6f756e74206578636565647320616c6c6f77616e6365444d4d3a20494e53554646494349454e545f4c49515549444954595f4d494e54454445524332303a206275726e2066726f6d20746865207a65726f206164647265737345524332303a207472616e736665722066726f6d20746865207a65726f206164647265737345524332303a20617070726f76652066726f6d20746865207a65726f20616464726573735361666545524332303a204552433230206f7065726174696f6e20646964206e6f74207375636365656445524332303a2064656372656173656420616c6c6f77616e63652062656c6f77207a65726fa26469706673582212208feb102fcb1b9638c630b61e44dd61038874df21e6af9ea1179b3dd8fe0eb6f664736f6c634300060c0033",
			"opcodes": "PUSH1 0x80 PUSH1 0x40 MSTORE CALLVALUE DUP1 ISZERO PUSH3 0x11 JUMPI PUSH1 0x0 DUP1 REVERT JUMPDEST POP PUSH1 0x0 PUSH1 0x40 MLOAD DUP1 PUSH1 0x40 ADD PUSH1 0x40 MSTORE DUP1 PUSH1 0xA DUP2 MSTORE PUSH1 0x20 ADD PUSH10 0x4F726368617264204C5 PUSH1 0xB4 SHL DUP2 MSTORE POP PUSH1 0x40 MLOAD DUP1 PUSH1 0x40 ADD PUSH1 0x40 MSTORE DUP1 PUSH1 0x6 DUP2 MSTORE PUSH1 0x20 ADD PUSH6 0x4F52432D4C5 PUSH1 0xD4 SHL DUP2 MSTORE POP PUSH1 0x40 MLOAD DUP1 PUSH1 0x40 ADD PUSH1 0x40 MSTORE DUP1 PUSH1 0x1 DUP2 MSTORE PUSH1 0x20 ADD PUSH1 0x31 PUSH1 0xF8 SHL DUP2 MSTORE POP DUP3 DUP3 DUP2 PUSH1 0x3 SWAP1 DUP1 MLOAD SWAP1 PUSH1 0x20 ADD SWAP1 PUSH3 0x8A SWAP3 SWAP2 SWAP1 PUSH3 0x1ED JUMP JUMPDEST POP DUP1 MLOAD PUSH3 0xA0 SWAP1 PUSH1 0x4 SWAP1 PUSH1 0x20 DUP5 ADD SWAP1 PUSH3 0x1ED JUMP JUMPDEST POP POP PUSH1 0x5 DUP1 SLOAD PUSH1 0xFF NOT AND PUSH1 0x12 OR SWAP1 SSTORE POP DUP3 MLOAD PUSH1 0x20 SWAP4 DUP5 ADD KECCAK256 DUP2 MLOAD SWAP2 DUP5 ADD SWAP2 SWAP1 SWAP2 KECCAK256 PUSH1 0x40 DUP1 MLOAD PUSH32 0x8B73C3C69BB8FE3D512ECC4CF759CC79239F7B179B0FFACAA9A75D522B39400F DUP2 DUP8 ADD MSTORE DUP1 DUP3 ADD SWAP4 SWAP1 SWAP4 MSTORE PUSH1 0x60 DUP4 ADD SWAP2 SWAP1 SWAP2 MSTORE CHAINID PUSH1 0x80 DUP4 ADD MSTORE ADDRESS PUSH1 0xA0 DUP1 DUP5 ADD SWAP2 SWAP1 SWAP2 MSTORE DUP2 MLOAD DUP1 DUP5 SUB SWAP1 SWAP2 ADD DUP2 MSTORE PUSH1 0xC0 SWAP1 SWAP3 ADD SWAP1 MSTORE DUP1 MLOAD SWAP3 ADD SWAP2 SWAP1 SWAP2 KECCAK256 PUSH1 0x6 SSTORE POP PUSH1 0x1 PUSH1 0x8 SSTORE PUSH1 0x9 DUP1 SLOAD PUSH1 0x1 PUSH1 0x80 SHL PUSH1 0x1 PUSH1 0x1 PUSH1 0x80 SHL SUB DUP1 DUP6 AND SWAP2 DUP3 MUL PUSH1 0x1 PUSH1 0x1 PUSH1 0x80 SHL SUB NOT SWAP1 SWAP4 AND SWAP2 SWAP1 SWAP2 OR AND OR SWAP1 SSTORE PUSH3 0x161 NUMBER PUSH3 0x197 JUMP JUMPDEST PUSH1 0xA DUP1 SLOAD PUSH1 0x1 PUSH1 0x1 PUSH1 0x80 SHL SUB SWAP3 DUP4 AND PUSH1 0x1 PUSH1 0x80 SHL MUL SWAP3 AND SWAP2 SWAP1 SWAP2 OR SWAP1 SSTORE POP PUSH1 0xB DUP1 SLOAD PUSH1 0x1 PUSH1 0x1 PUSH1 0xA0 SHL SUB NOT AND CALLER OR SWAP1 SSTORE PUSH3 0x27F JUMP JUMPDEST PUSH1 0x0 PUSH1 0x1 PUSH1 0x1 PUSH1 0x80 SHL SUB DUP3 GT ISZERO PUSH3 0x1E9 JUMPI PUSH1 0x40 DUP1 MLOAD PUSH3 0x461BCD PUSH1 0xE5 SHL DUP2 MSTORE PUSH1 0x20 PUSH1 0x4 DUP3 ADD MSTORE PUSH1 0x10 PUSH1 0x24 DUP3 ADD MSTORE PUSH16 0xDEECCAE4CCD8DEEE40EAD2DCE862647 PUSH1 0x83 SHL PUSH1 0x44 DUP3 ADD MSTORE SWAP1 MLOAD SWAP1 DUP2 SWAP1 SUB PUSH1 0x64 ADD SWAP1 REVERT JUMPDEST POP SWAP1 JUMP JUMPDEST DUP3 DUP1 SLOAD PUSH1 0x1 DUP2 PUSH1 0x1 AND ISZERO PUSH2 0x100 MUL SUB AND PUSH1 0x2 SWAP1 DIV SWAP1 PUSH1 0x0 MSTORE PUSH1 0x20 PUSH1 0x0 KECCAK256 SWAP1 PUSH1 0x1F ADD PUSH1 0x20 SWAP1 DIV DUP2 ADD SWAP3 DUP3 PUSH1 0x1F LT PUSH3 0x230 JUMPI DUP1 MLOAD PUSH1 0xFF NOT AND DUP4 DUP1 ADD OR DUP6 SSTORE PUSH3 0x260 JUMP JUMPDEST DUP3 DUP1 ADD PUSH1 0x1 ADD DUP6 SSTORE DUP3 ISZERO PUSH3 0x260 JUMPI SWAP2 DUP3 ADD JUMPDEST DUP3 DUP2 GT ISZERO PUSH3 0x260 JUMPI DUP3 MLOAD DUP3 SSTORE SWAP2 PUSH1 0x20 ADD SWAP2 SWAP1 PUSH1 0x1 ADD SWAP1 PUSH3 0x243 JUMP JUMPDEST POP PUSH3 0x1E9 SWAP3 SWAP2 POP JUMPDEST DUP1 DUP3 GT ISZERO PUSH3 0x1E9 JUMPI PUSH1 0x0 DUP2 SSTORE PUSH1 0x1 ADD PUSH3 0x269 JUMP JUMPDEST PUSH2 0x3BA9 DUP1 PUSH3 0x28F PUSH1 0x0 CODECOPY PUSH1 0x0 RETURN INVALID PUSH1 0x80 PUSH1 0x40 MSTORE CALLVALUE DUP1 ISZERO PUSH2 0x10 JUMPI PUSH1 0x0 DUP1 REVERT JUMPDEST POP PUSH1 0x4 CALLDATASIZE LT PUSH2 0x1DA JUMPI PUSH1 0x0 CALLDATALOAD PUSH1 0xE0 SHR DUP1 PUSH4 0x7464FC3D GT PUSH2 0x104 JUMPI DUP1 PUSH4 0xBC25CF77 GT PUSH2 0xA2 JUMPI DUP1 PUSH4 0xD6694027 GT PUSH2 0x71 JUMPI DUP1 PUSH4 0xD6694027 EQ PUSH2 0x667 JUMPI DUP1 PUSH4 0xDD62ED3E EQ PUSH2 0x6AA JUMPI DUP1 PUSH4 0xF698DA25 EQ PUSH2 0x6D8 JUMPI DUP1 PUSH4 0xFFF6CAE9 EQ PUSH2 0x6E0 JUMPI PUSH2 0x1DA JUMP JUMPDEST DUP1 PUSH4 0xBC25CF77 EQ PUSH2 0x5E0 JUMPI DUP1 PUSH4 0xC45A0155 EQ PUSH2 0x606 JUMPI DUP1 PUSH4 0xD21220A7 EQ PUSH2 0x60E JUMPI DUP1 PUSH4 0xD505ACCF EQ PUSH2 0x616 JUMPI PUSH2 0x1DA JUMP JUMPDEST DUP1 PUSH4 0x95D89B41 GT PUSH2 0xDE JUMPI DUP1 PUSH4 0x95D89B41 EQ PUSH2 0x578 JUMPI DUP1 PUSH4 0xA457C2D7 EQ PUSH2 0x580 JUMPI DUP1 PUSH4 0xA9059CBB EQ PUSH2 0x5AC JUMPI DUP1 PUSH4 0xBA9A7A56 EQ PUSH2 0x5D8 JUMPI PUSH2 0x1DA JUMP JUMPDEST DUP1 PUSH4 0x7464FC3D EQ PUSH2 0x50B JUMPI DUP1 PUSH4 0x7ECEBE00 EQ PUSH2 0x513 JUMPI DUP1 PUSH4 0x89AFCB44 EQ PUSH2 0x539 JUMPI PUSH2 0x1DA JUMP JUMPDEST DUP1 PUSH4 0x23B872DD GT PUSH2 0x17C JUMPI DUP1 PUSH4 0x49386B16 GT PUSH2 0x14B JUMPI DUP1 PUSH4 0x49386B16 EQ PUSH2 0x461 JUMPI DUP1 PUSH4 0x6A627842 EQ PUSH2 0x482 JUMPI DUP1 PUSH4 0x6ECF2B22 EQ PUSH2 0x4A8 JUMPI DUP1 PUSH4 0x70A08231 EQ PUSH2 0x4E5 JUMPI PUSH2 0x1DA JUMP JUMPDEST DUP1 PUSH4 0x23B872DD EQ PUSH2 0x3D9 JUMPI DUP1 PUSH4 0x30ADF81F EQ PUSH2 0x40F JUMPI DUP1 PUSH4 0x313CE567 EQ PUSH2 0x417 JUMPI DUP1 PUSH4 0x39509351 EQ PUSH2 0x435 JUMPI PUSH2 0x1DA JUMP JUMPDEST DUP1 PUSH4 0x95EA7B3 GT PUSH2 0x1B8 JUMPI DUP1 PUSH4 0x95EA7B3 EQ PUSH2 0x31F JUMPI DUP1 PUSH4 0xD94D50B EQ PUSH2 0x35F JUMPI DUP1 PUSH4 0xDFE1681 EQ PUSH2 0x39B JUMPI DUP1 PUSH4 0x18160DDD EQ PUSH2 0x3BF JUMPI PUSH2 0x1DA JUMP JUMPDEST DUP1 PUSH4 0x22C0D9F EQ PUSH2 0x1DF JUMPI DUP1 PUSH4 0x6FDDE03 EQ PUSH2 0x26B JUMPI DUP1 PUSH4 0x902F1AC EQ PUSH2 0x2E8 JUMPI JUMPDEST PUSH1 0x0 DUP1 REVERT JUMPDEST PUSH2 0x269 PUSH1 0x4 DUP1 CALLDATASIZE SUB PUSH1 0x80 DUP2 LT ISZERO PUSH2 0x1F5 JUMPI PUSH1 0x0 DUP1 REVERT JUMPDEST DUP2 CALLDATALOAD SWAP2 PUSH1 0x20 DUP2 ADD CALLDATALOAD SWAP2 PUSH1 0x1 PUSH1 0x1 PUSH1 0xA0 SHL SUB PUSH1 0x40 DUP4 ADD CALLDATALOAD AND SWAP2 SWAP1 DUP2 ADD SWAP1 PUSH1 0x80 DUP2 ADD PUSH1 0x60 DUP3 ADD CALLDATALOAD PUSH1 0x1 PUSH1 0x20 SHL DUP2 GT ISZERO PUSH2 0x22B JUMPI PUSH1 0x0 DUP1 REVERT JUMPDEST DUP3 ADD DUP4 PUSH1 0x20 DUP3 ADD GT ISZERO PUSH2 0x23D JUMPI PUSH1 0x0 DUP1 REVERT JUMPDEST DUP1 CALLDATALOAD SWAP1 PUSH1 0x20 ADD SWAP2 DUP5 PUSH1 0x1 DUP4 MUL DUP5 ADD GT PUSH1 0x1 PUSH1 0x20 SHL DUP4 GT OR ISZERO PUSH2 0x25E JUMPI PUSH1 0x0 DUP1 REVERT JUMPDEST POP SWAP1 SWAP3 POP SWAP1 POP PUSH2 0x6E8 JUMP JUMPDEST STOP JUMPDEST PUSH2 0x273 PUSH2 0xC31 JUMP JUMPDEST PUSH1 0x40 DUP1 MLOAD PUSH1 0x20 DUP1 DUP3 MSTORE DUP4 MLOAD DUP2 DUP4 ADD MSTORE DUP4 MLOAD SWAP2 SWAP3 DUP4 SWAP3 SWAP1 DUP4 ADD SWAP2 DUP6 ADD SWAP1 DUP1 DUP4 DUP4 PUSH1 0x0 JUMPDEST DUP4 DUP2 LT ISZERO PUSH2 0x2AD JUMPI DUP2 DUP2 ADD MLOAD DUP4 DUP3 ADD MSTORE PUSH1 0x20 ADD PUSH2 0x295 JUMP JUMPDEST POP POP POP POP SWAP1 POP SWAP1 DUP2 ADD SWAP1 PUSH1 0x1F AND DUP1 ISZERO PUSH2 0x2DA JUMPI DUP1 DUP3 SUB DUP1 MLOAD PUSH1 0x1 DUP4 PUSH1 0x20 SUB PUSH2 0x100 EXP SUB NOT AND DUP2 MSTORE PUSH1 0x20 ADD SWAP2 POP JUMPDEST POP SWAP3 POP POP POP PUSH1 0x40 MLOAD DUP1 SWAP2 SUB SWAP1 RETURN JUMPDEST PUSH2 0x2F0 PUSH2 0xF6C JUMP JUMPDEST PUSH1 0x40 MLOAD DUP1 DUP4 PUSH1 0x1 PUSH1 0x1 PUSH1 0x70 SHL SUB AND DUP2 MSTORE PUSH1 0x20 ADD DUP3 PUSH1 0x1 PUSH1 0x1 PUSH1 0x70 SHL SUB AND DUP2 MSTORE PUSH1 0x20 ADD SWAP3 POP POP POP PUSH1 0x40 MLOAD DUP1 SWAP2 SUB SWAP1 RETURN JUMPDEST PUSH2 0x34B PUSH1 0x4 DUP1 CALLDATASIZE SUB PUSH1 0x40 DUP2 LT ISZERO PUSH2 0x335 JUMPI PUSH1 0x0 DUP1 REVERT JUMPDEST POP PUSH1 0x1 PUSH1 0x1 PUSH1 0xA0 SHL SUB DUP2 CALLDATALOAD AND SWAP1 PUSH1 0x20 ADD CALLDATALOAD PUSH2 0xF87 JUMP JUMPDEST PUSH1 0x40 DUP1 MLOAD SWAP2 ISZERO ISZERO DUP3 MSTORE MLOAD SWAP1 DUP2 SWAP1 SUB PUSH1 0x20 ADD SWAP1 RETURN JUMPDEST PUSH2 0x367 PUSH2 0xFA5 JUMP JUMPDEST PUSH1 0x40 DUP1 MLOAD PUSH1 0x1 PUSH1 0x1 PUSH1 0x80 SHL SUB SWAP6 DUP7 AND DUP2 MSTORE SWAP4 DUP6 AND PUSH1 0x20 DUP6 ADD MSTORE SWAP2 DUP5 AND DUP4 DUP4 ADD MSTORE SWAP1 SWAP3 AND PUSH1 0x60 DUP3 ADD MSTORE SWAP1 MLOAD SWAP1 DUP2 SWAP1 SUB PUSH1 0x80 ADD SWAP1 RETURN JUMPDEST PUSH2 0x3A3 PUSH2 0xFCE JUMP JUMPDEST PUSH1 0x40 DUP1 MLOAD PUSH1 0x1 PUSH1 0x1 PUSH1 0xA0 SHL SUB SWAP1 SWAP3 AND DUP3 MSTORE MLOAD SWAP1 DUP2 SWAP1 SUB PUSH1 0x20 ADD SWAP1 RETURN JUMPDEST PUSH2 0x3C7 PUSH2 0xFDD JUMP JUMPDEST PUSH1 0x40 DUP1 MLOAD SWAP2 DUP3 MSTORE MLOAD SWAP1 DUP2 SWAP1 SUB PUSH1 0x20 ADD SWAP1 RETURN JUMPDEST PUSH2 0x34B PUSH1 0x4 DUP1 CALLDATASIZE SUB PUSH1 0x60 DUP2 LT ISZERO PUSH2 0x3EF JUMPI PUSH1 0x0 DUP1 REVERT JUMPDEST POP PUSH1 0x1 PUSH1 0x1 PUSH1 0xA0 SHL SUB DUP2 CALLDATALOAD DUP2 AND SWAP2 PUSH1 0x20 DUP2 ADD CALLDATALOAD SWAP1 SWAP2 AND SWAP1 PUSH1 0x40 ADD CALLDATALOAD PUSH2 0xFE3 JUMP JUMPDEST PUSH2 0x3C7 PUSH2 0x106B JUMP JUMPDEST PUSH2 0x41F PUSH2 0x108F JUMP JUMPDEST PUSH1 0x40 DUP1 MLOAD PUSH1 0xFF SWAP1 SWAP3 AND DUP3 MSTORE MLOAD SWAP1 DUP2 SWAP1 SUB PUSH1 0x20 ADD SWAP1 RETURN JUMPDEST PUSH2 0x34B PUSH1 0x4 DUP1 CALLDATASIZE SUB PUSH1 0x40 DUP2 LT ISZERO PUSH2 0x44B JUMPI PUSH1 0x0 DUP1 REVERT JUMPDEST POP PUSH1 0x1 PUSH1 0x1 PUSH1 0xA0 SHL SUB DUP2 CALLDATALOAD AND SWAP1 PUSH1 0x20 ADD CALLDATALOAD PUSH2 0x1098 JUMP JUMPDEST PUSH2 0x469 PUSH2 0x10E6 JUMP JUMPDEST PUSH1 0x40 DUP1 MLOAD PUSH4 0xFFFFFFFF SWAP1 SWAP3 AND DUP3 MSTORE MLOAD SWAP1 DUP2 SWAP1 SUB PUSH1 0x20 ADD SWAP1 RETURN JUMPDEST PUSH2 0x3C7 PUSH1 0x4 DUP1 CALLDATASIZE SUB PUSH1 0x20 DUP2 LT ISZERO PUSH2 0x498 JUMPI PUSH1 0x0 DUP1 REVERT JUMPDEST POP CALLDATALOAD PUSH1 0x1 PUSH1 0x1 PUSH1 0xA0 SHL SUB AND PUSH2 0x10F9 JUMP JUMPDEST PUSH2 0x269 PUSH1 0x4 DUP1 CALLDATASIZE SUB PUSH1 0x60 DUP2 LT ISZERO PUSH2 0x4BE JUMPI PUSH1 0x0 DUP1 REVERT JUMPDEST POP DUP1 CALLDATALOAD PUSH1 0x1 PUSH1 0x1 PUSH1 0xA0 SHL SUB SWAP1 DUP2 AND SWAP2 PUSH1 0x20 DUP2 ADD CALLDATALOAD SWAP1 SWAP2 AND SWAP1 PUSH1 0x40 ADD CALLDATALOAD PUSH4 0xFFFFFFFF AND PUSH2 0x14A0 JUMP JUMPDEST PUSH2 0x3C7 PUSH1 0x4 DUP1 CALLDATASIZE SUB PUSH1 0x20 DUP2 LT ISZERO PUSH2 0x4FB JUMPI PUSH1 0x0 DUP1 REVERT JUMPDEST POP CALLDATALOAD PUSH1 0x1 PUSH1 0x1 PUSH1 0xA0 SHL SUB AND PUSH2 0x1545 JUMP JUMPDEST PUSH2 0x3C7 PUSH2 0x1564 JUMP JUMPDEST PUSH2 0x3C7 PUSH1 0x4 DUP1 CALLDATASIZE SUB PUSH1 0x20 DUP2 LT ISZERO PUSH2 0x529 JUMPI PUSH1 0x0 DUP1 REVERT JUMPDEST POP CALLDATALOAD PUSH1 0x1 PUSH1 0x1 PUSH1 0xA0 SHL SUB AND PUSH2 0x156A JUMP JUMPDEST PUSH2 0x55F PUSH1 0x4 DUP1 CALLDATASIZE SUB PUSH1 0x20 DUP2 LT ISZERO PUSH2 0x54F JUMPI PUSH1 0x0 DUP1 REVERT JUMPDEST POP CALLDATALOAD PUSH1 0x1 PUSH1 0x1 PUSH1 0xA0 SHL SUB AND PUSH2 0x157C JUMP JUMPDEST PUSH1 0x40 DUP1 MLOAD SWAP3 DUP4 MSTORE PUSH1 0x20 DUP4 ADD SWAP2 SWAP1 SWAP2 MSTORE DUP1 MLOAD SWAP2 DUP3 SWAP1 SUB ADD SWAP1 RETURN JUMPDEST PUSH2 0x273 PUSH2 0x1A25 JUMP JUMPDEST PUSH2 0x34B PUSH1 0x4 DUP1 CALLDATASIZE SUB PUSH1 0x40 DUP2 LT ISZERO PUSH2 0x596 JUMPI PUSH1 0x0 DUP1 REVERT JUMPDEST POP PUSH1 0x1 PUSH1 0x1 PUSH1 0xA0 SHL SUB DUP2 CALLDATALOAD AND SWAP1 PUSH1 0x20 ADD CALLDATALOAD PUSH2 0x1CC6 JUMP JUMPDEST PUSH2 0x34B PUSH1 0x4 DUP1 CALLDATASIZE SUB PUSH1 0x40 DUP2 LT ISZERO PUSH2 0x5C2 JUMPI PUSH1 0x0 DUP1 REVERT JUMPDEST POP PUSH1 0x1 PUSH1 0x1 PUSH1 0xA0 SHL SUB DUP2 CALLDATALOAD AND SWAP1 PUSH1 0x20 ADD CALLDATALOAD PUSH2 0x1D2E JUMP JUMPDEST PUSH2 0x3C7 PUSH2 0x1D42 JUMP JUMPDEST PUSH2 0x269 PUSH1 0x4 DUP1 CALLDATASIZE SUB PUSH1 0x20 DUP2 LT ISZERO PUSH2 0x5F6 JUMPI PUSH1 0x0 DUP1 REVERT JUMPDEST POP CALLDATALOAD PUSH1 0x1 PUSH1 0x1 PUSH1 0xA0 SHL SUB AND PUSH2 0x1D48 JUMP JUMPDEST PUSH2 0x3A3 PUSH2 0x1EBF JUMP JUMPDEST PUSH2 0x3A3 PUSH2 0x1ECE JUMP JUMPDEST PUSH2 0x269 PUSH1 0x4 DUP1 CALLDATASIZE SUB PUSH1 0xE0 DUP2 LT ISZERO PUSH2 0x62C JUMPI PUSH1 0x0 DUP1 REVERT JUMPDEST POP PUSH1 0x1 PUSH1 0x1 PUSH1 0xA0 SHL SUB DUP2 CALLDATALOAD DUP2 AND SWAP2 PUSH1 0x20 DUP2 ADD CALLDATALOAD SWAP1 SWAP2 AND SWAP1 PUSH1 0x40 DUP2 ADD CALLDATALOAD SWAP1 PUSH1 0x60 DUP2 ADD CALLDATALOAD SWAP1 PUSH1 0xFF PUSH1 0x80 DUP3 ADD CALLDATALOAD AND SWAP1 PUSH1 0xA0 DUP2 ADD CALLDATALOAD SWAP1 PUSH1 0xC0 ADD CALLDATALOAD PUSH2 0x1EDD JUMP JUMPDEST PUSH2 0x66F PUSH2 0x20E1 JUMP JUMPDEST PUSH1 0x40 DUP1 MLOAD PUSH1 0x1 PUSH1 0x1 PUSH1 0x70 SHL SUB SWAP7 DUP8 AND DUP2 MSTORE SWAP5 DUP7 AND PUSH1 0x20 DUP7 ADD MSTORE SWAP3 DUP6 AND DUP5 DUP5 ADD MSTORE SWAP4 AND PUSH1 0x60 DUP4 ADD MSTORE PUSH1 0x80 DUP3 ADD SWAP3 SWAP1 SWAP3 MSTORE SWAP1 MLOAD SWAP1 DUP2 SWAP1 SUB PUSH1 0xA0 ADD SWAP1 RETURN JUMPDEST PUSH2 0x3C7 PUSH1 0x4 DUP1 CALLDATASIZE SUB PUSH1 0x40 DUP2 LT ISZERO PUSH2 0x6C0 JUMPI PUSH1 0x0 DUP1 REVERT JUMPDEST POP PUSH1 0x1 PUSH1 0x1 PUSH1 0xA0 SHL SUB DUP2 CALLDATALOAD DUP2 AND SWAP2 PUSH1 0x20 ADD CALLDATALOAD AND PUSH2 0x2152 JUMP JUMPDEST PUSH2 0x3C7 PUSH2 0x217D JUMP JUMPDEST PUSH2 0x269 PUSH2 0x2183 JUMP JUMPDEST PUSH1 0x2 PUSH1 0x8 SLOAD EQ ISZERO PUSH2 0x72E JUMPI PUSH1 0x40 DUP1 MLOAD PUSH3 0x461BCD PUSH1 0xE5 SHL DUP2 MSTORE PUSH1 0x20 PUSH1 0x4 DUP3 ADD MSTORE PUSH1 0x1F PUSH1 0x24 DUP3 ADD MSTORE PUSH1 0x0 DUP1 MLOAD PUSH1 0x20 PUSH2 0x397E DUP4 CODECOPY DUP2 MLOAD SWAP2 MSTORE PUSH1 0x44 DUP3 ADD MSTORE SWAP1 MLOAD SWAP1 DUP2 SWAP1 SUB PUSH1 0x64 ADD SWAP1 REVERT JUMPDEST PUSH1 0x2 PUSH1 0x8 SSTORE DUP5 ISZERO ISZERO DUP1 PUSH2 0x741 JUMPI POP PUSH1 0x0 DUP5 GT JUMPDEST PUSH2 0x792 JUMPI PUSH1 0x40 DUP1 MLOAD PUSH3 0x461BCD PUSH1 0xE5 SHL DUP2 MSTORE PUSH1 0x20 PUSH1 0x4 DUP3 ADD MSTORE PUSH1 0x1F PUSH1 0x24 DUP3 ADD MSTORE PUSH32 0x444D4D3A20494E53554646494349454E545F4F55545055545F414D4F554E5400 PUSH1 0x44 DUP3 ADD MSTORE SWAP1 MLOAD SWAP1 DUP2 SWAP1 SUB PUSH1 0x64 ADD SWAP1 REVERT JUMPDEST PUSH1 0x0 PUSH2 0x79C PUSH2 0x3932 JUMP JUMPDEST PUSH2 0x7A4 PUSH2 0x23C8 JUMP JUMPDEST DUP1 MLOAD SWAP2 SWAP4 POP SWAP2 POP DUP8 LT DUP1 ISZERO PUSH2 0x7BC JUMPI POP DUP1 PUSH1 0x20 ADD MLOAD DUP7 LT JUMPDEST PUSH2 0x80D JUMPI PUSH1 0x40 DUP1 MLOAD PUSH3 0x461BCD PUSH1 0xE5 SHL DUP2 MSTORE PUSH1 0x20 PUSH1 0x4 DUP3 ADD MSTORE PUSH1 0x1B PUSH1 0x24 DUP3 ADD MSTORE PUSH32 0x444D4D3A20494E53554646494349454E545F4C49515549444954590000000000 PUSH1 0x44 DUP3 ADD MSTORE SWAP1 MLOAD SWAP1 DUP2 SWAP1 SUB PUSH1 0x64 ADD SWAP1 REVERT JUMPDEST PUSH2 0x815 PUSH2 0x3932 JUMP JUMPDEST PUSH1 0xC SLOAD PUSH1 0xD SLOAD PUSH1 0x1 PUSH1 0x1 PUSH1 0xA0 SHL SUB SWAP2 DUP3 AND SWAP2 SWAP1 DUP2 AND SWAP1 DUP9 AND DUP3 EQ DUP1 ISZERO SWAP1 PUSH2 0x84E JUMPI POP DUP1 PUSH1 0x1 PUSH1 0x1 PUSH1 0xA0 SHL SUB AND DUP9 PUSH1 0x1 PUSH1 0x1 PUSH1 0xA0 SHL SUB AND EQ ISZERO JUMPDEST PUSH2 0x891 JUMPI PUSH1 0x40 DUP1 MLOAD PUSH3 0x461BCD PUSH1 0xE5 SHL DUP2 MSTORE PUSH1 0x20 PUSH1 0x4 DUP3 ADD MSTORE PUSH1 0xF PUSH1 0x24 DUP3 ADD MSTORE PUSH15 0x444D4D3A20494E56414C49445F544F PUSH1 0x88 SHL PUSH1 0x44 DUP3 ADD MSTORE SWAP1 MLOAD SWAP1 DUP2 SWAP1 SUB PUSH1 0x64 ADD SWAP1 REVERT JUMPDEST DUP10 ISZERO PUSH2 0x8AB JUMPI PUSH2 0x8AB PUSH1 0x1 PUSH1 0x1 PUSH1 0xA0 SHL SUB DUP4 AND DUP10 DUP13 PUSH2 0x242F JUMP JUMPDEST DUP9 ISZERO PUSH2 0x8C5 JUMPI PUSH2 0x8C5 PUSH1 0x1 PUSH1 0x1 PUSH1 0xA0 SHL SUB DUP3 AND DUP10 DUP12 PUSH2 0x242F JUMP JUMPDEST DUP6 ISZERO PUSH2 0x977 JUMPI DUP8 PUSH1 0x1 PUSH1 0x1 PUSH1 0xA0 SHL SUB AND PUSH4 0x81279C7E CALLER DUP13 DUP13 DUP12 DUP12 PUSH1 0x40 MLOAD DUP7 PUSH4 0xFFFFFFFF AND PUSH1 0xE0 SHL DUP2 MSTORE PUSH1 0x4 ADD DUP1 DUP7 PUSH1 0x1 PUSH1 0x1 PUSH1 0xA0 SHL SUB AND DUP2 MSTORE PUSH1 0x20 ADD DUP6 DUP2 MSTORE PUSH1 0x20 ADD DUP5 DUP2 MSTORE PUSH1 0x20 ADD DUP1 PUSH1 0x20 ADD DUP3 DUP2 SUB DUP3 MSTORE DUP5 DUP5 DUP3 DUP2 DUP2 MSTORE PUSH1 0x20 ADD SWAP3 POP DUP1 DUP3 DUP5 CALLDATACOPY PUSH1 0x0 DUP2 DUP5 ADD MSTORE PUSH1 0x1F NOT PUSH1 0x1F DUP3 ADD AND SWAP1 POP DUP1 DUP4 ADD SWAP3 POP POP POP SWAP7 POP POP POP POP POP POP POP PUSH1 0x0 PUSH1 0x40 MLOAD DUP1 DUP4 SUB DUP2 PUSH1 0x0 DUP8 DUP1 EXTCODESIZE ISZERO DUP1 ISZERO PUSH2 0x95E JUMPI PUSH1 0x0 DUP1 REVERT JUMPDEST POP GAS CALL ISZERO DUP1 ISZERO PUSH2 0x972 JUMPI RETURNDATASIZE PUSH1 0x0 DUP1 RETURNDATACOPY RETURNDATASIZE PUSH1 0x0 REVERT JUMPDEST POP POP POP POP JUMPDEST PUSH1 0x40 DUP1 MLOAD PUSH4 0x70A08231 PUSH1 0xE0 SHL DUP2 MSTORE ADDRESS PUSH1 0x4 DUP3 ADD MSTORE SWAP1 MLOAD PUSH1 0x1 PUSH1 0x1 PUSH1 0xA0 SHL SUB DUP5 AND SWAP2 PUSH4 0x70A08231 SWAP2 PUSH1 0x24 DUP1 DUP4 ADD SWAP3 PUSH1 0x20 SWAP3 SWAP2 SWAP1 DUP3 SWAP1 SUB ADD DUP2 DUP7 DUP1 EXTCODESIZE ISZERO DUP1 ISZERO PUSH2 0x9BD JUMPI PUSH1 0x0 DUP1 REVERT JUMPDEST POP GAS STATICCALL ISZERO DUP1 ISZERO PUSH2 0x9D1 JUMPI RETURNDATASIZE PUSH1 0x0 DUP1 RETURNDATACOPY RETURNDATASIZE PUSH1 0x0 REVERT JUMPDEST POP POP POP POP PUSH1 0x40 MLOAD RETURNDATASIZE PUSH1 0x20 DUP2 LT ISZERO PUSH2 0x9E7 JUMPI PUSH1 0x0 DUP1 REVERT JUMPDEST POP MLOAD DUP4 MSTORE PUSH1 0x40 DUP1 MLOAD PUSH4 0x70A08231 PUSH1 0xE0 SHL DUP2 MSTORE ADDRESS PUSH1 0x4 DUP3 ADD MSTORE SWAP1 MLOAD PUSH1 0x1 PUSH1 0x1 PUSH1 0xA0 SHL SUB DUP4 AND SWAP2 PUSH4 0x70A08231 SWAP2 PUSH1 0x24 DUP1 DUP4 ADD SWAP3 PUSH1 0x20 SWAP3 SWAP2 SWAP1 DUP3 SWAP1 SUB ADD DUP2 DUP7 DUP1 EXTCODESIZE ISZERO DUP1 ISZERO PUSH2 0xA31 JUMPI PUSH1 0x0 DUP1 REVERT JUMPDEST POP GAS STATICCALL ISZERO DUP1 ISZERO PUSH2 0xA45 JUMPI RETURNDATASIZE PUSH1 0x0 DUP1 RETURNDATACOPY RETURNDATASIZE PUSH1 0x0 REVERT JUMPDEST POP POP POP POP PUSH1 0x40 MLOAD RETURNDATASIZE PUSH1 0x20 DUP2 LT ISZERO PUSH2 0xA5B JUMPI PUSH1 0x0 DUP1 REVERT JUMPDEST POP MLOAD PUSH1 0x20 DUP5 ADD MSTORE DUP5 ISZERO PUSH2 0xAAF JUMPI DUP4 MLOAD DUP4 MLOAD PUSH1 0x40 DUP7 ADD MLOAD PUSH2 0xA86 SWAP3 SWAP2 PUSH2 0xA80 SWAP2 SWAP1 PUSH2 0x2486 JUMP JUMPDEST SWAP1 PUSH2 0x24E0 JUMP JUMPDEST PUSH1 0x40 DUP5 ADD MSTORE PUSH1 0x20 DUP1 DUP6 ADD MLOAD SWAP1 DUP5 ADD MLOAD PUSH1 0x60 DUP7 ADD MLOAD PUSH2 0xAA9 SWAP3 SWAP2 PUSH2 0xA80 SWAP2 SWAP1 PUSH2 0x2486 JUMP JUMPDEST PUSH1 0x60 DUP5 ADD MSTORE JUMPDEST POP POP DUP2 MLOAD DUP2 MLOAD PUSH1 0x0 SWAP2 DUP11 SWAP1 SUB LT PUSH2 0xAC7 JUMPI PUSH1 0x0 PUSH2 0xAD2 JUMP JUMPDEST DUP3 MLOAD DUP3 MLOAD SWAP1 DUP11 SWAP1 SUB SWAP1 SUB JUMPDEST SWAP1 POP PUSH1 0x0 DUP9 DUP5 PUSH1 0x20 ADD MLOAD SUB DUP4 PUSH1 0x20 ADD MLOAD GT PUSH2 0xAEE JUMPI PUSH1 0x0 PUSH2 0xAFC JUMP JUMPDEST DUP9 DUP5 PUSH1 0x20 ADD MLOAD SUB DUP4 PUSH1 0x20 ADD MLOAD SUB JUMPDEST SWAP1 POP PUSH1 0x0 DUP3 GT DUP1 PUSH2 0xB0D JUMPI POP PUSH1 0x0 DUP2 GT JUMPDEST PUSH2 0xB5E JUMPI PUSH1 0x40 DUP1 MLOAD PUSH3 0x461BCD PUSH1 0xE5 SHL DUP2 MSTORE PUSH1 0x20 PUSH1 0x4 DUP3 ADD MSTORE PUSH1 0x1E PUSH1 0x24 DUP3 ADD MSTORE PUSH32 0x444D4D3A20494E53554646494349454E545F494E5055545F414D4F554E540000 PUSH1 0x44 DUP3 ADD MSTORE SWAP1 MLOAD SWAP1 DUP2 SWAP1 SUB PUSH1 0x64 ADD SWAP1 REVERT JUMPDEST PUSH1 0x0 PUSH2 0xBB8 DUP4 DUP4 DUP9 PUSH2 0xB71 JUMPI DUP8 MLOAD PUSH2 0xB77 JUMP JUMPDEST DUP8 PUSH1 0x40 ADD MLOAD JUMPDEST DUP10 PUSH2 0xB86 JUMPI DUP9 PUSH1 0x20 ADD MLOAD PUSH2 0xB8C JUMP JUMPDEST DUP9 PUSH1 0x60 ADD MLOAD JUMPDEST DUP11 PUSH2 0xB98 JUMPI DUP9 MLOAD PUSH2 0xB9E JUMP JUMPDEST DUP9 PUSH1 0x40 ADD MLOAD JUMPDEST DUP12 PUSH2 0xBAD JUMPI DUP10 PUSH1 0x20 ADD MLOAD PUSH2 0xBB3 JUMP JUMPDEST DUP10 PUSH1 0x60 ADD MLOAD JUMPDEST PUSH2 0x253D JUMP JUMPDEST SWAP1 POP PUSH2 0xBC4 DUP7 DUP6 PUSH2 0x2658 JUMP JUMPDEST PUSH1 0x40 DUP1 MLOAD DUP5 DUP2 MSTORE PUSH1 0x20 DUP2 ADD DUP5 SWAP1 MSTORE DUP1 DUP3 ADD DUP14 SWAP1 MSTORE PUSH1 0x60 DUP2 ADD DUP13 SWAP1 MSTORE PUSH1 0x80 DUP2 ADD DUP4 SWAP1 MSTORE SWAP1 MLOAD PUSH1 0x1 PUSH1 0x1 PUSH1 0xA0 SHL SUB DUP12 AND SWAP2 CALLER SWAP2 PUSH32 0x606ECD02B3E3B4778F8E97B2E03351DE14224EFAA5FA64E62200AFC9395C2499 SWAP2 DUP2 SWAP1 SUB PUSH1 0xA0 ADD SWAP1 LOG3 POP POP PUSH1 0x1 PUSH1 0x8 SSTORE POP POP POP POP POP POP POP POP POP JUMP JUMPDEST PUSH1 0xC SLOAD PUSH1 0xD SLOAD PUSH1 0x40 DUP1 MLOAD PUSH4 0x95D89B41 PUSH1 0xE0 SHL DUP2 MSTORE SWAP1 MLOAD PUSH1 0x60 SWAP4 PUSH1 0x1 PUSH1 0x1 PUSH1 0xA0 SHL SUB SWAP1 DUP2 AND SWAP4 AND SWAP2 DUP4 SWAP2 PUSH4 0x95D89B41 SWAP2 PUSH1 0x4 DUP1 DUP3 ADD SWAP3 PUSH1 0x0 SWAP3 SWAP1 SWAP2 SWAP1 DUP3 SWAP1 SUB ADD DUP2 DUP7 DUP1 EXTCODESIZE ISZERO DUP1 ISZERO PUSH2 0xC80 JUMPI PUSH1 0x0 DUP1 REVERT JUMPDEST POP GAS STATICCALL ISZERO DUP1 ISZERO PUSH2 0xC94 JUMPI RETURNDATASIZE PUSH1 0x0 DUP1 RETURNDATACOPY RETURNDATASIZE PUSH1 0x0 REVERT JUMPDEST POP POP POP POP PUSH1 0x40 MLOAD RETURNDATASIZE PUSH1 0x0 DUP3 RETURNDATACOPY PUSH1 0x1F RETURNDATASIZE SWAP1 DUP2 ADD PUSH1 0x1F NOT AND DUP3 ADD PUSH1 0x40 MSTORE PUSH1 0x20 DUP2 LT ISZERO PUSH2 0xCBD JUMPI PUSH1 0x0 DUP1 REVERT JUMPDEST DUP2 ADD SWAP1 DUP1 DUP1 MLOAD PUSH1 0x40 MLOAD SWAP4 SWAP3 SWAP2 SWAP1 DUP5 PUSH1 0x1 PUSH1 0x20 SHL DUP3 GT ISZERO PUSH2 0xCDC JUMPI PUSH1 0x0 DUP1 REVERT JUMPDEST SWAP1 DUP4 ADD SWAP1 PUSH1 0x20 DUP3 ADD DUP6 DUP2 GT ISZERO PUSH2 0xCF1 JUMPI PUSH1 0x0 DUP1 REVERT JUMPDEST DUP3 MLOAD PUSH1 0x1 PUSH1 0x20 SHL DUP2 GT DUP3 DUP3 ADD DUP9 LT OR ISZERO PUSH2 0xD0A JUMPI PUSH1 0x0 DUP1 REVERT JUMPDEST DUP3 MSTORE POP DUP2 MLOAD PUSH1 0x20 SWAP2 DUP3 ADD SWAP3 SWAP1 SWAP2 ADD SWAP1 DUP1 DUP4 DUP4 PUSH1 0x0 JUMPDEST DUP4 DUP2 LT ISZERO PUSH2 0xD37 JUMPI DUP2 DUP2 ADD MLOAD DUP4 DUP3 ADD MSTORE PUSH1 0x20 ADD PUSH2 0xD1F JUMP JUMPDEST POP POP POP POP SWAP1 POP SWAP1 DUP2 ADD SWAP1 PUSH1 0x1F AND DUP1 ISZERO PUSH2 0xD64 JUMPI DUP1 DUP3 SUB DUP1 MLOAD PUSH1 0x1 DUP4 PUSH1 0x20 SUB PUSH2 0x100 EXP SUB NOT AND DUP2 MSTORE PUSH1 0x20 ADD SWAP2 POP JUMPDEST POP PUSH1 0x40 MSTORE POP POP POP DUP2 PUSH1 0x1 PUSH1 0x1 PUSH1 0xA0 SHL SUB AND PUSH4 0x95D89B41 PUSH1 0x40 MLOAD DUP2 PUSH4 0xFFFFFFFF AND PUSH1 0xE0 SHL DUP2 MSTORE PUSH1 0x4 ADD PUSH1 0x0 PUSH1 0x40 MLOAD DUP1 DUP4 SUB DUP2 DUP7 DUP1 EXTCODESIZE ISZERO DUP1 ISZERO PUSH2 0xDA4 JUMPI PUSH1 0x0 DUP1 REVERT JUMPDEST POP GAS STATICCALL ISZERO DUP1 ISZERO PUSH2 0xDB8 JUMPI RETURNDATASIZE PUSH1 0x0 DUP1 RETURNDATACOPY RETURNDATASIZE PUSH1 0x0 REVERT JUMPDEST POP POP POP POP PUSH1 0x40 MLOAD RETURNDATASIZE PUSH1 0x0 DUP3 RETURNDATACOPY PUSH1 0x1F RETURNDATASIZE SWAP1 DUP2 ADD PUSH1 0x1F NOT AND DUP3 ADD PUSH1 0x40 MSTORE PUSH1 0x20 DUP2 LT ISZERO PUSH2 0xDE1 JUMPI PUSH1 0x0 DUP1 REVERT JUMPDEST DUP2 ADD SWAP1 DUP1 DUP1 MLOAD PUSH1 0x40 MLOAD SWAP4 SWAP3 SWAP2 SWAP1 DUP5 PUSH1 0x1 PUSH1 0x20 SHL DUP3 GT ISZERO PUSH2 0xE00 JUMPI PUSH1 0x0 DUP1 REVERT JUMPDEST SWAP1 DUP4 ADD SWAP1 PUSH1 0x20 DUP3 ADD DUP6 DUP2 GT ISZERO PUSH2 0xE15 JUMPI PUSH1 0x0 DUP1 REVERT JUMPDEST DUP3 MLOAD PUSH1 0x1 PUSH1 0x20 SHL DUP2 GT DUP3 DUP3 ADD DUP9 LT OR ISZERO PUSH2 0xE2E JUMPI PUSH1 0x0 DUP1 REVERT JUMPDEST DUP3 MSTORE POP DUP2 MLOAD PUSH1 0x20 SWAP2 DUP3 ADD SWAP3 SWAP1 SWAP2 ADD SWAP1 DUP1 DUP4 DUP4 PUSH1 0x0 JUMPDEST DUP4 DUP2 LT ISZERO PUSH2 0xE5B JUMPI DUP2 DUP2 ADD MLOAD DUP4 DUP3 ADD MSTORE PUSH1 0x20 ADD PUSH2 0xE43 JUMP JUMPDEST POP POP POP POP SWAP1 POP SWAP1 DUP2 ADD SWAP1 PUSH1 0x1F AND DUP1 ISZERO PUSH2 0xE88 JUMPI DUP1 DUP3 SUB DUP1 MLOAD PUSH1 0x1 DUP4 PUSH1 0x20 SUB PUSH2 0x100 EXP SUB NOT AND DUP2 MSTORE PUSH1 0x20 ADD SWAP2 POP JUMPDEST POP PUSH1 0x40 MSTORE POP POP POP PUSH1 0x40 MLOAD PUSH1 0x20 ADD DUP1 DUP1 PUSH11 0x27B931B430B9321026281 PUSH1 0xAD SHL DUP2 MSTORE POP PUSH1 0xB ADD DUP4 DUP1 MLOAD SWAP1 PUSH1 0x20 ADD SWAP1 DUP1 DUP4 DUP4 JUMPDEST PUSH1 0x20 DUP4 LT PUSH2 0xED7 JUMPI DUP1 MLOAD DUP3 MSTORE PUSH1 0x1F NOT SWAP1 SWAP3 ADD SWAP2 PUSH1 0x20 SWAP2 DUP3 ADD SWAP2 ADD PUSH2 0xEB8 JUMP JUMPDEST PUSH1 0x1 DUP4 PUSH1 0x20 SUB PUSH2 0x100 EXP SUB DUP1 NOT DUP3 MLOAD AND DUP2 DUP5 MLOAD AND DUP1 DUP3 OR DUP6 MSTORE POP POP POP POP POP POP SWAP1 POP ADD DUP1 PUSH1 0x2D PUSH1 0xF8 SHL DUP2 MSTORE POP PUSH1 0x1 ADD DUP3 DUP1 MLOAD SWAP1 PUSH1 0x20 ADD SWAP1 DUP1 DUP4 DUP4 JUMPDEST PUSH1 0x20 DUP4 LT PUSH2 0xF30 JUMPI DUP1 MLOAD DUP3 MSTORE PUSH1 0x1F NOT SWAP1 SWAP3 ADD SWAP2 PUSH1 0x20 SWAP2 DUP3 ADD SWAP2 ADD PUSH2 0xF11 JUMP JUMPDEST PUSH1 0x1 DUP4 PUSH1 0x20 SUB PUSH2 0x100 EXP SUB DUP1 NOT DUP3 MLOAD AND DUP2 DUP5 MLOAD AND DUP1 DUP3 OR DUP6 MSTORE POP POP POP POP POP POP SWAP1 POP ADD SWAP3 POP POP POP PUSH1 0x40 MLOAD PUSH1 0x20 DUP2 DUP4 SUB SUB DUP2 MSTORE SWAP1 PUSH1 0x40 MSTORE SWAP3 POP POP POP SWAP1 JUMP JUMPDEST PUSH1 0xE SLOAD PUSH1 0x1 PUSH1 0x1 PUSH1 0x70 SHL SUB DUP1 DUP3 AND SWAP3 PUSH1 0x1 PUSH1 0x70 SHL SWAP1 SWAP3 DIV AND SWAP1 JUMP JUMPDEST PUSH1 0x0 PUSH2 0xF9B PUSH2 0xF94 PUSH2 0x2799 JUMP JUMPDEST DUP5 DUP5 PUSH2 0x279D JUMP JUMPDEST POP PUSH1 0x1 JUMPDEST SWAP3 SWAP2 POP POP JUMP JUMPDEST PUSH1 0x9 SLOAD PUSH1 0xA SLOAD PUSH1 0x1 PUSH1 0x1 PUSH1 0x80 SHL SUB DUP1 DUP4 AND SWAP4 PUSH1 0x1 PUSH1 0x80 SHL SWAP4 DUP5 SWAP1 DIV DUP3 AND SWAP4 DUP4 DUP4 AND SWAP4 DIV SWAP1 SWAP2 AND SWAP1 JUMP JUMPDEST PUSH1 0xC SLOAD PUSH1 0x1 PUSH1 0x1 PUSH1 0xA0 SHL SUB AND DUP2 JUMP JUMPDEST PUSH1 0x2 SLOAD SWAP1 JUMP JUMPDEST PUSH1 0x0 PUSH2 0xFF0 DUP5 DUP5 DUP5 PUSH2 0x2889 JUMP JUMPDEST PUSH2 0x1060 DUP5 PUSH2 0xFFC PUSH2 0x2799 JUMP JUMPDEST PUSH2 0x105B DUP6 PUSH1 0x40 MLOAD DUP1 PUSH1 0x60 ADD PUSH1 0x40 MSTORE DUP1 PUSH1 0x28 DUP2 MSTORE PUSH1 0x20 ADD PUSH2 0x3A71 PUSH1 0x28 SWAP2 CODECOPY PUSH1 0x1 PUSH1 0x1 PUSH1 0xA0 SHL SUB DUP11 AND PUSH1 0x0 SWAP1 DUP2 MSTORE PUSH1 0x1 PUSH1 0x20 MSTORE PUSH1 0x40 DUP2 KECCAK256 SWAP1 PUSH2 0x103A PUSH2 0x2799 JUMP JUMPDEST PUSH1 0x1 PUSH1 0x1 PUSH1 0xA0 SHL SUB AND DUP2 MSTORE PUSH1 0x20 DUP2 ADD SWAP2 SWAP1 SWAP2 MSTORE PUSH1 0x40 ADD PUSH1 0x0 KECCAK256 SLOAD SWAP2 SWAP1 PUSH2 0x29E4 JUMP JUMPDEST PUSH2 0x279D JUMP JUMPDEST POP PUSH1 0x1 JUMPDEST SWAP4 SWAP3 POP POP POP JUMP JUMPDEST PUSH32 0x6E71EDAE12B1B97F4D1F60370FEF10105FA2FAAE0126114A169C64845D6126C9 DUP2 JUMP JUMPDEST PUSH1 0x5 SLOAD PUSH1 0xFF AND SWAP1 JUMP JUMPDEST PUSH1 0x0 PUSH2 0xF9B PUSH2 0x10A5 PUSH2 0x2799 JUMP JUMPDEST DUP5 PUSH2 0x105B DUP6 PUSH1 0x1 PUSH1 0x0 PUSH2 0x10B6 PUSH2 0x2799 JUMP JUMPDEST PUSH1 0x1 PUSH1 0x1 PUSH1 0xA0 SHL SUB SWAP1 DUP2 AND DUP3 MSTORE PUSH1 0x20 DUP1 DUP4 ADD SWAP4 SWAP1 SWAP4 MSTORE PUSH1 0x40 SWAP2 DUP3 ADD PUSH1 0x0 SWAP1 DUP2 KECCAK256 SWAP2 DUP13 AND DUP2 MSTORE SWAP3 MSTORE SWAP1 KECCAK256 SLOAD SWAP1 PUSH2 0x2486 JUMP JUMPDEST PUSH1 0xE SLOAD PUSH1 0x1 PUSH1 0xE0 SHL SWAP1 DIV PUSH4 0xFFFFFFFF AND DUP2 JUMP JUMPDEST PUSH1 0x0 PUSH1 0x2 PUSH1 0x8 SLOAD EQ ISZERO PUSH2 0x1141 JUMPI PUSH1 0x40 DUP1 MLOAD PUSH3 0x461BCD PUSH1 0xE5 SHL DUP2 MSTORE PUSH1 0x20 PUSH1 0x4 DUP3 ADD MSTORE PUSH1 0x1F PUSH1 0x24 DUP3 ADD MSTORE PUSH1 0x0 DUP1 MLOAD PUSH1 0x20 PUSH2 0x397E DUP4 CODECOPY DUP2 MLOAD SWAP2 MSTORE PUSH1 0x44 DUP3 ADD MSTORE SWAP1 MLOAD SWAP1 DUP2 SWAP1 SUB PUSH1 0x64 ADD SWAP1 REVERT JUMPDEST PUSH1 0x2 PUSH1 0x8 SSTORE PUSH1 0x0 PUSH2 0x1150 PUSH2 0x3932 JUMP JUMPDEST PUSH2 0x1158 PUSH2 0x23C8 JUMP JUMPDEST SWAP2 POP SWAP2 POP PUSH2 0x1164 PUSH2 0x3932 JUMP JUMPDEST PUSH1 0xC SLOAD PUSH1 0x40 DUP1 MLOAD PUSH4 0x70A08231 PUSH1 0xE0 SHL DUP2 MSTORE ADDRESS PUSH1 0x4 DUP3 ADD MSTORE SWAP1 MLOAD PUSH1 0x1 PUSH1 0x1 PUSH1 0xA0 SHL SUB SWAP1 SWAP3 AND SWAP2 PUSH4 0x70A08231 SWAP2 PUSH1 0x24 DUP1 DUP3 ADD SWAP3 PUSH1 0x20 SWAP3 SWAP1 SWAP2 SWAP1 DUP3 SWAP1 SUB ADD DUP2 DUP7 DUP1 EXTCODESIZE ISZERO DUP1 ISZERO PUSH2 0x11AF JUMPI PUSH1 0x0 DUP1 REVERT JUMPDEST POP GAS STATICCALL ISZERO DUP1 ISZERO PUSH2 0x11C3 JUMPI RETURNDATASIZE PUSH1 0x0 DUP1 RETURNDATACOPY RETURNDATASIZE PUSH1 0x0 REVERT JUMPDEST POP POP POP POP PUSH1 0x40 MLOAD RETURNDATASIZE PUSH1 0x20 DUP2 LT ISZERO PUSH2 0x11D9 JUMPI PUSH1 0x0 DUP1 REVERT JUMPDEST POP MLOAD DUP2 MSTORE PUSH1 0xD SLOAD PUSH1 0x40 DUP1 MLOAD PUSH4 0x70A08231 PUSH1 0xE0 SHL DUP2 MSTORE ADDRESS PUSH1 0x4 DUP3 ADD MSTORE SWAP1 MLOAD PUSH1 0x1 PUSH1 0x1 PUSH1 0xA0 SHL SUB SWAP1 SWAP3 AND SWAP2 PUSH4 0x70A08231 SWAP2 PUSH1 0x24 DUP1 DUP3 ADD SWAP3 PUSH1 0x20 SWAP3 SWAP1 SWAP2 SWAP1 DUP3 SWAP1 SUB ADD DUP2 DUP7 DUP1 EXTCODESIZE ISZERO DUP1 ISZERO PUSH2 0x1228 JUMPI PUSH1 0x0 DUP1 REVERT JUMPDEST POP GAS STATICCALL ISZERO DUP1 ISZERO PUSH2 0x123C JUMPI RETURNDATASIZE PUSH1 0x0 DUP1 RETURNDATACOPY RETURNDATASIZE PUSH1 0x0 REVERT JUMPDEST POP POP POP POP PUSH1 0x40 MLOAD RETURNDATASIZE PUSH1 0x20 DUP2 LT ISZERO PUSH2 0x1252 JUMPI PUSH1 0x0 DUP1 REVERT JUMPDEST POP MLOAD PUSH1 0x20 DUP3 ADD MSTORE DUP2 MLOAD DUP2 MLOAD PUSH1 0x0 SWAP2 PUSH2 0x126A SWAP2 SWAP1 PUSH2 0x24E0 JUMP JUMPDEST SWAP1 POP PUSH1 0x0 PUSH2 0x1289 DUP5 PUSH1 0x20 ADD MLOAD DUP5 PUSH1 0x20 ADD MLOAD PUSH2 0x24E0 SWAP1 SWAP2 SWAP1 PUSH4 0xFFFFFFFF AND JUMP JUMPDEST SWAP1 POP PUSH1 0x0 PUSH2 0x1297 DUP7 DUP7 PUSH2 0x2A7B JUMP JUMPDEST SWAP1 POP PUSH1 0x0 PUSH2 0x12A3 PUSH2 0xFDD JUMP JUMPDEST SWAP1 POP DUP1 PUSH2 0x133A JUMPI DUP7 ISZERO PUSH2 0x130D JUMPI PUSH1 0xE SLOAD DUP6 MLOAD PUSH4 0xFFFFFFFF PUSH1 0x1 PUSH1 0xE0 SHL SWAP1 SWAP3 DIV DUP3 AND SWAP2 PUSH2 0x2710 SWAP2 PUSH2 0x12D5 SWAP2 DUP5 SWAP1 PUSH2 0x2BC3 AND JUMP JUMPDEST DUP2 PUSH2 0x12DC JUMPI INVALID JUMPDEST DIV PUSH1 0x40 DUP8 ADD MSTORE PUSH1 0x20 DUP7 ADD MLOAD PUSH2 0x2710 SWAP1 PUSH2 0x12FE SWAP1 PUSH4 0xFFFFFFFF DUP1 DUP6 AND SWAP1 PUSH2 0x2BC3 AND JUMP JUMPDEST DUP2 PUSH2 0x1305 JUMPI INVALID JUMPDEST DIV PUSH1 0x60 DUP8 ADD MSTORE POP JUMPDEST PUSH2 0x1325 PUSH2 0x3E8 PUSH2 0xA80 PUSH2 0x1320 DUP8 DUP8 PUSH2 0x2BC3 JUMP JUMPDEST PUSH2 0x2C1C JUMP JUMPDEST SWAP8 POP PUSH2 0x1335 PUSH1 0x0 NOT PUSH2 0x3E8 PUSH2 0x2C6D JUMP JUMPDEST PUSH2 0x13ED JUMP JUMPDEST DUP6 MLOAD PUSH2 0x1377 SWAP1 PUSH2 0x134A DUP7 DUP5 PUSH2 0x2BC3 JUMP JUMPDEST DUP2 PUSH2 0x1351 JUMPI INVALID JUMPDEST DIV DUP8 PUSH1 0x20 ADD MLOAD PUSH2 0x136A DUP5 DUP8 PUSH2 0x2BC3 SWAP1 SWAP2 SWAP1 PUSH4 0xFFFFFFFF AND JUMP JUMPDEST DUP2 PUSH2 0x1371 JUMPI INVALID JUMPDEST DIV PUSH2 0x2D5D JUMP JUMPDEST SWAP8 POP DUP7 ISZERO PUSH2 0x13ED JUMPI PUSH1 0x0 PUSH2 0x138B DUP10 DUP4 PUSH2 0x2486 JUMP JUMPDEST SWAP1 POP PUSH2 0x13BA DUP3 PUSH2 0x13A8 DUP4 DUP11 PUSH1 0x40 ADD MLOAD PUSH2 0x2BC3 SWAP1 SWAP2 SWAP1 PUSH4 0xFFFFFFFF AND JUMP JUMPDEST DUP2 PUSH2 0x13AF JUMPI INVALID JUMPDEST DIV DUP8 PUSH1 0x0 ADD MLOAD PUSH2 0x2D73 JUMP JUMPDEST PUSH1 0x40 DUP8 ADD MSTORE PUSH1 0x60 DUP8 ADD MLOAD PUSH2 0x13E6 SWAP1 DUP4 SWAP1 PUSH2 0x13D4 SWAP1 DUP5 PUSH2 0x2BC3 JUMP JUMPDEST DUP2 PUSH2 0x13DB JUMPI INVALID JUMPDEST DIV DUP8 PUSH1 0x20 ADD MLOAD PUSH2 0x2D73 JUMP JUMPDEST PUSH1 0x60 DUP8 ADD MSTORE POP JUMPDEST PUSH1 0x0 DUP9 GT PUSH2 0x142C JUMPI PUSH1 0x40 MLOAD PUSH3 0x461BCD PUSH1 0xE5 SHL DUP2 MSTORE PUSH1 0x4 ADD DUP1 DUP1 PUSH1 0x20 ADD DUP3 DUP2 SUB DUP3 MSTORE PUSH1 0x22 DUP2 MSTORE PUSH1 0x20 ADD DUP1 PUSH2 0x3A99 PUSH1 0x22 SWAP2 CODECOPY PUSH1 0x40 ADD SWAP2 POP POP PUSH1 0x40 MLOAD DUP1 SWAP2 SUB SWAP1 REVERT JUMPDEST PUSH2 0x1436 DUP10 DUP10 PUSH2 0x2C6D JUMP JUMPDEST PUSH2 0x1440 DUP8 DUP7 PUSH2 0x2658 JUMP JUMPDEST DUP2 ISZERO PUSH2 0x1454 JUMPI PUSH2 0x1450 DUP8 DUP7 PUSH2 0x2D83 JUMP JUMPDEST PUSH1 0x10 SSTORE JUMPDEST PUSH1 0x40 DUP1 MLOAD DUP6 DUP2 MSTORE PUSH1 0x20 DUP2 ADD DUP6 SWAP1 MSTORE DUP2 MLOAD CALLER SWAP3 PUSH32 0x4C209B5FC8AD50758F13E2E1088BA56A560DFF690A1C6FEF26394F4C03821C4F SWAP3 DUP3 SWAP1 SUB ADD SWAP1 LOG2 POP POP PUSH1 0x1 PUSH1 0x8 SSTORE POP SWAP4 SWAP6 SWAP5 POP POP POP POP POP JUMP JUMPDEST PUSH1 0xB SLOAD PUSH1 0x1 PUSH1 0x1 PUSH1 0xA0 SHL SUB AND CALLER EQ PUSH2 0x14F0 JUMPI PUSH1 0x40 DUP1 MLOAD PUSH3 0x461BCD PUSH1 0xE5 SHL DUP2 MSTORE PUSH1 0x20 PUSH1 0x4 DUP3 ADD MSTORE PUSH1 0xE PUSH1 0x24 DUP3 ADD MSTORE PUSH14 0x2226A69D102327A92124A22222A7 PUSH1 0x91 SHL PUSH1 0x44 DUP3 ADD MSTORE SWAP1 MLOAD SWAP1 DUP2 SWAP1 SUB PUSH1 0x64 ADD SWAP1 REVERT JUMPDEST PUSH1 0xC DUP1 SLOAD PUSH1 0x1 PUSH1 0x1 PUSH1 0xA0 SHL SUB SWAP5 DUP6 AND PUSH1 0x1 PUSH1 0x1 PUSH1 0xA0 SHL SUB NOT SWAP2 DUP3 AND OR SWAP1 SWAP2 SSTORE PUSH1 0xD DUP1 SLOAD SWAP4 SWAP1 SWAP5 AND SWAP3 AND SWAP2 SWAP1 SWAP2 OR SWAP1 SWAP2 SSTORE PUSH1 0xE DUP1 SLOAD PUSH4 0xFFFFFFFF SWAP1 SWAP3 AND PUSH1 0x1 PUSH1 0xE0 SHL MUL PUSH1 0x1 PUSH1 0x1 PUSH1 0xE0 SHL SUB SWAP1 SWAP3 AND SWAP2 SWAP1 SWAP2 OR SWAP1 SSTORE JUMP JUMPDEST PUSH1 0x1 PUSH1 0x1 PUSH1 0xA0 SHL SUB DUP2 AND PUSH1 0x0 SWAP1 DUP2 MSTORE PUSH1 0x20 DUP2 SWAP1 MSTORE PUSH1 0x40 SWAP1 KECCAK256 SLOAD JUMPDEST SWAP2 SWAP1 POP JUMP JUMPDEST PUSH1 0x10 SLOAD DUP2 JUMP JUMPDEST PUSH1 0x7 PUSH1 0x20 MSTORE PUSH1 0x0 SWAP1 DUP2 MSTORE PUSH1 0x40 SWAP1 KECCAK256 SLOAD DUP2 JUMP JUMPDEST PUSH1 0x0 DUP1 PUSH1 0x2 PUSH1 0x8 SLOAD EQ ISZERO PUSH2 0x15C5 JUMPI PUSH1 0x40 DUP1 MLOAD PUSH3 0x461BCD PUSH1 0xE5 SHL DUP2 MSTORE PUSH1 0x20 PUSH1 0x4 DUP3 ADD MSTORE PUSH1 0x1F PUSH1 0x24 DUP3 ADD MSTORE PUSH1 0x0 DUP1 MLOAD PUSH1 0x20 PUSH2 0x397E DUP4 CODECOPY DUP2 MLOAD SWAP2 MSTORE PUSH1 0x44 DUP3 ADD MSTORE SWAP1 MLOAD SWAP1 DUP2 SWAP1 SUB PUSH1 0x64 ADD SWAP1 REVERT JUMPDEST PUSH1 0x2 PUSH1 0x8 SSTORE PUSH1 0x0 PUSH2 0x15D4 PUSH2 0x3932 JUMP JUMPDEST PUSH2 0x15DC PUSH2 0x23C8 JUMP JUMPDEST PUSH1 0xC SLOAD PUSH1 0xD SLOAD PUSH1 0x40 DUP1 MLOAD PUSH4 0x70A08231 PUSH1 0xE0 SHL DUP2 MSTORE ADDRESS PUSH1 0x4 DUP3 ADD MSTORE SWAP1 MLOAD SWAP5 SWAP7 POP SWAP3 SWAP5 POP PUSH1 0x1 PUSH1 0x1 PUSH1 0xA0 SHL SUB SWAP2 DUP3 AND SWAP4 SWAP2 AND SWAP2 PUSH1 0x0 SWAP2 DUP5 SWAP2 PUSH4 0x70A08231 SWAP2 PUSH1 0x24 DUP1 DUP4 ADD SWAP3 PUSH1 0x20 SWAP3 SWAP2 SWAP1 DUP3 SWAP1 SUB ADD DUP2 DUP7 DUP1 EXTCODESIZE ISZERO DUP1 ISZERO PUSH2 0x1637 JUMPI PUSH1 0x0 DUP1 REVERT JUMPDEST POP GAS STATICCALL ISZERO DUP1 ISZERO PUSH2 0x164B JUMPI RETURNDATASIZE PUSH1 0x0 DUP1 RETURNDATACOPY RETURNDATASIZE PUSH1 0x0 REVERT JUMPDEST POP POP POP POP PUSH1 0x40 MLOAD RETURNDATASIZE PUSH1 0x20 DUP2 LT ISZERO PUSH2 0x1661 JUMPI PUSH1 0x0 DUP1 REVERT JUMPDEST POP MLOAD PUSH1 0x40 DUP1 MLOAD PUSH4 0x70A08231 PUSH1 0xE0 SHL DUP2 MSTORE ADDRESS PUSH1 0x4 DUP3 ADD MSTORE SWAP1 MLOAD SWAP2 SWAP3 POP PUSH1 0x0 SWAP2 PUSH1 0x1 PUSH1 0x1 PUSH1 0xA0 SHL SUB DUP6 AND SWAP2 PUSH4 0x70A08231 SWAP2 PUSH1 0x24 DUP1 DUP4 ADD SWAP3 PUSH1 0x20 SWAP3 SWAP2 SWAP1 DUP3 SWAP1 SUB ADD DUP2 DUP7 DUP1 EXTCODESIZE ISZERO DUP1 ISZERO PUSH2 0x16AF JUMPI PUSH1 0x0 DUP1 REVERT JUMPDEST POP GAS STATICCALL ISZERO DUP1 ISZERO PUSH2 0x16C3 JUMPI RETURNDATASIZE PUSH1 0x0 DUP1 RETURNDATACOPY RETURNDATASIZE PUSH1 0x0 REVERT JUMPDEST POP POP POP POP PUSH1 0x40 MLOAD RETURNDATASIZE PUSH1 0x20 DUP2 LT ISZERO PUSH2 0x16D9 JUMPI PUSH1 0x0 DUP1 REVERT JUMPDEST POP MLOAD DUP6 MLOAD SWAP1 SWAP2 POP DUP3 LT DUP1 ISZERO SWAP1 PUSH2 0x16F3 JUMPI POP DUP5 PUSH1 0x20 ADD MLOAD DUP2 LT ISZERO JUMPDEST PUSH2 0x173B JUMPI PUSH1 0x40 DUP1 MLOAD PUSH3 0x461BCD PUSH1 0xE5 SHL DUP2 MSTORE PUSH1 0x20 PUSH1 0x4 DUP3 ADD MSTORE PUSH1 0x14 PUSH1 0x24 DUP3 ADD MSTORE PUSH20 0x444D4D3A20554E53594E435F5245534552564553 PUSH1 0x60 SHL PUSH1 0x44 DUP3 ADD MSTORE SWAP1 MLOAD SWAP1 DUP2 SWAP1 SUB PUSH1 0x64 ADD SWAP1 REVERT JUMPDEST PUSH1 0x0 PUSH2 0x1746 ADDRESS PUSH2 0x1545 JUMP JUMPDEST SWAP1 POP PUSH1 0x0 PUSH2 0x1754 DUP9 DUP9 PUSH2 0x2A7B JUMP JUMPDEST SWAP1 POP PUSH1 0x0 PUSH2 0x1760 PUSH2 0xFDD JUMP JUMPDEST SWAP1 POP DUP1 PUSH2 0x176D DUP5 DUP8 PUSH2 0x2BC3 JUMP JUMPDEST DUP2 PUSH2 0x1774 JUMPI INVALID JUMPDEST DIV SWAP11 POP DUP1 PUSH2 0x1782 DUP5 DUP7 PUSH2 0x2BC3 JUMP JUMPDEST DUP2 PUSH2 0x1789 JUMPI INVALID JUMPDEST DIV SWAP10 POP PUSH1 0x0 DUP12 GT DUP1 ISZERO PUSH2 0x179C JUMPI POP PUSH1 0x0 DUP11 GT JUMPDEST PUSH2 0x17D7 JUMPI PUSH1 0x40 MLOAD PUSH3 0x461BCD PUSH1 0xE5 SHL DUP2 MSTORE PUSH1 0x4 ADD DUP1 DUP1 PUSH1 0x20 ADD DUP3 DUP2 SUB DUP3 MSTORE PUSH1 0x22 DUP2 MSTORE PUSH1 0x20 ADD DUP1 PUSH2 0x3A2E PUSH1 0x22 SWAP2 CODECOPY PUSH1 0x40 ADD SWAP2 POP POP PUSH1 0x40 MLOAD DUP1 SWAP2 SUB SWAP1 REVERT JUMPDEST PUSH2 0x17E1 ADDRESS DUP5 PUSH2 0x2DA9 JUMP JUMPDEST PUSH2 0x17F5 PUSH1 0x1 PUSH1 0x1 PUSH1 0xA0 SHL SUB DUP9 AND DUP14 DUP14 PUSH2 0x242F JUMP JUMPDEST PUSH2 0x1809 PUSH1 0x1 PUSH1 0x1 PUSH1 0xA0 SHL SUB DUP8 AND DUP14 DUP13 PUSH2 0x242F JUMP JUMPDEST PUSH2 0x1811 PUSH2 0x3932 JUMP JUMPDEST PUSH1 0x40 DUP1 MLOAD PUSH4 0x70A08231 PUSH1 0xE0 SHL DUP2 MSTORE ADDRESS PUSH1 0x4 DUP3 ADD MSTORE SWAP1 MLOAD PUSH1 0x1 PUSH1 0x1 PUSH1 0xA0 SHL SUB DUP11 AND SWAP2 PUSH4 0x70A08231 SWAP2 PUSH1 0x24 DUP1 DUP4 ADD SWAP3 PUSH1 0x20 SWAP3 SWAP2 SWAP1 DUP3 SWAP1 SUB ADD DUP2 DUP7 DUP1 EXTCODESIZE ISZERO DUP1 ISZERO PUSH2 0x1857 JUMPI PUSH1 0x0 DUP1 REVERT JUMPDEST POP GAS STATICCALL ISZERO DUP1 ISZERO PUSH2 0x186B JUMPI RETURNDATASIZE PUSH1 0x0 DUP1 RETURNDATACOPY RETURNDATASIZE PUSH1 0x0 REVERT JUMPDEST POP POP POP POP PUSH1 0x40 MLOAD RETURNDATASIZE PUSH1 0x20 DUP2 LT ISZERO PUSH2 0x1881 JUMPI PUSH1 0x0 DUP1 REVERT JUMPDEST POP MLOAD DUP2 MSTORE PUSH1 0x40 DUP1 MLOAD PUSH4 0x70A08231 PUSH1 0xE0 SHL DUP2 MSTORE ADDRESS PUSH1 0x4 DUP3 ADD MSTORE SWAP1 MLOAD PUSH1 0x1 PUSH1 0x1 PUSH1 0xA0 SHL SUB DUP10 AND SWAP2 PUSH4 0x70A08231 SWAP2 PUSH1 0x24 DUP1 DUP4 ADD SWAP3 PUSH1 0x20 SWAP3 SWAP2 SWAP1 DUP3 SWAP1 SUB ADD DUP2 DUP7 DUP1 EXTCODESIZE ISZERO DUP1 ISZERO PUSH2 0x18CB JUMPI PUSH1 0x0 DUP1 REVERT JUMPDEST POP GAS STATICCALL ISZERO DUP1 ISZERO PUSH2 0x18DF JUMPI RETURNDATASIZE PUSH1 0x0 DUP1 RETURNDATACOPY RETURNDATASIZE PUSH1 0x0 REVERT JUMPDEST POP POP POP POP PUSH1 0x40 MLOAD RETURNDATASIZE PUSH1 0x20 DUP2 LT ISZERO PUSH2 0x18F5 JUMPI PUSH1 0x0 DUP1 REVERT JUMPDEST POP MLOAD PUSH1 0x20 DUP3 ADD MSTORE DUP10 ISZERO PUSH2 0x199D JUMPI DUP9 MLOAD DUP2 MLOAD PUSH1 0x0 SWAP2 PUSH2 0x193B SWAP2 PUSH2 0x1917 SWAP1 DUP7 PUSH2 0x2BC3 JUMP JUMPDEST DUP2 PUSH2 0x191E JUMPI INVALID JUMPDEST DIV DUP12 PUSH1 0x20 ADD MLOAD PUSH2 0x136A DUP7 DUP7 PUSH1 0x20 ADD MLOAD PUSH2 0x2BC3 SWAP1 SWAP2 SWAP1 PUSH4 0xFFFFFFFF AND JUMP JUMPDEST SWAP1 POP PUSH2 0x196A DUP4 PUSH2 0x1958 DUP4 DUP14 PUSH1 0x40 ADD MLOAD PUSH2 0x2BC3 SWAP1 SWAP2 SWAP1 PUSH4 0xFFFFFFFF AND JUMP JUMPDEST DUP2 PUSH2 0x195F JUMPI INVALID JUMPDEST DIV DUP4 PUSH1 0x0 ADD MLOAD PUSH2 0x2D73 JUMP JUMPDEST PUSH1 0x40 DUP4 ADD MSTORE PUSH1 0x60 DUP11 ADD MLOAD PUSH2 0x1996 SWAP1 DUP5 SWAP1 PUSH2 0x1984 SWAP1 DUP5 PUSH2 0x2BC3 JUMP JUMPDEST DUP2 PUSH2 0x198B JUMPI INVALID JUMPDEST DIV DUP4 PUSH1 0x20 ADD MLOAD PUSH2 0x2D73 JUMP JUMPDEST PUSH1 0x60 DUP4 ADD MSTORE POP JUMPDEST PUSH2 0x19A7 DUP11 DUP3 PUSH2 0x2658 JUMP JUMPDEST DUP3 ISZERO PUSH2 0x19BB JUMPI PUSH2 0x19B7 DUP11 DUP3 PUSH2 0x2D83 JUMP JUMPDEST PUSH1 0x10 SSTORE JUMPDEST DUP13 PUSH1 0x1 PUSH1 0x1 PUSH1 0xA0 SHL SUB AND CALLER PUSH1 0x1 PUSH1 0x1 PUSH1 0xA0 SHL SUB AND PUSH32 0xDCCD412F0B1252819CB1FD330B93224CA42612892BB3F4F789976E6D81936496 DUP15 DUP15 PUSH1 0x40 MLOAD DUP1 DUP4 DUP2 MSTORE PUSH1 0x20 ADD DUP3 DUP2 MSTORE PUSH1 0x20 ADD SWAP3 POP POP POP PUSH1 0x40 MLOAD DUP1 SWAP2 SUB SWAP1 LOG3 POP POP POP POP POP POP POP POP POP POP PUSH1 0x1 PUSH1 0x8 DUP2 SWAP1 SSTORE POP SWAP2 POP SWAP2 JUMP JUMPDEST PUSH1 0xC SLOAD PUSH1 0xD SLOAD PUSH1 0x40 DUP1 MLOAD PUSH4 0x95D89B41 PUSH1 0xE0 SHL DUP2 MSTORE SWAP1 MLOAD PUSH1 0x60 SWAP4 PUSH1 0x1 PUSH1 0x1 PUSH1 0xA0 SHL SUB SWAP1 DUP2 AND SWAP4 AND SWAP2 DUP4 SWAP2 PUSH4 0x95D89B41 SWAP2 PUSH1 0x4 DUP1 DUP3 ADD SWAP3 PUSH1 0x0 SWAP3 SWAP1 SWAP2 SWAP1 DUP3 SWAP1 SUB ADD DUP2 DUP7 DUP1 EXTCODESIZE ISZERO DUP1 ISZERO PUSH2 0x1A74 JUMPI PUSH1 0x0 DUP1 REVERT JUMPDEST POP GAS STATICCALL ISZERO DUP1 ISZERO PUSH2 0x1A88 JUMPI RETURNDATASIZE PUSH1 0x0 DUP1 RETURNDATACOPY RETURNDATASIZE PUSH1 0x0 REVERT JUMPDEST POP POP POP POP PUSH1 0x40 MLOAD RETURNDATASIZE PUSH1 0x0 DUP3 RETURNDATACOPY PUSH1 0x1F RETURNDATASIZE SWAP1 DUP2 ADD PUSH1 0x1F NOT AND DUP3 ADD PUSH1 0x40 MSTORE PUSH1 0x20 DUP2 LT ISZERO PUSH2 0x1AB1 JUMPI PUSH1 0x0 DUP1 REVERT JUMPDEST DUP2 ADD SWAP1 DUP1 DUP1 MLOAD PUSH1 0x40 MLOAD SWAP4 SWAP3 SWAP2 SWAP1 DUP5 PUSH1 0x1 PUSH1 0x20 SHL DUP3 GT ISZERO PUSH2 0x1AD0 JUMPI PUSH1 0x0 DUP1 REVERT JUMPDEST SWAP1 DUP4 ADD SWAP1 PUSH1 0x20 DUP3 ADD DUP6 DUP2 GT ISZERO PUSH2 0x1AE5 JUMPI PUSH1 0x0 DUP1 REVERT JUMPDEST DUP3 MLOAD PUSH1 0x1 PUSH1 0x20 SHL DUP2 GT DUP3 DUP3 ADD DUP9 LT OR ISZERO PUSH2 0x1AFE JUMPI PUSH1 0x0 DUP1 REVERT JUMPDEST DUP3 MSTORE POP DUP2 MLOAD PUSH1 0x20 SWAP2 DUP3 ADD SWAP3 SWAP1 SWAP2 ADD SWAP1 DUP1 DUP4 DUP4 PUSH1 0x0 JUMPDEST DUP4 DUP2 LT ISZERO PUSH2 0x1B2B JUMPI DUP2 DUP2 ADD MLOAD DUP4 DUP3 ADD MSTORE PUSH1 0x20 ADD PUSH2 0x1B13 JUMP JUMPDEST POP POP POP POP SWAP1 POP SWAP1 DUP2 ADD SWAP1 PUSH1 0x1F AND DUP1 ISZERO PUSH2 0x1B58 JUMPI DUP1 DUP3 SUB DUP1 MLOAD PUSH1 0x1 DUP4 PUSH1 0x20 SUB PUSH2 0x100 EXP SUB NOT AND DUP2 MSTORE PUSH1 0x20 ADD SWAP2 POP JUMPDEST POP PUSH1 0x40 MSTORE POP POP POP DUP2 PUSH1 0x1 PUSH1 0x1 PUSH1 0xA0 SHL SUB AND PUSH4 0x95D89B41 PUSH1 0x40 MLOAD DUP2 PUSH4 0xFFFFFFFF AND PUSH1 0xE0 SHL DUP2 MSTORE PUSH1 0x4 ADD PUSH1 0x0 PUSH1 0x40 MLOAD DUP1 DUP4 SUB DUP2 DUP7 DUP1 EXTCODESIZE ISZERO DUP1 ISZERO PUSH2 0x1B98 JUMPI PUSH1 0x0 DUP1 REVERT JUMPDEST POP GAS STATICCALL ISZERO DUP1 ISZERO PUSH2 0x1BAC JUMPI RETURNDATASIZE PUSH1 0x0 DUP1 RETURNDATACOPY RETURNDATASIZE PUSH1 0x0 REVERT JUMPDEST POP POP POP POP PUSH1 0x40 MLOAD RETURNDATASIZE PUSH1 0x0 DUP3 RETURNDATACOPY PUSH1 0x1F RETURNDATASIZE SWAP1 DUP2 ADD PUSH1 0x1F NOT AND DUP3 ADD PUSH1 0x40 MSTORE PUSH1 0x20 DUP2 LT ISZERO PUSH2 0x1BD5 JUMPI PUSH1 0x0 DUP1 REVERT JUMPDEST DUP2 ADD SWAP1 DUP1 DUP1 MLOAD PUSH1 0x40 MLOAD SWAP4 SWAP3 SWAP2 SWAP1 DUP5 PUSH1 0x1 PUSH1 0x20 SHL DUP3 GT ISZERO PUSH2 0x1BF4 JUMPI PUSH1 0x0 DUP1 REVERT JUMPDEST SWAP1 DUP4 ADD SWAP1 PUSH1 0x20 DUP3 ADD DUP6 DUP2 GT ISZERO PUSH2 0x1C09 JUMPI PUSH1 0x0 DUP1 REVERT JUMPDEST DUP3 MLOAD PUSH1 0x1 PUSH1 0x20 SHL DUP2 GT DUP3 DUP3 ADD DUP9 LT OR ISZERO PUSH2 0x1C22 JUMPI PUSH1 0x0 DUP1 REVERT JUMPDEST DUP3 MSTORE POP DUP2 MLOAD PUSH1 0x20 SWAP2 DUP3 ADD SWAP3 SWAP1 SWAP2 ADD SWAP1 DUP1 DUP4 DUP4 PUSH1 0x0 JUMPDEST DUP4 DUP2 LT ISZERO PUSH2 0x1C4F JUMPI DUP2 DUP2 ADD MLOAD DUP4 DUP3 ADD MSTORE PUSH1 0x20 ADD PUSH2 0x1C37 JUMP JUMPDEST POP POP POP POP SWAP1 POP SWAP1 DUP2 ADD SWAP1 PUSH1 0x1F AND DUP1 ISZERO PUSH2 0x1C7C JUMPI DUP1 DUP3 SUB DUP1 MLOAD PUSH1 0x1 DUP4 PUSH1 0x20 SUB PUSH2 0x100 EXP SUB NOT AND DUP2 MSTORE PUSH1 0x20 ADD SWAP2 POP JUMPDEST POP PUSH1 0x40 MSTORE POP POP POP PUSH1 0x40 MLOAD PUSH1 0x20 ADD DUP1 DUP1 PUSH7 0x27A92196A6281 PUSH1 0xCD SHL DUP2 MSTORE POP PUSH1 0x7 ADD DUP4 DUP1 MLOAD SWAP1 PUSH1 0x20 ADD SWAP1 DUP1 DUP4 DUP4 PUSH1 0x20 DUP4 LT PUSH2 0xED7 JUMPI DUP1 MLOAD DUP3 MSTORE PUSH1 0x1F NOT SWAP1 SWAP3 ADD SWAP2 PUSH1 0x20 SWAP2 DUP3 ADD SWAP2 ADD PUSH2 0xEB8 JUMP JUMPDEST PUSH1 0x0 PUSH2 0xF9B PUSH2 0x1CD3 PUSH2 0x2799 JUMP JUMPDEST DUP5 PUSH2 0x105B DUP6 PUSH1 0x40 MLOAD DUP1 PUSH1 0x60 ADD PUSH1 0x40 MSTORE DUP1 PUSH1 0x25 DUP2 MSTORE PUSH1 0x20 ADD PUSH2 0x3B4F PUSH1 0x25 SWAP2 CODECOPY PUSH1 0x1 PUSH1 0x0 PUSH2 0x1CFD PUSH2 0x2799 JUMP JUMPDEST PUSH1 0x1 PUSH1 0x1 PUSH1 0xA0 SHL SUB SWAP1 DUP2 AND DUP3 MSTORE PUSH1 0x20 DUP1 DUP4 ADD SWAP4 SWAP1 SWAP4 MSTORE PUSH1 0x40 SWAP2 DUP3 ADD PUSH1 0x0 SWAP1 DUP2 KECCAK256 SWAP2 DUP14 AND DUP2 MSTORE SWAP3 MSTORE SWAP1 KECCAK256 SLOAD SWAP2 SWAP1 PUSH2 0x29E4 JUMP JUMPDEST PUSH1 0x0 PUSH2 0xF9B PUSH2 0x1D3B PUSH2 0x2799 JUMP JUMPDEST DUP5 DUP5 PUSH2 0x2889 JUMP JUMPDEST PUSH2 0x3E8 DUP2 JUMP JUMPDEST PUSH1 0x2 PUSH1 0x8 SLOAD EQ ISZERO PUSH2 0x1D8E JUMPI PUSH1 0x40 DUP1 MLOAD PUSH3 0x461BCD PUSH1 0xE5 SHL DUP2 MSTORE PUSH1 0x20 PUSH1 0x4 DUP3 ADD MSTORE PUSH1 0x1F PUSH1 0x24 DUP3 ADD MSTORE PUSH1 0x0 DUP1 MLOAD PUSH1 0x20 PUSH2 0x397E DUP4 CODECOPY DUP2 MLOAD SWAP2 MSTORE PUSH1 0x44 DUP3 ADD MSTORE SWAP1 MLOAD SWAP1 DUP2 SWAP1 SUB PUSH1 0x64 ADD SWAP1 REVERT JUMPDEST PUSH1 0x2 PUSH1 0x8 SSTORE PUSH1 0xE SLOAD PUSH1 0xC SLOAD PUSH1 0x40 DUP1 MLOAD PUSH4 0x70A08231 PUSH1 0xE0 SHL DUP2 MSTORE ADDRESS PUSH1 0x4 DUP3 ADD MSTORE SWAP1 MLOAD PUSH2 0x1E3B SWAP4 DUP6 SWAP4 PUSH2 0x1E28 SWAP4 PUSH1 0x1 PUSH1 0x1 PUSH1 0x70 SHL SUB SWAP1 SWAP3 AND SWAP3 PUSH1 0x1 PUSH1 0x1 PUSH1 0xA0 SHL SUB SWAP1 SWAP2 AND SWAP2 PUSH4 0x70A08231 SWAP2 PUSH1 0x24 DUP1 DUP4 ADD SWAP3 PUSH1 0x20 SWAP3 SWAP2 SWAP1 DUP3 SWAP1 SUB ADD DUP2 DUP7 DUP1 EXTCODESIZE ISZERO DUP1 ISZERO PUSH2 0x1DF6 JUMPI PUSH1 0x0 DUP1 REVERT JUMPDEST POP GAS STATICCALL ISZERO DUP1 ISZERO PUSH2 0x1E0A JUMPI RETURNDATASIZE PUSH1 0x0 DUP1 RETURNDATACOPY RETURNDATASIZE PUSH1 0x0 REVERT JUMPDEST POP POP POP POP PUSH1 0x40 MLOAD RETURNDATASIZE PUSH1 0x20 DUP2 LT ISZERO PUSH2 0x1E20 JUMPI PUSH1 0x0 DUP1 REVERT JUMPDEST POP MLOAD SWAP1 PUSH2 0x24E0 JUMP JUMPDEST PUSH1 0xC SLOAD PUSH1 0x1 PUSH1 0x1 PUSH1 0xA0 SHL SUB AND SWAP2 SWAP1 PUSH2 0x242F JUMP JUMPDEST PUSH1 0xE SLOAD PUSH1 0xD SLOAD PUSH1 0x40 DUP1 MLOAD PUSH4 0x70A08231 PUSH1 0xE0 SHL DUP2 MSTORE ADDRESS PUSH1 0x4 DUP3 ADD MSTORE SWAP1 MLOAD PUSH2 0x1EB7 SWAP4 DUP6 SWAP4 PUSH2 0x1EA4 SWAP4 PUSH1 0x1 PUSH1 0x70 SHL SWAP1 SWAP3 DIV PUSH1 0x1 PUSH1 0x1 PUSH1 0x70 SHL SUB AND SWAP3 PUSH1 0x1 PUSH1 0x1 PUSH1 0xA0 SHL SUB SWAP1 SWAP2 AND SWAP2 PUSH4 0x70A08231 SWAP2 PUSH1 0x24 DUP1 DUP4 ADD SWAP3 PUSH1 0x20 SWAP3 SWAP2 SWAP1 DUP3 SWAP1 SUB ADD DUP2 DUP7 DUP1 EXTCODESIZE ISZERO DUP1 ISZERO PUSH2 0x1DF6 JUMPI PUSH1 0x0 DUP1 REVERT JUMPDEST PUSH1 0xD SLOAD PUSH1 0x1 PUSH1 0x1 PUSH1 0xA0 SHL SUB AND SWAP2 SWAP1 PUSH2 0x242F JUMP JUMPDEST POP PUSH1 0x1 PUSH1 0x8 SSTORE JUMP JUMPDEST PUSH1 0xB SLOAD PUSH1 0x1 PUSH1 0x1 PUSH1 0xA0 SHL SUB AND DUP2 JUMP JUMPDEST PUSH1 0xD SLOAD PUSH1 0x1 PUSH1 0x1 PUSH1 0xA0 SHL SUB AND DUP2 JUMP JUMPDEST TIMESTAMP DUP5 LT ISZERO PUSH2 0x1F29 JUMPI PUSH1 0x40 DUP1 MLOAD PUSH3 0x461BCD PUSH1 0xE5 SHL DUP2 MSTORE PUSH1 0x20 PUSH1 0x4 DUP3 ADD MSTORE PUSH1 0x14 PUSH1 0x24 DUP3 ADD MSTORE PUSH20 0x115490CC8C14195C9B5A5D0E8811561412549151 PUSH1 0x62 SHL PUSH1 0x44 DUP3 ADD MSTORE SWAP1 MLOAD SWAP1 DUP2 SWAP1 SUB PUSH1 0x64 ADD SWAP1 REVERT JUMPDEST PUSH1 0x6 SLOAD PUSH1 0x1 PUSH1 0x1 PUSH1 0xA0 SHL SUB DUP1 DUP10 AND PUSH1 0x0 DUP2 DUP2 MSTORE PUSH1 0x7 PUSH1 0x20 SWAP1 DUP2 MSTORE PUSH1 0x40 DUP1 DUP4 KECCAK256 DUP1 SLOAD PUSH1 0x1 DUP1 DUP3 ADD SWAP1 SWAP3 SSTORE DUP3 MLOAD PUSH32 0x6E71EDAE12B1B97F4D1F60370FEF10105FA2FAAE0126114A169C64845D6126C9 DUP2 DUP7 ADD MSTORE DUP1 DUP5 ADD SWAP7 SWAP1 SWAP7 MSTORE SWAP6 DUP14 AND PUSH1 0x60 DUP7 ADD MSTORE PUSH1 0x80 DUP6 ADD DUP13 SWAP1 MSTORE PUSH1 0xA0 DUP6 ADD SWAP6 SWAP1 SWAP6 MSTORE PUSH1 0xC0 DUP1 DUP6 ADD DUP12 SWAP1 MSTORE DUP2 MLOAD DUP1 DUP7 SUB SWAP1 SWAP2 ADD DUP2 MSTORE PUSH1 0xE0 DUP6 ADD DUP3 MSTORE DUP1 MLOAD SWAP1 DUP4 ADD KECCAK256 PUSH2 0x1901 PUSH1 0xF0 SHL PUSH2 0x100 DUP7 ADD MSTORE PUSH2 0x102 DUP6 ADD SWAP7 SWAP1 SWAP7 MSTORE PUSH2 0x122 DUP1 DUP6 ADD SWAP7 SWAP1 SWAP7 MSTORE DUP1 MLOAD DUP1 DUP6 SUB SWAP1 SWAP7 ADD DUP7 MSTORE PUSH2 0x142 DUP5 ADD DUP1 DUP3 MSTORE DUP7 MLOAD SWAP7 DUP4 ADD SWAP7 SWAP1 SWAP7 KECCAK256 SWAP6 DUP4 SWAP1 MSTORE PUSH2 0x162 DUP5 ADD DUP1 DUP3 MSTORE DUP7 SWAP1 MSTORE PUSH1 0xFF DUP10 AND PUSH2 0x182 DUP6 ADD MSTORE PUSH2 0x1A2 DUP5 ADD DUP9 SWAP1 MSTORE PUSH2 0x1C2 DUP5 ADD DUP8 SWAP1 MSTORE MLOAD SWAP2 SWAP4 SWAP3 PUSH2 0x1E2 DUP1 DUP3 ADD SWAP4 PUSH1 0x1F NOT DUP2 ADD SWAP3 DUP2 SWAP1 SUB SWAP1 SWAP2 ADD SWAP1 DUP6 GAS STATICCALL ISZERO DUP1 ISZERO PUSH2 0x2044 JUMPI RETURNDATASIZE PUSH1 0x0 DUP1 RETURNDATACOPY RETURNDATASIZE PUSH1 0x0 REVERT JUMPDEST POP POP PUSH1 0x40 MLOAD PUSH1 0x1F NOT ADD MLOAD SWAP2 POP POP PUSH1 0x1 PUSH1 0x1 PUSH1 0xA0 SHL SUB DUP2 AND ISZERO DUP1 ISZERO SWAP1 PUSH2 0x207A JUMPI POP DUP9 PUSH1 0x1 PUSH1 0x1 PUSH1 0xA0 SHL SUB AND DUP2 PUSH1 0x1 PUSH1 0x1 PUSH1 0xA0 SHL SUB AND EQ JUMPDEST PUSH2 0x20CB JUMPI PUSH1 0x40 DUP1 MLOAD PUSH3 0x461BCD PUSH1 0xE5 SHL DUP2 MSTORE PUSH1 0x20 PUSH1 0x4 DUP3 ADD MSTORE PUSH1 0x1E PUSH1 0x24 DUP3 ADD MSTORE PUSH32 0x45524332305065726D69743A20494E56414C49445F5349474E41545552450000 PUSH1 0x44 DUP3 ADD MSTORE SWAP1 MLOAD SWAP1 DUP2 SWAP1 SUB PUSH1 0x64 ADD SWAP1 REVERT JUMPDEST PUSH2 0x20D6 DUP10 DUP10 DUP10 PUSH2 0x279D JUMP JUMPDEST POP POP POP POP POP POP POP POP POP JUMP JUMPDEST PUSH1 0xE SLOAD PUSH1 0xF SLOAD PUSH1 0x1 PUSH1 0x1 PUSH1 0x70 SHL SUB DUP1 DUP4 AND SWAP3 PUSH1 0x1 PUSH1 0x70 SHL DUP1 DUP3 DIV DUP4 AND SWAP4 DUP4 DUP2 AND SWAP4 SWAP2 SWAP1 DIV AND SWAP1 PUSH1 0x0 SWAP1 PUSH1 0x1 PUSH1 0xE0 SHL SWAP1 DIV PUSH4 0xFFFFFFFF AND PUSH2 0x2710 DUP2 EQ ISZERO PUSH2 0x2128 JUMPI DUP6 SWAP4 POP DUP5 SWAP3 POP JUMPDEST PUSH1 0x0 PUSH2 0x2133 NUMBER PUSH2 0x2EA5 JUMP JUMPDEST SWAP1 POP PUSH2 0x2147 PUSH2 0x2141 DUP3 PUSH2 0x2FB9 JUMP JUMPDEST DUP4 PUSH2 0x316C JUMP JUMPDEST SWAP3 POP POP POP SWAP1 SWAP2 SWAP3 SWAP4 SWAP5 JUMP JUMPDEST PUSH1 0x1 PUSH1 0x1 PUSH1 0xA0 SHL SUB SWAP2 DUP3 AND PUSH1 0x0 SWAP1 DUP2 MSTORE PUSH1 0x1 PUSH1 0x20 SWAP1 DUP2 MSTORE PUSH1 0x40 DUP1 DUP4 KECCAK256 SWAP4 SWAP1 SWAP5 AND DUP3 MSTORE SWAP2 SWAP1 SWAP2 MSTORE KECCAK256 SLOAD SWAP1 JUMP JUMPDEST PUSH1 0x6 SLOAD DUP2 JUMP JUMPDEST PUSH1 0x2 PUSH1 0x8 SLOAD EQ ISZERO PUSH2 0x21C9 JUMPI PUSH1 0x40 DUP1 MLOAD PUSH3 0x461BCD PUSH1 0xE5 SHL DUP2 MSTORE PUSH1 0x20 PUSH1 0x4 DUP3 ADD MSTORE PUSH1 0x1F PUSH1 0x24 DUP3 ADD MSTORE PUSH1 0x0 DUP1 MLOAD PUSH1 0x20 PUSH2 0x397E DUP4 CODECOPY DUP2 MLOAD SWAP2 MSTORE PUSH1 0x44 DUP3 ADD MSTORE SWAP1 MLOAD SWAP1 DUP2 SWAP1 SUB PUSH1 0x64 ADD SWAP1 REVERT JUMPDEST PUSH1 0x2 PUSH1 0x8 SSTORE PUSH1 0x0 PUSH2 0x21D8 PUSH2 0x3932 JUMP JUMPDEST PUSH2 0x21E0 PUSH2 0x23C8 JUMP JUMPDEST SWAP2 POP SWAP2 POP PUSH1 0x0 PUSH2 0x21F0 DUP4 DUP4 PUSH2 0x2A7B JUMP JUMPDEST SWAP1 POP PUSH2 0x21FA PUSH2 0x3932 JUMP JUMPDEST PUSH1 0xC SLOAD PUSH1 0x40 DUP1 MLOAD PUSH4 0x70A08231 PUSH1 0xE0 SHL DUP2 MSTORE ADDRESS PUSH1 0x4 DUP3 ADD MSTORE SWAP1 MLOAD PUSH1 0x1 PUSH1 0x1 PUSH1 0xA0 SHL SUB SWAP1 SWAP3 AND SWAP2 PUSH4 0x70A08231 SWAP2 PUSH1 0x24 DUP1 DUP3 ADD SWAP3 PUSH1 0x20 SWAP3 SWAP1 SWAP2 SWAP1 DUP3 SWAP1 SUB ADD DUP2 DUP7 DUP1 EXTCODESIZE ISZERO DUP1 ISZERO PUSH2 0x2245 JUMPI PUSH1 0x0 DUP1 REVERT JUMPDEST POP GAS STATICCALL ISZERO DUP1 ISZERO PUSH2 0x2259 JUMPI RETURNDATASIZE PUSH1 0x0 DUP1 RETURNDATACOPY RETURNDATASIZE PUSH1 0x0 REVERT JUMPDEST POP POP POP POP PUSH1 0x40 MLOAD RETURNDATASIZE PUSH1 0x20 DUP2 LT ISZERO PUSH2 0x226F JUMPI PUSH1 0x0 DUP1 REVERT JUMPDEST POP MLOAD DUP2 MSTORE PUSH1 0xD SLOAD PUSH1 0x40 DUP1 MLOAD PUSH4 0x70A08231 PUSH1 0xE0 SHL DUP2 MSTORE ADDRESS PUSH1 0x4 DUP3 ADD MSTORE SWAP1 MLOAD PUSH1 0x1 PUSH1 0x1 PUSH1 0xA0 SHL SUB SWAP1 SWAP3 AND SWAP2 PUSH4 0x70A08231 SWAP2 PUSH1 0x24 DUP1 DUP3 ADD SWAP3 PUSH1 0x20 SWAP3 SWAP1 SWAP2 SWAP1 DUP3 SWAP1 SUB ADD DUP2 DUP7 DUP1 EXTCODESIZE ISZERO DUP1 ISZERO PUSH2 0x22BE JUMPI PUSH1 0x0 DUP1 REVERT JUMPDEST POP GAS STATICCALL ISZERO DUP1 ISZERO PUSH2 0x22D2 JUMPI RETURNDATASIZE PUSH1 0x0 DUP1 RETURNDATACOPY RETURNDATASIZE PUSH1 0x0 REVERT JUMPDEST POP POP POP POP PUSH1 0x40 MLOAD RETURNDATASIZE PUSH1 0x20 DUP2 LT ISZERO PUSH2 0x22E8 JUMPI PUSH1 0x0 DUP1 REVERT JUMPDEST POP MLOAD PUSH1 0x20 DUP3 ADD MSTORE DUP4 ISZERO PUSH2 0x239F JUMPI PUSH1 0x0 PUSH2 0x22FF PUSH2 0xFDD JUMP JUMPDEST DUP5 MLOAD DUP4 MLOAD SWAP2 SWAP3 POP PUSH1 0x0 SWAP2 PUSH2 0x233C SWAP2 SWAP1 PUSH2 0x2318 SWAP1 DUP6 PUSH2 0x2BC3 JUMP JUMPDEST DUP2 PUSH2 0x231F JUMPI INVALID JUMPDEST DIV DUP7 PUSH1 0x20 ADD MLOAD PUSH2 0x136A DUP6 DUP8 PUSH1 0x20 ADD MLOAD PUSH2 0x2BC3 SWAP1 SWAP2 SWAP1 PUSH4 0xFFFFFFFF AND JUMP JUMPDEST SWAP1 POP PUSH2 0x236B DUP3 PUSH2 0x2359 DUP4 DUP9 PUSH1 0x40 ADD MLOAD PUSH2 0x2BC3 SWAP1 SWAP2 SWAP1 PUSH4 0xFFFFFFFF AND JUMP JUMPDEST DUP2 PUSH2 0x2360 JUMPI INVALID JUMPDEST DIV DUP5 PUSH1 0x0 ADD MLOAD PUSH2 0x2D73 JUMP JUMPDEST PUSH1 0x40 DUP5 ADD MSTORE PUSH1 0x60 DUP6 ADD MLOAD PUSH2 0x2397 SWAP1 DUP4 SWAP1 PUSH2 0x2385 SWAP1 DUP5 PUSH2 0x2BC3 JUMP JUMPDEST DUP2 PUSH2 0x238C JUMPI INVALID JUMPDEST DIV DUP5 PUSH1 0x20 ADD MLOAD PUSH2 0x2D73 JUMP JUMPDEST PUSH1 0x60 DUP5 ADD MSTORE POP POP JUMPDEST PUSH2 0x23A9 DUP5 DUP3 PUSH2 0x2658 JUMP JUMPDEST DUP2 ISZERO PUSH2 0x23BD JUMPI PUSH2 0x23B9 DUP5 DUP3 PUSH2 0x2D83 JUMP JUMPDEST PUSH1 0x10 SSTORE JUMPDEST POP POP PUSH1 0x1 PUSH1 0x8 SSTORE POP POP JUMP JUMPDEST PUSH1 0x0 PUSH2 0x23D2 PUSH2 0x3932 JUMP JUMPDEST PUSH1 0xE SLOAD PUSH1 0x1 PUSH1 0x1 PUSH1 0x70 SHL SUB DUP1 DUP3 AND DUP4 MSTORE PUSH1 0x1 PUSH1 0x70 SHL DUP3 DIV AND PUSH1 0x20 DUP4 ADD MSTORE PUSH4 0xFFFFFFFF PUSH1 0x1 PUSH1 0xE0 SHL SWAP1 SWAP2 DIV AND PUSH2 0x2710 EQ DUP1 ISZERO SWAP3 POP PUSH2 0x242B JUMPI PUSH1 0xF SLOAD PUSH1 0x1 PUSH1 0x1 PUSH1 0x70 SHL SUB DUP1 DUP3 AND PUSH1 0x40 DUP5 ADD MSTORE PUSH1 0x1 PUSH1 0x70 SHL SWAP1 SWAP2 DIV AND PUSH1 0x60 DUP3 ADD MSTORE JUMPDEST SWAP1 SWAP2 JUMP JUMPDEST PUSH1 0x40 DUP1 MLOAD PUSH1 0x1 PUSH1 0x1 PUSH1 0xA0 SHL SUB DUP5 AND PUSH1 0x24 DUP3 ADD MSTORE PUSH1 0x44 DUP1 DUP3 ADD DUP5 SWAP1 MSTORE DUP3 MLOAD DUP1 DUP4 SUB SWAP1 SWAP2 ADD DUP2 MSTORE PUSH1 0x64 SWAP1 SWAP2 ADD SWAP1 SWAP2 MSTORE PUSH1 0x20 DUP2 ADD DUP1 MLOAD PUSH1 0x1 PUSH1 0x1 PUSH1 0xE0 SHL SUB AND PUSH4 0xA9059CBB PUSH1 0xE0 SHL OR SWAP1 MSTORE PUSH2 0x2481 SWAP1 DUP5 SWAP1 PUSH2 0x31C8 JUMP JUMPDEST POP POP POP JUMP JUMPDEST PUSH1 0x0 DUP3 DUP3 ADD DUP4 DUP2 LT ISZERO PUSH2 0x1064 JUMPI PUSH1 0x40 DUP1 MLOAD PUSH3 0x461BCD PUSH1 0xE5 SHL DUP2 MSTORE PUSH1 0x20 PUSH1 0x4 DUP3 ADD MSTORE PUSH1 0x1B PUSH1 0x24 DUP3 ADD MSTORE PUSH32 0x536166654D6174683A206164646974696F6E206F766572666C6F770000000000 PUSH1 0x44 DUP3 ADD MSTORE SWAP1 MLOAD SWAP1 DUP2 SWAP1 SUB PUSH1 0x64 ADD SWAP1 REVERT JUMPDEST PUSH1 0x0 DUP3 DUP3 GT ISZERO PUSH2 0x2537 JUMPI PUSH1 0x40 DUP1 MLOAD PUSH3 0x461BCD PUSH1 0xE5 SHL DUP2 MSTORE PUSH1 0x20 PUSH1 0x4 DUP3 ADD MSTORE PUSH1 0x1E PUSH1 0x24 DUP3 ADD MSTORE PUSH32 0x536166654D6174683A207375627472616374696F6E206F766572666C6F770000 PUSH1 0x44 DUP3 ADD MSTORE SWAP1 MLOAD SWAP1 DUP2 SWAP1 SUB PUSH1 0x64 ADD SWAP1 REVERT JUMPDEST POP SWAP1 SUB SWAP1 JUMP JUMPDEST PUSH1 0x0 DUP1 PUSH2 0x255E DUP9 PUSH2 0x2558 DUP8 PUSH2 0x2552 DUP11 DUP13 PUSH2 0x2BC3 JUMP JUMPDEST SWAP1 PUSH2 0x3279 JUMP JUMPDEST SWAP1 PUSH2 0x2486 JUMP JUMPDEST SWAP1 POP PUSH1 0x0 PUSH2 0x256C NUMBER DUP4 PUSH2 0x32E0 JUMP JUMPDEST SWAP1 POP PUSH2 0x258F PUSH2 0x257A DUP3 PUSH2 0x2FB9 JUMP JUMPDEST PUSH1 0xE SLOAD PUSH1 0x1 PUSH1 0xE0 SHL SWAP1 DIV PUSH4 0xFFFFFFFF AND PUSH2 0x316C JUMP JUMPDEST SWAP3 POP PUSH1 0x0 PUSH2 0x25A5 DUP7 PUSH8 0xDE0B6B3A7640000 PUSH2 0x2BC3 JUMP JUMPDEST SWAP1 POP PUSH2 0x25BB PUSH2 0x25B4 DUP12 DUP7 PUSH2 0x2BC3 JUMP JUMPDEST DUP3 SWAP1 PUSH2 0x24E0 JUMP JUMPDEST SWAP1 POP PUSH8 0xDE0B6B3A7640000 DUP2 DIV SWAP1 POP PUSH1 0x0 PUSH2 0x25DE DUP7 PUSH8 0xDE0B6B3A7640000 PUSH2 0x2BC3 JUMP JUMPDEST SWAP1 POP PUSH2 0x25ED PUSH2 0x25B4 DUP12 DUP8 PUSH2 0x2BC3 JUMP JUMPDEST PUSH8 0xDE0B6B3A7640000 SWAP1 DIV SWAP1 POP PUSH2 0x2604 DUP10 DUP10 PUSH2 0x2BC3 JUMP JUMPDEST PUSH2 0x260E DUP4 DUP4 PUSH2 0x2BC3 JUMP JUMPDEST LT ISZERO PUSH2 0x264A JUMPI PUSH1 0x40 DUP1 MLOAD PUSH3 0x461BCD PUSH1 0xE5 SHL DUP2 MSTORE PUSH1 0x20 PUSH1 0x4 DUP3 ADD MSTORE PUSH1 0x6 PUSH1 0x24 DUP3 ADD MSTORE PUSH6 0x444D4D3A204B PUSH1 0xD0 SHL PUSH1 0x44 DUP3 ADD MSTORE SWAP1 MLOAD SWAP1 DUP2 SWAP1 SUB PUSH1 0x64 ADD SWAP1 REVERT JUMPDEST POP POP POP POP SWAP7 SWAP6 POP POP POP POP POP POP JUMP JUMPDEST DUP1 MLOAD PUSH2 0x2663 SWAP1 PUSH2 0x351D JUMP JUMPDEST PUSH1 0xE DUP1 SLOAD PUSH1 0x1 PUSH1 0x1 PUSH1 0x70 SHL SUB NOT AND PUSH1 0x1 PUSH1 0x1 PUSH1 0x70 SHL SUB SWAP3 SWAP1 SWAP3 AND SWAP2 SWAP1 SWAP2 OR SWAP1 SSTORE PUSH1 0x20 DUP2 ADD MLOAD PUSH2 0x2691 SWAP1 PUSH2 0x351D JUMP JUMPDEST PUSH1 0xE DUP1 PUSH2 0x100 EXP DUP2 SLOAD DUP2 PUSH1 0x1 PUSH1 0x1 PUSH1 0x70 SHL SUB MUL NOT AND SWAP1 DUP4 PUSH1 0x1 PUSH1 0x1 PUSH1 0x70 SHL SUB AND MUL OR SWAP1 SSTORE POP DUP2 ISZERO PUSH2 0x2741 JUMPI DUP1 MLOAD PUSH1 0x40 DUP3 ADD MLOAD LT DUP1 ISZERO SWAP1 PUSH2 0x26D9 JUMPI POP DUP1 PUSH1 0x20 ADD MLOAD DUP2 PUSH1 0x60 ADD MLOAD LT ISZERO JUMPDEST PUSH2 0x26DF JUMPI INVALID JUMPDEST PUSH2 0x26EC DUP2 PUSH1 0x40 ADD MLOAD PUSH2 0x351D JUMP JUMPDEST PUSH1 0xF DUP1 SLOAD PUSH1 0x1 PUSH1 0x1 PUSH1 0x70 SHL SUB NOT AND PUSH1 0x1 PUSH1 0x1 PUSH1 0x70 SHL SUB SWAP3 SWAP1 SWAP3 AND SWAP2 SWAP1 SWAP2 OR SWAP1 SSTORE PUSH1 0x60 DUP2 ADD MLOAD PUSH2 0x271A SWAP1 PUSH2 0x351D JUMP JUMPDEST PUSH1 0xF PUSH1 0xE PUSH2 0x100 EXP DUP2 SLOAD DUP2 PUSH1 0x1 PUSH1 0x1 PUSH1 0x70 SHL SUB MUL NOT AND SWAP1 DUP4 PUSH1 0x1 PUSH1 0x1 PUSH1 0x70 SHL SUB AND MUL OR SWAP1 SSTORE POP JUMPDEST PUSH1 0x40 DUP1 DUP3 ADD MLOAD PUSH1 0x60 DUP1 DUP5 ADD MLOAD DUP5 MLOAD PUSH1 0x20 DUP1 DUP8 ADD MLOAD DUP7 MLOAD SWAP6 DUP7 MSTORE SWAP1 DUP6 ADD SWAP3 SWAP1 SWAP3 MSTORE DUP4 DUP6 ADD MSTORE SWAP1 DUP3 ADD MSTORE SWAP1 MLOAD PUSH32 0x2F9D55ABFEFDFD4C3A83E00A1B419B3C2FE4B83100C559F0E2213E57F6E0BBA9 SWAP2 DUP2 SWAP1 SUB PUSH1 0x80 ADD SWAP1 LOG1 POP POP JUMP JUMPDEST CALLER SWAP1 JUMP JUMPDEST PUSH1 0x1 PUSH1 0x1 PUSH1 0xA0 SHL SUB DUP4 AND PUSH2 0x27E2 JUMPI PUSH1 0x40 MLOAD PUSH3 0x461BCD PUSH1 0xE5 SHL DUP2 MSTORE PUSH1 0x4 ADD DUP1 DUP1 PUSH1 0x20 ADD DUP3 DUP2 SUB DUP3 MSTORE PUSH1 0x24 DUP2 MSTORE PUSH1 0x20 ADD DUP1 PUSH2 0x3B01 PUSH1 0x24 SWAP2 CODECOPY PUSH1 0x40 ADD SWAP2 POP POP PUSH1 0x40 MLOAD DUP1 SWAP2 SUB SWAP1 REVERT JUMPDEST PUSH1 0x1 PUSH1 0x1 PUSH1 0xA0 SHL SUB DUP3 AND PUSH2 0x2827 JUMPI PUSH1 0x40 MLOAD PUSH3 0x461BCD PUSH1 0xE5 SHL DUP2 MSTORE PUSH1 0x4 ADD DUP1 DUP1 PUSH1 0x20 ADD DUP3 DUP2 SUB DUP3 MSTORE PUSH1 0x22 DUP2 MSTORE PUSH1 0x20 ADD DUP1 PUSH2 0x39C0 PUSH1 0x22 SWAP2 CODECOPY PUSH1 0x40 ADD SWAP2 POP POP PUSH1 0x40 MLOAD DUP1 SWAP2 SUB SWAP1 REVERT JUMPDEST PUSH1 0x1 PUSH1 0x1 PUSH1 0xA0 SHL SUB DUP1 DUP5 AND PUSH1 0x0 DUP2 DUP2 MSTORE PUSH1 0x1 PUSH1 0x20 SWAP1 DUP2 MSTORE PUSH1 0x40 DUP1 DUP4 KECCAK256 SWAP5 DUP8 AND DUP1 DUP5 MSTORE SWAP5 DUP3 MSTORE SWAP2 DUP3 SWAP1 KECCAK256 DUP6 SWAP1 SSTORE DUP2 MLOAD DUP6 DUP2 MSTORE SWAP2 MLOAD PUSH32 0x8C5BE1E5EBEC7D5BD14F71427D1E84F3DD0314C0F7B2291E5B200AC8C7C3B925 SWAP3 DUP2 SWAP1 SUB SWAP1 SWAP2 ADD SWAP1 LOG3 POP POP POP JUMP JUMPDEST PUSH1 0x1 PUSH1 0x1 PUSH1 0xA0 SHL SUB DUP4 AND PUSH2 0x28CE JUMPI PUSH1 0x40 MLOAD PUSH3 0x461BCD PUSH1 0xE5 SHL DUP2 MSTORE PUSH1 0x4 ADD DUP1 DUP1 PUSH1 0x20 ADD DUP3 DUP2 SUB DUP3 MSTORE PUSH1 0x25 DUP2 MSTORE PUSH1 0x20 ADD DUP1 PUSH2 0x3ADC PUSH1 0x25 SWAP2 CODECOPY PUSH1 0x40 ADD SWAP2 POP POP PUSH1 0x40 MLOAD DUP1 SWAP2 SUB SWAP1 REVERT JUMPDEST PUSH1 0x1 PUSH1 0x1 PUSH1 0xA0 SHL SUB DUP3 AND PUSH2 0x2913 JUMPI PUSH1 0x40 MLOAD PUSH3 0x461BCD PUSH1 0xE5 SHL DUP2 MSTORE PUSH1 0x4 ADD DUP1 DUP1 PUSH1 0x20 ADD DUP3 DUP2 SUB DUP3 MSTORE PUSH1 0x23 DUP2 MSTORE PUSH1 0x20 ADD DUP1 PUSH2 0x395B PUSH1 0x23 SWAP2 CODECOPY PUSH1 0x40 ADD SWAP2 POP POP PUSH1 0x40 MLOAD DUP1 SWAP2 SUB SWAP1 REVERT JUMPDEST PUSH2 0x291E DUP4 DUP4 DUP4 PUSH2 0x2481 JUMP JUMPDEST PUSH2 0x295B DUP2 PUSH1 0x40 MLOAD DUP1 PUSH1 0x60 ADD PUSH1 0x40 MSTORE DUP1 PUSH1 0x26 DUP2 MSTORE PUSH1 0x20 ADD PUSH2 0x39E2 PUSH1 0x26 SWAP2 CODECOPY PUSH1 0x1 PUSH1 0x1 PUSH1 0xA0 SHL SUB DUP7 AND PUSH1 0x0 SWAP1 DUP2 MSTORE PUSH1 0x20 DUP2 SWAP1 MSTORE PUSH1 0x40 SWAP1 KECCAK256 SLOAD SWAP2 SWAP1 PUSH2 0x29E4 JUMP JUMPDEST PUSH1 0x1 PUSH1 0x1 PUSH1 0xA0 SHL SUB DUP1 DUP6 AND PUSH1 0x0 SWAP1 DUP2 MSTORE PUSH1 0x20 DUP2 SWAP1 MSTORE PUSH1 0x40 DUP1 DUP3 KECCAK256 SWAP4 SWAP1 SWAP4 SSTORE SWAP1 DUP5 AND DUP2 MSTORE KECCAK256 SLOAD PUSH2 0x298A SWAP1 DUP3 PUSH2 0x2486 JUMP JUMPDEST PUSH1 0x1 PUSH1 0x1 PUSH1 0xA0 SHL SUB DUP1 DUP5 AND PUSH1 0x0 DUP2 DUP2 MSTORE PUSH1 0x20 DUP2 DUP2 MSTORE PUSH1 0x40 SWAP2 DUP3 SWAP1 KECCAK256 SWAP5 SWAP1 SWAP5 SSTORE DUP1 MLOAD DUP6 DUP2 MSTORE SWAP1 MLOAD SWAP2 SWAP4 SWAP3 DUP8 AND SWAP3 PUSH32 0xDDF252AD1BE2C89B69C2B068FC378DAA952BA7F163C4A11628F55A4DF523B3EF SWAP3 SWAP2 DUP3 SWAP1 SUB ADD SWAP1 LOG3 POP POP POP JUMP JUMPDEST PUSH1 0x0 DUP2 DUP5 DUP5 GT ISZERO PUSH2 0x2A73 JUMPI PUSH1 0x40 MLOAD PUSH3 0x461BCD PUSH1 0xE5 SHL DUP2 MSTORE PUSH1 0x4 ADD DUP1 DUP1 PUSH1 0x20 ADD DUP3 DUP2 SUB DUP3 MSTORE DUP4 DUP2 DUP2 MLOAD DUP2 MSTORE PUSH1 0x20 ADD SWAP2 POP DUP1 MLOAD SWAP1 PUSH1 0x20 ADD SWAP1 DUP1 DUP4 DUP4 PUSH1 0x0 JUMPDEST DUP4 DUP2 LT ISZERO PUSH2 0x2A38 JUMPI DUP2 DUP2 ADD MLOAD DUP4 DUP3 ADD MSTORE PUSH1 0x20 ADD PUSH2 0x2A20 JUMP JUMPDEST POP POP POP POP SWAP1 POP SWAP1 DUP2 ADD SWAP1 PUSH1 0x1F AND DUP1 ISZERO PUSH2 0x2A65 JUMPI DUP1 DUP3 SUB DUP1 MLOAD PUSH1 0x1 DUP4 PUSH1 0x20 SUB PUSH2 0x100 EXP SUB NOT AND DUP2 MSTORE PUSH1 0x20 ADD SWAP2 POP JUMPDEST POP SWAP3 POP POP POP PUSH1 0x40 MLOAD DUP1 SWAP2 SUB SWAP1 REVERT JUMPDEST POP POP POP SWAP1 SUB SWAP1 JUMP JUMPDEST PUSH1 0x0 DUP1 PUSH1 0x0 PUSH1 0xB PUSH1 0x0 SWAP1 SLOAD SWAP1 PUSH2 0x100 EXP SWAP1 DIV PUSH1 0x1 PUSH1 0x1 PUSH1 0xA0 SHL SUB AND PUSH1 0x1 PUSH1 0x1 PUSH1 0xA0 SHL SUB AND PUSH4 0xAD5CB2E1 PUSH1 0x40 MLOAD DUP2 PUSH4 0xFFFFFFFF AND PUSH1 0xE0 SHL DUP2 MSTORE PUSH1 0x4 ADD PUSH1 0x40 DUP1 MLOAD DUP1 DUP4 SUB DUP2 DUP7 DUP1 EXTCODESIZE ISZERO DUP1 ISZERO PUSH2 0x2ACD JUMPI PUSH1 0x0 DUP1 REVERT JUMPDEST POP GAS STATICCALL ISZERO DUP1 ISZERO PUSH2 0x2AE1 JUMPI RETURNDATASIZE PUSH1 0x0 DUP1 RETURNDATACOPY RETURNDATASIZE PUSH1 0x0 REVERT JUMPDEST POP POP POP POP PUSH1 0x40 MLOAD RETURNDATASIZE PUSH1 0x40 DUP2 LT ISZERO PUSH2 0x2AF7 JUMPI PUSH1 0x0 DUP1 REVERT JUMPDEST POP DUP1 MLOAD PUSH1 0x20 SWAP1 SWAP2 ADD MLOAD PUSH1 0x10 SLOAD PUSH1 0x1 PUSH1 0x1 PUSH1 0xA0 SHL SUB DUP4 AND ISZERO DUP1 ISZERO SWAP7 POP SWAP3 SWAP5 POP SWAP1 SWAP3 POP SWAP1 PUSH2 0x2BAE JUMPI DUP1 ISZERO PUSH2 0x2BA9 JUMPI PUSH1 0x0 PUSH2 0x2B32 PUSH2 0x1320 DUP9 DUP9 PUSH2 0x2D83 JUMP JUMPDEST SWAP1 POP PUSH1 0x0 PUSH2 0x2B3F DUP4 PUSH2 0x2C1C JUMP JUMPDEST SWAP1 POP DUP1 DUP3 GT ISZERO PUSH2 0x2BA6 JUMPI PUSH1 0x0 PUSH2 0x2B6E PUSH2 0xFFFF DUP7 AND PUSH2 0x2B68 PUSH2 0x2B60 DUP7 DUP7 PUSH2 0x24E0 JUMP JUMPDEST PUSH2 0x2B68 PUSH2 0xFDD JUMP JUMPDEST SWAP1 PUSH2 0x2BC3 JUMP JUMPDEST SWAP1 POP PUSH1 0x0 PUSH2 0x2B82 PUSH2 0x1388 PUSH2 0x2B68 DUP7 DUP7 PUSH2 0x2486 JUMP JUMPDEST SWAP1 POP PUSH1 0x0 DUP2 DUP4 DUP2 PUSH2 0x2B8F JUMPI INVALID JUMPDEST DIV SWAP1 POP DUP1 ISZERO PUSH2 0x2BA2 JUMPI PUSH2 0x2BA2 DUP9 DUP3 PUSH2 0x2C6D JUMP JUMPDEST POP POP POP JUMPDEST POP POP JUMPDEST PUSH2 0x2BBA JUMP JUMPDEST DUP1 ISZERO PUSH2 0x2BBA JUMPI PUSH1 0x0 PUSH1 0x10 SSTORE JUMPDEST POP POP POP SWAP3 SWAP2 POP POP JUMP JUMPDEST PUSH1 0x0 DUP3 PUSH2 0x2BD2 JUMPI POP PUSH1 0x0 PUSH2 0xF9F JUMP JUMPDEST DUP3 DUP3 MUL DUP3 DUP5 DUP3 DUP2 PUSH2 0x2BDF JUMPI INVALID JUMPDEST DIV EQ PUSH2 0x1064 JUMPI PUSH1 0x40 MLOAD PUSH3 0x461BCD PUSH1 0xE5 SHL DUP2 MSTORE PUSH1 0x4 ADD DUP1 DUP1 PUSH1 0x20 ADD DUP3 DUP2 SUB DUP3 MSTORE PUSH1 0x21 DUP2 MSTORE PUSH1 0x20 ADD DUP1 PUSH2 0x3A50 PUSH1 0x21 SWAP2 CODECOPY PUSH1 0x40 ADD SWAP2 POP POP PUSH1 0x40 MLOAD DUP1 SWAP2 SUB SWAP1 REVERT JUMPDEST PUSH1 0x0 PUSH1 0x3 DUP3 GT ISZERO PUSH2 0x2C5F JUMPI POP DUP1 PUSH1 0x1 PUSH1 0x2 DUP3 DIV ADD JUMPDEST DUP2 DUP2 LT ISZERO PUSH2 0x2C59 JUMPI DUP1 SWAP2 POP PUSH1 0x2 DUP2 DUP3 DUP6 DUP2 PUSH2 0x2C48 JUMPI INVALID JUMPDEST DIV ADD DUP2 PUSH2 0x2C51 JUMPI INVALID JUMPDEST DIV SWAP1 POP PUSH2 0x2C31 JUMP JUMPDEST POP PUSH2 0x155F JUMP JUMPDEST DUP2 ISZERO PUSH2 0x155F JUMPI POP PUSH1 0x1 SWAP2 SWAP1 POP JUMP JUMPDEST PUSH1 0x1 PUSH1 0x1 PUSH1 0xA0 SHL SUB DUP3 AND PUSH2 0x2CC8 JUMPI PUSH1 0x40 DUP1 MLOAD PUSH3 0x461BCD PUSH1 0xE5 SHL DUP2 MSTORE PUSH1 0x20 PUSH1 0x4 DUP3 ADD MSTORE PUSH1 0x1F PUSH1 0x24 DUP3 ADD MSTORE PUSH32 0x45524332303A206D696E7420746F20746865207A65726F206164647265737300 PUSH1 0x44 DUP3 ADD MSTORE SWAP1 MLOAD SWAP1 DUP2 SWAP1 SUB PUSH1 0x64 ADD SWAP1 REVERT JUMPDEST PUSH2 0x2CD4 PUSH1 0x0 DUP4 DUP4 PUSH2 0x2481 JUMP JUMPDEST PUSH1 0x2 SLOAD PUSH2 0x2CE1 SWAP1 DUP3 PUSH2 0x2486 JUMP JUMPDEST PUSH1 0x2 SSTORE PUSH1 0x1 PUSH1 0x1 PUSH1 0xA0 SHL SUB DUP3 AND PUSH1 0x0 SWAP1 DUP2 MSTORE PUSH1 0x20 DUP2 SWAP1 MSTORE PUSH1 0x40 SWAP1 KECCAK256 SLOAD PUSH2 0x2D07 SWAP1 DUP3 PUSH2 0x2486 JUMP JUMPDEST PUSH1 0x1 PUSH1 0x1 PUSH1 0xA0 SHL SUB DUP4 AND PUSH1 0x0 DUP2 DUP2 MSTORE PUSH1 0x20 DUP2 DUP2 MSTORE PUSH1 0x40 DUP1 DUP4 KECCAK256 SWAP5 SWAP1 SWAP5 SSTORE DUP4 MLOAD DUP6 DUP2 MSTORE SWAP4 MLOAD SWAP3 SWAP4 SWAP2 SWAP3 PUSH32 0xDDF252AD1BE2C89B69C2B068FC378DAA952BA7F163C4A11628F55A4DF523B3EF SWAP3 DUP2 SWAP1 SUB SWAP1 SWAP2 ADD SWAP1 LOG3 POP POP JUMP JUMPDEST PUSH1 0x0 DUP2 DUP4 LT PUSH2 0x2D6C JUMPI DUP2 PUSH2 0x1064 JUMP JUMPDEST POP SWAP1 SWAP2 SWAP1 POP JUMP JUMPDEST PUSH1 0x0 DUP2 DUP4 LT ISZERO PUSH2 0x2D6C JUMPI DUP2 PUSH2 0x1064 JUMP JUMPDEST PUSH1 0x0 DUP3 PUSH2 0x2D97 JUMPI PUSH1 0x20 DUP3 ADD MLOAD DUP3 MLOAD MUL PUSH2 0x1064 JUMP JUMPDEST POP PUSH1 0x60 DUP2 ADD MLOAD PUSH1 0x40 SWAP1 SWAP2 ADD MLOAD MUL SWAP2 SWAP1 POP JUMP JUMPDEST PUSH1 0x1 PUSH1 0x1 PUSH1 0xA0 SHL SUB DUP3 AND PUSH2 0x2DEE JUMPI PUSH1 0x40 MLOAD PUSH3 0x461BCD PUSH1 0xE5 SHL DUP2 MSTORE PUSH1 0x4 ADD DUP1 DUP1 PUSH1 0x20 ADD DUP3 DUP2 SUB DUP3 MSTORE PUSH1 0x21 DUP2 MSTORE PUSH1 0x20 ADD DUP1 PUSH2 0x3ABB PUSH1 0x21 SWAP2 CODECOPY PUSH1 0x40 ADD SWAP2 POP POP PUSH1 0x40 MLOAD DUP1 SWAP2 SUB SWAP1 REVERT JUMPDEST PUSH2 0x2DFA DUP3 PUSH1 0x0 DUP4 PUSH2 0x2481 JUMP JUMPDEST PUSH2 0x2E37 DUP2 PUSH1 0x40 MLOAD DUP1 PUSH1 0x60 ADD PUSH1 0x40 MSTORE DUP1 PUSH1 0x22 DUP2 MSTORE PUSH1 0x20 ADD PUSH2 0x399E PUSH1 0x22 SWAP2 CODECOPY PUSH1 0x1 PUSH1 0x1 PUSH1 0xA0 SHL SUB DUP6 AND PUSH1 0x0 SWAP1 DUP2 MSTORE PUSH1 0x20 DUP2 SWAP1 MSTORE PUSH1 0x40 SWAP1 KECCAK256 SLOAD SWAP2 SWAP1 PUSH2 0x29E4 JUMP JUMPDEST PUSH1 0x1 PUSH1 0x1 PUSH1 0xA0 SHL SUB DUP4 AND PUSH1 0x0 SWAP1 DUP2 MSTORE PUSH1 0x20 DUP2 SWAP1 MSTORE PUSH1 0x40 SWAP1 KECCAK256 SSTORE PUSH1 0x2 SLOAD PUSH2 0x2E5D SWAP1 DUP3 PUSH2 0x24E0 JUMP JUMPDEST PUSH1 0x2 SSTORE PUSH1 0x40 DUP1 MLOAD DUP3 DUP2 MSTORE SWAP1 MLOAD PUSH1 0x0 SWAP2 PUSH1 0x1 PUSH1 0x1 PUSH1 0xA0 SHL SUB DUP6 AND SWAP2 PUSH32 0xDDF252AD1BE2C89B69C2B068FC378DAA952BA7F163C4A11628F55A4DF523B3EF SWAP2 DUP2 SWAP1 SUB PUSH1 0x20 ADD SWAP1 LOG3 POP POP JUMP JUMPDEST PUSH1 0xA SLOAD PUSH1 0x0 SWAP1 PUSH1 0x1 PUSH1 0x80 SHL SWAP1 DIV PUSH1 0x1 PUSH1 0x1 PUSH1 0x80 SHL SUB AND DUP3 SUB DUP1 PUSH2 0x2EEA JUMPI PUSH1 0x9 SLOAD PUSH2 0x2EE2 SWAP1 PUSH1 0x1 PUSH1 0x1 PUSH1 0x80 SHL SUB DUP1 DUP3 AND SWAP2 PUSH1 0x1 PUSH1 0x80 SHL SWAP1 DIV AND PUSH2 0x356F JUMP JUMPDEST SWAP2 POP POP PUSH2 0x155F JUMP JUMPDEST PUSH1 0x9 SLOAD PUSH1 0x0 SWAP1 PUSH2 0x2F1F SWAP1 PUSH1 0x1 PUSH1 0x1 PUSH1 0x80 SHL SUB AND PUSH2 0x1519 PUSH8 0x1BC16D674EC80000 JUMPDEST PUSH1 0xA SLOAD SWAP2 SWAP1 DIV SWAP1 PUSH1 0x1 PUSH1 0x1 PUSH1 0x80 SHL SUB AND PUSH2 0x3591 JUMP JUMPDEST PUSH1 0x9 SLOAD SWAP1 SWAP2 POP PUSH1 0x0 SWAP1 PUSH2 0x2F4D SWAP1 PUSH1 0x1 PUSH1 0x80 SHL SWAP1 DIV PUSH1 0x1 PUSH1 0x1 PUSH1 0x80 SHL SUB AND PUSH2 0x2A31 PUSH8 0x1BC16D674EC80000 PUSH2 0x2F0A JUMP JUMPDEST SWAP1 POP PUSH2 0x2F7F PUSH2 0x2F78 PUSH1 0x0 NOT DUP6 ADD PUSH2 0x1519 PUSH8 0x1BC16D674EC80000 JUMPDEST DIV PUSH8 0xDE0B6B3A7640000 SUB SWAP1 PUSH2 0x35E0 JUMP JUMPDEST DUP4 SWAP1 PUSH2 0x3690 JUMP JUMPDEST SWAP2 POP PUSH2 0x2FA4 PUSH2 0x2F9D PUSH1 0x0 NOT DUP6 ADD PUSH2 0x2A31 PUSH8 0x1BC16D674EC80000 PUSH2 0x2F67 JUMP JUMPDEST DUP3 SWAP1 PUSH2 0x3690 JUMP JUMPDEST SWAP1 POP PUSH2 0x2FB0 DUP3 DUP3 PUSH2 0x356F JUMP JUMPDEST SWAP6 SWAP5 POP POP POP POP POP JUMP JUMPDEST PUSH1 0x0 PUSH8 0x1480CC142DA92A84 DUP3 LT PUSH2 0x2FD8 JUMPI POP PUSH7 0x1550F7DCA70000 PUSH2 0x155F JUMP JUMPDEST PUSH8 0xDE0B6B3A7640000 DUP3 LT PUSH2 0x30C9 JUMPI PUSH8 0x10A741A462780000 DUP3 GT ISZERO PUSH2 0x306A JUMPI PUSH8 0x10A741A46277FFFF NOT DUP3 ADD PUSH1 0x0 PUSH2 0x3010 DUP3 PUSH1 0x3 PUSH2 0x35E0 JUMP JUMPDEST SWAP1 POP PUSH2 0x2710 PUSH2 0x3059 PUSH2 0x3030 DUP5 PUSH1 0x9 PUSH9 0xD8D726B7177A80000 JUMPDEST DIV SWAP1 PUSH2 0x3690 JUMP JUMPDEST PUSH2 0x2558 PUSH2 0x3049 DUP6 PUSH1 0x1B PUSH10 0x43C33C1937564800000 PUSH2 0x3029 JUMP JUMPDEST PUSH9 0x1FA48421EC7B1ED09 SWAP1 PUSH2 0x2486 JUMP JUMPDEST DUP2 PUSH2 0x3060 JUMPI INVALID JUMPDEST DIV SWAP3 POP POP POP PUSH2 0x155F JUMP JUMPDEST PUSH8 0x10A741A462780000 DUP3 SWAP1 SUB PUSH1 0x0 PUSH2 0x3083 DUP3 PUSH1 0x3 PUSH2 0x35E0 JUMP JUMPDEST SWAP1 POP PUSH2 0x2710 PUSH2 0x3059 PUSH2 0x30A0 DUP5 PUSH1 0x9 PUSH9 0xD8D726B7177A80000 PUSH2 0x3029 JUMP JUMPDEST PUSH2 0xA80 PUSH2 0x30B9 DUP6 PUSH1 0x1B PUSH10 0x43C33C1937564800000 PUSH2 0x3029 JUMP JUMPDEST PUSH9 0x1FA48421EC7B1ED09 SWAP1 PUSH2 0x24E0 JUMP JUMPDEST PUSH1 0x0 PUSH8 0xB9A1192183A0000 DUP4 GT PUSH2 0x30EB JUMPI PUSH8 0xB9A1192183A0000 DUP4 SWAP1 SUB PUSH2 0x30F8 JUMP JUMPDEST PUSH8 0xB9A11921839FFFF NOT DUP4 ADD JUMPDEST SWAP1 POP PUSH2 0x3105 DUP2 PUSH1 0x2 PUSH2 0x35E0 JUMP JUMPDEST SWAP1 POP PUSH1 0x0 PUSH2 0x312E PUSH2 0x311C DUP4 PUSH6 0xB5E620F48000 PUSH2 0x2486 JUMP JUMPDEST PUSH2 0x2552 PUSH8 0x4563918244F40000 DUP6 PUSH2 0x2BC3 JUMP JUMPDEST SWAP1 POP PUSH8 0xB9A1192183A0000 DUP5 GT ISZERO PUSH2 0x3156 JUMPI PUSH2 0x2710 PUSH2 0x3059 PUSH9 0x1161163AE0DE59A92 DUP4 PUSH2 0x2486 JUMP JUMPDEST PUSH2 0x2710 PUSH2 0x3059 PUSH9 0x1161163AE0DE59A92 DUP4 PUSH2 0x24E0 JUMP JUMPDEST PUSH1 0x0 PUSH2 0x4E20 DUP3 PUSH4 0xFFFFFFFF AND GT PUSH2 0x3184 JUMPI POP DUP2 PUSH2 0xF9F JUMP JUMPDEST PUSH2 0xC350 DUP3 PUSH4 0xFFFFFFFF AND GT PUSH2 0x31A2 JUMPI PUSH1 0x1E PUSH1 0x14 DUP5 MUL JUMPDEST DIV SWAP1 POP PUSH2 0xF9F JUMP JUMPDEST PUSH3 0x30D40 DUP3 PUSH4 0xFFFFFFFF AND GT PUSH2 0x31BD JUMPI PUSH1 0x1E PUSH1 0xA DUP5 MUL PUSH2 0x319A JUMP JUMPDEST PUSH1 0x1E PUSH1 0x4 DUP5 MUL PUSH2 0x319A JUMP JUMPDEST PUSH1 0x60 PUSH2 0x321D DUP3 PUSH1 0x40 MLOAD DUP1 PUSH1 0x40 ADD PUSH1 0x40 MSTORE DUP1 PUSH1 0x20 DUP2 MSTORE PUSH1 0x20 ADD PUSH32 0x5361666545524332303A206C6F772D6C6576656C2063616C6C206661696C6564 DUP2 MSTORE POP DUP6 PUSH1 0x1 PUSH1 0x1 PUSH1 0xA0 SHL SUB AND PUSH2 0x36AC SWAP1 SWAP3 SWAP2 SWAP1 PUSH4 0xFFFFFFFF AND JUMP JUMPDEST DUP1 MLOAD SWAP1 SWAP2 POP ISZERO PUSH2 0x2481 JUMPI DUP1 DUP1 PUSH1 0x20 ADD SWAP1 MLOAD PUSH1 0x20 DUP2 LT ISZERO PUSH2 0x323C JUMPI PUSH1 0x0 DUP1 REVERT JUMPDEST POP MLOAD PUSH2 0x2481 JUMPI PUSH1 0x40 MLOAD PUSH3 0x461BCD PUSH1 0xE5 SHL DUP2 MSTORE PUSH1 0x4 ADD DUP1 DUP1 PUSH1 0x20 ADD DUP3 DUP2 SUB DUP3 MSTORE PUSH1 0x2A DUP2 MSTORE PUSH1 0x20 ADD DUP1 PUSH2 0x3B25 PUSH1 0x2A SWAP2 CODECOPY PUSH1 0x40 ADD SWAP2 POP POP PUSH1 0x40 MLOAD DUP1 SWAP2 SUB SWAP1 REVERT JUMPDEST PUSH1 0x0 DUP1 DUP3 GT PUSH2 0x32CF JUMPI PUSH1 0x40 DUP1 MLOAD PUSH3 0x461BCD PUSH1 0xE5 SHL DUP2 MSTORE PUSH1 0x20 PUSH1 0x4 DUP3 ADD MSTORE PUSH1 0x1A PUSH1 0x24 DUP3 ADD MSTORE PUSH32 0x536166654D6174683A206469766973696F6E206279207A65726F000000000000 PUSH1 0x44 DUP3 ADD MSTORE SWAP1 MLOAD SWAP1 DUP2 SWAP1 SUB PUSH1 0x64 ADD SWAP1 REVERT JUMPDEST DUP2 DUP4 DUP2 PUSH2 0x32D8 JUMPI INVALID JUMPDEST DIV SWAP4 SWAP3 POP POP POP JUMP JUMPDEST PUSH1 0xA SLOAD PUSH1 0x0 SWAP1 PUSH1 0x1 PUSH1 0x80 SHL SWAP1 DIV PUSH1 0x1 PUSH1 0x1 PUSH1 0x80 SHL SUB AND DUP4 SUB DUP1 PUSH2 0x338E JUMPI PUSH1 0xA SLOAD PUSH2 0x3352 SWAP1 PUSH2 0x3317 SWAP1 PUSH1 0x1 PUSH1 0x1 PUSH1 0x80 SHL SUB AND DUP6 PUSH2 0x2486 JUMP JUMPDEST PUSH1 0x40 MLOAD DUP1 PUSH1 0x40 ADD PUSH1 0x40 MSTORE DUP1 PUSH1 0x1A DUP2 MSTORE PUSH1 0x20 ADD PUSH32 0x766F6C756D6520657863656564732076616C69642072616E6765000000000000 DUP2 MSTORE POP PUSH2 0x36C3 JUMP JUMPDEST PUSH1 0xA DUP1 SLOAD PUSH1 0x1 PUSH1 0x1 PUSH1 0x80 SHL SUB NOT AND PUSH1 0x1 PUSH1 0x1 PUSH1 0x80 SHL SUB SWAP3 DUP4 AND OR SWAP1 SSTORE PUSH1 0x9 SLOAD PUSH2 0x3386 SWAP2 DUP2 DUP2 AND SWAP2 PUSH1 0x1 PUSH1 0x80 SHL SWAP1 DIV AND PUSH2 0x356F JUMP JUMPDEST SWAP2 POP POP PUSH2 0xF9F JUMP JUMPDEST PUSH1 0xA SLOAD PUSH1 0x9 SLOAD PUSH1 0x1 PUSH1 0x1 PUSH1 0x80 SHL SUB SWAP2 DUP3 AND SWAP2 PUSH1 0x0 SWAP2 PUSH2 0x33B9 SWAP2 AND PUSH2 0x1519 PUSH8 0x1BC16D674EC80000 PUSH2 0x2F0A JUMP JUMPDEST PUSH1 0x9 SLOAD SWAP1 SWAP2 POP PUSH1 0x0 SWAP1 PUSH2 0x33E7 SWAP1 PUSH1 0x1 PUSH1 0x80 SHL SWAP1 DIV PUSH1 0x1 PUSH1 0x1 PUSH1 0x80 SHL SUB AND PUSH2 0x2A31 PUSH8 0x1BC16D674EC80000 PUSH2 0x2F0A JUMP JUMPDEST SWAP1 POP PUSH2 0x3405 PUSH2 0x2F78 PUSH1 0x0 NOT DUP7 ADD PUSH2 0x1519 PUSH8 0x1BC16D674EC80000 PUSH2 0x2F67 JUMP JUMPDEST SWAP2 POP PUSH2 0x3423 PUSH2 0x2F9D PUSH1 0x0 NOT DUP7 ADD PUSH2 0x2A31 PUSH8 0x1BC16D674EC80000 PUSH2 0x2F67 JUMP JUMPDEST SWAP1 POP PUSH2 0x342E DUP3 PUSH2 0x3724 JUMP JUMPDEST PUSH1 0x9 DUP1 SLOAD PUSH1 0x1 PUSH1 0x1 PUSH1 0x80 SHL SUB NOT AND PUSH1 0x1 PUSH1 0x1 PUSH1 0x80 SHL SUB SWAP3 SWAP1 SWAP3 AND SWAP2 SWAP1 SWAP2 OR SWAP1 SSTORE PUSH2 0x3457 DUP2 PUSH2 0x3724 JUMP JUMPDEST PUSH1 0x9 DUP1 SLOAD PUSH1 0x1 PUSH1 0x1 PUSH1 0x80 SHL SUB SWAP3 DUP4 AND PUSH1 0x1 PUSH1 0x80 SHL MUL SWAP3 AND SWAP2 SWAP1 SWAP2 OR SWAP1 SSTORE PUSH2 0x347D DUP7 PUSH2 0x3724 JUMP JUMPDEST PUSH1 0xA DUP1 SLOAD PUSH1 0x1 PUSH1 0x1 PUSH1 0x80 SHL SUB NOT AND PUSH1 0x1 PUSH1 0x1 PUSH1 0x80 SHL SUB SWAP3 SWAP1 SWAP3 AND SWAP2 SWAP1 SWAP2 OR SWAP1 SSTORE PUSH2 0x34A6 DUP8 PUSH2 0x3724 JUMP JUMPDEST PUSH1 0xA DUP1 SLOAD PUSH1 0x1 PUSH1 0x1 PUSH1 0x80 SHL SUB SWAP3 DUP4 AND PUSH1 0x1 PUSH1 0x80 SHL MUL SWAP1 DUP4 AND OR SWAP1 SSTORE PUSH1 0x40 DUP1 MLOAD DUP5 DUP2 MSTORE PUSH1 0x20 DUP2 ADD DUP5 SWAP1 MSTORE SWAP2 DUP6 AND DUP3 DUP3 ADD MSTORE PUSH1 0x60 DUP3 ADD DUP7 SWAP1 MSTORE MLOAD PUSH32 0x96E2C334D3C0FA98C8B728EE84471864FFE5B28E05F46E52F8A469D0AB3A8B8B SWAP2 DUP2 SWAP1 SUB PUSH1 0x80 ADD SWAP1 LOG1 PUSH2 0x3512 DUP3 DUP3 PUSH2 0x356F JUMP JUMPDEST SWAP8 SWAP7 POP POP POP POP POP POP POP JUMP JUMPDEST PUSH1 0x0 PUSH1 0x1 PUSH1 0x1 PUSH1 0x70 SHL SUB DUP3 GT ISZERO PUSH2 0x356B JUMPI PUSH1 0x40 DUP1 MLOAD PUSH3 0x461BCD PUSH1 0xE5 SHL DUP2 MSTORE PUSH1 0x20 PUSH1 0x4 DUP3 ADD MSTORE PUSH1 0xD PUSH1 0x24 DUP3 ADD MSTORE PUSH13 0x444D4D3A204F564552464C4F57 PUSH1 0x98 SHL PUSH1 0x44 DUP3 ADD MSTORE SWAP1 MLOAD SWAP1 DUP2 SWAP1 SUB PUSH1 0x64 ADD SWAP1 REVERT JUMPDEST POP SWAP1 JUMP JUMPDEST PUSH1 0x0 DUP2 PUSH2 0x357E JUMPI POP PUSH1 0x0 PUSH2 0xF9F JUMP JUMPDEST DUP2 PUSH8 0xDE0B6B3A7640000 DUP5 MUL DUP2 PUSH2 0x32D8 JUMPI INVALID JUMPDEST PUSH1 0x0 PUSH8 0xDE0B6B3A7640000 DUP4 LT PUSH2 0x35A4 JUMPI INVALID JUMPDEST PUSH8 0xDE0B6B3A7640000 DUP3 PUSH1 0x1 PUSH1 0x1 PUSH1 0x80 SHL SUB AND DUP5 MUL DUP6 PUSH1 0x1 PUSH1 0x1 PUSH1 0x80 SHL SUB AND DUP6 PUSH8 0xDE0B6B3A7640000 SUB MUL ADD DUP2 PUSH2 0x35D7 JUMPI INVALID JUMPDEST DIV SWAP5 SWAP4 POP POP POP POP JUMP JUMPDEST PUSH1 0x0 PUSH8 0xDE0B6B3A7640000 DUP4 GT ISZERO PUSH2 0x3638 JUMPI PUSH1 0x40 DUP1 MLOAD PUSH3 0x461BCD PUSH1 0xE5 SHL DUP2 MSTORE PUSH1 0x20 PUSH1 0x4 DUP3 ADD MSTORE PUSH1 0x16 PUSH1 0x24 DUP3 ADD MSTORE PUSH22 0x26B0BA3422BC3A1D103C101F10282922A1A4A9A4A7A7 PUSH1 0x51 SHL PUSH1 0x44 DUP3 ADD MSTORE SWAP1 MLOAD SWAP1 DUP2 SWAP1 SUB PUSH1 0x64 ADD SWAP1 REVERT JUMPDEST PUSH1 0x2 DUP3 MOD PUSH2 0x364E JUMPI PUSH8 0xDE0B6B3A7640000 PUSH2 0x3650 JUMP JUMPDEST DUP3 JUMPDEST SWAP1 POP PUSH1 0x2 DUP3 DIV SWAP2 POP JUMPDEST DUP2 ISZERO PUSH2 0xF9F JUMPI PUSH8 0xDE0B6B3A7640000 DUP4 DUP1 MUL DIV SWAP3 POP PUSH1 0x2 DUP3 MOD ISZERO PUSH2 0x3685 JUMPI PUSH8 0xDE0B6B3A7640000 SWAP1 DUP4 MUL DIV JUMPDEST PUSH1 0x2 DUP3 DIV SWAP2 POP PUSH2 0x3659 JUMP JUMPDEST PUSH1 0x0 PUSH8 0xDE0B6B3A7640000 PUSH2 0x36A5 DUP5 DUP5 PUSH2 0x2BC3 JUMP JUMPDEST DUP2 PUSH2 0x32D8 JUMPI INVALID JUMPDEST PUSH1 0x60 PUSH2 0x36BB DUP5 DUP5 PUSH1 0x0 DUP6 PUSH2 0x3775 JUMP JUMPDEST SWAP5 SWAP4 POP POP POP POP JUMP JUMPDEST PUSH1 0x0 DUP2 PUSH1 0x1 PUSH1 0x1 PUSH1 0x80 SHL SUB DUP5 GT ISZERO PUSH2 0x371C JUMPI PUSH1 0x40 MLOAD PUSH3 0x461BCD PUSH1 0xE5 SHL DUP2 MSTORE PUSH1 0x20 PUSH1 0x4 DUP3 ADD DUP2 DUP2 MSTORE DUP4 MLOAD PUSH1 0x24 DUP5 ADD MSTORE DUP4 MLOAD SWAP1 SWAP3 DUP4 SWAP3 PUSH1 0x44 SWAP1 SWAP2 ADD SWAP2 SWAP1 DUP6 ADD SWAP1 DUP1 DUP4 DUP4 PUSH1 0x0 DUP4 ISZERO PUSH2 0x2A38 JUMPI DUP2 DUP2 ADD MLOAD DUP4 DUP3 ADD MSTORE PUSH1 0x20 ADD PUSH2 0x2A20 JUMP JUMPDEST POP SWAP2 SWAP3 SWAP2 POP POP JUMP JUMPDEST PUSH1 0x0 PUSH1 0x1 PUSH1 0x1 PUSH1 0x80 SHL SUB DUP3 GT ISZERO PUSH2 0x356B JUMPI PUSH1 0x40 DUP1 MLOAD PUSH3 0x461BCD PUSH1 0xE5 SHL DUP2 MSTORE PUSH1 0x20 PUSH1 0x4 DUP3 ADD MSTORE PUSH1 0x10 PUSH1 0x24 DUP3 ADD MSTORE PUSH16 0xDEECCAE4CCD8DEEE40EAD2DCE862647 PUSH1 0x83 SHL PUSH1 0x44 DUP3 ADD MSTORE SWAP1 MLOAD SWAP1 DUP2 SWAP1 SUB PUSH1 0x64 ADD SWAP1 REVERT JUMPDEST PUSH1 0x60 DUP3 SELFBALANCE LT ISZERO PUSH2 0x37B6 JUMPI PUSH1 0x40 MLOAD PUSH3 0x461BCD PUSH1 0xE5 SHL DUP2 MSTORE PUSH1 0x4 ADD DUP1 DUP1 PUSH1 0x20 ADD DUP3 DUP2 SUB DUP3 MSTORE PUSH1 0x26 DUP2 MSTORE PUSH1 0x20 ADD DUP1 PUSH2 0x3A08 PUSH1 0x26 SWAP2 CODECOPY PUSH1 0x40 ADD SWAP2 POP POP PUSH1 0x40 MLOAD DUP1 SWAP2 SUB SWAP1 REVERT JUMPDEST PUSH2 0x37BF DUP6 PUSH2 0x38C6 JUMP JUMPDEST PUSH2 0x3810 JUMPI PUSH1 0x40 DUP1 MLOAD PUSH3 0x461BCD PUSH1 0xE5 SHL DUP2 MSTORE PUSH1 0x20 PUSH1 0x4 DUP3 ADD MSTORE PUSH1 0x1D PUSH1 0x24 DUP3 ADD MSTORE PUSH32 0x416464726573733A2063616C6C20746F206E6F6E2D636F6E7472616374000000 PUSH1 0x44 DUP3 ADD MSTORE SWAP1 MLOAD SWAP1 DUP2 SWAP1 SUB PUSH1 0x64 ADD SWAP1 REVERT JUMPDEST PUSH1 0x0 PUSH1 0x60 DUP7 PUSH1 0x1 PUSH1 0x1 PUSH1 0xA0 SHL SUB AND DUP6 DUP8 PUSH1 0x40 MLOAD DUP1 DUP3 DUP1 MLOAD SWAP1 PUSH1 0x20 ADD SWAP1 DUP1 DUP4 DUP4 JUMPDEST PUSH1 0x20 DUP4 LT PUSH2 0x384F JUMPI DUP1 MLOAD DUP3 MSTORE PUSH1 0x1F NOT SWAP1 SWAP3 ADD SWAP2 PUSH1 0x20 SWAP2 DUP3 ADD SWAP2 ADD PUSH2 0x3830 JUMP JUMPDEST PUSH1 0x1 DUP4 PUSH1 0x20 SUB PUSH2 0x100 EXP SUB DUP1 NOT DUP3 MLOAD AND DUP2 DUP5 MLOAD AND DUP1 DUP3 OR DUP6 MSTORE POP POP POP POP POP POP SWAP1 POP ADD SWAP2 POP POP PUSH1 0x0 PUSH1 0x40 MLOAD DUP1 DUP4 SUB DUP2 DUP6 DUP8 GAS CALL SWAP3 POP POP POP RETURNDATASIZE DUP1 PUSH1 0x0 DUP2 EQ PUSH2 0x38B1 JUMPI PUSH1 0x40 MLOAD SWAP2 POP PUSH1 0x1F NOT PUSH1 0x3F RETURNDATASIZE ADD AND DUP3 ADD PUSH1 0x40 MSTORE RETURNDATASIZE DUP3 MSTORE RETURNDATASIZE PUSH1 0x0 PUSH1 0x20 DUP5 ADD RETURNDATACOPY PUSH2 0x38B6 JUMP JUMPDEST PUSH1 0x60 SWAP2 POP JUMPDEST POP SWAP2 POP SWAP2 POP PUSH2 0x3512 DUP3 DUP3 DUP7 PUSH2 0x38CC JUMP JUMPDEST EXTCODESIZE ISZERO ISZERO SWAP1 JUMP JUMPDEST PUSH1 0x60 DUP4 ISZERO PUSH2 0x38DB JUMPI POP DUP2 PUSH2 0x1064 JUMP JUMPDEST DUP3 MLOAD ISZERO PUSH2 0x38EB JUMPI DUP3 MLOAD DUP1 DUP5 PUSH1 0x20 ADD REVERT JUMPDEST PUSH1 0x40 MLOAD PUSH3 0x461BCD PUSH1 0xE5 SHL DUP2 MSTORE PUSH1 0x20 PUSH1 0x4 DUP3 ADD DUP2 DUP2 MSTORE DUP5 MLOAD PUSH1 0x24 DUP5 ADD MSTORE DUP5 MLOAD DUP6 SWAP4 SWAP2 SWAP3 DUP4 SWAP3 PUSH1 0x44 ADD SWAP2 SWAP1 DUP6 ADD SWAP1 DUP1 DUP4 DUP4 PUSH1 0x0 DUP4 ISZERO PUSH2 0x2A38 JUMPI DUP2 DUP2 ADD MLOAD DUP4 DUP3 ADD MSTORE PUSH1 0x20 ADD PUSH2 0x2A20 JUMP JUMPDEST PUSH1 0x40 MLOAD DUP1 PUSH1 0x80 ADD PUSH1 0x40 MSTORE DUP1 PUSH1 0x0 DUP2 MSTORE PUSH1 0x20 ADD PUSH1 0x0 DUP2 MSTORE PUSH1 0x20 ADD PUSH1 0x0 DUP2 MSTORE PUSH1 0x20 ADD PUSH1 0x0 DUP2 MSTORE POP SWAP1 JUMP INVALID GASLIMIT MSTORE NUMBER ORIGIN ADDRESS GASPRICE KECCAK256 PUSH21 0x72616E7366657220746F20746865207A65726F2061 PUSH5 0x6472657373 MSTORE PUSH6 0x656E7472616E PUSH4 0x79477561 PUSH19 0x643A207265656E7472616E742063616C6C0045 MSTORE NUMBER ORIGIN ADDRESS GASPRICE KECCAK256 PUSH3 0x75726E KECCAK256 PUSH2 0x6D6F PUSH22 0x6E7420657863656564732062616C616E636545524332 ADDRESS GASPRICE KECCAK256 PUSH2 0x7070 PUSH19 0x6F766520746F20746865207A65726F20616464 PUSH19 0x65737345524332303A207472616E7366657220 PUSH2 0x6D6F PUSH22 0x6E7420657863656564732062616C616E636541646472 PUSH6 0x73733A20696E PUSH20 0x756666696369656E742062616C616E636520666F PUSH19 0x2063616C6C444D4D3A20494E53554646494349 GASLIMIT 0x4E SLOAD 0x5F 0x4C 0x49 MLOAD SSTORE 0x49 DIFFICULTY 0x49 SLOAD MSIZE 0x5F TIMESTAMP SSTORE MSTORE 0x4E GASLIMIT DIFFICULTY MSTORE8 PUSH2 0x6665 0x4D PUSH2 0x7468 GASPRICE KECCAK256 PUSH14 0x756C7469706C69636174696F6E20 PUSH16 0x766572666C6F7745524332303A207472 PUSH2 0x6E73 PUSH7 0x657220616D6F75 PUSH15 0x74206578636565647320616C6C6F77 PUSH2 0x6E63 PUSH6 0x444D4D3A2049 0x4E MSTORE8 SSTORE CHAINID CHAINID 0x49 NUMBER 0x49 GASLIMIT 0x4E SLOAD 0x5F 0x4C 0x49 MLOAD SSTORE 0x49 DIFFICULTY 0x49 SLOAD MSIZE 0x5F 0x4D 0x49 0x4E SLOAD GASLIMIT DIFFICULTY GASLIMIT MSTORE NUMBER ORIGIN ADDRESS GASPRICE KECCAK256 PUSH3 0x75726E KECCAK256 PUSH7 0x726F6D20746865 KECCAK256 PUSH27 0x65726F206164647265737345524332303A207472616E7366657220 PUSH7 0x726F6D20746865 KECCAK256 PUSH27 0x65726F206164647265737345524332303A20617070726F76652066 PUSH19 0x6F6D20746865207A65726F2061646472657373 MSTORE8 PUSH2 0x6665 GASLIMIT MSTORE NUMBER ORIGIN ADDRESS GASPRICE KECCAK256 GASLIMIT MSTORE NUMBER ORIGIN ADDRESS KECCAK256 PUSH16 0x7065726174696F6E20646964206E6F74 KECCAK256 PUSH20 0x75636365656445524332303A2064656372656173 PUSH6 0x6420616C6C6F PUSH24 0x616E63652062656C6F77207A65726FA26469706673582212 KECCAK256 DUP16 0xEB LT 0x2F 0xCB SHL SWAP7 CODESIZE 0xC6 ADDRESS 0xB6 0x1E DIFFICULTY 0xDD PUSH2 0x388 PUSH21 0xDF21E6AF9EA1179B3DD8FE0EB6F664736F6C634300 MOD 0xC STOP CALLER "
		},
		"gasEstimates": {
			"creation": {
				"codeDepositCost": "3054600",
				"executionCost": "infinite",
				"totalCost": "infinite"
			},
			"external": {
				"MINIMUM_LIQUIDITY()": "309",
				"PERMIT_TYPEHASH()": "266",
				"allowance(address,address)": "1316",
				"ampBps()": "1075",
				"approve(address,uint256)": "infinite",
				"balanceOf(address)": "1265",
				"burn(address)": "infinite",
				"decimals()": "1103",
				"decreaseAllowance(address,uint256)": "infinite",
				"domainSeparator()": "1086",
				"factory()": "1104",
				"getReserves()": "1202",
				"getTradeInfo()": "infinite",
				"getVolumeTrendData()": "2050",
				"increaseAllowance(address,uint256)": "infinite",
				"initialize(address,address,uint32)": "63763",
				"kLast()": "1044",
				"mint(address)": "infinite",
				"name()": "infinite",
				"nonces(address)": "1192",
				"permit(address,address,uint256,uint256,uint8,bytes32,bytes32)": "infinite",
				"skim(address)": "infinite",
				"swap(uint256,uint256,address,bytes)": "infinite",
				"symbol()": "infinite",
				"sync()": "infinite",
				"token0()": "1127",
				"token1()": "1126",
				"totalSupply()": "1110",
				"transfer(address,uint256)": "infinite",
				"transferFrom(address,address,uint256)": "infinite"
			},
			"internal": {
				"_mintFee(bool,struct DMMPool.ReserveData memory)": "infinite",
				"_update(bool,struct DMMPool.ReserveData memory)": "infinite",
				"getFinalFee(uint256,uint32)": "157",
				"getK(bool,struct DMMPool.ReserveData memory)": "infinite",
				"getReservesData()": "infinite",
				"safeUint112(uint256)": "infinite",
				"verifyBalanceAndUpdateEma(uint256,uint256,uint256,uint256,uint256,uint256)": "infinite"
			}
		},
		"methodIdentifiers": {
			"MINIMUM_LIQUIDITY()": "ba9a7a56",
			"PERMIT_TYPEHASH()": "30adf81f",
			"allowance(address,address)": "dd62ed3e",
			"ampBps()": "49386b16",
			"approve(address,uint256)": "095ea7b3",
			"balanceOf(address)": "70a08231",
			"burn(address)": "89afcb44",
			"decimals()": "313ce567",
			"decreaseAllowance(address,uint256)": "a457c2d7",
			"domainSeparator()": "f698da25",
			"factory()": "c45a0155",
			"getReserves()": "0902f1ac",
			"getTradeInfo()": "d6694027",
			"getVolumeTrendData()": "0d94d50b",
			"increaseAllowance(address,uint256)": "39509351",
			"initialize(address,address,uint32)": "6ecf2b22",
			"kLast()": "7464fc3d",
			"mint(address)": "6a627842",
			"name()": "06fdde03",
			"nonces(address)": "7ecebe00",
			"permit(address,address,uint256,uint256,uint8,bytes32,bytes32)": "d505accf",
			"skim(address)": "bc25cf77",
			"swap(uint256,uint256,address,bytes)": "022c0d9f",
			"symbol()": "95d89b41",
			"sync()": "fff6cae9",
			"token0()": "0dfe1681",
			"token1()": "d21220a7",
			"totalSupply()": "18160ddd",
			"transfer(address,uint256)": "a9059cbb",
			"transferFrom(address,address,uint256)": "23b872dd"
		}
	},
	"abi": [
		{
			"inputs": [],
			"stateMutability": "nonpayable",
			"type": "constructor"
		},
		{
			"anonymous": false,
			"inputs": [
				{
					"indexed": true,
					"internalType": "address",
					"name": "owner",
					"type": "address"
				},
				{
					"indexed": true,
					"internalType": "address",
					"name": "spender",
					"type": "address"
				},
				{
					"indexed": false,
					"internalType": "uint256",
					"name": "value",
					"type": "uint256"
				}
			],
			"name": "Approval",
			"type": "event"
		},
		{
			"anonymous": false,
			"inputs": [
				{
					"indexed": true,
					"internalType": "address",
					"name": "sender",
					"type": "address"
				},
				{
					"indexed": false,
					"internalType": "uint256",
					"name": "amount0",
					"type": "uint256"
				},
				{
					"indexed": false,
					"internalType": "uint256",
					"name": "amount1",
					"type": "uint256"
				},
				{
					"indexed": true,
					"internalType": "address",
					"name": "to",
					"type": "address"
				}
			],
			"name": "Burn",
			"type": "event"
		},
		{
			"anonymous": false,
			"inputs": [
				{
					"indexed": true,
					"internalType": "address",
					"name": "sender",
					"type": "address"
				},
				{
					"indexed": false,
					"internalType": "uint256",
					"name": "amount0",
					"type": "uint256"
				},
				{
					"indexed": false,
					"internalType": "uint256",
					"name": "amount1",
					"type": "uint256"
				}
			],
			"name": "Mint",
			"type": "event"
		},
		{
			"anonymous": false,
			"inputs": [
				{
					"indexed": true,
					"internalType": "address",
					"name": "sender",
					"type": "address"
				},
				{
					"indexed": false,
					"internalType": "uint256",
					"name": "amount0In",
					"type": "uint256"
				},
				{
					"indexed": false,
					"internalType": "uint256",
					"name": "amount1In",
					"type": "uint256"
				},
				{
					"indexed": false,
					"internalType": "uint256",
					"name": "amount0Out",
					"type": "uint256"
				},
				{
					"indexed": false,
					"internalType": "uint256",
					"name": "amount1Out",
					"type": "uint256"
				},
				{
					"indexed": true,
					"internalType": "address",
					"name": "to",
					"type": "address"
				},
				{
					"indexed": false,
					"internalType": "uint256",
					"name": "feeInPrecision",
					"type": "uint256"
				}
			],
			"name": "Swap",
			"type": "event"
		},
		{
			"anonymous": false,
			"inputs": [
				{
					"indexed": false,
					"internalType": "uint256",
					"name": "vReserve0",
					"type": "uint256"
				},
				{
					"indexed": false,
					"internalType": "uint256",
					"name": "vReserve1",
					"type": "uint256"
				},
				{
					"indexed": false,
					"internalType": "uint256",
					"name": "reserve0",
					"type": "uint256"
				},
				{
					"indexed": false,
					"internalType": "uint256",
					"name": "reserve1",
					"type": "uint256"
				}
			],
			"name": "Sync",
			"type": "event"
		},
		{
			"anonymous": false,
			"inputs": [
				{
					"indexed": true,
					"internalType": "address",
					"name": "from",
					"type": "address"
				},
				{
					"indexed": true,
					"internalType": "address",
					"name": "to",
					"type": "address"
				},
				{
					"indexed": false,
					"internalType": "uint256",
					"name": "value",
					"type": "uint256"
				}
			],
			"name": "Transfer",
			"type": "event"
		},
		{
			"anonymous": false,
			"inputs": [
				{
					"indexed": false,
					"internalType": "uint256",
					"name": "shortEMA",
					"type": "uint256"
				},
				{
					"indexed": false,
					"internalType": "uint256",
					"name": "longEMA",
					"type": "uint256"
				},
				{
					"indexed": false,
					"internalType": "uint128",
					"name": "lastBlockVolume",
					"type": "uint128"
				},
				{
					"indexed": false,
					"internalType": "uint256",
					"name": "skipBlock",
					"type": "uint256"
				}
			],
			"name": "UpdateEMA",
			"type": "event"
		},
		{
			"inputs": [],
			"name": "MINIMUM_LIQUIDITY",
			"outputs": [
				{
					"internalType": "uint256",
					"name": "",
					"type": "uint256"
				}
			],
			"stateMutability": "view",
			"type": "function"
		},
		{
			"inputs": [],
			"name": "PERMIT_TYPEHASH",
			"outputs": [
				{
					"internalType": "bytes32",
					"name": "",
					"type": "bytes32"
				}
			],
			"stateMutability": "view",
			"type": "function"
		},
		{
			"inputs": [
				{
					"internalType": "address",
					"name": "owner",
					"type": "address"
				},
				{
					"internalType": "address",
					"name": "spender",
					"type": "address"
				}
			],
			"name": "allowance",
			"outputs": [
				{
					"internalType": "uint256",
					"name": "",
					"type": "uint256"
				}
			],
			"stateMutability": "view",
			"type": "function"
		},
		{
			"inputs": [],
			"name": "ampBps",
			"outputs": [
				{
					"internalType": "uint32",
					"name": "",
					"type": "uint32"
				}
			],
			"stateMutability": "view",
			"type": "function"
		},
		{
			"inputs": [
				{
					"internalType": "address",
					"name": "spender",
					"type": "address"
				},
				{
					"internalType": "uint256",
					"name": "amount",
					"type": "uint256"
				}
			],
			"name": "approve",
			"outputs": [
				{
					"internalType": "bool",
					"name": "",
					"type": "bool"
				}
			],
			"stateMutability": "nonpayable",
			"type": "function"
		},
		{
			"inputs": [
				{
					"internalType": "address",
					"name": "account",
					"type": "address"
				}
			],
			"name": "balanceOf",
			"outputs": [
				{
					"internalType": "uint256",
					"name": "",
					"type": "uint256"
				}
			],
			"stateMutability": "view",
			"type": "function"
		},
		{
			"inputs": [
				{
					"internalType": "address",
					"name": "to",
					"type": "address"
				}
			],
			"name": "burn",
			"outputs": [
				{
					"internalType": "uint256",
					"name": "amount0",
					"type": "uint256"
				},
				{
					"internalType": "uint256",
					"name": "amount1",
					"type": "uint256"
				}
			],
			"stateMutability": "nonpayable",
			"type": "function"
		},
		{
			"inputs": [],
			"name": "decimals",
			"outputs": [
				{
					"internalType": "uint8",
					"name": "",
					"type": "uint8"
				}
			],
			"stateMutability": "view",
			"type": "function"
		},
		{
			"inputs": [
				{
					"internalType": "address",
					"name": "spender",
					"type": "address"
				},
				{
					"internalType": "uint256",
					"name": "subtractedValue",
					"type": "uint256"
				}
			],
			"name": "decreaseAllowance",
			"outputs": [
				{
					"internalType": "bool",
					"name": "",
					"type": "bool"
				}
			],
			"stateMutability": "nonpayable",
			"type": "function"
		},
		{
			"inputs": [],
			"name": "domainSeparator",
			"outputs": [
				{
					"internalType": "bytes32",
					"name": "",
					"type": "bytes32"
				}
			],
			"stateMutability": "view",
			"type": "function"
		},
		{
			"inputs": [],
			"name": "factory",
			"outputs": [
				{
					"internalType": "contract IDMMFactory",
					"name": "",
					"type": "address"
				}
			],
			"stateMutability": "view",
			"type": "function"
		},
		{
			"inputs": [],
			"name": "getReserves",
			"outputs": [
				{
					"internalType": "uint112",
					"name": "_reserve0",
					"type": "uint112"
				},
				{
					"internalType": "uint112",
					"name": "_reserve1",
					"type": "uint112"
				}
			],
			"stateMutability": "view",
			"type": "function"
		},
		{
			"inputs": [],
			"name": "getTradeInfo",
			"outputs": [
				{
					"internalType": "uint112",
					"name": "_reserve0",
					"type": "uint112"
				},
				{
					"internalType": "uint112",
					"name": "_reserve1",
					"type": "uint112"
				},
				{
					"internalType": "uint112",
					"name": "_vReserve0",
					"type": "uint112"
				},
				{
					"internalType": "uint112",
					"name": "_vReserve1",
					"type": "uint112"
				},
				{
					"internalType": "uint256",
					"name": "feeInPrecision",
					"type": "uint256"
				}
			],
			"stateMutability": "view",
			"type": "function"
		},
		{
			"inputs": [],
			"name": "getVolumeTrendData",
			"outputs": [
				{
					"internalType": "uint128",
					"name": "_shortEMA",
					"type": "uint128"
				},
				{
					"internalType": "uint128",
					"name": "_longEMA",
					"type": "uint128"
				},
				{
					"internalType": "uint128",
					"name": "_currentBlockVolume",
					"type": "uint128"
				},
				{
					"internalType": "uint128",
					"name": "_lastTradeBlock",
					"type": "uint128"
				}
			],
			"stateMutability": "view",
			"type": "function"
		},
		{
			"inputs": [
				{
					"internalType": "address",
					"name": "spender",
					"type": "address"
				},
				{
					"internalType": "uint256",
					"name": "addedValue",
					"type": "uint256"
				}
			],
			"name": "increaseAllowance",
			"outputs": [
				{
					"internalType": "bool",
					"name": "",
					"type": "bool"
				}
			],
			"stateMutability": "nonpayable",
			"type": "function"
		},
		{
			"inputs": [
				{
					"internalType": "contract IERC20",
					"name": "_token0",
					"type": "address"
				},
				{
					"internalType": "contract IERC20",
					"name": "_token1",
					"type": "address"
				},
				{
					"internalType": "uint32",
					"name": "_ampBps",
					"type": "uint32"
				}
			],
			"name": "initialize",
			"outputs": [],
			"stateMutability": "nonpayable",
			"type": "function"
		},
		{
			"inputs": [],
			"name": "kLast",
			"outputs": [
				{
					"internalType": "uint256",
					"name": "",
					"type": "uint256"
				}
			],
			"stateMutability": "view",
			"type": "function"
		},
		{
			"inputs": [
				{
					"internalType": "address",
					"name": "to",
					"type": "address"
				}
			],
			"name": "mint",
			"outputs": [
				{
					"internalType": "uint256",
					"name": "liquidity",
					"type": "uint256"
				}
			],
			"stateMutability": "nonpayable",
			"type": "function"
		},
		{
			"inputs": [],
			"name": "name",
			"outputs": [
				{
					"internalType": "string",
					"name": "",
					"type": "string"
				}
			],
			"stateMutability": "view",
			"type": "function"
		},
		{
			"inputs": [
				{
					"internalType": "address",
					"name": "",
					"type": "address"
				}
			],
			"name": "nonces",
			"outputs": [
				{
					"internalType": "uint256",
					"name": "",
					"type": "uint256"
				}
			],
			"stateMutability": "view",
			"type": "function"
		},
		{
			"inputs": [
				{
					"internalType": "address",
					"name": "owner",
					"type": "address"
				},
				{
					"internalType": "address",
					"name": "spender",
					"type": "address"
				},
				{
					"internalType": "uint256",
					"name": "value",
					"type": "uint256"
				},
				{
					"internalType": "uint256",
					"name": "deadline",
					"type": "uint256"
				},
				{
					"internalType": "uint8",
					"name": "v",
					"type": "uint8"
				},
				{
					"internalType": "bytes32",
					"name": "r",
					"type": "bytes32"
				},
				{
					"internalType": "bytes32",
					"name": "s",
					"type": "bytes32"
				}
			],
			"name": "permit",
			"outputs": [],
			"stateMutability": "nonpayable",
			"type": "function"
		},
		{
			"inputs": [
				{
					"internalType": "address",
					"name": "to",
					"type": "address"
				}
			],
			"name": "skim",
			"outputs": [],
			"stateMutability": "nonpayable",
			"type": "function"
		},
		{
			"inputs": [
				{
					"internalType": "uint256",
					"name": "amount0Out",
					"type": "uint256"
				},
				{
					"internalType": "uint256",
					"name": "amount1Out",
					"type": "uint256"
				},
				{
					"internalType": "address",
					"name": "to",
					"type": "address"
				},
				{
					"internalType": "bytes",
					"name": "callbackData",
					"type": "bytes"
				}
			],
			"name": "swap",
			"outputs": [],
			"stateMutability": "nonpayable",
			"type": "function"
		},
		{
			"inputs": [],
			"name": "symbol",
			"outputs": [
				{
					"internalType": "string",
					"name": "",
					"type": "string"
				}
			],
			"stateMutability": "view",
			"type": "function"
		},
		{
			"inputs": [],
			"name": "sync",
			"outputs": [],
			"stateMutability": "nonpayable",
			"type": "function"
		},
		{
			"inputs": [],
			"name": "token0",
			"outputs": [
				{
					"internalType": "contract IERC20",
					"name": "",
					"type": "address"
				}
			],
			"stateMutability": "view",
			"type": "function"
		},
		{
			"inputs": [],
			"name": "token1",
			"outputs": [
				{
					"internalType": "contract IERC20",
					"name": "",
					"type": "address"
				}
			],
			"stateMutability": "view",
			"type": "function"
		},
		{
			"inputs": [],
			"name": "totalSupply",
			"outputs": [
				{
					"internalType": "uint256",
					"name": "",
					"type": "uint256"
				}
			],
			"stateMutability": "view",
			"type": "function"
		},
		{
			"inputs": [
				{
					"internalType": "address",
					"name": "recipient",
					"type": "address"
				},
				{
					"internalType": "uint256",
					"name": "amount",
					"type": "uint256"
				}
			],
			"name": "transfer",
			"outputs": [
				{
					"internalType": "bool",
					"name": "",
					"type": "bool"
				}
			],
			"stateMutability": "nonpayable",
			"type": "function"
		},
		{
			"inputs": [
				{
					"internalType": "address",
					"name": "sender",
					"type": "address"
				},
				{
					"internalType": "address",
					"name": "recipient",
					"type": "address"
				},
				{
					"internalType": "uint256",
					"name": "amount",
					"type": "uint256"
				}
			],
			"name": "transferFrom",
			"outputs": [
				{
					"internalType": "bool",
					"name": "",
					"type": "bool"
				}
			],
			"stateMutability": "nonpayable",
			"type": "function"
		}
	]
}