{
  "_format": "hh-sol-artifact-1",
  "contractName": "DMMFactory",
  "sourceName": "contracts/DMMFactory.sol",
  "abi": [
    {
      "inputs": [
        {
          "internalType": "address",
          "name": "_feeToSetter",
          "type": "address"
        }
      ],
      "stateMutability": "nonpayable",
      "type": "constructor"
    },
    {
      "anonymous": false,
      "inputs": [
        {
          "indexed": true,
          "internalType": "contract IERC20",
          "name": "token0",
          "type": "address"
        },
        {
          "indexed": true,
          "internalType": "contract IERC20",
          "name": "token1",
          "type": "address"
        },
        {
          "indexed": false,
          "internalType": "address",
          "name": "pool",
          "type": "address"
        },
        {
          "indexed": false,
          "internalType": "uint32",
          "name": "ampBps",
          "type": "uint32"
        },
        {
          "indexed": false,
          "internalType": "uint256",
          "name": "totalPool",
          "type": "uint256"
        }
      ],
      "name": "PoolCreated",
      "type": "event"
    },
    {
      "anonymous": false,
      "inputs": [
        {
          "indexed": false,
          "internalType": "address",
          "name": "feeTo",
          "type": "address"
        },
        {
          "indexed": false,
          "internalType": "uint16",
          "name": "governmentFeeBps",
          "type": "uint16"
        }
      ],
      "name": "SetFeeConfiguration",
      "type": "event"
    },
    {
      "anonymous": false,
      "inputs": [
        {
          "indexed": false,
          "internalType": "address",
          "name": "feeToSetter",
          "type": "address"
        }
      ],
      "name": "SetFeeToSetter",
      "type": "event"
    },
    {
      "inputs": [
        {
          "internalType": "uint256",
          "name": "",
          "type": "uint256"
        }
      ],
      "name": "allPools",
      "outputs": [
        {
          "internalType": "address",
          "name": "",
          "type": "address"
        }
      ],
      "stateMutability": "view",
      "type": "function"
    },
    {
      "inputs": [],
      "name": "allPoolsLength",
      "outputs": [
        {
          "internalType": "uint256",
          "name": "",
          "type": "uint256"
        }
      ],
      "stateMutability": "view",
      "type": "function"
    },
    {
      "inputs": [
        {
          "internalType": "contract IERC20",
          "name": "tokenA",
          "type": "address"
        },
        {
          "internalType": "contract IERC20",
          "name": "tokenB",
          "type": "address"
        },
        {
          "internalType": "uint32",
          "name": "ampBps",
          "type": "uint32"
        }
      ],
      "name": "createPool",
      "outputs": [
        {
          "internalType": "address",
          "name": "pool",
          "type": "address"
        }
      ],
      "stateMutability": "nonpayable",
      "type": "function"
    },
    {
      "inputs": [],
      "name": "feeToSetter",
      "outputs": [
        {
          "internalType": "address",
          "name": "",
          "type": "address"
        }
      ],
      "stateMutability": "view",
      "type": "function"
    },
    {
      "inputs": [],
      "name": "getFeeConfiguration",
      "outputs": [
        {
          "internalType": "address",
          "name": "_feeTo",
          "type": "address"
        },
        {
          "internalType": "uint16",
          "name": "_governmentFeeBps",
          "type": "uint16"
        }
      ],
      "stateMutability": "view",
      "type": "function"
    },
    {
      "inputs": [
        {
          "internalType": "contract IERC20",
          "name": "token0",
          "type": "address"
        },
        {
          "internalType": "contract IERC20",
          "name": "token1",
          "type": "address"
        },
        {
          "internalType": "uint256",
          "name": "index",
          "type": "uint256"
        }
      ],
      "name": "getPoolAtIndex",
      "outputs": [
        {
          "internalType": "address",
          "name": "pool",
          "type": "address"
        }
      ],
      "stateMutability": "view",
      "type": "function"
    },
    {
      "inputs": [
        {
          "internalType": "contract IERC20",
          "name": "token0",
          "type": "address"
        },
        {
          "internalType": "contract IERC20",
          "name": "token1",
          "type": "address"
        }
      ],
      "name": "getPools",
      "outputs": [
        {
          "internalType": "address[]",
          "name": "_tokenPools",
          "type": "address[]"
        }
      ],
      "stateMutability": "view",
      "type": "function"
    },
    {
      "inputs": [
        {
          "internalType": "contract IERC20",
          "name": "token0",
          "type": "address"
        },
        {
          "internalType": "contract IERC20",
          "name": "token1",
          "type": "address"
        }
      ],
      "name": "getPoolsLength",
      "outputs": [
        {
          "internalType": "uint256",
          "name": "",
          "type": "uint256"
        }
      ],
      "stateMutability": "view",
      "type": "function"
    },
    {
      "inputs": [
        {
          "internalType": "contract IERC20",
          "name": "",
          "type": "address"
        },
        {
          "internalType": "contract IERC20",
          "name": "",
          "type": "address"
        }
      ],
      "name": "getUnamplifiedPool",
      "outputs": [
        {
          "internalType": "address",
          "name": "",
          "type": "address"
        }
      ],
      "stateMutability": "view",
      "type": "function"
    },
    {
      "inputs": [
        {
          "internalType": "contract IERC20",
          "name": "token0",
          "type": "address"
        },
        {
          "internalType": "contract IERC20",
          "name": "token1",
          "type": "address"
        },
        {
          "internalType": "address",
          "name": "pool",
          "type": "address"
        }
      ],
      "name": "isPool",
      "outputs": [
        {
          "internalType": "bool",
          "name": "",
          "type": "bool"
        }
      ],
      "stateMutability": "view",
      "type": "function"
    },
    {
      "inputs": [
        {
          "internalType": "address",
          "name": "_feeTo",
          "type": "address"
        },
        {
          "internalType": "uint16",
          "name": "_governmentFeeBps",
          "type": "uint16"
        }
      ],
      "name": "setFeeConfiguration",
      "outputs": [],
      "stateMutability": "nonpayable",
      "type": "function"
    },
    {
      "inputs": [
        {
          "internalType": "address",
          "name": "_feeToSetter",
          "type": "address"
        }
      ],
      "name": "setFeeToSetter",
      "outputs": [],
      "stateMutability": "nonpayable",
      "type": "function"
    }
  ],
  "bytecode": "0x608060405234801561001057600080fd5b50604051614b53380380614b538339818101604052602081101561003357600080fd5b5051600180546001600160a01b0319166001600160a01b03909216919091179055614af0806100636000396000f3fe60806040523480156200001157600080fd5b5060043610620000c45760003560e01c806365da9289116200007b57806365da9289146200023b5780638fd648401462000274578063a2e74af614620002b4578063ad5cb2e114620002dd578063eb787f61146200030d578063efde4e64146200035c57620000c4565b8063094b741514620000c95780632900909d14620000ef5780633d82497e146200012457806341d1de971462000155578063538633df14620001755780635b1dc86f14620001b8575b600080fd5b620000d362000366565b604080516001600160a01b039092168252519081900360200190f35b62000122600480360360408110156200010757600080fd5b5080356001600160a01b0316906020013561ffff1662000375565b005b620000d3600480360360408110156200013c57600080fd5b506001600160a01b038135811691602001351662000499565b620000d3600480360360208110156200016d57600080fd5b5035620004bf565b620001a6600480360360408110156200018d57600080fd5b506001600160a01b0381358116916020013516620004e7565b60408051918252519081900360200190f35b620001e960048036036040811015620001d057600080fd5b506001600160a01b038135811691602001351662000522565b60408051602080825283518183015283519192839290830191858101910280838360005b83811015620002275781810151838201526020016200020d565b505050509050019250505060405180910390f35b620000d3600480360360608110156200025357600080fd5b506001600160a01b0381358116916020810135909116906040013562000613565b620000d3600480360360608110156200028c57600080fd5b5080356001600160a01b03908116916020810135909116906040013563ffffffff166200064e565b6200012260048036036020811015620002cc57600080fd5b50356001600160a01b031662000a3c565b620002e762000ae1565b604080516001600160a01b03909316835261ffff90911660208301528051918290030190f35b62000348600480360360608110156200032557600080fd5b506001600160a01b03813581169160208101358216916040909101351662000afe565b604080519115158252519081900360200190f35b620001a662000b31565b6001546001600160a01b031681565b6001546001600160a01b03163314620003c6576040805162461bcd60e51b815260206004820152600e60248201526d2226a69d102327a92124a22222a760911b604482015290519081900360640190fd5b60008161ffff16118015620003e057506107d08161ffff16105b62000425576040805162461bcd60e51b815260206004820152601060248201526f444d4d3a20494e56414c49442046454560801b604482015290519081900360640190fd5b6000805461ffff8316600160a01b810261ffff60a01b196001600160a01b0387166001600160a01b03199094168417161790925560408051918252602082019290925281517fce65ee4e1b50c25affcecb736ecf577b5c46ff900efade2a6214267a8707628e929181900390910190a15050565b60036020908152600092835260408084209091529082529020546001600160a01b031681565b60048181548110620004cd57fe5b6000918252602090912001546001600160a01b0316905081565b6001600160a01b0380831660009081526002602090815260408083209385168352929052908120620005199062000b37565b90505b92915050565b6001600160a01b038083166000908152600260209081526040808320938516835292905290812060609190620005589062000b37565b90508067ffffffffffffffff811180156200057257600080fd5b506040519080825280602002602001820160405280156200059d578160200160208202803683370190505b50915060005b818110156200060b576001600160a01b038086166000908152600260209081526040808320938816835292905220620005dd908262000b44565b838281518110620005ea57fe5b6001600160a01b0390921660209283029190910190910152600101620005a3565b505092915050565b6001600160a01b038084166000908152600260209081526040808320938616835292905290812062000646908362000b44565b949350505050565b6000826001600160a01b0316846001600160a01b03161415620006b8576040805162461bcd60e51b815260206004820152601860248201527f444d4d3a204944454e544943414c5f4144445245535345530000000000000000604482015290519081900360640190fd5b600080846001600160a01b0316866001600160a01b031610620006dd578486620006e0565b85855b90925090506001600160a01b03821662000735576040805162461bcd60e51b8152602060048201526011602482015270444d4d3a205a45524f5f4144445245535360781b604482015290519081900360640190fd5b6127108463ffffffff16101562000786576040805162461bcd60e51b815260206004820152601060248201526f444d4d3a20494e56414c49445f42505360801b604482015290519081900360640190fd5b6127108463ffffffff16141580620007c357506001600160a01b038281166000908152600360209081526040808320858516845290915290205416155b62000815576040805162461bcd60e51b815260206004820152601c60248201527f444d4d3a20554e414d504c49464945445f504f4f4c5f45584953545300000000604482015290519081900360640190fd5b604051620008239062000c52565b604051809103906000f08015801562000840573d6000803e3d6000fd5b509250826001600160a01b0316636ecf2b228383876040518463ffffffff1660e01b815260040180846001600160a01b03168152602001836001600160a01b031681526020018263ffffffff1681526020019350505050600060405180830381600087803b158015620008b257600080fd5b505af1158015620008c7573d6000803e3d6000fd5b5050506001600160a01b038084166000908152600260209081526040808320938616835292905220620008fc91508462000b52565b506001600160a01b0380821660009081526002602090815260408083209386168352929052206200092e908462000b52565b506127108463ffffffff16141562000994576001600160a01b038083166000818152600360208181526040808420878716855282528084208054968a166001600160a01b0319978816811790915592825280842094845293905291902080549092161790555b6004805460018101825560008290527f8a35acfbc15ff81a39ae7d344fd709f28e8600b4aa8c65c6b64bfe7fe36bd19b0180546001600160a01b038087166001600160a01b0319909216821790925591546040805193845263ffffffff88166020850152838101919091525183821692918516917ffc574402c445e75f2b79b67884ff9c662244dce454c5ae68935fcd0bebb7c8ff919081900360600190a350509392505050565b6001546001600160a01b0316331462000a8d576040805162461bcd60e51b815260206004820152600e60248201526d2226a69d102327a92124a22222a760911b604482015290519081900360640190fd5b600180546001600160a01b0383166001600160a01b0319909116811790915560408051918252517f66330d9620e4f36ed52d5f7b79fa819b71c33037004c3889a3601b06c68da7cc9181900360200190a150565b6000546001600160a01b03811691600160a01b90910461ffff1690565b6001600160a01b038084166000908152600260209081526040808320938616835292905290812062000646908362000b69565b60045490565b60006200051c8262000b80565b600062000519838362000b84565b600062000519836001600160a01b03841662000beb565b600062000519836001600160a01b03841662000c3a565b5490565b8154600090821062000bc85760405162461bcd60e51b815260040180806020018281038252602281526020018062004a996022913960400191505060405180910390fd5b82600001828154811062000bd857fe5b9060005260206000200154905092915050565b600062000bf9838362000c3a565b62000c31575081546001818101845560008481526020808220909301849055845484825282860190935260409020919091556200051c565b5060006200051c565b60009081526001919091016020526040902054151590565b613e388062000c618339019056fe60806040523480156200001157600080fd5b5060006040518060400160405280600a81526020016904f726368617264204c560b41b8152506040518060400160405280600681526020016504f52432d4c560d41b815250604051806040016040528060018152602001603160f81b815250828281600390805190602001906200008a929190620001ed565b508051620000a0906004906020840190620001ed565b50506005805460ff19166012179055508251602093840120815191840191909120604080517f8b73c3c69bb8fe3d512ecc4cf759cc79239f7b179b0ffacaa9a75d522b39400f818701528082019390935260608301919091524660808301523060a0808401919091528151808403909101815260c09092019052805192019190912060065550600160085560098054600160801b6001600160801b038085169182026001600160801b03199093169190911716179055620001614362000197565b600a80546001600160801b03928316600160801b02921691909117905550600b80546001600160a01b031916331790556200027f565b60006001600160801b03821115620001e9576040805162461bcd60e51b815260206004820152601060248201526f0deeccae4ccd8deee40ead2dce86264760831b604482015290519081900360640190fd5b5090565b828054600181600116156101000203166002900490600052602060002090601f016020900481019282601f106200023057805160ff191683800117855562000260565b8280016001018555821562000260579182015b828111156200026057825182559160200191906001019062000243565b50620001e99291505b80821115620001e9576000815560010162000269565b613ba9806200028f6000396000f3fe608060405234801561001057600080fd5b50600436106101da5760003560e01c80637464fc3d11610104578063bc25cf77116100a2578063d669402711610071578063d669402714610667578063dd62ed3e146106aa578063f698da25146106d8578063fff6cae9146106e0576101da565b8063bc25cf77146105e0578063c45a015514610606578063d21220a71461060e578063d505accf14610616576101da565b806395d89b41116100de57806395d89b4114610578578063a457c2d714610580578063a9059cbb146105ac578063ba9a7a56146105d8576101da565b80637464fc3d1461050b5780637ecebe001461051357806389afcb4414610539576101da565b806323b872dd1161017c57806349386b161161014b57806349386b16146104615780636a627842146104825780636ecf2b22146104a857806370a08231146104e5576101da565b806323b872dd146103d957806330adf81f1461040f578063313ce567146104175780633950935114610435576101da565b8063095ea7b3116101b8578063095ea7b31461031f5780630d94d50b1461035f5780630dfe16811461039b57806318160ddd146103bf576101da565b8063022c0d9f146101df57806306fdde031461026b5780630902f1ac146102e8575b600080fd5b610269600480360360808110156101f557600080fd5b8135916020810135916001600160a01b036040830135169190810190608081016060820135600160201b81111561022b57600080fd5b82018360208201111561023d57600080fd5b803590602001918460018302840111600160201b8311171561025e57600080fd5b5090925090506106e8565b005b610273610c31565b6040805160208082528351818301528351919283929083019185019080838360005b838110156102ad578181015183820152602001610295565b50505050905090810190601f1680156102da5780820380516001836020036101000a031916815260200191505b509250505060405180910390f35b6102f0610f6c565b60405180836001600160701b03168152602001826001600160701b031681526020019250505060405180910390f35b61034b6004803603604081101561033557600080fd5b506001600160a01b038135169060200135610f87565b604080519115158252519081900360200190f35b610367610fa5565b604080516001600160801b039586168152938516602085015291841683830152909216606082015290519081900360800190f35b6103a3610fce565b604080516001600160a01b039092168252519081900360200190f35b6103c7610fdd565b60408051918252519081900360200190f35b61034b600480360360608110156103ef57600080fd5b506001600160a01b03813581169160208101359091169060400135610fe3565b6103c761106b565b61041f61108f565b6040805160ff9092168252519081900360200190f35b61034b6004803603604081101561044b57600080fd5b506001600160a01b038135169060200135611098565b6104696110e6565b6040805163ffffffff9092168252519081900360200190f35b6103c76004803603602081101561049857600080fd5b50356001600160a01b03166110f9565b610269600480360360608110156104be57600080fd5b5080356001600160a01b03908116916020810135909116906040013563ffffffff166114a0565b6103c7600480360360208110156104fb57600080fd5b50356001600160a01b0316611545565b6103c7611564565b6103c76004803603602081101561052957600080fd5b50356001600160a01b031661156a565b61055f6004803603602081101561054f57600080fd5b50356001600160a01b031661157c565b6040805192835260208301919091528051918290030190f35b610273611a25565b61034b6004803603604081101561059657600080fd5b506001600160a01b038135169060200135611cc6565b61034b600480360360408110156105c257600080fd5b506001600160a01b038135169060200135611d2e565b6103c7611d42565b610269600480360360208110156105f657600080fd5b50356001600160a01b0316611d48565b6103a3611ebf565b6103a3611ece565b610269600480360360e081101561062c57600080fd5b506001600160a01b03813581169160208101359091169060408101359060608101359060ff6080820135169060a08101359060c00135611edd565b61066f6120e1565b604080516001600160701b03968716815294861660208601529285168484015293166060830152608082019290925290519081900360a00190f35b6103c7600480360360408110156106c057600080fd5b506001600160a01b0381358116916020013516612152565b6103c761217d565b610269612183565b6002600854141561072e576040805162461bcd60e51b815260206004820152601f602482015260008051602061397e833981519152604482015290519081900360640190fd5b6002600855841515806107415750600084115b610792576040805162461bcd60e51b815260206004820152601f60248201527f444d4d3a20494e53554646494349454e545f4f55545055545f414d4f554e5400604482015290519081900360640190fd5b600061079c613932565b6107a46123c8565b80519193509150871080156107bc5750806020015186105b61080d576040805162461bcd60e51b815260206004820152601b60248201527f444d4d3a20494e53554646494349454e545f4c49515549444954590000000000604482015290519081900360640190fd5b610815613932565b600c54600d546001600160a01b0391821691908116908816821480159061084e5750806001600160a01b0316886001600160a01b031614155b610891576040805162461bcd60e51b815260206004820152600f60248201526e444d4d3a20494e56414c49445f544f60881b604482015290519081900360640190fd5b89156108ab576108ab6001600160a01b038316898c61242f565b88156108c5576108c56001600160a01b038216898b61242f565b851561097757876001600160a01b03166381279c7e338c8c8b8b6040518663ffffffff1660e01b815260040180866001600160a01b03168152602001858152602001848152602001806020018281038252848482818152602001925080828437600081840152601f19601f8201169050808301925050509650505050505050600060405180830381600087803b15801561095e57600080fd5b505af1158015610972573d6000803e3d6000fd5b505050505b604080516370a0823160e01b815230600482015290516001600160a01b038416916370a08231916024808301926020929190829003018186803b1580156109bd57600080fd5b505afa1580156109d1573d6000803e3d6000fd5b505050506040513d60208110156109e757600080fd5b50518352604080516370a0823160e01b815230600482015290516001600160a01b038316916370a08231916024808301926020929190829003018186803b158015610a3157600080fd5b505afa158015610a45573d6000803e3d6000fd5b505050506040513d6020811015610a5b57600080fd5b505160208401528415610aaf57835183516040860151610a869291610a809190612486565b906124e0565b6040840152602080850151908401516060860151610aa99291610a809190612486565b60608401525b5050815181516000918a900310610ac7576000610ad2565b82518251908a900390035b9050600088846020015103836020015111610aee576000610afc565b888460200151038360200151035b90506000821180610b0d5750600081115b610b5e576040805162461bcd60e51b815260206004820152601e60248201527f444d4d3a20494e53554646494349454e545f494e5055545f414d4f554e540000604482015290519081900360640190fd5b6000610bb8838388610b71578751610b77565b87604001515b89610b86578860200151610b8c565b88606001515b8a610b98578851610b9e565b88604001515b8b610bad578960200151610bb3565b89606001515b61253d565b9050610bc48685612658565b60408051848152602081018490528082018d9052606081018c90526080810183905290516001600160a01b038b169133917f606ecd02b3e3b4778f8e97b2e03351de14224efaa5fa64e62200afc9395c24999181900360a00190a350506001600855505050505050505050565b600c54600d54604080516395d89b4160e01b815290516060936001600160a01b0390811693169183916395d89b4191600480820192600092909190829003018186803b158015610c8057600080fd5b505afa158015610c94573d6000803e3d6000fd5b505050506040513d6000823e601f3d908101601f191682016040526020811015610cbd57600080fd5b8101908080516040519392919084600160201b821115610cdc57600080fd5b908301906020820185811115610cf157600080fd5b8251600160201b811182820188101715610d0a57600080fd5b82525081516020918201929091019080838360005b83811015610d37578181015183820152602001610d1f565b50505050905090810190601f168015610d645780820380516001836020036101000a031916815260200191505b50604052505050816001600160a01b03166395d89b416040518163ffffffff1660e01b815260040160006040518083038186803b158015610da457600080fd5b505afa158015610db8573d6000803e3d6000fd5b505050506040513d6000823e601f3d908101601f191682016040526020811015610de157600080fd5b8101908080516040519392919084600160201b821115610e0057600080fd5b908301906020820185811115610e1557600080fd5b8251600160201b811182820188101715610e2e57600080fd5b82525081516020918201929091019080838360005b83811015610e5b578181015183820152602001610e43565b50505050905090810190601f168015610e885780820380516001836020036101000a031916815260200191505b5060405250505060405160200180806a027b931b430b932102628160ad1b815250600b0183805190602001908083835b60208310610ed75780518252601f199092019160209182019101610eb8565b6001836020036101000a03801982511681845116808217855250505050505090500180602d60f81b81525060010182805190602001908083835b60208310610f305780518252601f199092019160209182019101610f11565b6001836020036101000a038019825116818451168082178552505050505050905001925050506040516020818303038152906040529250505090565b600e546001600160701b0380821692600160701b9092041690565b6000610f9b610f94612799565b848461279d565b5060015b92915050565b600954600a546001600160801b0380831693600160801b93849004821693838316930490911690565b600c546001600160a01b031681565b60025490565b6000610ff0848484612889565b61106084610ffc612799565b61105b85604051806060016040528060288152602001613a71602891396001600160a01b038a1660009081526001602052604081209061103a612799565b6001600160a01b0316815260208101919091526040016000205491906129e4565b61279d565b5060015b9392505050565b7f6e71edae12b1b97f4d1f60370fef10105fa2faae0126114a169c64845d6126c981565b60055460ff1690565b6000610f9b6110a5612799565b8461105b85600160006110b6612799565b6001600160a01b03908116825260208083019390935260409182016000908120918c168152925290205490612486565b600e54600160e01b900463ffffffff1681565b600060026008541415611141576040805162461bcd60e51b815260206004820152601f602482015260008051602061397e833981519152604482015290519081900360640190fd5b60026008556000611150613932565b6111586123c8565b91509150611164613932565b600c54604080516370a0823160e01b815230600482015290516001600160a01b03909216916370a0823191602480820192602092909190829003018186803b1580156111af57600080fd5b505afa1580156111c3573d6000803e3d6000fd5b505050506040513d60208110156111d957600080fd5b50518152600d54604080516370a0823160e01b815230600482015290516001600160a01b03909216916370a0823191602480820192602092909190829003018186803b15801561122857600080fd5b505afa15801561123c573d6000803e3d6000fd5b505050506040513d602081101561125257600080fd5b505160208201528151815160009161126a91906124e0565b90506000611289846020015184602001516124e090919063ffffffff16565b905060006112978686612a7b565b905060006112a3610fdd565b90508061133a57861561130d57600e54855163ffffffff600160e01b909204821691612710916112d5918490612bc316565b816112dc57fe5b0460408701526020860151612710906112fe9063ffffffff80851690612bc316565b8161130557fe5b046060870152505b6113256103e8610a806113208787612bc3565b612c1c565b97506113356000196103e8612c6d565b6113ed565b85516113779061134a8684612bc3565b8161135157fe5b04876020015161136a8487612bc390919063ffffffff16565b8161137157fe5b04612d5d565b975086156113ed57600061138b8983612486565b90506113ba826113a8838a60400151612bc390919063ffffffff16565b816113af57fe5b048760000151612d73565b604087015260608701516113e69083906113d49084612bc3565b816113db57fe5b048760200151612d73565b6060870152505b6000881161142c5760405162461bcd60e51b8152600401808060200182810382526022815260200180613a996022913960400191505060405180910390fd5b6114368989612c6d565b6114408786612658565b8115611454576114508786612d83565b6010555b6040805185815260208101859052815133927f4c209b5fc8ad50758f13e2e1088ba56a560dff690a1c6fef26394f4c03821c4f928290030190a250506001600855509395945050505050565b600b546001600160a01b031633146114f0576040805162461bcd60e51b815260206004820152600e60248201526d2226a69d102327a92124a22222a760911b604482015290519081900360640190fd5b600c80546001600160a01b039485166001600160a01b031991821617909155600d805493909416921691909117909155600e805463ffffffff909216600160e01b026001600160e01b03909216919091179055565b6001600160a01b0381166000908152602081905260409020545b919050565b60105481565b60076020526000908152604090205481565b600080600260085414156115c5576040805162461bcd60e51b815260206004820152601f602482015260008051602061397e833981519152604482015290519081900360640190fd5b600260085560006115d4613932565b6115dc6123c8565b600c54600d54604080516370a0823160e01b815230600482015290519496509294506001600160a01b039182169391169160009184916370a08231916024808301926020929190829003018186803b15801561163757600080fd5b505afa15801561164b573d6000803e3d6000fd5b505050506040513d602081101561166157600080fd5b5051604080516370a0823160e01b815230600482015290519192506000916001600160a01b038516916370a08231916024808301926020929190829003018186803b1580156116af57600080fd5b505afa1580156116c3573d6000803e3d6000fd5b505050506040513d60208110156116d957600080fd5b5051855190915082108015906116f3575084602001518110155b61173b576040805162461bcd60e51b8152602060048201526014602482015273444d4d3a20554e53594e435f524553455256455360601b604482015290519081900360640190fd5b600061174630611545565b905060006117548888612a7b565b90506000611760610fdd565b90508061176d8487612bc3565b8161177457fe5b049a50806117828486612bc3565b8161178957fe5b04995060008b11801561179c575060008a115b6117d75760405162461bcd60e51b8152600401808060200182810382526022815260200180613a2e6022913960400191505060405180910390fd5b6117e13084612da9565b6117f56001600160a01b0388168d8d61242f565b6118096001600160a01b0387168d8c61242f565b611811613932565b604080516370a0823160e01b815230600482015290516001600160a01b038a16916370a08231916024808301926020929190829003018186803b15801561185757600080fd5b505afa15801561186b573d6000803e3d6000fd5b505050506040513d602081101561188157600080fd5b50518152604080516370a0823160e01b815230600482015290516001600160a01b038916916370a08231916024808301926020929190829003018186803b1580156118cb57600080fd5b505afa1580156118df573d6000803e3d6000fd5b505050506040513d60208110156118f557600080fd5b50516020820152891561199d578851815160009161193b916119179086612bc3565b8161191e57fe5b048b6020015161136a868660200151612bc390919063ffffffff16565b905061196a83611958838d60400151612bc390919063ffffffff16565b8161195f57fe5b048360000151612d73565b604083015260608a01516119969084906119849084612bc3565b8161198b57fe5b048360200151612d73565b6060830152505b6119a78a82612658565b82156119bb576119b78a82612d83565b6010555b8c6001600160a01b0316336001600160a01b03167fdccd412f0b1252819cb1fd330b93224ca42612892bb3f4f789976e6d819364968e8e604051808381526020018281526020019250505060405180910390a3505050505050505050506001600881905550915091565b600c54600d54604080516395d89b4160e01b815290516060936001600160a01b0390811693169183916395d89b4191600480820192600092909190829003018186803b158015611a7457600080fd5b505afa158015611a88573d6000803e3d6000fd5b505050506040513d6000823e601f3d908101601f191682016040526020811015611ab157600080fd5b8101908080516040519392919084600160201b821115611ad057600080fd5b908301906020820185811115611ae557600080fd5b8251600160201b811182820188101715611afe57600080fd5b82525081516020918201929091019080838360005b83811015611b2b578181015183820152602001611b13565b50505050905090810190601f168015611b585780820380516001836020036101000a031916815260200191505b50604052505050816001600160a01b03166395d89b416040518163ffffffff1660e01b815260040160006040518083038186803b158015611b9857600080fd5b505afa158015611bac573d6000803e3d6000fd5b505050506040513d6000823e601f3d908101601f191682016040526020811015611bd557600080fd5b8101908080516040519392919084600160201b821115611bf457600080fd5b908301906020820185811115611c0957600080fd5b8251600160201b811182820188101715611c2257600080fd5b82525081516020918201929091019080838360005b83811015611c4f578181015183820152602001611c37565b50505050905090810190601f168015611c7c5780820380516001836020036101000a031916815260200191505b50604052505050604051602001808066027a92196a628160cd1b815250600701838051906020019080838360208310610ed75780518252601f199092019160209182019101610eb8565b6000610f9b611cd3612799565b8461105b85604051806060016040528060258152602001613b4f6025913960016000611cfd612799565b6001600160a01b03908116825260208083019390935260409182016000908120918d168152925290205491906129e4565b6000610f9b611d3b612799565b8484612889565b6103e881565b60026008541415611d8e576040805162461bcd60e51b815260206004820152601f602482015260008051602061397e833981519152604482015290519081900360640190fd5b6002600855600e54600c54604080516370a0823160e01b81523060048201529051611e3b938593611e28936001600160701b03909216926001600160a01b03909116916370a08231916024808301926020929190829003018186803b158015611df657600080fd5b505afa158015611e0a573d6000803e3d6000fd5b505050506040513d6020811015611e2057600080fd5b5051906124e0565b600c546001600160a01b0316919061242f565b600e54600d54604080516370a0823160e01b81523060048201529051611eb7938593611ea493600160701b9092046001600160701b0316926001600160a01b03909116916370a08231916024808301926020929190829003018186803b158015611df657600080fd5b600d546001600160a01b0316919061242f565b506001600855565b600b546001600160a01b031681565b600d546001600160a01b031681565b42841015611f29576040805162461bcd60e51b8152602060048201526014602482015273115490cc8c14195c9b5a5d0e881156141254915160621b604482015290519081900360640190fd5b6006546001600160a01b0380891660008181526007602090815260408083208054600180820190925582517f6e71edae12b1b97f4d1f60370fef10105fa2faae0126114a169c64845d6126c98186015280840196909652958d166060860152608085018c905260a085019590955260c08085018b90528151808603909101815260e08501825280519083012061190160f01b6101008601526101028501969096526101228085019690965280518085039096018652610142840180825286519683019690962095839052610162840180825286905260ff89166101828501526101a284018890526101c28401879052519193926101e280820193601f1981019281900390910190855afa158015612044573d6000803e3d6000fd5b5050604051601f1901519150506001600160a01b0381161580159061207a5750886001600160a01b0316816001600160a01b0316145b6120cb576040805162461bcd60e51b815260206004820152601e60248201527f45524332305065726d69743a20494e56414c49445f5349474e41545552450000604482015290519081900360640190fd5b6120d689898961279d565b505050505050505050565b600e54600f546001600160701b0380831692600160701b808204831693838116939190041690600090600160e01b900463ffffffff16612710811415612128578593508492505b600061213343612ea5565b905061214761214182612fb9565b8361316c565b925050509091929394565b6001600160a01b03918216600090815260016020908152604080832093909416825291909152205490565b60065481565b600260085414156121c9576040805162461bcd60e51b815260206004820152601f602482015260008051602061397e833981519152604482015290519081900360640190fd5b600260085560006121d8613932565b6121e06123c8565b9150915060006121f08383612a7b565b90506121fa613932565b600c54604080516370a0823160e01b815230600482015290516001600160a01b03909216916370a0823191602480820192602092909190829003018186803b15801561224557600080fd5b505afa158015612259573d6000803e3d6000fd5b505050506040513d602081101561226f57600080fd5b50518152600d54604080516370a0823160e01b815230600482015290516001600160a01b03909216916370a0823191602480820192602092909190829003018186803b1580156122be57600080fd5b505afa1580156122d2573d6000803e3d6000fd5b505050506040513d60208110156122e857600080fd5b50516020820152831561239f5760006122ff610fdd565b8451835191925060009161233c91906123189085612bc3565b8161231f57fe5b04866020015161136a858760200151612bc390919063ffffffff16565b905061236b82612359838860400151612bc390919063ffffffff16565b8161236057fe5b048460000151612d73565b604084015260608501516123979083906123859084612bc3565b8161238c57fe5b048460200151612d73565b606084015250505b6123a98482612658565b81156123bd576123b98482612d83565b6010555b505060016008555050565b60006123d2613932565b600e546001600160701b038082168352600160701b820416602083015263ffffffff600160e01b90910416612710148015925061242b57600f546001600160701b038082166040840152600160701b9091041660608201525b9091565b604080516001600160a01b038416602482015260448082018490528251808303909101815260649091019091526020810180516001600160e01b031663a9059cbb60e01b1790526124819084906131c8565b505050565b600082820183811015611064576040805162461bcd60e51b815260206004820152601b60248201527f536166654d6174683a206164646974696f6e206f766572666c6f770000000000604482015290519081900360640190fd5b600082821115612537576040805162461bcd60e51b815260206004820152601e60248201527f536166654d6174683a207375627472616374696f6e206f766572666c6f770000604482015290519081900360640190fd5b50900390565b60008061255e88612558876125528a8c612bc3565b90613279565b90612486565b9050600061256c43836132e0565b905061258f61257a82612fb9565b600e54600160e01b900463ffffffff1661316c565b925060006125a586670de0b6b3a7640000612bc3565b90506125bb6125b48b86612bc3565b82906124e0565b9050670de0b6b3a76400008104905060006125de86670de0b6b3a7640000612bc3565b90506125ed6125b48b87612bc3565b670de0b6b3a7640000900490506126048989612bc3565b61260e8383612bc3565b101561264a576040805162461bcd60e51b8152602060048201526006602482015265444d4d3a204b60d01b604482015290519081900360640190fd5b505050509695505050505050565b80516126639061351d565b600e80546001600160701b0319166001600160701b039290921691909117905560208101516126919061351d565b600e806101000a8154816001600160701b0302191690836001600160701b0316021790555081156127415780516040820151108015906126d957508060200151816060015110155b6126df57fe5b6126ec816040015161351d565b600f80546001600160701b0319166001600160701b0392909216919091179055606081015161271a9061351d565b600f600e6101000a8154816001600160701b0302191690836001600160701b031602179055505b6040808201516060808401518451602080870151865195865290850192909252838501529082015290517f2f9d55abfefdfd4c3a83e00a1b419b3c2fe4b83100c559f0e2213e57f6e0bba99181900360800190a15050565b3390565b6001600160a01b0383166127e25760405162461bcd60e51b8152600401808060200182810382526024815260200180613b016024913960400191505060405180910390fd5b6001600160a01b0382166128275760405162461bcd60e51b81526004018080602001828103825260228152602001806139c06022913960400191505060405180910390fd5b6001600160a01b03808416600081815260016020908152604080832094871680845294825291829020859055815185815291517f8c5be1e5ebec7d5bd14f71427d1e84f3dd0314c0f7b2291e5b200ac8c7c3b9259281900390910190a3505050565b6001600160a01b0383166128ce5760405162461bcd60e51b8152600401808060200182810382526025815260200180613adc6025913960400191505060405180910390fd5b6001600160a01b0382166129135760405162461bcd60e51b815260040180806020018281038252602381526020018061395b6023913960400191505060405180910390fd5b61291e838383612481565b61295b816040518060600160405280602681526020016139e2602691396001600160a01b03861660009081526020819052604090205491906129e4565b6001600160a01b03808516600090815260208190526040808220939093559084168152205461298a9082612486565b6001600160a01b038084166000818152602081815260409182902094909455805185815290519193928716927fddf252ad1be2c89b69c2b068fc378daa952ba7f163c4a11628f55a4df523b3ef92918290030190a3505050565b60008184841115612a735760405162461bcd60e51b81526004018080602001828103825283818151815260200191508051906020019080838360005b83811015612a38578181015183820152602001612a20565b50505050905090810190601f168015612a655780820380516001836020036101000a031916815260200191505b509250505060405180910390fd5b505050900390565b6000806000600b60009054906101000a90046001600160a01b03166001600160a01b031663ad5cb2e16040518163ffffffff1660e01b8152600401604080518083038186803b158015612acd57600080fd5b505afa158015612ae1573d6000803e3d6000fd5b505050506040513d6040811015612af757600080fd5b5080516020909101516010546001600160a01b038316158015965092945090925090612bae578015612ba9576000612b326113208888612d83565b90506000612b3f83612c1c565b905080821115612ba6576000612b6e61ffff8616612b68612b6086866124e0565b612b68610fdd565b90612bc3565b90506000612b82611388612b688686612486565b90506000818381612b8f57fe5b0490508015612ba257612ba28882612c6d565b5050505b50505b612bba565b8015612bba5760006010555b50505092915050565b600082612bd257506000610f9f565b82820282848281612bdf57fe5b04146110645760405162461bcd60e51b8152600401808060200182810382526021815260200180613a506021913960400191505060405180910390fd5b60006003821115612c5f575080600160028204015b81811015612c5957809150600281828581612c4857fe5b040181612c5157fe5b049050612c31565b5061155f565b811561155f57506001919050565b6001600160a01b038216612cc8576040805162461bcd60e51b815260206004820152601f60248201527f45524332303a206d696e7420746f20746865207a65726f206164647265737300604482015290519081900360640190fd5b612cd460008383612481565b600254612ce19082612486565b6002556001600160a01b038216600090815260208190526040902054612d079082612486565b6001600160a01b0383166000818152602081815260408083209490945583518581529351929391927fddf252ad1be2c89b69c2b068fc378daa952ba7f163c4a11628f55a4df523b3ef9281900390910190a35050565b6000818310612d6c5781611064565b5090919050565b600081831015612d6c5781611064565b600082612d97576020820151825102611064565b50606081015160409091015102919050565b6001600160a01b038216612dee5760405162461bcd60e51b8152600401808060200182810382526021815260200180613abb6021913960400191505060405180910390fd5b612dfa82600083612481565b612e378160405180606001604052806022815260200161399e602291396001600160a01b03851660009081526020819052604090205491906129e4565b6001600160a01b038316600090815260208190526040902055600254612e5d90826124e0565b6002556040805182815290516000916001600160a01b038516917fddf252ad1be2c89b69c2b068fc378daa952ba7f163c4a11628f55a4df523b3ef9181900360200190a35050565b600a54600090600160801b90046001600160801b0316820380612eea57600954612ee2906001600160801b0380821691600160801b90041661356f565b91505061155f565b600954600090612f1f906001600160801b0316611519671bc16d674ec800005b600a54919004906001600160801b0316613591565b600954909150600090612f4d90600160801b90046001600160801b0316612a31671bc16d674ec80000612f0a565b9050612f7f612f786000198501611519671bc16d674ec800005b04670de0b6b3a764000003906135e0565b8390613690565b9150612fa4612f9d6000198501612a31671bc16d674ec80000612f67565b8290613690565b9050612fb0828261356f565b95945050505050565b6000671480cc142da92a848210612fd85750661550f7dca7000061155f565b670de0b6b3a764000082106130c9576710a741a46278000082111561306a576710a741a46277ffff19820160006130108260036135e0565b9050612710613059613030846009680d8d726b7177a800005b0490613690565b61255861304985601b69043c33c1937564800000613029565b6801fa48421ec7b1ed0990612486565b8161306057fe5b049250505061155f565b6710a741a46278000082900360006130838260036135e0565b90506127106130596130a0846009680d8d726b7177a80000613029565b610a806130b985601b69043c33c1937564800000613029565b6801fa48421ec7b1ed09906124e0565b6000670b9a1192183a000083116130eb57670b9a1192183a00008390036130f8565b670b9a11921839ffff1983015b90506131058160026135e0565b9050600061312e61311c8365b5e620f48000612486565b612552674563918244f4000085612bc3565b9050670b9a1192183a0000841115613156576127106130596801161163ae0de59a9283612486565b6127106130596801161163ae0de59a92836124e0565b6000614e208263ffffffff1611613184575081610f9f565b61c3508263ffffffff16116131a257601e601484025b049050610f9f565b62030d408263ffffffff16116131bd57601e600a840261319a565b601e6004840261319a565b606061321d826040518060400160405280602081526020017f5361666545524332303a206c6f772d6c6576656c2063616c6c206661696c6564815250856001600160a01b03166136ac9092919063ffffffff16565b8051909150156124815780806020019051602081101561323c57600080fd5b50516124815760405162461bcd60e51b815260040180806020018281038252602a815260200180613b25602a913960400191505060405180910390fd5b60008082116132cf576040805162461bcd60e51b815260206004820152601a60248201527f536166654d6174683a206469766973696f6e206279207a65726f000000000000604482015290519081900360640190fd5b8183816132d857fe5b049392505050565b600a54600090600160801b90046001600160801b031683038061338e57600a5461335290613317906001600160801b031685612486565b6040518060400160405280601a81526020017f766f6c756d6520657863656564732076616c69642072616e67650000000000008152506136c3565b600a80546001600160801b0319166001600160801b039283161790556009546133869181811691600160801b90041661356f565b915050610f9f565b600a546009546001600160801b03918216916000916133b99116611519671bc16d674ec80000612f0a565b6009549091506000906133e790600160801b90046001600160801b0316612a31671bc16d674ec80000612f0a565b9050613405612f786000198601611519671bc16d674ec80000612f67565b9150613423612f9d6000198601612a31671bc16d674ec80000612f67565b905061342e82613724565b600980546001600160801b0319166001600160801b039290921691909117905561345781613724565b600980546001600160801b03928316600160801b02921691909117905561347d86613724565b600a80546001600160801b0319166001600160801b03929092169190911790556134a687613724565b600a80546001600160801b03928316600160801b0290831617905560408051848152602081018490529185168282015260608201869052517f96e2c334d3c0fa98c8b728ee84471864ffe5b28e05f46e52f8a469d0ab3a8b8b9181900360800190a1613512828261356f565b979650505050505050565b60006001600160701b0382111561356b576040805162461bcd60e51b815260206004820152600d60248201526c444d4d3a204f564552464c4f5760981b604482015290519081900360640190fd5b5090565b60008161357e57506000610f9f565b81670de0b6b3a76400008402816132d857fe5b6000670de0b6b3a764000083106135a457fe5b670de0b6b3a7640000826001600160801b03168402856001600160801b031685670de0b6b3a7640000030201816135d757fe5b04949350505050565b6000670de0b6b3a7640000831115613638576040805162461bcd60e51b815260206004820152601660248201527526b0ba3422bc3a1d103c101f10282922a1a4a9a4a7a760511b604482015290519081900360640190fd5b6002820661364e57670de0b6b3a7640000613650565b825b90506002820491505b8115610f9f57670de0b6b3a7640000838002049250600282061561368557670de0b6b3a7640000908302045b600282049150613659565b6000670de0b6b3a76400006136a58484612bc3565b816132d857fe5b60606136bb8484600085613775565b949350505050565b6000816001600160801b0384111561371c5760405162461bcd60e51b8152602060048201818152835160248401528351909283926044909101919085019080838360008315612a38578181015183820152602001612a20565b509192915050565b60006001600160801b0382111561356b576040805162461bcd60e51b815260206004820152601060248201526f0deeccae4ccd8deee40ead2dce86264760831b604482015290519081900360640190fd5b6060824710156137b65760405162461bcd60e51b8152600401808060200182810382526026815260200180613a086026913960400191505060405180910390fd5b6137bf856138c6565b613810576040805162461bcd60e51b815260206004820152601d60248201527f416464726573733a2063616c6c20746f206e6f6e2d636f6e7472616374000000604482015290519081900360640190fd5b60006060866001600160a01b031685876040518082805190602001908083835b6020831061384f5780518252601f199092019160209182019101613830565b6001836020036101000a03801982511681845116808217855250505050505090500191505060006040518083038185875af1925050503d80600081146138b1576040519150601f19603f3d011682016040523d82523d6000602084013e6138b6565b606091505b50915091506135128282866138cc565b3b151590565b606083156138db575081611064565b8251156138eb5782518084602001fd5b60405162461bcd60e51b8152602060048201818152845160248401528451859391928392604401919085019080838360008315612a38578181015183820152602001612a20565b604051806080016040528060008152602001600081526020016000815260200160008152509056fe45524332303a207472616e7366657220746f20746865207a65726f20616464726573735265656e7472616e637947756172643a207265656e7472616e742063616c6c0045524332303a206275726e20616d6f756e7420657863656564732062616c616e636545524332303a20617070726f766520746f20746865207a65726f206164647265737345524332303a207472616e7366657220616d6f756e7420657863656564732062616c616e6365416464726573733a20696e73756666696369656e742062616c616e636520666f722063616c6c444d4d3a20494e53554646494349454e545f4c49515549444954595f4255524e4544536166654d6174683a206d756c7469706c69636174696f6e206f766572666c6f7745524332303a207472616e7366657220616d6f756e74206578636565647320616c6c6f77616e6365444d4d3a20494e53554646494349454e545f4c49515549444954595f4d494e54454445524332303a206275726e2066726f6d20746865207a65726f206164647265737345524332303a207472616e736665722066726f6d20746865207a65726f206164647265737345524332303a20617070726f76652066726f6d20746865207a65726f20616464726573735361666545524332303a204552433230206f7065726174696f6e20646964206e6f74207375636365656445524332303a2064656372656173656420616c6c6f77616e63652062656c6f77207a65726fa26469706673582212208feb102fcb1b9638c630b61e44dd61038874df21e6af9ea1179b3dd8fe0eb6f664736f6c634300060c0033456e756d657261626c655365743a20696e646578206f7574206f6620626f756e6473a264697066735822122073b2540a669cb94b2f658e89d7bc5ae8d9d408a3985f061720c03627f058b60564736f6c634300060c0033",
  "linkReferences": {},
  "deployedLinkReferences": {}
}