{
  "_format": "hh-sol-artifact-1",
  "contractName": "DMMRouter02",
  "sourceName": "contracts/periphery/DMMRouter02.sol",
  "abi": [
    {
      "inputs": [
        {
          "internalType": "address",
          "name": "_factory",
          "type": "address"
        },
        {
          "internalType": "contract IWETH",
          "name": "_weth",
          "type": "address"
        }
      ],
      "stateMutability": "nonpayable",
      "type": "constructor"
    },
    {
      "inputs": [
        {
          "internalType": "contract IERC20",
          "name": "tokenA",
          "type": "address"
        },
        {
          "internalType": "contract IERC20",
          "name": "tokenB",
          "type": "address"
        },
        {
          "internalType": "address",
          "name": "pool",
          "type": "address"
        },
        {
          "internalType": "uint256",
          "name": "amountADesired",
          "type": "uint256"
        },
        {
          "internalType": "uint256",
          "name": "amountBDesired",
          "type": "uint256"
        },
        {
          "internalType": "uint256",
          "name": "amountAMin",
          "type": "uint256"
        },
        {
          "internalType": "uint256",
          "name": "amountBMin",
          "type": "uint256"
        },
        {
          "internalType": "uint256[2]",
          "name": "vReserveRatioBounds",
          "type": "uint256[2]"
        },
        {
          "internalType": "address",
          "name": "to",
          "type": "address"
        },
        {
          "internalType": "uint256",
          "name": "deadline",
          "type": "uint256"
        }
      ],
      "name": "addLiquidity",
      "outputs": [
        {
          "internalType": "uint256",
          "name": "amountA",
          "type": "uint256"
        },
        {
          "internalType": "uint256",
          "name": "amountB",
          "type": "uint256"
        },
        {
          "internalType": "uint256",
          "name": "liquidity",
          "type": "uint256"
        }
      ],
      "stateMutability": "nonpayable",
      "type": "function"
    },
    {
      "inputs": [
        {
          "internalType": "contract IERC20",
          "name": "token",
          "type": "address"
        },
        {
          "internalType": "address",
          "name": "pool",
          "type": "address"
        },
        {
          "internalType": "uint256",
          "name": "amountTokenDesired",
          "type": "uint256"
        },
        {
          "internalType": "uint256",
          "name": "amountTokenMin",
          "type": "uint256"
        },
        {
          "internalType": "uint256",
          "name": "amountETHMin",
          "type": "uint256"
        },
        {
          "internalType": "uint256[2]",
          "name": "vReserveRatioBounds",
          "type": "uint256[2]"
        },
        {
          "internalType": "address",
          "name": "to",
          "type": "address"
        },
        {
          "internalType": "uint256",
          "name": "deadline",
          "type": "uint256"
        }
      ],
      "name": "addLiquidityETH",
      "outputs": [
        {
          "internalType": "uint256",
          "name": "amountToken",
          "type": "uint256"
        },
        {
          "internalType": "uint256",
          "name": "amountETH",
          "type": "uint256"
        },
        {
          "internalType": "uint256",
          "name": "liquidity",
          "type": "uint256"
        }
      ],
      "stateMutability": "payable",
      "type": "function"
    },
    {
      "inputs": [
        {
          "internalType": "contract IERC20",
          "name": "tokenA",
          "type": "address"
        },
        {
          "internalType": "contract IERC20",
          "name": "tokenB",
          "type": "address"
        },
        {
          "internalType": "uint32",
          "name": "ampBps",
          "type": "uint32"
        },
        {
          "internalType": "uint256",
          "name": "amountADesired",
          "type": "uint256"
        },
        {
          "internalType": "uint256",
          "name": "amountBDesired",
          "type": "uint256"
        },
        {
          "internalType": "uint256",
          "name": "amountAMin",
          "type": "uint256"
        },
        {
          "internalType": "uint256",
          "name": "amountBMin",
          "type": "uint256"
        },
        {
          "internalType": "address",
          "name": "to",
          "type": "address"
        },
        {
          "internalType": "uint256",
          "name": "deadline",
          "type": "uint256"
        }
      ],
      "name": "addLiquidityNewPool",
      "outputs": [
        {
          "internalType": "uint256",
          "name": "amountA",
          "type": "uint256"
        },
        {
          "internalType": "uint256",
          "name": "amountB",
          "type": "uint256"
        },
        {
          "internalType": "uint256",
          "name": "liquidity",
          "type": "uint256"
        }
      ],
      "stateMutability": "nonpayable",
      "type": "function"
    },
    {
      "inputs": [
        {
          "internalType": "contract IERC20",
          "name": "token",
          "type": "address"
        },
        {
          "internalType": "uint32",
          "name": "ampBps",
          "type": "uint32"
        },
        {
          "internalType": "uint256",
          "name": "amountTokenDesired",
          "type": "uint256"
        },
        {
          "internalType": "uint256",
          "name": "amountTokenMin",
          "type": "uint256"
        },
        {
          "internalType": "uint256",
          "name": "amountETHMin",
          "type": "uint256"
        },
        {
          "internalType": "address",
          "name": "to",
          "type": "address"
        },
        {
          "internalType": "uint256",
          "name": "deadline",
          "type": "uint256"
        }
      ],
      "name": "addLiquidityNewPoolETH",
      "outputs": [
        {
          "internalType": "uint256",
          "name": "amountToken",
          "type": "uint256"
        },
        {
          "internalType": "uint256",
          "name": "amountETH",
          "type": "uint256"
        },
        {
          "internalType": "uint256",
          "name": "liquidity",
          "type": "uint256"
        }
      ],
      "stateMutability": "payable",
      "type": "function"
    },
    {
      "inputs": [],
      "name": "factory",
      "outputs": [
        {
          "internalType": "address",
          "name": "",
          "type": "address"
        }
      ],
      "stateMutability": "view",
      "type": "function"
    },
    {
      "inputs": [
        {
          "internalType": "uint256",
          "name": "amountOut",
          "type": "uint256"
        },
        {
          "internalType": "address[]",
          "name": "poolsPath",
          "type": "address[]"
        },
        {
          "internalType": "contract IERC20[]",
          "name": "path",
          "type": "address[]"
        }
      ],
      "name": "getAmountsIn",
      "outputs": [
        {
          "internalType": "uint256[]",
          "name": "amounts",
          "type": "uint256[]"
        }
      ],
      "stateMutability": "view",
      "type": "function"
    },
    {
      "inputs": [
        {
          "internalType": "uint256",
          "name": "amountIn",
          "type": "uint256"
        },
        {
          "internalType": "address[]",
          "name": "poolsPath",
          "type": "address[]"
        },
        {
          "internalType": "contract IERC20[]",
          "name": "path",
          "type": "address[]"
        }
      ],
      "name": "getAmountsOut",
      "outputs": [
        {
          "internalType": "uint256[]",
          "name": "amounts",
          "type": "uint256[]"
        }
      ],
      "stateMutability": "view",
      "type": "function"
    },
    {
      "inputs": [
        {
          "internalType": "uint256",
          "name": "amountA",
          "type": "uint256"
        },
        {
          "internalType": "uint256",
          "name": "reserveA",
          "type": "uint256"
        },
        {
          "internalType": "uint256",
          "name": "reserveB",
          "type": "uint256"
        }
      ],
      "name": "quote",
      "outputs": [
        {
          "internalType": "uint256",
          "name": "amountB",
          "type": "uint256"
        }
      ],
      "stateMutability": "pure",
      "type": "function"
    },
    {
      "inputs": [
        {
          "internalType": "contract IERC20",
          "name": "tokenA",
          "type": "address"
        },
        {
          "internalType": "contract IERC20",
          "name": "tokenB",
          "type": "address"
        },
        {
          "internalType": "address",
          "name": "pool",
          "type": "address"
        },
        {
          "internalType": "uint256",
          "name": "liquidity",
          "type": "uint256"
        },
        {
          "internalType": "uint256",
          "name": "amountAMin",
          "type": "uint256"
        },
        {
          "internalType": "uint256",
          "name": "amountBMin",
          "type": "uint256"
        },
        {
          "internalType": "address",
          "name": "to",
          "type": "address"
        },
        {
          "internalType": "uint256",
          "name": "deadline",
          "type": "uint256"
        }
      ],
      "name": "removeLiquidity",
      "outputs": [
        {
          "internalType": "uint256",
          "name": "amountA",
          "type": "uint256"
        },
        {
          "internalType": "uint256",
          "name": "amountB",
          "type": "uint256"
        }
      ],
      "stateMutability": "nonpayable",
      "type": "function"
    },
    {
      "inputs": [
        {
          "internalType": "contract IERC20",
          "name": "token",
          "type": "address"
        },
        {
          "internalType": "address",
          "name": "pool",
          "type": "address"
        },
        {
          "internalType": "uint256",
          "name": "liquidity",
          "type": "uint256"
        },
        {
          "internalType": "uint256",
          "name": "amountTokenMin",
          "type": "uint256"
        },
        {
          "internalType": "uint256",
          "name": "amountETHMin",
          "type": "uint256"
        },
        {
          "internalType": "address",
          "name": "to",
          "type": "address"
        },
        {
          "internalType": "uint256",
          "name": "deadline",
          "type": "uint256"
        }
      ],
      "name": "removeLiquidityETH",
      "outputs": [
        {
          "internalType": "uint256",
          "name": "amountToken",
          "type": "uint256"
        },
        {
          "internalType": "uint256",
          "name": "amountETH",
          "type": "uint256"
        }
      ],
      "stateMutability": "nonpayable",
      "type": "function"
    },
    {
      "inputs": [
        {
          "internalType": "contract IERC20",
          "name": "token",
          "type": "address"
        },
        {
          "internalType": "address",
          "name": "pool",
          "type": "address"
        },
        {
          "internalType": "uint256",
          "name": "liquidity",
          "type": "uint256"
        },
        {
          "internalType": "uint256",
          "name": "amountTokenMin",
          "type": "uint256"
        },
        {
          "internalType": "uint256",
          "name": "amountETHMin",
          "type": "uint256"
        },
        {
          "internalType": "address",
          "name": "to",
          "type": "address"
        },
        {
          "internalType": "uint256",
          "name": "deadline",
          "type": "uint256"
        }
      ],
      "name": "removeLiquidityETHSupportingFeeOnTransferTokens",
      "outputs": [
        {
          "internalType": "uint256",
          "name": "amountETH",
          "type": "uint256"
        }
      ],
      "stateMutability": "nonpayable",
      "type": "function"
    },
    {
      "inputs": [
        {
          "internalType": "contract IERC20",
          "name": "token",
          "type": "address"
        },
        {
          "internalType": "address",
          "name": "pool",
          "type": "address"
        },
        {
          "internalType": "uint256",
          "name": "liquidity",
          "type": "uint256"
        },
        {
          "internalType": "uint256",
          "name": "amountTokenMin",
          "type": "uint256"
        },
        {
          "internalType": "uint256",
          "name": "amountETHMin",
          "type": "uint256"
        },
        {
          "internalType": "address",
          "name": "to",
          "type": "address"
        },
        {
          "internalType": "uint256",
          "name": "deadline",
          "type": "uint256"
        },
        {
          "internalType": "bool",
          "name": "approveMax",
          "type": "bool"
        },
        {
          "internalType": "uint8",
          "name": "v",
          "type": "uint8"
        },
        {
          "internalType": "bytes32",
          "name": "r",
          "type": "bytes32"
        },
        {
          "internalType": "bytes32",
          "name": "s",
          "type": "bytes32"
        }
      ],
      "name": "removeLiquidityETHWithPermit",
      "outputs": [
        {
          "internalType": "uint256",
          "name": "amountToken",
          "type": "uint256"
        },
        {
          "internalType": "uint256",
          "name": "amountETH",
          "type": "uint256"
        }
      ],
      "stateMutability": "nonpayable",
      "type": "function"
    },
    {
      "inputs": [
        {
          "internalType": "contract IERC20",
          "name": "token",
          "type": "address"
        },
        {
          "internalType": "address",
          "name": "pool",
          "type": "address"
        },
        {
          "internalType": "uint256",
          "name": "liquidity",
          "type": "uint256"
        },
        {
          "internalType": "uint256",
          "name": "amountTokenMin",
          "type": "uint256"
        },
        {
          "internalType": "uint256",
          "name": "amountETHMin",
          "type": "uint256"
        },
        {
          "internalType": "address",
          "name": "to",
          "type": "address"
        },
        {
          "internalType": "uint256",
          "name": "deadline",
          "type": "uint256"
        },
        {
          "internalType": "bool",
          "name": "approveMax",
          "type": "bool"
        },
        {
          "internalType": "uint8",
          "name": "v",
          "type": "uint8"
        },
        {
          "internalType": "bytes32",
          "name": "r",
          "type": "bytes32"
        },
        {
          "internalType": "bytes32",
          "name": "s",
          "type": "bytes32"
        }
      ],
      "name": "removeLiquidityETHWithPermitSupportingFeeOnTransferTokens",
      "outputs": [
        {
          "internalType": "uint256",
          "name": "amountETH",
          "type": "uint256"
        }
      ],
      "stateMutability": "nonpayable",
      "type": "function"
    },
    {
      "inputs": [
        {
          "internalType": "contract IERC20",
          "name": "tokenA",
          "type": "address"
        },
        {
          "internalType": "contract IERC20",
          "name": "tokenB",
          "type": "address"
        },
        {
          "internalType": "address",
          "name": "pool",
          "type": "address"
        },
        {
          "internalType": "uint256",
          "name": "liquidity",
          "type": "uint256"
        },
        {
          "internalType": "uint256",
          "name": "amountAMin",
          "type": "uint256"
        },
        {
          "internalType": "uint256",
          "name": "amountBMin",
          "type": "uint256"
        },
        {
          "internalType": "address",
          "name": "to",
          "type": "address"
        },
        {
          "internalType": "uint256",
          "name": "deadline",
          "type": "uint256"
        },
        {
          "internalType": "bool",
          "name": "approveMax",
          "type": "bool"
        },
        {
          "internalType": "uint8",
          "name": "v",
          "type": "uint8"
        },
        {
          "internalType": "bytes32",
          "name": "r",
          "type": "bytes32"
        },
        {
          "internalType": "bytes32",
          "name": "s",
          "type": "bytes32"
        }
      ],
      "name": "removeLiquidityWithPermit",
      "outputs": [
        {
          "internalType": "uint256",
          "name": "amountA",
          "type": "uint256"
        },
        {
          "internalType": "uint256",
          "name": "amountB",
          "type": "uint256"
        }
      ],
      "stateMutability": "nonpayable",
      "type": "function"
    },
    {
      "inputs": [
        {
          "internalType": "uint256",
          "name": "amountOut",
          "type": "uint256"
        },
        {
          "internalType": "address[]",
          "name": "poolsPath",
          "type": "address[]"
        },
        {
          "internalType": "contract IERC20[]",
          "name": "path",
          "type": "address[]"
        },
        {
          "internalType": "address",
          "name": "to",
          "type": "address"
        },
        {
          "internalType": "uint256",
          "name": "deadline",
          "type": "uint256"
        }
      ],
      "name": "swapETHForExactTokens",
      "outputs": [
        {
          "internalType": "uint256[]",
          "name": "amounts",
          "type": "uint256[]"
        }
      ],
      "stateMutability": "payable",
      "type": "function"
    },
    {
      "inputs": [
        {
          "internalType": "uint256",
          "name": "amountOutMin",
          "type": "uint256"
        },
        {
          "internalType": "address[]",
          "name": "poolsPath",
          "type": "address[]"
        },
        {
          "internalType": "contract IERC20[]",
          "name": "path",
          "type": "address[]"
        },
        {
          "internalType": "address",
          "name": "to",
          "type": "address"
        },
        {
          "internalType": "uint256",
          "name": "deadline",
          "type": "uint256"
        }
      ],
      "name": "swapExactETHForTokens",
      "outputs": [
        {
          "internalType": "uint256[]",
          "name": "amounts",
          "type": "uint256[]"
        }
      ],
      "stateMutability": "payable",
      "type": "function"
    },
    {
      "inputs": [
        {
          "internalType": "uint256",
          "name": "amountOutMin",
          "type": "uint256"
        },
        {
          "internalType": "address[]",
          "name": "poolsPath",
          "type": "address[]"
        },
        {
          "internalType": "contract IERC20[]",
          "name": "path",
          "type": "address[]"
        },
        {
          "internalType": "address",
          "name": "to",
          "type": "address"
        },
        {
          "internalType": "uint256",
          "name": "deadline",
          "type": "uint256"
        }
      ],
      "name": "swapExactETHForTokensSupportingFeeOnTransferTokens",
      "outputs": [],
      "stateMutability": "payable",
      "type": "function"
    },
    {
      "inputs": [
        {
          "internalType": "uint256",
          "name": "amountIn",
          "type": "uint256"
        },
        {
          "internalType": "uint256",
          "name": "amountOutMin",
          "type": "uint256"
        },
        {
          "internalType": "address[]",
          "name": "poolsPath",
          "type": "address[]"
        },
        {
          "internalType": "contract IERC20[]",
          "name": "path",
          "type": "address[]"
        },
        {
          "internalType": "address",
          "name": "to",
          "type": "address"
        },
        {
          "internalType": "uint256",
          "name": "deadline",
          "type": "uint256"
        }
      ],
      "name": "swapExactTokensForETH",
      "outputs": [
        {
          "internalType": "uint256[]",
          "name": "amounts",
          "type": "uint256[]"
        }
      ],
      "stateMutability": "nonpayable",
      "type": "function"
    },
    {
      "inputs": [
        {
          "internalType": "uint256",
          "name": "amountIn",
          "type": "uint256"
        },
        {
          "internalType": "uint256",
          "name": "amountOutMin",
          "type": "uint256"
        },
        {
          "internalType": "address[]",
          "name": "poolsPath",
          "type": "address[]"
        },
        {
          "internalType": "contract IERC20[]",
          "name": "path",
          "type": "address[]"
        },
        {
          "internalType": "address",
          "name": "to",
          "type": "address"
        },
        {
          "internalType": "uint256",
          "name": "deadline",
          "type": "uint256"
        }
      ],
      "name": "swapExactTokensForETHSupportingFeeOnTransferTokens",
      "outputs": [],
      "stateMutability": "nonpayable",
      "type": "function"
    },
    {
      "inputs": [
        {
          "internalType": "uint256",
          "name": "amountIn",
          "type": "uint256"
        },
        {
          "internalType": "uint256",
          "name": "amountOutMin",
          "type": "uint256"
        },
        {
          "internalType": "address[]",
          "name": "poolsPath",
          "type": "address[]"
        },
        {
          "internalType": "contract IERC20[]",
          "name": "path",
          "type": "address[]"
        },
        {
          "internalType": "address",
          "name": "to",
          "type": "address"
        },
        {
          "internalType": "uint256",
          "name": "deadline",
          "type": "uint256"
        }
      ],
      "name": "swapExactTokensForTokens",
      "outputs": [
        {
          "internalType": "uint256[]",
          "name": "amounts",
          "type": "uint256[]"
        }
      ],
      "stateMutability": "nonpayable",
      "type": "function"
    },
    {
      "inputs": [
        {
          "internalType": "uint256",
          "name": "amountIn",
          "type": "uint256"
        },
        {
          "internalType": "uint256",
          "name": "amountOutMin",
          "type": "uint256"
        },
        {
          "internalType": "address[]",
          "name": "poolsPath",
          "type": "address[]"
        },
        {
          "internalType": "contract IERC20[]",
          "name": "path",
          "type": "address[]"
        },
        {
          "internalType": "address",
          "name": "to",
          "type": "address"
        },
        {
          "internalType": "uint256",
          "name": "deadline",
          "type": "uint256"
        }
      ],
      "name": "swapExactTokensForTokensSupportingFeeOnTransferTokens",
      "outputs": [],
      "stateMutability": "nonpayable",
      "type": "function"
    },
    {
      "inputs": [
        {
          "internalType": "uint256",
          "name": "amountOut",
          "type": "uint256"
        },
        {
          "internalType": "uint256",
          "name": "amountInMax",
          "type": "uint256"
        },
        {
          "internalType": "address[]",
          "name": "poolsPath",
          "type": "address[]"
        },
        {
          "internalType": "contract IERC20[]",
          "name": "path",
          "type": "address[]"
        },
        {
          "internalType": "address",
          "name": "to",
          "type": "address"
        },
        {
          "internalType": "uint256",
          "name": "deadline",
          "type": "uint256"
        }
      ],
      "name": "swapTokensForExactETH",
      "outputs": [
        {
          "internalType": "uint256[]",
          "name": "amounts",
          "type": "uint256[]"
        }
      ],
      "stateMutability": "nonpayable",
      "type": "function"
    },
    {
      "inputs": [
        {
          "internalType": "uint256",
          "name": "amountOut",
          "type": "uint256"
        },
        {
          "internalType": "uint256",
          "name": "amountInMax",
          "type": "uint256"
        },
        {
          "internalType": "address[]",
          "name": "poolsPath",
          "type": "address[]"
        },
        {
          "internalType": "contract IERC20[]",
          "name": "path",
          "type": "address[]"
        },
        {
          "internalType": "address",
          "name": "to",
          "type": "address"
        },
        {
          "internalType": "uint256",
          "name": "deadline",
          "type": "uint256"
        }
      ],
      "name": "swapTokensForExactTokens",
      "outputs": [
        {
          "internalType": "uint256[]",
          "name": "amounts",
          "type": "uint256[]"
        }
      ],
      "stateMutability": "nonpayable",
      "type": "function"
    },
    {
      "inputs": [],
      "name": "weth",
      "outputs": [
        {
          "internalType": "contract IWETH",
          "name": "",
          "type": "address"
        }
      ],
      "stateMutability": "view",
      "type": "function"
    },
    {
      "stateMutability": "payable",
      "type": "receive"
    }
  ],
  "bytecode": "0x60c060405234801561001057600080fd5b50604051620050d7380380620050d78339818101604052604081101561003557600080fd5b5080516020909101516001600160601b0319606092831b8116608052911b1660a05260805160601c60a05160601c614fc0620001176000398061015f52806115d3528061166852806116fd52806119795280611acd5280611ba75280611c2f5280611d6d5280611fde52806120e752806121c2528061230152806128c65280612a895280612b465280612c465280612c8b5280612e445280612e6f5280612eb55280612f33528061341d52806134d652806135a452806137645250806112b7528061137252806120b752806121925280612d2052806138a85250614fc06000f3fe60806040526004361061014f5760003560e01c8063a8312b1d116100b6578063ceb757d51161006f578063ceb757d514610d30578063d72c144714610e7a578063e1f4a78414610f00578063e8898b5f14610f64578063ebb5d2e9146110ae578063fc5b8bce1461110b57610188565b8063a8312b1d14610998578063ad615dec14610a6a578063ae8290b714610aa0578063af55e31f14610bea578063b56b681d14610cbe578063c45a015514610d1b57610188565b80634c17fd7c116101085780634c17fd7c1461053a5780636dce49ae146105d85780637d41a4221461070e57806389c27594146107625780639e269b6814610848578063a4aabb081461091a57610188565b80630e2f024c1461018d5780631c5d0a6b1461021d57806324341934146102ac5780632daaa8181461034f5780633e741fca146104235780633fc8cef31461050957610188565b3661018857336001600160a01b037f0000000000000000000000000000000000000000000000000000000000000000161461018657fe5b005b600080fd5b34801561019957600080fd5b5061020b60048036036101608110156101b157600080fd5b506001600160a01b038135811691602081013582169160408201359160608101359160808201359160a08101359091169060c08101359060e081013515159060ff61010082013516906101208101359061014001356111df565b60408051918252519081900360200190f35b34801561022957600080fd5b5061028e600480360361012081101561024157600080fd5b506001600160a01b038135811691602081013582169163ffffffff6040830135169160608101359160808201359160a08101359160c08201359160e081013590911690610100013561129f565b60408051938452602084019290925282820152519081900360600190f35b3480156102b857600080fd5b5061028e60048036036101608110156102d057600080fd5b6040805180820182526001600160a01b0384358116946020810135821694848201359092169360608201359360808301359360a08401359360c0810135939181019290916101208301919060e08401906002908390839080828437600092019190915250919450506001600160a01b038235169250506020013561147b565b610186600480360360a081101561036557600080fd5b81359190810190604081016020820135600160201b81111561038657600080fd5b82018360208201111561039857600080fd5b803590602001918460208302840111600160201b831117156103b957600080fd5b919390929091602081019035600160201b8111156103d657600080fd5b8201836020820111156103e857600080fd5b803590602001918460208302840111600160201b8311171561040957600080fd5b91935091506001600160a01b03813516906020013561158d565b34801561042f57600080fd5b50610186600480360360c081101561044657600080fd5b813591602081013591810190606081016040820135600160201b81111561046c57600080fd5b82018360208201111561047e57600080fd5b803590602001918460208302840111600160201b8311171561049f57600080fd5b919390929091602081019035600160201b8111156104bc57600080fd5b8201836020820111156104ce57600080fd5b803590602001918460208302840111600160201b831117156104ef57600080fd5b91935091506001600160a01b03813516906020013561192b565b34801561051557600080fd5b5061051e611c2d565b604080516001600160a01b039092168252519081900360200190f35b34801561054657600080fd5b506105bf600480360361018081101561055e57600080fd5b506001600160a01b0381358116916020810135821691604082013581169160608101359160808201359160a08101359160c0820135169060e08101359061010081013515159060ff6101208201351690610140810135906101600135611c51565b6040805192835260208301919091528051918290030190f35b3480156105e457600080fd5b506106be600480360360c08110156105fb57600080fd5b813591602081013591810190606081016040820135600160201b81111561062157600080fd5b82018360208201111561063357600080fd5b803590602001918460208302840111600160201b8311171561065457600080fd5b919390929091602081019035600160201b81111561067157600080fd5b82018360208201111561068357600080fd5b803590602001918460208302840111600160201b831117156106a457600080fd5b91935091506001600160a01b038135169060200135611d1d565b60408051602080825283518183015283519192839290830191858101910280838360005b838110156106fa5781810151838201526020016106e2565b505050509050019250505060405180910390f35b61028e600480360360e081101561072457600080fd5b506001600160a01b03813581169163ffffffff6020820135169160408201359160608101359160808201359160a08101359091169060c0013561209f565b34801561076e57600080fd5b506106be600480360360c081101561078557600080fd5b813591602081013591810190606081016040820135600160201b8111156107ab57600080fd5b8201836020820111156107bd57600080fd5b803590602001918460208302840111600160201b831117156107de57600080fd5b919390929091602081019035600160201b8111156107fb57600080fd5b82018360208201111561080d57600080fd5b803590602001918460208302840111600160201b8311171561082e57600080fd5b91935091506001600160a01b0381351690602001356122b1565b34801561085457600080fd5b506106be6004803603606081101561086b57600080fd5b81359190810190604081016020820135600160201b81111561088c57600080fd5b82018360208201111561089e57600080fd5b803590602001918460208302840111600160201b831117156108bf57600080fd5b919390929091602081019035600160201b8111156108dc57600080fd5b8201836020820111156108ee57600080fd5b803590602001918460208302840111600160201b8311171561090f57600080fd5b5090925090506124ba565b34801561092657600080fd5b506105bf600480360361016081101561093e57600080fd5b506001600160a01b038135811691602081013582169160408201359160608101359160808201359160a08101359091169060c08101359060e081013515159060ff61010082013516906101208101359061014001356125a1565b3480156109a457600080fd5b506106be600480360360608110156109bb57600080fd5b81359190810190604081016020820135600160201b8111156109dc57600080fd5b8201836020820111156109ee57600080fd5b803590602001918460208302840111600160201b83111715610a0f57600080fd5b919390929091602081019035600160201b811115610a2c57600080fd5b820183602082011115610a3e57600080fd5b803590602001918460208302840111600160201b83111715610a5f57600080fd5b509092509050612667565b348015610a7657600080fd5b5061020b60048036036060811015610a8d57600080fd5b5080359060208101359060400135612744565b348015610aac57600080fd5b506106be600480360360c0811015610ac357600080fd5b813591602081013591810190606081016040820135600160201b811115610ae957600080fd5b820183602082011115610afb57600080fd5b803590602001918460208302840111600160201b83111715610b1c57600080fd5b9190808060200260200160405190810160405280939291908181526020018383602002808284376000920191909152509295949360208101935035915050600160201b811115610b6b57600080fd5b820183602082011115610b7d57600080fd5b803590602001918460208302840111600160201b83111715610b9e57600080fd5b919080806020026020016040519081016040528093929190818152602001838360200280828437600092019190915250929550506001600160a01b03833516935050506020013561275b565b6106be600480360360a0811015610c0057600080fd5b81359190810190604081016020820135600160201b811115610c2157600080fd5b820183602082011115610c3357600080fd5b803590602001918460208302840111600160201b83111715610c5457600080fd5b919390929091602081019035600160201b811115610c7157600080fd5b820183602082011115610c8357600080fd5b803590602001918460208302840111600160201b83111715610ca457600080fd5b91935091506001600160a01b03813516906020013561287e565b348015610cca57600080fd5b506105bf600480360360e0811015610ce157600080fd5b506001600160a01b038135811691602081013582169160408201359160608101359160808201359160a08101359091169060c00135612bf9565b348015610d2757600080fd5b5061051e612d1e565b348015610d3c57600080fd5b506106be600480360360c0811015610d5357600080fd5b813591602081013591810190606081016040820135600160201b811115610d7957600080fd5b820183602082011115610d8b57600080fd5b803590602001918460208302840111600160201b83111715610dac57600080fd5b9190808060200260200160405190810160405280939291908181526020018383602002808284376000920191909152509295949360208101935035915050600160201b811115610dfb57600080fd5b820183602082011115610e0d57600080fd5b803590602001918460208302840111600160201b83111715610e2e57600080fd5b919080806020026020016040519081016040528093929190818152602001838360200280828437600092019190915250929550506001600160a01b038335169350505060200135612d42565b61028e6004803603610120811015610e9157600080fd5b6040805180820182526001600160a01b0384358116946020810135909116938382013593606083013593608084013593928301929160e08301919060a08401906002908390839080828437600092019190915250919450506001600160a01b0382351692505060200135612df5565b348015610f0c57600080fd5b506105bf6004803603610100811015610f2457600080fd5b506001600160a01b0381358116916020810135821691604082013581169160608101359160808201359160a08101359160c0820135169060e00135612ffe565b348015610f7057600080fd5b50610186600480360360c0811015610f8757600080fd5b813591602081013591810190606081016040820135600160201b811115610fad57600080fd5b820183602082011115610fbf57600080fd5b803590602001918460208302840111600160201b83111715610fe057600080fd5b9190808060200260200160405190810160405280939291908181526020018383602002808284376000920191909152509295949360208101935035915050600160201b81111561102f57600080fd5b82018360208201111561104157600080fd5b803590602001918460208302840111600160201b8311171561106257600080fd5b919080806020026020016040519081016040528093929190818152602001838360200280828437600092019190915250929550506001600160a01b0383351693505050602001356131e0565b3480156110ba57600080fd5b5061020b600480360360e08110156110d157600080fd5b506001600160a01b038135811691602081013582169160408201359160608101359160808201359160a08101359091169060c001356133d1565b6106be600480360360a081101561112157600080fd5b81359190810190604081016020820135600160201b81111561114257600080fd5b82018360208201111561115457600080fd5b803590602001918460208302840111600160201b8311171561117557600080fd5b919390929091602081019035600160201b81111561119257600080fd5b8201836020820111156111a457600080fd5b803590602001918460208302840111600160201b831117156111c557600080fd5b91935091506001600160a01b03813516906020013561355c565b600080856111ed578a6111f1565b6000195b6040805163d505accf60e01b815233600482015230602482015260448101839052606481018a905260ff8816608482015260a4810187905260c4810186905290519192506001600160a01b038e169163d505accf9160e48082019260009290919082900301818387803b15801561126757600080fd5b505af115801561127b573d6000803e3d6000fd5b5050505061128e8d8d8d8d8d8d8d6133d1565b9d9c50505050505050505050505050565b6000806000806127108b63ffffffff161415611362577f00000000000000000000000000000000000000000000000000000000000000006001600160a01b0316633d82497e8e8e6040518363ffffffff1660e01b815260040180836001600160a01b03168152602001826001600160a01b031681526020019250505060206040518083038186803b15801561133357600080fd5b505afa158015611347573d6000803e3d6000fd5b505050506040513d602081101561135d57600080fd5b505190505b6001600160a01b03811661142d577f00000000000000000000000000000000000000000000000000000000000000006001600160a01b0316638fd648408e8e8e6040518463ffffffff1660e01b815260040180846001600160a01b03168152602001836001600160a01b031681526020018263ffffffff1681526020019350505050602060405180830381600087803b1580156113fe57600080fd5b505af1158015611412573d6000803e3d6000fd5b505050506040513d602081101561142857600080fd5b505190505b611435614db3565b506040805180820190915260008152600019602082015261145e8e8e848e8e8e8e888f8f61147b565b809550819650829750505050505099509950999650505050505050565b600080600083428110156114c4576040805162461bcd60e51b81526020600482015260126024820152600080516020614e15833981519152604482015290519081900360640190fd5b6114cf8e8e8e6138a6565b6114df8e8e8e8e8e8e8e8e6139b7565b90945092506114f08e338e87613b55565b6114fc8d338e86613b55565b8b6001600160a01b0316636a627842876040518263ffffffff1660e01b815260040180826001600160a01b03168152602001915050602060405180830381600087803b15801561154b57600080fd5b505af115801561155f573d6000803e3d6000fd5b505050506040513d602081101561157557600080fd5b5051939e929d50929b50909950505050505050505050565b80428110156115d1576040805162461bcd60e51b81526020600482015260126024820152600080516020614e15833981519152604482015290519081900360640190fd5b7f00000000000000000000000000000000000000000000000000000000000000006001600160a01b03168585600081811061160857fe5b905060200201356001600160a01b03166001600160a01b031614611661576040805162461bcd60e51b81526020600482015260176024820152600080516020614e8f833981519152604482015290519081900360640190fd5b60003490507f00000000000000000000000000000000000000000000000000000000000000006001600160a01b031663d0e30db0826040518263ffffffff1660e01b81526004016000604051808303818588803b1580156116c157600080fd5b505af11580156116d5573d6000803e3d6000fd5b5050505050611734888860008181106116ea57fe5b905060200201356001600160a01b0316827f00000000000000000000000000000000000000000000000000000000000000006001600160a01b0316613bb59092919063ffffffff16565b60008686600019810181811061174657fe5b905060200201356001600160a01b03166001600160a01b03166370a08231866040518263ffffffff1660e01b815260040180826001600160a01b0316815260200191505060206040518083038186803b1580156117a257600080fd5b505afa1580156117b6573d6000803e3d6000fd5b505050506040513d60208110156117cc57600080fd5b50516040805160208b810282810182019093528b825292935061183f9290918c918c91829185019084908082843760009201919091525050604080516020808d0282810182019093528c82529093508c92508b9182918501908490808284376000920191909152508a9250613c07915050565b896118e2828989600019810181811061185457fe5b905060200201356001600160a01b03166001600160a01b03166370a08231896040518263ffffffff1660e01b815260040180826001600160a01b0316815260200191505060206040518083038186803b1580156118b057600080fd5b505afa1580156118c4573d6000803e3d6000fd5b505050506040513d60208110156118da57600080fd5b505190613e71565b101561191f5760405162461bcd60e51b8152600401808060200182810382526025815260200180614ed06025913960400191505060405180910390fd5b50505050505050505050565b804281101561196f576040805162461bcd60e51b81526020600482015260126024820152600080516020614e15833981519152604482015290519081900360640190fd5b6001600160a01b037f000000000000000000000000000000000000000000000000000000000000000016858560001981018181106119a957fe5b905060200201356001600160a01b03166001600160a01b031614611a02576040805162461bcd60e51b81526020600482015260176024820152600080516020614e8f833981519152604482015290519081900360640190fd5b611a5a3388886000818110611a1357fe5b905060200201356001600160a01b03168b88886000818110611a3157fe5b905060200201356001600160a01b03166001600160a01b0316613b55909392919063ffffffff16565b611ac987878080602002602001604051908101604052809392919081815260200183836020028082843760009201919091525050604080516020808b0282810182019093528a82529093508a925089918291850190849080828437600092019190915250309250613c07915050565b60007f00000000000000000000000000000000000000000000000000000000000000006001600160a01b03166370a08231306040518263ffffffff1660e01b815260040180826001600160a01b0316815260200191505060206040518083038186803b158015611b3857600080fd5b505afa158015611b4c573d6000803e3d6000fd5b505050506040513d6020811015611b6257600080fd5b5051905088811015611ba55760405162461bcd60e51b8152600401808060200182810382526025815260200180614ed06025913960400191505060405180910390fd5b7f00000000000000000000000000000000000000000000000000000000000000006001600160a01b0316632e1a7d4d826040518263ffffffff1660e01b815260040180828152602001915050600060405180830381600087803b158015611c0b57600080fd5b505af1158015611c1f573d6000803e3d6000fd5b5050505061191f8482613ed3565b7f000000000000000000000000000000000000000000000000000000000000000081565b600080600086611c61578b611c65565b6000195b6040805163d505accf60e01b815233600482015230602482015260448101839052606481018b905260ff8916608482015260a4810188905260c4810187905290519192506001600160a01b038f169163d505accf9160e48082019260009290919082900301818387803b158015611cdb57600080fd5b505af1158015611cef573d6000803e3d6000fd5b50505050611d038f8f8f8f8f8f8f8f612ffe565b8093508194505050509c509c9a5050505050505050505050565b60608142811015611d63576040805162461bcd60e51b81526020600482015260126024820152600080516020614e15833981519152604482015290519081900360640190fd5b6001600160a01b037f00000000000000000000000000000000000000000000000000000000000000001686866000198101818110611d9d57fe5b905060200201356001600160a01b03166001600160a01b031614611df6576040805162461bcd60e51b81526020600482015260176024820152600080516020614e8f833981519152604482015290519081900360640190fd5b611e6388888080602002602001604051908101604052809392919081815260200183836020028082843760009201919091525050604080516020808c0282810182019093528b82529093508b92508a918291850190849080828437600092019190915250613fc692505050565b611ed18a89898080602002602001604051908101604052809392919081815260200183836020028082843760009201919091525050604080516020808d0282810182019093528c82529093508c92508b9182918501908490808284376000920191909152506140bf92505050565b91508882600184510381518110611ee457fe5b60200260200101511015611f295760405162461bcd60e51b8152600401808060200182810382526025815260200180614ed06025913960400191505060405180910390fd5b611f6c3389896000818110611f3a57fe5b905060200201356001600160a01b031684600081518110611f5757fe5b602002602001015189896000818110611a3157fe5b611fdc8289898080602002602001604051908101604052809392919081815260200183836020028082843760009201919091525050604080516020808d0282810182019093528c82529093508c92508b9182918501908490808284376000920191909152503092506141dc915050565b7f00000000000000000000000000000000000000000000000000000000000000006001600160a01b0316632e1a7d4d8360018551038151811061201b57fe5b60200260200101516040518263ffffffff1660e01b815260040180828152602001915050600060405180830381600087803b15801561205957600080fd5b505af115801561206d573d6000803e3d6000fd5b50505050612092848360018551038151811061208557fe5b6020026020010151613ed3565b5098975050505050505050565b6000806000806127108a63ffffffff161415612182577f00000000000000000000000000000000000000000000000000000000000000006001600160a01b0316633d82497e8c7f00000000000000000000000000000000000000000000000000000000000000006040518363ffffffff1660e01b815260040180836001600160a01b03168152602001826001600160a01b031681526020019250505060206040518083038186803b15801561215357600080fd5b505afa158015612167573d6000803e3d6000fd5b505050506040513d602081101561217d57600080fd5b505190505b6001600160a01b03811661226d577f00000000000000000000000000000000000000000000000000000000000000006001600160a01b0316638fd648408c7f00000000000000000000000000000000000000000000000000000000000000008d6040518463ffffffff1660e01b815260040180846001600160a01b03168152602001836001600160a01b031681526020018263ffffffff1681526020019350505050602060405180830381600087803b15801561223e57600080fd5b505af1158015612252573d6000803e3d6000fd5b505050506040513d602081101561226857600080fd5b505190505b612275614db3565b506040805180820190915260008152600019602082015261229c8c838c8c8c868d8d612df5565b919e909d50909b509950505050505050505050565b606081428110156122f7576040805162461bcd60e51b81526020600482015260126024820152600080516020614e15833981519152604482015290519081900360640190fd5b6001600160a01b037f0000000000000000000000000000000000000000000000000000000000000000168686600019810181811061233157fe5b905060200201356001600160a01b03166001600160a01b03161461238a576040805162461bcd60e51b81526020600482015260176024820152600080516020614e8f833981519152604482015290519081900360640190fd5b6123f788888080602002602001604051908101604052809392919081815260200183836020028082843760009201919091525050604080516020808c0282810182019093528b82529093508b92508a918291850190849080828437600092019190915250613fc692505050565b6124658a89898080602002602001604051908101604052809392919081815260200183836020028082843760009201919091525050604080516020808d0282810182019093528c82529093508c92508b9182918501908490808284376000920191909152506143f192505050565b9150888260008151811061247557fe5b60200260200101511115611f295760405162461bcd60e51b8152600401808060200182810382526021815260200180614dd26021913960400191505060405180910390fd5b606061252985858080602002602001604051908101604052809392919081815260200183836020028082843760009201919091525050604080516020808902828101820190935288825290935088925087918291850190849080828437600092019190915250613fc692505050565b6125978686868080602002602001604051908101604052809392919081815260200183836020028082843760009201919091525050604080516020808a028281018201909352898252909350899250889182918501908490808284376000920191909152506143f192505050565b9695505050505050565b6000806000866125b1578b6125b5565b6000195b6040805163d505accf60e01b815233600482015230602482015260448101839052606481018b905260ff8916608482015260a4810188905260c4810187905290519192506001600160a01b038f169163d505accf9160e48082019260009290919082900301818387803b15801561262b57600080fd5b505af115801561263f573d6000803e3d6000fd5b505050506126528e8e8e8e8e8e8e612bf9565b909f909e509c50505050505050505050505050565b60606126d685858080602002602001604051908101604052809392919081815260200183836020028082843760009201919091525050604080516020808902828101820190935288825290935088925087918291850190849080828437600092019190915250613fc692505050565b6125978686868080602002602001604051908101604052809392919081815260200183836020028082843760009201919091525050604080516020808a028281018201909352898252909350899250889182918501908490808284376000920191909152506140bf92505050565b60006127518484846144fd565b90505b9392505050565b606081428110156127a1576040805162461bcd60e51b81526020600482015260126024820152600080516020614e15833981519152604482015290519081900360640190fd5b6127ab8686613fc6565b6127b68887876143f1565b915086826000815181106127c657fe5b6020026020010151111561280b5760405162461bcd60e51b8152600401808060200182810382526021815260200180614dd26021913960400191505060405180910390fd5b612867338760008151811061281c57fe5b60200260200101518460008151811061283157fe5b60200260200101518860008151811061284657fe5b60200260200101516001600160a01b0316613b55909392919063ffffffff16565b612873828787876141dc565b509695505050505050565b606081428110156128c4576040805162461bcd60e51b81526020600482015260126024820152600080516020614e15833981519152604482015290519081900360640190fd5b7f00000000000000000000000000000000000000000000000000000000000000006001600160a01b0316868660008181106128fb57fe5b905060200201356001600160a01b03166001600160a01b031614612954576040805162461bcd60e51b81526020600482015260176024820152600080516020614e8f833981519152604482015290519081900360640190fd5b6129c188888080602002602001604051908101604052809392919081815260200183836020028082843760009201919091525050604080516020808c0282810182019093528b82529093508b92508a918291850190849080828437600092019190915250613fc692505050565b612a2f3489898080602002602001604051908101604052809392919081815260200183836020028082843760009201919091525050604080516020808d0282810182019093528c82529093508c92508b9182918501908490808284376000920191909152506140bf92505050565b91508882600184510381518110612a4257fe5b60200260200101511015612a875760405162461bcd60e51b8152600401808060200182810382526025815260200180614ed06025913960400191505060405180910390fd5b7f00000000000000000000000000000000000000000000000000000000000000006001600160a01b031663d0e30db083600081518110612ac357fe5b60200260200101516040518263ffffffff1660e01b81526004016000604051808303818588803b158015612af657600080fd5b505af1158015612b0a573d6000803e3d6000fd5b5050505050612b7d88886000818110612b1f57fe5b905060200201356001600160a01b031683600081518110612b3c57fe5b60200260200101517f00000000000000000000000000000000000000000000000000000000000000006001600160a01b0316613bb59092919063ffffffff16565b612bed8289898080602002602001604051908101604052809392919081815260200183836020028082843760009201919091525050604080516020808d0282810182019093528c82529093508c92508b9182918501908490808284376000920191909152508a92506141dc915050565b50979650505050505050565b6000808242811015612c40576040805162461bcd60e51b81526020600482015260126024820152600080516020614e15833981519152604482015290519081900360640190fd5b612c708a7f00000000000000000000000000000000000000000000000000000000000000008b8b8b8b308b612ffe565b9093509150612c896001600160a01b038b168685613bb5565b7f00000000000000000000000000000000000000000000000000000000000000006001600160a01b0316632e1a7d4d836040518263ffffffff1660e01b815260040180828152602001915050600060405180830381600087803b158015612cef57600080fd5b505af1158015612d03573d6000803e3d6000fd5b50505050612d118583613ed3565b5097509795505050505050565b7f000000000000000000000000000000000000000000000000000000000000000081565b60608142811015612d88576040805162461bcd60e51b81526020600482015260126024820152600080516020614e15833981519152604482015290519081900360640190fd5b612d928686613fc6565b612d9d8887876140bf565b91508682600184510381518110612db057fe5b6020026020010151101561280b5760405162461bcd60e51b8152600401808060200182810382526025815260200180614ed06025913960400191505060405180910390fd5b60008060008342811015612e3e576040805162461bcd60e51b81526020600482015260126024820152600080516020614e15833981519152604482015290519081900360640190fd5b612e698c7f00000000000000000000000000000000000000000000000000000000000000008d6138a6565b612e998c7f00000000000000000000000000000000000000000000000000000000000000008d8d348e8e8e6139b7565b9094509250612eb36001600160a01b038d16338d87613b55565b7f00000000000000000000000000000000000000000000000000000000000000006001600160a01b031663d0e30db0846040518263ffffffff1660e01b81526004016000604051808303818588803b158015612f0e57600080fd5b505af1158015612f22573d6000803e3d6000fd5b50612f5e9350506001600160a01b037f00000000000000000000000000000000000000000000000000000000000000001691508d905085613bb5565b8a6001600160a01b0316636a627842876040518263ffffffff1660e01b815260040180826001600160a01b03168152602001915050602060405180830381600087803b158015612fad57600080fd5b505af1158015612fc1573d6000803e3d6000fd5b505050506040513d6020811015612fd757600080fd5b5051915034831015612fef57612fef33843403613ed3565b50985098509895505050505050565b6000808242811015613045576040805162461bcd60e51b81526020600482015260126024820152600080516020614e15833981519152604482015290519081900360640190fd5b6130508b8b8b6138a6565b6130656001600160a01b038a16338b8b613b55565b6000808a6001600160a01b03166389afcb44886040518263ffffffff1660e01b815260040180826001600160a01b031681526020019150506040805180830381600087803b1580156130b657600080fd5b505af11580156130ca573d6000803e3d6000fd5b505050506040513d60408110156130e057600080fd5b508051602090910151909250905060006130fa8e8e6145b9565b509050806001600160a01b03168e6001600160a01b03161461311d578183613120565b82825b90965094508986101561317a576040805162461bcd60e51b815260206004820181905260248201527f444d4d526f757465723a20494e53554646494349454e545f415f414d4f554e54604482015290519081900360640190fd5b888510156131cf576040805162461bcd60e51b815260206004820181905260248201527f444d4d526f757465723a20494e53554646494349454e545f425f414d4f554e54604482015290519081900360640190fd5b505050509850989650505050505050565b8042811015613224576040805162461bcd60e51b81526020600482015260126024820152600080516020614e15833981519152604482015290519081900360640190fd5b61324b338660008151811061323557fe5b6020026020010151898760008151811061284657fe5b60008460018651038151811061325d57fe5b60200260200101516001600160a01b03166370a08231856040518263ffffffff1660e01b815260040180826001600160a01b0316815260200191505060206040518083038186803b1580156132b157600080fd5b505afa1580156132c5573d6000803e3d6000fd5b505050506040513d60208110156132db57600080fd5b505190506132ea868686613c07565b6000856001875103815181106132fc57fe5b60200260200101516001600160a01b03166370a08231866040518263ffffffff1660e01b815260040180826001600160a01b0316815260200191505060206040518083038186803b15801561335057600080fd5b505afa158015613364573d6000803e3d6000fd5b505050506040513d602081101561337a57600080fd5b5051905061338882896146ad565b8110156133c65760405162461bcd60e51b8152600401808060200182810382526025815260200180614ed06025913960400191505060405180910390fd5b505050505050505050565b60008142811015613417576040805162461bcd60e51b81526020600482015260126024820152600080516020614e15833981519152604482015290519081900360640190fd5b613447897f00000000000000000000000000000000000000000000000000000000000000008a8a8a8a308a612ffe565b604080516370a0823160e01b815230600482015290519194506134d4925086916001600160a01b038d16916370a08231916024808301926020929190829003018186803b15801561349757600080fd5b505afa1580156134ab573d6000803e3d6000fd5b505050506040513d60208110156134c157600080fd5b50516001600160a01b038c169190613bb5565b7f00000000000000000000000000000000000000000000000000000000000000006001600160a01b0316632e1a7d4d836040518263ffffffff1660e01b815260040180828152602001915050600060405180830381600087803b15801561353a57600080fd5b505af115801561354e573d6000803e3d6000fd5b50505050612bed8483613ed3565b606081428110156135a2576040805162461bcd60e51b81526020600482015260126024820152600080516020614e15833981519152604482015290519081900360640190fd5b7f00000000000000000000000000000000000000000000000000000000000000006001600160a01b0316868660008181106135d957fe5b905060200201356001600160a01b03166001600160a01b031614613632576040805162461bcd60e51b81526020600482015260176024820152600080516020614e8f833981519152604482015290519081900360640190fd5b61369f88888080602002602001604051908101604052809392919081815260200183836020028082843760009201919091525050604080516020808c0282810182019093528b82529093508b92508a918291850190849080828437600092019190915250613fc692505050565b61370d8989898080602002602001604051908101604052809392919081815260200183836020028082843760009201919091525050604080516020808d0282810182019093528c82529093508c92508b9182918501908490808284376000920191909152506143f192505050565b9150348260008151811061371d57fe5b602002602001015111156137625760405162461bcd60e51b8152600401808060200182810382526021815260200180614dd26021913960400191505060405180910390fd5b7f00000000000000000000000000000000000000000000000000000000000000006001600160a01b031663d0e30db08360008151811061379e57fe5b60200260200101516040518263ffffffff1660e01b81526004016000604051808303818588803b1580156137d157600080fd5b505af11580156137e5573d6000803e3d6000fd5b50505050506137fa88886000818110612b1f57fe5b61386a8289898080602002602001604051908101604052809392919081815260200183836020028082843760009201919091525050604080516020808d0282810182019093528c82529093508c92508b9182918501908490808284376000920191909152508a92506141dc915050565b8160008151811061387757fe5b6020026020010151341115612bed57612bed338360008151811061389757fe5b60200260200101513403613ed3565b7f00000000000000000000000000000000000000000000000000000000000000006001600160a01b031663eb787f618484846040518463ffffffff1660e01b815260040180846001600160a01b03168152602001836001600160a01b03168152602001826001600160a01b03168152602001935050505060206040518083038186803b15801561393557600080fd5b505afa158015613949573d6000803e3d6000fd5b505050506040513d602081101561395f57600080fd5b50516139b2576040805162461bcd60e51b815260206004820152601760248201527f444d4d526f757465723a20494e56414c49445f504f4f4c000000000000000000604482015290519081900360640190fd5b505050565b6000806000806000806139cb8c8f8f614707565b5093509350935093508360001480156139e2575082155b156139f2578a95508994506131cf565b60006139ff8c86866144fd565b90508a8111613a685788811015613a5d576040805162461bcd60e51b815260206004820181905260248201527f444d4d526f757465723a20494e53554646494349454e545f425f414d4f554e54604482015290519081900360640190fd5b8b9650945084613adc565b6000613a758c86886144fd565b90508c811115613a8157fe5b8a811015613ad6576040805162461bcd60e51b815260206004820181905260248201527f444d4d526f757465723a20494e53554646494349454e545f415f414d4f554e54604482015290519081900360640190fd5b96508a95505b600083600160701b840281613aed57fe5b8a5191900491508110801590613b07575060208901518111155b613b425760405162461bcd60e51b8152600401808060200182810382526021815260200180614f6a6021913960400191505060405180910390fd5b5050505050509850989650505050505050565b604080516001600160a01b0380861660248301528416604482015260648082018490528251808303909101815260849091019091526020810180516001600160e01b03166323b872dd60e01b179052613baf908590614801565b50505050565b604080516001600160a01b038416602482015260448082018490528251808303909101815260649091019091526020810180516001600160e01b031663a9059cbb60e01b1790526139b2908490614801565b613c118383613fc6565b60005b6001835103811015613baf57600080848381518110613c2f57fe5b6020026020010151858460010181518110613c4657fe5b6020026020010151915091506000613c5e83836145b9565b5090506000878581518110613c6f57fe5b60200260200101519050600080600080600080613ca08e8c81518110613c9157fe5b60200260200101518b8b614707565b945094509450945094506000613cfd868c6001600160a01b03166370a082318b6040518263ffffffff1660e01b815260040180826001600160a01b0316815260200191505060206040518083038186803b1580156118b057600080fd5b9050613d0d8187878787876148b2565b9650505050505050600080846001600160a01b0316876001600160a01b031614613d3957826000613d3d565b6000835b91509150600060028b51038910613d545789613d6c565b8b8960010181518110613d6357fe5b60200260200101515b604080516000808252602082019283905263022c0d9f60e01b835260248201878152604483018790526001600160a01b038086166064850152608060848501908152845160a48601819052969750908b169563022c0d9f958a958a958a9591949193919260c486019290918190849084905b83811015613df6578181015183820152602001613dde565b50505050905090810190601f168015613e235780820380516001836020036101000a031916815260200191505b5095505050505050600060405180830381600087803b158015613e4557600080fd5b505af1158015613e59573d6000803e3d6000fd5b50506001909a019950613c1498505050505050505050565b600082821115613ec8576040805162461bcd60e51b815260206004820152601e60248201527f536166654d6174683a207375627472616374696f6e206f766572666c6f770000604482015290519081900360640190fd5b508082035b92915050565b604080516000808252602082019092526001600160a01b0384169083906040518082805190602001908083835b60208310613f1f5780518252601f199092019160209182019101613f00565b6001836020036101000a03801982511681845116808217855250505050505090500191505060006040518083038185875af1925050503d8060008114613f81576040519150601f19603f3d011682016040523d82523d6000602084013e613f86565b606091505b50509050806139b25760405162461bcd60e51b8152600401808060200182810382526034815260200180614e356034913960400191505060405180910390fd5b60028151101561400b576040805162461bcd60e51b81526020600482015260176024820152600080516020614e8f833981519152604482015290519081900360640190fd5b6001815103825114614064576040805162461bcd60e51b815260206004820152601d60248201527f444d4d526f757465723a20494e56414c49445f504f4f4c535f50415448000000604482015290519081900360640190fd5b60005b82518110156139b2576140b782828151811061407f57fe5b602002602001015183836001018151811061409657fe5b60200260200101518584815181106140aa57fe5b60200260200101516138a6565b600101614067565b6060815167ffffffffffffffff811180156140d957600080fd5b50604051908082528060200260200182016040528015614103578160200160208202803683370190505b509050838160008151811061411457fe5b60200260200101818152505060005b60018351038110156141d457600080600080600061417e89878151811061414657fe5b602002602001015189888151811061415a57fe5b60200260200101518a896001018151811061417157fe5b6020026020010151614707565b945094509450945094506141a987878151811061419757fe5b602002602001015186868686866148b2565b8787600101815181106141b857fe5b6020908102919091010152505060019093019250614123915050565b509392505050565b60005b60018351038110156143ea576000808483815181106141fa57fe5b602002602001015185846001018151811061421157fe5b602002602001015191509150600061422983836145b9565b509050600088856001018151811061423d57fe5b60200260200101519050600080836001600160a01b0316866001600160a01b03161461426b5782600061426f565b6000835b91509150600060028a51038810614286578861429e565b8a886001018151811061429557fe5b60200260200101515b90508a88815181106142ac57fe5b60200260200101516001600160a01b031663022c0d9f848484600067ffffffffffffffff811180156142dd57600080fd5b506040519080825280601f01601f191660200182016040528015614308576020820181803683370190505b506040518563ffffffff1660e01b815260040180858152602001848152602001836001600160a01b0316815260200180602001828103825283818151815260200191508051906020019080838360005b83811015614370578181015183820152602001614358565b50505050905090810190601f16801561439d5780820380516001836020036101000a031916815260200191505b5095505050505050600060405180830381600087803b1580156143bf57600080fd5b505af11580156143d3573d6000803e3d6000fd5b5050600190990198506141df975050505050505050565b5050505050565b6060815167ffffffffffffffff8111801561440b57600080fd5b50604051908082528060200260200182016040528015614435578160200160208202803683370190505b509050838160018351038151811061444957fe5b60209081029190910101528151600019015b80156141d45760008060008060006144a689600188038151811061447b57fe5b602002602001015189600189038151811061449257fe5b60200260200101518a898151811061417157fe5b945094509450945094506144d18787815181106144bf57fe5b602002602001015186868686866149da565b8760018803815181106144e057fe5b60209081029190910101525050600019909301925061445b915050565b6000808411614553576040805162461bcd60e51b815260206004820152601f60248201527f444d4d4c6962726172793a20494e53554646494349454e545f414d4f554e5400604482015290519081900360640190fd5b6000831180156145635750600082115b61459e5760405162461bcd60e51b8152600401808060200182810382526022815260200180614df36022913960400191505060405180910390fd5b826145a98584614ade565b816145b057fe5b04949350505050565b600080826001600160a01b0316846001600160a01b03161415614623576040805162461bcd60e51b815260206004820152601f60248201527f444d4d4c6962726172793a204944454e544943414c5f41444452455353455300604482015290519081900360640190fd5b826001600160a01b0316846001600160a01b031610614643578284614646565b83835b90925090506001600160a01b0382166146a6576040805162461bcd60e51b815260206004820152601860248201527f444d4d4c6962726172793a205a45524f5f414444524553530000000000000000604482015290519081900360640190fd5b9250929050565b600082820183811015612754576040805162461bcd60e51b815260206004820152601b60248201527f536166654d6174683a206164646974696f6e206f766572666c6f770000000000604482015290519081900360640190fd5b60008060008060008061471a88886145b9565b5090506000806000808c6001600160a01b031663d66940276040518163ffffffff1660e01b815260040160a06040518083038186803b15801561475c57600080fd5b505afa158015614770573d6000803e3d6000fd5b505050506040513d60a081101561478657600080fd5b50805160208201516040830151606084015160809094015199506dffffffffffffffffffffffffffff92831697509082169550811693501690506001600160a01b038c8116908616146147dc57828482846147e1565b838383835b809a50819b50829c50839d50505050505050505050939792965093509350565b6060614856826040518060400160405280602081526020017f5361666545524332303a206c6f772d6c6576656c2063616c6c206661696c6564815250856001600160a01b0316614b379092919063ffffffff16565b8051909150156139b25780806020019051602081101561487557600080fd5b50516139b25760405162461bcd60e51b815260040180806020018281038252602a815260200180614f40602a913960400191505060405180910390fd5b60008087116148f25760405162461bcd60e51b8152600401808060200182810382526025815260200180614f1b6025913960400191505060405180910390fd5b6000861180156149025750600085115b61493d5760405162461bcd60e51b8152600401808060200182810382526022815260200180614df36022913960400191505060405180910390fd5b6000614965670de0b6b3a764000061495f6149588287613e71565b8b90614ade565b90614b46565b905060006149738286614ade565b9050600061498187846146ad565b905061498d8282614b46565b93508388116149cd5760405162461bcd60e51b8152600401808060200182810382526022815260200180614df36022913960400191505060405180910390fd5b5050509695505050505050565b6000808711614a1a5760405162461bcd60e51b8152600401808060200182810382526026815260200180614ef56026913960400191505060405180910390fd5b600086118015614a2957508685115b614a645760405162461bcd60e51b8152600401808060200182810382526022815260200180614df36022913960400191505060405180910390fd5b6000614a708589614ade565b90506000614a7e858a613e71565b9050614a956001614a8f8484614b46565b906146ad565b9250614aa983670de0b6b3a7640000614ade565b9150614abd670de0b6b3a764000085613e71565b9050614ad18161495f8460001983016146ad565b9998505050505050505050565b600082614aed57506000613ecd565b82820282848281614afa57fe5b04146127545760405162461bcd60e51b8152600401808060200182810382526021815260200180614eaf6021913960400191505060405180910390fd5b60606127518484600085614bad565b6000808211614b9c576040805162461bcd60e51b815260206004820152601a60248201527f536166654d6174683a206469766973696f6e206279207a65726f000000000000604482015290519081900360640190fd5b818381614ba557fe5b049392505050565b606082471015614bee5760405162461bcd60e51b8152600401808060200182810382526026815260200180614e696026913960400191505060405180910390fd5b614bf785614d09565b614c48576040805162461bcd60e51b815260206004820152601d60248201527f416464726573733a2063616c6c20746f206e6f6e2d636f6e7472616374000000604482015290519081900360640190fd5b60006060866001600160a01b031685876040518082805190602001908083835b60208310614c875780518252601f199092019160209182019101614c68565b6001836020036101000a03801982511681845116808217855250505050505090500191505060006040518083038185875af1925050503d8060008114614ce9576040519150601f19603f3d011682016040523d82523d6000602084013e614cee565b606091505b5091509150614cfe828286614d0f565b979650505050505050565b3b151590565b60608315614d1e575081612754565b825115614d2e5782518084602001fd5b8160405162461bcd60e51b81526004018080602001828103825283818151815260200191508051906020019080838360005b83811015614d78578181015183820152602001614d60565b50505050905090810190601f168015614da55780820380516001836020036101000a031916815260200191505b509250505060405180910390fd5b6040518060400160405280600290602082028036833750919291505056fe444d4d526f757465723a204558434553534956455f494e5055545f414d4f554e54444d4d4c6962726172793a20494e53554646494349454e545f4c4951554944495459444d4d526f757465723a204558504952454400000000000000000000000000005472616e7366657248656c7065723a3a736166655472616e736665724554483a20455448207472616e73666572206661696c6564416464726573733a20696e73756666696369656e742062616c616e636520666f722063616c6c444d4d526f757465723a20494e56414c49445f50415448000000000000000000536166654d6174683a206d756c7469706c69636174696f6e206f766572666c6f77444d4d526f757465723a20494e53554646494349454e545f4f55545055545f414d4f554e54444d4d4c6962726172793a20494e53554646494349454e545f4f55545055545f414d4f554e54444d4d4c6962726172793a20494e53554646494349454e545f494e5055545f414d4f554e545361666545524332303a204552433230206f7065726174696f6e20646964206e6f742073756363656564444d4d526f757465723a204f55545f4f465f424f554e44535f5652455345525645a2646970667358221220c03e8ef31d4e8eef04974cfde9f17319a1c764f2260b080f4fed8ca04ff9ca8864736f6c634300060c0033",
  "linkReferences": {},
  "deployedLinkReferences": {}
}