{
  "_format": "hh-sol-artifact-1",
  "contractName": "MockVolumeTrendRecorder",
  "sourceName": "contracts/mock/MockVolumeTrendRecorder.sol",
  "abi": [
    {
      "inputs": [
        {
          "internalType": "uint128",
          "name": "_emaInit",
          "type": "uint128"
        }
      ],
      "stateMutability": "nonpayable",
      "type": "constructor"
    },
    {
      "anonymous": false,
      "inputs": [
        {
          "indexed": false,
          "internalType": "uint256",
          "name": "shortEMA",
          "type": "uint256"
        },
        {
          "indexed": false,
          "internalType": "uint256",
          "name": "longEMA",
          "type": "uint256"
        },
        {
          "indexed": false,
          "internalType": "uint128",
          "name": "lastBlockVolume",
          "type": "uint128"
        },
        {
          "indexed": false,
          "internalType": "uint256",
          "name": "skipBlock",
          "type": "uint256"
        }
      ],
      "name": "UpdateEMA",
      "type": "event"
    },
    {
      "inputs": [],
      "name": "getVolumeTrendData",
      "outputs": [
        {
          "internalType": "uint128",
          "name": "_shortEMA",
          "type": "uint128"
        },
        {
          "internalType": "uint128",
          "name": "_longEMA",
          "type": "uint128"
        },
        {
          "internalType": "uint128",
          "name": "_currentBlockVolume",
          "type": "uint128"
        },
        {
          "internalType": "uint128",
          "name": "_lastTradeBlock",
          "type": "uint128"
        }
      ],
      "stateMutability": "view",
      "type": "function"
    },
    {
      "inputs": [],
      "name": "mockGetInfo",
      "outputs": [
        {
          "internalType": "uint128",
          "name": "_shortEMA",
          "type": "uint128"
        },
        {
          "internalType": "uint128",
          "name": "_longEMA",
          "type": "uint128"
        },
        {
          "internalType": "uint128",
          "name": "_currentBlockVolume",
          "type": "uint128"
        },
        {
          "internalType": "uint128",
          "name": "_lastTradeBlock",
          "type": "uint128"
        }
      ],
      "stateMutability": "view",
      "type": "function"
    },
    {
      "inputs": [
        {
          "internalType": "uint256",
          "name": "blockNumber",
          "type": "uint256"
        }
      ],
      "name": "mockGetRFactor",
      "outputs": [
        {
          "internalType": "uint256",
          "name": "",
          "type": "uint256"
        }
      ],
      "stateMutability": "view",
      "type": "function"
    },
    {
      "inputs": [
        {
          "internalType": "uint256",
          "name": "value",
          "type": "uint256"
        },
        {
          "internalType": "uint256",
          "name": "blockNumber",
          "type": "uint256"
        }
      ],
      "name": "mockRecordNewUpdatedVolume",
      "outputs": [],
      "stateMutability": "nonpayable",
      "type": "function"
    },
    {
      "inputs": [
        {
          "internalType": "uint256",
          "name": "a",
          "type": "uint256"
        }
      ],
      "name": "mockSafeUint128",
      "outputs": [
        {
          "internalType": "uint128",
          "name": "",
          "type": "uint128"
        }
      ],
      "stateMutability": "pure",
      "type": "function"
    },
    {
      "inputs": [
        {
          "internalType": "uint256",
          "name": "blockNumber",
          "type": "uint256"
        }
      ],
      "name": "testGasCostGetRFactor",
      "outputs": [
        {
          "internalType": "uint256",
          "name": "",
          "type": "uint256"
        }
      ],
      "stateMutability": "view",
      "type": "function"
    }
  ],
  "bytecode": "0x608060405234801561001057600080fd5b50604051610bdb380380610bdb8339818101604052602081101561003357600080fd5b5051600080546001600160801b0319166001600160801b0380841691821716600160801b91909102179055806100684361008d565b600180546001600160801b03928316600160801b029216919091179055506100e29050565b60006001600160801b038211156100de576040805162461bcd60e51b815260206004820152601060248201526f0deeccae4ccd8deee40ead2dce86264760831b604482015290519081900360640190fd5b5090565b610aea806100f16000396000f3fe608060405234801561001057600080fd5b50600436106100725760003560e01c80636fb5f4d7116100505780636fb5f4d714610110578063f793ec7414610077578063fa1751461461015257610072565b80630d94d50b146100775780631ce734a0146100bc57806324df58e9146100e1575b600080fd5b61007f61016f565b604080516fffffffffffffffffffffffffffffffff9586168152938516602085015291841683830152909216606082015290519081900360800190f35b6100df600480360360408110156100d257600080fd5b50803590602001356101ae565b005b6100fe600480360360208110156100f757600080fd5b50356101bd565b60408051918252519081900360200190f35b61012d6004803603602081101561012657600080fd5b50356101d0565b604080516fffffffffffffffffffffffffffffffff9092168252519081900360200190f35b6100fe6004803603602081101561016857600080fd5b50356101db565b6000546001546fffffffffffffffffffffffffffffffff8083169370010000000000000000000000000000000093849004821693838316930490911690565b6101b881836101f4565b505050565b60006101c88261057b565b90505b919050565b60006101c8826106e7565b6000805a90506101ea8361057b565b505a900392915050565b60015460009070010000000000000000000000000000000090046fffffffffffffffffffffffffffffffff168303806102ef576001546102859061024a906fffffffffffffffffffffffffffffffff168561076c565b6040518060400160405280601a81526020017f766f6c756d6520657863656564732076616c69642072616e67650000000000008152506107e7565b600180547fffffffffffffffffffffffffffffffff00000000000000000000000000000000166fffffffffffffffffffffffffffffffff9283161790556000546102e791818116917001000000000000000000000000000000009004166108a8565b915050610575565b600154600080546fffffffffffffffffffffffffffffffff9283169261033b9116611519671bc16d674ec800005b600154919004906fffffffffffffffffffffffffffffffff166108d2565b600080549192509061037e9070010000000000000000000000000000000090046fffffffffffffffffffffffffffffffff16612a31671bc16d674ec8000061031d565b90506103ce6103c77fffffffffffffffffffffffffffffffffffffffffffffffffffffffffffffffff8601611519671bc16d674ec800005b04670de0b6b3a76400000390610933565b8390610a04565b915061041161040a7fffffffffffffffffffffffffffffffffffffffffffffffffffffffffffffffff8601612a31671bc16d674ec800006103b6565b8290610a04565b905061041c826106e7565b600080547fffffffffffffffffffffffffffffffff00000000000000000000000000000000166fffffffffffffffffffffffffffffffff92909216919091179055610466816106e7565b600080546fffffffffffffffffffffffffffffffff9283167001000000000000000000000000000000000292169190911790556104a2866106e7565b600180547fffffffffffffffffffffffffffffffff00000000000000000000000000000000166fffffffffffffffffffffffffffffffff929092169190911790556104ec876106e7565b600180546fffffffffffffffffffffffffffffffff9283167001000000000000000000000000000000000290831617905560408051848152602081018490529185168282015260608201869052517f96e2c334d3c0fa98c8b728ee84471864ffe5b28e05f46e52f8a469d0ab3a8b8b9181900360800190a161056e82826108a8565b9450505050505b92915050565b60015460009070010000000000000000000000000000000090046fffffffffffffffffffffffffffffffff168203806105ec576000546105e4906fffffffffffffffffffffffffffffffff808216917001000000000000000000000000000000009004166108a8565b9150506101cb565b60008054610617906fffffffffffffffffffffffffffffffff16611519671bc16d674ec8000061031d565b600080549192509061065a9070010000000000000000000000000000000090046fffffffffffffffffffffffffffffffff16612a31671bc16d674ec8000061031d565b90506106966103c77fffffffffffffffffffffffffffffffffffffffffffffffffffffffffffffffff8501611519671bc16d674ec800006103b6565b91506106d261040a7fffffffffffffffffffffffffffffffffffffffffffffffffffffffffffffffff8501612a31671bc16d674ec800006103b6565b90506106de82826108a8565b95945050505050565b60006fffffffffffffffffffffffffffffffff82111561076857604080517f08c379a000000000000000000000000000000000000000000000000000000000815260206004820152601060248201527f6f766572666c6f772075696e7431323800000000000000000000000000000000604482015290519081900360640190fd5b5090565b6000828201838110156107e057604080517f08c379a000000000000000000000000000000000000000000000000000000000815260206004820152601b60248201527f536166654d6174683a206164646974696f6e206f766572666c6f770000000000604482015290519081900360640190fd5b9392505050565b6000816fffffffffffffffffffffffffffffffff8411156108a0576040517f08c379a00000000000000000000000000000000000000000000000000000000081526004018080602001828103825283818151815260200191508051906020019080838360005b8381101561086557818101518382015260200161084d565b50505050905090810190601f1680156108925780820380516001836020036101000a031916815260200191505b509250505060405180910390fd5b509192915050565b6000816108b757506000610575565b81670de0b6b3a76400008402816108ca57fe5b049392505050565b6000670de0b6b3a764000083106108e557fe5b670de0b6b3a7640000826fffffffffffffffffffffffffffffffff168402856fffffffffffffffffffffffffffffffff1685670de0b6b3a76400000302018161092a57fe5b04949350505050565b6000670de0b6b3a76400008311156109ac57604080517f08c379a000000000000000000000000000000000000000000000000000000000815260206004820152601660248201527f4d6174684578743a2078203e20505245434953494f4e00000000000000000000604482015290519081900360640190fd5b600282066109c257670de0b6b3a76400006109c4565b825b90506002820491505b811561057557670de0b6b3a764000083800204925060028206156109f957670de0b6b3a7640000908302045b6002820491506109cd565b6000670de0b6b3a7640000610a198484610a20565b816108ca57fe5b600082610a2f57506000610575565b82820282848281610a3c57fe5b04146107e0576040517f08c379a0000000000000000000000000000000000000000000000000000000008152600401808060200182810382526021815260200180610a946021913960400191505060405180910390fdfe536166654d6174683a206d756c7469706c69636174696f6e206f766572666c6f77a264697066735822122049bdc7ce1e39feb2891b6b911cf123963ba5cc80726063195e74054fc06c8d3564736f6c634300060c0033",
  "linkReferences": {},
  "deployedLinkReferences": {}
}