{
  "_format": "hh-sol-artifact-1",
  "contractName": "MockVolumeTrendRecorder",
  "sourceName": "contracts/mock/MockVolumeTrendRecorder.sol",
  "abi": [
    {
      "inputs": [
        {
          "internalType": "uint128",
          "name": "_emaInit",
          "type": "uint128"
        }
      ],
      "stateMutability": "nonpayable",
      "type": "constructor"
    },
    {
      "anonymous": false,
      "inputs": [
        {
          "indexed": false,
          "internalType": "uint256",
          "name": "shortEMA",
          "type": "uint256"
        },
        {
          "indexed": false,
          "internalType": "uint256",
          "name": "longEMA",
          "type": "uint256"
        },
        {
          "indexed": false,
          "internalType": "uint128",
          "name": "lastBlockVolume",
          "type": "uint128"
        },
        {
          "indexed": false,
          "internalType": "uint256",
          "name": "skipBlock",
          "type": "uint256"
        }
      ],
      "name": "UpdateEMA",
      "type": "event"
    },
    {
      "inputs": [],
      "name": "getVolumeTrendData",
      "outputs": [
        {
          "internalType": "uint128",
          "name": "_shortEMA",
          "type": "uint128"
        },
        {
          "internalType": "uint128",
          "name": "_longEMA",
          "type": "uint128"
        },
        {
          "internalType": "uint128",
          "name": "_currentBlockVolume",
          "type": "uint128"
        },
        {
          "internalType": "uint128",
          "name": "_lastTradeBlock",
          "type": "uint128"
        }
      ],
      "stateMutability": "view",
      "type": "function"
    },
    {
      "inputs": [],
      "name": "mockGetInfo",
      "outputs": [
        {
          "internalType": "uint128",
          "name": "_shortEMA",
          "type": "uint128"
        },
        {
          "internalType": "uint128",
          "name": "_longEMA",
          "type": "uint128"
        },
        {
          "internalType": "uint128",
          "name": "_currentBlockVolume",
          "type": "uint128"
        },
        {
          "internalType": "uint128",
          "name": "_lastTradeBlock",
          "type": "uint128"
        }
      ],
      "stateMutability": "view",
      "type": "function"
    },
    {
      "inputs": [
        {
          "internalType": "uint256",
          "name": "blockNumber",
          "type": "uint256"
        }
      ],
      "name": "mockGetRFactor",
      "outputs": [
        {
          "internalType": "uint256",
          "name": "",
          "type": "uint256"
        }
      ],
      "stateMutability": "view",
      "type": "function"
    },
    {
      "inputs": [
        {
          "internalType": "uint256",
          "name": "value",
          "type": "uint256"
        },
        {
          "internalType": "uint256",
          "name": "blockNumber",
          "type": "uint256"
        }
      ],
      "name": "mockRecordNewUpdatedVolume",
      "outputs": [],
      "stateMutability": "nonpayable",
      "type": "function"
    },
    {
      "inputs": [
        {
          "internalType": "uint256",
          "name": "a",
          "type": "uint256"
        }
      ],
      "name": "mockSafeUint128",
      "outputs": [
        {
          "internalType": "uint128",
          "name": "",
          "type": "uint128"
        }
      ],
      "stateMutability": "pure",
      "type": "function"
    },
    {
      "inputs": [
        {
          "internalType": "uint256",
          "name": "blockNumber",
          "type": "uint256"
        }
      ],
      "name": "testGasCostGetRFactor",
      "outputs": [
        {
          "internalType": "uint256",
          "name": "",
          "type": "uint256"
        }
      ],
      "stateMutability": "view",
      "type": "function"
    }
  ],
  "bytecode": "0x608060405234801561001057600080fd5b506040516109433803806109438339818101604052602081101561003357600080fd5b5051600080546001600160801b0319166001600160801b0380841691821716600160801b91909102179055806100684361008d565b600180546001600160801b03928316600160801b029216919091179055506100e29050565b60006001600160801b038211156100de576040805162461bcd60e51b815260206004820152601060248201526f0deeccae4ccd8deee40ead2dce86264760831b604482015290519081900360640190fd5b5090565b610852806100f16000396000f3fe608060405234801561001057600080fd5b50600436106100625760003560e01c80630d94d50b146100675780631ce734a0146100a357806324df58e9146100c85780636fb5f4d7146100f7578063f793ec7414610067578063fa17514614610130575b600080fd5b61006f61014d565b604080516001600160801b039586168152938516602085015291841683830152909216606082015290519081900360800190f35b6100c6600480360360408110156100b957600080fd5b5080359060200135610176565b005b6100e5600480360360208110156100de57600080fd5b5035610185565b60408051918252519081900360200190f35b6101146004803603602081101561010d57600080fd5b5035610198565b604080516001600160801b039092168252519081900360200190f35b6100e56004803603602081101561014657600080fd5b50356101a3565b6000546001546001600160801b0380831693600160801b93849004821693838316930490911690565b61018081836101bc565b505050565b600061019082610424565b90505b919050565b600061019082610509565b6000805a90506101b283610424565b505a900392915050565b600154600090600160801b90046001600160801b031683038061026a5760015461022e906101f3906001600160801b03168561055e565b6040518060400160405280601a81526020017f766f6c756d6520657863656564732076616c69642072616e67650000000000008152506105bf565b600180546001600160801b0319166001600160801b039283161790556000546102629181811691600160801b90041661065d565b91505061041e565b600154600080546001600160801b03928316926102a49116611519671bc16d674ec800005b600154919004906001600160801b0316610687565b60008054919250906102d190600160801b90046001600160801b0316612a31671bc16d674ec8000061028f565b90506103036102fc6000198601611519671bc16d674ec800005b04670de0b6b3a764000003906106d6565b8390610786565b91506103286103216000198601612a31671bc16d674ec800006102eb565b8290610786565b905061033382610509565b600080546001600160801b0319166001600160801b039290921691909117905561035c81610509565b600080546001600160801b03928316600160801b02921691909117905561038286610509565b600180546001600160801b0319166001600160801b03929092169190911790556103ab87610509565b600180546001600160801b03928316600160801b0290831617905560408051848152602081018490529185168282015260608201869052517f96e2c334d3c0fa98c8b728ee84471864ffe5b28e05f46e52f8a469d0ab3a8b8b9181900360800190a1610417828261065d565b9450505050505b92915050565b600154600090600160801b90046001600160801b031682038061046957600054610461906001600160801b0380821691600160801b90041661065d565b915050610193565b6000805461048b906001600160801b0316611519671bc16d674ec8000061028f565b60008054919250906104b890600160801b90046001600160801b0316612a31671bc16d674ec8000061028f565b90506104d66102fc6000198501611519671bc16d674ec800006102eb565b91506104f46103216000198501612a31671bc16d674ec800006102eb565b9050610500828261065d565b95945050505050565b60006001600160801b0382111561055a576040805162461bcd60e51b815260206004820152601060248201526f0deeccae4ccd8deee40ead2dce86264760831b604482015290519081900360640190fd5b5090565b6000828201838110156105b8576040805162461bcd60e51b815260206004820152601b60248201527f536166654d6174683a206164646974696f6e206f766572666c6f770000000000604482015290519081900360640190fd5b9392505050565b6000816001600160801b038411156106555760405162461bcd60e51b81526004018080602001828103825283818151815260200191508051906020019080838360005b8381101561061a578181015183820152602001610602565b50505050905090810190601f1680156106475780820380516001836020036101000a031916815260200191505b509250505060405180910390fd5b509192915050565b60008161066c5750600061041e565b81670de0b6b3a764000084028161067f57fe5b049392505050565b6000670de0b6b3a7640000831061069a57fe5b670de0b6b3a7640000826001600160801b03168402856001600160801b031685670de0b6b3a7640000030201816106cd57fe5b04949350505050565b6000670de0b6b3a764000083111561072e576040805162461bcd60e51b815260206004820152601660248201527526b0ba3422bc3a1d103c101f10282922a1a4a9a4a7a760511b604482015290519081900360640190fd5b6002820661074457670de0b6b3a7640000610746565b825b90506002820491505b811561041e57670de0b6b3a7640000838002049250600282061561077b57670de0b6b3a7640000908302045b60028204915061074f565b6000670de0b6b3a764000061079b84846107a2565b8161067f57fe5b6000826107b15750600061041e565b828202828482816107be57fe5b04146105b85760405162461bcd60e51b81526004018080602001828103825260218152602001806107fc6021913960400191505060405180910390fdfe536166654d6174683a206d756c7469706c69636174696f6e206f766572666c6f77a264697066735822122012642e09979402e976e7e5e69ce8bec3a80ddb5af4222dd04caf979d388dfb6664736f6c634300060c0033",
  "linkReferences": {},
  "deployedLinkReferences": {}
}