{
  "_format": "hh-sol-artifact-1",
  "contractName": "ExampleFlashSwap",
  "sourceName": "contracts/examples/ExampleFlashSwap.sol",
  "abi": [
    {
      "inputs": [
        {
          "internalType": "contract IUniswapV2Router02",
          "name": "_uniswapRounter02",
          "type": "address"
        },
        {
          "internalType": "address",
          "name": "_factory",
          "type": "address"
        }
      ],
      "stateMutability": "nonpayable",
      "type": "constructor"
    },
    {
      "inputs": [
        {
          "internalType": "address",
          "name": "sender",
          "type": "address"
        },
        {
          "internalType": "uint256",
          "name": "amount0",
          "type": "uint256"
        },
        {
          "internalType": "uint256",
          "name": "amount1",
          "type": "uint256"
        },
        {
          "internalType": "bytes",
          "name": "data",
          "type": "bytes"
        }
      ],
      "name": "dmmSwapCall",
      "outputs": [],
      "stateMutability": "nonpayable",
      "type": "function"
    },
    {
      "inputs": [],
      "name": "factory",
      "outputs": [
        {
          "internalType": "address",
          "name": "",
          "type": "address"
        }
      ],
      "stateMutability": "view",
      "type": "function"
    },
    {
      "inputs": [],
      "name": "uniswapRounter02",
      "outputs": [
        {
          "internalType": "contract IUniswapV2Router02",
          "name": "",
          "type": "address"
        }
      ],
      "stateMutability": "view",
      "type": "function"
    },
    {
      "inputs": [],
      "name": "weth",
      "outputs": [
        {
          "internalType": "contract IWETH",
          "name": "",
          "type": "address"
        }
      ],
      "stateMutability": "view",
      "type": "function"
    },
    {
      "stateMutability": "payable",
      "type": "receive"
    }
  ],
  "bytecode": "0x60c060405234801561001057600080fd5b50604051611a46380380611a468339818101604052604081101561003357600080fd5b508051602091820151600080546001600160a01b0319166001600160a01b038416908117909155604080516315ab88c960e31b8152905193949293919263ad5c464892600480840193829003018186803b15801561009057600080fd5b505afa1580156100a4573d6000803e3d6000fd5b505050506040513d60208110156100ba57600080fd5b50516001600160601b0319606091821b811660a05291901b166080525060805160601c60a05160601c61191e61012860003980610147528061047852806104ad52806104f2528061054152806107ee52806108845280610a245250806103025280610df5525061191e6000f3fe6080604052600436106100435760003560e01c80633fc8cef31461004f57806381279c7e14610080578063c45a01551461011b578063d9390855146101305761004a565b3661004a57005b600080fd5b34801561005b57600080fd5b50610064610145565b604080516001600160a01b039092168252519081900360200190f35b34801561008c57600080fd5b50610119600480360360808110156100a357600080fd5b6001600160a01b0382351691602081013591604082013591908101906080810160608201356401000000008111156100da57600080fd5b8201836020820111156100ec57600080fd5b8035906020019184600183028401116401000000008311171561010e57600080fd5b509092509050610169565b005b34801561012757600080fd5b50610064610df3565b34801561013c57600080fd5b50610064610e17565b7f000000000000000000000000000000000000000000000000000000000000000081565b604080516002808252606080830184529260208301908036833750506040805160028082526060808301845294955090925090602083019080368337505060408051600180825281830190925292935060609291506020808301908036833701905050905033816000815181106101dc57fe5b60200260200101906001600160a01b031690816001600160a01b0316815250506000806000336001600160a01b0316630dfe16816040518163ffffffff1660e01b815260040160206040518083038186803b15801561023a57600080fd5b505afa15801561024e573d6000803e3d6000fd5b505050506040513d602081101561026457600080fd5b50516040805163d21220a760e01b81529051919250600091339163d21220a7916004808301926020929190829003018186803b1580156102a357600080fd5b505afa1580156102b7573d6000803e3d6000fd5b505050506040513d60208110156102cd57600080fd5b50516040805163eb787f6160e01b81526001600160a01b038581166004830152808416602483015233604483015291519293507f00000000000000000000000000000000000000000000000000000000000000009091169163eb787f6191606480820192602092909190829003018186803b15801561034b57600080fd5b505afa15801561035f573d6000803e3d6000fd5b505050506040513d602081101561037557600080fd5b505161037d57fe5b8a1580610388575089155b61038e57fe5b8a1561039a578061039c565b815b876000815181106103a957fe5b6001600160a01b03909216602092830291909101909101528a156103cd57816103cf565b805b876001815181106103dc57fe5b60200260200101906001600160a01b031690816001600160a01b0316815250508660018151811061040957fe5b60200260200101518660008151811061041e57fe5b60200260200101906001600160a01b031690816001600160a01b0316815250508660008151811061044b57fe5b60200260200101518660018151811061046057fe5b6001600160a01b0392831660209182029290920101527f00000000000000000000000000000000000000000000000000000000000000008116908316146104a7578a6104a9565b895b93507f00000000000000000000000000000000000000000000000000000000000000006001600160a01b0316826001600160a01b0316146104ea57896104ec565b8a5b925050507f00000000000000000000000000000000000000000000000000000000000000006001600160a01b03168560008151811061052757fe5b60200260200101516001600160a01b0316148061058957507f00000000000000000000000000000000000000000000000000000000000000006001600160a01b03168560018151811061057657fe5b60200260200101516001600160a01b0316145b61058f57fe5b8115610a22576000878760208110156105a757600080fd5b5035905060006105b8848689610e26565b6000815181106105c457fe5b6020026020010151905061061360008054906101000a90046001600160a01b031685896001815181106105f357fe5b60200260200101516001600160a01b0316610f479092919063ffffffff16565b606060008054906101000a90046001600160a01b03166001600160a01b03166338ed173986858a306000196040518663ffffffff1660e01b81526004018086815260200185815260200180602001846001600160a01b03168152602001838152602001828103825285818151815260200191508051906020019060200280838360005b838110156106ae578181015183820152602001610696565b505050509050019650505050505050600060405180830381600087803b1580156106d757600080fd5b505af11580156106eb573d6000803e3d6000fd5b505050506040513d6000823e601f3d908101601f19168201604052602081101561071457600080fd5b810190808051604051939291908464010000000082111561073457600080fd5b90830190602082018581111561074957600080fd5b825186602082028301116401000000008211171561076657600080fd5b82525081516020918201928201910280838360005b8381101561079357818101518382015260200161077b565b5050505090500160405250505090506000816001835103815181106107b457fe5b602002602001015190508281116107c757fe5b6040805163a9059cbb60e01b81523360048201526024810185905290516001600160a01b037f0000000000000000000000000000000000000000000000000000000000000000169163a9059cbb9160448083019260209291908290030181600087803b15801561083657600080fd5b505af115801561084a573d6000803e3d6000fd5b505050506040513d602081101561086057600080fd5b505060408051632e1a7d4d60e01b8152848303600482015290516001600160a01b037f00000000000000000000000000000000000000000000000000000000000000001691632e1a7d4d91602480830192600092919082900301818387803b1580156108cb57600080fd5b505af11580156108df573d6000803e3d6000fd5b5050505060008e6001600160a01b0316848303600067ffffffffffffffff8111801561090a57600080fd5b506040519080825280601f01601f191660200182016040528015610935576020820181803683370190505b506040518082805190602001908083835b602083106109655780518252601f199092019160209182019101610946565b6001836020036101000a03801982511681845116808217855250505050505090500191505060006040518083038185875af1925050503d80600081146109c7576040519150601f19603f3d011682016040523d82523d6000602084013e6109cc565b606091505b5050905080610a18576040805162461bcd60e51b81526020600482015260136024820152721d1c985b9cd9995c88195d1a0819985a5b1959606a1b604482015290519081900360640190fd5b5050505050610de7565b7f00000000000000000000000000000000000000000000000000000000000000006001600160a01b0316632e1a7d4d826040518263ffffffff1660e01b815260040180828152602001915050600060405180830381600087803b158015610a8857600080fd5b505af1158015610a9c573d6000803e3d6000fd5b505050506000610aad828588610e26565b600081518110610ab957fe5b60200260200101519050606060008054906101000a90046001600160a01b03166001600160a01b031663fb3bdb41848489306000196040518663ffffffff1660e01b81526004018085815260200180602001846001600160a01b03168152602001838152602001828103825285818151815260200191508051906020019060200280838360005b83811015610b58578181015183820152602001610b40565b50505050905001955050505050506000604051808303818588803b158015610b7f57600080fd5b505af1158015610b93573d6000803e3d6000fd5b50505050506040513d6000823e601f3d908101601f191682016040526020811015610bbd57600080fd5b8101908080516040519392919084640100000000821115610bdd57600080fd5b908301906020820185811115610bf257600080fd5b8251866020820283011164010000000082111715610c0f57600080fd5b82525081516020918201928201910280838360005b83811015610c3c578181015183820152602001610c24565b505050509050016040525050509050610c7d338389600081518110610c5d57fe5b60200260200101516001600160a01b031661105f9092919063ffffffff16565b80600081518110610c8a57fe5b60200260200101518311610c9a57fe5b60008c6001600160a01b031682600081518110610cb357fe5b60200260200101518503600067ffffffffffffffff81118015610cd557600080fd5b506040519080825280601f01601f191660200182016040528015610d00576020820181803683370190505b506040518082805190602001908083835b60208310610d305780518252601f199092019160209182019101610d11565b6001836020036101000a03801982511681845116808217855250505050505090500191505060006040518083038185875af1925050503d8060008114610d92576040519150601f19603f3d011682016040523d82523d6000602084013e610d97565b606091505b5050905080610de3576040805162461bcd60e51b81526020600482015260136024820152721d1c985b9cd9995c88195d1a0819985a5b1959606a1b604482015290519081900360640190fd5b5050505b50505050505050505050565b7f000000000000000000000000000000000000000000000000000000000000000081565b6000546001600160a01b031681565b6060815167ffffffffffffffff81118015610e4057600080fd5b50604051908082528060200260200182016040528015610e6a578160200160208202803683370190505b5090508381600183510381518110610e7e57fe5b60209081029190910101528151600019015b8015610f3f576000806000806000610ee8896001880381518110610eb057fe5b6020026020010151896001890381518110610ec757fe5b60200260200101518a8981518110610edb57fe5b60200260200101516110b1565b94509450945094509450610f13878781518110610f0157fe5b602002602001015186868686866111ab565b876001880381518110610f2257fe5b602090810291909101015250506000199093019250610e90915050565b509392505050565b801580610fcd575060408051636eb1769f60e11b81523060048201526001600160a01b03848116602483015291519185169163dd62ed3e91604480820192602092909190829003018186803b158015610f9f57600080fd5b505afa158015610fb3573d6000803e3d6000fd5b505050506040513d6020811015610fc957600080fd5b5051155b6110085760405162461bcd60e51b81526004018080602001828103825260368152602001806118b36036913960400191505060405180910390fd5b604080516001600160a01b038416602482015260448082018490528251808303909101815260649091019091526020810180516001600160e01b031663095ea7b360e01b17905261105a9084906112b5565b505050565b604080516001600160a01b038416602482015260448082018490528251808303909101815260649091019091526020810180516001600160e01b031663a9059cbb60e01b17905261105a9084906112b5565b6000806000806000806110c48888611366565b5090506000806000808c6001600160a01b031663d66940276040518163ffffffff1660e01b815260040160a06040518083038186803b15801561110657600080fd5b505afa15801561111a573d6000803e3d6000fd5b505050506040513d60a081101561113057600080fd5b50805160208201516040830151606084015160809094015199506dffffffffffffffffffffffffffff92831697509082169550811693501690506001600160a01b038c811690861614611186578284828461118b565b838383835b809a50819b50829c50839d50505050505050505050939792965093509350565b60008087116111eb5760405162461bcd60e51b81526004018080602001828103825260268152602001806118636026913960400191505060405180910390fd5b6000861180156111fa57508685115b6112355760405162461bcd60e51b81526004018080602001828103825260228152602001806117fa6022913960400191505060405180910390fd5b6000611241858961145a565b9050600061124f858a6114bc565b905061126660016112608484611519565b90611580565b925061127a83670de0b6b3a764000061145a565b915061128e670de0b6b3a7640000856114bc565b90506112a8816112a2846000198301611580565b90611519565b9998505050505050505050565b606061130a826040518060400160405280602081526020017f5361666545524332303a206c6f772d6c6576656c2063616c6c206661696c6564815250856001600160a01b03166115da9092919063ffffffff16565b80519091501561105a5780806020019051602081101561132957600080fd5b505161105a5760405162461bcd60e51b815260040180806020018281038252602a815260200180611889602a913960400191505060405180910390fd5b600080826001600160a01b0316846001600160a01b031614156113d0576040805162461bcd60e51b815260206004820152601f60248201527f444d4d4c6962726172793a204944454e544943414c5f41444452455353455300604482015290519081900360640190fd5b826001600160a01b0316846001600160a01b0316106113f05782846113f3565b83835b90925090506001600160a01b038216611453576040805162461bcd60e51b815260206004820152601860248201527f444d4d4c6962726172793a205a45524f5f414444524553530000000000000000604482015290519081900360640190fd5b9250929050565b600082611469575060006114b6565b8282028284828161147657fe5b04146114b35760405162461bcd60e51b81526004018080602001828103825260218152602001806118426021913960400191505060405180910390fd5b90505b92915050565b600082821115611513576040805162461bcd60e51b815260206004820152601e60248201527f536166654d6174683a207375627472616374696f6e206f766572666c6f770000604482015290519081900360640190fd5b50900390565b600080821161156f576040805162461bcd60e51b815260206004820152601a60248201527f536166654d6174683a206469766973696f6e206279207a65726f000000000000604482015290519081900360640190fd5b81838161157857fe5b049392505050565b6000828201838110156114b3576040805162461bcd60e51b815260206004820152601b60248201527f536166654d6174683a206164646974696f6e206f766572666c6f770000000000604482015290519081900360640190fd5b60606115e984846000856115f3565b90505b9392505050565b6060824710156116345760405162461bcd60e51b815260040180806020018281038252602681526020018061181c6026913960400191505060405180910390fd5b61163d8561174f565b61168e576040805162461bcd60e51b815260206004820152601d60248201527f416464726573733a2063616c6c20746f206e6f6e2d636f6e7472616374000000604482015290519081900360640190fd5b60006060866001600160a01b031685876040518082805190602001908083835b602083106116cd5780518252601f1990920191602091820191016116ae565b6001836020036101000a03801982511681845116808217855250505050505090500191505060006040518083038185875af1925050503d806000811461172f576040519150601f19603f3d011682016040523d82523d6000602084013e611734565b606091505b5091509150611744828286611755565b979650505050505050565b3b151590565b606083156117645750816115ec565b8251156117745782518084602001fd5b8160405162461bcd60e51b81526004018080602001828103825283818151815260200191508051906020019080838360005b838110156117be5781810151838201526020016117a6565b50505050905090810190601f1680156117eb5780820380516001836020036101000a031916815260200191505b509250505060405180910390fdfe444d4d4c6962726172793a20494e53554646494349454e545f4c4951554944495459416464726573733a20696e73756666696369656e742062616c616e636520666f722063616c6c536166654d6174683a206d756c7469706c69636174696f6e206f766572666c6f77444d4d4c6962726172793a20494e53554646494349454e545f4f55545055545f414d4f554e545361666545524332303a204552433230206f7065726174696f6e20646964206e6f7420737563636565645361666545524332303a20617070726f76652066726f6d206e6f6e2d7a65726f20746f206e6f6e2d7a65726f20616c6c6f77616e6365a264697066735822122025408f00f53cefd44de8aec618fe15633813916a203246fc156aa77bce21865a64736f6c634300060c0033",
  "linkReferences": {},
  "deployedLinkReferences": {}
}