{
  "_format": "hh-sol-artifact-1",
  "contractName": "ExampleFlashSwap",
  "sourceName": "contracts/examples/ExampleFlashSwap.sol",
  "abi": [
    {
      "inputs": [
        {
          "internalType": "contract IUniswapV2Router02",
          "name": "_uniswapRounter02",
          "type": "address"
        },
        {
          "internalType": "address",
          "name": "_factory",
          "type": "address"
        }
      ],
      "stateMutability": "nonpayable",
      "type": "constructor"
    },
    {
      "inputs": [
        {
          "internalType": "address",
          "name": "sender",
          "type": "address"
        },
        {
          "internalType": "uint256",
          "name": "amount0",
          "type": "uint256"
        },
        {
          "internalType": "uint256",
          "name": "amount1",
          "type": "uint256"
        },
        {
          "internalType": "bytes",
          "name": "data",
          "type": "bytes"
        }
      ],
      "name": "dmmSwapCall",
      "outputs": [],
      "stateMutability": "nonpayable",
      "type": "function"
    },
    {
      "inputs": [],
      "name": "factory",
      "outputs": [
        {
          "internalType": "address",
          "name": "",
          "type": "address"
        }
      ],
      "stateMutability": "view",
      "type": "function"
    },
    {
      "inputs": [],
      "name": "uniswapRounter02",
      "outputs": [
        {
          "internalType": "contract IUniswapV2Router02",
          "name": "",
          "type": "address"
        }
      ],
      "stateMutability": "view",
      "type": "function"
    },
    {
      "inputs": [],
      "name": "weth",
      "outputs": [
        {
          "internalType": "contract IWETH",
          "name": "",
          "type": "address"
        }
      ],
      "stateMutability": "view",
      "type": "function"
    },
    {
      "stateMutability": "payable",
      "type": "receive"
    }
  ],
  "bytecode": "0x60c060405234801561001057600080fd5b5060405161202e38038061202e8339818101604052604081101561003357600080fd5b508051602091820151600080546001600160a01b0319166001600160a01b038416908117909155604080516315ab88c960e31b8152905193949293919263ad5c464892600480840193829003018186803b15801561009057600080fd5b505afa1580156100a4573d6000803e3d6000fd5b505050506040513d60208110156100ba57600080fd5b50516001600160601b0319606091821b811660a05291901b166080525060805160601c60a05160601c611f06610128600039806101615280610546528061057b52806105da528061064352806109ad5280610a695280610c5852508061038252806110f55250611f066000f3fe6080604052600436106100435760003560e01c80633fc8cef31461004f57806381279c7e1461008d578063c45a015514610135578063d93908551461014a5761004a565b3661004a57005b600080fd5b34801561005b57600080fd5b5061006461015f565b6040805173ffffffffffffffffffffffffffffffffffffffff9092168252519081900360200190f35b34801561009957600080fd5b50610133600480360360808110156100b057600080fd5b73ffffffffffffffffffffffffffffffffffffffff82351691602081013591604082013591908101906080810160608201356401000000008111156100f457600080fd5b82018360208201111561010657600080fd5b8035906020019184600183028401116401000000008311171561012857600080fd5b509092509050610183565b005b34801561014157600080fd5b506100646110f3565b34801561015657600080fd5b50610064611117565b7f000000000000000000000000000000000000000000000000000000000000000081565b604080516002808252606080830184529260208301908036833750506040805160028082526060808301845294955090925090602083019080368337505060408051600180825281830190925292935060609291506020808301908036833701905050905033816000815181106101f657fe5b602002602001019073ffffffffffffffffffffffffffffffffffffffff16908173ffffffffffffffffffffffffffffffffffffffff168152505060008060003373ffffffffffffffffffffffffffffffffffffffff16630dfe16816040518163ffffffff1660e01b815260040160206040518083038186803b15801561027b57600080fd5b505afa15801561028f573d6000803e3d6000fd5b505050506040513d60208110156102a557600080fd5b5051604080517fd21220a70000000000000000000000000000000000000000000000000000000081529051919250600091339163d21220a7916004808301926020929190829003018186803b1580156102fd57600080fd5b505afa158015610311573d6000803e3d6000fd5b505050506040513d602081101561032757600080fd5b5051604080517feb787f6100000000000000000000000000000000000000000000000000000000815273ffffffffffffffffffffffffffffffffffffffff8581166004830152808416602483015233604483015291519293507f00000000000000000000000000000000000000000000000000000000000000009091169163eb787f6191606480820192602092909190829003018186803b1580156103cb57600080fd5b505afa1580156103df573d6000803e3d6000fd5b505050506040513d60208110156103f557600080fd5b50516103fd57fe5b8a1580610408575089155b61040e57fe5b8a1561041a578061041c565b815b8760008151811061042957fe5b73ffffffffffffffffffffffffffffffffffffffff909216602092830291909101909101528a1561045a578161045c565b805b8760018151811061046957fe5b602002602001019073ffffffffffffffffffffffffffffffffffffffff16908173ffffffffffffffffffffffffffffffffffffffff1681525050866001815181106104b057fe5b6020026020010151866000815181106104c557fe5b602002602001019073ffffffffffffffffffffffffffffffffffffffff16908173ffffffffffffffffffffffffffffffffffffffff16815250508660008151811061050c57fe5b60200260200101518660018151811061052157fe5b73ffffffffffffffffffffffffffffffffffffffff92831660209182029290920101527f0000000000000000000000000000000000000000000000000000000000000000811690831614610575578a610577565b895b93507f000000000000000000000000000000000000000000000000000000000000000073ffffffffffffffffffffffffffffffffffffffff168273ffffffffffffffffffffffffffffffffffffffff16146105d257896105d4565b8a5b925050507f000000000000000000000000000000000000000000000000000000000000000073ffffffffffffffffffffffffffffffffffffffff168560008151811061061c57fe5b602002602001015173ffffffffffffffffffffffffffffffffffffffff1614806106a557507f000000000000000000000000000000000000000000000000000000000000000073ffffffffffffffffffffffffffffffffffffffff168560018151811061068557fe5b602002602001015173ffffffffffffffffffffffffffffffffffffffff16145b6106ab57fe5b8115610c56576000878760208110156106c357600080fd5b5035905060006106d4848689611133565b6000815181106106e057fe5b6020026020010151905061074960008054906101000a900473ffffffffffffffffffffffffffffffffffffffff16858960018151811061071c57fe5b602002602001015173ffffffffffffffffffffffffffffffffffffffff166112909092919063ffffffff16565b606060008054906101000a900473ffffffffffffffffffffffffffffffffffffffff1673ffffffffffffffffffffffffffffffffffffffff166338ed173986858a307fffffffffffffffffffffffffffffffffffffffffffffffffffffffffffffffff6040518663ffffffff1660e01b815260040180868152602001858152602001806020018473ffffffffffffffffffffffffffffffffffffffff168152602001838152602001828103825285818151815260200191508051906020019060200280838360005b83811015610829578181015183820152602001610811565b505050509050019650505050505050600060405180830381600087803b15801561085257600080fd5b505af1158015610866573d6000803e3d6000fd5b505050506040513d6000823e601f3d9081017fffffffffffffffffffffffffffffffffffffffffffffffffffffffffffffffe016820160405260208110156108ad57600080fd5b81019080805160405193929190846401000000008211156108cd57600080fd5b9083019060208201858111156108e257600080fd5b82518660208202830111640100000000821117156108ff57600080fd5b82525081516020918201928201910280838360005b8381101561092c578181015183820152602001610914565b50505050905001604052505050905060008160018351038151811061094d57fe5b6020026020010151905082811161096057fe5b604080517fa9059cbb00000000000000000000000000000000000000000000000000000000815233600482015260248101859052905173ffffffffffffffffffffffffffffffffffffffff7f0000000000000000000000000000000000000000000000000000000000000000169163a9059cbb9160448083019260209291908290030181600087803b1580156109f557600080fd5b505af1158015610a09573d6000803e3d6000fd5b505050506040513d6020811015610a1f57600080fd5b5050604080517f2e1a7d4d0000000000000000000000000000000000000000000000000000000081528483036004820152905173ffffffffffffffffffffffffffffffffffffffff7f00000000000000000000000000000000000000000000000000000000000000001691632e1a7d4d91602480830192600092919082900301818387803b158015610ab057600080fd5b505af1158015610ac4573d6000803e3d6000fd5b5050505060008e73ffffffffffffffffffffffffffffffffffffffff16848303600067ffffffffffffffff81118015610afc57600080fd5b506040519080825280601f01601f191660200182016040528015610b27576020820181803683370190505b506040518082805190602001908083835b60208310610b7557805182527fffffffffffffffffffffffffffffffffffffffffffffffffffffffffffffffe09092019160209182019101610b38565b6001836020036101000a03801982511681845116808217855250505050505090500191505060006040518083038185875af1925050503d8060008114610bd7576040519150601f19603f3d011682016040523d82523d6000602084013e610bdc565b606091505b5050905080610c4c57604080517f08c379a000000000000000000000000000000000000000000000000000000000815260206004820152601360248201527f7472616e7366657220657468206661696c656400000000000000000000000000604482015290519081900360640190fd5b50505050506110e7565b7f000000000000000000000000000000000000000000000000000000000000000073ffffffffffffffffffffffffffffffffffffffff16632e1a7d4d826040518263ffffffff1660e01b815260040180828152602001915050600060405180830381600087803b158015610cc957600080fd5b505af1158015610cdd573d6000803e3d6000fd5b505050506000610cee828588611133565b600081518110610cfa57fe5b60200260200101519050606060008054906101000a900473ffffffffffffffffffffffffffffffffffffffff1673ffffffffffffffffffffffffffffffffffffffff1663fb3bdb41848489307fffffffffffffffffffffffffffffffffffffffffffffffffffffffffffffffff6040518663ffffffff1660e01b815260040180858152602001806020018473ffffffffffffffffffffffffffffffffffffffff168152602001838152602001828103825285818151815260200191508051906020019060200280838360005b83811015610dde578181015183820152602001610dc6565b50505050905001955050505050506000604051808303818588803b158015610e0557600080fd5b505af1158015610e19573d6000803e3d6000fd5b50505050506040513d6000823e601f3d9081017fffffffffffffffffffffffffffffffffffffffffffffffffffffffffffffffe01682016040526020811015610e6157600080fd5b8101908080516040519392919084640100000000821115610e8157600080fd5b908301906020820185811115610e9657600080fd5b8251866020820283011164010000000082111715610eb357600080fd5b82525081516020918201928201910280838360005b83811015610ee0578181015183820152602001610ec8565b505050509050016040525050509050610f2e338389600081518110610f0157fe5b602002602001015173ffffffffffffffffffffffffffffffffffffffff166114239092919063ffffffff16565b80600081518110610f3b57fe5b60200260200101518311610f4b57fe5b60008c73ffffffffffffffffffffffffffffffffffffffff1682600081518110610f7157fe5b60200260200101518503600067ffffffffffffffff81118015610f9357600080fd5b506040519080825280601f01601f191660200182016040528015610fbe576020820181803683370190505b506040518082805190602001908083835b6020831061100c57805182527fffffffffffffffffffffffffffffffffffffffffffffffffffffffffffffffe09092019160209182019101610fcf565b6001836020036101000a03801982511681845116808217855250505050505090500191505060006040518083038185875af1925050503d806000811461106e576040519150601f19603f3d011682016040523d82523d6000602084013e611073565b606091505b50509050806110e357604080517f08c379a000000000000000000000000000000000000000000000000000000000815260206004820152601360248201527f7472616e7366657220657468206661696c656400000000000000000000000000604482015290519081900360640190fd5b5050505b50505050505050505050565b7f000000000000000000000000000000000000000000000000000000000000000081565b60005473ffffffffffffffffffffffffffffffffffffffff1681565b6060815167ffffffffffffffff8111801561114d57600080fd5b50604051908082528060200260200182016040528015611177578160200160208202803683370190505b509050838160018351038151811061118b57fe5b602090810291909101015281517fffffffffffffffffffffffffffffffffffffffffffffffffffffffffffffffff015b80156112885760008060008060006112138960018803815181106111db57fe5b60200260200101518960018903815181106111f257fe5b60200260200101518a898151811061120657fe5b60200260200101516114b0565b9450945094509450945061123e87878151811061122c57fe5b602002602001015186868686866115c4565b87600188038151811061124d57fe5b602090810291909101015250507fffffffffffffffffffffffffffffffffffffffffffffffffffffffffffffffff90930192506111bb915050565b509392505050565b80158061133c5750604080517fdd62ed3e00000000000000000000000000000000000000000000000000000000815230600482015273ffffffffffffffffffffffffffffffffffffffff848116602483015291519185169163dd62ed3e91604480820192602092909190829003018186803b15801561130e57600080fd5b505afa158015611322573d6000803e3d6000fd5b505050506040513d602081101561133857600080fd5b5051155b611391576040517f08c379a0000000000000000000000000000000000000000000000000000000008152600401808060200182810382526036815260200180611e9b6036913960400191505060405180910390fd5b6040805173ffffffffffffffffffffffffffffffffffffffff8416602482015260448082018490528251808303909101815260649091019091526020810180517bffffffffffffffffffffffffffffffffffffffffffffffffffffffff167f095ea7b30000000000000000000000000000000000000000000000000000000017905261141e908490611720565b505050565b6040805173ffffffffffffffffffffffffffffffffffffffff8416602482015260448082018490528251808303909101815260649091019091526020810180517bffffffffffffffffffffffffffffffffffffffffffffffffffffffff167fa9059cbb0000000000000000000000000000000000000000000000000000000017905261141e908490611720565b6000806000806000806114c388886117f8565b5090506000806000808c73ffffffffffffffffffffffffffffffffffffffff1663d66940276040518163ffffffff1660e01b815260040160a06040518083038186803b15801561151257600080fd5b505afa158015611526573d6000803e3d6000fd5b505050506040513d60a081101561153c57600080fd5b50805160208201516040830151606084015160809094015199506dffffffffffffffffffffffffffff928316975090821695508116935016905073ffffffffffffffffffffffffffffffffffffffff8c81169086161461159f57828482846115a4565b838383835b809a50819b50829c50839d50505050505050505050939792965093509350565b600080871161161e576040517f08c379a0000000000000000000000000000000000000000000000000000000008152600401808060200182810382526026815260200180611e4b6026913960400191505060405180910390fd5b60008611801561162d57508685115b611682576040517f08c379a0000000000000000000000000000000000000000000000000000000008152600401808060200182810382526022815260200180611de26022913960400191505060405180910390fd5b600061168e8589611961565b9050600061169c858a6119dd565b90506116b360016116ad8484611a54565b90611ad5565b92506116c783670de0b6b3a7640000611961565b91506116db670de0b6b3a7640000856119dd565b90506117138161170d847fffffffffffffffffffffffffffffffffffffffffffffffffffffffffffffffff8301611ad5565b90611a54565b9998505050505050505050565b6060611782826040518060400160405280602081526020017f5361666545524332303a206c6f772d6c6576656c2063616c6c206661696c65648152508573ffffffffffffffffffffffffffffffffffffffff16611b499092919063ffffffff16565b80519091501561141e578080602001905160208110156117a157600080fd5b505161141e576040517f08c379a000000000000000000000000000000000000000000000000000000000815260040180806020018281038252602a815260200180611e71602a913960400191505060405180910390fd5b6000808273ffffffffffffffffffffffffffffffffffffffff168473ffffffffffffffffffffffffffffffffffffffff16141561189657604080517f08c379a000000000000000000000000000000000000000000000000000000000815260206004820152601f60248201527f444d4d4c6962726172793a204944454e544943414c5f41444452455353455300604482015290519081900360640190fd5b8273ffffffffffffffffffffffffffffffffffffffff168473ffffffffffffffffffffffffffffffffffffffff16106118d05782846118d3565b83835b909250905073ffffffffffffffffffffffffffffffffffffffff821661195a57604080517f08c379a000000000000000000000000000000000000000000000000000000000815260206004820152601860248201527f444d4d4c6962726172793a205a45524f5f414444524553530000000000000000604482015290519081900360640190fd5b9250929050565b600082611970575060006119d7565b8282028284828161197d57fe5b04146119d4576040517f08c379a0000000000000000000000000000000000000000000000000000000008152600401808060200182810382526021815260200180611e2a6021913960400191505060405180910390fd5b90505b92915050565b600082821115611a4e57604080517f08c379a000000000000000000000000000000000000000000000000000000000815260206004820152601e60248201527f536166654d6174683a207375627472616374696f6e206f766572666c6f770000604482015290519081900360640190fd5b50900390565b6000808211611ac457604080517f08c379a000000000000000000000000000000000000000000000000000000000815260206004820152601a60248201527f536166654d6174683a206469766973696f6e206279207a65726f000000000000604482015290519081900360640190fd5b818381611acd57fe5b049392505050565b6000828201838110156119d457604080517f08c379a000000000000000000000000000000000000000000000000000000000815260206004820152601b60248201527f536166654d6174683a206164646974696f6e206f766572666c6f770000000000604482015290519081900360640190fd5b6060611b588484600085611b62565b90505b9392505050565b606082471015611bbd576040517f08c379a0000000000000000000000000000000000000000000000000000000008152600401808060200182810382526026815260200180611e046026913960400191505060405180910390fd5b611bc685611d1d565b611c3157604080517f08c379a000000000000000000000000000000000000000000000000000000000815260206004820152601d60248201527f416464726573733a2063616c6c20746f206e6f6e2d636f6e7472616374000000604482015290519081900360640190fd5b600060608673ffffffffffffffffffffffffffffffffffffffff1685876040518082805190602001908083835b60208310611c9b57805182527fffffffffffffffffffffffffffffffffffffffffffffffffffffffffffffffe09092019160209182019101611c5e565b6001836020036101000a03801982511681845116808217855250505050505090500191505060006040518083038185875af1925050503d8060008114611cfd576040519150601f19603f3d011682016040523d82523d6000602084013e611d02565b606091505b5091509150611d12828286611d23565b979650505050505050565b3b151590565b60608315611d32575081611b5b565b825115611d425782518084602001fd5b816040517f08c379a00000000000000000000000000000000000000000000000000000000081526004018080602001828103825283818151815260200191508051906020019080838360005b83811015611da6578181015183820152602001611d8e565b50505050905090810190601f168015611dd35780820380516001836020036101000a031916815260200191505b509250505060405180910390fdfe444d4d4c6962726172793a20494e53554646494349454e545f4c4951554944495459416464726573733a20696e73756666696369656e742062616c616e636520666f722063616c6c536166654d6174683a206d756c7469706c69636174696f6e206f766572666c6f77444d4d4c6962726172793a20494e53554646494349454e545f4f55545055545f414d4f554e545361666545524332303a204552433230206f7065726174696f6e20646964206e6f7420737563636565645361666545524332303a20617070726f76652066726f6d206e6f6e2d7a65726f20746f206e6f6e2d7a65726f20616c6c6f77616e6365a2646970667358221220e46336b7a950bc687135d2320db40bd76ad45b252f67a184e6b057bcb437537164736f6c634300060c0033",
  "linkReferences": {},
  "deployedLinkReferences": {}
}