{
  "_format": "hh-sol-artifact-1",
  "contractName": "DaoOperator",
  "sourceName": "contracts/mock/fee/FeeTo.sol",
  "abi": [
    {
      "inputs": [
        {
          "internalType": "address",
          "name": "_daoOperator",
          "type": "address"
        }
      ],
      "stateMutability": "nonpayable",
      "type": "constructor"
    },
    {
      "inputs": [],
      "name": "daoOperator",
      "outputs": [
        {
          "internalType": "address",
          "name": "",
          "type": "address"
        }
      ],
      "stateMutability": "view",
      "type": "function"
    }
  ],
  "bytecode": "0x608060405234801561001057600080fd5b506040516101603803806101608339818101604052602081101561003357600080fd5b50516001600160a01b038116610083576040805162461bcd60e51b815260206004820152601060248201526f064616f4f70657261746f7220697320360841b604482015290519081900360640190fd5b600080546001600160a01b039092166001600160a01b031990921691909117905560ae806100b26000396000f3fe6080604052348015600f57600080fd5b506004361060285760003560e01c80638c9bc20814602d575b600080fd5b6033605c565b6040805173ffffffffffffffffffffffffffffffffffffffff9092168252519081900360200190f35b60005473ffffffffffffffffffffffffffffffffffffffff168156fea26469706673582212204c7ac10bfa85cf92121fc8550d45e7ff8daaa4ac87c5aa35a6764342d9e2ec3564736f6c634300060c0033",
  "linkReferences": {},
  "deployedLinkReferences": {}
}