{
  "_format": "hh-sol-artifact-1",
  "contractName": "DaoOperator",
  "sourceName": "contracts/mock/fee/FeeTo.sol",
  "abi": [
    {
      "inputs": [
        {
          "internalType": "address",
          "name": "_daoOperator",
          "type": "address"
        }
      ],
      "stateMutability": "nonpayable",
      "type": "constructor"
    },
    {
      "inputs": [],
      "name": "daoOperator",
      "outputs": [
        {
          "internalType": "address",
          "name": "",
          "type": "address"
        }
      ],
      "stateMutability": "view",
      "type": "function"
    }
  ],
  "bytecode": "0x608060405234801561001057600080fd5b506040516101463803806101468339818101604052602081101561003357600080fd5b50516001600160a01b038116610083576040805162461bcd60e51b815260206004820152601060248201526f064616f4f70657261746f7220697320360841b604482015290519081900360640190fd5b600080546001600160a01b039092166001600160a01b03199092169190911790556094806100b26000396000f3fe6080604052348015600f57600080fd5b506004361060285760003560e01c80638c9bc20814602d575b600080fd5b6033604f565b604080516001600160a01b039092168252519081900360200190f35b6000546001600160a01b03168156fea26469706673582212208e65255a9a8a4bb7702a75868bb5d76b89074db983867cee453aae47dff3d2e464736f6c634300060c0033",
  "linkReferences": {},
  "deployedLinkReferences": {}
}