{
  "_format": "hh-sol-artifact-1",
  "contractName": "FeeTo",
  "sourceName": "contracts/mock/fee/FeeTo.sol",
  "abi": [
    {
      "inputs": [
        {
          "internalType": "contract IKyberDao",
          "name": "_kyberDao",
          "type": "address"
        },
        {
          "internalType": "address",
          "name": "_daoOperator",
          "type": "address"
        }
      ],
      "stateMutability": "nonpayable",
      "type": "constructor"
    },
    {
      "anonymous": false,
      "inputs": [
        {
          "indexed": true,
          "internalType": "contract IERC20",
          "name": "token",
          "type": "address"
        },
        {
          "indexed": true,
          "internalType": "uint256",
          "name": "epoch",
          "type": "uint256"
        },
        {
          "indexed": false,
          "internalType": "uint256",
          "name": "rewardWei",
          "type": "uint256"
        }
      ],
      "name": "FeeDistributed",
      "type": "event"
    },
    {
      "anonymous": false,
      "inputs": [
        {
          "indexed": true,
          "internalType": "address",
          "name": "staker",
          "type": "address"
        },
        {
          "indexed": true,
          "internalType": "uint256",
          "name": "epoch",
          "type": "uint256"
        },
        {
          "indexed": true,
          "internalType": "contract IERC20",
          "name": "token",
          "type": "address"
        },
        {
          "indexed": false,
          "internalType": "uint256",
          "name": "amount",
          "type": "uint256"
        }
      ],
      "name": "RewardPaid",
      "type": "event"
    },
    {
      "anonymous": false,
      "inputs": [
        {
          "indexed": false,
          "internalType": "contract IERC20",
          "name": "token",
          "type": "address"
        },
        {
          "indexed": false,
          "internalType": "bool",
          "name": "isAllowed",
          "type": "bool"
        }
      ],
      "name": "SetAllowedToken",
      "type": "event"
    },
    {
      "inputs": [
        {
          "internalType": "contract IERC20",
          "name": "",
          "type": "address"
        }
      ],
      "name": "allowedToken",
      "outputs": [
        {
          "internalType": "bool",
          "name": "",
          "type": "bool"
        }
      ],
      "stateMutability": "view",
      "type": "function"
    },
    {
      "inputs": [
        {
          "internalType": "contract IERC20",
          "name": "token",
          "type": "address"
        }
      ],
      "name": "burn",
      "outputs": [],
      "stateMutability": "nonpayable",
      "type": "function"
    },
    {
      "inputs": [
        {
          "internalType": "address",
          "name": "staker",
          "type": "address"
        },
        {
          "internalType": "contract IERC20",
          "name": "token",
          "type": "address"
        },
        {
          "internalType": "uint256",
          "name": "epoch",
          "type": "uint256"
        }
      ],
      "name": "claimStakerReward",
      "outputs": [
        {
          "internalType": "uint256",
          "name": "amountWei",
          "type": "uint256"
        }
      ],
      "stateMutability": "nonpayable",
      "type": "function"
    },
    {
      "inputs": [],
      "name": "daoOperator",
      "outputs": [
        {
          "internalType": "address",
          "name": "",
          "type": "address"
        }
      ],
      "stateMutability": "view",
      "type": "function"
    },
    {
      "inputs": [
        {
          "internalType": "contract IERC20",
          "name": "token",
          "type": "address"
        },
        {
          "internalType": "uint256",
          "name": "epoch",
          "type": "uint256"
        }
      ],
      "name": "finalize",
      "outputs": [],
      "stateMutability": "nonpayable",
      "type": "function"
    },
    {
      "inputs": [
        {
          "internalType": "address",
          "name": "",
          "type": "address"
        },
        {
          "internalType": "uint256",
          "name": "",
          "type": "uint256"
        },
        {
          "internalType": "contract IERC20",
          "name": "",
          "type": "address"
        }
      ],
      "name": "hasClaimedReward",
      "outputs": [
        {
          "internalType": "bool",
          "name": "",
          "type": "bool"
        }
      ],
      "stateMutability": "view",
      "type": "function"
    },
    {
      "inputs": [],
      "name": "kyberDao",
      "outputs": [
        {
          "internalType": "contract IKyberDao",
          "name": "",
          "type": "address"
        }
      ],
      "stateMutability": "view",
      "type": "function"
    },
    {
      "inputs": [
        {
          "internalType": "contract IERC20",
          "name": "",
          "type": "address"
        }
      ],
      "name": "lastFinalizedEpoch",
      "outputs": [
        {
          "internalType": "uint256",
          "name": "",
          "type": "uint256"
        }
      ],
      "stateMutability": "view",
      "type": "function"
    },
    {
      "inputs": [
        {
          "internalType": "contract IERC20",
          "name": "",
          "type": "address"
        }
      ],
      "name": "reserves",
      "outputs": [
        {
          "internalType": "uint256",
          "name": "",
          "type": "uint256"
        }
      ],
      "stateMutability": "view",
      "type": "function"
    },
    {
      "inputs": [
        {
          "internalType": "uint256",
          "name": "",
          "type": "uint256"
        },
        {
          "internalType": "contract IERC20",
          "name": "",
          "type": "address"
        }
      ],
      "name": "rewardsPaidPerEpoch",
      "outputs": [
        {
          "internalType": "uint256",
          "name": "",
          "type": "uint256"
        }
      ],
      "stateMutability": "view",
      "type": "function"
    },
    {
      "inputs": [
        {
          "internalType": "uint256",
          "name": "",
          "type": "uint256"
        },
        {
          "internalType": "contract IERC20",
          "name": "",
          "type": "address"
        }
      ],
      "name": "rewardsPerEpoch",
      "outputs": [
        {
          "internalType": "uint256",
          "name": "",
          "type": "uint256"
        }
      ],
      "stateMutability": "view",
      "type": "function"
    },
    {
      "inputs": [
        {
          "internalType": "contract IERC20",
          "name": "token",
          "type": "address"
        },
        {
          "internalType": "bool",
          "name": "isAllowed",
          "type": "bool"
        }
      ],
      "name": "setAllowedToken",
      "outputs": [],
      "stateMutability": "nonpayable",
      "type": "function"
    }
  ],
  "bytecode": "0x60a060405234801561001057600080fd5b506040516116d13803806116d18339818101604052604081101561003357600080fd5b508051602090910151806001600160a01b03811661008b576040805162461bcd60e51b815260206004820152601060248201526f064616f4f70657261746f7220697320360841b604482015290519081900360640190fd5b600080546001600160a01b0319166001600160a01b039283161790556001805582166100ec576040805162461bcd60e51b815260206004820152600b60248201526a05f6b7962657244616f20360ac1b604482015290519081900360640190fd5b50606081901b6001600160601b0319166080526001600160a01b03166115a8610129600039806103c752806107b65280610ace52506115a86000f3fe608060405234801561001057600080fd5b50600436106100d45760003560e01c806389afcb4411610081578063a50fc56c1161005b578063a50fc56c146102d3578063d66bd5241461030c578063dab662161461033f576100d4565b806389afcb441461025d5780638aaa2284146102905780638c9bc208146102cb576100d4565b8063310afae3116100b2578063310afae3146101b65780634d8f5105146101f9578063756742f81461022a576100d4565b8063048474ac146100d95780630553e1561461012457806313b85c941461015f575b600080fd5b610112600480360360408110156100ef57600080fd5b508035906020013573ffffffffffffffffffffffffffffffffffffffff16610372565b60408051918252519081900360200190f35b61015d6004803603604081101561013a57600080fd5b5073ffffffffffffffffffffffffffffffffffffffff813516906020013561038f565b005b6101a26004803603606081101561017557600080fd5b5073ffffffffffffffffffffffffffffffffffffffff8135811691602081013591604090910135166106c8565b604080519115158252519081900360200190f35b610112600480360360608110156101cc57600080fd5b5073ffffffffffffffffffffffffffffffffffffffff8135811691602081013590911690604001356106ee565b610201610acc565b6040805173ffffffffffffffffffffffffffffffffffffffff9092168252519081900360200190f35b6101a26004803603602081101561024057600080fd5b503573ffffffffffffffffffffffffffffffffffffffff16610af0565b61015d6004803603602081101561027357600080fd5b503573ffffffffffffffffffffffffffffffffffffffff16610b05565b61015d600480360360408110156102a657600080fd5b5073ffffffffffffffffffffffffffffffffffffffff81351690602001351515610da4565b610201610eb9565b610112600480360360408110156102e957600080fd5b508035906020013573ffffffffffffffffffffffffffffffffffffffff16610ed5565b6101126004803603602081101561032257600080fd5b503573ffffffffffffffffffffffffffffffffffffffff16610ef2565b6101126004803603602081101561035557600080fd5b503573ffffffffffffffffffffffffffffffffffffffff16610f04565b600360209081526000928352604080842090915290825290205481565b73ffffffffffffffffffffffffffffffffffffffff821660009081526006602052604090205460ff166103c1576106c4565b600060017f000000000000000000000000000000000000000000000000000000000000000073ffffffffffffffffffffffffffffffffffffffff16634408d2ba6040518163ffffffff1660e01b815260040160206040518083038186803b15801561042b57600080fd5b505afa15801561043f573d6000803e3d6000fd5b505050506040513d602081101561045557600080fd5b505103905081811461046757506106c4565b73ffffffffffffffffffffffffffffffffffffffff8316600090815260076020526040902054811161049957506106c4565b73ffffffffffffffffffffffffffffffffffffffff831660008181526007602052604080822084905580517ffff6cae9000000000000000000000000000000000000000000000000000000008152905163fff6cae99260048084019391929182900301818387803b15801561050d57600080fd5b505af1158015610521573d6000803e3d6000fd5b50505073ffffffffffffffffffffffffffffffffffffffff841660008181526005602090815260408083205481517f70a0823100000000000000000000000000000000000000000000000000000000815230600482015291519395506105d894909390926370a082319260248082019391829003018186803b1580156105a657600080fd5b505afa1580156105ba573d6000803e3d6000fd5b505050506040513d60208110156105d057600080fd5b505190610f16565b9050806105e65750506106c4565b600082815260026020908152604080832073ffffffffffffffffffffffffffffffffffffffff881684529091529020546106209082610f92565b600083815260026020908152604080832073ffffffffffffffffffffffffffffffffffffffff891684528252808320939093556005905220546106639082610f92565b73ffffffffffffffffffffffffffffffffffffffff8516600081815260056020908152604091829020939093558051848152905185937f891d4da69faf2cf5f9b5a4bceeeba1909237ad5d6222ebe54fbcab15067f8e68928290030190a350505b5050565b600460209081526000938452604080852082529284528284209052825290205460ff1681565b60006002600154141561076257604080517f08c379a000000000000000000000000000000000000000000000000000000000815260206004820152601f60248201527f5265656e7472616e637947756172643a207265656e7472616e742063616c6c00604482015290519081900360640190fd5b600260015573ffffffffffffffffffffffffffffffffffffffff808516600090815260046020908152604080832086845282528083209387168352929052205460ff16156107b257506000610ac1565b60007f000000000000000000000000000000000000000000000000000000000000000073ffffffffffffffffffffffffffffffffffffffff166399e30ba886856040518363ffffffff1660e01b8152600401808373ffffffffffffffffffffffffffffffffffffffff1681526020018281526020019250505060206040518083038186803b15801561084357600080fd5b505afa158015610857573d6000803e3d6000fd5b505050506040513d602081101561086d57600080fd5b5051905080610880576000915050610ac1565b61088a848461038f565b670de0b6b3a764000081111561090157604080517f08c379a000000000000000000000000000000000000000000000000000000000815260206004820152601360248201527f70657263656e7461676520746f6f206869676800000000000000000000000000604482015290519081900360640190fd5b600083815260026020908152604080832073ffffffffffffffffffffffffffffffffffffffff8816845290915290205461094d670de0b6b3a7640000610947838561100d565b90611080565b600085815260036020908152604080832073ffffffffffffffffffffffffffffffffffffffff8a1684529091528120549194509061098b9085610f92565b90508181111561099757fe5b600085815260036020908152604080832073ffffffffffffffffffffffffffffffffffffffff8a1684528252808320939093556005905220546109da9084610f16565b73ffffffffffffffffffffffffffffffffffffffff808716600081815260056020908152604080832095909555928a16815260048352838120888252835283812082825290925291902080547fffffffffffffffffffffffffffffffffffffffffffffffffffffffffffffff00166001179055610a58908785611101565b8473ffffffffffffffffffffffffffffffffffffffff16848773ffffffffffffffffffffffffffffffffffffffff167faf206e736916d38b56e2d559931a189bc3119b8fc6d6850bd34e382f09030587866040518082815260200191505060405180910390a450505b600180559392505050565b7f000000000000000000000000000000000000000000000000000000000000000081565b60066020526000908152604090205460ff1681565b60005473ffffffffffffffffffffffffffffffffffffffff163314610b8b57604080517f08c379a000000000000000000000000000000000000000000000000000000000815260206004820152601060248201527f6f6e6c792064616f4f70657261746f7200000000000000000000000000000000604482015290519081900360640190fd5b73ffffffffffffffffffffffffffffffffffffffff811660009081526006602052604090205460ff16610c1f57604080517f08c379a000000000000000000000000000000000000000000000000000000000815260206004820152601b60248201527f746f6b656e2073686f756c642062652064697374726962757465640000000000604482015290519081900360640190fd5b60008173ffffffffffffffffffffffffffffffffffffffff166370a08231306040518263ffffffff1660e01b8152600401808273ffffffffffffffffffffffffffffffffffffffff16815260200191505060206040518083038186803b158015610c8857600080fd5b505afa158015610c9c573d6000803e3d6000fd5b505050506040513d6020811015610cb257600080fd5b5051905060018111610cc45750610da1565b610d0773ffffffffffffffffffffffffffffffffffffffff8316837fffffffffffffffffffffffffffffffffffffffffffffffffffffffffffffffff8401611101565b604080517f89afcb4400000000000000000000000000000000000000000000000000000000815273ffffffffffffffffffffffffffffffffffffffff841660048201819052825190926389afcb4492602480820193918290030181600087803b158015610d7357600080fd5b505af1158015610d87573d6000803e3d6000fd5b505050506040513d6040811015610d9d57600080fd5b5050505b50565b60005473ffffffffffffffffffffffffffffffffffffffff163314610e2a57604080517f08c379a000000000000000000000000000000000000000000000000000000000815260206004820152601060248201527f6f6e6c792064616f4f70657261746f7200000000000000000000000000000000604482015290519081900360640190fd5b73ffffffffffffffffffffffffffffffffffffffff821660008181526006602090815260409182902080547fffffffffffffffffffffffffffffffffffffffffffffffffffffffffffffff001685151590811790915582519384529083015280517fe589eb036e62c07e307aa4d441bd39c81e8bd86f349eaacb0caa06b1477f7f9a9281900390910190a15050565b60005473ffffffffffffffffffffffffffffffffffffffff1681565b600260209081526000928352604080842090915290825290205481565b60056020526000908152604090205481565b60076020526000908152604090205481565b600082821115610f8757604080517f08c379a000000000000000000000000000000000000000000000000000000000815260206004820152601e60248201527f536166654d6174683a207375627472616374696f6e206f766572666c6f770000604482015290519081900360640190fd5b508082035b92915050565b60008282018381101561100657604080517f08c379a000000000000000000000000000000000000000000000000000000000815260206004820152601b60248201527f536166654d6174683a206164646974696f6e206f766572666c6f770000000000604482015290519081900360640190fd5b9392505050565b60008261101c57506000610f8c565b8282028284828161102957fe5b0414611006576040517f08c379a00000000000000000000000000000000000000000000000000000000081526004018080602001828103825260218152602001806115286021913960400191505060405180910390fd5b60008082116110f057604080517f08c379a000000000000000000000000000000000000000000000000000000000815260206004820152601a60248201527f536166654d6174683a206469766973696f6e206279207a65726f000000000000604482015290519081900360640190fd5b8183816110f957fe5b049392505050565b6040805173ffffffffffffffffffffffffffffffffffffffff8416602482015260448082018490528251808303909101815260649091019091526020810180517bffffffffffffffffffffffffffffffffffffffffffffffffffffffff167fa9059cbb0000000000000000000000000000000000000000000000000000000017905261118e908490611193565b505050565b60606111f5826040518060400160405280602081526020017f5361666545524332303a206c6f772d6c6576656c2063616c6c206661696c65648152508573ffffffffffffffffffffffffffffffffffffffff1661126b9092919063ffffffff16565b80519091501561118e5780806020019051602081101561121457600080fd5b505161118e576040517f08c379a000000000000000000000000000000000000000000000000000000000815260040180806020018281038252602a815260200180611549602a913960400191505060405180910390fd5b606061127a8484600085611282565b949350505050565b6060824710156112dd576040517f08c379a00000000000000000000000000000000000000000000000000000000081526004018080602001828103825260268152602001806115026026913960400191505060405180910390fd5b6112e68561143d565b61135157604080517f08c379a000000000000000000000000000000000000000000000000000000000815260206004820152601d60248201527f416464726573733a2063616c6c20746f206e6f6e2d636f6e7472616374000000604482015290519081900360640190fd5b600060608673ffffffffffffffffffffffffffffffffffffffff1685876040518082805190602001908083835b602083106113bb57805182527fffffffffffffffffffffffffffffffffffffffffffffffffffffffffffffffe0909201916020918201910161137e565b6001836020036101000a03801982511681845116808217855250505050505090500191505060006040518083038185875af1925050503d806000811461141d576040519150601f19603f3d011682016040523d82523d6000602084013e611422565b606091505b5091509150611432828286611443565b979650505050505050565b3b151590565b60608315611452575081611006565b8251156114625782518084602001fd5b816040517f08c379a00000000000000000000000000000000000000000000000000000000081526004018080602001828103825283818151815260200191508051906020019080838360005b838110156114c65781810151838201526020016114ae565b50505050905090810190601f1680156114f35780820380516001836020036101000a031916815260200191505b509250505060405180910390fdfe416464726573733a20696e73756666696369656e742062616c616e636520666f722063616c6c536166654d6174683a206d756c7469706c69636174696f6e206f766572666c6f775361666545524332303a204552433230206f7065726174696f6e20646964206e6f742073756363656564a26469706673582212204c6fa10421e4c707644aa821bf6b72d61ca65070c4f11f4a21d47d177e2955d464736f6c634300060c0033",
  "linkReferences": {},
  "deployedLinkReferences": {}
}